{
  "address": "0x9fb2369f2034FD857340D8388395861f07083616",
  "abi": [
    {
      "inputs": [
        {
          "internalType": "contract IERC20",
          "name": "_graphToken",
          "type": "address"
        },
        {
          "internalType": "address",
          "name": "_masterCopy",
          "type": "address"
        }
      ],
      "stateMutability": "nonpayable",
      "type": "constructor"
    },
    {
      "anonymous": false,
      "inputs": [
        {
          "indexed": true,
          "internalType": "address",
          "name": "caller",
          "type": "address"
        },
        {
          "indexed": true,
          "internalType": "bytes4",
          "name": "sigHash",
          "type": "bytes4"
        },
        {
          "indexed": true,
          "internalType": "address",
          "name": "target",
          "type": "address"
        },
        {
          "indexed": false,
          "internalType": "string",
          "name": "signature",
          "type": "string"
        }
      ],
      "name": "FunctionCallAuth",
      "type": "event"
    },
    {
      "anonymous": false,
      "inputs": [
        {
          "indexed": true,
          "internalType": "address",
          "name": "masterCopy",
          "type": "address"
        }
      ],
      "name": "MasterCopyUpdated",
      "type": "event"
    },
    {
      "anonymous": false,
      "inputs": [
        {
          "indexed": true,
          "internalType": "address",
          "name": "previousOwner",
          "type": "address"
        },
        {
          "indexed": true,
          "internalType": "address",
          "name": "newOwner",
          "type": "address"
        }
      ],
      "name": "OwnershipTransferred",
      "type": "event"
    },
    {
      "anonymous": false,
      "inputs": [
        {
          "indexed": true,
          "internalType": "address",
          "name": "proxy",
          "type": "address"
        }
      ],
      "name": "ProxyCreated",
      "type": "event"
    },
    {
      "anonymous": false,
      "inputs": [
        {
          "indexed": true,
          "internalType": "address",
          "name": "dst",
          "type": "address"
        },
        {
          "indexed": false,
          "internalType": "bool",
          "name": "allowed",
          "type": "bool"
        }
      ],
      "name": "TokenDestinationAllowed",
      "type": "event"
    },
    {
      "anonymous": false,
      "inputs": [
        {
          "indexed": true,
          "internalType": "address",
          "name": "contractAddress",
          "type": "address"
        },
        {
          "indexed": true,
          "internalType": "bytes32",
          "name": "initHash",
          "type": "bytes32"
        },
        {
          "indexed": true,
          "internalType": "address",
          "name": "beneficiary",
          "type": "address"
        },
        {
          "indexed": false,
          "internalType": "address",
          "name": "token",
          "type": "address"
        },
        {
          "indexed": false,
          "internalType": "uint256",
          "name": "managedAmount",
          "type": "uint256"
        },
        {
          "indexed": false,
          "internalType": "uint256",
          "name": "startTime",
          "type": "uint256"
        },
        {
          "indexed": false,
          "internalType": "uint256",
          "name": "endTime",
          "type": "uint256"
        },
        {
          "indexed": false,
          "internalType": "uint256",
          "name": "periods",
          "type": "uint256"
        },
        {
          "indexed": false,
          "internalType": "uint256",
          "name": "releaseStartTime",
          "type": "uint256"
        },
        {
          "indexed": false,
          "internalType": "uint256",
          "name": "vestingCliffTime",
          "type": "uint256"
        },
        {
          "indexed": false,
          "internalType": "enum IGraphTokenLock.Revocability",
          "name": "revocable",
          "type": "uint8"
        }
      ],
      "name": "TokenLockCreated",
      "type": "event"
    },
    {
      "anonymous": false,
      "inputs": [
        {
          "indexed": true,
          "internalType": "address",
          "name": "sender",
          "type": "address"
        },
        {
          "indexed": false,
          "internalType": "uint256",
          "name": "amount",
          "type": "uint256"
        }
      ],
      "name": "TokensDeposited",
      "type": "event"
    },
    {
      "anonymous": false,
      "inputs": [
        {
          "indexed": true,
          "internalType": "address",
          "name": "sender",
          "type": "address"
        },
        {
          "indexed": false,
          "internalType": "uint256",
          "name": "amount",
          "type": "uint256"
        }
      ],
      "name": "TokensWithdrawn",
      "type": "event"
    },
    {
      "inputs": [
        {
          "internalType": "address",
          "name": "_dst",
          "type": "address"
        }
      ],
      "name": "addTokenDestination",
      "outputs": [],
      "stateMutability": "nonpayable",
      "type": "function"
    },
    {
      "inputs": [
        {
          "internalType": "bytes4",
          "name": "",
          "type": "bytes4"
        }
      ],
      "name": "authFnCalls",
      "outputs": [
        {
          "internalType": "address",
          "name": "",
          "type": "address"
        }
      ],
      "stateMutability": "view",
      "type": "function"
    },
    {
      "inputs": [
        {
          "internalType": "address",
          "name": "_owner",
          "type": "address"
        },
        {
          "internalType": "address",
          "name": "_beneficiary",
          "type": "address"
        },
        {
          "internalType": "uint256",
          "name": "_managedAmount",
          "type": "uint256"
        },
        {
          "internalType": "uint256",
          "name": "_startTime",
          "type": "uint256"
        },
        {
          "internalType": "uint256",
          "name": "_endTime",
          "type": "uint256"
        },
        {
          "internalType": "uint256",
          "name": "_periods",
          "type": "uint256"
        },
        {
          "internalType": "uint256",
          "name": "_releaseStartTime",
          "type": "uint256"
        },
        {
          "internalType": "uint256",
          "name": "_vestingCliffTime",
          "type": "uint256"
        },
        {
          "internalType": "enum IGraphTokenLock.Revocability",
          "name": "_revocable",
          "type": "uint8"
        }
      ],
      "name": "createTokenLockWallet",
      "outputs": [],
      "stateMutability": "nonpayable",
      "type": "function"
    },
    {
      "inputs": [
        {
          "internalType": "uint256",
          "name": "_amount",
          "type": "uint256"
        }
      ],
      "name": "deposit",
      "outputs": [],
      "stateMutability": "nonpayable",
      "type": "function"
    },
    {
      "inputs": [
        {
          "internalType": "bytes4",
          "name": "_sigHash",
          "type": "bytes4"
        }
      ],
      "name": "getAuthFunctionCallTarget",
      "outputs": [
        {
          "internalType": "address",
          "name": "",
          "type": "address"
        }
      ],
      "stateMutability": "view",
      "type": "function"
    },
    {
      "inputs": [
        {
          "internalType": "bytes32",
          "name": "_salt",
          "type": "bytes32"
        },
        {
          "internalType": "address",
          "name": "_implementation",
          "type": "address"
        }
      ],
      "name": "getDeploymentAddress",
      "outputs": [
        {
          "internalType": "address",
          "name": "",
          "type": "address"
        }
      ],
      "stateMutability": "view",
      "type": "function"
    },
    {
      "inputs": [],
      "name": "getTokenDestinations",
      "outputs": [
        {
          "internalType": "address[]",
          "name": "",
          "type": "address[]"
        }
      ],
      "stateMutability": "view",
      "type": "function"
    },
    {
      "inputs": [
        {
          "internalType": "bytes4",
          "name": "_sigHash",
          "type": "bytes4"
        }
      ],
      "name": "isAuthFunctionCall",
      "outputs": [
        {
          "internalType": "bool",
          "name": "",
          "type": "bool"
        }
      ],
      "stateMutability": "view",
      "type": "function"
    },
    {
      "inputs": [
        {
          "internalType": "address",
          "name": "_dst",
          "type": "address"
        }
      ],
      "name": "isTokenDestination",
      "outputs": [
        {
          "internalType": "bool",
          "name": "",
          "type": "bool"
        }
      ],
      "stateMutability": "view",
      "type": "function"
    },
    {
      "inputs": [],
      "name": "masterCopy",
      "outputs": [
        {
          "internalType": "address",
          "name": "",
          "type": "address"
        }
      ],
      "stateMutability": "view",
      "type": "function"
    },
    {
      "inputs": [],
      "name": "owner",
      "outputs": [
        {
          "internalType": "address",
          "name": "",
          "type": "address"
        }
      ],
      "stateMutability": "view",
      "type": "function"
    },
    {
      "inputs": [
        {
          "internalType": "address",
          "name": "_dst",
          "type": "address"
        }
      ],
      "name": "removeTokenDestination",
      "outputs": [],
      "stateMutability": "nonpayable",
      "type": "function"
    },
    {
      "inputs": [],
      "name": "renounceOwnership",
      "outputs": [],
      "stateMutability": "nonpayable",
      "type": "function"
    },
    {
      "inputs": [
        {
          "internalType": "string",
          "name": "_signature",
          "type": "string"
        },
        {
          "internalType": "address",
          "name": "_target",
          "type": "address"
        }
      ],
      "name": "setAuthFunctionCall",
      "outputs": [],
      "stateMutability": "nonpayable",
      "type": "function"
    },
    {
      "inputs": [
        {
          "internalType": "string[]",
          "name": "_signatures",
          "type": "string[]"
        },
        {
          "internalType": "address[]",
          "name": "_targets",
          "type": "address[]"
        }
      ],
      "name": "setAuthFunctionCallMany",
      "outputs": [],
      "stateMutability": "nonpayable",
      "type": "function"
    },
    {
      "inputs": [
        {
          "internalType": "address",
          "name": "_masterCopy",
          "type": "address"
        }
      ],
      "name": "setMasterCopy",
      "outputs": [],
      "stateMutability": "nonpayable",
      "type": "function"
    },
    {
      "inputs": [],
      "name": "token",
      "outputs": [
        {
          "internalType": "contract IERC20",
          "name": "",
          "type": "address"
        }
      ],
      "stateMutability": "view",
      "type": "function"
    },
    {
      "inputs": [
        {
          "internalType": "address",
          "name": "newOwner",
          "type": "address"
        }
      ],
      "name": "transferOwnership",
      "outputs": [],
      "stateMutability": "nonpayable",
      "type": "function"
    },
    {
      "inputs": [
        {
          "internalType": "string",
          "name": "_signature",
          "type": "string"
        }
      ],
      "name": "unsetAuthFunctionCall",
      "outputs": [],
      "stateMutability": "nonpayable",
      "type": "function"
    },
    {
      "inputs": [
        {
          "internalType": "uint256",
          "name": "_amount",
          "type": "uint256"
        }
      ],
      "name": "withdraw",
      "outputs": [],
      "stateMutability": "nonpayable",
      "type": "function"
    }
  ],
  "transactionHash": "0x45a0e8ebdc925f6eaeadd3e043bae0a8bd1b8c373641c90b6a341f1a40658906",
  "args": [
    "0xB0a7bC0e6b51db8Cfda3f80904c8E35259F1abDb",
    "0x6Eb5538d1E805a503893Cd23AE980320Eb8358C8"
  ],
  "solcInputHash": "a72ab6278ade6c5c10115f7be2c555c9",
  "bytecode": "0x60806040523480156200001157600080fd5b5060405162003d7538038062003d75833981810160405281019062000037919062000384565b600062000049620001b460201b60201c565b9050806000806101000a81548173ffffffffffffffffffffffffffffffffffffffff021916908373ffffffffffffffffffffffffffffffffffffffff1602179055508073ffffffffffffffffffffffffffffffffffffffff16600073ffffffffffffffffffffffffffffffffffffffff167f8be0079c531659141344cd1fd0a4f28419497f9722a3daafe3b4186f6b6457e060405160405180910390a350600073ffffffffffffffffffffffffffffffffffffffff168273ffffffffffffffffffffffffffffffffffffffff1614156200015a576040517f08c379a00000000000000000000000000000000000000000000000000000000081526004016200015190620004cf565b60405180910390fd5b81600560006101000a81548173ffffffffffffffffffffffffffffffffffffffff021916908373ffffffffffffffffffffffffffffffffffffffff160217905550620001ac81620001bc60201b60201c565b50506200057e565b600033905090565b620001cc620001b460201b60201c565b73ffffffffffffffffffffffffffffffffffffffff1660008054906101000a900473ffffffffffffffffffffffffffffffffffffffff1673ffffffffffffffffffffffffffffffffffffffff16146200025c576040517f08c379a00000000000000000000000000000000000000000000000000000000081526004016200025390620004ad565b60405180910390fd5b600073ffffffffffffffffffffffffffffffffffffffff168173ffffffffffffffffffffffffffffffffffffffff161415620002cf576040517f08c379a0000000000000000000000000000000000000000000000000000000008152600401620002c6906200048b565b60405180910390fd5b80600460006101000a81548173ffffffffffffffffffffffffffffffffffffffff021916908373ffffffffffffffffffffffffffffffffffffffff1602179055508073ffffffffffffffffffffffffffffffffffffffff167f30909084afc859121ffc3a5aef7fe37c540a9a1ef60bd4d8dcdb76376fadf9de60405160405180910390a250565b60008151905062000367816200054a565b92915050565b6000815190506200037e8162000564565b92915050565b600080604083850312156200039857600080fd5b6000620003a8858286016200036d565b9250506020620003bb8582860162000356565b9150509250929050565b6000620003d4601983620004f1565b91507f4d6173746572436f70792063616e6e6f74206265207a65726f000000000000006000830152602082019050919050565b600062000416602083620004f1565b91507f4f776e61626c653a2063616c6c6572206973206e6f7420746865206f776e65726000830152602082019050919050565b600062000458601483620004f1565b91507f546f6b656e2063616e6e6f74206265207a65726f0000000000000000000000006000830152602082019050919050565b60006020820190508181036000830152620004a681620003c5565b9050919050565b60006020820190508181036000830152620004c88162000407565b9050919050565b60006020820190508181036000830152620004ea8162000449565b9050919050565b600082825260208201905092915050565b60006200050f826200052a565b9050919050565b6000620005238262000502565b9050919050565b600073ffffffffffffffffffffffffffffffffffffffff82169050919050565b620005558162000502565b81146200056157600080fd5b50565b6200056f8162000516565b81146200057b57600080fd5b50565b6137e7806200058e6000396000f3fe608060405234801561001057600080fd5b506004361061012c5760003560e01c80639c05fc60116100ad578063c1ab13db11610071578063c1ab13db14610319578063cf497e6c14610335578063f1d24c4514610351578063f2fde38b14610381578063fc0c546a1461039d5761012c565b80639c05fc6014610275578063a345746614610291578063a619486e146102af578063b6b55f25146102cd578063bdb62fbe146102e95761012c565b806368d30c2e116100f457806368d30c2e146101d15780636e03b8dc146101ed578063715018a61461021d57806379ee1bdf146102275780638da5cb5b146102575761012c565b806303990a6c146101315780630602ba2b1461014d5780632e1a7d4d1461017d578063463013a2146101995780635975e00c146101b5575b600080fd5b61014b60048036038101906101469190612638565b6103bb565b005b6101676004803603810190610162919061260f565b61057c565b6040516101749190613127565b60405180910390f35b610197600480360381019061019291906126d5565b6105bd565b005b6101b360048036038101906101ae919061267d565b610733565b005b6101cf60048036038101906101ca9190612446565b6107d8565b005b6101eb60048036038101906101e6919061246f565b610982565b005b6102076004803603810190610202919061260f565b610cfb565b6040516102149190612f61565b60405180910390f35b610225610d2e565b005b610241600480360381019061023c9190612446565b610e81565b60405161024e9190613127565b60405180910390f35b61025f610e9e565b60405161026c9190612f61565b60405180910390f35b61028f600480360381019061028a9190612535565b610ec7565b005b61029961100d565b6040516102a69190613105565b60405180910390f35b6102b76110e5565b6040516102c49190612f61565b60405180910390f35b6102e760048036038101906102e291906126d5565b61110b565b005b61030360048036038101906102fe91906125d3565b6111ee565b6040516103109190612f61565b60405180910390f35b610333600480360381019061032e9190612446565b611212565b005b61034f600480360381019061034a9190612446565b61134c565b005b61036b6004803603810190610366919061260f565b6114d8565b6040516103789190612f61565b60405180910390f35b61039b60048036038101906103969190612446565b611553565b005b6103a5611715565b6040516103b29190613142565b60405180910390f35b6103c361173f565b73ffffffffffffffffffffffffffffffffffffffff1660008054906101000a900473ffffffffffffffffffffffffffffffffffffffff1673ffffffffffffffffffffffffffffffffffffffff1614610450576040517f08c379a000000000000000000000000000000000000000000000000000000000815260040161044790613323565b60405180910390fd5b600061045c8383611747565b9050600060016000837bffffffffffffffffffffffffffffffffffffffffffffffffffffffff19167bffffffffffffffffffffffffffffffffffffffffffffffffffffffff1916815260200190815260200160002060006101000a81548173ffffffffffffffffffffffffffffffffffffffff021916908373ffffffffffffffffffffffffffffffffffffffff160217905550600073ffffffffffffffffffffffffffffffffffffffff16817bffffffffffffffffffffffffffffffffffffffffffffffffffffffff19163373ffffffffffffffffffffffffffffffffffffffff167f450397a2db0e89eccfe664cc6cdfd274a88bc00d29aaec4d991754a42f19f8c9868660405161056f92919061315d565b60405180910390a4505050565b60008073ffffffffffffffffffffffffffffffffffffffff1661059e836114d8565b73ffffffffffffffffffffffffffffffffffffffff1614159050919050565b6105c561173f565b73ffffffffffffffffffffffffffffffffffffffff1660008054906101000a900473ffffffffffffffffffffffffffffffffffffffff1673ffffffffffffffffffffffffffffffffffffffff1614610652576040517f08c379a000000000000000000000000000000000000000000000000000000000815260040161064990613323565b60405180910390fd5b60008111610695576040517f08c379a000000000000000000000000000000000000000000000000000000000815260040161068c90613303565b60405180910390fd5b6106e23382600560009054906101000a900473ffffffffffffffffffffffffffffffffffffffff1673ffffffffffffffffffffffffffffffffffffffff166117d59092919063ffffffff16565b3373ffffffffffffffffffffffffffffffffffffffff167f6352c5382c4a4578e712449ca65e83cdb392d045dfcf1cad9615189db2da244b826040516107289190613403565b60405180910390a250565b61073b61173f565b73ffffffffffffffffffffffffffffffffffffffff1660008054906101000a900473ffffffffffffffffffffffffffffffffffffffff1673ffffffffffffffffffffffffffffffffffffffff16146107c8576040517f08c379a00000000000000000000000000000000000000000000000000000000081526004016107bf90613323565b60405180910390fd5b6107d383838361185b565b505050565b6107e061173f565b73ffffffffffffffffffffffffffffffffffffffff1660008054906101000a900473ffffffffffffffffffffffffffffffffffffffff1673ffffffffffffffffffffffffffffffffffffffff161461086d576040517f08c379a000000000000000000000000000000000000000000000000000000000815260040161086490613323565b60405180910390fd5b600073ffffffffffffffffffffffffffffffffffffffff168173ffffffffffffffffffffffffffffffffffffffff1614156108dd576040517f08c379a00000000000000000000000000000000000000000000000000000000081526004016108d490613203565b60405180910390fd5b6108f1816002611a3d90919063ffffffff16565b610930576040517f08c379a000000000000000000000000000000000000000000000000000000000815260040161092790613363565b60405180910390fd5b8073ffffffffffffffffffffffffffffffffffffffff167f33442b8c13e72dd75a027f08f9bff4eed2dfd26e43cdea857365f5163b359a7960016040516109779190613127565b60405180910390a250565b61098a61173f565b73ffffffffffffffffffffffffffffffffffffffff1660008054906101000a900473ffffffffffffffffffffffffffffffffffffffff1673ffffffffffffffffffffffffffffffffffffffff1614610a17576040517f08c379a0000000000000000000000000000000000000000000000000000000008152600401610a0e90613323565b60405180910390fd5b86600560009054906101000a900473ffffffffffffffffffffffffffffffffffffffff1673ffffffffffffffffffffffffffffffffffffffff166370a08231306040518263ffffffff1660e01b8152600401610a739190612f61565b60206040518083038186803b158015610a8b57600080fd5b505afa158015610a9f573d6000803e3d6000fd5b505050506040513d601f19601f82011682018060405250810190610ac391906126fe565b1015610b04576040517f08c379a0000000000000000000000000000000000000000000000000000000008152600401610afb90613243565b60405180910390fd5b6060308a8a600560009054906101000a900473ffffffffffffffffffffffffffffffffffffffff168b8b8b8b8b8b8b604051602401610b4d9b9a99989796959493929190612f7c565b6040516020818303038152906040527fbd896dcb000000000000000000000000000000000000000000000000000000007bffffffffffffffffffffffffffffffffffffffffffffffffffffffff19166020820180517bffffffffffffffffffffffffffffffffffffffffffffffffffffffff838183161783525050505090506000610c028280519060200120600460009054906101000a900473ffffffffffffffffffffffffffffffffffffffff1684611a6d565b9050610c51818a600560009054906101000a900473ffffffffffffffffffffffffffffffffffffffff1673ffffffffffffffffffffffffffffffffffffffff166117d59092919063ffffffff16565b8973ffffffffffffffffffffffffffffffffffffffff1682805190602001208273ffffffffffffffffffffffffffffffffffffffff167f3c7ff6acee351ed98200c285a04745858a107e16da2f13c3a81a43073c17d644600560009054906101000a900473ffffffffffffffffffffffffffffffffffffffff168d8d8d8d8d8d8d604051610ce6989796959493929190613087565b60405180910390a45050505050505050505050565b60016020528060005260406000206000915054906101000a900473ffffffffffffffffffffffffffffffffffffffff1681565b610d3661173f565b73ffffffffffffffffffffffffffffffffffffffff1660008054906101000a900473ffffffffffffffffffffffffffffffffffffffff1673ffffffffffffffffffffffffffffffffffffffff1614610dc3576040517f08c379a0000000000000000000000000000000000000000000000000000000008152600401610dba90613323565b60405180910390fd5b600073ffffffffffffffffffffffffffffffffffffffff1660008054906101000a900473ffffffffffffffffffffffffffffffffffffffff1673ffffffffffffffffffffffffffffffffffffffff167f8be0079c531659141344cd1fd0a4f28419497f9722a3daafe3b4186f6b6457e060405160405180910390a360008060006101000a81548173ffffffffffffffffffffffffffffffffffffffff021916908373ffffffffffffffffffffffffffffffffffffffff160217905550565b6000610e97826002611ae990919063ffffffff16565b9050919050565b60008060009054906101000a900473ffffffffffffffffffffffffffffffffffffffff16905090565b610ecf61173f565b73ffffffffffffffffffffffffffffffffffffffff1660008054906101000a900473ffffffffffffffffffffffffffffffffffffffff1673ffffffffffffffffffffffffffffffffffffffff1614610f5c576040517f08c379a0000000000000000000000000000000000000000000000000000000008152600401610f5390613323565b60405180910390fd5b818190508484905014610fa4576040517f08c379a0000000000000000000000000000000000000000000000000000000008152600401610f9b906131e3565b60405180910390fd5b60005b8484905081101561100657610ff9858583818110610fc157fe5b9050602002810190610fd3919061341e565b858585818110610fdf57fe5b9050602002016020810190610ff49190612446565b61185b565b8080600101915050610fa7565b5050505050565b60608061101a6002611b19565b67ffffffffffffffff8111801561103057600080fd5b5060405190808252806020026020018201604052801561105f5781602001602082028036833780820191505090505b50905060005b61106f6002611b19565b8110156110dd5761108a816002611b2e90919063ffffffff16565b82828151811061109657fe5b602002602001019073ffffffffffffffffffffffffffffffffffffffff16908173ffffffffffffffffffffffffffffffffffffffff16815250508080600101915050611065565b508091505090565b600460009054906101000a900473ffffffffffffffffffffffffffffffffffffffff1681565b6000811161114e576040517f08c379a000000000000000000000000000000000000000000000000000000000815260040161114590613303565b60405180910390fd5b61119d333083600560009054906101000a900473ffffffffffffffffffffffffffffffffffffffff1673ffffffffffffffffffffffffffffffffffffffff16611b48909392919063ffffffff16565b3373ffffffffffffffffffffffffffffffffffffffff167f59062170a285eb80e8c6b8ced60428442a51910635005233fc4ce084a475845e826040516111e39190613403565b60405180910390a250565b600061120a836111fd84611bd1565b8051906020012030611c47565b905092915050565b61121a61173f565b73ffffffffffffffffffffffffffffffffffffffff1660008054906101000a900473ffffffffffffffffffffffffffffffffffffffff1673ffffffffffffffffffffffffffffffffffffffff16146112a7576040517f08c379a000000000000000000000000000000000000000000000000000000000815260040161129e90613323565b60405180910390fd5b6112bb816002611c8b90919063ffffffff16565b6112fa576040517f08c379a00000000000000000000000000000000000000000000000000000000081526004016112f190613283565b60405180910390fd5b8073ffffffffffffffffffffffffffffffffffffffff167f33442b8c13e72dd75a027f08f9bff4eed2dfd26e43cdea857365f5163b359a7960006040516113419190613127565b60405180910390a250565b61135461173f565b73ffffffffffffffffffffffffffffffffffffffff1660008054906101000a900473ffffffffffffffffffffffffffffffffffffffff1673ffffffffffffffffffffffffffffffffffffffff16146113e1576040517f08c379a00000000000000000000000000000000000000000000000000000000081526004016113d890613323565b60405180910390fd5b600073ffffffffffffffffffffffffffffffffffffffff168173ffffffffffffffffffffffffffffffffffffffff161415611451576040517f08c379a0000000000000000000000000000000000000000000000000000000008152600401611448906132a3565b60405180910390fd5b80600460006101000a81548173ffffffffffffffffffffffffffffffffffffffff021916908373ffffffffffffffffffffffffffffffffffffffff1602179055508073ffffffffffffffffffffffffffffffffffffffff167f30909084afc859121ffc3a5aef7fe37c540a9a1ef60bd4d8dcdb76376fadf9de60405160405180910390a250565b600060016000837bffffffffffffffffffffffffffffffffffffffffffffffffffffffff19167bffffffffffffffffffffffffffffffffffffffffffffffffffffffff1916815260200190815260200160002060009054906101000a900473ffffffffffffffffffffffffffffffffffffffff169050919050565b61155b61173f565b73ffffffffffffffffffffffffffffffffffffffff1660008054906101000a900473ffffffffffffffffffffffffffffffffffffffff1673ffffffffffffffffffffffffffffffffffffffff16146115e8576040517f08c379a00000000000000000000000000000000000000000000000000000000081526004016115df90613323565b60405180910390fd5b600073ffffffffffffffffffffffffffffffffffffffff168173ffffffffffffffffffffffffffffffffffffffff161415611658576040517f08c379a000000000000000000000000000000000000000000000000000000000815260040161164f90613223565b60405180910390fd5b8073ffffffffffffffffffffffffffffffffffffffff1660008054906101000a900473ffffffffffffffffffffffffffffffffffffffff1673ffffffffffffffffffffffffffffffffffffffff167f8be0079c531659141344cd1fd0a4f28419497f9722a3daafe3b4186f6b6457e060405160405180910390a3806000806101000a81548173ffffffffffffffffffffffffffffffffffffffff021916908373ffffffffffffffffffffffffffffffffffffffff16021790555050565b6000600560009054906101000a900473ffffffffffffffffffffffffffffffffffffffff16905090565b600033905090565b60006117cd83836040516024016040516020818303038152906040529190604051611773929190612f48565b60405180910390207bffffffffffffffffffffffffffffffffffffffffffffffffffffffff19166020820180517bffffffffffffffffffffffffffffffffffffffffffffffffffffffff8381831617835250505050611cbb565b905092915050565b6118568363a9059cbb60e01b84846040516024016117f492919061305e565b604051602081830303815290604052907bffffffffffffffffffffffffffffffffffffffffffffffffffffffff19166020820180517bffffffffffffffffffffffffffffffffffffffffffffffffffffffff8381831617835250505050611d13565b505050565b3073ffffffffffffffffffffffffffffffffffffffff168173ffffffffffffffffffffffffffffffffffffffff1614156118ca576040517f08c379a00000000000000000000000000000000000000000000000000000000081526004016118c1906132c3565b60405180910390fd5b6118d381611dda565b611912576040517f08c379a0000000000000000000000000000000000000000000000000000000008152600401611909906133e3565b60405180910390fd5b600061191e8484611747565b90508160016000837bffffffffffffffffffffffffffffffffffffffffffffffffffffffff19167bffffffffffffffffffffffffffffffffffffffffffffffffffffffff1916815260200190815260200160002060006101000a81548173ffffffffffffffffffffffffffffffffffffffff021916908373ffffffffffffffffffffffffffffffffffffffff1602179055508173ffffffffffffffffffffffffffffffffffffffff16817bffffffffffffffffffffffffffffffffffffffffffffffffffffffff19163373ffffffffffffffffffffffffffffffffffffffff167f450397a2db0e89eccfe664cc6cdfd274a88bc00d29aaec4d991754a42f19f8c98787604051611a2f92919061315d565b60405180910390a450505050565b6000611a65836000018373ffffffffffffffffffffffffffffffffffffffff1660001b611ded565b905092915050565b600080611a84600086611a7f87611bd1565b611e5d565b90508073ffffffffffffffffffffffffffffffffffffffff167efffc2da0b561cae30d9826d37709e9421c4725faebc226cbbb7ef5fc5e734960405160405180910390a2600083511115611ade57611adc8184611f6e565b505b809150509392505050565b6000611b11836000018373ffffffffffffffffffffffffffffffffffffffff1660001b611fb8565b905092915050565b6000611b2782600001611fdb565b9050919050565b6000611b3d8360000183611fec565b60001c905092915050565b611bcb846323b872dd60e01b858585604051602401611b6993929190613027565b604051602081830303815290604052907bffffffffffffffffffffffffffffffffffffffffffffffffffffffff19166020820180517bffffffffffffffffffffffffffffffffffffffffffffffffffffffff8381831617835250505050611d13565b50505050565b60606000693d602d80600a3d3981f360b01b9050600069363d3d373d3d3d363d7360b01b905060008460601b905060006e5af43d82803e903d91602b57fd5bf360881b905083838383604051602001611c2d9493929190612e95565b604051602081830303815290604052945050505050919050565b60008060ff60f81b838686604051602001611c659493929190612ee3565b6040516020818303038152906040528051906020012090508060001c9150509392505050565b6000611cb3836000018373ffffffffffffffffffffffffffffffffffffffff1660001b612059565b905092915050565b60006004825114611d01576040517f08c379a0000000000000000000000000000000000000000000000000000000008152600401611cf890613343565b60405180910390fd5b60006020830151905080915050919050565b6060611d75826040518060400160405280602081526020017f5361666545524332303a206c6f772d6c6576656c2063616c6c206661696c65648152508573ffffffffffffffffffffffffffffffffffffffff166121419092919063ffffffff16565b9050600081511115611dd55780806020019051810190611d9591906125aa565b611dd4576040517f08c379a0000000000000000000000000000000000000000000000000000000008152600401611dcb906133a3565b60405180910390fd5b5b505050565b600080823b905060008111915050919050565b6000611df98383611fb8565b611e52578260000182908060018154018082558091505060019003906000526020600020016000909190919091505582600001805490508360010160008481526020019081526020016000208190555060019050611e57565b600090505b92915050565b60008084471015611ea3576040517f08c379a0000000000000000000000000000000000000000000000000000000008152600401611e9a906133c3565b60405180910390fd5b600083511415611ee8576040517f08c379a0000000000000000000000000000000000000000000000000000000008152600401611edf906131c3565b60405180910390fd5b8383516020850187f59050600073ffffffffffffffffffffffffffffffffffffffff168173ffffffffffffffffffffffffffffffffffffffff161415611f63576040517f08c379a0000000000000000000000000000000000000000000000000000000008152600401611f5a906132e3565b60405180910390fd5b809150509392505050565b6060611fb083836040518060400160405280601e81526020017f416464726573733a206c6f772d6c6576656c2063616c6c206661696c65640000815250612141565b905092915050565b600080836001016000848152602001908152602001600020541415905092915050565b600081600001805490509050919050565b600081836000018054905011612037576040517f08c379a000000000000000000000000000000000000000000000000000000000815260040161202e906131a3565b60405180910390fd5b82600001828154811061204657fe5b9060005260206000200154905092915050565b6000808360010160008481526020019081526020016000205490506000811461213557600060018203905060006001866000018054905003905060008660000182815481106120a457fe5b90600052602060002001549050808760000184815481106120c157fe5b90600052602060002001819055506001830187600101600083815260200190815260200160002081905550866000018054806120f957fe5b6001900381819060005260206000200160009055905586600101600087815260200190815260200160002060009055600194505050505061213b565b60009150505b92915050565b60606121508484600085612159565b90509392505050565b60608247101561219e576040517f08c379a000000000000000000000000000000000000000000000000000000000815260040161219590613263565b60405180910390fd5b6121a785611dda565b6121e6576040517f08c379a00000000000000000000000000000000000000000000000000000000081526004016121dd90613383565b60405180910390fd5b600060608673ffffffffffffffffffffffffffffffffffffffff1685876040516122109190612f31565b60006040518083038185875af1925050503d806000811461224d576040519150601f19603f3d011682016040523d82523d6000602084013e612252565b606091505b509150915061226282828661226e565b92505050949350505050565b6060831561227e578290506122ce565b6000835111156122915782518084602001fd5b816040517f08c379a00000000000000000000000000000000000000000000000000000000081526004016122c59190613181565b60405180910390fd5b9392505050565b6000813590506122e48161372e565b92915050565b60008083601f8401126122fc57600080fd5b8235905067ffffffffffffffff81111561231557600080fd5b60208301915083602082028301111561232d57600080fd5b9250929050565b60008083601f84011261234657600080fd5b8235905067ffffffffffffffff81111561235f57600080fd5b60208301915083602082028301111561237757600080fd5b9250929050565b60008151905061238d81613745565b92915050565b6000813590506123a28161375c565b92915050565b6000813590506123b781613773565b92915050565b6000813590506123cc8161378a565b92915050565b60008083601f8401126123e457600080fd5b8235905067ffffffffffffffff8111156123fd57600080fd5b60208301915083600182028301111561241557600080fd5b9250929050565b60008135905061242b8161379a565b92915050565b6000815190506124408161379a565b92915050565b60006020828403121561245857600080fd5b6000612466848285016122d5565b91505092915050565b60008060008060008060008060006101208a8c03121561248e57600080fd5b600061249c8c828d016122d5565b99505060206124ad8c828d016122d5565b98505060406124be8c828d0161241c565b97505060606124cf8c828d0161241c565b96505060806124e08c828d0161241c565b95505060a06124f18c828d0161241c565b94505060c06125028c828d0161241c565b93505060e06125138c828d0161241c565b9250506101006125258c828d016123bd565b9150509295985092959850929598565b6000806000806040858703121561254b57600080fd5b600085013567ffffffffffffffff81111561256557600080fd5b61257187828801612334565b9450945050602085013567ffffffffffffffff81111561259057600080fd5b61259c878288016122ea565b925092505092959194509250565b6000602082840312156125bc57600080fd5b60006125ca8482850161237e565b91505092915050565b600080604083850312156125e657600080fd5b60006125f485828601612393565b9250506020612605858286016122d5565b9150509250929050565b60006020828403121561262157600080fd5b600061262f848285016123a8565b91505092915050565b6000806020838503121561264b57600080fd5b600083013567ffffffffffffffff81111561266557600080fd5b612671858286016123d2565b92509250509250929050565b60008060006040848603121561269257600080fd5b600084013567ffffffffffffffff8111156126ac57600080fd5b6126b8868287016123d2565b935093505060206126cb868287016122d5565b9150509250925092565b6000602082840312156126e757600080fd5b60006126f58482850161241c565b91505092915050565b60006020828403121561271057600080fd5b600061271e84828501612431565b91505092915050565b6000612733838361273f565b60208301905092915050565b612748816134eb565b82525050565b612757816134eb565b82525050565b61276e612769826134eb565b6136a4565b82525050565b600061277f82613485565b61278981856134b3565b935061279483613475565b8060005b838110156127c55781516127ac8882612727565b97506127b7836134a6565b925050600181019050612798565b5085935050505092915050565b6127db816134fd565b82525050565b6127f26127ed82613535565b6136c0565b82525050565b61280961280482613561565b6136ca565b82525050565b61282061281b82613509565b6136b6565b82525050565b6128376128328261358d565b6136d4565b82525050565b61284e612849826135b9565b6136de565b82525050565b600061285f82613490565b61286981856134c4565b9350612879818560208601613671565b80840191505092915050565b61288e8161362c565b82525050565b61289d81613650565b82525050565b60006128af83856134cf565b93506128bc838584613662565b6128c5836136fc565b840190509392505050565b60006128dc83856134e0565b93506128e9838584613662565b82840190509392505050565b60006129008261349b565b61290a81856134cf565b935061291a818560208601613671565b612923816136fc565b840191505092915050565b600061293b6022836134cf565b91507f456e756d657261626c655365743a20696e646578206f7574206f6620626f756e60008301527f64730000000000000000000000000000000000000000000000000000000000006020830152604082019050919050565b60006129a16020836134cf565b91507f437265617465323a2062797465636f6465206c656e677468206973207a65726f6000830152602082019050919050565b60006129e16015836134cf565b91507f4172726179206c656e677468206d69736d6174636800000000000000000000006000830152602082019050919050565b6000612a21601a836134cf565b91507f44657374696e6174696f6e2063616e6e6f74206265207a65726f0000000000006000830152602082019050919050565b6000612a616026836134cf565b91507f4f776e61626c653a206e6577206f776e657220697320746865207a65726f206160008301527f64647265737300000000000000000000000000000000000000000000000000006020830152604082019050919050565b6000612ac76020836134cf565b91507f4e6f7420656e6f75676820746f6b656e7320746f20637265617465206c6f636b6000830152602082019050919050565b6000612b076026836134cf565b91507f416464726573733a20696e73756666696369656e742062616c616e636520666f60008301527f722063616c6c00000000000000000000000000000000000000000000000000006020830152604082019050919050565b6000612b6d601b836134cf565b91507f44657374696e6174696f6e20616c72656164792072656d6f76656400000000006000830152602082019050919050565b6000612bad6019836134cf565b91507f4d6173746572436f70792063616e6e6f74206265207a65726f000000000000006000830152602082019050919050565b6000612bed601d836134cf565b91507f546172676574206d757374206265206f7468657220636f6e74726163740000006000830152602082019050919050565b6000612c2d6019836134cf565b91507f437265617465323a204661696c6564206f6e206465706c6f79000000000000006000830152602082019050919050565b6000612c6d6015836134cf565b91507f416d6f756e742063616e6e6f74206265207a65726f00000000000000000000006000830152602082019050919050565b6000612cad6020836134cf565b91507f4f776e61626c653a2063616c6c6572206973206e6f7420746865206f776e65726000830152602082019050919050565b6000612ced6018836134cf565b91507f496e76616c6964206d6574686f64207369676e617475726500000000000000006000830152602082019050919050565b6000612d2d6019836134cf565b91507f44657374696e6174696f6e20616c7265616479206164646564000000000000006000830152602082019050919050565b6000612d6d601d836134cf565b91507f416464726573733a2063616c6c20746f206e6f6e2d636f6e74726163740000006000830152602082019050919050565b6000612dad602a836134cf565b91507f5361666545524332303a204552433230206f7065726174696f6e20646964206e60008301527f6f742073756363656564000000000000000000000000000000000000000000006020830152604082019050919050565b6000612e13601d836134cf565b91507f437265617465323a20696e73756666696369656e742062616c616e63650000006000830152602082019050919050565b6000612e536019836134cf565b91507f546172676574206d757374206265206120636f6e7472616374000000000000006000830152602082019050919050565b612e8f81613622565b82525050565b6000612ea182876127e1565b600a82019150612eb182866127e1565b600a82019150612ec18285612826565b601482019150612ed182846127f8565b600f8201915081905095945050505050565b6000612eef828761280f565b600182019150612eff828661275d565b601482019150612f0f828561283d565b602082019150612f1f828461283d565b60208201915081905095945050505050565b6000612f3d8284612854565b915081905092915050565b6000612f558284866128d0565b91508190509392505050565b6000602082019050612f76600083018461274e565b92915050565b600061016082019050612f92600083018e61274e565b612f9f602083018d61274e565b612fac604083018c61274e565b612fb9606083018b61274e565b612fc6608083018a612e86565b612fd360a0830189612e86565b612fe060c0830188612e86565b612fed60e0830187612e86565b612ffb610100830186612e86565b613009610120830185612e86565b613017610140830184612894565b9c9b505050505050505050505050565b600060608201905061303c600083018661274e565b613049602083018561274e565b6130566040830184612e86565b949350505050565b6000604082019050613073600083018561274e565b6130806020830184612e86565b9392505050565b60006101008201905061309d600083018b61274e565b6130aa602083018a612e86565b6130b76040830189612e86565b6130c46060830188612e86565b6130d16080830187612e86565b6130de60a0830186612e86565b6130eb60c0830185612e86565b6130f860e0830184612894565b9998505050505050505050565b6000602082019050818103600083015261311f8184612774565b905092915050565b600060208201905061313c60008301846127d2565b92915050565b60006020820190506131576000830184612885565b92915050565b600060208201905081810360008301526131788184866128a3565b90509392505050565b6000602082019050818103600083015261319b81846128f5565b905092915050565b600060208201905081810360008301526131bc8161292e565b9050919050565b600060208201905081810360008301526131dc81612994565b9050919050565b600060208201905081810360008301526131fc816129d4565b9050919050565b6000602082019050818103600083015261321c81612a14565b9050919050565b6000602082019050818103600083015261323c81612a54565b9050919050565b6000602082019050818103600083015261325c81612aba565b9050919050565b6000602082019050818103600083015261327c81612afa565b9050919050565b6000602082019050818103600083015261329c81612b60565b9050919050565b600060208201905081810360008301526132bc81612ba0565b9050919050565b600060208201905081810360008301526132dc81612be0565b9050919050565b600060208201905081810360008301526132fc81612c20565b9050919050565b6000602082019050818103600083015261331c81612c60565b9050919050565b6000602082019050818103600083015261333c81612ca0565b9050919050565b6000602082019050818103600083015261335c81612ce0565b9050919050565b6000602082019050818103600083015261337c81612d20565b9050919050565b6000602082019050818103600083015261339c81612d60565b9050919050565b600060208201905081810360008301526133bc81612da0565b9050919050565b600060208201905081810360008301526133dc81612e06565b9050919050565b600060208201905081810360008301526133fc81612e46565b9050919050565b60006020820190506134186000830184612e86565b92915050565b6000808335600160200384360303811261343757600080fd5b80840192508235915067ffffffffffffffff82111561345557600080fd5b60208301925060018202360383131561346d57600080fd5b509250929050565b6000819050602082019050919050565b600081519050919050565b600081519050919050565b600081519050919050565b6000602082019050919050565b600082825260208201905092915050565b600081905092915050565b600082825260208201905092915050565b600081905092915050565b60006134f682613602565b9050919050565b60008115159050919050565b60007fff0000000000000000000000000000000000000000000000000000000000000082169050919050565b60007fffffffffffffffffffff0000000000000000000000000000000000000000000082169050919050565b60007fffffffffffffffffffffffffffffff000000000000000000000000000000000082169050919050565b60007fffffffffffffffffffffffffffffffffffffffff00000000000000000000000082169050919050565b6000819050919050565b60007fffffffff0000000000000000000000000000000000000000000000000000000082169050919050565b60008190506135fd8261371a565b919050565b600073ffffffffffffffffffffffffffffffffffffffff82169050919050565b6000819050919050565b60006136378261363e565b9050919050565b600061364982613602565b9050919050565b600061365b826135ef565b9050919050565b82818337600083830152505050565b60005b8381101561368f578082015181840152602081019050613674565b8381111561369e576000848401525b50505050565b60006136af826136e8565b9050919050565b6000819050919050565b6000819050919050565b6000819050919050565b6000819050919050565b6000819050919050565b60006136f38261370d565b9050919050565bfe5b6000601f19601f8301169050919050565b60008160601b9050919050565b6003811061372b5761372a6136fa565b5b50565b613737816134eb565b811461374257600080fd5b50565b61374e816134fd565b811461375957600080fd5b50565b613765816135b9565b811461377057600080fd5b50565b61377c816135c3565b811461378757600080fd5b50565b6003811061379757600080fd5b50565b6137a381613622565b81146137ae57600080fd5b5056fea2646970667358221220ce8e84f89eb556f2f74739a29d42b007afeaac5ac92a1454d6c07fa4523a0a9564736f6c63430007030033",
  "devdoc": {
    "kind": "dev",
    "methods": {
      "addTokenDestination(address)": {
        "params": {
          "_dst": "Destination address"
        }
      },
      "constructor": {
        "params": {
          "_graphToken": "Token to use for deposits and withdrawals",
          "_masterCopy": "Address of the master copy to use to clone proxies"
        }
      },
      "createTokenLockWallet(address,address,uint256,uint256,uint256,uint256,uint256,uint256,uint8)": {
        "params": {
          "_beneficiary": "Address of the beneficiary of locked tokens",
          "_endTime": "End time of the release schedule",
          "_managedAmount": "Amount of tokens to be managed by the lock contract",
          "_owner": "Address of the contract owner",
          "_periods": "Number of periods between start time and end time",
          "_releaseStartTime": "Override time for when the releases start",
          "_revocable": "Whether the contract is revocable",
          "_startTime": "Start time of the release schedule"
        }
      },
      "deposit(uint256)": {
        "details": "Even if the ERC20 token can be transferred directly to the contract this function provide a safe interface to do the transfer and avoid mistakes",
        "params": {
          "_amount": "Amount to deposit"
        }
      },
      "getAuthFunctionCallTarget(bytes4)": {
        "params": {
          "_sigHash": "Function signature hash"
        },
        "returns": {
          "_0": "Address of the target contract where to send the call"
        }
      },
      "getDeploymentAddress(bytes32,address)": {
        "params": {
          "_implementation": "Address of the proxy target implementation",
          "_salt": "Bytes32 salt to use for CREATE2"
        },
        "returns": {
          "_0": "Address of the counterfactual MinimalProxy"
        }
      },
      "getTokenDestinations()": {
        "returns": {
          "_0": "Array of addresses authorized to pull funds from a token lock"
        }
      },
      "isAuthFunctionCall(bytes4)": {
        "params": {
          "_sigHash": "Function signature hash"
        },
        "returns": {
          "_0": "True if authorized"
        }
      },
      "isTokenDestination(address)": {
        "params": {
          "_dst": "Destination address"
        },
        "returns": {
          "_0": "True if authorized"
        }
      },
      "owner()": {
        "details": "Returns the address of the current owner."
      },
      "removeTokenDestination(address)": {
        "params": {
          "_dst": "Destination address"
        }
      },
      "renounceOwnership()": {
        "details": "Leaves the contract without owner. It will not be possible to call `onlyOwner` functions anymore. Can only be called by the current owner. NOTE: Renouncing ownership will leave the contract without an owner, thereby removing any functionality that is only available to the owner."
      },
      "setAuthFunctionCall(string,address)": {
        "details": "Input expected is the function signature as 'transfer(address,uint256)'",
        "params": {
          "_signature": "Function signature",
          "_target": "Address of the destination contract to call"
        }
      },
      "setAuthFunctionCallMany(string[],address[])": {
        "details": "Input expected is the function signature as 'transfer(address,uint256)'",
        "params": {
          "_signatures": "Function signatures",
          "_targets": "Address of the destination contract to call"
        }
      },
      "setMasterCopy(address)": {
        "params": {
          "_masterCopy": "Address of contract bytecode to factory clone"
        }
      },
      "token()": {
        "returns": {
          "_0": "Token used for transfers and approvals"
        }
      },
      "transferOwnership(address)": {
        "details": "Transfers ownership of the contract to a new account (`newOwner`). Can only be called by the current owner."
      },
      "unsetAuthFunctionCall(string)": {
        "details": "Input expected is the function signature as 'transfer(address,uint256)'",
        "params": {
          "_signature": "Function signature"
        }
      },
      "withdraw(uint256)": {
        "details": "Escape hatch in case of mistakes or to recover remaining funds",
        "params": {
          "_amount": "Amount of tokens to withdraw"
        }
      }
    },
    "title": "GraphTokenLockManager",
    "version": 1
  },
  "userdoc": {
    "kind": "user",
    "methods": {
      "addTokenDestination(address)": {
        "notice": "Adds an address that can be allowed by a token lock to pull funds"
      },
      "constructor": {
        "notice": "Constructor."
      },
      "createTokenLockWallet(address,address,uint256,uint256,uint256,uint256,uint256,uint256,uint8)": {
        "notice": "Creates and fund a new token lock wallet using a minimum proxy"
      },
      "deposit(uint256)": {
        "notice": "Deposits tokens into the contract"
      },
      "getAuthFunctionCallTarget(bytes4)": {
        "notice": "Gets the target contract to call for a particular function signature"
      },
      "getDeploymentAddress(bytes32,address)": {
        "notice": "Gets the deterministic CREATE2 address for MinimalProxy with a particular implementation"
      },
      "getTokenDestinations()": {
        "notice": "Returns an array of authorized destination addresses"
      },
      "isAuthFunctionCall(bytes4)": {
        "notice": "Returns true if the function call is authorized"
      },
      "isTokenDestination(address)": {
        "notice": "Returns True if the address is authorized to be a destination of tokens"
      },
      "removeTokenDestination(address)": {
        "notice": "Removes an address that can be allowed by a token lock to pull funds"
      },
      "setAuthFunctionCall(string,address)": {
        "notice": "Sets an authorized function call to target"
      },
      "setAuthFunctionCallMany(string[],address[])": {
        "notice": "Sets an authorized function call to target in bulk"
      },
      "setMasterCopy(address)": {
        "notice": "Sets the masterCopy bytecode to use to create clones of TokenLock contracts"
      },
      "token()": {
        "notice": "Gets the GRT token address"
      },
      "unsetAuthFunctionCall(string)": {
        "notice": "Unsets an authorized function call to target"
      },
      "withdraw(uint256)": {
        "notice": "Withdraws tokens from the contract"
      }
    },
    "notice": "This contract manages a list of authorized function calls and targets that can be called by any TokenLockWallet contract and it is a factory of TokenLockWallet contracts. This contract receives funds to make the process of creating TokenLockWallet contracts easier by distributing them the initial tokens to be managed. The owner can setup a list of token destinations that will be used by TokenLock contracts to approve the pulling of funds, this way in can be guaranteed that only protocol contracts will manipulate users funds.",
    "version": 1
  },
  "storageLayout": {
    "storage": [
      {
        "astId": 30,
        "contract": "contracts/GraphTokenLockManager.sol:GraphTokenLockManager",
        "label": "_owner",
        "offset": 0,
        "slot": "0",
        "type": "t_address"
      },
      {
        "astId": 3003,
        "contract": "contracts/GraphTokenLockManager.sol:GraphTokenLockManager",
        "label": "authFnCalls",
        "offset": 0,
        "slot": "1",
        "type": "t_mapping(t_bytes4,t_address)"
      },
      {
        "astId": 3005,
        "contract": "contracts/GraphTokenLockManager.sol:GraphTokenLockManager",
        "label": "_tokenDestinations",
        "offset": 0,
        "slot": "2",
        "type": "t_struct(AddressSet)1749_storage"
      },
      {
        "astId": 3007,
        "contract": "contracts/GraphTokenLockManager.sol:GraphTokenLockManager",
        "label": "masterCopy",
        "offset": 0,
        "slot": "4",
        "type": "t_address"
      },
      {
        "astId": 3009,
        "contract": "contracts/GraphTokenLockManager.sol:GraphTokenLockManager",
        "label": "_token",
        "offset": 0,
        "slot": "5",
        "type": "t_contract(IERC20)908"
      }
    ],
    "types": {
      "t_address": {
        "encoding": "inplace",
        "label": "address",
        "numberOfBytes": "20"
      },
      "t_array(t_bytes32)dyn_storage": {
        "base": "t_bytes32",
        "encoding": "dynamic_array",
        "label": "bytes32[]",
        "numberOfBytes": "32"
      },
      "t_bytes32": {
        "encoding": "inplace",
        "label": "bytes32",
        "numberOfBytes": "32"
      },
      "t_bytes4": {
        "encoding": "inplace",
        "label": "bytes4",
        "numberOfBytes": "4"
      },
      "t_contract(IERC20)908": {
        "encoding": "inplace",
        "label": "contract IERC20",
        "numberOfBytes": "20"
      },
      "t_mapping(t_bytes32,t_uint256)": {
        "encoding": "mapping",
        "key": "t_bytes32",
        "label": "mapping(bytes32 => uint256)",
        "numberOfBytes": "32",
        "value": "t_uint256"
      },
      "t_mapping(t_bytes4,t_address)": {
        "encoding": "mapping",
        "key": "t_bytes4",
        "label": "mapping(bytes4 => address)",
        "numberOfBytes": "32",
        "value": "t_address"
      },
      "t_struct(AddressSet)1749_storage": {
        "encoding": "inplace",
        "label": "struct EnumerableSet.AddressSet",
        "members": [
          {
            "astId": 1748,
            "contract": "contracts/GraphTokenLockManager.sol:GraphTokenLockManager",
            "label": "_inner",
            "offset": 0,
            "slot": "0",
            "type": "t_struct(Set)1484_storage"
          }
        ],
        "numberOfBytes": "64"
      },
      "t_struct(Set)1484_storage": {
        "encoding": "inplace",
        "label": "struct EnumerableSet.Set",
        "members": [
          {
            "astId": 1479,
            "contract": "contracts/GraphTokenLockManager.sol:GraphTokenLockManager",
            "label": "_values",
            "offset": 0,
            "slot": "0",
            "type": "t_array(t_bytes32)dyn_storage"
          },
          {
            "astId": 1483,
            "contract": "contracts/GraphTokenLockManager.sol:GraphTokenLockManager",
            "label": "_indexes",
            "offset": 0,
            "slot": "1",
            "type": "t_mapping(t_bytes32,t_uint256)"
          }
        ],
        "numberOfBytes": "64"
      },
      "t_uint256": {
        "encoding": "inplace",
        "label": "uint256",
        "numberOfBytes": "32"
      }
    }
  }
}