{
  "address": "0xF3b617e0c966329363e78c266361794e84223313",
  "abi": [
    {
      "inputs": [
        {
          "internalType": "contract IERC20",
          "name": "_graphToken",
          "type": "address"
        },
        {
          "internalType": "address",
          "name": "_masterCopy",
          "type": "address"
        }
      ],
      "stateMutability": "nonpayable",
      "type": "constructor"
    },
    {
      "anonymous": false,
      "inputs": [
        {
          "indexed": true,
          "internalType": "address",
          "name": "caller",
          "type": "address"
        },
        {
          "indexed": true,
          "internalType": "bytes4",
          "name": "sigHash",
          "type": "bytes4"
        },
        {
          "indexed": true,
          "internalType": "address",
          "name": "target",
          "type": "address"
        },
        {
          "indexed": false,
          "internalType": "string",
          "name": "signature",
          "type": "string"
        }
      ],
      "name": "FunctionCallAuth",
      "type": "event"
    },
    {
      "anonymous": false,
      "inputs": [
        {
          "indexed": true,
          "internalType": "address",
          "name": "masterCopy",
          "type": "address"
        }
      ],
      "name": "MasterCopyUpdated",
      "type": "event"
    },
    {
      "anonymous": false,
      "inputs": [
        {
          "indexed": true,
          "internalType": "address",
          "name": "previousOwner",
          "type": "address"
        },
        {
          "indexed": true,
          "internalType": "address",
          "name": "newOwner",
          "type": "address"
        }
      ],
      "name": "OwnershipTransferred",
      "type": "event"
    },
    {
      "anonymous": false,
      "inputs": [
        {
          "indexed": true,
          "internalType": "address",
          "name": "proxy",
          "type": "address"
        }
      ],
      "name": "ProxyCreated",
      "type": "event"
    },
    {
      "anonymous": false,
      "inputs": [
        {
          "indexed": true,
          "internalType": "address",
          "name": "dst",
          "type": "address"
        },
        {
          "indexed": false,
          "internalType": "bool",
          "name": "allowed",
          "type": "bool"
        }
      ],
      "name": "TokenDestinationAllowed",
      "type": "event"
    },
    {
      "anonymous": false,
      "inputs": [
        {
          "indexed": true,
          "internalType": "address",
          "name": "contractAddress",
          "type": "address"
        },
        {
          "indexed": true,
          "internalType": "bytes32",
          "name": "initHash",
          "type": "bytes32"
        },
        {
          "indexed": true,
          "internalType": "address",
          "name": "beneficiary",
          "type": "address"
        },
        {
          "indexed": false,
          "internalType": "address",
          "name": "token",
          "type": "address"
        },
        {
          "indexed": false,
          "internalType": "uint256",
          "name": "managedAmount",
          "type": "uint256"
        },
        {
          "indexed": false,
          "internalType": "uint256",
          "name": "startTime",
          "type": "uint256"
        },
        {
          "indexed": false,
          "internalType": "uint256",
          "name": "endTime",
          "type": "uint256"
        },
        {
          "indexed": false,
          "internalType": "uint256",
          "name": "periods",
          "type": "uint256"
        },
        {
          "indexed": false,
          "internalType": "uint256",
          "name": "releaseStartTime",
          "type": "uint256"
        },
        {
          "indexed": false,
          "internalType": "uint256",
          "name": "vestingCliffTime",
          "type": "uint256"
        },
        {
          "indexed": false,
          "internalType": "enum IGraphTokenLock.Revocability",
          "name": "revocable",
          "type": "uint8"
        }
      ],
      "name": "TokenLockCreated",
      "type": "event"
    },
    {
      "anonymous": false,
      "inputs": [
        {
          "indexed": true,
          "internalType": "address",
          "name": "sender",
          "type": "address"
        },
        {
          "indexed": false,
          "internalType": "uint256",
          "name": "amount",
          "type": "uint256"
        }
      ],
      "name": "TokensDeposited",
      "type": "event"
    },
    {
      "anonymous": false,
      "inputs": [
        {
          "indexed": true,
          "internalType": "address",
          "name": "sender",
          "type": "address"
        },
        {
          "indexed": false,
          "internalType": "uint256",
          "name": "amount",
          "type": "uint256"
        }
      ],
      "name": "TokensWithdrawn",
      "type": "event"
    },
    {
      "inputs": [
        {
          "internalType": "address",
          "name": "_dst",
          "type": "address"
        }
      ],
      "name": "addTokenDestination",
      "outputs": [],
      "stateMutability": "nonpayable",
      "type": "function"
    },
    {
      "inputs": [
        {
          "internalType": "bytes4",
          "name": "",
          "type": "bytes4"
        }
      ],
      "name": "authFnCalls",
      "outputs": [
        {
          "internalType": "address",
          "name": "",
          "type": "address"
        }
      ],
      "stateMutability": "view",
      "type": "function"
    },
    {
      "inputs": [
        {
          "internalType": "address",
          "name": "_owner",
          "type": "address"
        },
        {
          "internalType": "address",
          "name": "_beneficiary",
          "type": "address"
        },
        {
          "internalType": "uint256",
          "name": "_managedAmount",
          "type": "uint256"
        },
        {
          "internalType": "uint256",
          "name": "_startTime",
          "type": "uint256"
        },
        {
          "internalType": "uint256",
          "name": "_endTime",
          "type": "uint256"
        },
        {
          "internalType": "uint256",
          "name": "_periods",
          "type": "uint256"
        },
        {
          "internalType": "uint256",
          "name": "_releaseStartTime",
          "type": "uint256"
        },
        {
          "internalType": "uint256",
          "name": "_vestingCliffTime",
          "type": "uint256"
        },
        {
          "internalType": "enum IGraphTokenLock.Revocability",
          "name": "_revocable",
          "type": "uint8"
        }
      ],
      "name": "createTokenLockWallet",
      "outputs": [],
      "stateMutability": "nonpayable",
      "type": "function"
    },
    {
      "inputs": [
        {
          "internalType": "uint256",
          "name": "_amount",
          "type": "uint256"
        }
      ],
      "name": "deposit",
      "outputs": [],
      "stateMutability": "nonpayable",
      "type": "function"
    },
    {
      "inputs": [
        {
          "internalType": "bytes4",
          "name": "_sigHash",
          "type": "bytes4"
        }
      ],
      "name": "getAuthFunctionCallTarget",
      "outputs": [
        {
          "internalType": "address",
          "name": "",
          "type": "address"
        }
      ],
      "stateMutability": "view",
      "type": "function"
    },
    {
      "inputs": [
        {
          "internalType": "bytes32",
          "name": "_salt",
          "type": "bytes32"
        },
        {
          "internalType": "address",
          "name": "_implementation",
          "type": "address"
        },
        {
          "internalType": "address",
          "name": "_deployer",
          "type": "address"
        }
      ],
      "name": "getDeploymentAddress",
      "outputs": [
        {
          "internalType": "address",
          "name": "",
          "type": "address"
        }
      ],
      "stateMutability": "pure",
      "type": "function"
    },
    {
      "inputs": [],
      "name": "getTokenDestinations",
      "outputs": [
        {
          "internalType": "address[]",
          "name": "",
          "type": "address[]"
        }
      ],
      "stateMutability": "view",
      "type": "function"
    },
    {
      "inputs": [
        {
          "internalType": "bytes4",
          "name": "_sigHash",
          "type": "bytes4"
        }
      ],
      "name": "isAuthFunctionCall",
      "outputs": [
        {
          "internalType": "bool",
          "name": "",
          "type": "bool"
        }
      ],
      "stateMutability": "view",
      "type": "function"
    },
    {
      "inputs": [
        {
          "internalType": "address",
          "name": "_dst",
          "type": "address"
        }
      ],
      "name": "isTokenDestination",
      "outputs": [
        {
          "internalType": "bool",
          "name": "",
          "type": "bool"
        }
      ],
      "stateMutability": "view",
      "type": "function"
    },
    {
      "inputs": [],
      "name": "masterCopy",
      "outputs": [
        {
          "internalType": "address",
          "name": "",
          "type": "address"
        }
      ],
      "stateMutability": "view",
      "type": "function"
    },
    {
      "inputs": [],
      "name": "owner",
      "outputs": [
        {
          "internalType": "address",
          "name": "",
          "type": "address"
        }
      ],
      "stateMutability": "view",
      "type": "function"
    },
    {
      "inputs": [
        {
          "internalType": "address",
          "name": "_dst",
          "type": "address"
        }
      ],
      "name": "removeTokenDestination",
      "outputs": [],
      "stateMutability": "nonpayable",
      "type": "function"
    },
    {
      "inputs": [],
      "name": "renounceOwnership",
      "outputs": [],
      "stateMutability": "nonpayable",
      "type": "function"
    },
    {
      "inputs": [
        {
          "internalType": "string",
          "name": "_signature",
          "type": "string"
        },
        {
          "internalType": "address",
          "name": "_target",
          "type": "address"
        }
      ],
      "name": "setAuthFunctionCall",
      "outputs": [],
      "stateMutability": "nonpayable",
      "type": "function"
    },
    {
      "inputs": [
        {
          "internalType": "string[]",
          "name": "_signatures",
          "type": "string[]"
        },
        {
          "internalType": "address[]",
          "name": "_targets",
          "type": "address[]"
        }
      ],
      "name": "setAuthFunctionCallMany",
      "outputs": [],
      "stateMutability": "nonpayable",
      "type": "function"
    },
    {
      "inputs": [
        {
          "internalType": "address",
          "name": "_masterCopy",
          "type": "address"
        }
      ],
      "name": "setMasterCopy",
      "outputs": [],
      "stateMutability": "nonpayable",
      "type": "function"
    },
    {
      "inputs": [],
      "name": "token",
      "outputs": [
        {
          "internalType": "contract IERC20",
          "name": "",
          "type": "address"
        }
      ],
      "stateMutability": "view",
      "type": "function"
    },
    {
      "inputs": [
        {
          "internalType": "address",
          "name": "newOwner",
          "type": "address"
        }
      ],
      "name": "transferOwnership",
      "outputs": [],
      "stateMutability": "nonpayable",
      "type": "function"
    },
    {
      "inputs": [
        {
          "internalType": "string",
          "name": "_signature",
          "type": "string"
        }
      ],
      "name": "unsetAuthFunctionCall",
      "outputs": [],
      "stateMutability": "nonpayable",
      "type": "function"
    },
    {
      "inputs": [
        {
          "internalType": "uint256",
          "name": "_amount",
          "type": "uint256"
        }
      ],
      "name": "withdraw",
      "outputs": [],
      "stateMutability": "nonpayable",
      "type": "function"
    }
  ],
  "transactionHash": "0x8ff337497a43f11d369102c1f1fcdca0475f0e8d199f0ce61f1012cdba528455",
  "args": [
    "0x5c946740441C12510a167B447B7dE565C20b9E3C",
    "0xc93df24c3A1ebeCcd0e5D41198460081CFB38c49"
  ],
  "solcInputHash": "b5cdad58099d39cd1aed000b2fd864d8",
  "bytecode": "0x60806040523480156200001157600080fd5b5060405162003c8f38038062003c8f83398181016040528101906200003791906200039c565b600062000049620001b460201b60201c565b9050806000806101000a81548173ffffffffffffffffffffffffffffffffffffffff021916908373ffffffffffffffffffffffffffffffffffffffff1602179055508073ffffffffffffffffffffffffffffffffffffffff16600073ffffffffffffffffffffffffffffffffffffffff167f8be0079c531659141344cd1fd0a4f28419497f9722a3daafe3b4186f6b6457e060405160405180910390a350600073ffffffffffffffffffffffffffffffffffffffff168273ffffffffffffffffffffffffffffffffffffffff1614156200015a576040517f08c379a00000000000000000000000000000000000000000000000000000000081526004016200015190620004e7565b60405180910390fd5b81600560006101000a81548173ffffffffffffffffffffffffffffffffffffffff021916908373ffffffffffffffffffffffffffffffffffffffff160217905550620001ac81620001bc60201b60201c565b505062000596565b600033905090565b620001cc620001b460201b60201c565b73ffffffffffffffffffffffffffffffffffffffff16620001f26200034560201b60201c565b73ffffffffffffffffffffffffffffffffffffffff16146200024b576040517f08c379a00000000000000000000000000000000000000000000000000000000081526004016200024290620004c5565b60405180910390fd5b600073ffffffffffffffffffffffffffffffffffffffff168173ffffffffffffffffffffffffffffffffffffffff161415620002be576040517f08c379a0000000000000000000000000000000000000000000000000000000008152600401620002b590620004a3565b60405180910390fd5b80600460006101000a81548173ffffffffffffffffffffffffffffffffffffffff021916908373ffffffffffffffffffffffffffffffffffffffff1602179055508073ffffffffffffffffffffffffffffffffffffffff167f30909084afc859121ffc3a5aef7fe37c540a9a1ef60bd4d8dcdb76376fadf9de60405160405180910390a250565b60008060009054906101000a900473ffffffffffffffffffffffffffffffffffffffff16905090565b6000815190506200037f8162000562565b92915050565b60008151905062000396816200057c565b92915050565b60008060408385031215620003b057600080fd5b6000620003c08582860162000385565b9250506020620003d3858286016200036e565b9150509250929050565b6000620003ec60198362000509565b91507f4d6173746572436f70792063616e6e6f74206265207a65726f000000000000006000830152602082019050919050565b60006200042e60208362000509565b91507f4f776e61626c653a2063616c6c6572206973206e6f7420746865206f776e65726000830152602082019050919050565b60006200047060148362000509565b91507f546f6b656e2063616e6e6f74206265207a65726f0000000000000000000000006000830152602082019050919050565b60006020820190508181036000830152620004be81620003dd565b9050919050565b60006020820190508181036000830152620004e0816200041f565b9050919050565b60006020820190508181036000830152620005028162000461565b9050919050565b600082825260208201905092915050565b6000620005278262000542565b9050919050565b60006200053b826200051a565b9050919050565b600073ffffffffffffffffffffffffffffffffffffffff82169050919050565b6200056d816200051a565b81146200057957600080fd5b50565b62000587816200052e565b81146200059357600080fd5b50565b6136e980620005a66000396000f3fe608060405234801561001057600080fd5b506004361061012c5760003560e01c80638da5cb5b116100ad578063c1ab13db11610071578063c1ab13db14610319578063cf497e6c14610335578063f1d24c4514610351578063f2fde38b14610381578063fc0c546a1461039d5761012c565b80638da5cb5b146102875780639c05fc60146102a5578063a3457466146102c1578063a619486e146102df578063b6b55f25146102fd5761012c565b80635975e00c116100f45780635975e00c146101e557806368d30c2e146102015780636e03b8dc1461021d578063715018a61461024d57806379ee1bdf146102575761012c565b806303990a6c146101315780630602ba2b1461014d5780632e1a7d4d1461017d57806343fb93d914610199578063463013a2146101c9575b600080fd5b61014b6004803603810190610146919061253a565b6103bb565b005b61016760048036038101906101629190612511565b610563565b6040516101749190613029565b60405180910390f35b610197600480360381019061019291906125d7565b6105a4565b005b6101b360048036038101906101ae91906124c2565b610701565b6040516101c09190612e63565b60405180910390f35b6101e360048036038101906101de919061257f565b610726565b005b6101ff60048036038101906101fa9190612335565b6107b2565b005b61021b6004803603810190610216919061235e565b610943565b005b61023760048036038101906102329190612511565b610c8b565b6040516102449190612e63565b60405180910390f35b610255610cbe565b005b610271600480360381019061026c9190612335565b610df8565b60405161027e9190613029565b60405180910390f35b61028f610e15565b60405161029c9190612e63565b60405180910390f35b6102bf60048036038101906102ba9190612424565b610e3e565b005b6102c9610f6b565b6040516102d69190613007565b60405180910390f35b6102e7611043565b6040516102f49190612e63565b60405180910390f35b610317600480360381019061031291906125d7565b611069565b005b610333600480360381019061032e9190612335565b61114c565b005b61034f600480360381019061034a9190612335565b61126d565b005b61036b60048036038101906103669190612511565b6113e0565b6040516103789190612e63565b60405180910390f35b61039b60048036038101906103969190612335565b61145b565b005b6103a5611604565b6040516103b29190613044565b60405180910390f35b6103c361162e565b73ffffffffffffffffffffffffffffffffffffffff166103e1610e15565b73ffffffffffffffffffffffffffffffffffffffff1614610437576040517f08c379a000000000000000000000000000000000000000000000000000000000815260040161042e90613225565b60405180910390fd5b60006104438383611636565b9050600060016000837bffffffffffffffffffffffffffffffffffffffffffffffffffffffff19167bffffffffffffffffffffffffffffffffffffffffffffffffffffffff1916815260200190815260200160002060006101000a81548173ffffffffffffffffffffffffffffffffffffffff021916908373ffffffffffffffffffffffffffffffffffffffff160217905550600073ffffffffffffffffffffffffffffffffffffffff16817bffffffffffffffffffffffffffffffffffffffffffffffffffffffff19163373ffffffffffffffffffffffffffffffffffffffff167f450397a2db0e89eccfe664cc6cdfd274a88bc00d29aaec4d991754a42f19f8c9868660405161055692919061305f565b60405180910390a4505050565b60008073ffffffffffffffffffffffffffffffffffffffff16610585836113e0565b73ffffffffffffffffffffffffffffffffffffffff1614159050919050565b6105ac61162e565b73ffffffffffffffffffffffffffffffffffffffff166105ca610e15565b73ffffffffffffffffffffffffffffffffffffffff1614610620576040517f08c379a000000000000000000000000000000000000000000000000000000000815260040161061790613225565b60405180910390fd5b60008111610663576040517f08c379a000000000000000000000000000000000000000000000000000000000815260040161065a90613205565b60405180910390fd5b6106b03382600560009054906101000a900473ffffffffffffffffffffffffffffffffffffffff1673ffffffffffffffffffffffffffffffffffffffff166116c49092919063ffffffff16565b3373ffffffffffffffffffffffffffffffffffffffff167f6352c5382c4a4578e712449ca65e83cdb392d045dfcf1cad9615189db2da244b826040516106f69190613305565b60405180910390a250565b600061071d846107108561174a565b80519060200120846117c0565b90509392505050565b61072e61162e565b73ffffffffffffffffffffffffffffffffffffffff1661074c610e15565b73ffffffffffffffffffffffffffffffffffffffff16146107a2576040517f08c379a000000000000000000000000000000000000000000000000000000000815260040161079990613225565b60405180910390fd5b6107ad838383611804565b505050565b6107ba61162e565b73ffffffffffffffffffffffffffffffffffffffff166107d8610e15565b73ffffffffffffffffffffffffffffffffffffffff161461082e576040517f08c379a000000000000000000000000000000000000000000000000000000000815260040161082590613225565b60405180910390fd5b600073ffffffffffffffffffffffffffffffffffffffff168173ffffffffffffffffffffffffffffffffffffffff16141561089e576040517f08c379a000000000000000000000000000000000000000000000000000000000815260040161089590613105565b60405180910390fd5b6108b28160026119e690919063ffffffff16565b6108f1576040517f08c379a00000000000000000000000000000000000000000000000000000000081526004016108e890613265565b60405180910390fd5b8073ffffffffffffffffffffffffffffffffffffffff167f33442b8c13e72dd75a027f08f9bff4eed2dfd26e43cdea857365f5163b359a7960016040516109389190613029565b60405180910390a250565b61094b61162e565b73ffffffffffffffffffffffffffffffffffffffff16610969610e15565b73ffffffffffffffffffffffffffffffffffffffff16146109bf576040517f08c379a00000000000000000000000000000000000000000000000000000000081526004016109b690613225565b60405180910390fd5b86600560009054906101000a900473ffffffffffffffffffffffffffffffffffffffff1673ffffffffffffffffffffffffffffffffffffffff166370a08231306040518263ffffffff1660e01b8152600401610a1b9190612e63565b60206040518083038186803b158015610a3357600080fd5b505afa158015610a47573d6000803e3d6000fd5b505050506040513d601f19601f82011682018060405250810190610a6b9190612600565b1015610aac576040517f08c379a0000000000000000000000000000000000000000000000000000000008152600401610aa390613145565b60405180910390fd5b606063bd896dcb60e01b308b8b600560009054906101000a900473ffffffffffffffffffffffffffffffffffffffff168c8c8c8c8c8c8c604051602401610afd9b9a99989796959493929190612e7e565b604051602081830303815290604052907bffffffffffffffffffffffffffffffffffffffffffffffffffffffff19166020820180517bffffffffffffffffffffffffffffffffffffffffffffffffffffffff838183161783525050505090506000610b928280519060200120600460009054906101000a900473ffffffffffffffffffffffffffffffffffffffff1684611a16565b9050610be1818a600560009054906101000a900473ffffffffffffffffffffffffffffffffffffffff1673ffffffffffffffffffffffffffffffffffffffff166116c49092919063ffffffff16565b8973ffffffffffffffffffffffffffffffffffffffff1682805190602001208273ffffffffffffffffffffffffffffffffffffffff167f3c7ff6acee351ed98200c285a04745858a107e16da2f13c3a81a43073c17d644600560009054906101000a900473ffffffffffffffffffffffffffffffffffffffff168d8d8d8d8d8d8d604051610c76989796959493929190612f89565b60405180910390a45050505050505050505050565b60016020528060005260406000206000915054906101000a900473ffffffffffffffffffffffffffffffffffffffff1681565b610cc661162e565b73ffffffffffffffffffffffffffffffffffffffff16610ce4610e15565b73ffffffffffffffffffffffffffffffffffffffff1614610d3a576040517f08c379a0000000000000000000000000000000000000000000000000000000008152600401610d3190613225565b60405180910390fd5b600073ffffffffffffffffffffffffffffffffffffffff1660008054906101000a900473ffffffffffffffffffffffffffffffffffffffff1673ffffffffffffffffffffffffffffffffffffffff167f8be0079c531659141344cd1fd0a4f28419497f9722a3daafe3b4186f6b6457e060405160405180910390a360008060006101000a81548173ffffffffffffffffffffffffffffffffffffffff021916908373ffffffffffffffffffffffffffffffffffffffff160217905550565b6000610e0e826002611a9290919063ffffffff16565b9050919050565b60008060009054906101000a900473ffffffffffffffffffffffffffffffffffffffff16905090565b610e4661162e565b73ffffffffffffffffffffffffffffffffffffffff16610e64610e15565b73ffffffffffffffffffffffffffffffffffffffff1614610eba576040517f08c379a0000000000000000000000000000000000000000000000000000000008152600401610eb190613225565b60405180910390fd5b818190508484905014610f02576040517f08c379a0000000000000000000000000000000000000000000000000000000008152600401610ef9906130e5565b60405180910390fd5b60005b84849050811015610f6457610f57858583818110610f1f57fe5b9050602002810190610f319190613320565b858585818110610f3d57fe5b9050602002016020810190610f529190612335565b611804565b8080600101915050610f05565b5050505050565b606080610f786002611ac2565b67ffffffffffffffff81118015610f8e57600080fd5b50604051908082528060200260200182016040528015610fbd5781602001602082028036833780820191505090505b50905060005b610fcd6002611ac2565b81101561103b57610fe8816002611ad790919063ffffffff16565b828281518110610ff457fe5b602002602001019073ffffffffffffffffffffffffffffffffffffffff16908173ffffffffffffffffffffffffffffffffffffffff16815250508080600101915050610fc3565b508091505090565b600460009054906101000a900473ffffffffffffffffffffffffffffffffffffffff1681565b600081116110ac576040517f08c379a00000000000000000000000000000000000000000000000000000000081526004016110a390613205565b60405180910390fd5b6110fb333083600560009054906101000a900473ffffffffffffffffffffffffffffffffffffffff1673ffffffffffffffffffffffffffffffffffffffff16611af1909392919063ffffffff16565b3373ffffffffffffffffffffffffffffffffffffffff167f59062170a285eb80e8c6b8ced60428442a51910635005233fc4ce084a475845e826040516111419190613305565b60405180910390a250565b61115461162e565b73ffffffffffffffffffffffffffffffffffffffff16611172610e15565b73ffffffffffffffffffffffffffffffffffffffff16146111c8576040517f08c379a00000000000000000000000000000000000000000000000000000000081526004016111bf90613225565b60405180910390fd5b6111dc816002611b7a90919063ffffffff16565b61121b576040517f08c379a000000000000000000000000000000000000000000000000000000000815260040161121290613185565b60405180910390fd5b8073ffffffffffffffffffffffffffffffffffffffff167f33442b8c13e72dd75a027f08f9bff4eed2dfd26e43cdea857365f5163b359a7960006040516112629190613029565b60405180910390a250565b61127561162e565b73ffffffffffffffffffffffffffffffffffffffff16611293610e15565b73ffffffffffffffffffffffffffffffffffffffff16146112e9576040517f08c379a00000000000000000000000000000000000000000000000000000000081526004016112e090613225565b60405180910390fd5b600073ffffffffffffffffffffffffffffffffffffffff168173ffffffffffffffffffffffffffffffffffffffff161415611359576040517f08c379a0000000000000000000000000000000000000000000000000000000008152600401611350906131a5565b60405180910390fd5b80600460006101000a81548173ffffffffffffffffffffffffffffffffffffffff021916908373ffffffffffffffffffffffffffffffffffffffff1602179055508073ffffffffffffffffffffffffffffffffffffffff167f30909084afc859121ffc3a5aef7fe37c540a9a1ef60bd4d8dcdb76376fadf9de60405160405180910390a250565b600060016000837bffffffffffffffffffffffffffffffffffffffffffffffffffffffff19167bffffffffffffffffffffffffffffffffffffffffffffffffffffffff1916815260200190815260200160002060009054906101000a900473ffffffffffffffffffffffffffffffffffffffff169050919050565b61146361162e565b73ffffffffffffffffffffffffffffffffffffffff16611481610e15565b73ffffffffffffffffffffffffffffffffffffffff16146114d7576040517f08c379a00000000000000000000000000000000000000000000000000000000081526004016114ce90613225565b60405180910390fd5b600073ffffffffffffffffffffffffffffffffffffffff168173ffffffffffffffffffffffffffffffffffffffff161415611547576040517f08c379a000000000000000000000000000000000000000000000000000000000815260040161153e90613125565b60405180910390fd5b8073ffffffffffffffffffffffffffffffffffffffff1660008054906101000a900473ffffffffffffffffffffffffffffffffffffffff1673ffffffffffffffffffffffffffffffffffffffff167f8be0079c531659141344cd1fd0a4f28419497f9722a3daafe3b4186f6b6457e060405160405180910390a3806000806101000a81548173ffffffffffffffffffffffffffffffffffffffff021916908373ffffffffffffffffffffffffffffffffffffffff16021790555050565b6000600560009054906101000a900473ffffffffffffffffffffffffffffffffffffffff16905090565b600033905090565b60006116bc83836040516024016040516020818303038152906040529190604051611662929190612e4a565b60405180910390207bffffffffffffffffffffffffffffffffffffffffffffffffffffffff19166020820180517bffffffffffffffffffffffffffffffffffffffffffffffffffffffff8381831617835250505050611baa565b905092915050565b6117458363a9059cbb60e01b84846040516024016116e3929190612f60565b604051602081830303815290604052907bffffffffffffffffffffffffffffffffffffffffffffffffffffffff19166020820180517bffffffffffffffffffffffffffffffffffffffffffffffffffffffff8381831617835250505050611c02565b505050565b60606000693d602d80600a3d3981f360b01b9050600069363d3d373d3d3d363d7360b01b905060008460601b905060006e5af43d82803e903d91602b57fd5bf360881b9050838383836040516020016117a69493929190612d97565b604051602081830303815290604052945050505050919050565b60008060ff60f81b8386866040516020016117de9493929190612de5565b6040516020818303038152906040528051906020012090508060001c9150509392505050565b3073ffffffffffffffffffffffffffffffffffffffff168173ffffffffffffffffffffffffffffffffffffffff161415611873576040517f08c379a000000000000000000000000000000000000000000000000000000000815260040161186a906131c5565b60405180910390fd5b61187c81611cc9565b6118bb576040517f08c379a00000000000000000000000000000000000000000000000000000000081526004016118b2906132e5565b60405180910390fd5b60006118c78484611636565b90508160016000837bffffffffffffffffffffffffffffffffffffffffffffffffffffffff19167bffffffffffffffffffffffffffffffffffffffffffffffffffffffff1916815260200190815260200160002060006101000a81548173ffffffffffffffffffffffffffffffffffffffff021916908373ffffffffffffffffffffffffffffffffffffffff1602179055508173ffffffffffffffffffffffffffffffffffffffff16817bffffffffffffffffffffffffffffffffffffffffffffffffffffffff19163373ffffffffffffffffffffffffffffffffffffffff167f450397a2db0e89eccfe664cc6cdfd274a88bc00d29aaec4d991754a42f19f8c987876040516119d892919061305f565b60405180910390a450505050565b6000611a0e836000018373ffffffffffffffffffffffffffffffffffffffff1660001b611cdc565b905092915050565b600080611a2d600086611a288761174a565b611d4c565b90508073ffffffffffffffffffffffffffffffffffffffff167efffc2da0b561cae30d9826d37709e9421c4725faebc226cbbb7ef5fc5e734960405160405180910390a2600083511115611a8757611a858184611e5d565b505b809150509392505050565b6000611aba836000018373ffffffffffffffffffffffffffffffffffffffff1660001b611ea7565b905092915050565b6000611ad082600001611eca565b9050919050565b6000611ae68360000183611edb565b60001c905092915050565b611b74846323b872dd60e01b858585604051602401611b1293929190612f29565b604051602081830303815290604052907bffffffffffffffffffffffffffffffffffffffffffffffffffffffff19166020820180517bffffffffffffffffffffffffffffffffffffffffffffffffffffffff8381831617835250505050611c02565b50505050565b6000611ba2836000018373ffffffffffffffffffffffffffffffffffffffff1660001b611f48565b905092915050565b60006004825114611bf0576040517f08c379a0000000000000000000000000000000000000000000000000000000008152600401611be790613245565b60405180910390fd5b60006020830151905080915050919050565b6060611c64826040518060400160405280602081526020017f5361666545524332303a206c6f772d6c6576656c2063616c6c206661696c65648152508573ffffffffffffffffffffffffffffffffffffffff166120309092919063ffffffff16565b9050600081511115611cc45780806020019051810190611c849190612499565b611cc3576040517f08c379a0000000000000000000000000000000000000000000000000000000008152600401611cba906132a5565b60405180910390fd5b5b505050565b600080823b905060008111915050919050565b6000611ce88383611ea7565b611d41578260000182908060018154018082558091505060019003906000526020600020016000909190919091505582600001805490508360010160008481526020019081526020016000208190555060019050611d46565b600090505b92915050565b60008084471015611d92576040517f08c379a0000000000000000000000000000000000000000000000000000000008152600401611d89906132c5565b60405180910390fd5b600083511415611dd7576040517f08c379a0000000000000000000000000000000000000000000000000000000008152600401611dce906130c5565b60405180910390fd5b8383516020850187f59050600073ffffffffffffffffffffffffffffffffffffffff168173ffffffffffffffffffffffffffffffffffffffff161415611e52576040517f08c379a0000000000000000000000000000000000000000000000000000000008152600401611e49906131e5565b60405180910390fd5b809150509392505050565b6060611e9f83836040518060400160405280601e81526020017f416464726573733a206c6f772d6c6576656c2063616c6c206661696c65640000815250612030565b905092915050565b600080836001016000848152602001908152602001600020541415905092915050565b600081600001805490509050919050565b600081836000018054905011611f26576040517f08c379a0000000000000000000000000000000000000000000000000000000008152600401611f1d906130a5565b60405180910390fd5b826000018281548110611f3557fe5b9060005260206000200154905092915050565b600080836001016000848152602001908152602001600020549050600081146120245760006001820390506000600186600001805490500390506000866000018281548110611f9357fe5b9060005260206000200154905080876000018481548110611fb057fe5b9060005260206000200181905550600183018760010160008381526020019081526020016000208190555086600001805480611fe857fe5b6001900381819060005260206000200160009055905586600101600087815260200190815260200160002060009055600194505050505061202a565b60009150505b92915050565b606061203f8484600085612048565b90509392505050565b60608247101561208d576040517f08c379a000000000000000000000000000000000000000000000000000000000815260040161208490613165565b60405180910390fd5b61209685611cc9565b6120d5576040517f08c379a00000000000000000000000000000000000000000000000000000000081526004016120cc90613285565b60405180910390fd5b600060608673ffffffffffffffffffffffffffffffffffffffff1685876040516120ff9190612e33565b60006040518083038185875af1925050503d806000811461213c576040519150601f19603f3d011682016040523d82523d6000602084013e612141565b606091505b509150915061215182828661215d565b92505050949350505050565b6060831561216d578290506121bd565b6000835111156121805782518084602001fd5b816040517f08c379a00000000000000000000000000000000000000000000000000000000081526004016121b49190613083565b60405180910390fd5b9392505050565b6000813590506121d381613630565b92915050565b60008083601f8401126121eb57600080fd5b8235905067ffffffffffffffff81111561220457600080fd5b60208301915083602082028301111561221c57600080fd5b9250929050565b60008083601f84011261223557600080fd5b8235905067ffffffffffffffff81111561224e57600080fd5b60208301915083602082028301111561226657600080fd5b9250929050565b60008151905061227c81613647565b92915050565b6000813590506122918161365e565b92915050565b6000813590506122a681613675565b92915050565b6000813590506122bb8161368c565b92915050565b60008083601f8401126122d357600080fd5b8235905067ffffffffffffffff8111156122ec57600080fd5b60208301915083600182028301111561230457600080fd5b9250929050565b60008135905061231a8161369c565b92915050565b60008151905061232f8161369c565b92915050565b60006020828403121561234757600080fd5b6000612355848285016121c4565b91505092915050565b60008060008060008060008060006101208a8c03121561237d57600080fd5b600061238b8c828d016121c4565b995050602061239c8c828d016121c4565b98505060406123ad8c828d0161230b565b97505060606123be8c828d0161230b565b96505060806123cf8c828d0161230b565b95505060a06123e08c828d0161230b565b94505060c06123f18c828d0161230b565b93505060e06124028c828d0161230b565b9250506101006124148c828d016122ac565b9150509295985092959850929598565b6000806000806040858703121561243a57600080fd5b600085013567ffffffffffffffff81111561245457600080fd5b61246087828801612223565b9450945050602085013567ffffffffffffffff81111561247f57600080fd5b61248b878288016121d9565b925092505092959194509250565b6000602082840312156124ab57600080fd5b60006124b98482850161226d565b91505092915050565b6000806000606084860312156124d757600080fd5b60006124e586828701612282565b93505060206124f6868287016121c4565b9250506040612507868287016121c4565b9150509250925092565b60006020828403121561252357600080fd5b600061253184828501612297565b91505092915050565b6000806020838503121561254d57600080fd5b600083013567ffffffffffffffff81111561256757600080fd5b612573858286016122c1565b92509250509250929050565b60008060006040848603121561259457600080fd5b600084013567ffffffffffffffff8111156125ae57600080fd5b6125ba868287016122c1565b935093505060206125cd868287016121c4565b9150509250925092565b6000602082840312156125e957600080fd5b60006125f78482850161230b565b91505092915050565b60006020828403121561261257600080fd5b600061262084828501612320565b91505092915050565b60006126358383612641565b60208301905092915050565b61264a816133ed565b82525050565b612659816133ed565b82525050565b61267061266b826133ed565b6135a6565b82525050565b600061268182613387565b61268b81856133b5565b935061269683613377565b8060005b838110156126c75781516126ae8882612629565b97506126b9836133a8565b92505060018101905061269a565b5085935050505092915050565b6126dd816133ff565b82525050565b6126f46126ef82613437565b6135c2565b82525050565b61270b61270682613463565b6135cc565b82525050565b61272261271d8261340b565b6135b8565b82525050565b6127396127348261348f565b6135d6565b82525050565b61275061274b826134bb565b6135e0565b82525050565b600061276182613392565b61276b81856133c6565b935061277b818560208601613573565b80840191505092915050565b6127908161352e565b82525050565b61279f81613552565b82525050565b60006127b183856133d1565b93506127be838584613564565b6127c7836135fe565b840190509392505050565b60006127de83856133e2565b93506127eb838584613564565b82840190509392505050565b60006128028261339d565b61280c81856133d1565b935061281c818560208601613573565b612825816135fe565b840191505092915050565b600061283d6022836133d1565b91507f456e756d657261626c655365743a20696e646578206f7574206f6620626f756e60008301527f64730000000000000000000000000000000000000000000000000000000000006020830152604082019050919050565b60006128a36020836133d1565b91507f437265617465323a2062797465636f6465206c656e677468206973207a65726f6000830152602082019050919050565b60006128e36015836133d1565b91507f4172726179206c656e677468206d69736d6174636800000000000000000000006000830152602082019050919050565b6000612923601a836133d1565b91507f44657374696e6174696f6e2063616e6e6f74206265207a65726f0000000000006000830152602082019050919050565b60006129636026836133d1565b91507f4f776e61626c653a206e6577206f776e657220697320746865207a65726f206160008301527f64647265737300000000000000000000000000000000000000000000000000006020830152604082019050919050565b60006129c96020836133d1565b91507f4e6f7420656e6f75676820746f6b656e7320746f20637265617465206c6f636b6000830152602082019050919050565b6000612a096026836133d1565b91507f416464726573733a20696e73756666696369656e742062616c616e636520666f60008301527f722063616c6c00000000000000000000000000000000000000000000000000006020830152604082019050919050565b6000612a6f601b836133d1565b91507f44657374696e6174696f6e20616c72656164792072656d6f76656400000000006000830152602082019050919050565b6000612aaf6019836133d1565b91507f4d6173746572436f70792063616e6e6f74206265207a65726f000000000000006000830152602082019050919050565b6000612aef601d836133d1565b91507f546172676574206d757374206265206f7468657220636f6e74726163740000006000830152602082019050919050565b6000612b2f6019836133d1565b91507f437265617465323a204661696c6564206f6e206465706c6f79000000000000006000830152602082019050919050565b6000612b6f6015836133d1565b91507f416d6f756e742063616e6e6f74206265207a65726f00000000000000000000006000830152602082019050919050565b6000612baf6020836133d1565b91507f4f776e61626c653a2063616c6c6572206973206e6f7420746865206f776e65726000830152602082019050919050565b6000612bef6018836133d1565b91507f496e76616c6964206d6574686f64207369676e617475726500000000000000006000830152602082019050919050565b6000612c2f6019836133d1565b91507f44657374696e6174696f6e20616c7265616479206164646564000000000000006000830152602082019050919050565b6000612c6f601d836133d1565b91507f416464726573733a2063616c6c20746f206e6f6e2d636f6e74726163740000006000830152602082019050919050565b6000612caf602a836133d1565b91507f5361666545524332303a204552433230206f7065726174696f6e20646964206e60008301527f6f742073756363656564000000000000000000000000000000000000000000006020830152604082019050919050565b6000612d15601d836133d1565b91507f437265617465323a20696e73756666696369656e742062616c616e63650000006000830152602082019050919050565b6000612d556019836133d1565b91507f546172676574206d757374206265206120636f6e7472616374000000000000006000830152602082019050919050565b612d9181613524565b82525050565b6000612da382876126e3565b600a82019150612db382866126e3565b600a82019150612dc38285612728565b601482019150612dd382846126fa565b600f8201915081905095945050505050565b6000612df18287612711565b600182019150612e01828661265f565b601482019150612e11828561273f565b602082019150612e21828461273f565b60208201915081905095945050505050565b6000612e3f8284612756565b915081905092915050565b6000612e578284866127d2565b91508190509392505050565b6000602082019050612e786000830184612650565b92915050565b600061016082019050612e94600083018e612650565b612ea1602083018d612650565b612eae604083018c612650565b612ebb606083018b612650565b612ec8608083018a612d88565b612ed560a0830189612d88565b612ee260c0830188612d88565b612eef60e0830187612d88565b612efd610100830186612d88565b612f0b610120830185612d88565b612f19610140830184612796565b9c9b505050505050505050505050565b6000606082019050612f3e6000830186612650565b612f4b6020830185612650565b612f586040830184612d88565b949350505050565b6000604082019050612f756000830185612650565b612f826020830184612d88565b9392505050565b600061010082019050612f9f600083018b612650565b612fac602083018a612d88565b612fb96040830189612d88565b612fc66060830188612d88565b612fd36080830187612d88565b612fe060a0830186612d88565b612fed60c0830185612d88565b612ffa60e0830184612796565b9998505050505050505050565b600060208201905081810360008301526130218184612676565b905092915050565b600060208201905061303e60008301846126d4565b92915050565b60006020820190506130596000830184612787565b92915050565b6000602082019050818103600083015261307a8184866127a5565b90509392505050565b6000602082019050818103600083015261309d81846127f7565b905092915050565b600060208201905081810360008301526130be81612830565b9050919050565b600060208201905081810360008301526130de81612896565b9050919050565b600060208201905081810360008301526130fe816128d6565b9050919050565b6000602082019050818103600083015261311e81612916565b9050919050565b6000602082019050818103600083015261313e81612956565b9050919050565b6000602082019050818103600083015261315e816129bc565b9050919050565b6000602082019050818103600083015261317e816129fc565b9050919050565b6000602082019050818103600083015261319e81612a62565b9050919050565b600060208201905081810360008301526131be81612aa2565b9050919050565b600060208201905081810360008301526131de81612ae2565b9050919050565b600060208201905081810360008301526131fe81612b22565b9050919050565b6000602082019050818103600083015261321e81612b62565b9050919050565b6000602082019050818103600083015261323e81612ba2565b9050919050565b6000602082019050818103600083015261325e81612be2565b9050919050565b6000602082019050818103600083015261327e81612c22565b9050919050565b6000602082019050818103600083015261329e81612c62565b9050919050565b600060208201905081810360008301526132be81612ca2565b9050919050565b600060208201905081810360008301526132de81612d08565b9050919050565b600060208201905081810360008301526132fe81612d48565b9050919050565b600060208201905061331a6000830184612d88565b92915050565b6000808335600160200384360303811261333957600080fd5b80840192508235915067ffffffffffffffff82111561335757600080fd5b60208301925060018202360383131561336f57600080fd5b509250929050565b6000819050602082019050919050565b600081519050919050565b600081519050919050565b600081519050919050565b6000602082019050919050565b600082825260208201905092915050565b600081905092915050565b600082825260208201905092915050565b600081905092915050565b60006133f882613504565b9050919050565b60008115159050919050565b60007fff0000000000000000000000000000000000000000000000000000000000000082169050919050565b60007fffffffffffffffffffff0000000000000000000000000000000000000000000082169050919050565b60007fffffffffffffffffffffffffffffff000000000000000000000000000000000082169050919050565b60007fffffffffffffffffffffffffffffffffffffffff00000000000000000000000082169050919050565b6000819050919050565b60007fffffffff0000000000000000000000000000000000000000000000000000000082169050919050565b60008190506134ff8261361c565b919050565b600073ffffffffffffffffffffffffffffffffffffffff82169050919050565b6000819050919050565b600061353982613540565b9050919050565b600061354b82613504565b9050919050565b600061355d826134f1565b9050919050565b82818337600083830152505050565b60005b83811015613591578082015181840152602081019050613576565b838111156135a0576000848401525b50505050565b60006135b1826135ea565b9050919050565b6000819050919050565b6000819050919050565b6000819050919050565b6000819050919050565b6000819050919050565b60006135f58261360f565b9050919050565bfe5b6000601f19601f8301169050919050565b60008160601b9050919050565b6003811061362d5761362c6135fc565b5b50565b613639816133ed565b811461364457600080fd5b50565b613650816133ff565b811461365b57600080fd5b50565b613667816134bb565b811461367257600080fd5b50565b61367e816134c5565b811461368957600080fd5b50565b6003811061369957600080fd5b50565b6136a581613524565b81146136b057600080fd5b5056fea2646970667358221220d5c9f5b6d4e12c49170d8830f9459ebc2386434f550d65bae2bbc0fcfbacfb6264736f6c63430007030033",
  "devdoc": {
    "kind": "dev",
    "methods": {
      "addTokenDestination(address)": {
        "params": {
          "_dst": "Destination address"
        }
      },
      "constructor": {
        "params": {
          "_graphToken": "Token to use for deposits and withdrawals",
          "_masterCopy": "Address of the master copy to use to clone proxies"
        }
      },
      "createTokenLockWallet(address,address,uint256,uint256,uint256,uint256,uint256,uint256,uint8)": {
        "params": {
          "_beneficiary": "Address of the beneficiary of locked tokens",
          "_endTime": "End time of the release schedule",
          "_managedAmount": "Amount of tokens to be managed by the lock contract",
          "_owner": "Address of the contract owner",
          "_periods": "Number of periods between start time and end time",
          "_releaseStartTime": "Override time for when the releases start",
          "_revocable": "Whether the contract is revocable",
          "_startTime": "Start time of the release schedule"
        }
      },
      "deposit(uint256)": {
        "details": "Even if the ERC20 token can be transferred directly to the contract this function provide a safe interface to do the transfer and avoid mistakes",
        "params": {
          "_amount": "Amount to deposit"
        }
      },
      "getAuthFunctionCallTarget(bytes4)": {
        "params": {
          "_sigHash": "Function signature hash"
        },
        "returns": {
          "_0": "Address of the target contract where to send the call"
        }
      },
      "getDeploymentAddress(bytes32,address,address)": {
        "params": {
          "_deployer": "Address of the deployer that creates the contract",
          "_implementation": "Address of the proxy target implementation",
          "_salt": "Bytes32 salt to use for CREATE2"
        },
        "returns": {
          "_0": "Address of the counterfactual MinimalProxy"
        }
      },
      "getTokenDestinations()": {
        "returns": {
          "_0": "Array of addresses authorized to pull funds from a token lock"
        }
      },
      "isAuthFunctionCall(bytes4)": {
        "params": {
          "_sigHash": "Function signature hash"
        },
        "returns": {
          "_0": "True if authorized"
        }
      },
      "isTokenDestination(address)": {
        "params": {
          "_dst": "Destination address"
        },
        "returns": {
          "_0": "True if authorized"
        }
      },
      "owner()": {
        "details": "Returns the address of the current owner."
      },
      "removeTokenDestination(address)": {
        "params": {
          "_dst": "Destination address"
        }
      },
      "renounceOwnership()": {
        "details": "Leaves the contract without owner. It will not be possible to call `onlyOwner` functions anymore. Can only be called by the current owner. NOTE: Renouncing ownership will leave the contract without an owner, thereby removing any functionality that is only available to the owner."
      },
      "setAuthFunctionCall(string,address)": {
        "details": "Input expected is the function signature as 'transfer(address,uint256)'",
        "params": {
          "_signature": "Function signature",
          "_target": "Address of the destination contract to call"
        }
      },
      "setAuthFunctionCallMany(string[],address[])": {
        "details": "Input expected is the function signature as 'transfer(address,uint256)'",
        "params": {
          "_signatures": "Function signatures",
          "_targets": "Address of the destination contract to call"
        }
      },
      "setMasterCopy(address)": {
        "params": {
          "_masterCopy": "Address of contract bytecode to factory clone"
        }
      },
      "token()": {
        "returns": {
          "_0": "Token used for transfers and approvals"
        }
      },
      "transferOwnership(address)": {
        "details": "Transfers ownership of the contract to a new account (`newOwner`). Can only be called by the current owner."
      },
      "unsetAuthFunctionCall(string)": {
        "details": "Input expected is the function signature as 'transfer(address,uint256)'",
        "params": {
          "_signature": "Function signature"
        }
      },
      "withdraw(uint256)": {
        "details": "Escape hatch in case of mistakes or to recover remaining funds",
        "params": {
          "_amount": "Amount of tokens to withdraw"
        }
      }
    },
    "title": "GraphTokenLockManager",
    "version": 1
  },
  "userdoc": {
    "kind": "user",
    "methods": {
      "addTokenDestination(address)": {
        "notice": "Adds an address that can be allowed by a token lock to pull funds"
      },
      "constructor": {
        "notice": "Constructor."
      },
      "createTokenLockWallet(address,address,uint256,uint256,uint256,uint256,uint256,uint256,uint8)": {
        "notice": "Creates and fund a new token lock wallet using a minimum proxy"
      },
      "deposit(uint256)": {
        "notice": "Deposits tokens into the contract"
      },
      "getAuthFunctionCallTarget(bytes4)": {
        "notice": "Gets the target contract to call for a particular function signature"
      },
      "getDeploymentAddress(bytes32,address,address)": {
        "notice": "Gets the deterministic CREATE2 address for MinimalProxy with a particular implementation"
      },
      "getTokenDestinations()": {
        "notice": "Returns an array of authorized destination addresses"
      },
      "isAuthFunctionCall(bytes4)": {
        "notice": "Returns true if the function call is authorized"
      },
      "isTokenDestination(address)": {
        "notice": "Returns True if the address is authorized to be a destination of tokens"
      },
      "removeTokenDestination(address)": {
        "notice": "Removes an address that can be allowed by a token lock to pull funds"
      },
      "setAuthFunctionCall(string,address)": {
        "notice": "Sets an authorized function call to target"
      },
      "setAuthFunctionCallMany(string[],address[])": {
        "notice": "Sets an authorized function call to target in bulk"
      },
      "setMasterCopy(address)": {
        "notice": "Sets the masterCopy bytecode to use to create clones of TokenLock contracts"
      },
      "token()": {
        "notice": "Gets the GRT token address"
      },
      "unsetAuthFunctionCall(string)": {
        "notice": "Unsets an authorized function call to target"
      },
      "withdraw(uint256)": {
        "notice": "Withdraws tokens from the contract"
      }
    },
    "notice": "This contract manages a list of authorized function calls and targets that can be called by any TokenLockWallet contract and it is a factory of TokenLockWallet contracts. This contract receives funds to make the process of creating TokenLockWallet contracts easier by distributing them the initial tokens to be managed. The owner can setup a list of token destinations that will be used by TokenLock contracts to approve the pulling of funds, this way in can be guaranteed that only protocol contracts will manipulate users funds.",
    "version": 1
  },
  "storageLayout": {
    "storage": [
      {
        "astId": 672,
        "contract": "contracts/GraphTokenLockManager.sol:GraphTokenLockManager",
        "label": "_owner",
        "offset": 0,
        "slot": "0",
        "type": "t_address"
      },
      {
        "astId": 3988,
        "contract": "contracts/GraphTokenLockManager.sol:GraphTokenLockManager",
        "label": "authFnCalls",
        "offset": 0,
        "slot": "1",
        "type": "t_mapping(t_bytes4,t_address)"
      },
      {
        "astId": 3990,
        "contract": "contracts/GraphTokenLockManager.sol:GraphTokenLockManager",
        "label": "_tokenDestinations",
        "offset": 0,
        "slot": "2",
        "type": "t_struct(AddressSet)2629_storage"
      },
      {
        "astId": 3992,
        "contract": "contracts/GraphTokenLockManager.sol:GraphTokenLockManager",
        "label": "masterCopy",
        "offset": 0,
        "slot": "4",
        "type": "t_address"
      },
      {
        "astId": 3994,
        "contract": "contracts/GraphTokenLockManager.sol:GraphTokenLockManager",
        "label": "_token",
        "offset": 0,
        "slot": "5",
        "type": "t_contract(IERC20)1710"
      }
    ],
    "types": {
      "t_address": {
        "encoding": "inplace",
        "label": "address",
        "numberOfBytes": "20"
      },
      "t_array(t_bytes32)dyn_storage": {
        "base": "t_bytes32",
        "encoding": "dynamic_array",
        "label": "bytes32[]",
        "numberOfBytes": "32"
      },
      "t_bytes32": {
        "encoding": "inplace",
        "label": "bytes32",
        "numberOfBytes": "32"
      },
      "t_bytes4": {
        "encoding": "inplace",
        "label": "bytes4",
        "numberOfBytes": "4"
      },
      "t_contract(IERC20)1710": {
        "encoding": "inplace",
        "label": "contract IERC20",
        "numberOfBytes": "20"
      },
      "t_mapping(t_bytes32,t_uint256)": {
        "encoding": "mapping",
        "key": "t_bytes32",
        "label": "mapping(bytes32 => uint256)",
        "numberOfBytes": "32",
        "value": "t_uint256"
      },
      "t_mapping(t_bytes4,t_address)": {
        "encoding": "mapping",
        "key": "t_bytes4",
        "label": "mapping(bytes4 => address)",
        "numberOfBytes": "32",
        "value": "t_address"
      },
      "t_struct(AddressSet)2629_storage": {
        "encoding": "inplace",
        "label": "struct EnumerableSet.AddressSet",
        "members": [
          {
            "astId": 2628,
            "contract": "contracts/GraphTokenLockManager.sol:GraphTokenLockManager",
            "label": "_inner",
            "offset": 0,
            "slot": "0",
            "type": "t_struct(Set)2364_storage"
          }
        ],
        "numberOfBytes": "64"
      },
      "t_struct(Set)2364_storage": {
        "encoding": "inplace",
        "label": "struct EnumerableSet.Set",
        "members": [
          {
            "astId": 2359,
            "contract": "contracts/GraphTokenLockManager.sol:GraphTokenLockManager",
            "label": "_values",
            "offset": 0,
            "slot": "0",
            "type": "t_array(t_bytes32)dyn_storage"
          },
          {
            "astId": 2363,
            "contract": "contracts/GraphTokenLockManager.sol:GraphTokenLockManager",
            "label": "_indexes",
            "offset": 0,
            "slot": "1",
            "type": "t_mapping(t_bytes32,t_uint256)"
          }
        ],
        "numberOfBytes": "64"
      },
      "t_uint256": {
        "encoding": "inplace",
        "label": "uint256",
        "numberOfBytes": "32"
      }
    }
  }
}