{
  "address": "0xc93df24c3A1ebeCcd0e5D41198460081CFB38c49",
  "abi": [
    {
      "anonymous": false,
      "inputs": [
        {
          "indexed": false,
          "internalType": "address",
          "name": "newBeneficiary",
          "type": "address"
        }
      ],
      "name": "BeneficiaryChanged",
      "type": "event"
    },
    {
      "anonymous": false,
      "inputs": [],
      "name": "LockAccepted",
      "type": "event"
    },
    {
      "anonymous": false,
      "inputs": [],
      "name": "LockCanceled",
      "type": "event"
    },
    {
      "anonymous": false,
      "inputs": [
        {
          "indexed": true,
          "internalType": "address",
          "name": "_oldManager",
          "type": "address"
        },
        {
          "indexed": true,
          "internalType": "address",
          "name": "_newManager",
          "type": "address"
        }
      ],
      "name": "ManagerUpdated",
      "type": "event"
    },
    {
      "anonymous": false,
      "inputs": [
        {
          "indexed": true,
          "internalType": "address",
          "name": "previousOwner",
          "type": "address"
        },
        {
          "indexed": true,
          "internalType": "address",
          "name": "newOwner",
          "type": "address"
        }
      ],
      "name": "OwnershipTransferred",
      "type": "event"
    },
    {
      "anonymous": false,
      "inputs": [],
      "name": "TokenDestinationsApproved",
      "type": "event"
    },
    {
      "anonymous": false,
      "inputs": [],
      "name": "TokenDestinationsRevoked",
      "type": "event"
    },
    {
      "anonymous": false,
      "inputs": [
        {
          "indexed": true,
          "internalType": "address",
          "name": "beneficiary",
          "type": "address"
        },
        {
          "indexed": false,
          "internalType": "uint256",
          "name": "amount",
          "type": "uint256"
        }
      ],
      "name": "TokensReleased",
      "type": "event"
    },
    {
      "anonymous": false,
      "inputs": [
        {
          "indexed": true,
          "internalType": "address",
          "name": "beneficiary",
          "type": "address"
        },
        {
          "indexed": false,
          "internalType": "uint256",
          "name": "amount",
          "type": "uint256"
        }
      ],
      "name": "TokensRevoked",
      "type": "event"
    },
    {
      "anonymous": false,
      "inputs": [
        {
          "indexed": true,
          "internalType": "address",
          "name": "beneficiary",
          "type": "address"
        },
        {
          "indexed": false,
          "internalType": "uint256",
          "name": "amount",
          "type": "uint256"
        }
      ],
      "name": "TokensWithdrawn",
      "type": "event"
    },
    {
      "stateMutability": "payable",
      "type": "fallback"
    },
    {
      "inputs": [],
      "name": "acceptLock",
      "outputs": [],
      "stateMutability": "nonpayable",
      "type": "function"
    },
    {
      "inputs": [],
      "name": "amountPerPeriod",
      "outputs": [
        {
          "internalType": "uint256",
          "name": "",
          "type": "uint256"
        }
      ],
      "stateMutability": "view",
      "type": "function"
    },
    {
      "inputs": [],
      "name": "approveProtocol",
      "outputs": [],
      "stateMutability": "nonpayable",
      "type": "function"
    },
    {
      "inputs": [],
      "name": "availableAmount",
      "outputs": [
        {
          "internalType": "uint256",
          "name": "",
          "type": "uint256"
        }
      ],
      "stateMutability": "view",
      "type": "function"
    },
    {
      "inputs": [],
      "name": "beneficiary",
      "outputs": [
        {
          "internalType": "address",
          "name": "",
          "type": "address"
        }
      ],
      "stateMutability": "view",
      "type": "function"
    },
    {
      "inputs": [],
      "name": "cancelLock",
      "outputs": [],
      "stateMutability": "nonpayable",
      "type": "function"
    },
    {
      "inputs": [
        {
          "internalType": "address",
          "name": "_newBeneficiary",
          "type": "address"
        }
      ],
      "name": "changeBeneficiary",
      "outputs": [],
      "stateMutability": "nonpayable",
      "type": "function"
    },
    {
      "inputs": [],
      "name": "currentBalance",
      "outputs": [
        {
          "internalType": "uint256",
          "name": "",
          "type": "uint256"
        }
      ],
      "stateMutability": "view",
      "type": "function"
    },
    {
      "inputs": [],
      "name": "currentPeriod",
      "outputs": [
        {
          "internalType": "uint256",
          "name": "",
          "type": "uint256"
        }
      ],
      "stateMutability": "view",
      "type": "function"
    },
    {
      "inputs": [],
      "name": "currentTime",
      "outputs": [
        {
          "internalType": "uint256",
          "name": "",
          "type": "uint256"
        }
      ],
      "stateMutability": "view",
      "type": "function"
    },
    {
      "inputs": [],
      "name": "duration",
      "outputs": [
        {
          "internalType": "uint256",
          "name": "",
          "type": "uint256"
        }
      ],
      "stateMutability": "view",
      "type": "function"
    },
    {
      "inputs": [],
      "name": "endTime",
      "outputs": [
        {
          "internalType": "uint256",
          "name": "",
          "type": "uint256"
        }
      ],
      "stateMutability": "view",
      "type": "function"
    },
    {
      "inputs": [
        {
          "internalType": "address",
          "name": "_manager",
          "type": "address"
        },
        {
          "internalType": "address",
          "name": "_owner",
          "type": "address"
        },
        {
          "internalType": "address",
          "name": "_beneficiary",
          "type": "address"
        },
        {
          "internalType": "address",
          "name": "_token",
          "type": "address"
        },
        {
          "internalType": "uint256",
          "name": "_managedAmount",
          "type": "uint256"
        },
        {
          "internalType": "uint256",
          "name": "_startTime",
          "type": "uint256"
        },
        {
          "internalType": "uint256",
          "name": "_endTime",
          "type": "uint256"
        },
        {
          "internalType": "uint256",
          "name": "_periods",
          "type": "uint256"
        },
        {
          "internalType": "uint256",
          "name": "_releaseStartTime",
          "type": "uint256"
        },
        {
          "internalType": "uint256",
          "name": "_vestingCliffTime",
          "type": "uint256"
        },
        {
          "internalType": "enum IGraphTokenLock.Revocability",
          "name": "_revocable",
          "type": "uint8"
        }
      ],
      "name": "initialize",
      "outputs": [],
      "stateMutability": "nonpayable",
      "type": "function"
    },
    {
      "inputs": [],
      "name": "isAccepted",
      "outputs": [
        {
          "internalType": "bool",
          "name": "",
          "type": "bool"
        }
      ],
      "stateMutability": "view",
      "type": "function"
    },
    {
      "inputs": [],
      "name": "isInitialized",
      "outputs": [
        {
          "internalType": "bool",
          "name": "",
          "type": "bool"
        }
      ],
      "stateMutability": "view",
      "type": "function"
    },
    {
      "inputs": [],
      "name": "isRevoked",
      "outputs": [
        {
          "internalType": "bool",
          "name": "",
          "type": "bool"
        }
      ],
      "stateMutability": "view",
      "type": "function"
    },
    {
      "inputs": [],
      "name": "managedAmount",
      "outputs": [
        {
          "internalType": "uint256",
          "name": "",
          "type": "uint256"
        }
      ],
      "stateMutability": "view",
      "type": "function"
    },
    {
      "inputs": [],
      "name": "manager",
      "outputs": [
        {
          "internalType": "contract IGraphTokenLockManager",
          "name": "",
          "type": "address"
        }
      ],
      "stateMutability": "view",
      "type": "function"
    },
    {
      "inputs": [],
      "name": "owner",
      "outputs": [
        {
          "internalType": "address",
          "name": "",
          "type": "address"
        }
      ],
      "stateMutability": "view",
      "type": "function"
    },
    {
      "inputs": [],
      "name": "passedPeriods",
      "outputs": [
        {
          "internalType": "uint256",
          "name": "",
          "type": "uint256"
        }
      ],
      "stateMutability": "view",
      "type": "function"
    },
    {
      "inputs": [],
      "name": "periodDuration",
      "outputs": [
        {
          "internalType": "uint256",
          "name": "",
          "type": "uint256"
        }
      ],
      "stateMutability": "view",
      "type": "function"
    },
    {
      "inputs": [],
      "name": "periods",
      "outputs": [
        {
          "internalType": "uint256",
          "name": "",
          "type": "uint256"
        }
      ],
      "stateMutability": "view",
      "type": "function"
    },
    {
      "inputs": [],
      "name": "releasableAmount",
      "outputs": [
        {
          "internalType": "uint256",
          "name": "",
          "type": "uint256"
        }
      ],
      "stateMutability": "view",
      "type": "function"
    },
    {
      "inputs": [],
      "name": "release",
      "outputs": [],
      "stateMutability": "nonpayable",
      "type": "function"
    },
    {
      "inputs": [],
      "name": "releaseStartTime",
      "outputs": [
        {
          "internalType": "uint256",
          "name": "",
          "type": "uint256"
        }
      ],
      "stateMutability": "view",
      "type": "function"
    },
    {
      "inputs": [],
      "name": "releasedAmount",
      "outputs": [
        {
          "internalType": "uint256",
          "name": "",
          "type": "uint256"
        }
      ],
      "stateMutability": "view",
      "type": "function"
    },
    {
      "inputs": [],
      "name": "renounceOwnership",
      "outputs": [],
      "stateMutability": "nonpayable",
      "type": "function"
    },
    {
      "inputs": [],
      "name": "revocable",
      "outputs": [
        {
          "internalType": "enum IGraphTokenLock.Revocability",
          "name": "",
          "type": "uint8"
        }
      ],
      "stateMutability": "view",
      "type": "function"
    },
    {
      "inputs": [],
      "name": "revoke",
      "outputs": [],
      "stateMutability": "nonpayable",
      "type": "function"
    },
    {
      "inputs": [],
      "name": "revokeProtocol",
      "outputs": [],
      "stateMutability": "nonpayable",
      "type": "function"
    },
    {
      "inputs": [],
      "name": "revokedAmount",
      "outputs": [
        {
          "internalType": "uint256",
          "name": "",
          "type": "uint256"
        }
      ],
      "stateMutability": "view",
      "type": "function"
    },
    {
      "inputs": [
        {
          "internalType": "address",
          "name": "_newManager",
          "type": "address"
        }
      ],
      "name": "setManager",
      "outputs": [],
      "stateMutability": "nonpayable",
      "type": "function"
    },
    {
      "inputs": [],
      "name": "sinceStartTime",
      "outputs": [
        {
          "internalType": "uint256",
          "name": "",
          "type": "uint256"
        }
      ],
      "stateMutability": "view",
      "type": "function"
    },
    {
      "inputs": [],
      "name": "startTime",
      "outputs": [
        {
          "internalType": "uint256",
          "name": "",
          "type": "uint256"
        }
      ],
      "stateMutability": "view",
      "type": "function"
    },
    {
      "inputs": [],
      "name": "surplusAmount",
      "outputs": [
        {
          "internalType": "uint256",
          "name": "",
          "type": "uint256"
        }
      ],
      "stateMutability": "view",
      "type": "function"
    },
    {
      "inputs": [],
      "name": "token",
      "outputs": [
        {
          "internalType": "contract IERC20",
          "name": "",
          "type": "address"
        }
      ],
      "stateMutability": "view",
      "type": "function"
    },
    {
      "inputs": [],
      "name": "totalOutstandingAmount",
      "outputs": [
        {
          "internalType": "uint256",
          "name": "",
          "type": "uint256"
        }
      ],
      "stateMutability": "view",
      "type": "function"
    },
    {
      "inputs": [
        {
          "internalType": "address",
          "name": "newOwner",
          "type": "address"
        }
      ],
      "name": "transferOwnership",
      "outputs": [],
      "stateMutability": "nonpayable",
      "type": "function"
    },
    {
      "inputs": [],
      "name": "usedAmount",
      "outputs": [
        {
          "internalType": "uint256",
          "name": "",
          "type": "uint256"
        }
      ],
      "stateMutability": "view",
      "type": "function"
    },
    {
      "inputs": [],
      "name": "vestedAmount",
      "outputs": [
        {
          "internalType": "uint256",
          "name": "",
          "type": "uint256"
        }
      ],
      "stateMutability": "view",
      "type": "function"
    },
    {
      "inputs": [],
      "name": "vestingCliffTime",
      "outputs": [
        {
          "internalType": "uint256",
          "name": "",
          "type": "uint256"
        }
      ],
      "stateMutability": "view",
      "type": "function"
    },
    {
      "inputs": [
        {
          "internalType": "uint256",
          "name": "_amount",
          "type": "uint256"
        }
      ],
      "name": "withdrawSurplus",
      "outputs": [],
      "stateMutability": "nonpayable",
      "type": "function"
    },
    {
      "stateMutability": "payable",
      "type": "receive"
    }
  ],
  "transactionHash": "0xc82db94de89d7e695ffb90299b1501f199d5250c3b47bb755f5bb05c033632c0",
  "args": [],
  "solcInputHash": "b5cdad58099d39cd1aed000b2fd864d8",
  "bytecode": "0x608060405234801561001057600080fd5b506146bb806100206000396000f3fe6080604052600436106102555760003560e01c806386d00e0211610139578063bc0163c1116100b6578063dc0706571161007a578063dc07065714610b93578063e8dda6f514610bbc578063e97d87d514610be7578063ebbab99214610c12578063f2fde38b14610c3d578063fc0c546a14610c6657610295565b8063bc0163c114610ac0578063bd896dcb14610aeb578063ce845d1d14610b14578063d0ebdbe714610b3f578063d18e81b314610b6857610295565b806391f7cfb9116100fd57806391f7cfb9146109ff578063a4caeb4214610a2a578063b0d1818c14610a55578063b470aade14610a7e578063b6549f7514610aa957610295565b806386d00e021461095057806386d1a69f1461097b578063872a7810146109925780638a5bdf5c146109bd5780638da5cb5b146109d457610295565b8063392e53cd116101d25780635051a5ec116101965780635051a5ec146108765780635b940081146108a157806360e79944146108cc578063715018a6146108e357806378e97925146108fa5780637bdf05af1461092557610295565b8063392e53cd1461079f578063398057a3146107ca57806344b1231f146107f557806345d30a1714610820578063481c6a751461084b57610295565b80632a627814116102195780632a627814146106dc5780632bc9ed02146106f35780633197cbb61461071e57806337aeb0861461074957806338af3eed1461077457610295565b8063029c6c9f1461061957806306040618146106445780630b80f7771461066f5780630dff24d5146106865780630fb5a6b4146106b157610295565b36610295576040517f08c379a000000000000000000000000000000000000000000000000000000000815260040161028c90613fb9565b60405180910390fd5b603460009054906101000a900473ffffffffffffffffffffffffffffffffffffffff1673ffffffffffffffffffffffffffffffffffffffff163373ffffffffffffffffffffffffffffffffffffffff1614610325576040517f08c379a000000000000000000000000000000000000000000000000000000000815260040161031c90614199565b60405180910390fd5b60003414610368576040517f08c379a000000000000000000000000000000000000000000000000000000000815260040161035f90613fd9565b60405180910390fd5b6000603e60009054906101000a900473ffffffffffffffffffffffffffffffffffffffff1673ffffffffffffffffffffffffffffffffffffffff1663f1d24c456000357fffffffff00000000000000000000000000000000000000000000000000000000166040518263ffffffff1660e01b81526004016103e99190613f2b565b60206040518083038186803b15801561040157600080fd5b505afa158015610415573d6000803e3d6000fd5b505050506040513d601f19601f8201168201806040525081019061043991906131a5565b9050600073ffffffffffffffffffffffffffffffffffffffff168173ffffffffffffffffffffffffffffffffffffffff1614156104ab576040517f08c379a00000000000000000000000000000000000000000000000000000000081526004016104a290614299565b60405180910390fd5b60006104b5610c91565b9050610506826000368080601f016020809104026020016040519081016040528093929190818152602001838380828437600081840152601f19601f82011690508083019250505050505050610d43565b506001600281111561051457fe5b603b60009054906101000a900460ff16600281111561052f57fe5b141561061557600061053f610c91565b90508181101561058157600061055e8284610d8d90919063ffffffff16565b905061057581603f54610ddd90919063ffffffff16565b603f81905550506105c7565b60006105968383610d8d90919063ffffffff16565b9050603f548110156105bc576105b781603f54610d8d90919063ffffffff16565b6105bf565b60005b603f81905550505b6105cf610e32565b603f541115610613576040517f08c379a000000000000000000000000000000000000000000000000000000000815260040161060a906141f9565b60405180910390fd5b505b5050005b34801561062557600080fd5b5061062e610ea1565b60405161063b9190614439565b60405180910390f35b34801561065057600080fd5b50610659610ebf565b6040516106669190614439565b60405180910390f35b34801561067b57600080fd5b50610684610efa565b005b34801561069257600080fd5b5061069b611067565b6040516106a89190614439565b60405180910390f35b3480156106bd57600080fd5b506106c66110ae565b6040516106d39190614439565b60405180910390f35b3480156106e857600080fd5b506106f16110cc565b005b3480156106ff57600080fd5b50610708611331565b6040516107159190613f10565b60405180910390f35b34801561072a57600080fd5b50610733611344565b6040516107409190614439565b60405180910390f35b34801561075557600080fd5b5061075e61134a565b60405161076b9190614439565b60405180910390f35b34801561078057600080fd5b50610789611350565b6040516107969190613ea3565b60405180910390f35b3480156107ab57600080fd5b506107b4611376565b6040516107c19190613f10565b60405180910390f35b3480156107d657600080fd5b506107df611389565b6040516107ec9190614439565b60405180910390f35b34801561080157600080fd5b5061080a610e32565b6040516108179190614439565b60405180910390f35b34801561082c57600080fd5b5061083561138f565b6040516108429190614439565b60405180910390f35b34801561085757600080fd5b50610860611395565b60405161086d9190613f61565b60405180910390f35b34801561088257600080fd5b5061088b6113bb565b6040516108989190613f10565b60405180910390f35b3480156108ad57600080fd5b506108b66113ce565b6040516108c39190614439565b60405180910390f35b3480156108d857600080fd5b506108e16114d9565b005b3480156108ef57600080fd5b506108f861171f565b005b34801561090657600080fd5b5061090f61186b565b60405161091c9190614439565b60405180910390f35b34801561093157600080fd5b5061093a611871565b6040516109479190614439565b60405180910390f35b34801561095c57600080fd5b506109656118ad565b6040516109729190614439565b60405180910390f35b34801561098757600080fd5b506109906118b3565b005b34801561099e57600080fd5b506109a7611a8f565b6040516109b49190613f7c565b60405180910390f35b3480156109c957600080fd5b506109d2611aa2565b005b3480156109e057600080fd5b506109e9611b7b565b6040516109f69190613ea3565b60405180910390f35b348015610a0b57600080fd5b50610a14611ba4565b604051610a219190614439565b60405180910390f35b348015610a3657600080fd5b50610a3f611c02565b604051610a4c9190614439565b60405180910390f35b348015610a6157600080fd5b50610a7c6004803603810190610a779190613328565b611c08565b005b348015610a8a57600080fd5b50610a93611e07565b604051610aa09190614439565b60405180910390f35b348015610ab557600080fd5b50610abe611e2a565b005b348015610acc57600080fd5b50610ad56120c2565b604051610ae29190614439565b60405180910390f35b348015610af757600080fd5b50610b126004803603810190610b0d91906131ce565b6120f4565b005b348015610b2057600080fd5b50610b29610c91565b604051610b369190614439565b60405180910390f35b348015610b4b57600080fd5b50610b666004803603810190610b61919061317c565b61211c565b005b348015610b7457600080fd5b50610b7d6121b6565b604051610b8a9190614439565b60405180910390f35b348015610b9f57600080fd5b50610bba6004803603810190610bb5919061317c565b6121be565b005b348015610bc857600080fd5b50610bd1612339565b604051610bde9190614439565b60405180910390f35b348015610bf357600080fd5b50610bfc61233f565b604051610c099190614439565b60405180910390f35b348015610c1e57600080fd5b50610c27612345565b604051610c349190614439565b60405180910390f35b348015610c4957600080fd5b50610c646004803603810190610c5f919061317c565b612367565b005b348015610c7257600080fd5b50610c7b612522565b604051610c889190613f46565b60405180910390f35b6000603360009054906101000a900473ffffffffffffffffffffffffffffffffffffffff1673ffffffffffffffffffffffffffffffffffffffff166370a08231306040518263ffffffff1660e01b8152600401610cee9190613ea3565b60206040518083038186803b158015610d0657600080fd5b505afa158015610d1a573d6000803e3d6000fd5b505050506040513d601f19601f82011682018060405250810190610d3e9190613351565b905090565b6060610d8583836040518060400160405280601e81526020017f416464726573733a206c6f772d6c6576656c2063616c6c206661696c65640000815250612548565b905092915050565b600082821115610dd2576040517f08c379a0000000000000000000000000000000000000000000000000000000008152600401610dc9906140f9565b60405180910390fd5b818303905092915050565b600080828401905083811015610e28576040517f08c379a0000000000000000000000000000000000000000000000000000000008152600401610e1f90614079565b60405180910390fd5b8091505092915050565b6000600280811115610e4057fe5b603b60009054906101000a900460ff166002811115610e5b57fe5b1415610e6b576035549050610e9e565b6000603a54118015610e855750603a54610e836121b6565b105b15610e935760009050610e9e565b610e9b611ba4565b90505b90565b6000610eba60385460355461256090919063ffffffff16565b905090565b6000610ef56001610ee7610ed1611e07565b610ed9611871565b61256090919063ffffffff16565b610ddd90919063ffffffff16565b905090565b3373ffffffffffffffffffffffffffffffffffffffff1660008054906101000a900473ffffffffffffffffffffffffffffffffffffffff1673ffffffffffffffffffffffffffffffffffffffff1614610f88576040517f08c379a0000000000000000000000000000000000000000000000000000000008152600401610f7f90614259565b60405180910390fd5b60001515603b60039054906101000a900460ff16151514610fde576040517f08c379a0000000000000000000000000000000000000000000000000000000008152600401610fd5906140d9565b60405180910390fd5b611039610fe9611b7b565b610ff1610c91565b603360009054906101000a900473ffffffffffffffffffffffffffffffffffffffff1673ffffffffffffffffffffffffffffffffffffffff166125b69092919063ffffffff16565b7f171f0bcbda3370351cea17f3b164bee87d77c2503b94abdf2720a814ebe7e9df60405160405180910390a1565b600080611072610c91565b9050600061107e6120c2565b9050808211156110a45761109b8183610d8d90919063ffffffff16565b925050506110ab565b6000925050505b90565b60006110c7603654603754610d8d90919063ffffffff16565b905090565b603460009054906101000a900473ffffffffffffffffffffffffffffffffffffffff1673ffffffffffffffffffffffffffffffffffffffff163373ffffffffffffffffffffffffffffffffffffffff161461115c576040517f08c379a000000000000000000000000000000000000000000000000000000000815260040161115390614359565b60405180910390fd5b6060603e60009054906101000a900473ffffffffffffffffffffffffffffffffffffffff1673ffffffffffffffffffffffffffffffffffffffff1663a34574666040518163ffffffff1660e01b815260040160006040518083038186803b1580156111c657600080fd5b505afa1580156111da573d6000803e3d6000fd5b505050506040513d6000823e3d601f19601f8201168201806040525081019061120391906132be565b905060005b815181101561130157603360009054906101000a900473ffffffffffffffffffffffffffffffffffffffff1673ffffffffffffffffffffffffffffffffffffffff1663095ea7b383838151811061125b57fe5b60200260200101517fffffffffffffffffffffffffffffffffffffffffffffffffffffffffffffffff6040518363ffffffff1660e01b81526004016112a1929190613ee7565b602060405180830381600087803b1580156112bb57600080fd5b505af11580156112cf573d6000803e3d6000fd5b505050506040513d601f19601f820116820180604052508101906112f391906132ff565b508080600101915050611208565b507fb837fd51506ba3cc623a37c78ed22fd521f2f6e9f69a34d5c2a4a9474f27579360405160405180910390a150565b603b60019054906101000a900460ff1681565b60375481565b603d5481565b603460009054906101000a900473ffffffffffffffffffffffffffffffffffffffff1681565b603b60029054906101000a900460ff1681565b60355481565b603c5481565b603e60009054906101000a900473ffffffffffffffffffffffffffffffffffffffff1681565b603b60039054906101000a900460ff1681565b60006002808111156113dc57fe5b603b60009054906101000a900460ff1660028111156113f757fe5b141561140c5761140561263c565b90506114d6565b600060395411801561142657506039546114246121b6565b105b1561143457600090506114d6565b6001600281111561144157fe5b603b60009054906101000a900460ff16600281111561145c57fe5b14801561146b57506000603a54115b801561147f5750603a5461147d6121b6565b105b1561148d57600090506114d6565b60006114bf603f546114b1603c546114a3611ba4565b610d8d90919063ffffffff16565b610d8d90919063ffffffff16565b90506114d26114cc610c91565b826126f6565b9150505b90565b603460009054906101000a900473ffffffffffffffffffffffffffffffffffffffff1673ffffffffffffffffffffffffffffffffffffffff163373ffffffffffffffffffffffffffffffffffffffff1614611569576040517f08c379a000000000000000000000000000000000000000000000000000000000815260040161156090614359565b60405180910390fd5b6060603e60009054906101000a900473ffffffffffffffffffffffffffffffffffffffff1673ffffffffffffffffffffffffffffffffffffffff1663a34574666040518163ffffffff1660e01b815260040160006040518083038186803b1580156115d357600080fd5b505afa1580156115e7573d6000803e3d6000fd5b505050506040513d6000823e3d601f19601f8201168201806040525081019061161091906132be565b905060005b81518110156116ef57603360009054906101000a900473ffffffffffffffffffffffffffffffffffffffff1673ffffffffffffffffffffffffffffffffffffffff1663095ea7b383838151811061166857fe5b602002602001015160006040518363ffffffff1660e01b815260040161168f929190613ebe565b602060405180830381600087803b1580156116a957600080fd5b505af11580156116bd573d6000803e3d6000fd5b505050506040513d601f19601f820116820180604052508101906116e191906132ff565b508080600101915050611615565b507f6d317a20ba9d790014284bef285283cd61fde92e0f2711050f563a9d2cf4171160405160405180910390a150565b3373ffffffffffffffffffffffffffffffffffffffff1660008054906101000a900473ffffffffffffffffffffffffffffffffffffffff1673ffffffffffffffffffffffffffffffffffffffff16146117ad576040517f08c379a00000000000000000000000000000000000000000000000000000000081526004016117a490614259565b60405180910390fd5b600073ffffffffffffffffffffffffffffffffffffffff1660008054906101000a900473ffffffffffffffffffffffffffffffffffffffff1673ffffffffffffffffffffffffffffffffffffffff167f8be0079c531659141344cd1fd0a4f28419497f9722a3daafe3b4186f6b6457e060405160405180910390a360008060006101000a81548173ffffffffffffffffffffffffffffffffffffffff021916908373ffffffffffffffffffffffffffffffffffffffff160217905550565b60365481565b60008061187c6121b6565b905060365481116118915760009150506118aa565b6118a660365482610d8d90919063ffffffff16565b9150505b90565b603a5481565b603460009054906101000a900473ffffffffffffffffffffffffffffffffffffffff1673ffffffffffffffffffffffffffffffffffffffff163373ffffffffffffffffffffffffffffffffffffffff1614611943576040517f08c379a000000000000000000000000000000000000000000000000000000000815260040161193a90614359565b60405180910390fd5b600061194d6113ce565b905060008111611992576040517f08c379a0000000000000000000000000000000000000000000000000000000008152600401611989906143b9565b60405180910390fd5b6119a781603c54610ddd90919063ffffffff16565b603c81905550611a1c603460009054906101000a900473ffffffffffffffffffffffffffffffffffffffff1682603360009054906101000a900473ffffffffffffffffffffffffffffffffffffffff1673ffffffffffffffffffffffffffffffffffffffff166125b69092919063ffffffff16565b603460009054906101000a900473ffffffffffffffffffffffffffffffffffffffff1673ffffffffffffffffffffffffffffffffffffffff167fc7798891864187665ac6dd119286e44ec13f014527aeeb2b8eb3fd413df9317982604051611a849190614439565b60405180910390a250565b603b60009054906101000a900460ff1681565b603460009054906101000a900473ffffffffffffffffffffffffffffffffffffffff1673ffffffffffffffffffffffffffffffffffffffff163373ffffffffffffffffffffffffffffffffffffffff1614611b32576040517f08c379a0000000000000000000000000000000000000000000000000000000008152600401611b2990614359565b60405180910390fd5b6001603b60036101000a81548160ff0219169083151502179055507fbeb3313724453131feb0a765a03e6715bb720e0f973a31fcbafa2d2f048c188b60405160405180910390a1565b60008060009054906101000a900473ffffffffffffffffffffffffffffffffffffffff16905090565b600080611baf6121b6565b9050603654811015611bc5576000915050611bff565b603754811115611bda57603554915050611bff565b611bfb611be5610ea1565b611bed612345565b61270f90919063ffffffff16565b9150505b90565b60385481565b603460009054906101000a900473ffffffffffffffffffffffffffffffffffffffff1673ffffffffffffffffffffffffffffffffffffffff163373ffffffffffffffffffffffffffffffffffffffff1614611c98576040517f08c379a0000000000000000000000000000000000000000000000000000000008152600401611c8f90614359565b60405180910390fd5b60008111611cdb576040517f08c379a0000000000000000000000000000000000000000000000000000000008152600401611cd2906141d9565b60405180910390fd5b80611ce4611067565b1015611d25576040517f08c379a0000000000000000000000000000000000000000000000000000000008152600401611d1c906142d9565b60405180910390fd5b611d94603460009054906101000a900473ffffffffffffffffffffffffffffffffffffffff1682603360009054906101000a900473ffffffffffffffffffffffffffffffffffffffff1673ffffffffffffffffffffffffffffffffffffffff166125b69092919063ffffffff16565b603460009054906101000a900473ffffffffffffffffffffffffffffffffffffffff1673ffffffffffffffffffffffffffffffffffffffff167f6352c5382c4a4578e712449ca65e83cdb392d045dfcf1cad9615189db2da244b82604051611dfc9190614439565b60405180910390a250565b6000611e25603854611e176110ae565b61256090919063ffffffff16565b905090565b3373ffffffffffffffffffffffffffffffffffffffff1660008054906101000a900473ffffffffffffffffffffffffffffffffffffffff1673ffffffffffffffffffffffffffffffffffffffff1614611eb8576040517f08c379a0000000000000000000000000000000000000000000000000000000008152600401611eaf90614259565b60405180910390fd5b60016002811115611ec557fe5b603b60009054906101000a900460ff166002811115611ee057fe5b14611f20576040517f08c379a0000000000000000000000000000000000000000000000000000000008152600401611f1790614319565b60405180910390fd5b60001515603b60019054906101000a900460ff16151514611f76576040517f08c379a0000000000000000000000000000000000000000000000000000000008152600401611f6d90614419565b60405180910390fd5b6000611f94611f83610e32565b603554610d8d90919063ffffffff16565b905060008111611fd9576040517f08c379a0000000000000000000000000000000000000000000000000000000008152600401611fd090614099565b60405180910390fd5b80603d819055506001603b60016101000a81548160ff02191690831515021790555061204f612006611b7b565b82603360009054906101000a900473ffffffffffffffffffffffffffffffffffffffff1673ffffffffffffffffffffffffffffffffffffffff166125b69092919063ffffffff16565b603460009054906101000a900473ffffffffffffffffffffffffffffffffffffffff1673ffffffffffffffffffffffffffffffffffffffff167fb73c49a3a37a7aca291ba0ceaa41657012def406106a7fc386888f0f66e941cf826040516120b79190614439565b60405180910390a250565b60006120ef603d546120e1603c54603554610d8d90919063ffffffff16565b610d8d90919063ffffffff16565b905090565b6121068a8a8a8a8a8a8a8a8a8a61277f565b61210f8b612c09565b5050505050505050505050565b3373ffffffffffffffffffffffffffffffffffffffff1660008054906101000a900473ffffffffffffffffffffffffffffffffffffffff1673ffffffffffffffffffffffffffffffffffffffff16146121aa576040517f08c379a00000000000000000000000000000000000000000000000000000000081526004016121a190614259565b60405180910390fd5b6121b381612c09565b50565b600042905090565b603460009054906101000a900473ffffffffffffffffffffffffffffffffffffffff1673ffffffffffffffffffffffffffffffffffffffff163373ffffffffffffffffffffffffffffffffffffffff161461224e576040517f08c379a000000000000000000000000000000000000000000000000000000000815260040161224590614359565b60405180910390fd5b600073ffffffffffffffffffffffffffffffffffffffff168173ffffffffffffffffffffffffffffffffffffffff1614156122be576040517f08c379a00000000000000000000000000000000000000000000000000000000081526004016122b590614179565b60405180910390fd5b80603460006101000a81548173ffffffffffffffffffffffffffffffffffffffff021916908373ffffffffffffffffffffffffffffffffffffffff1602179055507f373c72efabe4ef3e552ff77838be729f3bc3d8c586df0012902d1baa2377fa1d8160405161232e9190613ea3565b60405180910390a150565b603f5481565b60395481565b60006123626001612354610ebf565b610d8d90919063ffffffff16565b905090565b3373ffffffffffffffffffffffffffffffffffffffff1660008054906101000a900473ffffffffffffffffffffffffffffffffffffffff1673ffffffffffffffffffffffffffffffffffffffff16146123f5576040517f08c379a00000000000000000000000000000000000000000000000000000000081526004016123ec90614259565b60405180910390fd5b600073ffffffffffffffffffffffffffffffffffffffff168173ffffffffffffffffffffffffffffffffffffffff161415612465576040517f08c379a000000000000000000000000000000000000000000000000000000000815260040161245c90614059565b60405180910390fd5b8073ffffffffffffffffffffffffffffffffffffffff1660008054906101000a900473ffffffffffffffffffffffffffffffffffffffff1673ffffffffffffffffffffffffffffffffffffffff167f8be0079c531659141344cd1fd0a4f28419497f9722a3daafe3b4186f6b6457e060405160405180910390a3806000806101000a81548173ffffffffffffffffffffffffffffffffffffffff021916908373ffffffffffffffffffffffffffffffffffffffff16021790555050565b603360009054906101000a900473ffffffffffffffffffffffffffffffffffffffff1681565b60606125578484600085612d87565b90509392505050565b60008082116125a4576040517f08c379a000000000000000000000000000000000000000000000000000000000815260040161259b90614159565b60405180910390fd5b8183816125ad57fe5b04905092915050565b6126378363a9059cbb60e01b84846040516024016125d5929190613ee7565b604051602081830303815290604052907bffffffffffffffffffffffffffffffffffffffffffffffffffffffff19166020820180517bffffffffffffffffffffffffffffffffffffffffffffffffffffffff8381831617835250505050612e9c565b505050565b60008060395411801561265757506039546126556121b6565b105b1561266557600090506126f3565b6001600281111561267257fe5b603b60009054906101000a900460ff16600281111561268d57fe5b14801561269c57506000603a54115b80156126b05750603a546126ae6121b6565b105b156126be57600090506126f3565b60006126dc603c546126ce611ba4565b610d8d90919063ffffffff16565b90506126ef6126e9610c91565b826126f6565b9150505b90565b60008183106127055781612707565b825b905092915050565b6000808314156127225760009050612779565b600082840290508284828161273357fe5b0414612774576040517f08c379a000000000000000000000000000000000000000000000000000000000815260040161276b90614239565b60405180910390fd5b809150505b92915050565b603b60029054906101000a900460ff16156127cf576040517f08c379a00000000000000000000000000000000000000000000000000000000081526004016127c6906142f9565b60405180910390fd5b600073ffffffffffffffffffffffffffffffffffffffff168a73ffffffffffffffffffffffffffffffffffffffff16141561283f576040517f08c379a0000000000000000000000000000000000000000000000000000000008152600401612836906140b9565b60405180910390fd5b600073ffffffffffffffffffffffffffffffffffffffff168973ffffffffffffffffffffffffffffffffffffffff1614156128af576040517f08c379a00000000000000000000000000000000000000000000000000000000081526004016128a6906143f9565b60405180910390fd5b600073ffffffffffffffffffffffffffffffffffffffff168873ffffffffffffffffffffffffffffffffffffffff16141561291f576040517f08c379a0000000000000000000000000000000000000000000000000000000008152600401612916906143d9565b60405180910390fd5b60008711612962576040517f08c379a000000000000000000000000000000000000000000000000000000000815260040161295990614139565b60405180910390fd5b60008614156129a6576040517f08c379a000000000000000000000000000000000000000000000000000000000815260040161299d90614279565b60405180910390fd5b8486106129e8576040517f08c379a00000000000000000000000000000000000000000000000000000000081526004016129df90614019565b60405180910390fd5b6001841015612a2c576040517f08c379a0000000000000000000000000000000000000000000000000000000008152600401612a2390614219565b60405180910390fd5b60006002811115612a3957fe5b816002811115612a4557fe5b1415612a86576040517f08c379a0000000000000000000000000000000000000000000000000000000008152600401612a7d90614039565b60405180910390fd5b848310612ac8576040517f08c379a0000000000000000000000000000000000000000000000000000000008152600401612abf90614379565b60405180910390fd5b848210612b0a576040517f08c379a0000000000000000000000000000000000000000000000000000000008152600401612b0190613ff9565b60405180910390fd5b6001603b60026101000a81548160ff021916908315150217905550612b2e8a612f63565b88603460006101000a81548173ffffffffffffffffffffffffffffffffffffffff021916908373ffffffffffffffffffffffffffffffffffffffff16021790555087603360006101000a81548173ffffffffffffffffffffffffffffffffffffffff021916908373ffffffffffffffffffffffffffffffffffffffff160217905550866035819055508560368190555084603781905550836038819055508260398190555081603a8190555080603b60006101000a81548160ff02191690836002811115612bf857fe5b021790555050505050505050505050565b600073ffffffffffffffffffffffffffffffffffffffff168173ffffffffffffffffffffffffffffffffffffffff161415612c79576040517f08c379a0000000000000000000000000000000000000000000000000000000008152600401612c7090614339565b60405180910390fd5b612c8281613001565b612cc1576040517f08c379a0000000000000000000000000000000000000000000000000000000008152600401612cb8906141b9565b60405180910390fd5b6000603e60009054906101000a900473ffffffffffffffffffffffffffffffffffffffff16905081603e60006101000a81548173ffffffffffffffffffffffffffffffffffffffff021916908373ffffffffffffffffffffffffffffffffffffffff1602179055508173ffffffffffffffffffffffffffffffffffffffff168173ffffffffffffffffffffffffffffffffffffffff167fdac3632743b879638fd2d51c4d3c1dd796615b4758a55b50b0c19b971ba9fbc760405160405180910390a35050565b606082471015612dcc576040517f08c379a0000000000000000000000000000000000000000000000000000000008152600401612dc390614119565b60405180910390fd5b612dd585613001565b612e14576040517f08c379a0000000000000000000000000000000000000000000000000000000008152600401612e0b906142b9565b60405180910390fd5b600060608673ffffffffffffffffffffffffffffffffffffffff168587604051612e3e9190613e8c565b60006040518083038185875af1925050503d8060008114612e7b576040519150601f19603f3d011682016040523d82523d6000602084013e612e80565b606091505b5091509150612e90828286613014565b92505050949350505050565b6060612efe826040518060400160405280602081526020017f5361666545524332303a206c6f772d6c6576656c2063616c6c206661696c65648152508573ffffffffffffffffffffffffffffffffffffffff166125489092919063ffffffff16565b9050600081511115612f5e5780806020019051810190612f1e91906132ff565b612f5d576040517f08c379a0000000000000000000000000000000000000000000000000000000008152600401612f5490614399565b60405180910390fd5b5b505050565b806000806101000a81548173ffffffffffffffffffffffffffffffffffffffff021916908373ffffffffffffffffffffffffffffffffffffffff1602179055508073ffffffffffffffffffffffffffffffffffffffff16600073ffffffffffffffffffffffffffffffffffffffff167f8be0079c531659141344cd1fd0a4f28419497f9722a3daafe3b4186f6b6457e060405160405180910390a350565b600080823b905060008111915050919050565b6060831561302457829050613074565b6000835111156130375782518084602001fd5b816040517f08c379a000000000000000000000000000000000000000000000000000000000815260040161306b9190613f97565b60405180910390fd5b9392505050565b60008135905061308a81614630565b92915050565b60008151905061309f81614630565b92915050565b600082601f8301126130b657600080fd5b81516130c96130c482614485565b614454565b915081818352602084019350602081019050838560208402820111156130ee57600080fd5b60005b8381101561311e57816131048882613090565b8452602084019350602083019250506001810190506130f1565b5050505092915050565b60008151905061313781614647565b92915050565b60008135905061314c8161465e565b92915050565b6000813590506131618161466e565b92915050565b6000815190506131768161466e565b92915050565b60006020828403121561318e57600080fd5b600061319c8482850161307b565b91505092915050565b6000602082840312156131b757600080fd5b60006131c584828501613090565b91505092915050565b60008060008060008060008060008060006101608c8e0312156131f057600080fd5b60006131fe8e828f0161307b565b9b5050602061320f8e828f0161307b565b9a505060406132208e828f0161307b565b99505060606132318e828f0161307b565b98505060806132428e828f01613152565b97505060a06132538e828f01613152565b96505060c06132648e828f01613152565b95505060e06132758e828f01613152565b9450506101006132878e828f01613152565b9350506101206132998e828f01613152565b9250506101406132ab8e828f0161313d565b9150509295989b509295989b9093969950565b6000602082840312156132d057600080fd5b600082015167ffffffffffffffff8111156132ea57600080fd5b6132f6848285016130a5565b91505092915050565b60006020828403121561331157600080fd5b600061331f84828501613128565b91505092915050565b60006020828403121561333a57600080fd5b600061334884828501613152565b91505092915050565b60006020828403121561336357600080fd5b600061337184828501613167565b91505092915050565b613383816144e3565b82525050565b613392816144f5565b82525050565b6133a181614501565b82525050565b60006133b2826144b1565b6133bc81856144c7565b93506133cc8185602086016145d6565b80840191505092915050565b6133e18161456a565b82525050565b6133f08161458e565b82525050565b6133ff816145b2565b82525050565b61340e816145c4565b82525050565b600061341f826144bc565b61342981856144d2565b93506134398185602086016145d6565b6134428161460b565b840191505092915050565b600061345a6008836144d2565b91507f4261642063616c6c0000000000000000000000000000000000000000000000006000830152602082019050919050565b600061349a601b836144d2565b91507f455448207472616e7366657273206e6f7420737570706f7274656400000000006000830152602082019050919050565b60006134da6022836144d2565b91507f436c6966662074696d65206d757374206265206265666f726520656e6420746960008301527f6d650000000000000000000000000000000000000000000000000000000000006020830152604082019050919050565b60006135406015836144d2565b91507f53746172742074696d65203e20656e642074696d6500000000000000000000006000830152602082019050919050565b6000613580601e836144d2565b91507f4d757374207365742061207265766f636162696c697479206f7074696f6e00006000830152602082019050919050565b60006135c06026836144d2565b91507f4f776e61626c653a206e6577206f776e657220697320746865207a65726f206160008301527f64647265737300000000000000000000000000000000000000000000000000006020830152604082019050919050565b6000613626601b836144d2565b91507f536166654d6174683a206164646974696f6e206f766572666c6f7700000000006000830152602082019050919050565b6000613666601c836144d2565b91507f4e6f20617661696c61626c6520756e76657374656420616d6f756e74000000006000830152602082019050919050565b60006136a66014836144d2565b91507f4f776e65722063616e6e6f74206265207a65726f0000000000000000000000006000830152602082019050919050565b60006136e6601f836144d2565b91507f43616e6e6f742063616e63656c20616363657074656420636f6e7472616374006000830152602082019050919050565b6000613726601e836144d2565b91507f536166654d6174683a207375627472616374696f6e206f766572666c6f7700006000830152602082019050919050565b60006137666026836144d2565b91507f416464726573733a20696e73756666696369656e742062616c616e636520666f60008301527f722063616c6c00000000000000000000000000000000000000000000000000006020830152604082019050919050565b60006137cc601d836144d2565b91507f4d616e6167656420746f6b656e732063616e6e6f74206265207a65726f0000006000830152602082019050919050565b600061380c601a836144d2565b91507f536166654d6174683a206469766973696f6e206279207a65726f0000000000006000830152602082019050919050565b600061384c6011836144d2565b91507f456d7074792062656e65666963696172790000000000000000000000000000006000830152602082019050919050565b600061388c6013836144d2565b91507f556e617574686f72697a65642063616c6c6572000000000000000000000000006000830152602082019050919050565b60006138cc601a836144d2565b91507f4d616e61676572206d757374206265206120636f6e74726163740000000000006000830152602082019050919050565b600061390c6015836144d2565b91507f416d6f756e742063616e6e6f74206265207a65726f00000000000000000000006000830152602082019050919050565b600061394c6029836144d2565b91507f43616e6e6f7420757365206d6f726520746f6b656e73207468616e207665737460008301527f656420616d6f756e7400000000000000000000000000000000000000000000006020830152604082019050919050565b60006139b2601f836144d2565b91507f506572696f64732063616e6e6f742062652062656c6f77206d696e696d756d006000830152602082019050919050565b60006139f26021836144d2565b91507f536166654d6174683a206d756c7469706c69636174696f6e206f766572666c6f60008301527f77000000000000000000000000000000000000000000000000000000000000006020830152604082019050919050565b6000613a586020836144d2565b91507f4f776e61626c653a2063616c6c6572206973206e6f7420746865206f776e65726000830152602082019050919050565b6000613a986016836144d2565b91507f53746172742074696d65206d75737420626520736574000000000000000000006000830152602082019050919050565b6000613ad86015836144d2565b91507f556e617574686f72697a65642066756e6374696f6e00000000000000000000006000830152602082019050919050565b6000613b18601d836144d2565b91507f416464726573733a2063616c6c20746f206e6f6e2d636f6e74726163740000006000830152602082019050919050565b6000613b586024836144d2565b91507f416d6f756e7420726571756573746564203e20737572706c757320617661696c60008301527f61626c65000000000000000000000000000000000000000000000000000000006020830152604082019050919050565b6000613bbe6013836144d2565b91507f416c726561647920696e697469616c697a6564000000000000000000000000006000830152602082019050919050565b6000613bfe6019836144d2565b91507f436f6e7472616374206973206e6f6e2d7265766f6361626c65000000000000006000830152602082019050919050565b6000613c3e6017836144d2565b91507f4d616e616765722063616e6e6f7420626520656d7074790000000000000000006000830152602082019050919050565b6000613c7e6005836144d2565b91507f21617574680000000000000000000000000000000000000000000000000000006000830152602082019050919050565b6000613cbe602a836144d2565b91507f52656c656173652073746172742074696d65206d757374206265206265666f7260008301527f6520656e642074696d65000000000000000000000000000000000000000000006020830152604082019050919050565b6000613d24602a836144d2565b91507f5361666545524332303a204552433230206f7065726174696f6e20646964206e60008301527f6f742073756363656564000000000000000000000000000000000000000000006020830152604082019050919050565b6000613d8a601e836144d2565b91507f4e6f20617661696c61626c652072656c65617361626c6520616d6f756e7400006000830152602082019050919050565b6000613dca6014836144d2565b91507f546f6b656e2063616e6e6f74206265207a65726f0000000000000000000000006000830152602082019050919050565b6000613e0a601a836144d2565b91507f42656e65666963696172792063616e6e6f74206265207a65726f0000000000006000830152602082019050919050565b6000613e4a600f836144d2565b91507f416c7265616479207265766f6b656400000000000000000000000000000000006000830152602082019050919050565b613e8681614560565b82525050565b6000613e9882846133a7565b915081905092915050565b6000602082019050613eb8600083018461337a565b92915050565b6000604082019050613ed3600083018561337a565b613ee06020830184613405565b9392505050565b6000604082019050613efc600083018561337a565b613f096020830184613e7d565b9392505050565b6000602082019050613f256000830184613389565b92915050565b6000602082019050613f406000830184613398565b92915050565b6000602082019050613f5b60008301846133d8565b92915050565b6000602082019050613f7660008301846133e7565b92915050565b6000602082019050613f9160008301846133f6565b92915050565b60006020820190508181036000830152613fb18184613414565b905092915050565b60006020820190508181036000830152613fd28161344d565b9050919050565b60006020820190508181036000830152613ff28161348d565b9050919050565b60006020820190508181036000830152614012816134cd565b9050919050565b6000602082019050818103600083015261403281613533565b9050919050565b6000602082019050818103600083015261405281613573565b9050919050565b60006020820190508181036000830152614072816135b3565b9050919050565b6000602082019050818103600083015261409281613619565b9050919050565b600060208201905081810360008301526140b281613659565b9050919050565b600060208201905081810360008301526140d281613699565b9050919050565b600060208201905081810360008301526140f2816136d9565b9050919050565b6000602082019050818103600083015261411281613719565b9050919050565b6000602082019050818103600083015261413281613759565b9050919050565b60006020820190508181036000830152614152816137bf565b9050919050565b60006020820190508181036000830152614172816137ff565b9050919050565b600060208201905081810360008301526141928161383f565b9050919050565b600060208201905081810360008301526141b28161387f565b9050919050565b600060208201905081810360008301526141d2816138bf565b9050919050565b600060208201905081810360008301526141f2816138ff565b9050919050565b600060208201905081810360008301526142128161393f565b9050919050565b60006020820190508181036000830152614232816139a5565b9050919050565b60006020820190508181036000830152614252816139e5565b9050919050565b6000602082019050818103600083015261427281613a4b565b9050919050565b6000602082019050818103600083015261429281613a8b565b9050919050565b600060208201905081810360008301526142b281613acb565b9050919050565b600060208201905081810360008301526142d281613b0b565b9050919050565b600060208201905081810360008301526142f281613b4b565b9050919050565b6000602082019050818103600083015261431281613bb1565b9050919050565b6000602082019050818103600083015261433281613bf1565b9050919050565b6000602082019050818103600083015261435281613c31565b9050919050565b6000602082019050818103600083015261437281613c71565b9050919050565b6000602082019050818103600083015261439281613cb1565b9050919050565b600060208201905081810360008301526143b281613d17565b9050919050565b600060208201905081810360008301526143d281613d7d565b9050919050565b600060208201905081810360008301526143f281613dbd565b9050919050565b6000602082019050818103600083015261441281613dfd565b9050919050565b6000602082019050818103600083015261443281613e3d565b9050919050565b600060208201905061444e6000830184613e7d565b92915050565b6000604051905081810181811067ffffffffffffffff8211171561447b5761447a614609565b5b8060405250919050565b600067ffffffffffffffff8211156144a05761449f614609565b5b602082029050602081019050919050565b600081519050919050565b600081519050919050565b600081905092915050565b600082825260208201905092915050565b60006144ee82614540565b9050919050565b60008115159050919050565b60007fffffffff0000000000000000000000000000000000000000000000000000000082169050919050565b600081905061453b8261461c565b919050565b600073ffffffffffffffffffffffffffffffffffffffff82169050919050565b6000819050919050565b60006145758261457c565b9050919050565b600061458782614540565b9050919050565b6000614599826145a0565b9050919050565b60006145ab82614540565b9050919050565b60006145bd8261452d565b9050919050565b60006145cf82614560565b9050919050565b60005b838110156145f45780820151818401526020810190506145d9565b83811115614603576000848401525b50505050565bfe5b6000601f19601f8301169050919050565b6003811061462d5761462c614609565b5b50565b614639816144e3565b811461464457600080fd5b50565b614650816144f5565b811461465b57600080fd5b50565b6003811061466b57600080fd5b50565b61467781614560565b811461468257600080fd5b5056fea264697066735822122013f3b022e354ddf49f7a28727f309f858a5cbdf70833a2e54da3c1a482b7073164736f6c63430007030033",
  "devdoc": {
    "kind": "dev",
    "methods": {
      "acceptLock()": {
        "details": "Can only be called by the beneficiary"
      },
      "amountPerPeriod()": {
        "returns": {
          "_0": "Amount of tokens available after each period"
        }
      },
      "approveProtocol()": {
        "details": "Approves all token destinations registered in the manager to pull tokens"
      },
      "availableAmount()": {
        "details": "Implements the step-by-step schedule based on periods for available tokens",
        "returns": {
          "_0": "Amount of tokens available according to the schedule"
        }
      },
      "cancelLock()": {
        "details": "Can only be called by the owner"
      },
      "changeBeneficiary(address)": {
        "details": "Can only be called by the beneficiary",
        "params": {
          "_newBeneficiary": "Address of the new beneficiary address"
        }
      },
      "currentBalance()": {
        "returns": {
          "_0": "Tokens held in the contract"
        }
      },
      "currentPeriod()": {
        "returns": {
          "_0": "A number that represents the current period"
        }
      },
      "currentTime()": {
        "returns": {
          "_0": "Current block timestamp"
        }
      },
      "duration()": {
        "returns": {
          "_0": "Amount of seconds from contract startTime to endTime"
        }
      },
      "owner()": {
        "details": "Returns the address of the current owner."
      },
      "passedPeriods()": {
        "returns": {
          "_0": "A number of periods that passed since the schedule started"
        }
      },
      "periodDuration()": {
        "returns": {
          "_0": "Duration of each period in seconds"
        }
      },
      "releasableAmount()": {
        "details": "Considers the schedule, takes into account already released tokens and used amount",
        "returns": {
          "_0": "Amount of tokens ready to be released"
        }
      },
      "release()": {
        "details": "All available releasable tokens are transferred to beneficiary"
      },
      "renounceOwnership()": {
        "details": "Leaves the contract without owner. It will not be possible to call `onlyOwner` functions anymore. Can only be called by the current owner. NOTE: Renouncing ownership will leave the contract without an owner, thereby removing any functionality that is only available to the owner."
      },
      "revoke()": {
        "details": "Vesting schedule is always calculated based on managed tokens"
      },
      "revokeProtocol()": {
        "details": "Revokes approval to all token destinations in the manager to pull tokens"
      },
      "setManager(address)": {
        "params": {
          "_newManager": "Address of the new manager"
        }
      },
      "sinceStartTime()": {
        "details": "Returns zero if called before conctract starTime",
        "returns": {
          "_0": "Seconds elapsed from contract startTime"
        }
      },
      "surplusAmount()": {
        "details": "All funds over outstanding amount is considered surplus that can be withdrawn by beneficiary. Note this might not be the correct value for wallets transferred to L2 (i.e. an L2GraphTokenLockWallet), as the released amount will be skewed, so the beneficiary might have to bridge back to L1 to release the surplus.",
        "returns": {
          "_0": "Amount of tokens considered as surplus"
        }
      },
      "totalOutstandingAmount()": {
        "details": "Does not consider schedule but just global amounts tracked",
        "returns": {
          "_0": "Amount of outstanding tokens for the lifetime of the contract"
        }
      },
      "transferOwnership(address)": {
        "details": "Transfers ownership of the contract to a new account (`newOwner`). Can only be called by the current owner."
      },
      "vestedAmount()": {
        "details": "Similar to available amount, but is fully vested when contract is non-revocable",
        "returns": {
          "_0": "Amount of tokens already vested"
        }
      },
      "withdrawSurplus(uint256)": {
        "details": "Tokens in the contract over outstanding amount are considered as surplus",
        "params": {
          "_amount": "Amount of tokens to withdraw"
        }
      }
    },
    "title": "GraphTokenLockWallet",
    "version": 1
  },
  "userdoc": {
    "kind": "user",
    "methods": {
      "acceptLock()": {
        "notice": "Beneficiary accepts the lock, the owner cannot retrieve back the tokens"
      },
      "amountPerPeriod()": {
        "notice": "Returns amount available to be released after each period according to schedule"
      },
      "approveProtocol()": {
        "notice": "Approves protocol access of the tokens managed by this contract"
      },
      "availableAmount()": {
        "notice": "Gets the currently available token according to the schedule"
      },
      "cancelLock()": {
        "notice": "Owner cancel the lock and return the balance in the contract"
      },
      "changeBeneficiary(address)": {
        "notice": "Change the beneficiary of funds managed by the contract"
      },
      "currentBalance()": {
        "notice": "Returns the amount of tokens currently held by the contract"
      },
      "currentPeriod()": {
        "notice": "Gets the current period based on the schedule"
      },
      "currentTime()": {
        "notice": "Returns the current block timestamp"
      },
      "duration()": {
        "notice": "Gets duration of contract from start to end in seconds"
      },
      "passedPeriods()": {
        "notice": "Gets the number of periods that passed since the first period"
      },
      "periodDuration()": {
        "notice": "Returns the duration of each period in seconds"
      },
      "releasableAmount()": {
        "notice": "Gets tokens currently available for release"
      },
      "release()": {
        "notice": "Releases tokens based on the configured schedule"
      },
      "revoke()": {
        "notice": "Revokes a vesting schedule and return the unvested tokens to the owner"
      },
      "revokeProtocol()": {
        "notice": "Revokes protocol access of the tokens managed by this contract"
      },
      "setManager(address)": {
        "notice": "Sets a new manager for this contract"
      },
      "sinceStartTime()": {
        "notice": "Gets time elapsed since the start of the contract"
      },
      "surplusAmount()": {
        "notice": "Gets surplus amount in the contract based on outstanding amount to release"
      },
      "totalOutstandingAmount()": {
        "notice": "Gets the outstanding amount yet to be released based on the whole contract lifetime"
      },
      "vestedAmount()": {
        "notice": "Gets the amount of currently vested tokens"
      },
      "withdrawSurplus(uint256)": {
        "notice": "Withdraws surplus, unmanaged tokens from the contract"
      }
    },
    "notice": "This contract is built on top of the base GraphTokenLock functionality. It allows wallet beneficiaries to use the deposited funds to perform specific function calls on specific contracts. The idea is that supporters with locked tokens can participate in the protocol but disallow any release before the vesting/lock schedule. The beneficiary can issue authorized function calls to this contract that will get forwarded to a target contract. A target contract is any of our protocol contracts. The function calls allowed are queried to the GraphTokenLockManager, this way the same configuration can be shared for all the created lock wallet contracts. NOTE: Contracts used as target must have its function signatures checked to avoid collisions with any of this contract functions. Beneficiaries need to approve the use of the tokens to the protocol contracts. For convenience the maximum amount of tokens is authorized. Function calls do not forward ETH value so DO NOT SEND ETH TO THIS CONTRACT.",
    "version": 1
  },
  "storageLayout": {
    "storage": [
      {
        "astId": 6797,
        "contract": "contracts/GraphTokenLockWallet.sol:GraphTokenLockWallet",
        "label": "_owner",
        "offset": 0,
        "slot": "0",
        "type": "t_address"
      },
      {
        "astId": 6802,
        "contract": "contracts/GraphTokenLockWallet.sol:GraphTokenLockWallet",
        "label": "__gap",
        "offset": 0,
        "slot": "1",
        "type": "t_array(t_uint256)50_storage"
      },
      {
        "astId": 3244,
        "contract": "contracts/GraphTokenLockWallet.sol:GraphTokenLockWallet",
        "label": "token",
        "offset": 0,
        "slot": "51",
        "type": "t_contract(IERC20)1710"
      },
      {
        "astId": 3246,
        "contract": "contracts/GraphTokenLockWallet.sol:GraphTokenLockWallet",
        "label": "beneficiary",
        "offset": 0,
        "slot": "52",
        "type": "t_address"
      },
      {
        "astId": 3248,
        "contract": "contracts/GraphTokenLockWallet.sol:GraphTokenLockWallet",
        "label": "managedAmount",
        "offset": 0,
        "slot": "53",
        "type": "t_uint256"
      },
      {
        "astId": 3250,
        "contract": "contracts/GraphTokenLockWallet.sol:GraphTokenLockWallet",
        "label": "startTime",
        "offset": 0,
        "slot": "54",
        "type": "t_uint256"
      },
      {
        "astId": 3252,
        "contract": "contracts/GraphTokenLockWallet.sol:GraphTokenLockWallet",
        "label": "endTime",
        "offset": 0,
        "slot": "55",
        "type": "t_uint256"
      },
      {
        "astId": 3254,
        "contract": "contracts/GraphTokenLockWallet.sol:GraphTokenLockWallet",
        "label": "periods",
        "offset": 0,
        "slot": "56",
        "type": "t_uint256"
      },
      {
        "astId": 3256,
        "contract": "contracts/GraphTokenLockWallet.sol:GraphTokenLockWallet",
        "label": "releaseStartTime",
        "offset": 0,
        "slot": "57",
        "type": "t_uint256"
      },
      {
        "astId": 3258,
        "contract": "contracts/GraphTokenLockWallet.sol:GraphTokenLockWallet",
        "label": "vestingCliffTime",
        "offset": 0,
        "slot": "58",
        "type": "t_uint256"
      },
      {
        "astId": 3260,
        "contract": "contracts/GraphTokenLockWallet.sol:GraphTokenLockWallet",
        "label": "revocable",
        "offset": 0,
        "slot": "59",
        "type": "t_enum(Revocability)5096"
      },
      {
        "astId": 3262,
        "contract": "contracts/GraphTokenLockWallet.sol:GraphTokenLockWallet",
        "label": "isRevoked",
        "offset": 1,
        "slot": "59",
        "type": "t_bool"
      },
      {
        "astId": 3264,
        "contract": "contracts/GraphTokenLockWallet.sol:GraphTokenLockWallet",
        "label": "isInitialized",
        "offset": 2,
        "slot": "59",
        "type": "t_bool"
      },
      {
        "astId": 3266,
        "contract": "contracts/GraphTokenLockWallet.sol:GraphTokenLockWallet",
        "label": "isAccepted",
        "offset": 3,
        "slot": "59",
        "type": "t_bool"
      },
      {
        "astId": 3268,
        "contract": "contracts/GraphTokenLockWallet.sol:GraphTokenLockWallet",
        "label": "releasedAmount",
        "offset": 0,
        "slot": "60",
        "type": "t_uint256"
      },
      {
        "astId": 3270,
        "contract": "contracts/GraphTokenLockWallet.sol:GraphTokenLockWallet",
        "label": "revokedAmount",
        "offset": 0,
        "slot": "61",
        "type": "t_uint256"
      },
      {
        "astId": 4692,
        "contract": "contracts/GraphTokenLockWallet.sol:GraphTokenLockWallet",
        "label": "manager",
        "offset": 0,
        "slot": "62",
        "type": "t_contract(IGraphTokenLockManager)5278"
      },
      {
        "astId": 4694,
        "contract": "contracts/GraphTokenLockWallet.sol:GraphTokenLockWallet",
        "label": "usedAmount",
        "offset": 0,
        "slot": "63",
        "type": "t_uint256"
      }
    ],
    "types": {
      "t_address": {
        "encoding": "inplace",
        "label": "address",
        "numberOfBytes": "20"
      },
      "t_array(t_uint256)50_storage": {
        "base": "t_uint256",
        "encoding": "inplace",
        "label": "uint256[50]",
        "numberOfBytes": "1600"
      },
      "t_bool": {
        "encoding": "inplace",
        "label": "bool",
        "numberOfBytes": "1"
      },
      "t_contract(IERC20)1710": {
        "encoding": "inplace",
        "label": "contract IERC20",
        "numberOfBytes": "20"
      },
      "t_contract(IGraphTokenLockManager)5278": {
        "encoding": "inplace",
        "label": "contract IGraphTokenLockManager",
        "numberOfBytes": "20"
      },
      "t_enum(Revocability)5096": {
        "encoding": "inplace",
        "label": "enum IGraphTokenLock.Revocability",
        "numberOfBytes": "1"
      },
      "t_uint256": {
        "encoding": "inplace",
        "label": "uint256",
        "numberOfBytes": "32"
      }
    }
  }
}