{
  "address": "0x63E25D0319970253B003464b4008A8238B6FC02c",
  "abi": [
    {
      "inputs": [
        {
          "internalType": "contract IERC20",
          "name": "_graphToken",
          "type": "address"
        },
        {
          "internalType": "address",
          "name": "_masterCopy",
          "type": "address"
        },
        {
          "internalType": "address",
          "name": "_l2Gateway",
          "type": "address"
        },
        {
          "internalType": "address",
          "name": "_l1TransferTool",
          "type": "address"
        }
      ],
      "stateMutability": "nonpayable",
      "type": "constructor"
    },
    {
      "anonymous": false,
      "inputs": [
        {
          "indexed": true,
          "internalType": "address",
          "name": "caller",
          "type": "address"
        },
        {
          "indexed": true,
          "internalType": "bytes4",
          "name": "sigHash",
          "type": "bytes4"
        },
        {
          "indexed": true,
          "internalType": "address",
          "name": "target",
          "type": "address"
        },
        {
          "indexed": false,
          "internalType": "string",
          "name": "signature",
          "type": "string"
        }
      ],
      "name": "FunctionCallAuth",
      "type": "event"
    },
    {
      "anonymous": false,
      "inputs": [
        {
          "indexed": true,
          "internalType": "address",
          "name": "l1Address",
          "type": "address"
        },
        {
          "indexed": true,
          "internalType": "address",
          "name": "l2Address",
          "type": "address"
        },
        {
          "indexed": false,
          "internalType": "uint256",
          "name": "amount",
          "type": "uint256"
        }
      ],
      "name": "LockedTokensReceivedFromL1",
      "type": "event"
    },
    {
      "anonymous": false,
      "inputs": [
        {
          "indexed": true,
          "internalType": "address",
          "name": "masterCopy",
          "type": "address"
        }
      ],
      "name": "MasterCopyUpdated",
      "type": "event"
    },
    {
      "anonymous": false,
      "inputs": [
        {
          "indexed": true,
          "internalType": "address",
          "name": "previousOwner",
          "type": "address"
        },
        {
          "indexed": true,
          "internalType": "address",
          "name": "newOwner",
          "type": "address"
        }
      ],
      "name": "OwnershipTransferred",
      "type": "event"
    },
    {
      "anonymous": false,
      "inputs": [
        {
          "indexed": true,
          "internalType": "address",
          "name": "proxy",
          "type": "address"
        }
      ],
      "name": "ProxyCreated",
      "type": "event"
    },
    {
      "anonymous": false,
      "inputs": [
        {
          "indexed": true,
          "internalType": "address",
          "name": "dst",
          "type": "address"
        },
        {
          "indexed": false,
          "internalType": "bool",
          "name": "allowed",
          "type": "bool"
        }
      ],
      "name": "TokenDestinationAllowed",
      "type": "event"
    },
    {
      "anonymous": false,
      "inputs": [
        {
          "indexed": true,
          "internalType": "address",
          "name": "contractAddress",
          "type": "address"
        },
        {
          "indexed": true,
          "internalType": "bytes32",
          "name": "initHash",
          "type": "bytes32"
        },
        {
          "indexed": true,
          "internalType": "address",
          "name": "beneficiary",
          "type": "address"
        },
        {
          "indexed": false,
          "internalType": "address",
          "name": "token",
          "type": "address"
        },
        {
          "indexed": false,
          "internalType": "uint256",
          "name": "managedAmount",
          "type": "uint256"
        },
        {
          "indexed": false,
          "internalType": "uint256",
          "name": "startTime",
          "type": "uint256"
        },
        {
          "indexed": false,
          "internalType": "uint256",
          "name": "endTime",
          "type": "uint256"
        },
        {
          "indexed": false,
          "internalType": "uint256",
          "name": "periods",
          "type": "uint256"
        },
        {
          "indexed": false,
          "internalType": "uint256",
          "name": "releaseStartTime",
          "type": "uint256"
        },
        {
          "indexed": false,
          "internalType": "uint256",
          "name": "vestingCliffTime",
          "type": "uint256"
        },
        {
          "indexed": false,
          "internalType": "enum IGraphTokenLock.Revocability",
          "name": "revocable",
          "type": "uint8"
        }
      ],
      "name": "TokenLockCreated",
      "type": "event"
    },
    {
      "anonymous": false,
      "inputs": [
        {
          "indexed": true,
          "internalType": "address",
          "name": "contractAddress",
          "type": "address"
        },
        {
          "indexed": false,
          "internalType": "bytes32",
          "name": "initHash",
          "type": "bytes32"
        },
        {
          "indexed": true,
          "internalType": "address",
          "name": "beneficiary",
          "type": "address"
        },
        {
          "indexed": false,
          "internalType": "uint256",
          "name": "managedAmount",
          "type": "uint256"
        },
        {
          "indexed": false,
          "internalType": "uint256",
          "name": "startTime",
          "type": "uint256"
        },
        {
          "indexed": false,
          "internalType": "uint256",
          "name": "endTime",
          "type": "uint256"
        },
        {
          "indexed": true,
          "internalType": "address",
          "name": "l1Address",
          "type": "address"
        }
      ],
      "name": "TokenLockCreatedFromL1",
      "type": "event"
    },
    {
      "anonymous": false,
      "inputs": [
        {
          "indexed": true,
          "internalType": "address",
          "name": "sender",
          "type": "address"
        },
        {
          "indexed": false,
          "internalType": "uint256",
          "name": "amount",
          "type": "uint256"
        }
      ],
      "name": "TokensDeposited",
      "type": "event"
    },
    {
      "anonymous": false,
      "inputs": [
        {
          "indexed": true,
          "internalType": "address",
          "name": "sender",
          "type": "address"
        },
        {
          "indexed": false,
          "internalType": "uint256",
          "name": "amount",
          "type": "uint256"
        }
      ],
      "name": "TokensWithdrawn",
      "type": "event"
    },
    {
      "inputs": [
        {
          "internalType": "address",
          "name": "_dst",
          "type": "address"
        }
      ],
      "name": "addTokenDestination",
      "outputs": [],
      "stateMutability": "nonpayable",
      "type": "function"
    },
    {
      "inputs": [
        {
          "internalType": "bytes4",
          "name": "",
          "type": "bytes4"
        }
      ],
      "name": "authFnCalls",
      "outputs": [
        {
          "internalType": "address",
          "name": "",
          "type": "address"
        }
      ],
      "stateMutability": "view",
      "type": "function"
    },
    {
      "inputs": [
        {
          "internalType": "address",
          "name": "_owner",
          "type": "address"
        },
        {
          "internalType": "address",
          "name": "_beneficiary",
          "type": "address"
        },
        {
          "internalType": "uint256",
          "name": "_managedAmount",
          "type": "uint256"
        },
        {
          "internalType": "uint256",
          "name": "_startTime",
          "type": "uint256"
        },
        {
          "internalType": "uint256",
          "name": "_endTime",
          "type": "uint256"
        },
        {
          "internalType": "uint256",
          "name": "_periods",
          "type": "uint256"
        },
        {
          "internalType": "uint256",
          "name": "_releaseStartTime",
          "type": "uint256"
        },
        {
          "internalType": "uint256",
          "name": "_vestingCliffTime",
          "type": "uint256"
        },
        {
          "internalType": "enum IGraphTokenLock.Revocability",
          "name": "_revocable",
          "type": "uint8"
        }
      ],
      "name": "createTokenLockWallet",
      "outputs": [],
      "stateMutability": "nonpayable",
      "type": "function"
    },
    {
      "inputs": [
        {
          "internalType": "uint256",
          "name": "_amount",
          "type": "uint256"
        }
      ],
      "name": "deposit",
      "outputs": [],
      "stateMutability": "nonpayable",
      "type": "function"
    },
    {
      "inputs": [
        {
          "internalType": "bytes4",
          "name": "_sigHash",
          "type": "bytes4"
        }
      ],
      "name": "getAuthFunctionCallTarget",
      "outputs": [
        {
          "internalType": "address",
          "name": "",
          "type": "address"
        }
      ],
      "stateMutability": "view",
      "type": "function"
    },
    {
      "inputs": [
        {
          "internalType": "bytes32",
          "name": "_salt",
          "type": "bytes32"
        },
        {
          "internalType": "address",
          "name": "_implementation",
          "type": "address"
        },
        {
          "internalType": "address",
          "name": "_deployer",
          "type": "address"
        }
      ],
      "name": "getDeploymentAddress",
      "outputs": [
        {
          "internalType": "address",
          "name": "",
          "type": "address"
        }
      ],
      "stateMutability": "pure",
      "type": "function"
    },
    {
      "inputs": [
        {
          "internalType": "bytes32",
          "name": "_salt",
          "type": "bytes32"
        },
        {
          "internalType": "address",
          "name": "_implementation",
          "type": "address"
        }
      ],
      "name": "getDeploymentAddress",
      "outputs": [
        {
          "internalType": "address",
          "name": "",
          "type": "address"
        }
      ],
      "stateMutability": "view",
      "type": "function"
    },
    {
      "inputs": [],
      "name": "getTokenDestinations",
      "outputs": [
        {
          "internalType": "address[]",
          "name": "",
          "type": "address[]"
        }
      ],
      "stateMutability": "view",
      "type": "function"
    },
    {
      "inputs": [
        {
          "internalType": "bytes4",
          "name": "_sigHash",
          "type": "bytes4"
        }
      ],
      "name": "isAuthFunctionCall",
      "outputs": [
        {
          "internalType": "bool",
          "name": "",
          "type": "bool"
        }
      ],
      "stateMutability": "view",
      "type": "function"
    },
    {
      "inputs": [
        {
          "internalType": "address",
          "name": "_dst",
          "type": "address"
        }
      ],
      "name": "isTokenDestination",
      "outputs": [
        {
          "internalType": "bool",
          "name": "",
          "type": "bool"
        }
      ],
      "stateMutability": "view",
      "type": "function"
    },
    {
      "inputs": [],
      "name": "l1TransferTool",
      "outputs": [
        {
          "internalType": "address",
          "name": "",
          "type": "address"
        }
      ],
      "stateMutability": "view",
      "type": "function"
    },
    {
      "inputs": [
        {
          "internalType": "address",
          "name": "",
          "type": "address"
        }
      ],
      "name": "l1WalletToL2Wallet",
      "outputs": [
        {
          "internalType": "address",
          "name": "",
          "type": "address"
        }
      ],
      "stateMutability": "view",
      "type": "function"
    },
    {
      "inputs": [],
      "name": "l2Gateway",
      "outputs": [
        {
          "internalType": "address",
          "name": "",
          "type": "address"
        }
      ],
      "stateMutability": "view",
      "type": "function"
    },
    {
      "inputs": [
        {
          "internalType": "address",
          "name": "",
          "type": "address"
        }
      ],
      "name": "l2WalletToL1Wallet",
      "outputs": [
        {
          "internalType": "address",
          "name": "",
          "type": "address"
        }
      ],
      "stateMutability": "view",
      "type": "function"
    },
    {
      "inputs": [],
      "name": "masterCopy",
      "outputs": [
        {
          "internalType": "address",
          "name": "",
          "type": "address"
        }
      ],
      "stateMutability": "view",
      "type": "function"
    },
    {
      "inputs": [
        {
          "internalType": "address",
          "name": "_from",
          "type": "address"
        },
        {
          "internalType": "uint256",
          "name": "_amount",
          "type": "uint256"
        },
        {
          "internalType": "bytes",
          "name": "_data",
          "type": "bytes"
        }
      ],
      "name": "onTokenTransfer",
      "outputs": [],
      "stateMutability": "nonpayable",
      "type": "function"
    },
    {
      "inputs": [],
      "name": "owner",
      "outputs": [
        {
          "internalType": "address",
          "name": "",
          "type": "address"
        }
      ],
      "stateMutability": "view",
      "type": "function"
    },
    {
      "inputs": [
        {
          "internalType": "address",
          "name": "_dst",
          "type": "address"
        }
      ],
      "name": "removeTokenDestination",
      "outputs": [],
      "stateMutability": "nonpayable",
      "type": "function"
    },
    {
      "inputs": [],
      "name": "renounceOwnership",
      "outputs": [],
      "stateMutability": "nonpayable",
      "type": "function"
    },
    {
      "inputs": [
        {
          "internalType": "string",
          "name": "_signature",
          "type": "string"
        },
        {
          "internalType": "address",
          "name": "_target",
          "type": "address"
        }
      ],
      "name": "setAuthFunctionCall",
      "outputs": [],
      "stateMutability": "nonpayable",
      "type": "function"
    },
    {
      "inputs": [
        {
          "internalType": "string[]",
          "name": "_signatures",
          "type": "string[]"
        },
        {
          "internalType": "address[]",
          "name": "_targets",
          "type": "address[]"
        }
      ],
      "name": "setAuthFunctionCallMany",
      "outputs": [],
      "stateMutability": "nonpayable",
      "type": "function"
    },
    {
      "inputs": [
        {
          "internalType": "address",
          "name": "_masterCopy",
          "type": "address"
        }
      ],
      "name": "setMasterCopy",
      "outputs": [],
      "stateMutability": "nonpayable",
      "type": "function"
    },
    {
      "inputs": [],
      "name": "token",
      "outputs": [
        {
          "internalType": "contract IERC20",
          "name": "",
          "type": "address"
        }
      ],
      "stateMutability": "view",
      "type": "function"
    },
    {
      "inputs": [
        {
          "internalType": "address",
          "name": "newOwner",
          "type": "address"
        }
      ],
      "name": "transferOwnership",
      "outputs": [],
      "stateMutability": "nonpayable",
      "type": "function"
    },
    {
      "inputs": [
        {
          "internalType": "string",
          "name": "_signature",
          "type": "string"
        }
      ],
      "name": "unsetAuthFunctionCall",
      "outputs": [],
      "stateMutability": "nonpayable",
      "type": "function"
    },
    {
      "inputs": [
        {
          "internalType": "uint256",
          "name": "_amount",
          "type": "uint256"
        }
      ],
      "name": "withdraw",
      "outputs": [],
      "stateMutability": "nonpayable",
      "type": "function"
    }
  ],
  "transactionHash": "0x898911d0d648301e5f07e9a17e2f615dc4e9fd02a233bf0a10a46ccbdb052119",
  "args": [
    "0xf8c05dCF59E8B28BFD5eed176C562bEbcfc7Ac04",
    "0x45FfA6DaD9F49C5018E5345eAdf6E2e5C7116F64",
    "0xB24Ce0f8c18c4DdDa584A7EeC132F49C966813bb",
    "0x543F8BFFb65c46091B4eEF4b1c394dFa43C4b065"
  ],
  "solcInputHash": "095bd30babc75057be19228ca1fd7aa4",
  "bytecode": "0x60c06040523480156200001157600080fd5b5060405162004a3538038062004a35833981810160405281019062000037919062000410565b838360006200004b6200022860201b60201c565b9050806000806101000a81548173ffffffffffffffffffffffffffffffffffffffff021916908373ffffffffffffffffffffffffffffffffffffffff1602179055508073ffffffffffffffffffffffffffffffffffffffff16600073ffffffffffffffffffffffffffffffffffffffff167f8be0079c531659141344cd1fd0a4f28419497f9722a3daafe3b4186f6b6457e060405160405180910390a350600073ffffffffffffffffffffffffffffffffffffffff168273ffffffffffffffffffffffffffffffffffffffff1614156200015c576040517f08c379a0000000000000000000000000000000000000000000000000000000008152600401620001539062000586565b60405180910390fd5b81600560006101000a81548173ffffffffffffffffffffffffffffffffffffffff021916908373ffffffffffffffffffffffffffffffffffffffff160217905550620001ae816200023060201b60201c565b50508173ffffffffffffffffffffffffffffffffffffffff1660808173ffffffffffffffffffffffffffffffffffffffff1660601b815250508073ffffffffffffffffffffffffffffffffffffffff1660a08173ffffffffffffffffffffffffffffffffffffffff1660601b815250505050505062000635565b600033905090565b620002406200022860201b60201c565b73ffffffffffffffffffffffffffffffffffffffff1662000266620003b960201b60201c565b73ffffffffffffffffffffffffffffffffffffffff1614620002bf576040517f08c379a0000000000000000000000000000000000000000000000000000000008152600401620002b69062000564565b60405180910390fd5b600073ffffffffffffffffffffffffffffffffffffffff168173ffffffffffffffffffffffffffffffffffffffff16141562000332576040517f08c379a0000000000000000000000000000000000000000000000000000000008152600401620003299062000542565b60405180910390fd5b80600460006101000a81548173ffffffffffffffffffffffffffffffffffffffff021916908373ffffffffffffffffffffffffffffffffffffffff1602179055508073ffffffffffffffffffffffffffffffffffffffff167f30909084afc859121ffc3a5aef7fe37c540a9a1ef60bd4d8dcdb76376fadf9de60405160405180910390a250565b60008060009054906101000a900473ffffffffffffffffffffffffffffffffffffffff16905090565b600081519050620003f38162000601565b92915050565b6000815190506200040a816200061b565b92915050565b600080600080608085870312156200042757600080fd5b60006200043787828801620003f9565b94505060206200044a87828801620003e2565b93505060406200045d87828801620003e2565b92505060606200047087828801620003e2565b91505092959194509250565b60006200048b601983620005a8565b91507f4d6173746572436f70792063616e6e6f74206265207a65726f000000000000006000830152602082019050919050565b6000620004cd602083620005a8565b91507f4f776e61626c653a2063616c6c6572206973206e6f7420746865206f776e65726000830152602082019050919050565b60006200050f601483620005a8565b91507f546f6b656e2063616e6e6f74206265207a65726f0000000000000000000000006000830152602082019050919050565b600060208201905081810360008301526200055d816200047c565b9050919050565b600060208201905081810360008301526200057f81620004be565b9050919050565b60006020820190508181036000830152620005a18162000500565b9050919050565b600082825260208201905092915050565b6000620005c682620005e1565b9050919050565b6000620005da82620005b9565b9050919050565b600073ffffffffffffffffffffffffffffffffffffffff82169050919050565b6200060c81620005b9565b81146200061857600080fd5b50565b6200062681620005cd565b81146200063257600080fd5b50565b60805160601c60a05160601c6143cc620006696000398061096452806112cb525080611014528061123d52506143cc6000f3fe608060405234801561001057600080fd5b506004361061018e5760003560e01c80638da5cb5b116100de578063b6b55f2511610097578063cf497e6c11610071578063cf497e6c1461047f578063f1d24c451461049b578063f2fde38b146104cb578063fc0c546a146104e75761018e565b8063b6b55f2514610417578063bdb62fbe14610433578063c1ab13db146104635761018e565b80638da5cb5b146103675780638fa74a0e146103855780639c05fc60146103a3578063a3457466146103bf578063a4c0ed36146103dd578063a619486e146103f95761018e565b8063463013a21161014b57806368d30c2e1161012557806368d30c2e146102e15780636e03b8dc146102fd578063715018a61461032d57806379ee1bdf146103375761018e565b8063463013a21461028b578063586a5353146102a75780635975e00c146102c55761018e565b806303990a6c14610193578063045b7fe2146101af5780630602ba2b146101df5780630cd6178f1461020f5780632e1a7d4d1461023f57806343fb93d91461025b575b600080fd5b6101ad60048036038101906101a89190612faf565b610505565b005b6101c960048036038101906101c49190612d02565b6106ad565b6040516101d69190613a58565b60405180910390f35b6101f960048036038101906101f49190612f86565b6106e0565b6040516102069190613c56565b60405180910390f35b61022960048036038101906102249190612d02565b610721565b6040516102369190613a58565b60405180910390f35b61025960048036038101906102549190613075565b610754565b005b61027560048036038101906102709190612f37565b6108b1565b6040516102829190613a58565b60405180910390f35b6102a560048036038101906102a09190612ff4565b6108d6565b005b6102af610962565b6040516102bc9190613a58565b60405180910390f35b6102df60048036038101906102da9190612d02565b610986565b005b6102fb60048036038101906102f69190612d2b565b610b17565b005b61031760048036038101906103129190612f86565b610e5f565b6040516103249190613a58565b60405180910390f35b610335610e92565b005b610351600480360381019061034c9190612d02565b610fcc565b60405161035e9190613c56565b60405180910390f35b61036f610fe9565b60405161037c9190613a58565b60405180910390f35b61038d611012565b60405161039a9190613a58565b60405180910390f35b6103bd60048036038101906103b89190612e5d565b611036565b005b6103c7611163565b6040516103d49190613c34565b60405180910390f35b6103f760048036038101906103f29190612df1565b61123b565b005b6104016117a1565b60405161040e9190613a58565b60405180910390f35b610431600480360381019061042c9190613075565b6117c7565b005b61044d60048036038101906104489190612efb565b6118aa565b60405161045a9190613a58565b60405180910390f35b61047d60048036038101906104789190612d02565b6118bf565b005b61049960048036038101906104949190612d02565b6119e0565b005b6104b560048036038101906104b09190612f86565b611b53565b6040516104c29190613a58565b60405180910390f35b6104e560048036038101906104e09190612d02565b611bce565b005b6104ef611d77565b6040516104fc9190613cb6565b60405180910390f35b61050d611da1565b73ffffffffffffffffffffffffffffffffffffffff1661052b610fe9565b73ffffffffffffffffffffffffffffffffffffffff1614610581576040517f08c379a000000000000000000000000000000000000000000000000000000000815260040161057890613ed7565b60405180910390fd5b600061058d8383611da9565b9050600060016000837bffffffffffffffffffffffffffffffffffffffffffffffffffffffff19167bffffffffffffffffffffffffffffffffffffffffffffffffffffffff1916815260200190815260200160002060006101000a81548173ffffffffffffffffffffffffffffffffffffffff021916908373ffffffffffffffffffffffffffffffffffffffff160217905550600073ffffffffffffffffffffffffffffffffffffffff16817bffffffffffffffffffffffffffffffffffffffffffffffffffffffff19163373ffffffffffffffffffffffffffffffffffffffff167f450397a2db0e89eccfe664cc6cdfd274a88bc00d29aaec4d991754a42f19f8c986866040516106a0929190613cd1565b60405180910390a4505050565b60076020528060005260406000206000915054906101000a900473ffffffffffffffffffffffffffffffffffffffff1681565b60008073ffffffffffffffffffffffffffffffffffffffff1661070283611b53565b73ffffffffffffffffffffffffffffffffffffffff1614159050919050565b60066020528060005260406000206000915054906101000a900473ffffffffffffffffffffffffffffffffffffffff1681565b61075c611da1565b73ffffffffffffffffffffffffffffffffffffffff1661077a610fe9565b73ffffffffffffffffffffffffffffffffffffffff16146107d0576040517f08c379a00000000000000000000000000000000000000000000000000000000081526004016107c790613ed7565b60405180910390fd5b60008111610813576040517f08c379a000000000000000000000000000000000000000000000000000000000815260040161080a90613eb7565b60405180910390fd5b6108603382600560009054906101000a900473ffffffffffffffffffffffffffffffffffffffff1673ffffffffffffffffffffffffffffffffffffffff16611e379092919063ffffffff16565b3373ffffffffffffffffffffffffffffffffffffffff167f6352c5382c4a4578e712449ca65e83cdb392d045dfcf1cad9615189db2da244b826040516108a69190613fb7565b60405180910390a250565b60006108cd846108c085611ebd565b8051906020012084611f33565b90509392505050565b6108de611da1565b73ffffffffffffffffffffffffffffffffffffffff166108fc610fe9565b73ffffffffffffffffffffffffffffffffffffffff1614610952576040517f08c379a000000000000000000000000000000000000000000000000000000000815260040161094990613ed7565b60405180910390fd5b61095d838383611f77565b505050565b7f000000000000000000000000000000000000000000000000000000000000000081565b61098e611da1565b73ffffffffffffffffffffffffffffffffffffffff166109ac610fe9565b73ffffffffffffffffffffffffffffffffffffffff1614610a02576040517f08c379a00000000000000000000000000000000000000000000000000000000081526004016109f990613ed7565b60405180910390fd5b600073ffffffffffffffffffffffffffffffffffffffff168173ffffffffffffffffffffffffffffffffffffffff161415610a72576040517f08c379a0000000000000000000000000000000000000000000000000000000008152600401610a6990613d97565b60405180910390fd5b610a8681600261215990919063ffffffff16565b610ac5576040517f08c379a0000000000000000000000000000000000000000000000000000000008152600401610abc90613f17565b60405180910390fd5b8073ffffffffffffffffffffffffffffffffffffffff167f33442b8c13e72dd75a027f08f9bff4eed2dfd26e43cdea857365f5163b359a796001604051610b0c9190613c56565b60405180910390a250565b610b1f611da1565b73ffffffffffffffffffffffffffffffffffffffff16610b3d610fe9565b73ffffffffffffffffffffffffffffffffffffffff1614610b93576040517f08c379a0000000000000000000000000000000000000000000000000000000008152600401610b8a90613ed7565b60405180910390fd5b86600560009054906101000a900473ffffffffffffffffffffffffffffffffffffffff1673ffffffffffffffffffffffffffffffffffffffff166370a08231306040518263ffffffff1660e01b8152600401610bef9190613a58565b60206040518083038186803b158015610c0757600080fd5b505afa158015610c1b573d6000803e3d6000fd5b505050506040513d601f19601f82011682018060405250810190610c3f919061309e565b1015610c80576040517f08c379a0000000000000000000000000000000000000000000000000000000008152600401610c7790613dd7565b60405180910390fd5b606063bd896dcb60e01b308b8b600560009054906101000a900473ffffffffffffffffffffffffffffffffffffffff168c8c8c8c8c8c8c604051602401610cd19b9a99989796959493929190613a73565b604051602081830303815290604052907bffffffffffffffffffffffffffffffffffffffffffffffffffffffff19166020820180517bffffffffffffffffffffffffffffffffffffffffffffffffffffffff838183161783525050505090506000610d668280519060200120600460009054906101000a900473ffffffffffffffffffffffffffffffffffffffff1684612189565b9050610db5818a600560009054906101000a900473ffffffffffffffffffffffffffffffffffffffff1673ffffffffffffffffffffffffffffffffffffffff16611e379092919063ffffffff16565b8973ffffffffffffffffffffffffffffffffffffffff1682805190602001208273ffffffffffffffffffffffffffffffffffffffff167f3c7ff6acee351ed98200c285a04745858a107e16da2f13c3a81a43073c17d644600560009054906101000a900473ffffffffffffffffffffffffffffffffffffffff168d8d8d8d8d8d8d604051610e4a989796959493929190613bb6565b60405180910390a45050505050505050505050565b60016020528060005260406000206000915054906101000a900473ffffffffffffffffffffffffffffffffffffffff1681565b610e9a611da1565b73ffffffffffffffffffffffffffffffffffffffff16610eb8610fe9565b73ffffffffffffffffffffffffffffffffffffffff1614610f0e576040517f08c379a0000000000000000000000000000000000000000000000000000000008152600401610f0590613ed7565b60405180910390fd5b600073ffffffffffffffffffffffffffffffffffffffff1660008054906101000a900473ffffffffffffffffffffffffffffffffffffffff1673ffffffffffffffffffffffffffffffffffffffff167f8be0079c531659141344cd1fd0a4f28419497f9722a3daafe3b4186f6b6457e060405160405180910390a360008060006101000a81548173ffffffffffffffffffffffffffffffffffffffff021916908373ffffffffffffffffffffffffffffffffffffffff160217905550565b6000610fe282600261220590919063ffffffff16565b9050919050565b60008060009054906101000a900473ffffffffffffffffffffffffffffffffffffffff16905090565b7f000000000000000000000000000000000000000000000000000000000000000081565b61103e611da1565b73ffffffffffffffffffffffffffffffffffffffff1661105c610fe9565b73ffffffffffffffffffffffffffffffffffffffff16146110b2576040517f08c379a00000000000000000000000000000000000000000000000000000000081526004016110a990613ed7565b60405180910390fd5b8181905084849050146110fa576040517f08c379a00000000000000000000000000000000000000000000000000000000081526004016110f190613d57565b60405180910390fd5b60005b8484905081101561115c5761114f85858381811061111757fe5b90506020028101906111299190613fd2565b85858581811061113557fe5b905060200201602081019061114a9190612d02565b611f77565b80806001019150506110fd565b5050505050565b6060806111706002612235565b67ffffffffffffffff8111801561118657600080fd5b506040519080825280602002602001820160405280156111b55781602001602082028036833780820191505090505b50905060005b6111c56002612235565b811015611233576111e081600261224a90919063ffffffff16565b8282815181106111ec57fe5b602002602001019073ffffffffffffffffffffffffffffffffffffffff16908173ffffffffffffffffffffffffffffffffffffffff168152505080806001019150506111bb565b508091505090565b7f000000000000000000000000000000000000000000000000000000000000000073ffffffffffffffffffffffffffffffffffffffff163373ffffffffffffffffffffffffffffffffffffffff16146112c9576040517f08c379a00000000000000000000000000000000000000000000000000000000081526004016112c090613d77565b60405180910390fd5b7f000000000000000000000000000000000000000000000000000000000000000073ffffffffffffffffffffffffffffffffffffffff168473ffffffffffffffffffffffffffffffffffffffff1614611357576040517f08c379a000000000000000000000000000000000000000000000000000000000815260040161134e90613e17565b60405180910390fd5b61135f612a33565b828281019061136e919061304c565b9050600073ffffffffffffffffffffffffffffffffffffffff1660066000836000015173ffffffffffffffffffffffffffffffffffffffff1673ffffffffffffffffffffffffffffffffffffffff16815260200190815260200160002060009054906101000a900473ffffffffffffffffffffffffffffffffffffffff1673ffffffffffffffffffffffffffffffffffffffff16146114bc576114b760066000836000015173ffffffffffffffffffffffffffffffffffffffff1673ffffffffffffffffffffffffffffffffffffffff16815260200190815260200160002060009054906101000a900473ffffffffffffffffffffffffffffffffffffffff1685600560009054906101000a900473ffffffffffffffffffffffffffffffffffffffff1673ffffffffffffffffffffffffffffffffffffffff16611e379092919063ffffffff16565b6116ce565b6000806114e085856040516114d2929190613a0f565b604051809103902084612264565b915091508060066000856000015173ffffffffffffffffffffffffffffffffffffffff1673ffffffffffffffffffffffffffffffffffffffff16815260200190815260200160002060006101000a81548173ffffffffffffffffffffffffffffffffffffffff021916908373ffffffffffffffffffffffffffffffffffffffff1602179055508260000151600760008373ffffffffffffffffffffffffffffffffffffffff1673ffffffffffffffffffffffffffffffffffffffff16815260200190815260200160002060006101000a81548173ffffffffffffffffffffffffffffffffffffffff021916908373ffffffffffffffffffffffffffffffffffffffff1602179055506116358187600560009054906101000a900473ffffffffffffffffffffffffffffffffffffffff1673ffffffffffffffffffffffffffffffffffffffff16611e379092919063ffffffff16565b826000015173ffffffffffffffffffffffffffffffffffffffff16836040015173ffffffffffffffffffffffffffffffffffffffff168273ffffffffffffffffffffffffffffffffffffffff167fd74fe60cbf1e5bf07ef3fad0e00c45f66345c5226474786d8dc086527dc8414785876060015188608001518960a001516040516116c39493929190613c71565b60405180910390a450505b60066000826000015173ffffffffffffffffffffffffffffffffffffffff1673ffffffffffffffffffffffffffffffffffffffff16815260200190815260200160002060009054906101000a900473ffffffffffffffffffffffffffffffffffffffff1673ffffffffffffffffffffffffffffffffffffffff16816000015173ffffffffffffffffffffffffffffffffffffffff167fe34903cfa4ad8362651171309d05bcbc2fc581a5ec83ca7b0c8d10743de766e2866040516117929190613fb7565b60405180910390a35050505050565b600460009054906101000a900473ffffffffffffffffffffffffffffffffffffffff1681565b6000811161180a576040517f08c379a000000000000000000000000000000000000000000000000000000000815260040161180190613eb7565b60405180910390fd5b611859333083600560009054906101000a900473ffffffffffffffffffffffffffffffffffffffff1673ffffffffffffffffffffffffffffffffffffffff166122bb909392919063ffffffff16565b3373ffffffffffffffffffffffffffffffffffffffff167f59062170a285eb80e8c6b8ced60428442a51910635005233fc4ce084a475845e8260405161189f9190613fb7565b60405180910390a250565b60006118b78383306108b1565b905092915050565b6118c7611da1565b73ffffffffffffffffffffffffffffffffffffffff166118e5610fe9565b73ffffffffffffffffffffffffffffffffffffffff161461193b576040517f08c379a000000000000000000000000000000000000000000000000000000000815260040161193290613ed7565b60405180910390fd5b61194f81600261234490919063ffffffff16565b61198e576040517f08c379a000000000000000000000000000000000000000000000000000000000815260040161198590613e37565b60405180910390fd5b8073ffffffffffffffffffffffffffffffffffffffff167f33442b8c13e72dd75a027f08f9bff4eed2dfd26e43cdea857365f5163b359a7960006040516119d59190613c56565b60405180910390a250565b6119e8611da1565b73ffffffffffffffffffffffffffffffffffffffff16611a06610fe9565b73ffffffffffffffffffffffffffffffffffffffff1614611a5c576040517f08c379a0000000000000000000000000000000000000000000000000000000008152600401611a5390613ed7565b60405180910390fd5b600073ffffffffffffffffffffffffffffffffffffffff168173ffffffffffffffffffffffffffffffffffffffff161415611acc576040517f08c379a0000000000000000000000000000000000000000000000000000000008152600401611ac390613e57565b60405180910390fd5b80600460006101000a81548173ffffffffffffffffffffffffffffffffffffffff021916908373ffffffffffffffffffffffffffffffffffffffff1602179055508073ffffffffffffffffffffffffffffffffffffffff167f30909084afc859121ffc3a5aef7fe37c540a9a1ef60bd4d8dcdb76376fadf9de60405160405180910390a250565b600060016000837bffffffffffffffffffffffffffffffffffffffffffffffffffffffff19167bffffffffffffffffffffffffffffffffffffffffffffffffffffffff1916815260200190815260200160002060009054906101000a900473ffffffffffffffffffffffffffffffffffffffff169050919050565b611bd6611da1565b73ffffffffffffffffffffffffffffffffffffffff16611bf4610fe9565b73ffffffffffffffffffffffffffffffffffffffff1614611c4a576040517f08c379a0000000000000000000000000000000000000000000000000000000008152600401611c4190613ed7565b60405180910390fd5b600073ffffffffffffffffffffffffffffffffffffffff168173ffffffffffffffffffffffffffffffffffffffff161415611cba576040517f08c379a0000000000000000000000000000000000000000000000000000000008152600401611cb190613db7565b60405180910390fd5b8073ffffffffffffffffffffffffffffffffffffffff1660008054906101000a900473ffffffffffffffffffffffffffffffffffffffff1673ffffffffffffffffffffffffffffffffffffffff167f8be0079c531659141344cd1fd0a4f28419497f9722a3daafe3b4186f6b6457e060405160405180910390a3806000806101000a81548173ffffffffffffffffffffffffffffffffffffffff021916908373ffffffffffffffffffffffffffffffffffffffff16021790555050565b6000600560009054906101000a900473ffffffffffffffffffffffffffffffffffffffff16905090565b600033905090565b6000611e2f83836040516024016040516020818303038152906040529190604051611dd5929190613a3f565b60405180910390207bffffffffffffffffffffffffffffffffffffffffffffffffffffffff19166020820180517bffffffffffffffffffffffffffffffffffffffffffffffffffffffff8381831617835250505050612374565b905092915050565b611eb88363a9059cbb60e01b8484604051602401611e56929190613b8d565b604051602081830303815290604052907bffffffffffffffffffffffffffffffffffffffffffffffffffffffff19166020820180517bffffffffffffffffffffffffffffffffffffffffffffffffffffffff83818316178352505050506123cc565b505050565b60606000693d602d80600a3d3981f360b01b9050600069363d3d373d3d3d363d7360b01b905060008460601b905060006e5af43d82803e903d91602b57fd5bf360881b905083838383604051602001611f199493929190613973565b604051602081830303815290604052945050505050919050565b60008060ff60f81b838686604051602001611f5194939291906139c1565b6040516020818303038152906040528051906020012090508060001c9150509392505050565b3073ffffffffffffffffffffffffffffffffffffffff168173ffffffffffffffffffffffffffffffffffffffff161415611fe6576040517f08c379a0000000000000000000000000000000000000000000000000000000008152600401611fdd90613e77565b60405180910390fd5b611fef81612493565b61202e576040517f08c379a000000000000000000000000000000000000000000000000000000000815260040161202590613f97565b60405180910390fd5b600061203a8484611da9565b90508160016000837bffffffffffffffffffffffffffffffffffffffffffffffffffffffff19167bffffffffffffffffffffffffffffffffffffffffffffffffffffffff1916815260200190815260200160002060006101000a81548173ffffffffffffffffffffffffffffffffffffffff021916908373ffffffffffffffffffffffffffffffffffffffff1602179055508173ffffffffffffffffffffffffffffffffffffffff16817bffffffffffffffffffffffffffffffffffffffffffffffffffffffff19163373ffffffffffffffffffffffffffffffffffffffff167f450397a2db0e89eccfe664cc6cdfd274a88bc00d29aaec4d991754a42f19f8c9878760405161214b929190613cd1565b60405180910390a450505050565b6000612181836000018373ffffffffffffffffffffffffffffffffffffffff1660001b6124a6565b905092915050565b6000806121a060008661219b87611ebd565b612516565b90508073ffffffffffffffffffffffffffffffffffffffff167efffc2da0b561cae30d9826d37709e9421c4725faebc226cbbb7ef5fc5e734960405160405180910390a26000835111156121fa576121f88184612627565b505b809150509392505050565b600061222d836000018373ffffffffffffffffffffffffffffffffffffffff1660001b612671565b905092915050565b600061224382600001612694565b9050919050565b600061225983600001836126a5565b60001c905092915050565b600080606061227284612712565b905060006122a386600460009054906101000a900473ffffffffffffffffffffffffffffffffffffffff1684612189565b90508180519060200120819350935050509250929050565b61233e846323b872dd60e01b8585856040516024016122dc93929190613b56565b604051602081830303815290604052907bffffffffffffffffffffffffffffffffffffffffffffffffffffffff19166020820180517bffffffffffffffffffffffffffffffffffffffffffffffffffffffff83818316178352505050506123cc565b50505050565b600061236c836000018373ffffffffffffffffffffffffffffffffffffffff1660001b6127b7565b905092915050565b600060048251146123ba576040517f08c379a00000000000000000000000000000000000000000000000000000000081526004016123b190613ef7565b60405180910390fd5b60006020830151905080915050919050565b606061242e826040518060400160405280602081526020017f5361666545524332303a206c6f772d6c6576656c2063616c6c206661696c65648152508573ffffffffffffffffffffffffffffffffffffffff1661289f9092919063ffffffff16565b905060008151111561248e578080602001905181019061244e9190612ed2565b61248d576040517f08c379a000000000000000000000000000000000000000000000000000000000815260040161248490613f57565b60405180910390fd5b5b505050565b600080823b905060008111915050919050565b60006124b28383612671565b61250b578260000182908060018154018082558091505060019003906000526020600020016000909190919091505582600001805490508360010160008481526020019081526020016000208190555060019050612510565b600090505b92915050565b6000808447101561255c576040517f08c379a000000000000000000000000000000000000000000000000000000000815260040161255390613f77565b60405180910390fd5b6000835114156125a1576040517f08c379a000000000000000000000000000000000000000000000000000000000815260040161259890613d37565b60405180910390fd5b8383516020850187f59050600073ffffffffffffffffffffffffffffffffffffffff168173ffffffffffffffffffffffffffffffffffffffff16141561261c576040517f08c379a000000000000000000000000000000000000000000000000000000000815260040161261390613e97565b60405180910390fd5b809150509392505050565b606061266983836040518060400160405280601e81526020017f416464726573733a206c6f772d6c6576656c2063616c6c206661696c6564000081525061289f565b905092915050565b600080836001016000848152602001908152602001600020541415905092915050565b600081600001805490509050919050565b6000818360000180549050116126f0576040517f08c379a00000000000000000000000000000000000000000000000000000000081526004016126e790613d17565b60405180910390fd5b8260000182815481106126ff57fe5b9060005260206000200154905092915050565b60606320dc203d60e01b30600560009054906101000a900473ffffffffffffffffffffffffffffffffffffffff168460405160240161275393929190613b1e565b604051602081830303815290604052907bffffffffffffffffffffffffffffffffffffffffffffffffffffffff19166020820180517bffffffffffffffffffffffffffffffffffffffffffffffffffffffff83818316178352505050509050919050565b60008083600101600084815260200190815260200160002054905060008114612893576000600182039050600060018660000180549050039050600086600001828154811061280257fe5b906000526020600020015490508087600001848154811061281f57fe5b906000526020600020018190555060018301876001016000838152602001908152602001600020819055508660000180548061285757fe5b60019003818190600052602060002001600090559055866001016000878152602001908152602001600020600090556001945050505050612899565b60009150505b92915050565b60606128ae84846000856128b7565b90509392505050565b6060824710156128fc576040517f08c379a00000000000000000000000000000000000000000000000000000000081526004016128f390613df7565b60405180910390fd5b61290585612493565b612944576040517f08c379a000000000000000000000000000000000000000000000000000000000815260040161293b90613f37565b60405180910390fd5b600060608673ffffffffffffffffffffffffffffffffffffffff16858760405161296e9190613a28565b60006040518083038185875af1925050503d80600081146129ab576040519150601f19603f3d011682016040523d82523d6000602084013e6129b0565b606091505b50915091506129c08282866129cc565b92505050949350505050565b606083156129dc57829050612a2c565b6000835111156129ef5782518084602001fd5b816040517f08c379a0000000000000000000000000000000000000000000000000000000008152600401612a239190613cf5565b60405180910390fd5b9392505050565b6040518060c00160405280600073ffffffffffffffffffffffffffffffffffffffff168152602001600073ffffffffffffffffffffffffffffffffffffffff168152602001600073ffffffffffffffffffffffffffffffffffffffff1681526020016000815260200160008152602001600081525090565b600081359050612aba81614313565b92915050565b60008083601f840112612ad257600080fd5b8235905067ffffffffffffffff811115612aeb57600080fd5b602083019150836020820283011115612b0357600080fd5b9250929050565b60008083601f840112612b1c57600080fd5b8235905067ffffffffffffffff811115612b3557600080fd5b602083019150836020820283011115612b4d57600080fd5b9250929050565b600081519050612b638161432a565b92915050565b600081359050612b7881614341565b92915050565b600081359050612b8d81614358565b92915050565b60008083601f840112612ba557600080fd5b8235905067ffffffffffffffff811115612bbe57600080fd5b602083019150836001820283011115612bd657600080fd5b9250929050565b600081359050612bec8161436f565b92915050565b60008083601f840112612c0457600080fd5b8235905067ffffffffffffffff811115612c1d57600080fd5b602083019150836001820283011115612c3557600080fd5b9250929050565b600060c08284031215612c4e57600080fd5b612c5860c0614029565b90506000612c6884828501612aab565b6000830152506020612c7c84828501612aab565b6020830152506040612c9084828501612aab565b6040830152506060612ca484828501612cd8565b6060830152506080612cb884828501612cd8565b60808301525060a0612ccc84828501612cd8565b60a08301525092915050565b600081359050612ce78161437f565b92915050565b600081519050612cfc8161437f565b92915050565b600060208284031215612d1457600080fd5b6000612d2284828501612aab565b91505092915050565b60008060008060008060008060006101208a8c031215612d4a57600080fd5b6000612d588c828d01612aab565b9950506020612d698c828d01612aab565b9850506040612d7a8c828d01612cd8565b9750506060612d8b8c828d01612cd8565b9650506080612d9c8c828d01612cd8565b95505060a0612dad8c828d01612cd8565b94505060c0612dbe8c828d01612cd8565b93505060e0612dcf8c828d01612cd8565b925050610100612de18c828d01612bdd565b9150509295985092959850929598565b60008060008060608587031215612e0757600080fd5b6000612e1587828801612aab565b9450506020612e2687828801612cd8565b935050604085013567ffffffffffffffff811115612e4357600080fd5b612e4f87828801612b93565b925092505092959194509250565b60008060008060408587031215612e7357600080fd5b600085013567ffffffffffffffff811115612e8d57600080fd5b612e9987828801612b0a565b9450945050602085013567ffffffffffffffff811115612eb857600080fd5b612ec487828801612ac0565b925092505092959194509250565b600060208284031215612ee457600080fd5b6000612ef284828501612b54565b91505092915050565b60008060408385031215612f0e57600080fd5b6000612f1c85828601612b69565b9250506020612f2d85828601612aab565b9150509250929050565b600080600060608486031215612f4c57600080fd5b6000612f5a86828701612b69565b9350506020612f6b86828701612aab565b9250506040612f7c86828701612aab565b9150509250925092565b600060208284031215612f9857600080fd5b6000612fa684828501612b7e565b91505092915050565b60008060208385031215612fc257600080fd5b600083013567ffffffffffffffff811115612fdc57600080fd5b612fe885828601612bf2565b92509250509250929050565b60008060006040848603121561300957600080fd5b600084013567ffffffffffffffff81111561302357600080fd5b61302f86828701612bf2565b9350935050602061304286828701612aab565b9150509250925092565b600060c0828403121561305e57600080fd5b600061306c84828501612c3c565b91505092915050565b60006020828403121561308757600080fd5b600061309584828501612cd8565b91505092915050565b6000602082840312156130b057600080fd5b60006130be84828501612ced565b91505092915050565b60006130d383836130df565b60208301905092915050565b6130e8816140d0565b82525050565b6130f7816140d0565b82525050565b61310e613109826140d0565b614289565b82525050565b600061311f8261406a565b6131298185614098565b93506131348361405a565b8060005b8381101561316557815161314c88826130c7565b97506131578361408b565b925050600181019050613138565b5085935050505092915050565b61317b816140e2565b82525050565b61319261318d8261411a565b6142a5565b82525050565b6131a96131a482614146565b6142af565b82525050565b6131c06131bb826140ee565b61429b565b82525050565b6131d76131d282614172565b6142b9565b82525050565b6131e68161419e565b82525050565b6131fd6131f88261419e565b6142c3565b82525050565b600061320f83856140a9565b935061321c838584614247565b82840190509392505050565b600061323382614075565b61323d81856140a9565b935061324d818560208601614256565b80840191505092915050565b61326281614211565b82525050565b61327181614235565b82525050565b600061328383856140b4565b9350613290838584614247565b613299836142e1565b840190509392505050565b60006132b083856140c5565b93506132bd838584614247565b82840190509392505050565b60006132d482614080565b6132de81856140b4565b93506132ee818560208601614256565b6132f7816142e1565b840191505092915050565b600061330f6022836140b4565b91507f456e756d657261626c655365743a20696e646578206f7574206f6620626f756e60008301527f64730000000000000000000000000000000000000000000000000000000000006020830152604082019050919050565b60006133756020836140b4565b91507f437265617465323a2062797465636f6465206c656e677468206973207a65726f6000830152602082019050919050565b60006133b56015836140b4565b91507f4172726179206c656e677468206d69736d6174636800000000000000000000006000830152602082019050919050565b60006133f5600c836140b4565b91507f4f4e4c595f4741544557415900000000000000000000000000000000000000006000830152602082019050919050565b6000613435601a836140b4565b91507f44657374696e6174696f6e2063616e6e6f74206265207a65726f0000000000006000830152602082019050919050565b60006134756026836140b4565b91507f4f776e61626c653a206e6577206f776e657220697320746865207a65726f206160008301527f64647265737300000000000000000000000000000000000000000000000000006020830152604082019050919050565b60006134db6020836140b4565b91507f4e6f7420656e6f75676820746f6b656e7320746f20637265617465206c6f636b6000830152602082019050919050565b600061351b6026836140b4565b91507f416464726573733a20696e73756666696369656e742062616c616e636520666f60008301527f722063616c6c00000000000000000000000000000000000000000000000000006020830152604082019050919050565b60006135816012836140b4565b91507f4f4e4c595f5452414e534645525f544f4f4c00000000000000000000000000006000830152602082019050919050565b60006135c1601b836140b4565b91507f44657374696e6174696f6e20616c72656164792072656d6f76656400000000006000830152602082019050919050565b60006136016019836140b4565b91507f4d6173746572436f70792063616e6e6f74206265207a65726f000000000000006000830152602082019050919050565b6000613641601d836140b4565b91507f546172676574206d757374206265206f7468657220636f6e74726163740000006000830152602082019050919050565b60006136816019836140b4565b91507f437265617465323a204661696c6564206f6e206465706c6f79000000000000006000830152602082019050919050565b60006136c16015836140b4565b91507f416d6f756e742063616e6e6f74206265207a65726f00000000000000000000006000830152602082019050919050565b60006137016020836140b4565b91507f4f776e61626c653a2063616c6c6572206973206e6f7420746865206f776e65726000830152602082019050919050565b60006137416018836140b4565b91507f496e76616c6964206d6574686f64207369676e617475726500000000000000006000830152602082019050919050565b60006137816019836140b4565b91507f44657374696e6174696f6e20616c7265616479206164646564000000000000006000830152602082019050919050565b60006137c1601d836140b4565b91507f416464726573733a2063616c6c20746f206e6f6e2d636f6e74726163740000006000830152602082019050919050565b6000613801602a836140b4565b91507f5361666545524332303a204552433230206f7065726174696f6e20646964206e60008301527f6f742073756363656564000000000000000000000000000000000000000000006020830152604082019050919050565b6000613867601d836140b4565b91507f437265617465323a20696e73756666696369656e742062616c616e63650000006000830152602082019050919050565b60006138a76019836140b4565b91507f546172676574206d757374206265206120636f6e7472616374000000000000006000830152602082019050919050565b60c0820160008201516138f060008501826130df565b50602082015161390360208501826130df565b50604082015161391660408501826130df565b5060608201516139296060850182613955565b50608082015161393c6080850182613955565b5060a082015161394f60a0850182613955565b50505050565b61395e81614207565b82525050565b61396d81614207565b82525050565b600061397f8287613181565b600a8201915061398f8286613181565b600a8201915061399f82856131c6565b6014820191506139af8284613198565b600f8201915081905095945050505050565b60006139cd82876131af565b6001820191506139dd82866130fd565b6014820191506139ed82856131ec565b6020820191506139fd82846131ec565b60208201915081905095945050505050565b6000613a1c828486613203565b91508190509392505050565b6000613a348284613228565b915081905092915050565b6000613a4c8284866132a4565b91508190509392505050565b6000602082019050613a6d60008301846130ee565b92915050565b600061016082019050613a89600083018e6130ee565b613a96602083018d6130ee565b613aa3604083018c6130ee565b613ab0606083018b6130ee565b613abd608083018a613964565b613aca60a0830189613964565b613ad760c0830188613964565b613ae460e0830187613964565b613af2610100830186613964565b613b00610120830185613964565b613b0e610140830184613268565b9c9b505050505050505050505050565b600061010082019050613b3460008301866130ee565b613b4160208301856130ee565b613b4e60408301846138da565b949350505050565b6000606082019050613b6b60008301866130ee565b613b7860208301856130ee565b613b856040830184613964565b949350505050565b6000604082019050613ba260008301856130ee565b613baf6020830184613964565b9392505050565b600061010082019050613bcc600083018b6130ee565b613bd9602083018a613964565b613be66040830189613964565b613bf36060830188613964565b613c006080830187613964565b613c0d60a0830186613964565b613c1a60c0830185613964565b613c2760e0830184613268565b9998505050505050505050565b60006020820190508181036000830152613c4e8184613114565b905092915050565b6000602082019050613c6b6000830184613172565b92915050565b6000608082019050613c8660008301876131dd565b613c936020830186613964565b613ca06040830185613964565b613cad6060830184613964565b95945050505050565b6000602082019050613ccb6000830184613259565b92915050565b60006020820190508181036000830152613cec818486613277565b90509392505050565b60006020820190508181036000830152613d0f81846132c9565b905092915050565b60006020820190508181036000830152613d3081613302565b9050919050565b60006020820190508181036000830152613d5081613368565b9050919050565b60006020820190508181036000830152613d70816133a8565b9050919050565b60006020820190508181036000830152613d90816133e8565b9050919050565b60006020820190508181036000830152613db081613428565b9050919050565b60006020820190508181036000830152613dd081613468565b9050919050565b60006020820190508181036000830152613df0816134ce565b9050919050565b60006020820190508181036000830152613e108161350e565b9050919050565b60006020820190508181036000830152613e3081613574565b9050919050565b60006020820190508181036000830152613e50816135b4565b9050919050565b60006020820190508181036000830152613e70816135f4565b9050919050565b60006020820190508181036000830152613e9081613634565b9050919050565b60006020820190508181036000830152613eb081613674565b9050919050565b60006020820190508181036000830152613ed0816136b4565b9050919050565b60006020820190508181036000830152613ef0816136f4565b9050919050565b60006020820190508181036000830152613f1081613734565b9050919050565b60006020820190508181036000830152613f3081613774565b9050919050565b60006020820190508181036000830152613f50816137b4565b9050919050565b60006020820190508181036000830152613f70816137f4565b9050919050565b60006020820190508181036000830152613f908161385a565b9050919050565b60006020820190508181036000830152613fb08161389a565b9050919050565b6000602082019050613fcc6000830184613964565b92915050565b60008083356001602003843603038112613feb57600080fd5b80840192508235915067ffffffffffffffff82111561400957600080fd5b60208301925060018202360383131561402157600080fd5b509250929050565b6000604051905081810181811067ffffffffffffffff821117156140505761404f6142df565b5b8060405250919050565b6000819050602082019050919050565b600081519050919050565b600081519050919050565b600081519050919050565b6000602082019050919050565b600082825260208201905092915050565b600081905092915050565b600082825260208201905092915050565b600081905092915050565b60006140db826141e7565b9050919050565b60008115159050919050565b60007fff0000000000000000000000000000000000000000000000000000000000000082169050919050565b60007fffffffffffffffffffff0000000000000000000000000000000000000000000082169050919050565b60007fffffffffffffffffffffffffffffff000000000000000000000000000000000082169050919050565b60007fffffffffffffffffffffffffffffffffffffffff00000000000000000000000082169050919050565b6000819050919050565b60007fffffffff0000000000000000000000000000000000000000000000000000000082169050919050565b60008190506141e2826142ff565b919050565b600073ffffffffffffffffffffffffffffffffffffffff82169050919050565b6000819050919050565b600061421c82614223565b9050919050565b600061422e826141e7565b9050919050565b6000614240826141d4565b9050919050565b82818337600083830152505050565b60005b83811015614274578082015181840152602081019050614259565b83811115614283576000848401525b50505050565b6000614294826142cd565b9050919050565b6000819050919050565b6000819050919050565b6000819050919050565b6000819050919050565b6000819050919050565b60006142d8826142f2565b9050919050565bfe5b6000601f19601f8301169050919050565b60008160601b9050919050565b600381106143105761430f6142df565b5b50565b61431c816140d0565b811461432757600080fd5b50565b614333816140e2565b811461433e57600080fd5b50565b61434a8161419e565b811461435557600080fd5b50565b614361816141a8565b811461436c57600080fd5b50565b6003811061437c57600080fd5b50565b61438881614207565b811461439357600080fd5b5056fea26469706673582212202dadc0d09d62f32774ff0e2d49549f8768c210a71ba59d9013abe0c5a6bef31064736f6c63430007030033",
  "devdoc": {
    "events": {
      "LockedTokensReceivedFromL1(address,address,uint256)": {
        "details": "Emitted when locked tokens are received from L1 (whether the wallet had already been received or not)"
      },
      "TokenLockCreatedFromL1(address,bytes32,address,uint256,uint256,uint256,address)": {
        "details": "Event emitted when a wallet is received and created from L1"
      }
    },
    "kind": "dev",
    "methods": {
      "addTokenDestination(address)": {
        "params": {
          "_dst": "Destination address"
        }
      },
      "constructor": {
        "params": {
          "_graphToken": "Address of the L2 GRT token contract",
          "_l1TransferTool": "Address of the L1 transfer tool contract (in L1, without aliasing)",
          "_l2Gateway": "Address of the L2GraphTokenGateway contract",
          "_masterCopy": "Address of the master copy of the L2GraphTokenLockWallet implementation"
        }
      },
      "createTokenLockWallet(address,address,uint256,uint256,uint256,uint256,uint256,uint256,uint8)": {
        "params": {
          "_beneficiary": "Address of the beneficiary of locked tokens",
          "_endTime": "End time of the release schedule",
          "_managedAmount": "Amount of tokens to be managed by the lock contract",
          "_owner": "Address of the contract owner",
          "_periods": "Number of periods between start time and end time",
          "_releaseStartTime": "Override time for when the releases start",
          "_revocable": "Whether the contract is revocable",
          "_startTime": "Start time of the release schedule"
        }
      },
      "deposit(uint256)": {
        "details": "Even if the ERC20 token can be transferred directly to the contract this function provide a safe interface to do the transfer and avoid mistakes",
        "params": {
          "_amount": "Amount to deposit"
        }
      },
      "getAuthFunctionCallTarget(bytes4)": {
        "params": {
          "_sigHash": "Function signature hash"
        },
        "returns": {
          "_0": "Address of the target contract where to send the call"
        }
      },
      "getDeploymentAddress(bytes32,address)": {
        "details": "Uses address(this) as deployer to compute the address. Only for backwards compatibility.",
        "params": {
          "_implementation": "Address of the proxy target implementation",
          "_salt": "Bytes32 salt to use for CREATE2"
        },
        "returns": {
          "_0": "Address of the counterfactual MinimalProxy"
        }
      },
      "getDeploymentAddress(bytes32,address,address)": {
        "params": {
          "_deployer": "Address of the deployer that creates the contract",
          "_implementation": "Address of the proxy target implementation",
          "_salt": "Bytes32 salt to use for CREATE2"
        },
        "returns": {
          "_0": "Address of the counterfactual MinimalProxy"
        }
      },
      "getTokenDestinations()": {
        "returns": {
          "_0": "Array of addresses authorized to pull funds from a token lock"
        }
      },
      "isAuthFunctionCall(bytes4)": {
        "params": {
          "_sigHash": "Function signature hash"
        },
        "returns": {
          "_0": "True if authorized"
        }
      },
      "isTokenDestination(address)": {
        "params": {
          "_dst": "Destination address"
        },
        "returns": {
          "_0": "True if authorized"
        }
      },
      "onTokenTransfer(address,uint256,bytes)": {
        "details": "This function will create a new wallet if it doesn't exist yet, or send the tokens to the existing wallet if it does.",
        "params": {
          "_amount": "Amount of tokens received",
          "_data": "Encoded data of the transferred wallet, which must be an ABI-encoded TransferredWalletData struct",
          "_from": "Address of the sender in L1, which must be the L1GraphTokenLockTransferTool"
        }
      },
      "owner()": {
        "details": "Returns the address of the current owner."
      },
      "removeTokenDestination(address)": {
        "params": {
          "_dst": "Destination address"
        }
      },
      "renounceOwnership()": {
        "details": "Leaves the contract without owner. It will not be possible to call `onlyOwner` functions anymore. Can only be called by the current owner. NOTE: Renouncing ownership will leave the contract without an owner, thereby removing any functionality that is only available to the owner."
      },
      "setAuthFunctionCall(string,address)": {
        "details": "Input expected is the function signature as 'transfer(address,uint256)'",
        "params": {
          "_signature": "Function signature",
          "_target": "Address of the destination contract to call"
        }
      },
      "setAuthFunctionCallMany(string[],address[])": {
        "details": "Input expected is the function signature as 'transfer(address,uint256)'",
        "params": {
          "_signatures": "Function signatures",
          "_targets": "Address of the destination contract to call"
        }
      },
      "setMasterCopy(address)": {
        "params": {
          "_masterCopy": "Address of contract bytecode to factory clone"
        }
      },
      "token()": {
        "returns": {
          "_0": "Token used for transfers and approvals"
        }
      },
      "transferOwnership(address)": {
        "details": "Transfers ownership of the contract to a new account (`newOwner`). Can only be called by the current owner."
      },
      "unsetAuthFunctionCall(string)": {
        "details": "Input expected is the function signature as 'transfer(address,uint256)'",
        "params": {
          "_signature": "Function signature"
        }
      },
      "withdraw(uint256)": {
        "details": "Escape hatch in case of mistakes or to recover remaining funds",
        "params": {
          "_amount": "Amount of tokens to withdraw"
        }
      }
    },
    "title": "L2GraphTokenLockManager",
    "version": 1
  },
  "userdoc": {
    "kind": "user",
    "methods": {
      "addTokenDestination(address)": {
        "notice": "Adds an address that can be allowed by a token lock to pull funds"
      },
      "constructor": {
        "notice": "Constructor for the L2GraphTokenLockManager contract."
      },
      "createTokenLockWallet(address,address,uint256,uint256,uint256,uint256,uint256,uint256,uint8)": {
        "notice": "Creates and fund a new token lock wallet using a minimum proxy"
      },
      "deposit(uint256)": {
        "notice": "Deposits tokens into the contract"
      },
      "getAuthFunctionCallTarget(bytes4)": {
        "notice": "Gets the target contract to call for a particular function signature"
      },
      "getDeploymentAddress(bytes32,address)": {
        "notice": "Gets the deterministic CREATE2 address for MinimalProxy with a particular implementation"
      },
      "getDeploymentAddress(bytes32,address,address)": {
        "notice": "Gets the deterministic CREATE2 address for MinimalProxy with a particular implementation"
      },
      "getTokenDestinations()": {
        "notice": "Returns an array of authorized destination addresses"
      },
      "isAuthFunctionCall(bytes4)": {
        "notice": "Returns true if the function call is authorized"
      },
      "isTokenDestination(address)": {
        "notice": "Returns True if the address is authorized to be a destination of tokens"
      },
      "l1TransferTool()": {
        "notice": "Address of the L1 transfer tool contract (in L1, no aliasing)"
      },
      "l1WalletToL2Wallet(address)": {
        "notice": "Mapping of each L1 wallet to its L2 wallet counterpart (populated when each wallet is received) L1 address => L2 address"
      },
      "l2Gateway()": {
        "notice": "Address of the L2GraphTokenGateway"
      },
      "l2WalletToL1Wallet(address)": {
        "notice": "Mapping of each L2 wallet to its L1 wallet counterpart (populated when each wallet is received) L2 address => L1 address"
      },
      "onTokenTransfer(address,uint256,bytes)": {
        "notice": "This function is called by the L2GraphTokenGateway when tokens are sent from L1."
      },
      "removeTokenDestination(address)": {
        "notice": "Removes an address that can be allowed by a token lock to pull funds"
      },
      "setAuthFunctionCall(string,address)": {
        "notice": "Sets an authorized function call to target"
      },
      "setAuthFunctionCallMany(string[],address[])": {
        "notice": "Sets an authorized function call to target in bulk"
      },
      "setMasterCopy(address)": {
        "notice": "Sets the masterCopy bytecode to use to create clones of TokenLock contracts"
      },
      "token()": {
        "notice": "Gets the GRT token address"
      },
      "unsetAuthFunctionCall(string)": {
        "notice": "Unsets an authorized function call to target"
      },
      "withdraw(uint256)": {
        "notice": "Withdraws tokens from the contract"
      }
    },
    "notice": "This contract manages a list of authorized function calls and targets that can be called by any TokenLockWallet contract and it is a factory of TokenLockWallet contracts. This contract receives funds to make the process of creating TokenLockWallet contracts easier by distributing them the initial tokens to be managed. In particular, this L2 variant is designed to receive token lock wallets from L1, through the GRT bridge. These transferred wallets will not allow releasing funds in L2 until the end of the vesting timeline, but they can allow withdrawing funds back to L1 using the L2GraphTokenLockTransferTool contract. The owner can setup a list of token destinations that will be used by TokenLock contracts to approve the pulling of funds, this way in can be guaranteed that only protocol contracts will manipulate users funds.",
    "version": 1
  },
  "storageLayout": {
    "storage": [
      {
        "astId": 672,
        "contract": "contracts/L2GraphTokenLockManager.sol:L2GraphTokenLockManager",
        "label": "_owner",
        "offset": 0,
        "slot": "0",
        "type": "t_address"
      },
      {
        "astId": 3988,
        "contract": "contracts/L2GraphTokenLockManager.sol:L2GraphTokenLockManager",
        "label": "authFnCalls",
        "offset": 0,
        "slot": "1",
        "type": "t_mapping(t_bytes4,t_address)"
      },
      {
        "astId": 3990,
        "contract": "contracts/L2GraphTokenLockManager.sol:L2GraphTokenLockManager",
        "label": "_tokenDestinations",
        "offset": 0,
        "slot": "2",
        "type": "t_struct(AddressSet)2629_storage"
      },
      {
        "astId": 3992,
        "contract": "contracts/L2GraphTokenLockManager.sol:L2GraphTokenLockManager",
        "label": "masterCopy",
        "offset": 0,
        "slot": "4",
        "type": "t_address"
      },
      {
        "astId": 3994,
        "contract": "contracts/L2GraphTokenLockManager.sol:L2GraphTokenLockManager",
        "label": "_token",
        "offset": 0,
        "slot": "5",
        "type": "t_contract(IERC20)1710"
      },
      {
        "astId": 6154,
        "contract": "contracts/L2GraphTokenLockManager.sol:L2GraphTokenLockManager",
        "label": "l1WalletToL2Wallet",
        "offset": 0,
        "slot": "6",
        "type": "t_mapping(t_address,t_address)"
      },
      {
        "astId": 6159,
        "contract": "contracts/L2GraphTokenLockManager.sol:L2GraphTokenLockManager",
        "label": "l2WalletToL1Wallet",
        "offset": 0,
        "slot": "7",
        "type": "t_mapping(t_address,t_address)"
      }
    ],
    "types": {
      "t_address": {
        "encoding": "inplace",
        "label": "address",
        "numberOfBytes": "20"
      },
      "t_array(t_bytes32)dyn_storage": {
        "base": "t_bytes32",
        "encoding": "dynamic_array",
        "label": "bytes32[]",
        "numberOfBytes": "32"
      },
      "t_bytes32": {
        "encoding": "inplace",
        "label": "bytes32",
        "numberOfBytes": "32"
      },
      "t_bytes4": {
        "encoding": "inplace",
        "label": "bytes4",
        "numberOfBytes": "4"
      },
      "t_contract(IERC20)1710": {
        "encoding": "inplace",
        "label": "contract IERC20",
        "numberOfBytes": "20"
      },
      "t_mapping(t_address,t_address)": {
        "encoding": "mapping",
        "key": "t_address",
        "label": "mapping(address => address)",
        "numberOfBytes": "32",
        "value": "t_address"
      },
      "t_mapping(t_bytes32,t_uint256)": {
        "encoding": "mapping",
        "key": "t_bytes32",
        "label": "mapping(bytes32 => uint256)",
        "numberOfBytes": "32",
        "value": "t_uint256"
      },
      "t_mapping(t_bytes4,t_address)": {
        "encoding": "mapping",
        "key": "t_bytes4",
        "label": "mapping(bytes4 => address)",
        "numberOfBytes": "32",
        "value": "t_address"
      },
      "t_struct(AddressSet)2629_storage": {
        "encoding": "inplace",
        "label": "struct EnumerableSet.AddressSet",
        "members": [
          {
            "astId": 2628,
            "contract": "contracts/L2GraphTokenLockManager.sol:L2GraphTokenLockManager",
            "label": "_inner",
            "offset": 0,
            "slot": "0",
            "type": "t_struct(Set)2364_storage"
          }
        ],
        "numberOfBytes": "64"
      },
      "t_struct(Set)2364_storage": {
        "encoding": "inplace",
        "label": "struct EnumerableSet.Set",
        "members": [
          {
            "astId": 2359,
            "contract": "contracts/L2GraphTokenLockManager.sol:L2GraphTokenLockManager",
            "label": "_values",
            "offset": 0,
            "slot": "0",
            "type": "t_array(t_bytes32)dyn_storage"
          },
          {
            "astId": 2363,
            "contract": "contracts/L2GraphTokenLockManager.sol:L2GraphTokenLockManager",
            "label": "_indexes",
            "offset": 0,
            "slot": "1",
            "type": "t_mapping(t_bytes32,t_uint256)"
          }
        ],
        "numberOfBytes": "64"
      },
      "t_uint256": {
        "encoding": "inplace",
        "label": "uint256",
        "numberOfBytes": "32"
      }
    }
  }
}