{"contracts/tests/L1GraphTokenLockTransferToolBadMock.sol":{"L1GraphTokenLockTransferToolBadMock":{"abi":[{"inputs":[{"internalType":"address","name":"","type":"address"}],"name":"l2WalletAddress","outputs":[{"internalType":"address","name":"","type":"address"}],"stateMutability":"view","type":"function"},{"inputs":[{"internalType":"address","name":"_l1Wallet","type":"address"},{"internalType":"uint256","name":"_amount","type":"uint256"}],"name":"pullETH","outputs":[],"stateMutability":"nonpayable","type":"function"},{"inputs":[{"internalType":"address","name":"_l1Address","type":"address"},{"internalType":"address","name":"_l2Address","type":"address"}],"name":"setL2WalletAddress","outputs":[],"stateMutability":"nonpayable","type":"function"}],"evm":{"bytecode":{"linkReferences":{},"object":"608060405234801561001057600080fd5b5061032d806100206000396000f3fe608060405234801561001057600080fd5b50600436106100415760003560e01c80634a830de5146100465780638f8295f71461005b578063e7db83091461006e575b600080fd5b6100596100543660046101e1565b610097565b005b610059610069366004610213565b6100c5565b61008161007c3660046101c0565b610189565b60405161008e919061023f565b60405180910390f35b6001600160a01b03918216600090815260208190526040902080546001600160a01b03191691909216179055565b6001600160a01b03828116600090815260208190526040902054166101055760405162461bcd60e51b81526004016100fc906102a4565b60405180910390fd5b6000336001600160a01b0316600183036040516101219061023c565b60006040518083038185875af1925050503d806000811461015e576040519150601f19603f3d011682016040523d82523d6000602084013e610163565b606091505b50509050806101845760405162461bcd60e51b81526004016100fc90610253565b505050565b6000602081905290815260409020546001600160a01b031681565b80356001600160a01b03811681146101bb57600080fd5b919050565b6000602082840312156101d1578081fd5b6101da826101a4565b9392505050565b600080604083850312156101f3578081fd5b6101fc836101a4565b915061020a602084016101a4565b90509250929050565b60008060408385031215610225578182fd5b61022e836101a4565b946020939093013593505050565b90565b6001600160a01b0391909116815260200190565b60208082526031908201527f4c314772617068546f6b656e4c6f636b5472616e73666572546f6f6c4d6f636b6040820152700e88115512081c1d5b1b0819985a5b1959607a1b606082015260800190565b60208082526033908201527f4c314772617068546f6b656e4c6f636b5472616e73666572546f6f6c4d6f636b6040820152720e881d5b9adb9bdddb88130c481dd85b1b195d606a1b60608201526080019056fea2646970667358221220d3de2f87a5612151b4f83804527861922e9b6bf0bc1a72620c1fd7807ed8830b64736f6c63430007060033","opcodes":"PUSH1 0x80 PUSH1 0x40 MSTORE CALLVALUE DUP1 ISZERO PUSH2 0x10 JUMPI PUSH1 0x0 DUP1 REVERT JUMPDEST POP PUSH2 0x32D DUP1 PUSH2 0x20 PUSH1 0x0 CODECOPY PUSH1 0x0 RETURN INVALID PUSH1 0x80 PUSH1 0x40 MSTORE CALLVALUE DUP1 ISZERO PUSH2 0x10 JUMPI PUSH1 0x0 DUP1 REVERT JUMPDEST POP PUSH1 0x4 CALLDATASIZE LT PUSH2 0x41 JUMPI PUSH1 0x0 CALLDATALOAD PUSH1 0xE0 SHR DUP1 PUSH4 0x4A830DE5 EQ PUSH2 0x46 JUMPI DUP1 PUSH4 0x8F8295F7 EQ PUSH2 0x5B JUMPI DUP1 PUSH4 0xE7DB8309 EQ PUSH2 0x6E JUMPI JUMPDEST PUSH1 0x0 DUP1 REVERT JUMPDEST PUSH2 0x59 PUSH2 0x54 CALLDATASIZE PUSH1 0x4 PUSH2 0x1E1 JUMP JUMPDEST PUSH2 0x97 JUMP JUMPDEST STOP JUMPDEST PUSH2 0x59 PUSH2 0x69 CALLDATASIZE PUSH1 0x4 PUSH2 0x213 JUMP JUMPDEST PUSH2 0xC5 JUMP JUMPDEST PUSH2 0x81 PUSH2 0x7C CALLDATASIZE PUSH1 0x4 PUSH2 0x1C0 JUMP JUMPDEST PUSH2 0x189 JUMP JUMPDEST PUSH1 0x40 MLOAD PUSH2 0x8E SWAP2 SWAP1 PUSH2 0x23F JUMP JUMPDEST PUSH1 0x40 MLOAD DUP1 SWAP2 SUB SWAP1 RETURN JUMPDEST PUSH1 0x1 PUSH1 0x1 PUSH1 0xA0 SHL SUB SWAP2 DUP3 AND PUSH1 0x0 SWAP1 DUP2 MSTORE PUSH1 0x20 DUP2 SWAP1 MSTORE PUSH1 0x40 SWAP1 KECCAK256 DUP1 SLOAD PUSH1 0x1 PUSH1 0x1 PUSH1 0xA0 SHL SUB NOT AND SWAP2 SWAP1 SWAP3 AND OR SWAP1 SSTORE JUMP JUMPDEST PUSH1 0x1 PUSH1 0x1 PUSH1 0xA0 SHL SUB DUP3 DUP2 AND PUSH1 0x0 SWAP1 DUP2 MSTORE PUSH1 0x20 DUP2 SWAP1 MSTORE PUSH1 0x40 SWAP1 KECCAK256 SLOAD AND PUSH2 0x105 JUMPI PUSH1 0x40 MLOAD PUSH3 0x461BCD PUSH1 0xE5 SHL DUP2 MSTORE PUSH1 0x4 ADD PUSH2 0xFC SWAP1 PUSH2 0x2A4 JUMP JUMPDEST PUSH1 0x40 MLOAD DUP1 SWAP2 SUB SWAP1 REVERT JUMPDEST PUSH1 0x0 CALLER PUSH1 0x1 PUSH1 0x1 PUSH1 0xA0 SHL SUB AND PUSH1 0x1 DUP4 SUB PUSH1 0x40 MLOAD PUSH2 0x121 SWAP1 PUSH2 0x23C JUMP JUMPDEST PUSH1 0x0 PUSH1 0x40 MLOAD DUP1 DUP4 SUB DUP2 DUP6 DUP8 GAS CALL SWAP3 POP POP POP RETURNDATASIZE DUP1 PUSH1 0x0 DUP2 EQ PUSH2 0x15E JUMPI PUSH1 0x40 MLOAD SWAP2 POP PUSH1 0x1F NOT PUSH1 0x3F RETURNDATASIZE ADD AND DUP3 ADD PUSH1 0x40 MSTORE RETURNDATASIZE DUP3 MSTORE RETURNDATASIZE PUSH1 0x0 PUSH1 0x20 DUP5 ADD RETURNDATACOPY PUSH2 0x163 JUMP JUMPDEST PUSH1 0x60 SWAP2 POP JUMPDEST POP POP SWAP1 POP DUP1 PUSH2 0x184 JUMPI PUSH1 0x40 MLOAD PUSH3 0x461BCD PUSH1 0xE5 SHL DUP2 MSTORE PUSH1 0x4 ADD PUSH2 0xFC SWAP1 PUSH2 0x253 JUMP JUMPDEST POP POP POP JUMP JUMPDEST PUSH1 0x0 PUSH1 0x20 DUP2 SWAP1 MSTORE SWAP1 DUP2 MSTORE PUSH1 0x40 SWAP1 KECCAK256 SLOAD PUSH1 0x1 PUSH1 0x1 PUSH1 0xA0 SHL SUB AND DUP2 JUMP JUMPDEST DUP1 CALLDATALOAD PUSH1 0x1 PUSH1 0x1 PUSH1 0xA0 SHL SUB DUP2 AND DUP2 EQ PUSH2 0x1BB JUMPI PUSH1 0x0 DUP1 REVERT JUMPDEST SWAP2 SWAP1 POP JUMP JUMPDEST PUSH1 0x0 PUSH1 0x20 DUP3 DUP5 SUB SLT ISZERO PUSH2 0x1D1 JUMPI DUP1 DUP2 REVERT JUMPDEST PUSH2 0x1DA DUP3 PUSH2 0x1A4 JUMP JUMPDEST SWAP4 SWAP3 POP POP POP JUMP JUMPDEST PUSH1 0x0 DUP1 PUSH1 0x40 DUP4 DUP6 SUB SLT ISZERO PUSH2 0x1F3 JUMPI DUP1 DUP2 REVERT JUMPDEST PUSH2 0x1FC DUP4 PUSH2 0x1A4 JUMP JUMPDEST SWAP2 POP PUSH2 0x20A PUSH1 0x20 DUP5 ADD PUSH2 0x1A4 JUMP JUMPDEST SWAP1 POP SWAP3 POP SWAP3 SWAP1 POP JUMP JUMPDEST PUSH1 0x0 DUP1 PUSH1 0x40 DUP4 DUP6 SUB SLT ISZERO PUSH2 0x225 JUMPI DUP2 DUP3 REVERT JUMPDEST PUSH2 0x22E DUP4 PUSH2 0x1A4 JUMP JUMPDEST SWAP5 PUSH1 0x20 SWAP4 SWAP1 SWAP4 ADD CALLDATALOAD SWAP4 POP POP POP JUMP JUMPDEST SWAP1 JUMP JUMPDEST PUSH1 0x1 PUSH1 0x1 PUSH1 0xA0 SHL SUB SWAP2 SWAP1 SWAP2 AND DUP2 MSTORE PUSH1 0x20 ADD SWAP1 JUMP JUMPDEST PUSH1 0x20 DUP1 DUP3 MSTORE PUSH1 0x31 SWAP1 DUP3 ADD MSTORE PUSH32 0x4C314772617068546F6B656E4C6F636B5472616E73666572546F6F6C4D6F636B PUSH1 0x40 DUP3 ADD MSTORE PUSH17 0xE88115512081C1D5B1B0819985A5B1959 PUSH1 0x7A SHL PUSH1 0x60 DUP3 ADD MSTORE PUSH1 0x80 ADD SWAP1 JUMP JUMPDEST PUSH1 0x20 DUP1 DUP3 MSTORE PUSH1 0x33 SWAP1 DUP3 ADD MSTORE PUSH32 0x4C314772617068546F6B656E4C6F636B5472616E73666572546F6F6C4D6F636B PUSH1 0x40 DUP3 ADD MSTORE PUSH19 0xE881D5B9ADB9BDDDB88130C481DD85B1B195D PUSH1 0x6A SHL PUSH1 0x60 DUP3 ADD MSTORE PUSH1 0x80 ADD SWAP1 JUMP INVALID LOG2 PUSH5 0x6970667358 0x22 SLT KECCAK256 0xD3 0xDE 0x2F DUP8 0xA5 PUSH2 0x2151 0xB4 0xF8 CODESIZE DIV MSTORE PUSH25 0x61922E9B6BF0BC1A72620C1FD7807ED8830B64736F6C634300 SMOD MOD STOP CALLER "},"methodIdentifiers":{"l2WalletAddress(address)":"e7db8309","pullETH(address,uint256)":"8f8295f7","setL2WalletAddress(address,address)":"4a830de5"}},"storageLayout":{"storage":[{"astId":6,"contract":"contracts/tests/L1GraphTokenLockTransferToolBadMock.sol:L1GraphTokenLockTransferToolBadMock","label":"l2WalletAddress","offset":0,"slot":"0","type":"t_mapping(t_address,t_address)"}],"types":{"t_address":{"encoding":"inplace","label":"address","numberOfBytes":"20"},"t_mapping(t_address,t_address)":{"encoding":"mapping","key":"t_address","label":"mapping(address => address)","numberOfBytes":"32","value":"t_address"}}}}}}