{
  "contracts/tests/RewardsManagerMock.sol": {
    "RewardsManagerMock": {
      "abi": [
        {
          "inputs": [
            {
              "internalType": "uint256",
              "name": "x",
              "type": "uint256"
            },
            {
              "internalType": "uint256",
              "name": "n",
              "type": "uint256"
            },
            {
              "internalType": "uint256",
              "name": "base",
              "type": "uint256"
            }
          ],
          "name": "pow",
          "outputs": [
            {
              "internalType": "uint256",
              "name": "z",
              "type": "uint256"
            }
          ],
          "stateMutability": "pure",
          "type": "function"
        }
      ],
      "evm": {
        "bytecode": {
          "linkReferences": {},
          "object": "608060405234801561001057600080fd5b50610181806100206000396000f3fe608060405234801561001057600080fd5b506004361061002b5760003560e01c806314732b7114610030575b600080fd5b61004361003e366004610117565b610059565b6040516100509190610142565b60405180910390f35b60008380156100f95760018416801561007457859250610078565b8392505b50600283046002850494505b84156100f357858602868782041461009b57600080fd5b818101818110156100ab57600080fd5b85900496505060018516156100e85785830283878204141587151516156100d157600080fd5b818101818110156100e157600080fd5b8590049350505b600285049450610084565b5061010f565b838015610109576000925061010d565b8392505b505b509392505050565b60008060006060848603121561012b578283fd5b505081359360208301359350604090920135919050565b9081526020019056fea2646970667358221220a724226a1e9cc4517fc1f562b901a49183c2c3daf1eb5893e494825ebf7b1e5364736f6c63430007040033",
          "opcodes": "PUSH1 0x80 PUSH1 0x40 MSTORE CALLVALUE DUP1 ISZERO PUSH2 0x10 JUMPI PUSH1 0x0 DUP1 REVERT JUMPDEST POP PUSH2 0x181 DUP1 PUSH2 0x20 PUSH1 0x0 CODECOPY PUSH1 0x0 RETURN INVALID PUSH1 0x80 PUSH1 0x40 MSTORE CALLVALUE DUP1 ISZERO PUSH2 0x10 JUMPI PUSH1 0x0 DUP1 REVERT JUMPDEST POP PUSH1 0x4 CALLDATASIZE LT PUSH2 0x2B JUMPI PUSH1 0x0 CALLDATALOAD PUSH1 0xE0 SHR DUP1 PUSH4 0x14732B71 EQ PUSH2 0x30 JUMPI JUMPDEST PUSH1 0x0 DUP1 REVERT JUMPDEST PUSH2 0x43 PUSH2 0x3E CALLDATASIZE PUSH1 0x4 PUSH2 0x117 JUMP JUMPDEST PUSH2 0x59 JUMP JUMPDEST PUSH1 0x40 MLOAD PUSH2 0x50 SWAP2 SWAP1 PUSH2 0x142 JUMP JUMPDEST PUSH1 0x40 MLOAD DUP1 SWAP2 SUB SWAP1 RETURN JUMPDEST PUSH1 0x0 DUP4 DUP1 ISZERO PUSH2 0xF9 JUMPI PUSH1 0x1 DUP5 AND DUP1 ISZERO PUSH2 0x74 JUMPI DUP6 SWAP3 POP PUSH2 0x78 JUMP JUMPDEST DUP4 SWAP3 POP JUMPDEST POP PUSH1 0x2 DUP4 DIV PUSH1 0x2 DUP6 DIV SWAP5 POP JUMPDEST DUP5 ISZERO PUSH2 0xF3 JUMPI DUP6 DUP7 MUL DUP7 DUP8 DUP3 DIV EQ PUSH2 0x9B JUMPI PUSH1 0x0 DUP1 REVERT JUMPDEST DUP2 DUP2 ADD DUP2 DUP2 LT ISZERO PUSH2 0xAB JUMPI PUSH1 0x0 DUP1 REVERT JUMPDEST DUP6 SWAP1 DIV SWAP7 POP POP PUSH1 0x1 DUP6 AND ISZERO PUSH2 0xE8 JUMPI DUP6 DUP4 MUL DUP4 DUP8 DUP3 DIV EQ ISZERO DUP8 ISZERO ISZERO AND ISZERO PUSH2 0xD1 JUMPI PUSH1 0x0 DUP1 REVERT JUMPDEST DUP2 DUP2 ADD DUP2 DUP2 LT ISZERO PUSH2 0xE1 JUMPI PUSH1 0x0 DUP1 REVERT JUMPDEST DUP6 SWAP1 DIV SWAP4 POP POP JUMPDEST PUSH1 0x2 DUP6 DIV SWAP5 POP PUSH2 0x84 JUMP JUMPDEST POP PUSH2 0x10F JUMP JUMPDEST DUP4 DUP1 ISZERO PUSH2 0x109 JUMPI PUSH1 0x0 SWAP3 POP PUSH2 0x10D JUMP JUMPDEST DUP4 SWAP3 POP JUMPDEST POP JUMPDEST POP SWAP4 SWAP3 POP POP POP JUMP JUMPDEST PUSH1 0x0 DUP1 PUSH1 0x0 PUSH1 0x60 DUP5 DUP7 SUB SLT ISZERO PUSH2 0x12B JUMPI DUP3 DUP4 REVERT JUMPDEST POP POP DUP2 CALLDATALOAD SWAP4 PUSH1 0x20 DUP4 ADD CALLDATALOAD SWAP4 POP PUSH1 0x40 SWAP1 SWAP3 ADD CALLDATALOAD SWAP2 SWAP1 POP JUMP JUMPDEST SWAP1 DUP2 MSTORE PUSH1 0x20 ADD SWAP1 JUMP INVALID LOG2 PUSH5 0x6970667358 0x22 SLT KECCAK256 0xA7 0x24 0x22 PUSH11 0x1E9CC4517FC1F562B901A4 SWAP2 DUP4 0xC2 0xC3 0xDA CALL 0xEB PC SWAP4 0xE4 SWAP5 DUP3 0x5E 0xBF PUSH28 0x1E5364736F6C63430007040033000000000000000000000000000000 "
        },
        "methodIdentifiers": {
          "pow(uint256,uint256,uint256)": "14732b71"
        }
      }
    }
  }
}