{
  "contracts/upgrades/GraphProxy.sol": {
    "GraphProxy": {
      "abi": [
        {
          "inputs": [
            {
              "internalType": "address",
              "name": "_impl",
              "type": "address"
            },
            {
              "internalType": "address",
              "name": "_admin",
              "type": "address"
            }
          ],
          "stateMutability": "nonpayable",
          "type": "constructor"
        },
        {
          "anonymous": false,
          "inputs": [
            {
              "indexed": true,
              "internalType": "address",
              "name": "oldAdmin",
              "type": "address"
            },
            {
              "indexed": true,
              "internalType": "address",
              "name": "newAdmin",
              "type": "address"
            }
          ],
          "name": "AdminUpdated",
          "type": "event"
        },
        {
          "anonymous": false,
          "inputs": [
            {
              "indexed": true,
              "internalType": "address",
              "name": "oldImplementation",
              "type": "address"
            },
            {
              "indexed": true,
              "internalType": "address",
              "name": "newImplementation",
              "type": "address"
            }
          ],
          "name": "ImplementationUpdated",
          "type": "event"
        },
        {
          "anonymous": false,
          "inputs": [
            {
              "indexed": true,
              "internalType": "address",
              "name": "oldPendingImplementation",
              "type": "address"
            },
            {
              "indexed": true,
              "internalType": "address",
              "name": "newPendingImplementation",
              "type": "address"
            }
          ],
          "name": "PendingImplementationUpdated",
          "type": "event"
        },
        {
          "stateMutability": "payable",
          "type": "fallback"
        },
        {
          "inputs": [],
          "name": "acceptUpgrade",
          "outputs": [],
          "stateMutability": "nonpayable",
          "type": "function"
        },
        {
          "inputs": [
            {
              "internalType": "bytes",
              "name": "data",
              "type": "bytes"
            }
          ],
          "name": "acceptUpgradeAndCall",
          "outputs": [],
          "stateMutability": "nonpayable",
          "type": "function"
        },
        {
          "inputs": [],
          "name": "admin",
          "outputs": [
            {
              "internalType": "address",
              "name": "",
              "type": "address"
            }
          ],
          "stateMutability": "nonpayable",
          "type": "function"
        },
        {
          "inputs": [],
          "name": "implementation",
          "outputs": [
            {
              "internalType": "address",
              "name": "",
              "type": "address"
            }
          ],
          "stateMutability": "nonpayable",
          "type": "function"
        },
        {
          "inputs": [],
          "name": "pendingImplementation",
          "outputs": [
            {
              "internalType": "address",
              "name": "",
              "type": "address"
            }
          ],
          "stateMutability": "nonpayable",
          "type": "function"
        },
        {
          "inputs": [
            {
              "internalType": "address",
              "name": "_newAdmin",
              "type": "address"
            }
          ],
          "name": "setAdmin",
          "outputs": [],
          "stateMutability": "nonpayable",
          "type": "function"
        },
        {
          "inputs": [
            {
              "internalType": "address",
              "name": "_newImplementation",
              "type": "address"
            }
          ],
          "name": "upgradeTo",
          "outputs": [],
          "stateMutability": "nonpayable",
          "type": "function"
        },
        {
          "stateMutability": "payable",
          "type": "receive"
        }
      ],
      "evm": {
        "bytecode": {
          "linkReferences": {},
          "object": "608060405234801561001057600080fd5b50604051610a2c380380610a2c8339818101604052604081101561003357600080fd5b50805160209091015161004581610055565b61004e826100b2565b5050610136565b6000805160206109ec8339815191528181556001600160a01b038216610079610110565b6001600160a01b03167f101b8081ff3b56bbf45deb824d86a3b0fd38b7e3dd42421105cf8abe9106db0b60405160405180910390a35050565b60006100bc610123565b600080516020610a0c833981519152838155604051919250906001600160a01b0380851691908416907f980c0d30fe97457c47903527d88b7009a1643be6de24d2af664214919f0540a190600090a3505050565b6000805160206109ec8339815191525490565b600080516020610a0c8339815191525490565b6108a7806101456000396000f3fe6080604052600436106100745760003560e01c80635c60da1b1161004e5780635c60da1b14610104578063623faf6114610119578063704b6c0214610196578063f851a440146101c957610083565b80633659cfe61461008b578063396f7b23146100be57806359fc20bb146100ef57610083565b36610083576100816101de565b005b6100816101de565b34801561009757600080fd5b50610081600480360360208110156100ae57600080fd5b50356001600160a01b031661029e565b3480156100ca57600080fd5b506100d36102d8565b604080516001600160a01b039092168252519081900360200190f35b3480156100fb57600080fd5b50610081610338565b34801561011057600080fd5b506100d3610393565b34801561012557600080fd5b506100816004803603602081101561013c57600080fd5b81019060208101813564010000000081111561015757600080fd5b82018360208201111561016957600080fd5b8035906020019184600183028401116401000000008311171561018b57600080fd5b5090925090506103e1565b3480156101a257600080fd5b50610081600480360360208110156101b957600080fd5b50356001600160a01b03166104b6565b3480156101d557600080fd5b506100d3610525565b6101e661056f565b6001600160a01b0316336001600160a01b0316141561024c576040805162461bcd60e51b815260206004820152601f60248201527f43616e6e6f742066616c6c6261636b20746f2070726f78792074617267657400604482015290519081900360640190fd5b6040516001600160a01b037f360894a13ba1a3210667c828492db98dca3e2076cc3735a920a3ca505d382bbc541636600083376000803684845af490503d806000843e81801561029a578184f35b8184fd5b6102a661056f565b6001600160a01b0316336001600160a01b031614156102cd576102c881610594565b6102d5565b6102d56101de565b50565b60006102e261056f565b6001600160a01b0316336001600160a01b031614806103195750610304610604565b6001600160a01b0316336001600160a01b0316145b1561032d57610326610604565b9050610335565b6103356101de565b90565b61034061056f565b6001600160a01b0316336001600160a01b031614806103775750610362610604565b6001600160a01b0316336001600160a01b0316145b1561038957610384610629565b610391565b6103916101de565b565b600061039d61056f565b6001600160a01b0316336001600160a01b031614806103d457506103bf610604565b6001600160a01b0316336001600160a01b0316145b1561032d576103266106e7565b6103e961056f565b6001600160a01b0316336001600160a01b03161480610420575061040b610604565b6001600160a01b0316336001600160a01b0316145b156104aa5761042d610629565b60006104376106e7565b6001600160a01b031683836040518083838082843760405192019450600093509091505080830381855af49150503d8060008114610491576040519150601f19603f3d011682016040523d82523d6000602084013e610496565b606091505b50509050806104a457600080fd5b506104b2565b6104b26101de565b5050565b6104be61056f565b6001600160a01b0316336001600160a01b031614156102cd576001600160a01b03811661051c5760405162461bcd60e51b81526004018080602001828103825260368152602001806108136036913960400191505060405180910390fd5b6102c88161070c565b600061052f61056f565b6001600160a01b0316336001600160a01b031614806105665750610551610604565b6001600160a01b0316336001600160a01b0316145b1561032d576103265b7fb53127684a568b3173ae13b9f8a6016e243e63b6e8ee1178d6a717850b5d61035490565b600061059e610604565b7f9e5eddc59e0b171f57125ab86bee043d9128098c3a6b9adb4f2e86333c2f6f8c838155604051919250906001600160a01b0380851691908416907f980c0d30fe97457c47903527d88b7009a1643be6de24d2af664214919f0540a190600090a3505050565b7f9e5eddc59e0b171f57125ab86bee043d9128098c3a6b9adb4f2e86333c2f6f8c5490565b6000610633610604565b905061063e8161077b565b6106795760405162461bcd60e51b81526004018080602001828103825260218152602001806107f26021913960400191505060405180910390fd5b6001600160a01b038116158015906106995750336001600160a01b038216145b6106d45760405162461bcd60e51b81526004018080602001828103825260298152602001806108496029913960400191505060405180910390fd5b6106dd81610781565b6102d56000610594565b7f360894a13ba1a3210667c828492db98dca3e2076cc3735a920a3ca505d382bbc5490565b7fb53127684a568b3173ae13b9f8a6016e243e63b6e8ee1178d6a717850b5d61038181556001600160a01b03821661074261056f565b6001600160a01b03167f101b8081ff3b56bbf45deb824d86a3b0fd38b7e3dd42421105cf8abe9106db0b60405160405180910390a35050565b3b151590565b600061078b6106e7565b7f360894a13ba1a3210667c828492db98dca3e2076cc3735a920a3ca505d382bbc838155604051919250906001600160a01b0380851691908416907faa3f731066a578e5f39b4215468d826cdd15373cbc0dfc9cb9bdc649718ef7da90600090a350505056fe496d706c656d656e746174696f6e206d757374206265206120636f6e747261637443616e6e6f74206368616e6765207468652061646d696e206f6620612070726f787920746f20746865207a65726f206164647265737343616c6c6572206d757374206265207468652070656e64696e6720696d706c656d656e746174696f6ea2646970667358221220d5702268eb0bd49c4c39422d4b7d19026500c9412ce38365aae2d440f1aedd2a64736f6c63430007040033b53127684a568b3173ae13b9f8a6016e243e63b6e8ee1178d6a717850b5d61039e5eddc59e0b171f57125ab86bee043d9128098c3a6b9adb4f2e86333c2f6f8c",
          "opcodes": "PUSH1 0x80 PUSH1 0x40 MSTORE CALLVALUE DUP1 ISZERO PUSH2 0x10 JUMPI PUSH1 0x0 DUP1 REVERT JUMPDEST POP PUSH1 0x40 MLOAD PUSH2 0xA2C CODESIZE SUB DUP1 PUSH2 0xA2C DUP4 CODECOPY DUP2 DUP2 ADD PUSH1 0x40 MSTORE PUSH1 0x40 DUP2 LT ISZERO PUSH2 0x33 JUMPI PUSH1 0x0 DUP1 REVERT JUMPDEST POP DUP1 MLOAD PUSH1 0x20 SWAP1 SWAP2 ADD MLOAD PUSH2 0x45 DUP2 PUSH2 0x55 JUMP JUMPDEST PUSH2 0x4E DUP3 PUSH2 0xB2 JUMP JUMPDEST POP POP PUSH2 0x136 JUMP JUMPDEST PUSH1 0x0 DUP1 MLOAD PUSH1 0x20 PUSH2 0x9EC DUP4 CODECOPY DUP2 MLOAD SWAP2 MSTORE DUP2 DUP2 SSTORE PUSH1 0x1 PUSH1 0x1 PUSH1 0xA0 SHL SUB DUP3 AND PUSH2 0x79 PUSH2 0x110 JUMP JUMPDEST PUSH1 0x1 PUSH1 0x1 PUSH1 0xA0 SHL SUB AND PUSH32 0x101B8081FF3B56BBF45DEB824D86A3B0FD38B7E3DD42421105CF8ABE9106DB0B PUSH1 0x40 MLOAD PUSH1 0x40 MLOAD DUP1 SWAP2 SUB SWAP1 LOG3 POP POP JUMP JUMPDEST PUSH1 0x0 PUSH2 0xBC PUSH2 0x123 JUMP JUMPDEST PUSH1 0x0 DUP1 MLOAD PUSH1 0x20 PUSH2 0xA0C DUP4 CODECOPY DUP2 MLOAD SWAP2 MSTORE DUP4 DUP2 SSTORE PUSH1 0x40 MLOAD SWAP2 SWAP3 POP SWAP1 PUSH1 0x1 PUSH1 0x1 PUSH1 0xA0 SHL SUB DUP1 DUP6 AND SWAP2 SWAP1 DUP5 AND SWAP1 PUSH32 0x980C0D30FE97457C47903527D88B7009A1643BE6DE24D2AF664214919F0540A1 SWAP1 PUSH1 0x0 SWAP1 LOG3 POP POP POP JUMP JUMPDEST PUSH1 0x0 DUP1 MLOAD PUSH1 0x20 PUSH2 0x9EC DUP4 CODECOPY DUP2 MLOAD SWAP2 MSTORE SLOAD SWAP1 JUMP JUMPDEST PUSH1 0x0 DUP1 MLOAD PUSH1 0x20 PUSH2 0xA0C DUP4 CODECOPY DUP2 MLOAD SWAP2 MSTORE SLOAD SWAP1 JUMP JUMPDEST PUSH2 0x8A7 DUP1 PUSH2 0x145 PUSH1 0x0 CODECOPY PUSH1 0x0 RETURN INVALID PUSH1 0x80 PUSH1 0x40 MSTORE PUSH1 0x4 CALLDATASIZE LT PUSH2 0x74 JUMPI PUSH1 0x0 CALLDATALOAD PUSH1 0xE0 SHR DUP1 PUSH4 0x5C60DA1B GT PUSH2 0x4E JUMPI DUP1 PUSH4 0x5C60DA1B EQ PUSH2 0x104 JUMPI DUP1 PUSH4 0x623FAF61 EQ PUSH2 0x119 JUMPI DUP1 PUSH4 0x704B6C02 EQ PUSH2 0x196 JUMPI DUP1 PUSH4 0xF851A440 EQ PUSH2 0x1C9 JUMPI PUSH2 0x83 JUMP JUMPDEST DUP1 PUSH4 0x3659CFE6 EQ PUSH2 0x8B JUMPI DUP1 PUSH4 0x396F7B23 EQ PUSH2 0xBE JUMPI DUP1 PUSH4 0x59FC20BB EQ PUSH2 0xEF JUMPI PUSH2 0x83 JUMP JUMPDEST CALLDATASIZE PUSH2 0x83 JUMPI PUSH2 0x81 PUSH2 0x1DE JUMP JUMPDEST STOP JUMPDEST PUSH2 0x81 PUSH2 0x1DE JUMP JUMPDEST CALLVALUE DUP1 ISZERO PUSH2 0x97 JUMPI PUSH1 0x0 DUP1 REVERT JUMPDEST POP PUSH2 0x81 PUSH1 0x4 DUP1 CALLDATASIZE SUB PUSH1 0x20 DUP2 LT ISZERO PUSH2 0xAE JUMPI PUSH1 0x0 DUP1 REVERT JUMPDEST POP CALLDATALOAD PUSH1 0x1 PUSH1 0x1 PUSH1 0xA0 SHL SUB AND PUSH2 0x29E JUMP JUMPDEST CALLVALUE DUP1 ISZERO PUSH2 0xCA JUMPI PUSH1 0x0 DUP1 REVERT JUMPDEST POP PUSH2 0xD3 PUSH2 0x2D8 JUMP JUMPDEST PUSH1 0x40 DUP1 MLOAD PUSH1 0x1 PUSH1 0x1 PUSH1 0xA0 SHL SUB SWAP1 SWAP3 AND DUP3 MSTORE MLOAD SWAP1 DUP2 SWAP1 SUB PUSH1 0x20 ADD SWAP1 RETURN JUMPDEST CALLVALUE DUP1 ISZERO PUSH2 0xFB JUMPI PUSH1 0x0 DUP1 REVERT JUMPDEST POP PUSH2 0x81 PUSH2 0x338 JUMP JUMPDEST CALLVALUE DUP1 ISZERO PUSH2 0x110 JUMPI PUSH1 0x0 DUP1 REVERT JUMPDEST POP PUSH2 0xD3 PUSH2 0x393 JUMP JUMPDEST CALLVALUE DUP1 ISZERO PUSH2 0x125 JUMPI PUSH1 0x0 DUP1 REVERT JUMPDEST POP PUSH2 0x81 PUSH1 0x4 DUP1 CALLDATASIZE SUB PUSH1 0x20 DUP2 LT ISZERO PUSH2 0x13C JUMPI PUSH1 0x0 DUP1 REVERT JUMPDEST DUP2 ADD SWAP1 PUSH1 0x20 DUP2 ADD DUP2 CALLDATALOAD PUSH5 0x100000000 DUP2 GT ISZERO PUSH2 0x157 JUMPI PUSH1 0x0 DUP1 REVERT JUMPDEST DUP3 ADD DUP4 PUSH1 0x20 DUP3 ADD GT ISZERO PUSH2 0x169 JUMPI PUSH1 0x0 DUP1 REVERT JUMPDEST DUP1 CALLDATALOAD SWAP1 PUSH1 0x20 ADD SWAP2 DUP5 PUSH1 0x1 DUP4 MUL DUP5 ADD GT PUSH5 0x100000000 DUP4 GT OR ISZERO PUSH2 0x18B JUMPI PUSH1 0x0 DUP1 REVERT JUMPDEST POP SWAP1 SWAP3 POP SWAP1 POP PUSH2 0x3E1 JUMP JUMPDEST CALLVALUE DUP1 ISZERO PUSH2 0x1A2 JUMPI PUSH1 0x0 DUP1 REVERT JUMPDEST POP PUSH2 0x81 PUSH1 0x4 DUP1 CALLDATASIZE SUB PUSH1 0x20 DUP2 LT ISZERO PUSH2 0x1B9 JUMPI PUSH1 0x0 DUP1 REVERT JUMPDEST POP CALLDATALOAD PUSH1 0x1 PUSH1 0x1 PUSH1 0xA0 SHL SUB AND PUSH2 0x4B6 JUMP JUMPDEST CALLVALUE DUP1 ISZERO PUSH2 0x1D5 JUMPI PUSH1 0x0 DUP1 REVERT JUMPDEST POP PUSH2 0xD3 PUSH2 0x525 JUMP JUMPDEST PUSH2 0x1E6 PUSH2 0x56F JUMP JUMPDEST PUSH1 0x1 PUSH1 0x1 PUSH1 0xA0 SHL SUB AND CALLER PUSH1 0x1 PUSH1 0x1 PUSH1 0xA0 SHL SUB AND EQ ISZERO PUSH2 0x24C JUMPI PUSH1 0x40 DUP1 MLOAD PUSH3 0x461BCD PUSH1 0xE5 SHL DUP2 MSTORE PUSH1 0x20 PUSH1 0x4 DUP3 ADD MSTORE PUSH1 0x1F PUSH1 0x24 DUP3 ADD MSTORE PUSH32 0x43616E6E6F742066616C6C6261636B20746F2070726F78792074617267657400 PUSH1 0x44 DUP3 ADD MSTORE SWAP1 MLOAD SWAP1 DUP2 SWAP1 SUB PUSH1 0x64 ADD SWAP1 REVERT JUMPDEST PUSH1 0x40 MLOAD PUSH1 0x1 PUSH1 0x1 PUSH1 0xA0 SHL SUB PUSH32 0x360894A13BA1A3210667C828492DB98DCA3E2076CC3735A920A3CA505D382BBC SLOAD AND CALLDATASIZE PUSH1 0x0 DUP4 CALLDATACOPY PUSH1 0x0 DUP1 CALLDATASIZE DUP5 DUP5 GAS DELEGATECALL SWAP1 POP RETURNDATASIZE DUP1 PUSH1 0x0 DUP5 RETURNDATACOPY DUP2 DUP1 ISZERO PUSH2 0x29A JUMPI DUP2 DUP5 RETURN JUMPDEST DUP2 DUP5 REVERT JUMPDEST PUSH2 0x2A6 PUSH2 0x56F JUMP JUMPDEST PUSH1 0x1 PUSH1 0x1 PUSH1 0xA0 SHL SUB AND CALLER PUSH1 0x1 PUSH1 0x1 PUSH1 0xA0 SHL SUB AND EQ ISZERO PUSH2 0x2CD JUMPI PUSH2 0x2C8 DUP2 PUSH2 0x594 JUMP JUMPDEST PUSH2 0x2D5 JUMP JUMPDEST PUSH2 0x2D5 PUSH2 0x1DE JUMP JUMPDEST POP JUMP JUMPDEST PUSH1 0x0 PUSH2 0x2E2 PUSH2 0x56F JUMP JUMPDEST PUSH1 0x1 PUSH1 0x1 PUSH1 0xA0 SHL SUB AND CALLER PUSH1 0x1 PUSH1 0x1 PUSH1 0xA0 SHL SUB AND EQ DUP1 PUSH2 0x319 JUMPI POP PUSH2 0x304 PUSH2 0x604 JUMP JUMPDEST PUSH1 0x1 PUSH1 0x1 PUSH1 0xA0 SHL SUB AND CALLER PUSH1 0x1 PUSH1 0x1 PUSH1 0xA0 SHL SUB AND EQ JUMPDEST ISZERO PUSH2 0x32D JUMPI PUSH2 0x326 PUSH2 0x604 JUMP JUMPDEST SWAP1 POP PUSH2 0x335 JUMP JUMPDEST PUSH2 0x335 PUSH2 0x1DE JUMP JUMPDEST SWAP1 JUMP JUMPDEST PUSH2 0x340 PUSH2 0x56F JUMP JUMPDEST PUSH1 0x1 PUSH1 0x1 PUSH1 0xA0 SHL SUB AND CALLER PUSH1 0x1 PUSH1 0x1 PUSH1 0xA0 SHL SUB AND EQ DUP1 PUSH2 0x377 JUMPI POP PUSH2 0x362 PUSH2 0x604 JUMP JUMPDEST PUSH1 0x1 PUSH1 0x1 PUSH1 0xA0 SHL SUB AND CALLER PUSH1 0x1 PUSH1 0x1 PUSH1 0xA0 SHL SUB AND EQ JUMPDEST ISZERO PUSH2 0x389 JUMPI PUSH2 0x384 PUSH2 0x629 JUMP JUMPDEST PUSH2 0x391 JUMP JUMPDEST PUSH2 0x391 PUSH2 0x1DE JUMP JUMPDEST JUMP JUMPDEST PUSH1 0x0 PUSH2 0x39D PUSH2 0x56F JUMP JUMPDEST PUSH1 0x1 PUSH1 0x1 PUSH1 0xA0 SHL SUB AND CALLER PUSH1 0x1 PUSH1 0x1 PUSH1 0xA0 SHL SUB AND EQ DUP1 PUSH2 0x3D4 JUMPI POP PUSH2 0x3BF PUSH2 0x604 JUMP JUMPDEST PUSH1 0x1 PUSH1 0x1 PUSH1 0xA0 SHL SUB AND CALLER PUSH1 0x1 PUSH1 0x1 PUSH1 0xA0 SHL SUB AND EQ JUMPDEST ISZERO PUSH2 0x32D JUMPI PUSH2 0x326 PUSH2 0x6E7 JUMP JUMPDEST PUSH2 0x3E9 PUSH2 0x56F JUMP JUMPDEST PUSH1 0x1 PUSH1 0x1 PUSH1 0xA0 SHL SUB AND CALLER PUSH1 0x1 PUSH1 0x1 PUSH1 0xA0 SHL SUB AND EQ DUP1 PUSH2 0x420 JUMPI POP PUSH2 0x40B PUSH2 0x604 JUMP JUMPDEST PUSH1 0x1 PUSH1 0x1 PUSH1 0xA0 SHL SUB AND CALLER PUSH1 0x1 PUSH1 0x1 PUSH1 0xA0 SHL SUB AND EQ JUMPDEST ISZERO PUSH2 0x4AA JUMPI PUSH2 0x42D PUSH2 0x629 JUMP JUMPDEST PUSH1 0x0 PUSH2 0x437 PUSH2 0x6E7 JUMP JUMPDEST PUSH1 0x1 PUSH1 0x1 PUSH1 0xA0 SHL SUB AND DUP4 DUP4 PUSH1 0x40 MLOAD DUP1 DUP4 DUP4 DUP1 DUP3 DUP5 CALLDATACOPY PUSH1 0x40 MLOAD SWAP3 ADD SWAP5 POP PUSH1 0x0 SWAP4 POP SWAP1 SWAP2 POP POP DUP1 DUP4 SUB DUP2 DUP6 GAS DELEGATECALL SWAP2 POP POP RETURNDATASIZE DUP1 PUSH1 0x0 DUP2 EQ PUSH2 0x491 JUMPI PUSH1 0x40 MLOAD SWAP2 POP PUSH1 0x1F NOT PUSH1 0x3F RETURNDATASIZE ADD AND DUP3 ADD PUSH1 0x40 MSTORE RETURNDATASIZE DUP3 MSTORE RETURNDATASIZE PUSH1 0x0 PUSH1 0x20 DUP5 ADD RETURNDATACOPY PUSH2 0x496 JUMP JUMPDEST PUSH1 0x60 SWAP2 POP JUMPDEST POP POP SWAP1 POP DUP1 PUSH2 0x4A4 JUMPI PUSH1 0x0 DUP1 REVERT JUMPDEST POP PUSH2 0x4B2 JUMP JUMPDEST PUSH2 0x4B2 PUSH2 0x1DE JUMP JUMPDEST POP POP JUMP JUMPDEST PUSH2 0x4BE PUSH2 0x56F JUMP JUMPDEST PUSH1 0x1 PUSH1 0x1 PUSH1 0xA0 SHL SUB AND CALLER PUSH1 0x1 PUSH1 0x1 PUSH1 0xA0 SHL SUB AND EQ ISZERO PUSH2 0x2CD JUMPI PUSH1 0x1 PUSH1 0x1 PUSH1 0xA0 SHL SUB DUP2 AND PUSH2 0x51C JUMPI PUSH1 0x40 MLOAD PUSH3 0x461BCD PUSH1 0xE5 SHL DUP2 MSTORE PUSH1 0x4 ADD DUP1 DUP1 PUSH1 0x20 ADD DUP3 DUP2 SUB DUP3 MSTORE PUSH1 0x36 DUP2 MSTORE PUSH1 0x20 ADD DUP1 PUSH2 0x813 PUSH1 0x36 SWAP2 CODECOPY PUSH1 0x40 ADD SWAP2 POP POP PUSH1 0x40 MLOAD DUP1 SWAP2 SUB SWAP1 REVERT JUMPDEST PUSH2 0x2C8 DUP2 PUSH2 0x70C JUMP JUMPDEST PUSH1 0x0 PUSH2 0x52F PUSH2 0x56F JUMP JUMPDEST PUSH1 0x1 PUSH1 0x1 PUSH1 0xA0 SHL SUB AND CALLER PUSH1 0x1 PUSH1 0x1 PUSH1 0xA0 SHL SUB AND EQ DUP1 PUSH2 0x566 JUMPI POP PUSH2 0x551 PUSH2 0x604 JUMP JUMPDEST PUSH1 0x1 PUSH1 0x1 PUSH1 0xA0 SHL SUB AND CALLER PUSH1 0x1 PUSH1 0x1 PUSH1 0xA0 SHL SUB AND EQ JUMPDEST ISZERO PUSH2 0x32D JUMPI PUSH2 0x326 JUMPDEST PUSH32 0xB53127684A568B3173AE13B9F8A6016E243E63B6E8EE1178D6A717850B5D6103 SLOAD SWAP1 JUMP JUMPDEST PUSH1 0x0 PUSH2 0x59E PUSH2 0x604 JUMP JUMPDEST PUSH32 0x9E5EDDC59E0B171F57125AB86BEE043D9128098C3A6B9ADB4F2E86333C2F6F8C DUP4 DUP2 SSTORE PUSH1 0x40 MLOAD SWAP2 SWAP3 POP SWAP1 PUSH1 0x1 PUSH1 0x1 PUSH1 0xA0 SHL SUB DUP1 DUP6 AND SWAP2 SWAP1 DUP5 AND SWAP1 PUSH32 0x980C0D30FE97457C47903527D88B7009A1643BE6DE24D2AF664214919F0540A1 SWAP1 PUSH1 0x0 SWAP1 LOG3 POP POP POP JUMP JUMPDEST PUSH32 0x9E5EDDC59E0B171F57125AB86BEE043D9128098C3A6B9ADB4F2E86333C2F6F8C SLOAD SWAP1 JUMP JUMPDEST PUSH1 0x0 PUSH2 0x633 PUSH2 0x604 JUMP JUMPDEST SWAP1 POP PUSH2 0x63E DUP2 PUSH2 0x77B JUMP JUMPDEST PUSH2 0x679 JUMPI PUSH1 0x40 MLOAD PUSH3 0x461BCD PUSH1 0xE5 SHL DUP2 MSTORE PUSH1 0x4 ADD DUP1 DUP1 PUSH1 0x20 ADD DUP3 DUP2 SUB DUP3 MSTORE PUSH1 0x21 DUP2 MSTORE PUSH1 0x20 ADD DUP1 PUSH2 0x7F2 PUSH1 0x21 SWAP2 CODECOPY PUSH1 0x40 ADD SWAP2 POP POP PUSH1 0x40 MLOAD DUP1 SWAP2 SUB SWAP1 REVERT JUMPDEST PUSH1 0x1 PUSH1 0x1 PUSH1 0xA0 SHL SUB DUP2 AND ISZERO DUP1 ISZERO SWAP1 PUSH2 0x699 JUMPI POP CALLER PUSH1 0x1 PUSH1 0x1 PUSH1 0xA0 SHL SUB DUP3 AND EQ JUMPDEST PUSH2 0x6D4 JUMPI PUSH1 0x40 MLOAD PUSH3 0x461BCD PUSH1 0xE5 SHL DUP2 MSTORE PUSH1 0x4 ADD DUP1 DUP1 PUSH1 0x20 ADD DUP3 DUP2 SUB DUP3 MSTORE PUSH1 0x29 DUP2 MSTORE PUSH1 0x20 ADD DUP1 PUSH2 0x849 PUSH1 0x29 SWAP2 CODECOPY PUSH1 0x40 ADD SWAP2 POP POP PUSH1 0x40 MLOAD DUP1 SWAP2 SUB SWAP1 REVERT JUMPDEST PUSH2 0x6DD DUP2 PUSH2 0x781 JUMP JUMPDEST PUSH2 0x2D5 PUSH1 0x0 PUSH2 0x594 JUMP JUMPDEST PUSH32 0x360894A13BA1A3210667C828492DB98DCA3E2076CC3735A920A3CA505D382BBC SLOAD SWAP1 JUMP JUMPDEST PUSH32 0xB53127684A568B3173AE13B9F8A6016E243E63B6E8EE1178D6A717850B5D6103 DUP2 DUP2 SSTORE PUSH1 0x1 PUSH1 0x1 PUSH1 0xA0 SHL SUB DUP3 AND PUSH2 0x742 PUSH2 0x56F JUMP JUMPDEST PUSH1 0x1 PUSH1 0x1 PUSH1 0xA0 SHL SUB AND PUSH32 0x101B8081FF3B56BBF45DEB824D86A3B0FD38B7E3DD42421105CF8ABE9106DB0B PUSH1 0x40 MLOAD PUSH1 0x40 MLOAD DUP1 SWAP2 SUB SWAP1 LOG3 POP POP JUMP JUMPDEST EXTCODESIZE ISZERO ISZERO SWAP1 JUMP JUMPDEST PUSH1 0x0 PUSH2 0x78B PUSH2 0x6E7 JUMP JUMPDEST PUSH32 0x360894A13BA1A3210667C828492DB98DCA3E2076CC3735A920A3CA505D382BBC DUP4 DUP2 SSTORE PUSH1 0x40 MLOAD SWAP2 SWAP3 POP SWAP1 PUSH1 0x1 PUSH1 0x1 PUSH1 0xA0 SHL SUB DUP1 DUP6 AND SWAP2 SWAP1 DUP5 AND SWAP1 PUSH32 0xAA3F731066A578E5F39B4215468D826CDD15373CBC0DFC9CB9BDC649718EF7DA SWAP1 PUSH1 0x0 SWAP1 LOG3 POP POP POP JUMP INVALID 0x49 PUSH14 0x706C656D656E746174696F6E206D PUSH22 0x7374206265206120636F6E747261637443616E6E6F74 KECCAK256 PUSH4 0x68616E67 PUSH6 0x207468652061 PUSH5 0x6D696E206F PUSH7 0x20612070726F78 PUSH26 0x20746F20746865207A65726F206164647265737343616C6C6572 KECCAK256 PUSH14 0x757374206265207468652070656E PUSH5 0x696E672069 PUSH14 0x706C656D656E746174696F6EA264 PUSH10 0x70667358221220D57022 PUSH9 0xEB0BD49C4C39422D4B PUSH30 0x19026500C9412CE38365AAE2D440F1AEDD2A64736F6C63430007040033B5 BALANCE 0x27 PUSH9 0x4A568B3173AE13B9F8 0xA6 ADD PUSH15 0x243E63B6E8EE1178D6A717850B5D61 SUB SWAP15 0x5E 0xDD 0xC5 SWAP15 SIGNEXTEND OR 0x1F JUMPI SLT GAS 0xB8 PUSH12 0xEE043D9128098C3A6B9ADB4F 0x2E DUP7 CALLER EXTCODECOPY 0x2F PUSH16 0x8C000000000000000000000000000000 "
        },
        "methodIdentifiers": {
          "acceptUpgrade()": "59fc20bb",
          "acceptUpgradeAndCall(bytes)": "623faf61",
          "admin()": "f851a440",
          "implementation()": "5c60da1b",
          "pendingImplementation()": "396f7b23",
          "setAdmin(address)": "704b6c02",
          "upgradeTo(address)": "3659cfe6"
        }
      }
    }
  }
}