{
  "address": "0xfe69D738344050F3b4351428Ddc18577d1e4D21A",
  "abi": [
    {
      "inputs": [
        {
          "internalType": "contract IERC20",
          "name": "_graphToken",
          "type": "address"
        },
        {
          "internalType": "address",
          "name": "_masterCopy",
          "type": "address"
        }
      ],
      "stateMutability": "nonpayable",
      "type": "constructor"
    },
    {
      "anonymous": false,
      "inputs": [
        {
          "indexed": true,
          "internalType": "address",
          "name": "caller",
          "type": "address"
        },
        {
          "indexed": true,
          "internalType": "bytes4",
          "name": "sigHash",
          "type": "bytes4"
        },
        {
          "indexed": true,
          "internalType": "address",
          "name": "target",
          "type": "address"
        },
        {
          "indexed": false,
          "internalType": "string",
          "name": "signature",
          "type": "string"
        }
      ],
      "name": "FunctionCallAuth",
      "type": "event"
    },
    {
      "anonymous": false,
      "inputs": [
        {
          "indexed": true,
          "internalType": "address",
          "name": "masterCopy",
          "type": "address"
        }
      ],
      "name": "MasterCopyUpdated",
      "type": "event"
    },
    {
      "anonymous": false,
      "inputs": [
        {
          "indexed": true,
          "internalType": "address",
          "name": "previousOwner",
          "type": "address"
        },
        {
          "indexed": true,
          "internalType": "address",
          "name": "newOwner",
          "type": "address"
        }
      ],
      "name": "OwnershipTransferred",
      "type": "event"
    },
    {
      "anonymous": false,
      "inputs": [
        {
          "indexed": true,
          "internalType": "address",
          "name": "proxy",
          "type": "address"
        }
      ],
      "name": "ProxyCreated",
      "type": "event"
    },
    {
      "anonymous": false,
      "inputs": [
        {
          "indexed": true,
          "internalType": "address",
          "name": "dst",
          "type": "address"
        },
        {
          "indexed": false,
          "internalType": "bool",
          "name": "allowed",
          "type": "bool"
        }
      ],
      "name": "TokenDestinationAllowed",
      "type": "event"
    },
    {
      "anonymous": false,
      "inputs": [
        {
          "indexed": true,
          "internalType": "address",
          "name": "contractAddress",
          "type": "address"
        },
        {
          "indexed": true,
          "internalType": "bytes32",
          "name": "initHash",
          "type": "bytes32"
        },
        {
          "indexed": true,
          "internalType": "address",
          "name": "beneficiary",
          "type": "address"
        },
        {
          "indexed": false,
          "internalType": "address",
          "name": "token",
          "type": "address"
        },
        {
          "indexed": false,
          "internalType": "uint256",
          "name": "managedAmount",
          "type": "uint256"
        },
        {
          "indexed": false,
          "internalType": "uint256",
          "name": "startTime",
          "type": "uint256"
        },
        {
          "indexed": false,
          "internalType": "uint256",
          "name": "endTime",
          "type": "uint256"
        },
        {
          "indexed": false,
          "internalType": "uint256",
          "name": "periods",
          "type": "uint256"
        },
        {
          "indexed": false,
          "internalType": "uint256",
          "name": "releaseStartTime",
          "type": "uint256"
        },
        {
          "indexed": false,
          "internalType": "uint256",
          "name": "vestingCliffTime",
          "type": "uint256"
        },
        {
          "indexed": false,
          "internalType": "enum IGraphTokenLock.Revocability",
          "name": "revocable",
          "type": "uint8"
        }
      ],
      "name": "TokenLockCreated",
      "type": "event"
    },
    {
      "anonymous": false,
      "inputs": [
        {
          "indexed": true,
          "internalType": "address",
          "name": "sender",
          "type": "address"
        },
        {
          "indexed": false,
          "internalType": "uint256",
          "name": "amount",
          "type": "uint256"
        }
      ],
      "name": "TokensDeposited",
      "type": "event"
    },
    {
      "anonymous": false,
      "inputs": [
        {
          "indexed": true,
          "internalType": "address",
          "name": "sender",
          "type": "address"
        },
        {
          "indexed": false,
          "internalType": "uint256",
          "name": "amount",
          "type": "uint256"
        }
      ],
      "name": "TokensWithdrawn",
      "type": "event"
    },
    {
      "inputs": [
        {
          "internalType": "address",
          "name": "_dst",
          "type": "address"
        }
      ],
      "name": "addTokenDestination",
      "outputs": [],
      "stateMutability": "nonpayable",
      "type": "function"
    },
    {
      "inputs": [
        {
          "internalType": "bytes4",
          "name": "",
          "type": "bytes4"
        }
      ],
      "name": "authFnCalls",
      "outputs": [
        {
          "internalType": "address",
          "name": "",
          "type": "address"
        }
      ],
      "stateMutability": "view",
      "type": "function"
    },
    {
      "inputs": [
        {
          "internalType": "address",
          "name": "_owner",
          "type": "address"
        },
        {
          "internalType": "address",
          "name": "_beneficiary",
          "type": "address"
        },
        {
          "internalType": "uint256",
          "name": "_managedAmount",
          "type": "uint256"
        },
        {
          "internalType": "uint256",
          "name": "_startTime",
          "type": "uint256"
        },
        {
          "internalType": "uint256",
          "name": "_endTime",
          "type": "uint256"
        },
        {
          "internalType": "uint256",
          "name": "_periods",
          "type": "uint256"
        },
        {
          "internalType": "uint256",
          "name": "_releaseStartTime",
          "type": "uint256"
        },
        {
          "internalType": "uint256",
          "name": "_vestingCliffTime",
          "type": "uint256"
        },
        {
          "internalType": "enum IGraphTokenLock.Revocability",
          "name": "_revocable",
          "type": "uint8"
        }
      ],
      "name": "createTokenLockWallet",
      "outputs": [],
      "stateMutability": "nonpayable",
      "type": "function"
    },
    {
      "inputs": [
        {
          "internalType": "uint256",
          "name": "_amount",
          "type": "uint256"
        }
      ],
      "name": "deposit",
      "outputs": [],
      "stateMutability": "nonpayable",
      "type": "function"
    },
    {
      "inputs": [
        {
          "internalType": "bytes4",
          "name": "_sigHash",
          "type": "bytes4"
        }
      ],
      "name": "getAuthFunctionCallTarget",
      "outputs": [
        {
          "internalType": "address",
          "name": "",
          "type": "address"
        }
      ],
      "stateMutability": "view",
      "type": "function"
    },
    {
      "inputs": [
        {
          "internalType": "bytes32",
          "name": "_salt",
          "type": "bytes32"
        },
        {
          "internalType": "address",
          "name": "_implementation",
          "type": "address"
        }
      ],
      "name": "getDeploymentAddress",
      "outputs": [
        {
          "internalType": "address",
          "name": "",
          "type": "address"
        }
      ],
      "stateMutability": "view",
      "type": "function"
    },
    {
      "inputs": [],
      "name": "getTokenDestinations",
      "outputs": [
        {
          "internalType": "address[]",
          "name": "",
          "type": "address[]"
        }
      ],
      "stateMutability": "view",
      "type": "function"
    },
    {
      "inputs": [
        {
          "internalType": "bytes4",
          "name": "_sigHash",
          "type": "bytes4"
        }
      ],
      "name": "isAuthFunctionCall",
      "outputs": [
        {
          "internalType": "bool",
          "name": "",
          "type": "bool"
        }
      ],
      "stateMutability": "view",
      "type": "function"
    },
    {
      "inputs": [
        {
          "internalType": "address",
          "name": "_dst",
          "type": "address"
        }
      ],
      "name": "isTokenDestination",
      "outputs": [
        {
          "internalType": "bool",
          "name": "",
          "type": "bool"
        }
      ],
      "stateMutability": "view",
      "type": "function"
    },
    {
      "inputs": [],
      "name": "masterCopy",
      "outputs": [
        {
          "internalType": "address",
          "name": "",
          "type": "address"
        }
      ],
      "stateMutability": "view",
      "type": "function"
    },
    {
      "inputs": [],
      "name": "owner",
      "outputs": [
        {
          "internalType": "address",
          "name": "",
          "type": "address"
        }
      ],
      "stateMutability": "view",
      "type": "function"
    },
    {
      "inputs": [
        {
          "internalType": "address",
          "name": "_dst",
          "type": "address"
        }
      ],
      "name": "removeTokenDestination",
      "outputs": [],
      "stateMutability": "nonpayable",
      "type": "function"
    },
    {
      "inputs": [],
      "name": "renounceOwnership",
      "outputs": [],
      "stateMutability": "nonpayable",
      "type": "function"
    },
    {
      "inputs": [
        {
          "internalType": "string",
          "name": "_signature",
          "type": "string"
        },
        {
          "internalType": "address",
          "name": "_target",
          "type": "address"
        }
      ],
      "name": "setAuthFunctionCall",
      "outputs": [],
      "stateMutability": "nonpayable",
      "type": "function"
    },
    {
      "inputs": [
        {
          "internalType": "string[]",
          "name": "_signatures",
          "type": "string[]"
        },
        {
          "internalType": "address[]",
          "name": "_targets",
          "type": "address[]"
        }
      ],
      "name": "setAuthFunctionCallMany",
      "outputs": [],
      "stateMutability": "nonpayable",
      "type": "function"
    },
    {
      "inputs": [
        {
          "internalType": "address",
          "name": "_masterCopy",
          "type": "address"
        }
      ],
      "name": "setMasterCopy",
      "outputs": [],
      "stateMutability": "nonpayable",
      "type": "function"
    },
    {
      "inputs": [],
      "name": "token",
      "outputs": [
        {
          "internalType": "contract IERC20",
          "name": "",
          "type": "address"
        }
      ],
      "stateMutability": "view",
      "type": "function"
    },
    {
      "inputs": [
        {
          "internalType": "address",
          "name": "newOwner",
          "type": "address"
        }
      ],
      "name": "transferOwnership",
      "outputs": [],
      "stateMutability": "nonpayable",
      "type": "function"
    },
    {
      "inputs": [
        {
          "internalType": "string",
          "name": "_signature",
          "type": "string"
        }
      ],
      "name": "unsetAuthFunctionCall",
      "outputs": [],
      "stateMutability": "nonpayable",
      "type": "function"
    },
    {
      "inputs": [
        {
          "internalType": "uint256",
          "name": "_amount",
          "type": "uint256"
        }
      ],
      "name": "withdraw",
      "outputs": [],
      "stateMutability": "nonpayable",
      "type": "function"
    }
  ],
  "transactionHash": "0xbf444265f96c20ae89d8126a2ead6ba4a6c48a7d73e59a3a8e6a675ef121b742",
  "args": [
    "0xc944E90C64B2c07662A292be6244BDf05Cda44a7",
    "0xec188A659fD9e3CAAD5b14011a18B9F214D54eab"
  ],
  "solcInputHash": "6f5e8f450f52dd96ebb796aa6620fee9",
  "bytecode": "0x60806040523480156200001157600080fd5b5060405162003c9338038062003c9383398181016040528101906200003791906200039c565b600062000049620001b460201b60201c565b9050806000806101000a81548173ffffffffffffffffffffffffffffffffffffffff021916908373ffffffffffffffffffffffffffffffffffffffff1602179055508073ffffffffffffffffffffffffffffffffffffffff16600073ffffffffffffffffffffffffffffffffffffffff167f8be0079c531659141344cd1fd0a4f28419497f9722a3daafe3b4186f6b6457e060405160405180910390a350600073ffffffffffffffffffffffffffffffffffffffff168273ffffffffffffffffffffffffffffffffffffffff1614156200015a576040517f08c379a00000000000000000000000000000000000000000000000000000000081526004016200015190620004e7565b60405180910390fd5b81600560006101000a81548173ffffffffffffffffffffffffffffffffffffffff021916908373ffffffffffffffffffffffffffffffffffffffff160217905550620001ac81620001bc60201b60201c565b505062000596565b600033905090565b620001cc620001b460201b60201c565b73ffffffffffffffffffffffffffffffffffffffff16620001f26200034560201b60201c565b73ffffffffffffffffffffffffffffffffffffffff16146200024b576040517f08c379a00000000000000000000000000000000000000000000000000000000081526004016200024290620004c5565b60405180910390fd5b600073ffffffffffffffffffffffffffffffffffffffff168173ffffffffffffffffffffffffffffffffffffffff161415620002be576040517f08c379a0000000000000000000000000000000000000000000000000000000008152600401620002b590620004a3565b60405180910390fd5b80600460006101000a81548173ffffffffffffffffffffffffffffffffffffffff021916908373ffffffffffffffffffffffffffffffffffffffff1602179055508073ffffffffffffffffffffffffffffffffffffffff167f30909084afc859121ffc3a5aef7fe37c540a9a1ef60bd4d8dcdb76376fadf9de60405160405180910390a250565b60008060009054906101000a900473ffffffffffffffffffffffffffffffffffffffff16905090565b6000815190506200037f8162000562565b92915050565b60008151905062000396816200057c565b92915050565b60008060408385031215620003b057600080fd5b6000620003c08582860162000385565b9250506020620003d3858286016200036e565b9150509250929050565b6000620003ec60198362000509565b91507f4d6173746572436f70792063616e6e6f74206265207a65726f000000000000006000830152602082019050919050565b60006200042e60208362000509565b91507f4f776e61626c653a2063616c6c6572206973206e6f7420746865206f776e65726000830152602082019050919050565b60006200047060148362000509565b91507f546f6b656e2063616e6e6f74206265207a65726f0000000000000000000000006000830152602082019050919050565b60006020820190508181036000830152620004be81620003dd565b9050919050565b60006020820190508181036000830152620004e0816200041f565b9050919050565b60006020820190508181036000830152620005028162000461565b9050919050565b600082825260208201905092915050565b6000620005278262000542565b9050919050565b60006200053b826200051a565b9050919050565b600073ffffffffffffffffffffffffffffffffffffffff82169050919050565b6200056d816200051a565b81146200057957600080fd5b50565b62000587816200052e565b81146200059357600080fd5b50565b6136ed80620005a66000396000f3fe608060405234801561001057600080fd5b506004361061012c5760003560e01c80639c05fc60116100ad578063c1ab13db11610071578063c1ab13db14610319578063cf497e6c14610335578063f1d24c4514610351578063f2fde38b14610381578063fc0c546a1461039d5761012c565b80639c05fc6014610275578063a345746614610291578063a619486e146102af578063b6b55f25146102cd578063bdb62fbe146102e95761012c565b806368d30c2e116100f457806368d30c2e146101d15780636e03b8dc146101ed578063715018a61461021d57806379ee1bdf146102275780638da5cb5b146102575761012c565b806303990a6c146101315780630602ba2b1461014d5780632e1a7d4d1461017d578063463013a2146101995780635975e00c146101b5575b600080fd5b61014b6004803603810190610146919061253e565b6103bb565b005b61016760048036038101906101629190612515565b610563565b604051610174919061302d565b60405180910390f35b610197600480360381019061019291906125db565b6105a4565b005b6101b360048036038101906101ae9190612583565b610701565b005b6101cf60048036038101906101ca919061234c565b61078d565b005b6101eb60048036038101906101e69190612375565b61091e565b005b61020760048036038101906102029190612515565b610c7e565b6040516102149190612e67565b60405180910390f35b610225610cb1565b005b610241600480360381019061023c919061234c565b610deb565b60405161024e919061302d565b60405180910390f35b61025f610e08565b60405161026c9190612e67565b60405180910390f35b61028f600480360381019061028a919061243b565b610e31565b005b610299610f5e565b6040516102a6919061300b565b60405180910390f35b6102b7611036565b6040516102c49190612e67565b60405180910390f35b6102e760048036038101906102e291906125db565b61105c565b005b61030360048036038101906102fe91906124d9565b61113f565b6040516103109190612e67565b60405180910390f35b610333600480360381019061032e919061234c565b611163565b005b61034f600480360381019061034a919061234c565b611284565b005b61036b60048036038101906103669190612515565b6113f7565b6040516103789190612e67565b60405180910390f35b61039b6004803603810190610396919061234c565b611472565b005b6103a561161b565b6040516103b29190613048565b60405180910390f35b6103c3611645565b73ffffffffffffffffffffffffffffffffffffffff166103e1610e08565b73ffffffffffffffffffffffffffffffffffffffff1614610437576040517f08c379a000000000000000000000000000000000000000000000000000000000815260040161042e90613229565b60405180910390fd5b6000610443838361164d565b9050600060016000837bffffffffffffffffffffffffffffffffffffffffffffffffffffffff19167bffffffffffffffffffffffffffffffffffffffffffffffffffffffff1916815260200190815260200160002060006101000a81548173ffffffffffffffffffffffffffffffffffffffff021916908373ffffffffffffffffffffffffffffffffffffffff160217905550600073ffffffffffffffffffffffffffffffffffffffff16817bffffffffffffffffffffffffffffffffffffffffffffffffffffffff19163373ffffffffffffffffffffffffffffffffffffffff167f450397a2db0e89eccfe664cc6cdfd274a88bc00d29aaec4d991754a42f19f8c98686604051610556929190613063565b60405180910390a4505050565b60008073ffffffffffffffffffffffffffffffffffffffff16610585836113f7565b73ffffffffffffffffffffffffffffffffffffffff1614159050919050565b6105ac611645565b73ffffffffffffffffffffffffffffffffffffffff166105ca610e08565b73ffffffffffffffffffffffffffffffffffffffff1614610620576040517f08c379a000000000000000000000000000000000000000000000000000000000815260040161061790613229565b60405180910390fd5b60008111610663576040517f08c379a000000000000000000000000000000000000000000000000000000000815260040161065a90613209565b60405180910390fd5b6106b03382600560009054906101000a900473ffffffffffffffffffffffffffffffffffffffff1673ffffffffffffffffffffffffffffffffffffffff166116db9092919063ffffffff16565b3373ffffffffffffffffffffffffffffffffffffffff167f6352c5382c4a4578e712449ca65e83cdb392d045dfcf1cad9615189db2da244b826040516106f69190613309565b60405180910390a250565b610709611645565b73ffffffffffffffffffffffffffffffffffffffff16610727610e08565b73ffffffffffffffffffffffffffffffffffffffff161461077d576040517f08c379a000000000000000000000000000000000000000000000000000000000815260040161077490613229565b60405180910390fd5b610788838383611761565b505050565b610795611645565b73ffffffffffffffffffffffffffffffffffffffff166107b3610e08565b73ffffffffffffffffffffffffffffffffffffffff1614610809576040517f08c379a000000000000000000000000000000000000000000000000000000000815260040161080090613229565b60405180910390fd5b600073ffffffffffffffffffffffffffffffffffffffff168173ffffffffffffffffffffffffffffffffffffffff161415610879576040517f08c379a000000000000000000000000000000000000000000000000000000000815260040161087090613109565b60405180910390fd5b61088d81600261194390919063ffffffff16565b6108cc576040517f08c379a00000000000000000000000000000000000000000000000000000000081526004016108c390613269565b60405180910390fd5b8073ffffffffffffffffffffffffffffffffffffffff167f33442b8c13e72dd75a027f08f9bff4eed2dfd26e43cdea857365f5163b359a796001604051610913919061302d565b60405180910390a250565b610926611645565b73ffffffffffffffffffffffffffffffffffffffff16610944610e08565b73ffffffffffffffffffffffffffffffffffffffff161461099a576040517f08c379a000000000000000000000000000000000000000000000000000000000815260040161099190613229565b60405180910390fd5b86600560009054906101000a900473ffffffffffffffffffffffffffffffffffffffff1673ffffffffffffffffffffffffffffffffffffffff166370a08231306040518263ffffffff1660e01b81526004016109f69190612e67565b60206040518083038186803b158015610a0e57600080fd5b505afa158015610a22573d6000803e3d6000fd5b505050506040513d601f19601f82011682018060405250810190610a469190612604565b1015610a87576040517f08c379a0000000000000000000000000000000000000000000000000000000008152600401610a7e90613149565b60405180910390fd5b6060308a8a600560009054906101000a900473ffffffffffffffffffffffffffffffffffffffff168b8b8b8b8b8b8b604051602401610ad09b9a99989796959493929190612e82565b6040516020818303038152906040527fbd896dcb000000000000000000000000000000000000000000000000000000007bffffffffffffffffffffffffffffffffffffffffffffffffffffffff19166020820180517bffffffffffffffffffffffffffffffffffffffffffffffffffffffff838183161783525050505090506000610b858280519060200120600460009054906101000a900473ffffffffffffffffffffffffffffffffffffffff1684611973565b9050610bd4818a600560009054906101000a900473ffffffffffffffffffffffffffffffffffffffff1673ffffffffffffffffffffffffffffffffffffffff166116db9092919063ffffffff16565b8973ffffffffffffffffffffffffffffffffffffffff1682805190602001208273ffffffffffffffffffffffffffffffffffffffff167f3c7ff6acee351ed98200c285a04745858a107e16da2f13c3a81a43073c17d644600560009054906101000a900473ffffffffffffffffffffffffffffffffffffffff168d8d8d8d8d8d8d604051610c69989796959493929190612f8d565b60405180910390a45050505050505050505050565b60016020528060005260406000206000915054906101000a900473ffffffffffffffffffffffffffffffffffffffff1681565b610cb9611645565b73ffffffffffffffffffffffffffffffffffffffff16610cd7610e08565b73ffffffffffffffffffffffffffffffffffffffff1614610d2d576040517f08c379a0000000000000000000000000000000000000000000000000000000008152600401610d2490613229565b60405180910390fd5b600073ffffffffffffffffffffffffffffffffffffffff1660008054906101000a900473ffffffffffffffffffffffffffffffffffffffff1673ffffffffffffffffffffffffffffffffffffffff167f8be0079c531659141344cd1fd0a4f28419497f9722a3daafe3b4186f6b6457e060405160405180910390a360008060006101000a81548173ffffffffffffffffffffffffffffffffffffffff021916908373ffffffffffffffffffffffffffffffffffffffff160217905550565b6000610e018260026119ef90919063ffffffff16565b9050919050565b60008060009054906101000a900473ffffffffffffffffffffffffffffffffffffffff16905090565b610e39611645565b73ffffffffffffffffffffffffffffffffffffffff16610e57610e08565b73ffffffffffffffffffffffffffffffffffffffff1614610ead576040517f08c379a0000000000000000000000000000000000000000000000000000000008152600401610ea490613229565b60405180910390fd5b818190508484905014610ef5576040517f08c379a0000000000000000000000000000000000000000000000000000000008152600401610eec906130e9565b60405180910390fd5b60005b84849050811015610f5757610f4a858583818110610f1257fe5b9050602002810190610f249190613324565b858585818110610f3057fe5b9050602002016020810190610f45919061234c565b611761565b8080600101915050610ef8565b5050505050565b606080610f6b6002611a1f565b67ffffffffffffffff81118015610f8157600080fd5b50604051908082528060200260200182016040528015610fb05781602001602082028036833780820191505090505b50905060005b610fc06002611a1f565b81101561102e57610fdb816002611a3490919063ffffffff16565b828281518110610fe757fe5b602002602001019073ffffffffffffffffffffffffffffffffffffffff16908173ffffffffffffffffffffffffffffffffffffffff16815250508080600101915050610fb6565b508091505090565b600460009054906101000a900473ffffffffffffffffffffffffffffffffffffffff1681565b6000811161109f576040517f08c379a000000000000000000000000000000000000000000000000000000000815260040161109690613209565b60405180910390fd5b6110ee333083600560009054906101000a900473ffffffffffffffffffffffffffffffffffffffff1673ffffffffffffffffffffffffffffffffffffffff16611a4e909392919063ffffffff16565b3373ffffffffffffffffffffffffffffffffffffffff167f59062170a285eb80e8c6b8ced60428442a51910635005233fc4ce084a475845e826040516111349190613309565b60405180910390a250565b600061115b8361114e84611ad7565b8051906020012030611b4d565b905092915050565b61116b611645565b73ffffffffffffffffffffffffffffffffffffffff16611189610e08565b73ffffffffffffffffffffffffffffffffffffffff16146111df576040517f08c379a00000000000000000000000000000000000000000000000000000000081526004016111d690613229565b60405180910390fd5b6111f3816002611b9190919063ffffffff16565b611232576040517f08c379a000000000000000000000000000000000000000000000000000000000815260040161122990613189565b60405180910390fd5b8073ffffffffffffffffffffffffffffffffffffffff167f33442b8c13e72dd75a027f08f9bff4eed2dfd26e43cdea857365f5163b359a796000604051611279919061302d565b60405180910390a250565b61128c611645565b73ffffffffffffffffffffffffffffffffffffffff166112aa610e08565b73ffffffffffffffffffffffffffffffffffffffff1614611300576040517f08c379a00000000000000000000000000000000000000000000000000000000081526004016112f790613229565b60405180910390fd5b600073ffffffffffffffffffffffffffffffffffffffff168173ffffffffffffffffffffffffffffffffffffffff161415611370576040517f08c379a0000000000000000000000000000000000000000000000000000000008152600401611367906131a9565b60405180910390fd5b80600460006101000a81548173ffffffffffffffffffffffffffffffffffffffff021916908373ffffffffffffffffffffffffffffffffffffffff1602179055508073ffffffffffffffffffffffffffffffffffffffff167f30909084afc859121ffc3a5aef7fe37c540a9a1ef60bd4d8dcdb76376fadf9de60405160405180910390a250565b600060016000837bffffffffffffffffffffffffffffffffffffffffffffffffffffffff19167bffffffffffffffffffffffffffffffffffffffffffffffffffffffff1916815260200190815260200160002060009054906101000a900473ffffffffffffffffffffffffffffffffffffffff169050919050565b61147a611645565b73ffffffffffffffffffffffffffffffffffffffff16611498610e08565b73ffffffffffffffffffffffffffffffffffffffff16146114ee576040517f08c379a00000000000000000000000000000000000000000000000000000000081526004016114e590613229565b60405180910390fd5b600073ffffffffffffffffffffffffffffffffffffffff168173ffffffffffffffffffffffffffffffffffffffff16141561155e576040517f08c379a000000000000000000000000000000000000000000000000000000000815260040161155590613129565b60405180910390fd5b8073ffffffffffffffffffffffffffffffffffffffff1660008054906101000a900473ffffffffffffffffffffffffffffffffffffffff1673ffffffffffffffffffffffffffffffffffffffff167f8be0079c531659141344cd1fd0a4f28419497f9722a3daafe3b4186f6b6457e060405160405180910390a3806000806101000a81548173ffffffffffffffffffffffffffffffffffffffff021916908373ffffffffffffffffffffffffffffffffffffffff16021790555050565b6000600560009054906101000a900473ffffffffffffffffffffffffffffffffffffffff16905090565b600033905090565b60006116d383836040516024016040516020818303038152906040529190604051611679929190612e4e565b60405180910390207bffffffffffffffffffffffffffffffffffffffffffffffffffffffff19166020820180517bffffffffffffffffffffffffffffffffffffffffffffffffffffffff8381831617835250505050611bc1565b905092915050565b61175c8363a9059cbb60e01b84846040516024016116fa929190612f64565b604051602081830303815290604052907bffffffffffffffffffffffffffffffffffffffffffffffffffffffff19166020820180517bffffffffffffffffffffffffffffffffffffffffffffffffffffffff8381831617835250505050611c19565b505050565b3073ffffffffffffffffffffffffffffffffffffffff168173ffffffffffffffffffffffffffffffffffffffff1614156117d0576040517f08c379a00000000000000000000000000000000000000000000000000000000081526004016117c7906131c9565b60405180910390fd5b6117d981611ce0565b611818576040517f08c379a000000000000000000000000000000000000000000000000000000000815260040161180f906132e9565b60405180910390fd5b6000611824848461164d565b90508160016000837bffffffffffffffffffffffffffffffffffffffffffffffffffffffff19167bffffffffffffffffffffffffffffffffffffffffffffffffffffffff1916815260200190815260200160002060006101000a81548173ffffffffffffffffffffffffffffffffffffffff021916908373ffffffffffffffffffffffffffffffffffffffff1602179055508173ffffffffffffffffffffffffffffffffffffffff16817bffffffffffffffffffffffffffffffffffffffffffffffffffffffff19163373ffffffffffffffffffffffffffffffffffffffff167f450397a2db0e89eccfe664cc6cdfd274a88bc00d29aaec4d991754a42f19f8c98787604051611935929190613063565b60405180910390a450505050565b600061196b836000018373ffffffffffffffffffffffffffffffffffffffff1660001b611cf3565b905092915050565b60008061198a60008661198587611ad7565b611d63565b90508073ffffffffffffffffffffffffffffffffffffffff167efffc2da0b561cae30d9826d37709e9421c4725faebc226cbbb7ef5fc5e734960405160405180910390a26000835111156119e4576119e28184611e74565b505b809150509392505050565b6000611a17836000018373ffffffffffffffffffffffffffffffffffffffff1660001b611ebe565b905092915050565b6000611a2d82600001611ee1565b9050919050565b6000611a438360000183611ef2565b60001c905092915050565b611ad1846323b872dd60e01b858585604051602401611a6f93929190612f2d565b604051602081830303815290604052907bffffffffffffffffffffffffffffffffffffffffffffffffffffffff19166020820180517bffffffffffffffffffffffffffffffffffffffffffffffffffffffff8381831617835250505050611c19565b50505050565b60606000693d602d80600a3d3981f360b01b9050600069363d3d373d3d3d363d7360b01b905060008460601b905060006e5af43d82803e903d91602b57fd5bf360881b905083838383604051602001611b339493929190612d9b565b604051602081830303815290604052945050505050919050565b60008060ff60f81b838686604051602001611b6b9493929190612de9565b6040516020818303038152906040528051906020012090508060001c9150509392505050565b6000611bb9836000018373ffffffffffffffffffffffffffffffffffffffff1660001b611f5f565b905092915050565b60006004825114611c07576040517f08c379a0000000000000000000000000000000000000000000000000000000008152600401611bfe90613249565b60405180910390fd5b60006020830151905080915050919050565b6060611c7b826040518060400160405280602081526020017f5361666545524332303a206c6f772d6c6576656c2063616c6c206661696c65648152508573ffffffffffffffffffffffffffffffffffffffff166120479092919063ffffffff16565b9050600081511115611cdb5780806020019051810190611c9b91906124b0565b611cda576040517f08c379a0000000000000000000000000000000000000000000000000000000008152600401611cd1906132a9565b60405180910390fd5b5b505050565b600080823b905060008111915050919050565b6000611cff8383611ebe565b611d58578260000182908060018154018082558091505060019003906000526020600020016000909190919091505582600001805490508360010160008481526020019081526020016000208190555060019050611d5d565b600090505b92915050565b60008084471015611da9576040517f08c379a0000000000000000000000000000000000000000000000000000000008152600401611da0906132c9565b60405180910390fd5b600083511415611dee576040517f08c379a0000000000000000000000000000000000000000000000000000000008152600401611de5906130c9565b60405180910390fd5b8383516020850187f59050600073ffffffffffffffffffffffffffffffffffffffff168173ffffffffffffffffffffffffffffffffffffffff161415611e69576040517f08c379a0000000000000000000000000000000000000000000000000000000008152600401611e60906131e9565b60405180910390fd5b809150509392505050565b6060611eb683836040518060400160405280601e81526020017f416464726573733a206c6f772d6c6576656c2063616c6c206661696c65640000815250612047565b905092915050565b600080836001016000848152602001908152602001600020541415905092915050565b600081600001805490509050919050565b600081836000018054905011611f3d576040517f08c379a0000000000000000000000000000000000000000000000000000000008152600401611f34906130a9565b60405180910390fd5b826000018281548110611f4c57fe5b9060005260206000200154905092915050565b6000808360010160008481526020019081526020016000205490506000811461203b5760006001820390506000600186600001805490500390506000866000018281548110611faa57fe5b9060005260206000200154905080876000018481548110611fc757fe5b9060005260206000200181905550600183018760010160008381526020019081526020016000208190555086600001805480611fff57fe5b60019003818190600052602060002001600090559055866001016000878152602001908152602001600020600090556001945050505050612041565b60009150505b92915050565b6060612056848460008561205f565b90509392505050565b6060824710156120a4576040517f08c379a000000000000000000000000000000000000000000000000000000000815260040161209b90613169565b60405180910390fd5b6120ad85611ce0565b6120ec576040517f08c379a00000000000000000000000000000000000000000000000000000000081526004016120e390613289565b60405180910390fd5b600060608673ffffffffffffffffffffffffffffffffffffffff1685876040516121169190612e37565b60006040518083038185875af1925050503d8060008114612153576040519150601f19603f3d011682016040523d82523d6000602084013e612158565b606091505b5091509150612168828286612174565b92505050949350505050565b60608315612184578290506121d4565b6000835111156121975782518084602001fd5b816040517f08c379a00000000000000000000000000000000000000000000000000000000081526004016121cb9190613087565b60405180910390fd5b9392505050565b6000813590506121ea81613634565b92915050565b60008083601f84011261220257600080fd5b8235905067ffffffffffffffff81111561221b57600080fd5b60208301915083602082028301111561223357600080fd5b9250929050565b60008083601f84011261224c57600080fd5b8235905067ffffffffffffffff81111561226557600080fd5b60208301915083602082028301111561227d57600080fd5b9250929050565b6000815190506122938161364b565b92915050565b6000813590506122a881613662565b92915050565b6000813590506122bd81613679565b92915050565b6000813590506122d281613690565b92915050565b60008083601f8401126122ea57600080fd5b8235905067ffffffffffffffff81111561230357600080fd5b60208301915083600182028301111561231b57600080fd5b9250929050565b600081359050612331816136a0565b92915050565b600081519050612346816136a0565b92915050565b60006020828403121561235e57600080fd5b600061236c848285016121db565b91505092915050565b60008060008060008060008060006101208a8c03121561239457600080fd5b60006123a28c828d016121db565b99505060206123b38c828d016121db565b98505060406123c48c828d01612322565b97505060606123d58c828d01612322565b96505060806123e68c828d01612322565b95505060a06123f78c828d01612322565b94505060c06124088c828d01612322565b93505060e06124198c828d01612322565b92505061010061242b8c828d016122c3565b9150509295985092959850929598565b6000806000806040858703121561245157600080fd5b600085013567ffffffffffffffff81111561246b57600080fd5b6124778782880161223a565b9450945050602085013567ffffffffffffffff81111561249657600080fd5b6124a2878288016121f0565b925092505092959194509250565b6000602082840312156124c257600080fd5b60006124d084828501612284565b91505092915050565b600080604083850312156124ec57600080fd5b60006124fa85828601612299565b925050602061250b858286016121db565b9150509250929050565b60006020828403121561252757600080fd5b6000612535848285016122ae565b91505092915050565b6000806020838503121561255157600080fd5b600083013567ffffffffffffffff81111561256b57600080fd5b612577858286016122d8565b92509250509250929050565b60008060006040848603121561259857600080fd5b600084013567ffffffffffffffff8111156125b257600080fd5b6125be868287016122d8565b935093505060206125d1868287016121db565b9150509250925092565b6000602082840312156125ed57600080fd5b60006125fb84828501612322565b91505092915050565b60006020828403121561261657600080fd5b600061262484828501612337565b91505092915050565b60006126398383612645565b60208301905092915050565b61264e816133f1565b82525050565b61265d816133f1565b82525050565b61267461266f826133f1565b6135aa565b82525050565b60006126858261338b565b61268f81856133b9565b935061269a8361337b565b8060005b838110156126cb5781516126b2888261262d565b97506126bd836133ac565b92505060018101905061269e565b5085935050505092915050565b6126e181613403565b82525050565b6126f86126f38261343b565b6135c6565b82525050565b61270f61270a82613467565b6135d0565b82525050565b6127266127218261340f565b6135bc565b82525050565b61273d61273882613493565b6135da565b82525050565b61275461274f826134bf565b6135e4565b82525050565b600061276582613396565b61276f81856133ca565b935061277f818560208601613577565b80840191505092915050565b61279481613532565b82525050565b6127a381613556565b82525050565b60006127b583856133d5565b93506127c2838584613568565b6127cb83613602565b840190509392505050565b60006127e283856133e6565b93506127ef838584613568565b82840190509392505050565b6000612806826133a1565b61281081856133d5565b9350612820818560208601613577565b61282981613602565b840191505092915050565b60006128416022836133d5565b91507f456e756d657261626c655365743a20696e646578206f7574206f6620626f756e60008301527f64730000000000000000000000000000000000000000000000000000000000006020830152604082019050919050565b60006128a76020836133d5565b91507f437265617465323a2062797465636f6465206c656e677468206973207a65726f6000830152602082019050919050565b60006128e76015836133d5565b91507f4172726179206c656e677468206d69736d6174636800000000000000000000006000830152602082019050919050565b6000612927601a836133d5565b91507f44657374696e6174696f6e2063616e6e6f74206265207a65726f0000000000006000830152602082019050919050565b60006129676026836133d5565b91507f4f776e61626c653a206e6577206f776e657220697320746865207a65726f206160008301527f64647265737300000000000000000000000000000000000000000000000000006020830152604082019050919050565b60006129cd6020836133d5565b91507f4e6f7420656e6f75676820746f6b656e7320746f20637265617465206c6f636b6000830152602082019050919050565b6000612a0d6026836133d5565b91507f416464726573733a20696e73756666696369656e742062616c616e636520666f60008301527f722063616c6c00000000000000000000000000000000000000000000000000006020830152604082019050919050565b6000612a73601b836133d5565b91507f44657374696e6174696f6e20616c72656164792072656d6f76656400000000006000830152602082019050919050565b6000612ab36019836133d5565b91507f4d6173746572436f70792063616e6e6f74206265207a65726f000000000000006000830152602082019050919050565b6000612af3601d836133d5565b91507f546172676574206d757374206265206f7468657220636f6e74726163740000006000830152602082019050919050565b6000612b336019836133d5565b91507f437265617465323a204661696c6564206f6e206465706c6f79000000000000006000830152602082019050919050565b6000612b736015836133d5565b91507f416d6f756e742063616e6e6f74206265207a65726f00000000000000000000006000830152602082019050919050565b6000612bb36020836133d5565b91507f4f776e61626c653a2063616c6c6572206973206e6f7420746865206f776e65726000830152602082019050919050565b6000612bf36018836133d5565b91507f496e76616c6964206d6574686f64207369676e617475726500000000000000006000830152602082019050919050565b6000612c336019836133d5565b91507f44657374696e6174696f6e20616c7265616479206164646564000000000000006000830152602082019050919050565b6000612c73601d836133d5565b91507f416464726573733a2063616c6c20746f206e6f6e2d636f6e74726163740000006000830152602082019050919050565b6000612cb3602a836133d5565b91507f5361666545524332303a204552433230206f7065726174696f6e20646964206e60008301527f6f742073756363656564000000000000000000000000000000000000000000006020830152604082019050919050565b6000612d19601d836133d5565b91507f437265617465323a20696e73756666696369656e742062616c616e63650000006000830152602082019050919050565b6000612d596019836133d5565b91507f546172676574206d757374206265206120636f6e7472616374000000000000006000830152602082019050919050565b612d9581613528565b82525050565b6000612da782876126e7565b600a82019150612db782866126e7565b600a82019150612dc7828561272c565b601482019150612dd782846126fe565b600f8201915081905095945050505050565b6000612df58287612715565b600182019150612e058286612663565b601482019150612e158285612743565b602082019150612e258284612743565b60208201915081905095945050505050565b6000612e43828461275a565b915081905092915050565b6000612e5b8284866127d6565b91508190509392505050565b6000602082019050612e7c6000830184612654565b92915050565b600061016082019050612e98600083018e612654565b612ea5602083018d612654565b612eb2604083018c612654565b612ebf606083018b612654565b612ecc608083018a612d8c565b612ed960a0830189612d8c565b612ee660c0830188612d8c565b612ef360e0830187612d8c565b612f01610100830186612d8c565b612f0f610120830185612d8c565b612f1d61014083018461279a565b9c9b505050505050505050505050565b6000606082019050612f426000830186612654565b612f4f6020830185612654565b612f5c6040830184612d8c565b949350505050565b6000604082019050612f796000830185612654565b612f866020830184612d8c565b9392505050565b600061010082019050612fa3600083018b612654565b612fb0602083018a612d8c565b612fbd6040830189612d8c565b612fca6060830188612d8c565b612fd76080830187612d8c565b612fe460a0830186612d8c565b612ff160c0830185612d8c565b612ffe60e083018461279a565b9998505050505050505050565b60006020820190508181036000830152613025818461267a565b905092915050565b600060208201905061304260008301846126d8565b92915050565b600060208201905061305d600083018461278b565b92915050565b6000602082019050818103600083015261307e8184866127a9565b90509392505050565b600060208201905081810360008301526130a181846127fb565b905092915050565b600060208201905081810360008301526130c281612834565b9050919050565b600060208201905081810360008301526130e28161289a565b9050919050565b60006020820190508181036000830152613102816128da565b9050919050565b600060208201905081810360008301526131228161291a565b9050919050565b600060208201905081810360008301526131428161295a565b9050919050565b60006020820190508181036000830152613162816129c0565b9050919050565b6000602082019050818103600083015261318281612a00565b9050919050565b600060208201905081810360008301526131a281612a66565b9050919050565b600060208201905081810360008301526131c281612aa6565b9050919050565b600060208201905081810360008301526131e281612ae6565b9050919050565b6000602082019050818103600083015261320281612b26565b9050919050565b6000602082019050818103600083015261322281612b66565b9050919050565b6000602082019050818103600083015261324281612ba6565b9050919050565b6000602082019050818103600083015261326281612be6565b9050919050565b6000602082019050818103600083015261328281612c26565b9050919050565b600060208201905081810360008301526132a281612c66565b9050919050565b600060208201905081810360008301526132c281612ca6565b9050919050565b600060208201905081810360008301526132e281612d0c565b9050919050565b6000602082019050818103600083015261330281612d4c565b9050919050565b600060208201905061331e6000830184612d8c565b92915050565b6000808335600160200384360303811261333d57600080fd5b80840192508235915067ffffffffffffffff82111561335b57600080fd5b60208301925060018202360383131561337357600080fd5b509250929050565b6000819050602082019050919050565b600081519050919050565b600081519050919050565b600081519050919050565b6000602082019050919050565b600082825260208201905092915050565b600081905092915050565b600082825260208201905092915050565b600081905092915050565b60006133fc82613508565b9050919050565b60008115159050919050565b60007fff0000000000000000000000000000000000000000000000000000000000000082169050919050565b60007fffffffffffffffffffff0000000000000000000000000000000000000000000082169050919050565b60007fffffffffffffffffffffffffffffff000000000000000000000000000000000082169050919050565b60007fffffffffffffffffffffffffffffffffffffffff00000000000000000000000082169050919050565b6000819050919050565b60007fffffffff0000000000000000000000000000000000000000000000000000000082169050919050565b600081905061350382613620565b919050565b600073ffffffffffffffffffffffffffffffffffffffff82169050919050565b6000819050919050565b600061353d82613544565b9050919050565b600061354f82613508565b9050919050565b6000613561826134f5565b9050919050565b82818337600083830152505050565b60005b8381101561359557808201518184015260208101905061357a565b838111156135a4576000848401525b50505050565b60006135b5826135ee565b9050919050565b6000819050919050565b6000819050919050565b6000819050919050565b6000819050919050565b6000819050919050565b60006135f982613613565b9050919050565bfe5b6000601f19601f8301169050919050565b60008160601b9050919050565b6003811061363157613630613600565b5b50565b61363d816133f1565b811461364857600080fd5b50565b61365481613403565b811461365f57600080fd5b50565b61366b816134bf565b811461367657600080fd5b50565b613682816134c9565b811461368d57600080fd5b50565b6003811061369d57600080fd5b50565b6136a981613528565b81146136b457600080fd5b5056fea26469706673582212202d3d549e01583bc5460844b73df152769c2a77e8b1ca88724d847dbd95e3af7964736f6c63430007030033",
  "devdoc": {
    "kind": "dev",
    "methods": {
      "addTokenDestination(address)": {
        "params": {
          "_dst": "Destination address"
        }
      },
      "constructor": {
        "params": {
          "_graphToken": "Token to use for deposits and withdrawals",
          "_masterCopy": "Address of the master copy to use to clone proxies"
        }
      },
      "createTokenLockWallet(address,address,uint256,uint256,uint256,uint256,uint256,uint256,uint8)": {
        "params": {
          "_beneficiary": "Address of the beneficiary of locked tokens",
          "_endTime": "End time of the release schedule",
          "_managedAmount": "Amount of tokens to be managed by the lock contract",
          "_owner": "Address of the contract owner",
          "_periods": "Number of periods between start time and end time",
          "_releaseStartTime": "Override time for when the releases start",
          "_revocable": "Whether the contract is revocable",
          "_startTime": "Start time of the release schedule"
        }
      },
      "deposit(uint256)": {
        "details": "Even if the ERC20 token can be transferred directly to the contract this function provide a safe interface to do the transfer and avoid mistakes",
        "params": {
          "_amount": "Amount to deposit"
        }
      },
      "getAuthFunctionCallTarget(bytes4)": {
        "params": {
          "_sigHash": "Function signature hash"
        },
        "returns": {
          "_0": "Address of the target contract where to send the call"
        }
      },
      "getDeploymentAddress(bytes32,address)": {
        "params": {
          "_implementation": "Address of the proxy target implementation",
          "_salt": "Bytes32 salt to use for CREATE2"
        },
        "returns": {
          "_0": "Address of the counterfactual MinimalProxy"
        }
      },
      "getTokenDestinations()": {
        "returns": {
          "_0": "Array of addresses authorized to pull funds from a token lock"
        }
      },
      "isAuthFunctionCall(bytes4)": {
        "params": {
          "_sigHash": "Function signature hash"
        },
        "returns": {
          "_0": "True if authorized"
        }
      },
      "isTokenDestination(address)": {
        "params": {
          "_dst": "Destination address"
        },
        "returns": {
          "_0": "True if authorized"
        }
      },
      "owner()": {
        "details": "Returns the address of the current owner."
      },
      "removeTokenDestination(address)": {
        "params": {
          "_dst": "Destination address"
        }
      },
      "renounceOwnership()": {
        "details": "Leaves the contract without owner. It will not be possible to call `onlyOwner` functions anymore. Can only be called by the current owner. NOTE: Renouncing ownership will leave the contract without an owner, thereby removing any functionality that is only available to the owner."
      },
      "setAuthFunctionCall(string,address)": {
        "details": "Input expected is the function signature as 'transfer(address,uint256)'",
        "params": {
          "_signature": "Function signature",
          "_target": "Address of the destination contract to call"
        }
      },
      "setAuthFunctionCallMany(string[],address[])": {
        "details": "Input expected is the function signature as 'transfer(address,uint256)'",
        "params": {
          "_signatures": "Function signatures",
          "_targets": "Address of the destination contract to call"
        }
      },
      "setMasterCopy(address)": {
        "params": {
          "_masterCopy": "Address of contract bytecode to factory clone"
        }
      },
      "token()": {
        "returns": {
          "_0": "Token used for transfers and approvals"
        }
      },
      "transferOwnership(address)": {
        "details": "Transfers ownership of the contract to a new account (`newOwner`). Can only be called by the current owner."
      },
      "unsetAuthFunctionCall(string)": {
        "details": "Input expected is the function signature as 'transfer(address,uint256)'",
        "params": {
          "_signature": "Function signature"
        }
      },
      "withdraw(uint256)": {
        "details": "Escape hatch in case of mistakes or to recover remaining funds",
        "params": {
          "_amount": "Amount of tokens to withdraw"
        }
      }
    },
    "title": "GraphTokenLockManager",
    "version": 1
  },
  "userdoc": {
    "kind": "user",
    "methods": {
      "addTokenDestination(address)": {
        "notice": "Adds an address that can be allowed by a token lock to pull funds"
      },
      "constructor": {
        "notice": "Constructor."
      },
      "createTokenLockWallet(address,address,uint256,uint256,uint256,uint256,uint256,uint256,uint8)": {
        "notice": "Creates and fund a new token lock wallet using a minimum proxy"
      },
      "deposit(uint256)": {
        "notice": "Deposits tokens into the contract"
      },
      "getAuthFunctionCallTarget(bytes4)": {
        "notice": "Gets the target contract to call for a particular function signature"
      },
      "getDeploymentAddress(bytes32,address)": {
        "notice": "Gets the deterministic CREATE2 address for MinimalProxy with a particular implementation"
      },
      "getTokenDestinations()": {
        "notice": "Returns an array of authorized destination addresses"
      },
      "isAuthFunctionCall(bytes4)": {
        "notice": "Returns true if the function call is authorized"
      },
      "isTokenDestination(address)": {
        "notice": "Returns True if the address is authorized to be a destination of tokens"
      },
      "removeTokenDestination(address)": {
        "notice": "Removes an address that can be allowed by a token lock to pull funds"
      },
      "setAuthFunctionCall(string,address)": {
        "notice": "Sets an authorized function call to target"
      },
      "setAuthFunctionCallMany(string[],address[])": {
        "notice": "Sets an authorized function call to target in bulk"
      },
      "setMasterCopy(address)": {
        "notice": "Sets the masterCopy bytecode to use to create clones of TokenLock contracts"
      },
      "token()": {
        "notice": "Gets the GRT token address"
      },
      "unsetAuthFunctionCall(string)": {
        "notice": "Unsets an authorized function call to target"
      },
      "withdraw(uint256)": {
        "notice": "Withdraws tokens from the contract"
      }
    },
    "notice": "This contract manages a list of authorized function calls and targets that can be called by any TokenLockWallet contract and it is a factory of TokenLockWallet contracts. This contract receives funds to make the process of creating TokenLockWallet contracts easier by distributing them the initial tokens to be managed. The owner can setup a list of token destinations that will be used by TokenLock contracts to approve the pulling of funds, this way in can be guaranteed that only protocol contracts will manipulate users funds.",
    "version": 1
  },
  "storageLayout": {
    "storage": [
      {
        "astId": 7,
        "contract": "contracts/GraphTokenLockManager.sol:GraphTokenLockManager",
        "label": "_owner",
        "offset": 0,
        "slot": "0",
        "type": "t_address"
      },
      {
        "astId": 3316,
        "contract": "contracts/GraphTokenLockManager.sol:GraphTokenLockManager",
        "label": "authFnCalls",
        "offset": 0,
        "slot": "1",
        "type": "t_mapping(t_bytes4,t_address)"
      },
      {
        "astId": 3318,
        "contract": "contracts/GraphTokenLockManager.sol:GraphTokenLockManager",
        "label": "_tokenDestinations",
        "offset": 0,
        "slot": "2",
        "type": "t_struct(AddressSet)1964_storage"
      },
      {
        "astId": 3320,
        "contract": "contracts/GraphTokenLockManager.sol:GraphTokenLockManager",
        "label": "masterCopy",
        "offset": 0,
        "slot": "4",
        "type": "t_address"
      },
      {
        "astId": 3322,
        "contract": "contracts/GraphTokenLockManager.sol:GraphTokenLockManager",
        "label": "_token",
        "offset": 0,
        "slot": "5",
        "type": "t_contract(IERC20)1045"
      }
    ],
    "types": {
      "t_address": {
        "encoding": "inplace",
        "label": "address",
        "numberOfBytes": "20"
      },
      "t_array(t_bytes32)dyn_storage": {
        "base": "t_bytes32",
        "encoding": "dynamic_array",
        "label": "bytes32[]",
        "numberOfBytes": "32"
      },
      "t_bytes32": {
        "encoding": "inplace",
        "label": "bytes32",
        "numberOfBytes": "32"
      },
      "t_bytes4": {
        "encoding": "inplace",
        "label": "bytes4",
        "numberOfBytes": "4"
      },
      "t_contract(IERC20)1045": {
        "encoding": "inplace",
        "label": "contract IERC20",
        "numberOfBytes": "20"
      },
      "t_mapping(t_bytes32,t_uint256)": {
        "encoding": "mapping",
        "key": "t_bytes32",
        "label": "mapping(bytes32 => uint256)",
        "numberOfBytes": "32",
        "value": "t_uint256"
      },
      "t_mapping(t_bytes4,t_address)": {
        "encoding": "mapping",
        "key": "t_bytes4",
        "label": "mapping(bytes4 => address)",
        "numberOfBytes": "32",
        "value": "t_address"
      },
      "t_struct(AddressSet)1964_storage": {
        "encoding": "inplace",
        "label": "struct EnumerableSet.AddressSet",
        "members": [
          {
            "astId": 1963,
            "contract": "contracts/GraphTokenLockManager.sol:GraphTokenLockManager",
            "label": "_inner",
            "offset": 0,
            "slot": "0",
            "type": "t_struct(Set)1699_storage"
          }
        ],
        "numberOfBytes": "64"
      },
      "t_struct(Set)1699_storage": {
        "encoding": "inplace",
        "label": "struct EnumerableSet.Set",
        "members": [
          {
            "astId": 1694,
            "contract": "contracts/GraphTokenLockManager.sol:GraphTokenLockManager",
            "label": "_values",
            "offset": 0,
            "slot": "0",
            "type": "t_array(t_bytes32)dyn_storage"
          },
          {
            "astId": 1698,
            "contract": "contracts/GraphTokenLockManager.sol:GraphTokenLockManager",
            "label": "_indexes",
            "offset": 0,
            "slot": "1",
            "type": "t_mapping(t_bytes32,t_uint256)"
          }
        ],
        "numberOfBytes": "64"
      },
      "t_uint256": {
        "encoding": "inplace",
        "label": "uint256",
        "numberOfBytes": "32"
      }
    }
  }
}