{
  "address": "0xf2F89D0bB013c9c292B8E398903e421a1028bDA5",
  "abi": [
    {
      "inputs": [
        {
          "internalType": "contract IERC20",
          "name": "_graphToken",
          "type": "address"
        },
        {
          "internalType": "address",
          "name": "_masterCopy",
          "type": "address"
        },
        {
          "internalType": "address",
          "name": "_l2Gateway",
          "type": "address"
        },
        {
          "internalType": "address",
          "name": "_l1TransferTool",
          "type": "address"
        }
      ],
      "stateMutability": "nonpayable",
      "type": "constructor"
    },
    {
      "anonymous": false,
      "inputs": [
        {
          "indexed": true,
          "internalType": "address",
          "name": "caller",
          "type": "address"
        },
        {
          "indexed": true,
          "internalType": "bytes4",
          "name": "sigHash",
          "type": "bytes4"
        },
        {
          "indexed": true,
          "internalType": "address",
          "name": "target",
          "type": "address"
        },
        {
          "indexed": false,
          "internalType": "string",
          "name": "signature",
          "type": "string"
        }
      ],
      "name": "FunctionCallAuth",
      "type": "event"
    },
    {
      "anonymous": false,
      "inputs": [
        {
          "indexed": true,
          "internalType": "address",
          "name": "l1Address",
          "type": "address"
        },
        {
          "indexed": true,
          "internalType": "address",
          "name": "l2Address",
          "type": "address"
        },
        {
          "indexed": false,
          "internalType": "uint256",
          "name": "amount",
          "type": "uint256"
        }
      ],
      "name": "LockedTokensReceivedFromL1",
      "type": "event"
    },
    {
      "anonymous": false,
      "inputs": [
        {
          "indexed": true,
          "internalType": "address",
          "name": "masterCopy",
          "type": "address"
        }
      ],
      "name": "MasterCopyUpdated",
      "type": "event"
    },
    {
      "anonymous": false,
      "inputs": [
        {
          "indexed": true,
          "internalType": "address",
          "name": "previousOwner",
          "type": "address"
        },
        {
          "indexed": true,
          "internalType": "address",
          "name": "newOwner",
          "type": "address"
        }
      ],
      "name": "OwnershipTransferred",
      "type": "event"
    },
    {
      "anonymous": false,
      "inputs": [
        {
          "indexed": true,
          "internalType": "address",
          "name": "proxy",
          "type": "address"
        }
      ],
      "name": "ProxyCreated",
      "type": "event"
    },
    {
      "anonymous": false,
      "inputs": [
        {
          "indexed": true,
          "internalType": "address",
          "name": "dst",
          "type": "address"
        },
        {
          "indexed": false,
          "internalType": "bool",
          "name": "allowed",
          "type": "bool"
        }
      ],
      "name": "TokenDestinationAllowed",
      "type": "event"
    },
    {
      "anonymous": false,
      "inputs": [
        {
          "indexed": true,
          "internalType": "address",
          "name": "contractAddress",
          "type": "address"
        },
        {
          "indexed": true,
          "internalType": "bytes32",
          "name": "initHash",
          "type": "bytes32"
        },
        {
          "indexed": true,
          "internalType": "address",
          "name": "beneficiary",
          "type": "address"
        },
        {
          "indexed": false,
          "internalType": "address",
          "name": "token",
          "type": "address"
        },
        {
          "indexed": false,
          "internalType": "uint256",
          "name": "managedAmount",
          "type": "uint256"
        },
        {
          "indexed": false,
          "internalType": "uint256",
          "name": "startTime",
          "type": "uint256"
        },
        {
          "indexed": false,
          "internalType": "uint256",
          "name": "endTime",
          "type": "uint256"
        },
        {
          "indexed": false,
          "internalType": "uint256",
          "name": "periods",
          "type": "uint256"
        },
        {
          "indexed": false,
          "internalType": "uint256",
          "name": "releaseStartTime",
          "type": "uint256"
        },
        {
          "indexed": false,
          "internalType": "uint256",
          "name": "vestingCliffTime",
          "type": "uint256"
        },
        {
          "indexed": false,
          "internalType": "enum IGraphTokenLock.Revocability",
          "name": "revocable",
          "type": "uint8"
        }
      ],
      "name": "TokenLockCreated",
      "type": "event"
    },
    {
      "anonymous": false,
      "inputs": [
        {
          "indexed": true,
          "internalType": "address",
          "name": "contractAddress",
          "type": "address"
        },
        {
          "indexed": false,
          "internalType": "bytes32",
          "name": "initHash",
          "type": "bytes32"
        },
        {
          "indexed": true,
          "internalType": "address",
          "name": "beneficiary",
          "type": "address"
        },
        {
          "indexed": false,
          "internalType": "uint256",
          "name": "managedAmount",
          "type": "uint256"
        },
        {
          "indexed": false,
          "internalType": "uint256",
          "name": "startTime",
          "type": "uint256"
        },
        {
          "indexed": false,
          "internalType": "uint256",
          "name": "endTime",
          "type": "uint256"
        },
        {
          "indexed": true,
          "internalType": "address",
          "name": "l1Address",
          "type": "address"
        }
      ],
      "name": "TokenLockCreatedFromL1",
      "type": "event"
    },
    {
      "anonymous": false,
      "inputs": [
        {
          "indexed": true,
          "internalType": "address",
          "name": "sender",
          "type": "address"
        },
        {
          "indexed": false,
          "internalType": "uint256",
          "name": "amount",
          "type": "uint256"
        }
      ],
      "name": "TokensDeposited",
      "type": "event"
    },
    {
      "anonymous": false,
      "inputs": [
        {
          "indexed": true,
          "internalType": "address",
          "name": "sender",
          "type": "address"
        },
        {
          "indexed": false,
          "internalType": "uint256",
          "name": "amount",
          "type": "uint256"
        }
      ],
      "name": "TokensWithdrawn",
      "type": "event"
    },
    {
      "inputs": [
        {
          "internalType": "address",
          "name": "_dst",
          "type": "address"
        }
      ],
      "name": "addTokenDestination",
      "outputs": [],
      "stateMutability": "nonpayable",
      "type": "function"
    },
    {
      "inputs": [
        {
          "internalType": "bytes4",
          "name": "",
          "type": "bytes4"
        }
      ],
      "name": "authFnCalls",
      "outputs": [
        {
          "internalType": "address",
          "name": "",
          "type": "address"
        }
      ],
      "stateMutability": "view",
      "type": "function"
    },
    {
      "inputs": [
        {
          "internalType": "address",
          "name": "_owner",
          "type": "address"
        },
        {
          "internalType": "address",
          "name": "_beneficiary",
          "type": "address"
        },
        {
          "internalType": "uint256",
          "name": "_managedAmount",
          "type": "uint256"
        },
        {
          "internalType": "uint256",
          "name": "_startTime",
          "type": "uint256"
        },
        {
          "internalType": "uint256",
          "name": "_endTime",
          "type": "uint256"
        },
        {
          "internalType": "uint256",
          "name": "_periods",
          "type": "uint256"
        },
        {
          "internalType": "uint256",
          "name": "_releaseStartTime",
          "type": "uint256"
        },
        {
          "internalType": "uint256",
          "name": "_vestingCliffTime",
          "type": "uint256"
        },
        {
          "internalType": "enum IGraphTokenLock.Revocability",
          "name": "_revocable",
          "type": "uint8"
        }
      ],
      "name": "createTokenLockWallet",
      "outputs": [],
      "stateMutability": "nonpayable",
      "type": "function"
    },
    {
      "inputs": [
        {
          "internalType": "uint256",
          "name": "_amount",
          "type": "uint256"
        }
      ],
      "name": "deposit",
      "outputs": [],
      "stateMutability": "nonpayable",
      "type": "function"
    },
    {
      "inputs": [
        {
          "internalType": "bytes4",
          "name": "_sigHash",
          "type": "bytes4"
        }
      ],
      "name": "getAuthFunctionCallTarget",
      "outputs": [
        {
          "internalType": "address",
          "name": "",
          "type": "address"
        }
      ],
      "stateMutability": "view",
      "type": "function"
    },
    {
      "inputs": [
        {
          "internalType": "bytes32",
          "name": "_salt",
          "type": "bytes32"
        },
        {
          "internalType": "address",
          "name": "_implementation",
          "type": "address"
        },
        {
          "internalType": "address",
          "name": "_deployer",
          "type": "address"
        }
      ],
      "name": "getDeploymentAddress",
      "outputs": [
        {
          "internalType": "address",
          "name": "",
          "type": "address"
        }
      ],
      "stateMutability": "pure",
      "type": "function"
    },
    {
      "inputs": [],
      "name": "getTokenDestinations",
      "outputs": [
        {
          "internalType": "address[]",
          "name": "",
          "type": "address[]"
        }
      ],
      "stateMutability": "view",
      "type": "function"
    },
    {
      "inputs": [
        {
          "internalType": "bytes4",
          "name": "_sigHash",
          "type": "bytes4"
        }
      ],
      "name": "isAuthFunctionCall",
      "outputs": [
        {
          "internalType": "bool",
          "name": "",
          "type": "bool"
        }
      ],
      "stateMutability": "view",
      "type": "function"
    },
    {
      "inputs": [
        {
          "internalType": "address",
          "name": "_dst",
          "type": "address"
        }
      ],
      "name": "isTokenDestination",
      "outputs": [
        {
          "internalType": "bool",
          "name": "",
          "type": "bool"
        }
      ],
      "stateMutability": "view",
      "type": "function"
    },
    {
      "inputs": [],
      "name": "l1TransferTool",
      "outputs": [
        {
          "internalType": "address",
          "name": "",
          "type": "address"
        }
      ],
      "stateMutability": "view",
      "type": "function"
    },
    {
      "inputs": [
        {
          "internalType": "address",
          "name": "",
          "type": "address"
        }
      ],
      "name": "l1WalletToL2Wallet",
      "outputs": [
        {
          "internalType": "address",
          "name": "",
          "type": "address"
        }
      ],
      "stateMutability": "view",
      "type": "function"
    },
    {
      "inputs": [],
      "name": "l2Gateway",
      "outputs": [
        {
          "internalType": "address",
          "name": "",
          "type": "address"
        }
      ],
      "stateMutability": "view",
      "type": "function"
    },
    {
      "inputs": [
        {
          "internalType": "address",
          "name": "",
          "type": "address"
        }
      ],
      "name": "l2WalletToL1Wallet",
      "outputs": [
        {
          "internalType": "address",
          "name": "",
          "type": "address"
        }
      ],
      "stateMutability": "view",
      "type": "function"
    },
    {
      "inputs": [],
      "name": "masterCopy",
      "outputs": [
        {
          "internalType": "address",
          "name": "",
          "type": "address"
        }
      ],
      "stateMutability": "view",
      "type": "function"
    },
    {
      "inputs": [
        {
          "internalType": "address",
          "name": "_from",
          "type": "address"
        },
        {
          "internalType": "uint256",
          "name": "_amount",
          "type": "uint256"
        },
        {
          "internalType": "bytes",
          "name": "_data",
          "type": "bytes"
        }
      ],
      "name": "onTokenTransfer",
      "outputs": [],
      "stateMutability": "nonpayable",
      "type": "function"
    },
    {
      "inputs": [],
      "name": "owner",
      "outputs": [
        {
          "internalType": "address",
          "name": "",
          "type": "address"
        }
      ],
      "stateMutability": "view",
      "type": "function"
    },
    {
      "inputs": [
        {
          "internalType": "address",
          "name": "_dst",
          "type": "address"
        }
      ],
      "name": "removeTokenDestination",
      "outputs": [],
      "stateMutability": "nonpayable",
      "type": "function"
    },
    {
      "inputs": [],
      "name": "renounceOwnership",
      "outputs": [],
      "stateMutability": "nonpayable",
      "type": "function"
    },
    {
      "inputs": [
        {
          "internalType": "string",
          "name": "_signature",
          "type": "string"
        },
        {
          "internalType": "address",
          "name": "_target",
          "type": "address"
        }
      ],
      "name": "setAuthFunctionCall",
      "outputs": [],
      "stateMutability": "nonpayable",
      "type": "function"
    },
    {
      "inputs": [
        {
          "internalType": "string[]",
          "name": "_signatures",
          "type": "string[]"
        },
        {
          "internalType": "address[]",
          "name": "_targets",
          "type": "address[]"
        }
      ],
      "name": "setAuthFunctionCallMany",
      "outputs": [],
      "stateMutability": "nonpayable",
      "type": "function"
    },
    {
      "inputs": [
        {
          "internalType": "address",
          "name": "_masterCopy",
          "type": "address"
        }
      ],
      "name": "setMasterCopy",
      "outputs": [],
      "stateMutability": "nonpayable",
      "type": "function"
    },
    {
      "inputs": [],
      "name": "token",
      "outputs": [
        {
          "internalType": "contract IERC20",
          "name": "",
          "type": "address"
        }
      ],
      "stateMutability": "view",
      "type": "function"
    },
    {
      "inputs": [
        {
          "internalType": "address",
          "name": "newOwner",
          "type": "address"
        }
      ],
      "name": "transferOwnership",
      "outputs": [],
      "stateMutability": "nonpayable",
      "type": "function"
    },
    {
      "inputs": [
        {
          "internalType": "string",
          "name": "_signature",
          "type": "string"
        }
      ],
      "name": "unsetAuthFunctionCall",
      "outputs": [],
      "stateMutability": "nonpayable",
      "type": "function"
    },
    {
      "inputs": [
        {
          "internalType": "uint256",
          "name": "_amount",
          "type": "uint256"
        }
      ],
      "name": "withdraw",
      "outputs": [],
      "stateMutability": "nonpayable",
      "type": "function"
    }
  ],
  "transactionHash": "0xda00bc8ee16463f5491e1d0d5406d2068a44986ad87a7a81c1f8b94ed284e954",
  "args": [
    "0x9623063377AD1B27544C965cCd7342f7EA7e88C7",
    "0x6864Cdd6D69Dbef02E5e06c5534b20fdaf8b51b0",
    "0x65E1a5e8946e7E87d9774f5288f41c30a99fD302",
    "0xCa82c7Ce3388b0B5d307574099aC57d7a00d509F"
  ],
  "solcInputHash": "b5cdad58099d39cd1aed000b2fd864d8",
  "bytecode": "0x60c06040523480156200001157600080fd5b506040516200499938038062004999833981810160405281019062000037919062000410565b838360006200004b6200022860201b60201c565b9050806000806101000a81548173ffffffffffffffffffffffffffffffffffffffff021916908373ffffffffffffffffffffffffffffffffffffffff1602179055508073ffffffffffffffffffffffffffffffffffffffff16600073ffffffffffffffffffffffffffffffffffffffff167f8be0079c531659141344cd1fd0a4f28419497f9722a3daafe3b4186f6b6457e060405160405180910390a350600073ffffffffffffffffffffffffffffffffffffffff168273ffffffffffffffffffffffffffffffffffffffff1614156200015c576040517f08c379a0000000000000000000000000000000000000000000000000000000008152600401620001539062000586565b60405180910390fd5b81600560006101000a81548173ffffffffffffffffffffffffffffffffffffffff021916908373ffffffffffffffffffffffffffffffffffffffff160217905550620001ae816200023060201b60201c565b50508173ffffffffffffffffffffffffffffffffffffffff1660808173ffffffffffffffffffffffffffffffffffffffff1660601b815250508073ffffffffffffffffffffffffffffffffffffffff1660a08173ffffffffffffffffffffffffffffffffffffffff1660601b815250505050505062000635565b600033905090565b620002406200022860201b60201c565b73ffffffffffffffffffffffffffffffffffffffff1662000266620003b960201b60201c565b73ffffffffffffffffffffffffffffffffffffffff1614620002bf576040517f08c379a0000000000000000000000000000000000000000000000000000000008152600401620002b69062000564565b60405180910390fd5b600073ffffffffffffffffffffffffffffffffffffffff168173ffffffffffffffffffffffffffffffffffffffff16141562000332576040517f08c379a0000000000000000000000000000000000000000000000000000000008152600401620003299062000542565b60405180910390fd5b80600460006101000a81548173ffffffffffffffffffffffffffffffffffffffff021916908373ffffffffffffffffffffffffffffffffffffffff1602179055508073ffffffffffffffffffffffffffffffffffffffff167f30909084afc859121ffc3a5aef7fe37c540a9a1ef60bd4d8dcdb76376fadf9de60405160405180910390a250565b60008060009054906101000a900473ffffffffffffffffffffffffffffffffffffffff16905090565b600081519050620003f38162000601565b92915050565b6000815190506200040a816200061b565b92915050565b600080600080608085870312156200042757600080fd5b60006200043787828801620003f9565b94505060206200044a87828801620003e2565b93505060406200045d87828801620003e2565b92505060606200047087828801620003e2565b91505092959194509250565b60006200048b601983620005a8565b91507f4d6173746572436f70792063616e6e6f74206265207a65726f000000000000006000830152602082019050919050565b6000620004cd602083620005a8565b91507f4f776e61626c653a2063616c6c6572206973206e6f7420746865206f776e65726000830152602082019050919050565b60006200050f601483620005a8565b91507f546f6b656e2063616e6e6f74206265207a65726f0000000000000000000000006000830152602082019050919050565b600060208201905081810360008301526200055d816200047c565b9050919050565b600060208201905081810360008301526200057f81620004be565b9050919050565b60006020820190508181036000830152620005a18162000500565b9050919050565b600082825260208201905092915050565b6000620005c682620005e1565b9050919050565b6000620005da82620005b9565b9050919050565b600073ffffffffffffffffffffffffffffffffffffffff82169050919050565b6200060c81620005b9565b81146200061857600080fd5b50565b6200062681620005cd565b81146200063257600080fd5b50565b60805160601c60a05160601c61433062000669600039806109195280611280525080610fc952806111f252506143306000f3fe608060405234801561001057600080fd5b50600436106101735760003560e01c806379ee1bdf116100de578063a619486e11610097578063cf497e6c11610071578063cf497e6c14610434578063f1d24c4514610450578063f2fde38b14610480578063fc0c546a1461049c57610173565b8063a619486e146103de578063b6b55f25146103fc578063c1ab13db1461041857610173565b806379ee1bdf1461031c5780638da5cb5b1461034c5780638fa74a0e1461036a5780639c05fc6014610388578063a3457466146103a4578063a4c0ed36146103c257610173565b8063463013a211610130578063463013a214610270578063586a53531461028c5780635975e00c146102aa57806368d30c2e146102c65780636e03b8dc146102e2578063715018a61461031257610173565b806303990a6c14610178578063045b7fe2146101945780630602ba2b146101c45780630cd6178f146101f45780632e1a7d4d1461022457806343fb93d914610240575b600080fd5b610192600480360381019061018d9190612f13565b6104ba565b005b6101ae60048036038101906101a99190612ca2565b610662565b6040516101bb91906139bc565b60405180910390f35b6101de60048036038101906101d99190612eea565b610695565b6040516101eb9190613bba565b60405180910390f35b61020e60048036038101906102099190612ca2565b6106d6565b60405161021b91906139bc565b60405180910390f35b61023e60048036038101906102399190612fd9565b610709565b005b61025a60048036038101906102559190612e9b565b610866565b60405161026791906139bc565b60405180910390f35b61028a60048036038101906102859190612f58565b61088b565b005b610294610917565b6040516102a191906139bc565b60405180910390f35b6102c460048036038101906102bf9190612ca2565b61093b565b005b6102e060048036038101906102db9190612ccb565b610acc565b005b6102fc60048036038101906102f79190612eea565b610e14565b60405161030991906139bc565b60405180910390f35b61031a610e47565b005b61033660048036038101906103319190612ca2565b610f81565b6040516103439190613bba565b60405180910390f35b610354610f9e565b60405161036191906139bc565b60405180910390f35b610372610fc7565b60405161037f91906139bc565b60405180910390f35b6103a2600480360381019061039d9190612dfd565b610feb565b005b6103ac611118565b6040516103b99190613b98565b60405180910390f35b6103dc60048036038101906103d79190612d91565b6111f0565b005b6103e6611756565b6040516103f391906139bc565b60405180910390f35b61041660048036038101906104119190612fd9565b61177c565b005b610432600480360381019061042d9190612ca2565b61185f565b005b61044e60048036038101906104499190612ca2565b611980565b005b61046a60048036038101906104659190612eea565b611af3565b60405161047791906139bc565b60405180910390f35b61049a60048036038101906104959190612ca2565b611b6e565b005b6104a4611d17565b6040516104b19190613c1a565b60405180910390f35b6104c2611d41565b73ffffffffffffffffffffffffffffffffffffffff166104e0610f9e565b73ffffffffffffffffffffffffffffffffffffffff1614610536576040517f08c379a000000000000000000000000000000000000000000000000000000000815260040161052d90613e3b565b60405180910390fd5b60006105428383611d49565b9050600060016000837bffffffffffffffffffffffffffffffffffffffffffffffffffffffff19167bffffffffffffffffffffffffffffffffffffffffffffffffffffffff1916815260200190815260200160002060006101000a81548173ffffffffffffffffffffffffffffffffffffffff021916908373ffffffffffffffffffffffffffffffffffffffff160217905550600073ffffffffffffffffffffffffffffffffffffffff16817bffffffffffffffffffffffffffffffffffffffffffffffffffffffff19163373ffffffffffffffffffffffffffffffffffffffff167f450397a2db0e89eccfe664cc6cdfd274a88bc00d29aaec4d991754a42f19f8c98686604051610655929190613c35565b60405180910390a4505050565b60076020528060005260406000206000915054906101000a900473ffffffffffffffffffffffffffffffffffffffff1681565b60008073ffffffffffffffffffffffffffffffffffffffff166106b783611af3565b73ffffffffffffffffffffffffffffffffffffffff1614159050919050565b60066020528060005260406000206000915054906101000a900473ffffffffffffffffffffffffffffffffffffffff1681565b610711611d41565b73ffffffffffffffffffffffffffffffffffffffff1661072f610f9e565b73ffffffffffffffffffffffffffffffffffffffff1614610785576040517f08c379a000000000000000000000000000000000000000000000000000000000815260040161077c90613e3b565b60405180910390fd5b600081116107c8576040517f08c379a00000000000000000000000000000000000000000000000000000000081526004016107bf90613e1b565b60405180910390fd5b6108153382600560009054906101000a900473ffffffffffffffffffffffffffffffffffffffff1673ffffffffffffffffffffffffffffffffffffffff16611dd79092919063ffffffff16565b3373ffffffffffffffffffffffffffffffffffffffff167f6352c5382c4a4578e712449ca65e83cdb392d045dfcf1cad9615189db2da244b8260405161085b9190613f1b565b60405180910390a250565b60006108828461087585611e5d565b8051906020012084611ed3565b90509392505050565b610893611d41565b73ffffffffffffffffffffffffffffffffffffffff166108b1610f9e565b73ffffffffffffffffffffffffffffffffffffffff1614610907576040517f08c379a00000000000000000000000000000000000000000000000000000000081526004016108fe90613e3b565b60405180910390fd5b610912838383611f17565b505050565b7f000000000000000000000000000000000000000000000000000000000000000081565b610943611d41565b73ffffffffffffffffffffffffffffffffffffffff16610961610f9e565b73ffffffffffffffffffffffffffffffffffffffff16146109b7576040517f08c379a00000000000000000000000000000000000000000000000000000000081526004016109ae90613e3b565b60405180910390fd5b600073ffffffffffffffffffffffffffffffffffffffff168173ffffffffffffffffffffffffffffffffffffffff161415610a27576040517f08c379a0000000000000000000000000000000000000000000000000000000008152600401610a1e90613cfb565b60405180910390fd5b610a3b8160026120f990919063ffffffff16565b610a7a576040517f08c379a0000000000000000000000000000000000000000000000000000000008152600401610a7190613e7b565b60405180910390fd5b8073ffffffffffffffffffffffffffffffffffffffff167f33442b8c13e72dd75a027f08f9bff4eed2dfd26e43cdea857365f5163b359a796001604051610ac19190613bba565b60405180910390a250565b610ad4611d41565b73ffffffffffffffffffffffffffffffffffffffff16610af2610f9e565b73ffffffffffffffffffffffffffffffffffffffff1614610b48576040517f08c379a0000000000000000000000000000000000000000000000000000000008152600401610b3f90613e3b565b60405180910390fd5b86600560009054906101000a900473ffffffffffffffffffffffffffffffffffffffff1673ffffffffffffffffffffffffffffffffffffffff166370a08231306040518263ffffffff1660e01b8152600401610ba491906139bc565b60206040518083038186803b158015610bbc57600080fd5b505afa158015610bd0573d6000803e3d6000fd5b505050506040513d601f19601f82011682018060405250810190610bf49190613002565b1015610c35576040517f08c379a0000000000000000000000000000000000000000000000000000000008152600401610c2c90613d3b565b60405180910390fd5b606063bd896dcb60e01b308b8b600560009054906101000a900473ffffffffffffffffffffffffffffffffffffffff168c8c8c8c8c8c8c604051602401610c869b9a999897969594939291906139d7565b604051602081830303815290604052907bffffffffffffffffffffffffffffffffffffffffffffffffffffffff19166020820180517bffffffffffffffffffffffffffffffffffffffffffffffffffffffff838183161783525050505090506000610d1b8280519060200120600460009054906101000a900473ffffffffffffffffffffffffffffffffffffffff1684612129565b9050610d6a818a600560009054906101000a900473ffffffffffffffffffffffffffffffffffffffff1673ffffffffffffffffffffffffffffffffffffffff16611dd79092919063ffffffff16565b8973ffffffffffffffffffffffffffffffffffffffff1682805190602001208273ffffffffffffffffffffffffffffffffffffffff167f3c7ff6acee351ed98200c285a04745858a107e16da2f13c3a81a43073c17d644600560009054906101000a900473ffffffffffffffffffffffffffffffffffffffff168d8d8d8d8d8d8d604051610dff989796959493929190613b1a565b60405180910390a45050505050505050505050565b60016020528060005260406000206000915054906101000a900473ffffffffffffffffffffffffffffffffffffffff1681565b610e4f611d41565b73ffffffffffffffffffffffffffffffffffffffff16610e6d610f9e565b73ffffffffffffffffffffffffffffffffffffffff1614610ec3576040517f08c379a0000000000000000000000000000000000000000000000000000000008152600401610eba90613e3b565b60405180910390fd5b600073ffffffffffffffffffffffffffffffffffffffff1660008054906101000a900473ffffffffffffffffffffffffffffffffffffffff1673ffffffffffffffffffffffffffffffffffffffff167f8be0079c531659141344cd1fd0a4f28419497f9722a3daafe3b4186f6b6457e060405160405180910390a360008060006101000a81548173ffffffffffffffffffffffffffffffffffffffff021916908373ffffffffffffffffffffffffffffffffffffffff160217905550565b6000610f978260026121a590919063ffffffff16565b9050919050565b60008060009054906101000a900473ffffffffffffffffffffffffffffffffffffffff16905090565b7f000000000000000000000000000000000000000000000000000000000000000081565b610ff3611d41565b73ffffffffffffffffffffffffffffffffffffffff16611011610f9e565b73ffffffffffffffffffffffffffffffffffffffff1614611067576040517f08c379a000000000000000000000000000000000000000000000000000000000815260040161105e90613e3b565b60405180910390fd5b8181905084849050146110af576040517f08c379a00000000000000000000000000000000000000000000000000000000081526004016110a690613cbb565b60405180910390fd5b60005b84849050811015611111576111048585838181106110cc57fe5b90506020028101906110de9190613f36565b8585858181106110ea57fe5b90506020020160208101906110ff9190612ca2565b611f17565b80806001019150506110b2565b5050505050565b60608061112560026121d5565b67ffffffffffffffff8111801561113b57600080fd5b5060405190808252806020026020018201604052801561116a5781602001602082028036833780820191505090505b50905060005b61117a60026121d5565b8110156111e8576111958160026121ea90919063ffffffff16565b8282815181106111a157fe5b602002602001019073ffffffffffffffffffffffffffffffffffffffff16908173ffffffffffffffffffffffffffffffffffffffff16815250508080600101915050611170565b508091505090565b7f000000000000000000000000000000000000000000000000000000000000000073ffffffffffffffffffffffffffffffffffffffff163373ffffffffffffffffffffffffffffffffffffffff161461127e576040517f08c379a000000000000000000000000000000000000000000000000000000000815260040161127590613cdb565b60405180910390fd5b7f000000000000000000000000000000000000000000000000000000000000000073ffffffffffffffffffffffffffffffffffffffff168473ffffffffffffffffffffffffffffffffffffffff161461130c576040517f08c379a000000000000000000000000000000000000000000000000000000000815260040161130390613d7b565b60405180910390fd5b6113146129d3565b82828101906113239190612fb0565b9050600073ffffffffffffffffffffffffffffffffffffffff1660066000836000015173ffffffffffffffffffffffffffffffffffffffff1673ffffffffffffffffffffffffffffffffffffffff16815260200190815260200160002060009054906101000a900473ffffffffffffffffffffffffffffffffffffffff1673ffffffffffffffffffffffffffffffffffffffff16146114715761146c60066000836000015173ffffffffffffffffffffffffffffffffffffffff1673ffffffffffffffffffffffffffffffffffffffff16815260200190815260200160002060009054906101000a900473ffffffffffffffffffffffffffffffffffffffff1685600560009054906101000a900473ffffffffffffffffffffffffffffffffffffffff1673ffffffffffffffffffffffffffffffffffffffff16611dd79092919063ffffffff16565b611683565b6000806114958585604051611487929190613973565b604051809103902084612204565b915091508060066000856000015173ffffffffffffffffffffffffffffffffffffffff1673ffffffffffffffffffffffffffffffffffffffff16815260200190815260200160002060006101000a81548173ffffffffffffffffffffffffffffffffffffffff021916908373ffffffffffffffffffffffffffffffffffffffff1602179055508260000151600760008373ffffffffffffffffffffffffffffffffffffffff1673ffffffffffffffffffffffffffffffffffffffff16815260200190815260200160002060006101000a81548173ffffffffffffffffffffffffffffffffffffffff021916908373ffffffffffffffffffffffffffffffffffffffff1602179055506115ea8187600560009054906101000a900473ffffffffffffffffffffffffffffffffffffffff1673ffffffffffffffffffffffffffffffffffffffff16611dd79092919063ffffffff16565b826000015173ffffffffffffffffffffffffffffffffffffffff16836040015173ffffffffffffffffffffffffffffffffffffffff168273ffffffffffffffffffffffffffffffffffffffff167fd74fe60cbf1e5bf07ef3fad0e00c45f66345c5226474786d8dc086527dc8414785876060015188608001518960a001516040516116789493929190613bd5565b60405180910390a450505b60066000826000015173ffffffffffffffffffffffffffffffffffffffff1673ffffffffffffffffffffffffffffffffffffffff16815260200190815260200160002060009054906101000a900473ffffffffffffffffffffffffffffffffffffffff1673ffffffffffffffffffffffffffffffffffffffff16816000015173ffffffffffffffffffffffffffffffffffffffff167fe34903cfa4ad8362651171309d05bcbc2fc581a5ec83ca7b0c8d10743de766e2866040516117479190613f1b565b60405180910390a35050505050565b600460009054906101000a900473ffffffffffffffffffffffffffffffffffffffff1681565b600081116117bf576040517f08c379a00000000000000000000000000000000000000000000000000000000081526004016117b690613e1b565b60405180910390fd5b61180e333083600560009054906101000a900473ffffffffffffffffffffffffffffffffffffffff1673ffffffffffffffffffffffffffffffffffffffff1661225b909392919063ffffffff16565b3373ffffffffffffffffffffffffffffffffffffffff167f59062170a285eb80e8c6b8ced60428442a51910635005233fc4ce084a475845e826040516118549190613f1b565b60405180910390a250565b611867611d41565b73ffffffffffffffffffffffffffffffffffffffff16611885610f9e565b73ffffffffffffffffffffffffffffffffffffffff16146118db576040517f08c379a00000000000000000000000000000000000000000000000000000000081526004016118d290613e3b565b60405180910390fd5b6118ef8160026122e490919063ffffffff16565b61192e576040517f08c379a000000000000000000000000000000000000000000000000000000000815260040161192590613d9b565b60405180910390fd5b8073ffffffffffffffffffffffffffffffffffffffff167f33442b8c13e72dd75a027f08f9bff4eed2dfd26e43cdea857365f5163b359a7960006040516119759190613bba565b60405180910390a250565b611988611d41565b73ffffffffffffffffffffffffffffffffffffffff166119a6610f9e565b73ffffffffffffffffffffffffffffffffffffffff16146119fc576040517f08c379a00000000000000000000000000000000000000000000000000000000081526004016119f390613e3b565b60405180910390fd5b600073ffffffffffffffffffffffffffffffffffffffff168173ffffffffffffffffffffffffffffffffffffffff161415611a6c576040517f08c379a0000000000000000000000000000000000000000000000000000000008152600401611a6390613dbb565b60405180910390fd5b80600460006101000a81548173ffffffffffffffffffffffffffffffffffffffff021916908373ffffffffffffffffffffffffffffffffffffffff1602179055508073ffffffffffffffffffffffffffffffffffffffff167f30909084afc859121ffc3a5aef7fe37c540a9a1ef60bd4d8dcdb76376fadf9de60405160405180910390a250565b600060016000837bffffffffffffffffffffffffffffffffffffffffffffffffffffffff19167bffffffffffffffffffffffffffffffffffffffffffffffffffffffff1916815260200190815260200160002060009054906101000a900473ffffffffffffffffffffffffffffffffffffffff169050919050565b611b76611d41565b73ffffffffffffffffffffffffffffffffffffffff16611b94610f9e565b73ffffffffffffffffffffffffffffffffffffffff1614611bea576040517f08c379a0000000000000000000000000000000000000000000000000000000008152600401611be190613e3b565b60405180910390fd5b600073ffffffffffffffffffffffffffffffffffffffff168173ffffffffffffffffffffffffffffffffffffffff161415611c5a576040517f08c379a0000000000000000000000000000000000000000000000000000000008152600401611c5190613d1b565b60405180910390fd5b8073ffffffffffffffffffffffffffffffffffffffff1660008054906101000a900473ffffffffffffffffffffffffffffffffffffffff1673ffffffffffffffffffffffffffffffffffffffff167f8be0079c531659141344cd1fd0a4f28419497f9722a3daafe3b4186f6b6457e060405160405180910390a3806000806101000a81548173ffffffffffffffffffffffffffffffffffffffff021916908373ffffffffffffffffffffffffffffffffffffffff16021790555050565b6000600560009054906101000a900473ffffffffffffffffffffffffffffffffffffffff16905090565b600033905090565b6000611dcf83836040516024016040516020818303038152906040529190604051611d759291906139a3565b60405180910390207bffffffffffffffffffffffffffffffffffffffffffffffffffffffff19166020820180517bffffffffffffffffffffffffffffffffffffffffffffffffffffffff8381831617835250505050612314565b905092915050565b611e588363a9059cbb60e01b8484604051602401611df6929190613af1565b604051602081830303815290604052907bffffffffffffffffffffffffffffffffffffffffffffffffffffffff19166020820180517bffffffffffffffffffffffffffffffffffffffffffffffffffffffff838183161783525050505061236c565b505050565b60606000693d602d80600a3d3981f360b01b9050600069363d3d373d3d3d363d7360b01b905060008460601b905060006e5af43d82803e903d91602b57fd5bf360881b905083838383604051602001611eb994939291906138d7565b604051602081830303815290604052945050505050919050565b60008060ff60f81b838686604051602001611ef19493929190613925565b6040516020818303038152906040528051906020012090508060001c9150509392505050565b3073ffffffffffffffffffffffffffffffffffffffff168173ffffffffffffffffffffffffffffffffffffffff161415611f86576040517f08c379a0000000000000000000000000000000000000000000000000000000008152600401611f7d90613ddb565b60405180910390fd5b611f8f81612433565b611fce576040517f08c379a0000000000000000000000000000000000000000000000000000000008152600401611fc590613efb565b60405180910390fd5b6000611fda8484611d49565b90508160016000837bffffffffffffffffffffffffffffffffffffffffffffffffffffffff19167bffffffffffffffffffffffffffffffffffffffffffffffffffffffff1916815260200190815260200160002060006101000a81548173ffffffffffffffffffffffffffffffffffffffff021916908373ffffffffffffffffffffffffffffffffffffffff1602179055508173ffffffffffffffffffffffffffffffffffffffff16817bffffffffffffffffffffffffffffffffffffffffffffffffffffffff19163373ffffffffffffffffffffffffffffffffffffffff167f450397a2db0e89eccfe664cc6cdfd274a88bc00d29aaec4d991754a42f19f8c987876040516120eb929190613c35565b60405180910390a450505050565b6000612121836000018373ffffffffffffffffffffffffffffffffffffffff1660001b612446565b905092915050565b60008061214060008661213b87611e5d565b6124b6565b90508073ffffffffffffffffffffffffffffffffffffffff167efffc2da0b561cae30d9826d37709e9421c4725faebc226cbbb7ef5fc5e734960405160405180910390a260008351111561219a5761219881846125c7565b505b809150509392505050565b60006121cd836000018373ffffffffffffffffffffffffffffffffffffffff1660001b612611565b905092915050565b60006121e382600001612634565b9050919050565b60006121f98360000183612645565b60001c905092915050565b6000806060612212846126b2565b9050600061224386600460009054906101000a900473ffffffffffffffffffffffffffffffffffffffff1684612129565b90508180519060200120819350935050509250929050565b6122de846323b872dd60e01b85858560405160240161227c93929190613aba565b604051602081830303815290604052907bffffffffffffffffffffffffffffffffffffffffffffffffffffffff19166020820180517bffffffffffffffffffffffffffffffffffffffffffffffffffffffff838183161783525050505061236c565b50505050565b600061230c836000018373ffffffffffffffffffffffffffffffffffffffff1660001b612757565b905092915050565b6000600482511461235a576040517f08c379a000000000000000000000000000000000000000000000000000000000815260040161235190613e5b565b60405180910390fd5b60006020830151905080915050919050565b60606123ce826040518060400160405280602081526020017f5361666545524332303a206c6f772d6c6576656c2063616c6c206661696c65648152508573ffffffffffffffffffffffffffffffffffffffff1661283f9092919063ffffffff16565b905060008151111561242e57808060200190518101906123ee9190612e72565b61242d576040517f08c379a000000000000000000000000000000000000000000000000000000000815260040161242490613ebb565b60405180910390fd5b5b505050565b600080823b905060008111915050919050565b60006124528383612611565b6124ab5782600001829080600181540180825580915050600190039060005260206000200160009091909190915055826000018054905083600101600084815260200190815260200160002081905550600190506124b0565b600090505b92915050565b600080844710156124fc576040517f08c379a00000000000000000000000000000000000000000000000000000000081526004016124f390613edb565b60405180910390fd5b600083511415612541576040517f08c379a000000000000000000000000000000000000000000000000000000000815260040161253890613c9b565b60405180910390fd5b8383516020850187f59050600073ffffffffffffffffffffffffffffffffffffffff168173ffffffffffffffffffffffffffffffffffffffff1614156125bc576040517f08c379a00000000000000000000000000000000000000000000000000000000081526004016125b390613dfb565b60405180910390fd5b809150509392505050565b606061260983836040518060400160405280601e81526020017f416464726573733a206c6f772d6c6576656c2063616c6c206661696c6564000081525061283f565b905092915050565b600080836001016000848152602001908152602001600020541415905092915050565b600081600001805490509050919050565b600081836000018054905011612690576040517f08c379a000000000000000000000000000000000000000000000000000000000815260040161268790613c7b565b60405180910390fd5b82600001828154811061269f57fe5b9060005260206000200154905092915050565b60606320dc203d60e01b30600560009054906101000a900473ffffffffffffffffffffffffffffffffffffffff16846040516024016126f393929190613a82565b604051602081830303815290604052907bffffffffffffffffffffffffffffffffffffffffffffffffffffffff19166020820180517bffffffffffffffffffffffffffffffffffffffffffffffffffffffff83818316178352505050509050919050565b6000808360010160008481526020019081526020016000205490506000811461283357600060018203905060006001866000018054905003905060008660000182815481106127a257fe5b90600052602060002001549050808760000184815481106127bf57fe5b90600052602060002001819055506001830187600101600083815260200190815260200160002081905550866000018054806127f757fe5b60019003818190600052602060002001600090559055866001016000878152602001908152602001600020600090556001945050505050612839565b60009150505b92915050565b606061284e8484600085612857565b90509392505050565b60608247101561289c576040517f08c379a000000000000000000000000000000000000000000000000000000000815260040161289390613d5b565b60405180910390fd5b6128a585612433565b6128e4576040517f08c379a00000000000000000000000000000000000000000000000000000000081526004016128db90613e9b565b60405180910390fd5b600060608673ffffffffffffffffffffffffffffffffffffffff16858760405161290e919061398c565b60006040518083038185875af1925050503d806000811461294b576040519150601f19603f3d011682016040523d82523d6000602084013e612950565b606091505b509150915061296082828661296c565b92505050949350505050565b6060831561297c578290506129cc565b60008351111561298f5782518084602001fd5b816040517f08c379a00000000000000000000000000000000000000000000000000000000081526004016129c39190613c59565b60405180910390fd5b9392505050565b6040518060c00160405280600073ffffffffffffffffffffffffffffffffffffffff168152602001600073ffffffffffffffffffffffffffffffffffffffff168152602001600073ffffffffffffffffffffffffffffffffffffffff1681526020016000815260200160008152602001600081525090565b600081359050612a5a81614277565b92915050565b60008083601f840112612a7257600080fd5b8235905067ffffffffffffffff811115612a8b57600080fd5b602083019150836020820283011115612aa357600080fd5b9250929050565b60008083601f840112612abc57600080fd5b8235905067ffffffffffffffff811115612ad557600080fd5b602083019150836020820283011115612aed57600080fd5b9250929050565b600081519050612b038161428e565b92915050565b600081359050612b18816142a5565b92915050565b600081359050612b2d816142bc565b92915050565b60008083601f840112612b4557600080fd5b8235905067ffffffffffffffff811115612b5e57600080fd5b602083019150836001820283011115612b7657600080fd5b9250929050565b600081359050612b8c816142d3565b92915050565b60008083601f840112612ba457600080fd5b8235905067ffffffffffffffff811115612bbd57600080fd5b602083019150836001820283011115612bd557600080fd5b9250929050565b600060c08284031215612bee57600080fd5b612bf860c0613f8d565b90506000612c0884828501612a4b565b6000830152506020612c1c84828501612a4b565b6020830152506040612c3084828501612a4b565b6040830152506060612c4484828501612c78565b6060830152506080612c5884828501612c78565b60808301525060a0612c6c84828501612c78565b60a08301525092915050565b600081359050612c87816142e3565b92915050565b600081519050612c9c816142e3565b92915050565b600060208284031215612cb457600080fd5b6000612cc284828501612a4b565b91505092915050565b60008060008060008060008060006101208a8c031215612cea57600080fd5b6000612cf88c828d01612a4b565b9950506020612d098c828d01612a4b565b9850506040612d1a8c828d01612c78565b9750506060612d2b8c828d01612c78565b9650506080612d3c8c828d01612c78565b95505060a0612d4d8c828d01612c78565b94505060c0612d5e8c828d01612c78565b93505060e0612d6f8c828d01612c78565b925050610100612d818c828d01612b7d565b9150509295985092959850929598565b60008060008060608587031215612da757600080fd5b6000612db587828801612a4b565b9450506020612dc687828801612c78565b935050604085013567ffffffffffffffff811115612de357600080fd5b612def87828801612b33565b925092505092959194509250565b60008060008060408587031215612e1357600080fd5b600085013567ffffffffffffffff811115612e2d57600080fd5b612e3987828801612aaa565b9450945050602085013567ffffffffffffffff811115612e5857600080fd5b612e6487828801612a60565b925092505092959194509250565b600060208284031215612e8457600080fd5b6000612e9284828501612af4565b91505092915050565b600080600060608486031215612eb057600080fd5b6000612ebe86828701612b09565b9350506020612ecf86828701612a4b565b9250506040612ee086828701612a4b565b9150509250925092565b600060208284031215612efc57600080fd5b6000612f0a84828501612b1e565b91505092915050565b60008060208385031215612f2657600080fd5b600083013567ffffffffffffffff811115612f4057600080fd5b612f4c85828601612b92565b92509250509250929050565b600080600060408486031215612f6d57600080fd5b600084013567ffffffffffffffff811115612f8757600080fd5b612f9386828701612b92565b93509350506020612fa686828701612a4b565b9150509250925092565b600060c08284031215612fc257600080fd5b6000612fd084828501612bdc565b91505092915050565b600060208284031215612feb57600080fd5b6000612ff984828501612c78565b91505092915050565b60006020828403121561301457600080fd5b600061302284828501612c8d565b91505092915050565b60006130378383613043565b60208301905092915050565b61304c81614034565b82525050565b61305b81614034565b82525050565b61307261306d82614034565b6141ed565b82525050565b600061308382613fce565b61308d8185613ffc565b935061309883613fbe565b8060005b838110156130c95781516130b0888261302b565b97506130bb83613fef565b92505060018101905061309c565b5085935050505092915050565b6130df81614046565b82525050565b6130f66130f18261407e565b614209565b82525050565b61310d613108826140aa565b614213565b82525050565b61312461311f82614052565b6141ff565b82525050565b61313b613136826140d6565b61421d565b82525050565b61314a81614102565b82525050565b61316161315c82614102565b614227565b82525050565b6000613173838561400d565b93506131808385846141ab565b82840190509392505050565b600061319782613fd9565b6131a1818561400d565b93506131b18185602086016141ba565b80840191505092915050565b6131c681614175565b82525050565b6131d581614199565b82525050565b60006131e78385614018565b93506131f48385846141ab565b6131fd83614245565b840190509392505050565b60006132148385614029565b93506132218385846141ab565b82840190509392505050565b600061323882613fe4565b6132428185614018565b93506132528185602086016141ba565b61325b81614245565b840191505092915050565b6000613273602283614018565b91507f456e756d657261626c655365743a20696e646578206f7574206f6620626f756e60008301527f64730000000000000000000000000000000000000000000000000000000000006020830152604082019050919050565b60006132d9602083614018565b91507f437265617465323a2062797465636f6465206c656e677468206973207a65726f6000830152602082019050919050565b6000613319601583614018565b91507f4172726179206c656e677468206d69736d6174636800000000000000000000006000830152602082019050919050565b6000613359600c83614018565b91507f4f4e4c595f4741544557415900000000000000000000000000000000000000006000830152602082019050919050565b6000613399601a83614018565b91507f44657374696e6174696f6e2063616e6e6f74206265207a65726f0000000000006000830152602082019050919050565b60006133d9602683614018565b91507f4f776e61626c653a206e6577206f776e657220697320746865207a65726f206160008301527f64647265737300000000000000000000000000000000000000000000000000006020830152604082019050919050565b600061343f602083614018565b91507f4e6f7420656e6f75676820746f6b656e7320746f20637265617465206c6f636b6000830152602082019050919050565b600061347f602683614018565b91507f416464726573733a20696e73756666696369656e742062616c616e636520666f60008301527f722063616c6c00000000000000000000000000000000000000000000000000006020830152604082019050919050565b60006134e5601283614018565b91507f4f4e4c595f5452414e534645525f544f4f4c00000000000000000000000000006000830152602082019050919050565b6000613525601b83614018565b91507f44657374696e6174696f6e20616c72656164792072656d6f76656400000000006000830152602082019050919050565b6000613565601983614018565b91507f4d6173746572436f70792063616e6e6f74206265207a65726f000000000000006000830152602082019050919050565b60006135a5601d83614018565b91507f546172676574206d757374206265206f7468657220636f6e74726163740000006000830152602082019050919050565b60006135e5601983614018565b91507f437265617465323a204661696c6564206f6e206465706c6f79000000000000006000830152602082019050919050565b6000613625601583614018565b91507f416d6f756e742063616e6e6f74206265207a65726f00000000000000000000006000830152602082019050919050565b6000613665602083614018565b91507f4f776e61626c653a2063616c6c6572206973206e6f7420746865206f776e65726000830152602082019050919050565b60006136a5601883614018565b91507f496e76616c6964206d6574686f64207369676e617475726500000000000000006000830152602082019050919050565b60006136e5601983614018565b91507f44657374696e6174696f6e20616c7265616479206164646564000000000000006000830152602082019050919050565b6000613725601d83614018565b91507f416464726573733a2063616c6c20746f206e6f6e2d636f6e74726163740000006000830152602082019050919050565b6000613765602a83614018565b91507f5361666545524332303a204552433230206f7065726174696f6e20646964206e60008301527f6f742073756363656564000000000000000000000000000000000000000000006020830152604082019050919050565b60006137cb601d83614018565b91507f437265617465323a20696e73756666696369656e742062616c616e63650000006000830152602082019050919050565b600061380b601983614018565b91507f546172676574206d757374206265206120636f6e7472616374000000000000006000830152602082019050919050565b60c0820160008201516138546000850182613043565b5060208201516138676020850182613043565b50604082015161387a6040850182613043565b50606082015161388d60608501826138b9565b5060808201516138a060808501826138b9565b5060a08201516138b360a08501826138b9565b50505050565b6138c28161416b565b82525050565b6138d18161416b565b82525050565b60006138e382876130e5565b600a820191506138f382866130e5565b600a82019150613903828561312a565b60148201915061391382846130fc565b600f8201915081905095945050505050565b60006139318287613113565b6001820191506139418286613061565b6014820191506139518285613150565b6020820191506139618284613150565b60208201915081905095945050505050565b6000613980828486613167565b91508190509392505050565b6000613998828461318c565b915081905092915050565b60006139b0828486613208565b91508190509392505050565b60006020820190506139d16000830184613052565b92915050565b6000610160820190506139ed600083018e613052565b6139fa602083018d613052565b613a07604083018c613052565b613a14606083018b613052565b613a21608083018a6138c8565b613a2e60a08301896138c8565b613a3b60c08301886138c8565b613a4860e08301876138c8565b613a566101008301866138c8565b613a646101208301856138c8565b613a726101408301846131cc565b9c9b505050505050505050505050565b600061010082019050613a986000830186613052565b613aa56020830185613052565b613ab2604083018461383e565b949350505050565b6000606082019050613acf6000830186613052565b613adc6020830185613052565b613ae960408301846138c8565b949350505050565b6000604082019050613b066000830185613052565b613b1360208301846138c8565b9392505050565b600061010082019050613b30600083018b613052565b613b3d602083018a6138c8565b613b4a60408301896138c8565b613b5760608301886138c8565b613b6460808301876138c8565b613b7160a08301866138c8565b613b7e60c08301856138c8565b613b8b60e08301846131cc565b9998505050505050505050565b60006020820190508181036000830152613bb28184613078565b905092915050565b6000602082019050613bcf60008301846130d6565b92915050565b6000608082019050613bea6000830187613141565b613bf760208301866138c8565b613c0460408301856138c8565b613c1160608301846138c8565b95945050505050565b6000602082019050613c2f60008301846131bd565b92915050565b60006020820190508181036000830152613c508184866131db565b90509392505050565b60006020820190508181036000830152613c73818461322d565b905092915050565b60006020820190508181036000830152613c9481613266565b9050919050565b60006020820190508181036000830152613cb4816132cc565b9050919050565b60006020820190508181036000830152613cd48161330c565b9050919050565b60006020820190508181036000830152613cf48161334c565b9050919050565b60006020820190508181036000830152613d148161338c565b9050919050565b60006020820190508181036000830152613d34816133cc565b9050919050565b60006020820190508181036000830152613d5481613432565b9050919050565b60006020820190508181036000830152613d7481613472565b9050919050565b60006020820190508181036000830152613d94816134d8565b9050919050565b60006020820190508181036000830152613db481613518565b9050919050565b60006020820190508181036000830152613dd481613558565b9050919050565b60006020820190508181036000830152613df481613598565b9050919050565b60006020820190508181036000830152613e14816135d8565b9050919050565b60006020820190508181036000830152613e3481613618565b9050919050565b60006020820190508181036000830152613e5481613658565b9050919050565b60006020820190508181036000830152613e7481613698565b9050919050565b60006020820190508181036000830152613e94816136d8565b9050919050565b60006020820190508181036000830152613eb481613718565b9050919050565b60006020820190508181036000830152613ed481613758565b9050919050565b60006020820190508181036000830152613ef4816137be565b9050919050565b60006020820190508181036000830152613f14816137fe565b9050919050565b6000602082019050613f3060008301846138c8565b92915050565b60008083356001602003843603038112613f4f57600080fd5b80840192508235915067ffffffffffffffff821115613f6d57600080fd5b602083019250600182023603831315613f8557600080fd5b509250929050565b6000604051905081810181811067ffffffffffffffff82111715613fb457613fb3614243565b5b8060405250919050565b6000819050602082019050919050565b600081519050919050565b600081519050919050565b600081519050919050565b6000602082019050919050565b600082825260208201905092915050565b600081905092915050565b600082825260208201905092915050565b600081905092915050565b600061403f8261414b565b9050919050565b60008115159050919050565b60007fff0000000000000000000000000000000000000000000000000000000000000082169050919050565b60007fffffffffffffffffffff0000000000000000000000000000000000000000000082169050919050565b60007fffffffffffffffffffffffffffffff000000000000000000000000000000000082169050919050565b60007fffffffffffffffffffffffffffffffffffffffff00000000000000000000000082169050919050565b6000819050919050565b60007fffffffff0000000000000000000000000000000000000000000000000000000082169050919050565b600081905061414682614263565b919050565b600073ffffffffffffffffffffffffffffffffffffffff82169050919050565b6000819050919050565b600061418082614187565b9050919050565b60006141928261414b565b9050919050565b60006141a482614138565b9050919050565b82818337600083830152505050565b60005b838110156141d85780820151818401526020810190506141bd565b838111156141e7576000848401525b50505050565b60006141f882614231565b9050919050565b6000819050919050565b6000819050919050565b6000819050919050565b6000819050919050565b6000819050919050565b600061423c82614256565b9050919050565bfe5b6000601f19601f8301169050919050565b60008160601b9050919050565b6003811061427457614273614243565b5b50565b61428081614034565b811461428b57600080fd5b50565b61429781614046565b81146142a257600080fd5b50565b6142ae81614102565b81146142b957600080fd5b50565b6142c58161410c565b81146142d057600080fd5b50565b600381106142e057600080fd5b50565b6142ec8161416b565b81146142f757600080fd5b5056fea264697066735822122010f167ec85dbd4b07aedb6960f9f6ac5ae1b0f5473409617dcd319393591837164736f6c63430007030033",
  "devdoc": {
    "events": {
      "LockedTokensReceivedFromL1(address,address,uint256)": {
        "details": "Emitted when locked tokens are received from L1 (whether the wallet had already been received or not)"
      },
      "TokenLockCreatedFromL1(address,bytes32,address,uint256,uint256,uint256,address)": {
        "details": "Event emitted when a wallet is received and created from L1"
      }
    },
    "kind": "dev",
    "methods": {
      "addTokenDestination(address)": {
        "params": {
          "_dst": "Destination address"
        }
      },
      "constructor": {
        "params": {
          "_graphToken": "Address of the L2 GRT token contract",
          "_l1TransferTool": "Address of the L1 transfer tool contract (in L1, without aliasing)",
          "_l2Gateway": "Address of the L2GraphTokenGateway contract",
          "_masterCopy": "Address of the master copy of the L2GraphTokenLockWallet implementation"
        }
      },
      "createTokenLockWallet(address,address,uint256,uint256,uint256,uint256,uint256,uint256,uint8)": {
        "params": {
          "_beneficiary": "Address of the beneficiary of locked tokens",
          "_endTime": "End time of the release schedule",
          "_managedAmount": "Amount of tokens to be managed by the lock contract",
          "_owner": "Address of the contract owner",
          "_periods": "Number of periods between start time and end time",
          "_releaseStartTime": "Override time for when the releases start",
          "_revocable": "Whether the contract is revocable",
          "_startTime": "Start time of the release schedule"
        }
      },
      "deposit(uint256)": {
        "details": "Even if the ERC20 token can be transferred directly to the contract this function provide a safe interface to do the transfer and avoid mistakes",
        "params": {
          "_amount": "Amount to deposit"
        }
      },
      "getAuthFunctionCallTarget(bytes4)": {
        "params": {
          "_sigHash": "Function signature hash"
        },
        "returns": {
          "_0": "Address of the target contract where to send the call"
        }
      },
      "getDeploymentAddress(bytes32,address,address)": {
        "params": {
          "_deployer": "Address of the deployer that creates the contract",
          "_implementation": "Address of the proxy target implementation",
          "_salt": "Bytes32 salt to use for CREATE2"
        },
        "returns": {
          "_0": "Address of the counterfactual MinimalProxy"
        }
      },
      "getTokenDestinations()": {
        "returns": {
          "_0": "Array of addresses authorized to pull funds from a token lock"
        }
      },
      "isAuthFunctionCall(bytes4)": {
        "params": {
          "_sigHash": "Function signature hash"
        },
        "returns": {
          "_0": "True if authorized"
        }
      },
      "isTokenDestination(address)": {
        "params": {
          "_dst": "Destination address"
        },
        "returns": {
          "_0": "True if authorized"
        }
      },
      "onTokenTransfer(address,uint256,bytes)": {
        "details": "This function will create a new wallet if it doesn't exist yet, or send the tokens to the existing wallet if it does.",
        "params": {
          "_amount": "Amount of tokens received",
          "_data": "Encoded data of the transferred wallet, which must be an ABI-encoded TransferredWalletData struct",
          "_from": "Address of the sender in L1, which must be the L1GraphTokenLockTransferTool"
        }
      },
      "owner()": {
        "details": "Returns the address of the current owner."
      },
      "removeTokenDestination(address)": {
        "params": {
          "_dst": "Destination address"
        }
      },
      "renounceOwnership()": {
        "details": "Leaves the contract without owner. It will not be possible to call `onlyOwner` functions anymore. Can only be called by the current owner. NOTE: Renouncing ownership will leave the contract without an owner, thereby removing any functionality that is only available to the owner."
      },
      "setAuthFunctionCall(string,address)": {
        "details": "Input expected is the function signature as 'transfer(address,uint256)'",
        "params": {
          "_signature": "Function signature",
          "_target": "Address of the destination contract to call"
        }
      },
      "setAuthFunctionCallMany(string[],address[])": {
        "details": "Input expected is the function signature as 'transfer(address,uint256)'",
        "params": {
          "_signatures": "Function signatures",
          "_targets": "Address of the destination contract to call"
        }
      },
      "setMasterCopy(address)": {
        "params": {
          "_masterCopy": "Address of contract bytecode to factory clone"
        }
      },
      "token()": {
        "returns": {
          "_0": "Token used for transfers and approvals"
        }
      },
      "transferOwnership(address)": {
        "details": "Transfers ownership of the contract to a new account (`newOwner`). Can only be called by the current owner."
      },
      "unsetAuthFunctionCall(string)": {
        "details": "Input expected is the function signature as 'transfer(address,uint256)'",
        "params": {
          "_signature": "Function signature"
        }
      },
      "withdraw(uint256)": {
        "details": "Escape hatch in case of mistakes or to recover remaining funds",
        "params": {
          "_amount": "Amount of tokens to withdraw"
        }
      }
    },
    "title": "L2GraphTokenLockManager",
    "version": 1
  },
  "userdoc": {
    "kind": "user",
    "methods": {
      "addTokenDestination(address)": {
        "notice": "Adds an address that can be allowed by a token lock to pull funds"
      },
      "constructor": {
        "notice": "Constructor for the L2GraphTokenLockManager contract."
      },
      "createTokenLockWallet(address,address,uint256,uint256,uint256,uint256,uint256,uint256,uint8)": {
        "notice": "Creates and fund a new token lock wallet using a minimum proxy"
      },
      "deposit(uint256)": {
        "notice": "Deposits tokens into the contract"
      },
      "getAuthFunctionCallTarget(bytes4)": {
        "notice": "Gets the target contract to call for a particular function signature"
      },
      "getDeploymentAddress(bytes32,address,address)": {
        "notice": "Gets the deterministic CREATE2 address for MinimalProxy with a particular implementation"
      },
      "getTokenDestinations()": {
        "notice": "Returns an array of authorized destination addresses"
      },
      "isAuthFunctionCall(bytes4)": {
        "notice": "Returns true if the function call is authorized"
      },
      "isTokenDestination(address)": {
        "notice": "Returns True if the address is authorized to be a destination of tokens"
      },
      "l1TransferTool()": {
        "notice": "Address of the L1 transfer tool contract (in L1, no aliasing)"
      },
      "l1WalletToL2Wallet(address)": {
        "notice": "Mapping of each L1 wallet to its L2 wallet counterpart (populated when each wallet is received) L1 address => L2 address"
      },
      "l2Gateway()": {
        "notice": "Address of the L2GraphTokenGateway"
      },
      "l2WalletToL1Wallet(address)": {
        "notice": "Mapping of each L2 wallet to its L1 wallet counterpart (populated when each wallet is received) L2 address => L1 address"
      },
      "onTokenTransfer(address,uint256,bytes)": {
        "notice": "This function is called by the L2GraphTokenGateway when tokens are sent from L1."
      },
      "removeTokenDestination(address)": {
        "notice": "Removes an address that can be allowed by a token lock to pull funds"
      },
      "setAuthFunctionCall(string,address)": {
        "notice": "Sets an authorized function call to target"
      },
      "setAuthFunctionCallMany(string[],address[])": {
        "notice": "Sets an authorized function call to target in bulk"
      },
      "setMasterCopy(address)": {
        "notice": "Sets the masterCopy bytecode to use to create clones of TokenLock contracts"
      },
      "token()": {
        "notice": "Gets the GRT token address"
      },
      "unsetAuthFunctionCall(string)": {
        "notice": "Unsets an authorized function call to target"
      },
      "withdraw(uint256)": {
        "notice": "Withdraws tokens from the contract"
      }
    },
    "notice": "This contract manages a list of authorized function calls and targets that can be called by any TokenLockWallet contract and it is a factory of TokenLockWallet contracts. This contract receives funds to make the process of creating TokenLockWallet contracts easier by distributing them the initial tokens to be managed. In particular, this L2 variant is designed to receive token lock wallets from L1, through the GRT bridge. These transferred wallets will not allow releasing funds in L2 until the end of the vesting timeline, but they can allow withdrawing funds back to L1 using the L2GraphTokenLockTransferTool contract. The owner can setup a list of token destinations that will be used by TokenLock contracts to approve the pulling of funds, this way in can be guaranteed that only protocol contracts will manipulate users funds.",
    "version": 1
  },
  "storageLayout": {
    "storage": [
      {
        "astId": 672,
        "contract": "contracts/L2GraphTokenLockManager.sol:L2GraphTokenLockManager",
        "label": "_owner",
        "offset": 0,
        "slot": "0",
        "type": "t_address"
      },
      {
        "astId": 3988,
        "contract": "contracts/L2GraphTokenLockManager.sol:L2GraphTokenLockManager",
        "label": "authFnCalls",
        "offset": 0,
        "slot": "1",
        "type": "t_mapping(t_bytes4,t_address)"
      },
      {
        "astId": 3990,
        "contract": "contracts/L2GraphTokenLockManager.sol:L2GraphTokenLockManager",
        "label": "_tokenDestinations",
        "offset": 0,
        "slot": "2",
        "type": "t_struct(AddressSet)2629_storage"
      },
      {
        "astId": 3992,
        "contract": "contracts/L2GraphTokenLockManager.sol:L2GraphTokenLockManager",
        "label": "masterCopy",
        "offset": 0,
        "slot": "4",
        "type": "t_address"
      },
      {
        "astId": 3994,
        "contract": "contracts/L2GraphTokenLockManager.sol:L2GraphTokenLockManager",
        "label": "_token",
        "offset": 0,
        "slot": "5",
        "type": "t_contract(IERC20)1710"
      },
      {
        "astId": 6154,
        "contract": "contracts/L2GraphTokenLockManager.sol:L2GraphTokenLockManager",
        "label": "l1WalletToL2Wallet",
        "offset": 0,
        "slot": "6",
        "type": "t_mapping(t_address,t_address)"
      },
      {
        "astId": 6159,
        "contract": "contracts/L2GraphTokenLockManager.sol:L2GraphTokenLockManager",
        "label": "l2WalletToL1Wallet",
        "offset": 0,
        "slot": "7",
        "type": "t_mapping(t_address,t_address)"
      }
    ],
    "types": {
      "t_address": {
        "encoding": "inplace",
        "label": "address",
        "numberOfBytes": "20"
      },
      "t_array(t_bytes32)dyn_storage": {
        "base": "t_bytes32",
        "encoding": "dynamic_array",
        "label": "bytes32[]",
        "numberOfBytes": "32"
      },
      "t_bytes32": {
        "encoding": "inplace",
        "label": "bytes32",
        "numberOfBytes": "32"
      },
      "t_bytes4": {
        "encoding": "inplace",
        "label": "bytes4",
        "numberOfBytes": "4"
      },
      "t_contract(IERC20)1710": {
        "encoding": "inplace",
        "label": "contract IERC20",
        "numberOfBytes": "20"
      },
      "t_mapping(t_address,t_address)": {
        "encoding": "mapping",
        "key": "t_address",
        "label": "mapping(address => address)",
        "numberOfBytes": "32",
        "value": "t_address"
      },
      "t_mapping(t_bytes32,t_uint256)": {
        "encoding": "mapping",
        "key": "t_bytes32",
        "label": "mapping(bytes32 => uint256)",
        "numberOfBytes": "32",
        "value": "t_uint256"
      },
      "t_mapping(t_bytes4,t_address)": {
        "encoding": "mapping",
        "key": "t_bytes4",
        "label": "mapping(bytes4 => address)",
        "numberOfBytes": "32",
        "value": "t_address"
      },
      "t_struct(AddressSet)2629_storage": {
        "encoding": "inplace",
        "label": "struct EnumerableSet.AddressSet",
        "members": [
          {
            "astId": 2628,
            "contract": "contracts/L2GraphTokenLockManager.sol:L2GraphTokenLockManager",
            "label": "_inner",
            "offset": 0,
            "slot": "0",
            "type": "t_struct(Set)2364_storage"
          }
        ],
        "numberOfBytes": "64"
      },
      "t_struct(Set)2364_storage": {
        "encoding": "inplace",
        "label": "struct EnumerableSet.Set",
        "members": [
          {
            "astId": 2359,
            "contract": "contracts/L2GraphTokenLockManager.sol:L2GraphTokenLockManager",
            "label": "_values",
            "offset": 0,
            "slot": "0",
            "type": "t_array(t_bytes32)dyn_storage"
          },
          {
            "astId": 2363,
            "contract": "contracts/L2GraphTokenLockManager.sol:L2GraphTokenLockManager",
            "label": "_indexes",
            "offset": 0,
            "slot": "1",
            "type": "t_mapping(t_bytes32,t_uint256)"
          }
        ],
        "numberOfBytes": "64"
      },
      "t_uint256": {
        "encoding": "inplace",
        "label": "uint256",
        "numberOfBytes": "32"
      }
    }
  }
}