{
  "address": "0x6864Cdd6D69Dbef02E5e06c5534b20fdaf8b51b0",
  "abi": [
    {
      "anonymous": false,
      "inputs": [
        {
          "indexed": false,
          "internalType": "address",
          "name": "newBeneficiary",
          "type": "address"
        }
      ],
      "name": "BeneficiaryChanged",
      "type": "event"
    },
    {
      "anonymous": false,
      "inputs": [],
      "name": "LockAccepted",
      "type": "event"
    },
    {
      "anonymous": false,
      "inputs": [],
      "name": "LockCanceled",
      "type": "event"
    },
    {
      "anonymous": false,
      "inputs": [
        {
          "indexed": true,
          "internalType": "address",
          "name": "_oldManager",
          "type": "address"
        },
        {
          "indexed": true,
          "internalType": "address",
          "name": "_newManager",
          "type": "address"
        }
      ],
      "name": "ManagerUpdated",
      "type": "event"
    },
    {
      "anonymous": false,
      "inputs": [
        {
          "indexed": true,
          "internalType": "address",
          "name": "previousOwner",
          "type": "address"
        },
        {
          "indexed": true,
          "internalType": "address",
          "name": "newOwner",
          "type": "address"
        }
      ],
      "name": "OwnershipTransferred",
      "type": "event"
    },
    {
      "anonymous": false,
      "inputs": [],
      "name": "TokenDestinationsApproved",
      "type": "event"
    },
    {
      "anonymous": false,
      "inputs": [],
      "name": "TokenDestinationsRevoked",
      "type": "event"
    },
    {
      "anonymous": false,
      "inputs": [
        {
          "indexed": true,
          "internalType": "address",
          "name": "beneficiary",
          "type": "address"
        },
        {
          "indexed": false,
          "internalType": "uint256",
          "name": "amount",
          "type": "uint256"
        }
      ],
      "name": "TokensReleased",
      "type": "event"
    },
    {
      "anonymous": false,
      "inputs": [
        {
          "indexed": true,
          "internalType": "address",
          "name": "beneficiary",
          "type": "address"
        },
        {
          "indexed": false,
          "internalType": "uint256",
          "name": "amount",
          "type": "uint256"
        }
      ],
      "name": "TokensRevoked",
      "type": "event"
    },
    {
      "anonymous": false,
      "inputs": [
        {
          "indexed": true,
          "internalType": "address",
          "name": "beneficiary",
          "type": "address"
        },
        {
          "indexed": false,
          "internalType": "uint256",
          "name": "amount",
          "type": "uint256"
        }
      ],
      "name": "TokensWithdrawn",
      "type": "event"
    },
    {
      "stateMutability": "payable",
      "type": "fallback"
    },
    {
      "inputs": [],
      "name": "acceptLock",
      "outputs": [],
      "stateMutability": "nonpayable",
      "type": "function"
    },
    {
      "inputs": [],
      "name": "amountPerPeriod",
      "outputs": [
        {
          "internalType": "uint256",
          "name": "",
          "type": "uint256"
        }
      ],
      "stateMutability": "view",
      "type": "function"
    },
    {
      "inputs": [],
      "name": "approveProtocol",
      "outputs": [],
      "stateMutability": "nonpayable",
      "type": "function"
    },
    {
      "inputs": [],
      "name": "availableAmount",
      "outputs": [
        {
          "internalType": "uint256",
          "name": "",
          "type": "uint256"
        }
      ],
      "stateMutability": "view",
      "type": "function"
    },
    {
      "inputs": [],
      "name": "beneficiary",
      "outputs": [
        {
          "internalType": "address",
          "name": "",
          "type": "address"
        }
      ],
      "stateMutability": "view",
      "type": "function"
    },
    {
      "inputs": [],
      "name": "cancelLock",
      "outputs": [],
      "stateMutability": "nonpayable",
      "type": "function"
    },
    {
      "inputs": [
        {
          "internalType": "address",
          "name": "_newBeneficiary",
          "type": "address"
        }
      ],
      "name": "changeBeneficiary",
      "outputs": [],
      "stateMutability": "nonpayable",
      "type": "function"
    },
    {
      "inputs": [],
      "name": "currentBalance",
      "outputs": [
        {
          "internalType": "uint256",
          "name": "",
          "type": "uint256"
        }
      ],
      "stateMutability": "view",
      "type": "function"
    },
    {
      "inputs": [],
      "name": "currentPeriod",
      "outputs": [
        {
          "internalType": "uint256",
          "name": "",
          "type": "uint256"
        }
      ],
      "stateMutability": "view",
      "type": "function"
    },
    {
      "inputs": [],
      "name": "currentTime",
      "outputs": [
        {
          "internalType": "uint256",
          "name": "",
          "type": "uint256"
        }
      ],
      "stateMutability": "view",
      "type": "function"
    },
    {
      "inputs": [],
      "name": "duration",
      "outputs": [
        {
          "internalType": "uint256",
          "name": "",
          "type": "uint256"
        }
      ],
      "stateMutability": "view",
      "type": "function"
    },
    {
      "inputs": [],
      "name": "endTime",
      "outputs": [
        {
          "internalType": "uint256",
          "name": "",
          "type": "uint256"
        }
      ],
      "stateMutability": "view",
      "type": "function"
    },
    {
      "inputs": [
        {
          "internalType": "address",
          "name": "_manager",
          "type": "address"
        },
        {
          "internalType": "address",
          "name": "_owner",
          "type": "address"
        },
        {
          "internalType": "address",
          "name": "_beneficiary",
          "type": "address"
        },
        {
          "internalType": "address",
          "name": "_token",
          "type": "address"
        },
        {
          "internalType": "uint256",
          "name": "_managedAmount",
          "type": "uint256"
        },
        {
          "internalType": "uint256",
          "name": "_startTime",
          "type": "uint256"
        },
        {
          "internalType": "uint256",
          "name": "_endTime",
          "type": "uint256"
        },
        {
          "internalType": "uint256",
          "name": "_periods",
          "type": "uint256"
        },
        {
          "internalType": "uint256",
          "name": "_releaseStartTime",
          "type": "uint256"
        },
        {
          "internalType": "uint256",
          "name": "_vestingCliffTime",
          "type": "uint256"
        },
        {
          "internalType": "enum IGraphTokenLock.Revocability",
          "name": "_revocable",
          "type": "uint8"
        }
      ],
      "name": "initialize",
      "outputs": [],
      "stateMutability": "nonpayable",
      "type": "function"
    },
    {
      "inputs": [
        {
          "internalType": "address",
          "name": "_manager",
          "type": "address"
        },
        {
          "internalType": "address",
          "name": "_token",
          "type": "address"
        },
        {
          "components": [
            {
              "internalType": "address",
              "name": "l1Address",
              "type": "address"
            },
            {
              "internalType": "address",
              "name": "owner",
              "type": "address"
            },
            {
              "internalType": "address",
              "name": "beneficiary",
              "type": "address"
            },
            {
              "internalType": "uint256",
              "name": "managedAmount",
              "type": "uint256"
            },
            {
              "internalType": "uint256",
              "name": "startTime",
              "type": "uint256"
            },
            {
              "internalType": "uint256",
              "name": "endTime",
              "type": "uint256"
            }
          ],
          "internalType": "struct L2GraphTokenLockManager.TransferredWalletData",
          "name": "_walletData",
          "type": "tuple"
        }
      ],
      "name": "initializeFromL1",
      "outputs": [],
      "stateMutability": "nonpayable",
      "type": "function"
    },
    {
      "inputs": [],
      "name": "isAccepted",
      "outputs": [
        {
          "internalType": "bool",
          "name": "",
          "type": "bool"
        }
      ],
      "stateMutability": "view",
      "type": "function"
    },
    {
      "inputs": [],
      "name": "isInitialized",
      "outputs": [
        {
          "internalType": "bool",
          "name": "",
          "type": "bool"
        }
      ],
      "stateMutability": "view",
      "type": "function"
    },
    {
      "inputs": [],
      "name": "isRevoked",
      "outputs": [
        {
          "internalType": "bool",
          "name": "",
          "type": "bool"
        }
      ],
      "stateMutability": "view",
      "type": "function"
    },
    {
      "inputs": [],
      "name": "managedAmount",
      "outputs": [
        {
          "internalType": "uint256",
          "name": "",
          "type": "uint256"
        }
      ],
      "stateMutability": "view",
      "type": "function"
    },
    {
      "inputs": [],
      "name": "manager",
      "outputs": [
        {
          "internalType": "contract IGraphTokenLockManager",
          "name": "",
          "type": "address"
        }
      ],
      "stateMutability": "view",
      "type": "function"
    },
    {
      "inputs": [],
      "name": "owner",
      "outputs": [
        {
          "internalType": "address",
          "name": "",
          "type": "address"
        }
      ],
      "stateMutability": "view",
      "type": "function"
    },
    {
      "inputs": [],
      "name": "passedPeriods",
      "outputs": [
        {
          "internalType": "uint256",
          "name": "",
          "type": "uint256"
        }
      ],
      "stateMutability": "view",
      "type": "function"
    },
    {
      "inputs": [],
      "name": "periodDuration",
      "outputs": [
        {
          "internalType": "uint256",
          "name": "",
          "type": "uint256"
        }
      ],
      "stateMutability": "view",
      "type": "function"
    },
    {
      "inputs": [],
      "name": "periods",
      "outputs": [
        {
          "internalType": "uint256",
          "name": "",
          "type": "uint256"
        }
      ],
      "stateMutability": "view",
      "type": "function"
    },
    {
      "inputs": [],
      "name": "releasableAmount",
      "outputs": [
        {
          "internalType": "uint256",
          "name": "",
          "type": "uint256"
        }
      ],
      "stateMutability": "view",
      "type": "function"
    },
    {
      "inputs": [],
      "name": "release",
      "outputs": [],
      "stateMutability": "nonpayable",
      "type": "function"
    },
    {
      "inputs": [],
      "name": "releaseStartTime",
      "outputs": [
        {
          "internalType": "uint256",
          "name": "",
          "type": "uint256"
        }
      ],
      "stateMutability": "view",
      "type": "function"
    },
    {
      "inputs": [],
      "name": "releasedAmount",
      "outputs": [
        {
          "internalType": "uint256",
          "name": "",
          "type": "uint256"
        }
      ],
      "stateMutability": "view",
      "type": "function"
    },
    {
      "inputs": [],
      "name": "renounceOwnership",
      "outputs": [],
      "stateMutability": "nonpayable",
      "type": "function"
    },
    {
      "inputs": [],
      "name": "revocable",
      "outputs": [
        {
          "internalType": "enum IGraphTokenLock.Revocability",
          "name": "",
          "type": "uint8"
        }
      ],
      "stateMutability": "view",
      "type": "function"
    },
    {
      "inputs": [],
      "name": "revoke",
      "outputs": [],
      "stateMutability": "nonpayable",
      "type": "function"
    },
    {
      "inputs": [],
      "name": "revokeProtocol",
      "outputs": [],
      "stateMutability": "nonpayable",
      "type": "function"
    },
    {
      "inputs": [],
      "name": "revokedAmount",
      "outputs": [
        {
          "internalType": "uint256",
          "name": "",
          "type": "uint256"
        }
      ],
      "stateMutability": "view",
      "type": "function"
    },
    {
      "inputs": [
        {
          "internalType": "address",
          "name": "_newManager",
          "type": "address"
        }
      ],
      "name": "setManager",
      "outputs": [],
      "stateMutability": "nonpayable",
      "type": "function"
    },
    {
      "inputs": [],
      "name": "sinceStartTime",
      "outputs": [
        {
          "internalType": "uint256",
          "name": "",
          "type": "uint256"
        }
      ],
      "stateMutability": "view",
      "type": "function"
    },
    {
      "inputs": [],
      "name": "startTime",
      "outputs": [
        {
          "internalType": "uint256",
          "name": "",
          "type": "uint256"
        }
      ],
      "stateMutability": "view",
      "type": "function"
    },
    {
      "inputs": [],
      "name": "surplusAmount",
      "outputs": [
        {
          "internalType": "uint256",
          "name": "",
          "type": "uint256"
        }
      ],
      "stateMutability": "view",
      "type": "function"
    },
    {
      "inputs": [],
      "name": "token",
      "outputs": [
        {
          "internalType": "contract IERC20",
          "name": "",
          "type": "address"
        }
      ],
      "stateMutability": "view",
      "type": "function"
    },
    {
      "inputs": [],
      "name": "totalOutstandingAmount",
      "outputs": [
        {
          "internalType": "uint256",
          "name": "",
          "type": "uint256"
        }
      ],
      "stateMutability": "view",
      "type": "function"
    },
    {
      "inputs": [
        {
          "internalType": "address",
          "name": "newOwner",
          "type": "address"
        }
      ],
      "name": "transferOwnership",
      "outputs": [],
      "stateMutability": "nonpayable",
      "type": "function"
    },
    {
      "inputs": [],
      "name": "usedAmount",
      "outputs": [
        {
          "internalType": "uint256",
          "name": "",
          "type": "uint256"
        }
      ],
      "stateMutability": "view",
      "type": "function"
    },
    {
      "inputs": [],
      "name": "vestedAmount",
      "outputs": [
        {
          "internalType": "uint256",
          "name": "",
          "type": "uint256"
        }
      ],
      "stateMutability": "view",
      "type": "function"
    },
    {
      "inputs": [],
      "name": "vestingCliffTime",
      "outputs": [
        {
          "internalType": "uint256",
          "name": "",
          "type": "uint256"
        }
      ],
      "stateMutability": "view",
      "type": "function"
    },
    {
      "inputs": [
        {
          "internalType": "uint256",
          "name": "_amount",
          "type": "uint256"
        }
      ],
      "name": "withdrawSurplus",
      "outputs": [],
      "stateMutability": "nonpayable",
      "type": "function"
    },
    {
      "stateMutability": "payable",
      "type": "receive"
    }
  ],
  "transactionHash": "0x62d5d07e799bf37a4758be9f534d365caaf94bffd008ce65ff686ab50ca7c959",
  "args": [],
  "solcInputHash": "b5cdad58099d39cd1aed000b2fd864d8",
  "bytecode": "0x608060405234801561001057600080fd5b506148f5806100206000396000f3fe6080604052600436106102605760003560e01c80637bdf05af11610144578063bc0163c1116100b6578063dc0706571161007a578063dc07065714610bc7578063e8dda6f514610bf0578063e97d87d514610c1b578063ebbab99214610c46578063f2fde38b14610c71578063fc0c546a14610c9a576102a0565b8063bc0163c114610af4578063bd896dcb14610b1f578063ce845d1d14610b48578063d0ebdbe714610b73578063d18e81b314610b9c576102a0565b80638da5cb5b116101085780638da5cb5b14610a0857806391f7cfb914610a33578063a4caeb4214610a5e578063b0d1818c14610a89578063b470aade14610ab2578063b6549f7514610add576102a0565b80637bdf05af1461095957806386d00e021461098457806386d1a69f146109af578063872a7810146109c65780638a5bdf5c146109f1576102a0565b806338af3eed116101dd578063481c6a75116101a1578063481c6a751461087f5780635051a5ec146108aa5780635b940081146108d557806360e7994414610900578063715018a61461091757806378e979251461092e576102a0565b806338af3eed146107a8578063392e53cd146107d3578063398057a3146107fe57806344b1231f1461082957806345d30a1714610854576102a0565b806320dc203d1161022457806320dc203d146106e75780632a627814146107105780632bc9ed02146107275780633197cbb61461075257806337aeb0861461077d576102a0565b8063029c6c9f14610624578063060406181461064f5780630b80f7771461067a5780630dff24d5146106915780630fb5a6b4146106bc576102a0565b366102a0576040517f08c379a0000000000000000000000000000000000000000000000000000000008152600401610297906141f3565b60405180910390fd5b603460009054906101000a900473ffffffffffffffffffffffffffffffffffffffff1673ffffffffffffffffffffffffffffffffffffffff163373ffffffffffffffffffffffffffffffffffffffff1614610330576040517f08c379a0000000000000000000000000000000000000000000000000000000008152600401610327906143d3565b60405180910390fd5b60003414610373576040517f08c379a000000000000000000000000000000000000000000000000000000000815260040161036a90614213565b60405180910390fd5b6000603e60009054906101000a900473ffffffffffffffffffffffffffffffffffffffff1673ffffffffffffffffffffffffffffffffffffffff1663f1d24c456000357fffffffff00000000000000000000000000000000000000000000000000000000166040518263ffffffff1660e01b81526004016103f49190614165565b60206040518083038186803b15801561040c57600080fd5b505afa158015610420573d6000803e3d6000fd5b505050506040513d601f19601f82011682018060405250810190610444919061338f565b9050600073ffffffffffffffffffffffffffffffffffffffff168173ffffffffffffffffffffffffffffffffffffffff1614156104b6576040517f08c379a00000000000000000000000000000000000000000000000000000000081526004016104ad906144d3565b60405180910390fd5b60006104c0610cc5565b9050610511826000368080601f016020809104026020016040519081016040528093929190818152602001838380828437600081840152601f19601f82011690508083019250505050505050610d77565b506001600281111561051f57fe5b603b60009054906101000a900460ff16600281111561053a57fe5b141561062057600061054a610cc5565b90508181101561058c5760006105698284610dc190919063ffffffff16565b905061058081603f54610e1190919063ffffffff16565b603f81905550506105d2565b60006105a18383610dc190919063ffffffff16565b9050603f548110156105c7576105c281603f54610dc190919063ffffffff16565b6105ca565b60005b603f81905550505b6105da610e66565b603f54111561061e576040517f08c379a000000000000000000000000000000000000000000000000000000000815260040161061590614433565b60405180910390fd5b505b5050005b34801561063057600080fd5b50610639610ed5565b6040516106469190614673565b60405180910390f35b34801561065b57600080fd5b50610664610ef3565b6040516106719190614673565b60405180910390f35b34801561068657600080fd5b5061068f610f2e565b005b34801561069d57600080fd5b506106a661109b565b6040516106b39190614673565b60405180910390f35b3480156106c857600080fd5b506106d16110e2565b6040516106de9190614673565b60405180910390f35b3480156106f357600080fd5b5061070e600480360381019061070991906134a8565b611100565b005b34801561071c57600080fd5b5061072561129b565b005b34801561073357600080fd5b5061073c611500565b604051610749919061414a565b60405180910390f35b34801561075e57600080fd5b50610767611513565b6040516107749190614673565b60405180910390f35b34801561078957600080fd5b50610792611519565b60405161079f9190614673565b60405180910390f35b3480156107b457600080fd5b506107bd61151f565b6040516107ca91906140dd565b60405180910390f35b3480156107df57600080fd5b506107e8611545565b6040516107f5919061414a565b60405180910390f35b34801561080a57600080fd5b50610813611558565b6040516108209190614673565b60405180910390f35b34801561083557600080fd5b5061083e610e66565b60405161084b9190614673565b60405180910390f35b34801561086057600080fd5b5061086961155e565b6040516108769190614673565b60405180910390f35b34801561088b57600080fd5b50610894611564565b6040516108a1919061419b565b60405180910390f35b3480156108b657600080fd5b506108bf61158a565b6040516108cc919061414a565b60405180910390f35b3480156108e157600080fd5b506108ea61159d565b6040516108f79190614673565b60405180910390f35b34801561090c57600080fd5b506109156116a8565b005b34801561092357600080fd5b5061092c6118ee565b005b34801561093a57600080fd5b50610943611a3a565b6040516109509190614673565b60405180910390f35b34801561096557600080fd5b5061096e611a40565b60405161097b9190614673565b60405180910390f35b34801561099057600080fd5b50610999611a7c565b6040516109a69190614673565b60405180910390f35b3480156109bb57600080fd5b506109c4611a82565b005b3480156109d257600080fd5b506109db611c5e565b6040516109e891906141b6565b60405180910390f35b3480156109fd57600080fd5b50610a06611c71565b005b348015610a1457600080fd5b50610a1d611d4a565b604051610a2a91906140dd565b60405180910390f35b348015610a3f57600080fd5b50610a48611d73565b604051610a559190614673565b60405180910390f35b348015610a6a57600080fd5b50610a73611dd1565b604051610a809190614673565b60405180910390f35b348015610a9557600080fd5b50610ab06004803603810190610aab9190613562565b611dd7565b005b348015610abe57600080fd5b50610ac7611fd6565b604051610ad49190614673565b60405180910390f35b348015610ae957600080fd5b50610af2611ff9565b005b348015610b0057600080fd5b50610b09612291565b604051610b169190614673565b60405180910390f35b348015610b2b57600080fd5b50610b466004803603810190610b4191906133b8565b6122c3565b005b348015610b5457600080fd5b50610b5d610cc5565b604051610b6a9190614673565b60405180910390f35b348015610b7f57600080fd5b50610b9a6004803603810190610b959190613366565b6122eb565b005b348015610ba857600080fd5b50610bb1612385565b604051610bbe9190614673565b60405180910390f35b348015610bd357600080fd5b50610bee6004803603810190610be99190613366565b61238d565b005b348015610bfc57600080fd5b50610c05612508565b604051610c129190614673565b60405180910390f35b348015610c2757600080fd5b50610c3061250e565b604051610c3d9190614673565b60405180910390f35b348015610c5257600080fd5b50610c5b612514565b604051610c689190614673565b60405180910390f35b348015610c7d57600080fd5b50610c986004803603810190610c939190613366565b612536565b005b348015610ca657600080fd5b50610caf6126f1565b604051610cbc9190614180565b60405180910390f35b6000603360009054906101000a900473ffffffffffffffffffffffffffffffffffffffff1673ffffffffffffffffffffffffffffffffffffffff166370a08231306040518263ffffffff1660e01b8152600401610d2291906140dd565b60206040518083038186803b158015610d3a57600080fd5b505afa158015610d4e573d6000803e3d6000fd5b505050506040513d601f19601f82011682018060405250810190610d72919061358b565b905090565b6060610db983836040518060400160405280601e81526020017f416464726573733a206c6f772d6c6576656c2063616c6c206661696c65640000815250612717565b905092915050565b600082821115610e06576040517f08c379a0000000000000000000000000000000000000000000000000000000008152600401610dfd90614333565b60405180910390fd5b818303905092915050565b600080828401905083811015610e5c576040517f08c379a0000000000000000000000000000000000000000000000000000000008152600401610e53906142b3565b60405180910390fd5b8091505092915050565b6000600280811115610e7457fe5b603b60009054906101000a900460ff166002811115610e8f57fe5b1415610e9f576035549050610ed2565b6000603a54118015610eb95750603a54610eb7612385565b105b15610ec75760009050610ed2565b610ecf611d73565b90505b90565b6000610eee60385460355461272f90919063ffffffff16565b905090565b6000610f296001610f1b610f05611fd6565b610f0d611a40565b61272f90919063ffffffff16565b610e1190919063ffffffff16565b905090565b3373ffffffffffffffffffffffffffffffffffffffff1660008054906101000a900473ffffffffffffffffffffffffffffffffffffffff1673ffffffffffffffffffffffffffffffffffffffff1614610fbc576040517f08c379a0000000000000000000000000000000000000000000000000000000008152600401610fb390614493565b60405180910390fd5b60001515603b60039054906101000a900460ff16151514611012576040517f08c379a000000000000000000000000000000000000000000000000000000000815260040161100990614313565b60405180910390fd5b61106d61101d611d4a565b611025610cc5565b603360009054906101000a900473ffffffffffffffffffffffffffffffffffffffff1673ffffffffffffffffffffffffffffffffffffffff166127859092919063ffffffff16565b7f171f0bcbda3370351cea17f3b164bee87d77c2503b94abdf2720a814ebe7e9df60405160405180910390a1565b6000806110a6610cc5565b905060006110b2612291565b9050808211156110d8576110cf8183610dc190919063ffffffff16565b925050506110df565b6000925050505b90565b60006110fb603654603754610dc190919063ffffffff16565b905090565b603b60029054906101000a900460ff1615611150576040517f08c379a000000000000000000000000000000000000000000000000000000000815260040161114790614533565b60405180910390fd5b6001603b60026101000a81548160ff0219169083151502179055506111868160200160208101906111819190613366565b61280b565b8060400160208101906111999190613366565b603460006101000a81548173ffffffffffffffffffffffffffffffffffffffff021916908373ffffffffffffffffffffffffffffffffffffffff16021790555081603360006101000a81548173ffffffffffffffffffffffffffffffffffffffff021916908373ffffffffffffffffffffffffffffffffffffffff160217905550806060013560358190555080608001356036819055508060a0013560378190555060016038819055506001603b60036101000a81548160ff0219169083151502179055508060a001356039819055506002603b60006101000a81548160ff0219169083600281111561128857fe5b0217905550611296836128a9565b505050565b603460009054906101000a900473ffffffffffffffffffffffffffffffffffffffff1673ffffffffffffffffffffffffffffffffffffffff163373ffffffffffffffffffffffffffffffffffffffff161461132b576040517f08c379a000000000000000000000000000000000000000000000000000000000815260040161132290614593565b60405180910390fd5b6060603e60009054906101000a900473ffffffffffffffffffffffffffffffffffffffff1673ffffffffffffffffffffffffffffffffffffffff1663a34574666040518163ffffffff1660e01b815260040160006040518083038186803b15801561139557600080fd5b505afa1580156113a9573d6000803e3d6000fd5b505050506040513d6000823e3d601f19601f820116820180604052508101906113d291906134f8565b905060005b81518110156114d057603360009054906101000a900473ffffffffffffffffffffffffffffffffffffffff1673ffffffffffffffffffffffffffffffffffffffff1663095ea7b383838151811061142a57fe5b60200260200101517fffffffffffffffffffffffffffffffffffffffffffffffffffffffffffffffff6040518363ffffffff1660e01b8152600401611470929190614121565b602060405180830381600087803b15801561148a57600080fd5b505af115801561149e573d6000803e3d6000fd5b505050506040513d601f19601f820116820180604052508101906114c29190613539565b5080806001019150506113d7565b507fb837fd51506ba3cc623a37c78ed22fd521f2f6e9f69a34d5c2a4a9474f27579360405160405180910390a150565b603b60019054906101000a900460ff1681565b60375481565b603d5481565b603460009054906101000a900473ffffffffffffffffffffffffffffffffffffffff1681565b603b60029054906101000a900460ff1681565b60355481565b603c5481565b603e60009054906101000a900473ffffffffffffffffffffffffffffffffffffffff1681565b603b60039054906101000a900460ff1681565b60006002808111156115ab57fe5b603b60009054906101000a900460ff1660028111156115c657fe5b14156115db576115d4612a27565b90506116a5565b60006039541180156115f557506039546115f3612385565b105b1561160357600090506116a5565b6001600281111561161057fe5b603b60009054906101000a900460ff16600281111561162b57fe5b14801561163a57506000603a54115b801561164e5750603a5461164c612385565b105b1561165c57600090506116a5565b600061168e603f54611680603c54611672611d73565b610dc190919063ffffffff16565b610dc190919063ffffffff16565b90506116a161169b610cc5565b82612ae1565b9150505b90565b603460009054906101000a900473ffffffffffffffffffffffffffffffffffffffff1673ffffffffffffffffffffffffffffffffffffffff163373ffffffffffffffffffffffffffffffffffffffff1614611738576040517f08c379a000000000000000000000000000000000000000000000000000000000815260040161172f90614593565b60405180910390fd5b6060603e60009054906101000a900473ffffffffffffffffffffffffffffffffffffffff1673ffffffffffffffffffffffffffffffffffffffff1663a34574666040518163ffffffff1660e01b815260040160006040518083038186803b1580156117a257600080fd5b505afa1580156117b6573d6000803e3d6000fd5b505050506040513d6000823e3d601f19601f820116820180604052508101906117df91906134f8565b905060005b81518110156118be57603360009054906101000a900473ffffffffffffffffffffffffffffffffffffffff1673ffffffffffffffffffffffffffffffffffffffff1663095ea7b383838151811061183757fe5b602002602001015160006040518363ffffffff1660e01b815260040161185e9291906140f8565b602060405180830381600087803b15801561187857600080fd5b505af115801561188c573d6000803e3d6000fd5b505050506040513d601f19601f820116820180604052508101906118b09190613539565b5080806001019150506117e4565b507f6d317a20ba9d790014284bef285283cd61fde92e0f2711050f563a9d2cf4171160405160405180910390a150565b3373ffffffffffffffffffffffffffffffffffffffff1660008054906101000a900473ffffffffffffffffffffffffffffffffffffffff1673ffffffffffffffffffffffffffffffffffffffff161461197c576040517f08c379a000000000000000000000000000000000000000000000000000000000815260040161197390614493565b60405180910390fd5b600073ffffffffffffffffffffffffffffffffffffffff1660008054906101000a900473ffffffffffffffffffffffffffffffffffffffff1673ffffffffffffffffffffffffffffffffffffffff167f8be0079c531659141344cd1fd0a4f28419497f9722a3daafe3b4186f6b6457e060405160405180910390a360008060006101000a81548173ffffffffffffffffffffffffffffffffffffffff021916908373ffffffffffffffffffffffffffffffffffffffff160217905550565b60365481565b600080611a4b612385565b90506036548111611a60576000915050611a79565b611a7560365482610dc190919063ffffffff16565b9150505b90565b603a5481565b603460009054906101000a900473ffffffffffffffffffffffffffffffffffffffff1673ffffffffffffffffffffffffffffffffffffffff163373ffffffffffffffffffffffffffffffffffffffff1614611b12576040517f08c379a0000000000000000000000000000000000000000000000000000000008152600401611b0990614593565b60405180910390fd5b6000611b1c61159d565b905060008111611b61576040517f08c379a0000000000000000000000000000000000000000000000000000000008152600401611b58906145f3565b60405180910390fd5b611b7681603c54610e1190919063ffffffff16565b603c81905550611beb603460009054906101000a900473ffffffffffffffffffffffffffffffffffffffff1682603360009054906101000a900473ffffffffffffffffffffffffffffffffffffffff1673ffffffffffffffffffffffffffffffffffffffff166127859092919063ffffffff16565b603460009054906101000a900473ffffffffffffffffffffffffffffffffffffffff1673ffffffffffffffffffffffffffffffffffffffff167fc7798891864187665ac6dd119286e44ec13f014527aeeb2b8eb3fd413df9317982604051611c539190614673565b60405180910390a250565b603b60009054906101000a900460ff1681565b603460009054906101000a900473ffffffffffffffffffffffffffffffffffffffff1673ffffffffffffffffffffffffffffffffffffffff163373ffffffffffffffffffffffffffffffffffffffff1614611d01576040517f08c379a0000000000000000000000000000000000000000000000000000000008152600401611cf890614593565b60405180910390fd5b6001603b60036101000a81548160ff0219169083151502179055507fbeb3313724453131feb0a765a03e6715bb720e0f973a31fcbafa2d2f048c188b60405160405180910390a1565b60008060009054906101000a900473ffffffffffffffffffffffffffffffffffffffff16905090565b600080611d7e612385565b9050603654811015611d94576000915050611dce565b603754811115611da957603554915050611dce565b611dca611db4610ed5565b611dbc612514565b612afa90919063ffffffff16565b9150505b90565b60385481565b603460009054906101000a900473ffffffffffffffffffffffffffffffffffffffff1673ffffffffffffffffffffffffffffffffffffffff163373ffffffffffffffffffffffffffffffffffffffff1614611e67576040517f08c379a0000000000000000000000000000000000000000000000000000000008152600401611e5e90614593565b60405180910390fd5b60008111611eaa576040517f08c379a0000000000000000000000000000000000000000000000000000000008152600401611ea190614413565b60405180910390fd5b80611eb361109b565b1015611ef4576040517f08c379a0000000000000000000000000000000000000000000000000000000008152600401611eeb90614513565b60405180910390fd5b611f63603460009054906101000a900473ffffffffffffffffffffffffffffffffffffffff1682603360009054906101000a900473ffffffffffffffffffffffffffffffffffffffff1673ffffffffffffffffffffffffffffffffffffffff166127859092919063ffffffff16565b603460009054906101000a900473ffffffffffffffffffffffffffffffffffffffff1673ffffffffffffffffffffffffffffffffffffffff167f6352c5382c4a4578e712449ca65e83cdb392d045dfcf1cad9615189db2da244b82604051611fcb9190614673565b60405180910390a250565b6000611ff4603854611fe66110e2565b61272f90919063ffffffff16565b905090565b3373ffffffffffffffffffffffffffffffffffffffff1660008054906101000a900473ffffffffffffffffffffffffffffffffffffffff1673ffffffffffffffffffffffffffffffffffffffff1614612087576040517f08c379a000000000000000000000000000000000000000000000000000000000815260040161207e90614493565b60405180910390fd5b6001600281111561209457fe5b603b60009054906101000a900460ff1660028111156120af57fe5b146120ef576040517f08c379a00000000000000000000000000000000000000000000000000000000081526004016120e690614553565b60405180910390fd5b60001515603b60019054906101000a900460ff16151514612145576040517f08c379a000000000000000000000000000000000000000000000000000000000815260040161213c90614653565b60405180910390fd5b6000612163612152610e66565b603554610dc190919063ffffffff16565b9050600081116121a8576040517f08c379a000000000000000000000000000000000000000000000000000000000815260040161219f906142d3565b60405180910390fd5b80603d819055506001603b60016101000a81548160ff02191690831515021790555061221e6121d5611d4a565b82603360009054906101000a900473ffffffffffffffffffffffffffffffffffffffff1673ffffffffffffffffffffffffffffffffffffffff166127859092919063ffffffff16565b603460009054906101000a900473ffffffffffffffffffffffffffffffffffffffff1673ffffffffffffffffffffffffffffffffffffffff167fb73c49a3a37a7aca291ba0ceaa41657012def406106a7fc386888f0f66e941cf826040516122869190614673565b60405180910390a250565b60006122be603d546122b0603c54603554610dc190919063ffffffff16565b610dc190919063ffffffff16565b905090565b6122d58a8a8a8a8a8a8a8a8a8a612b6a565b6122de8b6128a9565b5050505050505050505050565b3373ffffffffffffffffffffffffffffffffffffffff1660008054906101000a900473ffffffffffffffffffffffffffffffffffffffff1673ffffffffffffffffffffffffffffffffffffffff1614612379576040517f08c379a000000000000000000000000000000000000000000000000000000000815260040161237090614493565b60405180910390fd5b612382816128a9565b50565b600042905090565b603460009054906101000a900473ffffffffffffffffffffffffffffffffffffffff1673ffffffffffffffffffffffffffffffffffffffff163373ffffffffffffffffffffffffffffffffffffffff161461241d576040517f08c379a000000000000000000000000000000000000000000000000000000000815260040161241490614593565b60405180910390fd5b600073ffffffffffffffffffffffffffffffffffffffff168173ffffffffffffffffffffffffffffffffffffffff16141561248d576040517f08c379a0000000000000000000000000000000000000000000000000000000008152600401612484906143b3565b60405180910390fd5b80603460006101000a81548173ffffffffffffffffffffffffffffffffffffffff021916908373ffffffffffffffffffffffffffffffffffffffff1602179055507f373c72efabe4ef3e552ff77838be729f3bc3d8c586df0012902d1baa2377fa1d816040516124fd91906140dd565b60405180910390a150565b603f5481565b60395481565b60006125316001612523610ef3565b610dc190919063ffffffff16565b905090565b3373ffffffffffffffffffffffffffffffffffffffff1660008054906101000a900473ffffffffffffffffffffffffffffffffffffffff1673ffffffffffffffffffffffffffffffffffffffff16146125c4576040517f08c379a00000000000000000000000000000000000000000000000000000000081526004016125bb90614493565b60405180910390fd5b600073ffffffffffffffffffffffffffffffffffffffff168173ffffffffffffffffffffffffffffffffffffffff161415612634576040517f08c379a000000000000000000000000000000000000000000000000000000000815260040161262b90614293565b60405180910390fd5b8073ffffffffffffffffffffffffffffffffffffffff1660008054906101000a900473ffffffffffffffffffffffffffffffffffffffff1673ffffffffffffffffffffffffffffffffffffffff167f8be0079c531659141344cd1fd0a4f28419497f9722a3daafe3b4186f6b6457e060405160405180910390a3806000806101000a81548173ffffffffffffffffffffffffffffffffffffffff021916908373ffffffffffffffffffffffffffffffffffffffff16021790555050565b603360009054906101000a900473ffffffffffffffffffffffffffffffffffffffff1681565b60606127268484600085612ff4565b90509392505050565b6000808211612773576040517f08c379a000000000000000000000000000000000000000000000000000000000815260040161276a90614393565b60405180910390fd5b81838161277c57fe5b04905092915050565b6128068363a9059cbb60e01b84846040516024016127a4929190614121565b604051602081830303815290604052907bffffffffffffffffffffffffffffffffffffffffffffffffffffffff19166020820180517bffffffffffffffffffffffffffffffffffffffffffffffffffffffff8381831617835250505050613109565b505050565b806000806101000a81548173ffffffffffffffffffffffffffffffffffffffff021916908373ffffffffffffffffffffffffffffffffffffffff1602179055508073ffffffffffffffffffffffffffffffffffffffff16600073ffffffffffffffffffffffffffffffffffffffff167f8be0079c531659141344cd1fd0a4f28419497f9722a3daafe3b4186f6b6457e060405160405180910390a350565b600073ffffffffffffffffffffffffffffffffffffffff168173ffffffffffffffffffffffffffffffffffffffff161415612919576040517f08c379a000000000000000000000000000000000000000000000000000000000815260040161291090614573565b60405180910390fd5b612922816131d0565b612961576040517f08c379a0000000000000000000000000000000000000000000000000000000008152600401612958906143f3565b60405180910390fd5b6000603e60009054906101000a900473ffffffffffffffffffffffffffffffffffffffff16905081603e60006101000a81548173ffffffffffffffffffffffffffffffffffffffff021916908373ffffffffffffffffffffffffffffffffffffffff1602179055508173ffffffffffffffffffffffffffffffffffffffff168173ffffffffffffffffffffffffffffffffffffffff167fdac3632743b879638fd2d51c4d3c1dd796615b4758a55b50b0c19b971ba9fbc760405160405180910390a35050565b600080603954118015612a425750603954612a40612385565b105b15612a505760009050612ade565b60016002811115612a5d57fe5b603b60009054906101000a900460ff166002811115612a7857fe5b148015612a8757506000603a54115b8015612a9b5750603a54612a99612385565b105b15612aa95760009050612ade565b6000612ac7603c54612ab9611d73565b610dc190919063ffffffff16565b9050612ada612ad4610cc5565b82612ae1565b9150505b90565b6000818310612af05781612af2565b825b905092915050565b600080831415612b0d5760009050612b64565b6000828402905082848281612b1e57fe5b0414612b5f576040517f08c379a0000000000000000000000000000000000000000000000000000000008152600401612b5690614473565b60405180910390fd5b809150505b92915050565b603b60029054906101000a900460ff1615612bba576040517f08c379a0000000000000000000000000000000000000000000000000000000008152600401612bb190614533565b60405180910390fd5b600073ffffffffffffffffffffffffffffffffffffffff168a73ffffffffffffffffffffffffffffffffffffffff161415612c2a576040517f08c379a0000000000000000000000000000000000000000000000000000000008152600401612c21906142f3565b60405180910390fd5b600073ffffffffffffffffffffffffffffffffffffffff168973ffffffffffffffffffffffffffffffffffffffff161415612c9a576040517f08c379a0000000000000000000000000000000000000000000000000000000008152600401612c9190614633565b60405180910390fd5b600073ffffffffffffffffffffffffffffffffffffffff168873ffffffffffffffffffffffffffffffffffffffff161415612d0a576040517f08c379a0000000000000000000000000000000000000000000000000000000008152600401612d0190614613565b60405180910390fd5b60008711612d4d576040517f08c379a0000000000000000000000000000000000000000000000000000000008152600401612d4490614373565b60405180910390fd5b6000861415612d91576040517f08c379a0000000000000000000000000000000000000000000000000000000008152600401612d88906144b3565b60405180910390fd5b848610612dd3576040517f08c379a0000000000000000000000000000000000000000000000000000000008152600401612dca90614253565b60405180910390fd5b6001841015612e17576040517f08c379a0000000000000000000000000000000000000000000000000000000008152600401612e0e90614453565b60405180910390fd5b60006002811115612e2457fe5b816002811115612e3057fe5b1415612e71576040517f08c379a0000000000000000000000000000000000000000000000000000000008152600401612e6890614273565b60405180910390fd5b848310612eb3576040517f08c379a0000000000000000000000000000000000000000000000000000000008152600401612eaa906145b3565b60405180910390fd5b848210612ef5576040517f08c379a0000000000000000000000000000000000000000000000000000000008152600401612eec90614233565b60405180910390fd5b6001603b60026101000a81548160ff021916908315150217905550612f198a61280b565b88603460006101000a81548173ffffffffffffffffffffffffffffffffffffffff021916908373ffffffffffffffffffffffffffffffffffffffff16021790555087603360006101000a81548173ffffffffffffffffffffffffffffffffffffffff021916908373ffffffffffffffffffffffffffffffffffffffff160217905550866035819055508560368190555084603781905550836038819055508260398190555081603a8190555080603b60006101000a81548160ff02191690836002811115612fe357fe5b021790555050505050505050505050565b606082471015613039576040517f08c379a000000000000000000000000000000000000000000000000000000000815260040161303090614353565b60405180910390fd5b613042856131d0565b613081576040517f08c379a0000000000000000000000000000000000000000000000000000000008152600401613078906144f3565b60405180910390fd5b600060608673ffffffffffffffffffffffffffffffffffffffff1685876040516130ab91906140c6565b60006040518083038185875af1925050503d80600081146130e8576040519150601f19603f3d011682016040523d82523d6000602084013e6130ed565b606091505b50915091506130fd8282866131e3565b92505050949350505050565b606061316b826040518060400160405280602081526020017f5361666545524332303a206c6f772d6c6576656c2063616c6c206661696c65648152508573ffffffffffffffffffffffffffffffffffffffff166127179092919063ffffffff16565b90506000815111156131cb578080602001905181019061318b9190613539565b6131ca576040517f08c379a00000000000000000000000000000000000000000000000000000000081526004016131c1906145d3565b60405180910390fd5b5b505050565b600080823b905060008111915050919050565b606083156131f357829050613243565b6000835111156132065782518084602001fd5b816040517f08c379a000000000000000000000000000000000000000000000000000000000815260040161323a91906141d1565b60405180910390fd5b9392505050565b6000813590506132598161486a565b92915050565b60008151905061326e8161486a565b92915050565b600082601f83011261328557600080fd5b8151613298613293826146bf565b61468e565b915081818352602084019350602081019050838560208402820111156132bd57600080fd5b60005b838110156132ed57816132d3888261325f565b8452602084019350602083019250506001810190506132c0565b5050505092915050565b60008151905061330681614881565b92915050565b60008135905061331b81614898565b92915050565b600060c0828403121561333357600080fd5b81905092915050565b60008135905061334b816148a8565b92915050565b600081519050613360816148a8565b92915050565b60006020828403121561337857600080fd5b60006133868482850161324a565b91505092915050565b6000602082840312156133a157600080fd5b60006133af8482850161325f565b91505092915050565b60008060008060008060008060008060006101608c8e0312156133da57600080fd5b60006133e88e828f0161324a565b9b505060206133f98e828f0161324a565b9a5050604061340a8e828f0161324a565b995050606061341b8e828f0161324a565b985050608061342c8e828f0161333c565b97505060a061343d8e828f0161333c565b96505060c061344e8e828f0161333c565b95505060e061345f8e828f0161333c565b9450506101006134718e828f0161333c565b9350506101206134838e828f0161333c565b9250506101406134958e828f0161330c565b9150509295989b509295989b9093969950565b600080600061010084860312156134be57600080fd5b60006134cc8682870161324a565b93505060206134dd8682870161324a565b92505060406134ee86828701613321565b9150509250925092565b60006020828403121561350a57600080fd5b600082015167ffffffffffffffff81111561352457600080fd5b61353084828501613274565b91505092915050565b60006020828403121561354b57600080fd5b6000613559848285016132f7565b91505092915050565b60006020828403121561357457600080fd5b60006135828482850161333c565b91505092915050565b60006020828403121561359d57600080fd5b60006135ab84828501613351565b91505092915050565b6135bd8161471d565b82525050565b6135cc8161472f565b82525050565b6135db8161473b565b82525050565b60006135ec826146eb565b6135f68185614701565b9350613606818560208601614810565b80840191505092915050565b61361b816147a4565b82525050565b61362a816147c8565b82525050565b613639816147ec565b82525050565b613648816147fe565b82525050565b6000613659826146f6565b613663818561470c565b9350613673818560208601614810565b61367c81614845565b840191505092915050565b600061369460088361470c565b91507f4261642063616c6c0000000000000000000000000000000000000000000000006000830152602082019050919050565b60006136d4601b8361470c565b91507f455448207472616e7366657273206e6f7420737570706f7274656400000000006000830152602082019050919050565b600061371460228361470c565b91507f436c6966662074696d65206d757374206265206265666f726520656e6420746960008301527f6d650000000000000000000000000000000000000000000000000000000000006020830152604082019050919050565b600061377a60158361470c565b91507f53746172742074696d65203e20656e642074696d6500000000000000000000006000830152602082019050919050565b60006137ba601e8361470c565b91507f4d757374207365742061207265766f636162696c697479206f7074696f6e00006000830152602082019050919050565b60006137fa60268361470c565b91507f4f776e61626c653a206e6577206f776e657220697320746865207a65726f206160008301527f64647265737300000000000000000000000000000000000000000000000000006020830152604082019050919050565b6000613860601b8361470c565b91507f536166654d6174683a206164646974696f6e206f766572666c6f7700000000006000830152602082019050919050565b60006138a0601c8361470c565b91507f4e6f20617661696c61626c6520756e76657374656420616d6f756e74000000006000830152602082019050919050565b60006138e060148361470c565b91507f4f776e65722063616e6e6f74206265207a65726f0000000000000000000000006000830152602082019050919050565b6000613920601f8361470c565b91507f43616e6e6f742063616e63656c20616363657074656420636f6e7472616374006000830152602082019050919050565b6000613960601e8361470c565b91507f536166654d6174683a207375627472616374696f6e206f766572666c6f7700006000830152602082019050919050565b60006139a060268361470c565b91507f416464726573733a20696e73756666696369656e742062616c616e636520666f60008301527f722063616c6c00000000000000000000000000000000000000000000000000006020830152604082019050919050565b6000613a06601d8361470c565b91507f4d616e6167656420746f6b656e732063616e6e6f74206265207a65726f0000006000830152602082019050919050565b6000613a46601a8361470c565b91507f536166654d6174683a206469766973696f6e206279207a65726f0000000000006000830152602082019050919050565b6000613a8660118361470c565b91507f456d7074792062656e65666963696172790000000000000000000000000000006000830152602082019050919050565b6000613ac660138361470c565b91507f556e617574686f72697a65642063616c6c6572000000000000000000000000006000830152602082019050919050565b6000613b06601a8361470c565b91507f4d616e61676572206d757374206265206120636f6e74726163740000000000006000830152602082019050919050565b6000613b4660158361470c565b91507f416d6f756e742063616e6e6f74206265207a65726f00000000000000000000006000830152602082019050919050565b6000613b8660298361470c565b91507f43616e6e6f7420757365206d6f726520746f6b656e73207468616e207665737460008301527f656420616d6f756e7400000000000000000000000000000000000000000000006020830152604082019050919050565b6000613bec601f8361470c565b91507f506572696f64732063616e6e6f742062652062656c6f77206d696e696d756d006000830152602082019050919050565b6000613c2c60218361470c565b91507f536166654d6174683a206d756c7469706c69636174696f6e206f766572666c6f60008301527f77000000000000000000000000000000000000000000000000000000000000006020830152604082019050919050565b6000613c9260208361470c565b91507f4f776e61626c653a2063616c6c6572206973206e6f7420746865206f776e65726000830152602082019050919050565b6000613cd260168361470c565b91507f53746172742074696d65206d75737420626520736574000000000000000000006000830152602082019050919050565b6000613d1260158361470c565b91507f556e617574686f72697a65642066756e6374696f6e00000000000000000000006000830152602082019050919050565b6000613d52601d8361470c565b91507f416464726573733a2063616c6c20746f206e6f6e2d636f6e74726163740000006000830152602082019050919050565b6000613d9260248361470c565b91507f416d6f756e7420726571756573746564203e20737572706c757320617661696c60008301527f61626c65000000000000000000000000000000000000000000000000000000006020830152604082019050919050565b6000613df860138361470c565b91507f416c726561647920696e697469616c697a6564000000000000000000000000006000830152602082019050919050565b6000613e3860198361470c565b91507f436f6e7472616374206973206e6f6e2d7265766f6361626c65000000000000006000830152602082019050919050565b6000613e7860178361470c565b91507f4d616e616765722063616e6e6f7420626520656d7074790000000000000000006000830152602082019050919050565b6000613eb860058361470c565b91507f21617574680000000000000000000000000000000000000000000000000000006000830152602082019050919050565b6000613ef8602a8361470c565b91507f52656c656173652073746172742074696d65206d757374206265206265666f7260008301527f6520656e642074696d65000000000000000000000000000000000000000000006020830152604082019050919050565b6000613f5e602a8361470c565b91507f5361666545524332303a204552433230206f7065726174696f6e20646964206e60008301527f6f742073756363656564000000000000000000000000000000000000000000006020830152604082019050919050565b6000613fc4601e8361470c565b91507f4e6f20617661696c61626c652072656c65617361626c6520616d6f756e7400006000830152602082019050919050565b600061400460148361470c565b91507f546f6b656e2063616e6e6f74206265207a65726f0000000000000000000000006000830152602082019050919050565b6000614044601a8361470c565b91507f42656e65666963696172792063616e6e6f74206265207a65726f0000000000006000830152602082019050919050565b6000614084600f8361470c565b91507f416c7265616479207265766f6b656400000000000000000000000000000000006000830152602082019050919050565b6140c08161479a565b82525050565b60006140d282846135e1565b915081905092915050565b60006020820190506140f260008301846135b4565b92915050565b600060408201905061410d60008301856135b4565b61411a602083018461363f565b9392505050565b600060408201905061413660008301856135b4565b61414360208301846140b7565b9392505050565b600060208201905061415f60008301846135c3565b92915050565b600060208201905061417a60008301846135d2565b92915050565b60006020820190506141956000830184613612565b92915050565b60006020820190506141b06000830184613621565b92915050565b60006020820190506141cb6000830184613630565b92915050565b600060208201905081810360008301526141eb818461364e565b905092915050565b6000602082019050818103600083015261420c81613687565b9050919050565b6000602082019050818103600083015261422c816136c7565b9050919050565b6000602082019050818103600083015261424c81613707565b9050919050565b6000602082019050818103600083015261426c8161376d565b9050919050565b6000602082019050818103600083015261428c816137ad565b9050919050565b600060208201905081810360008301526142ac816137ed565b9050919050565b600060208201905081810360008301526142cc81613853565b9050919050565b600060208201905081810360008301526142ec81613893565b9050919050565b6000602082019050818103600083015261430c816138d3565b9050919050565b6000602082019050818103600083015261432c81613913565b9050919050565b6000602082019050818103600083015261434c81613953565b9050919050565b6000602082019050818103600083015261436c81613993565b9050919050565b6000602082019050818103600083015261438c816139f9565b9050919050565b600060208201905081810360008301526143ac81613a39565b9050919050565b600060208201905081810360008301526143cc81613a79565b9050919050565b600060208201905081810360008301526143ec81613ab9565b9050919050565b6000602082019050818103600083015261440c81613af9565b9050919050565b6000602082019050818103600083015261442c81613b39565b9050919050565b6000602082019050818103600083015261444c81613b79565b9050919050565b6000602082019050818103600083015261446c81613bdf565b9050919050565b6000602082019050818103600083015261448c81613c1f565b9050919050565b600060208201905081810360008301526144ac81613c85565b9050919050565b600060208201905081810360008301526144cc81613cc5565b9050919050565b600060208201905081810360008301526144ec81613d05565b9050919050565b6000602082019050818103600083015261450c81613d45565b9050919050565b6000602082019050818103600083015261452c81613d85565b9050919050565b6000602082019050818103600083015261454c81613deb565b9050919050565b6000602082019050818103600083015261456c81613e2b565b9050919050565b6000602082019050818103600083015261458c81613e6b565b9050919050565b600060208201905081810360008301526145ac81613eab565b9050919050565b600060208201905081810360008301526145cc81613eeb565b9050919050565b600060208201905081810360008301526145ec81613f51565b9050919050565b6000602082019050818103600083015261460c81613fb7565b9050919050565b6000602082019050818103600083015261462c81613ff7565b9050919050565b6000602082019050818103600083015261464c81614037565b9050919050565b6000602082019050818103600083015261466c81614077565b9050919050565b600060208201905061468860008301846140b7565b92915050565b6000604051905081810181811067ffffffffffffffff821117156146b5576146b4614843565b5b8060405250919050565b600067ffffffffffffffff8211156146da576146d9614843565b5b602082029050602081019050919050565b600081519050919050565b600081519050919050565b600081905092915050565b600082825260208201905092915050565b60006147288261477a565b9050919050565b60008115159050919050565b60007fffffffff0000000000000000000000000000000000000000000000000000000082169050919050565b600081905061477582614856565b919050565b600073ffffffffffffffffffffffffffffffffffffffff82169050919050565b6000819050919050565b60006147af826147b6565b9050919050565b60006147c18261477a565b9050919050565b60006147d3826147da565b9050919050565b60006147e58261477a565b9050919050565b60006147f782614767565b9050919050565b60006148098261479a565b9050919050565b60005b8381101561482e578082015181840152602081019050614813565b8381111561483d576000848401525b50505050565bfe5b6000601f19601f8301169050919050565b6003811061486757614866614843565b5b50565b6148738161471d565b811461487e57600080fd5b50565b61488a8161472f565b811461489557600080fd5b50565b600381106148a557600080fd5b50565b6148b18161479a565b81146148bc57600080fd5b5056fea2646970667358221220e7181b2ba4d1c3bb9e57d12c063690ecc18fa07966017865e716378e6ce1068c64736f6c63430007030033",
  "devdoc": {
    "kind": "dev",
    "methods": {
      "acceptLock()": {
        "details": "Can only be called by the beneficiary"
      },
      "amountPerPeriod()": {
        "returns": {
          "_0": "Amount of tokens available after each period"
        }
      },
      "approveProtocol()": {
        "details": "Approves all token destinations registered in the manager to pull tokens"
      },
      "availableAmount()": {
        "details": "Implements the step-by-step schedule based on periods for available tokens",
        "returns": {
          "_0": "Amount of tokens available according to the schedule"
        }
      },
      "cancelLock()": {
        "details": "Can only be called by the owner"
      },
      "changeBeneficiary(address)": {
        "details": "Can only be called by the beneficiary",
        "params": {
          "_newBeneficiary": "Address of the new beneficiary address"
        }
      },
      "currentBalance()": {
        "returns": {
          "_0": "Tokens held in the contract"
        }
      },
      "currentPeriod()": {
        "returns": {
          "_0": "A number that represents the current period"
        }
      },
      "currentTime()": {
        "returns": {
          "_0": "Current block timestamp"
        }
      },
      "duration()": {
        "returns": {
          "_0": "Amount of seconds from contract startTime to endTime"
        }
      },
      "owner()": {
        "details": "Returns the address of the current owner."
      },
      "passedPeriods()": {
        "returns": {
          "_0": "A number of periods that passed since the schedule started"
        }
      },
      "periodDuration()": {
        "returns": {
          "_0": "Duration of each period in seconds"
        }
      },
      "releasableAmount()": {
        "details": "Considers the schedule, takes into account already released tokens and used amount",
        "returns": {
          "_0": "Amount of tokens ready to be released"
        }
      },
      "release()": {
        "details": "All available releasable tokens are transferred to beneficiary"
      },
      "renounceOwnership()": {
        "details": "Leaves the contract without owner. It will not be possible to call `onlyOwner` functions anymore. Can only be called by the current owner. NOTE: Renouncing ownership will leave the contract without an owner, thereby removing any functionality that is only available to the owner."
      },
      "revoke()": {
        "details": "Vesting schedule is always calculated based on managed tokens"
      },
      "revokeProtocol()": {
        "details": "Revokes approval to all token destinations in the manager to pull tokens"
      },
      "setManager(address)": {
        "params": {
          "_newManager": "Address of the new manager"
        }
      },
      "sinceStartTime()": {
        "details": "Returns zero if called before conctract starTime",
        "returns": {
          "_0": "Seconds elapsed from contract startTime"
        }
      },
      "surplusAmount()": {
        "details": "All funds over outstanding amount is considered surplus that can be withdrawn by beneficiary. Note this might not be the correct value for wallets transferred to L2 (i.e. an L2GraphTokenLockWallet), as the released amount will be skewed, so the beneficiary might have to bridge back to L1 to release the surplus.",
        "returns": {
          "_0": "Amount of tokens considered as surplus"
        }
      },
      "totalOutstandingAmount()": {
        "details": "Does not consider schedule but just global amounts tracked",
        "returns": {
          "_0": "Amount of outstanding tokens for the lifetime of the contract"
        }
      },
      "transferOwnership(address)": {
        "details": "Transfers ownership of the contract to a new account (`newOwner`). Can only be called by the current owner."
      },
      "vestedAmount()": {
        "details": "Similar to available amount, but is fully vested when contract is non-revocable",
        "returns": {
          "_0": "Amount of tokens already vested"
        }
      },
      "withdrawSurplus(uint256)": {
        "details": "Tokens in the contract over outstanding amount are considered as surplus",
        "params": {
          "_amount": "Amount of tokens to withdraw"
        }
      }
    },
    "title": "L2GraphTokenLockWallet",
    "version": 1
  },
  "userdoc": {
    "kind": "user",
    "methods": {
      "acceptLock()": {
        "notice": "Beneficiary accepts the lock, the owner cannot retrieve back the tokens"
      },
      "amountPerPeriod()": {
        "notice": "Returns amount available to be released after each period according to schedule"
      },
      "approveProtocol()": {
        "notice": "Approves protocol access of the tokens managed by this contract"
      },
      "availableAmount()": {
        "notice": "Gets the currently available token according to the schedule"
      },
      "cancelLock()": {
        "notice": "Owner cancel the lock and return the balance in the contract"
      },
      "changeBeneficiary(address)": {
        "notice": "Change the beneficiary of funds managed by the contract"
      },
      "currentBalance()": {
        "notice": "Returns the amount of tokens currently held by the contract"
      },
      "currentPeriod()": {
        "notice": "Gets the current period based on the schedule"
      },
      "currentTime()": {
        "notice": "Returns the current block timestamp"
      },
      "duration()": {
        "notice": "Gets duration of contract from start to end in seconds"
      },
      "passedPeriods()": {
        "notice": "Gets the number of periods that passed since the first period"
      },
      "periodDuration()": {
        "notice": "Returns the duration of each period in seconds"
      },
      "releasableAmount()": {
        "notice": "Gets tokens currently available for release"
      },
      "release()": {
        "notice": "Releases tokens based on the configured schedule"
      },
      "revoke()": {
        "notice": "Revokes a vesting schedule and return the unvested tokens to the owner"
      },
      "revokeProtocol()": {
        "notice": "Revokes protocol access of the tokens managed by this contract"
      },
      "setManager(address)": {
        "notice": "Sets a new manager for this contract"
      },
      "sinceStartTime()": {
        "notice": "Gets time elapsed since the start of the contract"
      },
      "surplusAmount()": {
        "notice": "Gets surplus amount in the contract based on outstanding amount to release"
      },
      "totalOutstandingAmount()": {
        "notice": "Gets the outstanding amount yet to be released based on the whole contract lifetime"
      },
      "vestedAmount()": {
        "notice": "Gets the amount of currently vested tokens"
      },
      "withdrawSurplus(uint256)": {
        "notice": "Withdraws surplus, unmanaged tokens from the contract"
      }
    },
    "notice": "This contract is built on top of the base GraphTokenLock functionality. It allows wallet beneficiaries to use the deposited funds to perform specific function calls on specific contracts. The idea is that supporters with locked tokens can participate in the protocol but disallow any release before the vesting/lock schedule. The beneficiary can issue authorized function calls to this contract that will get forwarded to a target contract. A target contract is any of our protocol contracts. The function calls allowed are queried to the GraphTokenLockManager, this way the same configuration can be shared for all the created lock wallet contracts. This L2 variant includes a special initializer so that it can be created from a wallet's data received from L1. These transferred wallets will not allow releasing funds in L2 until the end of the vesting timeline, but they can allow withdrawing funds back to L1 using the L2GraphTokenLockTransferTool contract. Note that surplusAmount and releasedAmount in L2 will be skewed for wallets received from L1, so releasing surplus tokens might also only be possible by bridging tokens back to L1. NOTE: Contracts used as target must have its function signatures checked to avoid collisions with any of this contract functions. Beneficiaries need to approve the use of the tokens to the protocol contracts. For convenience the maximum amount of tokens is authorized. Function calls do not forward ETH value so DO NOT SEND ETH TO THIS CONTRACT.",
    "version": 1
  },
  "storageLayout": {
    "storage": [
      {
        "astId": 6797,
        "contract": "contracts/L2GraphTokenLockWallet.sol:L2GraphTokenLockWallet",
        "label": "_owner",
        "offset": 0,
        "slot": "0",
        "type": "t_address"
      },
      {
        "astId": 6802,
        "contract": "contracts/L2GraphTokenLockWallet.sol:L2GraphTokenLockWallet",
        "label": "__gap",
        "offset": 0,
        "slot": "1",
        "type": "t_array(t_uint256)50_storage"
      },
      {
        "astId": 3244,
        "contract": "contracts/L2GraphTokenLockWallet.sol:L2GraphTokenLockWallet",
        "label": "token",
        "offset": 0,
        "slot": "51",
        "type": "t_contract(IERC20)1710"
      },
      {
        "astId": 3246,
        "contract": "contracts/L2GraphTokenLockWallet.sol:L2GraphTokenLockWallet",
        "label": "beneficiary",
        "offset": 0,
        "slot": "52",
        "type": "t_address"
      },
      {
        "astId": 3248,
        "contract": "contracts/L2GraphTokenLockWallet.sol:L2GraphTokenLockWallet",
        "label": "managedAmount",
        "offset": 0,
        "slot": "53",
        "type": "t_uint256"
      },
      {
        "astId": 3250,
        "contract": "contracts/L2GraphTokenLockWallet.sol:L2GraphTokenLockWallet",
        "label": "startTime",
        "offset": 0,
        "slot": "54",
        "type": "t_uint256"
      },
      {
        "astId": 3252,
        "contract": "contracts/L2GraphTokenLockWallet.sol:L2GraphTokenLockWallet",
        "label": "endTime",
        "offset": 0,
        "slot": "55",
        "type": "t_uint256"
      },
      {
        "astId": 3254,
        "contract": "contracts/L2GraphTokenLockWallet.sol:L2GraphTokenLockWallet",
        "label": "periods",
        "offset": 0,
        "slot": "56",
        "type": "t_uint256"
      },
      {
        "astId": 3256,
        "contract": "contracts/L2GraphTokenLockWallet.sol:L2GraphTokenLockWallet",
        "label": "releaseStartTime",
        "offset": 0,
        "slot": "57",
        "type": "t_uint256"
      },
      {
        "astId": 3258,
        "contract": "contracts/L2GraphTokenLockWallet.sol:L2GraphTokenLockWallet",
        "label": "vestingCliffTime",
        "offset": 0,
        "slot": "58",
        "type": "t_uint256"
      },
      {
        "astId": 3260,
        "contract": "contracts/L2GraphTokenLockWallet.sol:L2GraphTokenLockWallet",
        "label": "revocable",
        "offset": 0,
        "slot": "59",
        "type": "t_enum(Revocability)5096"
      },
      {
        "astId": 3262,
        "contract": "contracts/L2GraphTokenLockWallet.sol:L2GraphTokenLockWallet",
        "label": "isRevoked",
        "offset": 1,
        "slot": "59",
        "type": "t_bool"
      },
      {
        "astId": 3264,
        "contract": "contracts/L2GraphTokenLockWallet.sol:L2GraphTokenLockWallet",
        "label": "isInitialized",
        "offset": 2,
        "slot": "59",
        "type": "t_bool"
      },
      {
        "astId": 3266,
        "contract": "contracts/L2GraphTokenLockWallet.sol:L2GraphTokenLockWallet",
        "label": "isAccepted",
        "offset": 3,
        "slot": "59",
        "type": "t_bool"
      },
      {
        "astId": 3268,
        "contract": "contracts/L2GraphTokenLockWallet.sol:L2GraphTokenLockWallet",
        "label": "releasedAmount",
        "offset": 0,
        "slot": "60",
        "type": "t_uint256"
      },
      {
        "astId": 3270,
        "contract": "contracts/L2GraphTokenLockWallet.sol:L2GraphTokenLockWallet",
        "label": "revokedAmount",
        "offset": 0,
        "slot": "61",
        "type": "t_uint256"
      },
      {
        "astId": 4692,
        "contract": "contracts/L2GraphTokenLockWallet.sol:L2GraphTokenLockWallet",
        "label": "manager",
        "offset": 0,
        "slot": "62",
        "type": "t_contract(IGraphTokenLockManager)5278"
      },
      {
        "astId": 4694,
        "contract": "contracts/L2GraphTokenLockWallet.sol:L2GraphTokenLockWallet",
        "label": "usedAmount",
        "offset": 0,
        "slot": "63",
        "type": "t_uint256"
      }
    ],
    "types": {
      "t_address": {
        "encoding": "inplace",
        "label": "address",
        "numberOfBytes": "20"
      },
      "t_array(t_uint256)50_storage": {
        "base": "t_uint256",
        "encoding": "inplace",
        "label": "uint256[50]",
        "numberOfBytes": "1600"
      },
      "t_bool": {
        "encoding": "inplace",
        "label": "bool",
        "numberOfBytes": "1"
      },
      "t_contract(IERC20)1710": {
        "encoding": "inplace",
        "label": "contract IERC20",
        "numberOfBytes": "20"
      },
      "t_contract(IGraphTokenLockManager)5278": {
        "encoding": "inplace",
        "label": "contract IGraphTokenLockManager",
        "numberOfBytes": "20"
      },
      "t_enum(Revocability)5096": {
        "encoding": "inplace",
        "label": "enum IGraphTokenLock.Revocability",
        "numberOfBytes": "1"
      },
      "t_uint256": {
        "encoding": "inplace",
        "label": "uint256",
        "numberOfBytes": "32"
      }
    }
  }
}