{
  "_format": "hh-sol-artifact-1",
  "contractName": "SubgraphNFT",
  "sourceName": "contracts/discovery/SubgraphNFT.sol",
  "abi": [
    {
      "inputs": [
        {
          "internalType": "address",
          "name": "_governor",
          "type": "address"
        }
      ],
      "stateMutability": "nonpayable",
      "type": "constructor"
    },
    {
      "anonymous": false,
      "inputs": [
        {
          "indexed": true,
          "internalType": "address",
          "name": "owner",
          "type": "address"
        },
        {
          "indexed": true,
          "internalType": "address",
          "name": "approved",
          "type": "address"
        },
        {
          "indexed": true,
          "internalType": "uint256",
          "name": "tokenId",
          "type": "uint256"
        }
      ],
      "name": "Approval",
      "type": "event"
    },
    {
      "anonymous": false,
      "inputs": [
        {
          "indexed": true,
          "internalType": "address",
          "name": "owner",
          "type": "address"
        },
        {
          "indexed": true,
          "internalType": "address",
          "name": "operator",
          "type": "address"
        },
        {
          "indexed": false,
          "internalType": "bool",
          "name": "approved",
          "type": "bool"
        }
      ],
      "name": "ApprovalForAll",
      "type": "event"
    },
    {
      "anonymous": false,
      "inputs": [
        {
          "indexed": false,
          "internalType": "address",
          "name": "minter",
          "type": "address"
        }
      ],
      "name": "MinterUpdated",
      "type": "event"
    },
    {
      "anonymous": false,
      "inputs": [
        {
          "indexed": true,
          "internalType": "address",
          "name": "from",
          "type": "address"
        },
        {
          "indexed": true,
          "internalType": "address",
          "name": "to",
          "type": "address"
        }
      ],
      "name": "NewOwnership",
      "type": "event"
    },
    {
      "anonymous": false,
      "inputs": [
        {
          "indexed": true,
          "internalType": "address",
          "name": "from",
          "type": "address"
        },
        {
          "indexed": true,
          "internalType": "address",
          "name": "to",
          "type": "address"
        }
      ],
      "name": "NewPendingOwnership",
      "type": "event"
    },
    {
      "anonymous": false,
      "inputs": [
        {
          "indexed": true,
          "internalType": "uint256",
          "name": "tokenID",
          "type": "uint256"
        },
        {
          "indexed": false,
          "internalType": "bytes32",
          "name": "subgraphURI",
          "type": "bytes32"
        }
      ],
      "name": "SubgraphMetadataUpdated",
      "type": "event"
    },
    {
      "anonymous": false,
      "inputs": [
        {
          "indexed": false,
          "internalType": "address",
          "name": "tokenDescriptor",
          "type": "address"
        }
      ],
      "name": "TokenDescriptorUpdated",
      "type": "event"
    },
    {
      "anonymous": false,
      "inputs": [
        {
          "indexed": true,
          "internalType": "address",
          "name": "from",
          "type": "address"
        },
        {
          "indexed": true,
          "internalType": "address",
          "name": "to",
          "type": "address"
        },
        {
          "indexed": true,
          "internalType": "uint256",
          "name": "tokenId",
          "type": "uint256"
        }
      ],
      "name": "Transfer",
      "type": "event"
    },
    {
      "inputs": [],
      "name": "acceptOwnership",
      "outputs": [],
      "stateMutability": "nonpayable",
      "type": "function"
    },
    {
      "inputs": [
        {
          "internalType": "address",
          "name": "to",
          "type": "address"
        },
        {
          "internalType": "uint256",
          "name": "tokenId",
          "type": "uint256"
        }
      ],
      "name": "approve",
      "outputs": [],
      "stateMutability": "nonpayable",
      "type": "function"
    },
    {
      "inputs": [
        {
          "internalType": "address",
          "name": "owner",
          "type": "address"
        }
      ],
      "name": "balanceOf",
      "outputs": [
        {
          "internalType": "uint256",
          "name": "",
          "type": "uint256"
        }
      ],
      "stateMutability": "view",
      "type": "function"
    },
    {
      "inputs": [],
      "name": "baseURI",
      "outputs": [
        {
          "internalType": "string",
          "name": "",
          "type": "string"
        }
      ],
      "stateMutability": "view",
      "type": "function"
    },
    {
      "inputs": [
        {
          "internalType": "uint256",
          "name": "_tokenId",
          "type": "uint256"
        }
      ],
      "name": "burn",
      "outputs": [],
      "stateMutability": "nonpayable",
      "type": "function"
    },
    {
      "inputs": [
        {
          "internalType": "uint256",
          "name": "tokenId",
          "type": "uint256"
        }
      ],
      "name": "getApproved",
      "outputs": [
        {
          "internalType": "address",
          "name": "",
          "type": "address"
        }
      ],
      "stateMutability": "view",
      "type": "function"
    },
    {
      "inputs": [],
      "name": "governor",
      "outputs": [
        {
          "internalType": "address",
          "name": "",
          "type": "address"
        }
      ],
      "stateMutability": "view",
      "type": "function"
    },
    {
      "inputs": [
        {
          "internalType": "address",
          "name": "owner",
          "type": "address"
        },
        {
          "internalType": "address",
          "name": "operator",
          "type": "address"
        }
      ],
      "name": "isApprovedForAll",
      "outputs": [
        {
          "internalType": "bool",
          "name": "",
          "type": "bool"
        }
      ],
      "stateMutability": "view",
      "type": "function"
    },
    {
      "inputs": [
        {
          "internalType": "address",
          "name": "_to",
          "type": "address"
        },
        {
          "internalType": "uint256",
          "name": "_tokenId",
          "type": "uint256"
        }
      ],
      "name": "mint",
      "outputs": [],
      "stateMutability": "nonpayable",
      "type": "function"
    },
    {
      "inputs": [],
      "name": "minter",
      "outputs": [
        {
          "internalType": "address",
          "name": "",
          "type": "address"
        }
      ],
      "stateMutability": "view",
      "type": "function"
    },
    {
      "inputs": [],
      "name": "name",
      "outputs": [
        {
          "internalType": "string",
          "name": "",
          "type": "string"
        }
      ],
      "stateMutability": "view",
      "type": "function"
    },
    {
      "inputs": [
        {
          "internalType": "uint256",
          "name": "tokenId",
          "type": "uint256"
        }
      ],
      "name": "ownerOf",
      "outputs": [
        {
          "internalType": "address",
          "name": "",
          "type": "address"
        }
      ],
      "stateMutability": "view",
      "type": "function"
    },
    {
      "inputs": [],
      "name": "pendingGovernor",
      "outputs": [
        {
          "internalType": "address",
          "name": "",
          "type": "address"
        }
      ],
      "stateMutability": "view",
      "type": "function"
    },
    {
      "inputs": [
        {
          "internalType": "address",
          "name": "from",
          "type": "address"
        },
        {
          "internalType": "address",
          "name": "to",
          "type": "address"
        },
        {
          "internalType": "uint256",
          "name": "tokenId",
          "type": "uint256"
        }
      ],
      "name": "safeTransferFrom",
      "outputs": [],
      "stateMutability": "nonpayable",
      "type": "function"
    },
    {
      "inputs": [
        {
          "internalType": "address",
          "name": "from",
          "type": "address"
        },
        {
          "internalType": "address",
          "name": "to",
          "type": "address"
        },
        {
          "internalType": "uint256",
          "name": "tokenId",
          "type": "uint256"
        },
        {
          "internalType": "bytes",
          "name": "_data",
          "type": "bytes"
        }
      ],
      "name": "safeTransferFrom",
      "outputs": [],
      "stateMutability": "nonpayable",
      "type": "function"
    },
    {
      "inputs": [
        {
          "internalType": "address",
          "name": "operator",
          "type": "address"
        },
        {
          "internalType": "bool",
          "name": "approved",
          "type": "bool"
        }
      ],
      "name": "setApprovalForAll",
      "outputs": [],
      "stateMutability": "nonpayable",
      "type": "function"
    },
    {
      "inputs": [
        {
          "internalType": "string",
          "name": "_baseURI",
          "type": "string"
        }
      ],
      "name": "setBaseURI",
      "outputs": [],
      "stateMutability": "nonpayable",
      "type": "function"
    },
    {
      "inputs": [
        {
          "internalType": "address",
          "name": "_minter",
          "type": "address"
        }
      ],
      "name": "setMinter",
      "outputs": [],
      "stateMutability": "nonpayable",
      "type": "function"
    },
    {
      "inputs": [
        {
          "internalType": "uint256",
          "name": "_tokenId",
          "type": "uint256"
        },
        {
          "internalType": "bytes32",
          "name": "_subgraphMetadata",
          "type": "bytes32"
        }
      ],
      "name": "setSubgraphMetadata",
      "outputs": [],
      "stateMutability": "nonpayable",
      "type": "function"
    },
    {
      "inputs": [
        {
          "internalType": "address",
          "name": "_tokenDescriptor",
          "type": "address"
        }
      ],
      "name": "setTokenDescriptor",
      "outputs": [],
      "stateMutability": "nonpayable",
      "type": "function"
    },
    {
      "inputs": [
        {
          "internalType": "bytes4",
          "name": "interfaceId",
          "type": "bytes4"
        }
      ],
      "name": "supportsInterface",
      "outputs": [
        {
          "internalType": "bool",
          "name": "",
          "type": "bool"
        }
      ],
      "stateMutability": "view",
      "type": "function"
    },
    {
      "inputs": [],
      "name": "symbol",
      "outputs": [
        {
          "internalType": "string",
          "name": "",
          "type": "string"
        }
      ],
      "stateMutability": "view",
      "type": "function"
    },
    {
      "inputs": [
        {
          "internalType": "uint256",
          "name": "index",
          "type": "uint256"
        }
      ],
      "name": "tokenByIndex",
      "outputs": [
        {
          "internalType": "uint256",
          "name": "",
          "type": "uint256"
        }
      ],
      "stateMutability": "view",
      "type": "function"
    },
    {
      "inputs": [],
      "name": "tokenDescriptor",
      "outputs": [
        {
          "internalType": "contract ISubgraphNFTDescriptor",
          "name": "",
          "type": "address"
        }
      ],
      "stateMutability": "view",
      "type": "function"
    },
    {
      "inputs": [
        {
          "internalType": "address",
          "name": "owner",
          "type": "address"
        },
        {
          "internalType": "uint256",
          "name": "index",
          "type": "uint256"
        }
      ],
      "name": "tokenOfOwnerByIndex",
      "outputs": [
        {
          "internalType": "uint256",
          "name": "",
          "type": "uint256"
        }
      ],
      "stateMutability": "view",
      "type": "function"
    },
    {
      "inputs": [
        {
          "internalType": "uint256",
          "name": "_tokenId",
          "type": "uint256"
        }
      ],
      "name": "tokenURI",
      "outputs": [
        {
          "internalType": "string",
          "name": "",
          "type": "string"
        }
      ],
      "stateMutability": "view",
      "type": "function"
    },
    {
      "inputs": [],
      "name": "totalSupply",
      "outputs": [
        {
          "internalType": "uint256",
          "name": "",
          "type": "uint256"
        }
      ],
      "stateMutability": "view",
      "type": "function"
    },
    {
      "inputs": [
        {
          "internalType": "address",
          "name": "from",
          "type": "address"
        },
        {
          "internalType": "address",
          "name": "to",
          "type": "address"
        },
        {
          "internalType": "uint256",
          "name": "tokenId",
          "type": "uint256"
        }
      ],
      "name": "transferFrom",
      "outputs": [],
      "stateMutability": "nonpayable",
      "type": "function"
    },
    {
      "inputs": [
        {
          "internalType": "address",
          "name": "_newGovernor",
          "type": "address"
        }
      ],
      "name": "transferOwnership",
      "outputs": [],
      "stateMutability": "nonpayable",
      "type": "function"
    }
  ],
  "bytecode": "0x60806040523480156200001157600080fd5b5060405162002ad738038062002ad7833981810160405260208110156200003757600080fd5b505160408051808201825260088152670a6eac4cee4c2e0d60c31b60208281019190915282518084019093526002835261534760f01b9083015290620000846301ffc9a760e01b620000fb565b815162000099906008906020850190620001a2565b508051620000af906009906020840190620001a2565b50620000c26380ac58cd60e01b620000fb565b620000d4635b5e139f60e01b620000fb565b620000e663780e9d6360e01b620000fb565b50620000f490508162000180565b506200024e565b6001600160e01b031980821614156200015b576040805162461bcd60e51b815260206004820152601c60248201527f4552433136353a20696e76616c696420696e7465726661636520696400000000604482015290519081900360640190fd5b6001600160e01b0319166000908152600260205260409020805460ff19166001179055565b600080546001600160a01b0319166001600160a01b0392909216919091179055565b828054600181600116156101000203166002900490600052602060002090601f016020900481019282620001da576000855562000225565b82601f10620001f557805160ff191683800117855562000225565b8280016001018555821562000225579182015b828111156200022557825182559160200191906001019062000208565b506200023392915062000237565b5090565b5b8082111562000233576000815560010162000238565b612879806200025e6000396000f3fe608060405234801561001057600080fd5b50600436106101cf5760003560e01c806355f804b311610104578063a22cb465116100a2578063e3056a3411610071578063e3056a341461067e578063e985e9c514610686578063f2fde38b146106b4578063fca3b5aa146106da576101cf565b8063a22cb46514610547578063b6dc7ea314610575578063b88d4fde1461059b578063c87b56dd14610661576101cf565b80636c0360eb116100de5780636c0360eb1461050957806370a082311461051157806379ba50971461053757806395d89b411461053f576101cf565b806355f804b31461043e5780635a9d7a68146104e45780636352211e146104ec576101cf565b806323b872dd1161017157806340c10f191161014b57806340c10f19146103a257806342842e0e146103ce57806342966c68146104045780634f6ccce714610421576101cf565b806323b872dd1461031d5780632f745c5914610353578063398b28d21461037f576101cf565b8063081812fc116101ad578063081812fc146102b0578063095ea7b3146102cd5780630c340a24146102fb57806318160ddd14610303576101cf565b806301ffc9a7146101d457806306fdde031461020f578063075461721461028c575b600080fd5b6101fb600480360360208110156101ea57600080fd5b50356001600160e01b031916610700565b604080519115158252519081900360200190f35b610217610723565b6040805160208082528351818301528351919283929083019185019080838360005b83811015610251578181015183820152602001610239565b50505050905090810190601f16801561027e5780820380516001836020036101000a031916815260200191505b509250505060405180910390f35b6102946107b9565b604080516001600160a01b039092168252519081900360200190f35b610294600480360360208110156102c657600080fd5b50356107c8565b6102f9600480360360408110156102e357600080fd5b506001600160a01b03813516906020013561082a565b005b610294610905565b61030b610914565b60408051918252519081900360200190f35b6102f96004803603606081101561033357600080fd5b506001600160a01b03813581169160208101359091169060400135610925565b61030b6004803603604081101561036957600080fd5b506001600160a01b03813516906020013561097c565b6102f96004803603604081101561039557600080fd5b50803590602001356109a7565b6102f9600480360360408110156103b857600080fd5b506001600160a01b038135169060200135610a88565b6102f9600480360360608110156103e457600080fd5b506001600160a01b03813581169160208101359091169060400135610ae8565b6102f96004803603602081101561041a57600080fd5b5035610b03565b61030b6004803603602081101561043757600080fd5b5035610b61565b6102f96004803603602081101561045457600080fd5b81019060208101813564010000000081111561046f57600080fd5b82018360208201111561048157600080fd5b803590602001918460018302840111640100000000831117156104a357600080fd5b91908080601f016020809104026020016040519081016040528093929190818152602001838380828437600092019190915250929550610b77945050505050565b610294610bd8565b6102946004803603602081101561050257600080fd5b5035610be7565b610217610c0f565b61030b6004803603602081101561052757600080fd5b50356001600160a01b0316610c70565b6102f9610cd8565b610217610de6565b6102f96004803603604081101561055d57600080fd5b506001600160a01b0381351690602001351515610e47565b6102f96004803603602081101561058b57600080fd5b50356001600160a01b0316610f4c565b6102f9600480360360808110156105b157600080fd5b6001600160a01b038235811692602081013590911691604082013591908101906080810160608201356401000000008111156105ec57600080fd5b8201836020820111156105fe57600080fd5b8035906020019184600183028401116401000000008311171561062057600080fd5b91908080601f016020809104026020016040519081016040528093929190818152602001838380828437600092019190915250929550610fad945050505050565b6102176004803603602081101561067757600080fd5b503561100b565b61029461141a565b6101fb6004803603604081101561069c57600080fd5b506001600160a01b0381358116916020013516611429565b6102f9600480360360208110156106ca57600080fd5b50356001600160a01b0316611457565b6102f9600480360360208110156106f057600080fd5b50356001600160a01b0316611555565b6001600160e01b0319811660009081526002602052604090205460ff165b919050565b60088054604080516020601f60026000196101006001881615020190951694909404938401819004810282018101909252828152606093909290918301828280156107af5780601f10610784576101008083540402835291602001916107af565b820191906000526020600020905b81548152906001019060200180831161079257829003601f168201915b5050505050905090565b600c546001600160a01b031681565b60006107d3826115b6565b61080e5760405162461bcd60e51b815260040180806020018281038252602c815260200180612742602c913960400191505060405180910390fd5b506000908152600660205260409020546001600160a01b031690565b600061083582610be7565b9050806001600160a01b0316836001600160a01b031614156108885760405162461bcd60e51b81526004018080602001828103825260218152602001806127f26021913960400191505060405180910390fd5b806001600160a01b031661089a6115c3565b6001600160a01b031614806108bb57506108bb816108b66115c3565b611429565b6108f65760405162461bcd60e51b81526004018080602001828103825260388152602001806126956038913960400191505060405180910390fd5b61090083836115c7565b505050565b6000546001600160a01b031681565b60006109206004611635565b905090565b6109366109306115c3565b82611640565b6109715760405162461bcd60e51b81526004018080602001828103825260318152602001806128136031913960400191505060405180910390fd5b6109008383836116e4565b6001600160a01b038216600090815260036020526040812061099e9083611830565b90505b92915050565b600c546001600160a01b031633146109f9576040805162461bcd60e51b815260206004820152601060248201526f26bab9ba10313290309036b4b73a32b960811b604482015290519081900360640190fd5b610a02826115b6565b610a3d5760405162461bcd60e51b815260040180806020018281038252602c81526020018061276e602c913960400191505060405180910390fd5b6000828152600e60209081526040918290208390558151838152915184927fd0348d353ba9da6b560ddf6465c3faf849b78869806be8900a829c064b8d4b2192908290030190a25050565b600c546001600160a01b03163314610ada576040805162461bcd60e51b815260206004820152601060248201526f26bab9ba10313290309036b4b73a32b960811b604482015290519081900360640190fd5b610ae4828261183c565b5050565b61090083838360405180602001604052806000815250610fad565b600c546001600160a01b03163314610b55576040805162461bcd60e51b815260206004820152601060248201526f26bab9ba10313290309036b4b73a32b960811b604482015290519081900360640190fd5b610b5e8161196a565b50565b600080610b6f600484611a37565b509392505050565b6000546001600160a01b03163314610bcf576040805162461bcd60e51b815260206004820152601660248201527513db9b1e4811dbdd995c9b9bdc8818d85b8818d85b1b60521b604482015290519081900360640190fd5b610b5e81611a53565b600d546001600160a01b031681565b60006109a1826040518060600160405280602981526020016126f76029913960049190611a66565b600b8054604080516020601f60026000196101006001881615020190951694909404938401819004810282018101909252828152606093909290918301828280156107af5780601f10610784576101008083540402835291602001916107af565b60006001600160a01b038216610cb75760405162461bcd60e51b815260040180806020018281038252602a8152602001806126cd602a913960400191505060405180910390fd5b6001600160a01b03821660009081526003602052604090206109a190611635565b6001546001600160a01b03168015801590610cfb5750336001600160a01b038216145b610d4c576040805162461bcd60e51b815260206004820152601f60248201527f43616c6c6572206d7573742062652070656e64696e6720676f7665726e6f7200604482015290519081900360640190fd5b600080546001600160a01b038381166001600160a01b031980841691909117808555600180549092169091556040519282169391169183917f0ac6deed30eef60090c749850e10f2fa469e3e25fec1d1bef2853003f6e6f18f91a36001546040516001600160a01b03918216918416907f76563ad561b7036ae716b9b25cb521b21463240f104c97e12f25877f2235f33d90600090a35050565b60098054604080516020601f60026000196101006001881615020190951694909404938401819004810282018101909252828152606093909290918301828280156107af5780601f10610784576101008083540402835291602001916107af565b610e4f6115c3565b6001600160a01b0316826001600160a01b03161415610eb5576040805162461bcd60e51b815260206004820152601960248201527f4552433732313a20617070726f766520746f2063616c6c657200000000000000604482015290519081900360640190fd5b8060076000610ec26115c3565b6001600160a01b03908116825260208083019390935260409182016000908120918716808252919093529120805460ff191692151592909217909155610f066115c3565b6001600160a01b03167f17307eab39ab6107e8899845ad3d59bd9653f200f220920489ca2b5937696c318360405180821515815260200191505060405180910390a35050565b6000546001600160a01b03163314610fa4576040805162461bcd60e51b815260206004820152601660248201527513db9b1e4811dbdd995c9b9bdc8818d85b8818d85b1b60521b604482015290519081900360640190fd5b610b5e81611a7d565b610fbe610fb86115c3565b83611640565b610ff95760405162461bcd60e51b81526004018080602001828103825260318152602001806128136031913960400191505060405180910390fd5b61100584848484611b3c565b50505050565b6060611016826115b6565b6110515760405162461bcd60e51b815260040180806020018281038252602f8152602001806127c3602f913960400191505060405180910390fd5b600d546001600160a01b03161561124057600d54600c546001600160a01b039182169163bacc1fc5911684611084610c0f565b600e6000888152602001908152602001600020546040518563ffffffff1660e01b815260040180856001600160a01b0316815260200184815260200180602001838152602001828103825284818151815260200191508051906020019080838360005b838110156110ff5781810151838201526020016110e7565b50505050905090810190601f16801561112c5780820380516001836020036101000a031916815260200191505b509550505050505060006040518083038186803b15801561114c57600080fd5b505afa158015611160573d6000803e3d6000fd5b505050506040513d6000823e601f3d908101601f19168201604052602081101561118957600080fd5b81019080805160405193929190846401000000008211156111a957600080fd5b9083019060208201858111156111be57600080fd5b82516401000000008111828201881017156111d857600080fd5b82525081516020918201929091019080838360005b838110156112055781810151838201526020016111ed565b50505050905090810190601f1680156112325780820380516001836020036101000a031916815260200191505b50604052505050905061071e565b6000828152600e6020526040812054908161126a5760405180602001604052806000815250611273565b61127382611b8e565b9050600061127f610c0f565b90508051600014156112955750915061071e9050565b8151156113575780826040516020018083805190602001908083835b602083106112d05780518252601f1990920191602091820191016112b1565b51815160209384036101000a600019018019909216911617905285519190930192850191508083835b602083106113185780518252601f1990920191602091820191016112f9565b6001836020036101000a03801982511681845116808217855250505050505090500192505050604051602081830303815290604052935050505061071e565b8061136186611b8e565b6040516020018083805190602001908083835b602083106113935780518252601f199092019160209182019101611374565b51815160209384036101000a600019018019909216911617905285519190930192850191508083835b602083106113db5780518252601f1990920191602091820191016113bc565b6001836020036101000a038019825116818451168082178552505050505050905001925050506040516020818303038152906040529350505050919050565b6001546001600160a01b031681565b6001600160a01b03918216600090815260076020908152604080832093909416825291909152205460ff1690565b6000546001600160a01b031633146114af576040805162461bcd60e51b815260206004820152601660248201527513db9b1e4811dbdd995c9b9bdc8818d85b8818d85b1b60521b604482015290519081900360640190fd5b6001600160a01b038116611501576040805162461bcd60e51b815260206004820152601460248201527311dbdd995c9b9bdc881b5d5cdd081899481cd95d60621b604482015290519081900360640190fd5b600180546001600160a01b038381166001600160a01b03198316179283905560405191811692169082907f76563ad561b7036ae716b9b25cb521b21463240f104c97e12f25877f2235f33d90600090a35050565b6000546001600160a01b031633146115ad576040805162461bcd60e51b815260206004820152601660248201527513db9b1e4811dbdd995c9b9bdc8818d85b8818d85b1b60521b604482015290519081900360640190fd5b610b5e81611bd9565b60006109a1600483611c2d565b3390565b600081815260066020526040902080546001600160a01b0319166001600160a01b03841690811790915581906115fc82610be7565b6001600160a01b03167f8c5be1e5ebec7d5bd14f71427d1e84f3dd0314c0f7b2291e5b200ac8c7c3b92560405160405180910390a45050565b60006109a182611c39565b600061164b826115b6565b6116865760405162461bcd60e51b815260040180806020018281038252602c815260200180612669602c913960400191505060405180910390fd5b600061169183610be7565b9050806001600160a01b0316846001600160a01b031614806116cc5750836001600160a01b03166116c1846107c8565b6001600160a01b0316145b806116dc57506116dc8185611429565b949350505050565b826001600160a01b03166116f782610be7565b6001600160a01b03161461173c5760405162461bcd60e51b815260040180806020018281038252602981526020018061279a6029913960400191505060405180910390fd5b6001600160a01b0382166117815760405162461bcd60e51b81526004018080602001828103825260248152602001806126456024913960400191505060405180910390fd5b61178c838383610900565b6117976000826115c7565b6001600160a01b03831660009081526003602052604090206117b99082611c3d565b506001600160a01b03821660009081526003602052604090206117dc9082611c49565b506117e960048284611c55565b5080826001600160a01b0316846001600160a01b03167fddf252ad1be2c89b69c2b068fc378daa952ba7f163c4a11628f55a4df523b3ef60405160405180910390a4505050565b600061099e8383611c6b565b6001600160a01b038216611897576040805162461bcd60e51b815260206004820181905260248201527f4552433732313a206d696e7420746f20746865207a65726f2061646472657373604482015290519081900360640190fd5b6118a0816115b6565b156118f2576040805162461bcd60e51b815260206004820152601c60248201527f4552433732313a20746f6b656e20616c7265616479206d696e74656400000000604482015290519081900360640190fd5b6118fe60008383610900565b6001600160a01b03821660009081526003602052604090206119209082611c49565b5061192d60048284611c55565b5060405181906001600160a01b038416906000907fddf252ad1be2c89b69c2b068fc378daa952ba7f163c4a11628f55a4df523b3ef908290a45050565b600061197582610be7565b905061198381600084610900565b61198e6000836115c7565b6000828152600a602052604090205460026000196101006001841615020190911604156119cc576000828152600a602052604081206119cc9161250b565b6001600160a01b03811660009081526003602052604090206119ee9083611c3d565b506119fa600483611ccf565b5060405182906000906001600160a01b038416907fddf252ad1be2c89b69c2b068fc378daa952ba7f163c4a11628f55a4df523b3ef908390a45050565b6000808080611a468686611cdb565b9097909650945050505050565b8051610ae490600b90602084019061254f565b6000611a73848484611d56565b90505b9392505050565b6001600160a01b0381161580611a975750611a9781611e20565b611ae8576040805162461bcd60e51b815260206004820152601d60248201527f4e46543a20496e76616c696420746f6b656e2064657363726970746f72000000604482015290519081900360640190fd5b600d80546001600160a01b0383166001600160a01b0319909116811790915560408051918252517f3934ad1ed486f466741ebe514443b58c79f12249bc03796d34e619f5ae27c3da9181900360200190a150565b611b478484846116e4565b611b5384848484611e26565b6110055760405162461bcd60e51b81526004018080602001828103825260328152602001806126136032913960400191505060405180910390fd5b606081611bb657506040805180820190915260048152630307830360e41b602082015261071e565b8160005b8115611bcf5760089190911c90600101611bba565b6116dc8482611f8e565b600c80546001600160a01b0383166001600160a01b0319909116811790915560408051918252517fad0f299ec81a386c98df0ac27dae11dd020ed1b56963c53a7292e7a3a314539a9181900360200190a150565b600061099e83836120ed565b5490565b600061099e8383612105565b600061099e83836121cb565b6000611a7384846001600160a01b038516612215565b81546000908210611cad5760405162461bcd60e51b81526004018080602001828103825260228152602001806125f16022913960400191505060405180910390fd5b826000018281548110611cbc57fe5b9060005260206000200154905092915050565b600061099e83836122ac565b815460009081908310611d1f5760405162461bcd60e51b81526004018080602001828103825260228152602001806127206022913960400191505060405180910390fd5b6000846000018481548110611d3057fe5b906000526020600020906002020190508060000154816001015492509250509250929050565b60008281526001840160205260408120548281611df15760405162461bcd60e51b81526004018080602001828103825283818151815260200191508051906020019080838360005b83811015611db6578181015183820152602001611d9e565b50505050905090810190601f168015611de35780820380516001836020036101000a031916815260200191505b509250505060405180910390fd5b50846000016001820381548110611e0457fe5b9060005260206000209060020201600101549150509392505050565b3b151590565b6000611e3a846001600160a01b0316611e20565b611e46575060016116dc565b6000611f54630a85bd0160e11b611e5b6115c3565b88878760405160240180856001600160a01b03168152602001846001600160a01b0316815260200183815260200180602001828103825283818151815260200191508051906020019080838360005b83811015611ec2578181015183820152602001611eaa565b50505050905090810190601f168015611eef5780820380516001836020036101000a031916815260200191505b5095505050505050604051602081830303815290604052906001600160e01b0319166020820180516001600160e01b038381831617835250505050604051806060016040528060328152602001612613603291396001600160a01b0388169190612380565b90506000818060200190516020811015611f6d57600080fd5b50516001600160e01b031916630a85bd0160e11b1492505050949350505050565b606060008260020260020167ffffffffffffffff81118015611faf57600080fd5b506040519080825280601f01601f191660200182016040528015611fda576020820181803683370190505b509050600360fc1b81600081518110611fef57fe5b60200101906001600160f81b031916908160001a905350600f60fb1b8160018151811061201857fe5b60200101906001600160f81b031916908160001a905350600160028402015b6001811115612099576f181899199a1a9b1b9c1cb0b131b232b360811b85600f166010811061206257fe5b1a60f81b82828151811061207257fe5b60200101906001600160f81b031916908160001a90535060049490941c9360001901612037565b50831561099e576040805162461bcd60e51b815260206004820181905260248201527f537472696e67733a20686578206c656e67746820696e73756666696369656e74604482015290519081900360640190fd5b60009081526001919091016020526040902054151590565b600081815260018301602052604081205480156121c1578354600019808301919081019060009087908390811061213857fe5b906000526020600020015490508087600001848154811061215557fe5b60009182526020808320909101929092558281526001898101909252604090209084019055865487908061218557fe5b600190038181906000526020600020016000905590558660010160008781526020019081526020016000206000905560019450505050506109a1565b60009150506109a1565b60006121d783836120ed565b61220d575081546001818101845560008481526020808220909301849055845484825282860190935260409020919091556109a1565b5060006109a1565b60008281526001840160205260408120548061227a575050604080518082018252838152602080820184815286546001818101895560008981528481209551600290930290950191825591519082015586548684528188019092529290912055611a76565b8285600001600183038154811061228d57fe5b9060005260206000209060020201600101819055506000915050611a76565b600081815260018301602052604081205480156121c157835460001980830191908101906000908790839081106122df57fe5b90600052602060002090600202019050808760000184815481106122ff57fe5b60009182526020808320845460029093020191825560019384015491840191909155835482528983019052604090209084019055865487908061233e57fe5b60008281526020808220600260001990940193840201828155600190810183905592909355888152898201909252604082209190915594506109a19350505050565b6060611a7384846000858561239485611e20565b6123e5576040805162461bcd60e51b815260206004820152601d60248201527f416464726573733a2063616c6c20746f206e6f6e2d636f6e7472616374000000604482015290519081900360640190fd5b600080866001600160a01b031685876040518082805190602001908083835b602083106124235780518252601f199092019160209182019101612404565b6001836020036101000a03801982511681845116808217855250505050505090500191505060006040518083038185875af1925050503d8060008114612485576040519150601f19603f3d011682016040523d82523d6000602084013e61248a565b606091505b509150915061249a8282866124a5565b979650505050505050565b606083156124b4575081611a76565b8251156124c45782518084602001fd5b60405162461bcd60e51b8152602060048201818152845160248401528451859391928392604401919085019080838360008315611db6578181015183820152602001611d9e565b50805460018160011615610100020316600290046000825580601f106125315750610b5e565b601f016020900490600052602060002090810190610b5e91906125db565b828054600181600116156101000203166002900490600052602060002090601f01602090048101928261258557600085556125cb565b82601f1061259e57805160ff19168380011785556125cb565b828001600101855582156125cb579182015b828111156125cb5782518255916020019190600101906125b0565b506125d79291506125db565b5090565b5b808211156125d757600081556001016125dc56fe456e756d657261626c655365743a20696e646578206f7574206f6620626f756e64734552433732313a207472616e7366657220746f206e6f6e20455243373231526563656976657220696d706c656d656e7465724552433732313a207472616e7366657220746f20746865207a65726f20616464726573734552433732313a206f70657261746f7220717565727920666f72206e6f6e6578697374656e7420746f6b656e4552433732313a20617070726f76652063616c6c6572206973206e6f74206f776e6572206e6f7220617070726f76656420666f7220616c6c4552433732313a2062616c616e636520717565727920666f7220746865207a65726f20616464726573734552433732313a206f776e657220717565727920666f72206e6f6e6578697374656e7420746f6b656e456e756d657261626c654d61703a20696e646578206f7574206f6620626f756e64734552433732313a20617070726f76656420717565727920666f72206e6f6e6578697374656e7420746f6b656e4552433732314d657461646174613a2055524920736574206f66206e6f6e6578697374656e7420746f6b656e4552433732313a207472616e73666572206f6620746f6b656e2074686174206973206e6f74206f776e4552433732314d657461646174613a2055524920717565727920666f72206e6f6e6578697374656e7420746f6b656e4552433732313a20617070726f76616c20746f2063757272656e74206f776e65724552433732313a207472616e736665722063616c6c6572206973206e6f74206f776e6572206e6f7220617070726f766564a2646970667358221220aa2bf06635ddb9eb78616542b4addf31da5e4e0600c085a02b7a3c8bac611b5f64736f6c63430007060033",
  "linkReferences": {},
  "deployedLinkReferences": {}
}