{
  "_format": "hh-sol-artifact-1",
  "contractName": "DisputeManager",
  "sourceName": "contracts/disputes/DisputeManager.sol",
  "abi": [
    {
      "anonymous": false,
      "inputs": [
        {
          "indexed": true,
          "internalType": "bytes32",
          "name": "nameHash",
          "type": "bytes32"
        },
        {
          "indexed": false,
          "internalType": "address",
          "name": "contractAddress",
          "type": "address"
        }
      ],
      "name": "ContractSynced",
      "type": "event"
    },
    {
      "anonymous": false,
      "inputs": [
        {
          "indexed": true,
          "internalType": "bytes32",
          "name": "disputeID",
          "type": "bytes32"
        },
        {
          "indexed": true,
          "internalType": "address",
          "name": "indexer",
          "type": "address"
        },
        {
          "indexed": true,
          "internalType": "address",
          "name": "fisherman",
          "type": "address"
        },
        {
          "indexed": false,
          "internalType": "uint256",
          "name": "tokens",
          "type": "uint256"
        }
      ],
      "name": "DisputeAccepted",
      "type": "event"
    },
    {
      "anonymous": false,
      "inputs": [
        {
          "indexed": true,
          "internalType": "bytes32",
          "name": "disputeID",
          "type": "bytes32"
        },
        {
          "indexed": true,
          "internalType": "address",
          "name": "indexer",
          "type": "address"
        },
        {
          "indexed": true,
          "internalType": "address",
          "name": "fisherman",
          "type": "address"
        },
        {
          "indexed": false,
          "internalType": "uint256",
          "name": "tokens",
          "type": "uint256"
        }
      ],
      "name": "DisputeDrawn",
      "type": "event"
    },
    {
      "anonymous": false,
      "inputs": [
        {
          "indexed": true,
          "internalType": "bytes32",
          "name": "disputeID1",
          "type": "bytes32"
        },
        {
          "indexed": true,
          "internalType": "bytes32",
          "name": "disputeID2",
          "type": "bytes32"
        }
      ],
      "name": "DisputeLinked",
      "type": "event"
    },
    {
      "anonymous": false,
      "inputs": [
        {
          "indexed": true,
          "internalType": "bytes32",
          "name": "disputeID",
          "type": "bytes32"
        },
        {
          "indexed": true,
          "internalType": "address",
          "name": "indexer",
          "type": "address"
        },
        {
          "indexed": true,
          "internalType": "address",
          "name": "fisherman",
          "type": "address"
        },
        {
          "indexed": false,
          "internalType": "uint256",
          "name": "tokens",
          "type": "uint256"
        }
      ],
      "name": "DisputeRejected",
      "type": "event"
    },
    {
      "anonymous": false,
      "inputs": [
        {
          "indexed": true,
          "internalType": "bytes32",
          "name": "disputeID",
          "type": "bytes32"
        },
        {
          "indexed": true,
          "internalType": "address",
          "name": "indexer",
          "type": "address"
        },
        {
          "indexed": true,
          "internalType": "address",
          "name": "fisherman",
          "type": "address"
        },
        {
          "indexed": false,
          "internalType": "uint256",
          "name": "tokens",
          "type": "uint256"
        },
        {
          "indexed": false,
          "internalType": "address",
          "name": "allocationID",
          "type": "address"
        }
      ],
      "name": "IndexingDisputeCreated",
      "type": "event"
    },
    {
      "anonymous": false,
      "inputs": [
        {
          "indexed": false,
          "internalType": "string",
          "name": "param",
          "type": "string"
        }
      ],
      "name": "ParameterUpdated",
      "type": "event"
    },
    {
      "anonymous": false,
      "inputs": [
        {
          "indexed": true,
          "internalType": "bytes32",
          "name": "disputeID",
          "type": "bytes32"
        },
        {
          "indexed": true,
          "internalType": "address",
          "name": "indexer",
          "type": "address"
        },
        {
          "indexed": true,
          "internalType": "address",
          "name": "fisherman",
          "type": "address"
        },
        {
          "indexed": false,
          "internalType": "uint256",
          "name": "tokens",
          "type": "uint256"
        },
        {
          "indexed": false,
          "internalType": "bytes32",
          "name": "subgraphDeploymentID",
          "type": "bytes32"
        },
        {
          "indexed": false,
          "internalType": "bytes",
          "name": "attestation",
          "type": "bytes"
        }
      ],
      "name": "QueryDisputeCreated",
      "type": "event"
    },
    {
      "anonymous": false,
      "inputs": [
        {
          "indexed": false,
          "internalType": "address",
          "name": "controller",
          "type": "address"
        }
      ],
      "name": "SetController",
      "type": "event"
    },
    {
      "inputs": [
        {
          "internalType": "bytes32",
          "name": "_disputeID",
          "type": "bytes32"
        }
      ],
      "name": "acceptDispute",
      "outputs": [],
      "stateMutability": "nonpayable",
      "type": "function"
    },
    {
      "inputs": [
        {
          "internalType": "contract IGraphProxy",
          "name": "_proxy",
          "type": "address"
        }
      ],
      "name": "acceptProxy",
      "outputs": [],
      "stateMutability": "nonpayable",
      "type": "function"
    },
    {
      "inputs": [
        {
          "internalType": "contract IGraphProxy",
          "name": "_proxy",
          "type": "address"
        },
        {
          "internalType": "bytes",
          "name": "_data",
          "type": "bytes"
        }
      ],
      "name": "acceptProxyAndCall",
      "outputs": [],
      "stateMutability": "nonpayable",
      "type": "function"
    },
    {
      "inputs": [],
      "name": "arbitrator",
      "outputs": [
        {
          "internalType": "address",
          "name": "",
          "type": "address"
        }
      ],
      "stateMutability": "view",
      "type": "function"
    },
    {
      "inputs": [
        {
          "components": [
            {
              "internalType": "bytes32",
              "name": "requestCID",
              "type": "bytes32"
            },
            {
              "internalType": "bytes32",
              "name": "responseCID",
              "type": "bytes32"
            },
            {
              "internalType": "bytes32",
              "name": "subgraphDeploymentID",
              "type": "bytes32"
            },
            {
              "internalType": "bytes32",
              "name": "r",
              "type": "bytes32"
            },
            {
              "internalType": "bytes32",
              "name": "s",
              "type": "bytes32"
            },
            {
              "internalType": "uint8",
              "name": "v",
              "type": "uint8"
            }
          ],
          "internalType": "struct IDisputeManager.Attestation",
          "name": "_attestation1",
          "type": "tuple"
        },
        {
          "components": [
            {
              "internalType": "bytes32",
              "name": "requestCID",
              "type": "bytes32"
            },
            {
              "internalType": "bytes32",
              "name": "responseCID",
              "type": "bytes32"
            },
            {
              "internalType": "bytes32",
              "name": "subgraphDeploymentID",
              "type": "bytes32"
            },
            {
              "internalType": "bytes32",
              "name": "r",
              "type": "bytes32"
            },
            {
              "internalType": "bytes32",
              "name": "s",
              "type": "bytes32"
            },
            {
              "internalType": "uint8",
              "name": "v",
              "type": "uint8"
            }
          ],
          "internalType": "struct IDisputeManager.Attestation",
          "name": "_attestation2",
          "type": "tuple"
        }
      ],
      "name": "areConflictingAttestations",
      "outputs": [
        {
          "internalType": "bool",
          "name": "",
          "type": "bool"
        }
      ],
      "stateMutability": "pure",
      "type": "function"
    },
    {
      "inputs": [],
      "name": "controller",
      "outputs": [
        {
          "internalType": "contract IController",
          "name": "",
          "type": "address"
        }
      ],
      "stateMutability": "view",
      "type": "function"
    },
    {
      "inputs": [
        {
          "internalType": "address",
          "name": "_allocationID",
          "type": "address"
        },
        {
          "internalType": "uint256",
          "name": "_deposit",
          "type": "uint256"
        }
      ],
      "name": "createIndexingDispute",
      "outputs": [
        {
          "internalType": "bytes32",
          "name": "",
          "type": "bytes32"
        }
      ],
      "stateMutability": "nonpayable",
      "type": "function"
    },
    {
      "inputs": [
        {
          "internalType": "bytes",
          "name": "_attestationData",
          "type": "bytes"
        },
        {
          "internalType": "uint256",
          "name": "_deposit",
          "type": "uint256"
        }
      ],
      "name": "createQueryDispute",
      "outputs": [
        {
          "internalType": "bytes32",
          "name": "",
          "type": "bytes32"
        }
      ],
      "stateMutability": "nonpayable",
      "type": "function"
    },
    {
      "inputs": [
        {
          "internalType": "bytes",
          "name": "_attestationData1",
          "type": "bytes"
        },
        {
          "internalType": "bytes",
          "name": "_attestationData2",
          "type": "bytes"
        }
      ],
      "name": "createQueryDisputeConflict",
      "outputs": [
        {
          "internalType": "bytes32",
          "name": "",
          "type": "bytes32"
        },
        {
          "internalType": "bytes32",
          "name": "",
          "type": "bytes32"
        }
      ],
      "stateMutability": "nonpayable",
      "type": "function"
    },
    {
      "inputs": [
        {
          "internalType": "bytes32",
          "name": "",
          "type": "bytes32"
        }
      ],
      "name": "disputes",
      "outputs": [
        {
          "internalType": "address",
          "name": "indexer",
          "type": "address"
        },
        {
          "internalType": "address",
          "name": "fisherman",
          "type": "address"
        },
        {
          "internalType": "uint256",
          "name": "deposit",
          "type": "uint256"
        },
        {
          "internalType": "bytes32",
          "name": "relatedDisputeID",
          "type": "bytes32"
        },
        {
          "internalType": "enum IDisputeManager.DisputeType",
          "name": "disputeType",
          "type": "uint8"
        },
        {
          "internalType": "enum IDisputeManager.DisputeStatus",
          "name": "status",
          "type": "uint8"
        }
      ],
      "stateMutability": "view",
      "type": "function"
    },
    {
      "inputs": [
        {
          "internalType": "bytes32",
          "name": "_disputeID",
          "type": "bytes32"
        }
      ],
      "name": "drawDispute",
      "outputs": [],
      "stateMutability": "nonpayable",
      "type": "function"
    },
    {
      "inputs": [
        {
          "components": [
            {
              "internalType": "bytes32",
              "name": "requestCID",
              "type": "bytes32"
            },
            {
              "internalType": "bytes32",
              "name": "responseCID",
              "type": "bytes32"
            },
            {
              "internalType": "bytes32",
              "name": "subgraphDeploymentID",
              "type": "bytes32"
            }
          ],
          "internalType": "struct IDisputeManager.Receipt",
          "name": "_receipt",
          "type": "tuple"
        }
      ],
      "name": "encodeHashReceipt",
      "outputs": [
        {
          "internalType": "bytes32",
          "name": "",
          "type": "bytes32"
        }
      ],
      "stateMutability": "view",
      "type": "function"
    },
    {
      "inputs": [],
      "name": "fishermanRewardPercentage",
      "outputs": [
        {
          "internalType": "uint32",
          "name": "",
          "type": "uint32"
        }
      ],
      "stateMutability": "view",
      "type": "function"
    },
    {
      "inputs": [
        {
          "components": [
            {
              "internalType": "bytes32",
              "name": "requestCID",
              "type": "bytes32"
            },
            {
              "internalType": "bytes32",
              "name": "responseCID",
              "type": "bytes32"
            },
            {
              "internalType": "bytes32",
              "name": "subgraphDeploymentID",
              "type": "bytes32"
            },
            {
              "internalType": "bytes32",
              "name": "r",
              "type": "bytes32"
            },
            {
              "internalType": "bytes32",
              "name": "s",
              "type": "bytes32"
            },
            {
              "internalType": "uint8",
              "name": "v",
              "type": "uint8"
            }
          ],
          "internalType": "struct IDisputeManager.Attestation",
          "name": "_attestation",
          "type": "tuple"
        }
      ],
      "name": "getAttestationIndexer",
      "outputs": [
        {
          "internalType": "address",
          "name": "",
          "type": "address"
        }
      ],
      "stateMutability": "view",
      "type": "function"
    },
    {
      "inputs": [],
      "name": "idxSlashingPercentage",
      "outputs": [
        {
          "internalType": "uint32",
          "name": "",
          "type": "uint32"
        }
      ],
      "stateMutability": "view",
      "type": "function"
    },
    {
      "inputs": [
        {
          "internalType": "address",
          "name": "_controller",
          "type": "address"
        },
        {
          "internalType": "address",
          "name": "_arbitrator",
          "type": "address"
        },
        {
          "internalType": "uint256",
          "name": "_minimumDeposit",
          "type": "uint256"
        },
        {
          "internalType": "uint32",
          "name": "_fishermanRewardPercentage",
          "type": "uint32"
        },
        {
          "internalType": "uint32",
          "name": "_qrySlashingPercentage",
          "type": "uint32"
        },
        {
          "internalType": "uint32",
          "name": "_idxSlashingPercentage",
          "type": "uint32"
        }
      ],
      "name": "initialize",
      "outputs": [],
      "stateMutability": "nonpayable",
      "type": "function"
    },
    {
      "inputs": [
        {
          "internalType": "bytes32",
          "name": "_disputeID",
          "type": "bytes32"
        }
      ],
      "name": "isDisputeCreated",
      "outputs": [
        {
          "internalType": "bool",
          "name": "",
          "type": "bool"
        }
      ],
      "stateMutability": "view",
      "type": "function"
    },
    {
      "inputs": [],
      "name": "minimumDeposit",
      "outputs": [
        {
          "internalType": "uint256",
          "name": "",
          "type": "uint256"
        }
      ],
      "stateMutability": "view",
      "type": "function"
    },
    {
      "inputs": [],
      "name": "qrySlashingPercentage",
      "outputs": [
        {
          "internalType": "uint32",
          "name": "",
          "type": "uint32"
        }
      ],
      "stateMutability": "view",
      "type": "function"
    },
    {
      "inputs": [
        {
          "internalType": "bytes32",
          "name": "_disputeID",
          "type": "bytes32"
        }
      ],
      "name": "rejectDispute",
      "outputs": [],
      "stateMutability": "nonpayable",
      "type": "function"
    },
    {
      "inputs": [
        {
          "internalType": "address",
          "name": "_arbitrator",
          "type": "address"
        }
      ],
      "name": "setArbitrator",
      "outputs": [],
      "stateMutability": "nonpayable",
      "type": "function"
    },
    {
      "inputs": [
        {
          "internalType": "address",
          "name": "_controller",
          "type": "address"
        }
      ],
      "name": "setController",
      "outputs": [],
      "stateMutability": "nonpayable",
      "type": "function"
    },
    {
      "inputs": [
        {
          "internalType": "uint32",
          "name": "_percentage",
          "type": "uint32"
        }
      ],
      "name": "setFishermanRewardPercentage",
      "outputs": [],
      "stateMutability": "nonpayable",
      "type": "function"
    },
    {
      "inputs": [
        {
          "internalType": "uint256",
          "name": "_minimumDeposit",
          "type": "uint256"
        }
      ],
      "name": "setMinimumDeposit",
      "outputs": [],
      "stateMutability": "nonpayable",
      "type": "function"
    },
    {
      "inputs": [
        {
          "internalType": "uint32",
          "name": "_qryPercentage",
          "type": "uint32"
        },
        {
          "internalType": "uint32",
          "name": "_idxPercentage",
          "type": "uint32"
        }
      ],
      "name": "setSlashingPercentage",
      "outputs": [],
      "stateMutability": "nonpayable",
      "type": "function"
    },
    {
      "inputs": [],
      "name": "syncAllContracts",
      "outputs": [],
      "stateMutability": "nonpayable",
      "type": "function"
    }
  ],
  "bytecode": "0x6101606040527fe6876326c1291dfcbbd3864a6816d698cd591defc7aa2153d7f9c4c04016c89f6080527fc713c3df6d14cdf946460395d09af88993ee2b948b1a808161494e32c5f6706360a0527f966f1e8d8d8014e05f6ec4a57138da9be1f7c5a7f802928a18072f7c5318076160c0527f1df41cd916959d1163dc8f0671a666ea8a3e434c13e40faef527133b5d16703460e0527f45fc200c7e4544e457d3c5709bfe0d520442c30bbcbdaede89e8d4a4bbc19247610100527fd362cac9cb75c10d67bcc0b7eeb0b1ef48bb5420b556c092d4fd7f758816fcf0610120527f39605a6c26a173774ca666c67ef70cf491880e5d3d6d0ca66ec0a31034f15ea36101405234801561011057600080fd5b5060805160a05160c05160e05161010051610120516101405161338e61016e600039806111205250806110f75250806110ce52806114505250806110a5528061206d52508061107c52508061105352508061102a525061338e6000f3fe608060405234801561001057600080fd5b506004361061018e5760003560e01c8063991a8355116100de578063c894222e11610097578063d6866ea511610071578063d6866ea51461035d578063e78ec42e14610365578063f77c479114610378578063fcc29e4b146103805761018e565b8063c894222e14610316578063c9747f5114610337578063d36fc9d41461034a5761018e565b8063991a8355146102975780639ce7abe5146102aa578063a2594d82146102bd578063b0eefabe146102d0578063be41f384146102e3578063c8792217146103035761018e565b8063530efc9d1161014b578063787693e011610125578063787693e0146102565780638bbb33b41461025e57806392eefe9b146102715780639334ea52146102845761018e565b8063530efc9d14610231578063636bfbab146102395780636cc6cde1146102415761018e565b806311b426111461019357806311be1997146101a8578063131610b1146101d657806336167e03146101f6578063458af6fc14610209578063460967df1461021e575b600080fd5b6101a66101a136600461283f565b610393565b005b6101bb6101b636600461283f565b610590565b6040516101cd96959493929190612bb9565b60405180910390f35b6101e96101e43660046128ed565b6105d7565b6040516101cd9190612c40565b6101a661020436600461283f565b61066a565b6102116107e9565b6040516101cd9190613289565b6101e961022c366004612a5f565b6107f5565b610211610882565b6101e9610896565b61024961089c565b6040516101cd9190612ba5565b6102116108ab565b6101a661026c366004612ae6565b6108be565b6101a661027f366004612788565b6108d4565b6101a661029236600461283f565b6108e8565b6101a66102a5366004612acc565b610a88565b6101a66102b8366004612937565b610a99565b6101a66102cb366004612788565b610bef565b6101a66102de366004612788565b610d0a565b6102f66102f136600461283f565b610d1b565b6040516101cd9190612c35565b6101e9610311366004612814565b610d4c565b610329610324366004612884565b610d6b565b6040516101cd929190612c49565b610249610345366004612a0f565b610f07565b6102f6610358366004612a2a565b610ff4565b6101a6611025565b6101a661037336600461283f565b611146565b610249611157565b6101a661038e3660046127a4565b611166565b61039b6112bc565b806103a581610d1b565b6103ca5760405162461bcd60e51b81526004016103c190612fd0565b60405180910390fd5b60046000828152601060205260409020600490810154610100900460ff16908111156103f257fe5b1461040f5760405162461bcd60e51b81526004016103c19061309d565b600082815260106020526040812060048101805461ff001916610100179081905581546001830154929392610456926001600160a01b03928316929091169060ff166112e6565b91505061047f610464611449565b600184015460028501546001600160a01b0390911690611479565b6040805160c08101825283546001600160a01b039081168252600185015416602082015260028085015492820192909252600384015460608201526004840154610519928591608084019160ff909116908111156104d957fe5b60028111156104e457fe5b81526020016004820160019054906101000a900460ff16600481111561050657fe5b600481111561051157fe5b905250611544565b1561052b5761052b826003015461066a565b6001820154825460028401546001600160a01b03928316929091169086907f6d800aaaf64b9a1f321dcd63da04369d33d8a0d49ad0fbba085aab4a98bf31c4906105759086611587565b6040516105829190612c40565b60405180910390a450505050565b601060205260009081526040902080546001820154600283015460038401546004909401546001600160a01b03938416949390921692909160ff8082169161010090041686565b60006105e2826115e1565b610662338361062687878080601f01602080910402602001604051908101604052809392919081815260200183838082843760009201919091525061161592505050565b87878080601f0160208091040260200160405190810160405280939291908181526020018383808284376000920191909152506116c092505050565b949350505050565b6106726112bc565b8061067c81610d1b565b6106985760405162461bcd60e51b81526004016103c190612fd0565b60046000828152601060205260409020600490810154610100900460ff16908111156106c057fe5b146106dd5760405162461bcd60e51b81526004016103c19061309d565b60008281526010602052604090206004810180546002919061ff0019166101008302179055506040805160c08101825282546001600160a01b03908116825260018401541660208201526002808401549282019290925260038301546060820152600483015461075d928491608084019160ff909116908111156104d957fe5b1561077a5760405162461bcd60e51b81526004016103c190612d37565b61078f610785611449565b826002015461191c565b6001810154815460028301546040516001600160a01b03938416939092169186917f2226ebd23625a7938fb786df2248bd171d2e6ad70cb2b654ea1be830ca17224d916107dc9190612c40565b60405180910390a4505050565b600f5463ffffffff1681565b6000600c547f32dd026408194a0d7e54cc66a2ab6c856efc55cfcd4dd258fde5b1a55222baa683600001518460200151856040015160405160200161083d9493929190612c57565b60405160208183030381529060405280519060200120604051602001610864929190612b8a565b6040516020818303038152906040528051906020012090505b919050565b600f54640100000000900463ffffffff1681565b600e5481565b600d546001600160a01b031681565b600f54600160401b900463ffffffff1681565b6108c6611968565b6108d08282611a3c565b5050565b6108dc611b04565b6108e581611b63565b50565b6108f06112bc565b806108fa81610d1b565b6109165760405162461bcd60e51b81526004016103c190612fd0565b60046000828152601060205260409020600490810154610100900460ff169081111561093e57fe5b1461095b5760405162461bcd60e51b81526004016103c19061309d565b600082815260106020526040902061098f610974611449565b600183015460028401546001600160a01b0390911690611479565b6040805160c08101825282546001600160a01b039081168252600184015416602082015260028084015492820192909252600383015460608201526004830154610a29928491608084019160ff909116908111156109e957fe5b60028111156109f457fe5b81526020016004820160019054906101000a900460ff166004811115610a1657fe5b6004811115610a2157fe5b905250611c0b565b5060048101805461ff0019166103001790556001810154815460028301546040516001600160a01b03938416939092169186917ff0912efb86ea1d65a17d64d48393cdb1ca0ea5220dd2bbe438621199d30955b7916107dc9190612c40565b610a90611968565b6108e581611c4e565b82806001600160a01b031663f851a4406040518163ffffffff1660e01b8152600401602060405180830381600087803b158015610ad557600080fd5b505af1158015610ae9573d6000803e3d6000fd5b505050506040513d6020811015610aff57600080fd5b50516001600160a01b03163314610b5d576040805162461bcd60e51b815260206004820152601e60248201527f43616c6c6572206d757374206265207468652070726f78792061646d696e0000604482015290519081900360640190fd5b60405163623faf6160e01b8152602060048201908152602482018490526001600160a01b0386169163623faf619186918691908190604401848480828437600081840152601f19601f8201169050808301925050509350505050600060405180830381600087803b158015610bd157600080fd5b505af1158015610be5573d6000803e3d6000fd5b5050505050505050565b80806001600160a01b031663f851a4406040518163ffffffff1660e01b8152600401602060405180830381600087803b158015610c2b57600080fd5b505af1158015610c3f573d6000803e3d6000fd5b505050506040513d6020811015610c5557600080fd5b50516001600160a01b03163314610cb3576040805162461bcd60e51b815260206004820152601e60248201527f43616c6c6572206d757374206265207468652070726f78792061646d696e0000604482015290519081900360640190fd5b816001600160a01b03166359fc20bb6040518163ffffffff1660e01b8152600401600060405180830381600087803b158015610cee57600080fd5b505af1158015610d02573d6000803e3d6000fd5b505050505050565b610d12611968565b6108e581611cb3565b6000806000838152601060205260409020600490810154610100900460ff1690811115610d4457fe5b141592915050565b6000610d57826115e1565b610d62338385611d10565b90505b92915050565b60008060003390506000610db488888080601f01602080910402602001604051908101604052809392919081815260200183838082843760009201919091525061161592505050565b90506000610df787878080601f01602080910402602001604051908101604052809392919081815260200183838082843760009201919091525061161592505050565b9050610e038282610ff4565b610e1f5760405162461bcd60e51b81526004016103c190612e38565b6000610e64846000858d8d8080601f0160208091040260200160405190810160405280939291908181526020018383808284376000920191909152506116c092505050565b90506000610eab856000858c8c8080601f0160208091040260200160405190810160405280939291908181526020018383808284376000920191909152506116c092505050565b60008381526010602052604080822060039081018490558383528183200185905551919250829184917ffec135a4cf8e5c6e13dea23be058bf03a8bf8f1f6fb0a021b0a5aeddfba8140791a3909a909950975050505050505050565b600080610f1383611ffb565b90506000610f1f612066565b6001600160a01b0316630e022923836040518263ffffffff1660e01b8152600401610f4a9190612ba5565b6101206040518083038186803b158015610f6357600080fd5b505afa158015610f77573d6000803e3d6000fd5b505050506040513d601f19601f82011682018060405250810190610f9b919061298a565b80519091506001600160a01b0316610fc55760405162461bcd60e51b81526004016103c1906131c5565b8360400151816020015114610fec5760405162461bcd60e51b81526004016103c190612cda565b519392505050565b8051825160009114801561100f575081604001518360400151145b8015610d62575050602090810151910151141590565b61104e7f0000000000000000000000000000000000000000000000000000000000000000612091565b6110777f0000000000000000000000000000000000000000000000000000000000000000612091565b6110a07f0000000000000000000000000000000000000000000000000000000000000000612091565b6110c97f0000000000000000000000000000000000000000000000000000000000000000612091565b6110f27f0000000000000000000000000000000000000000000000000000000000000000612091565b61111b7f0000000000000000000000000000000000000000000000000000000000000000612091565b6111447f0000000000000000000000000000000000000000000000000000000000000000612091565b565b61114e611968565b6108e581612192565b6000546001600160a01b031681565b61116e6121d3565b6001600160a01b0316336001600160a01b0316146111c9576040805162461bcd60e51b815260206004820152601360248201527227b7363c9034b6b83632b6b2b73a30ba34b7b760691b604482015290519081900360640190fd5b6111d2866108dc565b6111db85611cb3565b6111e484612192565b6111ed83611c4e565b6111f78282611a3c565b7fd87cd6ef79d4e2b95e15ce8abf732db51ec771f1ca2edccf22a46c729ac564727f171a7fa058648750a8c5aae430f30db8d0100efc3a5e1b2e8054b1c1ce28b6b47f044852b2a670ade5407e78fb2863c51de9fcb96542a07186fe3aeda6bb8a116d6112626121f8565b604051611299949392919030907fa070ffb1cd7409649bf77822cce74495468e06dbfaef09556838bf188679b9c290602001612c72565b60408051601f198184030181529190528051602090910120600c55505050505050565b600d546001600160a01b031633146111445760405162461bcd60e51b81526004016103c190613000565b60008060006112f3612066565b90506000816001600160a01b0316631787e69f886040518263ffffffff1660e01b81526004016113239190612ba5565b60206040518083038186803b15801561133b57600080fd5b505afa15801561134f573d6000803e3d6000fd5b505050506040513d601f19601f820116820180604052508101906113739190612ab4565b9050611395620f424061138f83611389896121fc565b90612253565b906122ac565b9350600084116113b75760405162461bcd60e51b81526004016103c190612da6565b600f546113d890620f42409061138f9063ffffffff90811690889061225316565b6040516373b7f6f360e11b81529093506001600160a01b0383169063e76fede69061140d908a90889088908c90600401612c0a565b600060405180830381600087803b15801561142757600080fd5b505af115801561143b573d6000803e3d6000fd5b505050505050935093915050565b60006114747f0000000000000000000000000000000000000000000000000000000000000000612313565b905090565b801561153f57826001600160a01b031663a9059cbb83836040518363ffffffff1660e01b815260040180836001600160a01b0316815260200182815260200192505050602060405180830381600087803b1580156114d657600080fd5b505af11580156114ea573d6000803e3d6000fd5b505050506040513d602081101561150057600080fd5b505161153f576040805162461bcd60e51b815260206004820152600960248201526810ba3930b739b332b960b91b604482015290519081900360640190fd5b505050565b60608101516000908015801590611580575060046000828152601060205260409020600490810154610100900460ff169081111561157e57fe5b145b9392505050565b600082820183811015610d62576040805162461bcd60e51b815260206004820152601b60248201527f536166654d6174683a206164646974696f6e206f766572666c6f770000000000604482015290519081900360640190fd5b600e548110156116035760405162461bcd60e51b81526004016103c190612edb565b6108e561160e611449565b33836123af565b61161d61266a565b815160a11461163e5760405162461bcd60e51b81526004016103c19061305b565b6000806000848060200190518101906116579190612857565b925092509250600061166a86606061240e565b9050600061167987608061240e565b905060006116888860a061243d565b6040805160c081018252978852602088019690965294860193909352606085019190915260808401525060ff1660a082015292915050565b6000806116cc84610f07565b905060006116d8612066565b6001600160a01b0316631787e69f836040518263ffffffff1660e01b81526004016117039190612ba5565b60206040518083038186803b15801561171b57600080fd5b505afa15801561172f573d6000803e3d6000fd5b505050506040513d601f19601f820116820180604052508101906117539190612ab4565b116117705760405162461bcd60e51b81526004016103c1906130d4565b6000846000015185602001518660400151848a604051602001611797959493929190612b2c565b6040516020818303038152906040528051906020012090506117b881610d1b565b156117d55760405162461bcd60e51b81526004016103c190612ca3565b6040805160c0810182526001600160a01b0380851682528916602082015290810187905260006060820152608081016002815260200160049052600082815260106020908152604091829020835181546001600160a01b039182166001600160a01b031991821617835592850151600180840180549290931691909416179055918301516002808401919091556060840151600384015560808401516004840180549193909260ff1990921691849081111561188d57fe5b021790555060a08201518160040160016101000a81548160ff021916908360048111156118b657fe5b0217905550905050866001600160a01b0316826001600160a01b0316827ff192cc7cf262c5da671cc55332faf41b2417d7aaf98e022d4b58baa06eb78f618989604001518960405161190a93929190613227565b60405180910390a49695505050505050565b80156108d057816001600160a01b03166342966c68826040518263ffffffff1660e01b815260040180828152602001915050600060405180830381600087803b158015610cee57600080fd5b60008054906101000a90046001600160a01b03166001600160a01b0316634fc07d756040518163ffffffff1660e01b815260040160206040518083038186803b1580156119b457600080fd5b505afa1580156119c8573d6000803e3d6000fd5b505050506040513d60208110156119de57600080fd5b50516001600160a01b03163314611144576040805162461bcd60e51b815260206004820152601860248201527f4f6e6c7920436f6e74726f6c6c657220676f7665726e6f720000000000000000604482015290519081900360640190fd5b620f42408263ffffffff1611158015611a5e5750620f42408163ffffffff1611155b611a7a5760405162461bcd60e51b81526004016103c190612f24565b600f805463ffffffff838116600160401b026bffffffff0000000000000000199186166401000000000267ffffffff000000001990931692909217161790556040516000805160206132f683398151915290611ad590612fa1565b60405180910390a16000805160206132f6833981519152604051611af890612e09565b60405180910390a15050565b6000546001600160a01b03163314611144576040805162461bcd60e51b815260206004820152601960248201527f43616c6c6572206d75737420626520436f6e74726f6c6c657200000000000000604482015290519081900360640190fd5b6001600160a01b038116611bb7576040805162461bcd60e51b815260206004820152601660248201527510dbdb9d1c9bdb1b195c881b5d5cdd081899481cd95d60521b604482015290519081900360640190fd5b600080546001600160a01b0383166001600160a01b0319909116811790915560408051918252517f4ff638452bbf33c012645d18ae6f05515ff5f2d1dfb0cece8cbf018c60903f709181900360200190a150565b6000611c1682611544565b15611c46575060608101516000908152601060205260409020600401805461ff001916610300179055600161087d565b506000919050565b620f42408163ffffffff161115611c775760405162461bcd60e51b81526004016103c19061310b565b600f805463ffffffff191663ffffffff83161790556040516000805160206132f683398151915290611ca890612ea4565b60405180910390a150565b6001600160a01b038116611cd95760405162461bcd60e51b81526004016103c190613195565b600d80546001600160a01b0319166001600160a01b0383161790556040516000805160206132f683398151915290611ca890613037565b60008082604051602001611d249190612b0f565b604051602081830303815290604052805190602001209050611d4581610d1b565b15611d625760405162461bcd60e51b81526004016103c190612ca3565b6000611d6c612066565b90506000816001600160a01b0316630e022923866040518263ffffffff1660e01b8152600401611d9c9190612ba5565b6101206040518083038186803b158015611db557600080fd5b505afa158015611dc9573d6000803e3d6000fd5b505050506040513d601f19601f82011682018060405250810190611ded919061298a565b80519091506001600160a01b0316611e175760405162461bcd60e51b81526004016103c190612e6d565b8051604051631787e69f60e01b81526000916001600160a01b03851691631787e69f91611e4691600401612ba5565b60206040518083038186803b158015611e5e57600080fd5b505afa158015611e72573d6000803e3d6000fd5b505050506040513d601f19601f82011682018060405250810190611e969190612ab4565b11611eb35760405162461bcd60e51b81526004016103c1906130d4565b6040805160c08101825282516001600160a01b0390811682528916602082015290810187905260006060820152608081016001815260200160049052600084815260106020908152604091829020835181546001600160a01b039182166001600160a01b031991821617835592850151600180840180549290931691909416179055918301516002808401919091556060840151600384015560808401516004840180549193909260ff19909216918490811115611f6d57fe5b021790555060a08201518160040160016101000a81548160ff02191690836004811115611f9657fe5b0217905550905050866001600160a01b031681600001516001600160a01b0316847f2f2afd556ee5734d2224e6d720a0fd68056fbc9127bc0a1da3f54c0e0346e1748989604051611fe8929190613210565b60405180910390a4509095945050505050565b60408051606081018252825181526020808401519082015282820151918101919091526000908161202b826107f5565b905061066281856060015186608001518760a0015160405160200161205293929190612b67565b60405160208183030381529060405261246c565b60006114747f0000000000000000000000000000000000000000000000000000000000000000612313565b6000805460408051637bb20d2f60e11b81526004810185905290516001600160a01b039092169163f7641a5e91602480820192602092909190829003018186803b1580156120de57600080fd5b505afa1580156120f2573d6000803e3d6000fd5b505050506040513d602081101561210857600080fd5b50516000838152600160205260409020549091506001600160a01b038083169116146108d05760008281526001602090815260409182902080546001600160a01b0319166001600160a01b0385169081179091558251908152915184927fd0e7a942b1fc38c411c4f53d153ba14fd24542a6a35ebacd9b6afca1a154e20692908290030190a25050565b600081116121b25760405162461bcd60e51b81526004016103c19061315e565b600e8190556040516000805160206132f683398151915290611ca890612f79565b7f360894a13ba1a3210667c828492db98dca3e2076cc3735a920a3ca505d382bbc5490565b4690565b6000600282600281111561220c57fe5b14156122295750600f54640100000000900463ffffffff1661087d565b600182600281111561223757fe5b1415611c465750600f54600160401b900463ffffffff1661087d565b60008261226257506000610d65565b8282028284828161226f57fe5b0414610d625760405162461bcd60e51b81526004018080602001828103825260218152602001806133386021913960400191505060405180910390fd5b6000808211612302576040805162461bcd60e51b815260206004820152601a60248201527f536166654d6174683a206469766973696f6e206279207a65726f000000000000604482015290519081900360640190fd5b81838161230b57fe5b049392505050565b6000818152600160205260408120546001600160a01b031680610d655760005460408051637bb20d2f60e11b81526004810186905290516001600160a01b039092169163f7641a5e91602480820192602092909190829003018186803b15801561237c57600080fd5b505afa158015612390573d6000803e3d6000fd5b505050506040513d60208110156123a657600080fd5b50519392505050565b801561153f57604080516323b872dd60e01b81526001600160a01b038481166004830152306024830152604482018490529151918516916323b872dd916064808201926020929091908290030181600087803b1580156114d657600080fd5b600060208201835110156124345760405162461bcd60e51b81526004016103c190612ddb565b50016020015190565b600060018201835110156124635760405162461bcd60e51b81526004016103c190612ddb565b50016001015190565b600081516041146124c4576040805162461bcd60e51b815260206004820152601f60248201527f45434453413a20696e76616c6964207369676e6174757265206c656e67746800604482015290519081900360640190fd5b60208201516040830151606084015160001a6124e2868285856124ec565b9695505050505050565b60007f7fffffffffffffffffffffffffffffff5d576e7357a4501ddfe92f46681b20a082111561254d5760405162461bcd60e51b81526004018080602001828103825260228152602001806132d46022913960400191505060405180910390fd5b8360ff16601b148061256257508360ff16601c145b61259d5760405162461bcd60e51b81526004018080602001828103825260228152602001806133166022913960400191505060405180910390fd5b600060018686868660405160008152602001604052604051808581526020018460ff1681526020018381526020018281526020019450505050506020604051602081039080840390855afa1580156125f9573d6000803e3d6000fd5b5050604051601f1901519150506001600160a01b038116612661576040805162461bcd60e51b815260206004820152601860248201527f45434453413a20696e76616c6964207369676e61747572650000000000000000604482015290519081900360640190fd5b95945050505050565b6040805160c081018252600080825260208201819052918101829052606081018290526080810182905260a081019190915290565b805161087d816132be565b60008083601f8401126126bb578182fd5b50813567ffffffffffffffff8111156126d2578182fd5b6020830191508360208285010111156126ea57600080fd5b9250929050565b600060c08284031215612702578081fd5b60405160c0810181811067ffffffffffffffff8211171561271f57fe5b8060405250809150823581526020830135602082015260408301356040820152606083013560608201526080830135608082015260a083013560ff8116811461276757600080fd5b60a0919091015292915050565b803563ffffffff8116811461087d57600080fd5b600060208284031215612799578081fd5b8135610d62816132be565b60008060008060008060c087890312156127bc578182fd5b86356127c7816132be565b955060208701356127d7816132be565b9450604087013593506127ec60608801612774565b92506127fa60808801612774565b915061280860a08801612774565b90509295509295509295565b60008060408385031215612826578182fd5b8235612831816132be565b946020939093013593505050565b600060208284031215612850578081fd5b5035919050565b60008060006060848603121561286b578283fd5b8351925060208401519150604084015190509250925092565b60008060008060408587031215612899578384fd5b843567ffffffffffffffff808211156128b0578586fd5b6128bc888389016126aa565b909650945060208701359150808211156128d4578384fd5b506128e1878288016126aa565b95989497509550505050565b600080600060408486031215612901578283fd5b833567ffffffffffffffff811115612917578384fd5b612923868287016126aa565b909790965060209590950135949350505050565b60008060006040848603121561294b578081fd5b8335612956816132be565b9250602084013567ffffffffffffffff811115612971578182fd5b61297d868287016126aa565b9497909650939450505050565b600061012080838503121561299d578182fd5b6129a68161329a565b90506129b18361269f565b81526020830151602082015260408301516040820152606083015160608201526080830151608082015260a083015160a082015260c083015160c082015260e083015160e08201526101008084015181830152508091505092915050565b600060c08284031215612a20578081fd5b610d6283836126f1565b6000806101808385031215612a3d578182fd5b612a4784846126f1565b9150612a568460c085016126f1565b90509250929050565b600060608284031215612a70578081fd5b6040516060810181811067ffffffffffffffff82111715612a8d57fe5b80604052508235815260208301356020820152604083013560408201528091505092915050565b600060208284031215612ac5578081fd5b5051919050565b600060208284031215612add578081fd5b610d6282612774565b60008060408385031215612af8578182fd5b612b0183612774565b9150612a5660208401612774565b60609190911b6bffffffffffffffffffffffff1916815260140190565b948552602085019390935260408401919091526bffffffffffffffffffffffff19606091821b81168285015291901b16607482015260880190565b928352602083019190915260f81b6001600160f81b031916604082015260410190565b61190160f01b81526002810192909252602282015260420190565b6001600160a01b0391909116815260200190565b6001600160a01b03878116825286166020820152604081018590526060810184905260c0810160038410612be957fe5b83608083015260058310612bf957fe5b8260a0830152979650505050505050565b6001600160a01b03948516815260208101939093526040830191909152909116606082015260800190565b901515815260200190565b90815260200190565b918252602082015260400190565b93845260208401929092526040830152606082015260800190565b9586526020860194909452604085019290925260608401526001600160a01b0316608083015260a082015260c00190565b60208082526017908201527f4469737075746520616c72656164792063726561746564000000000000000000604082015260600190565b6020808252603a908201527f416c6c6f636174696f6e20616e64206174746573746174696f6e20737562677260408201527f6170684465706c6f796d656e744944206d757374206d61746368000000000000606082015260800190565b60208082526049908201527f4469737075746520666f7220636f6e666c696374696e6720617474657374617460408201527f696f6e2c206d75737420616363657074207468652072656c61746564204944206060820152681d1bc81c995a9958dd60ba1b608082015260a00190565b6020808252818101527f4469737075746520686173207a65726f20746f6b656e7320746f20736c617368604082015260600190565b60208082526014908201527342797465733a206f7574206f6620626f756e647360601b604082015260600190565b602080825260159082015274696478536c617368696e6750657263656e7461676560581b604082015260600190565b6020808252818101527f4174746573746174696f6e73206d75737420626520696e20636f6e666c696374604082015260600190565b6020808252601d908201527f4469737075746520616c6c6f636174696f6e206d757374206578697374000000604082015260600190565b60208082526019908201527f6669736865726d616e52657761726450657263656e7461676500000000000000604082015260600190565b60208082526029908201527f44697370757465206465706f73697420697320756e646572206d696e696d756d604082015268081c995c5d5a5c995960ba1b606082015260800190565b60208082526035908201527f536c617368696e672070657263656e74616765206d7573742062652062656c6f60408201527477206f7220657175616c20746f204d41585f50504d60581b606082015260800190565b6020808252600e908201526d1b5a5b9a5b5d5b51195c1bdcda5d60921b604082015260600190565b602080825260159082015274717279536c617368696e6750657263656e7461676560581b604082015260600190565b602080825260169082015275111a5cdc1d5d1948191bd95cc81b9bdd08195e1a5cdd60521b604082015260600190565b6020808252601c908201527f43616c6c6572206973206e6f74207468652041726269747261746f7200000000604082015260600190565b6020808252600a908201526930b93134ba3930ba37b960b11b604082015260600190565b60208082526022908201527f4174746573746174696f6e206d75737420626520313631206279746573206c6f6040820152616e6760f01b606082015260800190565b60208082526017908201527f44697370757465206d7573742062652070656e64696e67000000000000000000604082015260600190565b6020808252601c908201527f4469737075746520696e646578657220686173206e6f207374616b6500000000604082015260600190565b60208082526033908201527f5265776172642070657263656e74616765206d7573742062652062656c6f77206040820152726f7220657175616c20746f204d41585f50504d60681b606082015260800190565b6020808252601b908201527f4d696e696d756d206465706f736974206d757374206265207365740000000000604082015260600190565b602080825260169082015275105c989a5d1c985d1bdc881b5d5cdd081899481cd95d60521b604082015260600190565b6020808252602b908201527f496e64657865722063616e6e6f7420626520666f756e6420666f72207468652060408201526a30ba3a32b9ba30ba34b7b760a91b606082015260800190565b9182526001600160a01b0316602082015260400190565b600084825260208481840152606060408401528351806060850152825b8181101561326057858101830151858201608001528201613244565b818111156132715783608083870101525b50601f01601f19169290920160800195945050505050565b63ffffffff91909116815260200190565b60405181810167ffffffffffffffff811182821017156132b657fe5b604052919050565b6001600160a01b03811681146108e557600080fdfe45434453413a20696e76616c6964207369676e6174757265202773272076616c756596d5a4b4edf1cefd0900c166d64447f8da1d01d1861a6a60894b5b82a2c15c3c45434453413a20696e76616c6964207369676e6174757265202776272076616c7565536166654d6174683a206d756c7469706c69636174696f6e206f766572666c6f77a26469706673582212203ff1690171c81cb8b682f2ccbedfbf819b865e6e7e7d80be0f163cb60a98801d64736f6c63430007060033",
  "linkReferences": {},
  "deployedLinkReferences": {}
}