{
  "_format": "hh-sol-artifact-1",
  "contractName": "ServiceRegistry",
  "sourceName": "contracts/discovery/ServiceRegistry.sol",
  "abi": [
    {
      "anonymous": false,
      "inputs": [
        {
          "indexed": true,
          "internalType": "bytes32",
          "name": "nameHash",
          "type": "bytes32"
        },
        {
          "indexed": false,
          "internalType": "address",
          "name": "contractAddress",
          "type": "address"
        }
      ],
      "name": "ContractSynced",
      "type": "event"
    },
    {
      "anonymous": false,
      "inputs": [
        {
          "indexed": false,
          "internalType": "string",
          "name": "param",
          "type": "string"
        }
      ],
      "name": "ParameterUpdated",
      "type": "event"
    },
    {
      "anonymous": false,
      "inputs": [
        {
          "indexed": true,
          "internalType": "address",
          "name": "indexer",
          "type": "address"
        },
        {
          "indexed": false,
          "internalType": "string",
          "name": "url",
          "type": "string"
        },
        {
          "indexed": false,
          "internalType": "string",
          "name": "geohash",
          "type": "string"
        }
      ],
      "name": "ServiceRegistered",
      "type": "event"
    },
    {
      "anonymous": false,
      "inputs": [
        {
          "indexed": true,
          "internalType": "address",
          "name": "indexer",
          "type": "address"
        }
      ],
      "name": "ServiceUnregistered",
      "type": "event"
    },
    {
      "anonymous": false,
      "inputs": [
        {
          "indexed": false,
          "internalType": "address",
          "name": "controller",
          "type": "address"
        }
      ],
      "name": "SetController",
      "type": "event"
    },
    {
      "inputs": [
        {
          "internalType": "contract IGraphProxy",
          "name": "_proxy",
          "type": "address"
        }
      ],
      "name": "acceptProxy",
      "outputs": [],
      "stateMutability": "nonpayable",
      "type": "function"
    },
    {
      "inputs": [
        {
          "internalType": "contract IGraphProxy",
          "name": "_proxy",
          "type": "address"
        },
        {
          "internalType": "bytes",
          "name": "_data",
          "type": "bytes"
        }
      ],
      "name": "acceptProxyAndCall",
      "outputs": [],
      "stateMutability": "nonpayable",
      "type": "function"
    },
    {
      "inputs": [],
      "name": "controller",
      "outputs": [
        {
          "internalType": "contract IController",
          "name": "",
          "type": "address"
        }
      ],
      "stateMutability": "view",
      "type": "function"
    },
    {
      "inputs": [
        {
          "internalType": "address",
          "name": "_controller",
          "type": "address"
        }
      ],
      "name": "initialize",
      "outputs": [],
      "stateMutability": "nonpayable",
      "type": "function"
    },
    {
      "inputs": [
        {
          "internalType": "address",
          "name": "_indexer",
          "type": "address"
        }
      ],
      "name": "isRegistered",
      "outputs": [
        {
          "internalType": "bool",
          "name": "",
          "type": "bool"
        }
      ],
      "stateMutability": "view",
      "type": "function"
    },
    {
      "inputs": [
        {
          "internalType": "string",
          "name": "_url",
          "type": "string"
        },
        {
          "internalType": "string",
          "name": "_geohash",
          "type": "string"
        }
      ],
      "name": "register",
      "outputs": [],
      "stateMutability": "nonpayable",
      "type": "function"
    },
    {
      "inputs": [
        {
          "internalType": "address",
          "name": "_indexer",
          "type": "address"
        },
        {
          "internalType": "string",
          "name": "_url",
          "type": "string"
        },
        {
          "internalType": "string",
          "name": "_geohash",
          "type": "string"
        }
      ],
      "name": "registerFor",
      "outputs": [],
      "stateMutability": "nonpayable",
      "type": "function"
    },
    {
      "inputs": [
        {
          "internalType": "address",
          "name": "",
          "type": "address"
        }
      ],
      "name": "services",
      "outputs": [
        {
          "internalType": "string",
          "name": "url",
          "type": "string"
        },
        {
          "internalType": "string",
          "name": "geohash",
          "type": "string"
        }
      ],
      "stateMutability": "view",
      "type": "function"
    },
    {
      "inputs": [
        {
          "internalType": "address",
          "name": "_controller",
          "type": "address"
        }
      ],
      "name": "setController",
      "outputs": [],
      "stateMutability": "nonpayable",
      "type": "function"
    },
    {
      "inputs": [],
      "name": "syncAllContracts",
      "outputs": [],
      "stateMutability": "nonpayable",
      "type": "function"
    },
    {
      "inputs": [],
      "name": "unregister",
      "outputs": [],
      "stateMutability": "nonpayable",
      "type": "function"
    },
    {
      "inputs": [
        {
          "internalType": "address",
          "name": "_indexer",
          "type": "address"
        }
      ],
      "name": "unregisterFor",
      "outputs": [],
      "stateMutability": "nonpayable",
      "type": "function"
    }
  ],
  "bytecode": "0x6101606040527fe6876326c1291dfcbbd3864a6816d698cd591defc7aa2153d7f9c4c04016c89f6080527fc713c3df6d14cdf946460395d09af88993ee2b948b1a808161494e32c5f6706360a0527f966f1e8d8d8014e05f6ec4a57138da9be1f7c5a7f802928a18072f7c5318076160c0527f1df41cd916959d1163dc8f0671a666ea8a3e434c13e40faef527133b5d16703460e0527f45fc200c7e4544e457d3c5709bfe0d520442c30bbcbdaede89e8d4a4bbc19247610100527fd362cac9cb75c10d67bcc0b7eeb0b1ef48bb5420b556c092d4fd7f758816fcf0610120527f39605a6c26a173774ca666c67ef70cf491880e5d3d6d0ca66ec0a31034f15ea36101405234801561011057600080fd5b5060805160a05160c05160e0516101005161012051610140516111b36101696000398061073a5250806107115250806106e85250806106bf5280610c6152508061069652508061066d52508061064452506111b36000f3fe608060405234801561001057600080fd5b50600436106100b45760003560e01c8063c3c5a54711610071578063c3c5a54714610144578063c4d66de814610164578063cc02d54e14610177578063d6866ea51461018a578063e79a198f14610192578063f77c47911461019a576100b4565b80633ffbd47f146100b95780634d2e54a8146100ce5780636d966d01146100e157806392eefe9b1461010b5780639ce7abe51461011e578063a2594d8214610131575b600080fd5b6100cc6100c7366004610f64565b6101af565b005b6100cc6100dc366004610e4e565b6101c2565b6100f46100ef366004610e4e565b6101ce565b6040516101029291906110ad565b60405180910390f35b6100cc610119366004610e4e565b61030d565b6100cc61012c366004610f11565b61031e565b6100cc61013f366004610e4e565b610474565b610157610152366004610e4e565b61058f565b604051610102919061105c565b6100cc610172366004610e4e565b6105bf565b6100cc610185366004610e71565b61062b565b6100cc61063f565b6100cc610760565b6101a2610769565b6040516101029190611067565b6101bc3385858585610778565b50505050565b6101cb816108d3565b50565b600c6020908152600091825260409182902080548351601f600260001961010060018616150201909316929092049182018490048402810184019094528084529092918391908301828280156102655780601f1061023a57610100808354040283529160200191610265565b820191906000526020600020905b81548152906001019060200180831161024857829003601f168201915b505050505090806001018054600181600116156101000203166002900480601f0160208091040260200160405190810160405280929190818152602001828054600181600116156101000203166002900480156103035780601f106102d857610100808354040283529160200191610303565b820191906000526020600020905b8154815290600101906020018083116102e657829003601f168201915b5050505050905082565b610315610987565b6101cb816109e6565b82806001600160a01b031663f851a4406040518163ffffffff1660e01b8152600401602060405180830381600087803b15801561035a57600080fd5b505af115801561036e573d6000803e3d6000fd5b505050506040513d602081101561038457600080fd5b50516001600160a01b031633146103e2576040805162461bcd60e51b815260206004820152601e60248201527f43616c6c6572206d757374206265207468652070726f78792061646d696e0000604482015290519081900360640190fd5b60405163623faf6160e01b8152602060048201908152602482018490526001600160a01b0386169163623faf619186918691908190604401848480828437600081840152601f19601f8201169050808301925050509350505050600060405180830381600087803b15801561045657600080fd5b505af115801561046a573d6000803e3d6000fd5b5050505050505050565b80806001600160a01b031663f851a4406040518163ffffffff1660e01b8152600401602060405180830381600087803b1580156104b057600080fd5b505af11580156104c4573d6000803e3d6000fd5b505050506040513d60208110156104da57600080fd5b50516001600160a01b03163314610538576040805162461bcd60e51b815260206004820152601e60248201527f43616c6c6572206d757374206265207468652070726f78792061646d696e0000604482015290519081900360640190fd5b816001600160a01b03166359fc20bb6040518163ffffffff1660e01b8152600401600060405180830381600087803b15801561057357600080fd5b505af1158015610587573d6000803e3d6000fd5b505050505050565b6001600160a01b03166000908152600c602052604090205460026001821615610100026000190190911604151590565b6105c7610a8e565b6001600160a01b0316336001600160a01b031614610622576040805162461bcd60e51b815260206004820152601360248201527227b7363c9034b6b83632b6b2b73a30ba34b7b760691b604482015290519081900360640190fd5b6101cb81610315565b6106388585858585610778565b5050505050565b6106687f0000000000000000000000000000000000000000000000000000000000000000610ab3565b6106917f0000000000000000000000000000000000000000000000000000000000000000610ab3565b6106ba7f0000000000000000000000000000000000000000000000000000000000000000610ab3565b6106e37f0000000000000000000000000000000000000000000000000000000000000000610ab3565b61070c7f0000000000000000000000000000000000000000000000000000000000000000610ab3565b6107357f0000000000000000000000000000000000000000000000000000000000000000610ab3565b61075e7f0000000000000000000000000000000000000000000000000000000000000000610ab3565b565b61075e336108d3565b6000546001600160a01b031681565b61078185610bb5565b6107a65760405162461bcd60e51b815260040161079d90611149565b60405180910390fd5b826107c35760405162461bcd60e51b815260040161079d906110db565b6040805160606020601f87018190040282018101835291810185815290918291908790879081908501838280828437600092019190915250505090825250604080516020601f86018190048102820181019092528481529181019190859085908190840183828082843760009201829052509390945250506001600160a01b0388168152600c6020908152604090912083518051919350610868928492910190610d26565b5060208281015180516108819260018501920190610d26565b50905050846001600160a01b03167fd0306c1da0ed1d7b7d56ac9ef91ed1f717e3d2d63a55ebe8dc2891056687f300858585856040516108c4949392919061107b565b60405180910390a25050505050565b6108dc81610bb5565b6108f85760405162461bcd60e51b815260040161079d90611149565b6109018161058f565b61091d5760405162461bcd60e51b815260040161079d90611112565b6001600160a01b0381166000908152600c60205260408120906109408282610db2565b61094e600183016000610db2565b50506040516001600160a01b038216907f63c24bceb981b7dda3e62a0bfafcfbb8f71b65e884dcd2410d04d57490a4ee4690600090a250565b6000546001600160a01b0316331461075e576040805162461bcd60e51b815260206004820152601960248201527f43616c6c6572206d75737420626520436f6e74726f6c6c657200000000000000604482015290519081900360640190fd5b6001600160a01b038116610a3a576040805162461bcd60e51b815260206004820152601660248201527510dbdb9d1c9bdb1b195c881b5d5cdd081899481cd95d60521b604482015290519081900360640190fd5b600080546001600160a01b0383166001600160a01b0319909116811790915560408051918252517f4ff638452bbf33c012645d18ae6f05515ff5f2d1dfb0cece8cbf018c60903f709181900360200190a150565b7f360894a13ba1a3210667c828492db98dca3e2076cc3735a920a3ca505d382bbc5490565b6000805460408051637bb20d2f60e11b81526004810185905290516001600160a01b039092169163f7641a5e91602480820192602092909190829003018186803b158015610b0057600080fd5b505afa158015610b14573d6000803e3d6000fd5b505050506040513d6020811015610b2a57600080fd5b50516000838152600160205260409020549091506001600160a01b03808316911614610bb15760008281526001602090815260409182902080546001600160a01b0319166001600160a01b0385169081179091558251908152915184927fd0e7a942b1fc38c411c4f53d153ba14fd24542a6a35ebacd9b6afca1a154e20692908290030190a25b5050565b6000336001600160a01b0383161480610c545750610bd1610c5a565b6001600160a01b031663b6363cf233846040518363ffffffff1660e01b8152600401610bfe929190611042565b60206040518083038186803b158015610c1657600080fd5b505afa158015610c2a573d6000803e3d6000fd5b505050506040513d601f19601f82011682018060405250810190610c4e9190610ef1565b15156001145b92915050565b6000610c857f0000000000000000000000000000000000000000000000000000000000000000610c8a565b905090565b6000818152600160205260408120546001600160a01b031680610c545760005460408051637bb20d2f60e11b81526004810186905290516001600160a01b039092169163f7641a5e91602480820192602092909190829003018186803b158015610cf357600080fd5b505afa158015610d07573d6000803e3d6000fd5b505050506040513d6020811015610d1d57600080fd5b50519392505050565b828054600181600116156101000203166002900490600052602060002090601f016020900481019282610d5c5760008555610da2565b82601f10610d7557805160ff1916838001178555610da2565b82800160010185558215610da2579182015b82811115610da2578251825591602001919060010190610d87565b50610dae929150610df2565b5090565b50805460018160011615610100020316600290046000825580601f10610dd857506101cb565b601f0160209004906000526020600020908101906101cb91905b5b80821115610dae5760008155600101610df3565b60008083601f840112610e18578182fd5b50813567ffffffffffffffff811115610e2f578182fd5b602083019150836020828501011115610e4757600080fd5b9250929050565b600060208284031215610e5f578081fd5b8135610e6a81611168565b9392505050565b600080600080600060608688031215610e88578081fd5b8535610e9381611168565b9450602086013567ffffffffffffffff80821115610eaf578283fd5b610ebb89838a01610e07565b90965094506040880135915080821115610ed3578283fd5b50610ee088828901610e07565b969995985093965092949392505050565b600060208284031215610f02578081fd5b81518015158114610e6a578182fd5b600080600060408486031215610f25578283fd5b8335610f3081611168565b9250602084013567ffffffffffffffff811115610f4b578283fd5b610f5786828701610e07565b9497909650939450505050565b60008060008060408587031215610f79578384fd5b843567ffffffffffffffff80821115610f90578586fd5b610f9c88838901610e07565b90965094506020870135915080821115610fb4578384fd5b50610fc187828801610e07565b95989497509550505050565b60008284528282602086013780602084860101526020601f19601f85011685010190509392505050565b60008151808452815b8181101561101c57602081850181015186830182015201611000565b8181111561102d5782602083870101525b50601f01601f19169290920160200192915050565b6001600160a01b0392831681529116602082015260400190565b901515815260200190565b6001600160a01b0391909116815260200190565b60006040825261108f604083018688610fcd565b82810360208401526110a2818587610fcd565b979650505050505050565b6000604082526110c06040830185610ff7565b82810360208401526110d28185610ff7565b95945050505050565b6020808252601a908201527f53657276696365206d757374207370656369667920612055524c000000000000604082015260600190565b6020808252601c908201527f5365727669636520616c726561647920756e7265676973746572656400000000604082015260600190565b602080825260059082015264042c2eae8d60db1b604082015260600190565b6001600160a01b03811681146101cb57600080fdfea26469706673582212207c50a9195a24e3b984f2df00f6e96c1aef436ab1ac049b55a9faa5bc134b3a9c64736f6c63430007060033",
  "linkReferences": {},
  "deployedLinkReferences": {}
}