{
  "_format": "hh-sol-artifact-1",
  "contractName": "SubgraphService",
  "sourceName": "contracts/SubgraphService.sol",
  "abi": [
    {
      "inputs": [
        {
          "internalType": "address",
          "name": "graphController",
          "type": "address"
        },
        {
          "internalType": "address",
          "name": "disputeManager",
          "type": "address"
        },
        {
          "internalType": "address",
          "name": "graphTallyCollector",
          "type": "address"
        },
        {
          "internalType": "address",
          "name": "curation",
          "type": "address"
        }
      ],
      "stateMutability": "nonpayable",
      "type": "constructor"
    },
    {
      "inputs": [
        {
          "internalType": "address",
          "name": "target",
          "type": "address"
        }
      ],
      "name": "AddressEmptyCode",
      "type": "error"
    },
    {
      "inputs": [
        {
          "internalType": "address",
          "name": "allocationId",
          "type": "address"
        }
      ],
      "name": "AllocationAlreadyExists",
      "type": "error"
    },
    {
      "inputs": [
        {
          "internalType": "address",
          "name": "allocationId",
          "type": "address"
        },
        {
          "internalType": "uint256",
          "name": "closedAt",
          "type": "uint256"
        }
      ],
      "name": "AllocationClosed",
      "type": "error"
    },
    {
      "inputs": [
        {
          "internalType": "address",
          "name": "allocationId",
          "type": "address"
        }
      ],
      "name": "AllocationDoesNotExist",
      "type": "error"
    },
    {
      "inputs": [
        {
          "internalType": "address",
          "name": "allocationId",
          "type": "address"
        }
      ],
      "name": "AllocationManagerAllocationClosed",
      "type": "error"
    },
    {
      "inputs": [
        {
          "internalType": "address",
          "name": "allocationId",
          "type": "address"
        },
        {
          "internalType": "uint256",
          "name": "tokens",
          "type": "uint256"
        }
      ],
      "name": "AllocationManagerAllocationSameSize",
      "type": "error"
    },
    {
      "inputs": [
        {
          "internalType": "address",
          "name": "signer",
          "type": "address"
        },
        {
          "internalType": "address",
          "name": "allocationId",
          "type": "address"
        }
      ],
      "name": "AllocationManagerInvalidAllocationProof",
      "type": "error"
    },
    {
      "inputs": [],
      "name": "AllocationManagerInvalidZeroAllocationId",
      "type": "error"
    },
    {
      "inputs": [
        {
          "internalType": "bytes32",
          "name": "claimId",
          "type": "bytes32"
        }
      ],
      "name": "DataServiceFeesClaimNotFound",
      "type": "error"
    },
    {
      "inputs": [],
      "name": "DataServiceFeesZeroTokens",
      "type": "error"
    },
    {
      "inputs": [
        {
          "internalType": "address",
          "name": "account",
          "type": "address"
        }
      ],
      "name": "DataServicePausableNotPauseGuardian",
      "type": "error"
    },
    {
      "inputs": [
        {
          "internalType": "address",
          "name": "account",
          "type": "address"
        },
        {
          "internalType": "bool",
          "name": "allowed",
          "type": "bool"
        }
      ],
      "name": "DataServicePausablePauseGuardianNoChange",
      "type": "error"
    },
    {
      "inputs": [
        {
          "internalType": "address",
          "name": "caller",
          "type": "address"
        },
        {
          "internalType": "address",
          "name": "disputeManager",
          "type": "address"
        }
      ],
      "name": "DirectoryNotDisputeManager",
      "type": "error"
    },
    {
      "inputs": [],
      "name": "ECDSAInvalidSignature",
      "type": "error"
    },
    {
      "inputs": [
        {
          "internalType": "uint256",
          "name": "length",
          "type": "uint256"
        }
      ],
      "name": "ECDSAInvalidSignatureLength",
      "type": "error"
    },
    {
      "inputs": [
        {
          "internalType": "bytes32",
          "name": "s",
          "type": "bytes32"
        }
      ],
      "name": "ECDSAInvalidSignatureS",
      "type": "error"
    },
    {
      "inputs": [],
      "name": "EnforcedPause",
      "type": "error"
    },
    {
      "inputs": [],
      "name": "ExpectedPause",
      "type": "error"
    },
    {
      "inputs": [],
      "name": "FailedCall",
      "type": "error"
    },
    {
      "inputs": [
        {
          "internalType": "bytes",
          "name": "contractName",
          "type": "bytes"
        }
      ],
      "name": "GraphDirectoryInvalidZeroAddress",
      "type": "error"
    },
    {
      "inputs": [],
      "name": "InvalidInitialization",
      "type": "error"
    },
    {
      "inputs": [
        {
          "internalType": "address",
          "name": "allocationId",
          "type": "address"
        }
      ],
      "name": "LegacyAllocationAlreadyExists",
      "type": "error"
    },
    {
      "inputs": [],
      "name": "LinkedListEmptyList",
      "type": "error"
    },
    {
      "inputs": [],
      "name": "LinkedListInvalidIterations",
      "type": "error"
    },
    {
      "inputs": [],
      "name": "LinkedListInvalidZeroId",
      "type": "error"
    },
    {
      "inputs": [],
      "name": "LinkedListMaxElementsExceeded",
      "type": "error"
    },
    {
      "inputs": [],
      "name": "NotInitializing",
      "type": "error"
    },
    {
      "inputs": [
        {
          "internalType": "address",
          "name": "owner",
          "type": "address"
        }
      ],
      "name": "OwnableInvalidOwner",
      "type": "error"
    },
    {
      "inputs": [
        {
          "internalType": "address",
          "name": "account",
          "type": "address"
        }
      ],
      "name": "OwnableUnauthorizedAccount",
      "type": "error"
    },
    {
      "inputs": [
        {
          "internalType": "uint256",
          "name": "a",
          "type": "uint256"
        },
        {
          "internalType": "uint256",
          "name": "b",
          "type": "uint256"
        }
      ],
      "name": "PPMMathInvalidMulPPM",
      "type": "error"
    },
    {
      "inputs": [
        {
          "internalType": "uint256",
          "name": "min",
          "type": "uint256"
        },
        {
          "internalType": "uint256",
          "name": "max",
          "type": "uint256"
        }
      ],
      "name": "ProvisionManagerInvalidRange",
      "type": "error"
    },
    {
      "inputs": [
        {
          "internalType": "bytes",
          "name": "message",
          "type": "bytes"
        },
        {
          "internalType": "uint256",
          "name": "value",
          "type": "uint256"
        },
        {
          "internalType": "uint256",
          "name": "min",
          "type": "uint256"
        },
        {
          "internalType": "uint256",
          "name": "max",
          "type": "uint256"
        }
      ],
      "name": "ProvisionManagerInvalidValue",
      "type": "error"
    },
    {
      "inputs": [
        {
          "internalType": "address",
          "name": "serviceProvider",
          "type": "address"
        },
        {
          "internalType": "address",
          "name": "caller",
          "type": "address"
        }
      ],
      "name": "ProvisionManagerNotAuthorized",
      "type": "error"
    },
    {
      "inputs": [
        {
          "internalType": "address",
          "name": "serviceProvider",
          "type": "address"
        }
      ],
      "name": "ProvisionManagerProvisionNotFound",
      "type": "error"
    },
    {
      "inputs": [
        {
          "internalType": "uint256",
          "name": "tokensAvailable",
          "type": "uint256"
        },
        {
          "internalType": "uint256",
          "name": "tokensRequired",
          "type": "uint256"
        }
      ],
      "name": "ProvisionTrackerInsufficientTokens",
      "type": "error"
    },
    {
      "inputs": [
        {
          "internalType": "address",
          "name": "allocationId",
          "type": "address"
        }
      ],
      "name": "SubgraphServiceAllocationIsAltruistic",
      "type": "error"
    },
    {
      "inputs": [
        {
          "internalType": "address",
          "name": "indexer",
          "type": "address"
        },
        {
          "internalType": "address",
          "name": "allocationId",
          "type": "address"
        }
      ],
      "name": "SubgraphServiceAllocationNotAuthorized",
      "type": "error"
    },
    {
      "inputs": [
        {
          "internalType": "address",
          "name": "allocationId",
          "type": "address"
        }
      ],
      "name": "SubgraphServiceCannotForceCloseAllocation",
      "type": "error"
    },
    {
      "inputs": [],
      "name": "SubgraphServiceEmptyGeohash",
      "type": "error"
    },
    {
      "inputs": [],
      "name": "SubgraphServiceEmptyUrl",
      "type": "error"
    },
    {
      "inputs": [
        {
          "internalType": "uint256",
          "name": "balanceBefore",
          "type": "uint256"
        },
        {
          "internalType": "uint256",
          "name": "balanceAfter",
          "type": "uint256"
        }
      ],
      "name": "SubgraphServiceInconsistentCollection",
      "type": "error"
    },
    {
      "inputs": [
        {
          "internalType": "address",
          "name": "providedIndexer",
          "type": "address"
        },
        {
          "internalType": "address",
          "name": "expectedIndexer",
          "type": "address"
        }
      ],
      "name": "SubgraphServiceIndexerMismatch",
      "type": "error"
    },
    {
      "inputs": [
        {
          "internalType": "address",
          "name": "indexer",
          "type": "address"
        }
      ],
      "name": "SubgraphServiceIndexerNotRegistered",
      "type": "error"
    },
    {
      "inputs": [
        {
          "internalType": "bytes32",
          "name": "collectionId",
          "type": "bytes32"
        }
      ],
      "name": "SubgraphServiceInvalidCollectionId",
      "type": "error"
    },
    {
      "inputs": [
        {
          "internalType": "uint256",
          "name": "curationCut",
          "type": "uint256"
        }
      ],
      "name": "SubgraphServiceInvalidCurationCut",
      "type": "error"
    },
    {
      "inputs": [
        {
          "internalType": "enum IGraphPayments.PaymentTypes",
          "name": "paymentType",
          "type": "uint8"
        }
      ],
      "name": "SubgraphServiceInvalidPaymentType",
      "type": "error"
    },
    {
      "inputs": [
        {
          "internalType": "address",
          "name": "ravIndexer",
          "type": "address"
        },
        {
          "internalType": "address",
          "name": "allocationIndexer",
          "type": "address"
        }
      ],
      "name": "SubgraphServiceInvalidRAV",
      "type": "error"
    },
    {
      "inputs": [],
      "name": "SubgraphServiceInvalidZeroStakeToFeesRatio",
      "type": "error"
    },
    {
      "anonymous": false,
      "inputs": [
        {
          "indexed": true,
          "internalType": "address",
          "name": "indexer",
          "type": "address"
        },
        {
          "indexed": true,
          "internalType": "address",
          "name": "allocationId",
          "type": "address"
        },
        {
          "indexed": true,
          "internalType": "bytes32",
          "name": "subgraphDeploymentId",
          "type": "bytes32"
        },
        {
          "indexed": false,
          "internalType": "uint256",
          "name": "tokens",
          "type": "uint256"
        },
        {
          "indexed": false,
          "internalType": "bool",
          "name": "forceClosed",
          "type": "bool"
        }
      ],
      "name": "AllocationClosed",
      "type": "event"
    },
    {
      "anonymous": false,
      "inputs": [
        {
          "indexed": true,
          "internalType": "address",
          "name": "indexer",
          "type": "address"
        },
        {
          "indexed": true,
          "internalType": "address",
          "name": "allocationId",
          "type": "address"
        },
        {
          "indexed": true,
          "internalType": "bytes32",
          "name": "subgraphDeploymentId",
          "type": "bytes32"
        },
        {
          "indexed": false,
          "internalType": "uint256",
          "name": "tokens",
          "type": "uint256"
        },
        {
          "indexed": false,
          "internalType": "uint256",
          "name": "currentEpoch",
          "type": "uint256"
        }
      ],
      "name": "AllocationCreated",
      "type": "event"
    },
    {
      "anonymous": false,
      "inputs": [
        {
          "indexed": true,
          "internalType": "address",
          "name": "indexer",
          "type": "address"
        },
        {
          "indexed": true,
          "internalType": "address",
          "name": "allocationId",
          "type": "address"
        },
        {
          "indexed": true,
          "internalType": "bytes32",
          "name": "subgraphDeploymentId",
          "type": "bytes32"
        },
        {
          "indexed": false,
          "internalType": "uint256",
          "name": "newTokens",
          "type": "uint256"
        },
        {
          "indexed": false,
          "internalType": "uint256",
          "name": "oldTokens",
          "type": "uint256"
        }
      ],
      "name": "AllocationResized",
      "type": "event"
    },
    {
      "anonymous": false,
      "inputs": [
        {
          "indexed": false,
          "internalType": "uint256",
          "name": "curationCut",
          "type": "uint256"
        }
      ],
      "name": "CurationCutSet",
      "type": "event"
    },
    {
      "anonymous": false,
      "inputs": [
        {
          "indexed": false,
          "internalType": "uint32",
          "name": "ratio",
          "type": "uint32"
        }
      ],
      "name": "DelegationRatioSet",
      "type": "event"
    },
    {
      "anonymous": false,
      "inputs": [],
      "name": "EIP712DomainChanged",
      "type": "event"
    },
    {
      "anonymous": false,
      "inputs": [
        {
          "indexed": true,
          "internalType": "address",
          "name": "graphToken",
          "type": "address"
        },
        {
          "indexed": true,
          "internalType": "address",
          "name": "graphStaking",
          "type": "address"
        },
        {
          "indexed": false,
          "internalType": "address",
          "name": "graphPayments",
          "type": "address"
        },
        {
          "indexed": false,
          "internalType": "address",
          "name": "graphEscrow",
          "type": "address"
        },
        {
          "indexed": true,
          "internalType": "address",
          "name": "graphController",
          "type": "address"
        },
        {
          "indexed": false,
          "internalType": "address",
          "name": "graphEpochManager",
          "type": "address"
        },
        {
          "indexed": false,
          "internalType": "address",
          "name": "graphRewardsManager",
          "type": "address"
        },
        {
          "indexed": false,
          "internalType": "address",
          "name": "graphTokenGateway",
          "type": "address"
        },
        {
          "indexed": false,
          "internalType": "address",
          "name": "graphProxyAdmin",
          "type": "address"
        },
        {
          "indexed": false,
          "internalType": "address",
          "name": "graphCuration",
          "type": "address"
        }
      ],
      "name": "GraphDirectoryInitialized",
      "type": "event"
    },
    {
      "anonymous": false,
      "inputs": [
        {
          "indexed": true,
          "internalType": "address",
          "name": "indexer",
          "type": "address"
        },
        {
          "indexed": true,
          "internalType": "address",
          "name": "allocationId",
          "type": "address"
        },
        {
          "indexed": true,
          "internalType": "bytes32",
          "name": "subgraphDeploymentId",
          "type": "bytes32"
        },
        {
          "indexed": false,
          "internalType": "uint256",
          "name": "tokensRewards",
          "type": "uint256"
        },
        {
          "indexed": false,
          "internalType": "uint256",
          "name": "tokensIndexerRewards",
          "type": "uint256"
        },
        {
          "indexed": false,
          "internalType": "uint256",
          "name": "tokensDelegationRewards",
          "type": "uint256"
        },
        {
          "indexed": false,
          "internalType": "bytes32",
          "name": "poi",
          "type": "bytes32"
        },
        {
          "indexed": false,
          "internalType": "bytes",
          "name": "poiMetadata",
          "type": "bytes"
        },
        {
          "indexed": false,
          "internalType": "uint256",
          "name": "currentEpoch",
          "type": "uint256"
        }
      ],
      "name": "IndexingRewardsCollected",
      "type": "event"
    },
    {
      "anonymous": false,
      "inputs": [
        {
          "indexed": false,
          "internalType": "uint64",
          "name": "version",
          "type": "uint64"
        }
      ],
      "name": "Initialized",
      "type": "event"
    },
    {
      "anonymous": false,
      "inputs": [
        {
          "indexed": true,
          "internalType": "address",
          "name": "indexer",
          "type": "address"
        },
        {
          "indexed": true,
          "internalType": "address",
          "name": "allocationId",
          "type": "address"
        },
        {
          "indexed": true,
          "internalType": "bytes32",
          "name": "subgraphDeploymentId",
          "type": "bytes32"
        }
      ],
      "name": "LegacyAllocationMigrated",
      "type": "event"
    },
    {
      "anonymous": false,
      "inputs": [
        {
          "indexed": false,
          "internalType": "uint256",
          "name": "maxPOIStaleness",
          "type": "uint256"
        }
      ],
      "name": "MaxPOIStalenessSet",
      "type": "event"
    },
    {
      "anonymous": false,
      "inputs": [
        {
          "indexed": true,
          "internalType": "address",
          "name": "previousOwner",
          "type": "address"
        },
        {
          "indexed": true,
          "internalType": "address",
          "name": "newOwner",
          "type": "address"
        }
      ],
      "name": "OwnershipTransferred",
      "type": "event"
    },
    {
      "anonymous": false,
      "inputs": [
        {
          "indexed": true,
          "internalType": "address",
          "name": "account",
          "type": "address"
        },
        {
          "indexed": false,
          "internalType": "bool",
          "name": "allowed",
          "type": "bool"
        }
      ],
      "name": "PauseGuardianSet",
      "type": "event"
    },
    {
      "anonymous": false,
      "inputs": [
        {
          "indexed": false,
          "internalType": "address",
          "name": "account",
          "type": "address"
        }
      ],
      "name": "Paused",
      "type": "event"
    },
    {
      "anonymous": false,
      "inputs": [
        {
          "indexed": true,
          "internalType": "address",
          "name": "indexer",
          "type": "address"
        },
        {
          "indexed": true,
          "internalType": "address",
          "name": "paymentsDestination",
          "type": "address"
        }
      ],
      "name": "PaymentsDestinationSet",
      "type": "event"
    },
    {
      "anonymous": false,
      "inputs": [
        {
          "indexed": true,
          "internalType": "address",
          "name": "serviceProvider",
          "type": "address"
        }
      ],
      "name": "ProvisionPendingParametersAccepted",
      "type": "event"
    },
    {
      "anonymous": false,
      "inputs": [
        {
          "indexed": false,
          "internalType": "uint256",
          "name": "min",
          "type": "uint256"
        },
        {
          "indexed": false,
          "internalType": "uint256",
          "name": "max",
          "type": "uint256"
        }
      ],
      "name": "ProvisionTokensRangeSet",
      "type": "event"
    },
    {
      "anonymous": false,
      "inputs": [
        {
          "indexed": true,
          "internalType": "address",
          "name": "serviceProvider",
          "type": "address"
        },
        {
          "indexed": true,
          "internalType": "address",
          "name": "payer",
          "type": "address"
        },
        {
          "indexed": true,
          "internalType": "address",
          "name": "allocationId",
          "type": "address"
        },
        {
          "indexed": false,
          "internalType": "bytes32",
          "name": "subgraphDeploymentId",
          "type": "bytes32"
        },
        {
          "indexed": false,
          "internalType": "uint256",
          "name": "tokensCollected",
          "type": "uint256"
        },
        {
          "indexed": false,
          "internalType": "uint256",
          "name": "tokensCurators",
          "type": "uint256"
        }
      ],
      "name": "QueryFeesCollected",
      "type": "event"
    },
    {
      "anonymous": false,
      "inputs": [
        {
          "indexed": true,
          "internalType": "address",
          "name": "serviceProvider",
          "type": "address"
        },
        {
          "indexed": true,
          "internalType": "enum IGraphPayments.PaymentTypes",
          "name": "feeType",
          "type": "uint8"
        },
        {
          "indexed": false,
          "internalType": "uint256",
          "name": "tokens",
          "type": "uint256"
        }
      ],
      "name": "ServicePaymentCollected",
      "type": "event"
    },
    {
      "anonymous": false,
      "inputs": [
        {
          "indexed": true,
          "internalType": "address",
          "name": "serviceProvider",
          "type": "address"
        },
        {
          "indexed": false,
          "internalType": "bytes",
          "name": "data",
          "type": "bytes"
        }
      ],
      "name": "ServiceProviderRegistered",
      "type": "event"
    },
    {
      "anonymous": false,
      "inputs": [
        {
          "indexed": true,
          "internalType": "address",
          "name": "serviceProvider",
          "type": "address"
        },
        {
          "indexed": false,
          "internalType": "uint256",
          "name": "tokens",
          "type": "uint256"
        }
      ],
      "name": "ServiceProviderSlashed",
      "type": "event"
    },
    {
      "anonymous": false,
      "inputs": [
        {
          "indexed": true,
          "internalType": "address",
          "name": "serviceProvider",
          "type": "address"
        },
        {
          "indexed": false,
          "internalType": "bytes",
          "name": "data",
          "type": "bytes"
        }
      ],
      "name": "ServiceStarted",
      "type": "event"
    },
    {
      "anonymous": false,
      "inputs": [
        {
          "indexed": true,
          "internalType": "address",
          "name": "serviceProvider",
          "type": "address"
        },
        {
          "indexed": false,
          "internalType": "bytes",
          "name": "data",
          "type": "bytes"
        }
      ],
      "name": "ServiceStopped",
      "type": "event"
    },
    {
      "anonymous": false,
      "inputs": [
        {
          "indexed": true,
          "internalType": "address",
          "name": "serviceProvider",
          "type": "address"
        },
        {
          "indexed": true,
          "internalType": "bytes32",
          "name": "claimId",
          "type": "bytes32"
        },
        {
          "indexed": false,
          "internalType": "uint256",
          "name": "tokens",
          "type": "uint256"
        },
        {
          "indexed": false,
          "internalType": "uint256",
          "name": "unlockTimestamp",
          "type": "uint256"
        }
      ],
      "name": "StakeClaimLocked",
      "type": "event"
    },
    {
      "anonymous": false,
      "inputs": [
        {
          "indexed": true,
          "internalType": "address",
          "name": "serviceProvider",
          "type": "address"
        },
        {
          "indexed": true,
          "internalType": "bytes32",
          "name": "claimId",
          "type": "bytes32"
        },
        {
          "indexed": false,
          "internalType": "uint256",
          "name": "tokens",
          "type": "uint256"
        },
        {
          "indexed": false,
          "internalType": "uint256",
          "name": "releasableAt",
          "type": "uint256"
        }
      ],
      "name": "StakeClaimReleased",
      "type": "event"
    },
    {
      "anonymous": false,
      "inputs": [
        {
          "indexed": true,
          "internalType": "address",
          "name": "serviceProvider",
          "type": "address"
        },
        {
          "indexed": false,
          "internalType": "uint256",
          "name": "claimsCount",
          "type": "uint256"
        },
        {
          "indexed": false,
          "internalType": "uint256",
          "name": "tokensReleased",
          "type": "uint256"
        }
      ],
      "name": "StakeClaimsReleased",
      "type": "event"
    },
    {
      "anonymous": false,
      "inputs": [
        {
          "indexed": false,
          "internalType": "uint256",
          "name": "ratio",
          "type": "uint256"
        }
      ],
      "name": "StakeToFeesRatioSet",
      "type": "event"
    },
    {
      "anonymous": false,
      "inputs": [
        {
          "indexed": false,
          "internalType": "address",
          "name": "subgraphService",
          "type": "address"
        },
        {
          "indexed": false,
          "internalType": "address",
          "name": "disputeManager",
          "type": "address"
        },
        {
          "indexed": false,
          "internalType": "address",
          "name": "graphTallyCollector",
          "type": "address"
        },
        {
          "indexed": false,
          "internalType": "address",
          "name": "curation",
          "type": "address"
        }
      ],
      "name": "SubgraphServiceDirectoryInitialized",
      "type": "event"
    },
    {
      "anonymous": false,
      "inputs": [
        {
          "indexed": false,
          "internalType": "uint64",
          "name": "min",
          "type": "uint64"
        },
        {
          "indexed": false,
          "internalType": "uint64",
          "name": "max",
          "type": "uint64"
        }
      ],
      "name": "ThawingPeriodRangeSet",
      "type": "event"
    },
    {
      "anonymous": false,
      "inputs": [
        {
          "indexed": false,
          "internalType": "address",
          "name": "account",
          "type": "address"
        }
      ],
      "name": "Unpaused",
      "type": "event"
    },
    {
      "anonymous": false,
      "inputs": [
        {
          "indexed": false,
          "internalType": "uint32",
          "name": "min",
          "type": "uint32"
        },
        {
          "indexed": false,
          "internalType": "uint32",
          "name": "max",
          "type": "uint32"
        }
      ],
      "name": "VerifierCutRangeSet",
      "type": "event"
    },
    {
      "inputs": [
        {
          "internalType": "address",
          "name": "indexer",
          "type": "address"
        },
        {
          "internalType": "bytes",
          "name": "",
          "type": "bytes"
        }
      ],
      "name": "acceptProvisionPendingParameters",
      "outputs": [],
      "stateMutability": "nonpayable",
      "type": "function"
    },
    {
      "inputs": [
        {
          "internalType": "address",
          "name": "indexer",
          "type": "address"
        }
      ],
      "name": "allocationProvisionTracker",
      "outputs": [
        {
          "internalType": "uint256",
          "name": "tokens",
          "type": "uint256"
        }
      ],
      "stateMutability": "view",
      "type": "function"
    },
    {
      "inputs": [
        {
          "internalType": "bytes32",
          "name": "claimId",
          "type": "bytes32"
        }
      ],
      "name": "claims",
      "outputs": [
        {
          "internalType": "uint256",
          "name": "tokens",
          "type": "uint256"
        },
        {
          "internalType": "uint256",
          "name": "createdAt",
          "type": "uint256"
        },
        {
          "internalType": "uint256",
          "name": "releasableAt",
          "type": "uint256"
        },
        {
          "internalType": "bytes32",
          "name": "nextClaim",
          "type": "bytes32"
        }
      ],
      "stateMutability": "view",
      "type": "function"
    },
    {
      "inputs": [
        {
          "internalType": "address",
          "name": "serviceProvider",
          "type": "address"
        }
      ],
      "name": "claimsLists",
      "outputs": [
        {
          "internalType": "bytes32",
          "name": "head",
          "type": "bytes32"
        },
        {
          "internalType": "bytes32",
          "name": "tail",
          "type": "bytes32"
        },
        {
          "internalType": "uint256",
          "name": "nonce",
          "type": "uint256"
        },
        {
          "internalType": "uint256",
          "name": "count",
          "type": "uint256"
        }
      ],
      "stateMutability": "view",
      "type": "function"
    },
    {
      "inputs": [
        {
          "internalType": "address",
          "name": "allocationId",
          "type": "address"
        }
      ],
      "name": "closeStaleAllocation",
      "outputs": [],
      "stateMutability": "nonpayable",
      "type": "function"
    },
    {
      "inputs": [
        {
          "internalType": "address",
          "name": "indexer",
          "type": "address"
        },
        {
          "internalType": "enum IGraphPayments.PaymentTypes",
          "name": "paymentType",
          "type": "uint8"
        },
        {
          "internalType": "bytes",
          "name": "data",
          "type": "bytes"
        }
      ],
      "name": "collect",
      "outputs": [
        {
          "internalType": "uint256",
          "name": "",
          "type": "uint256"
        }
      ],
      "stateMutability": "nonpayable",
      "type": "function"
    },
    {
      "inputs": [],
      "name": "curationFeesCut",
      "outputs": [
        {
          "internalType": "uint256",
          "name": "",
          "type": "uint256"
        }
      ],
      "stateMutability": "view",
      "type": "function"
    },
    {
      "inputs": [],
      "name": "eip712Domain",
      "outputs": [
        {
          "internalType": "bytes1",
          "name": "fields",
          "type": "bytes1"
        },
        {
          "internalType": "string",
          "name": "name",
          "type": "string"
        },
        {
          "internalType": "string",
          "name": "version",
          "type": "string"
        },
        {
          "internalType": "uint256",
          "name": "chainId",
          "type": "uint256"
        },
        {
          "internalType": "address",
          "name": "verifyingContract",
          "type": "address"
        },
        {
          "internalType": "bytes32",
          "name": "salt",
          "type": "bytes32"
        },
        {
          "internalType": "uint256[]",
          "name": "extensions",
          "type": "uint256[]"
        }
      ],
      "stateMutability": "view",
      "type": "function"
    },
    {
      "inputs": [
        {
          "internalType": "address",
          "name": "indexer",
          "type": "address"
        },
        {
          "internalType": "address",
          "name": "allocationId",
          "type": "address"
        }
      ],
      "name": "encodeAllocationProof",
      "outputs": [
        {
          "internalType": "bytes32",
          "name": "",
          "type": "bytes32"
        }
      ],
      "stateMutability": "view",
      "type": "function"
    },
    {
      "inputs": [
        {
          "internalType": "address",
          "name": "serviceProvider",
          "type": "address"
        }
      ],
      "name": "feesProvisionTracker",
      "outputs": [
        {
          "internalType": "uint256",
          "name": "tokens",
          "type": "uint256"
        }
      ],
      "stateMutability": "view",
      "type": "function"
    },
    {
      "inputs": [
        {
          "internalType": "address",
          "name": "allocationId",
          "type": "address"
        }
      ],
      "name": "getAllocation",
      "outputs": [
        {
          "components": [
            {
              "internalType": "address",
              "name": "indexer",
              "type": "address"
            },
            {
              "internalType": "bytes32",
              "name": "subgraphDeploymentId",
              "type": "bytes32"
            },
            {
              "internalType": "uint256",
              "name": "tokens",
              "type": "uint256"
            },
            {
              "internalType": "uint256",
              "name": "createdAt",
              "type": "uint256"
            },
            {
              "internalType": "uint256",
              "name": "closedAt",
              "type": "uint256"
            },
            {
              "internalType": "uint256",
              "name": "lastPOIPresentedAt",
              "type": "uint256"
            },
            {
              "internalType": "uint256",
              "name": "accRewardsPerAllocatedToken",
              "type": "uint256"
            },
            {
              "internalType": "uint256",
              "name": "accRewardsPending",
              "type": "uint256"
            },
            {
              "internalType": "uint256",
              "name": "createdAtEpoch",
              "type": "uint256"
            }
          ],
          "internalType": "struct IAllocation.State",
          "name": "",
          "type": "tuple"
        }
      ],
      "stateMutability": "view",
      "type": "function"
    },
    {
      "inputs": [
        {
          "internalType": "address",
          "name": "allocationId",
          "type": "address"
        }
      ],
      "name": "getAllocationData",
      "outputs": [
        {
          "internalType": "bool",
          "name": "",
          "type": "bool"
        },
        {
          "internalType": "address",
          "name": "",
          "type": "address"
        },
        {
          "internalType": "bytes32",
          "name": "",
          "type": "bytes32"
        },
        {
          "internalType": "uint256",
          "name": "",
          "type": "uint256"
        },
        {
          "internalType": "uint256",
          "name": "",
          "type": "uint256"
        },
        {
          "internalType": "uint256",
          "name": "",
          "type": "uint256"
        }
      ],
      "stateMutability": "view",
      "type": "function"
    },
    {
      "inputs": [],
      "name": "getCuration",
      "outputs": [
        {
          "internalType": "address",
          "name": "",
          "type": "address"
        }
      ],
      "stateMutability": "view",
      "type": "function"
    },
    {
      "inputs": [],
      "name": "getDelegationRatio",
      "outputs": [
        {
          "internalType": "uint32",
          "name": "",
          "type": "uint32"
        }
      ],
      "stateMutability": "view",
      "type": "function"
    },
    {
      "inputs": [],
      "name": "getDisputeManager",
      "outputs": [
        {
          "internalType": "address",
          "name": "",
          "type": "address"
        }
      ],
      "stateMutability": "view",
      "type": "function"
    },
    {
      "inputs": [],
      "name": "getGraphTallyCollector",
      "outputs": [
        {
          "internalType": "address",
          "name": "",
          "type": "address"
        }
      ],
      "stateMutability": "view",
      "type": "function"
    },
    {
      "inputs": [
        {
          "internalType": "address",
          "name": "allocationId",
          "type": "address"
        }
      ],
      "name": "getLegacyAllocation",
      "outputs": [
        {
          "components": [
            {
              "internalType": "address",
              "name": "indexer",
              "type": "address"
            },
            {
              "internalType": "bytes32",
              "name": "subgraphDeploymentId",
              "type": "bytes32"
            }
          ],
          "internalType": "struct ILegacyAllocation.State",
          "name": "",
          "type": "tuple"
        }
      ],
      "stateMutability": "view",
      "type": "function"
    },
    {
      "inputs": [],
      "name": "getProvisionTokensRange",
      "outputs": [
        {
          "internalType": "uint256",
          "name": "",
          "type": "uint256"
        },
        {
          "internalType": "uint256",
          "name": "",
          "type": "uint256"
        }
      ],
      "stateMutability": "view",
      "type": "function"
    },
    {
      "inputs": [
        {
          "internalType": "bytes32",
          "name": "subgraphDeploymentId",
          "type": "bytes32"
        }
      ],
      "name": "getSubgraphAllocatedTokens",
      "outputs": [
        {
          "internalType": "uint256",
          "name": "",
          "type": "uint256"
        }
      ],
      "stateMutability": "view",
      "type": "function"
    },
    {
      "inputs": [],
      "name": "getThawingPeriodRange",
      "outputs": [
        {
          "internalType": "uint64",
          "name": "",
          "type": "uint64"
        },
        {
          "internalType": "uint64",
          "name": "",
          "type": "uint64"
        }
      ],
      "stateMutability": "view",
      "type": "function"
    },
    {
      "inputs": [],
      "name": "getVerifierCutRange",
      "outputs": [
        {
          "internalType": "uint32",
          "name": "",
          "type": "uint32"
        },
        {
          "internalType": "uint32",
          "name": "",
          "type": "uint32"
        }
      ],
      "stateMutability": "view",
      "type": "function"
    },
    {
      "inputs": [
        {
          "internalType": "address",
          "name": "indexer",
          "type": "address"
        }
      ],
      "name": "indexers",
      "outputs": [
        {
          "internalType": "string",
          "name": "url",
          "type": "string"
        },
        {
          "internalType": "string",
          "name": "geoHash",
          "type": "string"
        }
      ],
      "stateMutability": "view",
      "type": "function"
    },
    {
      "inputs": [
        {
          "internalType": "address",
          "name": "owner",
          "type": "address"
        },
        {
          "internalType": "uint256",
          "name": "minimumProvisionTokens",
          "type": "uint256"
        },
        {
          "internalType": "uint32",
          "name": "maximumDelegationRatio",
          "type": "uint32"
        },
        {
          "internalType": "uint256",
          "name": "stakeToFeesRatio_",
          "type": "uint256"
        }
      ],
      "name": "initialize",
      "outputs": [],
      "stateMutability": "nonpayable",
      "type": "function"
    },
    {
      "inputs": [
        {
          "internalType": "address",
          "name": "indexer",
          "type": "address"
        }
      ],
      "name": "isOverAllocated",
      "outputs": [
        {
          "internalType": "bool",
          "name": "",
          "type": "bool"
        }
      ],
      "stateMutability": "view",
      "type": "function"
    },
    {
      "inputs": [],
      "name": "maxPOIStaleness",
      "outputs": [
        {
          "internalType": "uint256",
          "name": "",
          "type": "uint256"
        }
      ],
      "stateMutability": "view",
      "type": "function"
    },
    {
      "inputs": [
        {
          "internalType": "address",
          "name": "indexer",
          "type": "address"
        },
        {
          "internalType": "address",
          "name": "allocationId",
          "type": "address"
        },
        {
          "internalType": "bytes32",
          "name": "subgraphDeploymentID",
          "type": "bytes32"
        }
      ],
      "name": "migrateLegacyAllocation",
      "outputs": [],
      "stateMutability": "nonpayable",
      "type": "function"
    },
    {
      "inputs": [
        {
          "internalType": "bytes[]",
          "name": "data",
          "type": "bytes[]"
        }
      ],
      "name": "multicall",
      "outputs": [
        {
          "internalType": "bytes[]",
          "name": "results",
          "type": "bytes[]"
        }
      ],
      "stateMutability": "nonpayable",
      "type": "function"
    },
    {
      "inputs": [],
      "name": "owner",
      "outputs": [
        {
          "internalType": "address",
          "name": "",
          "type": "address"
        }
      ],
      "stateMutability": "view",
      "type": "function"
    },
    {
      "inputs": [],
      "name": "pause",
      "outputs": [],
      "stateMutability": "nonpayable",
      "type": "function"
    },
    {
      "inputs": [
        {
          "internalType": "address",
          "name": "pauseGuardian",
          "type": "address"
        }
      ],
      "name": "pauseGuardians",
      "outputs": [
        {
          "internalType": "bool",
          "name": "allowed",
          "type": "bool"
        }
      ],
      "stateMutability": "view",
      "type": "function"
    },
    {
      "inputs": [],
      "name": "paused",
      "outputs": [
        {
          "internalType": "bool",
          "name": "",
          "type": "bool"
        }
      ],
      "stateMutability": "view",
      "type": "function"
    },
    {
      "inputs": [
        {
          "internalType": "address",
          "name": "indexer",
          "type": "address"
        }
      ],
      "name": "paymentsDestination",
      "outputs": [
        {
          "internalType": "address",
          "name": "destination",
          "type": "address"
        }
      ],
      "stateMutability": "view",
      "type": "function"
    },
    {
      "inputs": [
        {
          "internalType": "address",
          "name": "indexer",
          "type": "address"
        },
        {
          "internalType": "bytes",
          "name": "data",
          "type": "bytes"
        }
      ],
      "name": "register",
      "outputs": [],
      "stateMutability": "nonpayable",
      "type": "function"
    },
    {
      "inputs": [
        {
          "internalType": "uint256",
          "name": "numClaimsToRelease",
          "type": "uint256"
        }
      ],
      "name": "releaseStake",
      "outputs": [],
      "stateMutability": "nonpayable",
      "type": "function"
    },
    {
      "inputs": [],
      "name": "renounceOwnership",
      "outputs": [],
      "stateMutability": "nonpayable",
      "type": "function"
    },
    {
      "inputs": [
        {
          "internalType": "address",
          "name": "indexer",
          "type": "address"
        },
        {
          "internalType": "address",
          "name": "allocationId",
          "type": "address"
        },
        {
          "internalType": "uint256",
          "name": "tokens",
          "type": "uint256"
        }
      ],
      "name": "resizeAllocation",
      "outputs": [],
      "stateMutability": "nonpayable",
      "type": "function"
    },
    {
      "inputs": [
        {
          "internalType": "uint256",
          "name": "curationCut",
          "type": "uint256"
        }
      ],
      "name": "setCurationCut",
      "outputs": [],
      "stateMutability": "nonpayable",
      "type": "function"
    },
    {
      "inputs": [
        {
          "internalType": "uint32",
          "name": "delegationRatio",
          "type": "uint32"
        }
      ],
      "name": "setDelegationRatio",
      "outputs": [],
      "stateMutability": "nonpayable",
      "type": "function"
    },
    {
      "inputs": [
        {
          "internalType": "uint256",
          "name": "maxPOIStaleness_",
          "type": "uint256"
        }
      ],
      "name": "setMaxPOIStaleness",
      "outputs": [],
      "stateMutability": "nonpayable",
      "type": "function"
    },
    {
      "inputs": [
        {
          "internalType": "uint256",
          "name": "minimumProvisionTokens",
          "type": "uint256"
        }
      ],
      "name": "setMinimumProvisionTokens",
      "outputs": [],
      "stateMutability": "nonpayable",
      "type": "function"
    },
    {
      "inputs": [
        {
          "internalType": "address",
          "name": "pauseGuardian",
          "type": "address"
        },
        {
          "internalType": "bool",
          "name": "allowed",
          "type": "bool"
        }
      ],
      "name": "setPauseGuardian",
      "outputs": [],
      "stateMutability": "nonpayable",
      "type": "function"
    },
    {
      "inputs": [
        {
          "internalType": "address",
          "name": "paymentsDestination_",
          "type": "address"
        }
      ],
      "name": "setPaymentsDestination",
      "outputs": [],
      "stateMutability": "nonpayable",
      "type": "function"
    },
    {
      "inputs": [
        {
          "internalType": "uint256",
          "name": "stakeToFeesRatio_",
          "type": "uint256"
        }
      ],
      "name": "setStakeToFeesRatio",
      "outputs": [],
      "stateMutability": "nonpayable",
      "type": "function"
    },
    {
      "inputs": [
        {
          "internalType": "address",
          "name": "indexer",
          "type": "address"
        },
        {
          "internalType": "bytes",
          "name": "data",
          "type": "bytes"
        }
      ],
      "name": "slash",
      "outputs": [],
      "stateMutability": "nonpayable",
      "type": "function"
    },
    {
      "inputs": [],
      "name": "stakeToFeesRatio",
      "outputs": [
        {
          "internalType": "uint256",
          "name": "",
          "type": "uint256"
        }
      ],
      "stateMutability": "view",
      "type": "function"
    },
    {
      "inputs": [
        {
          "internalType": "address",
          "name": "indexer",
          "type": "address"
        },
        {
          "internalType": "bytes",
          "name": "data",
          "type": "bytes"
        }
      ],
      "name": "startService",
      "outputs": [],
      "stateMutability": "nonpayable",
      "type": "function"
    },
    {
      "inputs": [
        {
          "internalType": "address",
          "name": "indexer",
          "type": "address"
        },
        {
          "internalType": "bytes",
          "name": "data",
          "type": "bytes"
        }
      ],
      "name": "stopService",
      "outputs": [],
      "stateMutability": "nonpayable",
      "type": "function"
    },
    {
      "inputs": [
        {
          "internalType": "address",
          "name": "newOwner",
          "type": "address"
        }
      ],
      "name": "transferOwnership",
      "outputs": [],
      "stateMutability": "nonpayable",
      "type": "function"
    },
    {
      "inputs": [],
      "name": "unpause",
      "outputs": [],
      "stateMutability": "nonpayable",
      "type": "function"
    }
  ],
  "bytecode": "0x61024060405234801561001157600080fd5b5060405161664438038061664483398101604081905261003091610541565b3083838387806001600160a01b03811661007f5760405163218f5add60e11b815260206004820152600a60248201526921b7b73a3937b63632b960b11b60448201526064015b60405180910390fd5b6001600160a01b0381166101005260408051808201909152600a81526923b930b8342a37b5b2b760b11b60208201526100b7906103c5565b6001600160a01b03166080526040805180820190915260078152665374616b696e6760c81b60208201526100ea906103c5565b6001600160a01b031660a05260408051808201909152600d81526c47726170685061796d656e747360981b6020820152610123906103c5565b6001600160a01b031660c05260408051808201909152600e81526d5061796d656e7473457363726f7760901b602082015261015d906103c5565b6001600160a01b031660e05260408051808201909152600c81526b22b837b1b426b0b730b3b2b960a11b6020820152610195906103c5565b6001600160a01b03166101205260408051808201909152600e81526d2932bbb0b93239a6b0b730b3b2b960911b60208201526101d0906103c5565b6001600160a01b0316610140526040805180820190915260118152704772617068546f6b656e4761746577617960781b602082015261020e906103c5565b6001600160a01b03166101605260408051808201909152600f81526e23b930b834283937bc3ca0b236b4b760891b602082015261024a906103c5565b6001600160a01b03166101805260408051808201909152600881526721bab930ba34b7b760c11b602082015261027f906103c5565b6001600160a01b039081166101a08190526101005160a05160805160c05160e05161012051610140516101605161018051604051988b169a9788169996909716977fef5021414834d86e36470f5c1cecf6544fb2bb723f2ca51a4c86fcd8c5919a43976103299790916001600160a01b03978816815295871660208701529386166040860152918516606085015284166080840152831660a083015290911660c082015260e00190565b60405180910390a450506001600160a01b038481166101c08190528482166101e08190528483166102008190529284166102208190526040805193845260208401929092529082019290925260608101919091527f4175b2c37456dbac494e08de8666d31bb8f3f2aee36ea5d9e06894ff3e4ddda79060800160405180910390a1505050506103bc61047360201b60201c565b50505050610605565b600080610100516001600160a01b031663f7641a5e84805190602001206040518263ffffffff1660e01b815260040161040091815260200190565b602060405180830381865afa15801561041d573d6000803e3d6000fd5b505050506040513d601f19601f820116820180604052508101906104419190610595565b9050826001600160a01b03821661046c5760405163218f5add60e11b815260040161007691906105b7565b5092915050565b7ff0c57e16840df040f15088dc2f81fe391c3923bec73e23a9662efc9c229c6a00805468010000000000000000900460ff16156104c35760405163f92ee8a960e01b815260040160405180910390fd5b80546001600160401b03908116146105225780546001600160401b0319166001600160401b0390811782556040519081527fc7f505b2f371ae2175ee4913f4499e1f2633a7b5936321eed1cdaeb6115181d29060200160405180910390a15b50565b80516001600160a01b038116811461053c57600080fd5b919050565b6000806000806080858703121561055757600080fd5b61056085610525565b935061056e60208601610525565b925061057c60408601610525565b915061058a60608601610525565b905092959194509250565b6000602082840312156105a757600080fd5b6105b082610525565b9392505050565b602081526000825180602084015260005b818110156105e557602081860181015160408684010152016105c8565b506000604082850101526040601f19601f83011684010191505092915050565b60805160a05160c05160e05161010051610120516101405161016051610180516101a0516101c0516101e0516102005161022051615fa661069e6000396000612ec0015260006132bc01526000818161160a0152612fbf01526000505060005050600050506000505060006136e60152600061455a01526000505060005050600050506000611b4901526000613a420152615fa66000f3fe608060405234801561001057600080fd5b506004361061023b5760003560e01c806307e736d8146102405780630e02292314610280578063138dea081461030857806313c474c9146103205780631dd42f60146103755780631ebb7c301461038a57806324b8fbf6146103af57806335577962146103c25780633f4ba83a146103d557806345f54485146103dd578063482468b7146103f05780634f793cdc1461040657806355c85269146104275780635c975abb146104715780636234e216146104895780636ccec5b8146104a95780636d9a3951146104bc578063715018a61461053757806371ce020a1461053f5780637aa31bce146105555780637dfe6d28146105685780637e89bac31461057b5780638180083b1461058e578063819ba366146105a157806381e777a7146105b7578063832bc923146105ca5780638456cb59146105dd57806384b0196e146105e557806385e82baf146106005780638da5cb5b146106095780639384e07814610611578063ac9650d814610634578063b15d2a2c14610654578063ba38f67d14610667578063c0f474971461067a578063c84a5ef314610682578063cb8347fe14610695578063cbe5f3f2146106a8578063ce0fc0cc146106c8578063ce56c98b146106db578063d07a7a84146106ee578063db9bee46146106f8578063dedf672614610700578063e2e1e8e914610713578063e6f5005414610733578063ebf6ddaf14610746578063ec9c218d1461074e578063eff0f59214610761578063f2fde38b14610796575b600080fd5b61026a61024e366004615008565b610109602052600090815260409020546001600160a01b031681565b6040516102779190615025565b60405180910390f35b61029361028e366004615008565b6107a9565b604051610277919060006101208201905060018060a01b0383511682526020830151602083015260408301516040830152606083015160608301526080830151608083015260a083015160a083015260c083015160c083015260e083015160e083015261010083015161010083015292915050565b6103126101085481565b604051908152602001610277565b61035561032e366004615008565b609c6020526000908152604090208054600182015460028301546003909301549192909184565b604080519485526020850193909352918301526060820152608001610277565b61038861038336600461504b565b610836565b005b600254600160c01b900463ffffffff1660405163ffffffff9091168152602001610277565b6103886103bd3660046150a9565b61084f565b6103886103d036600461510b565b610a26565b610388610a3c565b6103886103eb366004615144565b610a78565b6103f8610a82565b60405161027792919061515d565b610419610414366004615008565b610a95565b6040516102779291906151c4565b61043a610435366004615008565b610bc2565b6040805196151587526001600160a01b039095166020870152938501929092526060840152608083015260a082015260c001610277565b610479610c7e565b6040519015158152602001610277565b610312610497366004615008565b60d16020526000908152604090205481565b6103886104b7366004615008565b610c93565b6105136104ca366004615008565b604080518082018252600080825260209182018190526001600160a01b03938416815260d082528290208251808401909352805490931682526001909201549181019190915290565b6040805182516001600160a01b031681526020928301519281019290925201610277565b610388610c9d565b610547610caf565b6040516102779291906151e9565b610388610563366004615144565b610cba565b610388610576366004615203565b610ccb565b610388610589366004615144565b610ce3565b61038861059c3660046150a9565b610d58565b6105a9610ef5565b604051610277929190615244565b6103886105c5366004615203565b610f05565b6103886105d8366004615144565b611084565b610388611098565b6105ed6110d2565b6040516102779796959493929190615252565b61031260d25481565b61026a61117b565b61047961061f366004615008565b60676020526000908152604090205460ff1681565b6106476106423660046152ea565b611196565b604051610277919061535f565b6103126106623660046153c4565b61127e565b610479610675366004615008565b611461565b61026a61147f565b61038861069036600461542c565b611489565b6103886106a33660046150a9565b611607565b6103126106b6366004615008565b609a6020526000908152604090205481565b6103886106d63660046150a9565b611746565b6103126106e9366004615474565b61182f565b6103126101075481565b61026a611842565b61038861070e3660046150a9565b61184c565b610312610721366004615144565b600090815260d3602052604090205490565b610388610741366004615144565b6119e9565b61026a6119fa565b61038861075c366004615008565b611a04565b61035561076f366004615144565b609b6020526000908152604090208054600182015460028301546003909301549192909184565b6103886107a4366004615008565b611a86565b6107b1614f8b565b506001600160a01b03908116600090815260cf6020908152604091829020825161012081018452815490941684526001810154918401919091526002810154918301919091526003810154606083015260048101546080830152600581015460a0830152600681015460c0830152600781015460e08301526008015461010082015290565b61083e611ac1565b61084781611af3565b50565b905090565b82610858611b47565b6001600160a01b0316637c145cc78230336040518463ffffffff1660e01b8152600401610887939291906154a2565b602060405180830381865afa1580156108a4573d6000803e3d6000fd5b505050506040513d601f19601f820116820180604052508101906108c891906154c5565b813390916108f45760405163cc5d3c8b60e01b81526004016108eb9291906154e2565b60405180910390fd5b505083600061090282611b6b565b905061090d81611c6e565b610918816000611cac565b610920611d96565b6000808061093087890189615613565b925092509250600083511161095857604051630783843960e51b815260040160405180910390fd5b600082511161097a57604051631e63bd9560e21b815260040160405180910390fd5b60408051808201825284815260208082018590526001600160a01b038c16600090815261010690915291909120815181906109b5908261570f565b50602082015160018201906109ca908261570f565b509050506109d88982611dbc565b886001600160a01b03167f159567bea25499a91f60e1fbb349ff2a1f8c1b2883198f25c1e12c99eddb44fa8989604051610a139291906157cd565b60405180910390a2505050505050505050565b610a2e611ac1565b610a388282611e13565b5050565b3360008181526067602052604090205460ff16610a6d576040516372e3ef9760e01b81526004016108eb9190615025565b50610a76611ec9565b565b6108473382611f15565b600080610a8d611fbb565b915091509091565b61010660205260009081526040902080548190610ab19061568e565b80601f0160208091040260200160405190810160405280929190818152602001828054610add9061568e565b8015610b2a5780601f10610aff57610100808354040283529160200191610b2a565b820191906000526020600020905b815481529060010190602001808311610b0d57829003601f168201915b505050505090806001018054610b3f9061568e565b80601f0160208091040260200160405190810160405280929190818152602001828054610b6b9061568e565b8015610bb85780601f10610b8d57610100808354040283529160200191610bb8565b820191906000526020600020905b815481529060010190602001808311610b9b57829003601f168201915b5050505050905082565b6001600160a01b03808216600090815260cf60209081526040808320815161012081018352815490951685526001810154928501929092526002820154908401526003810154606084015260048101546080840152600581015460a0840152600681015460c0840152600781015460e0840152600801546101008301529081908190819081908190610c5381612032565b81516020830151604084015160c085015160e090950151939c929b5090995097509195509350915050565b600080610c89612051565b5460ff1692915050565b6108473382611dbc565b610ca5611ac1565b610a766000612075565b600080610a8d6120d1565b610cc2611ac1565b61084781612148565b610cd3611ac1565b610cde83838361217d565b505050565b610ceb611ac1565b610cf881620f4240101590565b8190610d1a57604051631c9c717b60e01b81526004016108eb91815260200190565b506101088190556040518181527f6deef78ffe3df79ae5cd8e40b842c36ac6077e13746b9b68a9f327537b01e4e9906020015b60405180910390a150565b82610d61611b47565b6001600160a01b0316637c145cc78230336040518463ffffffff1660e01b8152600401610d90939291906154a2565b602060405180830381865afa158015610dad573d6000803e3d6000fd5b505050506040513d601f19601f82011682018060405250810190610dd191906154c5565b81339091610df45760405163cc5d3c8b60e01b81526004016108eb9291906154e2565b50506001600160a01b038416600090815261010660205260408120805486929190610e1e9061568e565b9050118190610e415760405163ee27189960e01b81526004016108eb9190615025565b50610e4a611d96565b6000610e5884860186615008565b90506001600160a01b038616610e6f60cf836121d0565b51879183916001600160a01b031614610e9d5760405163c0bbff1360e01b81526004016108eb9291906154e2565b5050610eaa816000612255565b856001600160a01b03167f73330c218a680717e9eee625c262df66eddfdf99ecb388d25f6b32d66b9a318a8686604051610ee59291906157cd565b60405180910390a2505050505050565b600080610a8d6000546001549091565b82610f0e611b47565b6001600160a01b0316637c145cc78230336040518463ffffffff1660e01b8152600401610f3d939291906154a2565b602060405180830381865afa158015610f5a573d6000803e3d6000fd5b505050506040513d601f19601f82011682018060405250810190610f7e91906154c5565b81339091610fa15760405163cc5d3c8b60e01b81526004016108eb9291906154e2565b5050836000610faf82611b6b565b9050610fba81611c6e565b610fc5816000611cac565b6001600160a01b038616600090815261010660205260408120805488929190610fed9061568e565b90501181906110105760405163ee27189960e01b81526004016108eb9190615025565b50611019611d96565b6001600160a01b03871661102e60cf886121d0565b51889188916001600160a01b03161461105c5760405163c0bbff1360e01b81526004016108eb9291906154e2565b505061107b8686600260189054906101000a900463ffffffff166123b7565b50505050505050565b61108c611ac1565b610847816000196126b5565b3360008181526067602052604090205460ff166110c9576040516372e3ef9760e01b81526004016108eb9190615025565b50610a76612724565b60006060806000806000606060006110e861276b565b80549091501580156110fc57506001810154155b6111405760405162461bcd60e51b81526020600482015260156024820152741152540dcc4c8e88155b9a5b9a5d1a585b1a5e9959605a1b60448201526064016108eb565b61114861278f565b611150612830565b60408051600080825260208201909252600f60f81b9c939b5091995046985030975095509350915050565b60008061118661284d565b546001600160a01b031692915050565b604080516000815260208101909152606090826001600160401b038111156111c0576111c06154fc565b6040519080825280602002602001820160405280156111f357816020015b60608152602001906001900390816111de5790505b50915060005b83811015611275576112503086868481811061121757611217615825565b9050602002810190611229919061583b565b8560405160200161123c93929190615881565b604051602081830303815290604052612871565b83828151811061126257611262615825565b60209081029190910101526001016111f9565b50505b92915050565b600084611289611b47565b6001600160a01b0316637c145cc78230336040518463ffffffff1660e01b81526004016112b8939291906154a2565b602060405180830381865afa1580156112d5573d6000803e3d6000fd5b505050506040513d601f19601f820116820180604052508101906112f991906154c5565b8133909161131c5760405163cc5d3c8b60e01b81526004016108eb9291906154e2565b505085600061132a82611b6b565b905061133581611c6e565b611340816000611cac565b6001600160a01b03881660009081526101066020526040812080548a9291906113689061568e565b905011819061138b5760405163ee27189960e01b81526004016108eb9190615025565b50611394611d96565b6000808960028111156113a9576113a96158a8565b036113c0576113b98a89896128e7565b90506113ff565b60028960028111156113d4576113d46158a8565b036113e4576113b98a8989612dfb565b8860405163047031cf60e41b81526004016108eb91906158e0565b886002811115611411576114116158a8565b8a6001600160a01b03167f54fe682bfb66381a9382e13e4b95a3dd4f960eafbae063fdea3539d144ff3ff58360405161144c91815260200190565b60405180910390a39998505050505050505050565b600061127882600260189054906101000a900463ffffffff16612e9f565b600061084a612ebe565b6000611493612ee2565b805490915060ff600160401b82041615906001600160401b03166000811580156114ba5750825b90506000826001600160401b031660011480156114d65750303b155b9050811580156114e4575080155b156115025760405163f92ee8a960e01b815260040160405180910390fd5b84546001600160401b0319166001178555831561152b57845460ff60401b1916600160401b1785555b61153489612f0b565b61153c612f1c565b611544612f24565b61154c612f3c565b6115986040518060400160405280600f81526020016e53756267726170685365727669636560881b815250604051806040016040528060038152602001620312e360ec1b815250612f4c565b6115a4886000196126b5565b6115ad87611af3565b6115b686612f66565b83156115fc57845460ff60401b19168555604051600181527fc7f505b2f371ae2175ee4913f4499e1f2633a7b5936321eed1cdaeb6115181d29060200160405180910390a15b505050505050505050565b337f00000000000000000000000000000000000000000000000000000000000000006001600160a01b03811682146116545760405163cdc0567f60e01b81526004016108eb9291906154e2565b506000905080611666838501856158ee565b91509150611672611b47565b6001600160a01b031663e76fede686848461168b612fbd565b60405160e086901b6001600160e01b03191681526001600160a01b039485166004820152602481019390935260448301919091529091166064820152608401600060405180830381600087803b1580156116e457600080fd5b505af11580156116f8573d6000803e3d6000fd5b50505050846001600160a01b03167f02f2e74a11116e05b39159372cceb6739257b08d72f7171d208ff27bb6466c588360405161173791815260200190565b60405180910390a25050505050565b8261174f611b47565b6001600160a01b0316637c145cc78230336040518463ffffffff1660e01b815260040161177e939291906154a2565b602060405180830381865afa15801561179b573d6000803e3d6000fd5b505050506040513d601f19601f820116820180604052508101906117bf91906154c5565b813390916117e25760405163cc5d3c8b60e01b81526004016108eb9291906154e2565b50506117ec611d96565b6117f584612fe1565b6040516001600160a01b038516907ff53cf6521a1b5fc0c04bffa70374a4dc2e3474f2b2ac1643c3bcc54e2db4a93990600090a250505050565b600061183b8383613054565b9392505050565b600061084a612fbd565b82611855611b47565b6001600160a01b0316637c145cc78230336040518463ffffffff1660e01b8152600401611884939291906154a2565b602060405180830381865afa1580156118a1573d6000803e3d6000fd5b505050506040513d601f19601f820116820180604052508101906118c591906154c5565b813390916118e85760405163cc5d3c8b60e01b81526004016108eb9291906154e2565b50508360006118f682611b6b565b905061190181611c6e565b61190c816000611cac565b6001600160a01b0386166000908152610106602052604081208054889291906119349061568e565b90501181906119575760405163ee27189960e01b81526004016108eb9190615025565b50611960611d96565b6000808080611971898b018b615910565b93509350935093506119998b83868685600260189054906101000a900463ffffffff166130c3565b8a6001600160a01b03167fd3803eb82ef5b4cdff8646734ebbaf5b37441e96314b27ffd3d0940f12a038e78b8b6040516119d49291906157cd565b60405180910390a25050505050505050505050565b6119f1611ac1565b61084781612f66565b600061084a6132ba565b611a0c611d96565b6000611a1960cf836121d0565b9050611a3060d254826132de90919063ffffffff16565b8290611a4f57604051623477b560e51b81526004016108eb9190615025565b50611a598161331b565b158290611a7a576040516317c7b35d60e31b81526004016108eb9190615025565b50610a38826001612255565b611a8e611ac1565b6001600160a01b038116611ab8576000604051631e4fbdf760e01b81526004016108eb9190615025565b61084781612075565b33611aca61117b565b6001600160a01b031614610a76573360405163118cdaa760e01b81526004016108eb9190615025565b6002805463ffffffff60c01b1916600160c01b63ffffffff8416908102919091179091556040519081527f472aba493f9fd1d136ec54986f619f3aa5caff964f0e731a9909fb9a1270211f90602001610d4d565b7f000000000000000000000000000000000000000000000000000000000000000090565b6040805161014081018252600080825260208201819052918101829052606081018290526080810182905260a0810182905260c0810182905260e081018290526101008101829052610120810182905290611bc4611b47565b6001600160a01b03166325d9897e84306040518363ffffffff1660e01b8152600401611bf19291906154e2565b61014060405180830381865afa158015611c0f573d6000803e3d6000fd5b505050506040513d601f19601f82011682018060405250810190611c33919061599d565b90508060a001516001600160401b0316600014158390611c6757604051637b3c09bf60e01b81526004016108eb9190615025565b5092915050565b6020810151815161084791611c8291615812565b60005460015460405180604001604052806006815260200165746f6b656e7360d01b81525061333a565b600080611cb76120d1565b91509150600083611ccc578460800151611cd2565b8460e001515b9050611d20816001600160401b0316846001600160401b0316846001600160401b03166040518060400160405280600d81526020016c1d1a185dda5b99d4195c9a5bd9609a1b81525061333a565b600080611d2b611fbb565b91509150600086611d40578760600151611d46565b8760c001515b9050611d8c8163ffffffff168463ffffffff168463ffffffff166040518060400160405280600e81526020016d1b585e15995c9a599a595c90dd5d60921b81525061333a565b5050505050505050565b611d9e610c7e565b15610a765760405163d93c066560e01b815260040160405180910390fd5b6001600160a01b038281166000818152610109602052604080822080546001600160a01b0319169486169485179055517e3215dc05a2fc4e6a1e2c2776311d207c730ee51085aae221acc5cbe6fb55c19190a35050565b6001600160a01b0382166000908152606760205260409020548290829060ff161515811514611e6857604051635e67e54b60e01b81526001600160a01b039092166004830152151560248201526044016108eb565b50506001600160a01b038216600081815260676020908152604091829020805460ff191685151590811790915591519182527fa95bac2f3df0d40e8278281c1d39d53c60e4f2bf3550ca5665738d0916e89789910160405180910390a25050565b611ed161336e565b6000611edb612051565b805460ff1916815590507f5db9ee0a495bf2e6ff9c91a7834c1ba4fdd244a5e8aa4e537bd38aeae4b073aa335b604051610d4d9190615025565b6001600160a01b0382166000818152609c60209081526040808320815192830184905282820194909452805180830382018152606090920190528190611f69908490613393906133a8906134a390896134c8565b91509150846001600160a01b03167f13f3fa9f0e54af1af76d8b5d11c3973d7c2aed6312b61efff2f7b49d73ad67eb8383806020019051810190611fad9190615a4a565b604051611737929190615244565b600080611fc6612fbd565b6001600160a01b031663bb2a2b476040518163ffffffff1660e01b8152600401602060405180830381865afa158015612003573d6000803e3d6000fd5b505050506040513d601f19601f820116820180604052508101906120279190615a63565b92620f424092509050565b60006120418260600151151590565b8015611278575050608001511590565b7fcd5ed15c6e187e77e9aee88184c21f4f2182ab5827cb3b7e07fbedcd63f0330090565b600061207f61284d565b80546001600160a01b038481166001600160a01b031983168117845560405193945091169182907f8be0079c531659141344cd1fd0a4f28419497f9722a3daafe3b4186f6b6457e090600090a3505050565b60008060006120de612fbd565b6001600160a01b0316635aea0ec46040518163ffffffff1660e01b8152600401602060405180830381865afa15801561211b573d6000803e3d6000fd5b505050506040513d601f19601f8201168201806040525081019061213f9190615a80565b93849350915050565b60d28190556040518181527f21774046e2611ddb52c8c46e1ad97524eeb2e3fda7dcd9428867868b4c4d06ba90602001610d4d565b61218a60d0848484613582565b80826001600160a01b0316846001600160a01b03167fd54c7abc930f6d506da2d08aa7aead4f2443e1db6d5f560384a2f652ff893e1960405160405180910390a4505050565b6121d8614f8b565b6121e28383613631565b604080516101208101825282546001600160a01b03168152600183015460208201526002830154918101919091526003820154606082015260048201546080820152600582015460a0820152600682015460c0820152600782015460e08201526008909101546101008201529392505050565b600061226260cf846121d0565b90506122ed836122706136e4565b6001600160a01b031663eeac3e0e84602001516040518263ffffffff1660e01b81526004016122a191815260200190565b6020604051808303816000875af11580156122c0573d6000803e3d6000fd5b505050506040513d601f19601f820116820180604052508101906122e49190615a4a565b60cf9190613708565b6122f860cf846137bb565b8051604082015161230b9160d191613871565b806040015160d3600083602001518152602001908152602001600020546123329190615812565b60d3600083602001518152602001908152602001600020819055508060200151836001600160a01b031682600001516001600160a01b03167f08f2f865e0fb62d722a51e4d9873199bf6bf52e7d8ee5a2ee2896c9ef719f5458460400151866040516123aa9291909182521515602082015260400190565b60405180910390a4505050565b60006123c460cf856121d0565b90506123cf81612032565b84906123ef57604051631eb5ff9560e01b81526004016108eb9190615025565b5080604001518314158484909161241b5760405163f32518cd60e01b81526004016108eb929190615a9d565b50506040810151808411156124515761244c612435611b47565b83516124418488615812565b60d1929190876138ef565b61246a565b815161246a906124618684615812565b60d19190613871565b60006124746136e4565b6001600160a01b031663eeac3e0e84602001516040518263ffffffff1660e01b81526004016124a591815260200190565b6020604051808303816000875af11580156124c4573d6000803e3d6000fd5b505050506040513d601f19601f820116820180604052508101906124e89190615a4a565b905060006124f58461331b565b15612501576000612510565b60c08401516125109083615812565b6001600160a01b038816600090815260cf6020526040902060028101889055600601839055905061253f6136e4565b6001600160a01b031663c8a5f81e84836040518363ffffffff1660e01b815260040161256c929190615244565b602060405180830381865afa158015612589573d6000803e3d6000fd5b505050506040513d601f19601f820116820180604052508101906125ad9190615a4a565b6001600160a01b038816600090815260cf6020526040812060070180549091906125d8908490615ab6565b909155505082861115612620576125ef8387615812565b60d360008660200151815260200190815260200160002060008282546126159190615ab6565b909155506126569050565b61262a8684615812565b60d360008660200151815260200190815260200160002060008282546126509190615812565b90915550505b8360200151876001600160a01b031685600001516001600160a01b03167f6db4a6f9be2d5e72eb2a2af2374ac487971bf342a261ba0bc1cf471bf2a2c31f89876040516126a4929190615244565b60405180910390a450505050505050565b8181808211156126da5760405163ccccdafb60e01b81526004016108eb929190615244565b5050600082905560018190556040517f90699b8b4bf48918fea1129c85f9bc7b51285df7ecc982910813c7805f568849906127189084908490615244565b60405180910390a15050565b61272c611d96565b6000612736612051565b805460ff1916600117815590507f62e78cea01bee320cd4e420270b5ea74000d11b0c9f74754ebdbfc544b05a258611f083390565b7fa16a46d94261c7517cc8ff89f61c0ce93598e3c849801011dee649a6a557d10090565b6060600061279b61276b565b90508060020180546127ac9061568e565b80601f01602080910402602001604051908101604052809291908181526020018280546127d89061568e565b80156128255780601f106127fa57610100808354040283529160200191612825565b820191906000526020600020905b81548152906001019060200180831161280857829003601f168201915b505050505091505090565b6060600061283c61276b565b90508060030180546127ac9061568e565b7f9016d09d72d40fdae2fd8ceac6b6234c7706214fd39c1cd1e609a0528c19930090565b6060600080846001600160a01b03168460405161288e9190615ac9565b600060405180830381855af49150503d80600081146128c9576040519150601f19603f3d011682016040523d82523d6000602084013e6128ce565b606091505b50915091506128de8583836139ed565b95945050505050565b600080806128f784860186615b07565b8151604001519193509150866001600160a01b038281169082161461293157604051631a071d0760e01b81526004016108eb9291906154e2565b50508151516001600160a01b038111156129615760405163fa4ac7a760e01b81526004016108eb91815260200190565b50815151600061297260cf836121d0565b805190915088906001600160a01b03818116908316146129a757604051634508fbf760e11b81526004016108eb9291906154e2565b505060208101516129b9896000611f15565b60008060006129c6613a40565b6001600160a01b03166370a08231306040518263ffffffff1660e01b81526004016129f19190615025565b602060405180830381865afa158015612a0e573d6000803e3d6000fd5b505050506040513d601f19601f82011682018060405250810190612a329190615a4a565b9050612a3c6132ba565b6001600160a01b031663692209ce6000612ada8b612a58612ebe565b6001600160a01b0316634c4ea0ed8a6040518263ffffffff1660e01b8152600401612a8591815260200190565b602060405180830381865afa158015612aa2573d6000803e3d6000fd5b505050506040513d601f19601f82011682018060405250810190612ac691906154c5565b612ad1576000613a64565b61010854613a64565b8a6040518463ffffffff1660e01b8152600401612af993929190615c3e565b6020604051808303816000875af1158015612b18573d6000803e3d6000fd5b505050506040513d601f19601f82011682018060405250810190612b3c9190615a4a565b92506000612b48613a40565b6001600160a01b03166370a08231306040518263ffffffff1660e01b8152600401612b739190615025565b602060405180830381865afa158015612b90573d6000803e3d6000fd5b505050506040513d601f19601f82011682018060405250810190612bb49190615a4a565b9050818181811015612bdb57604051639db8bc9560e01b81526004016108eb929190615244565b50612be890508282615812565b92505082159050612d9257612c878b6101075484612c069190615c6e565b612c0e612fbd565b6001600160a01b0316635aea0ec46040518163ffffffff1660e01b8152600401602060405180830381865afa158015612c4b573d6000803e3d6000fd5b505050506040513d601f19601f82011682018060405250810190612c6f9190615a80565b612c82906001600160401b031642615ab6565b613ab8565b8015612d9257612c956136e4565b6001600160a01b0316631d1c2fec846040518263ffffffff1660e01b8152600401612cc291815260200190565b6020604051808303816000875af1158015612ce1573d6000803e3d6000fd5b505050506040513d601f19601f82011682018060405250810190612d059190615a4a565b50612d2a612d11612ebe565b82612d1a613a40565b6001600160a01b03169190613c28565b612d32612ebe565b6001600160a01b0316638157328884836040518363ffffffff1660e01b8152600401612d5f929190615244565b600060405180830381600087803b158015612d7957600080fd5b505af1158015612d8d573d6000803e3d6000fd5b505050505b86516020908101516040805186815292830185905282018390526001600160a01b038088169291811691908e16907f184c452047299395d4f7f147eb8e823458a450798539be54aeed978f13d87ba29060600160405180910390a4509998505050505050505050565b6000808080612e0c85870187615c85565b919450925090506001600160a01b038716612e2860cf856121d0565b51889185916001600160a01b031614612e565760405163c0bbff1360e01b81526004016108eb9291906154e2565b50506002546001600160a01b0388811660009081526101096020526040902054612e9492869286928692600160c01b900463ffffffff169116613cd7565b979650505050505050565b6000612eb6612eac611b47565b60d19085856142b4565b159392505050565b7f000000000000000000000000000000000000000000000000000000000000000090565b6000807ff0c57e16840df040f15088dc2f81fe391c3923bec73e23a9662efc9c229c6a00611278565b612f1361434e565b61084781614373565b610a7661434e565b612f2c61434e565b612f3461437b565b610a76612f1c565b612f4461434e565b612f34612f1c565b612f5461434e565b612f5e82826143bd565b610a38612f1c565b80600003612f875760405163bc71a04360e01b815260040160405180910390fd5b6101078190556040518181527f2aaaf20b08565eebc0c962cd7c568e54c3c0c2b85a1f942b82cd1bd730fdcd2390602001610d4d565b7f000000000000000000000000000000000000000000000000000000000000000090565b612fec8160016143cf565b612ff4611b47565b6001600160a01b0316633a78b732826040518263ffffffff1660e01b815260040161301f9190615025565b600060405180830381600087803b15801561303957600080fd5b505af115801561304d573d6000803e3d6000fd5b5050505050565b600061183b7f4bdee85c4b4a268f4895d1096d553c3e57bb2433c380e7b7ec8cb56cc4f7467384846040516020016130a8939291909283526001600160a01b03918216602084015216604082015260600190565b604051602081830303815290604052805190602001206143e6565b6001600160a01b0385166130ea57604051634ffdf5ef60e11b815260040160405180910390fd5b6130f5868684614413565b613109613100611b47565b60d09087614462565b6000613113614558565b6001600160a01b031663766718086040518163ffffffff1660e01b8152600401602060405180830381865afa158015613150573d6000803e3d6000fd5b505050506040513d601f19601f820116820180604052508101906131749190615a4a565b90506000613204888888886131876136e4565b6001600160a01b031663eeac3e0e8c6040518263ffffffff1660e01b81526004016131b491815260200190565b6020604051808303816000875af11580156131d3573d6000803e3d6000fd5b505050506040513d601f19601f820116820180604052508101906131f79190615a4a565b60cf94939291908861457c565b905061321c613211611b47565b60d1908a88876138ef565b806040015160d3600083602001518152602001908152602001600020546132439190615ab6565b60d36000836020015181526020019081526020016000208190555085876001600160a01b0316896001600160a01b03167fe5e185fab2b992c4727ff702a867d78b15fb176dbaa20c9c312a1c351d3f7f838460400151866040516132a8929190615244565b60405180910390a45050505050505050565b7f000000000000000000000000000000000000000000000000000000000000000090565b6000806132f384606001518560a001516146e4565b6132fd9042615812565b905061330884612032565b801561331357508281115b949350505050565b600061332a8260600151151590565b8015611278575050604001511590565b6133458484846146f4565b8185858590919293611d8c57604051630871e13d60e01b81526004016108eb9493929190615cdd565b613376610c7e565b610a7657604051638dfc202b60e01b815260040160405180910390fd5b6000908152609b602052604090206003015490565b6000606060006133b78561470b565b905042816040015111156133df5750506040805160208101909152600081526001915061349c565b600080858060200190518101906133f69190615d0c565b8451919350915061340b90609a908390613871565b86816001600160a01b03167f4c06b68820628a39c787d2db1faa0eeacd7b9474847b198b1e871fe6e5b93f448560000151866040015160405161344f929190615244565b60405180910390a382516134639083615ab6565b6040805160208101929092526001600160a01b038316908201526060016040516020818303038152906040529550600086945094505050505b9250929050565b6000908152609b60205260408120818155600181018290556002810182905560030155565b6000606087600301548311156134f157604051634a411b9d60e11b815260040160405180910390fd5b600083156134ff5783613505565b88600301545b89549094505b801580159061351a5750600085115b156135735760008061353083898c63ffffffff16565b915091508115613541575050613573565b96508661354f8c8c8b614799565b92508661355b81615d32565b975050838061356990615d49565b945050505061350b565b50989397509295505050505050565b6001600160a01b0380831660009081526020868152604091829020825180840190935280549093168252600190920154918101919091526135c290614820565b1582906135e357604051632d7d25f160e21b81526004016108eb9190615025565b506040805180820182526001600160a01b0394851681526020808201938452938516600090815295909352909320905181546001600160a01b03191692169190911781559051600190910155565b6001600160a01b03808216600090815260208481526040808320815161012081018352815490951685526001810154928501929092526002820154908401526003810154606084015260048101546080840152600581015460a0840152600681015460c0840152600781015460e0840152600881015461010084015290916136bc9060600151151590565b83906136dc576040516342daadaf60e01b81526004016108eb9190615025565b509392505050565b7f000000000000000000000000000000000000000000000000000000000000000090565b60006137148484613631565b604080516101208101825282546001600160a01b03168152600183015460208201526002830154918101919091526003820154606082015260048201546080820152600582015460a0820152600682015460c0820152600782015460e0820152600882015461010082015290915061378b90612032565b600482015484916137b1576040516361b66e0d60e01b81526004016108eb929190615a9d565b5050600601555050565b60006137c78383613631565b604080516101208101825282546001600160a01b03168152600183015460208201526002830154918101919091526003820154606082015260048201546080820152600582015460a0820152600682015460c0820152600782015460e0820152600882015461010082015290915061383e90612032565b60048201548391613864576040516361b66e0d60e01b81526004016108eb929190615a9d565b5050426004909101555050565b8060000361387e57505050565b6001600160a01b03821660009081526020849052604090205481808210156138bb57604051635f8ec70960e01b81526004016108eb929190615244565b50506001600160a01b038216600090815260208490526040812080548392906138e5908490615812565b9091555050505050565b811561304d576001600160a01b038316600090815260208690526040812054613919908490615ab6565b90506000856001600160a01b031663872d04898630866040518463ffffffff1660e01b815260040161394d93929190615d62565b602060405180830381865afa15801561396a573d6000803e3d6000fd5b505050506040513d601f19601f8201168201806040525081019061398e9190615a4a565b90508082818111156139b557604051635f8ec70960e01b81526004016108eb929190615244565b50506001600160a01b038516600090815260208890526040812080548692906139df908490615ab6565b909155505050505050505050565b606082613a02576139fd8261482f565b61183b565b8151158015613a1957506001600160a01b0384163b155b15613a395783604051639996b31560e01b81526004016108eb9190615025565b508061183b565b7f000000000000000000000000000000000000000000000000000000000000000090565b81516040908101516001600160a01b039081166000908152610109602090815290839020549251606093613aa19387938793929091169101615d8b565b604051602081830303815290604052905092915050565b81600003613ad957604051638f4c63d960e01b815260040160405180910390fd5b613b05613ae4611b47565b600254609a91908690869063ffffffff600160c01b9091048116906138ef16565b6001600160a01b0383166000908152609c6020908152604080832060028082015483516001600160601b031930606090811b8216838901528b901b166034820152604880820192909252845180820390920182526068810180865282519287019290922060e882018652898352426088830190815260a883018a815260c8909301898152828a52609b909852959097209151825593516001820155925190830155915160039182015581015490919015613bd35760018201546000908152609b602052604090206003018190555b613bdd8282614857565b80856001600160a01b03167f5d9e2c5278e41138269f5f980cfbea016d8c59816754502abc4d2f87aaea987f8686604051613c19929190615244565b60405180910390a35050505050565b8015610cde5760405163a9059cbb60e01b81526001600160a01b0384169063a9059cbb90613c5c9085908590600401615a9d565b6020604051808303816000875af1158015613c7b573d6000803e3d6000fd5b505050506040513d601f19601f82011682018060405250810190613c9f91906154c5565b610cde5760405162461bcd60e51b815260206004820152600960248201526810ba3930b739b332b960b91b60448201526064016108eb565b600080613ce560cf886121d0565b9050613cf081612032565b8790613d1057604051631eb5ff9560e01b81526004016108eb9190615025565b506000613d2860d254836132de90919063ffffffff16565b158015613d3b5750613d398261331b565b155b8015613d4657508615155b8015613dbe5750816101000151613d5b614558565b6001600160a01b031663766718086040518163ffffffff1660e01b8152600401602060405180830381865afa158015613d98573d6000803e3d6000fd5b505050506040513d601f19601f82011682018060405250810190613dbc9190615a4a565b115b613dc9576000613e3f565b613dd16136e4565b6001600160a01b031663db750926896040518263ffffffff1660e01b8152600401613dfc9190615025565b6020604051808303816000875af1158015613e1b573d6000803e3d6000fd5b505050506040513d601f19601f82011682018060405250810190613e3f9190615a4a565b9050613e7e88613e4d6136e4565b6001600160a01b031663eeac3e0e85602001516040518263ffffffff1660e01b81526004016122a191815260200190565b613e8960cf896148ea565b613e9460cf896149a0565b60008082156141cd576000613ea7611b47565b8551604051637573ef4f60e01b81526001600160a01b039290921691637573ef4f91613eda913090600290600401615e54565b602060405180830381865afa158015613ef7573d6000803e3d6000fd5b505050506040513d601f19601f82011682018060405250810190613f1b9190615a4a565b90506000613f27611b47565b8651604051631584a17960e21b81526001600160a01b03929092169163561285e491613f579130906004016154e2565b60a060405180830381865afa158015613f74573d6000803e3d6000fd5b505050506040513d601f19601f82011682018060405250810190613f989190615e79565b90506000816020015111613fad576000613fb7565b613fb78583614a57565b925082156140ac57613fc7613a40565b6001600160a01b031663095ea7b3613fdd611b47565b856040518363ffffffff1660e01b8152600401613ffb929190615a9d565b6020604051808303816000875af115801561401a573d6000803e3d6000fd5b505050506040513d601f19601f8201168201806040525081019061403e91906154c5565b50614047611b47565b865160405163ca94b0e960e01b81526001600160a01b03929092169163ca94b0e9916140799130908890600401615eec565b600060405180830381600087803b15801561409357600080fd5b505af11580156140a7573d6000803e3d6000fd5b505050505b6140b68386615812565b935083156141ca576001600160a01b0388166141bd576140d4613a40565b6001600160a01b031663095ea7b36140ea611b47565b866040518363ffffffff1660e01b8152600401614108929190615a9d565b6020604051808303816000875af1158015614127573d6000803e3d6000fd5b505050506040513d601f19601f8201168201806040525081019061414b91906154c5565b50614154611b47565b8651604051633a30904960e11b81526001600160a01b0392909216916374612092916141869130908990600401615eec565b600060405180830381600087803b1580156141a057600080fd5b505af11580156141b4573d6000803e3d6000fd5b505050506141ca565b6141ca8885612d1a613a40565b50505b602084015184516001600160a01b03808d1691167f443f56bd2098d273b8c8120398789a41da5925db4ba2f656813fc5299ac57b1f8686868f8f61420f614558565b6001600160a01b031663766718086040518163ffffffff1660e01b8152600401602060405180830381865afa15801561424c573d6000803e3d6000fd5b505050506040513d601f19601f820116820180604052508101906142709190615a4a565b60405161428296959493929190615f10565b60405180910390a483516142969088612e9f565b156142a6576142a68a6001612255565b509098975050505050505050565b600080846001600160a01b031663872d04898530866040518463ffffffff1660e01b81526004016142e793929190615d62565b602060405180830381865afa158015614304573d6000803e3d6000fd5b505050506040513d601f19601f820116820180604052508101906143289190615a4a565b6001600160a01b0385166000908152602088905260409020541115915050949350505050565b614356614ab7565b610a7657604051631afcd79f60e31b815260040160405180910390fd5b611a8e61434e565b61438361434e565b61439060006000196126b5565b61439e6000620f4240614ad1565b6143b060006001600160401b03614ba2565b610a7663ffffffff611af3565b6143c561434e565b610a388282614c2f565b60006143da83611b6b565b9050610cde8183611cac565b60006112786143f3614c70565b8360405161190160f01b8152600281019290925260228201526042902090565b60006144286144228585613054565b83614c7a565b905080836001600160a01b038083169082161461445a57604051638c5b935d60e01b81526004016108eb9291906154e2565b505050505050565b6001600160a01b0380821660009081526020858152604091829020825180840190935280549093168252600190920154918101919091526144a290614820565b1581906144c357604051632d7d25f160e21b81526004016108eb9190615025565b506040516378eb06b360e11b81526001600160a01b0383169063f1d60d66906144f0908490600401615025565b602060405180830381865afa15801561450d573d6000803e3d6000fd5b505050506040513d601f19601f8201168201806040525081019061453191906154c5565b15819061455257604051632d7d25f160e21b81526004016108eb9190615025565b50505050565b7f000000000000000000000000000000000000000000000000000000000000000090565b614584614f8b565b6001600160a01b03808716600090815260208a8152604091829020825161012081018452815490941684526001810154918401919091526002810154918301919091526003810154606083015260048101546080830152600581015460a0830152600681015460c0830152600781015460e0830152600801546101008201526146109060600151151590565b15869061463157604051630bc4def560e01b81526004016108eb9190615025565b505060408051610120810182526001600160a01b0397881681526020808201968752818301958652426060830190815260006080840181815260a0850182815260c0860198895260e0860183815261010087019889529b8d1683529c90935293909320825181546001600160a01b0319169a169990991789559551600189015593516002880155516003870155925160048601559451600585015593516006840155905160078301555160089091015590565b600082821882841102821861183b565b600082841015801561331357505090911115919050565b6147396040518060800160405280600081526020016000815260200160008152602001600080191681525090565b6000828152609b602090815260409182902082516080810184528154815260018201549281018390526002820154938101939093526003015460608301528390611c675760405163107349a960e21b81526004016108eb91815260200190565b6000808460030154116147bf5760405163ddaf8f2160e01b815260040160405180910390fd5b60006147d285600001548563ffffffff16565b90506147e585600001548463ffffffff16565b60018560030160008282546147fa9190615812565b9091555050808555600385015460000361481657600060018601555b5050915492915050565b516001600160a01b0316151590565b80511561483e57805160208201fd5b60405163d6bda27560e01b815260040160405180910390fd5b61271082600301541061487d576040516303a8c56b60e61b815260040160405180910390fd5b8061489b57604051638f4a893d60e01b815260040160405180910390fd5b60018083018290556002830180546000906148b7908490615ab6565b909155505060038201546000036148cc578082555b60018260030160008282546148e19190615ab6565b90915550505050565b60006148f68383613631565b604080516101208101825282546001600160a01b03168152600183015460208201526002830154918101919091526003820154606082015260048201546080820152600582015460a0820152600682015460c0820152600782015460e0820152600882015461010082015290915061496d90612032565b60048201548391614993576040516361b66e0d60e01b81526004016108eb929190615a9d565b5050426005909101555050565b60006149ac8383613631565b604080516101208101825282546001600160a01b03168152600183015460208201526002830154918101919091526003820154606082015260048201546080820152600582015460a0820152600682015460c0820152600782015460e08201526008820154610100820152909150614a2390612032565b60048201548391614a49576040516361b66e0d60e01b81526004016108eb929190615a9d565b505060006007909101555050565b6000614a6683620f4240101590565b80614a795750614a7982620f4240101590565b83839091614a9c5760405163768bf0eb60e11b81526004016108eb929190615244565b50620f42409050614aad8385615c6e565b61183b9190615f4e565b6000614ac1612ee2565b54600160401b900460ff16919050565b818163ffffffff8082169083161115614aff5760405163ccccdafb60e01b81526004016108eb92919061515d565b508290508163ffffffff8116620f42401015614b305760405163ccccdafb60e01b81526004016108eb92919061515d565b50506002805463ffffffff838116600160a01b0263ffffffff60a01b19918616600160801b0291909116600160801b600160c01b0319909216919091171790556040517f2fe5a7039987697813605cc0b9d6db7aab575408e3fc59e8a457bef8d7bc0a3690612718908490849061515d565b81816001600160401b038082169083161115614bd35760405163ccccdafb60e01b81526004016108eb9291906151e9565b5050600280546001600160401b03838116600160401b026001600160801b0319909216908516171790556040517f2867e04c500e438761486b78021d4f9eb97c77ff45d10c1183f5583ba4cbf7d19061271890849084906151e9565b614c3761434e565b6000614c4161276b565b905060028101614c51848261570f565b5060038101614c60838261570f565b5060008082556001909101555050565b600061084a614ca4565b600080600080614c8a8686614d18565b925092509250614c9a8282614d65565b5090949350505050565b60007f8b73c3c69bb8fe3d512ecc4cf759cc79239f7b179b0ffacaa9a75d522b39400f614ccf614e1e565b614cd7614e85565b60408051602081019490945283019190915260608201524660808201523060a082015260c00160405160208183030381529060405280519060200120905090565b60008060008351604103614d525760208401516040850151606086015160001a614d4488828585614ec6565b955095509550505050614d5e565b50508151600091506002905b9250925092565b6000826003811115614d7957614d796158a8565b03614d82575050565b6001826003811115614d9657614d966158a8565b03614db45760405163f645eedf60e01b815260040160405180910390fd5b6002826003811115614dc857614dc86158a8565b03614de95760405163fce698f760e01b8152600481018290526024016108eb565b6003826003811115614dfd57614dfd6158a8565b03610a38576040516335e2f38360e21b8152600481018290526024016108eb565b600080614e2961276b565b90506000614e3561278f565b805190915015614e4d57805160209091012092915050565b81548015614e5c579392505050565b7fc5d2460186f7233c927e7db2dcc703c0e500b653ca82273b7bfad8045d85a470935050505090565b600080614e9061276b565b90506000614e9c612830565b805190915015614eb457805160209091012092915050565b60018201548015614e5c579392505050565b600080806fa2a8918ca85bafe22016d0b997e4df60600160ff1b03841115614ef75750600091506003905082614f81565b604080516000808252602082018084528a905260ff891692820192909252606081018790526080810186905260019060a0016020604051602081039080840390855afa158015614f4b573d6000803e3d6000fd5b5050604051601f1901519150506001600160a01b038116614f7757506000925060019150829050614f81565b9250600091508190505b9450945094915050565b60405180610120016040528060006001600160a01b0316815260200160008019168152602001600081526020016000815260200160008152602001600081526020016000815260200160008152602001600081525090565b6001600160a01b038116811461084757600080fd5b803561500381614fe3565b919050565b60006020828403121561501a57600080fd5b813561183b81614fe3565b6001600160a01b0391909116815260200190565b63ffffffff8116811461084757600080fd5b60006020828403121561505d57600080fd5b813561183b81615039565b60008083601f84011261507a57600080fd5b5081356001600160401b0381111561509157600080fd5b60208301915083602082850101111561349c57600080fd5b6000806000604084860312156150be57600080fd5b83356150c981614fe3565b925060208401356001600160401b038111156150e457600080fd5b6150f086828701615068565b9497909650939450505050565b801515811461084757600080fd5b6000806040838503121561511e57600080fd5b823561512981614fe3565b91506020830135615139816150fd565b809150509250929050565b60006020828403121561515657600080fd5b5035919050565b63ffffffff92831681529116602082015260400190565b60005b8381101561518f578181015183820152602001615177565b50506000910152565b600081518084526151b0816020860160208601615174565b601f01601f19169290920160200192915050565b6040815260006151d76040830185615198565b82810360208401526128de8185615198565b6001600160401b0392831681529116602082015260400190565b60008060006060848603121561521857600080fd5b833561522381614fe3565b9250602084013561523381614fe3565b929592945050506040919091013590565b918252602082015260400190565b60ff60f81b8816815260e06020820152600061527160e0830189615198565b82810360408401526152838189615198565b606084018890526001600160a01b038716608085015260a0840186905283810360c08501528451808252602080870193509091019060005b818110156152d95783518352602093840193909201916001016152bb565b50909b9a5050505050505050505050565b600080602083850312156152fd57600080fd5b82356001600160401b0381111561531357600080fd5b8301601f8101851361532457600080fd5b80356001600160401b0381111561533a57600080fd5b8560208260051b840101111561534f57600080fd5b6020919091019590945092505050565b6000602082016020835280845180835260408501915060408160051b86010192506020860160005b828110156153b857603f198786030184526153a3858351615198565b94506020938401939190910190600101615387565b50929695505050505050565b600080600080606085870312156153da57600080fd5b84356153e581614fe3565b93506020850135600381106153f957600080fd5b925060408501356001600160401b0381111561541457600080fd5b61542087828801615068565b95989497509550505050565b6000806000806080858703121561544257600080fd5b843561544d81614fe3565b935060208501359250604085013561546481615039565b9396929550929360600135925050565b6000806040838503121561548757600080fd5b823561549281614fe3565b9150602083013561513981614fe3565b6001600160a01b0393841681529183166020830152909116604082015260600190565b6000602082840312156154d757600080fd5b815161183b816150fd565b6001600160a01b0392831681529116602082015260400190565b634e487b7160e01b600052604160045260246000fd5b60405161014081016001600160401b0381118282101715615535576155356154fc565b60405290565b604080519081016001600160401b0381118282101715615535576155356154fc565b60405160e081016001600160401b0381118282101715615535576155356154fc565b600082601f83011261559057600080fd5b8135602083016000806001600160401b038411156155b0576155b06154fc565b50604051601f19601f85018116603f011681018181106001600160401b03821117156155de576155de6154fc565b6040528381529050808284018710156155f657600080fd5b838360208301376000602085830101528094505050505092915050565b60008060006060848603121561562857600080fd5b83356001600160401b0381111561563e57600080fd5b61564a8682870161557f565b93505060208401356001600160401b0381111561566657600080fd5b6156728682870161557f565b925050604084013561568381614fe3565b809150509250925092565b600181811c908216806156a257607f821691505b6020821081036156c257634e487b7160e01b600052602260045260246000fd5b50919050565b601f821115610cde57806000526020600020601f840160051c810160208510156156ef5750805b601f840160051c820191505b8181101561304d57600081556001016156fb565b81516001600160401b03811115615728576157286154fc565b61573c81615736845461568e565b846156c8565b6020601f82116001811461577057600083156157585750848201515b600019600385901b1c1916600184901b17845561304d565b600084815260208120601f198516915b828110156157a05787850151825560209485019460019092019101615780565b50848210156157be5786840151600019600387901b60f8161c191681555b50505050600190811b01905550565b60208152816020820152818360408301376000818301604090810191909152601f909201601f19160101919050565b634e487b7160e01b600052601160045260246000fd5b81810381811115611278576112786157fc565b634e487b7160e01b600052603260045260246000fd5b6000808335601e1984360301811261585257600080fd5b8301803591506001600160401b0382111561586c57600080fd5b60200191503681900382131561349c57600080fd5b82848237600083820160008152835161589e818360208801615174565b0195945050505050565b634e487b7160e01b600052602160045260246000fd5b600381106158dc57634e487b7160e01b600052602160045260246000fd5b9052565b6020810161127882846158be565b6000806040838503121561590157600080fd5b50508035926020909101359150565b6000806000806080858703121561592657600080fd5b8435935060208501359250604085013561593f81614fe3565b915060608501356001600160401b0381111561595a57600080fd5b6159668782880161557f565b91505092959194509250565b805161500381615039565b6001600160401b038116811461084757600080fd5b80516150038161597d565b60006101408284031280156159b157600080fd5b5060006159bc615512565b8351815260208085015190820152604080850151908201526159e060608501615972565b60608201526159f160808501615992565b6080820152615a0260a08501615992565b60a0820152615a1360c08501615972565b60c0820152615a2460e08501615992565b60e082015261010084810151908201526101209384015193810193909352509092915050565b600060208284031215615a5c57600080fd5b5051919050565b600060208284031215615a7557600080fd5b815161183b81615039565b600060208284031215615a9257600080fd5b815161183b8161597d565b6001600160a01b03929092168252602082015260400190565b80820180821115611278576112786157fc565b60008251615adb818460208701615174565b9190910192915050565b80356150038161597d565b80356001600160801b038116811461500357600080fd5b60008060408385031215615b1a57600080fd5b82356001600160401b03811115615b3057600080fd5b830160408186031215615b4257600080fd5b615b4a61553b565b81356001600160401b03811115615b6057600080fd5b820160e08188031215615b7257600080fd5b615b7a61555d565b81358152615b8a60208301614ff8565b6020820152615b9b60408301614ff8565b6040820152615bac60608301614ff8565b6060820152615bbd60808301615ae5565b6080820152615bce60a08301615af0565b60a082015260c08201356001600160401b03811115615bec57600080fd5b615bf88982850161557f565b60c08301525082525060208201356001600160401b03811115615c1a57600080fd5b615c268782850161557f565b60208381019190915291979590910135955050505050565b615c4881856158be565b606060208201526000615c5e6060830185615198565b9050826040830152949350505050565b8082028115828204841417611278576112786157fc565b600080600060608486031215615c9a57600080fd5b8335615ca581614fe3565b92506020840135915060408401356001600160401b03811115615cc757600080fd5b615cd38682870161557f565b9150509250925092565b608081526000615cf06080830187615198565b6020830195909552506040810192909252606090910152919050565b60008060408385031215615d1f57600080fd5b8251602084015190925061513981614fe3565b600081615d4157615d416157fc565b506000190190565b600060018201615d5b57615d5b6157fc565b5060010190565b6001600160a01b03938416815291909216602082015263ffffffff909116604082015260600190565b606080825284516040838301819052815160a085015260208201516001600160a01b0390811660c086015290820151811660e08501529181015190911661010083015260808101516001600160401b038116610120840152600091905060a08101516001600160801b0381166101408501525060c0015160e0610160840152615e18610180840182615198565b90506020860151605f19848303016080850152615e358282615198565b9250505083602083015261331360408301846001600160a01b03169052565b6001600160a01b038481168252831660208201526060810161331360408301846158be565b600060a0828403128015615e8c57600080fd5b5060405160009060a081016001600160401b0381118282101715615eb257615eb26154fc565b6040908152845182526020808601519083015284810151908201526060808501519082015260809384015193810193909352509092915050565b6001600160a01b039384168152919092166020820152604081019190915260600190565b86815285602082015284604082015283606082015260c060808201526000615f3b60c0830185615198565b90508260a0830152979650505050505050565b600082615f6b57634e487b7160e01b600052601260045260246000fd5b50049056fea26469706673582212209794e6ad36f4464a13a20ba4d4a12cc7df95e1214a6b2a9fc0448eadfac5494864736f6c634300081b0033",
  "linkReferences": {},
  "deployedLinkReferences": {}
}