{
  "_format": "hh-sol-artifact-1",
  "contractName": "GSRManager",
  "sourceName": "contracts/tests/testnet/GSRManager.sol",
  "abi": [
    {
      "inputs": [
        {
          "internalType": "uint256",
          "name": "_savingsRate",
          "type": "uint256"
        },
        {
          "internalType": "address",
          "name": "_gdai",
          "type": "address"
        }
      ],
      "stateMutability": "nonpayable",
      "type": "constructor"
    },
    {
      "anonymous": false,
      "inputs": [
        {
          "indexed": false,
          "internalType": "uint256",
          "name": "cumulativeInterestRate",
          "type": "uint256"
        },
        {
          "indexed": false,
          "internalType": "uint256",
          "name": "lastDripTime",
          "type": "uint256"
        }
      ],
      "name": "Drip",
      "type": "event"
    },
    {
      "anonymous": false,
      "inputs": [
        {
          "indexed": true,
          "internalType": "address",
          "name": "account",
          "type": "address"
        },
        {
          "indexed": false,
          "internalType": "uint256",
          "name": "gsrBalance",
          "type": "uint256"
        },
        {
          "indexed": false,
          "internalType": "uint256",
          "name": "gdai",
          "type": "uint256"
        }
      ],
      "name": "Exit",
      "type": "event"
    },
    {
      "anonymous": false,
      "inputs": [
        {
          "indexed": true,
          "internalType": "address",
          "name": "account",
          "type": "address"
        },
        {
          "indexed": false,
          "internalType": "uint256",
          "name": "gdai",
          "type": "uint256"
        },
        {
          "indexed": false,
          "internalType": "uint256",
          "name": "gsrBalance",
          "type": "uint256"
        }
      ],
      "name": "Join",
      "type": "event"
    },
    {
      "anonymous": false,
      "inputs": [
        {
          "indexed": true,
          "internalType": "address",
          "name": "from",
          "type": "address"
        },
        {
          "indexed": true,
          "internalType": "address",
          "name": "to",
          "type": "address"
        }
      ],
      "name": "NewOwnership",
      "type": "event"
    },
    {
      "anonymous": false,
      "inputs": [
        {
          "indexed": true,
          "internalType": "address",
          "name": "from",
          "type": "address"
        },
        {
          "indexed": true,
          "internalType": "address",
          "name": "to",
          "type": "address"
        }
      ],
      "name": "NewPendingOwnership",
      "type": "event"
    },
    {
      "anonymous": false,
      "inputs": [
        {
          "indexed": false,
          "internalType": "uint256",
          "name": "newRate",
          "type": "uint256"
        }
      ],
      "name": "SetRate",
      "type": "event"
    },
    {
      "inputs": [],
      "name": "acceptOwnership",
      "outputs": [],
      "stateMutability": "nonpayable",
      "type": "function"
    },
    {
      "inputs": [
        {
          "internalType": "address",
          "name": "",
          "type": "address"
        }
      ],
      "name": "balances",
      "outputs": [
        {
          "internalType": "uint256",
          "name": "",
          "type": "uint256"
        }
      ],
      "stateMutability": "view",
      "type": "function"
    },
    {
      "inputs": [
        {
          "internalType": "address",
          "name": "_account",
          "type": "address"
        }
      ],
      "name": "calcReturn",
      "outputs": [
        {
          "internalType": "uint256",
          "name": "totalBalance",
          "type": "uint256"
        }
      ],
      "stateMutability": "view",
      "type": "function"
    },
    {
      "inputs": [],
      "name": "calcUpdatedRate",
      "outputs": [
        {
          "internalType": "uint256",
          "name": "updatedRate",
          "type": "uint256"
        }
      ],
      "stateMutability": "view",
      "type": "function"
    },
    {
      "inputs": [],
      "name": "cumulativeInterestRate",
      "outputs": [
        {
          "internalType": "uint256",
          "name": "",
          "type": "uint256"
        }
      ],
      "stateMutability": "view",
      "type": "function"
    },
    {
      "inputs": [],
      "name": "drip",
      "outputs": [
        {
          "internalType": "uint256",
          "name": "updatedRate",
          "type": "uint256"
        }
      ],
      "stateMutability": "nonpayable",
      "type": "function"
    },
    {
      "inputs": [
        {
          "internalType": "uint256",
          "name": "_amount",
          "type": "uint256"
        }
      ],
      "name": "exit",
      "outputs": [],
      "stateMutability": "nonpayable",
      "type": "function"
    },
    {
      "inputs": [],
      "name": "governor",
      "outputs": [
        {
          "internalType": "address",
          "name": "",
          "type": "address"
        }
      ],
      "stateMutability": "view",
      "type": "function"
    },
    {
      "inputs": [
        {
          "internalType": "uint256",
          "name": "_amount",
          "type": "uint256"
        }
      ],
      "name": "join",
      "outputs": [],
      "stateMutability": "nonpayable",
      "type": "function"
    },
    {
      "inputs": [],
      "name": "lastDripTime",
      "outputs": [
        {
          "internalType": "uint256",
          "name": "",
          "type": "uint256"
        }
      ],
      "stateMutability": "view",
      "type": "function"
    },
    {
      "inputs": [],
      "name": "pendingGovernor",
      "outputs": [
        {
          "internalType": "address",
          "name": "",
          "type": "address"
        }
      ],
      "stateMutability": "view",
      "type": "function"
    },
    {
      "inputs": [],
      "name": "reserves",
      "outputs": [
        {
          "internalType": "uint256",
          "name": "",
          "type": "uint256"
        }
      ],
      "stateMutability": "view",
      "type": "function"
    },
    {
      "inputs": [],
      "name": "savingsRate",
      "outputs": [
        {
          "internalType": "uint256",
          "name": "",
          "type": "uint256"
        }
      ],
      "stateMutability": "view",
      "type": "function"
    },
    {
      "inputs": [
        {
          "internalType": "uint256",
          "name": "_newRate",
          "type": "uint256"
        }
      ],
      "name": "setRate",
      "outputs": [],
      "stateMutability": "nonpayable",
      "type": "function"
    },
    {
      "inputs": [],
      "name": "token",
      "outputs": [
        {
          "internalType": "contract GDAI",
          "name": "",
          "type": "address"
        }
      ],
      "stateMutability": "view",
      "type": "function"
    },
    {
      "inputs": [
        {
          "internalType": "address",
          "name": "_newGovernor",
          "type": "address"
        }
      ],
      "name": "transferOwnership",
      "outputs": [],
      "stateMutability": "nonpayable",
      "type": "function"
    }
  ],
  "bytecode": "0x608060405234801561001057600080fd5b50604051610ded380380610ded8339818101604052604081101561003357600080fd5b5080516020909101518161008e576040805162461bcd60e51b815260206004820152601a60248201527f536176696e677320726174652063616e2774206265207a65726f000000000000604482015290519081900360640190fd5b6100a1336100db60201b61096e1760201c565b670de0b6b3a764000060045542600555600291909155600780546001600160a01b0319166001600160a01b039092169190911790556100fd565b600080546001600160a01b0319166001600160a01b0392909216919091179055565b610ce18061010c6000396000f3fe608060405234801561001057600080fd5b50600436106101005760003560e01c806379ba509711610097578063e3056a3411610066578063e3056a3414610210578063f2fde38b14610218578063fba1f7b01461023e578063fc0c546a1461024657610100565b806379ba5097146101db5780637f8661a1146101e35780639f678cca14610200578063b3f4ba831461020857610100565b80633dfb4dac116100d35780633dfb4dac1461019d57806350c834fe146101a55780636ecd067f146101cb57806375172a8b146101d357610100565b8063049878f3146101055780630c340a241461012457806327e235e31461014857806334fcf43714610180575b600080fd5b6101226004803603602081101561011b57600080fd5b503561024e565b005b61012c61037a565b604080516001600160a01b039092168252519081900360200190f35b61016e6004803603602081101561015e57600080fd5b50356001600160a01b0316610389565b60408051918252519081900360200190f35b6101226004803603602081101561019657600080fd5b503561039b565b61016e610489565b61016e600480360360208110156101bb57600080fd5b50356001600160a01b031661048f565b61016e6104d5565b61016e6104db565b6101226104e1565b610122600480360360208110156101f957600080fd5b50356105f0565b61016e610713565b61016e610814565b61012c61084c565b6101226004803603602081101561022e57600080fd5b50356001600160a01b031661085b565b61016e610959565b61012c61095f565b610256610713565b506004546000906102799061027384670de0b6b3a7640000610990565b906109f2565b336000908152600660205260409020549091506102969082610a34565b336000908152600660205260409020556003546102b39082610a34565b600355600754604080516323b872dd60e01b81523360048201523060248201526044810185905290516001600160a01b03909216916323b872dd916064808201926020929091908290030181600087803b15801561031057600080fd5b505af1158015610324573d6000803e3d6000fd5b505050506040513d602081101561033a57600080fd5b50506040805183815260208101839052815133927fbca387acb0ba7d06e329c4372885bb664f19a98153ccf3e74e56c136bf0e88c4928290030190a25050565b6000546001600160a01b031681565b60066020526000908152604090205481565b6000546001600160a01b031633146103f3576040805162461bcd60e51b815260206004820152601660248201527513db9b1e4811dbdd995c9b9bdc8818d85b8818d85b1b60521b604482015290519081900360640190fd5b80610445576040805162461bcd60e51b815260206004820152601a60248201527f536176696e677320726174652063616e2774206265207a65726f000000000000604482015290519081900360640190fd5b61044d610713565b5060028190556040805182815290517f2640b4015d3473fd09bf2b30939e17deb4068cdacf3892136e737e166ceb32109181900360200190a150565b60045481565b60008061049a610814565b6001600160a01b0384166000908152600660205260409020549091506104ce90670de0b6b3a7640000906102739084610990565b9392505050565b60025481565b60035481565b6001546001600160a01b03161580159061050557506001546001600160a01b031633145b610556576040805162461bcd60e51b815260206004820152601f60248201527f43616c6c6572206d7573742062652070656e64696e6720676f7665726e6f7200604482015290519081900360640190fd5b60008054600180546001600160a01b038082166001600160a01b03198086168217808855931690935560405193811694929391169184917f0ac6deed30eef60090c749850e10f2fa469e3e25fec1d1bef2853003f6e6f18f9190a36001546040516001600160a01b03918216918316907f76563ad561b7036ae716b9b25cb521b21463240f104c97e12f25877f2235f33d90600090a35050565b6105f8610713565b50336000908152600660205260409020546106139082610a8e565b3360009081526006602052604081209190915560045461064290670de0b6b3a764000090610273908590610990565b6003549091506106529083610a8e565b6003556007546040805163a9059cbb60e01b81523360048201526024810184905290516001600160a01b039092169163a9059cbb916044808201926020929091908290030181600087803b1580156106a957600080fd5b505af11580156106bd573d6000803e3d6000fd5b505050506040513d60208110156106d357600080fd5b50506040805183815260208101839052815133927fbe0b6e5b3195df91f2e6b2b20501f84b085714f9e38073f499073c8305651009928290030190a25050565b600061071d610814565b9050600061073660045483610a8e90919063ffffffff16565b6004839055426005556007546003549192506001600160a01b0316906340c10f1990309061077290670de0b6b3a7640000906102739087610990565b6040518363ffffffff1660e01b815260040180836001600160a01b0316815260200182815260200192505050600060405180830381600087803b1580156107b857600080fd5b505af11580156107cc573d6000803e3d6000fd5b505060045460055460408051928352602083019190915280517fad1e8a53178522eb68a9d94d862bf30c841f709d2115f743eb6b34528751c79f945091829003019150a15090565b6000610847670de0b6b3a764000061027361083e6002546005544203670de0b6b3a7640000610ad0565b60045490610990565b905090565b6001546001600160a01b031681565b6000546001600160a01b031633146108b3576040805162461bcd60e51b815260206004820152601660248201527513db9b1e4811dbdd995c9b9bdc8818d85b8818d85b1b60521b604482015290519081900360640190fd5b6001600160a01b038116610905576040805162461bcd60e51b815260206004820152601460248201527311dbdd995c9b9bdc881b5d5cdd081899481cd95d60621b604482015290519081900360640190fd5b600180546001600160a01b038381166001600160a01b03198316179283905560405191811692169082907f76563ad561b7036ae716b9b25cb521b21463240f104c97e12f25877f2235f33d90600090a35050565b60055481565b6007546001600160a01b031681565b600080546001600160a01b0319166001600160a01b0392909216919091179055565b60008261099f575060006109ec565b828202828482816109ac57fe5b04146109e95760405162461bcd60e51b8152600401808060200182810382526021815260200180610c8b6021913960400191505060405180910390fd5b90505b92915050565b60006109e983836040518060400160405280601a81526020017f536166654d6174683a206469766973696f6e206279207a65726f000000000000815250610b8e565b6000828201838110156109e9576040805162461bcd60e51b815260206004820152601b60248201527f536166654d6174683a206164646974696f6e206f766572666c6f770000000000604482015290519081900360640190fd5b60006109e983836040518060400160405280601e81526020017f536166654d6174683a207375627472616374696f6e206f766572666c6f770000815250610c30565b6000838015610b7057600184168015610aeb57859250610aef565b8392505b50600283046002850494505b8415610b6a578586028687820414610b1257600080fd5b81810181811015610b2257600080fd5b8590049650506001851615610b5f578583028387820414158715151615610b4857600080fd5b81810181811015610b5857600080fd5b8590049350505b600285049450610afb565b50610b86565b838015610b805760009250610b84565b8392505b505b509392505050565b60008183610c1a5760405162461bcd60e51b81526004018080602001828103825283818151815260200191508051906020019080838360005b83811015610bdf578181015183820152602001610bc7565b50505050905090810190601f168015610c0c5780820380516001836020036101000a031916815260200191505b509250505060405180910390fd5b506000838581610c2657fe5b0495945050505050565b60008184841115610c825760405162461bcd60e51b8152602060048201818152835160248401528351909283926044909101919085019080838360008315610bdf578181015183820152602001610bc7565b50505090039056fe536166654d6174683a206d756c7469706c69636174696f6e206f766572666c6f77a26469706673582212206503c3cad14d33790133525452010db7318450c95caa1eba9011caf1cfb1594f64736f6c63430007040033",
  "linkReferences": {},
  "deployedLinkReferences": {}
}