{
  "address": "0x11682Df78472B8c533160E898f8D1b134AE1CE0D",
  "abi": [
    {
      "inputs": [
        {
          "internalType": "contract IERC20",
          "name": "_graphToken",
          "type": "address"
        },
        {
          "internalType": "address",
          "name": "_masterCopy",
          "type": "address"
        }
      ],
      "stateMutability": "nonpayable",
      "type": "constructor"
    },
    {
      "anonymous": false,
      "inputs": [
        {
          "indexed": true,
          "internalType": "address",
          "name": "caller",
          "type": "address"
        },
        {
          "indexed": true,
          "internalType": "bytes4",
          "name": "sigHash",
          "type": "bytes4"
        },
        {
          "indexed": true,
          "internalType": "address",
          "name": "target",
          "type": "address"
        },
        {
          "indexed": false,
          "internalType": "string",
          "name": "signature",
          "type": "string"
        }
      ],
      "name": "FunctionCallAuth",
      "type": "event"
    },
    {
      "anonymous": false,
      "inputs": [
        {
          "indexed": true,
          "internalType": "address",
          "name": "masterCopy",
          "type": "address"
        }
      ],
      "name": "MasterCopyUpdated",
      "type": "event"
    },
    {
      "anonymous": false,
      "inputs": [
        {
          "indexed": true,
          "internalType": "address",
          "name": "previousOwner",
          "type": "address"
        },
        {
          "indexed": true,
          "internalType": "address",
          "name": "newOwner",
          "type": "address"
        }
      ],
      "name": "OwnershipTransferred",
      "type": "event"
    },
    {
      "anonymous": false,
      "inputs": [
        {
          "indexed": true,
          "internalType": "address",
          "name": "proxy",
          "type": "address"
        }
      ],
      "name": "ProxyCreated",
      "type": "event"
    },
    {
      "anonymous": false,
      "inputs": [
        {
          "indexed": true,
          "internalType": "address",
          "name": "dst",
          "type": "address"
        },
        {
          "indexed": false,
          "internalType": "bool",
          "name": "allowed",
          "type": "bool"
        }
      ],
      "name": "TokenDestinationAllowed",
      "type": "event"
    },
    {
      "anonymous": false,
      "inputs": [
        {
          "indexed": true,
          "internalType": "address",
          "name": "contractAddress",
          "type": "address"
        },
        {
          "indexed": true,
          "internalType": "bytes32",
          "name": "initHash",
          "type": "bytes32"
        },
        {
          "indexed": true,
          "internalType": "address",
          "name": "beneficiary",
          "type": "address"
        },
        {
          "indexed": false,
          "internalType": "address",
          "name": "token",
          "type": "address"
        },
        {
          "indexed": false,
          "internalType": "uint256",
          "name": "managedAmount",
          "type": "uint256"
        },
        {
          "indexed": false,
          "internalType": "uint256",
          "name": "startTime",
          "type": "uint256"
        },
        {
          "indexed": false,
          "internalType": "uint256",
          "name": "endTime",
          "type": "uint256"
        },
        {
          "indexed": false,
          "internalType": "uint256",
          "name": "periods",
          "type": "uint256"
        },
        {
          "indexed": false,
          "internalType": "uint256",
          "name": "releaseStartTime",
          "type": "uint256"
        },
        {
          "indexed": false,
          "internalType": "uint256",
          "name": "vestingCliffTime",
          "type": "uint256"
        },
        {
          "indexed": false,
          "internalType": "enum IGraphTokenLock.Revocability",
          "name": "revocable",
          "type": "uint8"
        }
      ],
      "name": "TokenLockCreated",
      "type": "event"
    },
    {
      "anonymous": false,
      "inputs": [
        {
          "indexed": true,
          "internalType": "address",
          "name": "sender",
          "type": "address"
        },
        {
          "indexed": false,
          "internalType": "uint256",
          "name": "amount",
          "type": "uint256"
        }
      ],
      "name": "TokensDeposited",
      "type": "event"
    },
    {
      "anonymous": false,
      "inputs": [
        {
          "indexed": true,
          "internalType": "address",
          "name": "sender",
          "type": "address"
        },
        {
          "indexed": false,
          "internalType": "uint256",
          "name": "amount",
          "type": "uint256"
        }
      ],
      "name": "TokensWithdrawn",
      "type": "event"
    },
    {
      "inputs": [
        {
          "internalType": "address",
          "name": "_dst",
          "type": "address"
        }
      ],
      "name": "addTokenDestination",
      "outputs": [],
      "stateMutability": "nonpayable",
      "type": "function"
    },
    {
      "inputs": [
        {
          "internalType": "bytes4",
          "name": "",
          "type": "bytes4"
        }
      ],
      "name": "authFnCalls",
      "outputs": [
        {
          "internalType": "address",
          "name": "",
          "type": "address"
        }
      ],
      "stateMutability": "view",
      "type": "function"
    },
    {
      "inputs": [
        {
          "internalType": "address",
          "name": "_owner",
          "type": "address"
        },
        {
          "internalType": "address",
          "name": "_beneficiary",
          "type": "address"
        },
        {
          "internalType": "uint256",
          "name": "_managedAmount",
          "type": "uint256"
        },
        {
          "internalType": "uint256",
          "name": "_startTime",
          "type": "uint256"
        },
        {
          "internalType": "uint256",
          "name": "_endTime",
          "type": "uint256"
        },
        {
          "internalType": "uint256",
          "name": "_periods",
          "type": "uint256"
        },
        {
          "internalType": "uint256",
          "name": "_releaseStartTime",
          "type": "uint256"
        },
        {
          "internalType": "uint256",
          "name": "_vestingCliffTime",
          "type": "uint256"
        },
        {
          "internalType": "enum IGraphTokenLock.Revocability",
          "name": "_revocable",
          "type": "uint8"
        }
      ],
      "name": "createTokenLockWallet",
      "outputs": [],
      "stateMutability": "nonpayable",
      "type": "function"
    },
    {
      "inputs": [
        {
          "internalType": "uint256",
          "name": "_amount",
          "type": "uint256"
        }
      ],
      "name": "deposit",
      "outputs": [],
      "stateMutability": "nonpayable",
      "type": "function"
    },
    {
      "inputs": [
        {
          "internalType": "bytes4",
          "name": "_sigHash",
          "type": "bytes4"
        }
      ],
      "name": "getAuthFunctionCallTarget",
      "outputs": [
        {
          "internalType": "address",
          "name": "",
          "type": "address"
        }
      ],
      "stateMutability": "view",
      "type": "function"
    },
    {
      "inputs": [
        {
          "internalType": "bytes32",
          "name": "_salt",
          "type": "bytes32"
        },
        {
          "internalType": "address",
          "name": "_implementation",
          "type": "address"
        },
        {
          "internalType": "address",
          "name": "_deployer",
          "type": "address"
        }
      ],
      "name": "getDeploymentAddress",
      "outputs": [
        {
          "internalType": "address",
          "name": "",
          "type": "address"
        }
      ],
      "stateMutability": "pure",
      "type": "function"
    },
    {
      "inputs": [
        {
          "internalType": "bytes32",
          "name": "_salt",
          "type": "bytes32"
        },
        {
          "internalType": "address",
          "name": "_implementation",
          "type": "address"
        }
      ],
      "name": "getDeploymentAddress",
      "outputs": [
        {
          "internalType": "address",
          "name": "",
          "type": "address"
        }
      ],
      "stateMutability": "view",
      "type": "function"
    },
    {
      "inputs": [],
      "name": "getTokenDestinations",
      "outputs": [
        {
          "internalType": "address[]",
          "name": "",
          "type": "address[]"
        }
      ],
      "stateMutability": "view",
      "type": "function"
    },
    {
      "inputs": [
        {
          "internalType": "bytes4",
          "name": "_sigHash",
          "type": "bytes4"
        }
      ],
      "name": "isAuthFunctionCall",
      "outputs": [
        {
          "internalType": "bool",
          "name": "",
          "type": "bool"
        }
      ],
      "stateMutability": "view",
      "type": "function"
    },
    {
      "inputs": [
        {
          "internalType": "address",
          "name": "_dst",
          "type": "address"
        }
      ],
      "name": "isTokenDestination",
      "outputs": [
        {
          "internalType": "bool",
          "name": "",
          "type": "bool"
        }
      ],
      "stateMutability": "view",
      "type": "function"
    },
    {
      "inputs": [],
      "name": "masterCopy",
      "outputs": [
        {
          "internalType": "address",
          "name": "",
          "type": "address"
        }
      ],
      "stateMutability": "view",
      "type": "function"
    },
    {
      "inputs": [],
      "name": "owner",
      "outputs": [
        {
          "internalType": "address",
          "name": "",
          "type": "address"
        }
      ],
      "stateMutability": "view",
      "type": "function"
    },
    {
      "inputs": [
        {
          "internalType": "address",
          "name": "_dst",
          "type": "address"
        }
      ],
      "name": "removeTokenDestination",
      "outputs": [],
      "stateMutability": "nonpayable",
      "type": "function"
    },
    {
      "inputs": [],
      "name": "renounceOwnership",
      "outputs": [],
      "stateMutability": "nonpayable",
      "type": "function"
    },
    {
      "inputs": [
        {
          "internalType": "string",
          "name": "_signature",
          "type": "string"
        },
        {
          "internalType": "address",
          "name": "_target",
          "type": "address"
        }
      ],
      "name": "setAuthFunctionCall",
      "outputs": [],
      "stateMutability": "nonpayable",
      "type": "function"
    },
    {
      "inputs": [
        {
          "internalType": "string[]",
          "name": "_signatures",
          "type": "string[]"
        },
        {
          "internalType": "address[]",
          "name": "_targets",
          "type": "address[]"
        }
      ],
      "name": "setAuthFunctionCallMany",
      "outputs": [],
      "stateMutability": "nonpayable",
      "type": "function"
    },
    {
      "inputs": [
        {
          "internalType": "address",
          "name": "_masterCopy",
          "type": "address"
        }
      ],
      "name": "setMasterCopy",
      "outputs": [],
      "stateMutability": "nonpayable",
      "type": "function"
    },
    {
      "inputs": [],
      "name": "token",
      "outputs": [
        {
          "internalType": "contract IERC20",
          "name": "",
          "type": "address"
        }
      ],
      "stateMutability": "view",
      "type": "function"
    },
    {
      "inputs": [
        {
          "internalType": "address",
          "name": "newOwner",
          "type": "address"
        }
      ],
      "name": "transferOwnership",
      "outputs": [],
      "stateMutability": "nonpayable",
      "type": "function"
    },
    {
      "inputs": [
        {
          "internalType": "string",
          "name": "_signature",
          "type": "string"
        }
      ],
      "name": "unsetAuthFunctionCall",
      "outputs": [],
      "stateMutability": "nonpayable",
      "type": "function"
    },
    {
      "inputs": [
        {
          "internalType": "uint256",
          "name": "_amount",
          "type": "uint256"
        }
      ],
      "name": "withdraw",
      "outputs": [],
      "stateMutability": "nonpayable",
      "type": "function"
    }
  ],
  "transactionHash": "0x789ed81816498d4826ba8ef43a8f9396030694029fb331243388b1be4876e15a",
  "args": [
    "0xCA59cCeb39bE1808d7aA607153f4A5062daF3a83",
    "0xd8a03C88984d5669d467aE72Fbb21cD7Ce6E08D4"
  ],
  "solcInputHash": "095bd30babc75057be19228ca1fd7aa4",
  "bytecode": "0x60806040523480156200001157600080fd5b5060405162003d1b38038062003d1b83398181016040528101906200003791906200039c565b600062000049620001b460201b60201c565b9050806000806101000a81548173ffffffffffffffffffffffffffffffffffffffff021916908373ffffffffffffffffffffffffffffffffffffffff1602179055508073ffffffffffffffffffffffffffffffffffffffff16600073ffffffffffffffffffffffffffffffffffffffff167f8be0079c531659141344cd1fd0a4f28419497f9722a3daafe3b4186f6b6457e060405160405180910390a350600073ffffffffffffffffffffffffffffffffffffffff168273ffffffffffffffffffffffffffffffffffffffff1614156200015a576040517f08c379a00000000000000000000000000000000000000000000000000000000081526004016200015190620004e7565b60405180910390fd5b81600560006101000a81548173ffffffffffffffffffffffffffffffffffffffff021916908373ffffffffffffffffffffffffffffffffffffffff160217905550620001ac81620001bc60201b60201c565b505062000596565b600033905090565b620001cc620001b460201b60201c565b73ffffffffffffffffffffffffffffffffffffffff16620001f26200034560201b60201c565b73ffffffffffffffffffffffffffffffffffffffff16146200024b576040517f08c379a00000000000000000000000000000000000000000000000000000000081526004016200024290620004c5565b60405180910390fd5b600073ffffffffffffffffffffffffffffffffffffffff168173ffffffffffffffffffffffffffffffffffffffff161415620002be576040517f08c379a0000000000000000000000000000000000000000000000000000000008152600401620002b590620004a3565b60405180910390fd5b80600460006101000a81548173ffffffffffffffffffffffffffffffffffffffff021916908373ffffffffffffffffffffffffffffffffffffffff1602179055508073ffffffffffffffffffffffffffffffffffffffff167f30909084afc859121ffc3a5aef7fe37c540a9a1ef60bd4d8dcdb76376fadf9de60405160405180910390a250565b60008060009054906101000a900473ffffffffffffffffffffffffffffffffffffffff16905090565b6000815190506200037f8162000562565b92915050565b60008151905062000396816200057c565b92915050565b60008060408385031215620003b057600080fd5b6000620003c08582860162000385565b9250506020620003d3858286016200036e565b9150509250929050565b6000620003ec60198362000509565b91507f4d6173746572436f70792063616e6e6f74206265207a65726f000000000000006000830152602082019050919050565b60006200042e60208362000509565b91507f4f776e61626c653a2063616c6c6572206973206e6f7420746865206f776e65726000830152602082019050919050565b60006200047060148362000509565b91507f546f6b656e2063616e6e6f74206265207a65726f0000000000000000000000006000830152602082019050919050565b60006020820190508181036000830152620004be81620003dd565b9050919050565b60006020820190508181036000830152620004e0816200041f565b9050919050565b60006020820190508181036000830152620005028162000461565b9050919050565b600082825260208201905092915050565b6000620005278262000542565b9050919050565b60006200053b826200051a565b9050919050565b600073ffffffffffffffffffffffffffffffffffffffff82169050919050565b6200056d816200051a565b81146200057957600080fd5b50565b62000587816200052e565b81146200059357600080fd5b50565b61377580620005a66000396000f3fe608060405234801561001057600080fd5b50600436106101375760003560e01c80638da5cb5b116100b8578063bdb62fbe1161007c578063bdb62fbe14610324578063c1ab13db14610354578063cf497e6c14610370578063f1d24c451461038c578063f2fde38b146103bc578063fc0c546a146103d857610137565b80638da5cb5b146102925780639c05fc60146102b0578063a3457466146102cc578063a619486e146102ea578063b6b55f251461030857610137565b80635975e00c116100ff5780635975e00c146101f057806368d30c2e1461020c5780636e03b8dc14610228578063715018a61461025857806379ee1bdf1461026257610137565b806303990a6c1461013c5780630602ba2b146101585780632e1a7d4d1461018857806343fb93d9146101a4578063463013a2146101d4575b600080fd5b610156600480360381019061015191906125c6565b6103f6565b005b610172600480360381019061016d919061259d565b61059e565b60405161017f91906130b5565b60405180910390f35b6101a2600480360381019061019d9190612663565b6105df565b005b6101be60048036038101906101b9919061254e565b61073c565b6040516101cb9190612eef565b60405180910390f35b6101ee60048036038101906101e9919061260b565b610761565b005b61020a60048036038101906102059190612385565b6107ed565b005b610226600480360381019061022191906123ae565b61097e565b005b610242600480360381019061023d919061259d565b610cc6565b60405161024f9190612eef565b60405180910390f35b610260610cf9565b005b61027c60048036038101906102779190612385565b610e33565b60405161028991906130b5565b60405180910390f35b61029a610e50565b6040516102a79190612eef565b60405180910390f35b6102ca60048036038101906102c59190612474565b610e79565b005b6102d4610fa6565b6040516102e19190613093565b60405180910390f35b6102f261107e565b6040516102ff9190612eef565b60405180910390f35b610322600480360381019061031d9190612663565b6110a4565b005b61033e60048036038101906103399190612512565b611187565b60405161034b9190612eef565b60405180910390f35b61036e60048036038101906103699190612385565b61119c565b005b61038a60048036038101906103859190612385565b6112bd565b005b6103a660048036038101906103a1919061259d565b611430565b6040516103b39190612eef565b60405180910390f35b6103d660048036038101906103d19190612385565b6114ab565b005b6103e0611654565b6040516103ed91906130d0565b60405180910390f35b6103fe61167e565b73ffffffffffffffffffffffffffffffffffffffff1661041c610e50565b73ffffffffffffffffffffffffffffffffffffffff1614610472576040517f08c379a0000000000000000000000000000000000000000000000000000000008152600401610469906132b1565b60405180910390fd5b600061047e8383611686565b9050600060016000837bffffffffffffffffffffffffffffffffffffffffffffffffffffffff19167bffffffffffffffffffffffffffffffffffffffffffffffffffffffff1916815260200190815260200160002060006101000a81548173ffffffffffffffffffffffffffffffffffffffff021916908373ffffffffffffffffffffffffffffffffffffffff160217905550600073ffffffffffffffffffffffffffffffffffffffff16817bffffffffffffffffffffffffffffffffffffffffffffffffffffffff19163373ffffffffffffffffffffffffffffffffffffffff167f450397a2db0e89eccfe664cc6cdfd274a88bc00d29aaec4d991754a42f19f8c986866040516105919291906130eb565b60405180910390a4505050565b60008073ffffffffffffffffffffffffffffffffffffffff166105c083611430565b73ffffffffffffffffffffffffffffffffffffffff1614159050919050565b6105e761167e565b73ffffffffffffffffffffffffffffffffffffffff16610605610e50565b73ffffffffffffffffffffffffffffffffffffffff161461065b576040517f08c379a0000000000000000000000000000000000000000000000000000000008152600401610652906132b1565b60405180910390fd5b6000811161069e576040517f08c379a000000000000000000000000000000000000000000000000000000000815260040161069590613291565b60405180910390fd5b6106eb3382600560009054906101000a900473ffffffffffffffffffffffffffffffffffffffff1673ffffffffffffffffffffffffffffffffffffffff166117149092919063ffffffff16565b3373ffffffffffffffffffffffffffffffffffffffff167f6352c5382c4a4578e712449ca65e83cdb392d045dfcf1cad9615189db2da244b826040516107319190613391565b60405180910390a250565b60006107588461074b8561179a565b8051906020012084611810565b90509392505050565b61076961167e565b73ffffffffffffffffffffffffffffffffffffffff16610787610e50565b73ffffffffffffffffffffffffffffffffffffffff16146107dd576040517f08c379a00000000000000000000000000000000000000000000000000000000081526004016107d4906132b1565b60405180910390fd5b6107e8838383611854565b505050565b6107f561167e565b73ffffffffffffffffffffffffffffffffffffffff16610813610e50565b73ffffffffffffffffffffffffffffffffffffffff1614610869576040517f08c379a0000000000000000000000000000000000000000000000000000000008152600401610860906132b1565b60405180910390fd5b600073ffffffffffffffffffffffffffffffffffffffff168173ffffffffffffffffffffffffffffffffffffffff1614156108d9576040517f08c379a00000000000000000000000000000000000000000000000000000000081526004016108d090613191565b60405180910390fd5b6108ed816002611a3690919063ffffffff16565b61092c576040517f08c379a0000000000000000000000000000000000000000000000000000000008152600401610923906132f1565b60405180910390fd5b8073ffffffffffffffffffffffffffffffffffffffff167f33442b8c13e72dd75a027f08f9bff4eed2dfd26e43cdea857365f5163b359a79600160405161097391906130b5565b60405180910390a250565b61098661167e565b73ffffffffffffffffffffffffffffffffffffffff166109a4610e50565b73ffffffffffffffffffffffffffffffffffffffff16146109fa576040517f08c379a00000000000000000000000000000000000000000000000000000000081526004016109f1906132b1565b60405180910390fd5b86600560009054906101000a900473ffffffffffffffffffffffffffffffffffffffff1673ffffffffffffffffffffffffffffffffffffffff166370a08231306040518263ffffffff1660e01b8152600401610a569190612eef565b60206040518083038186803b158015610a6e57600080fd5b505afa158015610a82573d6000803e3d6000fd5b505050506040513d601f19601f82011682018060405250810190610aa6919061268c565b1015610ae7576040517f08c379a0000000000000000000000000000000000000000000000000000000008152600401610ade906131d1565b60405180910390fd5b606063bd896dcb60e01b308b8b600560009054906101000a900473ffffffffffffffffffffffffffffffffffffffff168c8c8c8c8c8c8c604051602401610b389b9a99989796959493929190612f0a565b604051602081830303815290604052907bffffffffffffffffffffffffffffffffffffffffffffffffffffffff19166020820180517bffffffffffffffffffffffffffffffffffffffffffffffffffffffff838183161783525050505090506000610bcd8280519060200120600460009054906101000a900473ffffffffffffffffffffffffffffffffffffffff1684611a66565b9050610c1c818a600560009054906101000a900473ffffffffffffffffffffffffffffffffffffffff1673ffffffffffffffffffffffffffffffffffffffff166117149092919063ffffffff16565b8973ffffffffffffffffffffffffffffffffffffffff1682805190602001208273ffffffffffffffffffffffffffffffffffffffff167f3c7ff6acee351ed98200c285a04745858a107e16da2f13c3a81a43073c17d644600560009054906101000a900473ffffffffffffffffffffffffffffffffffffffff168d8d8d8d8d8d8d604051610cb1989796959493929190613015565b60405180910390a45050505050505050505050565b60016020528060005260406000206000915054906101000a900473ffffffffffffffffffffffffffffffffffffffff1681565b610d0161167e565b73ffffffffffffffffffffffffffffffffffffffff16610d1f610e50565b73ffffffffffffffffffffffffffffffffffffffff1614610d75576040517f08c379a0000000000000000000000000000000000000000000000000000000008152600401610d6c906132b1565b60405180910390fd5b600073ffffffffffffffffffffffffffffffffffffffff1660008054906101000a900473ffffffffffffffffffffffffffffffffffffffff1673ffffffffffffffffffffffffffffffffffffffff167f8be0079c531659141344cd1fd0a4f28419497f9722a3daafe3b4186f6b6457e060405160405180910390a360008060006101000a81548173ffffffffffffffffffffffffffffffffffffffff021916908373ffffffffffffffffffffffffffffffffffffffff160217905550565b6000610e49826002611ae290919063ffffffff16565b9050919050565b60008060009054906101000a900473ffffffffffffffffffffffffffffffffffffffff16905090565b610e8161167e565b73ffffffffffffffffffffffffffffffffffffffff16610e9f610e50565b73ffffffffffffffffffffffffffffffffffffffff1614610ef5576040517f08c379a0000000000000000000000000000000000000000000000000000000008152600401610eec906132b1565b60405180910390fd5b818190508484905014610f3d576040517f08c379a0000000000000000000000000000000000000000000000000000000008152600401610f3490613171565b60405180910390fd5b60005b84849050811015610f9f57610f92858583818110610f5a57fe5b9050602002810190610f6c91906133ac565b858585818110610f7857fe5b9050602002016020810190610f8d9190612385565b611854565b8080600101915050610f40565b5050505050565b606080610fb36002611b12565b67ffffffffffffffff81118015610fc957600080fd5b50604051908082528060200260200182016040528015610ff85781602001602082028036833780820191505090505b50905060005b6110086002611b12565b81101561107657611023816002611b2790919063ffffffff16565b82828151811061102f57fe5b602002602001019073ffffffffffffffffffffffffffffffffffffffff16908173ffffffffffffffffffffffffffffffffffffffff16815250508080600101915050610ffe565b508091505090565b600460009054906101000a900473ffffffffffffffffffffffffffffffffffffffff1681565b600081116110e7576040517f08c379a00000000000000000000000000000000000000000000000000000000081526004016110de90613291565b60405180910390fd5b611136333083600560009054906101000a900473ffffffffffffffffffffffffffffffffffffffff1673ffffffffffffffffffffffffffffffffffffffff16611b41909392919063ffffffff16565b3373ffffffffffffffffffffffffffffffffffffffff167f59062170a285eb80e8c6b8ced60428442a51910635005233fc4ce084a475845e8260405161117c9190613391565b60405180910390a250565b600061119483833061073c565b905092915050565b6111a461167e565b73ffffffffffffffffffffffffffffffffffffffff166111c2610e50565b73ffffffffffffffffffffffffffffffffffffffff1614611218576040517f08c379a000000000000000000000000000000000000000000000000000000000815260040161120f906132b1565b60405180910390fd5b61122c816002611bca90919063ffffffff16565b61126b576040517f08c379a000000000000000000000000000000000000000000000000000000000815260040161126290613211565b60405180910390fd5b8073ffffffffffffffffffffffffffffffffffffffff167f33442b8c13e72dd75a027f08f9bff4eed2dfd26e43cdea857365f5163b359a7960006040516112b291906130b5565b60405180910390a250565b6112c561167e565b73ffffffffffffffffffffffffffffffffffffffff166112e3610e50565b73ffffffffffffffffffffffffffffffffffffffff1614611339576040517f08c379a0000000000000000000000000000000000000000000000000000000008152600401611330906132b1565b60405180910390fd5b600073ffffffffffffffffffffffffffffffffffffffff168173ffffffffffffffffffffffffffffffffffffffff1614156113a9576040517f08c379a00000000000000000000000000000000000000000000000000000000081526004016113a090613231565b60405180910390fd5b80600460006101000a81548173ffffffffffffffffffffffffffffffffffffffff021916908373ffffffffffffffffffffffffffffffffffffffff1602179055508073ffffffffffffffffffffffffffffffffffffffff167f30909084afc859121ffc3a5aef7fe37c540a9a1ef60bd4d8dcdb76376fadf9de60405160405180910390a250565b600060016000837bffffffffffffffffffffffffffffffffffffffffffffffffffffffff19167bffffffffffffffffffffffffffffffffffffffffffffffffffffffff1916815260200190815260200160002060009054906101000a900473ffffffffffffffffffffffffffffffffffffffff169050919050565b6114b361167e565b73ffffffffffffffffffffffffffffffffffffffff166114d1610e50565b73ffffffffffffffffffffffffffffffffffffffff1614611527576040517f08c379a000000000000000000000000000000000000000000000000000000000815260040161151e906132b1565b60405180910390fd5b600073ffffffffffffffffffffffffffffffffffffffff168173ffffffffffffffffffffffffffffffffffffffff161415611597576040517f08c379a000000000000000000000000000000000000000000000000000000000815260040161158e906131b1565b60405180910390fd5b8073ffffffffffffffffffffffffffffffffffffffff1660008054906101000a900473ffffffffffffffffffffffffffffffffffffffff1673ffffffffffffffffffffffffffffffffffffffff167f8be0079c531659141344cd1fd0a4f28419497f9722a3daafe3b4186f6b6457e060405160405180910390a3806000806101000a81548173ffffffffffffffffffffffffffffffffffffffff021916908373ffffffffffffffffffffffffffffffffffffffff16021790555050565b6000600560009054906101000a900473ffffffffffffffffffffffffffffffffffffffff16905090565b600033905090565b600061170c838360405160240160405160208183030381529060405291906040516116b2929190612ed6565b60405180910390207bffffffffffffffffffffffffffffffffffffffffffffffffffffffff19166020820180517bffffffffffffffffffffffffffffffffffffffffffffffffffffffff8381831617835250505050611bfa565b905092915050565b6117958363a9059cbb60e01b8484604051602401611733929190612fec565b604051602081830303815290604052907bffffffffffffffffffffffffffffffffffffffffffffffffffffffff19166020820180517bffffffffffffffffffffffffffffffffffffffffffffffffffffffff8381831617835250505050611c52565b505050565b60606000693d602d80600a3d3981f360b01b9050600069363d3d373d3d3d363d7360b01b905060008460601b905060006e5af43d82803e903d91602b57fd5bf360881b9050838383836040516020016117f69493929190612e23565b604051602081830303815290604052945050505050919050565b60008060ff60f81b83868660405160200161182e9493929190612e71565b6040516020818303038152906040528051906020012090508060001c9150509392505050565b3073ffffffffffffffffffffffffffffffffffffffff168173ffffffffffffffffffffffffffffffffffffffff1614156118c3576040517f08c379a00000000000000000000000000000000000000000000000000000000081526004016118ba90613251565b60405180910390fd5b6118cc81611d19565b61190b576040517f08c379a000000000000000000000000000000000000000000000000000000000815260040161190290613371565b60405180910390fd5b60006119178484611686565b90508160016000837bffffffffffffffffffffffffffffffffffffffffffffffffffffffff19167bffffffffffffffffffffffffffffffffffffffffffffffffffffffff1916815260200190815260200160002060006101000a81548173ffffffffffffffffffffffffffffffffffffffff021916908373ffffffffffffffffffffffffffffffffffffffff1602179055508173ffffffffffffffffffffffffffffffffffffffff16817bffffffffffffffffffffffffffffffffffffffffffffffffffffffff19163373ffffffffffffffffffffffffffffffffffffffff167f450397a2db0e89eccfe664cc6cdfd274a88bc00d29aaec4d991754a42f19f8c98787604051611a289291906130eb565b60405180910390a450505050565b6000611a5e836000018373ffffffffffffffffffffffffffffffffffffffff1660001b611d2c565b905092915050565b600080611a7d600086611a788761179a565b611d9c565b90508073ffffffffffffffffffffffffffffffffffffffff167efffc2da0b561cae30d9826d37709e9421c4725faebc226cbbb7ef5fc5e734960405160405180910390a2600083511115611ad757611ad58184611ead565b505b809150509392505050565b6000611b0a836000018373ffffffffffffffffffffffffffffffffffffffff1660001b611ef7565b905092915050565b6000611b2082600001611f1a565b9050919050565b6000611b368360000183611f2b565b60001c905092915050565b611bc4846323b872dd60e01b858585604051602401611b6293929190612fb5565b604051602081830303815290604052907bffffffffffffffffffffffffffffffffffffffffffffffffffffffff19166020820180517bffffffffffffffffffffffffffffffffffffffffffffffffffffffff8381831617835250505050611c52565b50505050565b6000611bf2836000018373ffffffffffffffffffffffffffffffffffffffff1660001b611f98565b905092915050565b60006004825114611c40576040517f08c379a0000000000000000000000000000000000000000000000000000000008152600401611c37906132d1565b60405180910390fd5b60006020830151905080915050919050565b6060611cb4826040518060400160405280602081526020017f5361666545524332303a206c6f772d6c6576656c2063616c6c206661696c65648152508573ffffffffffffffffffffffffffffffffffffffff166120809092919063ffffffff16565b9050600081511115611d145780806020019051810190611cd491906124e9565b611d13576040517f08c379a0000000000000000000000000000000000000000000000000000000008152600401611d0a90613331565b60405180910390fd5b5b505050565b600080823b905060008111915050919050565b6000611d388383611ef7565b611d91578260000182908060018154018082558091505060019003906000526020600020016000909190919091505582600001805490508360010160008481526020019081526020016000208190555060019050611d96565b600090505b92915050565b60008084471015611de2576040517f08c379a0000000000000000000000000000000000000000000000000000000008152600401611dd990613351565b60405180910390fd5b600083511415611e27576040517f08c379a0000000000000000000000000000000000000000000000000000000008152600401611e1e90613151565b60405180910390fd5b8383516020850187f59050600073ffffffffffffffffffffffffffffffffffffffff168173ffffffffffffffffffffffffffffffffffffffff161415611ea2576040517f08c379a0000000000000000000000000000000000000000000000000000000008152600401611e9990613271565b60405180910390fd5b809150509392505050565b6060611eef83836040518060400160405280601e81526020017f416464726573733a206c6f772d6c6576656c2063616c6c206661696c65640000815250612080565b905092915050565b600080836001016000848152602001908152602001600020541415905092915050565b600081600001805490509050919050565b600081836000018054905011611f76576040517f08c379a0000000000000000000000000000000000000000000000000000000008152600401611f6d90613131565b60405180910390fd5b826000018281548110611f8557fe5b9060005260206000200154905092915050565b600080836001016000848152602001908152602001600020549050600081146120745760006001820390506000600186600001805490500390506000866000018281548110611fe357fe5b906000526020600020015490508087600001848154811061200057fe5b906000526020600020018190555060018301876001016000838152602001908152602001600020819055508660000180548061203857fe5b6001900381819060005260206000200160009055905586600101600087815260200190815260200160002060009055600194505050505061207a565b60009150505b92915050565b606061208f8484600085612098565b90509392505050565b6060824710156120dd576040517f08c379a00000000000000000000000000000000000000000000000000000000081526004016120d4906131f1565b60405180910390fd5b6120e685611d19565b612125576040517f08c379a000000000000000000000000000000000000000000000000000000000815260040161211c90613311565b60405180910390fd5b600060608673ffffffffffffffffffffffffffffffffffffffff16858760405161214f9190612ebf565b60006040518083038185875af1925050503d806000811461218c576040519150601f19603f3d011682016040523d82523d6000602084013e612191565b606091505b50915091506121a18282866121ad565b92505050949350505050565b606083156121bd5782905061220d565b6000835111156121d05782518084602001fd5b816040517f08c379a0000000000000000000000000000000000000000000000000000000008152600401612204919061310f565b60405180910390fd5b9392505050565b600081359050612223816136bc565b92915050565b60008083601f84011261223b57600080fd5b8235905067ffffffffffffffff81111561225457600080fd5b60208301915083602082028301111561226c57600080fd5b9250929050565b60008083601f84011261228557600080fd5b8235905067ffffffffffffffff81111561229e57600080fd5b6020830191508360208202830111156122b657600080fd5b9250929050565b6000815190506122cc816136d3565b92915050565b6000813590506122e1816136ea565b92915050565b6000813590506122f681613701565b92915050565b60008135905061230b81613718565b92915050565b60008083601f84011261232357600080fd5b8235905067ffffffffffffffff81111561233c57600080fd5b60208301915083600182028301111561235457600080fd5b9250929050565b60008135905061236a81613728565b92915050565b60008151905061237f81613728565b92915050565b60006020828403121561239757600080fd5b60006123a584828501612214565b91505092915050565b60008060008060008060008060006101208a8c0312156123cd57600080fd5b60006123db8c828d01612214565b99505060206123ec8c828d01612214565b98505060406123fd8c828d0161235b565b975050606061240e8c828d0161235b565b965050608061241f8c828d0161235b565b95505060a06124308c828d0161235b565b94505060c06124418c828d0161235b565b93505060e06124528c828d0161235b565b9250506101006124648c828d016122fc565b9150509295985092959850929598565b6000806000806040858703121561248a57600080fd5b600085013567ffffffffffffffff8111156124a457600080fd5b6124b087828801612273565b9450945050602085013567ffffffffffffffff8111156124cf57600080fd5b6124db87828801612229565b925092505092959194509250565b6000602082840312156124fb57600080fd5b6000612509848285016122bd565b91505092915050565b6000806040838503121561252557600080fd5b6000612533858286016122d2565b925050602061254485828601612214565b9150509250929050565b60008060006060848603121561256357600080fd5b6000612571868287016122d2565b935050602061258286828701612214565b925050604061259386828701612214565b9150509250925092565b6000602082840312156125af57600080fd5b60006125bd848285016122e7565b91505092915050565b600080602083850312156125d957600080fd5b600083013567ffffffffffffffff8111156125f357600080fd5b6125ff85828601612311565b92509250509250929050565b60008060006040848603121561262057600080fd5b600084013567ffffffffffffffff81111561263a57600080fd5b61264686828701612311565b9350935050602061265986828701612214565b9150509250925092565b60006020828403121561267557600080fd5b60006126838482850161235b565b91505092915050565b60006020828403121561269e57600080fd5b60006126ac84828501612370565b91505092915050565b60006126c183836126cd565b60208301905092915050565b6126d681613479565b82525050565b6126e581613479565b82525050565b6126fc6126f782613479565b613632565b82525050565b600061270d82613413565b6127178185613441565b935061272283613403565b8060005b8381101561275357815161273a88826126b5565b975061274583613434565b925050600181019050612726565b5085935050505092915050565b6127698161348b565b82525050565b61278061277b826134c3565b61364e565b82525050565b612797612792826134ef565b613658565b82525050565b6127ae6127a982613497565b613644565b82525050565b6127c56127c08261351b565b613662565b82525050565b6127dc6127d782613547565b61366c565b82525050565b60006127ed8261341e565b6127f78185613452565b93506128078185602086016135ff565b80840191505092915050565b61281c816135ba565b82525050565b61282b816135de565b82525050565b600061283d838561345d565b935061284a8385846135f0565b6128538361368a565b840190509392505050565b600061286a838561346e565b93506128778385846135f0565b82840190509392505050565b600061288e82613429565b612898818561345d565b93506128a88185602086016135ff565b6128b18161368a565b840191505092915050565b60006128c960228361345d565b91507f456e756d657261626c655365743a20696e646578206f7574206f6620626f756e60008301527f64730000000000000000000000000000000000000000000000000000000000006020830152604082019050919050565b600061292f60208361345d565b91507f437265617465323a2062797465636f6465206c656e677468206973207a65726f6000830152602082019050919050565b600061296f60158361345d565b91507f4172726179206c656e677468206d69736d6174636800000000000000000000006000830152602082019050919050565b60006129af601a8361345d565b91507f44657374696e6174696f6e2063616e6e6f74206265207a65726f0000000000006000830152602082019050919050565b60006129ef60268361345d565b91507f4f776e61626c653a206e6577206f776e657220697320746865207a65726f206160008301527f64647265737300000000000000000000000000000000000000000000000000006020830152604082019050919050565b6000612a5560208361345d565b91507f4e6f7420656e6f75676820746f6b656e7320746f20637265617465206c6f636b6000830152602082019050919050565b6000612a9560268361345d565b91507f416464726573733a20696e73756666696369656e742062616c616e636520666f60008301527f722063616c6c00000000000000000000000000000000000000000000000000006020830152604082019050919050565b6000612afb601b8361345d565b91507f44657374696e6174696f6e20616c72656164792072656d6f76656400000000006000830152602082019050919050565b6000612b3b60198361345d565b91507f4d6173746572436f70792063616e6e6f74206265207a65726f000000000000006000830152602082019050919050565b6000612b7b601d8361345d565b91507f546172676574206d757374206265206f7468657220636f6e74726163740000006000830152602082019050919050565b6000612bbb60198361345d565b91507f437265617465323a204661696c6564206f6e206465706c6f79000000000000006000830152602082019050919050565b6000612bfb60158361345d565b91507f416d6f756e742063616e6e6f74206265207a65726f00000000000000000000006000830152602082019050919050565b6000612c3b60208361345d565b91507f4f776e61626c653a2063616c6c6572206973206e6f7420746865206f776e65726000830152602082019050919050565b6000612c7b60188361345d565b91507f496e76616c6964206d6574686f64207369676e617475726500000000000000006000830152602082019050919050565b6000612cbb60198361345d565b91507f44657374696e6174696f6e20616c7265616479206164646564000000000000006000830152602082019050919050565b6000612cfb601d8361345d565b91507f416464726573733a2063616c6c20746f206e6f6e2d636f6e74726163740000006000830152602082019050919050565b6000612d3b602a8361345d565b91507f5361666545524332303a204552433230206f7065726174696f6e20646964206e60008301527f6f742073756363656564000000000000000000000000000000000000000000006020830152604082019050919050565b6000612da1601d8361345d565b91507f437265617465323a20696e73756666696369656e742062616c616e63650000006000830152602082019050919050565b6000612de160198361345d565b91507f546172676574206d757374206265206120636f6e7472616374000000000000006000830152602082019050919050565b612e1d816135b0565b82525050565b6000612e2f828761276f565b600a82019150612e3f828661276f565b600a82019150612e4f82856127b4565b601482019150612e5f8284612786565b600f8201915081905095945050505050565b6000612e7d828761279d565b600182019150612e8d82866126eb565b601482019150612e9d82856127cb565b602082019150612ead82846127cb565b60208201915081905095945050505050565b6000612ecb82846127e2565b915081905092915050565b6000612ee382848661285e565b91508190509392505050565b6000602082019050612f0460008301846126dc565b92915050565b600061016082019050612f20600083018e6126dc565b612f2d602083018d6126dc565b612f3a604083018c6126dc565b612f47606083018b6126dc565b612f54608083018a612e14565b612f6160a0830189612e14565b612f6e60c0830188612e14565b612f7b60e0830187612e14565b612f89610100830186612e14565b612f97610120830185612e14565b612fa5610140830184612822565b9c9b505050505050505050505050565b6000606082019050612fca60008301866126dc565b612fd760208301856126dc565b612fe46040830184612e14565b949350505050565b600060408201905061300160008301856126dc565b61300e6020830184612e14565b9392505050565b60006101008201905061302b600083018b6126dc565b613038602083018a612e14565b6130456040830189612e14565b6130526060830188612e14565b61305f6080830187612e14565b61306c60a0830186612e14565b61307960c0830185612e14565b61308660e0830184612822565b9998505050505050505050565b600060208201905081810360008301526130ad8184612702565b905092915050565b60006020820190506130ca6000830184612760565b92915050565b60006020820190506130e56000830184612813565b92915050565b60006020820190508181036000830152613106818486612831565b90509392505050565b600060208201905081810360008301526131298184612883565b905092915050565b6000602082019050818103600083015261314a816128bc565b9050919050565b6000602082019050818103600083015261316a81612922565b9050919050565b6000602082019050818103600083015261318a81612962565b9050919050565b600060208201905081810360008301526131aa816129a2565b9050919050565b600060208201905081810360008301526131ca816129e2565b9050919050565b600060208201905081810360008301526131ea81612a48565b9050919050565b6000602082019050818103600083015261320a81612a88565b9050919050565b6000602082019050818103600083015261322a81612aee565b9050919050565b6000602082019050818103600083015261324a81612b2e565b9050919050565b6000602082019050818103600083015261326a81612b6e565b9050919050565b6000602082019050818103600083015261328a81612bae565b9050919050565b600060208201905081810360008301526132aa81612bee565b9050919050565b600060208201905081810360008301526132ca81612c2e565b9050919050565b600060208201905081810360008301526132ea81612c6e565b9050919050565b6000602082019050818103600083015261330a81612cae565b9050919050565b6000602082019050818103600083015261332a81612cee565b9050919050565b6000602082019050818103600083015261334a81612d2e565b9050919050565b6000602082019050818103600083015261336a81612d94565b9050919050565b6000602082019050818103600083015261338a81612dd4565b9050919050565b60006020820190506133a66000830184612e14565b92915050565b600080833560016020038436030381126133c557600080fd5b80840192508235915067ffffffffffffffff8211156133e357600080fd5b6020830192506001820236038313156133fb57600080fd5b509250929050565b6000819050602082019050919050565b600081519050919050565b600081519050919050565b600081519050919050565b6000602082019050919050565b600082825260208201905092915050565b600081905092915050565b600082825260208201905092915050565b600081905092915050565b600061348482613590565b9050919050565b60008115159050919050565b60007fff0000000000000000000000000000000000000000000000000000000000000082169050919050565b60007fffffffffffffffffffff0000000000000000000000000000000000000000000082169050919050565b60007fffffffffffffffffffffffffffffff000000000000000000000000000000000082169050919050565b60007fffffffffffffffffffffffffffffffffffffffff00000000000000000000000082169050919050565b6000819050919050565b60007fffffffff0000000000000000000000000000000000000000000000000000000082169050919050565b600081905061358b826136a8565b919050565b600073ffffffffffffffffffffffffffffffffffffffff82169050919050565b6000819050919050565b60006135c5826135cc565b9050919050565b60006135d782613590565b9050919050565b60006135e98261357d565b9050919050565b82818337600083830152505050565b60005b8381101561361d578082015181840152602081019050613602565b8381111561362c576000848401525b50505050565b600061363d82613676565b9050919050565b6000819050919050565b6000819050919050565b6000819050919050565b6000819050919050565b6000819050919050565b60006136818261369b565b9050919050565bfe5b6000601f19601f8301169050919050565b60008160601b9050919050565b600381106136b9576136b8613688565b5b50565b6136c581613479565b81146136d057600080fd5b50565b6136dc8161348b565b81146136e757600080fd5b50565b6136f381613547565b81146136fe57600080fd5b50565b61370a81613551565b811461371557600080fd5b50565b6003811061372557600080fd5b50565b613731816135b0565b811461373c57600080fd5b5056fea2646970667358221220581ad1bb71f757e3f7e84aec2c69a43e2d33acbd90669e872c9dd5a180a59a6764736f6c63430007030033",
  "devdoc": {
    "kind": "dev",
    "methods": {
      "addTokenDestination(address)": {
        "params": {
          "_dst": "Destination address"
        }
      },
      "constructor": {
        "params": {
          "_graphToken": "Token to use for deposits and withdrawals",
          "_masterCopy": "Address of the master copy to use to clone proxies"
        }
      },
      "createTokenLockWallet(address,address,uint256,uint256,uint256,uint256,uint256,uint256,uint8)": {
        "params": {
          "_beneficiary": "Address of the beneficiary of locked tokens",
          "_endTime": "End time of the release schedule",
          "_managedAmount": "Amount of tokens to be managed by the lock contract",
          "_owner": "Address of the contract owner",
          "_periods": "Number of periods between start time and end time",
          "_releaseStartTime": "Override time for when the releases start",
          "_revocable": "Whether the contract is revocable",
          "_startTime": "Start time of the release schedule"
        }
      },
      "deposit(uint256)": {
        "details": "Even if the ERC20 token can be transferred directly to the contract this function provide a safe interface to do the transfer and avoid mistakes",
        "params": {
          "_amount": "Amount to deposit"
        }
      },
      "getAuthFunctionCallTarget(bytes4)": {
        "params": {
          "_sigHash": "Function signature hash"
        },
        "returns": {
          "_0": "Address of the target contract where to send the call"
        }
      },
      "getDeploymentAddress(bytes32,address)": {
        "details": "Uses address(this) as deployer to compute the address. Only for backwards compatibility.",
        "params": {
          "_implementation": "Address of the proxy target implementation",
          "_salt": "Bytes32 salt to use for CREATE2"
        },
        "returns": {
          "_0": "Address of the counterfactual MinimalProxy"
        }
      },
      "getDeploymentAddress(bytes32,address,address)": {
        "params": {
          "_deployer": "Address of the deployer that creates the contract",
          "_implementation": "Address of the proxy target implementation",
          "_salt": "Bytes32 salt to use for CREATE2"
        },
        "returns": {
          "_0": "Address of the counterfactual MinimalProxy"
        }
      },
      "getTokenDestinations()": {
        "returns": {
          "_0": "Array of addresses authorized to pull funds from a token lock"
        }
      },
      "isAuthFunctionCall(bytes4)": {
        "params": {
          "_sigHash": "Function signature hash"
        },
        "returns": {
          "_0": "True if authorized"
        }
      },
      "isTokenDestination(address)": {
        "params": {
          "_dst": "Destination address"
        },
        "returns": {
          "_0": "True if authorized"
        }
      },
      "owner()": {
        "details": "Returns the address of the current owner."
      },
      "removeTokenDestination(address)": {
        "params": {
          "_dst": "Destination address"
        }
      },
      "renounceOwnership()": {
        "details": "Leaves the contract without owner. It will not be possible to call `onlyOwner` functions anymore. Can only be called by the current owner. NOTE: Renouncing ownership will leave the contract without an owner, thereby removing any functionality that is only available to the owner."
      },
      "setAuthFunctionCall(string,address)": {
        "details": "Input expected is the function signature as 'transfer(address,uint256)'",
        "params": {
          "_signature": "Function signature",
          "_target": "Address of the destination contract to call"
        }
      },
      "setAuthFunctionCallMany(string[],address[])": {
        "details": "Input expected is the function signature as 'transfer(address,uint256)'",
        "params": {
          "_signatures": "Function signatures",
          "_targets": "Address of the destination contract to call"
        }
      },
      "setMasterCopy(address)": {
        "params": {
          "_masterCopy": "Address of contract bytecode to factory clone"
        }
      },
      "token()": {
        "returns": {
          "_0": "Token used for transfers and approvals"
        }
      },
      "transferOwnership(address)": {
        "details": "Transfers ownership of the contract to a new account (`newOwner`). Can only be called by the current owner."
      },
      "unsetAuthFunctionCall(string)": {
        "details": "Input expected is the function signature as 'transfer(address,uint256)'",
        "params": {
          "_signature": "Function signature"
        }
      },
      "withdraw(uint256)": {
        "details": "Escape hatch in case of mistakes or to recover remaining funds",
        "params": {
          "_amount": "Amount of tokens to withdraw"
        }
      }
    },
    "title": "GraphTokenLockManager",
    "version": 1
  },
  "userdoc": {
    "kind": "user",
    "methods": {
      "addTokenDestination(address)": {
        "notice": "Adds an address that can be allowed by a token lock to pull funds"
      },
      "constructor": {
        "notice": "Constructor."
      },
      "createTokenLockWallet(address,address,uint256,uint256,uint256,uint256,uint256,uint256,uint8)": {
        "notice": "Creates and fund a new token lock wallet using a minimum proxy"
      },
      "deposit(uint256)": {
        "notice": "Deposits tokens into the contract"
      },
      "getAuthFunctionCallTarget(bytes4)": {
        "notice": "Gets the target contract to call for a particular function signature"
      },
      "getDeploymentAddress(bytes32,address)": {
        "notice": "Gets the deterministic CREATE2 address for MinimalProxy with a particular implementation"
      },
      "getDeploymentAddress(bytes32,address,address)": {
        "notice": "Gets the deterministic CREATE2 address for MinimalProxy with a particular implementation"
      },
      "getTokenDestinations()": {
        "notice": "Returns an array of authorized destination addresses"
      },
      "isAuthFunctionCall(bytes4)": {
        "notice": "Returns true if the function call is authorized"
      },
      "isTokenDestination(address)": {
        "notice": "Returns True if the address is authorized to be a destination of tokens"
      },
      "removeTokenDestination(address)": {
        "notice": "Removes an address that can be allowed by a token lock to pull funds"
      },
      "setAuthFunctionCall(string,address)": {
        "notice": "Sets an authorized function call to target"
      },
      "setAuthFunctionCallMany(string[],address[])": {
        "notice": "Sets an authorized function call to target in bulk"
      },
      "setMasterCopy(address)": {
        "notice": "Sets the masterCopy bytecode to use to create clones of TokenLock contracts"
      },
      "token()": {
        "notice": "Gets the GRT token address"
      },
      "unsetAuthFunctionCall(string)": {
        "notice": "Unsets an authorized function call to target"
      },
      "withdraw(uint256)": {
        "notice": "Withdraws tokens from the contract"
      }
    },
    "notice": "This contract manages a list of authorized function calls and targets that can be called by any TokenLockWallet contract and it is a factory of TokenLockWallet contracts. This contract receives funds to make the process of creating TokenLockWallet contracts easier by distributing them the initial tokens to be managed. The owner can setup a list of token destinations that will be used by TokenLock contracts to approve the pulling of funds, this way in can be guaranteed that only protocol contracts will manipulate users funds.",
    "version": 1
  },
  "storageLayout": {
    "storage": [
      {
        "astId": 672,
        "contract": "contracts/GraphTokenLockManager.sol:GraphTokenLockManager",
        "label": "_owner",
        "offset": 0,
        "slot": "0",
        "type": "t_address"
      },
      {
        "astId": 3988,
        "contract": "contracts/GraphTokenLockManager.sol:GraphTokenLockManager",
        "label": "authFnCalls",
        "offset": 0,
        "slot": "1",
        "type": "t_mapping(t_bytes4,t_address)"
      },
      {
        "astId": 3990,
        "contract": "contracts/GraphTokenLockManager.sol:GraphTokenLockManager",
        "label": "_tokenDestinations",
        "offset": 0,
        "slot": "2",
        "type": "t_struct(AddressSet)2629_storage"
      },
      {
        "astId": 3992,
        "contract": "contracts/GraphTokenLockManager.sol:GraphTokenLockManager",
        "label": "masterCopy",
        "offset": 0,
        "slot": "4",
        "type": "t_address"
      },
      {
        "astId": 3994,
        "contract": "contracts/GraphTokenLockManager.sol:GraphTokenLockManager",
        "label": "_token",
        "offset": 0,
        "slot": "5",
        "type": "t_contract(IERC20)1710"
      }
    ],
    "types": {
      "t_address": {
        "encoding": "inplace",
        "label": "address",
        "numberOfBytes": "20"
      },
      "t_array(t_bytes32)dyn_storage": {
        "base": "t_bytes32",
        "encoding": "dynamic_array",
        "label": "bytes32[]",
        "numberOfBytes": "32"
      },
      "t_bytes32": {
        "encoding": "inplace",
        "label": "bytes32",
        "numberOfBytes": "32"
      },
      "t_bytes4": {
        "encoding": "inplace",
        "label": "bytes4",
        "numberOfBytes": "4"
      },
      "t_contract(IERC20)1710": {
        "encoding": "inplace",
        "label": "contract IERC20",
        "numberOfBytes": "20"
      },
      "t_mapping(t_bytes32,t_uint256)": {
        "encoding": "mapping",
        "key": "t_bytes32",
        "label": "mapping(bytes32 => uint256)",
        "numberOfBytes": "32",
        "value": "t_uint256"
      },
      "t_mapping(t_bytes4,t_address)": {
        "encoding": "mapping",
        "key": "t_bytes4",
        "label": "mapping(bytes4 => address)",
        "numberOfBytes": "32",
        "value": "t_address"
      },
      "t_struct(AddressSet)2629_storage": {
        "encoding": "inplace",
        "label": "struct EnumerableSet.AddressSet",
        "members": [
          {
            "astId": 2628,
            "contract": "contracts/GraphTokenLockManager.sol:GraphTokenLockManager",
            "label": "_inner",
            "offset": 0,
            "slot": "0",
            "type": "t_struct(Set)2364_storage"
          }
        ],
        "numberOfBytes": "64"
      },
      "t_struct(Set)2364_storage": {
        "encoding": "inplace",
        "label": "struct EnumerableSet.Set",
        "members": [
          {
            "astId": 2359,
            "contract": "contracts/GraphTokenLockManager.sol:GraphTokenLockManager",
            "label": "_values",
            "offset": 0,
            "slot": "0",
            "type": "t_array(t_bytes32)dyn_storage"
          },
          {
            "astId": 2363,
            "contract": "contracts/GraphTokenLockManager.sol:GraphTokenLockManager",
            "label": "_indexes",
            "offset": 0,
            "slot": "1",
            "type": "t_mapping(t_bytes32,t_uint256)"
          }
        ],
        "numberOfBytes": "64"
      },
      "t_uint256": {
        "encoding": "inplace",
        "label": "uint256",
        "numberOfBytes": "32"
      }
    }
  }
}