{
  "_format": "hh-sol-artifact-1",
  "contractName": "RewardsManagerV1Storage",
  "sourceName": "contracts/rewards/RewardsManagerStorage.sol",
  "abi": [
    {
      "anonymous": false,
      "inputs": [
        {
          "indexed": false,
          "internalType": "string",
          "name": "param",
          "type": "string"
        }
      ],
      "name": "ParameterUpdated",
      "type": "event"
    },
    {
      "anonymous": false,
      "inputs": [
        {
          "indexed": false,
          "internalType": "address",
          "name": "controller",
          "type": "address"
        }
      ],
      "name": "SetController",
      "type": "event"
    },
    {
      "inputs": [],
      "name": "accRewardsPerSignal",
      "outputs": [
        {
          "internalType": "uint256",
          "name": "",
          "type": "uint256"
        }
      ],
      "stateMutability": "view",
      "type": "function"
    },
    {
      "inputs": [],
      "name": "accRewardsPerSignalLastBlockUpdated",
      "outputs": [
        {
          "internalType": "uint256",
          "name": "",
          "type": "uint256"
        }
      ],
      "stateMutability": "view",
      "type": "function"
    },
    {
      "inputs": [
        {
          "internalType": "bytes32",
          "name": "",
          "type": "bytes32"
        }
      ],
      "name": "addressCache",
      "outputs": [
        {
          "internalType": "address",
          "name": "",
          "type": "address"
        }
      ],
      "stateMutability": "view",
      "type": "function"
    },
    {
      "inputs": [],
      "name": "controller",
      "outputs": [
        {
          "internalType": "contract IController",
          "name": "",
          "type": "address"
        }
      ],
      "stateMutability": "view",
      "type": "function"
    },
    {
      "inputs": [
        {
          "internalType": "bytes32",
          "name": "",
          "type": "bytes32"
        }
      ],
      "name": "denylist",
      "outputs": [
        {
          "internalType": "uint256",
          "name": "",
          "type": "uint256"
        }
      ],
      "stateMutability": "view",
      "type": "function"
    },
    {
      "inputs": [],
      "name": "issuanceRate",
      "outputs": [
        {
          "internalType": "uint256",
          "name": "",
          "type": "uint256"
        }
      ],
      "stateMutability": "view",
      "type": "function"
    },
    {
      "inputs": [
        {
          "internalType": "address",
          "name": "_controller",
          "type": "address"
        }
      ],
      "name": "setController",
      "outputs": [],
      "stateMutability": "nonpayable",
      "type": "function"
    },
    {
      "inputs": [],
      "name": "subgraphAvailabilityOracle",
      "outputs": [
        {
          "internalType": "address",
          "name": "",
          "type": "address"
        }
      ],
      "stateMutability": "view",
      "type": "function"
    },
    {
      "inputs": [
        {
          "internalType": "bytes32",
          "name": "",
          "type": "bytes32"
        }
      ],
      "name": "subgraphs",
      "outputs": [
        {
          "internalType": "uint256",
          "name": "accRewardsForSubgraph",
          "type": "uint256"
        },
        {
          "internalType": "uint256",
          "name": "accRewardsForSubgraphSnapshot",
          "type": "uint256"
        },
        {
          "internalType": "uint256",
          "name": "accRewardsPerSignalSnapshot",
          "type": "uint256"
        },
        {
          "internalType": "uint256",
          "name": "accRewardsPerAllocatedToken",
          "type": "uint256"
        }
      ],
      "stateMutability": "view",
      "type": "function"
    }
  ],
  "bytecode": "0x608060405234801561001057600080fd5b50610360806100206000396000f3fe608060405234801561001057600080fd5b50600436106100935760003560e01c80639006ce8b116100665780639006ce8b1461013657806392eefe9b1461013e578063dc675a6514610166578063e242cf1e14610183578063f77c47911461018b57610093565b806305bb8c6b1461009857806316a84ab2146100bc5780633c9ae2ba146100eb5780634986594f146100f3575b600080fd5b6100a0610193565b604080516001600160a01b039092168252519081900360200190f35b6100d9600480360360208110156100d257600080fd5b50356101a2565b60408051918252519081900360200190f35b6100d96101b4565b6101106004803603602081101561010957600080fd5b50356101ba565b604080519485526020850193909352838301919091526060830152519081900360800190f35b6100d96101e1565b6101646004803603602081101561015457600080fd5b50356001600160a01b03166101e7565b005b6100a06004803603602081101561017c57600080fd5b5035610252565b6100d961026d565b6100a0610273565b600f546001600160a01b031681565b60116020526000908152604090205481565b600c5481565b60106020526000908152604090208054600182015460028301546003909301549192909184565b600e5481565b6000546001600160a01b03163314610246576040805162461bcd60e51b815260206004820152601960248201527f43616c6c6572206d75737420626520436f6e74726f6c6c657200000000000000604482015290519081900360640190fd5b61024f81610282565b50565b6001602052600090815260409020546001600160a01b031681565b600d5481565b6000546001600160a01b031681565b6001600160a01b0381166102d6576040805162461bcd60e51b815260206004820152601660248201527510dbdb9d1c9bdb1b195c881b5d5cdd081899481cd95d60521b604482015290519081900360640190fd5b600080546001600160a01b0383166001600160a01b0319909116811790915560408051918252517f4ff638452bbf33c012645d18ae6f05515ff5f2d1dfb0cece8cbf018c60903f709181900360200190a15056fea264697066735822122062f75ac5ecf48cc3f5dc898001b6a59067a0d65ab5e2b4bdd8dadee129e297e764736f6c63430007040033",
  "linkReferences": {},
  "deployedLinkReferences": {}
}