{
  "_format": "hh-sol-artifact-1",
  "contractName": "ServiceRegistry",
  "sourceName": "contracts/discovery/ServiceRegistry.sol",
  "abi": [
    {
      "anonymous": false,
      "inputs": [
        {
          "indexed": false,
          "internalType": "string",
          "name": "param",
          "type": "string"
        }
      ],
      "name": "ParameterUpdated",
      "type": "event"
    },
    {
      "anonymous": false,
      "inputs": [
        {
          "indexed": true,
          "internalType": "address",
          "name": "indexer",
          "type": "address"
        },
        {
          "indexed": false,
          "internalType": "string",
          "name": "url",
          "type": "string"
        },
        {
          "indexed": false,
          "internalType": "string",
          "name": "geohash",
          "type": "string"
        }
      ],
      "name": "ServiceRegistered",
      "type": "event"
    },
    {
      "anonymous": false,
      "inputs": [
        {
          "indexed": true,
          "internalType": "address",
          "name": "indexer",
          "type": "address"
        }
      ],
      "name": "ServiceUnregistered",
      "type": "event"
    },
    {
      "anonymous": false,
      "inputs": [
        {
          "indexed": false,
          "internalType": "address",
          "name": "controller",
          "type": "address"
        }
      ],
      "name": "SetController",
      "type": "event"
    },
    {
      "inputs": [
        {
          "internalType": "contract IGraphProxy",
          "name": "_proxy",
          "type": "address"
        }
      ],
      "name": "acceptProxy",
      "outputs": [],
      "stateMutability": "nonpayable",
      "type": "function"
    },
    {
      "inputs": [
        {
          "internalType": "contract IGraphProxy",
          "name": "_proxy",
          "type": "address"
        },
        {
          "internalType": "bytes",
          "name": "_data",
          "type": "bytes"
        }
      ],
      "name": "acceptProxyAndCall",
      "outputs": [],
      "stateMutability": "nonpayable",
      "type": "function"
    },
    {
      "inputs": [
        {
          "internalType": "bytes32",
          "name": "",
          "type": "bytes32"
        }
      ],
      "name": "addressCache",
      "outputs": [
        {
          "internalType": "address",
          "name": "",
          "type": "address"
        }
      ],
      "stateMutability": "view",
      "type": "function"
    },
    {
      "inputs": [],
      "name": "controller",
      "outputs": [
        {
          "internalType": "contract IController",
          "name": "",
          "type": "address"
        }
      ],
      "stateMutability": "view",
      "type": "function"
    },
    {
      "inputs": [
        {
          "internalType": "address",
          "name": "_controller",
          "type": "address"
        }
      ],
      "name": "initialize",
      "outputs": [],
      "stateMutability": "nonpayable",
      "type": "function"
    },
    {
      "inputs": [
        {
          "internalType": "address",
          "name": "_indexer",
          "type": "address"
        }
      ],
      "name": "isRegistered",
      "outputs": [
        {
          "internalType": "bool",
          "name": "",
          "type": "bool"
        }
      ],
      "stateMutability": "view",
      "type": "function"
    },
    {
      "inputs": [
        {
          "internalType": "string",
          "name": "_url",
          "type": "string"
        },
        {
          "internalType": "string",
          "name": "_geohash",
          "type": "string"
        }
      ],
      "name": "register",
      "outputs": [],
      "stateMutability": "nonpayable",
      "type": "function"
    },
    {
      "inputs": [
        {
          "internalType": "address",
          "name": "_indexer",
          "type": "address"
        },
        {
          "internalType": "string",
          "name": "_url",
          "type": "string"
        },
        {
          "internalType": "string",
          "name": "_geohash",
          "type": "string"
        }
      ],
      "name": "registerFor",
      "outputs": [],
      "stateMutability": "nonpayable",
      "type": "function"
    },
    {
      "inputs": [
        {
          "internalType": "address",
          "name": "",
          "type": "address"
        }
      ],
      "name": "services",
      "outputs": [
        {
          "internalType": "string",
          "name": "url",
          "type": "string"
        },
        {
          "internalType": "string",
          "name": "geohash",
          "type": "string"
        }
      ],
      "stateMutability": "view",
      "type": "function"
    },
    {
      "inputs": [
        {
          "internalType": "address",
          "name": "_controller",
          "type": "address"
        }
      ],
      "name": "setController",
      "outputs": [],
      "stateMutability": "nonpayable",
      "type": "function"
    },
    {
      "inputs": [],
      "name": "unregister",
      "outputs": [],
      "stateMutability": "nonpayable",
      "type": "function"
    },
    {
      "inputs": [
        {
          "internalType": "address",
          "name": "_indexer",
          "type": "address"
        }
      ],
      "name": "unregisterFor",
      "outputs": [],
      "stateMutability": "nonpayable",
      "type": "function"
    }
  ],
  "bytecode": "0x608060405234801561001057600080fd5b50610fae806100206000396000f3fe608060405234801561001057600080fd5b50600436106100b45760003560e01c8063c3c5a54711610071578063c3c5a54714610144578063c4d66de814610164578063cc02d54e14610177578063dc675a651461018a578063e79a198f146101aa578063f77c4791146101b2576100b4565b80633ffbd47f146100b95780634d2e54a8146100ce5780636d966d01146100e157806392eefe9b1461010b5780639ce7abe51461011e578063a2594d8214610131575b600080fd5b6100cc6100c7366004610d3e565b6101ba565b005b6100cc6100dc366004610c10565b6101cd565b6100f46100ef366004610c10565b6101d9565b604051610102929190610e87565b60405180910390f35b6100cc610119366004610c10565b610318565b6100cc61012c366004610ceb565b610380565b6100cc61013f366004610c10565b6104d6565b610157610152366004610c10565b6105f1565b6040516101029190610e4a565b6100cc610172366004610c10565b610621565b6100cc610185366004610c33565b610681565b61019d610198366004610cd3565b610695565b6040516101029190610e1c565b6100cc6106b0565b61019d6106bb565b6101c733858585856106ca565b50505050565b6101d681610825565b50565b600c6020908152600091825260409182902080548351601f600260001961010060018616150201909316929092049182018490048402810184019094528084529092918391908301828280156102705780601f1061024557610100808354040283529160200191610270565b820191906000526020600020905b81548152906001019060200180831161025357829003601f168201915b505050505090806001018054600181600116156101000203166002900480601f01602080910402602001604051908101604052809291908181526020018280546001816001161561010002031660029004801561030e5780601f106102e35761010080835404028352916020019161030e565b820191906000526020600020905b8154815290600101906020018083116102f157829003601f168201915b5050505050905082565b6000546001600160a01b03163314610377576040805162461bcd60e51b815260206004820152601960248201527f43616c6c6572206d75737420626520436f6e74726f6c6c657200000000000000604482015290519081900360640190fd5b6101d6816108d9565b82806001600160a01b031663f851a4406040518163ffffffff1660e01b8152600401602060405180830381600087803b1580156103bc57600080fd5b505af11580156103d0573d6000803e3d6000fd5b505050506040513d60208110156103e657600080fd5b50516001600160a01b03163314610444576040805162461bcd60e51b815260206004820152601e60248201527f43616c6c6572206d757374206265207468652070726f78792061646d696e0000604482015290519081900360640190fd5b60405163623faf6160e01b8152602060048201908152602482018490526001600160a01b0386169163623faf619186918691908190604401848480828437600081840152601f19601f8201169050808301925050509350505050600060405180830381600087803b1580156104b857600080fd5b505af11580156104cc573d6000803e3d6000fd5b5050505050505050565b80806001600160a01b031663f851a4406040518163ffffffff1660e01b8152600401602060405180830381600087803b15801561051257600080fd5b505af1158015610526573d6000803e3d6000fd5b505050506040513d602081101561053c57600080fd5b50516001600160a01b0316331461059a576040805162461bcd60e51b815260206004820152601e60248201527f43616c6c6572206d757374206265207468652070726f78792061646d696e0000604482015290519081900360640190fd5b816001600160a01b03166359fc20bb6040518163ffffffff1660e01b8152600401600060405180830381600087803b1580156105d557600080fd5b505af11580156105e9573d6000803e3d6000fd5b505050505050565b6001600160a01b03166000908152600c602052604090205460026001821615610100026000190190911604151590565b610629610981565b6001600160a01b0316336001600160a01b0316146106785760405162461bcd60e51b8152600401808060200182810382526021815260200180610f586021913960400191505060405180910390fd5b6101d681610377565b61068e85858585856106ca565b5050505050565b6001602052600090815260409020546001600160a01b031681565b6106b933610825565b565b6000546001600160a01b031681565b6106d3856109a6565b6106f85760405162461bcd60e51b81526004016106ef90610f23565b60405180910390fd5b826107155760405162461bcd60e51b81526004016106ef90610eb5565b6040805160606020601f87018190040282018101835291810185815290918291908790879081908501838280828437600092019190915250505090825250604080516020601f86018190048102820181019092528481529181019190859085908190840183828082843760009201829052509390945250506001600160a01b0388168152600c60209081526040909120835180519193506107ba928492910190610ae8565b5060208281015180516107d39260018501920190610ae8565b50905050846001600160a01b03167fd0306c1da0ed1d7b7d56ac9ef91ed1f717e3d2d63a55ebe8dc2891056687f300858585856040516108169493929190610e55565b60405180910390a25050505050565b61082e816109a6565b61084a5760405162461bcd60e51b81526004016106ef90610f23565b610853816105f1565b61086f5760405162461bcd60e51b81526004016106ef90610eec565b6001600160a01b0381166000908152600c60205260408120906108928282610b74565b6108a0600183016000610b74565b50506040516001600160a01b038216907f63c24bceb981b7dda3e62a0bfafcfbb8f71b65e884dcd2410d04d57490a4ee4690600090a250565b6001600160a01b03811661092d576040805162461bcd60e51b815260206004820152601660248201527510dbdb9d1c9bdb1b195c881b5d5cdd081899481cd95d60521b604482015290519081900360640190fd5b600080546001600160a01b0383166001600160a01b0319909116811790915560408051918252517f4ff638452bbf33c012645d18ae6f05515ff5f2d1dfb0cece8cbf018c60903f709181900360200190a150565b7f360894a13ba1a3210667c828492db98dca3e2076cc3735a920a3ca505d382bbc5490565b6000336001600160a01b0383161480610a4557506109c2610a4b565b6001600160a01b031663b6363cf233846040518363ffffffff1660e01b81526004016109ef929190610e30565b60206040518083038186803b158015610a0757600080fd5b505afa158015610a1b573d6000803e3d6000fd5b505050506040513d601f19601f82011682018060405250810190610a3f9190610cb3565b15156001145b92915050565b6000805460408051637bb20d2f60e11b81527f1df41cd916959d1163dc8f0671a666ea8a3e434c13e40faef527133b5d167034600482015290516001600160a01b039092169163f7641a5e91602480820192602092909190829003018186803b158015610ab757600080fd5b505afa158015610acb573d6000803e3d6000fd5b505050506040513d6020811015610ae157600080fd5b5051905090565b828054600181600116156101000203166002900490600052602060002090601f016020900481019282610b1e5760008555610b64565b82601f10610b3757805160ff1916838001178555610b64565b82800160010185558215610b64579182015b82811115610b64578251825591602001919060010190610b49565b50610b70929150610bb4565b5090565b50805460018160011615610100020316600290046000825580601f10610b9a57506101d6565b601f0160209004906000526020600020908101906101d691905b5b80821115610b705760008155600101610bb5565b60008083601f840112610bda578182fd5b50813567ffffffffffffffff811115610bf1578182fd5b602083019150836020828501011115610c0957600080fd5b9250929050565b600060208284031215610c21578081fd5b8135610c2c81610f42565b9392505050565b600080600080600060608688031215610c4a578081fd5b8535610c5581610f42565b9450602086013567ffffffffffffffff80821115610c71578283fd5b610c7d89838a01610bc9565b90965094506040880135915080821115610c95578283fd5b50610ca288828901610bc9565b969995985093965092949392505050565b600060208284031215610cc4578081fd5b81518015158114610c2c578182fd5b600060208284031215610ce4578081fd5b5035919050565b600080600060408486031215610cff578283fd5b8335610d0a81610f42565b9250602084013567ffffffffffffffff811115610d25578283fd5b610d3186828701610bc9565b9497909650939450505050565b60008060008060408587031215610d53578384fd5b843567ffffffffffffffff80821115610d6a578586fd5b610d7688838901610bc9565b90965094506020870135915080821115610d8e578384fd5b50610d9b87828801610bc9565b95989497509550505050565b60008284528282602086013780602084860101526020601f19601f85011685010190509392505050565b60008151808452815b81811015610df657602081850181015186830182015201610dda565b81811115610e075782602083870101525b50601f01601f19169290920160200192915050565b6001600160a01b0391909116815260200190565b6001600160a01b0392831681529116602082015260400190565b901515815260200190565b600060408252610e69604083018688610da7565b8281036020840152610e7c818587610da7565b979650505050505050565b600060408252610e9a6040830185610dd1565b8281036020840152610eac8185610dd1565b95945050505050565b6020808252601a908201527f53657276696365206d757374207370656369667920612055524c000000000000604082015260600190565b6020808252601c908201527f5365727669636520616c726561647920756e7265676973746572656400000000604082015260600190565b602080825260059082015264042c2eae8d60db1b604082015260600190565b6001600160a01b03811681146101d657600080fdfe43616c6c6572206d7573742062652074686520696d706c656d656e746174696f6ea2646970667358221220d41542b16a82b8efd7ed93c459dd1c737181ab439375ed192696401e8e6ca58964736f6c63430007040033",
  "linkReferences": {},
  "deployedLinkReferences": {}
}