{
  "_format": "hh-sol-artifact-1",
  "contractName": "DisputeManager",
  "sourceName": "contracts/DisputeManager.sol",
  "abi": [
    {
      "inputs": [
        {
          "internalType": "address",
          "name": "controller",
          "type": "address"
        }
      ],
      "stateMutability": "nonpayable",
      "type": "constructor"
    },
    {
      "inputs": [
        {
          "internalType": "uint256",
          "name": "length",
          "type": "uint256"
        },
        {
          "internalType": "uint256",
          "name": "expectedLength",
          "type": "uint256"
        }
      ],
      "name": "AttestationInvalidBytesLength",
      "type": "error"
    },
    {
      "inputs": [
        {
          "internalType": "bytes32",
          "name": "disputeId",
          "type": "bytes32"
        }
      ],
      "name": "DisputeManagerDisputeAlreadyCreated",
      "type": "error"
    },
    {
      "inputs": [
        {
          "internalType": "enum IDisputeManager.DisputeStatus",
          "name": "status",
          "type": "uint8"
        }
      ],
      "name": "DisputeManagerDisputeNotPending",
      "type": "error"
    },
    {
      "inputs": [],
      "name": "DisputeManagerDisputePeriodNotFinished",
      "type": "error"
    },
    {
      "inputs": [],
      "name": "DisputeManagerDisputePeriodZero",
      "type": "error"
    },
    {
      "inputs": [
        {
          "internalType": "address",
          "name": "allocationId",
          "type": "address"
        }
      ],
      "name": "DisputeManagerIndexerNotFound",
      "type": "error"
    },
    {
      "inputs": [
        {
          "internalType": "bytes32",
          "name": "disputeId",
          "type": "bytes32"
        }
      ],
      "name": "DisputeManagerInvalidDispute",
      "type": "error"
    },
    {
      "inputs": [
        {
          "internalType": "uint256",
          "name": "disputeDeposit",
          "type": "uint256"
        }
      ],
      "name": "DisputeManagerInvalidDisputeDeposit",
      "type": "error"
    },
    {
      "inputs": [
        {
          "internalType": "uint32",
          "name": "cut",
          "type": "uint32"
        }
      ],
      "name": "DisputeManagerInvalidFishermanReward",
      "type": "error"
    },
    {
      "inputs": [
        {
          "internalType": "uint32",
          "name": "maxSlashingCut",
          "type": "uint32"
        }
      ],
      "name": "DisputeManagerInvalidMaxSlashingCut",
      "type": "error"
    },
    {
      "inputs": [
        {
          "internalType": "uint256",
          "name": "tokensSlash",
          "type": "uint256"
        },
        {
          "internalType": "uint256",
          "name": "maxTokensSlash",
          "type": "uint256"
        }
      ],
      "name": "DisputeManagerInvalidTokensSlash",
      "type": "error"
    },
    {
      "inputs": [],
      "name": "DisputeManagerInvalidZeroAddress",
      "type": "error"
    },
    {
      "inputs": [
        {
          "internalType": "bytes32",
          "name": "disputeId",
          "type": "bytes32"
        },
        {
          "internalType": "bytes32",
          "name": "relatedDisputeId",
          "type": "bytes32"
        }
      ],
      "name": "DisputeManagerMustAcceptRelatedDispute",
      "type": "error"
    },
    {
      "inputs": [
        {
          "internalType": "bytes32",
          "name": "requestCID1",
          "type": "bytes32"
        },
        {
          "internalType": "bytes32",
          "name": "responseCID1",
          "type": "bytes32"
        },
        {
          "internalType": "bytes32",
          "name": "subgraphDeploymentId1",
          "type": "bytes32"
        },
        {
          "internalType": "bytes32",
          "name": "requestCID2",
          "type": "bytes32"
        },
        {
          "internalType": "bytes32",
          "name": "responseCID2",
          "type": "bytes32"
        },
        {
          "internalType": "bytes32",
          "name": "subgraphDeploymentId2",
          "type": "bytes32"
        }
      ],
      "name": "DisputeManagerNonConflictingAttestations",
      "type": "error"
    },
    {
      "inputs": [
        {
          "internalType": "bytes32",
          "name": "subgraphDeploymentId1",
          "type": "bytes32"
        },
        {
          "internalType": "bytes32",
          "name": "subgraphDeploymentId2",
          "type": "bytes32"
        }
      ],
      "name": "DisputeManagerNonMatchingSubgraphDeployment",
      "type": "error"
    },
    {
      "inputs": [],
      "name": "DisputeManagerNotArbitrator",
      "type": "error"
    },
    {
      "inputs": [],
      "name": "DisputeManagerNotFisherman",
      "type": "error"
    },
    {
      "inputs": [],
      "name": "DisputeManagerZeroTokens",
      "type": "error"
    },
    {
      "inputs": [],
      "name": "ECDSAInvalidSignature",
      "type": "error"
    },
    {
      "inputs": [
        {
          "internalType": "uint256",
          "name": "length",
          "type": "uint256"
        }
      ],
      "name": "ECDSAInvalidSignatureLength",
      "type": "error"
    },
    {
      "inputs": [
        {
          "internalType": "bytes32",
          "name": "s",
          "type": "bytes32"
        }
      ],
      "name": "ECDSAInvalidSignatureS",
      "type": "error"
    },
    {
      "inputs": [
        {
          "internalType": "bytes",
          "name": "contractName",
          "type": "bytes"
        }
      ],
      "name": "GraphDirectoryInvalidZeroAddress",
      "type": "error"
    },
    {
      "inputs": [],
      "name": "InvalidInitialization",
      "type": "error"
    },
    {
      "inputs": [],
      "name": "NotInitializing",
      "type": "error"
    },
    {
      "inputs": [
        {
          "internalType": "address",
          "name": "owner",
          "type": "address"
        }
      ],
      "name": "OwnableInvalidOwner",
      "type": "error"
    },
    {
      "inputs": [
        {
          "internalType": "address",
          "name": "account",
          "type": "address"
        }
      ],
      "name": "OwnableUnauthorizedAccount",
      "type": "error"
    },
    {
      "inputs": [
        {
          "internalType": "uint256",
          "name": "a",
          "type": "uint256"
        },
        {
          "internalType": "uint256",
          "name": "b",
          "type": "uint256"
        }
      ],
      "name": "PPMMathInvalidMulPPM",
      "type": "error"
    },
    {
      "anonymous": false,
      "inputs": [
        {
          "indexed": true,
          "internalType": "address",
          "name": "arbitrator",
          "type": "address"
        }
      ],
      "name": "ArbitratorSet",
      "type": "event"
    },
    {
      "anonymous": false,
      "inputs": [
        {
          "indexed": true,
          "internalType": "bytes32",
          "name": "disputeId",
          "type": "bytes32"
        },
        {
          "indexed": true,
          "internalType": "address",
          "name": "indexer",
          "type": "address"
        },
        {
          "indexed": true,
          "internalType": "address",
          "name": "fisherman",
          "type": "address"
        },
        {
          "indexed": false,
          "internalType": "uint256",
          "name": "tokens",
          "type": "uint256"
        }
      ],
      "name": "DisputeAccepted",
      "type": "event"
    },
    {
      "anonymous": false,
      "inputs": [
        {
          "indexed": true,
          "internalType": "bytes32",
          "name": "disputeId",
          "type": "bytes32"
        },
        {
          "indexed": true,
          "internalType": "address",
          "name": "indexer",
          "type": "address"
        },
        {
          "indexed": true,
          "internalType": "address",
          "name": "fisherman",
          "type": "address"
        },
        {
          "indexed": false,
          "internalType": "uint256",
          "name": "tokens",
          "type": "uint256"
        }
      ],
      "name": "DisputeCancelled",
      "type": "event"
    },
    {
      "anonymous": false,
      "inputs": [
        {
          "indexed": false,
          "internalType": "uint256",
          "name": "disputeDeposit",
          "type": "uint256"
        }
      ],
      "name": "DisputeDepositSet",
      "type": "event"
    },
    {
      "anonymous": false,
      "inputs": [
        {
          "indexed": true,
          "internalType": "bytes32",
          "name": "disputeId",
          "type": "bytes32"
        },
        {
          "indexed": true,
          "internalType": "address",
          "name": "indexer",
          "type": "address"
        },
        {
          "indexed": true,
          "internalType": "address",
          "name": "fisherman",
          "type": "address"
        },
        {
          "indexed": false,
          "internalType": "uint256",
          "name": "tokens",
          "type": "uint256"
        }
      ],
      "name": "DisputeDrawn",
      "type": "event"
    },
    {
      "anonymous": false,
      "inputs": [
        {
          "indexed": true,
          "internalType": "bytes32",
          "name": "disputeId1",
          "type": "bytes32"
        },
        {
          "indexed": true,
          "internalType": "bytes32",
          "name": "disputeId2",
          "type": "bytes32"
        }
      ],
      "name": "DisputeLinked",
      "type": "event"
    },
    {
      "anonymous": false,
      "inputs": [
        {
          "indexed": false,
          "internalType": "uint64",
          "name": "disputePeriod",
          "type": "uint64"
        }
      ],
      "name": "DisputePeriodSet",
      "type": "event"
    },
    {
      "anonymous": false,
      "inputs": [
        {
          "indexed": true,
          "internalType": "bytes32",
          "name": "disputeId",
          "type": "bytes32"
        },
        {
          "indexed": true,
          "internalType": "address",
          "name": "indexer",
          "type": "address"
        },
        {
          "indexed": true,
          "internalType": "address",
          "name": "fisherman",
          "type": "address"
        },
        {
          "indexed": false,
          "internalType": "uint256",
          "name": "tokens",
          "type": "uint256"
        }
      ],
      "name": "DisputeRejected",
      "type": "event"
    },
    {
      "anonymous": false,
      "inputs": [
        {
          "indexed": false,
          "internalType": "uint32",
          "name": "fishermanRewardCut",
          "type": "uint32"
        }
      ],
      "name": "FishermanRewardCutSet",
      "type": "event"
    },
    {
      "anonymous": false,
      "inputs": [
        {
          "indexed": true,
          "internalType": "address",
          "name": "graphToken",
          "type": "address"
        },
        {
          "indexed": true,
          "internalType": "address",
          "name": "graphStaking",
          "type": "address"
        },
        {
          "indexed": false,
          "internalType": "address",
          "name": "graphPayments",
          "type": "address"
        },
        {
          "indexed": false,
          "internalType": "address",
          "name": "graphEscrow",
          "type": "address"
        },
        {
          "indexed": true,
          "internalType": "address",
          "name": "graphController",
          "type": "address"
        },
        {
          "indexed": false,
          "internalType": "address",
          "name": "graphEpochManager",
          "type": "address"
        },
        {
          "indexed": false,
          "internalType": "address",
          "name": "graphRewardsManager",
          "type": "address"
        },
        {
          "indexed": false,
          "internalType": "address",
          "name": "graphTokenGateway",
          "type": "address"
        },
        {
          "indexed": false,
          "internalType": "address",
          "name": "graphProxyAdmin",
          "type": "address"
        },
        {
          "indexed": false,
          "internalType": "address",
          "name": "graphCuration",
          "type": "address"
        }
      ],
      "name": "GraphDirectoryInitialized",
      "type": "event"
    },
    {
      "anonymous": false,
      "inputs": [
        {
          "indexed": true,
          "internalType": "bytes32",
          "name": "disputeId",
          "type": "bytes32"
        },
        {
          "indexed": true,
          "internalType": "address",
          "name": "indexer",
          "type": "address"
        },
        {
          "indexed": true,
          "internalType": "address",
          "name": "fisherman",
          "type": "address"
        },
        {
          "indexed": false,
          "internalType": "uint256",
          "name": "tokens",
          "type": "uint256"
        },
        {
          "indexed": false,
          "internalType": "address",
          "name": "allocationId",
          "type": "address"
        },
        {
          "indexed": false,
          "internalType": "bytes32",
          "name": "poi",
          "type": "bytes32"
        },
        {
          "indexed": false,
          "internalType": "uint256",
          "name": "stakeSnapshot",
          "type": "uint256"
        }
      ],
      "name": "IndexingDisputeCreated",
      "type": "event"
    },
    {
      "anonymous": false,
      "inputs": [
        {
          "indexed": false,
          "internalType": "uint64",
          "name": "version",
          "type": "uint64"
        }
      ],
      "name": "Initialized",
      "type": "event"
    },
    {
      "anonymous": false,
      "inputs": [
        {
          "indexed": false,
          "internalType": "uint32",
          "name": "maxSlashingCut",
          "type": "uint32"
        }
      ],
      "name": "MaxSlashingCutSet",
      "type": "event"
    },
    {
      "anonymous": false,
      "inputs": [
        {
          "indexed": true,
          "internalType": "address",
          "name": "previousOwner",
          "type": "address"
        },
        {
          "indexed": true,
          "internalType": "address",
          "name": "newOwner",
          "type": "address"
        }
      ],
      "name": "OwnershipTransferred",
      "type": "event"
    },
    {
      "anonymous": false,
      "inputs": [
        {
          "indexed": true,
          "internalType": "bytes32",
          "name": "disputeId",
          "type": "bytes32"
        },
        {
          "indexed": true,
          "internalType": "address",
          "name": "indexer",
          "type": "address"
        },
        {
          "indexed": true,
          "internalType": "address",
          "name": "fisherman",
          "type": "address"
        },
        {
          "indexed": false,
          "internalType": "uint256",
          "name": "tokens",
          "type": "uint256"
        },
        {
          "indexed": false,
          "internalType": "bytes32",
          "name": "subgraphDeploymentId",
          "type": "bytes32"
        },
        {
          "indexed": false,
          "internalType": "bytes",
          "name": "attestation",
          "type": "bytes"
        },
        {
          "indexed": false,
          "internalType": "uint256",
          "name": "stakeSnapshot",
          "type": "uint256"
        }
      ],
      "name": "QueryDisputeCreated",
      "type": "event"
    },
    {
      "anonymous": false,
      "inputs": [
        {
          "indexed": true,
          "internalType": "address",
          "name": "subgraphService",
          "type": "address"
        }
      ],
      "name": "SubgraphServiceSet",
      "type": "event"
    },
    {
      "inputs": [],
      "name": "MAX_FISHERMAN_REWARD_CUT",
      "outputs": [
        {
          "internalType": "uint32",
          "name": "",
          "type": "uint32"
        }
      ],
      "stateMutability": "view",
      "type": "function"
    },
    {
      "inputs": [
        {
          "internalType": "bytes32",
          "name": "disputeId",
          "type": "bytes32"
        },
        {
          "internalType": "uint256",
          "name": "tokensSlash",
          "type": "uint256"
        }
      ],
      "name": "acceptDispute",
      "outputs": [],
      "stateMutability": "nonpayable",
      "type": "function"
    },
    {
      "inputs": [],
      "name": "arbitrator",
      "outputs": [
        {
          "internalType": "address",
          "name": "",
          "type": "address"
        }
      ],
      "stateMutability": "view",
      "type": "function"
    },
    {
      "inputs": [
        {
          "components": [
            {
              "internalType": "bytes32",
              "name": "requestCID",
              "type": "bytes32"
            },
            {
              "internalType": "bytes32",
              "name": "responseCID",
              "type": "bytes32"
            },
            {
              "internalType": "bytes32",
              "name": "subgraphDeploymentId",
              "type": "bytes32"
            },
            {
              "internalType": "bytes32",
              "name": "r",
              "type": "bytes32"
            },
            {
              "internalType": "bytes32",
              "name": "s",
              "type": "bytes32"
            },
            {
              "internalType": "uint8",
              "name": "v",
              "type": "uint8"
            }
          ],
          "internalType": "struct Attestation.State",
          "name": "attestation1",
          "type": "tuple"
        },
        {
          "components": [
            {
              "internalType": "bytes32",
              "name": "requestCID",
              "type": "bytes32"
            },
            {
              "internalType": "bytes32",
              "name": "responseCID",
              "type": "bytes32"
            },
            {
              "internalType": "bytes32",
              "name": "subgraphDeploymentId",
              "type": "bytes32"
            },
            {
              "internalType": "bytes32",
              "name": "r",
              "type": "bytes32"
            },
            {
              "internalType": "bytes32",
              "name": "s",
              "type": "bytes32"
            },
            {
              "internalType": "uint8",
              "name": "v",
              "type": "uint8"
            }
          ],
          "internalType": "struct Attestation.State",
          "name": "attestation2",
          "type": "tuple"
        }
      ],
      "name": "areConflictingAttestations",
      "outputs": [
        {
          "internalType": "bool",
          "name": "",
          "type": "bool"
        }
      ],
      "stateMutability": "pure",
      "type": "function"
    },
    {
      "inputs": [
        {
          "internalType": "bytes32",
          "name": "disputeId",
          "type": "bytes32"
        }
      ],
      "name": "cancelDispute",
      "outputs": [],
      "stateMutability": "nonpayable",
      "type": "function"
    },
    {
      "inputs": [
        {
          "internalType": "address",
          "name": "allocationId",
          "type": "address"
        },
        {
          "internalType": "bytes32",
          "name": "poi",
          "type": "bytes32"
        }
      ],
      "name": "createIndexingDispute",
      "outputs": [
        {
          "internalType": "bytes32",
          "name": "",
          "type": "bytes32"
        }
      ],
      "stateMutability": "nonpayable",
      "type": "function"
    },
    {
      "inputs": [
        {
          "internalType": "bytes",
          "name": "attestationData",
          "type": "bytes"
        }
      ],
      "name": "createQueryDispute",
      "outputs": [
        {
          "internalType": "bytes32",
          "name": "",
          "type": "bytes32"
        }
      ],
      "stateMutability": "nonpayable",
      "type": "function"
    },
    {
      "inputs": [
        {
          "internalType": "bytes",
          "name": "attestationData1",
          "type": "bytes"
        },
        {
          "internalType": "bytes",
          "name": "attestationData2",
          "type": "bytes"
        }
      ],
      "name": "createQueryDisputeConflict",
      "outputs": [
        {
          "internalType": "bytes32",
          "name": "",
          "type": "bytes32"
        },
        {
          "internalType": "bytes32",
          "name": "",
          "type": "bytes32"
        }
      ],
      "stateMutability": "nonpayable",
      "type": "function"
    },
    {
      "inputs": [],
      "name": "disputeDeposit",
      "outputs": [
        {
          "internalType": "uint256",
          "name": "",
          "type": "uint256"
        }
      ],
      "stateMutability": "view",
      "type": "function"
    },
    {
      "inputs": [],
      "name": "disputePeriod",
      "outputs": [
        {
          "internalType": "uint64",
          "name": "",
          "type": "uint64"
        }
      ],
      "stateMutability": "view",
      "type": "function"
    },
    {
      "inputs": [
        {
          "internalType": "bytes32",
          "name": "disputeId",
          "type": "bytes32"
        }
      ],
      "name": "disputes",
      "outputs": [
        {
          "internalType": "address",
          "name": "indexer",
          "type": "address"
        },
        {
          "internalType": "address",
          "name": "fisherman",
          "type": "address"
        },
        {
          "internalType": "uint256",
          "name": "deposit",
          "type": "uint256"
        },
        {
          "internalType": "bytes32",
          "name": "relatedDisputeId",
          "type": "bytes32"
        },
        {
          "internalType": "enum IDisputeManager.DisputeType",
          "name": "disputeType",
          "type": "uint8"
        },
        {
          "internalType": "enum IDisputeManager.DisputeStatus",
          "name": "status",
          "type": "uint8"
        },
        {
          "internalType": "uint256",
          "name": "createdAt",
          "type": "uint256"
        },
        {
          "internalType": "uint256",
          "name": "stakeSnapshot",
          "type": "uint256"
        }
      ],
      "stateMutability": "view",
      "type": "function"
    },
    {
      "inputs": [
        {
          "internalType": "bytes32",
          "name": "disputeId",
          "type": "bytes32"
        }
      ],
      "name": "drawDispute",
      "outputs": [],
      "stateMutability": "nonpayable",
      "type": "function"
    },
    {
      "inputs": [
        {
          "components": [
            {
              "internalType": "bytes32",
              "name": "requestCID",
              "type": "bytes32"
            },
            {
              "internalType": "bytes32",
              "name": "responseCID",
              "type": "bytes32"
            },
            {
              "internalType": "bytes32",
              "name": "subgraphDeploymentId",
              "type": "bytes32"
            }
          ],
          "internalType": "struct Attestation.Receipt",
          "name": "receipt",
          "type": "tuple"
        }
      ],
      "name": "encodeReceipt",
      "outputs": [
        {
          "internalType": "bytes32",
          "name": "",
          "type": "bytes32"
        }
      ],
      "stateMutability": "view",
      "type": "function"
    },
    {
      "inputs": [],
      "name": "fishermanRewardCut",
      "outputs": [
        {
          "internalType": "uint32",
          "name": "",
          "type": "uint32"
        }
      ],
      "stateMutability": "view",
      "type": "function"
    },
    {
      "inputs": [
        {
          "components": [
            {
              "internalType": "bytes32",
              "name": "requestCID",
              "type": "bytes32"
            },
            {
              "internalType": "bytes32",
              "name": "responseCID",
              "type": "bytes32"
            },
            {
              "internalType": "bytes32",
              "name": "subgraphDeploymentId",
              "type": "bytes32"
            },
            {
              "internalType": "bytes32",
              "name": "r",
              "type": "bytes32"
            },
            {
              "internalType": "bytes32",
              "name": "s",
              "type": "bytes32"
            },
            {
              "internalType": "uint8",
              "name": "v",
              "type": "uint8"
            }
          ],
          "internalType": "struct Attestation.State",
          "name": "attestation",
          "type": "tuple"
        }
      ],
      "name": "getAttestationIndexer",
      "outputs": [
        {
          "internalType": "address",
          "name": "",
          "type": "address"
        }
      ],
      "stateMutability": "view",
      "type": "function"
    },
    {
      "inputs": [],
      "name": "getDisputePeriod",
      "outputs": [
        {
          "internalType": "uint64",
          "name": "",
          "type": "uint64"
        }
      ],
      "stateMutability": "view",
      "type": "function"
    },
    {
      "inputs": [
        {
          "internalType": "address",
          "name": "indexer",
          "type": "address"
        }
      ],
      "name": "getStakeSnapshot",
      "outputs": [
        {
          "internalType": "uint256",
          "name": "",
          "type": "uint256"
        }
      ],
      "stateMutability": "view",
      "type": "function"
    },
    {
      "inputs": [],
      "name": "getVerifierCut",
      "outputs": [
        {
          "internalType": "uint32",
          "name": "",
          "type": "uint32"
        }
      ],
      "stateMutability": "view",
      "type": "function"
    },
    {
      "inputs": [
        {
          "internalType": "address",
          "name": "arbitrator",
          "type": "address"
        },
        {
          "internalType": "uint64",
          "name": "disputePeriod",
          "type": "uint64"
        },
        {
          "internalType": "uint256",
          "name": "disputeDeposit",
          "type": "uint256"
        },
        {
          "internalType": "uint32",
          "name": "fishermanRewardCut_",
          "type": "uint32"
        },
        {
          "internalType": "uint32",
          "name": "maxSlashingCut_",
          "type": "uint32"
        }
      ],
      "name": "initialize",
      "outputs": [],
      "stateMutability": "nonpayable",
      "type": "function"
    },
    {
      "inputs": [
        {
          "internalType": "bytes32",
          "name": "disputeId",
          "type": "bytes32"
        }
      ],
      "name": "isDisputeCreated",
      "outputs": [
        {
          "internalType": "bool",
          "name": "",
          "type": "bool"
        }
      ],
      "stateMutability": "view",
      "type": "function"
    },
    {
      "inputs": [],
      "name": "maxSlashingCut",
      "outputs": [
        {
          "internalType": "uint32",
          "name": "",
          "type": "uint32"
        }
      ],
      "stateMutability": "view",
      "type": "function"
    },
    {
      "inputs": [],
      "name": "owner",
      "outputs": [
        {
          "internalType": "address",
          "name": "",
          "type": "address"
        }
      ],
      "stateMutability": "view",
      "type": "function"
    },
    {
      "inputs": [
        {
          "internalType": "bytes32",
          "name": "disputeId",
          "type": "bytes32"
        }
      ],
      "name": "rejectDispute",
      "outputs": [],
      "stateMutability": "nonpayable",
      "type": "function"
    },
    {
      "inputs": [],
      "name": "renounceOwnership",
      "outputs": [],
      "stateMutability": "nonpayable",
      "type": "function"
    },
    {
      "inputs": [
        {
          "internalType": "address",
          "name": "arbitrator",
          "type": "address"
        }
      ],
      "name": "setArbitrator",
      "outputs": [],
      "stateMutability": "nonpayable",
      "type": "function"
    },
    {
      "inputs": [
        {
          "internalType": "uint256",
          "name": "disputeDeposit",
          "type": "uint256"
        }
      ],
      "name": "setDisputeDeposit",
      "outputs": [],
      "stateMutability": "nonpayable",
      "type": "function"
    },
    {
      "inputs": [
        {
          "internalType": "uint64",
          "name": "disputePeriod",
          "type": "uint64"
        }
      ],
      "name": "setDisputePeriod",
      "outputs": [],
      "stateMutability": "nonpayable",
      "type": "function"
    },
    {
      "inputs": [
        {
          "internalType": "uint32",
          "name": "fishermanRewardCut_",
          "type": "uint32"
        }
      ],
      "name": "setFishermanRewardCut",
      "outputs": [],
      "stateMutability": "nonpayable",
      "type": "function"
    },
    {
      "inputs": [
        {
          "internalType": "uint32",
          "name": "maxSlashingCut_",
          "type": "uint32"
        }
      ],
      "name": "setMaxSlashingCut",
      "outputs": [],
      "stateMutability": "nonpayable",
      "type": "function"
    },
    {
      "inputs": [
        {
          "internalType": "address",
          "name": "subgraphService",
          "type": "address"
        }
      ],
      "name": "setSubgraphService",
      "outputs": [],
      "stateMutability": "nonpayable",
      "type": "function"
    },
    {
      "inputs": [],
      "name": "subgraphService",
      "outputs": [
        {
          "internalType": "contract ISubgraphService",
          "name": "",
          "type": "address"
        }
      ],
      "stateMutability": "view",
      "type": "function"
    },
    {
      "inputs": [
        {
          "internalType": "address",
          "name": "newOwner",
          "type": "address"
        }
      ],
      "name": "transferOwnership",
      "outputs": [],
      "stateMutability": "nonpayable",
      "type": "function"
    }
  ],
  "bytecode": "0x6101c060405234801561001157600080fd5b506040516138243803806138248339810160408190526100309161049b565b806001600160a01b03811661007a5760405163218f5add60e11b815260206004820152600a60248201526921b7b73a3937b63632b960b11b60448201526064015b60405180910390fd5b6001600160a01b0381166101005260408051808201909152600a81526923b930b8342a37b5b2b760b11b60208201526100b29061033b565b6001600160a01b03166080526040805180820190915260078152665374616b696e6760c81b60208201526100e59061033b565b6001600160a01b031660a05260408051808201909152600d81526c47726170685061796d656e747360981b602082015261011e9061033b565b6001600160a01b031660c05260408051808201909152600e81526d5061796d656e7473457363726f7760901b60208201526101589061033b565b6001600160a01b031660e05260408051808201909152600c81526b22b837b1b426b0b730b3b2b960a11b60208201526101909061033b565b6001600160a01b03166101205260408051808201909152600e81526d2932bbb0b93239a6b0b730b3b2b960911b60208201526101cb9061033b565b6001600160a01b0316610140526040805180820190915260118152704772617068546f6b656e4761746577617960781b60208201526102099061033b565b6001600160a01b03166101605260408051808201909152600f81526e23b930b834283937bc3ca0b236b4b760891b60208201526102459061033b565b6001600160a01b03166101805260408051808201909152600881526721bab930ba34b7b760c11b602082015261027a9061033b565b6001600160a01b039081166101a08190526101005160a05160805160c05160e05161012051610140516101605161018051604051988b169a9788169996909716977fef5021414834d86e36470f5c1cecf6544fb2bb723f2ca51a4c86fcd8c5919a43976103249790916001600160a01b03978816815295871660208701529386166040860152918516606085015284166080840152831660a083015290911660c082015260e00190565b60405180910390a4506103356103e9565b50610519565b600080610100516001600160a01b031663f7641a5e84805190602001206040518263ffffffff1660e01b815260040161037691815260200190565b602060405180830381865afa158015610393573d6000803e3d6000fd5b505050506040513d601f19601f820116820180604052508101906103b7919061049b565b9050826001600160a01b0382166103e25760405163218f5add60e11b815260040161007191906104cb565b5092915050565b7ff0c57e16840df040f15088dc2f81fe391c3923bec73e23a9662efc9c229c6a00805468010000000000000000900460ff16156104395760405163f92ee8a960e01b815260040160405180910390fd5b80546001600160401b03908116146104985780546001600160401b0319166001600160401b0390811782556040519081527fc7f505b2f371ae2175ee4913f4499e1f2633a7b5936321eed1cdaeb6115181d29060200160405180910390a15b50565b6000602082840312156104ad57600080fd5b81516001600160a01b03811681146104c457600080fd5b9392505050565b602081526000825180602084015260005b818110156104f957602081860181015160408684010152016104dc565b506000604082850101526040601f19601f83011684010191505092915050565b60805160a05160c05160e05161010051610120516101405161016051610180516101a0516132a861057c60003960005050600050506000505060005050600050506000505060005050600050506000611fe30152600061160e01526132a86000f3fe608060405234801561001057600080fd5b50600436106101b05760003560e01c806376c993ae116100ef578063be41f38411610092578063be41f3841461040b578063c133b4291461042e578063c50a77b114610441578063c894222e14610454578063c9747f511461047c578063d36fc9d41461048f578063d76f62d1146104a2578063f2fde38b146104b557600080fd5b806376c993ae1461038657806384633713146103995780638da5cb5b146103a7578063902a4938146103af5780639334ea52146103bf57806393a90a1e146103d25780639f81a7cf146103e5578063b0eefabe146103f857600080fd5b806336167e031161015757806336167e03146102d95780634bc5839a146102ec5780635aea0ec4146102ff5780635bf31d4d1461032b5780635ed2c96c146103455780636369df6b146103585780636cc6cde11461036b578063715018a61461037e57600080fd5b8063050b17ad146101b55780630533e1ba146101ca57806311be1997146101fb578063169729781461027257806317337b46146102855780631792f1941461028f57806326058249146102a257806329e03ff1146102c2575b600080fd5b6101c86101c3366004612a74565b6104c8565b005b6036546101e190600160201b900463ffffffff1681565b60405163ffffffff90911681526020015b60405180910390f35b61025e610209366004612a96565b60376020526000908152604090208054600182015460028301546003840154600485015460058601546006909601546001600160a01b039586169695909416949293919260ff80831693610100909304169188565b6040516101f2989796959493929190612ad9565b6101c8610280366004612a96565b61074b565b6101e16207a12081565b6101c861029d366004612a96565b61075f565b6033546102b5906001600160a01b031681565b6040516101f29190612b39565b6102cb60355481565b6040519081526020016101f2565b6101c86102e7366004612a96565b610a07565b6102cb6102fa366004612b62565b610bef565b603454600160a01b90046001600160401b03165b6040516001600160401b0390911681526020016101f2565b60345461031390600160a01b90046001600160401b031681565b6101c8610353366004612bb5565b610c10565b6102cb610366366004612cb5565b610d43565b6034546102b5906001600160a01b031681565b6101c8610d4e565b6101c8610394366004612d20565b610d62565b60365463ffffffff166101e1565b6102b5610d73565b6036546101e19063ffffffff1681565b6101c86103cd366004612a96565b610d8e565b6101c86103e0366004612d3d565b610fae565b6101c86103f3366004612d20565b610fbf565b6101c8610406366004612d3d565b610fd0565b61041e610419366004612a96565b610fe1565b60405190151581526020016101f2565b6102cb61043c366004612d3d565b611017565b6102cb61044f366004612da2565b6110af565b610467610462366004612de3565b61113b565b604080519283526020830191909152016101f2565b6102b561048a366004612eb9565b611320565b61041e61049d366004612ed5565b611411565b6101c86104b0366004612f0b565b61141d565b6101c86104c3366004612d3d565b61142e565b6034546001600160a01b031633146104f35760405163a8baf3bb60e01b815260040160405180910390fd5b816104fd81610fe1565b8190610528576040516314a03bbd60e21b815260040161051f91815260200190565b60405180910390fd5b506004600082815260376020526040902060040154610100900460ff16600581111561055657610556612aaf565b600083815260376020526040902060040154610100900460ff1691146105905760405163146e540f60e21b815260040161051f9190612f28565b50600083815260376020526040812060048101805461ff001916610100179055805460068201549192916105cf916001600160a01b0316908690611469565b6001830154600284015491925061060e916001600160a01b03909116906105f69084612f4c565b6105fe61160c565b6001600160a01b03169190611630565b604080516101008101825283546001600160a01b0390811682526001850154166020820152600280850154928201929092526003840154606082015260048401546106d6928591608084019160ff9091169081111561066f5761066f612aaf565b600281111561068057610680612aaf565b81526020016004820160019054906101000a900460ff1660058111156106a8576106a8612aaf565b60058111156106b9576106b9612aaf565b8152602001600582015481526020016006820154815250506116e7565b156106e8576106e88260030154610a07565b6001820154825460028401546001600160a01b03928316929091169087907f6d800aaaf64b9a1f321dcd63da04369d33d8a0d49ad0fbba085aab4a98bf31c490610733908690612f4c565b60405190815260200160405180910390a45050505050565b61075361172e565b61075c81611760565b50565b8061076981610fe1565b819061078b576040516314a03bbd60e21b815260040161051f91815260200190565b506000818152603760205260409020600101546001600160a01b031633146107c65760405163082c005560e41b815260040160405180910390fd5b816107d081610fe1565b81906107f2576040516314a03bbd60e21b815260040161051f91815260200190565b506004600082815260376020526040902060040154610100900460ff16600581111561082057610820612aaf565b600083815260376020526040902060040154610100900460ff16911461085a5760405163146e540f60e21b815260040161051f9190612f28565b5060008381526037602052604090206034546005820154429161088e91600160a01b9091046001600160401b031690612f4c565b106108ac57604051631d7753d560e11b815260040160405180910390fd5b6002810154156108d657600181015460028201546108d6916001600160a01b0316906105fe61160c565b604080516101008101825282546001600160a01b03908116825260018401541660208201526002808401549282019290925260038301546060820152600483015461099e928491608084019160ff9091169081111561093757610937612aaf565b600281111561094857610948612aaf565b81526020016004820160019054906101000a900460ff16600581111561097057610970612aaf565b600581111561098157610981612aaf565b8152602001600582015481526020016006820154815250506117bf565b5060048101805461ff00191661050017905560018101548154600283015460408051918252516001600160a01b03938416939092169187917f223103f8eb52e5f43a75655152acd882a605d70df57a5c0fefd30f516b1756d2919081900360200190a450505050565b6034546001600160a01b03163314610a325760405163a8baf3bb60e01b815260040160405180910390fd5b80610a3c81610fe1565b8190610a5e576040516314a03bbd60e21b815260040161051f91815260200190565b506004600082815260376020526040902060040154610100900460ff166005811115610a8c57610a8c612aaf565b600083815260376020526040902060040154610100900460ff169114610ac65760405163146e540f60e21b815260040161051f9190612f28565b5060008281526037602090815260409182902060048101805461020061ff001982161790915583516101008101855282546001600160a01b0390811682526001840154169381019390935260028083015494840194909452600382015460608401529092610b4992918491608084019160ff169081111561066f5761066f612aaf565b6003820154849115610b7757604051634137159360e11b81526004810192909252602482015260440161051f565b5050610b988160020154610b8961160c565b6001600160a01b03169061180d565b6001810154815460028301546040519081526001600160a01b03928316929091169085907f2226ebd23625a7938fb786df2248bd171d2e6ad70cb2b654ea1be830ca17224d906020015b60405180910390a4505050565b6000610bf9611872565b610c07336035548585611891565b90505b92915050565b6000610c1a611bd3565b805490915060ff600160401b82041615906001600160401b0316600081158015610c415750825b90506000826001600160401b03166001148015610c5d5750303b155b905081158015610c6b575080155b15610c895760405163f92ee8a960e01b815260040160405180910390fd5b845467ffffffffffffffff191660011785558315610cb357845460ff60401b1916600160401b1785555b610cbc33611bf7565b610cc4611c08565b610ccd8a611c18565b610cd689611c89565b610cdf88611760565b610ce887611d0e565b610cf186611d8b565b8315610d3757845460ff60401b19168555604051600181527fc7f505b2f371ae2175ee4913f4499e1f2633a7b5936321eed1cdaeb6115181d29060200160405180910390a15b50505050505050505050565b6000610c0a82611e18565b610d5661172e565b610d606000611eb5565b565b610d6a61172e565b61075c81611d0e565b600080610d7e611f11565b546001600160a01b031692915050565b6034546001600160a01b03163314610db95760405163a8baf3bb60e01b815260040160405180910390fd5b80610dc381610fe1565b8190610de5576040516314a03bbd60e21b815260040161051f91815260200190565b506004600082815260376020526040902060040154610100900460ff166005811115610e1357610e13612aaf565b600083815260376020526040902060040154610100900460ff169114610e4d5760405163146e540f60e21b815260040161051f9190612f28565b506000828152603760205260409020600281015415610e865760018101546002820154610e86916001600160a01b0316906105fe61160c565b604080516101008101825282546001600160a01b039081168252600184015416602082015260028084015492820192909252600383015460608201526004830154610f4e928491608084019160ff90911690811115610ee757610ee7612aaf565b6002811115610ef857610ef8612aaf565b81526020016004820160019054906101000a900460ff166005811115610f2057610f20612aaf565b6005811115610f3157610f31612aaf565b815260200160058201548152602001600682015481525050611f35565b5060048101805461ff0019166103001790556001810154815460028301546040519081526001600160a01b03928316929091169085907ff0912efb86ea1d65a17d64d48393cdb1ca0ea5220dd2bbe438621199d30955b790602001610be2565b610fb661172e565b61075c81611f70565b610fc761172e565b61075c81611d8b565b610fd861172e565b61075c81611c18565b600080600083815260376020526040902060040154610100900460ff16600581111561100f5761100f612aaf565b141592915050565b600080611022611fe1565b6033546040516312ecc4bf60e11b81526001600160a01b03928316926325d9897e9261105692889290911690600401612f5f565b61012060405180830381865afa158015611074573d6000803e3d6000fd5b505050506040513d601f19601f820116820180604052508101906110989190612f94565b90506110a8838260000151612005565b9392505050565b60006110b9611872565b610c07336035546110ff86868080601f01602080910402602001604051908101604052809392919081815260200183838082843760009201919091525061213692505050565b86868080601f01602080910402602001604051908101604052809392919081815260200183838082843760009201919091525061227d92505050565b6000806000339050600061118488888080601f01602080910402602001604051908101604052809392919081815260200183838082843760009201919091525061213692505050565b905060006111c787878080601f01602080910402602001604051908101604052809392919081815260200183838082843760009201919091525061213692505050565b90506111d38282612532565b8251602080850151604080870151865193870151918701519495929490939261123257604051636aba529760e11b81526004810196909652602486019490945260448501929092526064840152608483015260a482015260c40161051f565b505050505050600061127d846000858d8d8080601f01602080910402602001604051908101604052809392919081815260200183838082843760009201919091525061227d92505050565b905060006112c4856000858c8c8080601f01602080910402602001604051908101604052809392919081815260200183838082843760009201919091525061227d92505050565b60008381526037602052604080822060039081018490558383528183200185905551919250829184917ffec135a4cf8e5c6e13dea23be058bf03a8bf8f1f6fb0a021b0a5aeddfba8140791a3909a909950975050505050505050565b60008061132c83612563565b603354604051630e02292360e01b81529192506000916001600160a01b0390911690630e02292390611362908590600401612b39565b61010060405180830381865afa158015611380573d6000803e3d6000fd5b505050506040513d601f19601f820116820180604052508101906113a49190613036565b805190915082906001600160a01b03166113d2576040516334789d8b60e21b815260040161051f9190612b39565b50604084015160208201519081811461140757604051630a24cfe560e21b81526004810192909252602482015260440161051f565b5050519392505050565b6000610c078383612532565b61142561172e565b61075c81611c89565b61143661172e565b6001600160a01b038116611460576000604051631e4fbdf760e01b815260040161051f9190612b39565b61075c81611eb5565b600080611474611fe1565b6033546040516312ecc4bf60e11b81526001600160a01b03928316926325d9897e926114a8928a9290911690600401612f5f565b61012060405180830381865afa1580156114c6573d6000803e3d6000fd5b505050506040513d601f19601f820116820180604052508101906114ea9190612f94565b60365490915060009061150f90859063ffffffff600160201b9091048116906125f416565b905084158015906115205750808511155b8582909161154a5760405163cc6b7c4160e01b81526004810192909252602482015260440161051f565b5050600061155c86846000015161265b565b60365490915060009061157a9063ffffffff9081169084906125f416565b60335460408051602081018b905280820184905281518082038301815260608201928390526365c1a3ff60e11b9092529293506001600160a01b039091169163cb8347fe916115ce918c91906064016130f9565b600060405180830381600087803b1580156115e857600080fd5b505af11580156115fc573d6000803e3d6000fd5b50929a9950505050505050505050565b7f000000000000000000000000000000000000000000000000000000000000000090565b80156116e25760405163a9059cbb60e01b81526001600160a01b0383811660048301526024820183905284169063a9059cbb906044015b6020604051808303816000875af1158015611686573d6000803e3d6000fd5b505050506040513d601f19601f820116820180604052508101906116aa919061311d565b6116e25760405162461bcd60e51b815260206004820152600960248201526810ba3930b739b332b960b91b604482015260640161051f565b505050565b606081015160009080158015906110a857506004600082815260376020526040902060040154610100900460ff16600581111561172657611726612aaf565b149392505050565b33611737610d73565b6001600160a01b031614610d60573360405163118cdaa760e01b815260040161051f9190612b39565b80806117825760405163033f4e0560e01b815260040161051f91815260200190565b5060358190556040518181527f97896b9da0f97f36bf3011570bcff930069299de4b1e89c9cb44909841cac2f8906020015b60405180910390a150565b60006117ca826116e7565b1561180557606082015160008181526037602052604090206004810180546005919061ff001916610100835b02179055506001949350505050565b506000919050565b801561186e57604051630852cd8d60e31b8152600481018290526001600160a01b038316906342966c6890602401600060405180830381600087803b15801561185557600080fd5b505af1158015611869573d6000803e3d6000fd5b505050505b5050565b610d603360355461188161160c565b6001600160a01b03169190612671565b6040516001600160601b0319606084901b1660208201526034810182905260009081906054016040516020818303038152906040528051906020012090506118d881610fe1565b1581906118fb5760405163124a23f160e11b815260040161051f91815260200190565b50603354604051630e02292360e01b81526000916001600160a01b031690630e0229239061192d908890600401612b39565b61010060405180830381865afa15801561194b573d6000803e3d6000fd5b505050506040513d601f19601f8201168201806040525081019061196f9190613036565b8051909150856001600160a01b03821661199d576040516334789d8b60e21b815260040161051f9190612b39565b5060006119a8611fe1565b6033546040516312ecc4bf60e11b81526001600160a01b03928316926325d9897e926119dc92879290911690600401612f5f565b61012060405180830381865afa1580156119fa573d6000803e3d6000fd5b505050506040513d601f19601f82011682018060405250810190611a1e9190612f94565b8051909150600003611a435760405163307efdb760e11b815260040160405180910390fd5b6000611a53838360000151612005565b604080516101008101825286516001600160a01b0390811682528d1660208201529081018b905260006060820152909150608081016001815260200160048152426020808301919091526040918201849052600088815260378252829020835181546001600160a01b039182166001600160a01b031991821617835592850151600180840180549290931691909416179055918301516002808401919091556060840151600384015560808401516004840180549193909260ff19909216918490811115611b2357611b23612aaf565b021790555060a082015160048201805461ff001916610100836005811115611b4d57611b4d612aaf565b021790555060c0820151600582015560e0909101516006909101558351604080518b81526001600160a01b038b811660208301529181018a905260608101849052818d16929091169087907fbfd6e5f61b4aa04b088a513a833705c7c703b907516c1dbfa66f93d1f725d33d9060800160405180910390a4509298975050505050505050565b7ff0c57e16840df040f15088dc2f81fe391c3923bec73e23a9662efc9c229c6a0090565b611bff6126b2565b61075c816126d7565b611c106126b2565b610d606126df565b6001600160a01b038116611c3f5760405163616bc44160e11b815260040160405180910390fd5b603480546001600160a01b0319166001600160a01b0383169081179091556040517f51744122301b50e919f4e3d22adf8c53abc92195b8c667eda98c6ef20375672e90600090a250565b806001600160401b0316600003611cb35760405163c4411f1160e01b815260040160405180910390fd5b6034805467ffffffffffffffff60a01b1916600160a01b6001600160401b038416908102919091179091556040519081527f310462a9bf49fff4a57910ec647c77cbf8aaf2f13394554ac6cdf14fc68db7e6906020016117b4565b806207a12063ffffffff82161115611d425760405163432e664360e11b815263ffffffff909116600482015260240161051f565b506036805463ffffffff191663ffffffff83169081179091556040519081527fc573dc0f869f6a1d0a74fc7712a63baabcb5567131d2d98005e163924eddcbab906020016117b4565b8063ffffffff8116620f42401015611dbf57604051634e9374fb60e11b815263ffffffff909116600482015260240161051f565b506036805467ffffffff000000001916600160201b63ffffffff8481168202929092179283905560405192041681527f7efaf01bec3cda8d104163bb466d01d7e16f68848301c7eb0749cfa59d680502906020016117b4565b600054815160208084015160409485015185517f32dd026408194a0d7e54cc66a2ab6c856efc55cfcd4dd258fde5b1a55222baa6818501528087019490945260608401919091526080808401919091528451808403909101815260a08301855280519082012061190160f01b60c084015260c283019390935260e28083019390935283518083039093018352610102909101909252805191012090565b6000611ebf611f11565b80546001600160a01b038481166001600160a01b031983168117845560405193945091169182907f8be0079c531659141344cd1fd0a4f28419497f9722a3daafe3b4186f6b6457e090600090a3505050565b7f9016d09d72d40fdae2fd8ceac6b6234c7706214fd39c1cd1e609a0528c19930090565b6000611f40826116e7565b1561180557606082015160008181526037602052604090206004810180546003919061ff001916610100836117f6565b6001600160a01b038116611f975760405163616bc44160e11b815260040160405180910390fd5b603380546001600160a01b0319166001600160a01b0383169081179091556040517f81dcb738da3dabd5bb2adbc7dd107fbbfca936e9c8aecab25f5b17a710a784c790600090a250565b7f000000000000000000000000000000000000000000000000000000000000000090565b600080612010611fe1565b603354604051631584a17960e21b81526001600160a01b039283169263561285e49261204492899290911690600401612f5f565b60a060405180830381865afa158015612061573d6000803e3d6000fd5b505050506040513d601f19601f82011682018060405250810190612085919061313f565b6000015190506000603360009054906101000a90046001600160a01b03166001600160a01b0316631ebb7c306040518163ffffffff1660e01b8152600401602060405180830381865afa1580156120e0573d6000803e3d6000fd5b505050506040513d601f19601f8201168201806040525081019061210491906131be565b6121149063ffffffff16856131db565b9050600061212283836127b1565b61212c9086612f4c565b9695505050505050565b6040805160c081018252600080825260208201819052918101829052606081018290526080810182905260a08101919091526001612175602080612f4c565b61217f9190612f4c565b61218a906060612f4c565b825190811490600161219d602080612f4c565b6121a79190612f4c565b6121b2906060612f4c565b90916121da57604051633fdf342360e01b81526004810192909252602482015260440161051f565b50506000806000848060200190518101906121f591906131f2565b92509250925060006122088660606127c1565b905060006122218761221c60206060612f4c565b6127c1565b90506000612245886020612236816060612f4c565b6122409190612f4c565b612813565b6040805160c081018252978852602088019690965294860193909352606085019190915260808401525060ff1660a082015292915050565b60008061228984611320565b90506000612295611fe1565b6033546040516312ecc4bf60e11b81526001600160a01b03928316926325d9897e926122c992879290911690600401612f5f565b61012060405180830381865afa1580156122e7573d6000803e3d6000fd5b505050506040513d601f19601f8201168201806040525081019061230b9190612f94565b80519091506000036123305760405163307efdb760e11b815260040160405180910390fd5b84516020808701516040808901518151938401949094528201526060808201929092526001600160601b031984831b811660808301529189901b909116609482015260009060a80160405160208183030381529060405280519060200120905061239981610fe1565b1581906123bc5760405163124a23f160e11b815260040161051f91815260200190565b5060006123cd848460000151612005565b60408051610100810182526001600160a01b0387811682528c811660208084019182528385018e8152600060608601818152600260808801818152600460a08a018190524260c08b015260e08a018c90528d8552603790965298909220875181549088166001600160a01b031991821617825595516001808301805492909916919097161790965591518582015590516003850155945190830180549697509395929490939260ff19169190849081111561248a5761248a612aaf565b021790555060a082015160048201805461ff0019166101008360058111156124b4576124b4612aaf565b021790555060c0820151816005015560e08201518160060155905050886001600160a01b0316846001600160a01b0316837ffb609a7fd5eb7947365d2f96d051030cac33a27e3e4923f97ea4e03aaa2bcb148b8b604001518b8760405161251e9493929190613220565b60405180910390a450979650505050505050565b8051825160009114801561254d575081604001518360400151145b8015610c07575050602090810151910151141590565b60408051606081018252825181526020808401519082015282820151918101919091526000908161259382611e18565b90506125ec81856060015186608001518760a001516040516020016125d893929190928352602083019190915260f81b6001600160f81b031916604082015260410190565b604051602081830303815290604052612865565b949350505050565b600061260383620f4240101590565b80612616575061261682620f4240101590565b838390916126405760405163768bf0eb60e11b81526004810192909252602482015260440161051f565b50620f4240905061265183856131db565b610c079190613250565b600081831061266a5781610c07565b5090919050565b80156116e2576040516323b872dd60e01b81526001600160a01b038381166004830152306024830152604482018390528416906323b872dd90606401611667565b6126ba61288f565b610d6057604051631afcd79f60e31b815260040160405180910390fd5b6114366126b2565b6126e76126b2565b604080517fd87cd6ef79d4e2b95e15ce8abf732db51ec771f1ca2edccf22a46c729ac5647260208201527f171a7fa058648750a8c5aae430f30db8d0100efc3a5e1b2e8054b1c1ce28b6b4918101919091527f044852b2a670ade5407e78fb2863c51de9fcb96542a07186fe3aeda6bb8a116d60608201524660808201523060a08201527fa070ffb1cd7409649bf77822cce74495468e06dbfaef09556838bf188679b9c260c082015260e00160408051601f198184030181529190528051602090910120600055565b60008183111561266a5781610c07565b60006127ce602083612f4c565b835190811015906127e0602085612f4c565b909161280857604051633fdf342360e01b81526004810192909252602482015260440161051f565b505050016020015190565b6000612820600183612f4c565b83519081101590612832600185612f4c565b909161285a57604051633fdf342360e01b81526004810192909252602482015260440161051f565b505050016001015190565b60008060008061287586866128a9565b92509250925061288582826128f6565b5090949350505050565b6000612899611bd3565b54600160401b900460ff16919050565b600080600083516041036128e35760208401516040850151606086015160001a6128d5888285856129af565b9550955095505050506128ef565b50508151600091506002905b9250925092565b600082600381111561290a5761290a612aaf565b03612913575050565b600182600381111561292757612927612aaf565b036129455760405163f645eedf60e01b815260040160405180910390fd5b600282600381111561295957612959612aaf565b0361297a5760405163fce698f760e01b81526004810182905260240161051f565b600382600381111561298e5761298e612aaf565b0361186e576040516335e2f38360e21b81526004810182905260240161051f565b600080806fa2a8918ca85bafe22016d0b997e4df60600160ff1b038411156129e05750600091506003905082612a6a565b604080516000808252602082018084528a905260ff891692820192909252606081018790526080810186905260019060a0016020604051602081039080840390855afa158015612a34573d6000803e3d6000fd5b5050604051601f1901519150506001600160a01b038116612a6057506000925060019150829050612a6a565b9250600091508190505b9450945094915050565b60008060408385031215612a8757600080fd5b50508035926020909101359150565b600060208284031215612aa857600080fd5b5035919050565b634e487b7160e01b600052602160045260246000fd5b60068110612ad557612ad5612aaf565b9052565b6001600160a01b038981168252881660208201526040810187905260608101869052610100810160038610612b1057612b10612aaf565b856080830152612b2360a0830186612ac5565b60c082019390935260e001529695505050505050565b6001600160a01b0391909116815260200190565b6001600160a01b038116811461075c57600080fd5b60008060408385031215612b7557600080fd5b8235612b8081612b4d565b946020939093013593505050565b6001600160401b038116811461075c57600080fd5b63ffffffff8116811461075c57600080fd5b600080600080600060a08688031215612bcd57600080fd5b8535612bd881612b4d565b94506020860135612be881612b8e565b9350604086013592506060860135612bff81612ba3565b91506080860135612c0f81612ba3565b809150509295509295909350565b60405160c081016001600160401b0381118282101715612c4d57634e487b7160e01b600052604160045260246000fd5b60405290565b60405161012081016001600160401b0381118282101715612c4d57634e487b7160e01b600052604160045260246000fd5b60405161010081016001600160401b0381118282101715612c4d57634e487b7160e01b600052604160045260246000fd5b60006060828403128015612cc857600080fd5b50604051600090606081016001600160401b0381118282101715612cfa57634e487b7160e01b83526041600452602483fd5b604090815284358252602080860135908301529384013593810193909352509092915050565b600060208284031215612d3257600080fd5b81356110a881612ba3565b600060208284031215612d4f57600080fd5b81356110a881612b4d565b60008083601f840112612d6c57600080fd5b5081356001600160401b03811115612d8357600080fd5b602083019150836020828501011115612d9b57600080fd5b9250929050565b60008060208385031215612db557600080fd5b82356001600160401b03811115612dcb57600080fd5b612dd785828601612d5a565b90969095509350505050565b60008060008060408587031215612df957600080fd5b84356001600160401b03811115612e0f57600080fd5b612e1b87828801612d5a565b90955093505060208501356001600160401b03811115612e3a57600080fd5b612e4687828801612d5a565b95989497509550505050565b600060c08284031215612e6457600080fd5b612e6c612c1d565b8235815260208084013590820152604080840135908201526060808401359082015260808084013590820152905060a082013560ff81168114612eae57600080fd5b60a082015292915050565b600060c08284031215612ecb57600080fd5b610c078383612e52565b6000806101808385031215612ee957600080fd5b612ef38484612e52565b9150612f028460c08501612e52565b90509250929050565b600060208284031215612f1d57600080fd5b81356110a881612b8e565b60208101610c0a8284612ac5565b634e487b7160e01b600052601160045260246000fd5b80820180821115610c0a57610c0a612f36565b6001600160a01b0392831681529116602082015260400190565b8051612f8481612ba3565b919050565b8051612f8481612b8e565b6000610120828403128015612fa857600080fd5b506000612fb3612c53565b835181526020808501519082015260408085015190820152612fd760608501612f79565b6060820152612fe860808501612f89565b6080820152612ff960a08501612f89565b60a082015261300a60c08501612f79565b60c082015261301b60e08501612f89565b60e08201526101009384015193810193909352509092915050565b600061010082840312801561304a57600080fd5b506000613055612c84565b835161306081612b4d565b81526020848101519082015260408085015190820152606080850151908201526080808501519082015260a0808501519082015260c0808501519082015260e09384015193810193909352509092915050565b6000815180845260005b818110156130d9576020818501810151868301820152016130bd565b506000602082860101526020601f19601f83011685010191505092915050565b6001600160a01b03831681526040602082018190526000906125ec908301846130b3565b60006020828403121561312f57600080fd5b815180151581146110a857600080fd5b600060a082840312801561315257600080fd5b5060405160009060a081016001600160401b038111828210171561318457634e487b7160e01b83526041600452602483fd5b6040908152845182526020808601519083015284810151908201526060808501519082015260809384015193810193909352509092915050565b6000602082840312156131d057600080fd5b81516110a881612ba3565b8082028115828204841417610c0a57610c0a612f36565b60008060006060848603121561320757600080fd5b5050815160208301516040909301519094929350919050565b84815283602082015260806040820152600061323f60808301856130b3565b905082606083015295945050505050565b60008261326d57634e487b7160e01b600052601260045260246000fd5b50049056fea264697066735822122015fc51a79247a9edf26bdaf727ea63de7398a97bc3a27ad1e74c0ff8bf34282e64736f6c634300081b0033",
  "linkReferences": {},
  "deployedLinkReferences": {}
}