{
  "_format": "hh-sol-artifact-1",
  "contractName": "DisputeManager",
  "sourceName": "contracts/DisputeManager.sol",
  "abi": [
    {
      "inputs": [
        {
          "internalType": "address",
          "name": "controller",
          "type": "address"
        }
      ],
      "stateMutability": "nonpayable",
      "type": "constructor"
    },
    {
      "inputs": [
        {
          "internalType": "uint256",
          "name": "length",
          "type": "uint256"
        },
        {
          "internalType": "uint256",
          "name": "expectedLength",
          "type": "uint256"
        }
      ],
      "name": "AttestationInvalidBytesLength",
      "type": "error"
    },
    {
      "inputs": [
        {
          "internalType": "bytes32",
          "name": "disputeId",
          "type": "bytes32"
        }
      ],
      "name": "DisputeManagerDisputeAlreadyCreated",
      "type": "error"
    },
    {
      "inputs": [
        {
          "internalType": "bytes32",
          "name": "disputeId",
          "type": "bytes32"
        }
      ],
      "name": "DisputeManagerDisputeInConflict",
      "type": "error"
    },
    {
      "inputs": [
        {
          "internalType": "bytes32",
          "name": "disputeId",
          "type": "bytes32"
        }
      ],
      "name": "DisputeManagerDisputeNotInConflict",
      "type": "error"
    },
    {
      "inputs": [
        {
          "internalType": "enum IDisputeManager.DisputeStatus",
          "name": "status",
          "type": "uint8"
        }
      ],
      "name": "DisputeManagerDisputeNotPending",
      "type": "error"
    },
    {
      "inputs": [],
      "name": "DisputeManagerDisputePeriodNotFinished",
      "type": "error"
    },
    {
      "inputs": [],
      "name": "DisputeManagerDisputePeriodZero",
      "type": "error"
    },
    {
      "inputs": [
        {
          "internalType": "address",
          "name": "allocationId",
          "type": "address"
        }
      ],
      "name": "DisputeManagerIndexerNotFound",
      "type": "error"
    },
    {
      "inputs": [
        {
          "internalType": "bytes32",
          "name": "disputeId",
          "type": "bytes32"
        }
      ],
      "name": "DisputeManagerInvalidDispute",
      "type": "error"
    },
    {
      "inputs": [
        {
          "internalType": "uint256",
          "name": "disputeDeposit",
          "type": "uint256"
        }
      ],
      "name": "DisputeManagerInvalidDisputeDeposit",
      "type": "error"
    },
    {
      "inputs": [
        {
          "internalType": "uint32",
          "name": "cut",
          "type": "uint32"
        }
      ],
      "name": "DisputeManagerInvalidFishermanReward",
      "type": "error"
    },
    {
      "inputs": [
        {
          "internalType": "uint32",
          "name": "maxSlashingCut",
          "type": "uint32"
        }
      ],
      "name": "DisputeManagerInvalidMaxSlashingCut",
      "type": "error"
    },
    {
      "inputs": [
        {
          "internalType": "uint256",
          "name": "tokensSlash",
          "type": "uint256"
        },
        {
          "internalType": "uint256",
          "name": "maxTokensSlash",
          "type": "uint256"
        }
      ],
      "name": "DisputeManagerInvalidTokensSlash",
      "type": "error"
    },
    {
      "inputs": [],
      "name": "DisputeManagerInvalidZeroAddress",
      "type": "error"
    },
    {
      "inputs": [
        {
          "internalType": "bytes32",
          "name": "disputeId",
          "type": "bytes32"
        },
        {
          "internalType": "bytes32",
          "name": "relatedDisputeId",
          "type": "bytes32"
        }
      ],
      "name": "DisputeManagerMustAcceptRelatedDispute",
      "type": "error"
    },
    {
      "inputs": [
        {
          "internalType": "bytes32",
          "name": "requestCID1",
          "type": "bytes32"
        },
        {
          "internalType": "bytes32",
          "name": "responseCID1",
          "type": "bytes32"
        },
        {
          "internalType": "bytes32",
          "name": "subgraphDeploymentId1",
          "type": "bytes32"
        },
        {
          "internalType": "bytes32",
          "name": "requestCID2",
          "type": "bytes32"
        },
        {
          "internalType": "bytes32",
          "name": "responseCID2",
          "type": "bytes32"
        },
        {
          "internalType": "bytes32",
          "name": "subgraphDeploymentId2",
          "type": "bytes32"
        }
      ],
      "name": "DisputeManagerNonConflictingAttestations",
      "type": "error"
    },
    {
      "inputs": [
        {
          "internalType": "bytes32",
          "name": "subgraphDeploymentId1",
          "type": "bytes32"
        },
        {
          "internalType": "bytes32",
          "name": "subgraphDeploymentId2",
          "type": "bytes32"
        }
      ],
      "name": "DisputeManagerNonMatchingSubgraphDeployment",
      "type": "error"
    },
    {
      "inputs": [],
      "name": "DisputeManagerNotArbitrator",
      "type": "error"
    },
    {
      "inputs": [],
      "name": "DisputeManagerNotFisherman",
      "type": "error"
    },
    {
      "inputs": [],
      "name": "DisputeManagerSubgraphServiceNotSet",
      "type": "error"
    },
    {
      "inputs": [],
      "name": "DisputeManagerZeroTokens",
      "type": "error"
    },
    {
      "inputs": [],
      "name": "ECDSAInvalidSignature",
      "type": "error"
    },
    {
      "inputs": [
        {
          "internalType": "uint256",
          "name": "length",
          "type": "uint256"
        }
      ],
      "name": "ECDSAInvalidSignatureLength",
      "type": "error"
    },
    {
      "inputs": [
        {
          "internalType": "bytes32",
          "name": "s",
          "type": "bytes32"
        }
      ],
      "name": "ECDSAInvalidSignatureS",
      "type": "error"
    },
    {
      "inputs": [
        {
          "internalType": "bytes",
          "name": "contractName",
          "type": "bytes"
        }
      ],
      "name": "GraphDirectoryInvalidZeroAddress",
      "type": "error"
    },
    {
      "inputs": [],
      "name": "InvalidInitialization",
      "type": "error"
    },
    {
      "inputs": [],
      "name": "NotInitializing",
      "type": "error"
    },
    {
      "inputs": [
        {
          "internalType": "address",
          "name": "owner",
          "type": "address"
        }
      ],
      "name": "OwnableInvalidOwner",
      "type": "error"
    },
    {
      "inputs": [
        {
          "internalType": "address",
          "name": "account",
          "type": "address"
        }
      ],
      "name": "OwnableUnauthorizedAccount",
      "type": "error"
    },
    {
      "inputs": [
        {
          "internalType": "uint256",
          "name": "a",
          "type": "uint256"
        },
        {
          "internalType": "uint256",
          "name": "b",
          "type": "uint256"
        }
      ],
      "name": "PPMMathInvalidMulPPM",
      "type": "error"
    },
    {
      "anonymous": false,
      "inputs": [
        {
          "indexed": true,
          "internalType": "address",
          "name": "arbitrator",
          "type": "address"
        }
      ],
      "name": "ArbitratorSet",
      "type": "event"
    },
    {
      "anonymous": false,
      "inputs": [
        {
          "indexed": true,
          "internalType": "bytes32",
          "name": "disputeId",
          "type": "bytes32"
        },
        {
          "indexed": true,
          "internalType": "address",
          "name": "indexer",
          "type": "address"
        },
        {
          "indexed": true,
          "internalType": "address",
          "name": "fisherman",
          "type": "address"
        },
        {
          "indexed": false,
          "internalType": "uint256",
          "name": "tokens",
          "type": "uint256"
        }
      ],
      "name": "DisputeAccepted",
      "type": "event"
    },
    {
      "anonymous": false,
      "inputs": [
        {
          "indexed": true,
          "internalType": "bytes32",
          "name": "disputeId",
          "type": "bytes32"
        },
        {
          "indexed": true,
          "internalType": "address",
          "name": "indexer",
          "type": "address"
        },
        {
          "indexed": true,
          "internalType": "address",
          "name": "fisherman",
          "type": "address"
        },
        {
          "indexed": false,
          "internalType": "uint256",
          "name": "tokens",
          "type": "uint256"
        }
      ],
      "name": "DisputeCancelled",
      "type": "event"
    },
    {
      "anonymous": false,
      "inputs": [
        {
          "indexed": false,
          "internalType": "uint256",
          "name": "disputeDeposit",
          "type": "uint256"
        }
      ],
      "name": "DisputeDepositSet",
      "type": "event"
    },
    {
      "anonymous": false,
      "inputs": [
        {
          "indexed": true,
          "internalType": "bytes32",
          "name": "disputeId",
          "type": "bytes32"
        },
        {
          "indexed": true,
          "internalType": "address",
          "name": "indexer",
          "type": "address"
        },
        {
          "indexed": true,
          "internalType": "address",
          "name": "fisherman",
          "type": "address"
        },
        {
          "indexed": false,
          "internalType": "uint256",
          "name": "tokens",
          "type": "uint256"
        }
      ],
      "name": "DisputeDrawn",
      "type": "event"
    },
    {
      "anonymous": false,
      "inputs": [
        {
          "indexed": true,
          "internalType": "bytes32",
          "name": "disputeId1",
          "type": "bytes32"
        },
        {
          "indexed": true,
          "internalType": "bytes32",
          "name": "disputeId2",
          "type": "bytes32"
        }
      ],
      "name": "DisputeLinked",
      "type": "event"
    },
    {
      "anonymous": false,
      "inputs": [
        {
          "indexed": false,
          "internalType": "uint64",
          "name": "disputePeriod",
          "type": "uint64"
        }
      ],
      "name": "DisputePeriodSet",
      "type": "event"
    },
    {
      "anonymous": false,
      "inputs": [
        {
          "indexed": true,
          "internalType": "bytes32",
          "name": "disputeId",
          "type": "bytes32"
        },
        {
          "indexed": true,
          "internalType": "address",
          "name": "indexer",
          "type": "address"
        },
        {
          "indexed": true,
          "internalType": "address",
          "name": "fisherman",
          "type": "address"
        },
        {
          "indexed": false,
          "internalType": "uint256",
          "name": "tokens",
          "type": "uint256"
        }
      ],
      "name": "DisputeRejected",
      "type": "event"
    },
    {
      "anonymous": false,
      "inputs": [
        {
          "indexed": false,
          "internalType": "uint32",
          "name": "fishermanRewardCut",
          "type": "uint32"
        }
      ],
      "name": "FishermanRewardCutSet",
      "type": "event"
    },
    {
      "anonymous": false,
      "inputs": [
        {
          "indexed": true,
          "internalType": "address",
          "name": "graphToken",
          "type": "address"
        },
        {
          "indexed": true,
          "internalType": "address",
          "name": "graphStaking",
          "type": "address"
        },
        {
          "indexed": false,
          "internalType": "address",
          "name": "graphPayments",
          "type": "address"
        },
        {
          "indexed": false,
          "internalType": "address",
          "name": "graphEscrow",
          "type": "address"
        },
        {
          "indexed": true,
          "internalType": "address",
          "name": "graphController",
          "type": "address"
        },
        {
          "indexed": false,
          "internalType": "address",
          "name": "graphEpochManager",
          "type": "address"
        },
        {
          "indexed": false,
          "internalType": "address",
          "name": "graphRewardsManager",
          "type": "address"
        },
        {
          "indexed": false,
          "internalType": "address",
          "name": "graphTokenGateway",
          "type": "address"
        },
        {
          "indexed": false,
          "internalType": "address",
          "name": "graphProxyAdmin",
          "type": "address"
        },
        {
          "indexed": false,
          "internalType": "address",
          "name": "graphCuration",
          "type": "address"
        }
      ],
      "name": "GraphDirectoryInitialized",
      "type": "event"
    },
    {
      "anonymous": false,
      "inputs": [
        {
          "indexed": true,
          "internalType": "bytes32",
          "name": "disputeId",
          "type": "bytes32"
        },
        {
          "indexed": true,
          "internalType": "address",
          "name": "indexer",
          "type": "address"
        },
        {
          "indexed": true,
          "internalType": "address",
          "name": "fisherman",
          "type": "address"
        },
        {
          "indexed": false,
          "internalType": "uint256",
          "name": "tokens",
          "type": "uint256"
        },
        {
          "indexed": false,
          "internalType": "address",
          "name": "allocationId",
          "type": "address"
        },
        {
          "indexed": false,
          "internalType": "bytes32",
          "name": "poi",
          "type": "bytes32"
        },
        {
          "indexed": false,
          "internalType": "uint256",
          "name": "stakeSnapshot",
          "type": "uint256"
        },
        {
          "indexed": false,
          "internalType": "uint256",
          "name": "cancellableAt",
          "type": "uint256"
        }
      ],
      "name": "IndexingDisputeCreated",
      "type": "event"
    },
    {
      "anonymous": false,
      "inputs": [
        {
          "indexed": false,
          "internalType": "uint64",
          "name": "version",
          "type": "uint64"
        }
      ],
      "name": "Initialized",
      "type": "event"
    },
    {
      "anonymous": false,
      "inputs": [
        {
          "indexed": true,
          "internalType": "bytes32",
          "name": "disputeId",
          "type": "bytes32"
        },
        {
          "indexed": true,
          "internalType": "address",
          "name": "indexer",
          "type": "address"
        },
        {
          "indexed": true,
          "internalType": "address",
          "name": "fisherman",
          "type": "address"
        },
        {
          "indexed": false,
          "internalType": "address",
          "name": "allocationId",
          "type": "address"
        },
        {
          "indexed": false,
          "internalType": "uint256",
          "name": "tokensSlash",
          "type": "uint256"
        },
        {
          "indexed": false,
          "internalType": "uint256",
          "name": "tokensRewards",
          "type": "uint256"
        }
      ],
      "name": "LegacyDisputeCreated",
      "type": "event"
    },
    {
      "anonymous": false,
      "inputs": [
        {
          "indexed": false,
          "internalType": "uint32",
          "name": "maxSlashingCut",
          "type": "uint32"
        }
      ],
      "name": "MaxSlashingCutSet",
      "type": "event"
    },
    {
      "anonymous": false,
      "inputs": [
        {
          "indexed": true,
          "internalType": "address",
          "name": "previousOwner",
          "type": "address"
        },
        {
          "indexed": true,
          "internalType": "address",
          "name": "newOwner",
          "type": "address"
        }
      ],
      "name": "OwnershipTransferred",
      "type": "event"
    },
    {
      "anonymous": false,
      "inputs": [
        {
          "indexed": true,
          "internalType": "bytes32",
          "name": "disputeId",
          "type": "bytes32"
        },
        {
          "indexed": true,
          "internalType": "address",
          "name": "indexer",
          "type": "address"
        },
        {
          "indexed": true,
          "internalType": "address",
          "name": "fisherman",
          "type": "address"
        },
        {
          "indexed": false,
          "internalType": "uint256",
          "name": "tokens",
          "type": "uint256"
        },
        {
          "indexed": false,
          "internalType": "bytes32",
          "name": "subgraphDeploymentId",
          "type": "bytes32"
        },
        {
          "indexed": false,
          "internalType": "bytes",
          "name": "attestation",
          "type": "bytes"
        },
        {
          "indexed": false,
          "internalType": "uint256",
          "name": "stakeSnapshot",
          "type": "uint256"
        },
        {
          "indexed": false,
          "internalType": "uint256",
          "name": "cancellableAt",
          "type": "uint256"
        }
      ],
      "name": "QueryDisputeCreated",
      "type": "event"
    },
    {
      "anonymous": false,
      "inputs": [
        {
          "indexed": true,
          "internalType": "address",
          "name": "subgraphService",
          "type": "address"
        }
      ],
      "name": "SubgraphServiceSet",
      "type": "event"
    },
    {
      "inputs": [],
      "name": "MAX_FISHERMAN_REWARD_CUT",
      "outputs": [
        {
          "internalType": "uint32",
          "name": "",
          "type": "uint32"
        }
      ],
      "stateMutability": "view",
      "type": "function"
    },
    {
      "inputs": [],
      "name": "MIN_DISPUTE_DEPOSIT",
      "outputs": [
        {
          "internalType": "uint256",
          "name": "",
          "type": "uint256"
        }
      ],
      "stateMutability": "view",
      "type": "function"
    },
    {
      "inputs": [
        {
          "internalType": "bytes32",
          "name": "disputeId",
          "type": "bytes32"
        },
        {
          "internalType": "uint256",
          "name": "tokensSlash",
          "type": "uint256"
        }
      ],
      "name": "acceptDispute",
      "outputs": [],
      "stateMutability": "nonpayable",
      "type": "function"
    },
    {
      "inputs": [
        {
          "internalType": "bytes32",
          "name": "disputeId",
          "type": "bytes32"
        },
        {
          "internalType": "uint256",
          "name": "tokensSlash",
          "type": "uint256"
        },
        {
          "internalType": "bool",
          "name": "acceptDisputeInConflict",
          "type": "bool"
        },
        {
          "internalType": "uint256",
          "name": "tokensSlashRelated",
          "type": "uint256"
        }
      ],
      "name": "acceptDisputeConflict",
      "outputs": [],
      "stateMutability": "nonpayable",
      "type": "function"
    },
    {
      "inputs": [],
      "name": "arbitrator",
      "outputs": [
        {
          "internalType": "address",
          "name": "",
          "type": "address"
        }
      ],
      "stateMutability": "view",
      "type": "function"
    },
    {
      "inputs": [
        {
          "components": [
            {
              "internalType": "bytes32",
              "name": "requestCID",
              "type": "bytes32"
            },
            {
              "internalType": "bytes32",
              "name": "responseCID",
              "type": "bytes32"
            },
            {
              "internalType": "bytes32",
              "name": "subgraphDeploymentId",
              "type": "bytes32"
            },
            {
              "internalType": "bytes32",
              "name": "r",
              "type": "bytes32"
            },
            {
              "internalType": "bytes32",
              "name": "s",
              "type": "bytes32"
            },
            {
              "internalType": "uint8",
              "name": "v",
              "type": "uint8"
            }
          ],
          "internalType": "struct Attestation.State",
          "name": "attestation1",
          "type": "tuple"
        },
        {
          "components": [
            {
              "internalType": "bytes32",
              "name": "requestCID",
              "type": "bytes32"
            },
            {
              "internalType": "bytes32",
              "name": "responseCID",
              "type": "bytes32"
            },
            {
              "internalType": "bytes32",
              "name": "subgraphDeploymentId",
              "type": "bytes32"
            },
            {
              "internalType": "bytes32",
              "name": "r",
              "type": "bytes32"
            },
            {
              "internalType": "bytes32",
              "name": "s",
              "type": "bytes32"
            },
            {
              "internalType": "uint8",
              "name": "v",
              "type": "uint8"
            }
          ],
          "internalType": "struct Attestation.State",
          "name": "attestation2",
          "type": "tuple"
        }
      ],
      "name": "areConflictingAttestations",
      "outputs": [
        {
          "internalType": "bool",
          "name": "",
          "type": "bool"
        }
      ],
      "stateMutability": "pure",
      "type": "function"
    },
    {
      "inputs": [
        {
          "internalType": "bytes32",
          "name": "disputeId",
          "type": "bytes32"
        }
      ],
      "name": "cancelDispute",
      "outputs": [],
      "stateMutability": "nonpayable",
      "type": "function"
    },
    {
      "inputs": [
        {
          "internalType": "address",
          "name": "allocationId",
          "type": "address"
        },
        {
          "internalType": "address",
          "name": "fisherman",
          "type": "address"
        },
        {
          "internalType": "uint256",
          "name": "tokensSlash",
          "type": "uint256"
        },
        {
          "internalType": "uint256",
          "name": "tokensRewards",
          "type": "uint256"
        }
      ],
      "name": "createAndAcceptLegacyDispute",
      "outputs": [
        {
          "internalType": "bytes32",
          "name": "",
          "type": "bytes32"
        }
      ],
      "stateMutability": "nonpayable",
      "type": "function"
    },
    {
      "inputs": [
        {
          "internalType": "address",
          "name": "allocationId",
          "type": "address"
        },
        {
          "internalType": "bytes32",
          "name": "poi",
          "type": "bytes32"
        }
      ],
      "name": "createIndexingDispute",
      "outputs": [
        {
          "internalType": "bytes32",
          "name": "",
          "type": "bytes32"
        }
      ],
      "stateMutability": "nonpayable",
      "type": "function"
    },
    {
      "inputs": [
        {
          "internalType": "bytes",
          "name": "attestationData",
          "type": "bytes"
        }
      ],
      "name": "createQueryDispute",
      "outputs": [
        {
          "internalType": "bytes32",
          "name": "",
          "type": "bytes32"
        }
      ],
      "stateMutability": "nonpayable",
      "type": "function"
    },
    {
      "inputs": [
        {
          "internalType": "bytes",
          "name": "attestationData1",
          "type": "bytes"
        },
        {
          "internalType": "bytes",
          "name": "attestationData2",
          "type": "bytes"
        }
      ],
      "name": "createQueryDisputeConflict",
      "outputs": [
        {
          "internalType": "bytes32",
          "name": "",
          "type": "bytes32"
        },
        {
          "internalType": "bytes32",
          "name": "",
          "type": "bytes32"
        }
      ],
      "stateMutability": "nonpayable",
      "type": "function"
    },
    {
      "inputs": [],
      "name": "disputeDeposit",
      "outputs": [
        {
          "internalType": "uint256",
          "name": "",
          "type": "uint256"
        }
      ],
      "stateMutability": "view",
      "type": "function"
    },
    {
      "inputs": [],
      "name": "disputePeriod",
      "outputs": [
        {
          "internalType": "uint64",
          "name": "",
          "type": "uint64"
        }
      ],
      "stateMutability": "view",
      "type": "function"
    },
    {
      "inputs": [
        {
          "internalType": "bytes32",
          "name": "disputeId",
          "type": "bytes32"
        }
      ],
      "name": "disputes",
      "outputs": [
        {
          "internalType": "address",
          "name": "indexer",
          "type": "address"
        },
        {
          "internalType": "address",
          "name": "fisherman",
          "type": "address"
        },
        {
          "internalType": "uint256",
          "name": "deposit",
          "type": "uint256"
        },
        {
          "internalType": "bytes32",
          "name": "relatedDisputeId",
          "type": "bytes32"
        },
        {
          "internalType": "enum IDisputeManager.DisputeType",
          "name": "disputeType",
          "type": "uint8"
        },
        {
          "internalType": "enum IDisputeManager.DisputeStatus",
          "name": "status",
          "type": "uint8"
        },
        {
          "internalType": "uint256",
          "name": "createdAt",
          "type": "uint256"
        },
        {
          "internalType": "uint256",
          "name": "cancellableAt",
          "type": "uint256"
        },
        {
          "internalType": "uint256",
          "name": "stakeSnapshot",
          "type": "uint256"
        }
      ],
      "stateMutability": "view",
      "type": "function"
    },
    {
      "inputs": [
        {
          "internalType": "bytes32",
          "name": "disputeId",
          "type": "bytes32"
        }
      ],
      "name": "drawDispute",
      "outputs": [],
      "stateMutability": "nonpayable",
      "type": "function"
    },
    {
      "inputs": [
        {
          "components": [
            {
              "internalType": "bytes32",
              "name": "requestCID",
              "type": "bytes32"
            },
            {
              "internalType": "bytes32",
              "name": "responseCID",
              "type": "bytes32"
            },
            {
              "internalType": "bytes32",
              "name": "subgraphDeploymentId",
              "type": "bytes32"
            }
          ],
          "internalType": "struct Attestation.Receipt",
          "name": "receipt",
          "type": "tuple"
        }
      ],
      "name": "encodeReceipt",
      "outputs": [
        {
          "internalType": "bytes32",
          "name": "",
          "type": "bytes32"
        }
      ],
      "stateMutability": "view",
      "type": "function"
    },
    {
      "inputs": [],
      "name": "fishermanRewardCut",
      "outputs": [
        {
          "internalType": "uint32",
          "name": "",
          "type": "uint32"
        }
      ],
      "stateMutability": "view",
      "type": "function"
    },
    {
      "inputs": [
        {
          "components": [
            {
              "internalType": "bytes32",
              "name": "requestCID",
              "type": "bytes32"
            },
            {
              "internalType": "bytes32",
              "name": "responseCID",
              "type": "bytes32"
            },
            {
              "internalType": "bytes32",
              "name": "subgraphDeploymentId",
              "type": "bytes32"
            },
            {
              "internalType": "bytes32",
              "name": "r",
              "type": "bytes32"
            },
            {
              "internalType": "bytes32",
              "name": "s",
              "type": "bytes32"
            },
            {
              "internalType": "uint8",
              "name": "v",
              "type": "uint8"
            }
          ],
          "internalType": "struct Attestation.State",
          "name": "attestation",
          "type": "tuple"
        }
      ],
      "name": "getAttestationIndexer",
      "outputs": [
        {
          "internalType": "address",
          "name": "",
          "type": "address"
        }
      ],
      "stateMutability": "view",
      "type": "function"
    },
    {
      "inputs": [],
      "name": "getDisputePeriod",
      "outputs": [
        {
          "internalType": "uint64",
          "name": "",
          "type": "uint64"
        }
      ],
      "stateMutability": "view",
      "type": "function"
    },
    {
      "inputs": [],
      "name": "getFishermanRewardCut",
      "outputs": [
        {
          "internalType": "uint32",
          "name": "",
          "type": "uint32"
        }
      ],
      "stateMutability": "view",
      "type": "function"
    },
    {
      "inputs": [
        {
          "internalType": "address",
          "name": "indexer",
          "type": "address"
        }
      ],
      "name": "getStakeSnapshot",
      "outputs": [
        {
          "internalType": "uint256",
          "name": "",
          "type": "uint256"
        }
      ],
      "stateMutability": "view",
      "type": "function"
    },
    {
      "inputs": [
        {
          "internalType": "address",
          "name": "owner",
          "type": "address"
        },
        {
          "internalType": "address",
          "name": "arbitrator_",
          "type": "address"
        },
        {
          "internalType": "uint64",
          "name": "disputePeriod_",
          "type": "uint64"
        },
        {
          "internalType": "uint256",
          "name": "disputeDeposit_",
          "type": "uint256"
        },
        {
          "internalType": "uint32",
          "name": "fishermanRewardCut_",
          "type": "uint32"
        },
        {
          "internalType": "uint32",
          "name": "maxSlashingCut_",
          "type": "uint32"
        }
      ],
      "name": "initialize",
      "outputs": [],
      "stateMutability": "nonpayable",
      "type": "function"
    },
    {
      "inputs": [
        {
          "internalType": "bytes32",
          "name": "disputeId",
          "type": "bytes32"
        }
      ],
      "name": "isDisputeCreated",
      "outputs": [
        {
          "internalType": "bool",
          "name": "",
          "type": "bool"
        }
      ],
      "stateMutability": "view",
      "type": "function"
    },
    {
      "inputs": [],
      "name": "maxSlashingCut",
      "outputs": [
        {
          "internalType": "uint32",
          "name": "",
          "type": "uint32"
        }
      ],
      "stateMutability": "view",
      "type": "function"
    },
    {
      "inputs": [],
      "name": "owner",
      "outputs": [
        {
          "internalType": "address",
          "name": "",
          "type": "address"
        }
      ],
      "stateMutability": "view",
      "type": "function"
    },
    {
      "inputs": [
        {
          "internalType": "bytes32",
          "name": "disputeId",
          "type": "bytes32"
        }
      ],
      "name": "rejectDispute",
      "outputs": [],
      "stateMutability": "nonpayable",
      "type": "function"
    },
    {
      "inputs": [],
      "name": "renounceOwnership",
      "outputs": [],
      "stateMutability": "nonpayable",
      "type": "function"
    },
    {
      "inputs": [
        {
          "internalType": "address",
          "name": "arbitrator",
          "type": "address"
        }
      ],
      "name": "setArbitrator",
      "outputs": [],
      "stateMutability": "nonpayable",
      "type": "function"
    },
    {
      "inputs": [
        {
          "internalType": "uint256",
          "name": "disputeDeposit",
          "type": "uint256"
        }
      ],
      "name": "setDisputeDeposit",
      "outputs": [],
      "stateMutability": "nonpayable",
      "type": "function"
    },
    {
      "inputs": [
        {
          "internalType": "uint64",
          "name": "disputePeriod",
          "type": "uint64"
        }
      ],
      "name": "setDisputePeriod",
      "outputs": [],
      "stateMutability": "nonpayable",
      "type": "function"
    },
    {
      "inputs": [
        {
          "internalType": "uint32",
          "name": "fishermanRewardCut_",
          "type": "uint32"
        }
      ],
      "name": "setFishermanRewardCut",
      "outputs": [],
      "stateMutability": "nonpayable",
      "type": "function"
    },
    {
      "inputs": [
        {
          "internalType": "uint32",
          "name": "maxSlashingCut_",
          "type": "uint32"
        }
      ],
      "name": "setMaxSlashingCut",
      "outputs": [],
      "stateMutability": "nonpayable",
      "type": "function"
    },
    {
      "inputs": [
        {
          "internalType": "address",
          "name": "subgraphService_",
          "type": "address"
        }
      ],
      "name": "setSubgraphService",
      "outputs": [],
      "stateMutability": "nonpayable",
      "type": "function"
    },
    {
      "inputs": [],
      "name": "subgraphService",
      "outputs": [
        {
          "internalType": "contract ISubgraphService",
          "name": "",
          "type": "address"
        }
      ],
      "stateMutability": "view",
      "type": "function"
    },
    {
      "inputs": [
        {
          "internalType": "address",
          "name": "newOwner",
          "type": "address"
        }
      ],
      "name": "transferOwnership",
      "outputs": [],
      "stateMutability": "nonpayable",
      "type": "function"
    }
  ],
  "bytecode": "0x6101c060405234801561001157600080fd5b50604051613b6e380380613b6e8339810160408190526100309161049b565b806001600160a01b03811661007a5760405163218f5add60e11b815260206004820152600a60248201526921b7b73a3937b63632b960b11b60448201526064015b60405180910390fd5b6001600160a01b0381166101005260408051808201909152600a81526923b930b8342a37b5b2b760b11b60208201526100b29061033b565b6001600160a01b03166080526040805180820190915260078152665374616b696e6760c81b60208201526100e59061033b565b6001600160a01b031660a05260408051808201909152600d81526c47726170685061796d656e747360981b602082015261011e9061033b565b6001600160a01b031660c05260408051808201909152600e81526d5061796d656e7473457363726f7760901b60208201526101589061033b565b6001600160a01b031660e05260408051808201909152600c81526b22b837b1b426b0b730b3b2b960a11b60208201526101909061033b565b6001600160a01b03166101205260408051808201909152600e81526d2932bbb0b93239a6b0b730b3b2b960911b60208201526101cb9061033b565b6001600160a01b0316610140526040805180820190915260118152704772617068546f6b656e4761746577617960781b60208201526102099061033b565b6001600160a01b03166101605260408051808201909152600f81526e23b930b834283937bc3ca0b236b4b760891b60208201526102459061033b565b6001600160a01b03166101805260408051808201909152600881526721bab930ba34b7b760c11b602082015261027a9061033b565b6001600160a01b039081166101a08190526101005160a05160805160c05160e05161012051610140516101605161018051604051988b169a9788169996909716977fef5021414834d86e36470f5c1cecf6544fb2bb723f2ca51a4c86fcd8c5919a43976103249790916001600160a01b03978816815295871660208701529386166040860152918516606085015284166080840152831660a083015290911660c082015260e00190565b60405180910390a4506103356103e9565b50610519565b600080610100516001600160a01b031663f7641a5e84805190602001206040518263ffffffff1660e01b815260040161037691815260200190565b602060405180830381865afa158015610393573d6000803e3d6000fd5b505050506040513d601f19601f820116820180604052508101906103b7919061049b565b9050826001600160a01b0382166103e25760405163218f5add60e11b815260040161007191906104cb565b5092915050565b7ff0c57e16840df040f15088dc2f81fe391c3923bec73e23a9662efc9c229c6a00805468010000000000000000900460ff16156104395760405163f92ee8a960e01b815260040160405180910390fd5b80546001600160401b03908116146104985780546001600160401b0319166001600160401b0390811782556040519081527fc7f505b2f371ae2175ee4913f4499e1f2633a7b5936321eed1cdaeb6115181d29060200160405180910390a15b50565b6000602082840312156104ad57600080fd5b81516001600160a01b03811681146104c457600080fd5b9392505050565b602081526000825180602084015260005b818110156104f957602081860181015160408684010152016104dc565b506000604082850101526040601f19601f83011684010191505092915050565b60805160a05160c05160e05161010051610120516101405161016051610180516101a0516135f261057c60003960005050600050506000505060005050600050506000505060005050600050506000611f23015260006119cc01526135f26000f3fe608060405234801561001057600080fd5b50600436106101a15760003560e01c8063050b17ad146101a65780630533e1ba146101bb5780630bc7344b146101e857806311be1997146101fb578063169729781461027857806317337b461461028b5780631792f1941461029557806326058249146102a857806329e03ff1146102c857806336167e03146102df5780634bc5839a146102f25780635aea0ec4146103055780635bf31d4d146103265780636369df6b146103405780636cc6cde114610353578063715018a61461036657806376c993ae1461036e5780638d4e9008146103815780638da5cb5b14610394578063902a49381461039c5780639334ea52146103ac57806393a90a1e146103bf5780639f81a7cf146103d2578063b0e2f7e9146103e5578063b0eefabe146103f8578063bb2a2b471461040b578063be41f38414610419578063c133b4291461043c578063c50a77b11461044f578063c894222e14610462578063c9747f5114610483578063cc2d55cd14610496578063d36fc9d4146104a5578063d76f62d1146104b8578063f2fde38b146104cb575b600080fd5b6101b96101b4366004612c8a565b6104de565b005b6036546101d290600160201b900463ffffffff1681565b6040516101df9190612cac565b60405180910390f35b6101b96101f6366004612cf9565b6105fc565b610263610209366004612d72565b603760205260009081526040902080546001820154600283015460038401546004850154600586015460068701546007909701546001600160a01b039687169796909516959394929360ff80841694610100909404169289565b6040516101df99989796959493929190612db5565b6101b9610286366004612d72565b610734565b6101d26207a12081565b6101b96102a3366004612d72565b610748565b6033546102bb906001600160a01b031681565b6040516101df9190612e20565b6102d160355481565b6040519081526020016101df565b6101b96102ed366004612d72565b6108a8565b6102d1610300366004612e34565b6109ae565b603454600160a01b90046001600160401b03165b6040516101df9190612e60565b60345461031990600160a01b90046001600160401b031681565b6102d161034e366004612e74565b6109e6565b6034546102bb906001600160a01b031681565b6101b96109ff565b6101b961037c366004612e8f565b610a13565b6102d161038f366004612eac565b610a24565b6102bb610dc5565b6036546101d29063ffffffff1681565b6101b96103ba366004612d72565b610de0565b6101b96103cd366004612ef2565b610edf565b6101b96103e0366004612e8f565b610ef0565b6101b96103f3366004612f1d565b610f01565b6101b9610406366004612ef2565b611062565b60365463ffffffff166101d2565b61042c610427366004612d72565b611073565b60405190151581526020016101df565b6102d161044a366004612ef2565b6110a9565b6102d161045d366004612fa4565b611141565b610475610470366004612fe5565b6111d4565b6040516101df929190613054565b6102bb6104913660046130fa565b6113e2565b6102d1670de0b6b3a764000081565b61042c6104b336600461317c565b6114cd565b6101b96104c63660046131b2565b6114f5565b6101b96104d9366004612ef2565b611506565b6034546001600160a01b031633146105095760405163a8baf3bb60e01b815260040160405180910390fd5b8161051381611073565b819061053e576040516314a03bbd60e21b815260040161053591815260200190565b60405180910390fd5b506004600082815260376020526040902060040154610100900460ff16600581111561056c5761056c612d8b565b600083815260376020526040902060040154610100900460ff1691146105a65760405163146e540f60e21b815260040161053591906131cf565b506000838152603760205260409020600301548390156105dc576040516364d0c32b60e01b815260040161053591815260200190565b5060008381526037602052604090206105f6848285611541565b50505050565b60006106066115f2565b805490915060ff600160401b82041615906001600160401b031660008115801561062d5750825b90506000826001600160401b031660011480156106495750303b155b905081158015610657575080155b156106755760405163f92ee8a960e01b815260040160405180910390fd5b84546001600160401b0319166001178555831561069e57845460ff60401b1916600160401b1785555b6106a78b61161b565b6106af61162c565b6106b88a61163c565b6106c1896116ad565b6106ca88611736565b6106d387611799565b6106dc8661180b565b831561072757845460ff60401b191685556040517fc7f505b2f371ae2175ee4913f4499e1f2633a7b5936321eed1cdaeb6115181d29061071e90600190612e60565b60405180910390a15b5050505050505050505050565b61073c611892565b61074581611736565b50565b8061075281611073565b8190610774576040516314a03bbd60e21b815260040161053591815260200190565b506000818152603760205260409020600101546001600160a01b031633146107af5760405163082c005560e41b815260040160405180910390fd5b816107b981611073565b81906107db576040516314a03bbd60e21b815260040161053591815260200190565b506004600082815260376020526040902060040154610100900460ff16600581111561080957610809612d8b565b600083815260376020526040902060040154610100900460ff1691146108435760405163146e540f60e21b815260040161053591906131cf565b506000838152603760205260409020600681015442101561087757604051631d7753d560e11b815260040160405180910390fd5b61088184826118c4565b6003810154156105f657600381015460008181526037602052604090206105f691906118c4565b6034546001600160a01b031633146108d35760405163a8baf3bb60e01b815260040160405180910390fd5b806108dd81611073565b81906108ff576040516314a03bbd60e21b815260040161053591815260200190565b506004600082815260376020526040902060040154610100900460ff16600581111561092d5761092d612d8b565b600083815260376020526040902060040154610100900460ff1691146109675760405163146e540f60e21b815260040161053591906131cf565b506000828152603760205260409020600381015483901561099e576040516364d0c32b60e01b815260040161053591815260200190565b506109a9838261194b565b505050565b60006109cf336035546109bf6119ca565b6001600160a01b031691906119ee565b6109dd336035548585611aa6565b90505b92915050565b60006109e06109fa368490038401846131dd565b611e28565b610a07611892565b610a116000611ec5565b565b610a1b611892565b61074581611799565b6034546000906001600160a01b03163314610a525760405163a8baf3bb60e01b815260040160405180910390fd5b6040516001600160601b0319606087901b166020820152656c656761637960d01b6034820152600090603a016040516020818303038152906040528051906020012090506000610aa0611f21565b6001600160a01b0316630e022923886040518263ffffffff1660e01b8152600401610acb9190612e20565b61012060405180830381865afa158015610ae9573d6000803e3d6000fd5b505050506040513d601f19601f82011682018060405250810190610b0d91906132d9565b519050866001600160a01b038216610b39576040516334789d8b60e21b81526004016105359190612e20565b5060408051610120810182526001600160a01b038381168252881660208201526000918101829052606081019190915260036080820152600160a08201524260c0820181905260345460e0830191610ba191600160a01b90046001600160401b03169061330c565b81526000602091820181905284815260378252604090819020835181546001600160a01b039182166001600160a01b0319918216178355938501516001808401805492909316919095161790559083015160028201556060830151600380830191909155608084015160048301805493949193909260ff1990911691908490811115610c2f57610c2f612d8b565b021790555060a082015160048201805461ff001916610100836005811115610c5957610c59612d8b565b021790555060c0820151600582015560e08201516006820155610100909101516007909101556000610c89611f45565b9050806001600160a01b031663cb8347fe838888604051602001610cae929190613054565b6040516020818303038152906040526040518363ffffffff1660e01b8152600401610cda929190613365565b600060405180830381600087803b158015610cf457600080fd5b505af1158015610d08573d6000803e3d6000fd5b50505050610d298786610d196119ca565b6001600160a01b03169190611f81565b604080516001600160a01b038a81168252602082018990529181018790528189169184169085907f587a1fc7e80e653a2ab7f63f98c080f5818b8cedcfd1374590c8c786290ed0319060600160405180910390a4866001600160a01b0316826001600160a01b03168460008051602061359d83398151915288604051610db191815260200190565b60405180910390a450909695505050505050565b600080610dd0611fbc565b546001600160a01b031692915050565b6034546001600160a01b03163314610e0b5760405163a8baf3bb60e01b815260040160405180910390fd5b80610e1581611073565b8190610e37576040516314a03bbd60e21b815260040161053591815260200190565b506004600082815260376020526040902060040154610100900460ff166005811115610e6557610e65612d8b565b600083815260376020526040902060040154610100900460ff169114610e9f5760405163146e540f60e21b815260040161053591906131cf565b506000828152603760205260409020610eb88382611fe0565b6003810154156109a957600381015460008181526037602052604090206109a99190611fe0565b610ee7611892565b6107458161205f565b610ef8611892565b6107458161180b565b6034546001600160a01b03163314610f2c5760405163a8baf3bb60e01b815260040160405180910390fd5b83610f3681611073565b8190610f58576040516314a03bbd60e21b815260040161053591815260200190565b506004600082815260376020526040902060040154610100900460ff166005811115610f8657610f86612d8b565b600083815260376020526040902060040154610100900460ff169114610fc05760405163146e540f60e21b815260040161053591906131cf565b5060008581526037602052604090206003015415158590610ffa57604051600162d62c0760e01b0319815260040161053591815260200190565b506000858152603760205260409020611014868287611541565b831561103d5760038101546000818152603760205260409020611038919085611541565b61105a565b6003810154600081815260376020526040902061105a9190611fe0565b505050505050565b61106a611892565b6107458161163c565b600080600083815260376020526040902060040154610100900460ff1660058111156110a1576110a1612d8b565b141592915050565b6000806110b4611f21565b6001600160a01b03166325d9897e846110cb611f45565b6040518363ffffffff1660e01b81526004016110e8929190613389565b61014060405180830381865afa158015611106573d6000803e3d6000fd5b505050506040513d601f19601f8201168201806040525081019061112a91906133b9565b905061113a8382600001516120d0565b9392505050565b6000611152336035546109bf6119ca565b6109dd3360355461119886868080601f01602080910402602001604051908101604052809392919081815260200183838082843760009201919091525061216592505050565b86868080601f0160208091040260200160405190810160405280939291908181526020018383808284376000920191909152506122a592505050565b6000806000339050600061121d88888080601f01602080910402602001604051908101604052809392919081815260200183838082843760009201919091525061216592505050565b9050600061126087878080601f01602080910402602001604051908101604052809392919081815260200183838082843760009201919091525061216592505050565b905061126c82826125a4565b825160208085015160408087015186519387015191870151949592949093926112cb57604051636aba529760e11b81526004810196909652602486019490945260448501929092526064840152608483015260a482015260c401610535565b5050505050506112e0336035546109bf6119ca565b60006113328460026035546112f59190613466565b858d8d8080601f0160208091040260200160405190810160405280939291908181526020018383808284376000920191909152506122a592505050565b905060006113868560026035546113499190613466565b858c8c8080601f0160208091040260200160405190810160405280939291908181526020018383808284376000920191909152506122a592505050565b60008381526037602052604080822060039081018490558383528183200185905551919250829184917ffec135a4cf8e5c6e13dea23be058bf03a8bf8f1f6fb0a021b0a5aeddfba8140791a3909a909950975050505050505050565b6000806113ee836125d5565b905060006113fa611f45565b6001600160a01b0316630e022923836040518263ffffffff1660e01b81526004016114259190612e20565b61012060405180830381865afa158015611443573d6000803e3d6000fd5b505050506040513d601f19601f8201168201806040525081019061146791906132d9565b805190915082906001600160a01b0316611495576040516334789d8b60e21b81526004016105359190612e20565b5060408401516020820151908181146114c357604051630a24cfe560e21b8152600401610535929190613054565b5050519392505050565b60006109dd6114e1368590038501856130fa565b6114f0368590038501856130fa565b6125a4565b6114fd611892565b610745816116ad565b61150e611892565b6001600160a01b038116611538576000604051631e4fbdf760e01b81526004016105359190612e20565b61074581611ec5565b81546007830154600091611562916001600160a01b0390911690849061265e565b60048401805461ff001916610100179055600184015460028501549192506115a2916001600160a01b039091169061159a908461330c565b610d196119ca565b6001830154835460028501546001600160a01b039283169290911690869060008051602061359d833981519152906115db90869061330c565b60405190815260200160405180910390a450505050565b6000807ff0c57e16840df040f15088dc2f81fe391c3923bec73e23a9662efc9c229c6a006109e0565b61162361280f565b61074581612834565b61163461280f565b610a1161283c565b6001600160a01b0381166116635760405163616bc44160e11b815260040160405180910390fd5b603480546001600160a01b0319166001600160a01b0383169081179091556040517f51744122301b50e919f4e3d22adf8c53abc92195b8c667eda98c6ef20375672e90600090a250565b806001600160401b03166000036116d75760405163c4411f1160e01b815260040160405180910390fd5b60348054600160a01b600160e01b031916600160a01b6001600160401b038416021790556040517f310462a9bf49fff4a57910ec647c77cbf8aaf2f13394554ac6cdf14fc68db7e69061172b908390612e60565b60405180910390a150565b80670de0b6b3a76400008110156117635760405163033f4e0560e01b815260040161053591815260200190565b5060358190556040518181527f97896b9da0f97f36bf3011570bcff930069299de4b1e89c9cb44909841cac2f89060200161172b565b806207a12063ffffffff821611156117c55760405163432e664360e11b81526004016105359190612cac565b506036805463ffffffff191663ffffffff83161790556040517fc573dc0f869f6a1d0a74fc7712a63baabcb5567131d2d98005e163924eddcbab9061172b908390612cac565b8063ffffffff8116620f4240101561183757604051634e9374fb60e11b81526004016105359190612cac565b506036805463ffffffff60201b1916600160201b63ffffffff848116820292909217928390556040517f7efaf01bec3cda8d104163bb466d01d7e16f68848301c7eb0749cfa59d6805029361172b9392900490911690612cac565b3361189b610dc5565b6001600160a01b031614610a11573360405163118cdaa760e01b81526004016105359190612e20565b60048101805461ff001916610500179055600181015460028201546118f5916001600160a01b031690610d196119ca565b6001810154815460028301546040519081526001600160a01b03928316929091169084907f223103f8eb52e5f43a75655152acd882a605d70df57a5c0fefd30f516b1756d2906020015b60405180910390a45050565b60048101805461ff001916610200179055600281015461197c9061196d6119ca565b6001600160a01b03169061290e565b6001810154815460028301546040519081526001600160a01b03928316929091169084907f2226ebd23625a7938fb786df2248bd171d2e6ad70cb2b654ea1be830ca17224d9060200161193f565b7f000000000000000000000000000000000000000000000000000000000000000090565b80156109a9576040516323b872dd60e01b81526001600160a01b038381166004830152306024830152604482018390528416906323b872dd906064015b6020604051808303816000875af1158015611a4a573d6000803e3d6000fd5b505050506040513d601f19601f82011682018060405250810190611a6e9190613488565b6109a95760405162461bcd60e51b815260206004820152600960248201526810ba3930b739b332b960b91b6044820152606401610535565b6040516001600160601b0319606084901b166020820152603481018290526000908190605401604051602081830303815290604052805190602001209050611aed81611073565b158190611b105760405163124a23f160e11b815260040161053591815260200190565b506000611b1b611f45565b90506000816001600160a01b0316630e022923876040518263ffffffff1660e01b8152600401611b4b9190612e20565b61012060405180830381865afa158015611b69573d6000803e3d6000fd5b505050506040513d601f19601f82011682018060405250810190611b8d91906132d9565b8051909150866001600160a01b038216611bbb576040516334789d8b60e21b81526004016105359190612e20565b506000611bc6611f21565b6001600160a01b03166325d9897e83866040518363ffffffff1660e01b8152600401611bf3929190613389565b61014060405180830381865afa158015611c11573d6000803e3d6000fd5b505050506040513d601f19601f82011682018060405250810190611c3591906133b9565b8051909150600003611c5a5760405163307efdb760e11b815260040160405180910390fd5b6000611c6a8383600001516120d0565b603454909150600090611c8d90600160a01b90046001600160401b03164261330c565b604080516101208101825287516001600160a01b0390811682528f1660208201529081018d905260006060820152909150608081016001815260200160048152426020808301919091526040808301859052606092830186905260008b815260378352819020845181546001600160a01b039182166001600160a01b0319918216178355938601516001808401805492909316919095161790559084015160028201559183015160038084019190915560808401516004840180549193909260ff19909216918490811115611d6457611d64612d8b565b021790555060a082015160048201805461ff001916610100836005811115611d8e57611d8e612d8b565b021790555060c0820151600582015560e08201516006820155610100909101516007909101558451604080518d81526001600160a01b038d811660208301529181018c90526060810185905260808101849052818f16929091169089907f8a1eccecce948a912e2e195de5960359755aeac90ad88a3fde55a77e1a73796b9060a00160405180910390a450949a9950505050505050505050565b600054815160208084015160409485015185517f32dd026408194a0d7e54cc66a2ab6c856efc55cfcd4dd258fde5b1a55222baa6818501528087019490945260608401919091526080808401919091528451808403909101815260a08301855280519082012061190160f01b60c084015260c283019390935260e28083019390935283518083039093018352610102909101909252805191012090565b6000611ecf611fbc565b80546001600160a01b038481166001600160a01b031983168117845560405193945091169182907f8be0079c531659141344cd1fd0a4f28419497f9722a3daafe3b4186f6b6457e090600090a3505050565b7f000000000000000000000000000000000000000000000000000000000000000090565b6033546000906001600160a01b0316611f715760405163bd088b4f60e01b815260040160405180910390fd5b506033546001600160a01b031690565b80156109a95760405163a9059cbb60e01b81526001600160a01b0383811660048301526024820183905284169063a9059cbb90604401611a2b565b7f9016d09d72d40fdae2fd8ceac6b6234c7706214fd39c1cd1e609a0528c19930090565b60048101805461ff00191661030017905560018101546002820154612011916001600160a01b031690610d196119ca565b6001810154815460028301546040519081526001600160a01b03928316929091169084907ff0912efb86ea1d65a17d64d48393cdb1ca0ea5220dd2bbe438621199d30955b79060200161193f565b6001600160a01b0381166120865760405163616bc44160e11b815260040160405180910390fd5b603380546001600160a01b0319166001600160a01b0383169081179091556040517f81dcb738da3dabd5bb2adbc7dd107fbbfca936e9c8aecab25f5b17a710a784c790600090a250565b6000806120db611f21565b6001600160a01b031663561285e4856120f2611f45565b6040518363ffffffff1660e01b815260040161210f929190613389565b60a060405180830381865afa15801561212c573d6000803e3d6000fd5b505050506040513d601f19601f8201168201806040525081019061215091906134a5565b51905061215d818461330c565b949350505050565b6040805160c081018252600080825260208201819052918101829052606081018290526080810182905260a081019190915260016121a460208061330c565b6121ae919061330c565b6121b990606061330c565b82519081149060016121cc60208061330c565b6121d6919061330c565b6121e190606061330c565b909161220257604051633fdf342360e01b8152600401610535929190613054565b505060008060008480602001905181019061221d9190613524565b925092509250600061223086606061296e565b90506000612249876122446020606061330c565b61296e565b9050600061226d88602061225e81606061330c565b612268919061330c565b6129b9565b6040805160c081018252978852602088019690965294860193909352606085019190915260808401525060ff1660a082015292915050565b6000806122b1846113e2565b905060006122bd611f21565b6001600160a01b03166325d9897e836122d4611f45565b6040518363ffffffff1660e01b81526004016122f1929190613389565b61014060405180830381865afa15801561230f573d6000803e3d6000fd5b505050506040513d601f19601f8201168201806040525081019061233391906133b9565b80519091506000036123585760405163307efdb760e11b815260040160405180910390fd5b84516020808701516040808901518151938401949094528201526060808201929092526001600160601b031984831b811660808301529189901b909116609482015260009060a8016040516020818303038152906040528051906020012090506123c181611073565b1581906123e45760405163124a23f160e11b815260040161053591815260200190565b5060006123f58484600001516120d0565b60345490915060009061241890600160a01b90046001600160401b03164261330c565b60408051610120810182526001600160a01b0380891682528d1660208201529081018b9052600060608201529091506080810160028152602001600481524260208083019190915260408083018590526060928301869052600087815260378352819020845181546001600160a01b039182166001600160a01b0319918216178355938601516001808401805492909316919095161790559084015160028201559183015160038084019190915560808401516004840180549193909260ff199092169184908111156124ed576124ed612d8b565b021790555060a082015160048201805461ff00191661010083600581111561251757612517612d8b565b021790555060c0820151816005015560e082015181600601556101008201518160070155905050896001600160a01b0316856001600160a01b0316847ffb70faf7306b83c2cec6d8c1627baad892cb79968a02cc0353174499ecfd8b358c8c604001518c878960405161258e959493929190613552565b60405180910390a4509098975050505050505050565b805182516000911480156125bf575081604001518360400151145b80156109dd575050602090810151910151141590565b60408051606081018252825181526020808401519082015282820151918101919091526000908161260582611e28565b905061215d81856060015186608001518760a0015160405160200161264a93929190928352602083019190915260f81b6001600160f81b031916604082015260410190565b604051602081830303815290604052612a04565b600080612669611f45565b90506000612675611f21565b6001600160a01b03166325d9897e87846040518363ffffffff1660e01b81526004016126a2929190613389565b61014060405180830381865afa1580156126c0573d6000803e3d6000fd5b505050506040513d601f19601f820116820180604052508101906126e491906133b9565b60365490915060009061270990869063ffffffff600160201b909104811690612a2e16565b9050851580159061271a5750808611155b8682909161273d5760405163cc6b7c4160e01b8152600401610535929190613054565b5050600061274f878460000151612a8e565b60608401516036549192506000916127709163ffffffff9081169116612a8e565b9050600061277e8284612a2e565b9050856001600160a01b031663cb8347fe8b8b846040516020016127a3929190613054565b6040516020818303038152906040526040518363ffffffff1660e01b81526004016127cf929190613365565b600060405180830381600087803b1580156127e957600080fd5b505af11580156127fd573d6000803e3d6000fd5b50929c9b505050505050505050505050565b612817612aa5565b610a1157604051631afcd79f60e31b815260040160405180910390fd5b61150e61280f565b61284461280f565b604080517fd87cd6ef79d4e2b95e15ce8abf732db51ec771f1ca2edccf22a46c729ac5647260208201527f171a7fa058648750a8c5aae430f30db8d0100efc3a5e1b2e8054b1c1ce28b6b4918101919091527f044852b2a670ade5407e78fb2863c51de9fcb96542a07186fe3aeda6bb8a116d60608201524660808201523060a08201527fa070ffb1cd7409649bf77822cce74495468e06dbfaef09556838bf188679b9c260c082015260e00160408051601f198184030181529190528051602090910120600055565b801561296a57604051630852cd8d60e31b8152600481018290526001600160a01b038316906342966c6890602401600060405180830381600087803b15801561295657600080fd5b505af115801561105a573d6000803e3d6000fd5b5050565b600061297b60208361330c565b8351908110159061298d60208561330c565b90916129ae57604051633fdf342360e01b8152600401610535929190613054565b505050016020015190565b60006129c660018361330c565b835190811015906129d860018561330c565b90916129f957604051633fdf342360e01b8152600401610535929190613054565b505050016001015190565b600080600080612a148686612abf565b925092509250612a248282612b0c565b5090949350505050565b6000612a3d83620f4240101590565b80612a505750612a5082620f4240101590565b83839091612a735760405163768bf0eb60e11b8152600401610535929190613054565b50620f42409050612a848385613585565b6109dd9190613466565b600081831115612a9e57816109dd565b5090919050565b6000612aaf6115f2565b54600160401b900460ff16919050565b60008060008351604103612af95760208401516040850151606086015160001a612aeb88828585612bc5565b955095509550505050612b05565b50508151600091506002905b9250925092565b6000826003811115612b2057612b20612d8b565b03612b29575050565b6001826003811115612b3d57612b3d612d8b565b03612b5b5760405163f645eedf60e01b815260040160405180910390fd5b6002826003811115612b6f57612b6f612d8b565b03612b905760405163fce698f760e01b815260048101829052602401610535565b6003826003811115612ba457612ba4612d8b565b0361296a576040516335e2f38360e21b815260048101829052602401610535565b600080806fa2a8918ca85bafe22016d0b997e4df60600160ff1b03841115612bf65750600091506003905082612c80565b604080516000808252602082018084528a905260ff891692820192909252606081018790526080810186905260019060a0016020604051602081039080840390855afa158015612c4a573d6000803e3d6000fd5b5050604051601f1901519150506001600160a01b038116612c7657506000925060019150829050612c80565b9250600091508190505b9450945094915050565b60008060408385031215612c9d57600080fd5b50508035926020909101359150565b63ffffffff91909116815260200190565b6001600160a01b038116811461074557600080fd5b6001600160401b038116811461074557600080fd5b63ffffffff8116811461074557600080fd5b60008060008060008060c08789031215612d1257600080fd5b8635612d1d81612cbd565b95506020870135612d2d81612cbd565b94506040870135612d3d81612cd2565b9350606087013592506080870135612d5481612ce7565b915060a0870135612d6481612ce7565b809150509295509295509295565b600060208284031215612d8457600080fd5b5035919050565b634e487b7160e01b600052602160045260246000fd5b60068110612db157612db1612d8b565b9052565b6001600160a01b038a81168252891660208201526040810188905260608101879052610120810160048710612dec57612dec612d8b565b866080830152612dff60a0830187612da1565b8460c08301528360e0830152826101008301529a9950505050505050505050565b6001600160a01b0391909116815260200190565b60008060408385031215612e4757600080fd5b8235612e5281612cbd565b946020939093013593505050565b6001600160401b0391909116815260200190565b60006060828403128015612e8757600080fd5b509092915050565b600060208284031215612ea157600080fd5b813561113a81612ce7565b60008060008060808587031215612ec257600080fd5b8435612ecd81612cbd565b93506020850135612edd81612cbd565b93969395505050506040820135916060013590565b600060208284031215612f0457600080fd5b813561113a81612cbd565b801515811461074557600080fd5b60008060008060808587031215612f3357600080fd5b84359350602085013592506040850135612f4c81612f0f565b9396929550929360600135925050565b60008083601f840112612f6e57600080fd5b5081356001600160401b03811115612f8557600080fd5b602083019150836020828501011115612f9d57600080fd5b9250929050565b60008060208385031215612fb757600080fd5b82356001600160401b03811115612fcd57600080fd5b612fd985828601612f5c565b90969095509350505050565b60008060008060408587031215612ffb57600080fd5b84356001600160401b0381111561301157600080fd5b61301d87828801612f5c565b90955093505060208501356001600160401b0381111561303c57600080fd5b61304887828801612f5c565b95989497509550505050565b918252602082015260400190565b60405160c081016001600160401b038111828210171561309257634e487b7160e01b600052604160045260246000fd5b60405290565b60405161012081016001600160401b038111828210171561309257634e487b7160e01b600052604160045260246000fd5b60405161014081016001600160401b038111828210171561309257634e487b7160e01b600052604160045260246000fd5b600060c082840312801561310d57600080fd5b506000613118613062565b833581526020808501359082015260408085013590820152606080850135908201526080808501359082015260a084013560ff81168114613157578283fd5b60a0820152949350505050565b600060c0828403121561317657600080fd5b50919050565b600080610180838503121561319057600080fd5b61319a8484613164565b91506131a98460c08501613164565b90509250929050565b6000602082840312156131c457600080fd5b813561113a81612cd2565b602081016109e08284612da1565b600060608284031280156131f057600080fd5b50604051600090606081016001600160401b038111828210171561322257634e487b7160e01b83526041600452602483fd5b604090815284358252602080860135908301529384013593810193909352509092915050565b805161325381612cbd565b919050565b6000610120828403121561326b57600080fd5b613273613098565b905061327e82613248565b81526020828101519082015260408083015190820152606080830151908201526080808301519082015260a0808301519082015260c0808301519082015260e080830151908201526101009182015191810191909152919050565b600061012082840312156132ec57600080fd5b6109dd8383613258565b634e487b7160e01b600052601160045260246000fd5b808201808211156109e0576109e06132f6565b6000815180845260005b8181101561334557602081850181015186830182015201613329565b506000602082860101526020601f19601f83011685010191505092915050565b6001600160a01b038316815260406020820181905260009061215d9083018461331f565b6001600160a01b0392831681529116602082015260400190565b805161325381612ce7565b805161325381612cd2565b60006101408284031280156133cd57600080fd5b5060006133d86130c9565b8351815260208085015190820152604080850151908201526133fc606085016133a3565b606082015261340d608085016133ae565b608082015261341e60a085016133ae565b60a082015261342f60c085016133a3565b60c082015261344060e085016133ae565b60e082015261010084810151908201526101209384015193810193909352509092915050565b60008261348357634e487b7160e01b600052601260045260246000fd5b500490565b60006020828403121561349a57600080fd5b815161113a81612f0f565b600060a08284031280156134b857600080fd5b5060405160009060a081016001600160401b03811182821017156134ea57634e487b7160e01b83526041600452602483fd5b6040908152845182526020808601519083015284810151908201526060808501519082015260809384015193810193909352509092915050565b60008060006060848603121561353957600080fd5b5050815160208301516040909301519094929350919050565b85815284602082015260a06040820152600061357160a083018661331f565b606083019490945250608001529392505050565b80820281158282048414176109e0576109e06132f656fe6d800aaaf64b9a1f321dcd63da04369d33d8a0d49ad0fbba085aab4a98bf31c4a2646970667358221220d50b3dec1e5d2d1d140733dca7d5163900c1fc882947b3208864910c6f452d0e64736f6c634300081b0033",
  "linkReferences": {},
  "deployedLinkReferences": {}
}