{
  "_format": "hh-sol-artifact-1",
  "contractName": "EpochManager",
  "sourceName": "contracts/epochs/EpochManager.sol",
  "abi": [
    {
      "anonymous": false,
      "inputs": [
        {
          "indexed": true,
          "internalType": "bytes32",
          "name": "nameHash",
          "type": "bytes32"
        },
        {
          "indexed": false,
          "internalType": "address",
          "name": "contractAddress",
          "type": "address"
        }
      ],
      "name": "ContractSynced",
      "type": "event"
    },
    {
      "anonymous": false,
      "inputs": [
        {
          "indexed": true,
          "internalType": "uint256",
          "name": "epoch",
          "type": "uint256"
        },
        {
          "indexed": false,
          "internalType": "uint256",
          "name": "epochLength",
          "type": "uint256"
        }
      ],
      "name": "EpochLengthUpdate",
      "type": "event"
    },
    {
      "anonymous": false,
      "inputs": [
        {
          "indexed": true,
          "internalType": "uint256",
          "name": "epoch",
          "type": "uint256"
        },
        {
          "indexed": false,
          "internalType": "address",
          "name": "caller",
          "type": "address"
        }
      ],
      "name": "EpochRun",
      "type": "event"
    },
    {
      "anonymous": false,
      "inputs": [
        {
          "indexed": false,
          "internalType": "string",
          "name": "param",
          "type": "string"
        }
      ],
      "name": "ParameterUpdated",
      "type": "event"
    },
    {
      "anonymous": false,
      "inputs": [
        {
          "indexed": false,
          "internalType": "address",
          "name": "controller",
          "type": "address"
        }
      ],
      "name": "SetController",
      "type": "event"
    },
    {
      "inputs": [
        {
          "internalType": "contract IGraphProxy",
          "name": "_proxy",
          "type": "address"
        }
      ],
      "name": "acceptProxy",
      "outputs": [],
      "stateMutability": "nonpayable",
      "type": "function"
    },
    {
      "inputs": [
        {
          "internalType": "contract IGraphProxy",
          "name": "_proxy",
          "type": "address"
        },
        {
          "internalType": "bytes",
          "name": "_data",
          "type": "bytes"
        }
      ],
      "name": "acceptProxyAndCall",
      "outputs": [],
      "stateMutability": "nonpayable",
      "type": "function"
    },
    {
      "inputs": [
        {
          "internalType": "uint256",
          "name": "_block",
          "type": "uint256"
        }
      ],
      "name": "blockHash",
      "outputs": [
        {
          "internalType": "bytes32",
          "name": "",
          "type": "bytes32"
        }
      ],
      "stateMutability": "view",
      "type": "function"
    },
    {
      "inputs": [],
      "name": "blockNum",
      "outputs": [
        {
          "internalType": "uint256",
          "name": "",
          "type": "uint256"
        }
      ],
      "stateMutability": "view",
      "type": "function"
    },
    {
      "inputs": [],
      "name": "controller",
      "outputs": [
        {
          "internalType": "contract IController",
          "name": "",
          "type": "address"
        }
      ],
      "stateMutability": "view",
      "type": "function"
    },
    {
      "inputs": [],
      "name": "currentEpoch",
      "outputs": [
        {
          "internalType": "uint256",
          "name": "",
          "type": "uint256"
        }
      ],
      "stateMutability": "view",
      "type": "function"
    },
    {
      "inputs": [],
      "name": "currentEpochBlock",
      "outputs": [
        {
          "internalType": "uint256",
          "name": "",
          "type": "uint256"
        }
      ],
      "stateMutability": "view",
      "type": "function"
    },
    {
      "inputs": [],
      "name": "currentEpochBlockSinceStart",
      "outputs": [
        {
          "internalType": "uint256",
          "name": "",
          "type": "uint256"
        }
      ],
      "stateMutability": "view",
      "type": "function"
    },
    {
      "inputs": [],
      "name": "epochLength",
      "outputs": [
        {
          "internalType": "uint256",
          "name": "",
          "type": "uint256"
        }
      ],
      "stateMutability": "view",
      "type": "function"
    },
    {
      "inputs": [
        {
          "internalType": "uint256",
          "name": "_epoch",
          "type": "uint256"
        }
      ],
      "name": "epochsSince",
      "outputs": [
        {
          "internalType": "uint256",
          "name": "",
          "type": "uint256"
        }
      ],
      "stateMutability": "view",
      "type": "function"
    },
    {
      "inputs": [],
      "name": "epochsSinceUpdate",
      "outputs": [
        {
          "internalType": "uint256",
          "name": "",
          "type": "uint256"
        }
      ],
      "stateMutability": "view",
      "type": "function"
    },
    {
      "inputs": [
        {
          "internalType": "address",
          "name": "_controller",
          "type": "address"
        },
        {
          "internalType": "uint256",
          "name": "_epochLength",
          "type": "uint256"
        }
      ],
      "name": "initialize",
      "outputs": [],
      "stateMutability": "nonpayable",
      "type": "function"
    },
    {
      "inputs": [],
      "name": "isCurrentEpochRun",
      "outputs": [
        {
          "internalType": "bool",
          "name": "",
          "type": "bool"
        }
      ],
      "stateMutability": "view",
      "type": "function"
    },
    {
      "inputs": [],
      "name": "lastLengthUpdateBlock",
      "outputs": [
        {
          "internalType": "uint256",
          "name": "",
          "type": "uint256"
        }
      ],
      "stateMutability": "view",
      "type": "function"
    },
    {
      "inputs": [],
      "name": "lastLengthUpdateEpoch",
      "outputs": [
        {
          "internalType": "uint256",
          "name": "",
          "type": "uint256"
        }
      ],
      "stateMutability": "view",
      "type": "function"
    },
    {
      "inputs": [],
      "name": "lastRunEpoch",
      "outputs": [
        {
          "internalType": "uint256",
          "name": "",
          "type": "uint256"
        }
      ],
      "stateMutability": "view",
      "type": "function"
    },
    {
      "inputs": [],
      "name": "runEpoch",
      "outputs": [],
      "stateMutability": "nonpayable",
      "type": "function"
    },
    {
      "inputs": [
        {
          "internalType": "address",
          "name": "_controller",
          "type": "address"
        }
      ],
      "name": "setController",
      "outputs": [],
      "stateMutability": "nonpayable",
      "type": "function"
    },
    {
      "inputs": [
        {
          "internalType": "uint256",
          "name": "_epochLength",
          "type": "uint256"
        }
      ],
      "name": "setEpochLength",
      "outputs": [],
      "stateMutability": "nonpayable",
      "type": "function"
    },
    {
      "inputs": [],
      "name": "syncAllContracts",
      "outputs": [],
      "stateMutability": "nonpayable",
      "type": "function"
    }
  ],
  "bytecode": "0x6101606040527fe6876326c1291dfcbbd3864a6816d698cd591defc7aa2153d7f9c4c04016c89f6080527fc713c3df6d14cdf946460395d09af88993ee2b948b1a808161494e32c5f6706360a0527f966f1e8d8d8014e05f6ec4a57138da9be1f7c5a7f802928a18072f7c5318076160c0527f1df41cd916959d1163dc8f0671a666ea8a3e434c13e40faef527133b5d16703460e0527f45fc200c7e4544e457d3c5709bfe0d520442c30bbcbdaede89e8d4a4bbc19247610100527fd362cac9cb75c10d67bcc0b7eeb0b1ef48bb5420b556c092d4fd7f758816fcf0610120527f39605a6c26a173774ca666c67ef70cf491880e5d3d6d0ca66ec0a31034f15ea36101405234801561011057600080fd5b5060805160a05160c05160e05161010051610120516101405161103461016460003980610aac525080610a83525080610a5a525080610a31525080610a085250806109df5250806109b652506110346000f3fe608060405234801561001057600080fd5b506004361061012c5760003560e01c8063a2594d82116100ad578063cd6dc68711610071578063cd6dc687146102c4578063d0cfa46e146102f0578063d6866ea5146102f8578063f77c479114610300578063faa1a23c146103245761012c565b8063a2594d821461027e578063ab93122c146102a4578063b4146a0b146102ac578063c46e58eb146102b4578063cc65149b146102bc5761012c565b806376671808116100f457806376671808146101ab57806385df51fd146101b35780638ae63d6d146101d057806392eefe9b146101d85780639ce7abe5146101fe5761012c565b806319c3b82d146101315780631b28126d1461014b5780631ce05d381461016857806354eea7961461018457806357d775f8146101a3575b600080fd5b61013961032c565b60408051918252519081900360200190f35b6101396004803603602081101561016157600080fd5b5035610353565b61017061037f565b604080519115158252519081900360200190f35b6101a16004803603602081101561019a57600080fd5b5035610392565b005b61013961047f565b610139610485565b610139600480360360208110156101c957600080fd5b503561049b565b61013961053b565b6101a1600480360360208110156101ee57600080fd5b50356001600160a01b031661053f565b6101a16004803603604081101561021457600080fd5b6001600160a01b03823516919081019060408101602082013564010000000081111561023f57600080fd5b82018360208201111561025157600080fd5b8035906020019184600183028401116401000000008311171561027357600080fd5b509092509050610553565b6101a16004803603602081101561029457600080fd5b50356001600160a01b03166106a9565b6101396107c4565b6101396107e6565b6101a16107ec565b610139610888565b6101a1600480360360408110156102da57600080fd5b506001600160a01b03813516906020013561088e565b610139610999565b6101a16109b1565b610308610ad2565b604080516001600160a01b039092168252519081900360200190f35b610139610ae1565b600061034e600c54610348600f5461034261053b565b90610ae7565b90610b49565b905090565b60008061035e610485565b905080831061036e576000610378565b6103788184610ae7565b9392505050565b6000610389610485565b600d5414905090565b61039a610bb0565b600081116103ea576040805162461bcd60e51b8152602060048201526018602482015277045706f6368206c656e6774682063616e6e6f7420626520360441b604482015290519081900360640190fd5b600c5481141561042b5760405162461bcd60e51b8152600401808060200182810382526029815260200180610f666029913960400191505060405180910390fd5b610433610485565b600e5561043e6107c4565b600f55600c819055600e546040805183815290517f25ddd6f00038d5eac0051df83c6084f140a01586f092e2728d1ed781c9ce24419181900360200190a250565b600c5481565b600061034e61049261032c565b600e5490610c84565b6000806104a661053b565b90508083106104e65760405162461bcd60e51b8152600401808060200182810382526023815260200180610fdc6023913960400191505060405180910390fd5b6101008110806104fa575061010081038310155b6105355760405162461bcd60e51b815260040180806020018281038252602c815260200180610fb0602c913960400191505060405180910390fd5b50504090565b4390565b610547610cde565b61055081610d3d565b50565b82806001600160a01b031663f851a4406040518163ffffffff1660e01b8152600401602060405180830381600087803b15801561058f57600080fd5b505af11580156105a3573d6000803e3d6000fd5b505050506040513d60208110156105b957600080fd5b50516001600160a01b03163314610617576040805162461bcd60e51b815260206004820152601e60248201527f43616c6c6572206d757374206265207468652070726f78792061646d696e0000604482015290519081900360640190fd5b60405163623faf6160e01b8152602060048201908152602482018490526001600160a01b0386169163623faf619186918691908190604401848480828437600081840152601f19601f8201169050808301925050509350505050600060405180830381600087803b15801561068b57600080fd5b505af115801561069f573d6000803e3d6000fd5b5050505050505050565b80806001600160a01b031663f851a4406040518163ffffffff1660e01b8152600401602060405180830381600087803b1580156106e557600080fd5b505af11580156106f9573d6000803e3d6000fd5b505050506040513d602081101561070f57600080fd5b50516001600160a01b0316331461076d576040805162461bcd60e51b815260206004820152601e60248201527f43616c6c6572206d757374206265207468652070726f78792061646d696e0000604482015290519081900360640190fd5b816001600160a01b03166359fc20bb6040518163ffffffff1660e01b8152600401600060405180830381600087803b1580156107a857600080fd5b505af11580156107bc573d6000803e3d6000fd5b505050505050565b600061034e6107dd600c546107d761032c565b90610de5565b600f5490610c84565b600e5481565b6107f461037f565b15610846576040805162461bcd60e51b815260206004820152601960248201527f43757272656e742065706f636820616c72656164792072756e00000000000000604482015290519081900360640190fd5b61084e610485565b600d8190556040805133815290517f666a37ccc682d20f8c51c5f6fd835cbadbcaaf09921e076282446e42d7264e3e9181900360200190a2565b600f5481565b610896610e3e565b6001600160a01b0316336001600160a01b0316146108f1576040805162461bcd60e51b815260206004820152601360248201527227b7363c9034b6b83632b6b2b73a30ba34b7b760691b604482015290519081900360640190fd5b60008111610941576040805162461bcd60e51b8152602060048201526018602482015277045706f6368206c656e6774682063616e6e6f7420626520360441b604482015290519081900360640190fd5b61094a82610547565b6001600e5561095761053b565b600f55600c819055600e546040805183815290517f25ddd6f00038d5eac0051df83c6084f140a01586f092e2728d1ed781c9ce24419181900360200190a25050565b60006109a36107c4565b6109ab61053b565b03905090565b6109da7f0000000000000000000000000000000000000000000000000000000000000000610e63565b610a037f0000000000000000000000000000000000000000000000000000000000000000610e63565b610a2c7f0000000000000000000000000000000000000000000000000000000000000000610e63565b610a557f0000000000000000000000000000000000000000000000000000000000000000610e63565b610a7e7f0000000000000000000000000000000000000000000000000000000000000000610e63565b610aa77f0000000000000000000000000000000000000000000000000000000000000000610e63565b610ad07f0000000000000000000000000000000000000000000000000000000000000000610e63565b565b6000546001600160a01b031681565b600d5481565b600082821115610b3e576040805162461bcd60e51b815260206004820152601e60248201527f536166654d6174683a207375627472616374696f6e206f766572666c6f770000604482015290519081900360640190fd5b508082035b92915050565b6000808211610b9f576040805162461bcd60e51b815260206004820152601a60248201527f536166654d6174683a206469766973696f6e206279207a65726f000000000000604482015290519081900360640190fd5b818381610ba857fe5b049392505050565b60008054906101000a90046001600160a01b03166001600160a01b0316634fc07d756040518163ffffffff1660e01b815260040160206040518083038186803b158015610bfc57600080fd5b505afa158015610c10573d6000803e3d6000fd5b505050506040513d6020811015610c2657600080fd5b50516001600160a01b03163314610ad0576040805162461bcd60e51b815260206004820152601860248201527f4f6e6c7920436f6e74726f6c6c657220676f7665726e6f720000000000000000604482015290519081900360640190fd5b600082820183811015610378576040805162461bcd60e51b815260206004820152601b60248201527f536166654d6174683a206164646974696f6e206f766572666c6f770000000000604482015290519081900360640190fd5b6000546001600160a01b03163314610ad0576040805162461bcd60e51b815260206004820152601960248201527f43616c6c6572206d75737420626520436f6e74726f6c6c657200000000000000604482015290519081900360640190fd5b6001600160a01b038116610d91576040805162461bcd60e51b815260206004820152601660248201527510dbdb9d1c9bdb1b195c881b5d5cdd081899481cd95d60521b604482015290519081900360640190fd5b600080546001600160a01b0383166001600160a01b0319909116811790915560408051918252517f4ff638452bbf33c012645d18ae6f05515ff5f2d1dfb0cece8cbf018c60903f709181900360200190a150565b600082610df457506000610b43565b82820282848281610e0157fe5b04146103785760405162461bcd60e51b8152600401808060200182810382526021815260200180610f8f6021913960400191505060405180910390fd5b7f360894a13ba1a3210667c828492db98dca3e2076cc3735a920a3ca505d382bbc5490565b6000805460408051637bb20d2f60e11b81526004810185905290516001600160a01b039092169163f7641a5e91602480820192602092909190829003018186803b158015610eb057600080fd5b505afa158015610ec4573d6000803e3d6000fd5b505050506040513d6020811015610eda57600080fd5b50516000838152600160205260409020549091506001600160a01b03808316911614610f615760008281526001602090815260409182902080546001600160a01b0319166001600160a01b0385169081179091558251908152915184927fd0e7a942b1fc38c411c4f53d153ba14fd24542a6a35ebacd9b6afca1a154e20692908290030190a25b505056fe45706f6368206c656e677468206d75737420626520646966666572656e7420746f2063757272656e74536166654d6174683a206d756c7469706c69636174696f6e206f766572666c6f7743616e206f6e6c792072657472696576652068617368657320666f72206c6173742032353620626c6f636b7343616e206f6e6c79207265747269657665207061737420626c6f636b20686173686573a26469706673582212202f7e75f6823a633a1770d881854b42812335613ca6614acebf7f905924244cfd64736f6c63430007060033",
  "linkReferences": {},
  "deployedLinkReferences": {}
}