{
  "_format": "hh-sol-artifact-1",
  "contractName": "GraphPayments",
  "sourceName": "contracts/payments/GraphPayments.sol",
  "abi": [
    {
      "inputs": [
        {
          "internalType": "address",
          "name": "controller",
          "type": "address"
        },
        {
          "internalType": "uint256",
          "name": "protocolPaymentCut",
          "type": "uint256"
        }
      ],
      "stateMutability": "nonpayable",
      "type": "constructor"
    },
    {
      "inputs": [
        {
          "internalType": "address",
          "name": "target",
          "type": "address"
        }
      ],
      "name": "AddressEmptyCode",
      "type": "error"
    },
    {
      "inputs": [],
      "name": "FailedInnerCall",
      "type": "error"
    },
    {
      "inputs": [
        {
          "internalType": "bytes",
          "name": "contractName",
          "type": "bytes"
        }
      ],
      "name": "GraphDirectoryInvalidZeroAddress",
      "type": "error"
    },
    {
      "inputs": [
        {
          "internalType": "uint256",
          "name": "cut",
          "type": "uint256"
        }
      ],
      "name": "GraphPaymentsInvalidCut",
      "type": "error"
    },
    {
      "inputs": [
        {
          "internalType": "uint256",
          "name": "protocolPaymentCut",
          "type": "uint256"
        }
      ],
      "name": "GraphPaymentsInvalidProtocolPaymentCut",
      "type": "error"
    },
    {
      "inputs": [],
      "name": "InvalidInitialization",
      "type": "error"
    },
    {
      "inputs": [],
      "name": "NotInitializing",
      "type": "error"
    },
    {
      "inputs": [
        {
          "internalType": "uint256",
          "name": "a",
          "type": "uint256"
        },
        {
          "internalType": "uint256",
          "name": "b",
          "type": "uint256"
        }
      ],
      "name": "PPMMathInvalidMulPPM",
      "type": "error"
    },
    {
      "inputs": [
        {
          "internalType": "uint256",
          "name": "value",
          "type": "uint256"
        }
      ],
      "name": "PPMMathInvalidPPM",
      "type": "error"
    },
    {
      "anonymous": false,
      "inputs": [
        {
          "indexed": true,
          "internalType": "address",
          "name": "graphToken",
          "type": "address"
        },
        {
          "indexed": true,
          "internalType": "address",
          "name": "graphStaking",
          "type": "address"
        },
        {
          "indexed": false,
          "internalType": "address",
          "name": "graphPayments",
          "type": "address"
        },
        {
          "indexed": false,
          "internalType": "address",
          "name": "graphEscrow",
          "type": "address"
        },
        {
          "indexed": true,
          "internalType": "address",
          "name": "graphController",
          "type": "address"
        },
        {
          "indexed": false,
          "internalType": "address",
          "name": "graphEpochManager",
          "type": "address"
        },
        {
          "indexed": false,
          "internalType": "address",
          "name": "graphRewardsManager",
          "type": "address"
        },
        {
          "indexed": false,
          "internalType": "address",
          "name": "graphTokenGateway",
          "type": "address"
        },
        {
          "indexed": false,
          "internalType": "address",
          "name": "graphProxyAdmin",
          "type": "address"
        },
        {
          "indexed": false,
          "internalType": "address",
          "name": "graphCuration",
          "type": "address"
        }
      ],
      "name": "GraphDirectoryInitialized",
      "type": "event"
    },
    {
      "anonymous": false,
      "inputs": [
        {
          "indexed": true,
          "internalType": "enum IGraphPayments.PaymentTypes",
          "name": "paymentType",
          "type": "uint8"
        },
        {
          "indexed": true,
          "internalType": "address",
          "name": "payer",
          "type": "address"
        },
        {
          "indexed": false,
          "internalType": "address",
          "name": "receiver",
          "type": "address"
        },
        {
          "indexed": true,
          "internalType": "address",
          "name": "dataService",
          "type": "address"
        },
        {
          "indexed": false,
          "internalType": "uint256",
          "name": "tokens",
          "type": "uint256"
        },
        {
          "indexed": false,
          "internalType": "uint256",
          "name": "tokensProtocol",
          "type": "uint256"
        },
        {
          "indexed": false,
          "internalType": "uint256",
          "name": "tokensDataService",
          "type": "uint256"
        },
        {
          "indexed": false,
          "internalType": "uint256",
          "name": "tokensDelegationPool",
          "type": "uint256"
        },
        {
          "indexed": false,
          "internalType": "uint256",
          "name": "tokensReceiver",
          "type": "uint256"
        }
      ],
      "name": "GraphPaymentCollected",
      "type": "event"
    },
    {
      "anonymous": false,
      "inputs": [
        {
          "indexed": false,
          "internalType": "uint64",
          "name": "version",
          "type": "uint64"
        }
      ],
      "name": "Initialized",
      "type": "event"
    },
    {
      "inputs": [],
      "name": "PROTOCOL_PAYMENT_CUT",
      "outputs": [
        {
          "internalType": "uint256",
          "name": "",
          "type": "uint256"
        }
      ],
      "stateMutability": "view",
      "type": "function"
    },
    {
      "inputs": [
        {
          "internalType": "enum IGraphPayments.PaymentTypes",
          "name": "paymentType",
          "type": "uint8"
        },
        {
          "internalType": "address",
          "name": "receiver",
          "type": "address"
        },
        {
          "internalType": "uint256",
          "name": "tokens",
          "type": "uint256"
        },
        {
          "internalType": "address",
          "name": "dataService",
          "type": "address"
        },
        {
          "internalType": "uint256",
          "name": "dataServiceCut",
          "type": "uint256"
        }
      ],
      "name": "collect",
      "outputs": [],
      "stateMutability": "nonpayable",
      "type": "function"
    },
    {
      "inputs": [],
      "name": "initialize",
      "outputs": [],
      "stateMutability": "nonpayable",
      "type": "function"
    },
    {
      "inputs": [
        {
          "internalType": "bytes[]",
          "name": "data",
          "type": "bytes[]"
        }
      ],
      "name": "multicall",
      "outputs": [
        {
          "internalType": "bytes[]",
          "name": "results",
          "type": "bytes[]"
        }
      ],
      "stateMutability": "nonpayable",
      "type": "function"
    }
  ],
  "bytecode": "0x6101e060405234801561001157600080fd5b5060405161141f38038061141f833981016040819052610030916104ee565b816001600160a01b03811661007a5760405163218f5add60e11b815260206004820152600a60248201526921b7b73a3937b63632b960b11b60448201526064015b60405180910390fd5b6001600160a01b0381166101005260408051808201909152600a81526923b930b8342a37b5b2b760b11b60208201526100b290610372565b6001600160a01b03166080526040805180820190915260078152665374616b696e6760c81b60208201526100e590610372565b6001600160a01b031660a05260408051808201909152600d81526c47726170685061796d656e747360981b602082015261011e90610372565b6001600160a01b031660c05260408051808201909152600e81526d5061796d656e7473457363726f7760901b602082015261015890610372565b6001600160a01b031660e05260408051808201909152600c81526b22b837b1b426b0b730b3b2b960a11b602082015261019090610372565b6001600160a01b03166101205260408051808201909152600e81526d2932bbb0b93239a6b0b730b3b2b960911b60208201526101cb90610372565b6001600160a01b0316610140526040805180820190915260118152704772617068546f6b656e4761746577617960781b602082015261020990610372565b6001600160a01b03166101605260408051808201909152600f81526e23b930b834283937bc3ca0b236b4b760891b602082015261024590610372565b6001600160a01b03166101805260408051808201909152600881526721bab930ba34b7b760c11b602082015261027a90610372565b6001600160a01b039081166101a08190526101005160a05160805160c05160e05161012051610140516101605161018051604051988b169a9788169996909716977fef5021414834d86e36470f5c1cecf6544fb2bb723f2ca51a4c86fcd8c5919a43976103249790916001600160a01b03978816815295871660208701529386166040860152918516606085015284166080840152831660a083015290911660c082015260e00190565b60405180910390a45061033a81620f4240101590565b819061035c576040516339b762e560e21b815260040161007191815260200190565b506101c081905261036b610420565b505061058a565b600080610100516001600160a01b031663f7641a5e84805190602001206040518263ffffffff1660e01b81526004016103ad91815260200190565b602060405180830381865afa1580156103ca573d6000803e3d6000fd5b505050506040513d601f19601f820116820180604052508101906103ee919061051a565b9050826001600160a01b0382166104195760405163218f5add60e11b8152600401610071919061053c565b5092915050565b7ff0c57e16840df040f15088dc2f81fe391c3923bec73e23a9662efc9c229c6a00805468010000000000000000900460ff16156104705760405163f92ee8a960e01b815260040160405180910390fd5b80546001600160401b03908116146104cf5780546001600160401b0319166001600160401b0390811782556040519081527fc7f505b2f371ae2175ee4913f4499e1f2633a7b5936321eed1cdaeb6115181d29060200160405180910390a15b50565b80516001600160a01b03811681146104e957600080fd5b919050565b6000806040838503121561050157600080fd5b61050a836104d2565b9150602083015190509250929050565b60006020828403121561052c57600080fd5b610535826104d2565b9392505050565b602081526000825180602084015260005b8181101561056a576020818601810151604086840101520161054d565b506000604082850101526040601f19601f83011684010191505092915050565b60805160a05160c05160e05161010051610120516101405161016051610180516101a0516101c051610e216105fe60003960008181605601526101270152600050506000505060005050600050506000505060005050600050506000505060006107620152600061062f0152610e216000f3fe608060405234801561001057600080fd5b506004361061004c5760003560e01c80631d526e50146100515780636c69783a1461008b5780638129fc1c146100a0578063ac9650d8146100a8575b600080fd5b6100787f000000000000000000000000000000000000000000000000000000000000000081565b6040519081526020015b60405180910390f35b61009e610099366004610a08565b6100c8565b005b61009e61044d565b6100bb6100b6366004610a63565b610545565b6040516100829190610afc565b6100d581620f4240101590565b8190610100576040516339b762e560e21b81526004016100f791815260200190565b60405180910390fd5b5061011e338461010e61062d565b6001600160a01b03169190610651565b82600061014b827f0000000000000000000000000000000000000000000000000000000000000000610707565b90506101578183610b92565b915060006101658385610707565b90506101718184610b92565b925060008061017e610760565b604051631584a17960e21b81526001600160a01b038b811660048301528981166024830152919091169063561285e49060440160a060405180830381865afa1580156101ce573d6000803e3d6000fd5b505050506040513d601f19601f820116820180604052508101906101f29190610bbb565b6020810151909150156102905761028161020a610760565b6001600160a01b0316637573ef4f8b8a8e6040518463ffffffff1660e01b815260040161023993929190610c50565b602060405180830381865afa158015610256573d6000803e3d6000fd5b505050506040513d601f19601f8201168201806040525081019061027a9190610c94565b8690610707565b915061028d8286610b92565b94505b6102ab8461029c61062d565b6001600160a01b031690610784565b6102c887846102b861062d565b6001600160a01b031691906107e9565b81156103b8576102d661062d565b6001600160a01b031663095ea7b36102ec610760565b846040518363ffffffff1660e01b815260040161030a929190610cad565b6020604051808303816000875af1158015610329573d6000803e3d6000fd5b505050506040513d601f19601f8201168201806040525081019061034d9190610cc6565b50610356610760565b6001600160a01b031663ca94b0e98a89856040518463ffffffff1660e01b815260040161038593929190610ce8565b600060405180830381600087803b15801561039f57600080fd5b505af11580156103b3573d6000803e3d6000fd5b505050505b6103c589866102b861062d565b6001600160a01b038716338b60028111156103e2576103e2610c3a565b604080516001600160a01b038e168152602081018d9052908101889052606081018790526080810186905260a081018990527f15031c73839eb026d1ddedd9cad4367c8cd36b18ba1056f2756f1cec59b398359060c00160405180910390a450505050505050505050565b600061045761081d565b805490915060ff600160401b82041615906001600160401b031660008115801561047e5750825b90506000826001600160401b0316600114801561049a5750303b155b9050811580156104a8575080155b156104c65760405163f92ee8a960e01b815260040160405180910390fd5b845467ffffffffffffffff1916600117855583156104f057845460ff60401b1916600160401b1785555b6104f8610841565b831561053e57845460ff60401b19168555604051600181527fc7f505b2f371ae2175ee4913f4499e1f2633a7b5936321eed1cdaeb6115181d29060200160405180910390a15b5050505050565b604080516000815260208101909152606090826001600160401b0381111561056f5761056f610ba5565b6040519080825280602002602001820160405280156105a257816020015b606081526020019060019003908161058d5790505b50915060005b83811015610624576105ff308686848181106105c6576105c6610d0c565b90506020028101906105d89190610d22565b856040516020016105eb93929190610d6f565b60405160208183030381529060405261084b565b83828151811061061157610611610d0c565b60209081029190910101526001016105a8565b50505b92915050565b7f000000000000000000000000000000000000000000000000000000000000000090565b8015610702576040516323b872dd60e01b81526001600160a01b038416906323b872dd9061068790859030908690600401610ce8565b6020604051808303816000875af11580156106a6573d6000803e3d6000fd5b505050506040513d601f19601f820116820180604052508101906106ca9190610cc6565b6107025760405162461bcd60e51b815260206004820152600960248201526810ba3930b739b332b960b91b60448201526064016100f7565b505050565b600061071682620f4240101590565b829061073857604051633dc311df60e01b81526004016100f791815260200190565b5061074f8361074a84620f4240610b92565b6108c1565b6107599084610b92565b9392505050565b7f000000000000000000000000000000000000000000000000000000000000000090565b80156107e557604051630852cd8d60e31b8152600481018290526001600160a01b038316906342966c6890602401600060405180830381600087803b1580156107cc57600080fd5b505af11580156107e0573d6000803e3d6000fd5b505050505b5050565b80156107025760405163a9059cbb60e01b81526001600160a01b0384169063a9059cbb906106879085908590600401610cad565b7ff0c57e16840df040f15088dc2f81fe391c3923bec73e23a9662efc9c229c6a0090565b610849610928565b565b6060600080846001600160a01b0316846040516108689190610d96565b600060405180830381855af49150503d80600081146108a3576040519150601f19603f3d011682016040523d82523d6000602084013e6108a8565b606091505b50915091506108b885838361094d565b95945050505050565b60006108d083620f4240101590565b806108e357506108e382620f4240101590565b8383909161090d5760405163768bf0eb60e11b8152600481019290925260248201526044016100f7565b50620f4240905061091e8385610db2565b6107599190610dc9565b6109306109a9565b61084957604051631afcd79f60e31b815260040160405180910390fd5b6060826109625761095d826109c3565b610759565b815115801561097957506001600160a01b0384163b155b156109a257604051639996b31560e01b81526001600160a01b03851660048201526024016100f7565b5092915050565b60006109b361081d565b54600160401b900460ff16919050565b8051156109d35780518082602001fd5b604051630a12f52160e11b815260040160405180910390fd5b80356001600160a01b0381168114610a0357600080fd5b919050565b600080600080600060a08688031215610a2057600080fd5b853560038110610a2f57600080fd5b9450610a3d602087016109ec565b935060408601359250610a52606087016109ec565b949793965091946080013592915050565b60008060208385031215610a7657600080fd5b82356001600160401b03811115610a8c57600080fd5b8301601f81018513610a9d57600080fd5b80356001600160401b03811115610ab357600080fd5b8560208260051b8401011115610ac857600080fd5b6020919091019590945092505050565b60005b83811015610af3578181015183820152602001610adb565b50506000910152565b6000602082016020835280845180835260408501915060408160051b86010192506020860160005b82811015610b7057603f1987860301845281518051808752610b4d816020890160208501610ad8565b601f01601f19169590950160209081019550938401939190910190600101610b24565b50929695505050505050565b634e487b7160e01b600052601160045260246000fd5b8181038181111561062757610627610b7c565b634e487b7160e01b600052604160045260246000fd5b600060a0828403128015610bce57600080fd5b6000905060405160a081018181106001600160401b0382111715610c0057634e487b7160e01b83526041600452602483fd5b6040908152845182526020808601519083015284810151908201526060808501519082015260809384015193810193909352509092915050565b634e487b7160e01b600052602160045260246000fd5b6001600160a01b038481168252831660208201526060810160038310610c8657634e487b7160e01b600052602160045260246000fd5b826040830152949350505050565b600060208284031215610ca657600080fd5b5051919050565b6001600160a01b03929092168252602082015260400190565b600060208284031215610cd857600080fd5b8151801515811461075957600080fd5b6001600160a01b039384168152919092166020820152604081019190915260600190565b634e487b7160e01b600052603260045260246000fd5b6000808335601e19843603018112610d3957600080fd5b8301803591506001600160401b03821115610d5357600080fd5b602001915036819003821315610d6857600080fd5b9250929050565b828482376000838201600081528351610d8c818360208801610ad8565b0195945050505050565b60008251610da8818460208701610ad8565b9190910192915050565b808202811582820484141761062757610627610b7c565b600082610de657634e487b7160e01b600052601260045260246000fd5b50049056fea264697066735822122058ed99686fffbdf87b87bfca94f4c7b01ccc5c2b2f87fd3c2dcc55c7f8734df164736f6c634300081b0033",
  "linkReferences": {},
  "deployedLinkReferences": {}
}