{
  "_format": "hh-sol-artifact-1",
  "contractName": "HorizonStaking",
  "sourceName": "contracts/staking/HorizonStaking.sol",
  "abi": [
    {
      "inputs": [
        {
          "internalType": "address",
          "name": "controller",
          "type": "address"
        },
        {
          "internalType": "address",
          "name": "stakingExtensionAddress",
          "type": "address"
        },
        {
          "internalType": "address",
          "name": "subgraphDataServiceAddress",
          "type": "address"
        }
      ],
      "stateMutability": "nonpayable",
      "type": "constructor"
    },
    {
      "inputs": [
        {
          "internalType": "address",
          "name": "target",
          "type": "address"
        }
      ],
      "name": "AddressEmptyCode",
      "type": "error"
    },
    {
      "inputs": [],
      "name": "FailedInnerCall",
      "type": "error"
    },
    {
      "inputs": [
        {
          "internalType": "bytes",
          "name": "contractName",
          "type": "bytes"
        }
      ],
      "name": "GraphDirectoryInvalidZeroAddress",
      "type": "error"
    },
    {
      "inputs": [],
      "name": "HorizonStakingCallerIsServiceProvider",
      "type": "error"
    },
    {
      "inputs": [
        {
          "internalType": "uint256",
          "name": "tokens",
          "type": "uint256"
        },
        {
          "internalType": "uint256",
          "name": "minTokens",
          "type": "uint256"
        }
      ],
      "name": "HorizonStakingInsufficientIdleStake",
      "type": "error"
    },
    {
      "inputs": [
        {
          "internalType": "uint256",
          "name": "shares",
          "type": "uint256"
        },
        {
          "internalType": "uint256",
          "name": "minShares",
          "type": "uint256"
        }
      ],
      "name": "HorizonStakingInsufficientShares",
      "type": "error"
    },
    {
      "inputs": [
        {
          "internalType": "uint256",
          "name": "tokens",
          "type": "uint256"
        },
        {
          "internalType": "uint256",
          "name": "minTokens",
          "type": "uint256"
        }
      ],
      "name": "HorizonStakingInsufficientStakeForLegacyAllocations",
      "type": "error"
    },
    {
      "inputs": [
        {
          "internalType": "uint256",
          "name": "tokens",
          "type": "uint256"
        },
        {
          "internalType": "uint256",
          "name": "minRequired",
          "type": "uint256"
        }
      ],
      "name": "HorizonStakingInsufficientTokens",
      "type": "error"
    },
    {
      "inputs": [],
      "name": "HorizonStakingInvalidBeneficiaryZeroAddress",
      "type": "error"
    },
    {
      "inputs": [
        {
          "internalType": "uint256",
          "name": "feeCut",
          "type": "uint256"
        }
      ],
      "name": "HorizonStakingInvalidDelegationFeeCut",
      "type": "error"
    },
    {
      "inputs": [
        {
          "internalType": "address",
          "name": "serviceProvider",
          "type": "address"
        },
        {
          "internalType": "address",
          "name": "verifier",
          "type": "address"
        }
      ],
      "name": "HorizonStakingInvalidDelegationPool",
      "type": "error"
    },
    {
      "inputs": [
        {
          "internalType": "address",
          "name": "serviceProvider",
          "type": "address"
        },
        {
          "internalType": "address",
          "name": "verifier",
          "type": "address"
        }
      ],
      "name": "HorizonStakingInvalidDelegationPoolState",
      "type": "error"
    },
    {
      "inputs": [
        {
          "internalType": "uint32",
          "name": "maxVerifierCut",
          "type": "uint32"
        }
      ],
      "name": "HorizonStakingInvalidMaxVerifierCut",
      "type": "error"
    },
    {
      "inputs": [
        {
          "internalType": "address",
          "name": "serviceProvider",
          "type": "address"
        },
        {
          "internalType": "address",
          "name": "verifier",
          "type": "address"
        }
      ],
      "name": "HorizonStakingInvalidProvision",
      "type": "error"
    },
    {
      "inputs": [],
      "name": "HorizonStakingInvalidServiceProviderZeroAddress",
      "type": "error"
    },
    {
      "inputs": [
        {
          "internalType": "uint64",
          "name": "thawingPeriod",
          "type": "uint64"
        },
        {
          "internalType": "uint64",
          "name": "maxThawingPeriod",
          "type": "uint64"
        }
      ],
      "name": "HorizonStakingInvalidThawingPeriod",
      "type": "error"
    },
    {
      "inputs": [],
      "name": "HorizonStakingInvalidVerifierZeroAddress",
      "type": "error"
    },
    {
      "inputs": [],
      "name": "HorizonStakingInvalidZeroShares",
      "type": "error"
    },
    {
      "inputs": [],
      "name": "HorizonStakingInvalidZeroTokens",
      "type": "error"
    },
    {
      "inputs": [
        {
          "internalType": "address",
          "name": "serviceProvider",
          "type": "address"
        },
        {
          "internalType": "address",
          "name": "verifier",
          "type": "address"
        },
        {
          "internalType": "address",
          "name": "caller",
          "type": "address"
        }
      ],
      "name": "HorizonStakingNotAuthorized",
      "type": "error"
    },
    {
      "inputs": [],
      "name": "HorizonStakingNothingThawing",
      "type": "error"
    },
    {
      "inputs": [],
      "name": "HorizonStakingProvisionAlreadyExists",
      "type": "error"
    },
    {
      "inputs": [
        {
          "internalType": "uint256",
          "name": "shares",
          "type": "uint256"
        },
        {
          "internalType": "uint256",
          "name": "minShares",
          "type": "uint256"
        }
      ],
      "name": "HorizonStakingSlippageProtection",
      "type": "error"
    },
    {
      "inputs": [
        {
          "internalType": "uint256",
          "name": "until",
          "type": "uint256"
        }
      ],
      "name": "HorizonStakingStillThawing",
      "type": "error"
    },
    {
      "inputs": [],
      "name": "HorizonStakingTooManyThawRequests",
      "type": "error"
    },
    {
      "inputs": [
        {
          "internalType": "uint256",
          "name": "tokens",
          "type": "uint256"
        },
        {
          "internalType": "uint256",
          "name": "maxTokens",
          "type": "uint256"
        }
      ],
      "name": "HorizonStakingTooManyTokens",
      "type": "error"
    },
    {
      "inputs": [
        {
          "internalType": "address",
          "name": "verifier",
          "type": "address"
        }
      ],
      "name": "HorizonStakingVerifierNotAllowed",
      "type": "error"
    },
    {
      "inputs": [],
      "name": "LinkedListEmptyList",
      "type": "error"
    },
    {
      "inputs": [],
      "name": "LinkedListInvalidIterations",
      "type": "error"
    },
    {
      "inputs": [],
      "name": "LinkedListInvalidZeroId",
      "type": "error"
    },
    {
      "inputs": [],
      "name": "LinkedListMaxElementsExceeded",
      "type": "error"
    },
    {
      "inputs": [],
      "name": "ManagedIsPaused",
      "type": "error"
    },
    {
      "inputs": [],
      "name": "ManagedOnlyController",
      "type": "error"
    },
    {
      "inputs": [],
      "name": "ManagedOnlyGovernor",
      "type": "error"
    },
    {
      "inputs": [
        {
          "internalType": "uint256",
          "name": "a",
          "type": "uint256"
        },
        {
          "internalType": "uint256",
          "name": "b",
          "type": "uint256"
        }
      ],
      "name": "PPMMathInvalidMulPPM",
      "type": "error"
    },
    {
      "anonymous": false,
      "inputs": [
        {
          "indexed": true,
          "internalType": "address",
          "name": "verifier",
          "type": "address"
        },
        {
          "indexed": false,
          "internalType": "bool",
          "name": "allowed",
          "type": "bool"
        }
      ],
      "name": "AllowedLockedVerifierSet",
      "type": "event"
    },
    {
      "anonymous": false,
      "inputs": [
        {
          "indexed": true,
          "internalType": "address",
          "name": "serviceProvider",
          "type": "address"
        },
        {
          "indexed": true,
          "internalType": "address",
          "name": "verifier",
          "type": "address"
        },
        {
          "indexed": true,
          "internalType": "address",
          "name": "delegator",
          "type": "address"
        },
        {
          "indexed": false,
          "internalType": "uint256",
          "name": "tokens",
          "type": "uint256"
        }
      ],
      "name": "DelegatedTokensWithdrawn",
      "type": "event"
    },
    {
      "anonymous": false,
      "inputs": [
        {
          "indexed": true,
          "internalType": "address",
          "name": "serviceProvider",
          "type": "address"
        },
        {
          "indexed": true,
          "internalType": "address",
          "name": "verifier",
          "type": "address"
        },
        {
          "indexed": true,
          "internalType": "enum IGraphPayments.PaymentTypes",
          "name": "paymentType",
          "type": "uint8"
        },
        {
          "indexed": false,
          "internalType": "uint256",
          "name": "feeCut",
          "type": "uint256"
        }
      ],
      "name": "DelegationFeeCutSet",
      "type": "event"
    },
    {
      "anonymous": false,
      "inputs": [
        {
          "indexed": true,
          "internalType": "address",
          "name": "serviceProvider",
          "type": "address"
        },
        {
          "indexed": true,
          "internalType": "address",
          "name": "verifier",
          "type": "address"
        },
        {
          "indexed": false,
          "internalType": "uint256",
          "name": "tokens",
          "type": "uint256"
        }
      ],
      "name": "DelegationSlashed",
      "type": "event"
    },
    {
      "anonymous": false,
      "inputs": [
        {
          "indexed": false,
          "internalType": "bool",
          "name": "enabled",
          "type": "bool"
        }
      ],
      "name": "DelegationSlashingEnabled",
      "type": "event"
    },
    {
      "anonymous": false,
      "inputs": [
        {
          "indexed": true,
          "internalType": "address",
          "name": "serviceProvider",
          "type": "address"
        },
        {
          "indexed": true,
          "internalType": "address",
          "name": "verifier",
          "type": "address"
        },
        {
          "indexed": false,
          "internalType": "uint256",
          "name": "tokens",
          "type": "uint256"
        }
      ],
      "name": "DelegationSlashingSkipped",
      "type": "event"
    },
    {
      "anonymous": false,
      "inputs": [
        {
          "indexed": true,
          "internalType": "address",
          "name": "graphToken",
          "type": "address"
        },
        {
          "indexed": true,
          "internalType": "address",
          "name": "graphStaking",
          "type": "address"
        },
        {
          "indexed": false,
          "internalType": "address",
          "name": "graphPayments",
          "type": "address"
        },
        {
          "indexed": false,
          "internalType": "address",
          "name": "graphEscrow",
          "type": "address"
        },
        {
          "indexed": true,
          "internalType": "address",
          "name": "graphController",
          "type": "address"
        },
        {
          "indexed": false,
          "internalType": "address",
          "name": "graphEpochManager",
          "type": "address"
        },
        {
          "indexed": false,
          "internalType": "address",
          "name": "graphRewardsManager",
          "type": "address"
        },
        {
          "indexed": false,
          "internalType": "address",
          "name": "graphTokenGateway",
          "type": "address"
        },
        {
          "indexed": false,
          "internalType": "address",
          "name": "graphProxyAdmin",
          "type": "address"
        },
        {
          "indexed": false,
          "internalType": "address",
          "name": "graphCuration",
          "type": "address"
        }
      ],
      "name": "GraphDirectoryInitialized",
      "type": "event"
    },
    {
      "anonymous": false,
      "inputs": [
        {
          "indexed": false,
          "internalType": "uint64",
          "name": "maxThawingPeriod",
          "type": "uint64"
        }
      ],
      "name": "MaxThawingPeriodSet",
      "type": "event"
    },
    {
      "anonymous": false,
      "inputs": [
        {
          "indexed": true,
          "internalType": "address",
          "name": "serviceProvider",
          "type": "address"
        },
        {
          "indexed": true,
          "internalType": "address",
          "name": "verifier",
          "type": "address"
        },
        {
          "indexed": true,
          "internalType": "address",
          "name": "operator",
          "type": "address"
        },
        {
          "indexed": false,
          "internalType": "bool",
          "name": "allowed",
          "type": "bool"
        }
      ],
      "name": "OperatorSet",
      "type": "event"
    },
    {
      "anonymous": false,
      "inputs": [
        {
          "indexed": true,
          "internalType": "address",
          "name": "serviceProvider",
          "type": "address"
        },
        {
          "indexed": true,
          "internalType": "address",
          "name": "verifier",
          "type": "address"
        },
        {
          "indexed": false,
          "internalType": "uint256",
          "name": "tokens",
          "type": "uint256"
        },
        {
          "indexed": false,
          "internalType": "uint32",
          "name": "maxVerifierCut",
          "type": "uint32"
        },
        {
          "indexed": false,
          "internalType": "uint64",
          "name": "thawingPeriod",
          "type": "uint64"
        }
      ],
      "name": "ProvisionCreated",
      "type": "event"
    },
    {
      "anonymous": false,
      "inputs": [
        {
          "indexed": true,
          "internalType": "address",
          "name": "serviceProvider",
          "type": "address"
        },
        {
          "indexed": true,
          "internalType": "address",
          "name": "verifier",
          "type": "address"
        },
        {
          "indexed": false,
          "internalType": "uint256",
          "name": "tokens",
          "type": "uint256"
        }
      ],
      "name": "ProvisionIncreased",
      "type": "event"
    },
    {
      "anonymous": false,
      "inputs": [
        {
          "indexed": true,
          "internalType": "address",
          "name": "serviceProvider",
          "type": "address"
        },
        {
          "indexed": true,
          "internalType": "address",
          "name": "verifier",
          "type": "address"
        },
        {
          "indexed": false,
          "internalType": "uint32",
          "name": "maxVerifierCut",
          "type": "uint32"
        },
        {
          "indexed": false,
          "internalType": "uint64",
          "name": "thawingPeriod",
          "type": "uint64"
        }
      ],
      "name": "ProvisionParametersSet",
      "type": "event"
    },
    {
      "anonymous": false,
      "inputs": [
        {
          "indexed": true,
          "internalType": "address",
          "name": "serviceProvider",
          "type": "address"
        },
        {
          "indexed": true,
          "internalType": "address",
          "name": "verifier",
          "type": "address"
        },
        {
          "indexed": false,
          "internalType": "uint32",
          "name": "maxVerifierCut",
          "type": "uint32"
        },
        {
          "indexed": false,
          "internalType": "uint64",
          "name": "thawingPeriod",
          "type": "uint64"
        }
      ],
      "name": "ProvisionParametersStaged",
      "type": "event"
    },
    {
      "anonymous": false,
      "inputs": [
        {
          "indexed": true,
          "internalType": "address",
          "name": "serviceProvider",
          "type": "address"
        },
        {
          "indexed": true,
          "internalType": "address",
          "name": "verifier",
          "type": "address"
        },
        {
          "indexed": false,
          "internalType": "uint256",
          "name": "tokens",
          "type": "uint256"
        }
      ],
      "name": "ProvisionSlashed",
      "type": "event"
    },
    {
      "anonymous": false,
      "inputs": [
        {
          "indexed": true,
          "internalType": "address",
          "name": "serviceProvider",
          "type": "address"
        },
        {
          "indexed": true,
          "internalType": "address",
          "name": "verifier",
          "type": "address"
        },
        {
          "indexed": false,
          "internalType": "uint256",
          "name": "tokens",
          "type": "uint256"
        }
      ],
      "name": "ProvisionThawed",
      "type": "event"
    },
    {
      "anonymous": false,
      "inputs": [
        {
          "indexed": true,
          "internalType": "address",
          "name": "serviceProvider",
          "type": "address"
        },
        {
          "indexed": false,
          "internalType": "uint256",
          "name": "tokens",
          "type": "uint256"
        }
      ],
      "name": "StakeDeposited",
      "type": "event"
    },
    {
      "anonymous": false,
      "inputs": [
        {
          "indexed": true,
          "internalType": "address",
          "name": "serviceProvider",
          "type": "address"
        },
        {
          "indexed": false,
          "internalType": "uint256",
          "name": "tokens",
          "type": "uint256"
        },
        {
          "indexed": false,
          "internalType": "uint256",
          "name": "until",
          "type": "uint256"
        }
      ],
      "name": "StakeLocked",
      "type": "event"
    },
    {
      "anonymous": false,
      "inputs": [
        {
          "indexed": true,
          "internalType": "address",
          "name": "serviceProvider",
          "type": "address"
        },
        {
          "indexed": false,
          "internalType": "uint256",
          "name": "tokens",
          "type": "uint256"
        }
      ],
      "name": "StakeWithdrawn",
      "type": "event"
    },
    {
      "anonymous": false,
      "inputs": [
        {
          "indexed": true,
          "internalType": "address",
          "name": "serviceProvider",
          "type": "address"
        },
        {
          "indexed": true,
          "internalType": "address",
          "name": "verifier",
          "type": "address"
        },
        {
          "indexed": true,
          "internalType": "address",
          "name": "owner",
          "type": "address"
        },
        {
          "indexed": false,
          "internalType": "uint256",
          "name": "shares",
          "type": "uint256"
        },
        {
          "indexed": false,
          "internalType": "uint64",
          "name": "thawingUntil",
          "type": "uint64"
        },
        {
          "indexed": false,
          "internalType": "bytes32",
          "name": "thawRequestId",
          "type": "bytes32"
        }
      ],
      "name": "ThawRequestCreated",
      "type": "event"
    },
    {
      "anonymous": false,
      "inputs": [
        {
          "indexed": true,
          "internalType": "bytes32",
          "name": "thawRequestId",
          "type": "bytes32"
        },
        {
          "indexed": false,
          "internalType": "uint256",
          "name": "tokens",
          "type": "uint256"
        },
        {
          "indexed": false,
          "internalType": "uint256",
          "name": "shares",
          "type": "uint256"
        },
        {
          "indexed": false,
          "internalType": "uint64",
          "name": "thawingUntil",
          "type": "uint64"
        },
        {
          "indexed": false,
          "internalType": "bool",
          "name": "valid",
          "type": "bool"
        }
      ],
      "name": "ThawRequestFulfilled",
      "type": "event"
    },
    {
      "anonymous": false,
      "inputs": [
        {
          "indexed": true,
          "internalType": "address",
          "name": "serviceProvider",
          "type": "address"
        },
        {
          "indexed": true,
          "internalType": "address",
          "name": "verifier",
          "type": "address"
        },
        {
          "indexed": true,
          "internalType": "address",
          "name": "owner",
          "type": "address"
        },
        {
          "indexed": false,
          "internalType": "uint256",
          "name": "thawRequestsFulfilled",
          "type": "uint256"
        },
        {
          "indexed": false,
          "internalType": "uint256",
          "name": "tokens",
          "type": "uint256"
        }
      ],
      "name": "ThawRequestsFulfilled",
      "type": "event"
    },
    {
      "anonymous": false,
      "inputs": [],
      "name": "ThawingPeriodCleared",
      "type": "event"
    },
    {
      "anonymous": false,
      "inputs": [
        {
          "indexed": true,
          "internalType": "address",
          "name": "serviceProvider",
          "type": "address"
        },
        {
          "indexed": true,
          "internalType": "address",
          "name": "verifier",
          "type": "address"
        },
        {
          "indexed": true,
          "internalType": "address",
          "name": "delegator",
          "type": "address"
        },
        {
          "indexed": false,
          "internalType": "uint256",
          "name": "tokens",
          "type": "uint256"
        }
      ],
      "name": "TokensDelegated",
      "type": "event"
    },
    {
      "anonymous": false,
      "inputs": [
        {
          "indexed": true,
          "internalType": "address",
          "name": "serviceProvider",
          "type": "address"
        },
        {
          "indexed": true,
          "internalType": "address",
          "name": "verifier",
          "type": "address"
        },
        {
          "indexed": false,
          "internalType": "uint256",
          "name": "tokens",
          "type": "uint256"
        }
      ],
      "name": "TokensDeprovisioned",
      "type": "event"
    },
    {
      "anonymous": false,
      "inputs": [
        {
          "indexed": true,
          "internalType": "address",
          "name": "serviceProvider",
          "type": "address"
        },
        {
          "indexed": true,
          "internalType": "address",
          "name": "verifier",
          "type": "address"
        },
        {
          "indexed": false,
          "internalType": "uint256",
          "name": "tokens",
          "type": "uint256"
        }
      ],
      "name": "TokensToDelegationPoolAdded",
      "type": "event"
    },
    {
      "anonymous": false,
      "inputs": [
        {
          "indexed": true,
          "internalType": "address",
          "name": "serviceProvider",
          "type": "address"
        },
        {
          "indexed": true,
          "internalType": "address",
          "name": "verifier",
          "type": "address"
        },
        {
          "indexed": true,
          "internalType": "address",
          "name": "delegator",
          "type": "address"
        },
        {
          "indexed": false,
          "internalType": "uint256",
          "name": "tokens",
          "type": "uint256"
        }
      ],
      "name": "TokensUndelegated",
      "type": "event"
    },
    {
      "anonymous": false,
      "inputs": [
        {
          "indexed": true,
          "internalType": "address",
          "name": "serviceProvider",
          "type": "address"
        },
        {
          "indexed": true,
          "internalType": "address",
          "name": "verifier",
          "type": "address"
        },
        {
          "indexed": true,
          "internalType": "address",
          "name": "destination",
          "type": "address"
        },
        {
          "indexed": false,
          "internalType": "uint256",
          "name": "tokens",
          "type": "uint256"
        }
      ],
      "name": "VerifierTokensSent",
      "type": "event"
    },
    {
      "stateMutability": "nonpayable",
      "type": "fallback"
    },
    {
      "inputs": [
        {
          "internalType": "address",
          "name": "serviceProvider",
          "type": "address"
        }
      ],
      "name": "acceptProvisionParameters",
      "outputs": [],
      "stateMutability": "nonpayable",
      "type": "function"
    },
    {
      "inputs": [
        {
          "internalType": "contract IGraphProxy",
          "name": "_proxy",
          "type": "address"
        }
      ],
      "name": "acceptProxy",
      "outputs": [],
      "stateMutability": "nonpayable",
      "type": "function"
    },
    {
      "inputs": [
        {
          "internalType": "contract IGraphProxy",
          "name": "_proxy",
          "type": "address"
        },
        {
          "internalType": "bytes",
          "name": "_data",
          "type": "bytes"
        }
      ],
      "name": "acceptProxyAndCall",
      "outputs": [],
      "stateMutability": "nonpayable",
      "type": "function"
    },
    {
      "inputs": [
        {
          "internalType": "address",
          "name": "serviceProvider",
          "type": "address"
        },
        {
          "internalType": "address",
          "name": "verifier",
          "type": "address"
        },
        {
          "internalType": "uint256",
          "name": "tokens",
          "type": "uint256"
        }
      ],
      "name": "addToDelegationPool",
      "outputs": [],
      "stateMutability": "nonpayable",
      "type": "function"
    },
    {
      "inputs": [
        {
          "internalType": "address",
          "name": "serviceProvider",
          "type": "address"
        },
        {
          "internalType": "address",
          "name": "verifier",
          "type": "address"
        },
        {
          "internalType": "uint256",
          "name": "tokens",
          "type": "uint256"
        }
      ],
      "name": "addToProvision",
      "outputs": [],
      "stateMutability": "nonpayable",
      "type": "function"
    },
    {
      "inputs": [],
      "name": "clearThawingPeriod",
      "outputs": [],
      "stateMutability": "nonpayable",
      "type": "function"
    },
    {
      "inputs": [
        {
          "internalType": "address",
          "name": "serviceProvider",
          "type": "address"
        },
        {
          "internalType": "uint256",
          "name": "tokens",
          "type": "uint256"
        }
      ],
      "name": "delegate",
      "outputs": [],
      "stateMutability": "nonpayable",
      "type": "function"
    },
    {
      "inputs": [
        {
          "internalType": "address",
          "name": "serviceProvider",
          "type": "address"
        },
        {
          "internalType": "address",
          "name": "verifier",
          "type": "address"
        },
        {
          "internalType": "uint256",
          "name": "tokens",
          "type": "uint256"
        },
        {
          "internalType": "uint256",
          "name": "minSharesOut",
          "type": "uint256"
        }
      ],
      "name": "delegate",
      "outputs": [],
      "stateMutability": "nonpayable",
      "type": "function"
    },
    {
      "inputs": [
        {
          "internalType": "address",
          "name": "serviceProvider",
          "type": "address"
        },
        {
          "internalType": "address",
          "name": "verifier",
          "type": "address"
        },
        {
          "internalType": "uint256",
          "name": "nThawRequests",
          "type": "uint256"
        }
      ],
      "name": "deprovision",
      "outputs": [],
      "stateMutability": "nonpayable",
      "type": "function"
    },
    {
      "inputs": [
        {
          "internalType": "address",
          "name": "serviceProvider",
          "type": "address"
        },
        {
          "internalType": "address",
          "name": "verifier",
          "type": "address"
        }
      ],
      "name": "getDelegatedTokensAvailable",
      "outputs": [
        {
          "internalType": "uint256",
          "name": "",
          "type": "uint256"
        }
      ],
      "stateMutability": "view",
      "type": "function"
    },
    {
      "inputs": [
        {
          "internalType": "address",
          "name": "serviceProvider",
          "type": "address"
        },
        {
          "internalType": "address",
          "name": "verifier",
          "type": "address"
        },
        {
          "internalType": "address",
          "name": "delegator",
          "type": "address"
        }
      ],
      "name": "getDelegation",
      "outputs": [
        {
          "components": [
            {
              "internalType": "uint256",
              "name": "shares",
              "type": "uint256"
            }
          ],
          "internalType": "struct IHorizonStakingTypes.Delegation",
          "name": "",
          "type": "tuple"
        }
      ],
      "stateMutability": "view",
      "type": "function"
    },
    {
      "inputs": [
        {
          "internalType": "address",
          "name": "serviceProvider",
          "type": "address"
        },
        {
          "internalType": "address",
          "name": "verifier",
          "type": "address"
        },
        {
          "internalType": "enum IGraphPayments.PaymentTypes",
          "name": "paymentType",
          "type": "uint8"
        }
      ],
      "name": "getDelegationFeeCut",
      "outputs": [
        {
          "internalType": "uint256",
          "name": "",
          "type": "uint256"
        }
      ],
      "stateMutability": "view",
      "type": "function"
    },
    {
      "inputs": [
        {
          "internalType": "address",
          "name": "serviceProvider",
          "type": "address"
        },
        {
          "internalType": "address",
          "name": "verifier",
          "type": "address"
        }
      ],
      "name": "getDelegationPool",
      "outputs": [
        {
          "components": [
            {
              "internalType": "uint256",
              "name": "tokens",
              "type": "uint256"
            },
            {
              "internalType": "uint256",
              "name": "shares",
              "type": "uint256"
            },
            {
              "internalType": "uint256",
              "name": "tokensThawing",
              "type": "uint256"
            },
            {
              "internalType": "uint256",
              "name": "sharesThawing",
              "type": "uint256"
            },
            {
              "internalType": "uint256",
              "name": "thawingNonce",
              "type": "uint256"
            }
          ],
          "internalType": "struct IHorizonStakingTypes.DelegationPool",
          "name": "",
          "type": "tuple"
        }
      ],
      "stateMutability": "view",
      "type": "function"
    },
    {
      "inputs": [
        {
          "internalType": "address",
          "name": "serviceProvider",
          "type": "address"
        }
      ],
      "name": "getIdleStake",
      "outputs": [
        {
          "internalType": "uint256",
          "name": "tokens",
          "type": "uint256"
        }
      ],
      "stateMutability": "view",
      "type": "function"
    },
    {
      "inputs": [],
      "name": "getMaxThawingPeriod",
      "outputs": [
        {
          "internalType": "uint64",
          "name": "",
          "type": "uint64"
        }
      ],
      "stateMutability": "view",
      "type": "function"
    },
    {
      "inputs": [
        {
          "internalType": "address",
          "name": "serviceProvider",
          "type": "address"
        },
        {
          "internalType": "address",
          "name": "verifier",
          "type": "address"
        }
      ],
      "name": "getProviderTokensAvailable",
      "outputs": [
        {
          "internalType": "uint256",
          "name": "",
          "type": "uint256"
        }
      ],
      "stateMutability": "view",
      "type": "function"
    },
    {
      "inputs": [
        {
          "internalType": "address",
          "name": "serviceProvider",
          "type": "address"
        },
        {
          "internalType": "address",
          "name": "verifier",
          "type": "address"
        }
      ],
      "name": "getProvision",
      "outputs": [
        {
          "components": [
            {
              "internalType": "uint256",
              "name": "tokens",
              "type": "uint256"
            },
            {
              "internalType": "uint256",
              "name": "tokensThawing",
              "type": "uint256"
            },
            {
              "internalType": "uint256",
              "name": "sharesThawing",
              "type": "uint256"
            },
            {
              "internalType": "uint32",
              "name": "maxVerifierCut",
              "type": "uint32"
            },
            {
              "internalType": "uint64",
              "name": "thawingPeriod",
              "type": "uint64"
            },
            {
              "internalType": "uint64",
              "name": "createdAt",
              "type": "uint64"
            },
            {
              "internalType": "uint32",
              "name": "maxVerifierCutPending",
              "type": "uint32"
            },
            {
              "internalType": "uint64",
              "name": "thawingPeriodPending",
              "type": "uint64"
            },
            {
              "internalType": "uint256",
              "name": "thawingNonce",
              "type": "uint256"
            }
          ],
          "internalType": "struct IHorizonStakingTypes.Provision",
          "name": "",
          "type": "tuple"
        }
      ],
      "stateMutability": "view",
      "type": "function"
    },
    {
      "inputs": [
        {
          "internalType": "address",
          "name": "serviceProvider",
          "type": "address"
        }
      ],
      "name": "getServiceProvider",
      "outputs": [
        {
          "components": [
            {
              "internalType": "uint256",
              "name": "tokensStaked",
              "type": "uint256"
            },
            {
              "internalType": "uint256",
              "name": "tokensProvisioned",
              "type": "uint256"
            }
          ],
          "internalType": "struct IHorizonStakingTypes.ServiceProvider",
          "name": "",
          "type": "tuple"
        }
      ],
      "stateMutability": "view",
      "type": "function"
    },
    {
      "inputs": [
        {
          "internalType": "address",
          "name": "serviceProvider",
          "type": "address"
        }
      ],
      "name": "getStake",
      "outputs": [
        {
          "internalType": "uint256",
          "name": "",
          "type": "uint256"
        }
      ],
      "stateMutability": "view",
      "type": "function"
    },
    {
      "inputs": [
        {
          "internalType": "bytes32",
          "name": "thawRequestId",
          "type": "bytes32"
        }
      ],
      "name": "getThawRequest",
      "outputs": [
        {
          "components": [
            {
              "internalType": "uint256",
              "name": "shares",
              "type": "uint256"
            },
            {
              "internalType": "uint64",
              "name": "thawingUntil",
              "type": "uint64"
            },
            {
              "internalType": "bytes32",
              "name": "next",
              "type": "bytes32"
            },
            {
              "internalType": "uint256",
              "name": "thawingNonce",
              "type": "uint256"
            }
          ],
          "internalType": "struct IHorizonStakingTypes.ThawRequest",
          "name": "",
          "type": "tuple"
        }
      ],
      "stateMutability": "view",
      "type": "function"
    },
    {
      "inputs": [
        {
          "internalType": "address",
          "name": "serviceProvider",
          "type": "address"
        },
        {
          "internalType": "address",
          "name": "verifier",
          "type": "address"
        },
        {
          "internalType": "address",
          "name": "owner",
          "type": "address"
        }
      ],
      "name": "getThawRequestList",
      "outputs": [
        {
          "components": [
            {
              "internalType": "bytes32",
              "name": "head",
              "type": "bytes32"
            },
            {
              "internalType": "bytes32",
              "name": "tail",
              "type": "bytes32"
            },
            {
              "internalType": "uint256",
              "name": "nonce",
              "type": "uint256"
            },
            {
              "internalType": "uint256",
              "name": "count",
              "type": "uint256"
            }
          ],
          "internalType": "struct LinkedList.List",
          "name": "",
          "type": "tuple"
        }
      ],
      "stateMutability": "view",
      "type": "function"
    },
    {
      "inputs": [
        {
          "internalType": "address",
          "name": "serviceProvider",
          "type": "address"
        },
        {
          "internalType": "address",
          "name": "verifier",
          "type": "address"
        },
        {
          "internalType": "address",
          "name": "owner",
          "type": "address"
        }
      ],
      "name": "getThawedTokens",
      "outputs": [
        {
          "internalType": "uint256",
          "name": "",
          "type": "uint256"
        }
      ],
      "stateMutability": "view",
      "type": "function"
    },
    {
      "inputs": [
        {
          "internalType": "address",
          "name": "serviceProvider",
          "type": "address"
        },
        {
          "internalType": "address",
          "name": "verifier",
          "type": "address"
        },
        {
          "internalType": "uint32",
          "name": "delegationRatio",
          "type": "uint32"
        }
      ],
      "name": "getTokensAvailable",
      "outputs": [
        {
          "internalType": "uint256",
          "name": "",
          "type": "uint256"
        }
      ],
      "stateMutability": "view",
      "type": "function"
    },
    {
      "inputs": [
        {
          "internalType": "address",
          "name": "verifier",
          "type": "address"
        }
      ],
      "name": "isAllowedLockedVerifier",
      "outputs": [
        {
          "internalType": "bool",
          "name": "",
          "type": "bool"
        }
      ],
      "stateMutability": "view",
      "type": "function"
    },
    {
      "inputs": [
        {
          "internalType": "address",
          "name": "serviceProvider",
          "type": "address"
        },
        {
          "internalType": "address",
          "name": "verifier",
          "type": "address"
        },
        {
          "internalType": "address",
          "name": "operator",
          "type": "address"
        }
      ],
      "name": "isAuthorized",
      "outputs": [
        {
          "internalType": "bool",
          "name": "",
          "type": "bool"
        }
      ],
      "stateMutability": "view",
      "type": "function"
    },
    {
      "inputs": [],
      "name": "isDelegationSlashingEnabled",
      "outputs": [
        {
          "internalType": "bool",
          "name": "",
          "type": "bool"
        }
      ],
      "stateMutability": "view",
      "type": "function"
    },
    {
      "inputs": [
        {
          "internalType": "bytes[]",
          "name": "data",
          "type": "bytes[]"
        }
      ],
      "name": "multicall",
      "outputs": [
        {
          "internalType": "bytes[]",
          "name": "results",
          "type": "bytes[]"
        }
      ],
      "stateMutability": "nonpayable",
      "type": "function"
    },
    {
      "inputs": [
        {
          "internalType": "address",
          "name": "serviceProvider",
          "type": "address"
        },
        {
          "internalType": "address",
          "name": "verifier",
          "type": "address"
        },
        {
          "internalType": "uint256",
          "name": "tokens",
          "type": "uint256"
        },
        {
          "internalType": "uint32",
          "name": "maxVerifierCut",
          "type": "uint32"
        },
        {
          "internalType": "uint64",
          "name": "thawingPeriod",
          "type": "uint64"
        }
      ],
      "name": "provision",
      "outputs": [],
      "stateMutability": "nonpayable",
      "type": "function"
    },
    {
      "inputs": [
        {
          "internalType": "address",
          "name": "serviceProvider",
          "type": "address"
        },
        {
          "internalType": "address",
          "name": "verifier",
          "type": "address"
        },
        {
          "internalType": "uint256",
          "name": "tokens",
          "type": "uint256"
        },
        {
          "internalType": "uint32",
          "name": "maxVerifierCut",
          "type": "uint32"
        },
        {
          "internalType": "uint64",
          "name": "thawingPeriod",
          "type": "uint64"
        }
      ],
      "name": "provisionLocked",
      "outputs": [],
      "stateMutability": "nonpayable",
      "type": "function"
    },
    {
      "inputs": [
        {
          "internalType": "address",
          "name": "oldServiceProvider",
          "type": "address"
        },
        {
          "internalType": "address",
          "name": "oldVerifier",
          "type": "address"
        },
        {
          "internalType": "address",
          "name": "newServiceProvider",
          "type": "address"
        },
        {
          "internalType": "address",
          "name": "newVerifier",
          "type": "address"
        },
        {
          "internalType": "uint256",
          "name": "minSharesForNewProvider",
          "type": "uint256"
        },
        {
          "internalType": "uint256",
          "name": "nThawRequests",
          "type": "uint256"
        }
      ],
      "name": "redelegate",
      "outputs": [],
      "stateMutability": "nonpayable",
      "type": "function"
    },
    {
      "inputs": [
        {
          "internalType": "address",
          "name": "serviceProvider",
          "type": "address"
        },
        {
          "internalType": "address",
          "name": "oldVerifier",
          "type": "address"
        },
        {
          "internalType": "address",
          "name": "newVerifier",
          "type": "address"
        },
        {
          "internalType": "uint256",
          "name": "nThawRequests",
          "type": "uint256"
        }
      ],
      "name": "reprovision",
      "outputs": [],
      "stateMutability": "nonpayable",
      "type": "function"
    },
    {
      "inputs": [
        {
          "internalType": "address",
          "name": "verifier",
          "type": "address"
        },
        {
          "internalType": "bool",
          "name": "allowed",
          "type": "bool"
        }
      ],
      "name": "setAllowedLockedVerifier",
      "outputs": [],
      "stateMutability": "nonpayable",
      "type": "function"
    },
    {
      "inputs": [
        {
          "internalType": "address",
          "name": "serviceProvider",
          "type": "address"
        },
        {
          "internalType": "address",
          "name": "verifier",
          "type": "address"
        },
        {
          "internalType": "enum IGraphPayments.PaymentTypes",
          "name": "paymentType",
          "type": "uint8"
        },
        {
          "internalType": "uint256",
          "name": "feeCut",
          "type": "uint256"
        }
      ],
      "name": "setDelegationFeeCut",
      "outputs": [],
      "stateMutability": "nonpayable",
      "type": "function"
    },
    {
      "inputs": [],
      "name": "setDelegationSlashingEnabled",
      "outputs": [],
      "stateMutability": "nonpayable",
      "type": "function"
    },
    {
      "inputs": [
        {
          "internalType": "uint64",
          "name": "maxThawingPeriod",
          "type": "uint64"
        }
      ],
      "name": "setMaxThawingPeriod",
      "outputs": [],
      "stateMutability": "nonpayable",
      "type": "function"
    },
    {
      "inputs": [
        {
          "internalType": "address",
          "name": "verifier",
          "type": "address"
        },
        {
          "internalType": "address",
          "name": "operator",
          "type": "address"
        },
        {
          "internalType": "bool",
          "name": "allowed",
          "type": "bool"
        }
      ],
      "name": "setOperator",
      "outputs": [],
      "stateMutability": "nonpayable",
      "type": "function"
    },
    {
      "inputs": [
        {
          "internalType": "address",
          "name": "verifier",
          "type": "address"
        },
        {
          "internalType": "address",
          "name": "operator",
          "type": "address"
        },
        {
          "internalType": "bool",
          "name": "allowed",
          "type": "bool"
        }
      ],
      "name": "setOperatorLocked",
      "outputs": [],
      "stateMutability": "nonpayable",
      "type": "function"
    },
    {
      "inputs": [
        {
          "internalType": "address",
          "name": "serviceProvider",
          "type": "address"
        },
        {
          "internalType": "address",
          "name": "verifier",
          "type": "address"
        },
        {
          "internalType": "uint32",
          "name": "newMaxVerifierCut",
          "type": "uint32"
        },
        {
          "internalType": "uint64",
          "name": "newThawingPeriod",
          "type": "uint64"
        }
      ],
      "name": "setProvisionParameters",
      "outputs": [],
      "stateMutability": "nonpayable",
      "type": "function"
    },
    {
      "inputs": [
        {
          "internalType": "address",
          "name": "serviceProvider",
          "type": "address"
        },
        {
          "internalType": "uint256",
          "name": "tokens",
          "type": "uint256"
        },
        {
          "internalType": "uint256",
          "name": "tokensVerifier",
          "type": "uint256"
        },
        {
          "internalType": "address",
          "name": "verifierDestination",
          "type": "address"
        }
      ],
      "name": "slash",
      "outputs": [],
      "stateMutability": "nonpayable",
      "type": "function"
    },
    {
      "inputs": [
        {
          "internalType": "uint256",
          "name": "tokens",
          "type": "uint256"
        }
      ],
      "name": "stake",
      "outputs": [],
      "stateMutability": "nonpayable",
      "type": "function"
    },
    {
      "inputs": [
        {
          "internalType": "address",
          "name": "serviceProvider",
          "type": "address"
        },
        {
          "internalType": "uint256",
          "name": "tokens",
          "type": "uint256"
        }
      ],
      "name": "stakeTo",
      "outputs": [],
      "stateMutability": "nonpayable",
      "type": "function"
    },
    {
      "inputs": [
        {
          "internalType": "address",
          "name": "serviceProvider",
          "type": "address"
        },
        {
          "internalType": "address",
          "name": "verifier",
          "type": "address"
        },
        {
          "internalType": "uint256",
          "name": "tokens",
          "type": "uint256"
        }
      ],
      "name": "stakeToProvision",
      "outputs": [],
      "stateMutability": "nonpayable",
      "type": "function"
    },
    {
      "inputs": [
        {
          "internalType": "address",
          "name": "serviceProvider",
          "type": "address"
        },
        {
          "internalType": "address",
          "name": "verifier",
          "type": "address"
        },
        {
          "internalType": "uint256",
          "name": "tokens",
          "type": "uint256"
        }
      ],
      "name": "thaw",
      "outputs": [
        {
          "internalType": "bytes32",
          "name": "",
          "type": "bytes32"
        }
      ],
      "stateMutability": "nonpayable",
      "type": "function"
    },
    {
      "inputs": [
        {
          "internalType": "address",
          "name": "serviceProvider",
          "type": "address"
        },
        {
          "internalType": "address",
          "name": "verifier",
          "type": "address"
        },
        {
          "internalType": "uint256",
          "name": "shares",
          "type": "uint256"
        },
        {
          "internalType": "address",
          "name": "beneficiary",
          "type": "address"
        }
      ],
      "name": "undelegate",
      "outputs": [
        {
          "internalType": "bytes32",
          "name": "",
          "type": "bytes32"
        }
      ],
      "stateMutability": "nonpayable",
      "type": "function"
    },
    {
      "inputs": [
        {
          "internalType": "address",
          "name": "serviceProvider",
          "type": "address"
        },
        {
          "internalType": "uint256",
          "name": "shares",
          "type": "uint256"
        }
      ],
      "name": "undelegate",
      "outputs": [],
      "stateMutability": "nonpayable",
      "type": "function"
    },
    {
      "inputs": [
        {
          "internalType": "address",
          "name": "serviceProvider",
          "type": "address"
        },
        {
          "internalType": "address",
          "name": "verifier",
          "type": "address"
        },
        {
          "internalType": "uint256",
          "name": "shares",
          "type": "uint256"
        }
      ],
      "name": "undelegate",
      "outputs": [
        {
          "internalType": "bytes32",
          "name": "",
          "type": "bytes32"
        }
      ],
      "stateMutability": "nonpayable",
      "type": "function"
    },
    {
      "inputs": [
        {
          "internalType": "uint256",
          "name": "tokens",
          "type": "uint256"
        }
      ],
      "name": "unstake",
      "outputs": [],
      "stateMutability": "nonpayable",
      "type": "function"
    },
    {
      "inputs": [],
      "name": "withdraw",
      "outputs": [],
      "stateMutability": "nonpayable",
      "type": "function"
    },
    {
      "inputs": [
        {
          "internalType": "address",
          "name": "serviceProvider",
          "type": "address"
        },
        {
          "internalType": "address",
          "name": "verifier",
          "type": "address"
        },
        {
          "internalType": "uint256",
          "name": "nThawRequests",
          "type": "uint256"
        }
      ],
      "name": "withdrawDelegated",
      "outputs": [],
      "stateMutability": "nonpayable",
      "type": "function"
    },
    {
      "inputs": [
        {
          "internalType": "address",
          "name": "serviceProvider",
          "type": "address"
        },
        {
          "internalType": "address",
          "name": "newServiceProvider",
          "type": "address"
        }
      ],
      "name": "withdrawDelegated",
      "outputs": [],
      "stateMutability": "nonpayable",
      "type": "function"
    },
    {
      "stateMutability": "payable",
      "type": "receive"
    }
  ],
  "bytecode": "0x61020060405234801561001157600080fd5b506040516160913803806160918339810160408190526100309161041b565b828181806001600160a01b03811661007d5760405163218f5add60e11b815260206004820152600a60248201526921b7b73a3937b63632b960b11b60448201526064015b60405180910390fd5b6001600160a01b0381166101005260408051808201909152600a81526923b930b8342a37b5b2b760b11b60208201526100b590610351565b6001600160a01b03166080526040805180820190915260078152665374616b696e6760c81b60208201526100e890610351565b6001600160a01b031660a05260408051808201909152600d81526c47726170685061796d656e747360981b602082015261012190610351565b6001600160a01b031660c05260408051808201909152600e81526d5061796d656e7473457363726f7760901b602082015261015b90610351565b6001600160a01b031660e05260408051808201909152600c81526b22b837b1b426b0b730b3b2b960a11b602082015261019390610351565b6001600160a01b03166101205260408051808201909152600e81526d2932bbb0b93239a6b0b730b3b2b960911b60208201526101ce90610351565b6001600160a01b0316610140526040805180820190915260118152704772617068546f6b656e4761746577617960781b602082015261020c90610351565b6001600160a01b03166101605260408051808201909152600f81526e23b930b834283937bc3ca0b236b4b760891b602082015261024890610351565b6001600160a01b03166101805260408051808201909152600881526721bab930ba34b7b760c11b602082015261027d90610351565b6001600160a01b039081166101a08190526101005160a05160805160c05160e05161012051610140516101605161018051604051988b169a9788169996909716977fef5021414834d86e36470f5c1cecf6544fb2bb723f2ca51a4c86fcd8c5919a43976103279790916001600160a01b03978816815295871660208701529386166040860152918516606085015284166080840152831660a083015290911660c082015260e00190565b60405180910390a450506001600160a01b039081166101c052929092166101e052506104ce915050565b600080610100516001600160a01b031663f7641a5e84805190602001206040518263ffffffff1660e01b815260040161038c91815260200190565b602060405180830381865afa1580156103a9573d6000803e3d6000fd5b505050506040513d601f19601f820116820180604052508101906103cd919061045e565b9050826001600160a01b0382166103f85760405163218f5add60e11b81526004016100749190610480565b5092915050565b80516001600160a01b038116811461041657600080fd5b919050565b60008060006060848603121561043057600080fd5b610439846103ff565b9250610447602085016103ff565b9150610455604085016103ff565b90509250925092565b60006020828403121561047057600080fd5b610479826103ff565b9392505050565b602081526000825180602084015260005b818110156104ae5760208186018101516040868401015201610491565b506000604082850101526040601f19601f83011684010191505092915050565b60805160a05160c05160e05161010051610120516101405161016051610180516101a0516101c0516101e051615ae16105b06000396000610331015260008181610eb30152818161180b015281816118be015281816118e0015281816134240152818161425401526145900152600050506000505060005050600050506000505060006133dd015260005050600050506000505060008181610e7d01528181611a5c015281816129af01528181612cc601528181612d5d01528181612ef701528181613ec1015281816140d0015281816141e401526142fc0152615ae16000f3fe6080604052600436106102cd5760003560e01c80638cc01c8611610175578063b7ca7241116100dc578063e76fede611610095578063f93f1cd01161006f578063f93f1cd014610c83578063fb744cc014610ca3578063fc54fb2714610cc3578063fecc9cc114610cdb5761031f565b8063e76fede614610c2e578063ef58bd6714610c4e578063f64b359814610c635761031f565b8063b7ca724114610ac7578063ba7fb0b414610b8a578063bc735d9014610baa578063ca94b0e914610bca578063ccebcabb14610bea578063e473522a14610c195761031f565b8063a2a317221161012e578063a2a31722146109e1578063a694fc3a14610a01578063a784d49814610a21578063ac9650d814610a41578063ad4d35b514610a6e578063ae4fe67a14610a8e5761031f565b80638cc01c86146108105780639054e343146108915780639ce7abe5146108b1578063a02b9426146108d1578063a212daf8146108f1578063a2594d82146109c15761031f565b806342c516931161023457806374612092116101ed5780637c145cc7116101c75780637c145cc71461078057806381e21b56146107b057806382d66cb8146107d0578063872d0489146107f05761031f565b8063746120921461070a5780637573ef4f1461072a5780637a7664601461074a5761031f565b806342c51693146106085780634ca7ac22146106285780634d99dd161461064857806351a60b0214610668578063561285e4146106885780636230001a146106ea5761031f565b806325d9897e1161028657806325d9897e146104485780632e17de781461056b57806339514ad21461058b5780633993d849146105b35780633a78b732146105d35780633ccfd60b146105f35761031f565b8063010167e514610375578063026e402b1461039557806308ce5f68146103b5578063162ea5ed146103e85780632119537314610408578063259bc435146104285761031f565b3661031f5760405162461bcd60e51b815260206004820152601760248201527f524543454956455f4554485f4e4f545f414c4c4f57454400000000000000000060448201526064015b60405180910390fd5b34801561032b57600080fd5b506040517f00000000000000000000000000000000000000000000000000000000000000009036600082376000803683855af43d806000843e81801561036f578184f35b8184fd5b005b34801561038157600080fd5b50610373610390366004615110565b610cfb565b3480156103a157600080fd5b506103736103b0366004615172565b610dce565b3480156103c157600080fd5b506103d56103d036600461519e565b610ede565b6040519081526020015b60405180910390f35b3480156103f457600080fd5b506103d56104033660046151d7565b610ef3565b34801561041457600080fd5b5061037361042336600461522a565b610fb8565b34801561043457600080fd5b5061037361044336600461526b565b611088565b34801561045457600080fd5b5061055e61046336600461519e565b6040805161012081018252600080825260208201819052918101829052606081018290526080810182905260a0810182905260c0810182905260e08101829052610100810191909152506001600160a01b039182166000908152601b6020908152604080832093909416825291825282902082516101208101845281548152600182015492810192909252600281015492820192909252600382015463ffffffff808216606084015264010000000082046001600160401b039081166080850152600160601b8304811660a0850152600160a01b830490911660c0840152600160c01b9091041660e082015260049091015461010082015290565b6040516103df9190615286565b34801561057757600080fd5b50610373610586366004615327565b611177565b34801561059757600080fd5b50601a546040516001600160401b0390911681526020016103df565b3480156105bf57600080fd5b506103736105ce36600461522a565b61120a565b3480156105df57600080fd5b506103736105ee366004615340565b6112a6565b3480156105ff57600080fd5b50610373611441565b34801561061457600080fd5b5061037361062336600461536c565b6114d3565b34801561063457600080fd5b506103736106433660046153c9565b611684565b34801561065457600080fd5b50610373610663366004615172565b61177e565b34801561067457600080fd5b5061037361068336600461519e565b611831565b34801561069457600080fd5b506106a86106a336600461519e565b611907565b6040516103df9190600060a082019050825182526020830151602083015260408301516040830152606083015160608301526080830151608083015292915050565b3480156106f657600080fd5b506103736107053660046153f7565b6119ad565b34801561071657600080fd5b5061037361072536600461522a565b611a92565b34801561073657600080fd5b506103d561074536600461543d565b611b2e565b34801561075657600080fd5b506103d5610765366004615340565b6001600160a01b03166000908152600e602052604090205490565b34801561078c57600080fd5b506107a061079b366004615484565b611b92565b60405190151581526020016103df565b3480156107bc57600080fd5b506103736107cb3660046154cf565b611ba7565b3480156107dc57600080fd5b506103736107eb366004615110565b611e20565b3480156107fc57600080fd5b506103d561080b366004615527565b611f31565b34801561081c57600080fd5b5061087661082b366004615340565b60408051808201825260008082526020918201819052825180840184528181528083018281526001600160a01b03959095168252600e90925291909120805482526004015490915290565b604080518251815260209283015192810192909252016103df565b34801561089d57600080fd5b506103d56108ac366004615484565b611f86565b3480156108bd57600080fd5b506103736108cc366004615565565b61206e565b3480156108dd57600080fd5b506103d56108ec36600461522a565b612199565b3480156108fd57600080fd5b5061098e61090c366004615484565b60408051608080820183526000808352602080840182905283850182905260609384018290526001600160a01b039788168252601e815284822096881682529586528381209490961686529284529381902081519283018252805483526001810154938301939093526002830154908201526003909101549181019190915290565b6040516103df91908151815260208083015190820152604080830151908201526060918201519181019190915260800190565b3480156109cd57600080fd5b506103736109dc366004615340565b61222e565b3480156109ed57600080fd5b506103736109fc366004615172565b612342565b348015610a0d57600080fd5b50610373610a1c366004615327565b6123d3565b348015610a2d57600080fd5b506103d5610a3c366004615340565b612464565b348015610a4d57600080fd5b50610a61610a5c3660046155ea565b61246f565b6040516103df9190615683565b348015610a7a57600080fd5b50610373610a89366004615703565b612556565b348015610a9a57600080fd5b506107a0610aa9366004615340565b6001600160a01b031660009081526022602052604090205460ff1690565b348015610ad357600080fd5b50610b4e610ae2366004615327565b6040805160808082018352600080835260208084018290528385018290526060938401829052948152601d8552839020835191820184528054825260018101546001600160401b0316948201949094526002840154928101929092526003909201549181019190915290565b6040516103df9190815181526020808301516001600160401b031690820152604080830151908201526060918201519181019190915260800190565b348015610b9657600080fd5b50610373610ba5366004615743565b61262f565b348015610bb657600080fd5b50610373610bc5366004615703565b612747565b348015610bd657600080fd5b50610373610be536600461522a565b6127d9565b348015610bf657600080fd5b50610c0a610c05366004615484565b612a27565b604051905181526020016103df565b348015610c2557600080fd5b50610373612a79565b348015610c3a57600080fd5b50610373610c49366004615784565b612b4b565b348015610c5a57600080fd5b5061037361306d565b348015610c6f57600080fd5b50610373610c7e3660046157c3565b613149565b348015610c8f57600080fd5b506103d5610c9e36600461522a565b61322c565b348015610caf57600080fd5b506103d5610cbe36600461519e565b613300565b348015610ccf57600080fd5b5060205460ff166107a0565b348015610ce757600080fd5b50610373610cf636600461522a565b61330c565b610d036133db565b6001600160a01b0316635c975abb6040518163ffffffff1660e01b8152600401602060405180830381865afa158015610d40573d6000803e3d6000fd5b505050506040513d601f19601f82011682018060405250810190610d649190615831565b15610d8257604051632b37d9d160e21b815260040160405180910390fd5b8484610d8f8282336133ff565b828233909192610db557604051630c76b97b60e41b81526004016103169392919061584e565b505050610dc587868887876134c3565b50505050505050565b610dd66133db565b6001600160a01b0316635c975abb6040518163ffffffff1660e01b8152600401602060405180830381865afa158015610e13573d6000803e3d6000fd5b505050506040513d601f19601f82011682018060405250810190610e379190615831565b15610e5557604051632b37d9d160e21b815260040160405180910390fd5b80600003610e7657604051630a2a4e5b60e11b815260040160405180910390fd5b610ead33827f00000000000000000000000000000000000000000000000000000000000000005b6001600160a01b03169190613842565b610eda827f00000000000000000000000000000000000000000000000000000000000000008360006138fa565b5050565b6000610eea8383613ad0565b90505b92915050565b6000610efd6133db565b6001600160a01b0316635c975abb6040518163ffffffff1660e01b8152600401602060405180830381865afa158015610f3a573d6000803e3d6000fd5b505050506040513d601f19601f82011682018060405250810190610f5e9190615831565b15610f7c57604051632b37d9d160e21b815260040160405180910390fd5b6001600160a01b038216610fa357604051633dbb48ed60e21b815260040160405180910390fd5b610faf85858585613b08565b95945050505050565b8282610fc58282336133ff565b828233909192610feb57604051630c76b97b60e41b81526004016103169392919061584e565b505050610ff66133db565b6001600160a01b0316635c975abb6040518163ffffffff1660e01b8152600401602060405180830381865afa158015611033573d6000803e3d6000fd5b505050506040513d601f19601f820116820180604052508101906110579190615831565b1561107557604051632b37d9d160e21b815260040160405180910390fd5b611080858585613d23565b505050505050565b6110906133db565b6001600160a01b0316634fc07d756040518163ffffffff1660e01b8152600401602060405180830381865afa1580156110cd573d6000803e3d6000fd5b505050506040513d601f19601f820116820180604052508101906110f19190615871565b6001600160a01b0316336001600160a01b03161461112257604051635d9044cd60e01b815260040160405180910390fd5b601a805467ffffffffffffffff19166001600160401b0383169081179091556040519081527fe8526be46fa99b6313d439293c9be3491ffb067741bc8fce9d30c270cbb8459f9060200160405180910390a150565b61117f6133db565b6001600160a01b0316635c975abb6040518163ffffffff1660e01b8152600401602060405180830381865afa1580156111bc573d6000803e3d6000fd5b505050506040513d601f19601f820116820180604052508101906111e09190615831565b156111fe57604051632b37d9d160e21b815260040160405180910390fd5b61120781613e21565b50565b6112126133db565b6001600160a01b0316635c975abb6040518163ffffffff1660e01b8152600401602060405180830381865afa15801561124f573d6000803e3d6000fd5b505050506040513d601f19601f820116820180604052508101906112739190615831565b1561129157604051632b37d9d160e21b815260040160405180910390fd5b6112a18383600080600086613ff4565b505050565b6112ae6133db565b6001600160a01b0316635c975abb6040518163ffffffff1660e01b8152600401602060405180830381865afa1580156112eb573d6000803e3d6000fd5b505050506040513d601f19601f8201168201806040525081019061130f9190615831565b1561132d57604051632b37d9d160e21b815260040160405180910390fd5b6001600160a01b0381166000908152601b602090815260408083203380855292529091206003810154600160a01b810463ffffffff908116911614158061139357506003810154600160c01b81046001600160401b039081166401000000009092041614155b156112a1576003810180546401000000006001600160401b03600160c01b63ffffffff19841663ffffffff600160a01b8604811691821792909204831684026bffffffffffffffffffffffff199095161793909317938490556040805193851684529190930490921660208201526001600160a01b0384811692908616917fa4c005afae9298a5ca51e7710c334ac406fb3d914588ade970850f917cedb1c6910160405180910390a3505050565b6114496133db565b6001600160a01b0316635c975abb6040518163ffffffff1660e01b8152600401602060405180830381865afa158015611486573d6000803e3d6000fd5b505050506040513d601f19601f820116820180604052508101906114aa9190615831565b156114c857604051632b37d9d160e21b815260040160405180910390fd5b6114d133614157565b565b6114db6133db565b6001600160a01b0316635c975abb6040518163ffffffff1660e01b8152600401602060405180830381865afa158015611518573d6000803e3d6000fd5b505050506040513d601f19601f8201168201806040525081019061153c9190615831565b1561155a57604051632b37d9d160e21b815260040160405180910390fd5b83836115678282336133ff565b82823390919261158d57604051630c76b97b60e41b81526004016103169392919061584e565b50505061159d83620f4240101590565b83906115bf57604051631504950160e21b815260040161031691815260200190565b506001600160a01b038087166000908152601c60209081526040808320938916835292905290812084918660028111156115fb576115fb61588e565b600281111561160c5761160c61588e565b815260208101919091526040016000205583600281111561162f5761162f61588e565b856001600160a01b0316876001600160a01b03167f3474eba30406cacbfbc5a596a7e471662bbcccf206f8d244dbb6f4cc578c52208660405161167491815260200190565b60405180910390a4505050505050565b61168c6133db565b6001600160a01b0316634fc07d756040518163ffffffff1660e01b8152600401602060405180830381865afa1580156116c9573d6000803e3d6000fd5b505050506040513d601f19601f820116820180604052508101906116ed9190615871565b6001600160a01b0316336001600160a01b03161461171e57604051635d9044cd60e01b815260040160405180910390fd5b6001600160a01b038216600081815260226020908152604091829020805460ff191685151590811790915591519182527f4542960abc7f2d26dab244fc440acf511e3dd0f5cefad571ca802283b4751bbb91015b60405180910390a25050565b6117866133db565b6001600160a01b0316635c975abb6040518163ffffffff1660e01b8152600401602060405180830381865afa1580156117c3573d6000803e3d6000fd5b505050506040513d601f19601f820116820180604052508101906117e79190615831565b1561180557604051632b37d9d160e21b815260040160405180910390fd5b6112a1827f00000000000000000000000000000000000000000000000000000000000000008333613b08565b6118396133db565b6001600160a01b0316635c975abb6040518163ffffffff1660e01b8152600401602060405180830381865afa158015611876573d6000803e3d6000fd5b505050506040513d601f19601f8201168201806040525081019061189a9190615831565b156118b857604051632b37d9d160e21b815260040160405180910390fd5b610eda827f0000000000000000000000000000000000000000000000000000000000000000837f0000000000000000000000000000000000000000000000000000000000000000600080613ff4565b6119396040518060a0016040528060008152602001600081526020016000815260200160008152602001600081525090565b61196b6040518060a0016040528060008152602001600081526020016000815260200160008152602001600081525090565b60006119778585614250565b60028101548352600381015460208401526005810154604084015260068101546060840152600701546080830152509392505050565b6119b56133db565b6001600160a01b0316635c975abb6040518163ffffffff1660e01b8152600401602060405180830381865afa1580156119f2573d6000803e3d6000fd5b505050506040513d601f19601f82011682018060405250810190611a169190615831565b15611a3457604051632b37d9d160e21b815260040160405180910390fd5b81600003611a5557604051630a2a4e5b60e11b815260040160405180910390fd5b611a8033837f0000000000000000000000000000000000000000000000000000000000000000610e9d565b611a8c848484846138fa565b50505050565b611a9a6133db565b6001600160a01b0316635c975abb6040518163ffffffff1660e01b8152600401602060405180830381865afa158015611ad7573d6000803e3d6000fd5b505050506040513d601f19601f82011682018060405250810190611afb9190615831565b15611b1957604051632b37d9d160e21b815260040160405180910390fd5b611b2383826142d4565b6112a183838361432a565b6001600160a01b038084166000908152601c60209081526040808320938616835292905290812081836002811115611b6857611b6861588e565b6002811115611b7957611b7961588e565b81526020019081526020016000205490505b9392505050565b6000611b9f8484846133ff565b949350505050565b611baf6133db565b6001600160a01b0316635c975abb6040518163ffffffff1660e01b8152600401602060405180830381865afa158015611bec573d6000803e3d6000fd5b505050506040513d601f19601f82011682018060405250810190611c109190615831565b15611c2e57604051632b37d9d160e21b815260040160405180910390fd5b8383611c3b8282336133ff565b828233909192611c6157604051630c76b97b60e41b81526004016103169392919061584e565b50505063ffffffff8416620f424010158490611c99576040516329bff5f560e01b815263ffffffff9091166004820152602401610316565b50601a5483906001600160401b03908116908216811015611ce05760405163ee5602e160e01b81526001600160401b03928316600482015291166024820152604401610316565b50506001600160a01b038681166000908152601b60209081526040808320938916835292905220600381015487908790600160601b90046001600160401b0316611d3f576040516330acea0d60e11b81526004016103169291906158a4565b5050600381015463ffffffff868116600160a01b90920416141580611d7b575060038101546001600160401b03858116600160c01b9092041614155b15610dc5576003810180546001600160401b038616600160c01b026001600160c01b0363ffffffff8916600160a01b02166001600160a01b039283161717909155604051878216918916907fe89cbb9d63ba60af555547b12dde6817283e88cbdd45feb2059f2ba71ea346ba90611e0f908990899063ffffffff9290921682526001600160401b0316602082015260400190565b60405180910390a350505050505050565b611e286133db565b6001600160a01b0316635c975abb6040518163ffffffff1660e01b8152600401602060405180830381865afa158015611e65573d6000803e3d6000fd5b505050506040513d601f19601f82011682018060405250810190611e899190615831565b15611ea757604051632b37d9d160e21b815260040160405180910390fd5b8484611eb48282336133ff565b828233909192611eda57604051630c76b97b60e41b81526004016103169392919061584e565b5050506001600160a01b038616600090815260226020526040902054869060ff16611f2357604051622920f760e21b81526001600160a01b039091166004820152602401610316565b50610dc587868887876134c3565b600080611f3e8585613ad0565b90506000611f4c8686614473565b90506000611f6063ffffffff8616846158d4565b90506000611f6e8383614496565b9050611f7a81856158eb565b98975050505050505050565b6001600160a01b038084166000908152601e6020908152604080832086851684528252808320938516835292905290812060038101548203611fcc576000915050611b8b565b6001600160a01b038086166000908152601b60209081526040808320938816835292905290812082545b8015612062576000818152601d602052604090206001810154426001600160401b03909116116120515760028301546001840154825461203691906158d4565b61204091906158fe565b61204a90856158eb565b9350612057565b50612062565b600201549050611ff6565b50909695505050505050565b82806001600160a01b031663f851a4406040518163ffffffff1660e01b81526004016020604051808303816000875af11580156120af573d6000803e3d6000fd5b505050506040513d601f19601f820116820180604052508101906120d39190615871565b6001600160a01b0316336001600160a01b0316146121335760405162461bcd60e51b815260206004820152601e60248201527f43616c6c6572206d757374206265207468652070726f78792061646d696e00006044820152606401610316565b60405163623faf6160e01b81526001600160a01b0385169063623faf61906121619086908690600401615920565b600060405180830381600087803b15801561217b57600080fd5b505af115801561218f573d6000803e3d6000fd5b5050505050505050565b60006121a36133db565b6001600160a01b0316635c975abb6040518163ffffffff1660e01b8152600401602060405180830381865afa1580156121e0573d6000803e3d6000fd5b505050506040513d601f19601f820116820180604052508101906122049190615831565b1561222257604051632b37d9d160e21b815260040160405180910390fd5b611b9f84848433613b08565b80806001600160a01b031663f851a4406040518163ffffffff1660e01b81526004016020604051808303816000875af115801561226f573d6000803e3d6000fd5b505050506040513d601f19601f820116820180604052508101906122939190615871565b6001600160a01b0316336001600160a01b0316146122f35760405162461bcd60e51b815260206004820152601e60248201527f43616c6c6572206d757374206265207468652070726f78792061646d696e00006044820152606401610316565b816001600160a01b03166359fc20bb6040518163ffffffff1660e01b8152600401600060405180830381600087803b15801561232e57600080fd5b505af1158015611080573d6000803e3d6000fd5b61234a6133db565b6001600160a01b0316635c975abb6040518163ffffffff1660e01b8152600401602060405180830381865afa158015612387573d6000803e3d6000fd5b505050506040513d601f19601f820116820180604052508101906123ab9190615831565b156123c957604051632b37d9d160e21b815260040160405180910390fd5b610eda82826142d4565b6123db6133db565b6001600160a01b0316635c975abb6040518163ffffffff1660e01b8152600401602060405180830381865afa158015612418573d6000803e3d6000fd5b505050506040513d601f19601f8201168201806040525081019061243c9190615831565b1561245a57604051632b37d9d160e21b815260040160405180910390fd5b61120733826142d4565b6000610eed826144ad565b604080516000815260208101909152606090826001600160401b0381111561249957612499615962565b6040519080825280602002602001820160405280156124cc57816020015b60608152602001906001900390816124b75790505b50915060005b8381101561254e57612529308686848181106124f0576124f0615978565b9050602002810190612502919061598e565b85604051602001612515939291906159d4565b6040516020818303038152906040526144f8565b83828151811061253b5761253b615978565b60209081029190910101526001016124d2565b505092915050565b61255e6133db565b6001600160a01b0316635c975abb6040518163ffffffff1660e01b8152600401602060405180830381865afa15801561259b573d6000803e3d6000fd5b505050506040513d601f19601f820116820180604052508101906125bf9190615831565b156125dd57604051632b37d9d160e21b815260040160405180910390fd5b6001600160a01b038316600090815260226020526040902054839060ff1661262357604051622920f760e21b81526001600160a01b039091166004820152602401610316565b506112a1838383614565565b6126376133db565b6001600160a01b0316635c975abb6040518163ffffffff1660e01b8152600401602060405180830381865afa158015612674573d6000803e3d6000fd5b505050506040513d601f19601f820116820180604052508101906126989190615831565b156126b657604051632b37d9d160e21b815260040160405180910390fd5b83836126c38282336133ff565b8282339091926126e957604051630c76b97b60e41b81526004016103169392919061584e565b50505085846126f98282336133ff565b82823390919261271f57604051630c76b97b60e41b81526004016103169392919061584e565b505050600061272f898988613d23565b905061273c89888361432a565b505050505050505050565b61274f6133db565b6001600160a01b0316635c975abb6040518163ffffffff1660e01b8152600401602060405180830381865afa15801561278c573d6000803e3d6000fd5b505050506040513d601f19601f820116820180604052508101906127b09190615831565b156127ce57604051632b37d9d160e21b815260040160405180910390fd5b6112a1838383614565565b6127e16133db565b6001600160a01b0316635c975abb6040518163ffffffff1660e01b8152600401602060405180830381865afa15801561281e573d6000803e3d6000fd5b505050506040513d601f19601f820116820180604052508101906128429190615831565b1561286057604051632b37d9d160e21b815260040160405180910390fd5b8060000361288157604051630a2a4e5b60e11b815260040160405180910390fd5b6001600160a01b038084166000908152601b6020908152604080832093861683529281529082902082516101208101845281548152600182015492810192909252600281015492820192909252600382015463ffffffff80821660608401526001600160401b03640100000000830481166080850152600160601b8304811660a08501819052600160a01b840490921660c0850152600160c01b90920490911660e08301526004909201546101008201529084908490612956576040516330acea0d60e11b81526004016103169291906158a4565b505060006129648585614250565b90506000816003015411858590916129915760405163b6a70b3b60e01b81526004016103169291906158a4565b50508281600201546129a391906158eb565b60028201556129d333847f0000000000000000000000000000000000000000000000000000000000000000610e9d565b836001600160a01b0316856001600160a01b03167f673007a04e501145e79f59aea5e0413b6e88344fdaf10326254530d6a151153085604051612a1891815260200190565b60405180910390a35050505050565b6040805160208101909152600081526040805160208101909152600081526000612a518686614250565b6001600160a01b03851660009081526004909101602052604090205482525090509392505050565b612a816133db565b6001600160a01b0316634fc07d756040518163ffffffff1660e01b8152600401602060405180830381865afa158015612abe573d6000803e3d6000fd5b505050506040513d601f19601f82011682018060405250810190612ae29190615871565b6001600160a01b0316336001600160a01b031614612b1357604051635d9044cd60e01b815260040160405180910390fd5b600d805463ffffffff191690556040517f93be484d290d119d9cf99cce69d173c732f9403333ad84f69c807b590203d10990600090a1565b612b536133db565b6001600160a01b0316635c975abb6040518163ffffffff1660e01b8152600401602060405180830381865afa158015612b90573d6000803e3d6000fd5b505050506040513d601f19601f82011682018060405250810190612bb49190615831565b15612bd257604051632b37d9d160e21b815260040160405180910390fd5b6001600160a01b0384166000908152601b6020908152604080832033808552925282209091612c018784614250565b9050600081600201548360000154612c1991906158eb565b9050808781612c445760405163587ab9ab60e11b815260048101929092526024820152604401610316565b50506000612c528883614496565b90506000612c64856000015483614496565b90508015612ed4576003850154600090612c8990839063ffffffff9081169061469516565b9050888181811015612cb757604051632f514d5760e21b815260048101929092526024820152604401610316565b50508815612d4e57612cf6888a7f00000000000000000000000000000000000000000000000000000000000000005b6001600160a01b031691906146fc565b876001600160a01b0316876001600160a01b03168c6001600160a01b03167f95ff4196cd75fa49180ba673948ea43935f59e7c4ba101fa09b9fe0ec266d5828c604051612d4591815260200190565b60405180910390a45b612d8c612d5b8a8461594f565b7f00000000000000000000000000000000000000000000000000000000000000005b6001600160a01b031690614737565b8554600090612da3670de0b6b3a7640000856158d4565b612dad91906158fe565b9050670de0b6b3a7640000612dc2828261594f565b8860010154612dd191906158d4565b612ddb91906158fe565b60018801558654612ded90849061594f565b8755600287015415801590612e0457506001870154155b15612e285760006002880181905560048801805491612e22836159fb565b91905055505b6001600160a01b038c166000908152600e6020526040902060040154612e4f90849061594f565b6001600160a01b038d166000908152600e60205260409020600481019190915554612e7b90849061594f565b6001600160a01b038d81166000818152600e60209081526040918290209490945551868152918b169290917fe7b110f13cde981d5079ab7faa4249c5f331f5c292dbc6031969d2ce694188a3910160405180910390a350505b612ede818361594f565b915081156130615760205460ff161561301357612f1b827f0000000000000000000000000000000000000000000000000000000000000000612d7d565b6002840154600090612f35670de0b6b3a7640000856158d4565b612f3f91906158fe565b9050828560020154612f51919061594f565b6002860155670de0b6b3a7640000612f69828261594f565b8660050154612f7891906158d4565b612f8291906158fe565b6005860155600685015415801590612f9c57506005850154155b15612fc05760006006860181905560078601805491612fba836159fb565b91905055505b866001600160a01b03168b6001600160a01b03167fc5d16dbb577cf07678b577232717c9a606197a014f61847e623d47fc6bf6b7718560405161300591815260200190565b60405180910390a350613061565b856001600160a01b03168a6001600160a01b03167fdce44f0aeed2089c75db59f5a517b9a19a734bf0213412fa129f0d0434126b248460405161305891815260200190565b60405180910390a35b50505050505050505050565b6130756133db565b6001600160a01b0316634fc07d756040518163ffffffff1660e01b8152600401602060405180830381865afa1580156130b2573d6000803e3d6000fd5b505050506040513d601f19601f820116820180604052508101906130d69190615871565b6001600160a01b0316336001600160a01b03161461310757604051635d9044cd60e01b815260040160405180910390fd5b6020805460ff1916600190811782556040519081527f78bd9090b1ff40fc9c2d6056a25fb880530a766f5b0595d77f3cf33fe189c194910160405180910390a1565b6131516133db565b6001600160a01b0316635c975abb6040518163ffffffff1660e01b8152600401602060405180830381865afa15801561318e573d6000803e3d6000fd5b505050506040513d601f19601f820116820180604052508101906131b29190615831565b156131d057604051632b37d9d160e21b815260040160405180910390fd5b6001600160a01b0384166131f7576040516322347d6760e21b815260040160405180910390fd5b6001600160a01b03831661321e5760405163a962605960e01b815260040160405180910390fd5b611080868686868686613ff4565b60006132366133db565b6001600160a01b0316635c975abb6040518163ffffffff1660e01b8152600401602060405180830381865afa158015613273573d6000803e3d6000fd5b505050506040513d601f19601f820116820180604052508101906132979190615831565b156132b557604051632b37d9d160e21b815260040160405180910390fd5b83836132c28282336133ff565b8282339091926132e857604051630c76b97b60e41b81526004016103169392919061584e565b5050506132f686868661477f565b9695505050505050565b6000610eea8383614473565b6133146133db565b6001600160a01b0316635c975abb6040518163ffffffff1660e01b8152600401602060405180830381865afa158015613351573d6000803e3d6000fd5b505050506040513d601f19601f820116820180604052508101906133759190615831565b1561339357604051632b37d9d160e21b815260040160405180910390fd5b82826133a08282336133ff565b8282339091926133c657604051630c76b97b60e41b81526004016103169392919061584e565b5050506133d485858561432a565b5050505050565b7f000000000000000000000000000000000000000000000000000000000000000090565b6000836001600160a01b0316826001600160a01b03160361342257506001611b8b565b7f00000000000000000000000000000000000000000000000000000000000000006001600160a01b0316836001600160a01b03160361348a57506001600160a01b0380841660009081526015602090815260408083209385168352929052205460ff16611b8b565b506001600160a01b038084166000908152601f60209081526040808320868516845282528083209385168352929052205460ff16611b8b565b600084116134e457604051630a2a4e5b60e11b815260040160405180910390fd5b8163ffffffff8116620f42401015613518576040516329bff5f560e01b815263ffffffff9091166004820152602401610316565b50601a5481906001600160401b0390811690821681101561355f5760405163ee5602e160e01b81526001600160401b03928316600482015291166024820152604401610316565b50506001600160a01b038581166000908152601b6020908152604080832093871683529290522060030154600160601b90046001600160401b0316156135b857604051632b542c0d60e11b815260040160405180910390fd5b60006135c3866144ad565b90508481808211156135f15760405163ccaf28a960e01b815260048101929092526024820152604401610316565b505060405180610120016040528086815260200160008152602001600081526020018463ffffffff168152602001836001600160401b03168152602001426001600160401b031681526020018463ffffffff168152602001836001600160401b031681526020016000815250601b6000886001600160a01b03166001600160a01b031681526020019081526020016000206000866001600160a01b03166001600160a01b0316815260200190815260200160002060008201518160000155602082015181600101556040820151816002015560608201518160030160006101000a81548163ffffffff021916908363ffffffff16021790555060808201518160030160046101000a8154816001600160401b0302191690836001600160401b0316021790555060a082015181600301600c6101000a8154816001600160401b0302191690836001600160401b0316021790555060c08201518160030160146101000a81548163ffffffff021916908363ffffffff16021790555060e08201518160030160186101000a8154816001600160401b0302191690836001600160401b0316021790555061010082015181600401559050506000600e6000886001600160a01b03166001600160a01b0316815260200190815260200160002090508581600401546137df91906158eb565b60048201556040805187815263ffffffff861660208201526001600160401b038516918101919091526001600160a01b0380871691908916907f88b4c2d08cea0f01a24841ff5d14814ddb5b14ac44b05e0835fcc0dcd8c7bc2590606001611e0f565b80156112a1576040516323b872dd60e01b81526001600160a01b038381166004830152306024830152604482018390528416906323b872dd906064015b6020604051808303816000875af115801561389e573d6000803e3d6000fd5b505050506040513d601f19601f820116820180604052508101906138c29190615831565b6112a15760405162461bcd60e51b815260206004820152600960248201526810ba3930b739b332b960b91b6044820152606401610316565b6001600160a01b038481166000908152601b602090815260408083209387168352929052206003015484908490600160601b90046001600160401b0316613956576040516330acea0d60e11b81526004016103169291906158a4565b505060006139648585614250565b336000908152600482016020526040902060028201549192509015158061398d57506003820154155b868690916139b057604051631984edef60e31b81526004016103169291906158a4565b505060008260020154600014806139ce575082600501548360020154145b9050600081613a0957836005015484600201546139eb919061594f565b60038501546139fa90886158d4565b613a0491906158fe565b613a0b565b855b90508015801590613a1c5750848110155b81869091613a4657604051635d88e8d160e01b815260048101929092526024820152604401610316565b5050858460020154613a5891906158eb565b60028501556003840154613a6d9082906158eb565b60038501558254613a7f9082906158eb565b835560405186815233906001600160a01b0389811691908b16907feaefa9a428d7aa0b99b7ac8aec4885d6304a78cc8d6a78a6c99dd29e9693cdf49060200160405180910390a45050505050505050565b6001600160a01b038281166000908152601b60209081526040808320938516835292905290812060018101549054610eea919061594f565b6000808311613b2a57604051637318ad9960e01b815260040160405180910390fd5b6000613b368686614250565b33600090815260048201602052604090208054919250908580821015613b785760405163ab99793560e01b815260048101929092526024820152604401610316565b5050600282015487908790613ba257604051631984edef60e31b81526004016103169291906158a4565b50506000826003015483600501548460020154613bbf919061594f565b613bc990886158d4565b613bd391906158fe565b905060008360050154600014613c065760058401546006850154613bf790846158d4565b613c0191906158fe565b613c08565b815b6001600160a01b038a81166000908152601b60209081526040808320938d1683529290529081206003015491925090613c529064010000000090046001600160401b0316426158eb565b9050828560050154613c6491906158eb565b60058601556006850154613c799083906158eb565b60068601556003850154613c8e90899061594f565b60038601558354613ca090899061594f565b84600001819055506000613cbc8b8b8a86868b600701546148fc565b9050336001600160a01b03168a6001600160a01b03168c6001600160a01b03167f50d19209821f5d69c0884b007c6ba9ffde612c0cff5dd3234d0c6baf2c4556aa87604051613d0d91815260200190565b60405180910390a49a9950505050505050505050565b6001600160a01b038084166000908152601b60209081526040808320938616835292905290812060028101546001820154600483015484929190613d7290899089908290859087908c90614aa4565b865492955093509150613d8690849061594f565b845560028401829055600184018190556001600160a01b0388166000908152600e602052604081206004018054859290613dc190849061594f565b92505081905550866001600160a01b0316886001600160a01b03167f9008d731ddfbec70bc364780efd63057c6877bee8027c4708a104b365395885d85604051613e0d91815260200190565b60405180910390a350909695505050505050565b336000829003613e4457604051630a2a4e5b60e11b815260040160405180910390fd5b6000613e4f826144ad565b9050828180821115613e7d5760405163ccaf28a960e01b815260048101929092526024820152604401610316565b50506001600160a01b0382166000908152600e602052604081208054600d549192909163ffffffff1690819003613f2d57613eb8868361594f565b8355613ee585877f0000000000000000000000000000000000000000000000000000000000000000612ce6565b846001600160a01b03167f8108595eb6bad3acefa9da467d90cc2217686d5c5ac85460f8b7849c840645fc87604051613f2091815260200190565b60405180910390a2611080565b600283015415801590613f44575082600301544310155b15613f5257613f5285614157565b600283015415613f7c57613f79613f6d846003015443614bec565b84600201548389614c06565b90505b858360020154613f8c91906158eb565b6002840155613f9b81436158eb565b6003840181905560028401546040805191825260208201929092526001600160a01b038716917fa5ae833d0bb1dcd632d98a8b70973e8516812898e19bf27b70071ebc8dc52c01910160405180910390a2505050505050565b60006140008787614250565b90508060020154600014158061401857506003810154155b8787909161403b57604051631984edef60e31b81526004016103169291906158a4565b5050600080826006015490506000836005015490506140638a8a3384868a8a60070154614aa4565b60028701549295509350915061407a90849061594f565b6002850155600684018290556005840181905582156140f4576001600160a01b038816158015906140b357506001600160a01b03871615155b156140c9576140c4888885896138fa565b6140f4565b6140f433847f0000000000000000000000000000000000000000000000000000000000000000612ce6565b336001600160a01b0316896001600160a01b03168b6001600160a01b03167f305f519d8909c676ffd870495d4563032eb0b506891a6dd9827490256cc9914e8660405161414391815260200190565b60405180910390a450505050505050505050565b6001600160a01b0381166000908152600e602052604081206002810154909181900361419657604051630a2a4e5b60e11b815260040160405180910390fd5b6003820154438111156141bf57604051631d222f1b60e31b815260040161031691815260200190565b50600060028301819055600383015581546141db90829061594f565b825561420883827f0000000000000000000000000000000000000000000000000000000000000000612ce6565b826001600160a01b03167f8108595eb6bad3acefa9da467d90cc2217686d5c5ac85460f8b7849c840645fc8260405161424391815260200190565b60405180910390a2505050565b60007f00000000000000000000000000000000000000000000000000000000000000006001600160a01b0316826001600160a01b0316036142a957506001600160a01b0382166000908152601460205260409020610eed565b506001600160a01b038083166000908152602160209081526040808320938516835292905220610eed565b806000036142f557604051630a2a4e5b60e11b815260040160405180910390fd5b61432033827f0000000000000000000000000000000000000000000000000000000000000000610e9d565b610eda8282614c5a565b6001600160a01b038084166000908152601b6020908152604080832093861683529290529081209082900361437257604051630a2a4e5b60e11b815260040160405180910390fd5b600381015484908490600160601b90046001600160401b03166143aa576040516330acea0d60e11b81526004016103169291906158a4565b505060006143b7856144ad565b90508281808211156143e55760405163ccaf28a960e01b815260048101929092526024820152604401610316565b505081546143f49084906158eb565b82556001600160a01b0385166000908152600e602052604090206004015461441d9084906158eb565b6001600160a01b038681166000818152600e602090815260409182902060040194909455518681529187169290917feaf6ea3a42ed2fd1b6d575f818cbda593af9524aa94bd30e65302ac4dc2347459101612a18565b6000806144808484614250565b905080600501548160020154611b9f919061594f565b6000818311156144a65781610eea565b5090919050565b6001600160a01b0381166000908152600e602052604081206002810154600182015460048301549254919290916144e4919061594f565b6144ee919061594f565b610eed919061594f565b6060600080846001600160a01b0316846040516145159190615a14565b600060405180830381855af49150503d8060008114614550576040519150601f19603f3d011682016040523d82523d6000602084013e614555565b606091505b5091509150610faf858383614ccd565b336001600160a01b0383160361458e57604051630123065360e01b815260040160405180910390fd5b7f00000000000000000000000000000000000000000000000000000000000000006001600160a01b0316836001600160a01b0316036145fb573360009081526015602090815260408083206001600160a01b03861684529091529020805460ff1916821515179055614637565b336000908152601f602090815260408083206001600160a01b03878116855290835281842090861684529091529020805460ff19168215151790555b816001600160a01b0316836001600160a01b0316336001600160a01b03167faa5a59b38e8f68292982382bf635c2f263ca37137bbc52956acd808fd7bf976f84604051614688911515815260200190565b60405180910390a4505050565b60006146a483620f4240101590565b806146b757506146b782620f4240101590565b838390916146e15760405163768bf0eb60e11b815260048101929092526024820152604401610316565b50620f424090506146f283856158d4565b610eea91906158fe565b80156112a15760405163a9059cbb60e01b81526001600160a01b0383811660048301526024820183905284169063a9059cbb9060440161387f565b8015610eda57604051630852cd8d60e31b8152600481018290526001600160a01b038316906342966c6890602401600060405180830381600087803b15801561232e57600080fd5b6000816000036147a257604051630a2a4e5b60e11b815260040160405180910390fd5b60006147ae8585613ad0565b90508083808210156147dc5760405163587ab9ab60e11b815260048101929092526024820152604401610316565b50506001600160a01b038086166000908152601b60209081526040808320938816835292905290812060018101549091901561483657816001015485836002015461482791906158d4565b61483191906158fe565b614838565b845b600383015490915060009061485e9064010000000090046001600160401b0316426158eb565b905081836002015461487091906158eb565b600284015560018301546148859087906158eb565b836001018190555060006148a189898b868689600401546148fc565b9050876001600160a01b0316896001600160a01b03167f3b81913739097ced1e7fa748c6058d34e2c00b961fb501094543b397b198fdaa896040516148e891815260200190565b60405180910390a398975050505050505050565b6001600160a01b038087166000908152601e6020908152604080832089851684528252808320938816835292905290812060038101546064116149525760405163332b852b60e11b815260040160405180910390fd5b60028101546040516bffffffffffffffffffffffff1960608b811b821660208401528a811b8216603484015289901b166048820152605c810191909152600090607c0160408051808303601f1901815282825280516020918201206080840183528984526001600160401b038981168386019081526000868601818152606088018c8152858352601d909652959020955186555160018601805467ffffffffffffffff19169190921617905591516002840155516003928301559083015490915015614a325760018201546000908152601d602052604090206002018190555b614a3c8282614d29565b604080518781526001600160401b03871660208201529081018290526001600160a01b03808916918a8216918c16907f434422e55cc9ab3bcca23cbf515724bbad83af8dd645832a1abd3db5e641dea59060600160405180910390a498975050505050505050565b6001600160a01b038088166000908152601e602090815260408083208a8516845282528083209389168352929052908120600381015482918291614afb576040516307e332c560e31b815260040160405180910390fd5b60008080614b53614dbc614dd1614f30868f8f8e604051602001614b38949392919093845260208401929092526040830152606082015260800190565b60408051601f1981840301815291905288939291908e614f61565b9150915080806020019051810190614b6b9190615a30565b809c50819d508295505050508b6001600160a01b03168d6001600160a01b03168f6001600160a01b03167f9de822a9c144d03cad4a18bc322e9a3d91ffa99463d22e5c25da2a41d4c354d58587604051614bcf929190918252602082015260400190565b60405180910390a450909c989b5096995096975050505050505050565b6000818311614bfc576000610eea565b610eea828461594f565b6000614c1282856158eb565b6001614c1e84876158eb565b614c28919061594f565b614c3284866158d4565b614c3c87896158d4565b614c4691906158eb565b614c5091906158eb565b610faf91906158fe565b6001600160a01b0382166000908152600e6020526040902054614c7e9082906158eb565b6001600160a01b0383166000818152600e6020526040908190209290925590517f0a7bb2e28cc4698aac06db79cf9163bfcc20719286cf59fa7d492ceda1b8edc2906117729084815260200190565b606082614ce257614cdd8261501b565b611b8b565b8151158015614cf957506001600160a01b0384163b155b15614d2257604051639996b31560e01b81526001600160a01b0385166004820152602401610316565b5080611b8b565b612710826003015410614d4f576040516303a8c56b60e61b815260040160405180910390fd5b80614d6d57604051638f4a893d60e01b815260040160405180910390fd5b6001808301829055600283018054600090614d899084906158eb565b90915550506003820154600003614d9e578082555b6001826003016000828254614db391906158eb565b90915550505050565b6000908152601d602052604090206002015490565b6000828152601d60205260408120600181015460609190426001600160401b039091161115614e1457505060408051602081019091526000815260019150614f29565b60008060008087806020019051810190614e2e9190615a5e565b93509350935093506000808287600301541490508015614e8b5786548490614e579087906158d4565b614e6191906158fe565b9150614e6d828661594f565b8754909550614e7c908561594f565b9350614e8882876158eb565b95505b865460018801546040805185815260208101939093526001600160401b039091169082015281151560608201528b907fbe7f1ad13b07d1f0e9574e97c844204d5433e4ab98133a1f0ce257764a6abeb79060800160405180910390a26040805160208101889052908101869052606081018590526080810184905260a001604051602081830303815290604052995060008a98509850505050505050505b9250929050565b6000908152601d6020526040812081815560018101805467ffffffffffffffff191690556002810182905560030155565b600060608760030154831115614f8a57604051634a411b9d60e11b815260040160405180910390fd5b60008315614f985783614f9e565b88600301545b89549094505b8015801590614fb35750600085115b1561500c57600080614fc983898c63ffffffff16565b915091508115614fda57505061500c565b965086614fe88c8c8b615044565b925086614ff481615a94565b9750508380615002906159fb565b9450505050614fa4565b50989397509295505050505050565b80511561502b5780518082602001fd5b604051630a12f52160e11b815260040160405180910390fd5b60008084600301541161506a5760405163ddaf8f2160e01b815260040160405180910390fd5b600061507d85600001548563ffffffff16565b905061509085600001548463ffffffff16565b60018560030160008282546150a5919061594f565b909155505080855560038501546000036150c157600060018601555b5050915492915050565b6001600160a01b038116811461120757600080fd5b803563ffffffff811681146150f457600080fd5b919050565b80356001600160401b03811681146150f457600080fd5b600080600080600060a0868803121561512857600080fd5b8535615133816150cb565b94506020860135615143816150cb565b935060408601359250615158606087016150e0565b9150615166608087016150f9565b90509295509295909350565b6000806040838503121561518557600080fd5b8235615190816150cb565b946020939093013593505050565b600080604083850312156151b157600080fd5b82356151bc816150cb565b915060208301356151cc816150cb565b809150509250929050565b600080600080608085870312156151ed57600080fd5b84356151f8816150cb565b93506020850135615208816150cb565b925060408501359150606085013561521f816150cb565b939692955090935050565b60008060006060848603121561523f57600080fd5b833561524a816150cb565b9250602084013561525a816150cb565b929592945050506040919091013590565b60006020828403121561527d57600080fd5b610eea826150f9565b60006101208201905082518252602083015160208301526040830151604083015263ffffffff60608401511660608301526001600160401b03608084015116608083015260a08301516152e460a08401826001600160401b03169052565b5060c08301516152fc60c084018263ffffffff169052565b5060e083015161531760e08401826001600160401b03169052565b5061010092830151919092015290565b60006020828403121561533957600080fd5b5035919050565b60006020828403121561535257600080fd5b8135611b8b816150cb565b8035600381106150f457600080fd5b6000806000806080858703121561538257600080fd5b843561538d816150cb565b9350602085013561539d816150cb565b92506153ab6040860161535d565b9396929550929360600135925050565b801515811461120757600080fd5b600080604083850312156153dc57600080fd5b82356153e7816150cb565b915060208301356151cc816153bb565b6000806000806080858703121561540d57600080fd5b8435615418816150cb565b93506020850135615428816150cb565b93969395505050506040820135916060013590565b60008060006060848603121561545257600080fd5b833561545d816150cb565b9250602084013561546d816150cb565b915061547b6040850161535d565b90509250925092565b60008060006060848603121561549957600080fd5b83356154a4816150cb565b925060208401356154b4816150cb565b915060408401356154c4816150cb565b809150509250925092565b600080600080608085870312156154e557600080fd5b84356154f0816150cb565b93506020850135615500816150cb565b925061550e604086016150e0565b915061551c606086016150f9565b905092959194509250565b60008060006060848603121561553c57600080fd5b8335615547816150cb565b92506020840135615557816150cb565b915061547b604085016150e0565b60008060006040848603121561557a57600080fd5b8335615585816150cb565b925060208401356001600160401b038111156155a057600080fd5b8401601f810186136155b157600080fd5b80356001600160401b038111156155c757600080fd5b8660208284010111156155d957600080fd5b939660209190910195509293505050565b600080602083850312156155fd57600080fd5b82356001600160401b0381111561561357600080fd5b8301601f8101851361562457600080fd5b80356001600160401b0381111561563a57600080fd5b8560208260051b840101111561564f57600080fd5b6020919091019590945092505050565b60005b8381101561567a578181015183820152602001615662565b50506000910152565b6000602082016020835280845180835260408501915060408160051b86010192506020860160005b828110156156f757603f19878603018452815180518087526156d481602089016020850161565f565b601f01601f191695909501602090810195509384019391909101906001016156ab565b50929695505050505050565b60008060006060848603121561571857600080fd5b8335615723816150cb565b92506020840135615733816150cb565b915060408401356154c4816153bb565b6000806000806080858703121561575957600080fd5b8435615764816150cb565b93506020850135615774816150cb565b925060408501356153ab816150cb565b6000806000806080858703121561579a57600080fd5b84356157a5816150cb565b93506020850135925060408501359150606085013561521f816150cb565b60008060008060008060c087890312156157dc57600080fd5b86356157e7816150cb565b955060208701356157f7816150cb565b94506040870135615807816150cb565b93506060870135615817816150cb565b9598949750929560808101359460a0909101359350915050565b60006020828403121561584357600080fd5b8151611b8b816153bb565b6001600160a01b0393841681529183166020830152909116604082015260600190565b60006020828403121561588357600080fd5b8151611b8b816150cb565b634e487b7160e01b600052602160045260246000fd5b6001600160a01b0392831681529116602082015260400190565b634e487b7160e01b600052601160045260246000fd5b8082028115828204841417610eed57610eed6158be565b80820180821115610eed57610eed6158be565b60008261591b57634e487b7160e01b600052601260045260246000fd5b500490565b60208152816020820152818360408301376000818301604090810191909152601f909201601f19160101919050565b81810381811115610eed57610eed6158be565b634e487b7160e01b600052604160045260246000fd5b634e487b7160e01b600052603260045260246000fd5b6000808335601e198436030181126159a557600080fd5b8301803591506001600160401b038211156159bf57600080fd5b602001915036819003821315614f2957600080fd5b8284823760008382016000815283516159f181836020880161565f565b0195945050505050565b600060018201615a0d57615a0d6158be565b5060010190565b60008251615a2681846020870161565f565b9190910192915050565b600080600060608486031215615a4557600080fd5b5050815160208301516040909301519094929350919050565b60008060008060808587031215615a7457600080fd5b505082516020840151604085015160609095015191969095509092509050565b600081615aa357615aa36158be565b50600019019056fea2646970667358221220a984158462a19071d33f0c9b0b8967a96b4b64feb78c617c0635061568508fff64736f6c634300081b0033",
  "linkReferences": {},
  "deployedLinkReferences": {}
}