{
  "_format": "hh-sol-artifact-1",
  "contractName": "GraphPayments",
  "sourceName": "contracts/payments/GraphPayments.sol",
  "abi": [
    {
      "inputs": [
        {
          "internalType": "address",
          "name": "controller",
          "type": "address"
        },
        {
          "internalType": "uint256",
          "name": "protocolPaymentCut",
          "type": "uint256"
        }
      ],
      "stateMutability": "nonpayable",
      "type": "constructor"
    },
    {
      "inputs": [
        {
          "internalType": "address",
          "name": "target",
          "type": "address"
        }
      ],
      "name": "AddressEmptyCode",
      "type": "error"
    },
    {
      "inputs": [],
      "name": "FailedCall",
      "type": "error"
    },
    {
      "inputs": [
        {
          "internalType": "bytes",
          "name": "contractName",
          "type": "bytes"
        }
      ],
      "name": "GraphDirectoryInvalidZeroAddress",
      "type": "error"
    },
    {
      "inputs": [
        {
          "internalType": "uint256",
          "name": "cut",
          "type": "uint256"
        }
      ],
      "name": "GraphPaymentsInvalidCut",
      "type": "error"
    },
    {
      "inputs": [
        {
          "internalType": "uint256",
          "name": "protocolPaymentCut",
          "type": "uint256"
        }
      ],
      "name": "GraphPaymentsInvalidProtocolPaymentCut",
      "type": "error"
    },
    {
      "inputs": [],
      "name": "InvalidInitialization",
      "type": "error"
    },
    {
      "inputs": [],
      "name": "NotInitializing",
      "type": "error"
    },
    {
      "inputs": [
        {
          "internalType": "uint256",
          "name": "a",
          "type": "uint256"
        },
        {
          "internalType": "uint256",
          "name": "b",
          "type": "uint256"
        }
      ],
      "name": "PPMMathInvalidMulPPM",
      "type": "error"
    },
    {
      "inputs": [
        {
          "internalType": "uint256",
          "name": "value",
          "type": "uint256"
        }
      ],
      "name": "PPMMathInvalidPPM",
      "type": "error"
    },
    {
      "anonymous": false,
      "inputs": [
        {
          "indexed": true,
          "internalType": "address",
          "name": "graphToken",
          "type": "address"
        },
        {
          "indexed": true,
          "internalType": "address",
          "name": "graphStaking",
          "type": "address"
        },
        {
          "indexed": false,
          "internalType": "address",
          "name": "graphPayments",
          "type": "address"
        },
        {
          "indexed": false,
          "internalType": "address",
          "name": "graphEscrow",
          "type": "address"
        },
        {
          "indexed": true,
          "internalType": "address",
          "name": "graphController",
          "type": "address"
        },
        {
          "indexed": false,
          "internalType": "address",
          "name": "graphEpochManager",
          "type": "address"
        },
        {
          "indexed": false,
          "internalType": "address",
          "name": "graphRewardsManager",
          "type": "address"
        },
        {
          "indexed": false,
          "internalType": "address",
          "name": "graphTokenGateway",
          "type": "address"
        },
        {
          "indexed": false,
          "internalType": "address",
          "name": "graphProxyAdmin",
          "type": "address"
        },
        {
          "indexed": false,
          "internalType": "address",
          "name": "graphCuration",
          "type": "address"
        }
      ],
      "name": "GraphDirectoryInitialized",
      "type": "event"
    },
    {
      "anonymous": false,
      "inputs": [
        {
          "indexed": true,
          "internalType": "enum IGraphPayments.PaymentTypes",
          "name": "paymentType",
          "type": "uint8"
        },
        {
          "indexed": true,
          "internalType": "address",
          "name": "payer",
          "type": "address"
        },
        {
          "indexed": false,
          "internalType": "address",
          "name": "receiver",
          "type": "address"
        },
        {
          "indexed": true,
          "internalType": "address",
          "name": "dataService",
          "type": "address"
        },
        {
          "indexed": false,
          "internalType": "uint256",
          "name": "tokens",
          "type": "uint256"
        },
        {
          "indexed": false,
          "internalType": "uint256",
          "name": "tokensProtocol",
          "type": "uint256"
        },
        {
          "indexed": false,
          "internalType": "uint256",
          "name": "tokensDataService",
          "type": "uint256"
        },
        {
          "indexed": false,
          "internalType": "uint256",
          "name": "tokensDelegationPool",
          "type": "uint256"
        },
        {
          "indexed": false,
          "internalType": "uint256",
          "name": "tokensReceiver",
          "type": "uint256"
        },
        {
          "indexed": false,
          "internalType": "address",
          "name": "receiverDestination",
          "type": "address"
        }
      ],
      "name": "GraphPaymentCollected",
      "type": "event"
    },
    {
      "anonymous": false,
      "inputs": [
        {
          "indexed": false,
          "internalType": "uint64",
          "name": "version",
          "type": "uint64"
        }
      ],
      "name": "Initialized",
      "type": "event"
    },
    {
      "inputs": [],
      "name": "PROTOCOL_PAYMENT_CUT",
      "outputs": [
        {
          "internalType": "uint256",
          "name": "",
          "type": "uint256"
        }
      ],
      "stateMutability": "view",
      "type": "function"
    },
    {
      "inputs": [
        {
          "internalType": "enum IGraphPayments.PaymentTypes",
          "name": "paymentType",
          "type": "uint8"
        },
        {
          "internalType": "address",
          "name": "receiver",
          "type": "address"
        },
        {
          "internalType": "uint256",
          "name": "tokens",
          "type": "uint256"
        },
        {
          "internalType": "address",
          "name": "dataService",
          "type": "address"
        },
        {
          "internalType": "uint256",
          "name": "dataServiceCut",
          "type": "uint256"
        },
        {
          "internalType": "address",
          "name": "receiverDestination",
          "type": "address"
        }
      ],
      "name": "collect",
      "outputs": [],
      "stateMutability": "nonpayable",
      "type": "function"
    },
    {
      "inputs": [],
      "name": "initialize",
      "outputs": [],
      "stateMutability": "nonpayable",
      "type": "function"
    },
    {
      "inputs": [
        {
          "internalType": "bytes[]",
          "name": "data",
          "type": "bytes[]"
        }
      ],
      "name": "multicall",
      "outputs": [
        {
          "internalType": "bytes[]",
          "name": "results",
          "type": "bytes[]"
        }
      ],
      "stateMutability": "nonpayable",
      "type": "function"
    }
  ],
  "bytecode": "0x6101e060405234801561001157600080fd5b50604051611552380380611552833981016040819052610030916104ee565b816001600160a01b03811661007a5760405163218f5add60e11b815260206004820152600a60248201526921b7b73a3937b63632b960b11b60448201526064015b60405180910390fd5b6001600160a01b0381166101005260408051808201909152600a81526923b930b8342a37b5b2b760b11b60208201526100b290610372565b6001600160a01b03166080526040805180820190915260078152665374616b696e6760c81b60208201526100e590610372565b6001600160a01b031660a05260408051808201909152600d81526c47726170685061796d656e747360981b602082015261011e90610372565b6001600160a01b031660c05260408051808201909152600e81526d5061796d656e7473457363726f7760901b602082015261015890610372565b6001600160a01b031660e05260408051808201909152600c81526b22b837b1b426b0b730b3b2b960a11b602082015261019090610372565b6001600160a01b03166101205260408051808201909152600e81526d2932bbb0b93239a6b0b730b3b2b960911b60208201526101cb90610372565b6001600160a01b0316610140526040805180820190915260118152704772617068546f6b656e4761746577617960781b602082015261020990610372565b6001600160a01b03166101605260408051808201909152600f81526e23b930b834283937bc3ca0b236b4b760891b602082015261024590610372565b6001600160a01b03166101805260408051808201909152600881526721bab930ba34b7b760c11b602082015261027a90610372565b6001600160a01b039081166101a08190526101005160a05160805160c05160e05161012051610140516101605161018051604051988b169a9788169996909716977fef5021414834d86e36470f5c1cecf6544fb2bb723f2ca51a4c86fcd8c5919a43976103249790916001600160a01b03978816815295871660208701529386166040860152918516606085015284166080840152831660a083015290911660c082015260e00190565b60405180910390a45061033a81620f4240101590565b819061035c576040516339b762e560e21b815260040161007191815260200190565b506101c081905261036b610420565b505061058a565b600080610100516001600160a01b031663f7641a5e84805190602001206040518263ffffffff1660e01b81526004016103ad91815260200190565b602060405180830381865afa1580156103ca573d6000803e3d6000fd5b505050506040513d601f19601f820116820180604052508101906103ee919061051a565b9050826001600160a01b0382166104195760405163218f5add60e11b8152600401610071919061053c565b5092915050565b7ff0c57e16840df040f15088dc2f81fe391c3923bec73e23a9662efc9c229c6a00805468010000000000000000900460ff16156104705760405163f92ee8a960e01b815260040160405180910390fd5b80546001600160401b03908116146104cf5780546001600160401b0319166001600160401b0390811782556040519081527fc7f505b2f371ae2175ee4913f4499e1f2633a7b5936321eed1cdaeb6115181d29060200160405180910390a15b50565b80516001600160a01b03811681146104e957600080fd5b919050565b6000806040838503121561050157600080fd5b61050a836104d2565b9150602083015190509250929050565b60006020828403121561052c57600080fd5b610535826104d2565b9392505050565b602081526000825180602084015260005b8181101561056a576020818601810151604086840101520161054d565b506000604082850101526040601f19601f83011684010191505092915050565b60805160a05160c05160e05161010051610120516101405161016051610180516101a0516101c051610f546105fe600039600081816056015261021f0152600050506000505060005050600050506000505060005050600050506000505060006108b20152600061077f0152610f546000f3fe608060405234801561001057600080fd5b506004361061004c5760003560e01c80631d526e50146100515780638129fc1c1461008b57806381cd11a014610095578063ac9650d8146100a8575b600080fd5b6100787f000000000000000000000000000000000000000000000000000000000000000081565b6040519081526020015b60405180910390f35b6100936100c8565b005b6100936100a3366004610b2a565b6101c0565b6100bb6100b6366004610b96565b610662565b6040516100829190610c2f565b60006100d261074a565b805490915060ff600160401b82041615906001600160401b03166000811580156100f95750825b90506000826001600160401b031660011480156101155750303b155b905081158015610123575080155b156101415760405163f92ee8a960e01b815260040160405180910390fd5b845467ffffffffffffffff19166001178555831561016b57845460ff60401b1916600160401b1785555b610173610773565b83156101b957845460ff60401b19168555604051600181527fc7f505b2f371ae2175ee4913f4499e1f2633a7b5936321eed1cdaeb6115181d29060200160405180910390a15b5050505050565b6101cd82620f4240101590565b82906101f8576040516339b762e560e21b81526004016101ef91815260200190565b60405180910390fd5b50610216338561020661077d565b6001600160a01b031691906107a1565b836000610243827f0000000000000000000000000000000000000000000000000000000000000000610857565b905061024f8183610cc5565b9150600061025d8386610857565b90506102698184610cc5565b92506000806102766108b0565b604051631584a17960e21b81526001600160a01b038c811660048301528a81166024830152919091169063561285e49060440160a060405180830381865afa1580156102c6573d6000803e3d6000fd5b505050506040513d601f19601f820116820180604052508101906102ea9190610cee565b602081015190915015610388576103796103026108b0565b6001600160a01b0316637573ef4f8c8b8f6040518463ffffffff1660e01b815260040161033193929190610d83565b602060405180830381865afa15801561034e573d6000803e3d6000fd5b505050506040513d601f19601f820116820180604052508101906103729190610dc7565b8690610857565b91506103858286610cc5565b94505b6103a38461039461077d565b6001600160a01b0316906108d4565b6103c088846103b061077d565b6001600160a01b03169190610939565b81156104b0576103ce61077d565b6001600160a01b031663095ea7b36103e46108b0565b846040518363ffffffff1660e01b8152600401610402929190610de0565b6020604051808303816000875af1158015610421573d6000803e3d6000fd5b505050506040513d601f19601f820116820180604052508101906104459190610df9565b5061044e6108b0565b6001600160a01b031663ca94b0e98b8a856040518463ffffffff1660e01b815260040161047d93929190610e1b565b600060405180830381600087803b15801561049757600080fd5b505af11580156104ab573d6000803e3d6000fd5b505050505b84156105bd576001600160a01b0386166105b0576104cc61077d565b6001600160a01b031663095ea7b36104e26108b0565b876040518363ffffffff1660e01b8152600401610500929190610de0565b6020604051808303816000875af115801561051f573d6000803e3d6000fd5b505050506040513d601f19601f820116820180604052508101906105439190610df9565b5061054c6108b0565b6001600160a01b031663a2a317228b876040518363ffffffff1660e01b8152600401610579929190610de0565b600060405180830381600087803b15801561059357600080fd5b505af11580156105a7573d6000803e3d6000fd5b505050506105bd565b6105bd86866103b061077d565b6001600160a01b038816338c60028111156105da576105da610d6d565b7fb1ac8b16683562f4b1b5ecbe3321151b400058de5cdd25ac44d5bfacb106765f8d8d8989898d8f60405161064d97969594939291906001600160a01b039788168152602081019690965260408601949094526060850192909252608084015260a083015290911660c082015260e00190565b60405180910390a45050505050505050505050565b604080516000815260208101909152606090826001600160401b0381111561068c5761068c610cd8565b6040519080825280602002602001820160405280156106bf57816020015b60608152602001906001900390816106aa5790505b50915060005b838110156107415761071c308686848181106106e3576106e3610e3f565b90506020028101906106f59190610e55565b8560405160200161070893929190610ea2565b60405160208183030381529060405261096d565b83828151811061072e5761072e610e3f565b60209081029190910101526001016106c5565b50505b92915050565b6000807ff0c57e16840df040f15088dc2f81fe391c3923bec73e23a9662efc9c229c6a00610744565b61077b6109e3565b565b7f000000000000000000000000000000000000000000000000000000000000000090565b8015610852576040516323b872dd60e01b81526001600160a01b038416906323b872dd906107d790859030908690600401610e1b565b6020604051808303816000875af11580156107f6573d6000803e3d6000fd5b505050506040513d601f19601f8201168201806040525081019061081a9190610df9565b6108525760405162461bcd60e51b815260206004820152600960248201526810ba3930b739b332b960b91b60448201526064016101ef565b505050565b600061086682620f4240101590565b829061088857604051633dc311df60e01b81526004016101ef91815260200190565b5061089f8361089a84620f4240610cc5565b610a08565b6108a99084610cc5565b9392505050565b7f000000000000000000000000000000000000000000000000000000000000000090565b801561093557604051630852cd8d60e31b8152600481018290526001600160a01b038316906342966c6890602401600060405180830381600087803b15801561091c57600080fd5b505af1158015610930573d6000803e3d6000fd5b505050505b5050565b80156108525760405163a9059cbb60e01b81526001600160a01b0384169063a9059cbb906107d79085908590600401610de0565b6060600080846001600160a01b03168460405161098a9190610ec9565b600060405180830381855af49150503d80600081146109c5576040519150601f19603f3d011682016040523d82523d6000602084013e6109ca565b606091505b50915091506109da858383610a6f565b95945050505050565b6109eb610acb565b61077b57604051631afcd79f60e31b815260040160405180910390fd5b6000610a1783620f4240101590565b80610a2a5750610a2a82620f4240101590565b83839091610a545760405163768bf0eb60e11b8152600481019290925260248201526044016101ef565b50620f42409050610a658385610ee5565b6108a99190610efc565b606082610a8457610a7f82610ae5565b6108a9565b8151158015610a9b57506001600160a01b0384163b155b15610ac457604051639996b31560e01b81526001600160a01b03851660048201526024016101ef565b5092915050565b6000610ad561074a565b54600160401b900460ff16919050565b805115610af55780518082602001fd5b60405163d6bda27560e01b815260040160405180910390fd5b80356001600160a01b0381168114610b2557600080fd5b919050565b60008060008060008060c08789031215610b4357600080fd5b863560038110610b5257600080fd5b9550610b6060208801610b0e565b945060408701359350610b7560608801610b0e565b925060808701359150610b8a60a08801610b0e565b90509295509295509295565b60008060208385031215610ba957600080fd5b82356001600160401b03811115610bbf57600080fd5b8301601f81018513610bd057600080fd5b80356001600160401b03811115610be657600080fd5b8560208260051b8401011115610bfb57600080fd5b6020919091019590945092505050565b60005b83811015610c26578181015183820152602001610c0e565b50506000910152565b6000602082016020835280845180835260408501915060408160051b86010192506020860160005b82811015610ca357603f1987860301845281518051808752610c80816020890160208501610c0b565b601f01601f19169590950160209081019550938401939190910190600101610c57565b50929695505050505050565b634e487b7160e01b600052601160045260246000fd5b8181038181111561074457610744610caf565b634e487b7160e01b600052604160045260246000fd5b600060a0828403128015610d0157600080fd5b6000905060405160a081018181106001600160401b0382111715610d3357634e487b7160e01b83526041600452602483fd5b6040908152845182526020808601519083015284810151908201526060808501519082015260809384015193810193909352509092915050565b634e487b7160e01b600052602160045260246000fd5b6001600160a01b038481168252831660208201526060810160038310610db957634e487b7160e01b600052602160045260246000fd5b826040830152949350505050565b600060208284031215610dd957600080fd5b5051919050565b6001600160a01b03929092168252602082015260400190565b600060208284031215610e0b57600080fd5b815180151581146108a957600080fd5b6001600160a01b039384168152919092166020820152604081019190915260600190565b634e487b7160e01b600052603260045260246000fd5b6000808335601e19843603018112610e6c57600080fd5b8301803591506001600160401b03821115610e8657600080fd5b602001915036819003821315610e9b57600080fd5b9250929050565b828482376000838201600081528351610ebf818360208801610c0b565b0195945050505050565b60008251610edb818460208701610c0b565b9190910192915050565b808202811582820484141761074457610744610caf565b600082610f1957634e487b7160e01b600052601260045260246000fd5b50049056fea2646970667358221220c7f05052208f6f4047e1223bab7d7f3c4001cbe9b001fbbc3b1069b01cc7eced64736f6c634300081b0033",
  "linkReferences": {},
  "deployedLinkReferences": {}
}