{
  "_format": "hh-sol-artifact-1",
  "contractName": "HorizonStakingExtension",
  "sourceName": "contracts/staking/HorizonStakingExtension.sol",
  "abi": [
    {
      "inputs": [
        {
          "internalType": "address",
          "name": "controller",
          "type": "address"
        },
        {
          "internalType": "address",
          "name": "subgraphDataServiceAddress",
          "type": "address"
        }
      ],
      "stateMutability": "nonpayable",
      "type": "constructor"
    },
    {
      "inputs": [
        {
          "internalType": "address",
          "name": "target",
          "type": "address"
        }
      ],
      "name": "AddressEmptyCode",
      "type": "error"
    },
    {
      "inputs": [],
      "name": "FailedInnerCall",
      "type": "error"
    },
    {
      "inputs": [
        {
          "internalType": "bytes",
          "name": "contractName",
          "type": "bytes"
        }
      ],
      "name": "GraphDirectoryInvalidZeroAddress",
      "type": "error"
    },
    {
      "inputs": [],
      "name": "ManagedIsPaused",
      "type": "error"
    },
    {
      "inputs": [],
      "name": "ManagedOnlyController",
      "type": "error"
    },
    {
      "inputs": [],
      "name": "ManagedOnlyGovernor",
      "type": "error"
    },
    {
      "inputs": [
        {
          "internalType": "uint256",
          "name": "a",
          "type": "uint256"
        },
        {
          "internalType": "uint256",
          "name": "b",
          "type": "uint256"
        }
      ],
      "name": "PPMMathInvalidMulPPM",
      "type": "error"
    },
    {
      "inputs": [
        {
          "internalType": "uint256",
          "name": "value",
          "type": "uint256"
        }
      ],
      "name": "PPMMathInvalidPPM",
      "type": "error"
    },
    {
      "anonymous": false,
      "inputs": [
        {
          "indexed": true,
          "internalType": "address",
          "name": "indexer",
          "type": "address"
        },
        {
          "indexed": true,
          "internalType": "bytes32",
          "name": "subgraphDeploymentID",
          "type": "bytes32"
        },
        {
          "indexed": false,
          "internalType": "uint256",
          "name": "epoch",
          "type": "uint256"
        },
        {
          "indexed": false,
          "internalType": "uint256",
          "name": "tokens",
          "type": "uint256"
        },
        {
          "indexed": true,
          "internalType": "address",
          "name": "allocationID",
          "type": "address"
        },
        {
          "indexed": false,
          "internalType": "address",
          "name": "sender",
          "type": "address"
        },
        {
          "indexed": false,
          "internalType": "bytes32",
          "name": "poi",
          "type": "bytes32"
        },
        {
          "indexed": false,
          "internalType": "bool",
          "name": "isPublic",
          "type": "bool"
        }
      ],
      "name": "AllocationClosed",
      "type": "event"
    },
    {
      "anonymous": false,
      "inputs": [
        {
          "indexed": true,
          "internalType": "address",
          "name": "graphToken",
          "type": "address"
        },
        {
          "indexed": true,
          "internalType": "address",
          "name": "graphStaking",
          "type": "address"
        },
        {
          "indexed": false,
          "internalType": "address",
          "name": "graphPayments",
          "type": "address"
        },
        {
          "indexed": false,
          "internalType": "address",
          "name": "graphEscrow",
          "type": "address"
        },
        {
          "indexed": true,
          "internalType": "address",
          "name": "graphController",
          "type": "address"
        },
        {
          "indexed": false,
          "internalType": "address",
          "name": "graphEpochManager",
          "type": "address"
        },
        {
          "indexed": false,
          "internalType": "address",
          "name": "graphRewardsManager",
          "type": "address"
        },
        {
          "indexed": false,
          "internalType": "address",
          "name": "graphTokenGateway",
          "type": "address"
        },
        {
          "indexed": false,
          "internalType": "address",
          "name": "graphProxyAdmin",
          "type": "address"
        },
        {
          "indexed": false,
          "internalType": "address",
          "name": "graphCuration",
          "type": "address"
        }
      ],
      "name": "GraphDirectoryInitialized",
      "type": "event"
    },
    {
      "anonymous": false,
      "inputs": [
        {
          "indexed": false,
          "internalType": "address",
          "name": "assetHolder",
          "type": "address"
        },
        {
          "indexed": true,
          "internalType": "address",
          "name": "indexer",
          "type": "address"
        },
        {
          "indexed": true,
          "internalType": "bytes32",
          "name": "subgraphDeploymentID",
          "type": "bytes32"
        },
        {
          "indexed": true,
          "internalType": "address",
          "name": "allocationID",
          "type": "address"
        },
        {
          "indexed": false,
          "internalType": "uint256",
          "name": "epoch",
          "type": "uint256"
        },
        {
          "indexed": false,
          "internalType": "uint256",
          "name": "tokens",
          "type": "uint256"
        },
        {
          "indexed": false,
          "internalType": "uint256",
          "name": "protocolTax",
          "type": "uint256"
        },
        {
          "indexed": false,
          "internalType": "uint256",
          "name": "curationFees",
          "type": "uint256"
        },
        {
          "indexed": false,
          "internalType": "uint256",
          "name": "queryFees",
          "type": "uint256"
        },
        {
          "indexed": false,
          "internalType": "uint256",
          "name": "queryRebates",
          "type": "uint256"
        },
        {
          "indexed": false,
          "internalType": "uint256",
          "name": "delegationRewards",
          "type": "uint256"
        }
      ],
      "name": "RebateCollected",
      "type": "event"
    },
    {
      "anonymous": false,
      "inputs": [
        {
          "indexed": true,
          "internalType": "address",
          "name": "serviceProvider",
          "type": "address"
        },
        {
          "indexed": false,
          "internalType": "uint256",
          "name": "tokens",
          "type": "uint256"
        }
      ],
      "name": "StakeDeposited",
      "type": "event"
    },
    {
      "inputs": [],
      "name": "__DEPRECATED_getThawingPeriod",
      "outputs": [
        {
          "internalType": "uint64",
          "name": "",
          "type": "uint64"
        }
      ],
      "stateMutability": "view",
      "type": "function"
    },
    {
      "inputs": [
        {
          "internalType": "contract IGraphProxy",
          "name": "_proxy",
          "type": "address"
        }
      ],
      "name": "acceptProxy",
      "outputs": [],
      "stateMutability": "nonpayable",
      "type": "function"
    },
    {
      "inputs": [
        {
          "internalType": "contract IGraphProxy",
          "name": "_proxy",
          "type": "address"
        },
        {
          "internalType": "bytes",
          "name": "_data",
          "type": "bytes"
        }
      ],
      "name": "acceptProxyAndCall",
      "outputs": [],
      "stateMutability": "nonpayable",
      "type": "function"
    },
    {
      "inputs": [
        {
          "internalType": "address",
          "name": "allocationID",
          "type": "address"
        },
        {
          "internalType": "bytes32",
          "name": "poi",
          "type": "bytes32"
        }
      ],
      "name": "closeAllocation",
      "outputs": [],
      "stateMutability": "nonpayable",
      "type": "function"
    },
    {
      "inputs": [
        {
          "internalType": "uint256",
          "name": "tokens",
          "type": "uint256"
        },
        {
          "internalType": "address",
          "name": "allocationID",
          "type": "address"
        }
      ],
      "name": "collect",
      "outputs": [],
      "stateMutability": "nonpayable",
      "type": "function"
    },
    {
      "inputs": [
        {
          "internalType": "address",
          "name": "allocationID",
          "type": "address"
        }
      ],
      "name": "getAllocation",
      "outputs": [
        {
          "components": [
            {
              "internalType": "address",
              "name": "indexer",
              "type": "address"
            },
            {
              "internalType": "bytes32",
              "name": "subgraphDeploymentID",
              "type": "bytes32"
            },
            {
              "internalType": "uint256",
              "name": "tokens",
              "type": "uint256"
            },
            {
              "internalType": "uint256",
              "name": "createdAtEpoch",
              "type": "uint256"
            },
            {
              "internalType": "uint256",
              "name": "closedAtEpoch",
              "type": "uint256"
            },
            {
              "internalType": "uint256",
              "name": "collectedFees",
              "type": "uint256"
            },
            {
              "internalType": "uint256",
              "name": "__DEPRECATED_effectiveAllocation",
              "type": "uint256"
            },
            {
              "internalType": "uint256",
              "name": "accRewardsPerAllocatedToken",
              "type": "uint256"
            },
            {
              "internalType": "uint256",
              "name": "distributedRebates",
              "type": "uint256"
            }
          ],
          "internalType": "struct IHorizonStakingExtension.Allocation",
          "name": "",
          "type": "tuple"
        }
      ],
      "stateMutability": "view",
      "type": "function"
    },
    {
      "inputs": [
        {
          "internalType": "address",
          "name": "allocationID",
          "type": "address"
        }
      ],
      "name": "getAllocationData",
      "outputs": [
        {
          "internalType": "address",
          "name": "",
          "type": "address"
        },
        {
          "internalType": "bytes32",
          "name": "",
          "type": "bytes32"
        },
        {
          "internalType": "uint256",
          "name": "",
          "type": "uint256"
        },
        {
          "internalType": "uint256",
          "name": "",
          "type": "uint256"
        },
        {
          "internalType": "uint256",
          "name": "",
          "type": "uint256"
        }
      ],
      "stateMutability": "view",
      "type": "function"
    },
    {
      "inputs": [
        {
          "internalType": "address",
          "name": "allocationID",
          "type": "address"
        }
      ],
      "name": "getAllocationState",
      "outputs": [
        {
          "internalType": "enum IHorizonStakingExtension.AllocationState",
          "name": "",
          "type": "uint8"
        }
      ],
      "stateMutability": "view",
      "type": "function"
    },
    {
      "inputs": [
        {
          "internalType": "address",
          "name": "serviceProvider",
          "type": "address"
        },
        {
          "internalType": "address",
          "name": "verifier",
          "type": "address"
        }
      ],
      "name": "getDelegatedTokensAvailable",
      "outputs": [
        {
          "internalType": "uint256",
          "name": "",
          "type": "uint256"
        }
      ],
      "stateMutability": "view",
      "type": "function"
    },
    {
      "inputs": [
        {
          "internalType": "address",
          "name": "serviceProvider",
          "type": "address"
        },
        {
          "internalType": "address",
          "name": "verifier",
          "type": "address"
        },
        {
          "internalType": "address",
          "name": "delegator",
          "type": "address"
        }
      ],
      "name": "getDelegation",
      "outputs": [
        {
          "components": [
            {
              "internalType": "uint256",
              "name": "shares",
              "type": "uint256"
            }
          ],
          "internalType": "struct IHorizonStakingTypes.Delegation",
          "name": "",
          "type": "tuple"
        }
      ],
      "stateMutability": "view",
      "type": "function"
    },
    {
      "inputs": [
        {
          "internalType": "address",
          "name": "serviceProvider",
          "type": "address"
        },
        {
          "internalType": "address",
          "name": "verifier",
          "type": "address"
        },
        {
          "internalType": "enum IGraphPayments.PaymentTypes",
          "name": "paymentType",
          "type": "uint8"
        }
      ],
      "name": "getDelegationFeeCut",
      "outputs": [
        {
          "internalType": "uint256",
          "name": "",
          "type": "uint256"
        }
      ],
      "stateMutability": "view",
      "type": "function"
    },
    {
      "inputs": [
        {
          "internalType": "address",
          "name": "serviceProvider",
          "type": "address"
        },
        {
          "internalType": "address",
          "name": "verifier",
          "type": "address"
        }
      ],
      "name": "getDelegationPool",
      "outputs": [
        {
          "components": [
            {
              "internalType": "uint256",
              "name": "tokens",
              "type": "uint256"
            },
            {
              "internalType": "uint256",
              "name": "shares",
              "type": "uint256"
            },
            {
              "internalType": "uint256",
              "name": "tokensThawing",
              "type": "uint256"
            },
            {
              "internalType": "uint256",
              "name": "sharesThawing",
              "type": "uint256"
            },
            {
              "internalType": "uint256",
              "name": "thawingNonce",
              "type": "uint256"
            }
          ],
          "internalType": "struct IHorizonStakingTypes.DelegationPool",
          "name": "",
          "type": "tuple"
        }
      ],
      "stateMutability": "view",
      "type": "function"
    },
    {
      "inputs": [
        {
          "internalType": "address",
          "name": "serviceProvider",
          "type": "address"
        }
      ],
      "name": "getIdleStake",
      "outputs": [
        {
          "internalType": "uint256",
          "name": "tokens",
          "type": "uint256"
        }
      ],
      "stateMutability": "view",
      "type": "function"
    },
    {
      "inputs": [
        {
          "internalType": "address",
          "name": "indexer",
          "type": "address"
        }
      ],
      "name": "getIndexerStakedTokens",
      "outputs": [
        {
          "internalType": "uint256",
          "name": "",
          "type": "uint256"
        }
      ],
      "stateMutability": "view",
      "type": "function"
    },
    {
      "inputs": [],
      "name": "getMaxThawingPeriod",
      "outputs": [
        {
          "internalType": "uint64",
          "name": "",
          "type": "uint64"
        }
      ],
      "stateMutability": "view",
      "type": "function"
    },
    {
      "inputs": [
        {
          "internalType": "address",
          "name": "serviceProvider",
          "type": "address"
        },
        {
          "internalType": "address",
          "name": "verifier",
          "type": "address"
        }
      ],
      "name": "getProviderTokensAvailable",
      "outputs": [
        {
          "internalType": "uint256",
          "name": "",
          "type": "uint256"
        }
      ],
      "stateMutability": "view",
      "type": "function"
    },
    {
      "inputs": [
        {
          "internalType": "address",
          "name": "serviceProvider",
          "type": "address"
        },
        {
          "internalType": "address",
          "name": "verifier",
          "type": "address"
        }
      ],
      "name": "getProvision",
      "outputs": [
        {
          "components": [
            {
              "internalType": "uint256",
              "name": "tokens",
              "type": "uint256"
            },
            {
              "internalType": "uint256",
              "name": "tokensThawing",
              "type": "uint256"
            },
            {
              "internalType": "uint256",
              "name": "sharesThawing",
              "type": "uint256"
            },
            {
              "internalType": "uint32",
              "name": "maxVerifierCut",
              "type": "uint32"
            },
            {
              "internalType": "uint64",
              "name": "thawingPeriod",
              "type": "uint64"
            },
            {
              "internalType": "uint64",
              "name": "createdAt",
              "type": "uint64"
            },
            {
              "internalType": "uint32",
              "name": "maxVerifierCutPending",
              "type": "uint32"
            },
            {
              "internalType": "uint64",
              "name": "thawingPeriodPending",
              "type": "uint64"
            },
            {
              "internalType": "uint256",
              "name": "thawingNonce",
              "type": "uint256"
            }
          ],
          "internalType": "struct IHorizonStakingTypes.Provision",
          "name": "",
          "type": "tuple"
        }
      ],
      "stateMutability": "view",
      "type": "function"
    },
    {
      "inputs": [
        {
          "internalType": "address",
          "name": "serviceProvider",
          "type": "address"
        }
      ],
      "name": "getServiceProvider",
      "outputs": [
        {
          "components": [
            {
              "internalType": "uint256",
              "name": "tokensStaked",
              "type": "uint256"
            },
            {
              "internalType": "uint256",
              "name": "tokensProvisioned",
              "type": "uint256"
            }
          ],
          "internalType": "struct IHorizonStakingTypes.ServiceProvider",
          "name": "",
          "type": "tuple"
        }
      ],
      "stateMutability": "view",
      "type": "function"
    },
    {
      "inputs": [
        {
          "internalType": "address",
          "name": "serviceProvider",
          "type": "address"
        }
      ],
      "name": "getStake",
      "outputs": [
        {
          "internalType": "uint256",
          "name": "",
          "type": "uint256"
        }
      ],
      "stateMutability": "view",
      "type": "function"
    },
    {
      "inputs": [
        {
          "internalType": "bytes32",
          "name": "subgraphDeploymentID",
          "type": "bytes32"
        }
      ],
      "name": "getSubgraphAllocatedTokens",
      "outputs": [
        {
          "internalType": "uint256",
          "name": "",
          "type": "uint256"
        }
      ],
      "stateMutability": "view",
      "type": "function"
    },
    {
      "inputs": [
        {
          "internalType": "bytes32",
          "name": "thawRequestId",
          "type": "bytes32"
        }
      ],
      "name": "getThawRequest",
      "outputs": [
        {
          "components": [
            {
              "internalType": "uint256",
              "name": "shares",
              "type": "uint256"
            },
            {
              "internalType": "uint64",
              "name": "thawingUntil",
              "type": "uint64"
            },
            {
              "internalType": "bytes32",
              "name": "next",
              "type": "bytes32"
            },
            {
              "internalType": "uint256",
              "name": "thawingNonce",
              "type": "uint256"
            }
          ],
          "internalType": "struct IHorizonStakingTypes.ThawRequest",
          "name": "",
          "type": "tuple"
        }
      ],
      "stateMutability": "view",
      "type": "function"
    },
    {
      "inputs": [
        {
          "internalType": "address",
          "name": "serviceProvider",
          "type": "address"
        },
        {
          "internalType": "address",
          "name": "verifier",
          "type": "address"
        },
        {
          "internalType": "address",
          "name": "owner",
          "type": "address"
        }
      ],
      "name": "getThawRequestList",
      "outputs": [
        {
          "components": [
            {
              "internalType": "bytes32",
              "name": "head",
              "type": "bytes32"
            },
            {
              "internalType": "bytes32",
              "name": "tail",
              "type": "bytes32"
            },
            {
              "internalType": "uint256",
              "name": "nonce",
              "type": "uint256"
            },
            {
              "internalType": "uint256",
              "name": "count",
              "type": "uint256"
            }
          ],
          "internalType": "struct LinkedList.List",
          "name": "",
          "type": "tuple"
        }
      ],
      "stateMutability": "view",
      "type": "function"
    },
    {
      "inputs": [
        {
          "internalType": "address",
          "name": "serviceProvider",
          "type": "address"
        },
        {
          "internalType": "address",
          "name": "verifier",
          "type": "address"
        },
        {
          "internalType": "address",
          "name": "owner",
          "type": "address"
        }
      ],
      "name": "getThawedTokens",
      "outputs": [
        {
          "internalType": "uint256",
          "name": "",
          "type": "uint256"
        }
      ],
      "stateMutability": "view",
      "type": "function"
    },
    {
      "inputs": [
        {
          "internalType": "address",
          "name": "serviceProvider",
          "type": "address"
        },
        {
          "internalType": "address",
          "name": "verifier",
          "type": "address"
        },
        {
          "internalType": "uint32",
          "name": "delegationRatio",
          "type": "uint32"
        }
      ],
      "name": "getTokensAvailable",
      "outputs": [
        {
          "internalType": "uint256",
          "name": "",
          "type": "uint256"
        }
      ],
      "stateMutability": "view",
      "type": "function"
    },
    {
      "inputs": [
        {
          "internalType": "address",
          "name": "indexer",
          "type": "address"
        }
      ],
      "name": "hasStake",
      "outputs": [
        {
          "internalType": "bool",
          "name": "",
          "type": "bool"
        }
      ],
      "stateMutability": "view",
      "type": "function"
    },
    {
      "inputs": [
        {
          "internalType": "address",
          "name": "allocationID",
          "type": "address"
        }
      ],
      "name": "isActiveAllocation",
      "outputs": [
        {
          "internalType": "bool",
          "name": "",
          "type": "bool"
        }
      ],
      "stateMutability": "view",
      "type": "function"
    },
    {
      "inputs": [
        {
          "internalType": "address",
          "name": "allocationID",
          "type": "address"
        }
      ],
      "name": "isAllocation",
      "outputs": [
        {
          "internalType": "bool",
          "name": "",
          "type": "bool"
        }
      ],
      "stateMutability": "view",
      "type": "function"
    },
    {
      "inputs": [
        {
          "internalType": "address",
          "name": "verifier",
          "type": "address"
        }
      ],
      "name": "isAllowedLockedVerifier",
      "outputs": [
        {
          "internalType": "bool",
          "name": "",
          "type": "bool"
        }
      ],
      "stateMutability": "view",
      "type": "function"
    },
    {
      "inputs": [],
      "name": "isDelegationSlashingEnabled",
      "outputs": [
        {
          "internalType": "bool",
          "name": "",
          "type": "bool"
        }
      ],
      "stateMutability": "view",
      "type": "function"
    },
    {
      "inputs": [
        {
          "internalType": "address",
          "name": "operator",
          "type": "address"
        },
        {
          "internalType": "address",
          "name": "serviceProvider",
          "type": "address"
        }
      ],
      "name": "isOperator",
      "outputs": [
        {
          "internalType": "bool",
          "name": "",
          "type": "bool"
        }
      ],
      "stateMutability": "view",
      "type": "function"
    },
    {
      "inputs": [
        {
          "internalType": "bytes[]",
          "name": "data",
          "type": "bytes[]"
        }
      ],
      "name": "multicall",
      "outputs": [
        {
          "internalType": "bytes[]",
          "name": "results",
          "type": "bytes[]"
        }
      ],
      "stateMutability": "nonpayable",
      "type": "function"
    },
    {
      "stateMutability": "payable",
      "type": "receive"
    }
  ],
  "bytecode": "0x6101e060405234801561001157600080fd5b5060405161311a38038061311a83398101604081905261003091610411565b818181806001600160a01b03811661007d5760405163218f5add60e11b815260206004820152600a60248201526921b7b73a3937b63632b960b11b60448201526064015b60405180910390fd5b6001600160a01b0381166101005260408051808201909152600a81526923b930b8342a37b5b2b760b11b60208201526100b590610347565b6001600160a01b03166080526040805180820190915260078152665374616b696e6760c81b60208201526100e890610347565b6001600160a01b031660a05260408051808201909152600d81526c47726170685061796d656e747360981b602082015261012190610347565b6001600160a01b031660c05260408051808201909152600e81526d5061796d656e7473457363726f7760901b602082015261015b90610347565b6001600160a01b031660e05260408051808201909152600c81526b22b837b1b426b0b730b3b2b960a11b602082015261019390610347565b6001600160a01b03166101205260408051808201909152600e81526d2932bbb0b93239a6b0b730b3b2b960911b60208201526101ce90610347565b6001600160a01b0316610140526040805180820190915260118152704772617068546f6b656e4761746577617960781b602082015261020c90610347565b6001600160a01b03166101605260408051808201909152600f81526e23b930b834283937bc3ca0b236b4b760891b602082015261024890610347565b6001600160a01b03166101805260408051808201909152600881526721bab930ba34b7b760c11b602082015261027d90610347565b6001600160a01b039081166101a08190526101005160a05160805160c05160e05161012051610140516101605161018051604051988b169a9788169996909716977fef5021414834d86e36470f5c1cecf6544fb2bb723f2ca51a4c86fcd8c5919a43976103279790916001600160a01b03978816815295871660208701529386166040860152918516606085015284166080840152831660a083015290911660c082015260e00190565b60405180910390a450506001600160a01b03166101c052506104b4915050565b600080610100516001600160a01b031663f7641a5e84805190602001206040518263ffffffff1660e01b815260040161038291815260200190565b602060405180830381865afa15801561039f573d6000803e3d6000fd5b505050506040513d601f19601f820116820180604052508101906103c39190610444565b9050826001600160a01b0382166103ee5760405163218f5add60e11b81526004016100749190610466565b5092915050565b80516001600160a01b038116811461040c57600080fd5b919050565b6000806040838503121561042457600080fd5b61042d836103f5565b915061043b602084016103f5565b90509250929050565b60006020828403121561045657600080fd5b61045f826103f5565b9392505050565b602081526000825180602084015260005b818110156104945760208186018101516040868401015201610477565b506000604082850101526040601f19601f83011684010191505092915050565b60805160a05160c05160e05161010051610120516101405161016051610180516101a0516101c051612bb061056a6000396000818161196c0152611b6c01526000611d910152600050506000505060008181611e73015281816121bf01526122c901526000818161120a01526118a5015260008181610be70152610e19015260005050600050506000505060008181610f870152818161113d01528181611d5901528181611ee801526120d00152612bb06000f3fe6080604052600436106101dc5760003560e01c806398c657dc11610102578063b7ca724111610095578063e73e14bf11610064578063e73e14bf14610a60578063f1d60d6614610a98578063fb744cc014610ab8578063fc54fb2714610ad857600080fd5b8063b7ca724114610926578063c0641994146109e9578063ccebcabb14610a04578063e2e1e8e914610a3357600080fd5b8063a784d498116100d1578063a784d49814610856578063ac9650d814610876578063ae4fe67a146108a3578063b6363cf2146108dc57600080fd5b806398c657dc146107195780639ce7abe514610746578063a212daf814610766578063a2594d821461083657600080fd5b8063561285e41161017a578063872d048911610149578063872d0489146106385780638cc01c86146106585780638d3c100a146106d95780639054e343146106f957600080fd5b8063561285e4146105865780636a3ca383146105e85780637573ef4f146106185780637a766460146102fb57600080fd5b806325d9897e116101b657806325d9897e1461033157806339514ad21461045457806344c32a611461048657806355c85269146104a857600080fd5b806308ce5f68146102335780630e022923146102665780631787e69f146102fb57600080fd5b3661022e5760405162461bcd60e51b815260206004820152601760248201527f524543454956455f4554485f4e4f545f414c4c4f57454400000000000000000060448201526064015b60405180910390fd5b600080fd5b34801561023f57600080fd5b5061025361024e3660046125ad565b610af0565b6040519081526020015b60405180910390f35b34801561027257600080fd5b506102866102813660046125e6565b610b05565b60405161025d919060006101208201905060018060a01b0383511682526020830151602083015260408301516040830152606083015160608301526080830151608083015260a083015160a083015260c083015160c083015260e083015160e083015261010083015161010083015292915050565b34801561030757600080fd5b506102536103163660046125e6565b6001600160a01b03166000908152600e602052604090205490565b34801561033d57600080fd5b5061044761034c3660046125ad565b6040805161012081018252600080825260208201819052918101829052606081018290526080810182905260a0810182905260c0810182905260e08101829052610100810191909152506001600160a01b039182166000908152601b6020908152604080832093909416825291825282902082516101208101845281548152600182015492810192909252600281015492820192909252600382015463ffffffff808216606084015264010000000082046001600160401b039081166080850152600160601b8304811660a0850152600160a01b830490911660c0840152600160c01b9091041660e082015260049091015461010082015290565b60405161025d9190612603565b34801561046057600080fd5b50601a546001600160401b03165b6040516001600160401b03909116815260200161025d565b34801561049257600080fd5b506104a66104a13660046126a4565b610be5565b005b3480156104b457600080fd5b506105546104c33660046125e6565b6001600160a01b039081166000908152600f602090815260408083208151610120810183528154909516808652600182015493860184905260028201549286018390526003820154606087015260048201546080870152600582015460a0870152600682015460c0870152600782015460e08701819052600890920154610100909601959095529394919390929091565b604080516001600160a01b0390961686526020860194909452928401919091526060830152608082015260a00161025d565b34801561059257600080fd5b506105a66105a13660046125ad565b610c93565b60405161025d9190600060a082019050825182526020830151602083015260408301516040830152606083015160608301526080830151608083015292915050565b3480156105f457600080fd5b506106086106033660046125e6565b610d39565b604051901515815260200161025d565b34801561062457600080fd5b506102536106333660046126d0565b610d5e565b34801561064457600080fd5b5061025361065336600461271f565b610dc2565b34801561066457600080fd5b506106be6106733660046125e6565b60408051808201825260008082526020918201819052825180840184528181528083018281526001600160a01b03959095168252600e90925291909120805482526004015490915290565b6040805182518152602092830151928101929092520161025d565b3480156106e557600080fd5b506104a66106f4366004612768565b610e17565b34801561070557600080fd5b5061025361071436600461278d565b6112e3565b34801561072557600080fd5b506107396107343660046125e6565b6113cb565b60405161025d91906127e3565b34801561075257600080fd5b506104a661076136600461280b565b6113d6565b34801561077257600080fd5b5061080361078136600461278d565b60408051608080820183526000808352602080840182905283850182905260609384018290526001600160a01b039788168252601e815284822096881682529586528381209490961686529284529381902081519283018252805483526001810154938301939093526002830154908201526003909101549181019190915290565b60405161025d91908151815260208083015190820152604080830151908201526060918201519181019190915260800190565b34801561084257600080fd5b506104a66108513660046125e6565b611501565b34801561086257600080fd5b506102536108713660046125e6565b61161d565b34801561088257600080fd5b50610896610891366004612890565b611628565b60405161025d9190612929565b3480156108af57600080fd5b506106086108be3660046125e6565b6001600160a01b031660009081526022602052604090205460ff1690565b3480156108e857600080fd5b506106086108f73660046125ad565b6001600160a01b0380821660009081526015602090815260408083209386168352929052205460ff1692915050565b34801561093257600080fd5b506109ad6109413660046129a9565b6040805160808082018352600080835260208084018290528385018290526060938401829052948152601d8552839020835191820184528054825260018101546001600160401b0316948201949094526002840154928101929092526003909201549181019190915290565b60405161025d9190815181526020808301516001600160401b031690820152604080830151908201526060918201519181019190915260800190565b3480156109f557600080fd5b50600d5463ffffffff1661046e565b348015610a1057600080fd5b50610a24610a1f36600461278d565b61170f565b6040519051815260200161025d565b348015610a3f57600080fd5b50610253610a4e3660046129a9565b60009081526010602052604090205490565b348015610a6c57600080fd5b50610608610a7b3660046125e6565b6001600160a01b03166000908152600e6020526040902054151590565b348015610aa457600080fd5b50610608610ab33660046125e6565b611761565b348015610ac457600080fd5b50610253610ad33660046125ad565b611786565b348015610ae457600080fd5b5060205460ff16610608565b6000610afc8383611792565b90505b92915050565b610b6060405180610120016040528060006001600160a01b0316815260200160008019168152602001600081526020016000815260200160008152602001600081526020016000815260200160008152602001600081525090565b506001600160a01b039081166000908152600f6020908152604091829020825161012081018452815490941684526001810154918401919091526002810154918301919091526003810154606083015260048101546080830152600581015460a0830152600681015460c0830152600781015460e08301526008015461010082015290565b7f00000000000000000000000000000000000000000000000000000000000000006001600160a01b0316635c975abb6040518163ffffffff1660e01b8152600401602060405180830381865afa158015610c43573d6000803e3d6000fd5b505050506040513d601f19601f82011682018060405250810190610c6791906129c2565b15610c8557604051632b37d9d160e21b815260040160405180910390fd5b610c8f82826117ca565b5050565b610cc56040518060a0016040528060008152602001600081526020016000815260200160008152602001600081525090565b610cf76040518060a0016040528060008152602001600081526020016000815260200160008152602001600081525090565b6000610d038585611b68565b60028101548352600381015460208401526005810154604084015260068101546060840152600701546080830152509392505050565b60006001610d4683611bec565b6002811115610d5757610d576127cd565b1492915050565b6001600160a01b038084166000908152601c60209081526040808320938616835292905290812081836002811115610d9857610d986127cd565b6002811115610da957610da96127cd565b81526020019081526020016000205490505b9392505050565b600080610dcf8585611792565b90506000610ddd8686611c45565b90506000610df163ffffffff8616846129fa565b90506000610dff8383611c70565b9050610e0b8185612a11565b98975050505050505050565b7f00000000000000000000000000000000000000000000000000000000000000006001600160a01b0316635c975abb6040518163ffffffff1660e01b8152600401602060405180830381865afa158015610e75573d6000803e3d6000fd5b505050506040513d601f19601f82011682018060405250810190610e9991906129c2565b15610eb757604051632b37d9d160e21b815260040160405180910390fd5b6001600160a01b038116610ef65760405162461bcd60e51b815260206004820152600660248201526521616c6c6f6360d01b6044820152606401610225565b6000610f0182611bec565b90506000816002811115610f1757610f176127cd565b03610f4f5760405162461bcd60e51b81526020600482015260086024820152670858dbdb1b1958dd60c21b6044820152606401610225565b82600003610f5c57505050565b6001600160a01b0382166000908152600f60205260408120600181015490918590808080610fb633867f00000000000000000000000000000000000000000000000000000000000000006001600160a01b03169190611c87565b600d54610fd1908690600160401b900463ffffffff16611d44565b9350610fdd8486612a24565b600d54909550610ffe9087908790640100000000900463ffffffff16611d7d565b925061100a8386612a24565b945084876005015461101c9190612a11565b6005880155600287015460009015806110425750601954600160a01b900463ffffffff16155b61110d5760058801546002890154600d546019546040516349484d8160e01b81526004810194909452602484019290925263ffffffff600160a01b80830482166044860152600160c01b928390048216606486015283048116608485015291041660a482015273__$8eb3cac1482a31d7a7f2cbe7dc8bdcd821$__906349484d819060c401602060405180830381865af41580156110e4573d6000803e3d6000fd5b505050506040513d601f19601f820116820180604052508101906111089190612a37565b611110565b60005b9050611120818960080154611f90565b925061112c8387611c70565b925061116c61113b8488612a24565b7f00000000000000000000000000000000000000000000000000000000000000005b6001600160a01b031690611faa565b82156111d4578288600801546111829190612a11565b6008890155875461119c906001600160a01b031684611ff2565b91506111a88284612a24565b88546001600160a01b039081166000818152601760205260409020549295506111d49286921615612084565b5086546001600160a01b038a8116918891167ff5ded07502b6feba4c13b19a0c6646efd4b4119f439bcbd49076e4f0ed1eec4b337f00000000000000000000000000000000000000000000000000000000000000006001600160a01b031663766718086040518163ffffffff1660e01b8152600401602060405180830381865afa158015611266573d6000803e3d6000fd5b505050506040513d601f19601f8201168201806040525081019061128a9190612a37565b604080516001600160a01b039093168352602083019190915281018f9052606081018990526080810188905260a081018a905260c0810187905260e081018690526101000160405180910390a450505050505050505050565b6001600160a01b038084166000908152601e6020908152604080832086851684528252808320938516835292905290812060038101548203611329576000915050610dbb565b6001600160a01b038086166000908152601b60209081526040808320938816835292905290812082545b80156113bf576000818152601d602052604090206001810154426001600160401b03909116116113ae5760028301546001840154825461139391906129fa565b61139d9190612a50565b6113a79085612a11565b93506113b4565b506113bf565b600201549050611353565b50909695505050505050565b6000610aff82611bec565b82806001600160a01b031663f851a4406040518163ffffffff1660e01b81526004016020604051808303816000875af1158015611417573d6000803e3d6000fd5b505050506040513d601f19601f8201168201806040525081019061143b9190612a72565b6001600160a01b0316336001600160a01b03161461149b5760405162461bcd60e51b815260206004820152601e60248201527f43616c6c6572206d757374206265207468652070726f78792061646d696e00006044820152606401610225565b60405163623faf6160e01b81526001600160a01b0385169063623faf61906114c99086908690600401612a8f565b600060405180830381600087803b1580156114e357600080fd5b505af11580156114f7573d6000803e3d6000fd5b5050505050505050565b80806001600160a01b031663f851a4406040518163ffffffff1660e01b81526004016020604051808303816000875af1158015611542573d6000803e3d6000fd5b505050506040513d601f19601f820116820180604052508101906115669190612a72565b6001600160a01b0316336001600160a01b0316146115c65760405162461bcd60e51b815260206004820152601e60248201527f43616c6c6572206d757374206265207468652070726f78792061646d696e00006044820152606401610225565b816001600160a01b03166359fc20bb6040518163ffffffff1660e01b8152600401600060405180830381600087803b15801561160157600080fd5b505af1158015611615573d6000803e3d6000fd5b505050505050565b6000610aff826120fa565b604080516000815260208101909152606090826001600160401b0381111561165257611652612abe565b60405190808252806020026020018201604052801561168557816020015b60608152602001906001900390816116705790505b50915060005b83811015611707576116e2308686848181106116a9576116a9612ad4565b90506020028101906116bb9190612aea565b856040516020016116ce93929190612b37565b604051602081830303815290604052612145565b8382815181106116f4576116f4612ad4565b602090810291909101015260010161168b565b505092915050565b60408051602081019091526000815260408051602081019091526000815260006117398686611b68565b6001600160a01b03851660009081526004909101602052604090205482525090509392505050565b60008061176d83611bec565b600281111561177e5761177e6127cd565b141592915050565b6000610afc8383611c45565b6001600160a01b038281166000908152601b60209081526040808320938516835292905290812060018101549054610afc9190612a24565b60006117d583611bec565b905060018160028111156117eb576117eb6127cd565b146118225760405162461bcd60e51b81526020600482015260076024820152662161637469766560c81b6044820152606401610225565b6001600160a01b038381166000908152600f6020908152604091829020825161012081018452815490941684526001810154918401919091526002810154918301919091526003810154606083015260048101546080830152600581015460a0830152600681015460c0830152600781015460e0830152600801546101008201527f00000000000000000000000000000000000000000000000000000000000000006001600160a01b031663766718086040518163ffffffff1660e01b8152600401602060405180830381865afa158015611901573d6000803e3d6000fd5b505050506040513d601f19601f820116820180604052508101906119259190612a37565b60808201819052606082015160009161193d91611f90565b9050600082600001516001600160a01b0316336001600160a01b031614806119ae575082516001600160a01b037f00000000000000000000000000000000000000000000000000000000000000008116600090815260156020908152604080832093909416825291909152205460ff165b600d54909150600160801b900463ffffffff16821115806119d157506040830151155b15611a0b5780611a0b5760405162461bcd60e51b8152602060048201526005602482015264042c2eae8d60db1b6044820152606401610225565b60808301516001600160a01b0387166000908152600f6020526040908190206004019190915583015115611aef57808015611a4557508415155b15611a5d57611a588684600001516121bb565b611a6c565b611a6a83602001516122a8565b505b60408084015184516001600160a01b03166000908152600e6020529190912060010154611a999190612a24565b83516001600160a01b03166000908152600e602090815260408083206001019390935582860151818701518352601090915291902054611ad99190612a24565b6020808501516000908152601090915260409020555b60208084015184516080808701516040808901518151928352958201959095523394810194909452606084018990528415908401526001600160a01b03808a16939116907ff6725dd105a6fc88bb79a6e4627f128577186c567a17c94818d201c2a4ce14039060a00160405180910390a4505050505050565b60007f00000000000000000000000000000000000000000000000000000000000000006001600160a01b0316826001600160a01b031603611bc157506001600160a01b0382166000908152601460205260409020610aff565b506001600160a01b038083166000908152602160209081526040808320938516835292905220610aff565b6001600160a01b038082166000908152600f6020526040812080549192909116611c195750600092915050565b600381015415801590611c2e57506004810154155b15611c3c5750600192915050565b50600292915050565b600080611c528484611b68565b905080600501548160020154611c689190612a24565b949350505050565b600081831115611c805781610afc565b5090919050565b8015611d3f576040516323b872dd60e01b81526001600160a01b038381166004830152306024830152604482018390528416906323b872dd906064015b6020604051808303816000875af1158015611ce3573d6000803e3d6000fd5b505050506040513d601f19601f82011682018060405250810190611d0791906129c2565b611d3f5760405162461bcd60e51b815260206004820152600960248201526810ba3930b739b332b960b91b6044820152606401610225565b505050565b600080611d518484612336565b9050610afc817f000000000000000000000000000000000000000000000000000000000000000061115d565b600082600003611d8f57506000610dbb565b7f000000000000000000000000000000000000000000000000000000000000000060008315801590611dc957506001600160a01b03821615155b9050808015611e3c5750604051634c4ea0ed60e01b8152600481018790526001600160a01b03831690634c4ea0ed90602401602060405180830381865afa158015611e18573d6000803e3d6000fd5b505050506040513d601f19601f82011682018060405250810190611e3c91906129c2565b15611f84576000611e4d8686612336565b90508015611f7a576040516307470bfb60e21b8152600481018890526001600160a01b037f00000000000000000000000000000000000000000000000000000000000000001690631d1c2fec906024016020604051808303816000875af1158015611ebc573d6000803e3d6000fd5b505050506040513d601f19601f82011682018060405250810190611ee09190612a37565b50611f1883827f00000000000000000000000000000000000000000000000000000000000000005b6001600160a01b03169190612388565b60405163102ae65160e31b815260048101889052602481018290526001600160a01b03841690638157328890604401600060405180830381600087803b158015611f6157600080fd5b505af1158015611f75573d6000803e3d6000fd5b505050505b9250610dbb915050565b50600095945050505050565b6000818311611fa0576000610afc565b610afc8284612a24565b8015610c8f57604051630852cd8d60e31b8152600481018290526001600160a01b038316906342966c6890602401600060405180830381600087803b15801561160157600080fd5b6001600160a01b038216600090815260146020526040812060028101548291901580159061203157508054600160401b900463ffffffff16620f424010155b1561207c5780546000906120579063ffffffff600160401b90910481169087906123c316565b90506120638186612a24565b92508282600201546120759190612a11565b6002830155505b509392505050565b8260000361209157505050565b80156120a157611d3f828461242a565b6001600160a01b03808316600090815260176020526040902054166120f481156120cb57816120cd565b835b857f0000000000000000000000000000000000000000000000000000000000000000611f08565b50505050565b6001600160a01b0381166000908152600e602052604081206002810154600182015460048301549254919290916121319190612a24565b61213b9190612a24565b610aff9190612a24565b6060600080846001600160a01b0316846040516121629190612b5e565b600060405180830381855af49150503d806000811461219d576040519150601f19603f3d011682016040523d82523d6000602084013e6121a2565b606091505b50915091506121b28583836124a9565b95945050505050565b60007f0000000000000000000000000000000000000000000000000000000000000000604051636dba849360e11b81526001600160a01b038581166004830152919091169063db750926906024016020604051808303816000875af1158015612228573d6000803e3d6000fd5b505050506040513d601f19601f8201168201806040525081019061224c9190612a37565b90508060000361225b57505050565b60006122678383612505565b905060006122758284612a24565b6001600160a01b038086166000908152601760205260409020549192506122a191839187911615612084565b5050505050565b6040516377561f0760e11b8152600481018290526000906001600160a01b037f0000000000000000000000000000000000000000000000000000000000000000169063eeac3e0e906024016020604051808303816000875af1158015612312573d6000803e3d6000fd5b505050506040513d601f19601f82011682018060405250810190610aff9190612a37565b600061234582620f4240101590565b829061236757604051633dc311df60e01b815260040161022591815260200190565b5061237e8361237984620f4240612a24565b6123c3565b610afc9084612a24565b8015611d3f5760405163a9059cbb60e01b81526001600160a01b0383811660048301526024820183905284169063a9059cbb90604401611cc4565b60006123d283620f4240101590565b806123e557506123e582620f4240101590565b8383909161240f5760405163768bf0eb60e11b815260048101929092526024820152604401610225565b50620f4240905061242083856129fa565b610afc9190612a50565b6001600160a01b0382166000908152600e602052604090205461244e908290612a11565b6001600160a01b0383166000818152600e6020526040908190209290925590517f0a7bb2e28cc4698aac06db79cf9163bfcc20719286cf59fa7d492ceda1b8edc29061249d9084815260200190565b60405180910390a25050565b6060826124be576124b98261256c565b610dbb565b81511580156124d557506001600160a01b0384163b155b156124fe57604051639996b31560e01b81526001600160a01b0385166004820152602401610225565b5080610dbb565b6001600160a01b038216600090815260146020526040812060028101548291901580159061254557508054640100000000900463ffffffff16620f424010155b1561207c5780546000906120579063ffffffff64010000000090910481169087906123c316565b80511561257c5780518082602001fd5b604051630a12f52160e11b815260040160405180910390fd5b50565b6001600160a01b038116811461259557600080fd5b600080604083850312156125c057600080fd5b82356125cb81612598565b915060208301356125db81612598565b809150509250929050565b6000602082840312156125f857600080fd5b8135610afc81612598565b60006101208201905082518252602083015160208301526040830151604083015263ffffffff60608401511660608301526001600160401b03608084015116608083015260a083015161266160a08401826001600160401b03169052565b5060c083015161267960c084018263ffffffff169052565b5060e083015161269460e08401826001600160401b03169052565b5061010092830151919092015290565b600080604083850312156126b757600080fd5b82356126c281612598565b946020939093013593505050565b6000806000606084860312156126e557600080fd5b83356126f081612598565b9250602084013561270081612598565b915060408401356003811061271457600080fd5b809150509250925092565b60008060006060848603121561273457600080fd5b833561273f81612598565b9250602084013561274f81612598565b9150604084013563ffffffff8116811461271457600080fd5b6000806040838503121561277b57600080fd5b8235915060208301356125db81612598565b6000806000606084860312156127a257600080fd5b83356127ad81612598565b925060208401356127bd81612598565b9150604084013561271481612598565b634e487b7160e01b600052602160045260246000fd5b602081016003831061280557634e487b7160e01b600052602160045260246000fd5b91905290565b60008060006040848603121561282057600080fd5b833561282b81612598565b925060208401356001600160401b0381111561284657600080fd5b8401601f8101861361285757600080fd5b80356001600160401b0381111561286d57600080fd5b86602082840101111561287f57600080fd5b939660209190910195509293505050565b600080602083850312156128a357600080fd5b82356001600160401b038111156128b957600080fd5b8301601f810185136128ca57600080fd5b80356001600160401b038111156128e057600080fd5b8560208260051b84010111156128f557600080fd5b6020919091019590945092505050565b60005b83811015612920578181015183820152602001612908565b50506000910152565b6000602082016020835280845180835260408501915060408160051b86010192506020860160005b8281101561299d57603f198786030184528151805180875261297a816020890160208501612905565b601f01601f19169590950160209081019550938401939190910190600101612951565b50929695505050505050565b6000602082840312156129bb57600080fd5b5035919050565b6000602082840312156129d457600080fd5b81518015158114610afc57600080fd5b634e487b7160e01b600052601160045260246000fd5b8082028115828204841417610aff57610aff6129e4565b80820180821115610aff57610aff6129e4565b81810381811115610aff57610aff6129e4565b600060208284031215612a4957600080fd5b5051919050565b600082612a6d57634e487b7160e01b600052601260045260246000fd5b500490565b600060208284031215612a8457600080fd5b8151610afc81612598565b60208152816020820152818360408301376000818301604090810191909152601f909201601f19160101919050565b634e487b7160e01b600052604160045260246000fd5b634e487b7160e01b600052603260045260246000fd5b6000808335601e19843603018112612b0157600080fd5b8301803591506001600160401b03821115612b1b57600080fd5b602001915036819003821315612b3057600080fd5b9250929050565b828482376000838201600081528351612b54818360208801612905565b0195945050505050565b60008251612b70818460208701612905565b919091019291505056fea26469706673582212202248057a8bce81db640fbc5d05cef1efff890ddbde3697383b1612b453370f4364736f6c634300081b0033",
  "linkReferences": {
    "contracts/staking/libraries/ExponentialRebates.sol": {
      "ExponentialRebates": [
        {
          "length": 20,
          "start": 5652
        }
      ]
    }
  },
  "deployedLinkReferences": {
    "contracts/staking/libraries/ExponentialRebates.sol": {
      "ExponentialRebates": [
        {
          "length": 20,
          "start": 4266
        }
      ]
    }
  }
}