{
  "_format": "hh-sol-artifact-1",
  "contractName": "HorizonStaking",
  "sourceName": "contracts/staking/HorizonStaking.sol",
  "abi": [
    {
      "inputs": [
        {
          "internalType": "address",
          "name": "controller",
          "type": "address"
        },
        {
          "internalType": "address",
          "name": "stakingExtensionAddress",
          "type": "address"
        },
        {
          "internalType": "address",
          "name": "subgraphDataServiceAddress",
          "type": "address"
        }
      ],
      "stateMutability": "nonpayable",
      "type": "constructor"
    },
    {
      "inputs": [
        {
          "internalType": "address",
          "name": "target",
          "type": "address"
        }
      ],
      "name": "AddressEmptyCode",
      "type": "error"
    },
    {
      "inputs": [],
      "name": "FailedCall",
      "type": "error"
    },
    {
      "inputs": [
        {
          "internalType": "bytes",
          "name": "contractName",
          "type": "bytes"
        }
      ],
      "name": "GraphDirectoryInvalidZeroAddress",
      "type": "error"
    },
    {
      "inputs": [],
      "name": "HorizonStakingCallerIsServiceProvider",
      "type": "error"
    },
    {
      "inputs": [
        {
          "internalType": "uint256",
          "name": "tokens",
          "type": "uint256"
        },
        {
          "internalType": "uint256",
          "name": "minTokens",
          "type": "uint256"
        }
      ],
      "name": "HorizonStakingInsufficientDelegationTokens",
      "type": "error"
    },
    {
      "inputs": [
        {
          "internalType": "uint256",
          "name": "tokens",
          "type": "uint256"
        },
        {
          "internalType": "uint256",
          "name": "minTokens",
          "type": "uint256"
        }
      ],
      "name": "HorizonStakingInsufficientIdleStake",
      "type": "error"
    },
    {
      "inputs": [
        {
          "internalType": "uint256",
          "name": "shares",
          "type": "uint256"
        },
        {
          "internalType": "uint256",
          "name": "minShares",
          "type": "uint256"
        }
      ],
      "name": "HorizonStakingInsufficientShares",
      "type": "error"
    },
    {
      "inputs": [
        {
          "internalType": "uint256",
          "name": "tokens",
          "type": "uint256"
        },
        {
          "internalType": "uint256",
          "name": "minTokens",
          "type": "uint256"
        }
      ],
      "name": "HorizonStakingInsufficientStakeForLegacyAllocations",
      "type": "error"
    },
    {
      "inputs": [
        {
          "internalType": "uint256",
          "name": "tokens",
          "type": "uint256"
        },
        {
          "internalType": "uint256",
          "name": "minRequired",
          "type": "uint256"
        }
      ],
      "name": "HorizonStakingInsufficientTokens",
      "type": "error"
    },
    {
      "inputs": [
        {
          "internalType": "uint256",
          "name": "feeCut",
          "type": "uint256"
        }
      ],
      "name": "HorizonStakingInvalidDelegationFeeCut",
      "type": "error"
    },
    {
      "inputs": [
        {
          "internalType": "address",
          "name": "serviceProvider",
          "type": "address"
        },
        {
          "internalType": "address",
          "name": "verifier",
          "type": "address"
        }
      ],
      "name": "HorizonStakingInvalidDelegationPool",
      "type": "error"
    },
    {
      "inputs": [
        {
          "internalType": "address",
          "name": "serviceProvider",
          "type": "address"
        },
        {
          "internalType": "address",
          "name": "verifier",
          "type": "address"
        }
      ],
      "name": "HorizonStakingInvalidDelegationPoolState",
      "type": "error"
    },
    {
      "inputs": [
        {
          "internalType": "uint32",
          "name": "maxVerifierCut",
          "type": "uint32"
        }
      ],
      "name": "HorizonStakingInvalidMaxVerifierCut",
      "type": "error"
    },
    {
      "inputs": [
        {
          "internalType": "address",
          "name": "serviceProvider",
          "type": "address"
        },
        {
          "internalType": "address",
          "name": "verifier",
          "type": "address"
        }
      ],
      "name": "HorizonStakingInvalidProvision",
      "type": "error"
    },
    {
      "inputs": [],
      "name": "HorizonStakingInvalidServiceProviderZeroAddress",
      "type": "error"
    },
    {
      "inputs": [],
      "name": "HorizonStakingInvalidThawRequestType",
      "type": "error"
    },
    {
      "inputs": [
        {
          "internalType": "uint64",
          "name": "thawingPeriod",
          "type": "uint64"
        },
        {
          "internalType": "uint64",
          "name": "maxThawingPeriod",
          "type": "uint64"
        }
      ],
      "name": "HorizonStakingInvalidThawingPeriod",
      "type": "error"
    },
    {
      "inputs": [
        {
          "internalType": "address",
          "name": "verifier",
          "type": "address"
        }
      ],
      "name": "HorizonStakingInvalidVerifier",
      "type": "error"
    },
    {
      "inputs": [],
      "name": "HorizonStakingInvalidVerifierZeroAddress",
      "type": "error"
    },
    {
      "inputs": [],
      "name": "HorizonStakingInvalidZeroShares",
      "type": "error"
    },
    {
      "inputs": [],
      "name": "HorizonStakingInvalidZeroTokens",
      "type": "error"
    },
    {
      "inputs": [],
      "name": "HorizonStakingLegacySlashFailed",
      "type": "error"
    },
    {
      "inputs": [],
      "name": "HorizonStakingNoTokensToSlash",
      "type": "error"
    },
    {
      "inputs": [
        {
          "internalType": "address",
          "name": "serviceProvider",
          "type": "address"
        },
        {
          "internalType": "address",
          "name": "verifier",
          "type": "address"
        },
        {
          "internalType": "address",
          "name": "caller",
          "type": "address"
        }
      ],
      "name": "HorizonStakingNotAuthorized",
      "type": "error"
    },
    {
      "inputs": [],
      "name": "HorizonStakingNothingThawing",
      "type": "error"
    },
    {
      "inputs": [],
      "name": "HorizonStakingNothingToWithdraw",
      "type": "error"
    },
    {
      "inputs": [],
      "name": "HorizonStakingProvisionAlreadyExists",
      "type": "error"
    },
    {
      "inputs": [
        {
          "internalType": "uint256",
          "name": "shares",
          "type": "uint256"
        },
        {
          "internalType": "uint256",
          "name": "minShares",
          "type": "uint256"
        }
      ],
      "name": "HorizonStakingSlippageProtection",
      "type": "error"
    },
    {
      "inputs": [
        {
          "internalType": "uint256",
          "name": "until",
          "type": "uint256"
        }
      ],
      "name": "HorizonStakingStillThawing",
      "type": "error"
    },
    {
      "inputs": [],
      "name": "HorizonStakingTooManyThawRequests",
      "type": "error"
    },
    {
      "inputs": [
        {
          "internalType": "uint256",
          "name": "tokens",
          "type": "uint256"
        },
        {
          "internalType": "uint256",
          "name": "maxTokens",
          "type": "uint256"
        }
      ],
      "name": "HorizonStakingTooManyTokens",
      "type": "error"
    },
    {
      "inputs": [
        {
          "internalType": "address",
          "name": "verifier",
          "type": "address"
        }
      ],
      "name": "HorizonStakingVerifierNotAllowed",
      "type": "error"
    },
    {
      "inputs": [],
      "name": "LinkedListEmptyList",
      "type": "error"
    },
    {
      "inputs": [],
      "name": "LinkedListInvalidIterations",
      "type": "error"
    },
    {
      "inputs": [],
      "name": "LinkedListInvalidZeroId",
      "type": "error"
    },
    {
      "inputs": [],
      "name": "LinkedListMaxElementsExceeded",
      "type": "error"
    },
    {
      "inputs": [],
      "name": "ManagedIsPaused",
      "type": "error"
    },
    {
      "inputs": [],
      "name": "ManagedOnlyController",
      "type": "error"
    },
    {
      "inputs": [],
      "name": "ManagedOnlyGovernor",
      "type": "error"
    },
    {
      "inputs": [
        {
          "internalType": "uint256",
          "name": "a",
          "type": "uint256"
        },
        {
          "internalType": "uint256",
          "name": "b",
          "type": "uint256"
        }
      ],
      "name": "PPMMathInvalidMulPPM",
      "type": "error"
    },
    {
      "anonymous": false,
      "inputs": [
        {
          "indexed": true,
          "internalType": "address",
          "name": "verifier",
          "type": "address"
        },
        {
          "indexed": false,
          "internalType": "bool",
          "name": "allowed",
          "type": "bool"
        }
      ],
      "name": "AllowedLockedVerifierSet",
      "type": "event"
    },
    {
      "anonymous": false,
      "inputs": [
        {
          "indexed": true,
          "internalType": "address",
          "name": "serviceProvider",
          "type": "address"
        },
        {
          "indexed": true,
          "internalType": "address",
          "name": "verifier",
          "type": "address"
        },
        {
          "indexed": true,
          "internalType": "address",
          "name": "delegator",
          "type": "address"
        },
        {
          "indexed": false,
          "internalType": "uint256",
          "name": "tokens",
          "type": "uint256"
        }
      ],
      "name": "DelegatedTokensWithdrawn",
      "type": "event"
    },
    {
      "anonymous": false,
      "inputs": [
        {
          "indexed": true,
          "internalType": "address",
          "name": "serviceProvider",
          "type": "address"
        },
        {
          "indexed": true,
          "internalType": "address",
          "name": "verifier",
          "type": "address"
        },
        {
          "indexed": true,
          "internalType": "enum IGraphPayments.PaymentTypes",
          "name": "paymentType",
          "type": "uint8"
        },
        {
          "indexed": false,
          "internalType": "uint256",
          "name": "feeCut",
          "type": "uint256"
        }
      ],
      "name": "DelegationFeeCutSet",
      "type": "event"
    },
    {
      "anonymous": false,
      "inputs": [
        {
          "indexed": true,
          "internalType": "address",
          "name": "serviceProvider",
          "type": "address"
        },
        {
          "indexed": true,
          "internalType": "address",
          "name": "verifier",
          "type": "address"
        },
        {
          "indexed": false,
          "internalType": "uint256",
          "name": "tokens",
          "type": "uint256"
        }
      ],
      "name": "DelegationSlashed",
      "type": "event"
    },
    {
      "anonymous": false,
      "inputs": [],
      "name": "DelegationSlashingEnabled",
      "type": "event"
    },
    {
      "anonymous": false,
      "inputs": [
        {
          "indexed": true,
          "internalType": "address",
          "name": "serviceProvider",
          "type": "address"
        },
        {
          "indexed": true,
          "internalType": "address",
          "name": "verifier",
          "type": "address"
        },
        {
          "indexed": false,
          "internalType": "uint256",
          "name": "tokens",
          "type": "uint256"
        }
      ],
      "name": "DelegationSlashingSkipped",
      "type": "event"
    },
    {
      "anonymous": false,
      "inputs": [
        {
          "indexed": true,
          "internalType": "address",
          "name": "graphToken",
          "type": "address"
        },
        {
          "indexed": true,
          "internalType": "address",
          "name": "graphStaking",
          "type": "address"
        },
        {
          "indexed": false,
          "internalType": "address",
          "name": "graphPayments",
          "type": "address"
        },
        {
          "indexed": false,
          "internalType": "address",
          "name": "graphEscrow",
          "type": "address"
        },
        {
          "indexed": true,
          "internalType": "address",
          "name": "graphController",
          "type": "address"
        },
        {
          "indexed": false,
          "internalType": "address",
          "name": "graphEpochManager",
          "type": "address"
        },
        {
          "indexed": false,
          "internalType": "address",
          "name": "graphRewardsManager",
          "type": "address"
        },
        {
          "indexed": false,
          "internalType": "address",
          "name": "graphTokenGateway",
          "type": "address"
        },
        {
          "indexed": false,
          "internalType": "address",
          "name": "graphProxyAdmin",
          "type": "address"
        },
        {
          "indexed": false,
          "internalType": "address",
          "name": "graphCuration",
          "type": "address"
        }
      ],
      "name": "GraphDirectoryInitialized",
      "type": "event"
    },
    {
      "anonymous": false,
      "inputs": [
        {
          "indexed": true,
          "internalType": "address",
          "name": "serviceProvider",
          "type": "address"
        },
        {
          "indexed": false,
          "internalType": "uint256",
          "name": "tokens",
          "type": "uint256"
        }
      ],
      "name": "HorizonStakeDeposited",
      "type": "event"
    },
    {
      "anonymous": false,
      "inputs": [
        {
          "indexed": true,
          "internalType": "address",
          "name": "serviceProvider",
          "type": "address"
        },
        {
          "indexed": false,
          "internalType": "uint256",
          "name": "tokens",
          "type": "uint256"
        },
        {
          "indexed": false,
          "internalType": "uint256",
          "name": "until",
          "type": "uint256"
        }
      ],
      "name": "HorizonStakeLocked",
      "type": "event"
    },
    {
      "anonymous": false,
      "inputs": [
        {
          "indexed": true,
          "internalType": "address",
          "name": "serviceProvider",
          "type": "address"
        },
        {
          "indexed": false,
          "internalType": "uint256",
          "name": "tokens",
          "type": "uint256"
        }
      ],
      "name": "HorizonStakeWithdrawn",
      "type": "event"
    },
    {
      "anonymous": false,
      "inputs": [
        {
          "indexed": false,
          "internalType": "uint64",
          "name": "maxThawingPeriod",
          "type": "uint64"
        }
      ],
      "name": "MaxThawingPeriodSet",
      "type": "event"
    },
    {
      "anonymous": false,
      "inputs": [
        {
          "indexed": true,
          "internalType": "address",
          "name": "serviceProvider",
          "type": "address"
        },
        {
          "indexed": true,
          "internalType": "address",
          "name": "verifier",
          "type": "address"
        },
        {
          "indexed": true,
          "internalType": "address",
          "name": "operator",
          "type": "address"
        },
        {
          "indexed": false,
          "internalType": "bool",
          "name": "allowed",
          "type": "bool"
        }
      ],
      "name": "OperatorSet",
      "type": "event"
    },
    {
      "anonymous": false,
      "inputs": [
        {
          "indexed": true,
          "internalType": "address",
          "name": "serviceProvider",
          "type": "address"
        },
        {
          "indexed": true,
          "internalType": "address",
          "name": "verifier",
          "type": "address"
        },
        {
          "indexed": false,
          "internalType": "uint256",
          "name": "tokens",
          "type": "uint256"
        },
        {
          "indexed": false,
          "internalType": "uint32",
          "name": "maxVerifierCut",
          "type": "uint32"
        },
        {
          "indexed": false,
          "internalType": "uint64",
          "name": "thawingPeriod",
          "type": "uint64"
        }
      ],
      "name": "ProvisionCreated",
      "type": "event"
    },
    {
      "anonymous": false,
      "inputs": [
        {
          "indexed": true,
          "internalType": "address",
          "name": "serviceProvider",
          "type": "address"
        },
        {
          "indexed": true,
          "internalType": "address",
          "name": "verifier",
          "type": "address"
        },
        {
          "indexed": false,
          "internalType": "uint256",
          "name": "tokens",
          "type": "uint256"
        }
      ],
      "name": "ProvisionIncreased",
      "type": "event"
    },
    {
      "anonymous": false,
      "inputs": [
        {
          "indexed": true,
          "internalType": "address",
          "name": "serviceProvider",
          "type": "address"
        },
        {
          "indexed": true,
          "internalType": "address",
          "name": "verifier",
          "type": "address"
        },
        {
          "indexed": false,
          "internalType": "uint32",
          "name": "maxVerifierCut",
          "type": "uint32"
        },
        {
          "indexed": false,
          "internalType": "uint64",
          "name": "thawingPeriod",
          "type": "uint64"
        }
      ],
      "name": "ProvisionParametersSet",
      "type": "event"
    },
    {
      "anonymous": false,
      "inputs": [
        {
          "indexed": true,
          "internalType": "address",
          "name": "serviceProvider",
          "type": "address"
        },
        {
          "indexed": true,
          "internalType": "address",
          "name": "verifier",
          "type": "address"
        },
        {
          "indexed": false,
          "internalType": "uint32",
          "name": "maxVerifierCut",
          "type": "uint32"
        },
        {
          "indexed": false,
          "internalType": "uint64",
          "name": "thawingPeriod",
          "type": "uint64"
        }
      ],
      "name": "ProvisionParametersStaged",
      "type": "event"
    },
    {
      "anonymous": false,
      "inputs": [
        {
          "indexed": true,
          "internalType": "address",
          "name": "serviceProvider",
          "type": "address"
        },
        {
          "indexed": true,
          "internalType": "address",
          "name": "verifier",
          "type": "address"
        },
        {
          "indexed": false,
          "internalType": "uint256",
          "name": "tokens",
          "type": "uint256"
        }
      ],
      "name": "ProvisionSlashed",
      "type": "event"
    },
    {
      "anonymous": false,
      "inputs": [
        {
          "indexed": true,
          "internalType": "address",
          "name": "serviceProvider",
          "type": "address"
        },
        {
          "indexed": true,
          "internalType": "address",
          "name": "verifier",
          "type": "address"
        },
        {
          "indexed": false,
          "internalType": "uint256",
          "name": "tokens",
          "type": "uint256"
        }
      ],
      "name": "ProvisionThawed",
      "type": "event"
    },
    {
      "anonymous": false,
      "inputs": [
        {
          "indexed": true,
          "internalType": "address",
          "name": "indexer",
          "type": "address"
        },
        {
          "indexed": true,
          "internalType": "address",
          "name": "delegator",
          "type": "address"
        },
        {
          "indexed": false,
          "internalType": "uint256",
          "name": "tokens",
          "type": "uint256"
        }
      ],
      "name": "StakeDelegatedWithdrawn",
      "type": "event"
    },
    {
      "anonymous": false,
      "inputs": [
        {
          "indexed": true,
          "internalType": "enum IHorizonStakingTypes.ThawRequestType",
          "name": "requestType",
          "type": "uint8"
        },
        {
          "indexed": true,
          "internalType": "address",
          "name": "serviceProvider",
          "type": "address"
        },
        {
          "indexed": true,
          "internalType": "address",
          "name": "verifier",
          "type": "address"
        },
        {
          "indexed": false,
          "internalType": "address",
          "name": "owner",
          "type": "address"
        },
        {
          "indexed": false,
          "internalType": "uint256",
          "name": "shares",
          "type": "uint256"
        },
        {
          "indexed": false,
          "internalType": "uint64",
          "name": "thawingUntil",
          "type": "uint64"
        },
        {
          "indexed": false,
          "internalType": "bytes32",
          "name": "thawRequestId",
          "type": "bytes32"
        },
        {
          "indexed": false,
          "internalType": "uint256",
          "name": "nonce",
          "type": "uint256"
        }
      ],
      "name": "ThawRequestCreated",
      "type": "event"
    },
    {
      "anonymous": false,
      "inputs": [
        {
          "indexed": true,
          "internalType": "enum IHorizonStakingTypes.ThawRequestType",
          "name": "requestType",
          "type": "uint8"
        },
        {
          "indexed": true,
          "internalType": "bytes32",
          "name": "thawRequestId",
          "type": "bytes32"
        },
        {
          "indexed": false,
          "internalType": "uint256",
          "name": "tokens",
          "type": "uint256"
        },
        {
          "indexed": false,
          "internalType": "uint256",
          "name": "shares",
          "type": "uint256"
        },
        {
          "indexed": false,
          "internalType": "uint64",
          "name": "thawingUntil",
          "type": "uint64"
        },
        {
          "indexed": false,
          "internalType": "bool",
          "name": "valid",
          "type": "bool"
        }
      ],
      "name": "ThawRequestFulfilled",
      "type": "event"
    },
    {
      "anonymous": false,
      "inputs": [
        {
          "indexed": true,
          "internalType": "enum IHorizonStakingTypes.ThawRequestType",
          "name": "requestType",
          "type": "uint8"
        },
        {
          "indexed": true,
          "internalType": "address",
          "name": "serviceProvider",
          "type": "address"
        },
        {
          "indexed": true,
          "internalType": "address",
          "name": "verifier",
          "type": "address"
        },
        {
          "indexed": false,
          "internalType": "address",
          "name": "owner",
          "type": "address"
        },
        {
          "indexed": false,
          "internalType": "uint256",
          "name": "thawRequestsFulfilled",
          "type": "uint256"
        },
        {
          "indexed": false,
          "internalType": "uint256",
          "name": "tokens",
          "type": "uint256"
        }
      ],
      "name": "ThawRequestsFulfilled",
      "type": "event"
    },
    {
      "anonymous": false,
      "inputs": [],
      "name": "ThawingPeriodCleared",
      "type": "event"
    },
    {
      "anonymous": false,
      "inputs": [
        {
          "indexed": true,
          "internalType": "address",
          "name": "serviceProvider",
          "type": "address"
        },
        {
          "indexed": true,
          "internalType": "address",
          "name": "verifier",
          "type": "address"
        },
        {
          "indexed": true,
          "internalType": "address",
          "name": "delegator",
          "type": "address"
        },
        {
          "indexed": false,
          "internalType": "uint256",
          "name": "tokens",
          "type": "uint256"
        },
        {
          "indexed": false,
          "internalType": "uint256",
          "name": "shares",
          "type": "uint256"
        }
      ],
      "name": "TokensDelegated",
      "type": "event"
    },
    {
      "anonymous": false,
      "inputs": [
        {
          "indexed": true,
          "internalType": "address",
          "name": "serviceProvider",
          "type": "address"
        },
        {
          "indexed": true,
          "internalType": "address",
          "name": "verifier",
          "type": "address"
        },
        {
          "indexed": false,
          "internalType": "uint256",
          "name": "tokens",
          "type": "uint256"
        }
      ],
      "name": "TokensDeprovisioned",
      "type": "event"
    },
    {
      "anonymous": false,
      "inputs": [
        {
          "indexed": true,
          "internalType": "address",
          "name": "serviceProvider",
          "type": "address"
        },
        {
          "indexed": true,
          "internalType": "address",
          "name": "verifier",
          "type": "address"
        },
        {
          "indexed": false,
          "internalType": "uint256",
          "name": "tokens",
          "type": "uint256"
        }
      ],
      "name": "TokensToDelegationPoolAdded",
      "type": "event"
    },
    {
      "anonymous": false,
      "inputs": [
        {
          "indexed": true,
          "internalType": "address",
          "name": "serviceProvider",
          "type": "address"
        },
        {
          "indexed": true,
          "internalType": "address",
          "name": "verifier",
          "type": "address"
        },
        {
          "indexed": true,
          "internalType": "address",
          "name": "delegator",
          "type": "address"
        },
        {
          "indexed": false,
          "internalType": "uint256",
          "name": "tokens",
          "type": "uint256"
        },
        {
          "indexed": false,
          "internalType": "uint256",
          "name": "shares",
          "type": "uint256"
        }
      ],
      "name": "TokensUndelegated",
      "type": "event"
    },
    {
      "anonymous": false,
      "inputs": [
        {
          "indexed": true,
          "internalType": "address",
          "name": "serviceProvider",
          "type": "address"
        },
        {
          "indexed": true,
          "internalType": "address",
          "name": "verifier",
          "type": "address"
        },
        {
          "indexed": true,
          "internalType": "address",
          "name": "destination",
          "type": "address"
        },
        {
          "indexed": false,
          "internalType": "uint256",
          "name": "tokens",
          "type": "uint256"
        }
      ],
      "name": "VerifierTokensSent",
      "type": "event"
    },
    {
      "stateMutability": "nonpayable",
      "type": "fallback"
    },
    {
      "inputs": [
        {
          "internalType": "address",
          "name": "serviceProvider",
          "type": "address"
        }
      ],
      "name": "acceptProvisionParameters",
      "outputs": [],
      "stateMutability": "nonpayable",
      "type": "function"
    },
    {
      "inputs": [
        {
          "internalType": "contract IGraphProxy",
          "name": "_proxy",
          "type": "address"
        }
      ],
      "name": "acceptProxy",
      "outputs": [],
      "stateMutability": "nonpayable",
      "type": "function"
    },
    {
      "inputs": [
        {
          "internalType": "contract IGraphProxy",
          "name": "_proxy",
          "type": "address"
        },
        {
          "internalType": "bytes",
          "name": "_data",
          "type": "bytes"
        }
      ],
      "name": "acceptProxyAndCall",
      "outputs": [],
      "stateMutability": "nonpayable",
      "type": "function"
    },
    {
      "inputs": [
        {
          "internalType": "address",
          "name": "serviceProvider",
          "type": "address"
        },
        {
          "internalType": "address",
          "name": "verifier",
          "type": "address"
        },
        {
          "internalType": "uint256",
          "name": "tokens",
          "type": "uint256"
        }
      ],
      "name": "addToDelegationPool",
      "outputs": [],
      "stateMutability": "nonpayable",
      "type": "function"
    },
    {
      "inputs": [
        {
          "internalType": "address",
          "name": "serviceProvider",
          "type": "address"
        },
        {
          "internalType": "address",
          "name": "verifier",
          "type": "address"
        },
        {
          "internalType": "uint256",
          "name": "tokens",
          "type": "uint256"
        }
      ],
      "name": "addToProvision",
      "outputs": [],
      "stateMutability": "nonpayable",
      "type": "function"
    },
    {
      "inputs": [],
      "name": "clearThawingPeriod",
      "outputs": [],
      "stateMutability": "nonpayable",
      "type": "function"
    },
    {
      "inputs": [
        {
          "internalType": "address",
          "name": "serviceProvider",
          "type": "address"
        },
        {
          "internalType": "uint256",
          "name": "tokens",
          "type": "uint256"
        }
      ],
      "name": "delegate",
      "outputs": [],
      "stateMutability": "nonpayable",
      "type": "function"
    },
    {
      "inputs": [
        {
          "internalType": "address",
          "name": "serviceProvider",
          "type": "address"
        },
        {
          "internalType": "address",
          "name": "verifier",
          "type": "address"
        },
        {
          "internalType": "uint256",
          "name": "tokens",
          "type": "uint256"
        },
        {
          "internalType": "uint256",
          "name": "minSharesOut",
          "type": "uint256"
        }
      ],
      "name": "delegate",
      "outputs": [],
      "stateMutability": "nonpayable",
      "type": "function"
    },
    {
      "inputs": [
        {
          "internalType": "address",
          "name": "serviceProvider",
          "type": "address"
        },
        {
          "internalType": "address",
          "name": "verifier",
          "type": "address"
        },
        {
          "internalType": "uint256",
          "name": "nThawRequests",
          "type": "uint256"
        }
      ],
      "name": "deprovision",
      "outputs": [],
      "stateMutability": "nonpayable",
      "type": "function"
    },
    {
      "inputs": [
        {
          "internalType": "address",
          "name": "serviceProvider",
          "type": "address"
        },
        {
          "internalType": "address",
          "name": "verifier",
          "type": "address"
        }
      ],
      "name": "getDelegatedTokensAvailable",
      "outputs": [
        {
          "internalType": "uint256",
          "name": "",
          "type": "uint256"
        }
      ],
      "stateMutability": "view",
      "type": "function"
    },
    {
      "inputs": [
        {
          "internalType": "address",
          "name": "serviceProvider",
          "type": "address"
        },
        {
          "internalType": "address",
          "name": "verifier",
          "type": "address"
        },
        {
          "internalType": "address",
          "name": "delegator",
          "type": "address"
        }
      ],
      "name": "getDelegation",
      "outputs": [
        {
          "components": [
            {
              "internalType": "uint256",
              "name": "shares",
              "type": "uint256"
            }
          ],
          "internalType": "struct IHorizonStakingTypes.Delegation",
          "name": "",
          "type": "tuple"
        }
      ],
      "stateMutability": "view",
      "type": "function"
    },
    {
      "inputs": [
        {
          "internalType": "address",
          "name": "serviceProvider",
          "type": "address"
        },
        {
          "internalType": "address",
          "name": "verifier",
          "type": "address"
        },
        {
          "internalType": "enum IGraphPayments.PaymentTypes",
          "name": "paymentType",
          "type": "uint8"
        }
      ],
      "name": "getDelegationFeeCut",
      "outputs": [
        {
          "internalType": "uint256",
          "name": "",
          "type": "uint256"
        }
      ],
      "stateMutability": "view",
      "type": "function"
    },
    {
      "inputs": [
        {
          "internalType": "address",
          "name": "serviceProvider",
          "type": "address"
        },
        {
          "internalType": "address",
          "name": "verifier",
          "type": "address"
        }
      ],
      "name": "getDelegationPool",
      "outputs": [
        {
          "components": [
            {
              "internalType": "uint256",
              "name": "tokens",
              "type": "uint256"
            },
            {
              "internalType": "uint256",
              "name": "shares",
              "type": "uint256"
            },
            {
              "internalType": "uint256",
              "name": "tokensThawing",
              "type": "uint256"
            },
            {
              "internalType": "uint256",
              "name": "sharesThawing",
              "type": "uint256"
            },
            {
              "internalType": "uint256",
              "name": "thawingNonce",
              "type": "uint256"
            }
          ],
          "internalType": "struct IHorizonStakingTypes.DelegationPool",
          "name": "",
          "type": "tuple"
        }
      ],
      "stateMutability": "view",
      "type": "function"
    },
    {
      "inputs": [
        {
          "internalType": "address",
          "name": "serviceProvider",
          "type": "address"
        }
      ],
      "name": "getIdleStake",
      "outputs": [
        {
          "internalType": "uint256",
          "name": "",
          "type": "uint256"
        }
      ],
      "stateMutability": "view",
      "type": "function"
    },
    {
      "inputs": [],
      "name": "getMaxThawingPeriod",
      "outputs": [
        {
          "internalType": "uint64",
          "name": "",
          "type": "uint64"
        }
      ],
      "stateMutability": "view",
      "type": "function"
    },
    {
      "inputs": [
        {
          "internalType": "address",
          "name": "serviceProvider",
          "type": "address"
        },
        {
          "internalType": "address",
          "name": "verifier",
          "type": "address"
        }
      ],
      "name": "getProviderTokensAvailable",
      "outputs": [
        {
          "internalType": "uint256",
          "name": "",
          "type": "uint256"
        }
      ],
      "stateMutability": "view",
      "type": "function"
    },
    {
      "inputs": [
        {
          "internalType": "address",
          "name": "serviceProvider",
          "type": "address"
        },
        {
          "internalType": "address",
          "name": "verifier",
          "type": "address"
        }
      ],
      "name": "getProvision",
      "outputs": [
        {
          "components": [
            {
              "internalType": "uint256",
              "name": "tokens",
              "type": "uint256"
            },
            {
              "internalType": "uint256",
              "name": "tokensThawing",
              "type": "uint256"
            },
            {
              "internalType": "uint256",
              "name": "sharesThawing",
              "type": "uint256"
            },
            {
              "internalType": "uint32",
              "name": "maxVerifierCut",
              "type": "uint32"
            },
            {
              "internalType": "uint64",
              "name": "thawingPeriod",
              "type": "uint64"
            },
            {
              "internalType": "uint64",
              "name": "createdAt",
              "type": "uint64"
            },
            {
              "internalType": "uint32",
              "name": "maxVerifierCutPending",
              "type": "uint32"
            },
            {
              "internalType": "uint64",
              "name": "thawingPeriodPending",
              "type": "uint64"
            },
            {
              "internalType": "uint256",
              "name": "lastParametersStagedAt",
              "type": "uint256"
            },
            {
              "internalType": "uint256",
              "name": "thawingNonce",
              "type": "uint256"
            }
          ],
          "internalType": "struct IHorizonStakingTypes.Provision",
          "name": "",
          "type": "tuple"
        }
      ],
      "stateMutability": "view",
      "type": "function"
    },
    {
      "inputs": [
        {
          "internalType": "address",
          "name": "serviceProvider",
          "type": "address"
        }
      ],
      "name": "getServiceProvider",
      "outputs": [
        {
          "components": [
            {
              "internalType": "uint256",
              "name": "tokensStaked",
              "type": "uint256"
            },
            {
              "internalType": "uint256",
              "name": "tokensProvisioned",
              "type": "uint256"
            }
          ],
          "internalType": "struct IHorizonStakingTypes.ServiceProvider",
          "name": "",
          "type": "tuple"
        }
      ],
      "stateMutability": "view",
      "type": "function"
    },
    {
      "inputs": [
        {
          "internalType": "address",
          "name": "serviceProvider",
          "type": "address"
        }
      ],
      "name": "getStake",
      "outputs": [
        {
          "internalType": "uint256",
          "name": "",
          "type": "uint256"
        }
      ],
      "stateMutability": "view",
      "type": "function"
    },
    {
      "inputs": [],
      "name": "getStakingExtension",
      "outputs": [
        {
          "internalType": "address",
          "name": "",
          "type": "address"
        }
      ],
      "stateMutability": "view",
      "type": "function"
    },
    {
      "inputs": [
        {
          "internalType": "enum IHorizonStakingTypes.ThawRequestType",
          "name": "requestType",
          "type": "uint8"
        },
        {
          "internalType": "bytes32",
          "name": "thawRequestId",
          "type": "bytes32"
        }
      ],
      "name": "getThawRequest",
      "outputs": [
        {
          "components": [
            {
              "internalType": "uint256",
              "name": "shares",
              "type": "uint256"
            },
            {
              "internalType": "uint64",
              "name": "thawingUntil",
              "type": "uint64"
            },
            {
              "internalType": "bytes32",
              "name": "nextRequest",
              "type": "bytes32"
            },
            {
              "internalType": "uint256",
              "name": "thawingNonce",
              "type": "uint256"
            }
          ],
          "internalType": "struct IHorizonStakingTypes.ThawRequest",
          "name": "",
          "type": "tuple"
        }
      ],
      "stateMutability": "view",
      "type": "function"
    },
    {
      "inputs": [
        {
          "internalType": "enum IHorizonStakingTypes.ThawRequestType",
          "name": "requestType",
          "type": "uint8"
        },
        {
          "internalType": "address",
          "name": "serviceProvider",
          "type": "address"
        },
        {
          "internalType": "address",
          "name": "verifier",
          "type": "address"
        },
        {
          "internalType": "address",
          "name": "owner",
          "type": "address"
        }
      ],
      "name": "getThawRequestList",
      "outputs": [
        {
          "components": [
            {
              "internalType": "bytes32",
              "name": "head",
              "type": "bytes32"
            },
            {
              "internalType": "bytes32",
              "name": "tail",
              "type": "bytes32"
            },
            {
              "internalType": "uint256",
              "name": "nonce",
              "type": "uint256"
            },
            {
              "internalType": "uint256",
              "name": "count",
              "type": "uint256"
            }
          ],
          "internalType": "struct LinkedList.List",
          "name": "",
          "type": "tuple"
        }
      ],
      "stateMutability": "view",
      "type": "function"
    },
    {
      "inputs": [
        {
          "internalType": "enum IHorizonStakingTypes.ThawRequestType",
          "name": "requestType",
          "type": "uint8"
        },
        {
          "internalType": "address",
          "name": "serviceProvider",
          "type": "address"
        },
        {
          "internalType": "address",
          "name": "verifier",
          "type": "address"
        },
        {
          "internalType": "address",
          "name": "owner",
          "type": "address"
        }
      ],
      "name": "getThawedTokens",
      "outputs": [
        {
          "internalType": "uint256",
          "name": "",
          "type": "uint256"
        }
      ],
      "stateMutability": "view",
      "type": "function"
    },
    {
      "inputs": [
        {
          "internalType": "address",
          "name": "serviceProvider",
          "type": "address"
        },
        {
          "internalType": "address",
          "name": "verifier",
          "type": "address"
        },
        {
          "internalType": "uint32",
          "name": "delegationRatio",
          "type": "uint32"
        }
      ],
      "name": "getTokensAvailable",
      "outputs": [
        {
          "internalType": "uint256",
          "name": "",
          "type": "uint256"
        }
      ],
      "stateMutability": "view",
      "type": "function"
    },
    {
      "inputs": [
        {
          "internalType": "address",
          "name": "verifier",
          "type": "address"
        }
      ],
      "name": "isAllowedLockedVerifier",
      "outputs": [
        {
          "internalType": "bool",
          "name": "",
          "type": "bool"
        }
      ],
      "stateMutability": "view",
      "type": "function"
    },
    {
      "inputs": [
        {
          "internalType": "address",
          "name": "serviceProvider",
          "type": "address"
        },
        {
          "internalType": "address",
          "name": "verifier",
          "type": "address"
        },
        {
          "internalType": "address",
          "name": "operator",
          "type": "address"
        }
      ],
      "name": "isAuthorized",
      "outputs": [
        {
          "internalType": "bool",
          "name": "",
          "type": "bool"
        }
      ],
      "stateMutability": "view",
      "type": "function"
    },
    {
      "inputs": [],
      "name": "isDelegationSlashingEnabled",
      "outputs": [
        {
          "internalType": "bool",
          "name": "",
          "type": "bool"
        }
      ],
      "stateMutability": "view",
      "type": "function"
    },
    {
      "inputs": [
        {
          "internalType": "bytes[]",
          "name": "data",
          "type": "bytes[]"
        }
      ],
      "name": "multicall",
      "outputs": [
        {
          "internalType": "bytes[]",
          "name": "results",
          "type": "bytes[]"
        }
      ],
      "stateMutability": "nonpayable",
      "type": "function"
    },
    {
      "inputs": [
        {
          "internalType": "address",
          "name": "serviceProvider",
          "type": "address"
        },
        {
          "internalType": "address",
          "name": "verifier",
          "type": "address"
        },
        {
          "internalType": "uint256",
          "name": "tokens",
          "type": "uint256"
        },
        {
          "internalType": "uint32",
          "name": "maxVerifierCut",
          "type": "uint32"
        },
        {
          "internalType": "uint64",
          "name": "thawingPeriod",
          "type": "uint64"
        }
      ],
      "name": "provision",
      "outputs": [],
      "stateMutability": "nonpayable",
      "type": "function"
    },
    {
      "inputs": [
        {
          "internalType": "address",
          "name": "serviceProvider",
          "type": "address"
        },
        {
          "internalType": "address",
          "name": "verifier",
          "type": "address"
        },
        {
          "internalType": "uint256",
          "name": "tokens",
          "type": "uint256"
        },
        {
          "internalType": "uint32",
          "name": "maxVerifierCut",
          "type": "uint32"
        },
        {
          "internalType": "uint64",
          "name": "thawingPeriod",
          "type": "uint64"
        }
      ],
      "name": "provisionLocked",
      "outputs": [],
      "stateMutability": "nonpayable",
      "type": "function"
    },
    {
      "inputs": [
        {
          "internalType": "address",
          "name": "oldServiceProvider",
          "type": "address"
        },
        {
          "internalType": "address",
          "name": "oldVerifier",
          "type": "address"
        },
        {
          "internalType": "address",
          "name": "newServiceProvider",
          "type": "address"
        },
        {
          "internalType": "address",
          "name": "newVerifier",
          "type": "address"
        },
        {
          "internalType": "uint256",
          "name": "minSharesForNewProvider",
          "type": "uint256"
        },
        {
          "internalType": "uint256",
          "name": "nThawRequests",
          "type": "uint256"
        }
      ],
      "name": "redelegate",
      "outputs": [],
      "stateMutability": "nonpayable",
      "type": "function"
    },
    {
      "inputs": [
        {
          "internalType": "address",
          "name": "serviceProvider",
          "type": "address"
        },
        {
          "internalType": "address",
          "name": "oldVerifier",
          "type": "address"
        },
        {
          "internalType": "address",
          "name": "newVerifier",
          "type": "address"
        },
        {
          "internalType": "uint256",
          "name": "nThawRequests",
          "type": "uint256"
        }
      ],
      "name": "reprovision",
      "outputs": [],
      "stateMutability": "nonpayable",
      "type": "function"
    },
    {
      "inputs": [
        {
          "internalType": "address",
          "name": "verifier",
          "type": "address"
        },
        {
          "internalType": "bool",
          "name": "allowed",
          "type": "bool"
        }
      ],
      "name": "setAllowedLockedVerifier",
      "outputs": [],
      "stateMutability": "nonpayable",
      "type": "function"
    },
    {
      "inputs": [
        {
          "internalType": "address",
          "name": "serviceProvider",
          "type": "address"
        },
        {
          "internalType": "address",
          "name": "verifier",
          "type": "address"
        },
        {
          "internalType": "enum IGraphPayments.PaymentTypes",
          "name": "paymentType",
          "type": "uint8"
        },
        {
          "internalType": "uint256",
          "name": "feeCut",
          "type": "uint256"
        }
      ],
      "name": "setDelegationFeeCut",
      "outputs": [],
      "stateMutability": "nonpayable",
      "type": "function"
    },
    {
      "inputs": [],
      "name": "setDelegationSlashingEnabled",
      "outputs": [],
      "stateMutability": "nonpayable",
      "type": "function"
    },
    {
      "inputs": [
        {
          "internalType": "uint64",
          "name": "maxThawingPeriod",
          "type": "uint64"
        }
      ],
      "name": "setMaxThawingPeriod",
      "outputs": [],
      "stateMutability": "nonpayable",
      "type": "function"
    },
    {
      "inputs": [
        {
          "internalType": "address",
          "name": "verifier",
          "type": "address"
        },
        {
          "internalType": "address",
          "name": "operator",
          "type": "address"
        },
        {
          "internalType": "bool",
          "name": "allowed",
          "type": "bool"
        }
      ],
      "name": "setOperator",
      "outputs": [],
      "stateMutability": "nonpayable",
      "type": "function"
    },
    {
      "inputs": [
        {
          "internalType": "address",
          "name": "verifier",
          "type": "address"
        },
        {
          "internalType": "address",
          "name": "operator",
          "type": "address"
        },
        {
          "internalType": "bool",
          "name": "allowed",
          "type": "bool"
        }
      ],
      "name": "setOperatorLocked",
      "outputs": [],
      "stateMutability": "nonpayable",
      "type": "function"
    },
    {
      "inputs": [
        {
          "internalType": "address",
          "name": "serviceProvider",
          "type": "address"
        },
        {
          "internalType": "address",
          "name": "verifier",
          "type": "address"
        },
        {
          "internalType": "uint32",
          "name": "newMaxVerifierCut",
          "type": "uint32"
        },
        {
          "internalType": "uint64",
          "name": "newThawingPeriod",
          "type": "uint64"
        }
      ],
      "name": "setProvisionParameters",
      "outputs": [],
      "stateMutability": "nonpayable",
      "type": "function"
    },
    {
      "inputs": [
        {
          "internalType": "address",
          "name": "serviceProvider",
          "type": "address"
        },
        {
          "internalType": "uint256",
          "name": "tokens",
          "type": "uint256"
        },
        {
          "internalType": "uint256",
          "name": "tokensVerifier",
          "type": "uint256"
        },
        {
          "internalType": "address",
          "name": "verifierDestination",
          "type": "address"
        }
      ],
      "name": "slash",
      "outputs": [],
      "stateMutability": "nonpayable",
      "type": "function"
    },
    {
      "inputs": [
        {
          "internalType": "uint256",
          "name": "tokens",
          "type": "uint256"
        }
      ],
      "name": "stake",
      "outputs": [],
      "stateMutability": "nonpayable",
      "type": "function"
    },
    {
      "inputs": [
        {
          "internalType": "address",
          "name": "serviceProvider",
          "type": "address"
        },
        {
          "internalType": "uint256",
          "name": "tokens",
          "type": "uint256"
        }
      ],
      "name": "stakeTo",
      "outputs": [],
      "stateMutability": "nonpayable",
      "type": "function"
    },
    {
      "inputs": [
        {
          "internalType": "address",
          "name": "serviceProvider",
          "type": "address"
        },
        {
          "internalType": "address",
          "name": "verifier",
          "type": "address"
        },
        {
          "internalType": "uint256",
          "name": "tokens",
          "type": "uint256"
        }
      ],
      "name": "stakeToProvision",
      "outputs": [],
      "stateMutability": "nonpayable",
      "type": "function"
    },
    {
      "inputs": [
        {
          "internalType": "address",
          "name": "serviceProvider",
          "type": "address"
        },
        {
          "internalType": "address",
          "name": "verifier",
          "type": "address"
        },
        {
          "internalType": "uint256",
          "name": "tokens",
          "type": "uint256"
        }
      ],
      "name": "thaw",
      "outputs": [
        {
          "internalType": "bytes32",
          "name": "",
          "type": "bytes32"
        }
      ],
      "stateMutability": "nonpayable",
      "type": "function"
    },
    {
      "inputs": [
        {
          "internalType": "address",
          "name": "serviceProvider",
          "type": "address"
        },
        {
          "internalType": "uint256",
          "name": "shares",
          "type": "uint256"
        }
      ],
      "name": "undelegate",
      "outputs": [],
      "stateMutability": "nonpayable",
      "type": "function"
    },
    {
      "inputs": [
        {
          "internalType": "address",
          "name": "serviceProvider",
          "type": "address"
        },
        {
          "internalType": "address",
          "name": "verifier",
          "type": "address"
        },
        {
          "internalType": "uint256",
          "name": "shares",
          "type": "uint256"
        }
      ],
      "name": "undelegate",
      "outputs": [
        {
          "internalType": "bytes32",
          "name": "",
          "type": "bytes32"
        }
      ],
      "stateMutability": "nonpayable",
      "type": "function"
    },
    {
      "inputs": [
        {
          "internalType": "uint256",
          "name": "tokens",
          "type": "uint256"
        }
      ],
      "name": "unstake",
      "outputs": [],
      "stateMutability": "nonpayable",
      "type": "function"
    },
    {
      "inputs": [],
      "name": "withdraw",
      "outputs": [],
      "stateMutability": "nonpayable",
      "type": "function"
    },
    {
      "inputs": [
        {
          "internalType": "address",
          "name": "serviceProvider",
          "type": "address"
        },
        {
          "internalType": "address",
          "name": "verifier",
          "type": "address"
        },
        {
          "internalType": "uint256",
          "name": "nThawRequests",
          "type": "uint256"
        }
      ],
      "name": "withdrawDelegated",
      "outputs": [],
      "stateMutability": "nonpayable",
      "type": "function"
    },
    {
      "inputs": [
        {
          "internalType": "address",
          "name": "serviceProvider",
          "type": "address"
        },
        {
          "internalType": "address",
          "name": "",
          "type": "address"
        }
      ],
      "name": "withdrawDelegated",
      "outputs": [
        {
          "internalType": "uint256",
          "name": "",
          "type": "uint256"
        }
      ],
      "stateMutability": "nonpayable",
      "type": "function"
    }
  ],
  "bytecode": "0x61020060405234801561001157600080fd5b506040516162a33803806162a38339810160408190526100309161041b565b828181806001600160a01b03811661007d5760405163218f5add60e11b815260206004820152600a60248201526921b7b73a3937b63632b960b11b60448201526064015b60405180910390fd5b6001600160a01b0381166101005260408051808201909152600a81526923b930b8342a37b5b2b760b11b60208201526100b590610351565b6001600160a01b03166080526040805180820190915260078152665374616b696e6760c81b60208201526100e890610351565b6001600160a01b031660a05260408051808201909152600d81526c47726170685061796d656e747360981b602082015261012190610351565b6001600160a01b031660c05260408051808201909152600e81526d5061796d656e7473457363726f7760901b602082015261015b90610351565b6001600160a01b031660e05260408051808201909152600c81526b22b837b1b426b0b730b3b2b960a11b602082015261019390610351565b6001600160a01b03166101205260408051808201909152600e81526d2932bbb0b93239a6b0b730b3b2b960911b60208201526101ce90610351565b6001600160a01b0316610140526040805180820190915260118152704772617068546f6b656e4761746577617960781b602082015261020c90610351565b6001600160a01b03166101605260408051808201909152600f81526e23b930b834283937bc3ca0b236b4b760891b602082015261024890610351565b6001600160a01b03166101805260408051808201909152600881526721bab930ba34b7b760c11b602082015261027d90610351565b6001600160a01b039081166101a08190526101005160a05160805160c05160e05161012051610140516101605161018051604051988b169a9788169996909716977fef5021414834d86e36470f5c1cecf6544fb2bb723f2ca51a4c86fcd8c5919a43976103279790916001600160a01b03978816815295871660208701529386166040860152918516606085015284166080840152831660a083015290911660c082015260e00190565b60405180910390a450506001600160a01b039081166101c052929092166101e052506104ce915050565b600080610100516001600160a01b031663f7641a5e84805190602001206040518263ffffffff1660e01b815260040161038c91815260200190565b602060405180830381865afa1580156103a9573d6000803e3d6000fd5b505050506040513d601f19601f820116820180604052508101906103cd919061045e565b9050826001600160a01b0382166103f85760405163218f5add60e11b81526004016100749190610480565b5092915050565b80516001600160a01b038116811461041657600080fd5b919050565b60008060006060848603121561043057600080fd5b610439846103ff565b9250610447602085016103ff565b9150610455604085016103ff565b90509250925092565b60006020828403121561047057600080fd5b610479826103ff565b9392505050565b602081526000825180602084015260005b818110156104ae5760208186018101516040868401015201610491565b506000604082850101526040601f19601f83011684010191505092915050565b60805160a05160c05160e05161010051610120516101405161016051610180516101a0516101c0516101e051615d2861057b6000396000818161025b0152818161055e01526128a3015260008181610a450152818161140a015281816130de015281816131a001528181614130015261447401526000505060005050600050506000505060006114e901526000613097015260005050600050506000505060006135670152615d286000f3fe608060405234801561001057600080fd5b50600436106102565760003560e01c8063872d048911610142578063872d0489146106225780638cc01c86146106355780639ce7abe514610663578063a02b942614610676578063a2594d8214610689578063a2a317221461069c578063a694fc3a146106af578063a784d498146106c2578063ac9650d8146106d5578063ad4d35b5146106f5578063ae4fe67a14610708578063ba7fb0b414610734578063bc735d9014610747578063ca94b0e91461075a578063ccebcabb1461076d578063d48de8451461078f578063e473522a146107de578063e56f8a1d146107e6578063e76fede61461082c578063ef58bd671461083f578063f64b359814610847578063f93f1cd01461085a578063fb744cc01461086d578063fc54fb2714610880578063fecc9cc11461088b57610256565b8063010167e51461029f578063026e402b146102b257806308ce5f68146102c557806321195373146102eb578063259bc435146102fe57806325d9897e146103115780632e17de78146104395780632f7cc5011461044c57806339514ad21461045f5780633993d8491461047a5780633a78b7321461048d5780633ccfd60b146104a057806342c51693146104a85780634ca7ac22146104bb5780634d99dd16146104ce57806351a60b02146104e1578063561285e4146104f45780636230001a1461054957806366ee1b281461055c578063746120921461058a5780637573ef4f1461059d5780637a766460146105b05780637c145cc7146105d957806381e21b56146105fc57806382d66cb81461060f575b6040517f00000000000000000000000000000000000000000000000000000000000000009036600082376000803683855af43d806000843e818015610299578184f35b8184fd5b005b61029d6102ad3660046151dc565b61089e565b61029d6102c036600461523e565b61097a565b6102d86102d336600461526a565b610a70565b6040519081526020015b60405180910390f35b61029d6102f93660046152a3565b610a85565b61029d61030c3660046152e4565b610b55565b61042c61031f36600461526a565b6040805161014081018252600080825260208201819052918101829052606081018290526080810182905260a0810182905260c0810182905260e081018290526101008101829052610120810191909152506001600160a01b039182166000908152601b6020908152604080832093909416825291825282902082516101408101845281548152600182015492810192909252600281015492820192909252600382015463ffffffff8082166060840152600160201b82046001600160401b039081166080850152600160601b8304811660a0850152600160a01b830490911660c0840152600160c01b9091041660e0820152600482015461010082015260059091015461012082015290565b6040516102e291906152ff565b61029d6104473660046153bf565b610c43565b6102d861045a3660046153e5565b610cd6565b601a546040516001600160401b0390911681526020016102e2565b61029d6104883660046152a3565b610dd8565b61029d61049b366004615441565b610e74565b61029d611040565b61029d6104b636600461546d565b6110d2565b61029d6104c93660046154ca565b611283565b61029d6104dc36600461523e565b61137d565b6102d86104ef36600461526a565b61142f565b61050761050236600461526a565b611629565b6040516102e29190600060a082019050825182526020830151602083015260408301516040830152606083015160608301526080830151608083015292915050565b61029d6105573660046154f8565b61167b565b7f00000000000000000000000000000000000000000000000000000000000000006040516102e2919061553e565b61029d6105983660046152a3565b611742565b6102d86105ab366004615552565b61182e565b6102d86105be366004615441565b6001600160a01b03166000908152600e602052604090205490565b6105ec6105e7366004615599565b611892565b60405190151581526020016102e2565b61029d61060a3660046155e4565b61189f565b61029d61061d3660046151dc565b611b18565b6102d861063036600461563c565b611c1e565b610648610643366004615441565b611c73565b604080518251815260209283015192810192909252016102e2565b61029d61067136600461567a565b611caf565b6102d86106843660046152a3565b611daa565b61029d610697366004615441565b611e3e565b61029d6106aa36600461523e565b611f22565b61029d6106bd3660046153bf565b611fb3565b6102d86106d0366004615441565b612044565b6106e86106e33660046156ff565b61204f565b6040516102e29190615798565b61029d610703366004615818565b612136565b6105ec610716366004615441565b6001600160a01b031660009081526022602052604090205460ff1690565b61029d610742366004615858565b612204565b61029d610755366004615818565b612311565b61029d6107683660046152a3565b6123a3565b61078061077b366004615599565b6125dd565b604051905181526020016102e2565b6107a261079d366004615899565b61262f565b6040516102e29190815181526020808301516001600160401b031690820152604080830151908201526060918201519181019190915260800190565b61029d61269c565b6107f96107f43660046153e5565b61276e565b6040516102e291908151815260208083015190820152604080830151908201526060918201519181019190915260800190565b61029d61083a3660046158b7565b6127d6565b61029d612d38565b61029d6108553660046158f6565b612e0a565b6102d86108683660046152a3565b612eed565b6102d861087b36600461526a565b612fc1565b60205460ff166105ec565b61029d6108993660046152a3565b612fcd565b6108a6613095565b6001600160a01b0316635c975abb6040518163ffffffff1660e01b8152600401602060405180830381865afa1580156108e3573d6000803e3d6000fd5b505050506040513d601f19601f820116820180604052508101906109079190615964565b1561092557604051632b37d9d160e21b815260040160405180910390fd5b84846109328282336130b9565b82823390919261096157604051630c76b97b60e41b815260040161095893929190615981565b60405180910390fd5b505050610971878688878761317d565b50505050505050565b610982613095565b6001600160a01b0316635c975abb6040518163ffffffff1660e01b8152600401602060405180830381865afa1580156109bf573d6000803e3d6000fd5b505050506040513d601f19601f820116820180604052508101906109e39190615964565b15610a0157604051632b37d9d160e21b815260040160405180910390fd5b80600003610a2257604051630a2a4e5b60e11b815260040160405180910390fd5b610a3f3382610a2f613565565b6001600160a01b03169190613589565b610a6c827f0000000000000000000000000000000000000000000000000000000000000000836000613641565b5050565b6000610a7c8383613846565b90505b92915050565b8282610a928282336130b9565b828233909192610ab857604051630c76b97b60e41b815260040161095893929190615981565b505050610ac3613095565b6001600160a01b0316635c975abb6040518163ffffffff1660e01b8152600401602060405180830381865afa158015610b00573d6000803e3d6000fd5b505050506040513d601f19601f82011682018060405250810190610b249190615964565b15610b4257604051632b37d9d160e21b815260040160405180910390fd5b610b4d85858561387e565b505050505050565b610b5d613095565b6001600160a01b0316634fc07d756040518163ffffffff1660e01b8152600401602060405180830381865afa158015610b9a573d6000803e3d6000fd5b505050506040513d601f19601f82011682018060405250810190610bbe91906159a4565b6001600160a01b0316336001600160a01b031614610bef57604051635d9044cd60e01b815260040160405180910390fd5b601a80546001600160401b0319166001600160401b0383169081179091556040519081527fe8526be46fa99b6313d439293c9be3491ffb067741bc8fce9d30c270cbb8459f9060200160405180910390a150565b610c4b613095565b6001600160a01b0316635c975abb6040518163ffffffff1660e01b8152600401602060405180830381865afa158015610c88573d6000803e3d6000fd5b505050506040513d601f19601f82011682018060405250810190610cac9190615964565b15610cca57604051632b37d9d160e21b815260040160405180910390fd5b610cd3816139af565b50565b600080610ce586868686613b5c565b90508060030154600003610cfd576000915050610dd0565b6001600160a01b038086166000908152601b6020908152604080832093881683529290529081206001810154600282015484545b8015610dc7576000610d438c83613bc8565b90508460050154816003015403610dbc576001810154426001600160401b0390911611610db657600083858360000154610d7d91906159d7565b610d8791906159ee565b9050610d938186615a10565b8254909550610da29085615a10565b9350610dae8188615a23565b965050610dbc565b50610dc7565b600201549050610d31565b50929450505050505b949350505050565b610de0613095565b6001600160a01b0316635c975abb6040518163ffffffff1660e01b8152600401602060405180830381865afa158015610e1d573d6000803e3d6000fd5b505050506040513d601f19601f82011682018060405250810190610e419190615964565b15610e5f57604051632b37d9d160e21b815260040160405180910390fd5b610e6f8383600080600086613c18565b505050565b610e7c613095565b6001600160a01b0316635c975abb6040518163ffffffff1660e01b8152600401602060405180830381865afa158015610eb9573d6000803e3d6000fd5b505050506040513d601f19601f82011682018060405250810190610edd9190615964565b15610efb57604051632b37d9d160e21b815260040160405180910390fd5b6001600160a01b0381166000908152601b60209081526040808320338085529252909120600381015483908390600160601b90046001600160401b0316610f57576040516330acea0d60e11b8152600401610958929190615a36565b50506003810154600160a01b810463ffffffff9081169116141580610f9a57506003810154600160c01b81046001600160401b03908116600160201b9092041614155b15610e6f57600381018054600160201b6001600160401b03600160c01b63ffffffff19841663ffffffff600160a01b8604811691821792909204831684026001600160601b03199095161793909317938490556040516001600160a01b0380881695908916947fa4c005afae9298a5ca51e7710c334ac406fb3d914588ade970850f917cedb1c694611033949183169392041690615a50565b60405180910390a3505050565b611048613095565b6001600160a01b0316635c975abb6040518163ffffffff1660e01b8152600401602060405180830381865afa158015611085573d6000803e3d6000fd5b505050506040513d601f19601f820116820180604052508101906110a99190615964565b156110c757604051632b37d9d160e21b815260040160405180910390fd5b6110d033613d9e565b565b6110da613095565b6001600160a01b0316635c975abb6040518163ffffffff1660e01b8152600401602060405180830381865afa158015611117573d6000803e3d6000fd5b505050506040513d601f19601f8201168201806040525081019061113b9190615964565b1561115957604051632b37d9d160e21b815260040160405180910390fd5b83836111668282336130b9565b82823390919261118c57604051630c76b97b60e41b815260040161095893929190615981565b50505061119c83620f4240101590565b83906111be57604051631504950160e21b815260040161095891815260200190565b506001600160a01b038087166000908152601c60209081526040808320938916835292905290812084918660028111156111fa576111fa615a6f565b600281111561120b5761120b615a6f565b815260208101919091526040016000205583600281111561122e5761122e615a6f565b856001600160a01b0316876001600160a01b03167f3474eba30406cacbfbc5a596a7e471662bbcccf206f8d244dbb6f4cc578c52208660405161127391815260200190565b60405180910390a4505050505050565b61128b613095565b6001600160a01b0316634fc07d756040518163ffffffff1660e01b8152600401602060405180830381865afa1580156112c8573d6000803e3d6000fd5b505050506040513d601f19601f820116820180604052508101906112ec91906159a4565b6001600160a01b0316336001600160a01b03161461131d57604051635d9044cd60e01b815260040160405180910390fd5b6001600160a01b038216600081815260226020908152604091829020805460ff191685151590811790915591519182527f4542960abc7f2d26dab244fc440acf511e3dd0f5cefad571ca802283b4751bbb91015b60405180910390a25050565b611385613095565b6001600160a01b0316635c975abb6040518163ffffffff1660e01b8152600401602060405180830381865afa1580156113c2573d6000803e3d6000fd5b505050506040513d601f19601f820116820180604052508101906113e69190615964565b1561140457604051632b37d9d160e21b815260040160405180910390fd5b610e6f827f000000000000000000000000000000000000000000000000000000000000000083613e79565b6000611439613095565b6001600160a01b0316635c975abb6040518163ffffffff1660e01b8152600401602060405180830381865afa158015611476573d6000803e3d6000fd5b505050506040513d601f19601f8201168201806040525081019061149a9190615964565b156114b857604051632b37d9d160e21b815260040160405180910390fd5b6001600160a01b038316600090815260146020908152604080832033808552600482019093529083209192909190807f00000000000000000000000000000000000000000000000000000000000000006001600160a01b031663766718086040518163ffffffff1660e01b8152600401602060405180830381865afa158015611545573d6000803e3d6000fd5b505050506040513d601f19601f820116820180604052508101906115699190615a85565b905060008360020154118015611583575082600201548110155b1561159057826001015491505b600082116115b05760405162cf4d4760e51b815260040160405180910390fd5b60006001840181905560028401556040518281526001600160a01b0386811691908a16907f1b2e7737e043c5cf1b587ceb4daeb7ae00148b9bda8f79f1093eead08f1419529060200160405180910390a361161e858361160e613565565b6001600160a01b031691906140f1565b509695505050505050565b61163161514b565b61163961514b565b6000611645858561412c565b60028101548352600381015460208401526005810154604084015260068101546060840152600701546080830152509392505050565b611683613095565b6001600160a01b0316635c975abb6040518163ffffffff1660e01b8152600401602060405180830381865afa1580156116c0573d6000803e3d6000fd5b505050506040513d601f19601f820116820180604052508101906116e49190615964565b1561170257604051632b37d9d160e21b815260040160405180910390fd5b8160000361172357604051630a2a4e5b60e11b815260040160405180910390fd5b6117303383610a2f613565565b61173c84848484613641565b50505050565b61174a613095565b6001600160a01b0316635c975abb6040518163ffffffff1660e01b8152600401602060405180830381865afa158015611787573d6000803e3d6000fd5b505050506040513d601f19601f820116820180604052508101906117ab9190615964565b156117c957604051632b37d9d160e21b815260040160405180910390fd5b82826117d68282336130b9565b806117e95750336001600160a01b038216145b82823390919261180f57604051630c76b97b60e41b815260040161095893929190615981565b50505061181c85846141b0565b6118278585856141e8565b5050505050565b6001600160a01b038084166000908152601c6020908152604080832093861683529290529081208183600281111561186857611868615a6f565b600281111561187957611879615a6f565b81526020019081526020016000205490505b9392505050565b6000610dd08484846130b9565b6118a7613095565b6001600160a01b0316635c975abb6040518163ffffffff1660e01b8152600401602060405180830381865afa1580156118e4573d6000803e3d6000fd5b505050506040513d601f19601f820116820180604052508101906119089190615964565b1561192657604051632b37d9d160e21b815260040160405180910390fd5b83836119338282336130b9565b82823390919261195957604051630c76b97b60e41b815260040161095893929190615981565b5050506001600160a01b038681166000908152601b60209081526040808320938916835292905220600381015487908790600160601b90046001600160401b03166119b9576040516330acea0d60e11b8152600401610958929190615a36565b50506003810154600160a01b810463ffffffff908116908716141590600160c01b90046001600160401b03908116908616141581806119f55750805b15611b0d578115611a56578663ffffffff8116620f42401015611a34576040516329bff5f560e01b815263ffffffff9091166004820152602401610958565b5060038301805463ffffffff60a01b1916600160a01b63ffffffff8a16021790555b8015611ab657601a5486906001600160401b03908116908216811015611a915760405163ee5602e160e01b8152600401610958929190615a9e565b50506003830180546001600160c01b0316600160c01b6001600160401b038916021790555b428360040181905550876001600160a01b0316896001600160a01b03167fe89cbb9d63ba60af555547b12dde6817283e88cbdd45feb2059f2ba71ea346ba8989604051611b04929190615a50565b60405180910390a35b505050505050505050565b611b20613095565b6001600160a01b0316635c975abb6040518163ffffffff1660e01b8152600401602060405180830381865afa158015611b5d573d6000803e3d6000fd5b505050506040513d601f19601f82011682018060405250810190611b819190615964565b15611b9f57604051632b37d9d160e21b815260040160405180910390fd5b8484611bac8282336130b9565b828233909192611bd257604051630c76b97b60e41b815260040161095893929190615981565b5050506001600160a01b038616600090815260226020526040902054869060ff16611c1057604051622920f760e21b8152600401610958919061553e565b50610971878688878761317d565b600080611c2b8585613846565b90506000611c398686614328565b90506000611c4d63ffffffff8616846159d7565b90506000611c5b838361434b565b9050611c678185615a23565b98975050505050505050565b611c7b61517a565b611c8361517a565b6001600160a01b039092166000908152600e602090815260409091208054845260040154908301525090565b82806001600160a01b031663f851a4406040518163ffffffff1660e01b81526004016020604051808303816000875af1158015611cf0573d6000803e3d6000fd5b505050506040513d601f19601f82011682018060405250810190611d1491906159a4565b6001600160a01b0316336001600160a01b031614611d445760405162461bcd60e51b815260040161095890615ab8565b60405163623faf6160e01b81526001600160a01b0385169063623faf6190611d729086908690600401615aef565b600060405180830381600087803b158015611d8c57600080fd5b505af1158015611da0573d6000803e3d6000fd5b5050505050505050565b6000611db4613095565b6001600160a01b0316635c975abb6040518163ffffffff1660e01b8152600401602060405180830381865afa158015611df1573d6000803e3d6000fd5b505050506040513d601f19601f82011682018060405250810190611e159190615964565b15611e3357604051632b37d9d160e21b815260040160405180910390fd5b610dd0848484613e79565b80806001600160a01b031663f851a4406040518163ffffffff1660e01b81526004016020604051808303816000875af1158015611e7f573d6000803e3d6000fd5b505050506040513d601f19601f82011682018060405250810190611ea391906159a4565b6001600160a01b0316336001600160a01b031614611ed35760405162461bcd60e51b815260040161095890615ab8565b816001600160a01b03166359fc20bb6040518163ffffffff1660e01b8152600401600060405180830381600087803b158015611f0e57600080fd5b505af1158015610b4d573d6000803e3d6000fd5b611f2a613095565b6001600160a01b0316635c975abb6040518163ffffffff1660e01b8152600401602060405180830381865afa158015611f67573d6000803e3d6000fd5b505050506040513d601f19601f82011682018060405250810190611f8b9190615964565b15611fa957604051632b37d9d160e21b815260040160405180910390fd5b610a6c82826141b0565b611fbb613095565b6001600160a01b0316635c975abb6040518163ffffffff1660e01b8152600401602060405180830381865afa158015611ff8573d6000803e3d6000fd5b505050506040513d601f19601f8201168201806040525081019061201c9190615964565b1561203a57604051632b37d9d160e21b815260040160405180910390fd5b610cd333826141b0565b6000610a7f82614362565b604080516000815260208101909152606090826001600160401b0381111561207957612079615b1e565b6040519080825280602002602001820160405280156120ac57816020015b60608152602001906001900390816120975790505b50915060005b8381101561212e57612109308686848181106120d0576120d0615b34565b90506020028101906120e29190615b4a565b856040516020016120f593929190615b90565b6040516020818303038152906040526143d3565b83828151811061211b5761211b615b34565b60209081029190910101526001016120b2565b505092915050565b61213e613095565b6001600160a01b0316635c975abb6040518163ffffffff1660e01b8152600401602060405180830381865afa15801561217b573d6000803e3d6000fd5b505050506040513d601f19601f8201168201806040525081019061219f9190615964565b156121bd57604051632b37d9d160e21b815260040160405180910390fd5b6001600160a01b038316600090815260226020526040902054839060ff166121f857604051622920f760e21b8152600401610958919061553e565b50610e6f838383614449565b61220c613095565b6001600160a01b0316635c975abb6040518163ffffffff1660e01b8152600401602060405180830381865afa158015612249573d6000803e3d6000fd5b505050506040513d601f19601f8201168201806040525081019061226d9190615964565b1561228b57604051632b37d9d160e21b815260040160405180910390fd5b83836122988282336130b9565b8282339091926122be57604051630c76b97b60e41b815260040161095893929190615981565b50505085846122ce8282336130b9565b8282339091926122f457604051630c76b97b60e41b815260040161095893929190615981565b505050600061230489898861387e565b9050611b0d8988836141e8565b612319613095565b6001600160a01b0316635c975abb6040518163ffffffff1660e01b8152600401602060405180830381865afa158015612356573d6000803e3d6000fd5b505050506040513d601f19601f8201168201806040525081019061237a9190615964565b1561239857604051632b37d9d160e21b815260040160405180910390fd5b610e6f838383614449565b6123ab613095565b6001600160a01b0316635c975abb6040518163ffffffff1660e01b8152600401602060405180830381865afa1580156123e8573d6000803e3d6000fd5b505050506040513d601f19601f8201168201806040525081019061240c9190615964565b1561242a57604051632b37d9d160e21b815260040160405180910390fd5b8060000361244b57604051630a2a4e5b60e11b815260040160405180910390fd5b6001600160a01b038084166000908152601b6020908152604080832093861683529281529082902082516101408101845281548152600182015492810192909252600281015492820192909252600382015463ffffffff80821660608401526001600160401b03600160201b830481166080850152600160601b8304811660a08501819052600160a01b840490921660c0850152600160c01b90920490911660e08301526004830154610100830152600590920154610120820152908490849061252a576040516330acea0d60e11b8152600401610958929190615a36565b50506000612538858561412c565b90506000816003015411858590916125655760405163b6a70b3b60e01b8152600401610958929190615a36565b50508281600201546125779190615a23565b60028201556125893384610a2f613565565b836001600160a01b0316856001600160a01b03167f673007a04e501145e79f59aea5e0413b6e88344fdaf10326254530d6a1511530856040516125ce91815260200190565b60405180910390a35050505050565b6040805160208101909152600081526040805160208101909152600081526000612607868661412c565b6001600160a01b03851660009081526004909101602052604090205482525090509392505050565b60408051608081018252600080825260208201819052918101829052606081019190915261265d8383613bc8565b604080516080810182528254815260018301546001600160401b0316602082015260028301549181019190915260039091015460608201529392505050565b6126a4613095565b6001600160a01b0316634fc07d756040518163ffffffff1660e01b8152600401602060405180830381865afa1580156126e1573d6000803e3d6000fd5b505050506040513d601f19601f8201168201806040525081019061270591906159a4565b6001600160a01b0316336001600160a01b03161461273657604051635d9044cd60e01b815260040160405180910390fd5b600d805463ffffffff191690556040517f93be484d290d119d9cf99cce69d173c732f9403333ad84f69c807b590203d10990600090a1565b60408051608081018252600080825260208201819052918101829052606081019190915261279e85858585613b5c565b604080516080810182528254815260018301546020820152600283015491810191909152600390910154606082015295945050505050565b6127de613095565b6001600160a01b0316635c975abb6040518163ffffffff1660e01b8152600401602060405180830381865afa15801561281b573d6000803e3d6000fd5b505050506040513d601f19601f8201168201806040525081019061283f9190615964565b1561285d57604051632b37d9d160e21b815260040160405180910390fd5b3360009081526012602052604090205460ff1615612966576040516001600160a01b038581166024830152604482018590526064820184905282811660848301526000917f00000000000000000000000000000000000000000000000000000000000000009091169060a40160408051601f198184030181529181526020820180516001600160e01b031663224451c160e11b179052516128fe9190615bb7565b600060405180830381855af49150503d8060008114612939576040519150601f19603f3d011682016040523d82523d6000602084013e61293e565b606091505b50509050806129605760405163ef370f5160e01b815260040160405180910390fd5b5061173c565b6001600160a01b0384166000908152601b6020908152604080832033808552925282209091612995878461412c565b90506000816002015483600001546129ad9190615a23565b9050806000036129d057604051630a8a55c960e31b815260040160405180910390fd5b60006129dc888361434b565b905060006129ee85600001548361434b565b90508015612be8576003850154600090612a1390839063ffffffff9081169061457916565b9050888181811015612a3a57604051632f514d5760e21b8152600401610958929190615bd3565b50508815612aa757612a4f888a61160e613565565b876001600160a01b0316876001600160a01b03168c6001600160a01b03167f95ff4196cd75fa49180ba673948ea43935f59e7c4ba101fa09b9fe0ec266d5828c604051612a9e91815260200190565b60405180910390a45b612acb612ab48a84615a10565b612abc613565565b6001600160a01b0316906145d9565b8554612ad78382615a10565b8760010154612ae691906159d7565b612af091906159ee565b60018701558554612b02908390615a10565b8655600286015415801590612b1957506001860154155b15612b3d5760006002870181905560058701805491612b3783615be1565b91905055505b6001600160a01b038b166000908152600e6020526040902060040154612b64908390615a10565b6001600160a01b038c166000908152600e60205260409020600481019190915554612b90908390615a10565b6001600160a01b038c81166000818152600e60209081526040918290209490945551858152918a169290917fe7b110f13cde981d5079ab7faa4249c5f331f5c292dbc6031969d2ce694188a3910160405180910390a3505b612bf28183615a10565b91508115612d2c5760205460ff1615612cde57612c1182612abc613565565b6002840154612c208382615a10565b8560050154612c2f91906159d7565b612c3991906159ee565b60058501556002840154612c4e908390615a10565b6002850155600684015415801590612c6857506005840154155b15612c8c5760006006850181905560078501805491612c8683615be1565b91905055505b856001600160a01b03168a6001600160a01b03167fc5d16dbb577cf07678b577232717c9a606197a014f61847e623d47fc6bf6b77184604051612cd191815260200190565b60405180910390a3612d2c565b856001600160a01b03168a6001600160a01b03167fdce44f0aeed2089c75db59f5a517b9a19a734bf0213412fa129f0d0434126b2484604051612d2391815260200190565b60405180910390a35b50505050505050505050565b612d40613095565b6001600160a01b0316634fc07d756040518163ffffffff1660e01b8152600401602060405180830381865afa158015612d7d573d6000803e3d6000fd5b505050506040513d601f19601f82011682018060405250810190612da191906159a4565b6001600160a01b0316336001600160a01b031614612dd257604051635d9044cd60e01b815260040160405180910390fd5b6020805460ff191660011790556040517f2192802a8934dbf383338406b279ec7f3eccee31e58d6c0444d6dd6bfff24b3590600090a1565b612e12613095565b6001600160a01b0316635c975abb6040518163ffffffff1660e01b8152600401602060405180830381865afa158015612e4f573d6000803e3d6000fd5b505050506040513d601f19601f82011682018060405250810190612e739190615964565b15612e9157604051632b37d9d160e21b815260040160405180910390fd5b6001600160a01b038416612eb8576040516322347d6760e21b815260040160405180910390fd5b6001600160a01b038316612edf5760405163a962605960e01b815260040160405180910390fd5b610b4d868686868686613c18565b6000612ef7613095565b6001600160a01b0316635c975abb6040518163ffffffff1660e01b8152600401602060405180830381865afa158015612f34573d6000803e3d6000fd5b505050506040513d601f19601f82011682018060405250810190612f589190615964565b15612f7657604051632b37d9d160e21b815260040160405180910390fd5b8383612f838282336130b9565b828233909192612fa957604051630c76b97b60e41b815260040161095893929190615981565b505050612fb7868686614621565b9695505050505050565b6000610a7c8383614328565b612fd5613095565b6001600160a01b0316635c975abb6040518163ffffffff1660e01b8152600401602060405180830381865afa158015613012573d6000803e3d6000fd5b505050506040513d601f19601f820116820180604052508101906130369190615964565b1561305457604051632b37d9d160e21b815260040160405180910390fd5b82826130618282336130b9565b82823390919261308757604051630c76b97b60e41b815260040161095893929190615981565b5050506118278585856141e8565b7f000000000000000000000000000000000000000000000000000000000000000090565b6000836001600160a01b0316826001600160a01b0316036130dc5750600161188b565b7f00000000000000000000000000000000000000000000000000000000000000006001600160a01b0316836001600160a01b03160361314457506001600160a01b0380841660009081526015602090815260408083209385168352929052205460ff1661188b565b506001600160a01b038084166000908152601f60209081526040808320868516845282528083209385168352929052205460ff1661188b565b6000841161319e57604051630a2a4e5b60e11b815260040160405180910390fd5b7f00000000000000000000000000000000000000000000000000000000000000006001600160a01b0316836001600160a01b031614806131e45750600d5463ffffffff16155b83906132045760405163353666ff60e01b8152600401610958919061553e565b508163ffffffff8116620f42401015613239576040516329bff5f560e01b815263ffffffff9091166004820152602401610958565b50601a5481906001600160401b0390811690821681101561326f5760405163ee5602e160e01b8152600401610958929190615a9e565b50506001600160a01b038581166000908152601b6020908152604080832093871683529290522060030154600160601b90046001600160401b0316156132c857604051632b542c0d60e11b815260040160405180910390fd5b60006132d386614362565b90508481808211156132fa5760405163ccaf28a960e01b8152600401610958929190615bd3565b505060405180610140016040528086815260200160008152602001600081526020018463ffffffff168152602001836001600160401b03168152602001426001600160401b031681526020018463ffffffff168152602001836001600160401b03168152602001600081526020016000815250601b6000886001600160a01b03166001600160a01b031681526020019081526020016000206000866001600160a01b03166001600160a01b0316815260200190815260200160002060008201518160000155602082015181600101556040820151816002015560608201518160030160006101000a81548163ffffffff021916908363ffffffff16021790555060808201518160030160046101000a8154816001600160401b0302191690836001600160401b0316021790555060a082015181600301600c6101000a8154816001600160401b0302191690836001600160401b0316021790555060c08201518160030160146101000a81548163ffffffff021916908363ffffffff16021790555060e08201518160030160186101000a8154816001600160401b0302191690836001600160401b03160217905550610100820151816004015561012082015181600501559050506000600e6000886001600160a01b03166001600160a01b0316815260200190815260200160002090508581600401546134fa9190615a23565b60048201556040805187815263ffffffff861660208201526001600160401b0385168183015290516001600160a01b0387811692908a16917f88b4c2d08cea0f01a24841ff5d14814ddb5b14ac44b05e0835fcc0dcd8c7bc259181900360600190a350505050505050565b7f000000000000000000000000000000000000000000000000000000000000000090565b8015610e6f576040516323b872dd60e01b81526001600160a01b038381166004830152306024830152604482018390528416906323b872dd906064015b6020604051808303816000875af11580156135e5573d6000803e3d6000fd5b505050506040513d601f19601f820116820180604052508101906136099190615964565b610e6f5760405162461bcd60e51b815260206004820152600960248201526810ba3930b739b332b960b91b6044820152606401610958565b81670de0b6b3a76400008082101561366e5760405163b86d885760e01b8152600401610958929190615bd3565b50506001600160a01b038481166000908152601b602090815260408083209387168352929052206003015484908490600160601b90046001600160401b03166136cc576040516330acea0d60e11b8152600401610958929190615a36565b505060006136da858561412c565b336000908152600482016020526040902060028201549192509015158061370357506003820154155b8686909161372657604051631984edef60e31b8152600401610958929190615a36565b50506000826002015460001480613744575082600501548360020154145b905060008161377f57836005015484600201546137619190615a10565b600385015461377090886159d7565b61377a91906159ee565b613781565b855b905080158015906137925750848110155b818690916137b557604051635d88e8d160e01b8152600401610958929190615bd3565b50508584600201546137c79190615a23565b600285015560038401546137dc908290615a23565b600385015582546137ee908290615a23565b835560405133906001600160a01b0389811691908b16907f237818af8bb47710142edd8fc301fbc507064fb357cf122fb161ca447e3cb13e90613834908b908790615bd3565b60405180910390a45050505050505050565b6001600160a01b038281166000908152601b60209081526040808320938516835292905290812060018101549054610a7c9190615a10565b6001600160a01b038381166000818152601b60209081526040808320948716808452948252808320600281015460018201548351610100810185528681529485018790529284019690965260608301949094526080820181905260a0820185905260c08201869052600584015460e08301529193849290916138ff816147b3565b875492965094509250613913908590615a10565b855560028501839055600185018290556001600160a01b0389166000908152600e60205260408120600401805486929061394e908490615a10565b92505081905550876001600160a01b0316896001600160a01b03167f9008d731ddfbec70bc364780efd63057c6877bee8027c4708a104b365395885d8660405161399a91815260200190565b60405180910390a35091979650505050505050565b3360008290036139d257604051630a2a4e5b60e11b815260040160405180910390fd5b60006139dd82614362565b9050828180821115613a045760405163ccaf28a960e01b8152600401610958929190615bd3565b50506001600160a01b0382166000908152600e602052604081208054600d549192909163ffffffff1690819003613a9657613a3f8683615a10565b8355613a4e858761160e613565565b846001600160a01b03167f32eed9ebc5696170068a371fdbea4c076da1bc21b305e78ca0a5e65ee913be8387604051613a8991815260200190565b60405180910390a2610b4d565b600283015415801590613aad575082600301544310155b15613abb57613abb85613d9e565b600283015415613ae557613ae2613ad68460030154436148ad565b846002015483896148c7565b90505b858360020154613af59190615a23565b6002840155613b048143615a23565b6003840181905560028401546040516001600160a01b038816927f91642f23a1196e1424949fafa2a428c3b5d1f699763942ff08a6fbe9d4d7e98092613b4c92909190615bd3565b60405180910390a2505050505050565b6000601e6000866001811115613b7457613b74615a6f565b6001811115613b8557613b85615a6f565b8152602080820192909252604090810160009081206001600160a01b03978816825283528181209587168152948252808520939095168452919091525020919050565b6000601d6000846001811115613be057613be0615a6f565b6001811115613bf157613bf1615a6f565b81526020019081526020016000206000838152602001908152602001600020905092915050565b6000613c24878761412c565b905080600201546000141580613c3c57506003810154155b87879091613c5f57604051631984edef60e31b8152600401610958929190615a36565b5050600681015460058201546040805161010081018252600181526001600160a01b03808c1660208301528a16918101919091523360608201526080810182905260a0810183905260c08101859052600784015460e08201526000929190613cc6816147b3565b600288015492965094509250613cdd908590615a10565b600286015560068501839055600585018290558315613d91576001600160a01b03891615801590613d1657506001600160a01b03881615155b15613d2c57613d278989868a613641565b613d91565b613d39338561160e613565565b336001600160a01b03168a6001600160a01b03168c6001600160a01b03167f305f519d8909c676ffd870495d4563032eb0b506891a6dd9827490256cc9914e87604051613d8891815260200190565b60405180910390a45b5050505050505050505050565b6001600160a01b0381166000908152600e6020526040812060028101549091819003613ddd57604051630a2a4e5b60e11b815260040160405180910390fd5b600382015443811115613e0657604051631d222f1b60e31b815260040161095891815260200190565b5060006002830181905560038301558154613e22908290615a10565b8255613e31838261160e613565565b826001600160a01b03167f32eed9ebc5696170068a371fdbea4c076da1bc21b305e78ca0a5e65ee913be8382604051613e6c91815260200190565b60405180910390a2505050565b6000808211613e9b57604051637318ad9960e01b815260040160405180910390fd5b6000613ea7858561412c565b33600090815260048201602052604090208054919250908480821015613ee25760405163ab99793560e01b8152600401610958929190615bd3565b5050600282015486908690613f0c57604051631984edef60e31b8152600401610958929190615a36565b50506000826003015483600501548460020154613f299190615a10565b613f3390876159d7565b613f3d91906159ee565b905060008360050154600014613f705760058401546006850154613f6190846159d7565b613f6b91906159ee565b613f72565b815b6001600160a01b038981166000908152601b60209081526040808320938c1683529290529081206003015491925090613fbb90600160201b90046001600160401b031642615a23565b9050828560050154613fcd9190615a23565b60058601556006850154613fe2908390615a23565b60068601556003850154613ff7908890615a10565b60038601558354614009908890615a10565b8085551561407557600085600301548660050154876002015461402c9190615a10565b865461403891906159d7565b61404291906159ee565b905080670de0b6b3a7640000808210156140715760405163587ab9ab60e11b8152600401610958929190615bd3565b5050505b600061408b60018b8b3387878c6007015461491b565b9050336001600160a01b0316896001600160a01b03168b6001600160a01b03167f0525d6ad1aa78abc571b5c1984b5e1ea4f1412368c1cc348ca408dbb1085c9a1878c6040516140dc929190615bd3565b60405180910390a49998505050505050505050565b8015610e6f5760405163a9059cbb60e01b81526001600160a01b0383811660048301526024820183905284169063a9059cbb906044016135c6565b60007f00000000000000000000000000000000000000000000000000000000000000006001600160a01b0316826001600160a01b03160361418557506001600160a01b0382166000908152601460205260409020610a7f565b506001600160a01b038083166000908152602160209081526040808320938516835292905220610a7f565b806000036141d157604051630a2a4e5b60e11b815260040160405180910390fd5b6141de3382610a2f613565565b610a6c8282614ac1565b8060000361420957604051630a2a4e5b60e11b815260040160405180910390fd5b6001600160a01b038381166000908152601b60209081526040808320938616835292905220600381015484908490600160601b90046001600160401b0316614266576040516330acea0d60e11b8152600401610958929190615a36565b5050600061427385614362565b905082818082111561429a5760405163ccaf28a960e01b8152600401610958929190615bd3565b505081546142a9908490615a23565b82556001600160a01b0385166000908152600e60205260409020600401546142d2908490615a23565b6001600160a01b038681166000818152600e602090815260409182902060040194909455518681529187169290917feaf6ea3a42ed2fd1b6d575f818cbda593af9524aa94bd30e65302ac4dc23474591016125ce565b600080614335848461412c565b905080600501548160020154610dd09190615a10565b60008183111561435b5781610a7c565b5090919050565b6001600160a01b0381166000908152600e6020526040812060028101546001820154600490920154839261439591615a23565b61439f9190615a23565b6001600160a01b0384166000908152600e60205260409020549091508181116143c9576000610dd0565b610dd08282615a10565b6060600080846001600160a01b0316846040516143f09190615bb7565b600060405180830381855af49150503d806000811461442b576040519150601f19603f3d011682016040523d82523d6000602084013e614430565b606091505b5091509150614440858383614b34565b95945050505050565b336001600160a01b0383160361447257604051630123065360e01b815260040160405180910390fd5b7f00000000000000000000000000000000000000000000000000000000000000006001600160a01b0316836001600160a01b0316036144df573360009081526015602090815260408083206001600160a01b03861684529091529020805460ff191682151517905561451b565b336000908152601f602090815260408083206001600160a01b03878116855290835281842090861684529091529020805460ff19168215151790555b816001600160a01b0316836001600160a01b0316336001600160a01b03167faa5a59b38e8f68292982382bf635c2f263ca37137bbc52956acd808fd7bf976f8460405161456c911515815260200190565b60405180910390a4505050565b600061458883620f4240101590565b8061459b575061459b82620f4240101590565b838390916145be5760405163768bf0eb60e11b8152600401610958929190615bd3565b50620f424090506145cf83856159d7565b610a7c91906159ee565b8015610a6c57604051630852cd8d60e31b8152600481018290526001600160a01b038316906342966c6890602401600060405180830381600087803b158015611f0e57600080fd5b60008160000361464457604051630a2a4e5b60e11b815260040160405180910390fd5b60006146508585613846565b90508083808210156146775760405163587ab9ab60e11b8152600401610958929190615bd3565b50506001600160a01b038086166000908152601b6020908152604080832093881683529290529081206001810154909190156146ec578160010154600183600101548785600201546146c991906159d7565b6146d39190615a23565b6146dd9190615a10565b6146e791906159ee565b6146ee565b845b600383015490915060009061471390600160201b90046001600160401b031642615a23565b90508183600201546147259190615a23565b6002840155600183015461473a908790615a23565b8360010181905550600061475860008a8a8c87878a6005015461491b565b9050876001600160a01b0316896001600160a01b03167f3b81913739097ced1e7fa748c6058d34e2c00b961fb501094543b397b198fdaa8960405161479f91815260200190565b60405180910390a398975050505050505050565b6000806000806147d58560000151866020015187604001518860600151613b5c565b905060008160030154116147fc576040516307e332c560e31b815260040160405180910390fd5b60006148088683614b87565b905085604001516001600160a01b031686602001516001600160a01b03168760000151600181111561483c5761483c615a6f565b6060808a01518551602080880151604080516001600160a01b039095168552918401929092528201527f86c2f162872d7c46d7ee0caad366da6dc430889b9d8f27e4bed3785548f9954b910160405180910390a4602081015160408201516060909201519097919650945092505050565b60008183116148bd576000610a7c565b610a7c8284615a10565b60006148d38285615a23565b60016148df8487615a23565b6148e99190615a10565b6148f384866159d7565b6148fd87896159d7565b6149079190615a23565b6149119190615a23565b61444091906159ee565b60008360000361493e57604051637318ad9960e01b815260040160405180910390fd5b600061494c89898989613b5c565b90506103e88160030154106149745760405163332b852b60e11b815260040160405180910390fd5b60028101546040516001600160601b031960608b811b821660208401528a811b8216603484015289901b166048820152605c810191909152600090607c0160405160208183030381529060405280519060200120905060006149d68b83613bc8565b8781556001810180546001600160401b0319166001600160401b03891617905560006002820155600380820187905584015490915015614a245781614a1f8c8560010154613bc8565b600201555b614a2e8383614c82565b886001600160a01b03168a6001600160a01b03168c6001811115614a5457614a54615a6f565b604080516001600160a01b038d168152602081018c90526001600160401b038b168183015260608101879052608081018a905290517f036538df4a591a5cc74b68cfc7f8c61e8173dbc81627e1d62600b61e820461789181900360a00190a4509998505050505050505050565b6001600160a01b0382166000908152600e6020526040902054614ae5908290615a23565b6001600160a01b0383166000818152600e6020526040908190209290925590517f48c384dd8bdf1e06d8afecd810c4acfc3d553ac5d879dec5a69875dbbd90e14b906113719084815260200190565b606082614b4957614b4482614d15565b61188b565b8151158015614b6057506001600160a01b0384163b155b15614b805783604051639996b31560e01b8152600401610958919061553e565b508061188b565b614bb26040518060800160405280600081526020016000815260200160008152602001600081525090565b615194614bc28460000151614d3e565b9050615194614bd48560000151614da3565b905060008560000151600087608001518860a001518960e00151604051602001614c02959493929190615bfa565b6040516020818303038152906040529050600080614c3785614dea86868c60c001518c614f5a9095949392919063ffffffff16565b91509150600080600083806020019051810190614c549190615c3d565b60408051608081018252998a5260208a019390935291880152606087015250939a9950505050505050505050565b612710826003015410614ca8576040516303a8c56b60e61b815260040160405180910390fd5b80614cc657604051638f4a893d60e01b815260040160405180910390fd5b6001808301829055600283018054600090614ce2908490615a23565b90915550506003820154600003614cf7578082555b6001826003016000828254614d0c9190615a23565b90915550505050565b805115614d255780518082602001fd5b60405163d6bda27560e01b815260040160405180910390fd5b6151946000826001811115614d5557614d55615a6f565b03614d635750615014919050565b6001826001811115614d7757614d77615a6f565b03614d855750615056919050565b604051636bd1fba760e11b815260040160405180910390fd5b919050565b6151946000826001811115614dba57614dba615a6f565b03614dc85750615062919050565b6001826001811115614ddc57614ddc615a6f565b03614d8557506150b9919050565b60006060600080600080600087806020019051810190614e0a9190615c7c565b945094509450945094506000614e20868b613bc8565b6001810154909150426001600160401b039091161115614e5b5760016040518060200160405280600081525097509750505050505050614f53565b600381015460009083148015614eae5782548590614e7a9088906159d7565b614e8491906159ee565b9150614e908287615a10565b8354909650614e9f9086615a10565b9450614eab8288615a23565b96505b8b886001811115614ec157614ec1615a6f565b845460018601546040805187815260208101939093526001600160401b03909116828201528415156060830152517f469e89d0a4e0e5deb2eb1ade5b3fa67fdfbeb4787c3a7c1e8e89aaf28562cab29181900360800190a38787878787604051602001614f32959493929190615bfa565b6040516020818303038152906040529a5060008b9950995050505050505050505b9250929050565b600060608760030154831115614f8357604051634a411b9d60e11b815260040160405180910390fd5b60008315614f915783614f97565b88600301545b89549094505b8015801590614fac5750600085115b1561500557600080614fc283898c63ffffffff16565b915091508115614fd3575050615005565b965086614fe18c8c8b6150c4565b925086614fed81615cc5565b9750508380614ffb90615be1565b9450505050614f9d565b50989397509295505050505050565b6000601d81805b600181111561502c5761502c615a6f565b81526020019081526020016000206000838152602001908152602001600020600201549050919050565b6000601d81600161501b565b601d6000805b600181111561507957615079615a6f565b8152602080820192909252604090810160009081209381529290915281208181556001810180546001600160401b03191690556002810182905560030155565b601d60006001615068565b6000808460030154116150ea5760405163ddaf8f2160e01b815260040160405180910390fd5b60006150fd85600001548563ffffffff16565b905061511085600001548463ffffffff16565b60018560030160008282546151259190615a10565b9091555050808555600385015460000361514157600060018601555b5050915492915050565b6040518060a0016040528060008152602001600081526020016000815260200160008152602001600081525090565b604051806040016040528060008152602001600081525090565b6110d0615cdc565b6001600160a01b0381168114610cd357600080fd5b803563ffffffff81168114614d9e57600080fd5b80356001600160401b0381168114614d9e57600080fd5b600080600080600060a086880312156151f457600080fd5b85356151ff8161519c565b9450602086013561520f8161519c565b935060408601359250615224606087016151b1565b9150615232608087016151c5565b90509295509295909350565b6000806040838503121561525157600080fd5b823561525c8161519c565b946020939093013593505050565b6000806040838503121561527d57600080fd5b82356152888161519c565b915060208301356152988161519c565b809150509250929050565b6000806000606084860312156152b857600080fd5b83356152c38161519c565b925060208401356152d38161519c565b929592945050506040919091013590565b6000602082840312156152f657600080fd5b610a7c826151c5565b6000610140820190508251825260208301516020830152604083015160408301526060830151615337606084018263ffffffff169052565b50608083015161535260808401826001600160401b03169052565b5060a083015161536d60a08401826001600160401b03169052565b5060c083015161538560c084018263ffffffff169052565b5060e08301516153a060e08401826001600160401b03169052565b5061010083015161010083015261012083015161012083015292915050565b6000602082840312156153d157600080fd5b5035919050565b60028110610cd357600080fd5b600080600080608085870312156153fb57600080fd5b8435615406816153d8565b935060208501356154168161519c565b925060408501356154268161519c565b915060608501356154368161519c565b939692955090935050565b60006020828403121561545357600080fd5b813561188b8161519c565b803560038110614d9e57600080fd5b6000806000806080858703121561548357600080fd5b843561548e8161519c565b9350602085013561549e8161519c565b92506154ac6040860161545e565b9396929550929360600135925050565b8015158114610cd357600080fd5b600080604083850312156154dd57600080fd5b82356154e88161519c565b91506020830135615298816154bc565b6000806000806080858703121561550e57600080fd5b84356155198161519c565b935060208501356155298161519c565b93969395505050506040820135916060013590565b6001600160a01b0391909116815260200190565b60008060006060848603121561556757600080fd5b83356155728161519c565b925060208401356155828161519c565b91506155906040850161545e565b90509250925092565b6000806000606084860312156155ae57600080fd5b83356155b98161519c565b925060208401356155c98161519c565b915060408401356155d98161519c565b809150509250925092565b600080600080608085870312156155fa57600080fd5b84356156058161519c565b935060208501356156158161519c565b9250615623604086016151b1565b9150615631606086016151c5565b905092959194509250565b60008060006060848603121561565157600080fd5b833561565c8161519c565b9250602084013561566c8161519c565b9150615590604085016151b1565b60008060006040848603121561568f57600080fd5b833561569a8161519c565b925060208401356001600160401b038111156156b557600080fd5b8401601f810186136156c657600080fd5b80356001600160401b038111156156dc57600080fd5b8660208284010111156156ee57600080fd5b939660209190910195509293505050565b6000806020838503121561571257600080fd5b82356001600160401b0381111561572857600080fd5b8301601f8101851361573957600080fd5b80356001600160401b0381111561574f57600080fd5b8560208260051b840101111561576457600080fd5b6020919091019590945092505050565b60005b8381101561578f578181015183820152602001615777565b50506000910152565b6000602082016020835280845180835260408501915060408160051b86010192506020860160005b8281101561580c57603f19878603018452815180518087526157e9816020890160208501615774565b601f01601f191695909501602090810195509384019391909101906001016157c0565b50929695505050505050565b60008060006060848603121561582d57600080fd5b83356158388161519c565b925060208401356158488161519c565b915060408401356155d9816154bc565b6000806000806080858703121561586e57600080fd5b84356158798161519c565b935060208501356158898161519c565b925060408501356154ac8161519c565b600080604083850312156158ac57600080fd5b823561525c816153d8565b600080600080608085870312156158cd57600080fd5b84356158d88161519c565b9350602085013592506040850135915060608501356154368161519c565b60008060008060008060c0878903121561590f57600080fd5b863561591a8161519c565b9550602087013561592a8161519c565b9450604087013561593a8161519c565b9350606087013561594a8161519c565b9598949750929560808101359460a0909101359350915050565b60006020828403121561597657600080fd5b815161188b816154bc565b6001600160a01b0393841681529183166020830152909116604082015260600190565b6000602082840312156159b657600080fd5b815161188b8161519c565b634e487b7160e01b600052601160045260246000fd5b8082028115828204841417610a7f57610a7f6159c1565b600082615a0b57634e487b7160e01b600052601260045260246000fd5b500490565b81810381811115610a7f57610a7f6159c1565b80820180821115610a7f57610a7f6159c1565b6001600160a01b0392831681529116602082015260400190565b63ffffffff9290921682526001600160401b0316602082015260400190565b634e487b7160e01b600052602160045260246000fd5b600060208284031215615a9757600080fd5b5051919050565b6001600160401b0392831681529116602082015260400190565b6020808252601e908201527f43616c6c6572206d757374206265207468652070726f78792061646d696e0000604082015260600190565b60208152816020820152818360408301376000818301604090810191909152601f909201601f19160101919050565b634e487b7160e01b600052604160045260246000fd5b634e487b7160e01b600052603260045260246000fd5b6000808335601e19843603018112615b6157600080fd5b8301803591506001600160401b03821115615b7b57600080fd5b602001915036819003821315614f5357600080fd5b828482376000838201600081528351615bad818360208801615774565b0195945050505050565b60008251615bc9818460208701615774565b9190910192915050565b918252602082015260400190565b600060018201615bf357615bf36159c1565b5060010190565b60a0810160028710615c1c57634e487b7160e01b600052602160045260246000fd5b95815260208101949094526040840192909252606083015260809091015290565b60008060008060808587031215615c5357600080fd5b8451615c5e816153d8565b60208601516040870151606090970151919890975090945092505050565b600080600080600060a08688031215615c9457600080fd5b8551615c9f816153d8565b602087015160408801516060890151608090990151929a91995097965090945092505050565b600081615cd457615cd46159c1565b506000190190565b634e487b7160e01b600052605160045260246000fdfea2646970667358221220f5046670ab269f9c179f41df4a02cd9c6b2ca3d5d507e2b9fcf15f800f351d8b64736f6c634300081b0033",
  "linkReferences": {},
  "deployedLinkReferences": {}
}