{
  "_format": "hh-sol-artifact-1",
  "contractName": "L2GraphToken",
  "sourceName": "contracts/l2/token/L2GraphToken.sol",
  "abi": [
    {
      "anonymous": false,
      "inputs": [
        {
          "indexed": true,
          "internalType": "address",
          "name": "owner",
          "type": "address"
        },
        {
          "indexed": true,
          "internalType": "address",
          "name": "spender",
          "type": "address"
        },
        {
          "indexed": false,
          "internalType": "uint256",
          "name": "value",
          "type": "uint256"
        }
      ],
      "name": "Approval",
      "type": "event"
    },
    {
      "anonymous": false,
      "inputs": [
        {
          "indexed": true,
          "internalType": "address",
          "name": "account",
          "type": "address"
        },
        {
          "indexed": false,
          "internalType": "uint256",
          "name": "amount",
          "type": "uint256"
        }
      ],
      "name": "BridgeBurned",
      "type": "event"
    },
    {
      "anonymous": false,
      "inputs": [
        {
          "indexed": true,
          "internalType": "address",
          "name": "account",
          "type": "address"
        },
        {
          "indexed": false,
          "internalType": "uint256",
          "name": "amount",
          "type": "uint256"
        }
      ],
      "name": "BridgeMinted",
      "type": "event"
    },
    {
      "anonymous": false,
      "inputs": [
        {
          "indexed": false,
          "internalType": "address",
          "name": "gateway",
          "type": "address"
        }
      ],
      "name": "GatewaySet",
      "type": "event"
    },
    {
      "anonymous": false,
      "inputs": [
        {
          "indexed": false,
          "internalType": "address",
          "name": "l1Address",
          "type": "address"
        }
      ],
      "name": "L1AddressSet",
      "type": "event"
    },
    {
      "anonymous": false,
      "inputs": [
        {
          "indexed": true,
          "internalType": "address",
          "name": "account",
          "type": "address"
        }
      ],
      "name": "MinterAdded",
      "type": "event"
    },
    {
      "anonymous": false,
      "inputs": [
        {
          "indexed": true,
          "internalType": "address",
          "name": "account",
          "type": "address"
        }
      ],
      "name": "MinterRemoved",
      "type": "event"
    },
    {
      "anonymous": false,
      "inputs": [
        {
          "indexed": true,
          "internalType": "address",
          "name": "from",
          "type": "address"
        },
        {
          "indexed": true,
          "internalType": "address",
          "name": "to",
          "type": "address"
        }
      ],
      "name": "NewOwnership",
      "type": "event"
    },
    {
      "anonymous": false,
      "inputs": [
        {
          "indexed": true,
          "internalType": "address",
          "name": "from",
          "type": "address"
        },
        {
          "indexed": true,
          "internalType": "address",
          "name": "to",
          "type": "address"
        }
      ],
      "name": "NewPendingOwnership",
      "type": "event"
    },
    {
      "anonymous": false,
      "inputs": [
        {
          "indexed": true,
          "internalType": "address",
          "name": "from",
          "type": "address"
        },
        {
          "indexed": true,
          "internalType": "address",
          "name": "to",
          "type": "address"
        },
        {
          "indexed": false,
          "internalType": "uint256",
          "name": "value",
          "type": "uint256"
        }
      ],
      "name": "Transfer",
      "type": "event"
    },
    {
      "inputs": [],
      "name": "acceptOwnership",
      "outputs": [],
      "stateMutability": "nonpayable",
      "type": "function"
    },
    {
      "inputs": [
        {
          "internalType": "contract IGraphProxy",
          "name": "_proxy",
          "type": "address"
        }
      ],
      "name": "acceptProxy",
      "outputs": [],
      "stateMutability": "nonpayable",
      "type": "function"
    },
    {
      "inputs": [
        {
          "internalType": "contract IGraphProxy",
          "name": "_proxy",
          "type": "address"
        },
        {
          "internalType": "bytes",
          "name": "_data",
          "type": "bytes"
        }
      ],
      "name": "acceptProxyAndCall",
      "outputs": [],
      "stateMutability": "nonpayable",
      "type": "function"
    },
    {
      "inputs": [
        {
          "internalType": "address",
          "name": "_account",
          "type": "address"
        }
      ],
      "name": "addMinter",
      "outputs": [],
      "stateMutability": "nonpayable",
      "type": "function"
    },
    {
      "inputs": [
        {
          "internalType": "address",
          "name": "owner",
          "type": "address"
        },
        {
          "internalType": "address",
          "name": "spender",
          "type": "address"
        }
      ],
      "name": "allowance",
      "outputs": [
        {
          "internalType": "uint256",
          "name": "",
          "type": "uint256"
        }
      ],
      "stateMutability": "view",
      "type": "function"
    },
    {
      "inputs": [
        {
          "internalType": "address",
          "name": "spender",
          "type": "address"
        },
        {
          "internalType": "uint256",
          "name": "amount",
          "type": "uint256"
        }
      ],
      "name": "approve",
      "outputs": [
        {
          "internalType": "bool",
          "name": "",
          "type": "bool"
        }
      ],
      "stateMutability": "nonpayable",
      "type": "function"
    },
    {
      "inputs": [
        {
          "internalType": "address",
          "name": "account",
          "type": "address"
        }
      ],
      "name": "balanceOf",
      "outputs": [
        {
          "internalType": "uint256",
          "name": "",
          "type": "uint256"
        }
      ],
      "stateMutability": "view",
      "type": "function"
    },
    {
      "inputs": [
        {
          "internalType": "address",
          "name": "_account",
          "type": "address"
        },
        {
          "internalType": "uint256",
          "name": "_amount",
          "type": "uint256"
        }
      ],
      "name": "bridgeBurn",
      "outputs": [],
      "stateMutability": "nonpayable",
      "type": "function"
    },
    {
      "inputs": [
        {
          "internalType": "address",
          "name": "_account",
          "type": "address"
        },
        {
          "internalType": "uint256",
          "name": "_amount",
          "type": "uint256"
        }
      ],
      "name": "bridgeMint",
      "outputs": [],
      "stateMutability": "nonpayable",
      "type": "function"
    },
    {
      "inputs": [
        {
          "internalType": "uint256",
          "name": "amount",
          "type": "uint256"
        }
      ],
      "name": "burn",
      "outputs": [],
      "stateMutability": "nonpayable",
      "type": "function"
    },
    {
      "inputs": [
        {
          "internalType": "address",
          "name": "account",
          "type": "address"
        },
        {
          "internalType": "uint256",
          "name": "amount",
          "type": "uint256"
        }
      ],
      "name": "burnFrom",
      "outputs": [],
      "stateMutability": "nonpayable",
      "type": "function"
    },
    {
      "inputs": [],
      "name": "decimals",
      "outputs": [
        {
          "internalType": "uint8",
          "name": "",
          "type": "uint8"
        }
      ],
      "stateMutability": "view",
      "type": "function"
    },
    {
      "inputs": [
        {
          "internalType": "address",
          "name": "spender",
          "type": "address"
        },
        {
          "internalType": "uint256",
          "name": "subtractedValue",
          "type": "uint256"
        }
      ],
      "name": "decreaseAllowance",
      "outputs": [
        {
          "internalType": "bool",
          "name": "",
          "type": "bool"
        }
      ],
      "stateMutability": "nonpayable",
      "type": "function"
    },
    {
      "inputs": [],
      "name": "gateway",
      "outputs": [
        {
          "internalType": "address",
          "name": "",
          "type": "address"
        }
      ],
      "stateMutability": "view",
      "type": "function"
    },
    {
      "inputs": [],
      "name": "governor",
      "outputs": [
        {
          "internalType": "address",
          "name": "",
          "type": "address"
        }
      ],
      "stateMutability": "view",
      "type": "function"
    },
    {
      "inputs": [
        {
          "internalType": "address",
          "name": "spender",
          "type": "address"
        },
        {
          "internalType": "uint256",
          "name": "addedValue",
          "type": "uint256"
        }
      ],
      "name": "increaseAllowance",
      "outputs": [
        {
          "internalType": "bool",
          "name": "",
          "type": "bool"
        }
      ],
      "stateMutability": "nonpayable",
      "type": "function"
    },
    {
      "inputs": [
        {
          "internalType": "address",
          "name": "_owner",
          "type": "address"
        }
      ],
      "name": "initialize",
      "outputs": [],
      "stateMutability": "nonpayable",
      "type": "function"
    },
    {
      "inputs": [
        {
          "internalType": "address",
          "name": "_account",
          "type": "address"
        }
      ],
      "name": "isMinter",
      "outputs": [
        {
          "internalType": "bool",
          "name": "",
          "type": "bool"
        }
      ],
      "stateMutability": "view",
      "type": "function"
    },
    {
      "inputs": [],
      "name": "l1Address",
      "outputs": [
        {
          "internalType": "address",
          "name": "",
          "type": "address"
        }
      ],
      "stateMutability": "view",
      "type": "function"
    },
    {
      "inputs": [
        {
          "internalType": "address",
          "name": "_to",
          "type": "address"
        },
        {
          "internalType": "uint256",
          "name": "_amount",
          "type": "uint256"
        }
      ],
      "name": "mint",
      "outputs": [],
      "stateMutability": "nonpayable",
      "type": "function"
    },
    {
      "inputs": [],
      "name": "name",
      "outputs": [
        {
          "internalType": "string",
          "name": "",
          "type": "string"
        }
      ],
      "stateMutability": "view",
      "type": "function"
    },
    {
      "inputs": [
        {
          "internalType": "address",
          "name": "",
          "type": "address"
        }
      ],
      "name": "nonces",
      "outputs": [
        {
          "internalType": "uint256",
          "name": "",
          "type": "uint256"
        }
      ],
      "stateMutability": "view",
      "type": "function"
    },
    {
      "inputs": [],
      "name": "pendingGovernor",
      "outputs": [
        {
          "internalType": "address",
          "name": "",
          "type": "address"
        }
      ],
      "stateMutability": "view",
      "type": "function"
    },
    {
      "inputs": [
        {
          "internalType": "address",
          "name": "_owner",
          "type": "address"
        },
        {
          "internalType": "address",
          "name": "_spender",
          "type": "address"
        },
        {
          "internalType": "uint256",
          "name": "_value",
          "type": "uint256"
        },
        {
          "internalType": "uint256",
          "name": "_deadline",
          "type": "uint256"
        },
        {
          "internalType": "uint8",
          "name": "_v",
          "type": "uint8"
        },
        {
          "internalType": "bytes32",
          "name": "_r",
          "type": "bytes32"
        },
        {
          "internalType": "bytes32",
          "name": "_s",
          "type": "bytes32"
        }
      ],
      "name": "permit",
      "outputs": [],
      "stateMutability": "nonpayable",
      "type": "function"
    },
    {
      "inputs": [
        {
          "internalType": "address",
          "name": "_account",
          "type": "address"
        }
      ],
      "name": "removeMinter",
      "outputs": [],
      "stateMutability": "nonpayable",
      "type": "function"
    },
    {
      "inputs": [],
      "name": "renounceMinter",
      "outputs": [],
      "stateMutability": "nonpayable",
      "type": "function"
    },
    {
      "inputs": [
        {
          "internalType": "address",
          "name": "_gw",
          "type": "address"
        }
      ],
      "name": "setGateway",
      "outputs": [],
      "stateMutability": "nonpayable",
      "type": "function"
    },
    {
      "inputs": [
        {
          "internalType": "address",
          "name": "_addr",
          "type": "address"
        }
      ],
      "name": "setL1Address",
      "outputs": [],
      "stateMutability": "nonpayable",
      "type": "function"
    },
    {
      "inputs": [],
      "name": "symbol",
      "outputs": [
        {
          "internalType": "string",
          "name": "",
          "type": "string"
        }
      ],
      "stateMutability": "view",
      "type": "function"
    },
    {
      "inputs": [],
      "name": "totalSupply",
      "outputs": [
        {
          "internalType": "uint256",
          "name": "",
          "type": "uint256"
        }
      ],
      "stateMutability": "view",
      "type": "function"
    },
    {
      "inputs": [
        {
          "internalType": "address",
          "name": "recipient",
          "type": "address"
        },
        {
          "internalType": "uint256",
          "name": "amount",
          "type": "uint256"
        }
      ],
      "name": "transfer",
      "outputs": [
        {
          "internalType": "bool",
          "name": "",
          "type": "bool"
        }
      ],
      "stateMutability": "nonpayable",
      "type": "function"
    },
    {
      "inputs": [
        {
          "internalType": "address",
          "name": "sender",
          "type": "address"
        },
        {
          "internalType": "address",
          "name": "recipient",
          "type": "address"
        },
        {
          "internalType": "uint256",
          "name": "amount",
          "type": "uint256"
        }
      ],
      "name": "transferFrom",
      "outputs": [
        {
          "internalType": "bool",
          "name": "",
          "type": "bool"
        }
      ],
      "stateMutability": "nonpayable",
      "type": "function"
    },
    {
      "inputs": [
        {
          "internalType": "address",
          "name": "_newGovernor",
          "type": "address"
        }
      ],
      "name": "transferOwnership",
      "outputs": [],
      "stateMutability": "nonpayable",
      "type": "function"
    }
  ],
  "bytecode": "0x6101206040527fd87cd6ef79d4e2b95e15ce8abf732db51ec771f1ca2edccf22a46c729ac564726080527fefcec85968da792893fa503eb21730083fc6c50ed5461e56163b28335b2a5f9660a0527f044852b2a670ade5407e78fb2863c51de9fcb96542a07186fe3aeda6bb8a116d60c0527fe33842a7acd1d5a1d28f25a931703e5605152dc48d64dc4716efdae1f565959160e0527f6e71edae12b1b97f4d1f60370fef10105fa2faae0126114a169c64845d6126c9610100523480156100c657600080fd5b5060805160a05160c05160e0516101005161261e61010660003980611547525080611eae525080611e5e525080611e3d525080611e1c525061261e6000f3fe608060405234801561001057600080fd5b50600436106101fb5760003560e01c80638c2a993e1161011a578063a9059cbb116100ad578063ca52d7d71161007c578063ca52d7d71461067a578063d505accf146106a0578063dd62ed3e146106f1578063e3056a341461071f578063f2fde38b14610727576101fb565b8063a9059cbb146105fa578063aa271e1a14610626578063c2eeeebd1461064c578063c4d66de814610654576101fb565b806398650275116100e957806398650275146105205780639ce7abe514610528578063a2594d82146105a8578063a457c2d7146105ce576101fb565b80638c2a993e146104a057806390646b4a146104cc57806395d89b41146104f2578063983b2d56146104fa576101fb565b8063395093511161019257806374f4f5471161016157806374f4f5471461041a57806379ba50971461044657806379cc67901461044e5780637ecebe001461047a576101fb565b8063395093511461037f57806340c10f19146103ab57806342966c68146103d757806370a08231146103f4576101fb565b806318160ddd116101ce57806318160ddd146102e957806323b872dd146103035780633092afd514610339578063313ce56714610361576101fb565b806306fdde0314610200578063095ea7b31461027d5780630c340a24146102bd578063116191b6146102e1575b600080fd5b61020861074d565b6040805160208082528351818301528351919283929083019185019080838360005b8381101561024257818101518382015260200161022a565b50505050905090810190601f16801561026f5780820380516001836020036101000a031916815260200191505b509250505060405180910390f35b6102a96004803603604081101561029357600080fd5b506001600160a01b0381351690602001356107e3565b604080519115158252519081900360200190f35b6102c5610800565b604080516001600160a01b039092168252519081900360200190f35b6102c561080f565b6102f161081e565b60408051918252519081900360200190f35b6102a96004803603606081101561031957600080fd5b506001600160a01b03813581169160208101359091169060400135610824565b61035f6004803603602081101561034f57600080fd5b50356001600160a01b03166108ab565b005b610369610958565b6040805160ff9092168252519081900360200190f35b6102a96004803603604081101561039557600080fd5b506001600160a01b038135169060200135610961565b61035f600480360360408110156103c157600080fd5b506001600160a01b0381351690602001356109af565b61035f600480360360208110156103ed57600080fd5b5035610a0e565b6102f16004803603602081101561040a57600080fd5b50356001600160a01b0316610a1f565b61035f6004803603604081101561043057600080fd5b506001600160a01b038135169060200135610a3a565b61035f610ad4565b61035f6004803603604081101561046457600080fd5b506001600160a01b038135169060200135610be2565b6102f16004803603602081101561049057600080fd5b50356001600160a01b0316610c3c565b61035f600480360360408110156104b657600080fd5b506001600160a01b038135169060200135610c4e565b61035f600480360360208110156104e257600080fd5b50356001600160a01b0316610ce8565b610208610de1565b61035f6004803603602081101561051057600080fd5b50356001600160a01b0316610e42565b61035f610eef565b61035f6004803603604081101561053e57600080fd5b6001600160a01b03823516919081019060408101602082013564010000000081111561056957600080fd5b82018360208201111561057b57600080fd5b8035906020019184600183028401116401000000008311171561059d57600080fd5b509092509050610f43565b61035f600480360360208110156105be57600080fd5b50356001600160a01b0316611099565b6102a9600480360360408110156105e457600080fd5b506001600160a01b0381351690602001356111b4565b6102a96004803603604081101561061057600080fd5b506001600160a01b03813516906020013561121c565b6102a96004803603602081101561063c57600080fd5b50356001600160a01b0316611230565b6102c561124e565b61035f6004803603602081101561066a57600080fd5b50356001600160a01b031661125d565b61035f6004803603602081101561069057600080fd5b50356001600160a01b03166113d3565b61035f600480360360e08110156106b657600080fd5b506001600160a01b03813581169160208101359091169060408101359060608101359060ff6080820135169060a08101359060c001356114cf565b6102f16004803603604081101561070757600080fd5b506001600160a01b0381358116916020013516611680565b6102c56116ab565b61035f6004803603602081101561073d57600080fd5b50356001600160a01b03166116ba565b60378054604080516020601f60026000196101006001881615020190951694909404938401819004810282018101909252828152606093909290918301828280156107d95780601f106107ae576101008083540402835291602001916107d9565b820191906000526020600020905b8154815290600101906020018083116107bc57829003601f168201915b5050505050905090565b60006107f76107f06117b8565b84846117bc565b50600192915050565b6000546001600160a01b031681565b60ca546001600160a01b031681565b60365490565b60006108318484846118a8565b6108a18461083d6117b8565b61089c8560405180606001604052806028815260200161250e602891396001600160a01b038a1660009081526035602052604081209061087b6117b8565b6001600160a01b031681526020810191909152604001600020549190611a05565b6117bc565b5060019392505050565b6000546001600160a01b03163314610903576040805162461bcd60e51b815260206004820152601660248201527513db9b1e4811dbdd995c9b9bdc8818d85b8818d85b1b60521b604482015290519081900360640190fd5b61090c81611230565b61094c576040805162461bcd60e51b815260206004820152600c60248201526b2727aa2fa0afa6a4a72a22a960a11b604482015290519081900360640190fd5b61095581611a9c565b50565b60395460ff1690565b60006107f761096e6117b8565b8461089c856035600061097f6117b8565b6001600160a01b03908116825260208083019390935260409182016000908120918c168152925290205490611ae5565b6109b833611230565b610a00576040805162461bcd60e51b815260206004820152601460248201527313db9b1e481b5a5b9d195c8818d85b8818d85b1b60621b604482015290519081900360640190fd5b610a0a8282611b46565b5050565b610955610a196117b8565b82611c38565b6001600160a01b031660009081526034602052604090205490565b60ca546001600160a01b03163314610a87576040805162461bcd60e51b815260206004820152600b60248201526a4e4f545f4741544557415960a81b604482015290519081900360640190fd5b610a918282610be2565b6040805182815290516001600160a01b038416917fe87aeeb22c5753db7f543198a4c3089d2233040ea9d1cab0eaa3b96d94d4fc6e919081900360200190a25050565b6001546001600160a01b03168015801590610af75750336001600160a01b038216145b610b48576040805162461bcd60e51b815260206004820152601f60248201527f43616c6c6572206d7573742062652070656e64696e6720676f7665726e6f7200604482015290519081900360640190fd5b600080546001600160a01b038381166001600160a01b031980841691909117808555600180549092169091556040519282169391169183917f0ac6deed30eef60090c749850e10f2fa469e3e25fec1d1bef2853003f6e6f18f91a36001546040516001600160a01b03918216918416907f76563ad561b7036ae716b9b25cb521b21463240f104c97e12f25877f2235f33d90600090a35050565b6000610c198260405180606001604052806024815260200161253660249139610c1286610c0d6117b8565b611680565b9190611a05565b9050610c2d83610c276117b8565b836117bc565b610c378383611c38565b505050565b609a6020526000908152604090205481565b60ca546001600160a01b03163314610c9b576040805162461bcd60e51b815260206004820152600b60248201526a4e4f545f4741544557415960a81b604482015290519081900360640190fd5b610ca58282611b46565b6040805182815290516001600160a01b038416917fae4b6e741e38054ad6705655cc56c91c184f6768f76b41e10803e2766d89e19f919081900360200190a25050565b6000546001600160a01b03163314610d40576040805162461bcd60e51b815260206004820152601660248201527513db9b1e4811dbdd995c9b9bdc8818d85b8818d85b1b60521b604482015290519081900360640190fd5b6001600160a01b038116610d8d576040805162461bcd60e51b815260206004820152600f60248201526e494e56414c49445f4741544557415960881b604482015290519081900360640190fd5b60ca80546001600160a01b0383166001600160a01b0319909116811790915560408051918252517f5317fa585931182194fed99f2ea5f2efd38af9cff9724273704c8501c521e34b9181900360200190a150565b60388054604080516020601f60026000196101006001881615020190951694909404938401819004810282018101909252828152606093909290918301828280156107d95780601f106107ae576101008083540402835291602001916107d9565b6000546001600160a01b03163314610e9a576040805162461bcd60e51b815260206004820152601660248201527513db9b1e4811dbdd995c9b9bdc8818d85b8818d85b1b60521b604482015290519081900360640190fd5b6001600160a01b038116610ee6576040805162461bcd60e51b815260206004820152600e60248201526d24a72b20a624a22fa6a4a72a22a960911b604482015290519081900360640190fd5b61095581611d34565b610ef833611230565b610f38576040805162461bcd60e51b815260206004820152600c60248201526b2727aa2fa0afa6a4a72a22a960a11b604482015290519081900360640190fd5b610f4133611a9c565b565b82806001600160a01b031663f851a4406040518163ffffffff1660e01b8152600401602060405180830381600087803b158015610f7f57600080fd5b505af1158015610f93573d6000803e3d6000fd5b505050506040513d6020811015610fa957600080fd5b50516001600160a01b03163314611007576040805162461bcd60e51b815260206004820152601e60248201527f43616c6c6572206d757374206265207468652070726f78792061646d696e0000604482015290519081900360640190fd5b60405163623faf6160e01b8152602060048201908152602482018490526001600160a01b0386169163623faf619186918691908190604401848480828437600081840152601f19601f8201169050808301925050509350505050600060405180830381600087803b15801561107b57600080fd5b505af115801561108f573d6000803e3d6000fd5b5050505050505050565b80806001600160a01b031663f851a4406040518163ffffffff1660e01b8152600401602060405180830381600087803b1580156110d557600080fd5b505af11580156110e9573d6000803e3d6000fd5b505050506040513d60208110156110ff57600080fd5b50516001600160a01b0316331461115d576040805162461bcd60e51b815260206004820152601e60248201527f43616c6c6572206d757374206265207468652070726f78792061646d696e0000604482015290519081900360640190fd5b816001600160a01b03166359fc20bb6040518163ffffffff1660e01b8152600401600060405180830381600087803b15801561119857600080fd5b505af11580156111ac573d6000803e3d6000fd5b505050505050565b60006107f76111c16117b8565b8461089c856040518060600160405280602581526020016125c460259139603560006111eb6117b8565b6001600160a01b03908116825260208083019390935260409182016000908120918d16815292529020549190611a05565b60006107f76112296117b8565b84846118a8565b6001600160a01b031660009081526099602052604090205460ff1690565b60cb546001600160a01b031681565b611265611d80565b6001600160a01b0316336001600160a01b0316146112c0576040805162461bcd60e51b815260206004820152601360248201527227b7363c9034b6b83632b6b2b73a30ba34b7b760691b604482015290519081900360640190fd5b600154600160a81b900460ff16806112db57506112db611da5565b806112f05750600154600160a01b900460ff16155b61132b5760405162461bcd60e51b815260040180806020018281038252602e8152602001806124be602e913960400191505060405180910390fd5b600154600160a81b900460ff16158015611362576001805460ff60a01b1960ff60a81b19909116600160a81b1716600160a01b1790555b6001600160a01b0382166113b1576040805162461bcd60e51b815260206004820152601160248201527013dddb995c881b5d5cdd081899481cd95d607a1b604482015290519081900360640190fd5b6113bc826000611db6565b8015610a0a576001805460ff60a81b191690555050565b6000546001600160a01b0316331461142b576040805162461bcd60e51b815260206004820152601660248201527513db9b1e4811dbdd995c9b9bdc8818d85b8818d85b1b60521b604482015290519081900360640190fd5b6001600160a01b03811661147b576040805162461bcd60e51b8152602060048201526012602482015271494e56414c49445f4c315f4144445245535360701b604482015290519081900360640190fd5b60cb80546001600160a01b0383166001600160a01b0319909116811790915560408051918252517f603c0b2e4494ac82839a70be8b6c660d7d042ccfe71c3ce0e5157f59090e74459181900360200190a150565b8315806114dc5750834211155b611523576040805162461bcd60e51b815260206004820152601360248201527211d4950e88195e1c1a5c9959081c195c9b5a5d606a1b604482015290519081900360640190fd5b6098546001600160a01b038089166000818152609a602090815260408083205481517f00000000000000000000000000000000000000000000000000000000000000008185015280830195909552948c166060850152608084018b905260a084019490945260c08084018a90528451808503909101815260e08401855280519082012061190160f01b61010085015261010284019590955261012280840195909552835180840390950185526101429092019092528251920191909120906115ed82868686611ef3565b9050806001600160a01b0316896001600160a01b03161461164b576040805162461bcd60e51b815260206004820152601360248201527211d4950e881a5b9d985b1a59081c195c9b5a5d606a1b604482015290519081900360640190fd5b6001600160a01b0389166000908152609a60205260409020805460010190556116758989896117bc565b505050505050505050565b6001600160a01b03918216600090815260356020908152604080832093909416825291909152205490565b6001546001600160a01b031681565b6000546001600160a01b03163314611712576040805162461bcd60e51b815260206004820152601660248201527513db9b1e4811dbdd995c9b9bdc8818d85b8818d85b1b60521b604482015290519081900360640190fd5b6001600160a01b038116611764576040805162461bcd60e51b815260206004820152601460248201527311dbdd995c9b9bdc881b5d5cdd081899481cd95d60621b604482015290519081900360640190fd5b600180546001600160a01b038381166001600160a01b03198316179283905560405191811692169082907f76563ad561b7036ae716b9b25cb521b21463240f104c97e12f25877f2235f33d90600090a35050565b3390565b6001600160a01b0383166118015760405162461bcd60e51b81526004018080602001828103825260248152602001806125a06024913960400191505060405180910390fd5b6001600160a01b0382166118465760405162461bcd60e51b81526004018080602001828103825260228152602001806124546022913960400191505060405180910390fd5b6001600160a01b03808416600081815260356020908152604080832094871680845294825291829020859055815185815291517f8c5be1e5ebec7d5bd14f71427d1e84f3dd0314c0f7b2291e5b200ac8c7c3b9259281900390910190a3505050565b6001600160a01b0383166118ed5760405162461bcd60e51b815260040180806020018281038252602581526020018061257b6025913960400191505060405180910390fd5b6001600160a01b0382166119325760405162461bcd60e51b815260040180806020018281038252602381526020018061240f6023913960400191505060405180910390fd5b61193d838383610c37565b61197a81604051806060016040528060268152602001612476602691396001600160a01b0386166000908152603460205260409020549190611a05565b6001600160a01b0380851660009081526034602052604080822093909355908416815220546119a99082611ae5565b6001600160a01b0380841660008181526034602090815260409182902094909455805185815290519193928716927fddf252ad1be2c89b69c2b068fc378daa952ba7f163c4a11628f55a4df523b3ef92918290030190a3505050565b60008184841115611a945760405162461bcd60e51b81526004018080602001828103825283818151815260200191508051906020019080838360005b83811015611a59578181015183820152602001611a41565b50505050905090810190601f168015611a865780820380516001836020036101000a031916815260200191505b509250505060405180910390fd5b505050900390565b6001600160a01b038116600081815260996020526040808220805460ff19169055517fe94479a9f7e1952cc78f2d6baab678adc1b772d936c6583def489e524cb666929190a250565b600082820183811015611b3f576040805162461bcd60e51b815260206004820152601b60248201527f536166654d6174683a206164646974696f6e206f766572666c6f770000000000604482015290519081900360640190fd5b9392505050565b6001600160a01b038216611ba1576040805162461bcd60e51b815260206004820152601f60248201527f45524332303a206d696e7420746f20746865207a65726f206164647265737300604482015290519081900360640190fd5b611bad60008383610c37565b603654611bba9082611ae5565b6036556001600160a01b038216600090815260346020526040902054611be09082611ae5565b6001600160a01b03831660008181526034602090815260408083209490945583518581529351929391927fddf252ad1be2c89b69c2b068fc378daa952ba7f163c4a11628f55a4df523b3ef9281900390910190a35050565b6001600160a01b038216611c7d5760405162461bcd60e51b815260040180806020018281038252602181526020018061255a6021913960400191505060405180910390fd5b611c8982600083610c37565b611cc681604051806060016040528060228152602001612432602291396001600160a01b0385166000908152603460205260409020549190611a05565b6001600160a01b038316600090815260346020526040902055603654611cec9082612071565b6036556040805182815290516000916001600160a01b038516917fddf252ad1be2c89b69c2b068fc378daa952ba7f163c4a11628f55a4df523b3ef9181900360200190a35050565b6001600160a01b038116600081815260996020526040808220805460ff19166001179055517f6ae172837ea30b801fbfcdd4108aa1d5bf8ff775444fd70256b44e6bf3dfc3f69190a250565b7f360894a13ba1a3210667c828492db98dca3e2076cc3735a920a3ca505d382bbc5490565b6000611db0306120ce565b15905090565b611dfe6040518060400160405280600b81526020016a23b930b834102a37b5b2b760a91b8152506040518060400160405280600381526020016211d49560ea1b8152506120d4565b611e07826121a0565b611e118282611b46565b611e1a82611d34565b7f00000000000000000000000000000000000000000000000000000000000000007f00000000000000000000000000000000000000000000000000000000000000007f0000000000000000000000000000000000000000000000000000000000000000611e856121c2565b6040805160208082019690965280820194909452606084019290925260808301523060a08301527f000000000000000000000000000000000000000000000000000000000000000060c0808401919091528151808403909101815260e0909201905280519101206098555050565b60007f7fffffffffffffffffffffffffffffff5d576e7357a4501ddfe92f46681b20a0821115611f545760405162461bcd60e51b815260040180806020018281038252602281526020018061249c6022913960400191505060405180910390fd5b8360ff16601b1480611f6957508360ff16601c145b611fa45760405162461bcd60e51b81526004018080602001828103825260228152602001806124ec6022913960400191505060405180910390fd5b600060018686868660405160008152602001604052604051808581526020018460ff1681526020018381526020018281526020019450505050506020604051602081039080840390855afa158015612000573d6000803e3d6000fd5b5050604051601f1901519150506001600160a01b038116612068576040805162461bcd60e51b815260206004820152601860248201527f45434453413a20696e76616c6964207369676e61747572650000000000000000604482015290519081900360640190fd5b95945050505050565b6000828211156120c8576040805162461bcd60e51b815260206004820152601e60248201527f536166654d6174683a207375627472616374696f6e206f766572666c6f770000604482015290519081900360640190fd5b50900390565b3b151590565b600154600160a81b900460ff16806120ef57506120ef611da5565b806121045750600154600160a01b900460ff16155b61213f5760405162461bcd60e51b815260040180806020018281038252602e8152602001806124be602e913960400191505060405180910390fd5b600154600160a81b900460ff16158015612176576001805460ff60a01b1960ff60a81b19909116600160a81b1716600160a01b1790555b61217e6121c6565b612188838361227e565b8015610c37576001805460ff60a81b19169055505050565b600080546001600160a01b0319166001600160a01b0392909216919091179055565b4690565b600154600160a81b900460ff16806121e157506121e1611da5565b806121f65750600154600160a01b900460ff16155b6122315760405162461bcd60e51b815260040180806020018281038252602e8152602001806124be602e913960400191505060405180910390fd5b600154600160a81b900460ff16158015612268576001805460ff60a01b1960ff60a81b19909116600160a81b1716600160a01b1790555b8015610955576001805460ff60a81b1916905550565b600154600160a81b900460ff16806122995750612299611da5565b806122ae5750600154600160a01b900460ff16155b6122e95760405162461bcd60e51b815260040180806020018281038252602e8152602001806124be602e913960400191505060405180910390fd5b600154600160a81b900460ff16158015612320576001805460ff60a01b1960ff60a81b19909116600160a81b1716600160a01b1790555b825161233390603790602086019061236d565b50815161234790603890602085019061236d565b506039805460ff191660121790558015610c37576001805460ff60a81b19169055505050565b828054600181600116156101000203166002900490600052602060002090601f0160209004810192826123a357600085556123e9565b82601f106123bc57805160ff19168380011785556123e9565b828001600101855582156123e9579182015b828111156123e95782518255916020019190600101906123ce565b506123f59291506123f9565b5090565b5b808211156123f557600081556001016123fa56fe45524332303a207472616e7366657220746f20746865207a65726f206164647265737345524332303a206275726e20616d6f756e7420657863656564732062616c616e636545524332303a20617070726f766520746f20746865207a65726f206164647265737345524332303a207472616e7366657220616d6f756e7420657863656564732062616c616e636545434453413a20696e76616c6964207369676e6174757265202773272076616c7565496e697469616c697a61626c653a20636f6e747261637420697320616c726561647920696e697469616c697a656445434453413a20696e76616c6964207369676e6174757265202776272076616c756545524332303a207472616e7366657220616d6f756e74206578636565647320616c6c6f77616e636545524332303a206275726e20616d6f756e74206578636565647320616c6c6f77616e636545524332303a206275726e2066726f6d20746865207a65726f206164647265737345524332303a207472616e736665722066726f6d20746865207a65726f206164647265737345524332303a20617070726f76652066726f6d20746865207a65726f206164647265737345524332303a2064656372656173656420616c6c6f77616e63652062656c6f77207a65726fa2646970667358221220ff9ed43c1b257716d58111b6358b62039b7d7359bc9f0f142332535a4370cafe64736f6c63430007060033",
  "linkReferences": {},
  "deployedLinkReferences": {}
}