{
  "_format": "hh-sol-artifact-1",
  "contractName": "PaymentsEscrow",
  "sourceName": "contracts/payments/PaymentsEscrow.sol",
  "abi": [
    {
      "inputs": [
        {
          "internalType": "address",
          "name": "controller",
          "type": "address"
        },
        {
          "internalType": "uint256",
          "name": "revokeCollectorThawingPeriod",
          "type": "uint256"
        },
        {
          "internalType": "uint256",
          "name": "withdrawEscrowThawingPeriod",
          "type": "uint256"
        }
      ],
      "stateMutability": "nonpayable",
      "type": "constructor"
    },
    {
      "inputs": [
        {
          "internalType": "address",
          "name": "target",
          "type": "address"
        }
      ],
      "name": "AddressEmptyCode",
      "type": "error"
    },
    {
      "inputs": [],
      "name": "FailedInnerCall",
      "type": "error"
    },
    {
      "inputs": [
        {
          "internalType": "bytes",
          "name": "contractName",
          "type": "bytes"
        }
      ],
      "name": "GraphDirectoryInvalidZeroAddress",
      "type": "error"
    },
    {
      "inputs": [],
      "name": "InvalidInitialization",
      "type": "error"
    },
    {
      "inputs": [],
      "name": "NotInitializing",
      "type": "error"
    },
    {
      "inputs": [
        {
          "internalType": "uint256",
          "name": "balanceBefore",
          "type": "uint256"
        },
        {
          "internalType": "uint256",
          "name": "balanceAfter",
          "type": "uint256"
        },
        {
          "internalType": "uint256",
          "name": "tokens",
          "type": "uint256"
        }
      ],
      "name": "PaymentsEscrowInconsistentCollection",
      "type": "error"
    },
    {
      "inputs": [
        {
          "internalType": "uint256",
          "name": "allowance",
          "type": "uint256"
        },
        {
          "internalType": "uint256",
          "name": "minAllowance",
          "type": "uint256"
        }
      ],
      "name": "PaymentsEscrowInsufficientAllowance",
      "type": "error"
    },
    {
      "inputs": [
        {
          "internalType": "uint256",
          "name": "balance",
          "type": "uint256"
        },
        {
          "internalType": "uint256",
          "name": "minBalance",
          "type": "uint256"
        }
      ],
      "name": "PaymentsEscrowInsufficientBalance",
      "type": "error"
    },
    {
      "inputs": [],
      "name": "PaymentsEscrowInvalidZeroTokens",
      "type": "error"
    },
    {
      "inputs": [],
      "name": "PaymentsEscrowIsPaused",
      "type": "error"
    },
    {
      "inputs": [],
      "name": "PaymentsEscrowNotThawing",
      "type": "error"
    },
    {
      "inputs": [
        {
          "internalType": "uint256",
          "name": "currentTimestamp",
          "type": "uint256"
        },
        {
          "internalType": "uint256",
          "name": "thawEndTimestamp",
          "type": "uint256"
        }
      ],
      "name": "PaymentsEscrowStillThawing",
      "type": "error"
    },
    {
      "inputs": [
        {
          "internalType": "uint256",
          "name": "thawingPeriod",
          "type": "uint256"
        },
        {
          "internalType": "uint256",
          "name": "maxWaitPeriod",
          "type": "uint256"
        }
      ],
      "name": "PaymentsEscrowThawingPeriodTooLong",
      "type": "error"
    },
    {
      "anonymous": false,
      "inputs": [
        {
          "indexed": true,
          "internalType": "address",
          "name": "payer",
          "type": "address"
        },
        {
          "indexed": true,
          "internalType": "address",
          "name": "collector",
          "type": "address"
        },
        {
          "indexed": false,
          "internalType": "uint256",
          "name": "addedAllowance",
          "type": "uint256"
        },
        {
          "indexed": false,
          "internalType": "uint256",
          "name": "newTotalAllowance",
          "type": "uint256"
        }
      ],
      "name": "AuthorizedCollector",
      "type": "event"
    },
    {
      "anonymous": false,
      "inputs": [
        {
          "indexed": true,
          "internalType": "address",
          "name": "payer",
          "type": "address"
        },
        {
          "indexed": true,
          "internalType": "address",
          "name": "receiver",
          "type": "address"
        }
      ],
      "name": "CancelThaw",
      "type": "event"
    },
    {
      "anonymous": false,
      "inputs": [
        {
          "indexed": true,
          "internalType": "address",
          "name": "payer",
          "type": "address"
        },
        {
          "indexed": true,
          "internalType": "address",
          "name": "collector",
          "type": "address"
        }
      ],
      "name": "CancelThawCollector",
      "type": "event"
    },
    {
      "anonymous": false,
      "inputs": [
        {
          "indexed": true,
          "internalType": "address",
          "name": "payer",
          "type": "address"
        },
        {
          "indexed": true,
          "internalType": "address",
          "name": "collector",
          "type": "address"
        },
        {
          "indexed": true,
          "internalType": "address",
          "name": "receiver",
          "type": "address"
        },
        {
          "indexed": false,
          "internalType": "uint256",
          "name": "tokens",
          "type": "uint256"
        }
      ],
      "name": "Deposit",
      "type": "event"
    },
    {
      "anonymous": false,
      "inputs": [
        {
          "indexed": true,
          "internalType": "address",
          "name": "payer",
          "type": "address"
        },
        {
          "indexed": true,
          "internalType": "address",
          "name": "collector",
          "type": "address"
        },
        {
          "indexed": true,
          "internalType": "address",
          "name": "receiver",
          "type": "address"
        },
        {
          "indexed": false,
          "internalType": "uint256",
          "name": "tokens",
          "type": "uint256"
        }
      ],
      "name": "EscrowCollected",
      "type": "event"
    },
    {
      "anonymous": false,
      "inputs": [
        {
          "indexed": true,
          "internalType": "address",
          "name": "graphToken",
          "type": "address"
        },
        {
          "indexed": true,
          "internalType": "address",
          "name": "graphStaking",
          "type": "address"
        },
        {
          "indexed": false,
          "internalType": "address",
          "name": "graphPayments",
          "type": "address"
        },
        {
          "indexed": false,
          "internalType": "address",
          "name": "graphEscrow",
          "type": "address"
        },
        {
          "indexed": true,
          "internalType": "address",
          "name": "graphController",
          "type": "address"
        },
        {
          "indexed": false,
          "internalType": "address",
          "name": "graphEpochManager",
          "type": "address"
        },
        {
          "indexed": false,
          "internalType": "address",
          "name": "graphRewardsManager",
          "type": "address"
        },
        {
          "indexed": false,
          "internalType": "address",
          "name": "graphTokenGateway",
          "type": "address"
        },
        {
          "indexed": false,
          "internalType": "address",
          "name": "graphProxyAdmin",
          "type": "address"
        },
        {
          "indexed": false,
          "internalType": "address",
          "name": "graphCuration",
          "type": "address"
        }
      ],
      "name": "GraphDirectoryInitialized",
      "type": "event"
    },
    {
      "anonymous": false,
      "inputs": [
        {
          "indexed": false,
          "internalType": "uint64",
          "name": "version",
          "type": "uint64"
        }
      ],
      "name": "Initialized",
      "type": "event"
    },
    {
      "anonymous": false,
      "inputs": [
        {
          "indexed": true,
          "internalType": "address",
          "name": "payer",
          "type": "address"
        },
        {
          "indexed": true,
          "internalType": "address",
          "name": "collector",
          "type": "address"
        }
      ],
      "name": "RevokeCollector",
      "type": "event"
    },
    {
      "anonymous": false,
      "inputs": [
        {
          "indexed": true,
          "internalType": "address",
          "name": "payer",
          "type": "address"
        },
        {
          "indexed": true,
          "internalType": "address",
          "name": "collector",
          "type": "address"
        },
        {
          "indexed": true,
          "internalType": "address",
          "name": "receiver",
          "type": "address"
        },
        {
          "indexed": false,
          "internalType": "uint256",
          "name": "tokens",
          "type": "uint256"
        },
        {
          "indexed": false,
          "internalType": "uint256",
          "name": "thawEndTimestamp",
          "type": "uint256"
        }
      ],
      "name": "Thaw",
      "type": "event"
    },
    {
      "anonymous": false,
      "inputs": [
        {
          "indexed": true,
          "internalType": "address",
          "name": "payer",
          "type": "address"
        },
        {
          "indexed": true,
          "internalType": "address",
          "name": "collector",
          "type": "address"
        }
      ],
      "name": "ThawCollector",
      "type": "event"
    },
    {
      "anonymous": false,
      "inputs": [
        {
          "indexed": true,
          "internalType": "address",
          "name": "payer",
          "type": "address"
        },
        {
          "indexed": true,
          "internalType": "address",
          "name": "collector",
          "type": "address"
        },
        {
          "indexed": true,
          "internalType": "address",
          "name": "receiver",
          "type": "address"
        },
        {
          "indexed": false,
          "internalType": "uint256",
          "name": "tokens",
          "type": "uint256"
        }
      ],
      "name": "Withdraw",
      "type": "event"
    },
    {
      "inputs": [],
      "name": "MAX_WAIT_PERIOD",
      "outputs": [
        {
          "internalType": "uint256",
          "name": "",
          "type": "uint256"
        }
      ],
      "stateMutability": "view",
      "type": "function"
    },
    {
      "inputs": [],
      "name": "REVOKE_COLLECTOR_THAWING_PERIOD",
      "outputs": [
        {
          "internalType": "uint256",
          "name": "",
          "type": "uint256"
        }
      ],
      "stateMutability": "view",
      "type": "function"
    },
    {
      "inputs": [],
      "name": "WITHDRAW_ESCROW_THAWING_PERIOD",
      "outputs": [
        {
          "internalType": "uint256",
          "name": "",
          "type": "uint256"
        }
      ],
      "stateMutability": "view",
      "type": "function"
    },
    {
      "inputs": [
        {
          "internalType": "address",
          "name": "collector_",
          "type": "address"
        },
        {
          "internalType": "uint256",
          "name": "allowance",
          "type": "uint256"
        }
      ],
      "name": "approveCollector",
      "outputs": [],
      "stateMutability": "nonpayable",
      "type": "function"
    },
    {
      "inputs": [
        {
          "internalType": "address",
          "name": "payer",
          "type": "address"
        },
        {
          "internalType": "address",
          "name": "collector",
          "type": "address"
        }
      ],
      "name": "authorizedCollectors",
      "outputs": [
        {
          "internalType": "uint256",
          "name": "allowance",
          "type": "uint256"
        },
        {
          "internalType": "uint256",
          "name": "thawEndTimestamp",
          "type": "uint256"
        }
      ],
      "stateMutability": "view",
      "type": "function"
    },
    {
      "inputs": [
        {
          "internalType": "address",
          "name": "collector",
          "type": "address"
        }
      ],
      "name": "cancelThawCollector",
      "outputs": [],
      "stateMutability": "nonpayable",
      "type": "function"
    },
    {
      "inputs": [
        {
          "internalType": "enum IGraphPayments.PaymentTypes",
          "name": "paymentType",
          "type": "uint8"
        },
        {
          "internalType": "address",
          "name": "payer",
          "type": "address"
        },
        {
          "internalType": "address",
          "name": "receiver",
          "type": "address"
        },
        {
          "internalType": "uint256",
          "name": "tokens",
          "type": "uint256"
        },
        {
          "internalType": "address",
          "name": "dataService",
          "type": "address"
        },
        {
          "internalType": "uint256",
          "name": "tokensDataService",
          "type": "uint256"
        }
      ],
      "name": "collect",
      "outputs": [],
      "stateMutability": "nonpayable",
      "type": "function"
    },
    {
      "inputs": [
        {
          "internalType": "address",
          "name": "collector",
          "type": "address"
        },
        {
          "internalType": "address",
          "name": "receiver",
          "type": "address"
        },
        {
          "internalType": "uint256",
          "name": "tokens",
          "type": "uint256"
        }
      ],
      "name": "deposit",
      "outputs": [],
      "stateMutability": "nonpayable",
      "type": "function"
    },
    {
      "inputs": [
        {
          "internalType": "address",
          "name": "payer",
          "type": "address"
        },
        {
          "internalType": "address",
          "name": "collector",
          "type": "address"
        },
        {
          "internalType": "address",
          "name": "receiver",
          "type": "address"
        },
        {
          "internalType": "uint256",
          "name": "tokens",
          "type": "uint256"
        }
      ],
      "name": "depositTo",
      "outputs": [],
      "stateMutability": "nonpayable",
      "type": "function"
    },
    {
      "inputs": [
        {
          "internalType": "address",
          "name": "payer",
          "type": "address"
        },
        {
          "internalType": "address",
          "name": "collector",
          "type": "address"
        },
        {
          "internalType": "address",
          "name": "receiver",
          "type": "address"
        }
      ],
      "name": "escrowAccounts",
      "outputs": [
        {
          "internalType": "uint256",
          "name": "balance",
          "type": "uint256"
        },
        {
          "internalType": "uint256",
          "name": "tokensThawing",
          "type": "uint256"
        },
        {
          "internalType": "uint256",
          "name": "thawEndTimestamp",
          "type": "uint256"
        }
      ],
      "stateMutability": "view",
      "type": "function"
    },
    {
      "inputs": [
        {
          "internalType": "address",
          "name": "payer",
          "type": "address"
        },
        {
          "internalType": "address",
          "name": "collector",
          "type": "address"
        },
        {
          "internalType": "address",
          "name": "receiver",
          "type": "address"
        }
      ],
      "name": "getBalance",
      "outputs": [
        {
          "internalType": "uint256",
          "name": "",
          "type": "uint256"
        }
      ],
      "stateMutability": "view",
      "type": "function"
    },
    {
      "inputs": [],
      "name": "initialize",
      "outputs": [],
      "stateMutability": "nonpayable",
      "type": "function"
    },
    {
      "inputs": [
        {
          "internalType": "bytes[]",
          "name": "data",
          "type": "bytes[]"
        }
      ],
      "name": "multicall",
      "outputs": [
        {
          "internalType": "bytes[]",
          "name": "results",
          "type": "bytes[]"
        }
      ],
      "stateMutability": "nonpayable",
      "type": "function"
    },
    {
      "inputs": [
        {
          "internalType": "address",
          "name": "collector_",
          "type": "address"
        }
      ],
      "name": "revokeCollector",
      "outputs": [],
      "stateMutability": "nonpayable",
      "type": "function"
    },
    {
      "inputs": [
        {
          "internalType": "address",
          "name": "collector",
          "type": "address"
        },
        {
          "internalType": "address",
          "name": "receiver",
          "type": "address"
        },
        {
          "internalType": "uint256",
          "name": "tokens",
          "type": "uint256"
        }
      ],
      "name": "thaw",
      "outputs": [],
      "stateMutability": "nonpayable",
      "type": "function"
    },
    {
      "inputs": [
        {
          "internalType": "address",
          "name": "collector",
          "type": "address"
        }
      ],
      "name": "thawCollector",
      "outputs": [],
      "stateMutability": "nonpayable",
      "type": "function"
    },
    {
      "inputs": [
        {
          "internalType": "address",
          "name": "collector",
          "type": "address"
        },
        {
          "internalType": "address",
          "name": "receiver",
          "type": "address"
        }
      ],
      "name": "withdraw",
      "outputs": [],
      "stateMutability": "nonpayable",
      "type": "function"
    }
  ],
  "bytecode": "0x61020060405234801561001157600080fd5b506040516121d83803806121d88339810160408190526100309161046b565b826001600160a01b03811661007a5760405163218f5add60e11b815260206004820152600a60248201526921b7b73a3937b63632b960b11b60448201526064015b60405180910390fd5b6001600160a01b0381166101005260408051808201909152600a81526923b930b8342a37b5b2b760b11b60208201526100b2906103a1565b6001600160a01b03166080526040805180820190915260078152665374616b696e6760c81b60208201526100e5906103a1565b6001600160a01b031660a05260408051808201909152600d81526c47726170685061796d656e747360981b602082015261011e906103a1565b6001600160a01b031660c05260408051808201909152600e81526d5061796d656e7473457363726f7760901b6020820152610158906103a1565b6001600160a01b031660e05260408051808201909152600c81526b22b837b1b426b0b730b3b2b960a11b6020820152610190906103a1565b6001600160a01b03166101205260408051808201909152600e81526d2932bbb0b93239a6b0b730b3b2b960911b60208201526101cb906103a1565b6001600160a01b0316610140526040805180820190915260118152704772617068546f6b656e4761746577617960781b6020820152610209906103a1565b6001600160a01b03166101605260408051808201909152600f81526e23b930b834283937bc3ca0b236b4b760891b6020820152610245906103a1565b6001600160a01b03166101805260408051808201909152600881526721bab930ba34b7b760c11b602082015261027a906103a1565b6001600160a01b039081166101a08190526101005160a05160805160c05160e05161012051610140516101605161018051604051988b169a9788169996909716977fef5021414834d86e36470f5c1cecf6544fb2bb723f2ca51a4c86fcd8c5919a43976103249790916001600160a01b03978816815295871660208701529386166040860152918516606085015284166080840152831660a083015290911660c082015260e00190565b60405180910390a450816276a7008082111561035c57604051635c0f65a160e01b815260048101929092526024820152604401610071565b508190506276a7008082111561038e57604051635c0f65a160e01b815260048101929092526024820152604401610071565b50506101c0919091526101e05250610510565b600080610100516001600160a01b031663f7641a5e84805190602001206040518263ffffffff1660e01b81526004016103dc91815260200190565b602060405180830381865afa1580156103f9573d6000803e3d6000fd5b505050506040513d601f19601f8201168201806040525081019061041d91906104a0565b9050826001600160a01b0382166104485760405163218f5add60e11b815260040161007191906104c2565b5092915050565b80516001600160a01b038116811461046657600080fd5b919050565b60008060006060848603121561048057600080fd5b6104898461044f565b602085015160409095015190969495509392505050565b6000602082840312156104b257600080fd5b6104bb8261044f565b9392505050565b602081526000825180602084015260005b818110156104f057602081860181015160408684010152016104d3565b506000604082850101526040601f19601f83011684010191505092915050565b60805160a05160c05160e05161010051610120516101405161016051610180516101a0516101c0516101e051611be36105f56000396000818161020801526111c801526000818161015001526103a401526000505060005050600050506000505060005050600081816103010152818161041d01528181610590015281816106d90152818161078b015281816109cf01528181610a8001528181611049015261124d01526000505060008181610cbd0152610d6501526000505060008181610c0101528181610c8e01528181610ddb015281816113c5015261148f0152611be36000f3fe608060405234801561001057600080fd5b506004361061010b5760003560e01c80638129fc1c116100a2578063b2168b6b11610071578063b2168b6b14610278578063beb6eceb14610282578063d6bd603c146102c6578063f93f1cd0146102d9578063f940e385146102ec57600080fd5b80638129fc1c1461022a5780638340f5491461023257806387dbfe8214610245578063ac9650d81461025857600080fd5b806372eb521e116100de57806372eb521e1461018557806378a24c54146101985780637a8df28b146101ab5780637b8ae6cf1461020357600080fd5b80630ee36be31461011057806332825b81146101255780634f9d392e146101385780636cd476561461014b575b600080fd5b61012361011e366004611762565b6102ff565b005b610123610133366004611762565b61041b565b61012361014636600461177d565b61058e565b6101727f000000000000000000000000000000000000000000000000000000000000000081565b6040519081526020015b60405180910390f35b6101236101933660046117a7565b6106d7565b6101236101a6366004611762565b610789565b6101e86101b93660046117f2565b600160208181526000948552604080862082529385528385209052908352912080549181015460029091015483565b6040805193845260208401929092529082015260600161017c565b6101727f000000000000000000000000000000000000000000000000000000000000000081565b6101236108bf565b610123610240366004611835565b6109cd565b610123610253366004611872565b610a7e565b61026b6102663660046118e0565b610f0f565b60405161017c919061197b565b6101726276a70081565b6102b16102903660046119fb565b60006020818152928152604080822090935290815220805460019091015482565b6040805192835260208301919091520161017c565b6101726102d43660046117f2565b610ff8565b6101236102e7366004611835565b611047565b6101236102fa3660046119fb565b61124b565b7f00000000000000000000000000000000000000000000000000000000000000006001600160a01b0316635c975abb6040518163ffffffff1660e01b8152600401602060405180830381865afa15801561035d573d6000803e3d6000fd5b505050506040513d601f19601f820116820180604052508101906103819190611a2e565b1561039f57604051639e68cf0b60e01b815260040160405180910390fd5b6103c97f000000000000000000000000000000000000000000000000000000000000000042611a66565b336000818152602081815260408083206001600160a01b03871680855292528083206001019490945592517f47c16ea40fc834cf4be3dc9ec160a1ff77ba18b1231e9e6886e3231c708326ff9190a350565b7f00000000000000000000000000000000000000000000000000000000000000006001600160a01b0316635c975abb6040518163ffffffff1660e01b8152600401602060405180830381865afa158015610479573d6000803e3d6000fd5b505050506040513d601f19601f8201168201806040525081019061049d9190611a2e565b156104bb57604051639e68cf0b60e01b815260040160405180910390fd5b336000908152602081815260408083206001600160a01b03851684529091528120600181015490910361050157604051638cbd172f60e01b815260040160405180910390fd5b6001810154429081811061053657604051633c50db7960e11b8152600481019290925260248201526044015b60405180910390fd5b5050336000818152602081815260408083206001600160a01b0387168085529252808320838155600101839055519092917f3d7c3b7414bb2ce0675b85ea842ee937d10fe3b291f1cb2dc3361510bd113d9091a35050565b7f00000000000000000000000000000000000000000000000000000000000000006001600160a01b0316635c975abb6040518163ffffffff1660e01b8152600401602060405180830381865afa1580156105ec573d6000803e3d6000fd5b505050506040513d601f19601f820116820180604052508101906106109190611a2e565b1561062e57604051639e68cf0b60e01b815260040160405180910390fd5b8060000361064f57604051633aff1f3760e21b815260040160405180910390fd5b336000908152602081815260408083206001600160a01b03861684529091528120805490918391839190610684908490611a66565b909155505080546040805184815260208101929092526001600160a01b0385169133917f61715ac91d89f310ff71b2ccccdce0ebbd98d1ae31e8482559060139ac54a69d910160405180910390a3505050565b7f00000000000000000000000000000000000000000000000000000000000000006001600160a01b0316635c975abb6040518163ffffffff1660e01b8152600401602060405180830381865afa158015610735573d6000803e3d6000fd5b505050506040513d601f19601f820116820180604052508101906107599190611a2e565b1561077757604051639e68cf0b60e01b815260040160405180910390fd5b6107838484848461143b565b50505050565b7f00000000000000000000000000000000000000000000000000000000000000006001600160a01b0316635c975abb6040518163ffffffff1660e01b8152600401602060405180830381865afa1580156107e7573d6000803e3d6000fd5b505050506040513d601f19601f8201168201806040525081019061080b9190611a2e565b1561082957604051639e68cf0b60e01b815260040160405180910390fd5b336000908152602081815260408083206001600160a01b0385168452909152812060010154900361086d57604051638cbd172f60e01b815260040160405180910390fd5b336000818152602081815260408083206001600160a01b0386168085529252808320600101839055519092917f988de7a3afe0d801be198872279c1fd9771d8013712ee4f00652354c8a6ec27d91a350565b7ff0c57e16840df040f15088dc2f81fe391c3923bec73e23a9662efc9c229c6a008054600160401b810460ff16159067ffffffffffffffff166000811580156109055750825b905060008267ffffffffffffffff1660011480156109225750303b155b905081158015610930575080155b1561094e5760405163f92ee8a960e01b815260040160405180910390fd5b845467ffffffffffffffff19166001178555831561097857845460ff60401b1916600160401b1785555b610980611505565b83156109c657845460ff60401b19168555604051600181527fc7f505b2f371ae2175ee4913f4499e1f2633a7b5936321eed1cdaeb6115181d29060200160405180910390a15b5050505050565b7f00000000000000000000000000000000000000000000000000000000000000006001600160a01b0316635c975abb6040518163ffffffff1660e01b8152600401602060405180830381865afa158015610a2b573d6000803e3d6000fd5b505050506040513d601f19601f82011682018060405250810190610a4f9190611a2e565b15610a6d57604051639e68cf0b60e01b815260040160405180910390fd5b610a793384848461143b565b505050565b7f00000000000000000000000000000000000000000000000000000000000000006001600160a01b0316635c975abb6040518163ffffffff1660e01b8152600401602060405180830381865afa158015610adc573d6000803e3d6000fd5b505050506040513d601f19601f82011682018060405250810190610b009190611a2e565b15610b1e57604051639e68cf0b60e01b815260040160405180910390fd5b6001600160a01b038516600090815260208181526040808320338452909152902080548480821015610b6c5760405163b0b503e760e01b81526004810192909252602482015260440161052d565b50506001600160a01b038087166000908152600160209081526040808320338452825280832093891683529290522080548580821015610bc857604051633db4e69160e01b81526004810192909252602482015260440161052d565b505084826000016000828254610bde9190611a79565b9091555050805485908290600090610bf7908490611a79565b90915550600090507f00000000000000000000000000000000000000000000000000000000000000006040516370a0823160e01b81523060048201526001600160a01b0391909116906370a0823190602401602060405180830381865afa158015610c66573d6000803e3d6000fd5b505050506040513d601f19601f82011682018060405250810190610c8a9190611a8c565b90507f00000000000000000000000000000000000000000000000000000000000000006001600160a01b031663095ea7b37f00000000000000000000000000000000000000000000000000000000000000006040516001600160e01b031960e084901b1681526001600160a01b039091166004820152602481018990526044016020604051808303816000875af1158015610d29573d6000803e3d6000fd5b505050506040513d601f19601f82011682018060405250810190610d4d9190611a2e565b50604051633634bc1d60e11b81526001600160a01b037f00000000000000000000000000000000000000000000000000000000000000001690636c69783a90610da2908c908b908b908b908b90600401611aa5565b600060405180830381600087803b158015610dbc57600080fd5b505af1158015610dd0573d6000803e3d6000fd5b505050506000610dfd7f000000000000000000000000000000000000000000000000000000000000000090565b6040516370a0823160e01b81523060048201526001600160a01b0391909116906370a0823190602401602060405180830381865afa158015610e43573d6000803e3d6000fd5b505050506040513d601f19601f82011682018060405250810190610e679190611a8c565b9050610e738188611a66565b8214828289909192610ea957604051631f82726b60e21b815260048101939093526024830191909152604482015260640161052d565b505050876001600160a01b0316336001600160a01b03168a6001600160a01b03167fedeef164a6af3d5877b558880222d022aafee6e9787cafd3e5055f7d33306dd68a604051610efb91815260200190565b60405180910390a450505050505050505050565b6040805160008152602081019091526060908267ffffffffffffffff811115610f3a57610f3a611af0565b604051908082528060200260200182016040528015610f6d57816020015b6060815260200190600190039081610f585790505b50915060005b83811015610fef57610fca30868684818110610f9157610f91611b06565b9050602002810190610fa39190611b1c565b85604051602001610fb693929190611b6a565b60405160208183030381529060405261150f565b838281518110610fdc57610fdc611b06565b6020908102919091010152600101610f73565b50505b92915050565b6001600160a01b03808416600090815260016020818152604080842087861685528252808420948616845293905291812091820154825491929161103c9190611a79565b9150505b9392505050565b7f00000000000000000000000000000000000000000000000000000000000000006001600160a01b0316635c975abb6040518163ffffffff1660e01b8152600401602060405180830381865afa1580156110a5573d6000803e3d6000fd5b505050506040513d601f19601f820116820180604052508101906110c99190611a2e565b156110e757604051639e68cf0b60e01b815260040160405180910390fd5b3360009081526001602090815260408083206001600160a01b038781168552908352818420908616845290915281209082900361118d57806001015460000361114357604051638cbd172f60e01b815260040160405180910390fd5b600060018201819055600282018190556040516001600160a01b0385169133917fb2486c13d5da6cdbddffe9f9ec53350f7f15033cec803877fd75ff89d734c9489190a350505050565b805482808210156111ba57604051633db4e69160e01b81526004810192909252602482015260440161052d565b5050600181018290556111ed7f000000000000000000000000000000000000000000000000000000000000000042611a66565b600282018190556040516001600160a01b03808616929087169133917fba109e8a47e57c895aa1802554cd51025499c2b07c3c9b467c70413a4434ffbc9161123d91888252602082015260400190565b60405180910390a450505050565b7f00000000000000000000000000000000000000000000000000000000000000006001600160a01b0316635c975abb6040518163ffffffff1660e01b8152600401602060405180830381865afa1580156112a9573d6000803e3d6000fd5b505050506040513d601f19601f820116820180604052508101906112cd9190611a2e565b156112eb57604051639e68cf0b60e01b815260040160405180910390fd5b3360009081526001602090815260408083206001600160a01b03868116855290835281842090851684529091528120600281015490910361133f57604051638cbd172f60e01b815260040160405180910390fd5b6002810154429081811061136f57604051633c50db7960e11b81526004810192909252602482015260440161052d565b50506000816000015482600101541161138c57816001015461138f565b81545b9050808260000160008282546113a59190611a79565b909155505060006001830181905560028301556113ec6001600160a01b037f0000000000000000000000000000000000000000000000000000000000000000163383611585565b826001600160a01b0316846001600160a01b0316336001600160a01b03167f3115d1449a7b732c986cba18244e897a450f61e1bb8d589cd2e69e6c8924f9f78460405161123d91815260200190565b6001600160a01b038085166000908152600160209081526040808320878516845282528083209386168352929052908120805483929061147c908490611a66565b909155506114b690506001600160a01b037f0000000000000000000000000000000000000000000000000000000000000000163383611637565b816001600160a01b0316836001600160a01b0316856001600160a01b03167f7cfff908a4b583f36430b25d75964c458d8ede8a99bd61be750e97ee1b2f3a968460405161123d91815260200190565b61150d611678565b565b6060600080846001600160a01b03168460405161152c9190611b91565b600060405180830381855af49150503d8060008114611567576040519150601f19603f3d011682016040523d82523d6000602084013e61156c565b606091505b509150915061157c8583836116c1565b95945050505050565b8015610a795760405163a9059cbb60e01b81526001600160a01b0383811660048301526024820183905284169063a9059cbb906044015b6020604051808303816000875af11580156115db573d6000803e3d6000fd5b505050506040513d601f19601f820116820180604052508101906115ff9190611a2e565b610a795760405162461bcd60e51b815260206004820152600960248201526810ba3930b739b332b960b91b604482015260640161052d565b8015610a79576040516323b872dd60e01b81526001600160a01b038381166004830152306024830152604482018390528416906323b872dd906064016115bc565b7ff0c57e16840df040f15088dc2f81fe391c3923bec73e23a9662efc9c229c6a0054600160401b900460ff1661150d57604051631afcd79f60e31b815260040160405180910390fd5b6060826116d6576116d18261171d565b611040565b81511580156116ed57506001600160a01b0384163b155b1561171657604051639996b31560e01b81526001600160a01b038516600482015260240161052d565b5080611040565b80511561172d5780518082602001fd5b604051630a12f52160e11b815260040160405180910390fd5b80356001600160a01b038116811461175d57600080fd5b919050565b60006020828403121561177457600080fd5b61104082611746565b6000806040838503121561179057600080fd5b61179983611746565b946020939093013593505050565b600080600080608085870312156117bd57600080fd5b6117c685611746565b93506117d460208601611746565b92506117e260408601611746565b9396929550929360600135925050565b60008060006060848603121561180757600080fd5b61181084611746565b925061181e60208501611746565b915061182c60408501611746565b90509250925092565b60008060006060848603121561184a57600080fd5b61185384611746565b925061186160208501611746565b929592945050506040919091013590565b60008060008060008060c0878903121561188b57600080fd5b86356003811061189a57600080fd5b95506118a860208801611746565b94506118b660408801611746565b9350606087013592506118cb60808801611746565b9598949750929591949360a090920135925050565b600080602083850312156118f357600080fd5b823567ffffffffffffffff81111561190a57600080fd5b8301601f8101851361191b57600080fd5b803567ffffffffffffffff81111561193257600080fd5b8560208260051b840101111561194757600080fd5b6020919091019590945092505050565b60005b8381101561197257818101518382015260200161195a565b50506000910152565b6000602082016020835280845180835260408501915060408160051b86010192506020860160005b828110156119ef57603f19878603018452815180518087526119cc816020890160208501611957565b601f01601f191695909501602090810195509384019391909101906001016119a3565b50929695505050505050565b60008060408385031215611a0e57600080fd5b611a1783611746565b9150611a2560208401611746565b90509250929050565b600060208284031215611a4057600080fd5b8151801515811461104057600080fd5b634e487b7160e01b600052601160045260246000fd5b80820180821115610ff257610ff2611a50565b81810381811115610ff257610ff2611a50565b600060208284031215611a9e57600080fd5b5051919050565b60a0810160038710611ac757634e487b7160e01b600052602160045260246000fd5b9581526001600160a01b0394851660208201526040810193909352921660608201526080015290565b634e487b7160e01b600052604160045260246000fd5b634e487b7160e01b600052603260045260246000fd5b6000808335601e19843603018112611b3357600080fd5b83018035915067ffffffffffffffff821115611b4e57600080fd5b602001915036819003821315611b6357600080fd5b9250929050565b828482376000838201600081528351611b87818360208801611957565b0195945050505050565b60008251611ba3818460208701611957565b919091019291505056fea2646970667358221220a2310128f8eef1d4020c2e25f9c893bf4089333983224daab65c35fcea8e45cd64736f6c634300081b0033",
  "linkReferences": {},
  "deployedLinkReferences": {}
}