{
  "_format": "hh-sol-artifact-1",
  "contractName": "PaymentsEscrow",
  "sourceName": "contracts/payments/PaymentsEscrow.sol",
  "abi": [
    {
      "inputs": [
        {
          "internalType": "address",
          "name": "controller",
          "type": "address"
        },
        {
          "internalType": "uint256",
          "name": "withdrawEscrowThawingPeriod",
          "type": "uint256"
        }
      ],
      "stateMutability": "nonpayable",
      "type": "constructor"
    },
    {
      "inputs": [
        {
          "internalType": "address",
          "name": "target",
          "type": "address"
        }
      ],
      "name": "AddressEmptyCode",
      "type": "error"
    },
    {
      "inputs": [],
      "name": "FailedCall",
      "type": "error"
    },
    {
      "inputs": [
        {
          "internalType": "bytes",
          "name": "contractName",
          "type": "bytes"
        }
      ],
      "name": "GraphDirectoryInvalidZeroAddress",
      "type": "error"
    },
    {
      "inputs": [],
      "name": "InvalidInitialization",
      "type": "error"
    },
    {
      "inputs": [],
      "name": "NotInitializing",
      "type": "error"
    },
    {
      "inputs": [
        {
          "internalType": "uint256",
          "name": "balanceBefore",
          "type": "uint256"
        },
        {
          "internalType": "uint256",
          "name": "balanceAfter",
          "type": "uint256"
        },
        {
          "internalType": "uint256",
          "name": "tokens",
          "type": "uint256"
        }
      ],
      "name": "PaymentsEscrowInconsistentCollection",
      "type": "error"
    },
    {
      "inputs": [
        {
          "internalType": "uint256",
          "name": "balance",
          "type": "uint256"
        },
        {
          "internalType": "uint256",
          "name": "minBalance",
          "type": "uint256"
        }
      ],
      "name": "PaymentsEscrowInsufficientBalance",
      "type": "error"
    },
    {
      "inputs": [],
      "name": "PaymentsEscrowInvalidZeroTokens",
      "type": "error"
    },
    {
      "inputs": [],
      "name": "PaymentsEscrowIsPaused",
      "type": "error"
    },
    {
      "inputs": [],
      "name": "PaymentsEscrowNotThawing",
      "type": "error"
    },
    {
      "inputs": [
        {
          "internalType": "uint256",
          "name": "currentTimestamp",
          "type": "uint256"
        },
        {
          "internalType": "uint256",
          "name": "thawEndTimestamp",
          "type": "uint256"
        }
      ],
      "name": "PaymentsEscrowStillThawing",
      "type": "error"
    },
    {
      "inputs": [
        {
          "internalType": "uint256",
          "name": "thawingPeriod",
          "type": "uint256"
        },
        {
          "internalType": "uint256",
          "name": "maxWaitPeriod",
          "type": "uint256"
        }
      ],
      "name": "PaymentsEscrowThawingPeriodTooLong",
      "type": "error"
    },
    {
      "anonymous": false,
      "inputs": [
        {
          "indexed": true,
          "internalType": "address",
          "name": "payer",
          "type": "address"
        },
        {
          "indexed": true,
          "internalType": "address",
          "name": "collector",
          "type": "address"
        },
        {
          "indexed": true,
          "internalType": "address",
          "name": "receiver",
          "type": "address"
        },
        {
          "indexed": false,
          "internalType": "uint256",
          "name": "tokensThawing",
          "type": "uint256"
        },
        {
          "indexed": false,
          "internalType": "uint256",
          "name": "thawEndTimestamp",
          "type": "uint256"
        }
      ],
      "name": "CancelThaw",
      "type": "event"
    },
    {
      "anonymous": false,
      "inputs": [
        {
          "indexed": true,
          "internalType": "address",
          "name": "payer",
          "type": "address"
        },
        {
          "indexed": true,
          "internalType": "address",
          "name": "collector",
          "type": "address"
        },
        {
          "indexed": true,
          "internalType": "address",
          "name": "receiver",
          "type": "address"
        },
        {
          "indexed": false,
          "internalType": "uint256",
          "name": "tokens",
          "type": "uint256"
        }
      ],
      "name": "Deposit",
      "type": "event"
    },
    {
      "anonymous": false,
      "inputs": [
        {
          "indexed": true,
          "internalType": "enum IGraphPayments.PaymentTypes",
          "name": "paymentType",
          "type": "uint8"
        },
        {
          "indexed": true,
          "internalType": "address",
          "name": "payer",
          "type": "address"
        },
        {
          "indexed": true,
          "internalType": "address",
          "name": "collector",
          "type": "address"
        },
        {
          "indexed": false,
          "internalType": "address",
          "name": "receiver",
          "type": "address"
        },
        {
          "indexed": false,
          "internalType": "uint256",
          "name": "tokens",
          "type": "uint256"
        },
        {
          "indexed": false,
          "internalType": "address",
          "name": "receiverDestination",
          "type": "address"
        }
      ],
      "name": "EscrowCollected",
      "type": "event"
    },
    {
      "anonymous": false,
      "inputs": [
        {
          "indexed": true,
          "internalType": "address",
          "name": "graphToken",
          "type": "address"
        },
        {
          "indexed": true,
          "internalType": "address",
          "name": "graphStaking",
          "type": "address"
        },
        {
          "indexed": false,
          "internalType": "address",
          "name": "graphPayments",
          "type": "address"
        },
        {
          "indexed": false,
          "internalType": "address",
          "name": "graphEscrow",
          "type": "address"
        },
        {
          "indexed": true,
          "internalType": "address",
          "name": "graphController",
          "type": "address"
        },
        {
          "indexed": false,
          "internalType": "address",
          "name": "graphEpochManager",
          "type": "address"
        },
        {
          "indexed": false,
          "internalType": "address",
          "name": "graphRewardsManager",
          "type": "address"
        },
        {
          "indexed": false,
          "internalType": "address",
          "name": "graphTokenGateway",
          "type": "address"
        },
        {
          "indexed": false,
          "internalType": "address",
          "name": "graphProxyAdmin",
          "type": "address"
        },
        {
          "indexed": false,
          "internalType": "address",
          "name": "graphCuration",
          "type": "address"
        }
      ],
      "name": "GraphDirectoryInitialized",
      "type": "event"
    },
    {
      "anonymous": false,
      "inputs": [
        {
          "indexed": false,
          "internalType": "uint64",
          "name": "version",
          "type": "uint64"
        }
      ],
      "name": "Initialized",
      "type": "event"
    },
    {
      "anonymous": false,
      "inputs": [
        {
          "indexed": true,
          "internalType": "address",
          "name": "payer",
          "type": "address"
        },
        {
          "indexed": true,
          "internalType": "address",
          "name": "collector",
          "type": "address"
        },
        {
          "indexed": true,
          "internalType": "address",
          "name": "receiver",
          "type": "address"
        },
        {
          "indexed": false,
          "internalType": "uint256",
          "name": "tokens",
          "type": "uint256"
        },
        {
          "indexed": false,
          "internalType": "uint256",
          "name": "thawEndTimestamp",
          "type": "uint256"
        }
      ],
      "name": "Thaw",
      "type": "event"
    },
    {
      "anonymous": false,
      "inputs": [
        {
          "indexed": true,
          "internalType": "address",
          "name": "payer",
          "type": "address"
        },
        {
          "indexed": true,
          "internalType": "address",
          "name": "collector",
          "type": "address"
        },
        {
          "indexed": true,
          "internalType": "address",
          "name": "receiver",
          "type": "address"
        },
        {
          "indexed": false,
          "internalType": "uint256",
          "name": "tokens",
          "type": "uint256"
        }
      ],
      "name": "Withdraw",
      "type": "event"
    },
    {
      "inputs": [],
      "name": "MAX_WAIT_PERIOD",
      "outputs": [
        {
          "internalType": "uint256",
          "name": "",
          "type": "uint256"
        }
      ],
      "stateMutability": "view",
      "type": "function"
    },
    {
      "inputs": [],
      "name": "WITHDRAW_ESCROW_THAWING_PERIOD",
      "outputs": [
        {
          "internalType": "uint256",
          "name": "",
          "type": "uint256"
        }
      ],
      "stateMutability": "view",
      "type": "function"
    },
    {
      "inputs": [
        {
          "internalType": "address",
          "name": "collector",
          "type": "address"
        },
        {
          "internalType": "address",
          "name": "receiver",
          "type": "address"
        }
      ],
      "name": "cancelThaw",
      "outputs": [],
      "stateMutability": "nonpayable",
      "type": "function"
    },
    {
      "inputs": [
        {
          "internalType": "enum IGraphPayments.PaymentTypes",
          "name": "paymentType",
          "type": "uint8"
        },
        {
          "internalType": "address",
          "name": "payer",
          "type": "address"
        },
        {
          "internalType": "address",
          "name": "receiver",
          "type": "address"
        },
        {
          "internalType": "uint256",
          "name": "tokens",
          "type": "uint256"
        },
        {
          "internalType": "address",
          "name": "dataService",
          "type": "address"
        },
        {
          "internalType": "uint256",
          "name": "dataServiceCut",
          "type": "uint256"
        },
        {
          "internalType": "address",
          "name": "receiverDestination",
          "type": "address"
        }
      ],
      "name": "collect",
      "outputs": [],
      "stateMutability": "nonpayable",
      "type": "function"
    },
    {
      "inputs": [
        {
          "internalType": "address",
          "name": "collector",
          "type": "address"
        },
        {
          "internalType": "address",
          "name": "receiver",
          "type": "address"
        },
        {
          "internalType": "uint256",
          "name": "tokens",
          "type": "uint256"
        }
      ],
      "name": "deposit",
      "outputs": [],
      "stateMutability": "nonpayable",
      "type": "function"
    },
    {
      "inputs": [
        {
          "internalType": "address",
          "name": "payer",
          "type": "address"
        },
        {
          "internalType": "address",
          "name": "collector",
          "type": "address"
        },
        {
          "internalType": "address",
          "name": "receiver",
          "type": "address"
        },
        {
          "internalType": "uint256",
          "name": "tokens",
          "type": "uint256"
        }
      ],
      "name": "depositTo",
      "outputs": [],
      "stateMutability": "nonpayable",
      "type": "function"
    },
    {
      "inputs": [
        {
          "internalType": "address",
          "name": "payer",
          "type": "address"
        },
        {
          "internalType": "address",
          "name": "collector",
          "type": "address"
        },
        {
          "internalType": "address",
          "name": "receiver",
          "type": "address"
        }
      ],
      "name": "escrowAccounts",
      "outputs": [
        {
          "internalType": "uint256",
          "name": "balance",
          "type": "uint256"
        },
        {
          "internalType": "uint256",
          "name": "tokensThawing",
          "type": "uint256"
        },
        {
          "internalType": "uint256",
          "name": "thawEndTimestamp",
          "type": "uint256"
        }
      ],
      "stateMutability": "view",
      "type": "function"
    },
    {
      "inputs": [
        {
          "internalType": "address",
          "name": "payer",
          "type": "address"
        },
        {
          "internalType": "address",
          "name": "collector",
          "type": "address"
        },
        {
          "internalType": "address",
          "name": "receiver",
          "type": "address"
        }
      ],
      "name": "getBalance",
      "outputs": [
        {
          "internalType": "uint256",
          "name": "",
          "type": "uint256"
        }
      ],
      "stateMutability": "view",
      "type": "function"
    },
    {
      "inputs": [],
      "name": "initialize",
      "outputs": [],
      "stateMutability": "nonpayable",
      "type": "function"
    },
    {
      "inputs": [
        {
          "internalType": "bytes[]",
          "name": "data",
          "type": "bytes[]"
        }
      ],
      "name": "multicall",
      "outputs": [
        {
          "internalType": "bytes[]",
          "name": "results",
          "type": "bytes[]"
        }
      ],
      "stateMutability": "nonpayable",
      "type": "function"
    },
    {
      "inputs": [
        {
          "internalType": "address",
          "name": "collector",
          "type": "address"
        },
        {
          "internalType": "address",
          "name": "receiver",
          "type": "address"
        },
        {
          "internalType": "uint256",
          "name": "tokens",
          "type": "uint256"
        }
      ],
      "name": "thaw",
      "outputs": [],
      "stateMutability": "nonpayable",
      "type": "function"
    },
    {
      "inputs": [
        {
          "internalType": "address",
          "name": "collector",
          "type": "address"
        },
        {
          "internalType": "address",
          "name": "receiver",
          "type": "address"
        }
      ],
      "name": "withdraw",
      "outputs": [],
      "stateMutability": "nonpayable",
      "type": "function"
    }
  ],
  "bytecode": "0x6101e060405234801561001157600080fd5b50604051611bb6380380611bb6833981016040819052610030916104ef565b816001600160a01b03811661007a5760405163218f5add60e11b815260206004820152600a60248201526921b7b73a3937b63632b960b11b60448201526064015b60405180910390fd5b6001600160a01b0381166101005260408051808201909152600a81526923b930b8342a37b5b2b760b11b60208201526100b290610373565b6001600160a01b03166080526040805180820190915260078152665374616b696e6760c81b60208201526100e590610373565b6001600160a01b031660a05260408051808201909152600d81526c47726170685061796d656e747360981b602082015261011e90610373565b6001600160a01b031660c05260408051808201909152600e81526d5061796d656e7473457363726f7760901b602082015261015890610373565b6001600160a01b031660e05260408051808201909152600c81526b22b837b1b426b0b730b3b2b960a11b602082015261019090610373565b6001600160a01b03166101205260408051808201909152600e81526d2932bbb0b93239a6b0b730b3b2b960911b60208201526101cb90610373565b6001600160a01b0316610140526040805180820190915260118152704772617068546f6b656e4761746577617960781b602082015261020990610373565b6001600160a01b03166101605260408051808201909152600f81526e23b930b834283937bc3ca0b236b4b760891b602082015261024590610373565b6001600160a01b03166101805260408051808201909152600881526721bab930ba34b7b760c11b602082015261027a90610373565b6001600160a01b039081166101a08190526101005160a05160805160c05160e05161012051610140516101605161018051604051988b169a9788169996909716977fef5021414834d86e36470f5c1cecf6544fb2bb723f2ca51a4c86fcd8c5919a43976103249790916001600160a01b03978816815295871660208701529386166040860152918516606085015284166080840152831660a083015290911660c082015260e00190565b60405180910390a450806276a7008082111561035c57604051635c0f65a160e01b815260048101929092526024820152604401610071565b50506101c081905261036c610421565b505061058b565b600080610100516001600160a01b031663f7641a5e84805190602001206040518263ffffffff1660e01b81526004016103ae91815260200190565b602060405180830381865afa1580156103cb573d6000803e3d6000fd5b505050506040513d601f19601f820116820180604052508101906103ef919061051b565b9050826001600160a01b03821661041a5760405163218f5add60e11b8152600401610071919061053d565b5092915050565b7ff0c57e16840df040f15088dc2f81fe391c3923bec73e23a9662efc9c229c6a00805468010000000000000000900460ff16156104715760405163f92ee8a960e01b815260040160405180910390fd5b80546001600160401b03908116146104d05780546001600160401b0319166001600160401b0390811782556040519081527fc7f505b2f371ae2175ee4913f4499e1f2633a7b5936321eed1cdaeb6115181d29060200160405180910390a15b50565b80516001600160a01b03811681146104ea57600080fd5b919050565b6000806040838503121561050257600080fd5b61050b836104d3565b9150602083015190509250929050565b60006020828403121561052d57600080fd5b610536826104d3565b9392505050565b602081526000825180602084015260005b8181101561056b576020818601810151604086840101520161054e565b506000604082850101526040601f19601f83011684010191505092915050565b60805160a05160c05160e05161010051610120516101405161016051610180516101a0516101c0516115b3610603600039600081816101350152610b4e015260005050600050506000505060005050600050506000610d910152600050506000610dd90152600050506000610db501526115b36000f3fe608060405234801561001057600080fd5b50600436106100a45760003560e01c80631230fa3e146100a957806372eb521e146100be5780637a8df28b146100d15780637b8ae6cf146101305780638129fc1c146101655780638340f5491461016d578063ac9650d814610180578063b1d07de4146101a0578063b2168b6b146101b3578063d6bd603c146101bd578063f93f1cd0146101d0578063f940e385146101e3575b600080fd5b6100bc6100b736600461111c565b6101f6565b005b6100bc6100cc36600461119a565b61058c565b6101106100df3660046111e5565b6000602081815293815260408082208552928152828120909352825290208054600182015460029092015490919083565b604080519384526020840192909252908201526060015b60405180910390f35b6101577f000000000000000000000000000000000000000000000000000000000000000081565b604051908152602001610127565b6100bc610625565b6100bc61017b366004611228565b61071d565b61019361018e366004611265565b6107b5565b60405161012791906112fe565b6100bc6101ae36600461137e565b61089d565b6101576276a70081565b6101576101cb3660046111e5565b6109e0565b6100bc6101de366004611228565b610a3e565b6100bc6101f136600461137e565b610bd1565b6101fe610d8f565b6001600160a01b0316635c975abb6040518163ffffffff1660e01b8152600401602060405180830381865afa15801561023b573d6000803e3d6000fd5b505050506040513d601f19601f8201168201806040525081019061025f91906113b1565b1561027d57604051639e68cf0b60e01b815260040160405180910390fd5b6001600160a01b038087166000908152602081815260408083203384528252808320938916835292905220805485808210156102da57604051633db4e69160e01b8152600481019290925260248201526044015b60405180910390fd5b5050848160000160008282546102f091906113e9565b9091555060009050610300610db3565b6001600160a01b03166370a08231306040518263ffffffff1660e01b815260040161032b91906113fc565b602060405180830381865afa158015610348573d6000803e3d6000fd5b505050506040513d601f19601f8201168201806040525081019061036c9190611410565b9050610376610db3565b6001600160a01b031663095ea7b361038c610dd7565b886040518363ffffffff1660e01b81526004016103aa929190611429565b6020604051808303816000875af11580156103c9573d6000803e3d6000fd5b505050506040513d601f19601f820116820180604052508101906103ed91906113b1565b506103f6610dd7565b6001600160a01b03166381cd11a08a89898989896040518763ffffffff1660e01b815260040161042b96959493929190611458565b600060405180830381600087803b15801561044557600080fd5b505af1158015610459573d6000803e3d6000fd5b505050506000610467610db3565b6001600160a01b03166370a08231306040518263ffffffff1660e01b815260040161049291906113fc565b602060405180830381865afa1580156104af573d6000803e3d6000fd5b505050506040513d601f19601f820116820180604052508101906104d39190611410565b90506104df81886114ae565b821482828990919261051557604051631f82726b60e21b81526004810193909352602483019190915260448201526064016102d1565b50339150506001600160a01b038a168b600281111561053657610536611442565b604080516001600160a01b038d81168252602082018d905289168183015290517f399b99b484be516eace7ececa486139581a25b0d2d12dac8bfa0948d07a8c9139181900360600190a450505050505050505050565b610594610d8f565b6001600160a01b0316635c975abb6040518163ffffffff1660e01b8152600401602060405180830381865afa1580156105d1573d6000803e3d6000fd5b505050506040513d601f19601f820116820180604052508101906105f591906113b1565b1561061357604051639e68cf0b60e01b815260040160405180910390fd5b61061f84848484610dfb565b50505050565b600061062f610eac565b805490915060ff600160401b82041615906001600160401b03166000811580156106565750825b90506000826001600160401b031660011480156106725750303b155b905081158015610680575080155b1561069e5760405163f92ee8a960e01b815260040160405180910390fd5b845467ffffffffffffffff1916600117855583156106c857845460ff60401b1916600160401b1785555b6106d0610ed5565b831561071657845460ff60401b19168555604051600181527fc7f505b2f371ae2175ee4913f4499e1f2633a7b5936321eed1cdaeb6115181d29060200160405180910390a15b5050505050565b610725610d8f565b6001600160a01b0316635c975abb6040518163ffffffff1660e01b8152600401602060405180830381865afa158015610762573d6000803e3d6000fd5b505050506040513d601f19601f8201168201806040525081019061078691906113b1565b156107a457604051639e68cf0b60e01b815260040160405180910390fd5b6107b033848484610dfb565b505050565b604080516000815260208101909152606090826001600160401b038111156107df576107df6114c1565b60405190808252806020026020018201604052801561081257816020015b60608152602001906001900390816107fd5790505b50915060005b838110156108945761086f30868684818110610836576108366114d7565b905060200281019061084891906114ed565b8560405160200161085b9392919061153a565b604051602081830303815290604052610edf565b838281518110610881576108816114d7565b6020908102919091010152600101610818565b50505b92915050565b6108a5610d8f565b6001600160a01b0316635c975abb6040518163ffffffff1660e01b8152600401602060405180830381865afa1580156108e2573d6000803e3d6000fd5b505050506040513d601f19601f8201168201806040525081019061090691906113b1565b1561092457604051639e68cf0b60e01b815260040160405180910390fd5b336000908152602081815260408083206001600160a01b03868116855290835281842090851684529091528120600181015490910361097657604051638cbd172f60e01b815260040160405180910390fd5b60018101805460028301805460009384905592905560408051828152602081018490529192916001600160a01b03868116929088169133917f6c4ed34e7347a8682024ee40d393e45f4075c46c593aaaed3cc3e49dd6933535910160405180910390a45050505050565b6001600160a01b038084166000908152602081815260408083208685168452825280832093851683529290529081206001810154815411610a22576000610a33565b60018101548154610a3391906113e9565b9150505b9392505050565b610a46610d8f565b6001600160a01b0316635c975abb6040518163ffffffff1660e01b8152600401602060405180830381865afa158015610a83573d6000803e3d6000fd5b505050506040513d601f19601f82011682018060405250810190610aa791906113b1565b15610ac557604051639e68cf0b60e01b815260040160405180910390fd5b60008111610ae657604051633aff1f3760e21b815260040160405180910390fd5b336000908152602081815260408083206001600160a01b0387811685529083528184209086168452909152902080548280821015610b4057604051633db4e69160e01b8152600481019290925260248201526044016102d1565b505060018101829055610b737f0000000000000000000000000000000000000000000000000000000000000000426114ae565b600282018190556040516001600160a01b03808616929087169133917fba109e8a47e57c895aa1802554cd51025499c2b07c3c9b467c70413a4434ffbc91610bc391888252602082015260400190565b60405180910390a450505050565b610bd9610d8f565b6001600160a01b0316635c975abb6040518163ffffffff1660e01b8152600401602060405180830381865afa158015610c16573d6000803e3d6000fd5b505050506040513d601f19601f82011682018060405250810190610c3a91906113b1565b15610c5857604051639e68cf0b60e01b815260040160405180910390fd5b336000908152602081815260408083206001600160a01b038681168552908352818420908516845290915281206002810154909103610caa57604051638cbd172f60e01b815260040160405180910390fd5b60028101544290818110610cda57604051633c50db7960e11b8152600481019290925260248201526044016102d1565b505060008160000154826001015411610cf7578160010154610cfa565b81545b905080826000016000828254610d1091906113e9565b90915550506000600183018190556002830155610d403382610d30610db3565b6001600160a01b03169190610f55565b826001600160a01b0316846001600160a01b0316336001600160a01b03167f3115d1449a7b732c986cba18244e897a450f61e1bb8d589cd2e69e6c8924f9f784604051610bc391815260200190565b7f000000000000000000000000000000000000000000000000000000000000000090565b7f000000000000000000000000000000000000000000000000000000000000000090565b7f000000000000000000000000000000000000000000000000000000000000000090565b6001600160a01b038085166000908152602081815260408083208785168452825280832093861683529290529081208054839290610e3a9084906114ae565b90915550610e5d90503382610e4d610db3565b6001600160a01b03169190611004565b816001600160a01b0316836001600160a01b0316856001600160a01b03167f7cfff908a4b583f36430b25d75964c458d8ede8a99bd61be750e97ee1b2f3a9684604051610bc391815260200190565b6000807ff0c57e16840df040f15088dc2f81fe391c3923bec73e23a9662efc9c229c6a00610897565b610edd611045565b565b6060600080846001600160a01b031684604051610efc9190611561565b600060405180830381855af49150503d8060008114610f37576040519150601f19603f3d011682016040523d82523d6000602084013e610f3c565b606091505b5091509150610f4c85838361106a565b95945050505050565b80156107b05760405163a9059cbb60e01b81526001600160a01b0384169063a9059cbb90610f899085908590600401611429565b6020604051808303816000875af1158015610fa8573d6000803e3d6000fd5b505050506040513d601f19601f82011682018060405250810190610fcc91906113b1565b6107b05760405162461bcd60e51b815260206004820152600960248201526810ba3930b739b332b960b91b60448201526064016102d1565b80156107b0576040516323b872dd60e01b81526001600160a01b038381166004830152306024830152604482018390528416906323b872dd90606401610f89565b61104d6110bd565b610edd57604051631afcd79f60e31b815260040160405180910390fd5b60608261107f5761107a826110d7565b610a37565b815115801561109657506001600160a01b0384163b155b156110b65783604051639996b31560e01b81526004016102d191906113fc565b5080610a37565b60006110c7610eac565b54600160401b900460ff16919050565b8051156110e75780518082602001fd5b60405163d6bda27560e01b815260040160405180910390fd5b80356001600160a01b038116811461111757600080fd5b919050565b600080600080600080600060e0888a03121561113757600080fd5b87356003811061114657600080fd5b965061115460208901611100565b955061116260408901611100565b94506060880135935061117760808901611100565b925060a0880135915061118c60c08901611100565b905092959891949750929550565b600080600080608085870312156111b057600080fd5b6111b985611100565b93506111c760208601611100565b92506111d560408601611100565b9396929550929360600135925050565b6000806000606084860312156111fa57600080fd5b61120384611100565b925061121160208501611100565b915061121f60408501611100565b90509250925092565b60008060006060848603121561123d57600080fd5b61124684611100565b925061125460208501611100565b929592945050506040919091013590565b6000806020838503121561127857600080fd5b82356001600160401b0381111561128e57600080fd5b8301601f8101851361129f57600080fd5b80356001600160401b038111156112b557600080fd5b8560208260051b84010111156112ca57600080fd5b6020919091019590945092505050565b60005b838110156112f55781810151838201526020016112dd565b50506000910152565b6000602082016020835280845180835260408501915060408160051b86010192506020860160005b8281101561137257603f198786030184528151805180875261134f8160208901602085016112da565b601f01601f19169590950160209081019550938401939190910190600101611326565b50929695505050505050565b6000806040838503121561139157600080fd5b61139a83611100565b91506113a860208401611100565b90509250929050565b6000602082840312156113c357600080fd5b81518015158114610a3757600080fd5b634e487b7160e01b600052601160045260246000fd5b81810381811115610897576108976113d3565b6001600160a01b0391909116815260200190565b60006020828403121561142257600080fd5b5051919050565b6001600160a01b03929092168252602082015260400190565b634e487b7160e01b600052602160045260246000fd5b60c081016003881061147a57634e487b7160e01b600052602160045260246000fd5b9681526001600160a01b03958616602082015260408101949094529184166060840152608083015290911660a09091015290565b80820180821115610897576108976113d3565b634e487b7160e01b600052604160045260246000fd5b634e487b7160e01b600052603260045260246000fd5b6000808335601e1984360301811261150457600080fd5b8301803591506001600160401b0382111561151e57600080fd5b60200191503681900382131561153357600080fd5b9250929050565b8284823760008382016000815283516115578183602088016112da565b0195945050505050565b600082516115738184602087016112da565b919091019291505056fea26469706673582212208ab10e801fa2cc0d10964181f12d884e2488e415d888ab908ab3d257d0bef82f64736f6c634300081b0033",
  "linkReferences": {},
  "deployedLinkReferences": {}
}