{
  "_format": "hh-sol-artifact-1",
  "contractName": "RewardsManager",
  "sourceName": "contracts/rewards/RewardsManager.sol",
  "abi": [
    {
      "anonymous": false,
      "inputs": [
        {
          "indexed": true,
          "internalType": "bytes32",
          "name": "nameHash",
          "type": "bytes32"
        },
        {
          "indexed": false,
          "internalType": "address",
          "name": "contractAddress",
          "type": "address"
        }
      ],
      "name": "ContractSynced",
      "type": "event"
    },
    {
      "anonymous": false,
      "inputs": [
        {
          "indexed": false,
          "internalType": "string",
          "name": "param",
          "type": "string"
        }
      ],
      "name": "ParameterUpdated",
      "type": "event"
    },
    {
      "anonymous": false,
      "inputs": [
        {
          "indexed": true,
          "internalType": "address",
          "name": "indexer",
          "type": "address"
        },
        {
          "indexed": true,
          "internalType": "address",
          "name": "allocationID",
          "type": "address"
        },
        {
          "indexed": false,
          "internalType": "uint256",
          "name": "amount",
          "type": "uint256"
        }
      ],
      "name": "RewardsAssigned",
      "type": "event"
    },
    {
      "anonymous": false,
      "inputs": [
        {
          "indexed": true,
          "internalType": "address",
          "name": "indexer",
          "type": "address"
        },
        {
          "indexed": true,
          "internalType": "address",
          "name": "allocationID",
          "type": "address"
        }
      ],
      "name": "RewardsDenied",
      "type": "event"
    },
    {
      "anonymous": false,
      "inputs": [
        {
          "indexed": true,
          "internalType": "bytes32",
          "name": "subgraphDeploymentID",
          "type": "bytes32"
        },
        {
          "indexed": false,
          "internalType": "uint256",
          "name": "sinceBlock",
          "type": "uint256"
        }
      ],
      "name": "RewardsDenylistUpdated",
      "type": "event"
    },
    {
      "anonymous": false,
      "inputs": [
        {
          "indexed": false,
          "internalType": "address",
          "name": "controller",
          "type": "address"
        }
      ],
      "name": "SetController",
      "type": "event"
    },
    {
      "anonymous": false,
      "inputs": [
        {
          "indexed": true,
          "internalType": "address",
          "name": "oldSubgraphService",
          "type": "address"
        },
        {
          "indexed": true,
          "internalType": "address",
          "name": "newSubgraphService",
          "type": "address"
        }
      ],
      "name": "SubgraphServiceSet",
      "type": "event"
    },
    {
      "inputs": [],
      "name": "accRewardsPerSignal",
      "outputs": [
        {
          "internalType": "uint256",
          "name": "",
          "type": "uint256"
        }
      ],
      "stateMutability": "view",
      "type": "function"
    },
    {
      "inputs": [],
      "name": "accRewardsPerSignalLastBlockUpdated",
      "outputs": [
        {
          "internalType": "uint256",
          "name": "",
          "type": "uint256"
        }
      ],
      "stateMutability": "view",
      "type": "function"
    },
    {
      "inputs": [
        {
          "internalType": "contract IGraphProxy",
          "name": "_proxy",
          "type": "address"
        }
      ],
      "name": "acceptProxy",
      "outputs": [],
      "stateMutability": "nonpayable",
      "type": "function"
    },
    {
      "inputs": [
        {
          "internalType": "contract IGraphProxy",
          "name": "_proxy",
          "type": "address"
        },
        {
          "internalType": "bytes",
          "name": "_data",
          "type": "bytes"
        }
      ],
      "name": "acceptProxyAndCall",
      "outputs": [],
      "stateMutability": "nonpayable",
      "type": "function"
    },
    {
      "inputs": [
        {
          "internalType": "uint256",
          "name": "_tokens",
          "type": "uint256"
        },
        {
          "internalType": "uint256",
          "name": "_accRewardsPerAllocatedToken",
          "type": "uint256"
        }
      ],
      "name": "calcRewards",
      "outputs": [
        {
          "internalType": "uint256",
          "name": "",
          "type": "uint256"
        }
      ],
      "stateMutability": "pure",
      "type": "function"
    },
    {
      "inputs": [],
      "name": "controller",
      "outputs": [
        {
          "internalType": "contract IController",
          "name": "",
          "type": "address"
        }
      ],
      "stateMutability": "view",
      "type": "function"
    },
    {
      "inputs": [
        {
          "internalType": "bytes32",
          "name": "",
          "type": "bytes32"
        }
      ],
      "name": "denylist",
      "outputs": [
        {
          "internalType": "uint256",
          "name": "",
          "type": "uint256"
        }
      ],
      "stateMutability": "view",
      "type": "function"
    },
    {
      "inputs": [
        {
          "internalType": "bytes32",
          "name": "_subgraphDeploymentID",
          "type": "bytes32"
        }
      ],
      "name": "getAccRewardsForSubgraph",
      "outputs": [
        {
          "internalType": "uint256",
          "name": "",
          "type": "uint256"
        }
      ],
      "stateMutability": "view",
      "type": "function"
    },
    {
      "inputs": [
        {
          "internalType": "bytes32",
          "name": "_subgraphDeploymentID",
          "type": "bytes32"
        }
      ],
      "name": "getAccRewardsPerAllocatedToken",
      "outputs": [
        {
          "internalType": "uint256",
          "name": "",
          "type": "uint256"
        },
        {
          "internalType": "uint256",
          "name": "",
          "type": "uint256"
        }
      ],
      "stateMutability": "view",
      "type": "function"
    },
    {
      "inputs": [],
      "name": "getAccRewardsPerSignal",
      "outputs": [
        {
          "internalType": "uint256",
          "name": "",
          "type": "uint256"
        }
      ],
      "stateMutability": "view",
      "type": "function"
    },
    {
      "inputs": [],
      "name": "getNewRewardsPerSignal",
      "outputs": [
        {
          "internalType": "uint256",
          "name": "",
          "type": "uint256"
        }
      ],
      "stateMutability": "view",
      "type": "function"
    },
    {
      "inputs": [
        {
          "internalType": "address",
          "name": "_allocationID",
          "type": "address"
        }
      ],
      "name": "getRewards",
      "outputs": [
        {
          "internalType": "uint256",
          "name": "",
          "type": "uint256"
        }
      ],
      "stateMutability": "view",
      "type": "function"
    },
    {
      "inputs": [
        {
          "internalType": "address",
          "name": "_controller",
          "type": "address"
        }
      ],
      "name": "initialize",
      "outputs": [],
      "stateMutability": "nonpayable",
      "type": "function"
    },
    {
      "inputs": [
        {
          "internalType": "bytes32",
          "name": "_subgraphDeploymentID",
          "type": "bytes32"
        }
      ],
      "name": "isDenied",
      "outputs": [
        {
          "internalType": "bool",
          "name": "",
          "type": "bool"
        }
      ],
      "stateMutability": "view",
      "type": "function"
    },
    {
      "inputs": [],
      "name": "issuancePerBlock",
      "outputs": [
        {
          "internalType": "uint256",
          "name": "",
          "type": "uint256"
        }
      ],
      "stateMutability": "view",
      "type": "function"
    },
    {
      "inputs": [],
      "name": "minimumSubgraphSignal",
      "outputs": [
        {
          "internalType": "uint256",
          "name": "",
          "type": "uint256"
        }
      ],
      "stateMutability": "view",
      "type": "function"
    },
    {
      "inputs": [
        {
          "internalType": "bytes32",
          "name": "_subgraphDeploymentID",
          "type": "bytes32"
        }
      ],
      "name": "onSubgraphAllocationUpdate",
      "outputs": [
        {
          "internalType": "uint256",
          "name": "",
          "type": "uint256"
        }
      ],
      "stateMutability": "nonpayable",
      "type": "function"
    },
    {
      "inputs": [
        {
          "internalType": "bytes32",
          "name": "_subgraphDeploymentID",
          "type": "bytes32"
        }
      ],
      "name": "onSubgraphSignalUpdate",
      "outputs": [
        {
          "internalType": "uint256",
          "name": "",
          "type": "uint256"
        }
      ],
      "stateMutability": "nonpayable",
      "type": "function"
    },
    {
      "inputs": [
        {
          "internalType": "address",
          "name": "_controller",
          "type": "address"
        }
      ],
      "name": "setController",
      "outputs": [],
      "stateMutability": "nonpayable",
      "type": "function"
    },
    {
      "inputs": [
        {
          "internalType": "bytes32",
          "name": "_subgraphDeploymentID",
          "type": "bytes32"
        },
        {
          "internalType": "bool",
          "name": "_deny",
          "type": "bool"
        }
      ],
      "name": "setDenied",
      "outputs": [],
      "stateMutability": "nonpayable",
      "type": "function"
    },
    {
      "inputs": [
        {
          "internalType": "bytes32[]",
          "name": "_subgraphDeploymentID",
          "type": "bytes32[]"
        },
        {
          "internalType": "bool[]",
          "name": "_deny",
          "type": "bool[]"
        }
      ],
      "name": "setDeniedMany",
      "outputs": [],
      "stateMutability": "nonpayable",
      "type": "function"
    },
    {
      "inputs": [
        {
          "internalType": "uint256",
          "name": "_issuancePerBlock",
          "type": "uint256"
        }
      ],
      "name": "setIssuancePerBlock",
      "outputs": [],
      "stateMutability": "nonpayable",
      "type": "function"
    },
    {
      "inputs": [
        {
          "internalType": "uint256",
          "name": "_minimumSubgraphSignal",
          "type": "uint256"
        }
      ],
      "name": "setMinimumSubgraphSignal",
      "outputs": [],
      "stateMutability": "nonpayable",
      "type": "function"
    },
    {
      "inputs": [
        {
          "internalType": "address",
          "name": "_subgraphAvailabilityOracle",
          "type": "address"
        }
      ],
      "name": "setSubgraphAvailabilityOracle",
      "outputs": [],
      "stateMutability": "nonpayable",
      "type": "function"
    },
    {
      "inputs": [
        {
          "internalType": "address",
          "name": "_subgraphService",
          "type": "address"
        }
      ],
      "name": "setSubgraphService",
      "outputs": [],
      "stateMutability": "nonpayable",
      "type": "function"
    },
    {
      "inputs": [],
      "name": "subgraphAvailabilityOracle",
      "outputs": [
        {
          "internalType": "address",
          "name": "",
          "type": "address"
        }
      ],
      "stateMutability": "view",
      "type": "function"
    },
    {
      "inputs": [],
      "name": "subgraphService",
      "outputs": [
        {
          "internalType": "contract IRewardsIssuer",
          "name": "",
          "type": "address"
        }
      ],
      "stateMutability": "view",
      "type": "function"
    },
    {
      "inputs": [
        {
          "internalType": "bytes32",
          "name": "",
          "type": "bytes32"
        }
      ],
      "name": "subgraphs",
      "outputs": [
        {
          "internalType": "uint256",
          "name": "accRewardsForSubgraph",
          "type": "uint256"
        },
        {
          "internalType": "uint256",
          "name": "accRewardsForSubgraphSnapshot",
          "type": "uint256"
        },
        {
          "internalType": "uint256",
          "name": "accRewardsPerSignalSnapshot",
          "type": "uint256"
        },
        {
          "internalType": "uint256",
          "name": "accRewardsPerAllocatedToken",
          "type": "uint256"
        }
      ],
      "stateMutability": "view",
      "type": "function"
    },
    {
      "inputs": [],
      "name": "syncAllContracts",
      "outputs": [],
      "stateMutability": "nonpayable",
      "type": "function"
    },
    {
      "inputs": [
        {
          "internalType": "address",
          "name": "_allocationID",
          "type": "address"
        }
      ],
      "name": "takeRewards",
      "outputs": [
        {
          "internalType": "uint256",
          "name": "",
          "type": "uint256"
        }
      ],
      "stateMutability": "nonpayable",
      "type": "function"
    },
    {
      "inputs": [],
      "name": "updateAccRewardsPerSignal",
      "outputs": [
        {
          "internalType": "uint256",
          "name": "",
          "type": "uint256"
        }
      ],
      "stateMutability": "nonpayable",
      "type": "function"
    }
  ],
  "bytecode": "0x6101606040527fe6876326c1291dfcbbd3864a6816d698cd591defc7aa2153d7f9c4c04016c89f6080527fc713c3df6d14cdf946460395d09af88993ee2b948b1a808161494e32c5f6706360a0527f966f1e8d8d8014e05f6ec4a57138da9be1f7c5a7f802928a18072f7c5318076160c0527f1df41cd916959d1163dc8f0671a666ea8a3e434c13e40faef527133b5d16703460e0527f45fc200c7e4544e457d3c5709bfe0d520442c30bbcbdaede89e8d4a4bbc19247610100527fd362cac9cb75c10d67bcc0b7eeb0b1ef48bb5420b556c092d4fd7f758816fcf0610120527f39605a6c26a173774ca666c67ef70cf491880e5d3d6d0ca66ec0a31034f15ea36101405234801561011057600080fd5b5060805160a05160c05160e051610100516101205161014051611eb861017360003980610fe1525080610fb8525080610f8f528061194f525080610f6652806116d2525080610f3d525080610f14525080610eeb52806115165250611eb86000f3fe608060405234801561001057600080fd5b50600436106101e55760003560e01c806392eefe9b1161010f578063c8a5f81e116100a2578063e284f84811610071578063e284f848146103cb578063e820e284146103d3578063eeac3e0e146103f3578063f77c479114610406576101e5565b8063c8a5f81e14610395578063d6866ea5146103a8578063db750926146103b0578063e242cf1e146103c3576101e5565b8063a8cc0ee2116100de578063a8cc0ee21461036a578063b951acd714610372578063c4d66de81461037a578063c7d1117d1461038d576101e5565b806392eefe9b1461031e57806393a90a1e146103315780639ce7abe514610344578063a2594d8214610357576101e5565b806326058249116101875780636c080f18116101565780636c080f18146102da578063702a280e146102e257806379ee54f7146103035780639006ce8b14610316576101e5565b806326058249146102895780634986594f146102915780634bbfc1c5146102b45780635c6cbd59146102c7576101e5565b80631324a506116101c35780631324a5061461023057806316a84ab2146102435780631d1c2fec146102635780631debaded14610276576101e5565b806305bb8c6b146101ea5780630903c094146102085780631156bdc11461021d575b600080fd5b6101f261040e565b6040516101ff9190611c75565b60405180910390f35b61021b610216366004611a54565b61041d565b005b61021b61022b366004611b75565b610479565b61021b61023e366004611b8d565b61048d565b610256610251366004611b75565b6104ce565b6040516101ff9190611cad565b610256610271366004611b75565b6104e0565b61021b610284366004611ad4565b610519565b6101f26105b8565b6102a461029f366004611b75565b6105c7565b6040516101ff9493929190611e23565b61021b6102c2366004611b75565b6105ee565b6102566102d5366004611b75565b6106ea565b6102566107db565b6102f56102f0366004611b75565b6107e1565b6040516101ff929190611e15565b610256610311366004611a54565b610955565b610256610b3d565b61021b61032c366004611a54565b610b43565b61021b61033f366004611a54565b610b54565b61021b610352366004611bbc565b610bae565b61021b610365366004611a54565b610d04565b610256610e1f565b610256610e3b565b61021b610388366004611a54565b610e41565b610256610ead565b6102566103a3366004611c54565b610ec5565b61021b610ee6565b6102566103be366004611a54565b611007565b610256611232565b610256611238565b6103e66103e1366004611b75565b611347565b6040516101ff9190611ca2565b610256610401366004611b75565b61135b565b6101f261138d565b600f546001600160a01b031681565b61042561139c565b600f80546001600160a01b0319166001600160a01b0383161790556040517f96d5a4b4edf1cefd0900c166d64447f8da1d01d1861a6a60894b5b82a2c15c3c9061046e90611cb6565b60405180910390a150565b61048161139c565b61048a81611470565b50565b600f546001600160a01b031633146104c05760405162461bcd60e51b81526004016104b790611ced565b60405180910390fd5b6104ca82826114ac565b5050565b60116020526000908152604090205481565b60006104ea610ead565b506000828152601060205260409020610502836106ea565b808255600d5460029092019190915590505b919050565b600f546001600160a01b031633146105435760405162461bcd60e51b81526004016104b790611ced565b8281146105625760405162461bcd60e51b81526004016104b790611dcc565b60005b838110156105b1576105a985858381811061057c57fe5b9050602002013584848481811061058f57fe5b90506020020160208101906105a49190611b3d565b6114ac565b600101610565565b5050505050565b6015546001600160a01b031681565b60106020526000908152604090208054600182015460028301546003909301549192909184565b600f546001600160a01b031633148061069b575060008054906101000a90046001600160a01b03166001600160a01b0316634fc07d756040518163ffffffff1660e01b815260040160206040518083038186803b15801561064e57600080fd5b505afa158015610662573d6000803e3d6000fd5b505050506040513d601f19601f820116820180604052508101906106869190611a70565b6001600160a01b0316336001600160a01b0316145b6106b75760405162461bcd60e51b81526004016104b790611ded565b60128190556040517f96d5a4b4edf1cefd0900c166d64447f8da1d01d1861a6a60894b5b82a2c15c3c9061046e90611d3c565b60008181526010602052604081208161070161150f565b6001600160a01b03166346e855da856040518263ffffffff1660e01b815260040161072c9190611cad565b60206040518083038186803b15801561074457600080fd5b505afa158015610758573d6000803e3d6000fd5b505050506040513d601f19601f8201168201806040525081019061077c9190611c3c565b905060006012548210156107915760006107c3565b6107c3670de0b6b3a76400006107bd846107b787600201546107b1610e1f565b9061153a565b90611597565b906115f0565b83549091506107d29082611657565b95945050505050565b60145481565b60008181526010602052604081208190816107fb856106ea565b9050600061080d8284600101546116b1565b905060008060405180604001604052806108256116cb565b6001600160a01b03908116825260155416602090910152905060005b600281101561090457600082826002811061085857fe5b60200201516001600160a01b0316146108fc5781816002811061087757fe5b60200201516001600160a01b031663e2e1e8e98a6040518263ffffffff1660e01b81526004016108a79190611cad565b60206040518083038186803b1580156108bf57600080fd5b505afa1580156108d3573d6000803e3d6000fd5b505050506040513d601f19601f820116820180604052508101906108f79190611c3c565b830192505b600101610841565b508161091b57600084965096505050505050610950565b6000610933836107bd86670de0b6b3a7640000611597565b60038701549091506109459082611657565b975093955050505050505b915091565b60008060009050600060405180604001604052806109716116cb565b6001600160a01b03908116825260155416602090910152905060005b6002811015610a685760008282600281106109a457fe5b60200201516001600160a01b031614610a60578181600281106109c357fe5b60200201516001600160a01b0316636a3ca383866040518263ffffffff1660e01b81526004016109f39190611c75565b60206040518083038186803b158015610a0b57600080fd5b505afa158015610a1f573d6000803e3d6000fd5b505050506040513d601f19601f82011682018060405250810190610a439190611b59565b15610a6057818160028110610a5457fe5b60200201519250610a68565b60010161098d565b506001600160a01b038216610a8257600092505050610514565b600080600080856001600160a01b03166355c85269896040518263ffffffff1660e01b8152600401610ab49190611c75565b60a06040518083038186803b158015610acc57600080fd5b505afa158015610ae0573d6000803e3d6000fd5b505050506040513d601f19601f82011682018060405250810190610b049190611a8c565b9450945094509450506000610b18856107e1565b509050610b30610b298585846116f6565b8390611657565b9998505050505050505050565b600e5481565b610b4b61171b565b61048a8161177a565b610b5c61139c565b601580546001600160a01b038381166001600160a01b0319831681179093556040519116919082907f97befc0afcf2bace352f077aea9873c9552fc2e5ab26874f356006fdf9da4ede90600090a35050565b82806001600160a01b031663f851a4406040518163ffffffff1660e01b8152600401602060405180830381600087803b158015610bea57600080fd5b505af1158015610bfe573d6000803e3d6000fd5b505050506040513d6020811015610c1457600080fd5b50516001600160a01b03163314610c72576040805162461bcd60e51b815260206004820152601e60248201527f43616c6c6572206d757374206265207468652070726f78792061646d696e0000604482015290519081900360640190fd5b60405163623faf6160e01b8152602060048201908152602482018490526001600160a01b0386169163623faf619186918691908190604401848480828437600081840152601f19601f8201169050808301925050509350505050600060405180830381600087803b158015610ce657600080fd5b505af1158015610cfa573d6000803e3d6000fd5b5050505050505050565b80806001600160a01b031663f851a4406040518163ffffffff1660e01b8152600401602060405180830381600087803b158015610d4057600080fd5b505af1158015610d54573d6000803e3d6000fd5b505050506040513d6020811015610d6a57600080fd5b50516001600160a01b03163314610dc8576040805162461bcd60e51b815260206004820152601e60248201527f43616c6c6572206d757374206265207468652070726f78792061646d696e0000604482015290519081900360640190fd5b816001600160a01b03166359fc20bb6040518163ffffffff1660e01b8152600401600060405180830381600087803b158015610e0357600080fd5b505af1158015610e17573d6000803e3d6000fd5b505050505050565b6000610e35610e2c611238565b600d5490611657565b90505b90565b60125481565b610e49611822565b6001600160a01b0316336001600160a01b031614610ea4576040805162461bcd60e51b815260206004820152601360248201527227b7363c9034b6b83632b6b2b73a30ba34b7b760691b604482015290519081900360640190fd5b61048a81610b4b565b6000610eb7610e1f565b600d81905543600e55905090565b6000610edd670de0b6b3a76400006107bd8486611597565b90505b92915050565b610f0f7f0000000000000000000000000000000000000000000000000000000000000000611847565b610f387f0000000000000000000000000000000000000000000000000000000000000000611847565b610f617f0000000000000000000000000000000000000000000000000000000000000000611847565b610f8a7f0000000000000000000000000000000000000000000000000000000000000000611847565b610fb37f0000000000000000000000000000000000000000000000000000000000000000611847565b610fdc7f0000000000000000000000000000000000000000000000000000000000000000611847565b6110057f0000000000000000000000000000000000000000000000000000000000000000611847565b565b6000336110126116cb565b6001600160a01b0316816001600160a01b0316148061103e57506015546001600160a01b038281169116145b61105a5760405162461bcd60e51b81526004016104b790611d95565b6000806000806000856001600160a01b03166355c85269896040518263ffffffff1660e01b815260040161108e9190611c75565b60a06040518083038186803b1580156110a657600080fd5b505afa1580156110ba573d6000803e3d6000fd5b505050506040513d601f19601f820116820180604052508101906110de9190611a8c565b9450945094509450945060006110f38561135b565b90506110fe85611347565b1561115357886001600160a01b0316866001600160a01b03167f9b1323a10f3955b1c9c054ffbda78edfdf49998aaf37f61d9f84776b59ac804360405160405180910390a36000975050505050505050610514565b600061116a6111638686856116f6565b8490611657565b905080156111da5761117a611948565b6001600160a01b03166340c10f1989836040518363ffffffff1660e01b81526004016111a7929190611c89565b600060405180830381600087803b1580156111c157600080fd5b505af11580156111d5573d6000803e3d6000fd5b505050505b896001600160a01b0316876001600160a01b03167fbf5617ec135b48259c44e1ae312a03606f36e174082ef2e87042b86ceebace648360405161121d9190611cad565b60405180910390a39998505050505050505050565b600d5481565b600080611250600e544361153a90919063ffffffff16565b905080611261576000915050610e38565b601454611272576000915050610e38565b600061127c611948565b90506000816001600160a01b03166370a0823161129761150f565b6040518263ffffffff1660e01b81526004016112b39190611c75565b60206040518083038186803b1580156112cb57600080fd5b505afa1580156112df573d6000803e3d6000fd5b505050506040513d601f19601f820116820180604052508101906113039190611c3c565b9050806113165760009350505050610e38565b6014546000906113269085611597565b905061133e826107bd83670de0b6b3a7640000611597565b94505050505090565b600090815260116020526040902054151590565b60008181526010602052604081208180611374856107e1565b6003850182905560019094019390935550909392505050565b6000546001600160a01b031681565b60008054906101000a90046001600160a01b03166001600160a01b0316634fc07d756040518163ffffffff1660e01b815260040160206040518083038186803b1580156113e857600080fd5b505afa1580156113fc573d6000803e3d6000fd5b505050506040513d602081101561141257600080fd5b50516001600160a01b03163314611005576040805162461bcd60e51b815260206004820152601860248201527f4f6e6c7920436f6e74726f6c6c657220676f7665726e6f720000000000000000604482015290519081900360640190fd5b611478610ead565b5060148190556040517f96d5a4b4edf1cefd0900c166d64447f8da1d01d1861a6a60894b5b82a2c15c3c9061046e90611d6b565b6000816114ba5760006114bc565b435b600084815260116020526040908190208290555190915083907fe016102b339c3889f4967b491f3381f2c352c8fe3d4f880007807d45b124065a90611502908490611cad565b60405180910390a2505050565b6000610e357f000000000000000000000000000000000000000000000000000000000000000061196f565b600082821115611591576040805162461bcd60e51b815260206004820152601e60248201527f536166654d6174683a207375627472616374696f6e206f766572666c6f770000604482015290519081900360640190fd5b50900390565b6000826115a657506000610ee0565b828202828482816115b357fe5b0414610edd5760405162461bcd60e51b8152600401808060200182810382526021815260200180611e626021913960400191505060405180910390fd5b6000808211611646576040805162461bcd60e51b815260206004820152601a60248201527f536166654d6174683a206469766973696f6e206279207a65726f000000000000604482015290519081900360640190fd5b81838161164f57fe5b049392505050565b600082820183811015610edd576040805162461bcd60e51b815260206004820152601b60248201527f536166654d6174683a206164646974696f6e206f766572666c6f770000000000604482015290519081900360640190fd5b60008183116116c1576000610edd565b610edd838361153a565b6000610e357f000000000000000000000000000000000000000000000000000000000000000061196f565b600080611703838561153a565b90506107d2670de0b6b3a76400006107bd8388611597565b6000546001600160a01b03163314611005576040805162461bcd60e51b815260206004820152601960248201527f43616c6c6572206d75737420626520436f6e74726f6c6c657200000000000000604482015290519081900360640190fd5b6001600160a01b0381166117ce576040805162461bcd60e51b815260206004820152601660248201527510dbdb9d1c9bdb1b195c881b5d5cdd081899481cd95d60521b604482015290519081900360640190fd5b600080546001600160a01b0383166001600160a01b0319909116811790915560408051918252517f4ff638452bbf33c012645d18ae6f05515ff5f2d1dfb0cece8cbf018c60903f709181900360200190a150565b7f360894a13ba1a3210667c828492db98dca3e2076cc3735a920a3ca505d382bbc5490565b6000805460408051637bb20d2f60e11b81526004810185905290516001600160a01b039092169163f7641a5e91602480820192602092909190829003018186803b15801561189457600080fd5b505afa1580156118a8573d6000803e3d6000fd5b505050506040513d60208110156118be57600080fd5b50516000838152600160205260409020549091506001600160a01b038083169116146104ca5760008281526001602090815260409182902080546001600160a01b0319166001600160a01b0385169081179091558251908152915184927fd0e7a942b1fc38c411c4f53d153ba14fd24542a6a35ebacd9b6afca1a154e20692908290030190a25050565b6000610e357f00000000000000000000000000000000000000000000000000000000000000005b6000818152600160205260408120546001600160a01b031680610ee05760005460408051637bb20d2f60e11b81526004810186905290516001600160a01b039092169163f7641a5e91602480820192602092909190829003018186803b1580156119d857600080fd5b505afa1580156119ec573d6000803e3d6000fd5b505050506040513d6020811015611a0257600080fd5b50519392505050565b60008083601f840112611a1c578182fd5b50813567ffffffffffffffff811115611a33578182fd5b6020830191508360208083028501011115611a4d57600080fd5b9250929050565b600060208284031215611a65578081fd5b8135610edd81611e3e565b600060208284031215611a81578081fd5b8151610edd81611e3e565b600080600080600060a08688031215611aa3578081fd5b8551611aae81611e3e565b602087015160408801516060890151608090990151929a91995097965090945092505050565b60008060008060408587031215611ae9578384fd5b843567ffffffffffffffff80821115611b00578586fd5b611b0c88838901611a0b565b90965094506020870135915080821115611b24578384fd5b50611b3187828801611a0b565b95989497509550505050565b600060208284031215611b4e578081fd5b8135610edd81611e53565b600060208284031215611b6a578081fd5b8151610edd81611e53565b600060208284031215611b86578081fd5b5035919050565b60008060408385031215611b9f578182fd5b823591506020830135611bb181611e53565b809150509250929050565b600080600060408486031215611bd0578283fd5b8335611bdb81611e3e565b9250602084013567ffffffffffffffff80821115611bf7578384fd5b818601915086601f830112611c0a578384fd5b813581811115611c18578485fd5b876020828501011115611c29578485fd5b6020830194508093505050509250925092565b600060208284031215611c4d578081fd5b5051919050565b60008060408385031215611c66578182fd5b50508035926020909101359150565b6001600160a01b0391909116815260200190565b6001600160a01b03929092168252602082015260400190565b901515815260200190565b90815260200190565b6020808252601a908201527f7375626772617068417661696c6162696c6974794f7261636c65000000000000604082015260600190565b6020808252602f908201527f43616c6c6572206d75737420626520746865207375626772617068206176616960408201526e6c6162696c697479206f7261636c6560881b606082015260800190565b6020808252601590820152741b5a5b9a5b5d5b54dd5899dc985c1a14da59db985b605a1b604082015260600190565b60208082526010908201526f69737375616e6365506572426c6f636b60801b604082015260600190565b6020808252601f908201527f43616c6c6572206d757374206265206120726577617264732069737375657200604082015260600190565b602080825260079082015266042d8cadccee8d60cb1b604082015260600190565b6020808252600e908201526d139bdd08185d5d1a1bdc9a5e995960921b604082015260600190565b918252602082015260400190565b93845260208401929092526040830152606082015260800190565b6001600160a01b038116811461048a57600080fd5b801515811461048a57600080fdfe536166654d6174683a206d756c7469706c69636174696f6e206f766572666c6f77a2646970667358221220f18b1a1091f1c6856415c7806703c6da0f0a9f186640f4b0f22d6d3964d5934764736f6c63430007060033",
  "linkReferences": {},
  "deployedLinkReferences": {}
}