{
  "_format": "hh-sol-artifact-1",
  "contractName": "RewardsManager",
  "sourceName": "contracts/rewards/RewardsManager.sol",
  "abi": [
    {
      "anonymous": false,
      "inputs": [
        {
          "indexed": true,
          "internalType": "bytes32",
          "name": "nameHash",
          "type": "bytes32"
        },
        {
          "indexed": false,
          "internalType": "address",
          "name": "contractAddress",
          "type": "address"
        }
      ],
      "name": "ContractSynced",
      "type": "event"
    },
    {
      "anonymous": false,
      "inputs": [
        {
          "indexed": true,
          "internalType": "address",
          "name": "indexer",
          "type": "address"
        },
        {
          "indexed": true,
          "internalType": "address",
          "name": "allocationID",
          "type": "address"
        },
        {
          "indexed": false,
          "internalType": "uint256",
          "name": "amount",
          "type": "uint256"
        }
      ],
      "name": "HorizonRewardsAssigned",
      "type": "event"
    },
    {
      "anonymous": false,
      "inputs": [
        {
          "indexed": false,
          "internalType": "string",
          "name": "param",
          "type": "string"
        }
      ],
      "name": "ParameterUpdated",
      "type": "event"
    },
    {
      "anonymous": false,
      "inputs": [
        {
          "indexed": true,
          "internalType": "address",
          "name": "indexer",
          "type": "address"
        },
        {
          "indexed": true,
          "internalType": "address",
          "name": "allocationID",
          "type": "address"
        }
      ],
      "name": "RewardsDenied",
      "type": "event"
    },
    {
      "anonymous": false,
      "inputs": [
        {
          "indexed": true,
          "internalType": "bytes32",
          "name": "subgraphDeploymentID",
          "type": "bytes32"
        },
        {
          "indexed": false,
          "internalType": "uint256",
          "name": "sinceBlock",
          "type": "uint256"
        }
      ],
      "name": "RewardsDenylistUpdated",
      "type": "event"
    },
    {
      "anonymous": false,
      "inputs": [
        {
          "indexed": false,
          "internalType": "address",
          "name": "controller",
          "type": "address"
        }
      ],
      "name": "SetController",
      "type": "event"
    },
    {
      "anonymous": false,
      "inputs": [
        {
          "indexed": true,
          "internalType": "address",
          "name": "oldSubgraphService",
          "type": "address"
        },
        {
          "indexed": true,
          "internalType": "address",
          "name": "newSubgraphService",
          "type": "address"
        }
      ],
      "name": "SubgraphServiceSet",
      "type": "event"
    },
    {
      "inputs": [],
      "name": "accRewardsPerSignal",
      "outputs": [
        {
          "internalType": "uint256",
          "name": "",
          "type": "uint256"
        }
      ],
      "stateMutability": "view",
      "type": "function"
    },
    {
      "inputs": [],
      "name": "accRewardsPerSignalLastBlockUpdated",
      "outputs": [
        {
          "internalType": "uint256",
          "name": "",
          "type": "uint256"
        }
      ],
      "stateMutability": "view",
      "type": "function"
    },
    {
      "inputs": [
        {
          "internalType": "contract IGraphProxy",
          "name": "_proxy",
          "type": "address"
        }
      ],
      "name": "acceptProxy",
      "outputs": [],
      "stateMutability": "nonpayable",
      "type": "function"
    },
    {
      "inputs": [
        {
          "internalType": "contract IGraphProxy",
          "name": "_proxy",
          "type": "address"
        },
        {
          "internalType": "bytes",
          "name": "_data",
          "type": "bytes"
        }
      ],
      "name": "acceptProxyAndCall",
      "outputs": [],
      "stateMutability": "nonpayable",
      "type": "function"
    },
    {
      "inputs": [
        {
          "internalType": "uint256",
          "name": "_tokens",
          "type": "uint256"
        },
        {
          "internalType": "uint256",
          "name": "_accRewardsPerAllocatedToken",
          "type": "uint256"
        }
      ],
      "name": "calcRewards",
      "outputs": [
        {
          "internalType": "uint256",
          "name": "",
          "type": "uint256"
        }
      ],
      "stateMutability": "pure",
      "type": "function"
    },
    {
      "inputs": [],
      "name": "controller",
      "outputs": [
        {
          "internalType": "contract IController",
          "name": "",
          "type": "address"
        }
      ],
      "stateMutability": "view",
      "type": "function"
    },
    {
      "inputs": [
        {
          "internalType": "bytes32",
          "name": "",
          "type": "bytes32"
        }
      ],
      "name": "denylist",
      "outputs": [
        {
          "internalType": "uint256",
          "name": "",
          "type": "uint256"
        }
      ],
      "stateMutability": "view",
      "type": "function"
    },
    {
      "inputs": [
        {
          "internalType": "bytes32",
          "name": "_subgraphDeploymentID",
          "type": "bytes32"
        }
      ],
      "name": "getAccRewardsForSubgraph",
      "outputs": [
        {
          "internalType": "uint256",
          "name": "",
          "type": "uint256"
        }
      ],
      "stateMutability": "view",
      "type": "function"
    },
    {
      "inputs": [
        {
          "internalType": "bytes32",
          "name": "_subgraphDeploymentID",
          "type": "bytes32"
        }
      ],
      "name": "getAccRewardsPerAllocatedToken",
      "outputs": [
        {
          "internalType": "uint256",
          "name": "",
          "type": "uint256"
        },
        {
          "internalType": "uint256",
          "name": "",
          "type": "uint256"
        }
      ],
      "stateMutability": "view",
      "type": "function"
    },
    {
      "inputs": [],
      "name": "getAccRewardsPerSignal",
      "outputs": [
        {
          "internalType": "uint256",
          "name": "",
          "type": "uint256"
        }
      ],
      "stateMutability": "view",
      "type": "function"
    },
    {
      "inputs": [],
      "name": "getNewRewardsPerSignal",
      "outputs": [
        {
          "internalType": "uint256",
          "name": "",
          "type": "uint256"
        }
      ],
      "stateMutability": "view",
      "type": "function"
    },
    {
      "inputs": [
        {
          "internalType": "address",
          "name": "_rewardsIssuer",
          "type": "address"
        },
        {
          "internalType": "address",
          "name": "_allocationID",
          "type": "address"
        }
      ],
      "name": "getRewards",
      "outputs": [
        {
          "internalType": "uint256",
          "name": "",
          "type": "uint256"
        }
      ],
      "stateMutability": "view",
      "type": "function"
    },
    {
      "inputs": [
        {
          "internalType": "address",
          "name": "_controller",
          "type": "address"
        }
      ],
      "name": "initialize",
      "outputs": [],
      "stateMutability": "nonpayable",
      "type": "function"
    },
    {
      "inputs": [
        {
          "internalType": "bytes32",
          "name": "_subgraphDeploymentID",
          "type": "bytes32"
        }
      ],
      "name": "isDenied",
      "outputs": [
        {
          "internalType": "bool",
          "name": "",
          "type": "bool"
        }
      ],
      "stateMutability": "view",
      "type": "function"
    },
    {
      "inputs": [],
      "name": "issuancePerBlock",
      "outputs": [
        {
          "internalType": "uint256",
          "name": "",
          "type": "uint256"
        }
      ],
      "stateMutability": "view",
      "type": "function"
    },
    {
      "inputs": [],
      "name": "minimumSubgraphSignal",
      "outputs": [
        {
          "internalType": "uint256",
          "name": "",
          "type": "uint256"
        }
      ],
      "stateMutability": "view",
      "type": "function"
    },
    {
      "inputs": [
        {
          "internalType": "bytes32",
          "name": "_subgraphDeploymentID",
          "type": "bytes32"
        }
      ],
      "name": "onSubgraphAllocationUpdate",
      "outputs": [
        {
          "internalType": "uint256",
          "name": "",
          "type": "uint256"
        }
      ],
      "stateMutability": "nonpayable",
      "type": "function"
    },
    {
      "inputs": [
        {
          "internalType": "bytes32",
          "name": "_subgraphDeploymentID",
          "type": "bytes32"
        }
      ],
      "name": "onSubgraphSignalUpdate",
      "outputs": [
        {
          "internalType": "uint256",
          "name": "",
          "type": "uint256"
        }
      ],
      "stateMutability": "nonpayable",
      "type": "function"
    },
    {
      "inputs": [
        {
          "internalType": "address",
          "name": "_controller",
          "type": "address"
        }
      ],
      "name": "setController",
      "outputs": [],
      "stateMutability": "nonpayable",
      "type": "function"
    },
    {
      "inputs": [
        {
          "internalType": "bytes32",
          "name": "_subgraphDeploymentID",
          "type": "bytes32"
        },
        {
          "internalType": "bool",
          "name": "_deny",
          "type": "bool"
        }
      ],
      "name": "setDenied",
      "outputs": [],
      "stateMutability": "nonpayable",
      "type": "function"
    },
    {
      "inputs": [
        {
          "internalType": "uint256",
          "name": "_issuancePerBlock",
          "type": "uint256"
        }
      ],
      "name": "setIssuancePerBlock",
      "outputs": [],
      "stateMutability": "nonpayable",
      "type": "function"
    },
    {
      "inputs": [
        {
          "internalType": "uint256",
          "name": "_minimumSubgraphSignal",
          "type": "uint256"
        }
      ],
      "name": "setMinimumSubgraphSignal",
      "outputs": [],
      "stateMutability": "nonpayable",
      "type": "function"
    },
    {
      "inputs": [
        {
          "internalType": "address",
          "name": "_subgraphAvailabilityOracle",
          "type": "address"
        }
      ],
      "name": "setSubgraphAvailabilityOracle",
      "outputs": [],
      "stateMutability": "nonpayable",
      "type": "function"
    },
    {
      "inputs": [
        {
          "internalType": "address",
          "name": "_subgraphService",
          "type": "address"
        }
      ],
      "name": "setSubgraphService",
      "outputs": [],
      "stateMutability": "nonpayable",
      "type": "function"
    },
    {
      "inputs": [],
      "name": "subgraphAvailabilityOracle",
      "outputs": [
        {
          "internalType": "address",
          "name": "",
          "type": "address"
        }
      ],
      "stateMutability": "view",
      "type": "function"
    },
    {
      "inputs": [],
      "name": "subgraphService",
      "outputs": [
        {
          "internalType": "contract IRewardsIssuer",
          "name": "",
          "type": "address"
        }
      ],
      "stateMutability": "view",
      "type": "function"
    },
    {
      "inputs": [
        {
          "internalType": "bytes32",
          "name": "",
          "type": "bytes32"
        }
      ],
      "name": "subgraphs",
      "outputs": [
        {
          "internalType": "uint256",
          "name": "accRewardsForSubgraph",
          "type": "uint256"
        },
        {
          "internalType": "uint256",
          "name": "accRewardsForSubgraphSnapshot",
          "type": "uint256"
        },
        {
          "internalType": "uint256",
          "name": "accRewardsPerSignalSnapshot",
          "type": "uint256"
        },
        {
          "internalType": "uint256",
          "name": "accRewardsPerAllocatedToken",
          "type": "uint256"
        }
      ],
      "stateMutability": "view",
      "type": "function"
    },
    {
      "inputs": [],
      "name": "syncAllContracts",
      "outputs": [],
      "stateMutability": "nonpayable",
      "type": "function"
    },
    {
      "inputs": [
        {
          "internalType": "address",
          "name": "_allocationID",
          "type": "address"
        }
      ],
      "name": "takeRewards",
      "outputs": [
        {
          "internalType": "uint256",
          "name": "",
          "type": "uint256"
        }
      ],
      "stateMutability": "nonpayable",
      "type": "function"
    },
    {
      "inputs": [],
      "name": "updateAccRewardsPerSignal",
      "outputs": [
        {
          "internalType": "uint256",
          "name": "",
          "type": "uint256"
        }
      ],
      "stateMutability": "nonpayable",
      "type": "function"
    }
  ],
  "bytecode": "0x6101606040527fe6876326c1291dfcbbd3864a6816d698cd591defc7aa2153d7f9c4c04016c89f6080527fc713c3df6d14cdf946460395d09af88993ee2b948b1a808161494e32c5f6706360a0527f966f1e8d8d8014e05f6ec4a57138da9be1f7c5a7f802928a18072f7c5318076160c0527f1df41cd916959d1163dc8f0671a666ea8a3e434c13e40faef527133b5d16703460e0527f45fc200c7e4544e457d3c5709bfe0d520442c30bbcbdaede89e8d4a4bbc19247610100527fd362cac9cb75c10d67bcc0b7eeb0b1ef48bb5420b556c092d4fd7f758816fcf0610120527f39605a6c26a173774ca666c67ef70cf491880e5d3d6d0ca66ec0a31034f15ea36101405234801561011057600080fd5b5060805160a05160c05160e051610100516101205161014051611ca761017360003980610e60525080610e37525080610e0e52806117d9525080610de5528061155c525080610dbc525080610d93525080610d6a52806113a05250611ca76000f3fe608060405234801561001057600080fd5b50600436106101da5760003560e01c806393a90a1e11610104578063c8a5f81e116100a2578063e284f84811610071578063e284f848146103ad578063e820e284146103b5578063eeac3e0e146103d5578063f77c4791146103e8576101da565b8063c8a5f81e14610377578063d6866ea51461038a578063db75092614610392578063e242cf1e146103a5576101da565b8063a8cc0ee2116100de578063a8cc0ee21461034c578063b951acd714610354578063c4d66de81461035c578063c7d1117d1461036f576101da565b806393a90a1e146103135780639ce7abe514610326578063a2594d8214610339576101da565b80634986594f1161017c578063702a280e1161014b578063702a280e146102c4578063779bcb9b146102e55780639006ce8b146102f857806392eefe9b14610300576101da565b80634986594f146102735780634bbfc1c5146102965780635c6cbd59146102a95780636c080f18146102bc576101da565b80631324a506116101b85780631324a5061461022557806316a84ab2146102385780631d1c2fec14610258578063260582491461026b576101da565b806305bb8c6b146101df5780630903c094146101fd5780631156bdc114610212575b600080fd5b6101e76103f0565b6040516101f49190611a57565b60405180910390f35b61021061020b366004611895565b6103ff565b005b610210610220366004611962565b61045b565b61021061023336600461197a565b61046f565b61024b610246366004611962565b6104b0565b6040516101f49190611a8f565b61024b610266366004611962565b6104c2565b6101e76104fb565b610286610281366004611962565b61050a565b6040516101f49493929190611c12565b6102106102a4366004611962565b610531565b61024b6102b7366004611962565b61062d565b61024b61071e565b6102d76102d2366004611962565b610724565b6040516101f4929190611c04565b61024b6102f33660046118cd565b610898565b61024b6109be565b61021061030e366004611895565b6109c4565b610210610321366004611895565b6109d5565b61021061033436600461199e565b610a2f565b610210610347366004611895565b610b85565b61024b610ca0565b61024b610cbc565b61021061036a366004611895565b610cc2565b61024b610d2e565b61024b610385366004611a36565b610d46565b610210610d65565b61024b6103a0366004611895565b610e86565b61024b6110bc565b61024b6110c2565b6103c86103c3366004611962565b6111d1565b6040516101f49190611a84565b61024b6103e3366004611962565b6111e5565b6101e7611217565b600f546001600160a01b031681565b610407611226565b600f80546001600160a01b0319166001600160a01b0383161790556040517f96d5a4b4edf1cefd0900c166d64447f8da1d01d1861a6a60894b5b82a2c15c3c9061045090611a98565b60405180910390a150565b610463611226565b61046c816112fa565b50565b600f546001600160a01b031633146104a25760405162461bcd60e51b815260040161049990611acf565b60405180910390fd5b6104ac8282611336565b5050565b60116020526000908152604090205481565b60006104cc610d2e565b5060008281526010602052604090206104e48361062d565b808255600d5460029092019190915590505b919050565b6015546001600160a01b031681565b60106020526000908152604090208054600182015460028301546003909301549192909184565b600f546001600160a01b03163314806105de575060008054906101000a90046001600160a01b03166001600160a01b0316634fc07d756040518163ffffffff1660e01b815260040160206040518083038186803b15801561059157600080fd5b505afa1580156105a5573d6000803e3d6000fd5b505050506040513d601f19601f820116820180604052508101906105c991906118b1565b6001600160a01b0316336001600160a01b0316145b6105fa5760405162461bcd60e51b815260040161049990611bdc565b60128190556040517f96d5a4b4edf1cefd0900c166d64447f8da1d01d1861a6a60894b5b82a2c15c3c9061045090611b1e565b600081815260106020526040812081610644611399565b6001600160a01b03166346e855da856040518263ffffffff1660e01b815260040161066f9190611a8f565b60206040518083038186803b15801561068757600080fd5b505afa15801561069b573d6000803e3d6000fd5b505050506040513d601f19601f820116820180604052508101906106bf9190611a1e565b905060006012548210156106d4576000610706565b610706670de0b6b3a7640000610700846106fa87600201546106f4610ca0565b906113c4565b90611421565b9061147a565b835490915061071590826114e1565b95945050505050565b60145481565b600081815260106020526040812081908161073e8561062d565b9050600061075082846001015461153b565b90506000806040518060400160405280610768611555565b6001600160a01b03908116825260155416602090910152905060005b600281101561084757600082826002811061079b57fe5b60200201516001600160a01b03161461083f578181600281106107ba57fe5b60200201516001600160a01b031663e2e1e8e98a6040518263ffffffff1660e01b81526004016107ea9190611a8f565b60206040518083038186803b15801561080257600080fd5b505afa158015610816573d6000803e3d6000fd5b505050506040513d601f19601f8201168201806040525081019061083a9190611a1e565b830192505b600101610784565b508161085e57600084965096505050505050610893565b60006108768361070086670de0b6b3a7640000611421565b600387015490915061088890826114e1565b975093955050505050505b915091565b60006108a2611555565b6001600160a01b0316836001600160a01b031614806108ce57506015546001600160a01b038481169116145b6108ea5760405162461bcd60e51b815260040161049990611b77565b6000806000806000876001600160a01b03166355c85269886040518263ffffffff1660e01b815260040161091e9190611a57565b60c06040518083038186803b15801561093657600080fd5b505afa15801561094a573d6000803e3d6000fd5b505050506040513d601f19601f8201168201806040525081019061096e9190611905565b95509550955095505094508461098c576000955050505050506109b8565b600061099785610724565b5090506109af6109a8858584611580565b83906114e1565b96505050505050505b92915050565b600e5481565b6109cc6115a5565b61046c81611604565b6109dd611226565b601580546001600160a01b038381166001600160a01b0319831681179093556040519116919082907f97befc0afcf2bace352f077aea9873c9552fc2e5ab26874f356006fdf9da4ede90600090a35050565b82806001600160a01b031663f851a4406040518163ffffffff1660e01b8152600401602060405180830381600087803b158015610a6b57600080fd5b505af1158015610a7f573d6000803e3d6000fd5b505050506040513d6020811015610a9557600080fd5b50516001600160a01b03163314610af3576040805162461bcd60e51b815260206004820152601e60248201527f43616c6c6572206d757374206265207468652070726f78792061646d696e0000604482015290519081900360640190fd5b60405163623faf6160e01b8152602060048201908152602482018490526001600160a01b0386169163623faf619186918691908190604401848480828437600081840152601f19601f8201169050808301925050509350505050600060405180830381600087803b158015610b6757600080fd5b505af1158015610b7b573d6000803e3d6000fd5b5050505050505050565b80806001600160a01b031663f851a4406040518163ffffffff1660e01b8152600401602060405180830381600087803b158015610bc157600080fd5b505af1158015610bd5573d6000803e3d6000fd5b505050506040513d6020811015610beb57600080fd5b50516001600160a01b03163314610c49576040805162461bcd60e51b815260206004820152601e60248201527f43616c6c6572206d757374206265207468652070726f78792061646d696e0000604482015290519081900360640190fd5b816001600160a01b03166359fc20bb6040518163ffffffff1660e01b8152600401600060405180830381600087803b158015610c8457600080fd5b505af1158015610c98573d6000803e3d6000fd5b505050505050565b6000610cb6610cad6110c2565b600d54906114e1565b90505b90565b60125481565b610cca6116ac565b6001600160a01b0316336001600160a01b031614610d25576040805162461bcd60e51b815260206004820152601360248201527227b7363c9034b6b83632b6b2b73a30ba34b7b760691b604482015290519081900360640190fd5b61046c816109cc565b6000610d38610ca0565b600d81905543600e55905090565b6000610d5e670de0b6b3a76400006107008486611421565b9392505050565b610d8e7f00000000000000000000000000000000000000000000000000000000000000006116d1565b610db77f00000000000000000000000000000000000000000000000000000000000000006116d1565b610de07f00000000000000000000000000000000000000000000000000000000000000006116d1565b610e097f00000000000000000000000000000000000000000000000000000000000000006116d1565b610e327f00000000000000000000000000000000000000000000000000000000000000006116d1565b610e5b7f00000000000000000000000000000000000000000000000000000000000000006116d1565b610e847f00000000000000000000000000000000000000000000000000000000000000006116d1565b565b600033610e91611555565b6001600160a01b0316816001600160a01b03161480610ebd57506015546001600160a01b038281169116145b610ed95760405162461bcd60e51b815260040161049990611ba5565b600080600080600080866001600160a01b03166355c852698a6040518263ffffffff1660e01b8152600401610f0e9190611a57565b60c06040518083038186803b158015610f2657600080fd5b505afa158015610f3a573d6000803e3d6000fd5b505050506040513d601f19601f82011682018060405250810190610f5e9190611905565b9550955095509550955095506000610f75856111e5565b9050610f80856111d1565b15610fd657896001600160a01b0316866001600160a01b03167f9b1323a10f3955b1c9c054ffbda78edfdf49998aaf37f61d9f84776b59ac804360405160405180910390a36000985050505050505050506104f6565b6000871561106357610ff3610fec868685611580565b84906114e1565b90508015611063576110036117d2565b6001600160a01b03166340c10f198a836040518363ffffffff1660e01b8152600401611030929190611a6b565b600060405180830381600087803b15801561104a57600080fd5b505af115801561105e573d6000803e3d6000fd5b505050505b8a6001600160a01b0316876001600160a01b03167fa111914d7f2ea8beca61d12f1a1f38c5533de5f1823c3936422df4404ac2ec68836040516110a69190611a8f565b60405180910390a39a9950505050505050505050565b600d5481565b6000806110da600e54436113c490919063ffffffff16565b9050806110eb576000915050610cb9565b6014546110fc576000915050610cb9565b60006111066117d2565b90506000816001600160a01b03166370a08231611121611399565b6040518263ffffffff1660e01b815260040161113d9190611a57565b60206040518083038186803b15801561115557600080fd5b505afa158015611169573d6000803e3d6000fd5b505050506040513d601f19601f8201168201806040525081019061118d9190611a1e565b9050806111a05760009350505050610cb9565b6014546000906111b09085611421565b90506111c88261070083670de0b6b3a7640000611421565b94505050505090565b600090815260116020526040902054151590565b600081815260106020526040812081806111fe85610724565b6003850182905560019094019390935550909392505050565b6000546001600160a01b031681565b60008054906101000a90046001600160a01b03166001600160a01b0316634fc07d756040518163ffffffff1660e01b815260040160206040518083038186803b15801561127257600080fd5b505afa158015611286573d6000803e3d6000fd5b505050506040513d602081101561129c57600080fd5b50516001600160a01b03163314610e84576040805162461bcd60e51b815260206004820152601860248201527f4f6e6c7920436f6e74726f6c6c657220676f7665726e6f720000000000000000604482015290519081900360640190fd5b611302610d2e565b5060148190556040517f96d5a4b4edf1cefd0900c166d64447f8da1d01d1861a6a60894b5b82a2c15c3c9061045090611b4d565b600081611344576000611346565b435b600084815260116020526040908190208290555190915083907fe016102b339c3889f4967b491f3381f2c352c8fe3d4f880007807d45b124065a9061138c908490611a8f565b60405180910390a2505050565b6000610cb67f00000000000000000000000000000000000000000000000000000000000000006117f9565b60008282111561141b576040805162461bcd60e51b815260206004820152601e60248201527f536166654d6174683a207375627472616374696f6e206f766572666c6f770000604482015290519081900360640190fd5b50900390565b600082611430575060006109b8565b8282028284828161143d57fe5b0414610d5e5760405162461bcd60e51b8152600401808060200182810382526021815260200180611c516021913960400191505060405180910390fd5b60008082116114d0576040805162461bcd60e51b815260206004820152601a60248201527f536166654d6174683a206469766973696f6e206279207a65726f000000000000604482015290519081900360640190fd5b8183816114d957fe5b049392505050565b600082820183811015610d5e576040805162461bcd60e51b815260206004820152601b60248201527f536166654d6174683a206164646974696f6e206f766572666c6f770000000000604482015290519081900360640190fd5b600081831161154b576000610d5e565b610d5e83836113c4565b6000610cb67f00000000000000000000000000000000000000000000000000000000000000006117f9565b60008061158d83856113c4565b9050610715670de0b6b3a76400006107008388611421565b6000546001600160a01b03163314610e84576040805162461bcd60e51b815260206004820152601960248201527f43616c6c6572206d75737420626520436f6e74726f6c6c657200000000000000604482015290519081900360640190fd5b6001600160a01b038116611658576040805162461bcd60e51b815260206004820152601660248201527510dbdb9d1c9bdb1b195c881b5d5cdd081899481cd95d60521b604482015290519081900360640190fd5b600080546001600160a01b0383166001600160a01b0319909116811790915560408051918252517f4ff638452bbf33c012645d18ae6f05515ff5f2d1dfb0cece8cbf018c60903f709181900360200190a150565b7f360894a13ba1a3210667c828492db98dca3e2076cc3735a920a3ca505d382bbc5490565b6000805460408051637bb20d2f60e11b81526004810185905290516001600160a01b039092169163f7641a5e91602480820192602092909190829003018186803b15801561171e57600080fd5b505afa158015611732573d6000803e3d6000fd5b505050506040513d602081101561174857600080fd5b50516000838152600160205260409020549091506001600160a01b038083169116146104ac5760008281526001602090815260409182902080546001600160a01b0319166001600160a01b0385169081179091558251908152915184927fd0e7a942b1fc38c411c4f53d153ba14fd24542a6a35ebacd9b6afca1a154e20692908290030190a25050565b6000610cb67f00000000000000000000000000000000000000000000000000000000000000005b6000818152600160205260408120546001600160a01b0316806109b85760005460408051637bb20d2f60e11b81526004810186905290516001600160a01b039092169163f7641a5e91602480820192602092909190829003018186803b15801561186257600080fd5b505afa158015611876573d6000803e3d6000fd5b505050506040513d602081101561188c57600080fd5b50519392505050565b6000602082840312156118a6578081fd5b8135610d5e81611c2d565b6000602082840312156118c2578081fd5b8151610d5e81611c2d565b600080604083850312156118df578081fd5b82356118ea81611c2d565b915060208301356118fa81611c2d565b809150509250929050565b60008060008060008060c0878903121561191d578182fd5b865161192881611c42565b602088015190965061193981611c2d565b6040880151606089015160808a015160a0909a0151989b929a5090989097909650945092505050565b600060208284031215611973578081fd5b5035919050565b6000806040838503121561198c578182fd5b8235915060208301356118fa81611c42565b6000806000604084860312156119b2578283fd5b83356119bd81611c2d565b9250602084013567ffffffffffffffff808211156119d9578384fd5b818601915086601f8301126119ec578384fd5b8135818111156119fa578485fd5b876020828501011115611a0b578485fd5b6020830194508093505050509250925092565b600060208284031215611a2f578081fd5b5051919050565b60008060408385031215611a48578182fd5b50508035926020909101359150565b6001600160a01b0391909116815260200190565b6001600160a01b03929092168252602082015260400190565b901515815260200190565b90815260200190565b6020808252601a908201527f7375626772617068417661696c6162696c6974794f7261636c65000000000000604082015260600190565b6020808252602f908201527f43616c6c6572206d75737420626520746865207375626772617068206176616960408201526e6c6162696c697479206f7261636c6560881b606082015260800190565b6020808252601590820152741b5a5b9a5b5d5b54dd5899dc985c1a14da59db985b605a1b604082015260600190565b60208082526010908201526f69737375616e6365506572426c6f636b60801b604082015260600190565b6020808252601490820152732737ba1030903932bbb0b932399034b9b9bab2b960611b604082015260600190565b6020808252601f908201527f43616c6c6572206d757374206265206120726577617264732069737375657200604082015260600190565b6020808252600e908201526d139bdd08185d5d1a1bdc9a5e995960921b604082015260600190565b918252602082015260400190565b93845260208401929092526040830152606082015260800190565b6001600160a01b038116811461046c57600080fd5b801515811461046c57600080fdfe536166654d6174683a206d756c7469706c69636174696f6e206f766572666c6f77a2646970667358221220b536df78ac5675cc1b134b52c2a049a6938eb11d81ca397ce9b07214c71d8af264736f6c63430007060033",
  "linkReferences": {},
  "deployedLinkReferences": {}
}