{
  "_format": "hh-sol-artifact-1",
  "contractName": "SubgraphService",
  "sourceName": "contracts/SubgraphService.sol",
  "abi": [
    {
      "inputs": [
        {
          "internalType": "address",
          "name": "graphController",
          "type": "address"
        },
        {
          "internalType": "address",
          "name": "disputeManager",
          "type": "address"
        },
        {
          "internalType": "address",
          "name": "graphTallyCollector",
          "type": "address"
        },
        {
          "internalType": "address",
          "name": "curation",
          "type": "address"
        }
      ],
      "stateMutability": "nonpayable",
      "type": "constructor"
    },
    {
      "inputs": [
        {
          "internalType": "address",
          "name": "target",
          "type": "address"
        }
      ],
      "name": "AddressEmptyCode",
      "type": "error"
    },
    {
      "inputs": [
        {
          "internalType": "address",
          "name": "allocationId",
          "type": "address"
        }
      ],
      "name": "AllocationAlreadyExists",
      "type": "error"
    },
    {
      "inputs": [
        {
          "internalType": "address",
          "name": "allocationId",
          "type": "address"
        },
        {
          "internalType": "uint256",
          "name": "closedAt",
          "type": "uint256"
        }
      ],
      "name": "AllocationClosed",
      "type": "error"
    },
    {
      "inputs": [
        {
          "internalType": "address",
          "name": "allocationId",
          "type": "address"
        }
      ],
      "name": "AllocationDoesNotExist",
      "type": "error"
    },
    {
      "inputs": [
        {
          "internalType": "address",
          "name": "allocationId",
          "type": "address"
        }
      ],
      "name": "AllocationManagerAllocationClosed",
      "type": "error"
    },
    {
      "inputs": [
        {
          "internalType": "address",
          "name": "allocationId",
          "type": "address"
        },
        {
          "internalType": "uint256",
          "name": "tokens",
          "type": "uint256"
        }
      ],
      "name": "AllocationManagerAllocationSameSize",
      "type": "error"
    },
    {
      "inputs": [
        {
          "internalType": "address",
          "name": "signer",
          "type": "address"
        },
        {
          "internalType": "address",
          "name": "allocationId",
          "type": "address"
        }
      ],
      "name": "AllocationManagerInvalidAllocationProof",
      "type": "error"
    },
    {
      "inputs": [],
      "name": "AllocationManagerInvalidZeroAllocationId",
      "type": "error"
    },
    {
      "inputs": [
        {
          "internalType": "bytes32",
          "name": "claimId",
          "type": "bytes32"
        }
      ],
      "name": "DataServiceFeesClaimNotFound",
      "type": "error"
    },
    {
      "inputs": [],
      "name": "DataServiceFeesZeroTokens",
      "type": "error"
    },
    {
      "inputs": [
        {
          "internalType": "address",
          "name": "account",
          "type": "address"
        }
      ],
      "name": "DataServicePausableNotPauseGuardian",
      "type": "error"
    },
    {
      "inputs": [
        {
          "internalType": "address",
          "name": "account",
          "type": "address"
        },
        {
          "internalType": "bool",
          "name": "allowed",
          "type": "bool"
        }
      ],
      "name": "DataServicePausablePauseGuardianNoChange",
      "type": "error"
    },
    {
      "inputs": [
        {
          "internalType": "address",
          "name": "caller",
          "type": "address"
        },
        {
          "internalType": "address",
          "name": "disputeManager",
          "type": "address"
        }
      ],
      "name": "DirectoryNotDisputeManager",
      "type": "error"
    },
    {
      "inputs": [],
      "name": "ECDSAInvalidSignature",
      "type": "error"
    },
    {
      "inputs": [
        {
          "internalType": "uint256",
          "name": "length",
          "type": "uint256"
        }
      ],
      "name": "ECDSAInvalidSignatureLength",
      "type": "error"
    },
    {
      "inputs": [
        {
          "internalType": "bytes32",
          "name": "s",
          "type": "bytes32"
        }
      ],
      "name": "ECDSAInvalidSignatureS",
      "type": "error"
    },
    {
      "inputs": [],
      "name": "EnforcedPause",
      "type": "error"
    },
    {
      "inputs": [],
      "name": "ExpectedPause",
      "type": "error"
    },
    {
      "inputs": [],
      "name": "FailedCall",
      "type": "error"
    },
    {
      "inputs": [
        {
          "internalType": "bytes",
          "name": "contractName",
          "type": "bytes"
        }
      ],
      "name": "GraphDirectoryInvalidZeroAddress",
      "type": "error"
    },
    {
      "inputs": [],
      "name": "InvalidInitialization",
      "type": "error"
    },
    {
      "inputs": [
        {
          "internalType": "address",
          "name": "allocationId",
          "type": "address"
        }
      ],
      "name": "LegacyAllocationAlreadyExists",
      "type": "error"
    },
    {
      "inputs": [],
      "name": "LinkedListEmptyList",
      "type": "error"
    },
    {
      "inputs": [],
      "name": "LinkedListInvalidIterations",
      "type": "error"
    },
    {
      "inputs": [],
      "name": "LinkedListInvalidZeroId",
      "type": "error"
    },
    {
      "inputs": [],
      "name": "LinkedListMaxElementsExceeded",
      "type": "error"
    },
    {
      "inputs": [],
      "name": "NotInitializing",
      "type": "error"
    },
    {
      "inputs": [
        {
          "internalType": "address",
          "name": "owner",
          "type": "address"
        }
      ],
      "name": "OwnableInvalidOwner",
      "type": "error"
    },
    {
      "inputs": [
        {
          "internalType": "address",
          "name": "account",
          "type": "address"
        }
      ],
      "name": "OwnableUnauthorizedAccount",
      "type": "error"
    },
    {
      "inputs": [
        {
          "internalType": "uint256",
          "name": "a",
          "type": "uint256"
        },
        {
          "internalType": "uint256",
          "name": "b",
          "type": "uint256"
        }
      ],
      "name": "PPMMathInvalidMulPPM",
      "type": "error"
    },
    {
      "inputs": [
        {
          "internalType": "uint256",
          "name": "min",
          "type": "uint256"
        },
        {
          "internalType": "uint256",
          "name": "max",
          "type": "uint256"
        }
      ],
      "name": "ProvisionManagerInvalidRange",
      "type": "error"
    },
    {
      "inputs": [
        {
          "internalType": "bytes",
          "name": "message",
          "type": "bytes"
        },
        {
          "internalType": "uint256",
          "name": "value",
          "type": "uint256"
        },
        {
          "internalType": "uint256",
          "name": "min",
          "type": "uint256"
        },
        {
          "internalType": "uint256",
          "name": "max",
          "type": "uint256"
        }
      ],
      "name": "ProvisionManagerInvalidValue",
      "type": "error"
    },
    {
      "inputs": [
        {
          "internalType": "address",
          "name": "serviceProvider",
          "type": "address"
        },
        {
          "internalType": "address",
          "name": "caller",
          "type": "address"
        }
      ],
      "name": "ProvisionManagerNotAuthorized",
      "type": "error"
    },
    {
      "inputs": [
        {
          "internalType": "address",
          "name": "serviceProvider",
          "type": "address"
        }
      ],
      "name": "ProvisionManagerProvisionNotFound",
      "type": "error"
    },
    {
      "inputs": [
        {
          "internalType": "uint256",
          "name": "tokensAvailable",
          "type": "uint256"
        },
        {
          "internalType": "uint256",
          "name": "tokensRequired",
          "type": "uint256"
        }
      ],
      "name": "ProvisionTrackerInsufficientTokens",
      "type": "error"
    },
    {
      "inputs": [
        {
          "internalType": "address",
          "name": "allocationId",
          "type": "address"
        }
      ],
      "name": "SubgraphServiceAllocationIsAltruistic",
      "type": "error"
    },
    {
      "inputs": [
        {
          "internalType": "address",
          "name": "indexer",
          "type": "address"
        },
        {
          "internalType": "address",
          "name": "allocationId",
          "type": "address"
        }
      ],
      "name": "SubgraphServiceAllocationNotAuthorized",
      "type": "error"
    },
    {
      "inputs": [
        {
          "internalType": "address",
          "name": "allocationId",
          "type": "address"
        }
      ],
      "name": "SubgraphServiceCannotForceCloseAllocation",
      "type": "error"
    },
    {
      "inputs": [],
      "name": "SubgraphServiceEmptyGeohash",
      "type": "error"
    },
    {
      "inputs": [],
      "name": "SubgraphServiceEmptyUrl",
      "type": "error"
    },
    {
      "inputs": [
        {
          "internalType": "uint256",
          "name": "balanceBefore",
          "type": "uint256"
        },
        {
          "internalType": "uint256",
          "name": "balanceAfter",
          "type": "uint256"
        }
      ],
      "name": "SubgraphServiceInconsistentCollection",
      "type": "error"
    },
    {
      "inputs": [],
      "name": "SubgraphServiceIndexerAlreadyRegistered",
      "type": "error"
    },
    {
      "inputs": [
        {
          "internalType": "address",
          "name": "providedIndexer",
          "type": "address"
        },
        {
          "internalType": "address",
          "name": "expectedIndexer",
          "type": "address"
        }
      ],
      "name": "SubgraphServiceIndexerMismatch",
      "type": "error"
    },
    {
      "inputs": [
        {
          "internalType": "address",
          "name": "indexer",
          "type": "address"
        }
      ],
      "name": "SubgraphServiceIndexerNotRegistered",
      "type": "error"
    },
    {
      "inputs": [
        {
          "internalType": "bytes32",
          "name": "collectionId",
          "type": "bytes32"
        }
      ],
      "name": "SubgraphServiceInvalidCollectionId",
      "type": "error"
    },
    {
      "inputs": [
        {
          "internalType": "uint256",
          "name": "curationCut",
          "type": "uint256"
        }
      ],
      "name": "SubgraphServiceInvalidCurationCut",
      "type": "error"
    },
    {
      "inputs": [
        {
          "internalType": "enum IGraphPayments.PaymentTypes",
          "name": "paymentType",
          "type": "uint8"
        }
      ],
      "name": "SubgraphServiceInvalidPaymentType",
      "type": "error"
    },
    {
      "inputs": [
        {
          "internalType": "address",
          "name": "ravIndexer",
          "type": "address"
        },
        {
          "internalType": "address",
          "name": "allocationIndexer",
          "type": "address"
        }
      ],
      "name": "SubgraphServiceInvalidRAV",
      "type": "error"
    },
    {
      "inputs": [],
      "name": "SubgraphServiceInvalidZeroStakeToFeesRatio",
      "type": "error"
    },
    {
      "anonymous": false,
      "inputs": [
        {
          "indexed": true,
          "internalType": "address",
          "name": "indexer",
          "type": "address"
        },
        {
          "indexed": true,
          "internalType": "address",
          "name": "allocationId",
          "type": "address"
        },
        {
          "indexed": true,
          "internalType": "bytes32",
          "name": "subgraphDeploymentId",
          "type": "bytes32"
        },
        {
          "indexed": false,
          "internalType": "uint256",
          "name": "tokens",
          "type": "uint256"
        },
        {
          "indexed": false,
          "internalType": "bool",
          "name": "forceClosed",
          "type": "bool"
        }
      ],
      "name": "AllocationClosed",
      "type": "event"
    },
    {
      "anonymous": false,
      "inputs": [
        {
          "indexed": true,
          "internalType": "address",
          "name": "indexer",
          "type": "address"
        },
        {
          "indexed": true,
          "internalType": "address",
          "name": "allocationId",
          "type": "address"
        },
        {
          "indexed": true,
          "internalType": "bytes32",
          "name": "subgraphDeploymentId",
          "type": "bytes32"
        },
        {
          "indexed": false,
          "internalType": "uint256",
          "name": "tokens",
          "type": "uint256"
        },
        {
          "indexed": false,
          "internalType": "uint256",
          "name": "currentEpoch",
          "type": "uint256"
        }
      ],
      "name": "AllocationCreated",
      "type": "event"
    },
    {
      "anonymous": false,
      "inputs": [
        {
          "indexed": true,
          "internalType": "address",
          "name": "indexer",
          "type": "address"
        },
        {
          "indexed": true,
          "internalType": "address",
          "name": "allocationId",
          "type": "address"
        },
        {
          "indexed": true,
          "internalType": "bytes32",
          "name": "subgraphDeploymentId",
          "type": "bytes32"
        },
        {
          "indexed": false,
          "internalType": "uint256",
          "name": "newTokens",
          "type": "uint256"
        },
        {
          "indexed": false,
          "internalType": "uint256",
          "name": "oldTokens",
          "type": "uint256"
        }
      ],
      "name": "AllocationResized",
      "type": "event"
    },
    {
      "anonymous": false,
      "inputs": [
        {
          "indexed": false,
          "internalType": "uint256",
          "name": "curationCut",
          "type": "uint256"
        }
      ],
      "name": "CurationCutSet",
      "type": "event"
    },
    {
      "anonymous": false,
      "inputs": [
        {
          "indexed": false,
          "internalType": "uint32",
          "name": "ratio",
          "type": "uint32"
        }
      ],
      "name": "DelegationRatioSet",
      "type": "event"
    },
    {
      "anonymous": false,
      "inputs": [],
      "name": "EIP712DomainChanged",
      "type": "event"
    },
    {
      "anonymous": false,
      "inputs": [
        {
          "indexed": true,
          "internalType": "address",
          "name": "graphToken",
          "type": "address"
        },
        {
          "indexed": true,
          "internalType": "address",
          "name": "graphStaking",
          "type": "address"
        },
        {
          "indexed": false,
          "internalType": "address",
          "name": "graphPayments",
          "type": "address"
        },
        {
          "indexed": false,
          "internalType": "address",
          "name": "graphEscrow",
          "type": "address"
        },
        {
          "indexed": true,
          "internalType": "address",
          "name": "graphController",
          "type": "address"
        },
        {
          "indexed": false,
          "internalType": "address",
          "name": "graphEpochManager",
          "type": "address"
        },
        {
          "indexed": false,
          "internalType": "address",
          "name": "graphRewardsManager",
          "type": "address"
        },
        {
          "indexed": false,
          "internalType": "address",
          "name": "graphTokenGateway",
          "type": "address"
        },
        {
          "indexed": false,
          "internalType": "address",
          "name": "graphProxyAdmin",
          "type": "address"
        },
        {
          "indexed": false,
          "internalType": "address",
          "name": "graphCuration",
          "type": "address"
        }
      ],
      "name": "GraphDirectoryInitialized",
      "type": "event"
    },
    {
      "anonymous": false,
      "inputs": [
        {
          "indexed": true,
          "internalType": "address",
          "name": "indexer",
          "type": "address"
        },
        {
          "indexed": true,
          "internalType": "address",
          "name": "allocationId",
          "type": "address"
        },
        {
          "indexed": true,
          "internalType": "bytes32",
          "name": "subgraphDeploymentId",
          "type": "bytes32"
        },
        {
          "indexed": false,
          "internalType": "uint256",
          "name": "tokensRewards",
          "type": "uint256"
        },
        {
          "indexed": false,
          "internalType": "uint256",
          "name": "tokensIndexerRewards",
          "type": "uint256"
        },
        {
          "indexed": false,
          "internalType": "uint256",
          "name": "tokensDelegationRewards",
          "type": "uint256"
        },
        {
          "indexed": false,
          "internalType": "bytes32",
          "name": "poi",
          "type": "bytes32"
        },
        {
          "indexed": false,
          "internalType": "bytes",
          "name": "poiMetadata",
          "type": "bytes"
        },
        {
          "indexed": false,
          "internalType": "uint256",
          "name": "currentEpoch",
          "type": "uint256"
        }
      ],
      "name": "IndexingRewardsCollected",
      "type": "event"
    },
    {
      "anonymous": false,
      "inputs": [
        {
          "indexed": false,
          "internalType": "uint64",
          "name": "version",
          "type": "uint64"
        }
      ],
      "name": "Initialized",
      "type": "event"
    },
    {
      "anonymous": false,
      "inputs": [
        {
          "indexed": true,
          "internalType": "address",
          "name": "indexer",
          "type": "address"
        },
        {
          "indexed": true,
          "internalType": "address",
          "name": "allocationId",
          "type": "address"
        },
        {
          "indexed": true,
          "internalType": "bytes32",
          "name": "subgraphDeploymentId",
          "type": "bytes32"
        }
      ],
      "name": "LegacyAllocationMigrated",
      "type": "event"
    },
    {
      "anonymous": false,
      "inputs": [
        {
          "indexed": false,
          "internalType": "uint256",
          "name": "maxPOIStaleness",
          "type": "uint256"
        }
      ],
      "name": "MaxPOIStalenessSet",
      "type": "event"
    },
    {
      "anonymous": false,
      "inputs": [
        {
          "indexed": true,
          "internalType": "address",
          "name": "previousOwner",
          "type": "address"
        },
        {
          "indexed": true,
          "internalType": "address",
          "name": "newOwner",
          "type": "address"
        }
      ],
      "name": "OwnershipTransferred",
      "type": "event"
    },
    {
      "anonymous": false,
      "inputs": [
        {
          "indexed": true,
          "internalType": "address",
          "name": "account",
          "type": "address"
        },
        {
          "indexed": false,
          "internalType": "bool",
          "name": "allowed",
          "type": "bool"
        }
      ],
      "name": "PauseGuardianSet",
      "type": "event"
    },
    {
      "anonymous": false,
      "inputs": [
        {
          "indexed": false,
          "internalType": "address",
          "name": "account",
          "type": "address"
        }
      ],
      "name": "Paused",
      "type": "event"
    },
    {
      "anonymous": false,
      "inputs": [
        {
          "indexed": true,
          "internalType": "address",
          "name": "indexer",
          "type": "address"
        },
        {
          "indexed": true,
          "internalType": "address",
          "name": "paymentsDestination",
          "type": "address"
        }
      ],
      "name": "PaymentsDestinationSet",
      "type": "event"
    },
    {
      "anonymous": false,
      "inputs": [
        {
          "indexed": true,
          "internalType": "address",
          "name": "serviceProvider",
          "type": "address"
        }
      ],
      "name": "ProvisionPendingParametersAccepted",
      "type": "event"
    },
    {
      "anonymous": false,
      "inputs": [
        {
          "indexed": false,
          "internalType": "uint256",
          "name": "min",
          "type": "uint256"
        },
        {
          "indexed": false,
          "internalType": "uint256",
          "name": "max",
          "type": "uint256"
        }
      ],
      "name": "ProvisionTokensRangeSet",
      "type": "event"
    },
    {
      "anonymous": false,
      "inputs": [
        {
          "indexed": true,
          "internalType": "address",
          "name": "serviceProvider",
          "type": "address"
        },
        {
          "indexed": true,
          "internalType": "address",
          "name": "payer",
          "type": "address"
        },
        {
          "indexed": true,
          "internalType": "address",
          "name": "allocationId",
          "type": "address"
        },
        {
          "indexed": false,
          "internalType": "bytes32",
          "name": "subgraphDeploymentId",
          "type": "bytes32"
        },
        {
          "indexed": false,
          "internalType": "uint256",
          "name": "tokensCollected",
          "type": "uint256"
        },
        {
          "indexed": false,
          "internalType": "uint256",
          "name": "tokensCurators",
          "type": "uint256"
        }
      ],
      "name": "QueryFeesCollected",
      "type": "event"
    },
    {
      "anonymous": false,
      "inputs": [
        {
          "indexed": true,
          "internalType": "address",
          "name": "serviceProvider",
          "type": "address"
        },
        {
          "indexed": true,
          "internalType": "enum IGraphPayments.PaymentTypes",
          "name": "feeType",
          "type": "uint8"
        },
        {
          "indexed": false,
          "internalType": "uint256",
          "name": "tokens",
          "type": "uint256"
        }
      ],
      "name": "ServicePaymentCollected",
      "type": "event"
    },
    {
      "anonymous": false,
      "inputs": [
        {
          "indexed": true,
          "internalType": "address",
          "name": "serviceProvider",
          "type": "address"
        },
        {
          "indexed": false,
          "internalType": "bytes",
          "name": "data",
          "type": "bytes"
        }
      ],
      "name": "ServiceProviderRegistered",
      "type": "event"
    },
    {
      "anonymous": false,
      "inputs": [
        {
          "indexed": true,
          "internalType": "address",
          "name": "serviceProvider",
          "type": "address"
        },
        {
          "indexed": false,
          "internalType": "uint256",
          "name": "tokens",
          "type": "uint256"
        }
      ],
      "name": "ServiceProviderSlashed",
      "type": "event"
    },
    {
      "anonymous": false,
      "inputs": [
        {
          "indexed": true,
          "internalType": "address",
          "name": "serviceProvider",
          "type": "address"
        },
        {
          "indexed": false,
          "internalType": "bytes",
          "name": "data",
          "type": "bytes"
        }
      ],
      "name": "ServiceStarted",
      "type": "event"
    },
    {
      "anonymous": false,
      "inputs": [
        {
          "indexed": true,
          "internalType": "address",
          "name": "serviceProvider",
          "type": "address"
        },
        {
          "indexed": false,
          "internalType": "bytes",
          "name": "data",
          "type": "bytes"
        }
      ],
      "name": "ServiceStopped",
      "type": "event"
    },
    {
      "anonymous": false,
      "inputs": [
        {
          "indexed": true,
          "internalType": "address",
          "name": "serviceProvider",
          "type": "address"
        },
        {
          "indexed": true,
          "internalType": "bytes32",
          "name": "claimId",
          "type": "bytes32"
        },
        {
          "indexed": false,
          "internalType": "uint256",
          "name": "tokens",
          "type": "uint256"
        },
        {
          "indexed": false,
          "internalType": "uint256",
          "name": "unlockTimestamp",
          "type": "uint256"
        }
      ],
      "name": "StakeClaimLocked",
      "type": "event"
    },
    {
      "anonymous": false,
      "inputs": [
        {
          "indexed": true,
          "internalType": "address",
          "name": "serviceProvider",
          "type": "address"
        },
        {
          "indexed": true,
          "internalType": "bytes32",
          "name": "claimId",
          "type": "bytes32"
        },
        {
          "indexed": false,
          "internalType": "uint256",
          "name": "tokens",
          "type": "uint256"
        },
        {
          "indexed": false,
          "internalType": "uint256",
          "name": "releasableAt",
          "type": "uint256"
        }
      ],
      "name": "StakeClaimReleased",
      "type": "event"
    },
    {
      "anonymous": false,
      "inputs": [
        {
          "indexed": true,
          "internalType": "address",
          "name": "serviceProvider",
          "type": "address"
        },
        {
          "indexed": false,
          "internalType": "uint256",
          "name": "claimsCount",
          "type": "uint256"
        },
        {
          "indexed": false,
          "internalType": "uint256",
          "name": "tokensReleased",
          "type": "uint256"
        }
      ],
      "name": "StakeClaimsReleased",
      "type": "event"
    },
    {
      "anonymous": false,
      "inputs": [
        {
          "indexed": false,
          "internalType": "uint256",
          "name": "ratio",
          "type": "uint256"
        }
      ],
      "name": "StakeToFeesRatioSet",
      "type": "event"
    },
    {
      "anonymous": false,
      "inputs": [
        {
          "indexed": false,
          "internalType": "address",
          "name": "subgraphService",
          "type": "address"
        },
        {
          "indexed": false,
          "internalType": "address",
          "name": "disputeManager",
          "type": "address"
        },
        {
          "indexed": false,
          "internalType": "address",
          "name": "graphTallyCollector",
          "type": "address"
        },
        {
          "indexed": false,
          "internalType": "address",
          "name": "curation",
          "type": "address"
        }
      ],
      "name": "SubgraphServiceDirectoryInitialized",
      "type": "event"
    },
    {
      "anonymous": false,
      "inputs": [
        {
          "indexed": false,
          "internalType": "uint64",
          "name": "min",
          "type": "uint64"
        },
        {
          "indexed": false,
          "internalType": "uint64",
          "name": "max",
          "type": "uint64"
        }
      ],
      "name": "ThawingPeriodRangeSet",
      "type": "event"
    },
    {
      "anonymous": false,
      "inputs": [
        {
          "indexed": false,
          "internalType": "address",
          "name": "account",
          "type": "address"
        }
      ],
      "name": "Unpaused",
      "type": "event"
    },
    {
      "anonymous": false,
      "inputs": [
        {
          "indexed": false,
          "internalType": "uint32",
          "name": "min",
          "type": "uint32"
        },
        {
          "indexed": false,
          "internalType": "uint32",
          "name": "max",
          "type": "uint32"
        }
      ],
      "name": "VerifierCutRangeSet",
      "type": "event"
    },
    {
      "inputs": [
        {
          "internalType": "address",
          "name": "indexer",
          "type": "address"
        },
        {
          "internalType": "bytes",
          "name": "",
          "type": "bytes"
        }
      ],
      "name": "acceptProvisionPendingParameters",
      "outputs": [],
      "stateMutability": "nonpayable",
      "type": "function"
    },
    {
      "inputs": [
        {
          "internalType": "address",
          "name": "indexer",
          "type": "address"
        }
      ],
      "name": "allocationProvisionTracker",
      "outputs": [
        {
          "internalType": "uint256",
          "name": "tokens",
          "type": "uint256"
        }
      ],
      "stateMutability": "view",
      "type": "function"
    },
    {
      "inputs": [
        {
          "internalType": "bytes32",
          "name": "claimId",
          "type": "bytes32"
        }
      ],
      "name": "claims",
      "outputs": [
        {
          "internalType": "uint256",
          "name": "tokens",
          "type": "uint256"
        },
        {
          "internalType": "uint256",
          "name": "createdAt",
          "type": "uint256"
        },
        {
          "internalType": "uint256",
          "name": "releasableAt",
          "type": "uint256"
        },
        {
          "internalType": "bytes32",
          "name": "nextClaim",
          "type": "bytes32"
        }
      ],
      "stateMutability": "view",
      "type": "function"
    },
    {
      "inputs": [
        {
          "internalType": "address",
          "name": "serviceProvider",
          "type": "address"
        }
      ],
      "name": "claimsLists",
      "outputs": [
        {
          "internalType": "bytes32",
          "name": "head",
          "type": "bytes32"
        },
        {
          "internalType": "bytes32",
          "name": "tail",
          "type": "bytes32"
        },
        {
          "internalType": "uint256",
          "name": "nonce",
          "type": "uint256"
        },
        {
          "internalType": "uint256",
          "name": "count",
          "type": "uint256"
        }
      ],
      "stateMutability": "view",
      "type": "function"
    },
    {
      "inputs": [
        {
          "internalType": "address",
          "name": "allocationId",
          "type": "address"
        }
      ],
      "name": "closeStaleAllocation",
      "outputs": [],
      "stateMutability": "nonpayable",
      "type": "function"
    },
    {
      "inputs": [
        {
          "internalType": "address",
          "name": "indexer",
          "type": "address"
        },
        {
          "internalType": "enum IGraphPayments.PaymentTypes",
          "name": "paymentType",
          "type": "uint8"
        },
        {
          "internalType": "bytes",
          "name": "data",
          "type": "bytes"
        }
      ],
      "name": "collect",
      "outputs": [
        {
          "internalType": "uint256",
          "name": "",
          "type": "uint256"
        }
      ],
      "stateMutability": "nonpayable",
      "type": "function"
    },
    {
      "inputs": [],
      "name": "curationFeesCut",
      "outputs": [
        {
          "internalType": "uint256",
          "name": "",
          "type": "uint256"
        }
      ],
      "stateMutability": "view",
      "type": "function"
    },
    {
      "inputs": [],
      "name": "eip712Domain",
      "outputs": [
        {
          "internalType": "bytes1",
          "name": "fields",
          "type": "bytes1"
        },
        {
          "internalType": "string",
          "name": "name",
          "type": "string"
        },
        {
          "internalType": "string",
          "name": "version",
          "type": "string"
        },
        {
          "internalType": "uint256",
          "name": "chainId",
          "type": "uint256"
        },
        {
          "internalType": "address",
          "name": "verifyingContract",
          "type": "address"
        },
        {
          "internalType": "bytes32",
          "name": "salt",
          "type": "bytes32"
        },
        {
          "internalType": "uint256[]",
          "name": "extensions",
          "type": "uint256[]"
        }
      ],
      "stateMutability": "view",
      "type": "function"
    },
    {
      "inputs": [
        {
          "internalType": "address",
          "name": "indexer",
          "type": "address"
        },
        {
          "internalType": "address",
          "name": "allocationId",
          "type": "address"
        }
      ],
      "name": "encodeAllocationProof",
      "outputs": [
        {
          "internalType": "bytes32",
          "name": "",
          "type": "bytes32"
        }
      ],
      "stateMutability": "view",
      "type": "function"
    },
    {
      "inputs": [
        {
          "internalType": "address",
          "name": "serviceProvider",
          "type": "address"
        }
      ],
      "name": "feesProvisionTracker",
      "outputs": [
        {
          "internalType": "uint256",
          "name": "tokens",
          "type": "uint256"
        }
      ],
      "stateMutability": "view",
      "type": "function"
    },
    {
      "inputs": [
        {
          "internalType": "address",
          "name": "allocationId",
          "type": "address"
        }
      ],
      "name": "getAllocation",
      "outputs": [
        {
          "components": [
            {
              "internalType": "address",
              "name": "indexer",
              "type": "address"
            },
            {
              "internalType": "bytes32",
              "name": "subgraphDeploymentId",
              "type": "bytes32"
            },
            {
              "internalType": "uint256",
              "name": "tokens",
              "type": "uint256"
            },
            {
              "internalType": "uint256",
              "name": "createdAt",
              "type": "uint256"
            },
            {
              "internalType": "uint256",
              "name": "closedAt",
              "type": "uint256"
            },
            {
              "internalType": "uint256",
              "name": "lastPOIPresentedAt",
              "type": "uint256"
            },
            {
              "internalType": "uint256",
              "name": "accRewardsPerAllocatedToken",
              "type": "uint256"
            },
            {
              "internalType": "uint256",
              "name": "accRewardsPending",
              "type": "uint256"
            },
            {
              "internalType": "uint256",
              "name": "createdAtEpoch",
              "type": "uint256"
            }
          ],
          "internalType": "struct Allocation.State",
          "name": "",
          "type": "tuple"
        }
      ],
      "stateMutability": "view",
      "type": "function"
    },
    {
      "inputs": [
        {
          "internalType": "address",
          "name": "allocationId",
          "type": "address"
        }
      ],
      "name": "getAllocationData",
      "outputs": [
        {
          "internalType": "bool",
          "name": "",
          "type": "bool"
        },
        {
          "internalType": "address",
          "name": "",
          "type": "address"
        },
        {
          "internalType": "bytes32",
          "name": "",
          "type": "bytes32"
        },
        {
          "internalType": "uint256",
          "name": "",
          "type": "uint256"
        },
        {
          "internalType": "uint256",
          "name": "",
          "type": "uint256"
        },
        {
          "internalType": "uint256",
          "name": "",
          "type": "uint256"
        }
      ],
      "stateMutability": "view",
      "type": "function"
    },
    {
      "inputs": [],
      "name": "getCuration",
      "outputs": [
        {
          "internalType": "address",
          "name": "",
          "type": "address"
        }
      ],
      "stateMutability": "view",
      "type": "function"
    },
    {
      "inputs": [],
      "name": "getDelegationRatio",
      "outputs": [
        {
          "internalType": "uint32",
          "name": "",
          "type": "uint32"
        }
      ],
      "stateMutability": "view",
      "type": "function"
    },
    {
      "inputs": [],
      "name": "getDisputeManager",
      "outputs": [
        {
          "internalType": "address",
          "name": "",
          "type": "address"
        }
      ],
      "stateMutability": "view",
      "type": "function"
    },
    {
      "inputs": [],
      "name": "getGraphTallyCollector",
      "outputs": [
        {
          "internalType": "address",
          "name": "",
          "type": "address"
        }
      ],
      "stateMutability": "view",
      "type": "function"
    },
    {
      "inputs": [
        {
          "internalType": "address",
          "name": "allocationId",
          "type": "address"
        }
      ],
      "name": "getLegacyAllocation",
      "outputs": [
        {
          "components": [
            {
              "internalType": "address",
              "name": "indexer",
              "type": "address"
            },
            {
              "internalType": "bytes32",
              "name": "subgraphDeploymentId",
              "type": "bytes32"
            }
          ],
          "internalType": "struct LegacyAllocation.State",
          "name": "",
          "type": "tuple"
        }
      ],
      "stateMutability": "view",
      "type": "function"
    },
    {
      "inputs": [],
      "name": "getProvisionTokensRange",
      "outputs": [
        {
          "internalType": "uint256",
          "name": "",
          "type": "uint256"
        },
        {
          "internalType": "uint256",
          "name": "",
          "type": "uint256"
        }
      ],
      "stateMutability": "view",
      "type": "function"
    },
    {
      "inputs": [
        {
          "internalType": "bytes32",
          "name": "subgraphDeploymentId",
          "type": "bytes32"
        }
      ],
      "name": "getSubgraphAllocatedTokens",
      "outputs": [
        {
          "internalType": "uint256",
          "name": "",
          "type": "uint256"
        }
      ],
      "stateMutability": "view",
      "type": "function"
    },
    {
      "inputs": [],
      "name": "getThawingPeriodRange",
      "outputs": [
        {
          "internalType": "uint64",
          "name": "",
          "type": "uint64"
        },
        {
          "internalType": "uint64",
          "name": "",
          "type": "uint64"
        }
      ],
      "stateMutability": "view",
      "type": "function"
    },
    {
      "inputs": [],
      "name": "getVerifierCutRange",
      "outputs": [
        {
          "internalType": "uint32",
          "name": "",
          "type": "uint32"
        },
        {
          "internalType": "uint32",
          "name": "",
          "type": "uint32"
        }
      ],
      "stateMutability": "view",
      "type": "function"
    },
    {
      "inputs": [
        {
          "internalType": "address",
          "name": "indexer",
          "type": "address"
        }
      ],
      "name": "indexers",
      "outputs": [
        {
          "internalType": "uint256",
          "name": "registeredAt",
          "type": "uint256"
        },
        {
          "internalType": "string",
          "name": "url",
          "type": "string"
        },
        {
          "internalType": "string",
          "name": "geoHash",
          "type": "string"
        }
      ],
      "stateMutability": "view",
      "type": "function"
    },
    {
      "inputs": [
        {
          "internalType": "address",
          "name": "owner",
          "type": "address"
        },
        {
          "internalType": "uint256",
          "name": "minimumProvisionTokens",
          "type": "uint256"
        },
        {
          "internalType": "uint32",
          "name": "maximumDelegationRatio",
          "type": "uint32"
        },
        {
          "internalType": "uint256",
          "name": "stakeToFeesRatio_",
          "type": "uint256"
        }
      ],
      "name": "initialize",
      "outputs": [],
      "stateMutability": "nonpayable",
      "type": "function"
    },
    {
      "inputs": [
        {
          "internalType": "address",
          "name": "indexer",
          "type": "address"
        }
      ],
      "name": "isOverAllocated",
      "outputs": [
        {
          "internalType": "bool",
          "name": "",
          "type": "bool"
        }
      ],
      "stateMutability": "view",
      "type": "function"
    },
    {
      "inputs": [],
      "name": "maxPOIStaleness",
      "outputs": [
        {
          "internalType": "uint256",
          "name": "",
          "type": "uint256"
        }
      ],
      "stateMutability": "view",
      "type": "function"
    },
    {
      "inputs": [
        {
          "internalType": "address",
          "name": "indexer",
          "type": "address"
        },
        {
          "internalType": "address",
          "name": "allocationId",
          "type": "address"
        },
        {
          "internalType": "bytes32",
          "name": "subgraphDeploymentID",
          "type": "bytes32"
        }
      ],
      "name": "migrateLegacyAllocation",
      "outputs": [],
      "stateMutability": "nonpayable",
      "type": "function"
    },
    {
      "inputs": [
        {
          "internalType": "bytes[]",
          "name": "data",
          "type": "bytes[]"
        }
      ],
      "name": "multicall",
      "outputs": [
        {
          "internalType": "bytes[]",
          "name": "results",
          "type": "bytes[]"
        }
      ],
      "stateMutability": "nonpayable",
      "type": "function"
    },
    {
      "inputs": [],
      "name": "owner",
      "outputs": [
        {
          "internalType": "address",
          "name": "",
          "type": "address"
        }
      ],
      "stateMutability": "view",
      "type": "function"
    },
    {
      "inputs": [],
      "name": "pause",
      "outputs": [],
      "stateMutability": "nonpayable",
      "type": "function"
    },
    {
      "inputs": [
        {
          "internalType": "address",
          "name": "pauseGuardian",
          "type": "address"
        }
      ],
      "name": "pauseGuardians",
      "outputs": [
        {
          "internalType": "bool",
          "name": "allowed",
          "type": "bool"
        }
      ],
      "stateMutability": "view",
      "type": "function"
    },
    {
      "inputs": [],
      "name": "paused",
      "outputs": [
        {
          "internalType": "bool",
          "name": "",
          "type": "bool"
        }
      ],
      "stateMutability": "view",
      "type": "function"
    },
    {
      "inputs": [
        {
          "internalType": "address",
          "name": "indexer",
          "type": "address"
        }
      ],
      "name": "paymentsDestination",
      "outputs": [
        {
          "internalType": "address",
          "name": "destination",
          "type": "address"
        }
      ],
      "stateMutability": "view",
      "type": "function"
    },
    {
      "inputs": [
        {
          "internalType": "address",
          "name": "indexer",
          "type": "address"
        },
        {
          "internalType": "bytes",
          "name": "data",
          "type": "bytes"
        }
      ],
      "name": "register",
      "outputs": [],
      "stateMutability": "nonpayable",
      "type": "function"
    },
    {
      "inputs": [
        {
          "internalType": "uint256",
          "name": "numClaimsToRelease",
          "type": "uint256"
        }
      ],
      "name": "releaseStake",
      "outputs": [],
      "stateMutability": "nonpayable",
      "type": "function"
    },
    {
      "inputs": [],
      "name": "renounceOwnership",
      "outputs": [],
      "stateMutability": "nonpayable",
      "type": "function"
    },
    {
      "inputs": [
        {
          "internalType": "address",
          "name": "indexer",
          "type": "address"
        },
        {
          "internalType": "address",
          "name": "allocationId",
          "type": "address"
        },
        {
          "internalType": "uint256",
          "name": "tokens",
          "type": "uint256"
        }
      ],
      "name": "resizeAllocation",
      "outputs": [],
      "stateMutability": "nonpayable",
      "type": "function"
    },
    {
      "inputs": [
        {
          "internalType": "uint256",
          "name": "curationCut",
          "type": "uint256"
        }
      ],
      "name": "setCurationCut",
      "outputs": [],
      "stateMutability": "nonpayable",
      "type": "function"
    },
    {
      "inputs": [
        {
          "internalType": "uint32",
          "name": "delegationRatio",
          "type": "uint32"
        }
      ],
      "name": "setDelegationRatio",
      "outputs": [],
      "stateMutability": "nonpayable",
      "type": "function"
    },
    {
      "inputs": [
        {
          "internalType": "uint256",
          "name": "maxPOIStaleness_",
          "type": "uint256"
        }
      ],
      "name": "setMaxPOIStaleness",
      "outputs": [],
      "stateMutability": "nonpayable",
      "type": "function"
    },
    {
      "inputs": [
        {
          "internalType": "uint256",
          "name": "minimumProvisionTokens",
          "type": "uint256"
        }
      ],
      "name": "setMinimumProvisionTokens",
      "outputs": [],
      "stateMutability": "nonpayable",
      "type": "function"
    },
    {
      "inputs": [
        {
          "internalType": "address",
          "name": "pauseGuardian",
          "type": "address"
        },
        {
          "internalType": "bool",
          "name": "allowed",
          "type": "bool"
        }
      ],
      "name": "setPauseGuardian",
      "outputs": [],
      "stateMutability": "nonpayable",
      "type": "function"
    },
    {
      "inputs": [
        {
          "internalType": "address",
          "name": "paymentsDestination_",
          "type": "address"
        }
      ],
      "name": "setPaymentsDestination",
      "outputs": [],
      "stateMutability": "nonpayable",
      "type": "function"
    },
    {
      "inputs": [
        {
          "internalType": "uint256",
          "name": "stakeToFeesRatio_",
          "type": "uint256"
        }
      ],
      "name": "setStakeToFeesRatio",
      "outputs": [],
      "stateMutability": "nonpayable",
      "type": "function"
    },
    {
      "inputs": [
        {
          "internalType": "address",
          "name": "indexer",
          "type": "address"
        },
        {
          "internalType": "bytes",
          "name": "data",
          "type": "bytes"
        }
      ],
      "name": "slash",
      "outputs": [],
      "stateMutability": "nonpayable",
      "type": "function"
    },
    {
      "inputs": [],
      "name": "stakeToFeesRatio",
      "outputs": [
        {
          "internalType": "uint256",
          "name": "",
          "type": "uint256"
        }
      ],
      "stateMutability": "view",
      "type": "function"
    },
    {
      "inputs": [
        {
          "internalType": "address",
          "name": "indexer",
          "type": "address"
        },
        {
          "internalType": "bytes",
          "name": "data",
          "type": "bytes"
        }
      ],
      "name": "startService",
      "outputs": [],
      "stateMutability": "nonpayable",
      "type": "function"
    },
    {
      "inputs": [
        {
          "internalType": "address",
          "name": "indexer",
          "type": "address"
        },
        {
          "internalType": "bytes",
          "name": "data",
          "type": "bytes"
        }
      ],
      "name": "stopService",
      "outputs": [],
      "stateMutability": "nonpayable",
      "type": "function"
    },
    {
      "inputs": [
        {
          "internalType": "address",
          "name": "newOwner",
          "type": "address"
        }
      ],
      "name": "transferOwnership",
      "outputs": [],
      "stateMutability": "nonpayable",
      "type": "function"
    },
    {
      "inputs": [],
      "name": "unpause",
      "outputs": [],
      "stateMutability": "nonpayable",
      "type": "function"
    }
  ],
  "bytecode": "0x61024060405234801561001157600080fd5b5060405161667738038061667783398101604081905261003091610541565b3083838387806001600160a01b03811661007f5760405163218f5add60e11b815260206004820152600a60248201526921b7b73a3937b63632b960b11b60448201526064015b60405180910390fd5b6001600160a01b0381166101005260408051808201909152600a81526923b930b8342a37b5b2b760b11b60208201526100b7906103c5565b6001600160a01b03166080526040805180820190915260078152665374616b696e6760c81b60208201526100ea906103c5565b6001600160a01b031660a05260408051808201909152600d81526c47726170685061796d656e747360981b6020820152610123906103c5565b6001600160a01b031660c05260408051808201909152600e81526d5061796d656e7473457363726f7760901b602082015261015d906103c5565b6001600160a01b031660e05260408051808201909152600c81526b22b837b1b426b0b730b3b2b960a11b6020820152610195906103c5565b6001600160a01b03166101205260408051808201909152600e81526d2932bbb0b93239a6b0b730b3b2b960911b60208201526101d0906103c5565b6001600160a01b0316610140526040805180820190915260118152704772617068546f6b656e4761746577617960781b602082015261020e906103c5565b6001600160a01b03166101605260408051808201909152600f81526e23b930b834283937bc3ca0b236b4b760891b602082015261024a906103c5565b6001600160a01b03166101805260408051808201909152600881526721bab930ba34b7b760c11b602082015261027f906103c5565b6001600160a01b039081166101a08190526101005160a05160805160c05160e05161012051610140516101605161018051604051988b169a9788169996909716977fef5021414834d86e36470f5c1cecf6544fb2bb723f2ca51a4c86fcd8c5919a43976103299790916001600160a01b03978816815295871660208701529386166040860152918516606085015284166080840152831660a083015290911660c082015260e00190565b60405180910390a450506001600160a01b038481166101c08190528482166101e08190528483166102008190529284166102208190526040805193845260208401929092529082019290925260608101919091527f4175b2c37456dbac494e08de8666d31bb8f3f2aee36ea5d9e06894ff3e4ddda79060800160405180910390a1505050506103bc61047360201b60201c565b50505050610605565b600080610100516001600160a01b031663f7641a5e84805190602001206040518263ffffffff1660e01b815260040161040091815260200190565b602060405180830381865afa15801561041d573d6000803e3d6000fd5b505050506040513d601f19601f820116820180604052508101906104419190610595565b9050826001600160a01b03821661046c5760405163218f5add60e11b815260040161007691906105b7565b5092915050565b7ff0c57e16840df040f15088dc2f81fe391c3923bec73e23a9662efc9c229c6a00805468010000000000000000900460ff16156104c35760405163f92ee8a960e01b815260040160405180910390fd5b80546001600160401b03908116146105225780546001600160401b0319166001600160401b0390811782556040519081527fc7f505b2f371ae2175ee4913f4499e1f2633a7b5936321eed1cdaeb6115181d29060200160405180910390a15b50565b80516001600160a01b038116811461053c57600080fd5b919050565b6000806000806080858703121561055757600080fd5b61056085610525565b935061056e60208601610525565b925061057c60408601610525565b915061058a60608601610525565b905092959194509250565b6000602082840312156105a757600080fd5b6105b082610525565b9392505050565b602081526000825180602084015260005b818110156105e557602081860181015160408684010152016105c8565b506000604082850101526040601f19601f83011684010191505092915050565b60805160a05160c05160e05161010051610120516101405161016051610180516101a0516101c0516101e0516102005161022051615fd961069e6000396000612ee2015260006132de01526000818161163b0152612fe101526000505060005050600050506000505060006137080152600061457c01526000505060005050600050506000611b6b01526000613a640152615fd96000f3fe608060405234801561001057600080fd5b506004361061023b5760003560e01c806307e736d8146102405780630e02292314610280578063138dea081461030857806313c474c9146103205780631dd42f60146103755780631ebb7c301461038a57806324b8fbf6146103af57806335577962146103c25780633f4ba83a146103d557806345f54485146103dd578063482468b7146103f05780634f793cdc1461040657806355c85269146104285780635c975abb146104725780636234e2161461048a5780636ccec5b8146104aa5780636d9a3951146104bd578063715018a61461053857806371ce020a146105405780637aa31bce146105565780637dfe6d28146105695780637e89bac31461057c5780638180083b1461058f578063819ba366146105a257806381e777a7146105b8578063832bc923146105cb5780638456cb59146105de57806384b0196e146105e657806385e82baf146106015780638da5cb5b1461060a5780639384e07814610612578063ac9650d814610635578063b15d2a2c14610655578063ba38f67d14610668578063c0f474971461067b578063c84a5ef314610683578063cb8347fe14610696578063cbe5f3f2146106a9578063ce0fc0cc146106c9578063ce56c98b146106dc578063d07a7a84146106ef578063db9bee46146106f9578063dedf672614610701578063e2e1e8e914610714578063e6f5005414610734578063ebf6ddaf14610747578063ec9c218d1461074f578063eff0f59214610762578063f2fde38b14610797575b600080fd5b61026a61024e36600461502b565b610109602052600090815260409020546001600160a01b031681565b6040516102779190615048565b60405180910390f35b61029361028e36600461502b565b6107aa565b604051610277919060006101208201905060018060a01b0383511682526020830151602083015260408301516040830152606083015160608301526080830151608083015260a083015160a083015260c083015160c083015260e083015160e083015261010083015161010083015292915050565b6103126101085481565b604051908152602001610277565b61035561032e36600461502b565b609c6020526000908152604090208054600182015460028301546003909301549192909184565b604080519485526020850193909352918301526060820152608001610277565b61038861038336600461506e565b610837565b005b600254600160c01b900463ffffffff1660405163ffffffff9091168152602001610277565b6103886103bd3660046150cc565b610850565b6103886103d036600461512e565b610a7d565b610388610a93565b6103886103eb366004615167565b610acf565b6103f8610ad9565b604051610277929190615180565b61041961041436600461502b565b610aec565b604051610277939291906151e7565b61043b61043636600461502b565b610c20565b6040805196151587526001600160a01b039095166020870152938501929092526060840152608083015260a082015260c001610277565b61047a610cdc565b6040519015158152602001610277565b61031261049836600461502b565b60d16020526000908152604090205481565b6103886104b836600461502b565b610cf1565b6105146104cb36600461502b565b604080518082018252600080825260209182018190526001600160a01b03938416815260d082528290208251808401909352805490931682526001909201549181019190915290565b6040805182516001600160a01b031681526020928301519281019290925201610277565b610388610cfb565b610548610d0d565b60405161027792919061521c565b610388610564366004615167565b610d18565b610388610577366004615236565b610d29565b61038861058a366004615167565b610d41565b61038861059d3660046150cc565b610db6565b6105aa610f44565b604051610277929190615277565b6103886105c6366004615236565b610f54565b6103886105d9366004615167565b6110c4565b6103886110d8565b6105ee611112565b6040516102779796959493929190615285565b61031260d25481565b61026a6111bb565b61047a61062036600461502b565b60676020526000908152604090205460ff1681565b61064861064336600461531d565b6111d6565b6040516102779190615392565b6103126106633660046153f7565b6112be565b61047a61067636600461502b565b611492565b61026a6114b0565b61038861069136600461545f565b6114ba565b6103886106a43660046150cc565b611638565b6103126106b736600461502b565b609a6020526000908152604090205481565b6103886106d73660046150cc565b611777565b6103126106ea3660046154a7565b611860565b6103126101075481565b61026a611873565b61038861070f3660046150cc565b61187d565b610312610722366004615167565b600090815260d3602052604090205490565b610388610742366004615167565b611a0b565b61026a611a1c565b61038861075d36600461502b565b611a26565b610355610770366004615167565b609b6020526000908152604090208054600182015460028301546003909301549192909184565b6103886107a536600461502b565b611aa8565b6107b2614fae565b506001600160a01b03908116600090815260cf6020908152604091829020825161012081018452815490941684526001810154918401919091526002810154918301919091526003810154606083015260048101546080830152600581015460a0830152600681015460c0830152600781015460e08301526008015461010082015290565b61083f611ae3565b61084881611b15565b50565b905090565b82610859611b69565b6001600160a01b0316637c145cc78230336040518463ffffffff1660e01b8152600401610888939291906154d5565b602060405180830381865afa1580156108a5573d6000803e3d6000fd5b505050506040513d601f19601f820116820180604052508101906108c991906154f8565b813390916108f55760405163cc5d3c8b60e01b81526004016108ec929190615515565b60405180910390fd5b505083600061090382611b8d565b905061090e81611c90565b610919816000611cce565b610921611db8565b6000808061093187890189615646565b925092509250600083511161095957604051630783843960e51b815260040160405180910390fd5b600082511161097b57604051631e63bd9560e21b815260040160405180910390fd5b6001600160a01b03891660009081526101066020526040902054156109b357604051630d06866d60e21b815260040160405180910390fd5b6040805160608101825242815260208082018681528284018690526001600160a01b038d16600090815261010690925292902081518155915190919060018201906109fe9082615742565b5060408201516002820190610a139082615742565b5050506001600160a01b03811615610a2f57610a2f8982611dde565b886001600160a01b03167f159567bea25499a91f60e1fbb349ff2a1f8c1b2883198f25c1e12c99eddb44fa8989604051610a6a929190615800565b60405180910390a2505050505050505050565b610a85611ae3565b610a8f8282611e35565b5050565b3360008181526067602052604090205460ff16610ac4576040516372e3ef9760e01b81526004016108ec9190615048565b50610acd611eeb565b565b6108483382611f37565b600080610ae4611fdd565b915091509091565b6101066020526000908152604090208054600182018054919291610b0f906156c1565b80601f0160208091040260200160405190810160405280929190818152602001828054610b3b906156c1565b8015610b885780601f10610b5d57610100808354040283529160200191610b88565b820191906000526020600020905b815481529060010190602001808311610b6b57829003601f168201915b505050505090806002018054610b9d906156c1565b80601f0160208091040260200160405190810160405280929190818152602001828054610bc9906156c1565b8015610c165780601f10610beb57610100808354040283529160200191610c16565b820191906000526020600020905b815481529060010190602001808311610bf957829003601f168201915b5050505050905083565b6001600160a01b03808216600090815260cf60209081526040808320815161012081018352815490951685526001810154928501929092526002820154908401526003810154606084015260048101546080840152600581015460a0840152600681015460c0840152600781015460e0840152600801546101008301529081908190819081908190610cb181612054565b81516020830151604084015160c085015160e090950151939c929b5090995097509195509350915050565b600080610ce7612073565b5460ff1692915050565b6108483382611dde565b610d03611ae3565b610acd6000612097565b600080610ae46120f3565b610d20611ae3565b6108488161216a565b610d31611ae3565b610d3c83838361219f565b505050565b610d49611ae3565b610d5681620f4240101590565b8190610d7857604051631c9c717b60e01b81526004016108ec91815260200190565b506101088190556040518181527f6deef78ffe3df79ae5cd8e40b842c36ac6077e13746b9b68a9f327537b01e4e9906020015b60405180910390a150565b82610dbf611b69565b6001600160a01b0316637c145cc78230336040518463ffffffff1660e01b8152600401610dee939291906154d5565b602060405180830381865afa158015610e0b573d6000803e3d6000fd5b505050506040513d601f19601f82011682018060405250810190610e2f91906154f8565b81339091610e525760405163cc5d3c8b60e01b81526004016108ec929190615515565b50506001600160a01b0384166000908152610106602052604090205484908190610e905760405163ee27189960e01b81526004016108ec9190615048565b50610e99611db8565b6000610ea78486018661502b565b90506001600160a01b038616610ebe60cf836121f2565b51879183916001600160a01b031614610eec5760405163c0bbff1360e01b81526004016108ec929190615515565b5050610ef9816000612277565b856001600160a01b03167f73330c218a680717e9eee625c262df66eddfdf99ecb388d25f6b32d66b9a318a8686604051610f34929190615800565b60405180910390a2505050505050565b600080610ae46000546001549091565b82610f5d611b69565b6001600160a01b0316637c145cc78230336040518463ffffffff1660e01b8152600401610f8c939291906154d5565b602060405180830381865afa158015610fa9573d6000803e3d6000fd5b505050506040513d601f19601f82011682018060405250810190610fcd91906154f8565b81339091610ff05760405163cc5d3c8b60e01b81526004016108ec929190615515565b5050836000610ffe82611b8d565b905061100981611c90565b611014816000611cce565b6001600160a01b03861660009081526101066020526040902054869081906110505760405163ee27189960e01b81526004016108ec9190615048565b50611059611db8565b6001600160a01b03871661106e60cf886121f2565b51889188916001600160a01b03161461109c5760405163c0bbff1360e01b81526004016108ec929190615515565b50506110bb8686600260189054906101000a900463ffffffff166123d9565b50505050505050565b6110cc611ae3565b610848816000196126d7565b3360008181526067602052604090205460ff16611109576040516372e3ef9760e01b81526004016108ec9190615048565b50610acd612746565b600060608060008060006060600061112861278d565b805490915015801561113c57506001810154155b6111805760405162461bcd60e51b81526020600482015260156024820152741152540dcc4c8e88155b9a5b9a5d1a585b1a5e9959605a1b60448201526064016108ec565b6111886127b1565b611190612852565b60408051600080825260208201909252600f60f81b9c939b5091995046985030975095509350915050565b6000806111c661286f565b546001600160a01b031692915050565b604080516000815260208101909152606090826001600160401b038111156112005761120061552f565b60405190808252806020026020018201604052801561123357816020015b606081526020019060019003908161121e5790505b50915060005b838110156112b5576112903086868481811061125757611257615858565b9050602002810190611269919061586e565b8560405160200161127c939291906158b4565b604051602081830303815290604052612893565b8382815181106112a2576112a2615858565b6020908102919091010152600101611239565b50505b92915050565b6000846112c9611b69565b6001600160a01b0316637c145cc78230336040518463ffffffff1660e01b81526004016112f8939291906154d5565b602060405180830381865afa158015611315573d6000803e3d6000fd5b505050506040513d601f19601f8201168201806040525081019061133991906154f8565b8133909161135c5760405163cc5d3c8b60e01b81526004016108ec929190615515565b505085600061136a82611b8d565b905061137581611c90565b611380816000611cce565b6001600160a01b03881660009081526101066020526040902054889081906113bc5760405163ee27189960e01b81526004016108ec9190615048565b506113c5611db8565b6000808960028111156113da576113da6158db565b036113f1576113ea8a8989612909565b9050611430565b6002896002811115611405576114056158db565b03611415576113ea8a8989612e1d565b8860405163047031cf60e41b81526004016108ec9190615913565b886002811115611442576114426158db565b8a6001600160a01b03167f54fe682bfb66381a9382e13e4b95a3dd4f960eafbae063fdea3539d144ff3ff58360405161147d91815260200190565b60405180910390a39998505050505050505050565b60006112b882600260189054906101000a900463ffffffff16612ec1565b600061084b612ee0565b60006114c4612f04565b805490915060ff600160401b82041615906001600160401b03166000811580156114eb5750825b90506000826001600160401b031660011480156115075750303b155b905081158015611515575080155b156115335760405163f92ee8a960e01b815260040160405180910390fd5b84546001600160401b0319166001178555831561155c57845460ff60401b1916600160401b1785555b61156589612f2d565b61156d612f3e565b611575612f46565b61157d612f5e565b6115c96040518060400160405280600f81526020016e53756267726170685365727669636560881b815250604051806040016040528060038152602001620312e360ec1b815250612f6e565b6115d5886000196126d7565b6115de87611b15565b6115e786612f88565b831561162d57845460ff60401b19168555604051600181527fc7f505b2f371ae2175ee4913f4499e1f2633a7b5936321eed1cdaeb6115181d29060200160405180910390a15b505050505050505050565b337f00000000000000000000000000000000000000000000000000000000000000006001600160a01b03811682146116855760405163cdc0567f60e01b81526004016108ec929190615515565b50600090508061169783850185615921565b915091506116a3611b69565b6001600160a01b031663e76fede68684846116bc612fdf565b60405160e086901b6001600160e01b03191681526001600160a01b039485166004820152602481019390935260448301919091529091166064820152608401600060405180830381600087803b15801561171557600080fd5b505af1158015611729573d6000803e3d6000fd5b50505050846001600160a01b03167f02f2e74a11116e05b39159372cceb6739257b08d72f7171d208ff27bb6466c588360405161176891815260200190565b60405180910390a25050505050565b82611780611b69565b6001600160a01b0316637c145cc78230336040518463ffffffff1660e01b81526004016117af939291906154d5565b602060405180830381865afa1580156117cc573d6000803e3d6000fd5b505050506040513d601f19601f820116820180604052508101906117f091906154f8565b813390916118135760405163cc5d3c8b60e01b81526004016108ec929190615515565b505061181d611db8565b61182684613003565b6040516001600160a01b038516907ff53cf6521a1b5fc0c04bffa70374a4dc2e3474f2b2ac1643c3bcc54e2db4a93990600090a250505050565b600061186c8383613076565b9392505050565b600061084b612fdf565b82611886611b69565b6001600160a01b0316637c145cc78230336040518463ffffffff1660e01b81526004016118b5939291906154d5565b602060405180830381865afa1580156118d2573d6000803e3d6000fd5b505050506040513d601f19601f820116820180604052508101906118f691906154f8565b813390916119195760405163cc5d3c8b60e01b81526004016108ec929190615515565b505083600061192782611b8d565b905061193281611c90565b61193d816000611cce565b6001600160a01b03861660009081526101066020526040902054869081906119795760405163ee27189960e01b81526004016108ec9190615048565b50611982611db8565b6000808080611993898b018b615943565b93509350935093506119bb8b83868685600260189054906101000a900463ffffffff166130e5565b8a6001600160a01b03167fd3803eb82ef5b4cdff8646734ebbaf5b37441e96314b27ffd3d0940f12a038e78b8b6040516119f6929190615800565b60405180910390a25050505050505050505050565b611a13611ae3565b61084881612f88565b600061084b6132dc565b611a2e611db8565b6000611a3b60cf836121f2565b9050611a5260d2548261330090919063ffffffff16565b8290611a7157604051623477b560e51b81526004016108ec9190615048565b50611a7b8161333d565b158290611a9c576040516317c7b35d60e31b81526004016108ec9190615048565b50610a8f826001612277565b611ab0611ae3565b6001600160a01b038116611ada576000604051631e4fbdf760e01b81526004016108ec9190615048565b61084881612097565b33611aec6111bb565b6001600160a01b031614610acd573360405163118cdaa760e01b81526004016108ec9190615048565b6002805463ffffffff60c01b1916600160c01b63ffffffff8416908102919091179091556040519081527f472aba493f9fd1d136ec54986f619f3aa5caff964f0e731a9909fb9a1270211f90602001610dab565b7f000000000000000000000000000000000000000000000000000000000000000090565b6040805161014081018252600080825260208201819052918101829052606081018290526080810182905260a0810182905260c0810182905260e081018290526101008101829052610120810182905290611be6611b69565b6001600160a01b03166325d9897e84306040518363ffffffff1660e01b8152600401611c13929190615515565b61014060405180830381865afa158015611c31573d6000803e3d6000fd5b505050506040513d601f19601f82011682018060405250810190611c5591906159d0565b90508060a001516001600160401b0316600014158390611c8957604051637b3c09bf60e01b81526004016108ec9190615048565b5092915050565b6020810151815161084891611ca491615845565b60005460015460405180604001604052806006815260200165746f6b656e7360d01b81525061335c565b600080611cd96120f3565b91509150600083611cee578460800151611cf4565b8460e001515b9050611d42816001600160401b0316846001600160401b0316846001600160401b03166040518060400160405280600d81526020016c1d1a185dda5b99d4195c9a5bd9609a1b81525061335c565b600080611d4d611fdd565b91509150600086611d62578760600151611d68565b8760c001515b9050611dae8163ffffffff168463ffffffff168463ffffffff166040518060400160405280600e81526020016d1b585e15995c9a599a595c90dd5d60921b81525061335c565b5050505050505050565b611dc0610cdc565b15610acd5760405163d93c066560e01b815260040160405180910390fd5b6001600160a01b038281166000818152610109602052604080822080546001600160a01b0319169486169485179055517e3215dc05a2fc4e6a1e2c2776311d207c730ee51085aae221acc5cbe6fb55c19190a35050565b6001600160a01b0382166000908152606760205260409020548290829060ff161515811514611e8a57604051635e67e54b60e01b81526001600160a01b039092166004830152151560248201526044016108ec565b50506001600160a01b038216600081815260676020908152604091829020805460ff191685151590811790915591519182527fa95bac2f3df0d40e8278281c1d39d53c60e4f2bf3550ca5665738d0916e89789910160405180910390a25050565b611ef3613390565b6000611efd612073565b805460ff1916815590507f5db9ee0a495bf2e6ff9c91a7834c1ba4fdd244a5e8aa4e537bd38aeae4b073aa335b604051610dab9190615048565b6001600160a01b0382166000818152609c60209081526040808320815192830184905282820194909452805180830382018152606090920190528190611f8b9084906133b5906133ca906134c590896134ea565b91509150846001600160a01b03167f13f3fa9f0e54af1af76d8b5d11c3973d7c2aed6312b61efff2f7b49d73ad67eb8383806020019051810190611fcf9190615a7d565b604051611768929190615277565b600080611fe8612fdf565b6001600160a01b031663bb2a2b476040518163ffffffff1660e01b8152600401602060405180830381865afa158015612025573d6000803e3d6000fd5b505050506040513d601f19601f820116820180604052508101906120499190615a96565b92620f424092509050565b60006120638260600151151590565b80156112b8575050608001511590565b7fcd5ed15c6e187e77e9aee88184c21f4f2182ab5827cb3b7e07fbedcd63f0330090565b60006120a161286f565b80546001600160a01b038481166001600160a01b031983168117845560405193945091169182907f8be0079c531659141344cd1fd0a4f28419497f9722a3daafe3b4186f6b6457e090600090a3505050565b6000806000612100612fdf565b6001600160a01b0316635aea0ec46040518163ffffffff1660e01b8152600401602060405180830381865afa15801561213d573d6000803e3d6000fd5b505050506040513d601f19601f820116820180604052508101906121619190615ab3565b93849350915050565b60d28190556040518181527f21774046e2611ddb52c8c46e1ad97524eeb2e3fda7dcd9428867868b4c4d06ba90602001610dab565b6121ac60d08484846135a4565b80826001600160a01b0316846001600160a01b03167fd54c7abc930f6d506da2d08aa7aead4f2443e1db6d5f560384a2f652ff893e1960405160405180910390a4505050565b6121fa614fae565b6122048383613653565b604080516101208101825282546001600160a01b03168152600183015460208201526002830154918101919091526003820154606082015260048201546080820152600582015460a0820152600682015460c0820152600782015460e08201526008909101546101008201529392505050565b600061228460cf846121f2565b905061230f83612292613706565b6001600160a01b031663eeac3e0e84602001516040518263ffffffff1660e01b81526004016122c391815260200190565b6020604051808303816000875af11580156122e2573d6000803e3d6000fd5b505050506040513d601f19601f820116820180604052508101906123069190615a7d565b60cf919061372a565b61231a60cf846137dd565b8051604082015161232d9160d191613893565b806040015160d3600083602001518152602001908152602001600020546123549190615845565b60d3600083602001518152602001908152602001600020819055508060200151836001600160a01b031682600001516001600160a01b03167f08f2f865e0fb62d722a51e4d9873199bf6bf52e7d8ee5a2ee2896c9ef719f5458460400151866040516123cc9291909182521515602082015260400190565b60405180910390a4505050565b60006123e660cf856121f2565b90506123f181612054565b849061241157604051631eb5ff9560e01b81526004016108ec9190615048565b5080604001518314158484909161243d5760405163f32518cd60e01b81526004016108ec929190615ad0565b50506040810151808411156124735761246e612457611b69565b83516124638488615845565b60d192919087613911565b61248c565b815161248c906124838684615845565b60d19190613893565b6000612496613706565b6001600160a01b031663eeac3e0e84602001516040518263ffffffff1660e01b81526004016124c791815260200190565b6020604051808303816000875af11580156124e6573d6000803e3d6000fd5b505050506040513d601f19601f8201168201806040525081019061250a9190615a7d565b905060006125178461333d565b15612523576000612532565b60c08401516125329083615845565b6001600160a01b038816600090815260cf60205260409020600281018890556006018390559050612561613706565b6001600160a01b031663c8a5f81e84836040518363ffffffff1660e01b815260040161258e929190615277565b602060405180830381865afa1580156125ab573d6000803e3d6000fd5b505050506040513d601f19601f820116820180604052508101906125cf9190615a7d565b6001600160a01b038816600090815260cf6020526040812060070180549091906125fa908490615ae9565b909155505082861115612642576126118387615845565b60d360008660200151815260200190815260200160002060008282546126379190615ae9565b909155506126789050565b61264c8684615845565b60d360008660200151815260200190815260200160002060008282546126729190615845565b90915550505b8360200151876001600160a01b031685600001516001600160a01b03167f6db4a6f9be2d5e72eb2a2af2374ac487971bf342a261ba0bc1cf471bf2a2c31f89876040516126c6929190615277565b60405180910390a450505050505050565b8181808211156126fc5760405163ccccdafb60e01b81526004016108ec929190615277565b5050600082905560018190556040517f90699b8b4bf48918fea1129c85f9bc7b51285df7ecc982910813c7805f5688499061273a9084908490615277565b60405180910390a15050565b61274e611db8565b6000612758612073565b805460ff1916600117815590507f62e78cea01bee320cd4e420270b5ea74000d11b0c9f74754ebdbfc544b05a258611f2a3390565b7fa16a46d94261c7517cc8ff89f61c0ce93598e3c849801011dee649a6a557d10090565b606060006127bd61278d565b90508060020180546127ce906156c1565b80601f01602080910402602001604051908101604052809291908181526020018280546127fa906156c1565b80156128475780601f1061281c57610100808354040283529160200191612847565b820191906000526020600020905b81548152906001019060200180831161282a57829003601f168201915b505050505091505090565b6060600061285e61278d565b90508060030180546127ce906156c1565b7f9016d09d72d40fdae2fd8ceac6b6234c7706214fd39c1cd1e609a0528c19930090565b6060600080846001600160a01b0316846040516128b09190615afc565b600060405180830381855af49150503d80600081146128eb576040519150601f19603f3d011682016040523d82523d6000602084013e6128f0565b606091505b5091509150612900858383613a0f565b95945050505050565b6000808061291984860186615b3a565b8151604001519193509150866001600160a01b038281169082161461295357604051631a071d0760e01b81526004016108ec929190615515565b50508151516001600160a01b038111156129835760405163fa4ac7a760e01b81526004016108ec91815260200190565b50815151600061299460cf836121f2565b805190915088906001600160a01b03818116908316146129c957604051634508fbf760e11b81526004016108ec929190615515565b505060208101516129db896000611f37565b60008060006129e8613a62565b6001600160a01b03166370a08231306040518263ffffffff1660e01b8152600401612a139190615048565b602060405180830381865afa158015612a30573d6000803e3d6000fd5b505050506040513d601f19601f82011682018060405250810190612a549190615a7d565b9050612a5e6132dc565b6001600160a01b031663692209ce6000612afc8b612a7a612ee0565b6001600160a01b0316634c4ea0ed8a6040518263ffffffff1660e01b8152600401612aa791815260200190565b602060405180830381865afa158015612ac4573d6000803e3d6000fd5b505050506040513d601f19601f82011682018060405250810190612ae891906154f8565b612af3576000613a86565b61010854613a86565b8a6040518463ffffffff1660e01b8152600401612b1b93929190615c71565b6020604051808303816000875af1158015612b3a573d6000803e3d6000fd5b505050506040513d601f19601f82011682018060405250810190612b5e9190615a7d565b92506000612b6a613a62565b6001600160a01b03166370a08231306040518263ffffffff1660e01b8152600401612b959190615048565b602060405180830381865afa158015612bb2573d6000803e3d6000fd5b505050506040513d601f19601f82011682018060405250810190612bd69190615a7d565b9050818181811015612bfd57604051639db8bc9560e01b81526004016108ec929190615277565b50612c0a90508282615845565b92505082159050612db457612ca98b6101075484612c289190615ca1565b612c30612fdf565b6001600160a01b0316635aea0ec46040518163ffffffff1660e01b8152600401602060405180830381865afa158015612c6d573d6000803e3d6000fd5b505050506040513d601f19601f82011682018060405250810190612c919190615ab3565b612ca4906001600160401b031642615ae9565b613ada565b8015612db457612cb7613706565b6001600160a01b0316631d1c2fec846040518263ffffffff1660e01b8152600401612ce491815260200190565b6020604051808303816000875af1158015612d03573d6000803e3d6000fd5b505050506040513d601f19601f82011682018060405250810190612d279190615a7d565b50612d4c612d33612ee0565b82612d3c613a62565b6001600160a01b03169190613c4a565b612d54612ee0565b6001600160a01b0316638157328884836040518363ffffffff1660e01b8152600401612d81929190615277565b600060405180830381600087803b158015612d9b57600080fd5b505af1158015612daf573d6000803e3d6000fd5b505050505b86516020908101516040805186815292830185905282018390526001600160a01b038088169291811691908e16907f184c452047299395d4f7f147eb8e823458a450798539be54aeed978f13d87ba29060600160405180910390a4509998505050505050505050565b6000808080612e2e85870187615cb8565b919450925090506001600160a01b038716612e4a60cf856121f2565b51889185916001600160a01b031614612e785760405163c0bbff1360e01b81526004016108ec929190615515565b50506002546001600160a01b0388811660009081526101096020526040902054612eb692869286928692600160c01b900463ffffffff169116613cf9565b979650505050505050565b6000612ed8612ece611b69565b60d19085856142d6565b159392505050565b7f000000000000000000000000000000000000000000000000000000000000000090565b6000807ff0c57e16840df040f15088dc2f81fe391c3923bec73e23a9662efc9c229c6a006112b8565b612f35614370565b61084881614395565b610acd614370565b612f4e614370565b612f5661439d565b610acd612f3e565b612f66614370565b612f56612f3e565b612f76614370565b612f8082826143df565b610a8f612f3e565b80600003612fa95760405163bc71a04360e01b815260040160405180910390fd5b6101078190556040518181527f2aaaf20b08565eebc0c962cd7c568e54c3c0c2b85a1f942b82cd1bd730fdcd2390602001610dab565b7f000000000000000000000000000000000000000000000000000000000000000090565b61300e8160016143f1565b613016611b69565b6001600160a01b0316633a78b732826040518263ffffffff1660e01b81526004016130419190615048565b600060405180830381600087803b15801561305b57600080fd5b505af115801561306f573d6000803e3d6000fd5b5050505050565b600061186c7f4bdee85c4b4a268f4895d1096d553c3e57bb2433c380e7b7ec8cb56cc4f7467384846040516020016130ca939291909283526001600160a01b03918216602084015216604082015260600190565b60405160208183030381529060405280519060200120614408565b6001600160a01b03851661310c57604051634ffdf5ef60e11b815260040160405180910390fd5b613117868684614435565b61312b613122611b69565b60d09087614484565b600061313561457a565b6001600160a01b031663766718086040518163ffffffff1660e01b8152600401602060405180830381865afa158015613172573d6000803e3d6000fd5b505050506040513d601f19601f820116820180604052508101906131969190615a7d565b90506000613226888888886131a9613706565b6001600160a01b031663eeac3e0e8c6040518263ffffffff1660e01b81526004016131d691815260200190565b6020604051808303816000875af11580156131f5573d6000803e3d6000fd5b505050506040513d601f19601f820116820180604052508101906132199190615a7d565b60cf94939291908861459e565b905061323e613233611b69565b60d1908a8887613911565b806040015160d3600083602001518152602001908152602001600020546132659190615ae9565b60d36000836020015181526020019081526020016000208190555085876001600160a01b0316896001600160a01b03167fe5e185fab2b992c4727ff702a867d78b15fb176dbaa20c9c312a1c351d3f7f838460400151866040516132ca929190615277565b60405180910390a45050505050505050565b7f000000000000000000000000000000000000000000000000000000000000000090565b60008061331584606001518560a00151614706565b61331f9042615845565b905061332a84612054565b801561333557508281115b949350505050565b600061334c8260600151151590565b80156112b8575050604001511590565b613367848484614716565b8185858590919293611dae57604051630871e13d60e01b81526004016108ec9493929190615d10565b613398610cdc565b610acd57604051638dfc202b60e01b815260040160405180910390fd5b6000908152609b602052604090206003015490565b6000606060006133d98561472d565b90504281604001511115613401575050604080516020810190915260008152600191506134be565b600080858060200190518101906134189190615d3f565b8451919350915061342d90609a908390613893565b86816001600160a01b03167f4c06b68820628a39c787d2db1faa0eeacd7b9474847b198b1e871fe6e5b93f4485600001518660400151604051613471929190615277565b60405180910390a382516134859083615ae9565b6040805160208101929092526001600160a01b038316908201526060016040516020818303038152906040529550600086945094505050505b9250929050565b6000908152609b60205260408120818155600181018290556002810182905560030155565b60006060876003015483111561351357604051634a411b9d60e11b815260040160405180910390fd5b600083156135215783613527565b88600301545b89549094505b801580159061353c5750600085115b156135955760008061355283898c63ffffffff16565b915091508115613563575050613595565b9650866135718c8c8b6147bb565b92508661357d81615d65565b975050838061358b90615d7c565b945050505061352d565b50989397509295505050505050565b6001600160a01b0380831660009081526020868152604091829020825180840190935280549093168252600190920154918101919091526135e490614842565b15829061360557604051632d7d25f160e21b81526004016108ec9190615048565b506040805180820182526001600160a01b0394851681526020808201938452938516600090815295909352909320905181546001600160a01b03191692169190911781559051600190910155565b6001600160a01b03808216600090815260208481526040808320815161012081018352815490951685526001810154928501929092526002820154908401526003810154606084015260048101546080840152600581015460a0840152600681015460c0840152600781015460e0840152600881015461010084015290916136de9060600151151590565b83906136fe576040516342daadaf60e01b81526004016108ec9190615048565b509392505050565b7f000000000000000000000000000000000000000000000000000000000000000090565b60006137368484613653565b604080516101208101825282546001600160a01b03168152600183015460208201526002830154918101919091526003820154606082015260048201546080820152600582015460a0820152600682015460c0820152600782015460e082015260088201546101008201529091506137ad90612054565b600482015484916137d3576040516361b66e0d60e01b81526004016108ec929190615ad0565b5050600601555050565b60006137e98383613653565b604080516101208101825282546001600160a01b03168152600183015460208201526002830154918101919091526003820154606082015260048201546080820152600582015460a0820152600682015460c0820152600782015460e0820152600882015461010082015290915061386090612054565b60048201548391613886576040516361b66e0d60e01b81526004016108ec929190615ad0565b5050426004909101555050565b806000036138a057505050565b6001600160a01b03821660009081526020849052604090205481808210156138dd57604051635f8ec70960e01b81526004016108ec929190615277565b50506001600160a01b03821660009081526020849052604081208054839290613907908490615845565b9091555050505050565b811561306f576001600160a01b03831660009081526020869052604081205461393b908490615ae9565b90506000856001600160a01b031663872d04898630866040518463ffffffff1660e01b815260040161396f93929190615d95565b602060405180830381865afa15801561398c573d6000803e3d6000fd5b505050506040513d601f19601f820116820180604052508101906139b09190615a7d565b90508082818111156139d757604051635f8ec70960e01b81526004016108ec929190615277565b50506001600160a01b03851660009081526020889052604081208054869290613a01908490615ae9565b909155505050505050505050565b606082613a2457613a1f82614851565b61186c565b8151158015613a3b57506001600160a01b0384163b155b15613a5b5783604051639996b31560e01b81526004016108ec9190615048565b508061186c565b7f000000000000000000000000000000000000000000000000000000000000000090565b81516040908101516001600160a01b039081166000908152610109602090815290839020549251606093613ac39387938793929091169101615dbe565b604051602081830303815290604052905092915050565b81600003613afb57604051638f4c63d960e01b815260040160405180910390fd5b613b27613b06611b69565b600254609a91908690869063ffffffff600160c01b90910481169061391116565b6001600160a01b0383166000908152609c6020908152604080832060028082015483516001600160601b031930606090811b8216838901528b901b166034820152604880820192909252845180820390920182526068810180865282519287019290922060e882018652898352426088830190815260a883018a815260c8909301898152828a52609b909852959097209151825593516001820155925190830155915160039182015581015490919015613bf55760018201546000908152609b602052604090206003018190555b613bff828261487a565b80856001600160a01b03167f5d9e2c5278e41138269f5f980cfbea016d8c59816754502abc4d2f87aaea987f8686604051613c3b929190615277565b60405180910390a35050505050565b8015610d3c5760405163a9059cbb60e01b81526001600160a01b0384169063a9059cbb90613c7e9085908590600401615ad0565b6020604051808303816000875af1158015613c9d573d6000803e3d6000fd5b505050506040513d601f19601f82011682018060405250810190613cc191906154f8565b610d3c5760405162461bcd60e51b815260206004820152600960248201526810ba3930b739b332b960b91b60448201526064016108ec565b600080613d0760cf886121f2565b9050613d1281612054565b8790613d3257604051631eb5ff9560e01b81526004016108ec9190615048565b506000613d4a60d2548361330090919063ffffffff16565b158015613d5d5750613d5b8261333d565b155b8015613d6857508615155b8015613de05750816101000151613d7d61457a565b6001600160a01b031663766718086040518163ffffffff1660e01b8152600401602060405180830381865afa158015613dba573d6000803e3d6000fd5b505050506040513d601f19601f82011682018060405250810190613dde9190615a7d565b115b613deb576000613e61565b613df3613706565b6001600160a01b031663db750926896040518263ffffffff1660e01b8152600401613e1e9190615048565b6020604051808303816000875af1158015613e3d573d6000803e3d6000fd5b505050506040513d601f19601f82011682018060405250810190613e619190615a7d565b9050613ea088613e6f613706565b6001600160a01b031663eeac3e0e85602001516040518263ffffffff1660e01b81526004016122c391815260200190565b613eab60cf8961490d565b613eb660cf896149c3565b60008082156141ef576000613ec9611b69565b8551604051637573ef4f60e01b81526001600160a01b039290921691637573ef4f91613efc913090600290600401615e87565b602060405180830381865afa158015613f19573d6000803e3d6000fd5b505050506040513d601f19601f82011682018060405250810190613f3d9190615a7d565b90506000613f49611b69565b8651604051631584a17960e21b81526001600160a01b03929092169163561285e491613f79913090600401615515565b60a060405180830381865afa158015613f96573d6000803e3d6000fd5b505050506040513d601f19601f82011682018060405250810190613fba9190615eac565b90506000816020015111613fcf576000613fd9565b613fd98583614a7a565b925082156140ce57613fe9613a62565b6001600160a01b031663095ea7b3613fff611b69565b856040518363ffffffff1660e01b815260040161401d929190615ad0565b6020604051808303816000875af115801561403c573d6000803e3d6000fd5b505050506040513d601f19601f8201168201806040525081019061406091906154f8565b50614069611b69565b865160405163ca94b0e960e01b81526001600160a01b03929092169163ca94b0e99161409b9130908890600401615f1f565b600060405180830381600087803b1580156140b557600080fd5b505af11580156140c9573d6000803e3d6000fd5b505050505b6140d88386615845565b935083156141ec576001600160a01b0388166141df576140f6613a62565b6001600160a01b031663095ea7b361410c611b69565b866040518363ffffffff1660e01b815260040161412a929190615ad0565b6020604051808303816000875af1158015614149573d6000803e3d6000fd5b505050506040513d601f19601f8201168201806040525081019061416d91906154f8565b50614176611b69565b8651604051633a30904960e11b81526001600160a01b0392909216916374612092916141a89130908990600401615f1f565b600060405180830381600087803b1580156141c257600080fd5b505af11580156141d6573d6000803e3d6000fd5b505050506141ec565b6141ec8885612d3c613a62565b50505b602084015184516001600160a01b03808d1691167f443f56bd2098d273b8c8120398789a41da5925db4ba2f656813fc5299ac57b1f8686868f8f61423161457a565b6001600160a01b031663766718086040518163ffffffff1660e01b8152600401602060405180830381865afa15801561426e573d6000803e3d6000fd5b505050506040513d601f19601f820116820180604052508101906142929190615a7d565b6040516142a496959493929190615f43565b60405180910390a483516142b89088612ec1565b156142c8576142c88a6001612277565b509098975050505050505050565b600080846001600160a01b031663872d04898530866040518463ffffffff1660e01b815260040161430993929190615d95565b602060405180830381865afa158015614326573d6000803e3d6000fd5b505050506040513d601f19601f8201168201806040525081019061434a9190615a7d565b6001600160a01b0385166000908152602088905260409020541115915050949350505050565b614378614ada565b610acd57604051631afcd79f60e31b815260040160405180910390fd5b611ab0614370565b6143a5614370565b6143b260006000196126d7565b6143c06000620f4240614af4565b6143d260006001600160401b03614bc5565b610acd63ffffffff611b15565b6143e7614370565b610a8f8282614c52565b60006143fc83611b8d565b9050610d3c8183611cce565b60006112b8614415614c93565b8360405161190160f01b8152600281019290925260228201526042902090565b600061444a6144448585613076565b83614c9d565b905080836001600160a01b038083169082161461447c57604051638c5b935d60e01b81526004016108ec929190615515565b505050505050565b6001600160a01b0380821660009081526020858152604091829020825180840190935280549093168252600190920154918101919091526144c490614842565b1581906144e557604051632d7d25f160e21b81526004016108ec9190615048565b506040516378eb06b360e11b81526001600160a01b0383169063f1d60d6690614512908490600401615048565b602060405180830381865afa15801561452f573d6000803e3d6000fd5b505050506040513d601f19601f8201168201806040525081019061455391906154f8565b15819061457457604051632d7d25f160e21b81526004016108ec9190615048565b50505050565b7f000000000000000000000000000000000000000000000000000000000000000090565b6145a6614fae565b6001600160a01b03808716600090815260208a8152604091829020825161012081018452815490941684526001810154918401919091526002810154918301919091526003810154606083015260048101546080830152600581015460a0830152600681015460c0830152600781015460e0830152600801546101008201526146329060600151151590565b15869061465357604051630bc4def560e01b81526004016108ec9190615048565b505060408051610120810182526001600160a01b0397881681526020808201968752818301958652426060830190815260006080840181815260a0850182815260c0860198895260e0860183815261010087019889529b8d1683529c90935293909320825181546001600160a01b0319169a169990991789559551600189015593516002880155516003870155925160048601559451600585015593516006840155905160078301555160089091015590565b600082821882841102821861186c565b600082841015801561333557505090911115919050565b61475b6040518060800160405280600081526020016000815260200160008152602001600080191681525090565b6000828152609b602090815260409182902082516080810184528154815260018201549281018390526002820154938101939093526003015460608301528390611c895760405163107349a960e21b81526004016108ec91815260200190565b6000808460030154116147e15760405163ddaf8f2160e01b815260040160405180910390fd5b60006147f485600001548563ffffffff16565b905061480785600001548463ffffffff16565b600185600301600082825461481c9190615845565b9091555050808555600385015460000361483857600060018601555b5050915492915050565b516001600160a01b0316151590565b8051156148615780518082602001fd5b60405163d6bda27560e01b815260040160405180910390fd5b6127108260030154106148a0576040516303a8c56b60e61b815260040160405180910390fd5b806148be57604051638f4a893d60e01b815260040160405180910390fd5b60018083018290556002830180546000906148da908490615ae9565b909155505060038201546000036148ef578082555b60018260030160008282546149049190615ae9565b90915550505050565b60006149198383613653565b604080516101208101825282546001600160a01b03168152600183015460208201526002830154918101919091526003820154606082015260048201546080820152600582015460a0820152600682015460c0820152600782015460e0820152600882015461010082015290915061499090612054565b600482015483916149b6576040516361b66e0d60e01b81526004016108ec929190615ad0565b5050426005909101555050565b60006149cf8383613653565b604080516101208101825282546001600160a01b03168152600183015460208201526002830154918101919091526003820154606082015260048201546080820152600582015460a0820152600682015460c0820152600782015460e08201526008820154610100820152909150614a4690612054565b60048201548391614a6c576040516361b66e0d60e01b81526004016108ec929190615ad0565b505060006007909101555050565b6000614a8983620f4240101590565b80614a9c5750614a9c82620f4240101590565b83839091614abf5760405163768bf0eb60e11b81526004016108ec929190615277565b50620f42409050614ad08385615ca1565b61186c9190615f81565b6000614ae4612f04565b54600160401b900460ff16919050565b818163ffffffff8082169083161115614b225760405163ccccdafb60e01b81526004016108ec929190615180565b508290508163ffffffff8116620f42401015614b535760405163ccccdafb60e01b81526004016108ec929190615180565b50506002805463ffffffff838116600160a01b0263ffffffff60a01b19918616600160801b0291909116600160801b600160c01b0319909216919091171790556040517f2fe5a7039987697813605cc0b9d6db7aab575408e3fc59e8a457bef8d7bc0a369061273a9084908490615180565b81816001600160401b038082169083161115614bf65760405163ccccdafb60e01b81526004016108ec92919061521c565b5050600280546001600160401b03838116600160401b026001600160801b0319909216908516171790556040517f2867e04c500e438761486b78021d4f9eb97c77ff45d10c1183f5583ba4cbf7d19061273a908490849061521c565b614c5a614370565b6000614c6461278d565b905060028101614c748482615742565b5060038101614c838382615742565b5060008082556001909101555050565b600061084b614cc7565b600080600080614cad8686614d3b565b925092509250614cbd8282614d88565b5090949350505050565b60007f8b73c3c69bb8fe3d512ecc4cf759cc79239f7b179b0ffacaa9a75d522b39400f614cf2614e41565b614cfa614ea8565b60408051602081019490945283019190915260608201524660808201523060a082015260c00160405160208183030381529060405280519060200120905090565b60008060008351604103614d755760208401516040850151606086015160001a614d6788828585614ee9565b955095509550505050614d81565b50508151600091506002905b9250925092565b6000826003811115614d9c57614d9c6158db565b03614da5575050565b6001826003811115614db957614db96158db565b03614dd75760405163f645eedf60e01b815260040160405180910390fd5b6002826003811115614deb57614deb6158db565b03614e0c5760405163fce698f760e01b8152600481018290526024016108ec565b6003826003811115614e2057614e206158db565b03610a8f576040516335e2f38360e21b8152600481018290526024016108ec565b600080614e4c61278d565b90506000614e586127b1565b805190915015614e7057805160209091012092915050565b81548015614e7f579392505050565b7fc5d2460186f7233c927e7db2dcc703c0e500b653ca82273b7bfad8045d85a470935050505090565b600080614eb361278d565b90506000614ebf612852565b805190915015614ed757805160209091012092915050565b60018201548015614e7f579392505050565b600080806fa2a8918ca85bafe22016d0b997e4df60600160ff1b03841115614f1a5750600091506003905082614fa4565b604080516000808252602082018084528a905260ff891692820192909252606081018790526080810186905260019060a0016020604051602081039080840390855afa158015614f6e573d6000803e3d6000fd5b5050604051601f1901519150506001600160a01b038116614f9a57506000925060019150829050614fa4565b9250600091508190505b9450945094915050565b60405180610120016040528060006001600160a01b0316815260200160008019168152602001600081526020016000815260200160008152602001600081526020016000815260200160008152602001600081525090565b6001600160a01b038116811461084857600080fd5b803561502681615006565b919050565b60006020828403121561503d57600080fd5b813561186c81615006565b6001600160a01b0391909116815260200190565b63ffffffff8116811461084857600080fd5b60006020828403121561508057600080fd5b813561186c8161505c565b60008083601f84011261509d57600080fd5b5081356001600160401b038111156150b457600080fd5b6020830191508360208285010111156134be57600080fd5b6000806000604084860312156150e157600080fd5b83356150ec81615006565b925060208401356001600160401b0381111561510757600080fd5b6151138682870161508b565b9497909650939450505050565b801515811461084857600080fd5b6000806040838503121561514157600080fd5b823561514c81615006565b9150602083013561515c81615120565b809150509250929050565b60006020828403121561517957600080fd5b5035919050565b63ffffffff92831681529116602082015260400190565b60005b838110156151b257818101518382015260200161519a565b50506000910152565b600081518084526151d3816020860160208601615197565b601f01601f19169290920160200192915050565b83815260606020820152600061520060608301856151bb565b828103604084015261521281856151bb565b9695505050505050565b6001600160401b0392831681529116602082015260400190565b60008060006060848603121561524b57600080fd5b833561525681615006565b9250602084013561526681615006565b929592945050506040919091013590565b918252602082015260400190565b60ff60f81b8816815260e0602082015260006152a460e08301896151bb565b82810360408401526152b681896151bb565b606084018890526001600160a01b038716608085015260a0840186905283810360c08501528451808252602080870193509091019060005b8181101561530c5783518352602093840193909201916001016152ee565b50909b9a5050505050505050505050565b6000806020838503121561533057600080fd5b82356001600160401b0381111561534657600080fd5b8301601f8101851361535757600080fd5b80356001600160401b0381111561536d57600080fd5b8560208260051b840101111561538257600080fd5b6020919091019590945092505050565b6000602082016020835280845180835260408501915060408160051b86010192506020860160005b828110156153eb57603f198786030184526153d68583516151bb565b945060209384019391909101906001016153ba565b50929695505050505050565b6000806000806060858703121561540d57600080fd5b843561541881615006565b935060208501356003811061542c57600080fd5b925060408501356001600160401b0381111561544757600080fd5b6154538782880161508b565b95989497509550505050565b6000806000806080858703121561547557600080fd5b843561548081615006565b93506020850135925060408501356154978161505c565b9396929550929360600135925050565b600080604083850312156154ba57600080fd5b82356154c581615006565b9150602083013561515c81615006565b6001600160a01b0393841681529183166020830152909116604082015260600190565b60006020828403121561550a57600080fd5b815161186c81615120565b6001600160a01b0392831681529116602082015260400190565b634e487b7160e01b600052604160045260246000fd5b60405161014081016001600160401b03811182821017156155685761556861552f565b60405290565b604080519081016001600160401b03811182821017156155685761556861552f565b60405160e081016001600160401b03811182821017156155685761556861552f565b600082601f8301126155c357600080fd5b8135602083016000806001600160401b038411156155e3576155e361552f565b50604051601f19601f85018116603f011681018181106001600160401b03821117156156115761561161552f565b60405283815290508082840187101561562957600080fd5b838360208301376000602085830101528094505050505092915050565b60008060006060848603121561565b57600080fd5b83356001600160401b0381111561567157600080fd5b61567d868287016155b2565b93505060208401356001600160401b0381111561569957600080fd5b6156a5868287016155b2565b92505060408401356156b681615006565b809150509250925092565b600181811c908216806156d557607f821691505b6020821081036156f557634e487b7160e01b600052602260045260246000fd5b50919050565b601f821115610d3c57806000526020600020601f840160051c810160208510156157225750805b601f840160051c820191505b8181101561306f576000815560010161572e565b81516001600160401b0381111561575b5761575b61552f565b61576f8161576984546156c1565b846156fb565b6020601f8211600181146157a3576000831561578b5750848201515b600019600385901b1c1916600184901b17845561306f565b600084815260208120601f198516915b828110156157d357878501518255602094850194600190920191016157b3565b50848210156157f15786840151600019600387901b60f8161c191681555b50505050600190811b01905550565b60208152816020820152818360408301376000818301604090810191909152601f909201601f19160101919050565b634e487b7160e01b600052601160045260246000fd5b818103818111156112b8576112b861582f565b634e487b7160e01b600052603260045260246000fd5b6000808335601e1984360301811261588557600080fd5b8301803591506001600160401b0382111561589f57600080fd5b6020019150368190038213156134be57600080fd5b8284823760008382016000815283516158d1818360208801615197565b0195945050505050565b634e487b7160e01b600052602160045260246000fd5b6003811061590f57634e487b7160e01b600052602160045260246000fd5b9052565b602081016112b882846158f1565b6000806040838503121561593457600080fd5b50508035926020909101359150565b6000806000806080858703121561595957600080fd5b8435935060208501359250604085013561597281615006565b915060608501356001600160401b0381111561598d57600080fd5b615999878288016155b2565b91505092959194509250565b80516150268161505c565b6001600160401b038116811461084857600080fd5b8051615026816159b0565b60006101408284031280156159e457600080fd5b5060006159ef615545565b835181526020808501519082015260408085015190820152615a13606085016159a5565b6060820152615a24608085016159c5565b6080820152615a3560a085016159c5565b60a0820152615a4660c085016159a5565b60c0820152615a5760e085016159c5565b60e082015261010084810151908201526101209384015193810193909352509092915050565b600060208284031215615a8f57600080fd5b5051919050565b600060208284031215615aa857600080fd5b815161186c8161505c565b600060208284031215615ac557600080fd5b815161186c816159b0565b6001600160a01b03929092168252602082015260400190565b808201808211156112b8576112b861582f565b60008251615b0e818460208701615197565b9190910192915050565b8035615026816159b0565b80356001600160801b038116811461502657600080fd5b60008060408385031215615b4d57600080fd5b82356001600160401b03811115615b6357600080fd5b830160408186031215615b7557600080fd5b615b7d61556e565b81356001600160401b03811115615b9357600080fd5b820160e08188031215615ba557600080fd5b615bad615590565b81358152615bbd6020830161501b565b6020820152615bce6040830161501b565b6040820152615bdf6060830161501b565b6060820152615bf060808301615b18565b6080820152615c0160a08301615b23565b60a082015260c08201356001600160401b03811115615c1f57600080fd5b615c2b898285016155b2565b60c08301525082525060208201356001600160401b03811115615c4d57600080fd5b615c59878285016155b2565b60208381019190915291979590910135955050505050565b615c7b81856158f1565b606060208201526000615c9160608301856151bb565b9050826040830152949350505050565b80820281158282048414176112b8576112b861582f565b600080600060608486031215615ccd57600080fd5b8335615cd881615006565b92506020840135915060408401356001600160401b03811115615cfa57600080fd5b615d06868287016155b2565b9150509250925092565b608081526000615d2360808301876151bb565b6020830195909552506040810192909252606090910152919050565b60008060408385031215615d5257600080fd5b8251602084015190925061515c81615006565b600081615d7457615d7461582f565b506000190190565b600060018201615d8e57615d8e61582f565b5060010190565b6001600160a01b03938416815291909216602082015263ffffffff909116604082015260600190565b606080825284516040838301819052815160a085015260208201516001600160a01b0390811660c086015290820151811660e08501529181015190911661010083015260808101516001600160401b038116610120840152600091905060a08101516001600160801b0381166101408501525060c0015160e0610160840152615e4b6101808401826151bb565b90506020860151605f19848303016080850152615e6882826151bb565b9250505083602083015261333560408301846001600160a01b03169052565b6001600160a01b038481168252831660208201526060810161333560408301846158f1565b600060a0828403128015615ebf57600080fd5b5060405160009060a081016001600160401b0381118282101715615ee557615ee561552f565b6040908152845182526020808601519083015284810151908201526060808501519082015260809384015193810193909352509092915050565b6001600160a01b039384168152919092166020820152604081019190915260600190565b86815285602082015284604082015283606082015260c060808201526000615f6e60c08301856151bb565b90508260a0830152979650505050505050565b600082615f9e57634e487b7160e01b600052601260045260246000fd5b50049056fea2646970667358221220b85de947a2adf153b4d5d66360454c8d0624bca998d3fc8f12bd17e31d74127864736f6c634300081b0033",
  "linkReferences": {},
  "deployedLinkReferences": {}
}