{
  "_format": "hh-sol-artifact-1",
  "contractName": "SubgraphService",
  "sourceName": "contracts/SubgraphService.sol",
  "abi": [
    {
      "inputs": [
        {
          "internalType": "address",
          "name": "graphController",
          "type": "address"
        },
        {
          "internalType": "address",
          "name": "disputeManager",
          "type": "address"
        },
        {
          "internalType": "address",
          "name": "graphTallyCollector",
          "type": "address"
        },
        {
          "internalType": "address",
          "name": "curation",
          "type": "address"
        }
      ],
      "stateMutability": "nonpayable",
      "type": "constructor"
    },
    {
      "inputs": [
        {
          "internalType": "address",
          "name": "target",
          "type": "address"
        }
      ],
      "name": "AddressEmptyCode",
      "type": "error"
    },
    {
      "inputs": [
        {
          "internalType": "address",
          "name": "allocationId",
          "type": "address"
        }
      ],
      "name": "AllocationAlreadyExists",
      "type": "error"
    },
    {
      "inputs": [
        {
          "internalType": "address",
          "name": "allocationId",
          "type": "address"
        },
        {
          "internalType": "uint256",
          "name": "closedAt",
          "type": "uint256"
        }
      ],
      "name": "AllocationClosed",
      "type": "error"
    },
    {
      "inputs": [
        {
          "internalType": "address",
          "name": "allocationId",
          "type": "address"
        }
      ],
      "name": "AllocationDoesNotExist",
      "type": "error"
    },
    {
      "inputs": [
        {
          "internalType": "address",
          "name": "allocationId",
          "type": "address"
        }
      ],
      "name": "AllocationManagerAllocationClosed",
      "type": "error"
    },
    {
      "inputs": [
        {
          "internalType": "address",
          "name": "allocationId",
          "type": "address"
        },
        {
          "internalType": "uint256",
          "name": "tokens",
          "type": "uint256"
        }
      ],
      "name": "AllocationManagerAllocationSameSize",
      "type": "error"
    },
    {
      "inputs": [
        {
          "internalType": "address",
          "name": "signer",
          "type": "address"
        },
        {
          "internalType": "address",
          "name": "allocationId",
          "type": "address"
        }
      ],
      "name": "AllocationManagerInvalidAllocationProof",
      "type": "error"
    },
    {
      "inputs": [],
      "name": "AllocationManagerInvalidZeroAllocationId",
      "type": "error"
    },
    {
      "inputs": [
        {
          "internalType": "bytes32",
          "name": "claimId",
          "type": "bytes32"
        }
      ],
      "name": "DataServiceFeesClaimNotFound",
      "type": "error"
    },
    {
      "inputs": [],
      "name": "DataServiceFeesZeroTokens",
      "type": "error"
    },
    {
      "inputs": [
        {
          "internalType": "address",
          "name": "account",
          "type": "address"
        }
      ],
      "name": "DataServicePausableNotPauseGuardian",
      "type": "error"
    },
    {
      "inputs": [
        {
          "internalType": "address",
          "name": "account",
          "type": "address"
        },
        {
          "internalType": "bool",
          "name": "allowed",
          "type": "bool"
        }
      ],
      "name": "DataServicePausablePauseGuardianNoChange",
      "type": "error"
    },
    {
      "inputs": [
        {
          "internalType": "address",
          "name": "caller",
          "type": "address"
        },
        {
          "internalType": "address",
          "name": "disputeManager",
          "type": "address"
        }
      ],
      "name": "DirectoryNotDisputeManager",
      "type": "error"
    },
    {
      "inputs": [],
      "name": "ECDSAInvalidSignature",
      "type": "error"
    },
    {
      "inputs": [
        {
          "internalType": "uint256",
          "name": "length",
          "type": "uint256"
        }
      ],
      "name": "ECDSAInvalidSignatureLength",
      "type": "error"
    },
    {
      "inputs": [
        {
          "internalType": "bytes32",
          "name": "s",
          "type": "bytes32"
        }
      ],
      "name": "ECDSAInvalidSignatureS",
      "type": "error"
    },
    {
      "inputs": [],
      "name": "EnforcedPause",
      "type": "error"
    },
    {
      "inputs": [],
      "name": "ExpectedPause",
      "type": "error"
    },
    {
      "inputs": [],
      "name": "FailedInnerCall",
      "type": "error"
    },
    {
      "inputs": [
        {
          "internalType": "bytes",
          "name": "contractName",
          "type": "bytes"
        }
      ],
      "name": "GraphDirectoryInvalidZeroAddress",
      "type": "error"
    },
    {
      "inputs": [],
      "name": "InvalidInitialization",
      "type": "error"
    },
    {
      "inputs": [
        {
          "internalType": "address",
          "name": "allocationId",
          "type": "address"
        }
      ],
      "name": "LegacyAllocationAlreadyExists",
      "type": "error"
    },
    {
      "inputs": [],
      "name": "LinkedListEmptyList",
      "type": "error"
    },
    {
      "inputs": [],
      "name": "LinkedListInvalidIterations",
      "type": "error"
    },
    {
      "inputs": [],
      "name": "LinkedListInvalidZeroId",
      "type": "error"
    },
    {
      "inputs": [],
      "name": "LinkedListMaxElementsExceeded",
      "type": "error"
    },
    {
      "inputs": [],
      "name": "NotInitializing",
      "type": "error"
    },
    {
      "inputs": [
        {
          "internalType": "address",
          "name": "owner",
          "type": "address"
        }
      ],
      "name": "OwnableInvalidOwner",
      "type": "error"
    },
    {
      "inputs": [
        {
          "internalType": "address",
          "name": "account",
          "type": "address"
        }
      ],
      "name": "OwnableUnauthorizedAccount",
      "type": "error"
    },
    {
      "inputs": [
        {
          "internalType": "uint256",
          "name": "a",
          "type": "uint256"
        },
        {
          "internalType": "uint256",
          "name": "b",
          "type": "uint256"
        }
      ],
      "name": "PPMMathInvalidMulPPM",
      "type": "error"
    },
    {
      "inputs": [
        {
          "internalType": "uint256",
          "name": "min",
          "type": "uint256"
        },
        {
          "internalType": "uint256",
          "name": "max",
          "type": "uint256"
        }
      ],
      "name": "ProvisionManagerInvalidRange",
      "type": "error"
    },
    {
      "inputs": [
        {
          "internalType": "bytes",
          "name": "message",
          "type": "bytes"
        },
        {
          "internalType": "uint256",
          "name": "value",
          "type": "uint256"
        },
        {
          "internalType": "uint256",
          "name": "min",
          "type": "uint256"
        },
        {
          "internalType": "uint256",
          "name": "max",
          "type": "uint256"
        }
      ],
      "name": "ProvisionManagerInvalidValue",
      "type": "error"
    },
    {
      "inputs": [
        {
          "internalType": "address",
          "name": "serviceProvider",
          "type": "address"
        },
        {
          "internalType": "address",
          "name": "caller",
          "type": "address"
        }
      ],
      "name": "ProvisionManagerNotAuthorized",
      "type": "error"
    },
    {
      "inputs": [
        {
          "internalType": "address",
          "name": "serviceProvider",
          "type": "address"
        }
      ],
      "name": "ProvisionManagerProvisionNotFound",
      "type": "error"
    },
    {
      "inputs": [
        {
          "internalType": "uint256",
          "name": "tokensAvailable",
          "type": "uint256"
        },
        {
          "internalType": "uint256",
          "name": "tokensRequired",
          "type": "uint256"
        }
      ],
      "name": "ProvisionTrackerInsufficientTokens",
      "type": "error"
    },
    {
      "inputs": [
        {
          "internalType": "address",
          "name": "allocationId",
          "type": "address"
        }
      ],
      "name": "SubgraphServiceAllocationIsAltruistic",
      "type": "error"
    },
    {
      "inputs": [
        {
          "internalType": "address",
          "name": "indexer",
          "type": "address"
        },
        {
          "internalType": "address",
          "name": "allocationId",
          "type": "address"
        }
      ],
      "name": "SubgraphServiceAllocationNotAuthorized",
      "type": "error"
    },
    {
      "inputs": [
        {
          "internalType": "address",
          "name": "allocationId",
          "type": "address"
        }
      ],
      "name": "SubgraphServiceCannotForceCloseAllocation",
      "type": "error"
    },
    {
      "inputs": [],
      "name": "SubgraphServiceEmptyGeohash",
      "type": "error"
    },
    {
      "inputs": [],
      "name": "SubgraphServiceEmptyUrl",
      "type": "error"
    },
    {
      "inputs": [
        {
          "internalType": "uint256",
          "name": "balanceBefore",
          "type": "uint256"
        },
        {
          "internalType": "uint256",
          "name": "balanceAfter",
          "type": "uint256"
        }
      ],
      "name": "SubgraphServiceInconsistentCollection",
      "type": "error"
    },
    {
      "inputs": [],
      "name": "SubgraphServiceIndexerAlreadyRegistered",
      "type": "error"
    },
    {
      "inputs": [
        {
          "internalType": "address",
          "name": "providedIndexer",
          "type": "address"
        },
        {
          "internalType": "address",
          "name": "expectedIndexer",
          "type": "address"
        }
      ],
      "name": "SubgraphServiceIndexerMismatch",
      "type": "error"
    },
    {
      "inputs": [
        {
          "internalType": "address",
          "name": "indexer",
          "type": "address"
        }
      ],
      "name": "SubgraphServiceIndexerNotRegistered",
      "type": "error"
    },
    {
      "inputs": [
        {
          "internalType": "bytes32",
          "name": "collectionId",
          "type": "bytes32"
        }
      ],
      "name": "SubgraphServiceInvalidCollectionId",
      "type": "error"
    },
    {
      "inputs": [
        {
          "internalType": "uint256",
          "name": "curationCut",
          "type": "uint256"
        }
      ],
      "name": "SubgraphServiceInvalidCurationCut",
      "type": "error"
    },
    {
      "inputs": [
        {
          "internalType": "enum IGraphPayments.PaymentTypes",
          "name": "paymentType",
          "type": "uint8"
        }
      ],
      "name": "SubgraphServiceInvalidPaymentType",
      "type": "error"
    },
    {
      "inputs": [
        {
          "internalType": "address",
          "name": "ravIndexer",
          "type": "address"
        },
        {
          "internalType": "address",
          "name": "allocationIndexer",
          "type": "address"
        }
      ],
      "name": "SubgraphServiceInvalidRAV",
      "type": "error"
    },
    {
      "inputs": [],
      "name": "SubgraphServiceInvalidZeroStakeToFeesRatio",
      "type": "error"
    },
    {
      "anonymous": false,
      "inputs": [
        {
          "indexed": true,
          "internalType": "address",
          "name": "indexer",
          "type": "address"
        },
        {
          "indexed": true,
          "internalType": "address",
          "name": "allocationId",
          "type": "address"
        },
        {
          "indexed": true,
          "internalType": "bytes32",
          "name": "subgraphDeploymentId",
          "type": "bytes32"
        },
        {
          "indexed": false,
          "internalType": "uint256",
          "name": "tokens",
          "type": "uint256"
        }
      ],
      "name": "AllocationClosed",
      "type": "event"
    },
    {
      "anonymous": false,
      "inputs": [
        {
          "indexed": true,
          "internalType": "address",
          "name": "indexer",
          "type": "address"
        },
        {
          "indexed": true,
          "internalType": "address",
          "name": "allocationId",
          "type": "address"
        },
        {
          "indexed": true,
          "internalType": "bytes32",
          "name": "subgraphDeploymentId",
          "type": "bytes32"
        },
        {
          "indexed": false,
          "internalType": "uint256",
          "name": "tokens",
          "type": "uint256"
        },
        {
          "indexed": false,
          "internalType": "uint256",
          "name": "currentEpoch",
          "type": "uint256"
        }
      ],
      "name": "AllocationCreated",
      "type": "event"
    },
    {
      "anonymous": false,
      "inputs": [
        {
          "indexed": true,
          "internalType": "address",
          "name": "indexer",
          "type": "address"
        },
        {
          "indexed": true,
          "internalType": "address",
          "name": "allocationId",
          "type": "address"
        },
        {
          "indexed": true,
          "internalType": "bytes32",
          "name": "subgraphDeploymentId",
          "type": "bytes32"
        },
        {
          "indexed": false,
          "internalType": "uint256",
          "name": "newTokens",
          "type": "uint256"
        },
        {
          "indexed": false,
          "internalType": "uint256",
          "name": "oldTokens",
          "type": "uint256"
        }
      ],
      "name": "AllocationResized",
      "type": "event"
    },
    {
      "anonymous": false,
      "inputs": [
        {
          "indexed": false,
          "internalType": "uint256",
          "name": "curationCut",
          "type": "uint256"
        }
      ],
      "name": "CurationCutSet",
      "type": "event"
    },
    {
      "anonymous": false,
      "inputs": [
        {
          "indexed": false,
          "internalType": "uint32",
          "name": "ratio",
          "type": "uint32"
        }
      ],
      "name": "DelegationRatioSet",
      "type": "event"
    },
    {
      "anonymous": false,
      "inputs": [],
      "name": "EIP712DomainChanged",
      "type": "event"
    },
    {
      "anonymous": false,
      "inputs": [
        {
          "indexed": true,
          "internalType": "address",
          "name": "graphToken",
          "type": "address"
        },
        {
          "indexed": true,
          "internalType": "address",
          "name": "graphStaking",
          "type": "address"
        },
        {
          "indexed": false,
          "internalType": "address",
          "name": "graphPayments",
          "type": "address"
        },
        {
          "indexed": false,
          "internalType": "address",
          "name": "graphEscrow",
          "type": "address"
        },
        {
          "indexed": true,
          "internalType": "address",
          "name": "graphController",
          "type": "address"
        },
        {
          "indexed": false,
          "internalType": "address",
          "name": "graphEpochManager",
          "type": "address"
        },
        {
          "indexed": false,
          "internalType": "address",
          "name": "graphRewardsManager",
          "type": "address"
        },
        {
          "indexed": false,
          "internalType": "address",
          "name": "graphTokenGateway",
          "type": "address"
        },
        {
          "indexed": false,
          "internalType": "address",
          "name": "graphProxyAdmin",
          "type": "address"
        },
        {
          "indexed": false,
          "internalType": "address",
          "name": "graphCuration",
          "type": "address"
        }
      ],
      "name": "GraphDirectoryInitialized",
      "type": "event"
    },
    {
      "anonymous": false,
      "inputs": [
        {
          "indexed": true,
          "internalType": "address",
          "name": "indexer",
          "type": "address"
        },
        {
          "indexed": true,
          "internalType": "address",
          "name": "allocationId",
          "type": "address"
        },
        {
          "indexed": true,
          "internalType": "bytes32",
          "name": "subgraphDeploymentId",
          "type": "bytes32"
        },
        {
          "indexed": false,
          "internalType": "uint256",
          "name": "tokensRewards",
          "type": "uint256"
        },
        {
          "indexed": false,
          "internalType": "uint256",
          "name": "tokensIndexerRewards",
          "type": "uint256"
        },
        {
          "indexed": false,
          "internalType": "uint256",
          "name": "tokensDelegationRewards",
          "type": "uint256"
        },
        {
          "indexed": false,
          "internalType": "bytes32",
          "name": "poi",
          "type": "bytes32"
        },
        {
          "indexed": false,
          "internalType": "uint256",
          "name": "currentEpoch",
          "type": "uint256"
        }
      ],
      "name": "IndexingRewardsCollected",
      "type": "event"
    },
    {
      "anonymous": false,
      "inputs": [
        {
          "indexed": false,
          "internalType": "uint64",
          "name": "version",
          "type": "uint64"
        }
      ],
      "name": "Initialized",
      "type": "event"
    },
    {
      "anonymous": false,
      "inputs": [
        {
          "indexed": true,
          "internalType": "address",
          "name": "indexer",
          "type": "address"
        },
        {
          "indexed": true,
          "internalType": "address",
          "name": "allocationId",
          "type": "address"
        },
        {
          "indexed": true,
          "internalType": "bytes32",
          "name": "subgraphDeploymentId",
          "type": "bytes32"
        }
      ],
      "name": "LegacyAllocationMigrated",
      "type": "event"
    },
    {
      "anonymous": false,
      "inputs": [
        {
          "indexed": false,
          "internalType": "uint256",
          "name": "maxPOIStaleness",
          "type": "uint256"
        }
      ],
      "name": "MaxPOIStalenessSet",
      "type": "event"
    },
    {
      "anonymous": false,
      "inputs": [
        {
          "indexed": true,
          "internalType": "address",
          "name": "previousOwner",
          "type": "address"
        },
        {
          "indexed": true,
          "internalType": "address",
          "name": "newOwner",
          "type": "address"
        }
      ],
      "name": "OwnershipTransferred",
      "type": "event"
    },
    {
      "anonymous": false,
      "inputs": [
        {
          "indexed": true,
          "internalType": "address",
          "name": "account",
          "type": "address"
        },
        {
          "indexed": false,
          "internalType": "bool",
          "name": "allowed",
          "type": "bool"
        }
      ],
      "name": "PauseGuardianSet",
      "type": "event"
    },
    {
      "anonymous": false,
      "inputs": [
        {
          "indexed": false,
          "internalType": "address",
          "name": "account",
          "type": "address"
        }
      ],
      "name": "Paused",
      "type": "event"
    },
    {
      "anonymous": false,
      "inputs": [
        {
          "indexed": true,
          "internalType": "address",
          "name": "serviceProvider",
          "type": "address"
        }
      ],
      "name": "ProvisionPendingParametersAccepted",
      "type": "event"
    },
    {
      "anonymous": false,
      "inputs": [
        {
          "indexed": false,
          "internalType": "uint256",
          "name": "min",
          "type": "uint256"
        },
        {
          "indexed": false,
          "internalType": "uint256",
          "name": "max",
          "type": "uint256"
        }
      ],
      "name": "ProvisionTokensRangeSet",
      "type": "event"
    },
    {
      "anonymous": false,
      "inputs": [
        {
          "indexed": true,
          "internalType": "address",
          "name": "serviceProvider",
          "type": "address"
        },
        {
          "indexed": true,
          "internalType": "address",
          "name": "payer",
          "type": "address"
        },
        {
          "indexed": true,
          "internalType": "address",
          "name": "allocationId",
          "type": "address"
        },
        {
          "indexed": false,
          "internalType": "bytes32",
          "name": "subgraphDeploymentId",
          "type": "bytes32"
        },
        {
          "indexed": false,
          "internalType": "uint256",
          "name": "tokensCollected",
          "type": "uint256"
        },
        {
          "indexed": false,
          "internalType": "uint256",
          "name": "tokensCurators",
          "type": "uint256"
        }
      ],
      "name": "QueryFeesCollected",
      "type": "event"
    },
    {
      "anonymous": false,
      "inputs": [
        {
          "indexed": true,
          "internalType": "address",
          "name": "indexer",
          "type": "address"
        },
        {
          "indexed": true,
          "internalType": "address",
          "name": "rewardsDestination",
          "type": "address"
        }
      ],
      "name": "RewardsDestinationSet",
      "type": "event"
    },
    {
      "anonymous": false,
      "inputs": [
        {
          "indexed": true,
          "internalType": "address",
          "name": "serviceProvider",
          "type": "address"
        },
        {
          "indexed": true,
          "internalType": "enum IGraphPayments.PaymentTypes",
          "name": "feeType",
          "type": "uint8"
        },
        {
          "indexed": false,
          "internalType": "uint256",
          "name": "tokens",
          "type": "uint256"
        }
      ],
      "name": "ServicePaymentCollected",
      "type": "event"
    },
    {
      "anonymous": false,
      "inputs": [
        {
          "indexed": true,
          "internalType": "address",
          "name": "serviceProvider",
          "type": "address"
        },
        {
          "indexed": false,
          "internalType": "bytes",
          "name": "data",
          "type": "bytes"
        }
      ],
      "name": "ServiceProviderRegistered",
      "type": "event"
    },
    {
      "anonymous": false,
      "inputs": [
        {
          "indexed": true,
          "internalType": "address",
          "name": "serviceProvider",
          "type": "address"
        },
        {
          "indexed": false,
          "internalType": "uint256",
          "name": "tokens",
          "type": "uint256"
        }
      ],
      "name": "ServiceProviderSlashed",
      "type": "event"
    },
    {
      "anonymous": false,
      "inputs": [
        {
          "indexed": true,
          "internalType": "address",
          "name": "serviceProvider",
          "type": "address"
        },
        {
          "indexed": false,
          "internalType": "bytes",
          "name": "data",
          "type": "bytes"
        }
      ],
      "name": "ServiceStarted",
      "type": "event"
    },
    {
      "anonymous": false,
      "inputs": [
        {
          "indexed": true,
          "internalType": "address",
          "name": "serviceProvider",
          "type": "address"
        },
        {
          "indexed": false,
          "internalType": "bytes",
          "name": "data",
          "type": "bytes"
        }
      ],
      "name": "ServiceStopped",
      "type": "event"
    },
    {
      "anonymous": false,
      "inputs": [
        {
          "indexed": true,
          "internalType": "address",
          "name": "serviceProvider",
          "type": "address"
        },
        {
          "indexed": true,
          "internalType": "bytes32",
          "name": "claimId",
          "type": "bytes32"
        },
        {
          "indexed": false,
          "internalType": "uint256",
          "name": "tokens",
          "type": "uint256"
        },
        {
          "indexed": false,
          "internalType": "uint256",
          "name": "unlockTimestamp",
          "type": "uint256"
        }
      ],
      "name": "StakeClaimLocked",
      "type": "event"
    },
    {
      "anonymous": false,
      "inputs": [
        {
          "indexed": true,
          "internalType": "address",
          "name": "serviceProvider",
          "type": "address"
        },
        {
          "indexed": true,
          "internalType": "bytes32",
          "name": "claimId",
          "type": "bytes32"
        },
        {
          "indexed": false,
          "internalType": "uint256",
          "name": "tokens",
          "type": "uint256"
        },
        {
          "indexed": false,
          "internalType": "uint256",
          "name": "releasableAt",
          "type": "uint256"
        }
      ],
      "name": "StakeClaimReleased",
      "type": "event"
    },
    {
      "anonymous": false,
      "inputs": [
        {
          "indexed": true,
          "internalType": "address",
          "name": "serviceProvider",
          "type": "address"
        },
        {
          "indexed": false,
          "internalType": "uint256",
          "name": "claimsCount",
          "type": "uint256"
        },
        {
          "indexed": false,
          "internalType": "uint256",
          "name": "tokensReleased",
          "type": "uint256"
        }
      ],
      "name": "StakeClaimsReleased",
      "type": "event"
    },
    {
      "anonymous": false,
      "inputs": [
        {
          "indexed": false,
          "internalType": "uint256",
          "name": "ratio",
          "type": "uint256"
        }
      ],
      "name": "StakeToFeesRatioSet",
      "type": "event"
    },
    {
      "anonymous": false,
      "inputs": [
        {
          "indexed": false,
          "internalType": "address",
          "name": "subgraphService",
          "type": "address"
        },
        {
          "indexed": false,
          "internalType": "address",
          "name": "disputeManager",
          "type": "address"
        },
        {
          "indexed": false,
          "internalType": "address",
          "name": "graphTallyCollector",
          "type": "address"
        },
        {
          "indexed": false,
          "internalType": "address",
          "name": "curation",
          "type": "address"
        }
      ],
      "name": "SubgraphServiceDirectoryInitialized",
      "type": "event"
    },
    {
      "anonymous": false,
      "inputs": [
        {
          "indexed": false,
          "internalType": "uint64",
          "name": "min",
          "type": "uint64"
        },
        {
          "indexed": false,
          "internalType": "uint64",
          "name": "max",
          "type": "uint64"
        }
      ],
      "name": "ThawingPeriodRangeSet",
      "type": "event"
    },
    {
      "anonymous": false,
      "inputs": [
        {
          "indexed": false,
          "internalType": "address",
          "name": "account",
          "type": "address"
        }
      ],
      "name": "Unpaused",
      "type": "event"
    },
    {
      "anonymous": false,
      "inputs": [
        {
          "indexed": false,
          "internalType": "uint32",
          "name": "min",
          "type": "uint32"
        },
        {
          "indexed": false,
          "internalType": "uint32",
          "name": "max",
          "type": "uint32"
        }
      ],
      "name": "VerifierCutRangeSet",
      "type": "event"
    },
    {
      "inputs": [
        {
          "internalType": "address",
          "name": "indexer",
          "type": "address"
        },
        {
          "internalType": "bytes",
          "name": "",
          "type": "bytes"
        }
      ],
      "name": "acceptProvisionPendingParameters",
      "outputs": [],
      "stateMutability": "nonpayable",
      "type": "function"
    },
    {
      "inputs": [
        {
          "internalType": "address",
          "name": "indexer",
          "type": "address"
        }
      ],
      "name": "allocationProvisionTracker",
      "outputs": [
        {
          "internalType": "uint256",
          "name": "tokens",
          "type": "uint256"
        }
      ],
      "stateMutability": "view",
      "type": "function"
    },
    {
      "inputs": [
        {
          "internalType": "bytes32",
          "name": "claimId",
          "type": "bytes32"
        }
      ],
      "name": "claims",
      "outputs": [
        {
          "internalType": "uint256",
          "name": "tokens",
          "type": "uint256"
        },
        {
          "internalType": "uint256",
          "name": "createdAt",
          "type": "uint256"
        },
        {
          "internalType": "uint256",
          "name": "releasableAt",
          "type": "uint256"
        },
        {
          "internalType": "bytes32",
          "name": "nextClaim",
          "type": "bytes32"
        }
      ],
      "stateMutability": "view",
      "type": "function"
    },
    {
      "inputs": [
        {
          "internalType": "address",
          "name": "serviceProvider",
          "type": "address"
        }
      ],
      "name": "claimsLists",
      "outputs": [
        {
          "internalType": "bytes32",
          "name": "head",
          "type": "bytes32"
        },
        {
          "internalType": "bytes32",
          "name": "tail",
          "type": "bytes32"
        },
        {
          "internalType": "uint256",
          "name": "nonce",
          "type": "uint256"
        },
        {
          "internalType": "uint256",
          "name": "count",
          "type": "uint256"
        }
      ],
      "stateMutability": "view",
      "type": "function"
    },
    {
      "inputs": [
        {
          "internalType": "address",
          "name": "allocationId",
          "type": "address"
        }
      ],
      "name": "closeStaleAllocation",
      "outputs": [],
      "stateMutability": "nonpayable",
      "type": "function"
    },
    {
      "inputs": [
        {
          "internalType": "address",
          "name": "indexer",
          "type": "address"
        },
        {
          "internalType": "enum IGraphPayments.PaymentTypes",
          "name": "paymentType",
          "type": "uint8"
        },
        {
          "internalType": "bytes",
          "name": "data",
          "type": "bytes"
        }
      ],
      "name": "collect",
      "outputs": [
        {
          "internalType": "uint256",
          "name": "",
          "type": "uint256"
        }
      ],
      "stateMutability": "nonpayable",
      "type": "function"
    },
    {
      "inputs": [],
      "name": "curationFeesCut",
      "outputs": [
        {
          "internalType": "uint256",
          "name": "",
          "type": "uint256"
        }
      ],
      "stateMutability": "view",
      "type": "function"
    },
    {
      "inputs": [],
      "name": "eip712Domain",
      "outputs": [
        {
          "internalType": "bytes1",
          "name": "fields",
          "type": "bytes1"
        },
        {
          "internalType": "string",
          "name": "name",
          "type": "string"
        },
        {
          "internalType": "string",
          "name": "version",
          "type": "string"
        },
        {
          "internalType": "uint256",
          "name": "chainId",
          "type": "uint256"
        },
        {
          "internalType": "address",
          "name": "verifyingContract",
          "type": "address"
        },
        {
          "internalType": "bytes32",
          "name": "salt",
          "type": "bytes32"
        },
        {
          "internalType": "uint256[]",
          "name": "extensions",
          "type": "uint256[]"
        }
      ],
      "stateMutability": "view",
      "type": "function"
    },
    {
      "inputs": [
        {
          "internalType": "address",
          "name": "indexer",
          "type": "address"
        },
        {
          "internalType": "address",
          "name": "allocationId",
          "type": "address"
        }
      ],
      "name": "encodeAllocationProof",
      "outputs": [
        {
          "internalType": "bytes32",
          "name": "",
          "type": "bytes32"
        }
      ],
      "stateMutability": "view",
      "type": "function"
    },
    {
      "inputs": [
        {
          "internalType": "address",
          "name": "serviceProvider",
          "type": "address"
        }
      ],
      "name": "feesProvisionTracker",
      "outputs": [
        {
          "internalType": "uint256",
          "name": "tokens",
          "type": "uint256"
        }
      ],
      "stateMutability": "view",
      "type": "function"
    },
    {
      "inputs": [
        {
          "internalType": "address",
          "name": "allocationId",
          "type": "address"
        }
      ],
      "name": "getAllocation",
      "outputs": [
        {
          "components": [
            {
              "internalType": "address",
              "name": "indexer",
              "type": "address"
            },
            {
              "internalType": "bytes32",
              "name": "subgraphDeploymentId",
              "type": "bytes32"
            },
            {
              "internalType": "uint256",
              "name": "tokens",
              "type": "uint256"
            },
            {
              "internalType": "uint256",
              "name": "createdAt",
              "type": "uint256"
            },
            {
              "internalType": "uint256",
              "name": "closedAt",
              "type": "uint256"
            },
            {
              "internalType": "uint256",
              "name": "lastPOIPresentedAt",
              "type": "uint256"
            },
            {
              "internalType": "uint256",
              "name": "accRewardsPerAllocatedToken",
              "type": "uint256"
            },
            {
              "internalType": "uint256",
              "name": "accRewardsPending",
              "type": "uint256"
            },
            {
              "internalType": "uint256",
              "name": "createdAtEpoch",
              "type": "uint256"
            }
          ],
          "internalType": "struct Allocation.State",
          "name": "",
          "type": "tuple"
        }
      ],
      "stateMutability": "view",
      "type": "function"
    },
    {
      "inputs": [
        {
          "internalType": "address",
          "name": "allocationId",
          "type": "address"
        }
      ],
      "name": "getAllocationData",
      "outputs": [
        {
          "internalType": "address",
          "name": "",
          "type": "address"
        },
        {
          "internalType": "bytes32",
          "name": "",
          "type": "bytes32"
        },
        {
          "internalType": "uint256",
          "name": "",
          "type": "uint256"
        },
        {
          "internalType": "uint256",
          "name": "",
          "type": "uint256"
        },
        {
          "internalType": "uint256",
          "name": "",
          "type": "uint256"
        }
      ],
      "stateMutability": "view",
      "type": "function"
    },
    {
      "inputs": [],
      "name": "getCuration",
      "outputs": [
        {
          "internalType": "address",
          "name": "",
          "type": "address"
        }
      ],
      "stateMutability": "view",
      "type": "function"
    },
    {
      "inputs": [],
      "name": "getDelegationRatio",
      "outputs": [
        {
          "internalType": "uint32",
          "name": "",
          "type": "uint32"
        }
      ],
      "stateMutability": "view",
      "type": "function"
    },
    {
      "inputs": [],
      "name": "getDisputeManager",
      "outputs": [
        {
          "internalType": "address",
          "name": "",
          "type": "address"
        }
      ],
      "stateMutability": "view",
      "type": "function"
    },
    {
      "inputs": [],
      "name": "getGraphTallyCollector",
      "outputs": [
        {
          "internalType": "address",
          "name": "",
          "type": "address"
        }
      ],
      "stateMutability": "view",
      "type": "function"
    },
    {
      "inputs": [
        {
          "internalType": "address",
          "name": "allocationId",
          "type": "address"
        }
      ],
      "name": "getLegacyAllocation",
      "outputs": [
        {
          "components": [
            {
              "internalType": "address",
              "name": "indexer",
              "type": "address"
            },
            {
              "internalType": "bytes32",
              "name": "subgraphDeploymentId",
              "type": "bytes32"
            }
          ],
          "internalType": "struct LegacyAllocation.State",
          "name": "",
          "type": "tuple"
        }
      ],
      "stateMutability": "view",
      "type": "function"
    },
    {
      "inputs": [],
      "name": "getProvisionTokensRange",
      "outputs": [
        {
          "internalType": "uint256",
          "name": "",
          "type": "uint256"
        },
        {
          "internalType": "uint256",
          "name": "",
          "type": "uint256"
        }
      ],
      "stateMutability": "view",
      "type": "function"
    },
    {
      "inputs": [
        {
          "internalType": "bytes32",
          "name": "subgraphDeploymentId",
          "type": "bytes32"
        }
      ],
      "name": "getSubgraphAllocatedTokens",
      "outputs": [
        {
          "internalType": "uint256",
          "name": "",
          "type": "uint256"
        }
      ],
      "stateMutability": "view",
      "type": "function"
    },
    {
      "inputs": [],
      "name": "getThawingPeriodRange",
      "outputs": [
        {
          "internalType": "uint64",
          "name": "",
          "type": "uint64"
        },
        {
          "internalType": "uint64",
          "name": "",
          "type": "uint64"
        }
      ],
      "stateMutability": "view",
      "type": "function"
    },
    {
      "inputs": [],
      "name": "getVerifierCutRange",
      "outputs": [
        {
          "internalType": "uint32",
          "name": "",
          "type": "uint32"
        },
        {
          "internalType": "uint32",
          "name": "",
          "type": "uint32"
        }
      ],
      "stateMutability": "view",
      "type": "function"
    },
    {
      "inputs": [
        {
          "internalType": "address",
          "name": "indexer",
          "type": "address"
        }
      ],
      "name": "indexers",
      "outputs": [
        {
          "internalType": "uint256",
          "name": "registeredAt",
          "type": "uint256"
        },
        {
          "internalType": "string",
          "name": "url",
          "type": "string"
        },
        {
          "internalType": "string",
          "name": "geoHash",
          "type": "string"
        }
      ],
      "stateMutability": "view",
      "type": "function"
    },
    {
      "inputs": [
        {
          "internalType": "address",
          "name": "owner",
          "type": "address"
        },
        {
          "internalType": "uint256",
          "name": "minimumProvisionTokens",
          "type": "uint256"
        },
        {
          "internalType": "uint32",
          "name": "maximumDelegationRatio",
          "type": "uint32"
        },
        {
          "internalType": "uint256",
          "name": "stakeToFeesRatio",
          "type": "uint256"
        }
      ],
      "name": "initialize",
      "outputs": [],
      "stateMutability": "nonpayable",
      "type": "function"
    },
    {
      "inputs": [
        {
          "internalType": "address",
          "name": "indexer",
          "type": "address"
        }
      ],
      "name": "isOverAllocated",
      "outputs": [
        {
          "internalType": "bool",
          "name": "",
          "type": "bool"
        }
      ],
      "stateMutability": "view",
      "type": "function"
    },
    {
      "inputs": [],
      "name": "maxPOIStaleness",
      "outputs": [
        {
          "internalType": "uint256",
          "name": "",
          "type": "uint256"
        }
      ],
      "stateMutability": "view",
      "type": "function"
    },
    {
      "inputs": [
        {
          "internalType": "address",
          "name": "indexer",
          "type": "address"
        },
        {
          "internalType": "address",
          "name": "allocationId",
          "type": "address"
        },
        {
          "internalType": "bytes32",
          "name": "subgraphDeploymentID",
          "type": "bytes32"
        }
      ],
      "name": "migrateLegacyAllocation",
      "outputs": [],
      "stateMutability": "nonpayable",
      "type": "function"
    },
    {
      "inputs": [
        {
          "internalType": "bytes[]",
          "name": "data",
          "type": "bytes[]"
        }
      ],
      "name": "multicall",
      "outputs": [
        {
          "internalType": "bytes[]",
          "name": "results",
          "type": "bytes[]"
        }
      ],
      "stateMutability": "nonpayable",
      "type": "function"
    },
    {
      "inputs": [],
      "name": "owner",
      "outputs": [
        {
          "internalType": "address",
          "name": "",
          "type": "address"
        }
      ],
      "stateMutability": "view",
      "type": "function"
    },
    {
      "inputs": [],
      "name": "pause",
      "outputs": [],
      "stateMutability": "nonpayable",
      "type": "function"
    },
    {
      "inputs": [
        {
          "internalType": "address",
          "name": "pauseGuardian",
          "type": "address"
        }
      ],
      "name": "pauseGuardians",
      "outputs": [
        {
          "internalType": "bool",
          "name": "allowed",
          "type": "bool"
        }
      ],
      "stateMutability": "view",
      "type": "function"
    },
    {
      "inputs": [],
      "name": "paused",
      "outputs": [
        {
          "internalType": "bool",
          "name": "",
          "type": "bool"
        }
      ],
      "stateMutability": "view",
      "type": "function"
    },
    {
      "inputs": [
        {
          "internalType": "address",
          "name": "indexer",
          "type": "address"
        },
        {
          "internalType": "bytes",
          "name": "data",
          "type": "bytes"
        }
      ],
      "name": "register",
      "outputs": [],
      "stateMutability": "nonpayable",
      "type": "function"
    },
    {
      "inputs": [
        {
          "internalType": "uint256",
          "name": "numClaimsToRelease",
          "type": "uint256"
        }
      ],
      "name": "releaseStake",
      "outputs": [],
      "stateMutability": "nonpayable",
      "type": "function"
    },
    {
      "inputs": [],
      "name": "renounceOwnership",
      "outputs": [],
      "stateMutability": "nonpayable",
      "type": "function"
    },
    {
      "inputs": [
        {
          "internalType": "address",
          "name": "indexer",
          "type": "address"
        },
        {
          "internalType": "address",
          "name": "allocationId",
          "type": "address"
        },
        {
          "internalType": "uint256",
          "name": "tokens",
          "type": "uint256"
        }
      ],
      "name": "resizeAllocation",
      "outputs": [],
      "stateMutability": "nonpayable",
      "type": "function"
    },
    {
      "inputs": [
        {
          "internalType": "address",
          "name": "indexer",
          "type": "address"
        }
      ],
      "name": "rewardsDestination",
      "outputs": [
        {
          "internalType": "address",
          "name": "destination",
          "type": "address"
        }
      ],
      "stateMutability": "view",
      "type": "function"
    },
    {
      "inputs": [
        {
          "internalType": "uint256",
          "name": "curationCut",
          "type": "uint256"
        }
      ],
      "name": "setCurationCut",
      "outputs": [],
      "stateMutability": "nonpayable",
      "type": "function"
    },
    {
      "inputs": [
        {
          "internalType": "uint32",
          "name": "delegationRatio",
          "type": "uint32"
        }
      ],
      "name": "setDelegationRatio",
      "outputs": [],
      "stateMutability": "nonpayable",
      "type": "function"
    },
    {
      "inputs": [
        {
          "internalType": "uint256",
          "name": "maxPOIStaleness",
          "type": "uint256"
        }
      ],
      "name": "setMaxPOIStaleness",
      "outputs": [],
      "stateMutability": "nonpayable",
      "type": "function"
    },
    {
      "inputs": [
        {
          "internalType": "uint256",
          "name": "minimumProvisionTokens",
          "type": "uint256"
        }
      ],
      "name": "setMinimumProvisionTokens",
      "outputs": [],
      "stateMutability": "nonpayable",
      "type": "function"
    },
    {
      "inputs": [
        {
          "internalType": "address",
          "name": "pauseGuardian",
          "type": "address"
        },
        {
          "internalType": "bool",
          "name": "allowed",
          "type": "bool"
        }
      ],
      "name": "setPauseGuardian",
      "outputs": [],
      "stateMutability": "nonpayable",
      "type": "function"
    },
    {
      "inputs": [
        {
          "internalType": "address",
          "name": "rewardsDestination",
          "type": "address"
        }
      ],
      "name": "setRewardsDestination",
      "outputs": [],
      "stateMutability": "nonpayable",
      "type": "function"
    },
    {
      "inputs": [
        {
          "internalType": "uint256",
          "name": "stakeToFeesRatio_",
          "type": "uint256"
        }
      ],
      "name": "setStakeToFeesRatio",
      "outputs": [],
      "stateMutability": "nonpayable",
      "type": "function"
    },
    {
      "inputs": [
        {
          "internalType": "address",
          "name": "indexer",
          "type": "address"
        },
        {
          "internalType": "bytes",
          "name": "data",
          "type": "bytes"
        }
      ],
      "name": "slash",
      "outputs": [],
      "stateMutability": "nonpayable",
      "type": "function"
    },
    {
      "inputs": [],
      "name": "stakeToFeesRatio",
      "outputs": [
        {
          "internalType": "uint256",
          "name": "",
          "type": "uint256"
        }
      ],
      "stateMutability": "view",
      "type": "function"
    },
    {
      "inputs": [
        {
          "internalType": "address",
          "name": "indexer",
          "type": "address"
        },
        {
          "internalType": "bytes",
          "name": "data",
          "type": "bytes"
        }
      ],
      "name": "startService",
      "outputs": [],
      "stateMutability": "nonpayable",
      "type": "function"
    },
    {
      "inputs": [
        {
          "internalType": "address",
          "name": "indexer",
          "type": "address"
        },
        {
          "internalType": "bytes",
          "name": "data",
          "type": "bytes"
        }
      ],
      "name": "stopService",
      "outputs": [],
      "stateMutability": "nonpayable",
      "type": "function"
    },
    {
      "inputs": [
        {
          "internalType": "address",
          "name": "newOwner",
          "type": "address"
        }
      ],
      "name": "transferOwnership",
      "outputs": [],
      "stateMutability": "nonpayable",
      "type": "function"
    },
    {
      "inputs": [],
      "name": "unpause",
      "outputs": [],
      "stateMutability": "nonpayable",
      "type": "function"
    }
  ],
  "bytecode": "0x61024060405234801561001157600080fd5b5060405161661d38038061661d83398101604081905261003091610541565b3083838387806001600160a01b03811661007f5760405163218f5add60e11b815260206004820152600a60248201526921b7b73a3937b63632b960b11b60448201526064015b60405180910390fd5b6001600160a01b0381166101005260408051808201909152600a81526923b930b8342a37b5b2b760b11b60208201526100b7906103c5565b6001600160a01b03166080526040805180820190915260078152665374616b696e6760c81b60208201526100ea906103c5565b6001600160a01b031660a05260408051808201909152600d81526c47726170685061796d656e747360981b6020820152610123906103c5565b6001600160a01b031660c05260408051808201909152600e81526d5061796d656e7473457363726f7760901b602082015261015d906103c5565b6001600160a01b031660e05260408051808201909152600c81526b22b837b1b426b0b730b3b2b960a11b6020820152610195906103c5565b6001600160a01b03166101205260408051808201909152600e81526d2932bbb0b93239a6b0b730b3b2b960911b60208201526101d0906103c5565b6001600160a01b0316610140526040805180820190915260118152704772617068546f6b656e4761746577617960781b602082015261020e906103c5565b6001600160a01b03166101605260408051808201909152600f81526e23b930b834283937bc3ca0b236b4b760891b602082015261024a906103c5565b6001600160a01b03166101805260408051808201909152600881526721bab930ba34b7b760c11b602082015261027f906103c5565b6001600160a01b039081166101a08190526101005160a05160805160c05160e05161012051610140516101605161018051604051988b169a9788169996909716977fef5021414834d86e36470f5c1cecf6544fb2bb723f2ca51a4c86fcd8c5919a43976103299790916001600160a01b03978816815295871660208701529386166040860152918516606085015284166080840152831660a083015290911660c082015260e00190565b60405180910390a450506001600160a01b038481166101c08190528482166101e08190528483166102008190529284166102208190526040805193845260208401929092529082019290925260608101919091527f4175b2c37456dbac494e08de8666d31bb8f3f2aee36ea5d9e06894ff3e4ddda79060800160405180910390a1505050506103bc61047360201b60201c565b50505050610605565b600080610100516001600160a01b031663f7641a5e84805190602001206040518263ffffffff1660e01b815260040161040091815260200190565b602060405180830381865afa15801561041d573d6000803e3d6000fd5b505050506040513d601f19601f820116820180604052508101906104419190610595565b9050826001600160a01b03821661046c5760405163218f5add60e11b815260040161007691906105b7565b5092915050565b7ff0c57e16840df040f15088dc2f81fe391c3923bec73e23a9662efc9c229c6a00805468010000000000000000900460ff16156104c35760405163f92ee8a960e01b815260040160405180910390fd5b80546001600160401b03908116146105225780546001600160401b0319166001600160401b0390811782556040519081527fc7f505b2f371ae2175ee4913f4499e1f2633a7b5936321eed1cdaeb6115181d29060200160405180910390a15b50565b80516001600160a01b038116811461053c57600080fd5b919050565b6000806000806080858703121561055757600080fd5b61056085610525565b935061056e60208601610525565b925061057c60408601610525565b915061058a60608601610525565b905092959194509250565b6000602082840312156105a757600080fd5b6105b082610525565b9392505050565b602081526000825180602084015260005b818110156105e557602081860181015160408684010152016105c8565b506000604082850101526040601f19601f83011684010191505092915050565b60805160a05160c05160e05161010051610120516101405161016051610180516101a0516101c0516101e0516102005161022051615f7f61069e60003960006135360152600061395601526000818161170601526136300152600050506000505060005050600050506000613d4d0152600061431b01526000505060005050600050506000611c3e015260006140d60152615f7f6000f3fe608060405234801561001057600080fd5b506004361061026b5760003560e01c806381e777a711610152578063cb8347fe116100c9578063cb8347fe14610752578063cbe5f3f214610765578063ce0fc0cc14610785578063ce56c98b14610798578063d07a7a84146107ab578063db9bee46146107b5578063dedf6726146107bd578063e2e1e8e9146107d0578063e6f50054146107f0578063ebf6ddaf14610803578063ec9c218d1461080b578063eff0f5921461081e578063f2fde38b1461085357600080fd5b806381e777a714610674578063832bc923146106875780638456cb591461069a57806384b0196e146106a257806385e82baf146106bd5780638da5cb5b146106c65780639384e078146106ce578063ac9650d8146106f1578063b15d2a2c14610711578063ba38f67d14610724578063c0f4749714610737578063c84a5ef31461073f57600080fd5b80635c975abb116101e65780635c975abb146104f15780636234e216146105095780636d9a395114610529578063715018a6146105a457806371ce020a146105ac5780637203ca78146105c2578063772495c3146105f85780637aa31bce1461060b5780637dfe6d281461061e5780637e89bac3146106315780638180083b14610644578063819ba3661461065757600080fd5b80630e02292314610270578063138dea081461030157806313c474c9146103195780631dd42f601461036e5780631ebb7c301461038357806324b8fbf6146103a857806335577962146103bb5780633f4ba83a146103ce57806345f54485146103d6578063482468b7146103e95780634f793cdc146103ff57806355c8526914610421575b600080fd5b61028361027e366004615071565b610866565b6040516102f8919060006101208201905060018060a01b0383511682526020830151602083015260408301516040830152606083015160608301526080830151608083015260a083015160a083015260c083015160c083015260e083015160e083015261010083015161010083015292915050565b60405180910390f35b61030b6101095481565b6040519081526020016102f8565b61034e610327366004615071565b609c6020526000908152604090208054600182015460028301546003909301549192909184565b6040805194855260208501939093529183015260608201526080016102f8565b61038161037c3660046150a0565b6108f3565b005b600254600160c01b900463ffffffff1660405163ffffffff90911681526020016102f8565b6103816103b63660046150fe565b61090c565b6103816103c9366004615160565b610b39565b610381610b4f565b6103816103e4366004615199565b610b93565b6103f1610b9d565b6040516102f89291906151b2565b61041261040d366004615071565b610bb0565b6040516102f893929190615219565b6104bf61042f366004615071565b6001600160a01b03908116600090815260cf60209081526040918290208251610120810184528154909416808552600182015492850183905260028201549385018490526003820154606086015260048201546080860152600582015460a0860152600682015460c08601819052600783015460e087018190526008909301546101009096019590955294919391565b604080516001600160a01b0390961686526020860194909452928401919091526060830152608082015260a0016102f8565b6104f9610ce4565b60405190151581526020016102f8565b61030b610517366004615071565b60d16020526000908152604090205481565b610580610537366004615071565b604080518082018252600080825260209182018190526001600160a01b03938416815260d082528290208251808401909352805490931682526001909201549181019190915290565b6040805182516001600160a01b0316815260209283015192810192909252016102f8565b610381610cf9565b6105b4610d0b565b6040516102f892919061524e565b6105eb6105d0366004615071565b60d3602052600090815260409020546001600160a01b031681565b6040516102f89190615268565b610381610606366004615071565b610d16565b610381610619366004615199565b610d20565b61038161062c36600461527c565b610d31565b61038161063f366004615199565b610d49565b6103816106523660046150fe565b610dbe565b61065f610f4a565b604080519283526020830191909152016102f8565b61038161068236600461527c565b610f5a565b610381610695366004615199565b6110cb565b6103816110df565b6106aa611121565b6040516102f897969594939291906152bd565b61030b60d25481565b6105eb6111ca565b6104f96106dc366004615071565b60676020526000908152604090205460ff1681565b6107046106ff366004615355565b6111e5565b6040516102f891906153ca565b61030b61071f36600461542f565b6112cd565b6104f9610732366004615071565b61155c565b6105eb61157a565b61038161074d366004615497565b611584565b6103816107603660046150fe565b611703565b61030b610773366004615071565b609a6020526000908152604090205481565b6103816107933660046150fe565b611842565b61030b6107a63660046154df565b611934565b61030b6101085481565b6105eb611947565b6103816107cb3660046150fe565b611951565b61030b6107de366004615199565b600090815260d4602052604090205490565b6103816107fe366004615199565b611ae0565b6105eb611af1565b610381610819366004615071565b611afb565b61034e61082c366004615199565b609b6020526000908152604090208054600182015460028301546003909301549192909184565b610381610861366004615071565b611b7b565b61086e614ff4565b506001600160a01b03908116600090815260cf6020908152604091829020825161012081018452815490941684526001810154918401919091526002810154918301919091526003810154606083015260048101546080830152600581015460a0830152600681015460c0830152600781015460e08301526008015461010082015290565b6108fb611bb6565b61090481611be8565b50565b905090565b82610915611c3c565b6001600160a01b0316637c145cc78230336040518463ffffffff1660e01b81526004016109449392919061550d565b602060405180830381865afa158015610961573d6000803e3d6000fd5b505050506040513d601f19601f820116820180604052508101906109859190615530565b813390916109b15760405163cc5d3c8b60e01b81526004016109a892919061554d565b60405180910390fd5b50508360006109bf82611c60565b90506109ca81611d63565b6109d5816000611da1565b6109dd611e81565b600080806109ed8789018961567e565b9250925092506000835111610a1557604051630783843960e51b815260040160405180910390fd5b6000825111610a3757604051631e63bd9560e21b815260040160405180910390fd5b6001600160a01b0389166000908152610107602052604090205415610a6f57604051630d06866d60e21b815260040160405180910390fd5b6040805160608101825242815260208082018681528284018690526001600160a01b038d1660009081526101079092529290208151815591519091906001820190610aba908261577a565b5060408201516002820190610acf908261577a565b5050506001600160a01b03811615610aeb57610aeb8982611ea7565b886001600160a01b03167f159567bea25499a91f60e1fbb349ff2a1f8c1b2883198f25c1e12c99eddb44fa8989604051610b26929190615838565b60405180910390a2505050505050505050565b610b41611bb6565b610b4b8282611efe565b5050565b3360008181526067602052604090205460ff16610b80576040516372e3ef9760e01b81526004016109a89190615268565b50610b89611fb4565b610b91611fd9565b565b6109043382612025565b600080610ba86120d2565b915091509091565b6101076020526000908152604090208054600182018054919291610bd3906156f9565b80601f0160208091040260200160405190810160405280929190818152602001828054610bff906156f9565b8015610c4c5780601f10610c2157610100808354040283529160200191610c4c565b820191906000526020600020905b815481529060010190602001808311610c2f57829003601f168201915b505050505090806002018054610c61906156f9565b80601f0160208091040260200160405190810160405280929190818152602001828054610c8d906156f9565b8015610cda5780601f10610caf57610100808354040283529160200191610cda565b820191906000526020600020905b815481529060010190602001808311610cbd57829003601f168201915b5050505050905083565b600080610cef612149565b5460ff1692915050565b610d01611bb6565b610b91600061216d565b600080610ba86121c9565b6109043382611ea7565b610d28611bb6565b61090481612240565b610d39611bb6565b610d44838383612275565b505050565b610d51611bb6565b610d5e81620f4240101590565b8190610d8057604051631c9c717b60e01b81526004016109a891815260200190565b506101098190556040518181527f6deef78ffe3df79ae5cd8e40b842c36ac6077e13746b9b68a9f327537b01e4e9906020015b60405180910390a150565b82610dc7611c3c565b6001600160a01b0316637c145cc78230336040518463ffffffff1660e01b8152600401610df69392919061550d565b602060405180830381865afa158015610e13573d6000803e3d6000fd5b505050506040513d601f19601f82011682018060405250810190610e379190615530565b81339091610e5a5760405163cc5d3c8b60e01b81526004016109a892919061554d565b50506001600160a01b0384166000908152610107602052604090205484908190610e985760405163ee27189960e01b81526004016109a89190615268565b50610ea1611e81565b6000610eaf84860186615071565b90506001600160a01b038616610ec660cf836122c8565b51879183916001600160a01b031614610ef45760405163c0bbff1360e01b81526004016109a892919061554d565b5050610eff8161234d565b856001600160a01b03167f73330c218a680717e9eee625c262df66eddfdf99ecb388d25f6b32d66b9a318a8686604051610f3a929190615838565b60405180910390a2505050505050565b600080610ba86000546001549091565b82610f63611c3c565b6001600160a01b0316637c145cc78230336040518463ffffffff1660e01b8152600401610f929392919061550d565b602060405180830381865afa158015610faf573d6000803e3d6000fd5b505050506040513d601f19601f82011682018060405250810190610fd39190615530565b81339091610ff65760405163cc5d3c8b60e01b81526004016109a892919061554d565b505083600061100482611c60565b905061100f81611d63565b61101a816000611da1565b6001600160a01b03861660009081526101076020526040902054869081906110565760405163ee27189960e01b81526004016109a89190615268565b5061105f611e81565b6001600160a01b03871661107460cf886122c8565b51889188916001600160a01b0316146110a25760405163c0bbff1360e01b81526004016109a892919061554d565b50506110c18686600260189054906101000a900463ffffffff166124a3565b5050505050505050565b6110d3611bb6565b6109048160001961283a565b3360008181526067602052604090205460ff16611110576040516372e3ef9760e01b81526004016109a89190615268565b50611119611e81565b610b916128b0565b60006060806000806000606060006111376128f7565b805490915015801561114b57506001810154155b61118f5760405162461bcd60e51b81526020600482015260156024820152741152540dcc4c8e88155b9a5b9a5d1a585b1a5e9959605a1b60448201526064016109a8565b61119761291b565b61119f6129bc565b60408051600080825260208201909252600f60f81b9c939b5091995046985030975095509350915050565b6000806111d56129d9565b546001600160a01b031692915050565b604080516000815260208101909152606090826001600160401b0381111561120f5761120f615567565b60405190808252806020026020018201604052801561124257816020015b606081526020019060019003908161122d5790505b50915060005b838110156112c45761129f3086868481811061126657611266615890565b905060200281019061127891906158a6565b8560405160200161128b939291906158ec565b6040516020818303038152906040526129fd565b8382815181106112b1576112b1615890565b6020908102919091010152600101611248565b50505b92915050565b6000846112d8611c3c565b6001600160a01b0316637c145cc78230336040518463ffffffff1660e01b81526004016113079392919061550d565b602060405180830381865afa158015611324573d6000803e3d6000fd5b505050506040513d601f19601f820116820180604052508101906113489190615530565b8133909161136b5760405163cc5d3c8b60e01b81526004016109a892919061554d565b505085600061137982611c60565b905061138481611d63565b61138f816000611da1565b6001600160a01b03881660009081526101076020526040902054889081906113cb5760405163ee27189960e01b81526004016109a89190615268565b506113d4611e81565b6000808960028111156113e9576113e9615913565b036114475760006113fc888a018a615960565b8051604001519091508b6001600160a01b038281169082161461143457604051631a071d0760e01b81526004016109a892919061554d565b505061143f81612a73565b9150506114fa565b600289600281111561145b5761145b615913565b036114df5760008061146f898b018b615a8c565b90925090506001600160a01b038c1661148960cf846122c8565b518d9184916001600160a01b0316146114b75760405163c0bbff1360e01b81526004016109a892919061554d565b50506114d68282600260189054906101000a900463ffffffff16612f78565b925050506114fa565b8860405163047031cf60e41b81526004016109a89190615ada565b88600281111561150c5761150c615913565b8a6001600160a01b03167f54fe682bfb66381a9382e13e4b95a3dd4f960eafbae063fdea3539d144ff3ff58360405161154791815260200190565b60405180910390a39998505050505050505050565b60006112c782600260189054906101000a900463ffffffff16613515565b6000610907613534565b600061158e613558565b805490915060ff600160401b82041615906001600160401b03166000811580156115b55750825b90506000826001600160401b031660011480156115d15750303b155b9050811580156115df575080155b156115fd5760405163f92ee8a960e01b815260040160405180910390fd5b845467ffffffffffffffff19166001178555831561162757845460ff60401b1916600160401b1785555b6116308961357c565b61163861358d565b611640613595565b6116486135ad565b6116946040518060400160405280600f81526020016e53756267726170685365727669636560881b815250604051806040016040528060038152602001620312e360ec1b8152506135bd565b6116a08860001961283a565b6116a987611be8565b6116b2866135d7565b83156116f857845460ff60401b19168555604051600181527fc7f505b2f371ae2175ee4913f4499e1f2633a7b5936321eed1cdaeb6115181d29060200160405180910390a15b505050505050505050565b337f00000000000000000000000000000000000000000000000000000000000000006001600160a01b03811682146117505760405163cdc0567f60e01b81526004016109a892919061554d565b50600090508061176283850185615ae8565b9150915061176e611c3c565b6001600160a01b031663e76fede686848461178761362e565b60405160e086901b6001600160e01b03191681526001600160a01b039485166004820152602481019390935260448301919091529091166064820152608401600060405180830381600087803b1580156117e057600080fd5b505af11580156117f4573d6000803e3d6000fd5b50505050846001600160a01b03167f02f2e74a11116e05b39159372cceb6739257b08d72f7171d208ff27bb6466c588360405161183391815260200190565b60405180910390a25050505050565b8261184b611c3c565b6001600160a01b0316637c145cc78230336040518463ffffffff1660e01b815260040161187a9392919061550d565b602060405180830381865afa158015611897573d6000803e3d6000fd5b505050506040513d601f19601f820116820180604052508101906118bb9190615530565b813390916118de5760405163cc5d3c8b60e01b81526004016109a892919061554d565b50506118e8611e81565b6118f184613652565b6118fa84613668565b6040516001600160a01b038516907ff53cf6521a1b5fc0c04bffa70374a4dc2e3474f2b2ac1643c3bcc54e2db4a93990600090a250505050565b600061194083836136db565b9392505050565b600061090761362e565b8261195a611c3c565b6001600160a01b0316637c145cc78230336040518463ffffffff1660e01b81526004016119899392919061550d565b602060405180830381865afa1580156119a6573d6000803e3d6000fd5b505050506040513d601f19601f820116820180604052508101906119ca9190615530565b813390916119ed5760405163cc5d3c8b60e01b81526004016109a892919061554d565b50508360006119fb82611c60565b9050611a0681611d63565b611a11816000611da1565b6001600160a01b0386166000908152610107602052604090205486908190611a4d5760405163ee27189960e01b81526004016109a89190615268565b50611a56611e81565b6000808080611a67898b018b615b0a565b9350935093509350611a8f8b83868685600260189054906101000a900463ffffffff1661374a565b508a6001600160a01b03167fd3803eb82ef5b4cdff8646734ebbaf5b37441e96314b27ffd3d0940f12a038e78b8b604051611acb929190615838565b60405180910390a25050505050505050505050565b611ae8611bb6565b610904816135d7565b6000610907613954565b611b03611e81565b6000611b1060cf836122c8565b9050611b2760d2548261397890919063ffffffff16565b8290611b4657604051623477b560e51b81526004016109a89190615268565b50611b50816139b5565b158290611b71576040516317c7b35d60e31b81526004016109a89190615268565b50610b4b8261234d565b611b83611bb6565b6001600160a01b038116611bad576000604051631e4fbdf760e01b81526004016109a89190615268565b6109048161216d565b33611bbf6111ca565b6001600160a01b031614610b91573360405163118cdaa760e01b81526004016109a89190615268565b6002805463ffffffff60c01b1916600160c01b63ffffffff8416908102919091179091556040519081527f472aba493f9fd1d136ec54986f619f3aa5caff964f0e731a9909fb9a1270211f90602001610db3565b7f000000000000000000000000000000000000000000000000000000000000000090565b6040805161014081018252600080825260208201819052918101829052606081018290526080810182905260a0810182905260c0810182905260e081018290526101008101829052610120810182905290611cb9611c3c565b6001600160a01b03166325d9897e84306040518363ffffffff1660e01b8152600401611ce692919061554d565b61014060405180830381865afa158015611d04573d6000803e3d6000fd5b505050506040513d601f19601f82011682018060405250810190611d289190615b82565b90508060a001516001600160401b0316600014158390611d5c57604051637b3c09bf60e01b81526004016109a89190615268565b5092915050565b6020810151815161090491611d779161587d565b60005460015460405180604001604052806006815260200165746f6b656e7360d01b8152506139d4565b600080611dac6121c9565b91509150600083611dc1578460800151611dc7565b8460e001515b9050611e15816001600160401b0316846001600160401b0316846001600160401b03166040518060400160405280600d81526020016c1d1a185dda5b99d4195c9a5bd9609a1b8152506139d4565b600080611e206120d2565b91509150600086611e35578760600151611e3b565b8760c001515b90506110c18163ffffffff168463ffffffff168463ffffffff166040518060400160405280600e81526020016d1b585e15995c9a599a595c90dd5d60921b8152506139d4565b611e89610ce4565b15610b915760405163d93c066560e01b815260040160405180910390fd5b6001600160a01b03828116600081815260d3602052604080822080546001600160a01b0319169486169485179055517f3349d2e561f8c23a3ff42257745c8fb53e4bf3cbd4046672a3c4a0c7ee8a7b319190a35050565b6001600160a01b0382166000908152606760205260409020548290829060ff161515811514611f5357604051635e67e54b60e01b81526001600160a01b039092166004830152151560248201526044016109a8565b50506001600160a01b038216600081815260676020908152604091829020805460ff191685151590811790915591519182527fa95bac2f3df0d40e8278281c1d39d53c60e4f2bf3550ca5665738d0916e89789910160405180910390a25050565b611fbc610ce4565b610b9157604051638dfc202b60e01b815260040160405180910390fd5b611fe1611fb4565b6000611feb612149565b805460ff1916815590507f5db9ee0a495bf2e6ff9c91a7834c1ba4fdd244a5e8aa4e537bd38aeae4b073aa335b604051610db39190615268565b6001600160a01b0382166000818152609c60209081526040808320815192830184905282820194909452805180830382018152606090920190528190612079908490613a0890613a1d90613b169089613b3b565b91509150846001600160a01b03167f13f3fa9f0e54af1af76d8b5d11c3973d7c2aed6312b61efff2f7b49d73ad67eb83838060200190518101906120bd9190615c2f565b60408051928352602083019190915201611833565b6000806120dd61362e565b6001600160a01b031663bb2a2b476040518163ffffffff1660e01b8152600401602060405180830381865afa15801561211a573d6000803e3d6000fd5b505050506040513d601f19601f8201168201806040525081019061213e9190615c48565b92620f424092509050565b7fcd5ed15c6e187e77e9aee88184c21f4f2182ab5827cb3b7e07fbedcd63f0330090565b60006121776129d9565b80546001600160a01b038481166001600160a01b031983168117845560405193945091169182907f8be0079c531659141344cd1fd0a4f28419497f9722a3daafe3b4186f6b6457e090600090a3505050565b60008060006121d661362e565b6001600160a01b0316635aea0ec46040518163ffffffff1660e01b8152600401602060405180830381865afa158015612213573d6000803e3d6000fd5b505050506040513d601f19601f820116820180604052508101906122379190615c65565b93849350915050565b60d28190556040518181527f21774046e2611ddb52c8c46e1ad97524eeb2e3fda7dcd9428867868b4c4d06ba90602001610db3565b61228260d0848484613bf5565b80826001600160a01b0316846001600160a01b03167fd54c7abc930f6d506da2d08aa7aead4f2443e1db6d5f560384a2f652ff893e1960405160405180910390a4505050565b6122d0614ff4565b6122da8383613c98565b604080516101208101825282546001600160a01b03168152600183015460208201526002830154918101919091526003820154606082015260048201546080820152600582015460a0820152600682015460c0820152600782015460e08201526008909101546101008201529392505050565b600061235a60cf836122c8565b90506123e582612368613d4b565b6001600160a01b031663eeac3e0e84602001516040518263ffffffff1660e01b815260040161239991815260200190565b6020604051808303816000875af11580156123b8573d6000803e3d6000fd5b505050506040513d601f19601f820116820180604052508101906123dc9190615c2f565b60cf9190613d6f565b6123f060cf83613e22565b805160408201516124039160d191613ed8565b806040015160d46000836020015181526020019081526020016000205461242a919061587d565b60d4600083602001518152602001908152602001600020819055508060200151826001600160a01b031682600001516001600160a01b03167f663a6f978de61dc3e2441026c082be709377b083ab642a8ce71386f8b91c710b846040015160405161249791815260200190565b60405180910390a45050565b6124ab614ff4565b60006124b860cf866122c8565b90506124c381613f5d565b85906124e357604051631eb5ff9560e01b81526004016109a89190615268565b5080604001518414158585909161250f5760405163f32518cd60e01b81526004016109a8929190615c82565b505060408101518085111561254557612540612529611c3c565b8351612535848961587d565b60d192919088613f7c565b61255e565b815161255e90612555878461587d565b60d19190613ed8565b6000612568613d4b565b6001600160a01b031663eeac3e0e84602001516040518263ffffffff1660e01b815260040161259991815260200190565b6020604051808303816000875af11580156125b8573d6000803e3d6000fd5b505050506040513d601f19601f820116820180604052508101906125dc9190615c2f565b905060006125e9846139b5565b156125f5576000612604565b60c0840151612604908361587d565b6001600160a01b038916600090815260cf60205260409020600281018990556006018390559050612633613d4b565b604051636452fc0f60e11b815260048101859052602481018390526001600160a01b03919091169063c8a5f81e90604401602060405180830381865afa158015612681573d6000803e3d6000fd5b505050506040513d601f19601f820116820180604052508101906126a59190615c2f565b6001600160a01b038916600090815260cf6020526040812060070180549091906126d0908490615c9b565b909155505082871115612718576126e7838861587d565b60d4600086602001518152602001908152602001600020600082825461270d9190615c9b565b9091555061274e9050565b612722878461587d565b60d46000866020015181526020019081526020016000206000828254612748919061587d565b90915550505b8360200151886001600160a01b031685600001516001600160a01b03167f6db4a6f9be2d5e72eb2a2af2374ac487971bf342a261ba0bc1cf471bf2a2c31f8a876040516127a5929190918252602082015260400190565b60405180910390a4505050506001600160a01b03938416600090815260cf6020908152604091829020825161012081018452815490971687526001810154918701919091526002810154918601919091526003810154606086015260048101546080860152600581015460a0860152600681015460c0860152600781015460e086015260080154610100850152509192915050565b8181808211156128665760405163ccccdafb60e01b8152600481019290925260248201526044016109a8565b50506000829055600181905560408051838152602081018390527f90699b8b4bf48918fea1129c85f9bc7b51285df7ecc982910813c7805f56884991015b60405180910390a15050565b6128b8611e81565b60006128c2612149565b805460ff1916600117815590507f62e78cea01bee320cd4e420270b5ea74000d11b0c9f74754ebdbfc544b05a2586120183390565b7fa16a46d94261c7517cc8ff89f61c0ce93598e3c849801011dee649a6a557d10090565b606060006129276128f7565b9050806002018054612938906156f9565b80601f0160208091040260200160405190810160405280929190818152602001828054612964906156f9565b80156129b15780601f10612986576101008083540402835291602001916129b1565b820191906000526020600020905b81548152906001019060200180831161299457829003601f168201915b505050505091505090565b606060006129c86128f7565b9050806003018054612938906156f9565b7f9016d09d72d40fdae2fd8ceac6b6234c7706214fd39c1cd1e609a0528c19930090565b6060600080846001600160a01b031684604051612a1a9190615cae565b600060405180830381855af49150503d8060008114612a55576040519150601f19603f3d011682016040523d82523d6000602084013e612a5a565b606091505b5091509150612a6a858383614081565b95945050505050565b805160408101519051600091906001600160a01b03811115612aab5760405163fa4ac7a760e01b81526004016109a891815260200190565b508251516000612abc60cf836122c8565b805190915083906001600160a01b0381811690831614612af157604051634508fbf760e11b81526004016109a892919061554d565b50506020810151612b03846000612025565b6000612b0d6140d4565b6001600160a01b03166370a08231306040518263ffffffff1660e01b8152600401612b389190615268565b602060405180830381865afa158015612b55573d6000803e3d6000fd5b505050506040513d601f19601f82011682018060405250810190612b799190615c2f565b90506000612b85613534565b6001600160a01b0316634c4ea0ed846040518263ffffffff1660e01b8152600401612bb291815260200190565b602060405180830381865afa158015612bcf573d6000803e3d6000fd5b505050506040513d601f19601f82011682018060405250810190612bf39190615530565b612bfe576000612c03565b610109545b90506000612c0f613954565b6001600160a01b0316637f07d28360008b85604051602001612c32929190615cca565b6040516020818303038152906040526040518363ffffffff1660e01b8152600401612c5e929190615d86565b6020604051808303816000875af1158015612c7d573d6000803e3d6000fd5b505050506040513d601f19601f82011682018060405250810190612ca19190615c2f565b90506000612cad6140d4565b6001600160a01b03166370a08231306040518263ffffffff1660e01b8152600401612cd89190615268565b602060405180830381865afa158015612cf5573d6000803e3d6000fd5b505050506040513d601f19601f82011682018060405250810190612d199190615c2f565b9050838181811015612d4757604051639db8bc9560e01b8152600481019290925260248201526044016109a8565b5060009050612d56858361587d565b90508215612f0e5760006101085484612d6f9190615da6565b90506000612d7b61362e565b6001600160a01b0316635aea0ec46040518163ffffffff1660e01b8152600401602060405180830381865afa158015612db8573d6000803e3d6000fd5b505050506040513d601f19601f82011682018060405250810190612ddc9190615c65565b612def906001600160401b031642615c9b565b9050612dfc8b83836140f8565b8215612f0b57612e0a613d4b565b6001600160a01b0316631d1c2fec896040518263ffffffff1660e01b8152600401612e3791815260200190565b6020604051808303816000875af1158015612e56573d6000803e3d6000fd5b505050506040513d601f19601f82011682018060405250810190612e7a9190615c2f565b50612e9f612e86613534565b84612e8f6140d4565b6001600160a01b0316919061426a565b612ea7613534565b60405163102ae65160e31b8152600481018a9052602481018590526001600160a01b039190911690638157328890604401600060405180830381600087803b158015612ef257600080fd5b505af1158015612f06573d6000803e3d6000fd5b505050505b50505b8a516020908101516040805189815292830186905282018390526001600160a01b03808b169291811691908c16907f184c452047299395d4f7f147eb8e823458a450798539be54aeed978f13d87ba29060600160405180910390a450909998505050505050505050565b600080612f8660cf866122c8565b9050612f9181613f5d565b8590612fb157604051631eb5ff9560e01b81526004016109a89190615268565b506000612fbc614319565b6001600160a01b031663766718086040518163ffffffff1660e01b8152600401602060405180830381865afa158015612ff9573d6000803e3d6000fd5b505050506040513d601f19601f8201168201806040525081019061301d9190615c2f565b9050600061303660d2548461397890919063ffffffff16565b1580156130495750613047836139b5565b155b801561305457508515155b8015613064575082610100015182115b61306f5760006130e5565b613077613d4b565b6001600160a01b031663db750926886040518263ffffffff1660e01b81526004016130a29190615268565b6020604051808303816000875af11580156130c1573d6000803e3d6000fd5b505050506040513d601f19601f820116820180604052508101906130e59190615c2f565b9050613124876130f3613d4b565b6001600160a01b031663eeac3e0e86602001516040518263ffffffff1660e01b815260040161239991815260200190565b61312f60cf8861433d565b61313a60cf886143f3565b600080821561348957600061314d611c3c565b8651604051637573ef4f60e01b81526001600160a01b039290921691637573ef4f91613180913090600290600401615dbd565b602060405180830381865afa15801561319d573d6000803e3d6000fd5b505050506040513d601f19601f820116820180604052508101906131c19190615c2f565b905060006131cd611c3c565b8751604051631584a17960e21b81526001600160a01b03929092169163561285e4916131fd91309060040161554d565b60a060405180830381865afa15801561321a573d6000803e3d6000fd5b505050506040513d601f19601f8201168201806040525081019061323e9190615de2565b9050600081602001511161325357600061325d565b61325d85836144aa565b925082156133525761326d6140d4565b6001600160a01b031663095ea7b3613283611c3c565b856040518363ffffffff1660e01b81526004016132a1929190615c82565b6020604051808303816000875af11580156132c0573d6000803e3d6000fd5b505050506040513d601f19601f820116820180604052508101906132e49190615530565b506132ed611c3c565b875160405163ca94b0e960e01b81526001600160a01b03929092169163ca94b0e99161331f9130908890600401615e55565b600060405180830381600087803b15801561333957600080fd5b505af115801561334d573d6000803e3d6000fd5b505050505b61335c838661587d565b935083156134865786516001600160a01b03908116600090815260d3602052604090205416806134775761338e6140d4565b6001600160a01b031663095ea7b36133a4611c3c565b876040518363ffffffff1660e01b81526004016133c2929190615c82565b6020604051808303816000875af11580156133e1573d6000803e3d6000fd5b505050506040513d601f19601f820116820180604052508101906134059190615530565b5061340e611c3c565b8851604051633a30904960e11b81526001600160a01b0392909216916374612092916134409130908a90600401615e55565b600060405180830381600087803b15801561345a57600080fd5b505af115801561346e573d6000803e3d6000fd5b50505050613484565b6134848186612e8f6140d4565b505b50505b6020808601518651604080518781529384018690528301849052606083018b90526080830187905290916001600160a01b03808d169216907f7df4dbb3b3c999ca3e143d3fe67abfa22078fd572d49d411278648c773912e319060a00160405180910390a484516134fa9088613515565b15613508576135088961234d565b5090979650505050505050565b600061352c613522611c3c565b60d1908585614511565b159392505050565b7f000000000000000000000000000000000000000000000000000000000000000090565b7ff0c57e16840df040f15088dc2f81fe391c3923bec73e23a9662efc9c229c6a0090565b6135846145ab565b610904816145d0565b610b916145ab565b61359d6145ab565b6135a56145d8565b610b9161358d565b6135b56145ab565b6135a561460d565b6135c56145ab565b6135cf828261462a565b610b4b61358d565b806000036135f85760405163bc71a04360e01b815260040160405180910390fd5b6101088190556040518181527f2aaaf20b08565eebc0c962cd7c568e54c3c0c2b85a1f942b82cd1bd730fdcd2390602001610db3565b7f000000000000000000000000000000000000000000000000000000000000000090565b600061365d82611c60565b9050610b4b81611d63565b61367381600161463c565b61367b611c3c565b6001600160a01b0316633a78b732826040518263ffffffff1660e01b81526004016136a69190615268565b600060405180830381600087803b1580156136c057600080fd5b505af11580156136d4573d6000803e3d6000fd5b5050505050565b60006119407f4bdee85c4b4a268f4895d1096d553c3e57bb2433c380e7b7ec8cb56cc4f74673848460405160200161372f939291909283526001600160a01b03918216602084015216604082015260600190565b60405160208183030381529060405280519060200120614653565b613752614ff4565b6001600160a01b03861661377957604051634ffdf5ef60e11b815260040160405180910390fd5b613784878785614680565b61379861378f611c3c565b60d090886146cf565b60006137a2614319565b6001600160a01b031663766718086040518163ffffffff1660e01b8152600401602060405180830381865afa1580156137df573d6000803e3d6000fd5b505050506040513d601f19601f820116820180604052508101906138039190615c2f565b9050600061389389898989613816613d4b565b6001600160a01b031663eeac3e0e8d6040518263ffffffff1660e01b815260040161384391815260200190565b6020604051808303816000875af1158015613862573d6000803e3d6000fd5b505050506040513d601f19601f820116820180604052508101906138869190615c2f565b60cf9493929190886147b9565b90506138ab6138a0611c3c565b60d1908b8988613f7c565b806040015160d4600083602001518152602001908152602001600020546138d29190615c9b565b60d46000836020015181526020019081526020016000208190555086886001600160a01b03168a6001600160a01b03167fe5e185fab2b992c4727ff702a867d78b15fb176dbaa20c9c312a1c351d3f7f83846040015186604051613940929190918252602082015260400190565b60405180910390a498975050505050505050565b7f000000000000000000000000000000000000000000000000000000000000000090565b60008061398d84606001518560a00151614921565b613997904261587d565b90506139a284613f5d565b80156139ad57508281115b949350505050565b60006139c48260600151151590565b80156112c7575050604001511590565b6139df848484614937565b81858585909192936110c157604051630871e13d60e01b81526004016109a89493929190615e79565b6000908152609b602052604090206003015490565b600060606000613a2c8561494e565b90504281604001511115613a5457505060408051602081019091526000815260019150613b0f565b60008085806020019051810190613a6b9190615ea8565b84519193509150613a8090609a908390613ed8565b82516040808501518151928352602083015288916001600160a01b038416917f4c06b68820628a39c787d2db1faa0eeacd7b9474847b198b1e871fe6e5b93f44910160405180910390a38251613ad69083615c9b565b6040805160208101929092526001600160a01b038316908201526060016040516020818303038152906040529550600086945094505050505b9250929050565b6000908152609b60205260408120818155600181018290556002810182905560030155565b600060608760030154831115613b6457604051634a411b9d60e11b815260040160405180910390fd5b60008315613b725783613b78565b88600301545b89549094505b8015801590613b8d5750600085115b15613be657600080613ba383898c63ffffffff16565b915091508115613bb4575050613be6565b965086613bc28c8c8b6149dc565b925086613bce81615ece565b9750508380613bdc90615ee5565b9450505050613b7e565b50989397509295505050505050565b6001600160a01b038281166000908152602086815260409182902082518084019093528054909316808352600190930154910152829015613c4a57604051632d7d25f160e21b81526004016109a89190615268565b506040805180820182526001600160a01b0394851681526020808201938452938516600090815295909352909320905181546001600160a01b03191692169190911781559051600190910155565b6001600160a01b03808216600090815260208481526040808320815161012081018352815490951685526001810154928501929092526002820154908401526003810154606084015260048101546080840152600581015460a0840152600681015460c0840152600781015460e084015260088101546101008401529091613d239060600151151590565b8390613d43576040516342daadaf60e01b81526004016109a89190615268565b509392505050565b7f000000000000000000000000000000000000000000000000000000000000000090565b6000613d7b8484613c98565b604080516101208101825282546001600160a01b03168152600183015460208201526002830154918101919091526003820154606082015260048201546080820152600582015460a0820152600682015460c0820152600782015460e08201526008820154610100820152909150613df290613f5d565b60048201548491613e18576040516361b66e0d60e01b81526004016109a8929190615c82565b5050600601555050565b6000613e2e8383613c98565b604080516101208101825282546001600160a01b03168152600183015460208201526002830154918101919091526003820154606082015260048201546080820152600582015460a0820152600682015460c0820152600782015460e08201526008820154610100820152909150613ea590613f5d565b60048201548391613ecb576040516361b66e0d60e01b81526004016109a8929190615c82565b5050426004909101555050565b80600003613ee557505050565b6001600160a01b0382166000908152602084905260409020548180821015613f2957604051635f8ec70960e01b8152600481019290925260248201526044016109a8565b50506001600160a01b03821660009081526020849052604081208054839290613f5390849061587d565b9091555050505050565b6000613f6c8260600151151590565b80156112c7575050608001511590565b81156136d4576001600160a01b038316600090815260208690526040812054613fa6908490615c9b565b90506000856001600160a01b031663872d04898630866040518463ffffffff1660e01b8152600401613fda93929190615efe565b602060405180830381865afa158015613ff7573d6000803e3d6000fd5b505050506040513d601f19601f8201168201806040525081019061401b9190615c2f565b905080828181111561404957604051635f8ec70960e01b8152600481019290925260248201526044016109a8565b50506001600160a01b03851660009081526020889052604081208054869290614073908490615c9b565b909155505050505050505050565b6060826140965761409182614a63565b611940565b81511580156140ad57506001600160a01b0384163b155b156140cd5783604051639996b31560e01b81526004016109a89190615268565b5080611940565b7f000000000000000000000000000000000000000000000000000000000000000090565b8160000361411957604051638f4c63d960e01b815260040160405180910390fd5b614145614124611c3c565b600254609a91908690869063ffffffff600160c01b909104811690613f7c16565b6001600160a01b0383166000908152609c6020908152604080832060028082015483516001600160601b031930606090811b8216838901528b901b166034820152604880820192909252845180820390920182526068810180865282519287019290922060e882018652898352426088830190815260a883018a815260c8909301898152828a52609b9098529590972091518255935160018201559251908301559151600391820155810154909190156142135760018201546000908152609b602052604090206003018190555b61421d8282614a8c565b604080518581526020810185905282916001600160a01b038816917f5d9e2c5278e41138269f5f980cfbea016d8c59816754502abc4d2f87aaea987f910160405180910390a35050505050565b8015610d445760405163a9059cbb60e01b81526001600160a01b0384169063a9059cbb9061429e9085908590600401615c82565b6020604051808303816000875af11580156142bd573d6000803e3d6000fd5b505050506040513d601f19601f820116820180604052508101906142e19190615530565b610d445760405162461bcd60e51b815260206004820152600960248201526810ba3930b739b332b960b91b60448201526064016109a8565b7f000000000000000000000000000000000000000000000000000000000000000090565b60006143498383613c98565b604080516101208101825282546001600160a01b03168152600183015460208201526002830154918101919091526003820154606082015260048201546080820152600582015460a0820152600682015460c0820152600782015460e082015260088201546101008201529091506143c090613f5d565b600482015483916143e6576040516361b66e0d60e01b81526004016109a8929190615c82565b5050426005909101555050565b60006143ff8383613c98565b604080516101208101825282546001600160a01b03168152600183015460208201526002830154918101919091526003820154606082015260048201546080820152600582015460a0820152600682015460c0820152600782015460e0820152600882015461010082015290915061447690613f5d565b6004820154839161449c576040516361b66e0d60e01b81526004016109a8929190615c82565b505060006007909101555050565b60006144b983620f4240101590565b806144cc57506144cc82620f4240101590565b838390916144f65760405163768bf0eb60e11b8152600481019290925260248201526044016109a8565b50620f424090506145078385615da6565b6119409190615f27565b600080846001600160a01b031663872d04898530866040518463ffffffff1660e01b815260040161454493929190615efe565b602060405180830381865afa158015614561573d6000803e3d6000fd5b505050506040513d601f19601f820116820180604052508101906145859190615c2f565b6001600160a01b0385166000908152602088905260409020541115915050949350505050565b6145b3614b1f565b610b9157604051631afcd79f60e31b815260040160405180910390fd5b611b836145ab565b6145e06145ab565b6145ed600060001961283a565b6145fb6000620f4240614b39565b610b9160006001600160401b03614c0b565b6146156145ab565b600061461f612149565b805460ff1916905550565b6146326145ab565b610b4b8282614c98565b600061464783611c60565b9050610d448183611da1565b60006112c7614660614cd9565b8360405161190160f01b8152600281019290925260228201526042902090565b600061469561468f85856136db565b83614ce3565b905080836001600160a01b03808316908216146146c757604051638c5b935d60e01b81526004016109a892919061554d565b505050505050565b6001600160a01b03818116600090815260208581526040918290208251808401909352805490931680835260019093015491015281901561472457604051632d7d25f160e21b81526004016109a89190615268565b506040516378eb06b360e11b81526001600160a01b0383169063f1d60d6690614751908490600401615268565b602060405180830381865afa15801561476e573d6000803e3d6000fd5b505050506040513d601f19601f820116820180604052508101906147929190615530565b1581906147b357604051632d7d25f160e21b81526004016109a89190615268565b50505050565b6147c1614ff4565b6001600160a01b03808716600090815260208a8152604091829020825161012081018452815490941684526001810154918401919091526002810154918301919091526003810154606083015260048101546080830152600581015460a0830152600681015460c0830152600781015460e08301526008015461010082015261484d9060600151151590565b15869061486e57604051630bc4def560e01b81526004016109a89190615268565b505060408051610120810182526001600160a01b0397881681526020808201968752818301958652426060830190815260006080840181815260a0850182815260c0860198895260e0860183815261010087019889529b8d1683529c90935293909320825181546001600160a01b0319169a169990991789559551600189015593516002880155516003870155925160048601559451600585015593516006840155905160078301555160089091015590565b60008183116149305781611940565b5090919050565b60008284101580156139ad57505090911115919050565b61497c6040518060800160405280600081526020016000815260200160008152602001600080191681525090565b6000828152609b602090815260409182902082516080810184528154815260018201549281018390526002820154938101939093526003015460608301528390611d5c5760405163107349a960e21b81526004016109a891815260200190565b600080846003015411614a025760405163ddaf8f2160e01b815260040160405180910390fd5b6000614a1585600001548563ffffffff16565b9050614a2885600001548463ffffffff16565b6001856003016000828254614a3d919061587d565b90915550508085556003850154600003614a5957600060018601555b5050915492915050565b805115614a735780518082602001fd5b604051630a12f52160e11b815260040160405180910390fd5b612710826003015410614ab2576040516303a8c56b60e61b815260040160405180910390fd5b80614ad057604051638f4a893d60e01b815260040160405180910390fd5b6001808301829055600283018054600090614aec908490615c9b565b90915550506003820154600003614b01578082555b6001826003016000828254614b169190615c9b565b90915550505050565b6000614b29613558565b54600160401b900460ff16919050565b818163ffffffff8082169083161115614b675760405163ccccdafb60e01b81526004016109a89291906151b2565b508290508163ffffffff8116620f42401015614b985760405163ccccdafb60e01b81526004016109a89291906151b2565b50506002805463ffffffff838116600160a01b0263ffffffff60a01b19918616600160801b029190911667ffffffffffffffff60801b19909216919091171790556040517f2fe5a7039987697813605cc0b9d6db7aab575408e3fc59e8a457bef8d7bc0a36906128a490849084906151b2565b81816001600160401b038082169083161115614c3c5760405163ccccdafb60e01b81526004016109a892919061524e565b5050600280546001600160401b03838116600160401b026001600160801b0319909216908516171790556040517f2867e04c500e438761486b78021d4f9eb97c77ff45d10c1183f5583ba4cbf7d1906128a4908490849061524e565b614ca06145ab565b6000614caa6128f7565b905060028101614cba848261577a565b5060038101614cc9838261577a565b5060008082556001909101555050565b6000610907614d0d565b600080600080614cf38686614d81565b925092509250614d038282614dce565b5090949350505050565b60007f8b73c3c69bb8fe3d512ecc4cf759cc79239f7b179b0ffacaa9a75d522b39400f614d38614e87565b614d40614eee565b60408051602081019490945283019190915260608201524660808201523060a082015260c00160405160208183030381529060405280519060200120905090565b60008060008351604103614dbb5760208401516040850151606086015160001a614dad88828585614f2f565b955095509550505050614dc7565b50508151600091506002905b9250925092565b6000826003811115614de257614de2615913565b03614deb575050565b6001826003811115614dff57614dff615913565b03614e1d5760405163f645eedf60e01b815260040160405180910390fd5b6002826003811115614e3157614e31615913565b03614e525760405163fce698f760e01b8152600481018290526024016109a8565b6003826003811115614e6657614e66615913565b03610b4b576040516335e2f38360e21b8152600481018290526024016109a8565b600080614e926128f7565b90506000614e9e61291b565b805190915015614eb657805160209091012092915050565b81548015614ec5579392505050565b7fc5d2460186f7233c927e7db2dcc703c0e500b653ca82273b7bfad8045d85a470935050505090565b600080614ef96128f7565b90506000614f056129bc565b805190915015614f1d57805160209091012092915050565b60018201548015614ec5579392505050565b600080806fa2a8918ca85bafe22016d0b997e4df60600160ff1b03841115614f605750600091506003905082614fea565b604080516000808252602082018084528a905260ff891692820192909252606081018790526080810186905260019060a0016020604051602081039080840390855afa158015614fb4573d6000803e3d6000fd5b5050604051601f1901519150506001600160a01b038116614fe057506000925060019150829050614fea565b9250600091508190505b9450945094915050565b60405180610120016040528060006001600160a01b0316815260200160008019168152602001600081526020016000815260200160008152602001600081526020016000815260200160008152602001600081525090565b6001600160a01b038116811461090457600080fd5b803561506c8161504c565b919050565b60006020828403121561508357600080fd5b81356119408161504c565b63ffffffff8116811461090457600080fd5b6000602082840312156150b257600080fd5b81356119408161508e565b60008083601f8401126150cf57600080fd5b5081356001600160401b038111156150e657600080fd5b602083019150836020828501011115613b0f57600080fd5b60008060006040848603121561511357600080fd5b833561511e8161504c565b925060208401356001600160401b0381111561513957600080fd5b615145868287016150bd565b9497909650939450505050565b801515811461090457600080fd5b6000806040838503121561517357600080fd5b823561517e8161504c565b9150602083013561518e81615152565b809150509250929050565b6000602082840312156151ab57600080fd5b5035919050565b63ffffffff92831681529116602082015260400190565b60005b838110156151e45781810151838201526020016151cc565b50506000910152565b600081518084526152058160208601602086016151c9565b601f01601f19169290920160200192915050565b83815260606020820152600061523260608301856151ed565b828103604084015261524481856151ed565b9695505050505050565b6001600160401b0392831681529116602082015260400190565b6001600160a01b0391909116815260200190565b60008060006060848603121561529157600080fd5b833561529c8161504c565b925060208401356152ac8161504c565b929592945050506040919091013590565b60ff60f81b8816815260e0602082015260006152dc60e08301896151ed565b82810360408401526152ee81896151ed565b606084018890526001600160a01b038716608085015260a0840186905283810360c08501528451808252602080870193509091019060005b81811015615344578351835260209384019390920191600101615326565b50909b9a5050505050505050505050565b6000806020838503121561536857600080fd5b82356001600160401b0381111561537e57600080fd5b8301601f8101851361538f57600080fd5b80356001600160401b038111156153a557600080fd5b8560208260051b84010111156153ba57600080fd5b6020919091019590945092505050565b6000602082016020835280845180835260408501915060408160051b86010192506020860160005b8281101561542357603f1987860301845261540e8583516151ed565b945060209384019391909101906001016153f2565b50929695505050505050565b6000806000806060858703121561544557600080fd5b84356154508161504c565b935060208501356003811061546457600080fd5b925060408501356001600160401b0381111561547f57600080fd5b61548b878288016150bd565b95989497509550505050565b600080600080608085870312156154ad57600080fd5b84356154b88161504c565b93506020850135925060408501356154cf8161508e565b9396929550929360600135925050565b600080604083850312156154f257600080fd5b82356154fd8161504c565b9150602083013561518e8161504c565b6001600160a01b0393841681529183166020830152909116604082015260600190565b60006020828403121561554257600080fd5b815161194081615152565b6001600160a01b0392831681529116602082015260400190565b634e487b7160e01b600052604160045260246000fd5b604080519081016001600160401b038111828210171561559f5761559f615567565b60405290565b60405160e081016001600160401b038111828210171561559f5761559f615567565b60405161014081016001600160401b038111828210171561559f5761559f615567565b600082601f8301126155fb57600080fd5b8135602083016000806001600160401b0384111561561b5761561b615567565b50604051601f19601f85018116603f011681018181106001600160401b038211171561564957615649615567565b60405283815290508082840187101561566157600080fd5b838360208301376000602085830101528094505050505092915050565b60008060006060848603121561569357600080fd5b83356001600160401b038111156156a957600080fd5b6156b5868287016155ea565b93505060208401356001600160401b038111156156d157600080fd5b6156dd868287016155ea565b92505060408401356156ee8161504c565b809150509250925092565b600181811c9082168061570d57607f821691505b60208210810361572d57634e487b7160e01b600052602260045260246000fd5b50919050565b601f821115610d4457806000526020600020601f840160051c8101602085101561575a5750805b601f840160051c820191505b818110156136d45760008155600101615766565b81516001600160401b0381111561579357615793615567565b6157a7816157a184546156f9565b84615733565b6020601f8211600181146157db57600083156157c35750848201515b600019600385901b1c1916600184901b1784556136d4565b600084815260208120601f198516915b8281101561580b57878501518255602094850194600190920191016157eb565b50848210156158295786840151600019600387901b60f8161c191681555b50505050600190811b01905550565b60208152816020820152818360408301376000818301604090810191909152601f909201601f19160101919050565b634e487b7160e01b600052601160045260246000fd5b818103818111156112c7576112c7615867565b634e487b7160e01b600052603260045260246000fd5b6000808335601e198436030181126158bd57600080fd5b8301803591506001600160401b038211156158d757600080fd5b602001915036819003821315613b0f57600080fd5b8284823760008382016000815283516159098183602088016151c9565b0195945050505050565b634e487b7160e01b600052602160045260246000fd5b6001600160401b038116811461090457600080fd5b803561506c81615929565b80356001600160801b038116811461506c57600080fd5b60006020828403121561597257600080fd5b81356001600160401b0381111561598857600080fd5b82016040818503121561599a57600080fd5b6159a261557d565b81356001600160401b038111156159b857600080fd5b820160e081870312156159ca57600080fd5b6159d26155a5565b813581526159e260208301615061565b60208201526159f360408301615061565b6040820152615a0460608301615061565b6060820152615a156080830161593e565b6080820152615a2660a08301615949565b60a082015260c08201356001600160401b03811115615a4457600080fd5b615a50888285016155ea565b60c08301525082525060208201356001600160401b03811115615a7257600080fd5b615a7e868285016155ea565b602083015250949350505050565b60008060408385031215615a9f57600080fd5b8235615aaa8161504c565b946020939093013593505050565b60038110615ad657634e487b7160e01b600052602160045260246000fd5b9052565b602081016112c78284615ab8565b60008060408385031215615afb57600080fd5b50508035926020909101359150565b60008060008060808587031215615b2057600080fd5b84359350602085013592506040850135615b398161504c565b915060608501356001600160401b03811115615b5457600080fd5b615b60878288016155ea565b91505092959194509250565b805161506c8161508e565b805161506c81615929565b6000610140828403128015615b9657600080fd5b506000615ba16155c7565b835181526020808501519082015260408085015190820152615bc560608501615b6c565b6060820152615bd660808501615b77565b6080820152615be760a08501615b77565b60a0820152615bf860c08501615b6c565b60c0820152615c0960e08501615b77565b60e082015261010084810151908201526101209384015193810193909352509092915050565b600060208284031215615c4157600080fd5b5051919050565b600060208284031215615c5a57600080fd5b81516119408161508e565b600060208284031215615c7757600080fd5b815161194081615929565b6001600160a01b03929092168252602082015260400190565b808201808211156112c7576112c7615867565b60008251615cc08184602087016151c9565b9190910192915050565b60408082528351828201829052805160808085019190915260208201516001600160a01b0390811660a086015292820151831660c0850152606082015190921660e0840152908101516001600160401b038116610100840152600091905060a08101516001600160801b0381166101208501525060c0015160e0610140840152615d586101608401826151ed565b90506020850151603f19848303016060850152615d7582826151ed565b925050508260208301529392505050565b615d908184615ab8565b6040602082015260006139ad60408301846151ed565b80820281158282048414176112c7576112c7615867565b6001600160a01b03848116825283166020820152606081016139ad6040830184615ab8565b600060a0828403128015615df557600080fd5b5060405160009060a081016001600160401b0381118282101715615e1b57615e1b615567565b6040908152845182526020808601519083015284810151908201526060808501519082015260809384015193810193909352509092915050565b6001600160a01b039384168152919092166020820152604081019190915260600190565b608081526000615e8c60808301876151ed565b6020830195909552506040810192909252606090910152919050565b60008060408385031215615ebb57600080fd5b8251602084015190925061518e8161504c565b600081615edd57615edd615867565b506000190190565b600060018201615ef757615ef7615867565b5060010190565b6001600160a01b03938416815291909216602082015263ffffffff909116604082015260600190565b600082615f4457634e487b7160e01b600052601260045260246000fd5b50049056fea2646970667358221220316fa474aec7fd033759a810234437bbf2d465b7d0074cf6e1229848f7ea40bf64736f6c634300081b0033",
  "linkReferences": {},
  "deployedLinkReferences": {}
}