{
  "_format": "hh-sol-artifact-1",
  "contractName": "TAPCollector",
  "sourceName": "contracts/payments/collectors/TAPCollector.sol",
  "abi": [
    {
      "inputs": [
        {
          "internalType": "string",
          "name": "eip712Name",
          "type": "string"
        },
        {
          "internalType": "string",
          "name": "eip712Version",
          "type": "string"
        },
        {
          "internalType": "address",
          "name": "controller",
          "type": "address"
        },
        {
          "internalType": "uint256",
          "name": "revokeSignerThawingPeriod",
          "type": "uint256"
        }
      ],
      "stateMutability": "nonpayable",
      "type": "constructor"
    },
    {
      "inputs": [],
      "name": "ECDSAInvalidSignature",
      "type": "error"
    },
    {
      "inputs": [
        {
          "internalType": "uint256",
          "name": "length",
          "type": "uint256"
        }
      ],
      "name": "ECDSAInvalidSignatureLength",
      "type": "error"
    },
    {
      "inputs": [
        {
          "internalType": "bytes32",
          "name": "s",
          "type": "bytes32"
        }
      ],
      "name": "ECDSAInvalidSignatureS",
      "type": "error"
    },
    {
      "inputs": [
        {
          "internalType": "bytes",
          "name": "contractName",
          "type": "bytes"
        }
      ],
      "name": "GraphDirectoryInvalidZeroAddress",
      "type": "error"
    },
    {
      "inputs": [],
      "name": "InvalidShortString",
      "type": "error"
    },
    {
      "inputs": [
        {
          "internalType": "uint256",
          "name": "a",
          "type": "uint256"
        },
        {
          "internalType": "uint256",
          "name": "b",
          "type": "uint256"
        }
      ],
      "name": "PPMMathInvalidMulPPM",
      "type": "error"
    },
    {
      "inputs": [
        {
          "internalType": "string",
          "name": "str",
          "type": "string"
        }
      ],
      "name": "StringTooLong",
      "type": "error"
    },
    {
      "inputs": [
        {
          "internalType": "address",
          "name": "caller",
          "type": "address"
        },
        {
          "internalType": "address",
          "name": "dataService",
          "type": "address"
        }
      ],
      "name": "TAPCollectorCallerNotDataService",
      "type": "error"
    },
    {
      "inputs": [
        {
          "internalType": "uint256",
          "name": "tokens",
          "type": "uint256"
        },
        {
          "internalType": "uint256",
          "name": "tokensCollected",
          "type": "uint256"
        }
      ],
      "name": "TAPCollectorInconsistentRAVTokens",
      "type": "error"
    },
    {
      "inputs": [],
      "name": "TAPCollectorInvalidRAVSigner",
      "type": "error"
    },
    {
      "inputs": [],
      "name": "TAPCollectorInvalidSignerProof",
      "type": "error"
    },
    {
      "inputs": [
        {
          "internalType": "uint256",
          "name": "proofDeadline",
          "type": "uint256"
        },
        {
          "internalType": "uint256",
          "name": "currentTimestamp",
          "type": "uint256"
        }
      ],
      "name": "TAPCollectorInvalidSignerProofDeadline",
      "type": "error"
    },
    {
      "inputs": [
        {
          "internalType": "address",
          "name": "authorizingPayer",
          "type": "address"
        },
        {
          "internalType": "address",
          "name": "signer",
          "type": "address"
        }
      ],
      "name": "TAPCollectorSignerAlreadyAuthorized",
      "type": "error"
    },
    {
      "inputs": [
        {
          "internalType": "address",
          "name": "payer",
          "type": "address"
        },
        {
          "internalType": "address",
          "name": "signer",
          "type": "address"
        }
      ],
      "name": "TAPCollectorSignerNotAuthorizedByPayer",
      "type": "error"
    },
    {
      "inputs": [
        {
          "internalType": "address",
          "name": "signer",
          "type": "address"
        }
      ],
      "name": "TAPCollectorSignerNotThawing",
      "type": "error"
    },
    {
      "inputs": [
        {
          "internalType": "uint256",
          "name": "currentTimestamp",
          "type": "uint256"
        },
        {
          "internalType": "uint256",
          "name": "thawEndTimestamp",
          "type": "uint256"
        }
      ],
      "name": "TAPCollectorSignerStillThawing",
      "type": "error"
    },
    {
      "anonymous": false,
      "inputs": [],
      "name": "EIP712DomainChanged",
      "type": "event"
    },
    {
      "anonymous": false,
      "inputs": [
        {
          "indexed": true,
          "internalType": "address",
          "name": "graphToken",
          "type": "address"
        },
        {
          "indexed": true,
          "internalType": "address",
          "name": "graphStaking",
          "type": "address"
        },
        {
          "indexed": false,
          "internalType": "address",
          "name": "graphPayments",
          "type": "address"
        },
        {
          "indexed": false,
          "internalType": "address",
          "name": "graphEscrow",
          "type": "address"
        },
        {
          "indexed": true,
          "internalType": "address",
          "name": "graphController",
          "type": "address"
        },
        {
          "indexed": false,
          "internalType": "address",
          "name": "graphEpochManager",
          "type": "address"
        },
        {
          "indexed": false,
          "internalType": "address",
          "name": "graphRewardsManager",
          "type": "address"
        },
        {
          "indexed": false,
          "internalType": "address",
          "name": "graphTokenGateway",
          "type": "address"
        },
        {
          "indexed": false,
          "internalType": "address",
          "name": "graphProxyAdmin",
          "type": "address"
        },
        {
          "indexed": false,
          "internalType": "address",
          "name": "graphCuration",
          "type": "address"
        }
      ],
      "name": "GraphDirectoryInitialized",
      "type": "event"
    },
    {
      "anonymous": false,
      "inputs": [
        {
          "indexed": true,
          "internalType": "enum IGraphPayments.PaymentTypes",
          "name": "paymentType",
          "type": "uint8"
        },
        {
          "indexed": true,
          "internalType": "address",
          "name": "payer",
          "type": "address"
        },
        {
          "indexed": false,
          "internalType": "address",
          "name": "receiver",
          "type": "address"
        },
        {
          "indexed": false,
          "internalType": "uint256",
          "name": "tokensReceiver",
          "type": "uint256"
        },
        {
          "indexed": true,
          "internalType": "address",
          "name": "dataService",
          "type": "address"
        },
        {
          "indexed": false,
          "internalType": "uint256",
          "name": "tokensDataService",
          "type": "uint256"
        }
      ],
      "name": "PaymentCollected",
      "type": "event"
    },
    {
      "anonymous": false,
      "inputs": [
        {
          "indexed": true,
          "internalType": "address",
          "name": "payer",
          "type": "address"
        },
        {
          "indexed": true,
          "internalType": "address",
          "name": "dataService",
          "type": "address"
        },
        {
          "indexed": true,
          "internalType": "address",
          "name": "serviceProvider",
          "type": "address"
        },
        {
          "indexed": false,
          "internalType": "uint64",
          "name": "timestampNs",
          "type": "uint64"
        },
        {
          "indexed": false,
          "internalType": "uint128",
          "name": "valueAggregate",
          "type": "uint128"
        },
        {
          "indexed": false,
          "internalType": "bytes",
          "name": "metadata",
          "type": "bytes"
        },
        {
          "indexed": false,
          "internalType": "bytes",
          "name": "signature",
          "type": "bytes"
        }
      ],
      "name": "RAVCollected",
      "type": "event"
    },
    {
      "anonymous": false,
      "inputs": [
        {
          "indexed": true,
          "internalType": "address",
          "name": "payer",
          "type": "address"
        },
        {
          "indexed": true,
          "internalType": "address",
          "name": "authorizedSigner",
          "type": "address"
        }
      ],
      "name": "SignerAuthorized",
      "type": "event"
    },
    {
      "anonymous": false,
      "inputs": [
        {
          "indexed": true,
          "internalType": "address",
          "name": "payer",
          "type": "address"
        },
        {
          "indexed": true,
          "internalType": "address",
          "name": "authorizedSigner",
          "type": "address"
        }
      ],
      "name": "SignerRevoked",
      "type": "event"
    },
    {
      "anonymous": false,
      "inputs": [
        {
          "indexed": true,
          "internalType": "address",
          "name": "payer",
          "type": "address"
        },
        {
          "indexed": true,
          "internalType": "address",
          "name": "authorizedSigner",
          "type": "address"
        },
        {
          "indexed": false,
          "internalType": "uint256",
          "name": "thawEndTimestamp",
          "type": "uint256"
        }
      ],
      "name": "SignerThawCanceled",
      "type": "event"
    },
    {
      "anonymous": false,
      "inputs": [
        {
          "indexed": true,
          "internalType": "address",
          "name": "payer",
          "type": "address"
        },
        {
          "indexed": true,
          "internalType": "address",
          "name": "authorizedSigner",
          "type": "address"
        },
        {
          "indexed": false,
          "internalType": "uint256",
          "name": "thawEndTimestamp",
          "type": "uint256"
        }
      ],
      "name": "SignerThawing",
      "type": "event"
    },
    {
      "inputs": [],
      "name": "REVOKE_SIGNER_THAWING_PERIOD",
      "outputs": [
        {
          "internalType": "uint256",
          "name": "",
          "type": "uint256"
        }
      ],
      "stateMutability": "view",
      "type": "function"
    },
    {
      "inputs": [
        {
          "internalType": "address",
          "name": "signer",
          "type": "address"
        },
        {
          "internalType": "uint256",
          "name": "proofDeadline",
          "type": "uint256"
        },
        {
          "internalType": "bytes",
          "name": "proof",
          "type": "bytes"
        }
      ],
      "name": "authorizeSigner",
      "outputs": [],
      "stateMutability": "nonpayable",
      "type": "function"
    },
    {
      "inputs": [
        {
          "internalType": "address",
          "name": "signer",
          "type": "address"
        }
      ],
      "name": "authorizedSigners",
      "outputs": [
        {
          "internalType": "address",
          "name": "payer",
          "type": "address"
        },
        {
          "internalType": "uint256",
          "name": "thawEndTimestamp",
          "type": "uint256"
        }
      ],
      "stateMutability": "view",
      "type": "function"
    },
    {
      "inputs": [
        {
          "internalType": "address",
          "name": "signer",
          "type": "address"
        }
      ],
      "name": "cancelThawSigner",
      "outputs": [],
      "stateMutability": "nonpayable",
      "type": "function"
    },
    {
      "inputs": [
        {
          "internalType": "enum IGraphPayments.PaymentTypes",
          "name": "paymentType",
          "type": "uint8"
        },
        {
          "internalType": "bytes",
          "name": "data",
          "type": "bytes"
        }
      ],
      "name": "collect",
      "outputs": [
        {
          "internalType": "uint256",
          "name": "",
          "type": "uint256"
        }
      ],
      "stateMutability": "nonpayable",
      "type": "function"
    },
    {
      "inputs": [],
      "name": "eip712Domain",
      "outputs": [
        {
          "internalType": "bytes1",
          "name": "fields",
          "type": "bytes1"
        },
        {
          "internalType": "string",
          "name": "name",
          "type": "string"
        },
        {
          "internalType": "string",
          "name": "version",
          "type": "string"
        },
        {
          "internalType": "uint256",
          "name": "chainId",
          "type": "uint256"
        },
        {
          "internalType": "address",
          "name": "verifyingContract",
          "type": "address"
        },
        {
          "internalType": "bytes32",
          "name": "salt",
          "type": "bytes32"
        },
        {
          "internalType": "uint256[]",
          "name": "extensions",
          "type": "uint256[]"
        }
      ],
      "stateMutability": "view",
      "type": "function"
    },
    {
      "inputs": [
        {
          "components": [
            {
              "internalType": "address",
              "name": "dataService",
              "type": "address"
            },
            {
              "internalType": "address",
              "name": "serviceProvider",
              "type": "address"
            },
            {
              "internalType": "uint64",
              "name": "timestampNs",
              "type": "uint64"
            },
            {
              "internalType": "uint128",
              "name": "valueAggregate",
              "type": "uint128"
            },
            {
              "internalType": "bytes",
              "name": "metadata",
              "type": "bytes"
            }
          ],
          "internalType": "struct ITAPCollector.ReceiptAggregateVoucher",
          "name": "rav",
          "type": "tuple"
        }
      ],
      "name": "encodeRAV",
      "outputs": [
        {
          "internalType": "bytes32",
          "name": "",
          "type": "bytes32"
        }
      ],
      "stateMutability": "view",
      "type": "function"
    },
    {
      "inputs": [
        {
          "components": [
            {
              "components": [
                {
                  "internalType": "address",
                  "name": "dataService",
                  "type": "address"
                },
                {
                  "internalType": "address",
                  "name": "serviceProvider",
                  "type": "address"
                },
                {
                  "internalType": "uint64",
                  "name": "timestampNs",
                  "type": "uint64"
                },
                {
                  "internalType": "uint128",
                  "name": "valueAggregate",
                  "type": "uint128"
                },
                {
                  "internalType": "bytes",
                  "name": "metadata",
                  "type": "bytes"
                }
              ],
              "internalType": "struct ITAPCollector.ReceiptAggregateVoucher",
              "name": "rav",
              "type": "tuple"
            },
            {
              "internalType": "bytes",
              "name": "signature",
              "type": "bytes"
            }
          ],
          "internalType": "struct ITAPCollector.SignedRAV",
          "name": "signedRAV",
          "type": "tuple"
        }
      ],
      "name": "recoverRAVSigner",
      "outputs": [
        {
          "internalType": "address",
          "name": "",
          "type": "address"
        }
      ],
      "stateMutability": "view",
      "type": "function"
    },
    {
      "inputs": [
        {
          "internalType": "address",
          "name": "signer",
          "type": "address"
        }
      ],
      "name": "revokeAuthorizedSigner",
      "outputs": [],
      "stateMutability": "nonpayable",
      "type": "function"
    },
    {
      "inputs": [
        {
          "internalType": "address",
          "name": "signer",
          "type": "address"
        }
      ],
      "name": "thawSigner",
      "outputs": [],
      "stateMutability": "nonpayable",
      "type": "function"
    },
    {
      "inputs": [
        {
          "internalType": "address",
          "name": "dataService",
          "type": "address"
        },
        {
          "internalType": "address",
          "name": "receiver",
          "type": "address"
        },
        {
          "internalType": "address",
          "name": "payer",
          "type": "address"
        }
      ],
      "name": "tokensCollected",
      "outputs": [
        {
          "internalType": "uint256",
          "name": "tokens",
          "type": "uint256"
        }
      ],
      "stateMutability": "view",
      "type": "function"
    }
  ],
  "bytecode": "0x6102c060405234801561001157600080fd5b50604051612162380380612162833981016040819052610030916105de565b81848461003e8260006103e0565b6101205261004d8160016103e0565b61014052815160208084019190912060e052815190820120610100524660a0526100da60e05161010051604080517f8b73c3c69bb8fe3d512ecc4cf759cc79239f7b179b0ffacaa9a75d522b39400f60208201529081019290925260608201524660808201523060a082015260009060c00160405160208183030381529060405280519060200120905090565b60805250503060c0526001600160a01b03811661012c5760405163218f5add60e11b815260206004820152600a60248201526921b7b73a3937b63632b960b11b60448201526064015b60405180910390fd5b6001600160a01b0381166101e05260408051808201909152600a81526923b930b8342a37b5b2b760b11b602082015261016490610413565b6001600160a01b0316610160526040805180820190915260078152665374616b696e6760c81b602082015261019890610413565b6001600160a01b03166101805260408051808201909152600d81526c47726170685061796d656e747360981b60208201526101d290610413565b6001600160a01b03166101a05260408051808201909152600e81526d5061796d656e7473457363726f7760901b602082015261020d90610413565b6001600160a01b03166101c05260408051808201909152600c81526b22b837b1b426b0b730b3b2b960a11b602082015261024690610413565b6001600160a01b03166102005260408051808201909152600e81526d2932bbb0b93239a6b0b730b3b2b960911b602082015261028190610413565b6001600160a01b0316610220526040805180820190915260118152704772617068546f6b656e4761746577617960781b60208201526102bf90610413565b6001600160a01b03166102405260408051808201909152600f81526e23b930b834283937bc3ca0b236b4b760891b60208201526102fb90610413565b6001600160a01b03166102605260408051808201909152600881526721bab930ba34b7b760c11b602082015261033090610413565b6001600160a01b039081166102808190526101e05161018051610160516101a0516101c0516102005161022051610240516102605160408051968c168752948b166020870152928a1685850152908916606085015288166080840152871660a083015260c0820195909552935192851694918216939116917fef5021414834d86e36470f5c1cecf6544fb2bb723f2ca51a4c86fcd8c5919a439181900360e00190a4506102a0525061082b915050565b60006020835110156103fc576103f5836104c1565b905061040d565b8161040784826106e8565b5060ff90505b92915050565b6000806101e0516001600160a01b031663f7641a5e84805190602001206040518263ffffffff1660e01b815260040161044e91815260200190565b602060405180830381865afa15801561046b573d6000803e3d6000fd5b505050506040513d601f19601f8201168201806040525081019061048f91906107a6565b9050826001600160a01b0382166104ba5760405163218f5add60e11b815260040161012391906107f4565b5092915050565b600080829050601f815111156104ec578260405163305a27a960e01b815260040161012391906107f4565b80516104f782610807565b179392505050565b634e487b7160e01b600052604160045260246000fd5b60005b83811015610530578181015183820152602001610518565b50506000910152565b600082601f83011261054a57600080fd5b81516001600160401b03811115610563576105636104ff565b604051601f8201601f19908116603f011681016001600160401b0381118282101715610591576105916104ff565b6040528181528382016020018510156105a957600080fd5b6105ba826020830160208701610515565b949350505050565b80516001600160a01b03811681146105d957600080fd5b919050565b600080600080608085870312156105f457600080fd5b84516001600160401b0381111561060a57600080fd5b61061687828801610539565b602087015190955090506001600160401b0381111561063457600080fd5b61064087828801610539565b93505061064f604086016105c2565b6060959095015193969295505050565b600181811c9082168061067357607f821691505b60208210810361069357634e487b7160e01b600052602260045260246000fd5b50919050565b601f8211156106e357806000526020600020601f840160051c810160208510156106c05750805b601f840160051c820191505b818110156106e057600081556001016106cc565b50505b505050565b81516001600160401b03811115610701576107016104ff565b6107158161070f845461065f565b84610699565b6020601f82116001811461074957600083156107315750848201515b600019600385901b1c1916600184901b1784556106e0565b600084815260208120601f198516915b828110156107795787850151825560209485019460019092019101610759565b50848210156107975786840151600019600387901b60f8161c191681555b50505050600190811b01905550565b6000602082840312156107b857600080fd5b6107c1826105c2565b9392505050565b600081518084526107e0816020860160208601610515565b601f01601f19169290920160200192915050565b6020815260006107c160208301846107c8565b805160208083015191908110156106935760001960209190910360031b1b16919050565b60805160a05160c05160e05161010051610120516101405161016051610180516101a0516101c0516101e05161020051610220516102405161026051610280516102a0516118786108ea600039600081816101bf015261035e015260005050600050506000505060005050600050506000505060006107db015260005050600050506000505060006109900152600061095e01526000610f2101526000610ef901526000610e5401526000610e7e01526000610ea801526118786000f3fe608060405234801561001057600080fd5b50600436106100a95760003560e01c80637f07d283116100715780637f07d2831461016b57806384b0196e1461018c5780638821603c146101a7578063960ba169146101ba578063cfdb35bd146101e1578063fee9f01f1461021257600080fd5b8063015cdd80146100ae5780631354f019146100c35780631ef518f2146100d657806339aa7416146101065780635d2b6a4e14610119575b600080fd5b6100c16100bc366004611081565b610225565b005b6100c16100d1366004611081565b610302565b6100e96100e436600461109e565b6103c7565b6040516001600160a01b0390911681526020015b60405180910390f35b6100c1610114366004611081565b6103e0565b61014c610127366004611081565b600260205260009081526040902080546001909101546001600160a01b039091169082565b604080516001600160a01b0390931683526020830191909152016100fd565b61017e6101793660046111e5565b6104f4565b6040519081526020016100fd565b6101946105cd565b6040516100fd9796959493929190611288565b61017e6101b5366004611320565b610613565b61017e7f000000000000000000000000000000000000000000000000000000000000000081565b61017e6101ef36600461135a565b600360209081526000938452604080852082529284528284209052825290205481565b6100c16102203660046113a5565b610626565b6001600160a01b038082166000908152600260205260409020805490913391849116821461027e57604051630ad827d360e41b81526001600160a01b039283166004820152911660248201526044015b60405180910390fd5b5050600081600101541182906102b357604051631885ecbd60e01b81526001600160a01b039091166004820152602401610275565b506000600182018190556040519081526001600160a01b0383169033907f3b4432b11b66b46d9a7b190aa989c0ae85a5395b543540220596dd94dd405ceb906020015b60405180910390a35050565b6001600160a01b038082166000908152600260205260409020805490913391849116821461035657604051630ad827d360e41b81526001600160a01b03928316600482015291166024820152604401610275565b5061038390507f000000000000000000000000000000000000000000000000000000000000000042611445565b600182018190556040519081526001600160a01b0383169033907fd939049941f6a15381248e4ac0010f15efdf0f3221923711244c200b5ff2cddf906020016102f6565b60006103da6103d583611515565b6106e2565b92915050565b6001600160a01b038082166000908152600260205260409020805490913391849116821461043457604051630ad827d360e41b81526001600160a01b03928316600482015291166024820152604401610275565b50506000816001015411829061046957604051631885ecbd60e01b81526001600160a01b039091166004820152602401610275565b50600181015442908181111561049b57604051631a42d0ab60e31b815260048101929092526024820152604401610275565b50506001600160a01b03821660008181526002602052604080822080546001600160a01b03191681556001018290555133917f2fc91dbd92d741cae16e0315578d7f6cf77043b771692c4bd993658ecfe8942291a35050565b60008060008380602001905181019061050d91906115d2565b815151919350915033906001600160a01b0381168214610553576040516347666ba360e11b81526001600160a01b03928316600482015291166024820152604401610275565b50506000610560836106e2565b6001600160a01b038082166000908152600260205260409020549192501661059b57604051630ef060dd60e01b815260040160405180910390fd5b6001600160a01b038082166000908152600260205260409020546105c3918891168585610709565b9695505050505050565b6000606080600080600060606105e1610957565b6105e9610989565b60408051600080825260208201909252600f60f81b9b939a50919850469750309650945092509050565b60006103da610621836116f8565b6109b6565b6001600160a01b03848116600090815260026020526040902054168481156106745760405163cb2320b760e01b81526001600160a01b03928316600482015291166024820152604401610275565b505061068282828587610a6d565b6001600160a01b03841660008181526002602052604080822080546001600160a01b0319163390811782556001909101839055905190917f6edcdd4150e63c6c36d965976c1c37375609c8b040c50d39e7156437b80e282891a350505050565b6000806106f283600001516109b6565b9050610702818460200151610b95565b9392505050565b815180516020808301516060909301516001600160a01b03808416600090815260038452604080822083881683528552808220928a168252919093528220549193916001600160801b03909116908181808211610782576040516308e467d960e31b815260048101929092526024820152604401610275565b50600090506107918284611704565b9050600061079f8289610bbf565b90508115610862576001600160a01b03868116600090815260036020908152604080832089851684528252808320938e168352929052208490557f00000000000000000000000000000000000000000000000000000000000000006001600160a01b03166387dbfe828c8c88868b876040518763ffffffff1660e01b815260040161082f9695949392919061172d565b600060405180830381600087803b15801561084957600080fd5b505af115801561085d573d6000803e3d6000fd5b505050505b856001600160a01b03168a6001600160a01b03168c600281111561088857610888611717565b604080516001600160a01b038a168152602081018790529081018590527ffadd34108e3c00b000a046b272ee080bb1755b91078c0ef5200c0b7da6132bd19060600160405180910390a4846001600160a01b0316866001600160a01b03168b6001600160a01b03167f2d55f33a4a377f40129b217a6cf7a5022a112941b80cd589332abc245aa0a5c78c60000151604001518d60000151606001518e60000151608001518f602001516040516109419493929190611781565b60405180910390a4509998505050505050505050565b60606109847f00000000000000000000000000000000000000000000000000000000000000006000610c26565b905090565b60606109847f00000000000000000000000000000000000000000000000000000000000000006001610c26565b60006103da7fe502a96d6aaed328ceacc76a5f627b9823162f5a205dab5a702b40073a6778428360000151846020015185604001518660600151876080015180519060200120604051602001610a52969594939291909586526001600160a01b0394851660208701529290931660408501526001600160401b031660608401526001600160801b0391909116608083015260a082015260c00190565b60405160208183030381529060405280519060200120610cd1565b8142808211610a98576040516343c042b360e01b815260048101929092526024820152604401610275565b50506040805146602082015290810183905233606090811b6bffffffffffffffffffffffff1916908201526000906074016040516020818303038152906040528051906020012090506000610b1a827f19457468657265756d205369676e6564204d6573736167653a0a3332000000006000908152601c91909152603c902090565b9050826001600160a01b0316610b668288888080601f016020809104026020016040519081016040528093929190818152602001838380828437600092019190915250610b9592505050565b6001600160a01b031614610b8d5760405163164f10af60e11b815260040160405180910390fd5b505050505050565b600080600080610ba58686610cfe565b925092509250610bb58282610d4b565b5090949350505050565b6000610bce83620f4240101590565b80610be15750610be182620f4240101590565b83839091610c0b5760405163768bf0eb60e11b815260048101929092526024820152604401610275565b50620f42409050610c1c83856117cf565b61070291906117e6565b606060ff8314610c4057610c3983610e08565b90506103da565b818054610c4c90611808565b80601f0160208091040260200160405190810160405280929190818152602001828054610c7890611808565b8015610cc55780601f10610c9a57610100808354040283529160200191610cc5565b820191906000526020600020905b815481529060010190602001808311610ca857829003601f168201915b505050505090506103da565b60006103da610cde610e47565b8360405161190160f01b8152600281019290925260228201526042902090565b60008060008351604103610d385760208401516040850151606086015160001a610d2a88828585610f72565b955095509550505050610d44565b50508151600091506002905b9250925092565b6000826003811115610d5f57610d5f611717565b03610d68575050565b6001826003811115610d7c57610d7c611717565b03610d9a5760405163f645eedf60e01b815260040160405180910390fd5b6002826003811115610dae57610dae611717565b03610dcf5760405163fce698f760e01b815260048101829052602401610275565b6003826003811115610de357610de3611717565b03610e04576040516335e2f38360e21b815260048101829052602401610275565b5050565b60606000610e1583611041565b604080516020808252818301909252919250600091906020820181803683375050509182525060208101929092525090565b6000306001600160a01b037f000000000000000000000000000000000000000000000000000000000000000016148015610ea057507f000000000000000000000000000000000000000000000000000000000000000046145b15610eca57507f000000000000000000000000000000000000000000000000000000000000000090565b610984604080517f8b73c3c69bb8fe3d512ecc4cf759cc79239f7b179b0ffacaa9a75d522b39400f60208201527f0000000000000000000000000000000000000000000000000000000000000000918101919091527f000000000000000000000000000000000000000000000000000000000000000060608201524660808201523060a082015260009060c00160405160208183030381529060405280519060200120905090565b600080807f7fffffffffffffffffffffffffffffff5d576e7357a4501ddfe92f46681b20a0841115610fad5750600091506003905082611037565b604080516000808252602082018084528a905260ff891692820192909252606081018790526080810186905260019060a0016020604051602081039080840390855afa158015611001573d6000803e3d6000fd5b5050604051601f1901519150506001600160a01b03811661102d57506000925060019150829050611037565b9250600091508190505b9450945094915050565b600060ff8216601f8111156103da57604051632cd44ac360e21b815260040160405180910390fd5b6001600160a01b038116811461107e57600080fd5b50565b60006020828403121561109357600080fd5b813561070281611069565b6000602082840312156110b057600080fd5b81356001600160401b038111156110c657600080fd5b82016040818503121561070257600080fd5b634e487b7160e01b600052604160045260246000fd5b60405160a081016001600160401b0381118282101715611110576111106110d8565b60405290565b604080519081016001600160401b0381118282101715611110576111106110d8565b604051601f8201601f191681016001600160401b0381118282101715611160576111606110d8565b604052919050565b60006001600160401b03821115611181576111816110d8565b50601f01601f191660200190565b600082601f8301126111a057600080fd5b81356111b36111ae82611168565b611138565b8181528460208386010111156111c857600080fd5b816020850160208301376000918101602001919091529392505050565b600080604083850312156111f857600080fd5b82356003811061120757600080fd5b915060208301356001600160401b0381111561122257600080fd5b61122e8582860161118f565b9150509250929050565b60005b8381101561125357818101518382015260200161123b565b50506000910152565b60008151808452611274816020860160208601611238565b601f01601f19169290920160200192915050565b60ff60f81b8816815260e0602082015260006112a760e083018961125c565b82810360408401526112b9818961125c565b606084018890526001600160a01b038716608085015260a0840186905283810360c08501528451808252602080870193509091019060005b8181101561130f5783518352602093840193909201916001016112f1565b50909b9a5050505050505050505050565b60006020828403121561133257600080fd5b81356001600160401b0381111561134857600080fd5b820160a0818503121561070257600080fd5b60008060006060848603121561136f57600080fd5b833561137a81611069565b9250602084013561138a81611069565b9150604084013561139a81611069565b809150509250925092565b600080600080606085870312156113bb57600080fd5b84356113c681611069565b93506020850135925060408501356001600160401b038111156113e857600080fd5b8501601f810187136113f957600080fd5b80356001600160401b0381111561140f57600080fd5b87602082840101111561142157600080fd5b949793965060200194505050565b634e487b7160e01b600052601160045260246000fd5b808201808211156103da576103da61142f565b6001600160401b038116811461107e57600080fd5b6001600160801b038116811461107e57600080fd5b600060a0828403121561149457600080fd5b61149c6110ee565b905081356114a981611069565b815260208201356114b981611069565b602082015260408201356114cc81611458565b604082015260608201356114df8161146d565b606082015260808201356001600160401b038111156114fd57600080fd5b6115098482850161118f565b60808301525092915050565b60006040823603121561152757600080fd5b61152f611116565b82356001600160401b0381111561154557600080fd5b61155136828601611482565b82525060208301356001600160401b0381111561156d57600080fd5b6115793682860161118f565b60208301525092915050565b600082601f83011261159657600080fd5b81516115a46111ae82611168565b8181528460208386010111156115b957600080fd5b6115ca826020830160208701611238565b949350505050565b600080604083850312156115e557600080fd5b82516001600160401b038111156115fb57600080fd5b83016040818603121561160d57600080fd5b611615611116565b81516001600160401b0381111561162b57600080fd5b820160a0818803121561163d57600080fd5b6116456110ee565b815161165081611069565b8152602082015161166081611069565b6020820152604082015161167381611458565b604082015260608201516116868161146d565b606082015260808201516001600160401b038111156116a457600080fd5b6116b089828501611585565b60808301525082525060208201516001600160401b038111156116d257600080fd5b6116de87828501611585565b602083810191909152959095015190969095509350505050565b60006103da3683611482565b818103818111156103da576103da61142f565b634e487b7160e01b600052602160045260246000fd5b60c081016003881061174f57634e487b7160e01b600052602160045260246000fd5b9681526001600160a01b03958616602082015293851660408501526060840192909252909216608082015260a0015290565b6001600160401b03851681526001600160801b03841660208201526080604082015260006117b2608083018561125c565b82810360608401526117c4818561125c565b979650505050505050565b80820281158282048414176103da576103da61142f565b60008261180357634e487b7160e01b600052601260045260246000fd5b500490565b600181811c9082168061181c57607f821691505b60208210810361183c57634e487b7160e01b600052602260045260246000fd5b5091905056fea2646970667358221220acb6bfec6d9c2f80f4ced26fd1055163ff8dce81039d2e933346d801e1bdbb3064736f6c634300081b0033",
  "linkReferences": {},
  "deployedLinkReferences": {}
}