{
  "_format": "hh-sol-artifact-1",
  "contractName": "EthereumDIDRegistry",
  "sourceName": "contracts/discovery/erc1056/EthereumDIDRegistry.sol",
  "abi": [
    {
      "anonymous": false,
      "inputs": [
        {
          "indexed": true,
          "internalType": "address",
          "name": "identity",
          "type": "address"
        },
        {
          "indexed": false,
          "internalType": "bytes32",
          "name": "name",
          "type": "bytes32"
        },
        {
          "indexed": false,
          "internalType": "bytes",
          "name": "value",
          "type": "bytes"
        },
        {
          "indexed": false,
          "internalType": "uint256",
          "name": "validTo",
          "type": "uint256"
        },
        {
          "indexed": false,
          "internalType": "uint256",
          "name": "previousChange",
          "type": "uint256"
        }
      ],
      "name": "DIDAttributeChanged",
      "type": "event"
    },
    {
      "anonymous": false,
      "inputs": [
        {
          "indexed": true,
          "internalType": "address",
          "name": "identity",
          "type": "address"
        },
        {
          "indexed": false,
          "internalType": "bytes32",
          "name": "delegateType",
          "type": "bytes32"
        },
        {
          "indexed": false,
          "internalType": "address",
          "name": "delegate",
          "type": "address"
        },
        {
          "indexed": false,
          "internalType": "uint256",
          "name": "validTo",
          "type": "uint256"
        },
        {
          "indexed": false,
          "internalType": "uint256",
          "name": "previousChange",
          "type": "uint256"
        }
      ],
      "name": "DIDDelegateChanged",
      "type": "event"
    },
    {
      "anonymous": false,
      "inputs": [
        {
          "indexed": true,
          "internalType": "address",
          "name": "identity",
          "type": "address"
        },
        {
          "indexed": false,
          "internalType": "address",
          "name": "owner",
          "type": "address"
        },
        {
          "indexed": false,
          "internalType": "uint256",
          "name": "previousChange",
          "type": "uint256"
        }
      ],
      "name": "DIDOwnerChanged",
      "type": "event"
    },
    {
      "inputs": [
        {
          "internalType": "address",
          "name": "identity",
          "type": "address"
        },
        {
          "internalType": "bytes32",
          "name": "delegateType",
          "type": "bytes32"
        },
        {
          "internalType": "address",
          "name": "delegate",
          "type": "address"
        },
        {
          "internalType": "uint256",
          "name": "validity",
          "type": "uint256"
        }
      ],
      "name": "addDelegate",
      "outputs": [],
      "stateMutability": "nonpayable",
      "type": "function"
    },
    {
      "inputs": [
        {
          "internalType": "address",
          "name": "identity",
          "type": "address"
        },
        {
          "internalType": "uint8",
          "name": "sigV",
          "type": "uint8"
        },
        {
          "internalType": "bytes32",
          "name": "sigR",
          "type": "bytes32"
        },
        {
          "internalType": "bytes32",
          "name": "sigS",
          "type": "bytes32"
        },
        {
          "internalType": "bytes32",
          "name": "delegateType",
          "type": "bytes32"
        },
        {
          "internalType": "address",
          "name": "delegate",
          "type": "address"
        },
        {
          "internalType": "uint256",
          "name": "validity",
          "type": "uint256"
        }
      ],
      "name": "addDelegateSigned",
      "outputs": [],
      "stateMutability": "nonpayable",
      "type": "function"
    },
    {
      "inputs": [
        {
          "internalType": "address",
          "name": "identity",
          "type": "address"
        },
        {
          "internalType": "address",
          "name": "newOwner",
          "type": "address"
        }
      ],
      "name": "changeOwner",
      "outputs": [],
      "stateMutability": "nonpayable",
      "type": "function"
    },
    {
      "inputs": [
        {
          "internalType": "address",
          "name": "identity",
          "type": "address"
        },
        {
          "internalType": "uint8",
          "name": "sigV",
          "type": "uint8"
        },
        {
          "internalType": "bytes32",
          "name": "sigR",
          "type": "bytes32"
        },
        {
          "internalType": "bytes32",
          "name": "sigS",
          "type": "bytes32"
        },
        {
          "internalType": "address",
          "name": "newOwner",
          "type": "address"
        }
      ],
      "name": "changeOwnerSigned",
      "outputs": [],
      "stateMutability": "nonpayable",
      "type": "function"
    },
    {
      "inputs": [
        {
          "internalType": "address",
          "name": "",
          "type": "address"
        }
      ],
      "name": "changed",
      "outputs": [
        {
          "internalType": "uint256",
          "name": "",
          "type": "uint256"
        }
      ],
      "stateMutability": "view",
      "type": "function"
    },
    {
      "inputs": [
        {
          "internalType": "address",
          "name": "",
          "type": "address"
        },
        {
          "internalType": "bytes32",
          "name": "",
          "type": "bytes32"
        },
        {
          "internalType": "address",
          "name": "",
          "type": "address"
        }
      ],
      "name": "delegates",
      "outputs": [
        {
          "internalType": "uint256",
          "name": "",
          "type": "uint256"
        }
      ],
      "stateMutability": "view",
      "type": "function"
    },
    {
      "inputs": [
        {
          "internalType": "address",
          "name": "identity",
          "type": "address"
        }
      ],
      "name": "identityOwner",
      "outputs": [
        {
          "internalType": "address",
          "name": "",
          "type": "address"
        }
      ],
      "stateMutability": "view",
      "type": "function"
    },
    {
      "inputs": [
        {
          "internalType": "address",
          "name": "",
          "type": "address"
        }
      ],
      "name": "nonce",
      "outputs": [
        {
          "internalType": "uint256",
          "name": "",
          "type": "uint256"
        }
      ],
      "stateMutability": "view",
      "type": "function"
    },
    {
      "inputs": [
        {
          "internalType": "address",
          "name": "",
          "type": "address"
        }
      ],
      "name": "owners",
      "outputs": [
        {
          "internalType": "address",
          "name": "",
          "type": "address"
        }
      ],
      "stateMutability": "view",
      "type": "function"
    },
    {
      "inputs": [
        {
          "internalType": "address",
          "name": "identity",
          "type": "address"
        },
        {
          "internalType": "bytes32",
          "name": "name",
          "type": "bytes32"
        },
        {
          "internalType": "bytes",
          "name": "value",
          "type": "bytes"
        }
      ],
      "name": "revokeAttribute",
      "outputs": [],
      "stateMutability": "nonpayable",
      "type": "function"
    },
    {
      "inputs": [
        {
          "internalType": "address",
          "name": "identity",
          "type": "address"
        },
        {
          "internalType": "uint8",
          "name": "sigV",
          "type": "uint8"
        },
        {
          "internalType": "bytes32",
          "name": "sigR",
          "type": "bytes32"
        },
        {
          "internalType": "bytes32",
          "name": "sigS",
          "type": "bytes32"
        },
        {
          "internalType": "bytes32",
          "name": "name",
          "type": "bytes32"
        },
        {
          "internalType": "bytes",
          "name": "value",
          "type": "bytes"
        }
      ],
      "name": "revokeAttributeSigned",
      "outputs": [],
      "stateMutability": "nonpayable",
      "type": "function"
    },
    {
      "inputs": [
        {
          "internalType": "address",
          "name": "identity",
          "type": "address"
        },
        {
          "internalType": "bytes32",
          "name": "delegateType",
          "type": "bytes32"
        },
        {
          "internalType": "address",
          "name": "delegate",
          "type": "address"
        }
      ],
      "name": "revokeDelegate",
      "outputs": [],
      "stateMutability": "nonpayable",
      "type": "function"
    },
    {
      "inputs": [
        {
          "internalType": "address",
          "name": "identity",
          "type": "address"
        },
        {
          "internalType": "uint8",
          "name": "sigV",
          "type": "uint8"
        },
        {
          "internalType": "bytes32",
          "name": "sigR",
          "type": "bytes32"
        },
        {
          "internalType": "bytes32",
          "name": "sigS",
          "type": "bytes32"
        },
        {
          "internalType": "bytes32",
          "name": "delegateType",
          "type": "bytes32"
        },
        {
          "internalType": "address",
          "name": "delegate",
          "type": "address"
        }
      ],
      "name": "revokeDelegateSigned",
      "outputs": [],
      "stateMutability": "nonpayable",
      "type": "function"
    },
    {
      "inputs": [
        {
          "internalType": "address",
          "name": "identity",
          "type": "address"
        },
        {
          "internalType": "bytes32",
          "name": "name",
          "type": "bytes32"
        },
        {
          "internalType": "bytes",
          "name": "value",
          "type": "bytes"
        },
        {
          "internalType": "uint256",
          "name": "validity",
          "type": "uint256"
        }
      ],
      "name": "setAttribute",
      "outputs": [],
      "stateMutability": "nonpayable",
      "type": "function"
    },
    {
      "inputs": [
        {
          "internalType": "address",
          "name": "identity",
          "type": "address"
        },
        {
          "internalType": "uint8",
          "name": "sigV",
          "type": "uint8"
        },
        {
          "internalType": "bytes32",
          "name": "sigR",
          "type": "bytes32"
        },
        {
          "internalType": "bytes32",
          "name": "sigS",
          "type": "bytes32"
        },
        {
          "internalType": "bytes32",
          "name": "name",
          "type": "bytes32"
        },
        {
          "internalType": "bytes",
          "name": "value",
          "type": "bytes"
        },
        {
          "internalType": "uint256",
          "name": "validity",
          "type": "uint256"
        }
      ],
      "name": "setAttributeSigned",
      "outputs": [],
      "stateMutability": "nonpayable",
      "type": "function"
    },
    {
      "inputs": [
        {
          "internalType": "address",
          "name": "identity",
          "type": "address"
        },
        {
          "internalType": "bytes32",
          "name": "delegateType",
          "type": "bytes32"
        },
        {
          "internalType": "address",
          "name": "delegate",
          "type": "address"
        }
      ],
      "name": "validDelegate",
      "outputs": [
        {
          "internalType": "bool",
          "name": "",
          "type": "bool"
        }
      ],
      "stateMutability": "view",
      "type": "function"
    }
  ],
  "bytecode": "0x608060405234801561001057600080fd5b50611457806100206000396000f3fe608060405234801561001057600080fd5b50600436106100ff5760003560e01c806380b29f7c11610097578063a7068d6611610066578063a7068d6614610580578063e476af5c146105ba578063f00d4b5d14610689578063f96d0f9f146106b7576100ff565b806380b29f7c1461048a5780638733d4e8146104c057806393072684146104e65780639c2c1b2b1461052f576100ff565b8063240cf1fa116100d3578063240cf1fa1461031a578063622b2a3c1461035f57806370ae92d2146103a95780637ad4b0a4146103cf576100ff565b8062c023da14610104578063022914a7146101bf5780630d44625b14610201578063123b5e9814610249575b600080fd5b6101bd6004803603606081101561011a57600080fd5b6001600160a01b0382351691602081013591810190606081016040820135600160201b81111561014957600080fd5b82018360208201111561015b57600080fd5b803590602001918460018302840111600160201b8311171561017c57600080fd5b91908080601f0160208091040260200160405190810160405280939291908181526020018383808284376000920191909152509295506106dd945050505050565b005b6101e5600480360360208110156101d557600080fd5b50356001600160a01b03166106ee565b604080516001600160a01b039092168252519081900360200190f35b6102376004803603606081101561021757600080fd5b506001600160a01b03813581169160208101359160409091013516610709565b60408051918252519081900360200190f35b6101bd600480360360e081101561025f57600080fd5b6001600160a01b038235169160ff602082013516916040820135916060810135916080820135919081019060c0810160a0820135600160201b8111156102a457600080fd5b8201836020820111156102b657600080fd5b803590602001918460018302840111600160201b831117156102d757600080fd5b91908080601f016020809104026020016040519081016040528093929190818152602001838380828437600092019190915250929550509135925061072c915050565b6101bd600480360360a081101561033057600080fd5b506001600160a01b03813581169160ff602082013516916040820135916060810135916080909101351661086c565b6103956004803603606081101561037557600080fd5b506001600160a01b03813581169160208101359160409091013516610937565b604080519115158252519081900360200190f35b610237600480360360208110156103bf57600080fd5b50356001600160a01b0316610989565b6101bd600480360360808110156103e557600080fd5b6001600160a01b0382351691602081013591810190606081016040820135600160201b81111561041457600080fd5b82018360208201111561042657600080fd5b803590602001918460018302840111600160201b8311171561044757600080fd5b91908080601f016020809104026020016040519081016040528093929190818152602001838380828437600092019190915250929550509135925061099b915050565b6101bd600480360360608110156104a057600080fd5b506001600160a01b038135811691602081013591604090910135166109ae565b6101e5600480360360208110156104d657600080fd5b50356001600160a01b03166109ba565b6101bd600480360360c08110156104fc57600080fd5b506001600160a01b03813581169160ff6020820135169160408201359160608101359160808201359160a00135166109ee565b6101bd600480360360e081101561054557600080fd5b506001600160a01b03813581169160ff6020820135169160408201359160608101359160808201359160a08101359091169060c00135610ac5565b6101bd6004803603608081101561059657600080fd5b506001600160a01b0381358116916020810135916040820135169060600135610b99565b6101bd600480360360c08110156105d057600080fd5b6001600160a01b038235169160ff602082013516916040820135916060810135916080820135919081019060c0810160a0820135600160201b81111561061557600080fd5b82018360208201111561062757600080fd5b803590602001918460018302840111600160201b8311171561064857600080fd5b91908080601f016020809104026020016040519081016040528093929190818152602001838380828437600092019190915250929550610ba6945050505050565b6101bd6004803603604081101561069f57600080fd5b506001600160a01b0381358116916020013516610cd6565b610237600480360360208110156106cd57600080fd5b50356001600160a01b0316610ce5565b6106e983338484610cf7565b505050565b6000602081905290815260409020546001600160a01b031681565b600160209081526000938452604080852082529284528284209052825290205481565b6000601960f81b81306003826107418d6109ba565b6001600160a01b03166001600160a01b03168152602001908152602001600020548b88888860405160200180896001600160f81b0319168152600101886001600160f81b0319168152600101876001600160a01b031660601b8152601401868152602001856001600160a01b031660601b8152601401806b73657441747472696275746560a01b815250600c0184815260200183805190602001908083835b602083106107ff5780518252601f1990920191602091820191016107e0565b6001836020036101000a038019825116818451168082178552505050505050905001828152602001985050505050505050506040516020818303038152906040528051906020012090506108628861085a8a8a8a8a87610e55565b868686610f3f565b5050505050505050565b6000601960f81b81306003826108818b6109ba565b6001600160a01b0316815260208082019290925260409081016000205481516001600160f81b0319968716818501529490951660218501526001600160601b0319606093841b8116602286015260368501959095528a831b851660568501526a31b430b733b2a7bbb732b960a91b606a8501529186901b909316607583015280516069818403018152608990920190528051910120905061092f866109298188888887610e55565b8461109f565b505050505050565b6001600160a01b03808416600090815260016020908152604080832081518084018890528251808203850181529083018352805190840120845282528083209385168352929052205442109392505050565b60036020526000908152604090205481565b6109a88433858585610f3f565b50505050565b6106e983338484611188565b6001600160a01b0380821660009081526020819052604081205490911680156109e45790506109e9565b829150505b919050565b6000601960f81b8130600382610a038c6109ba565b6001600160a01b0316815260208082019290925260409081016000205481516001600160f81b0319968716818501529490951660218501526001600160601b0319606093841b8116602286015260368501959095528b831b851660568501526d7265766f6b6544656c656761746560901b606a850152607884018890529186901b90931660988301528051608c81840301815260ac909201905280519101209050610abc87610ab58189898987610e55565b8585611188565b50505050505050565b6000601960f81b8130600382610ada8d6109ba565b6001600160a01b0316815260208082019290925260409081016000205481516001600160f81b0319968716818501529490951660218501526001600160601b0319606093841b8116602286015260368501959095528c831b851660568501526a61646444656c656761746560a81b606a850152607584018990529187901b909316609583015260a98083018690528151808403909101815260c990920190528051910120905061086288610b91818a8a8a87610e55565b8686866112b2565b6109a884338585856112b2565b6000601960f81b8130600382610bbb8c6109ba565b6001600160a01b03166001600160a01b03168152602001908152602001600020548a878760405160200180886001600160f81b0319168152600101876001600160f81b0319168152600101866001600160a01b031660601b8152601401858152602001846001600160a01b031660601b8152601401806e7265766f6b6541747472696275746560881b815250600f0183815260200182805190602001908083835b60208310610c7b5780518252601f199092019160209182019101610c5c565b6001836020036101000a038019825116818451168082178552505050505050905001975050505050505050604051602081830303815290604052805190602001209050610abc87610ccf8989898987610e55565b8585610cf7565b610ce182338361109f565b5050565b60026020526000908152604090205481565b8383610d02826109ba565b6001600160a01b0316816001600160a01b031614610d515760405162461bcd60e51b81526004018080602001828103825260218152602001806114016021913960400191505060405180910390fd5b856001600160a01b03167f18ab6b2ae3d64306c00ce663125f2bd680e441a098de1635bd7ad8b0d44965e485856000600260008c6001600160a01b03166001600160a01b03168152602001908152602001600020546040518085815260200180602001848152602001838152602001828103825285818151815260200191508051906020019080838360005b83811015610df5578181015183820152602001610ddd565b50505050905090810190601f168015610e225780820380516001836020036101000a031916815260200191505b509550505050505060405180910390a25050506001600160a01b0390921660009081526002602052604090204390555050565b60008060018387878760405160008152602001604052604051808581526020018460ff1681526020018381526020018281526020019450505050506020604051602081039080840390855afa158015610eb2573d6000803e3d6000fd5b505050602060405103519050610ec7876109ba565b6001600160a01b0316816001600160a01b031614610f165760405162461bcd60e51b81526004018080602001828103825260218152602001806113e06021913960400191505060405180910390fd5b6001600160a01b0381166000908152600360205260409020805460010190559695505050505050565b8484610f4a826109ba565b6001600160a01b0316816001600160a01b031614610f995760405162461bcd60e51b81526004018080602001828103825260218152602001806114016021913960400191505060405180910390fd5b866001600160a01b03167f18ab6b2ae3d64306c00ce663125f2bd680e441a098de1635bd7ad8b0d44965e48686864201600260008d6001600160a01b03166001600160a01b03168152602001908152602001600020546040518085815260200180602001848152602001838152602001828103825285818151815260200191508051906020019080838360005b8381101561103e578181015183820152602001611026565b50505050905090810190601f16801561106b5780820380516001836020036101000a031916815260200191505b509550505050505060405180910390a25050506001600160a01b039093166000908152600260205260409020439055505050565b82826110aa826109ba565b6001600160a01b0316816001600160a01b0316146110f95760405162461bcd60e51b81526004018080602001828103825260218152602001806114016021913960400191505060405180910390fd5b6001600160a01b0385811660008181526020818152604080832080546001600160a01b0319169589169586179055600282529182902054825194855290840152805191927f38a5a6e68f30ed1ab45860a4afb34bcb2fc00f22ca462d249b8a8d40cda6f7a3929081900390910190a2505050506001600160a01b03166000908152600260205260409020439055565b8383611193826109ba565b6001600160a01b0316816001600160a01b0316146111e25760405162461bcd60e51b81526004018080602001828103825260218152602001806114016021913960400191505060405180910390fd5b6001600160a01b03808716600081815260016020908152604080832081518084018b90528251808203850181528184018085528151918601919091208652918452828520968a16808652968452828520429081905586865260029094529382902054908a90526060840195909552608083019190915260a0820193909352915190917f5a5084339536bcab65f20799fcc58724588145ca054bd2be626174b27ba156f7919081900360c00190a25050506001600160a01b0390921660009081526002602052604090204390555050565b84846112bd826109ba565b6001600160a01b0316816001600160a01b03161461130c5760405162461bcd60e51b81526004018080602001828103825260218152602001806114016021913960400191505060405180910390fd5b6001600160a01b03808816600081815260016020908152604080832081518084018c90528251808203850181528184018085528151918601919091208652918452828520968b16808652968452828520428b019081905586865260029094529382902054908b90526060840195909552608083019190915260a0820193909352915190917f5a5084339536bcab65f20799fcc58724588145ca054bd2be626174b27ba156f7919081900360c00190a25050506001600160a01b03909316600090815260026020526040902043905550505056fe5369676e6572206d75737420626520746865206964656e74697479206f776e657243616c6c6572206d75737420626520746865206964656e74697479206f776e6572a26469706673582212205702da693016a24df72a6a5466de5d4e77624b7103a6701c0d36542b418a98f564736f6c63430007040033",
  "linkReferences": {},
  "deployedLinkReferences": {}
}