{
  "_format": "hh-sol-artifact-1",
  "contractName": "Controller",
  "sourceName": "contracts/governance/Controller.sol",
  "abi": [
    {
      "inputs": [],
      "stateMutability": "nonpayable",
      "type": "constructor"
    },
    {
      "anonymous": false,
      "inputs": [
        {
          "indexed": true,
          "internalType": "address",
          "name": "from",
          "type": "address"
        },
        {
          "indexed": true,
          "internalType": "address",
          "name": "to",
          "type": "address"
        }
      ],
      "name": "NewOwnership",
      "type": "event"
    },
    {
      "anonymous": false,
      "inputs": [
        {
          "indexed": true,
          "internalType": "address",
          "name": "oldPauseGuardian",
          "type": "address"
        },
        {
          "indexed": true,
          "internalType": "address",
          "name": "pauseGuardian",
          "type": "address"
        }
      ],
      "name": "NewPauseGuardian",
      "type": "event"
    },
    {
      "anonymous": false,
      "inputs": [
        {
          "indexed": true,
          "internalType": "address",
          "name": "from",
          "type": "address"
        },
        {
          "indexed": true,
          "internalType": "address",
          "name": "to",
          "type": "address"
        }
      ],
      "name": "NewPendingOwnership",
      "type": "event"
    },
    {
      "anonymous": false,
      "inputs": [
        {
          "indexed": false,
          "internalType": "bool",
          "name": "isPaused",
          "type": "bool"
        }
      ],
      "name": "PartialPauseChanged",
      "type": "event"
    },
    {
      "anonymous": false,
      "inputs": [
        {
          "indexed": false,
          "internalType": "bool",
          "name": "isPaused",
          "type": "bool"
        }
      ],
      "name": "PauseChanged",
      "type": "event"
    },
    {
      "anonymous": false,
      "inputs": [
        {
          "indexed": true,
          "internalType": "bytes32",
          "name": "id",
          "type": "bytes32"
        },
        {
          "indexed": false,
          "internalType": "address",
          "name": "contractAddress",
          "type": "address"
        }
      ],
      "name": "SetContractProxy",
      "type": "event"
    },
    {
      "inputs": [],
      "name": "acceptOwnership",
      "outputs": [],
      "stateMutability": "nonpayable",
      "type": "function"
    },
    {
      "inputs": [
        {
          "internalType": "bytes32",
          "name": "_id",
          "type": "bytes32"
        }
      ],
      "name": "getContractProxy",
      "outputs": [
        {
          "internalType": "address",
          "name": "",
          "type": "address"
        }
      ],
      "stateMutability": "view",
      "type": "function"
    },
    {
      "inputs": [],
      "name": "getGovernor",
      "outputs": [
        {
          "internalType": "address",
          "name": "",
          "type": "address"
        }
      ],
      "stateMutability": "view",
      "type": "function"
    },
    {
      "inputs": [],
      "name": "governor",
      "outputs": [
        {
          "internalType": "address",
          "name": "",
          "type": "address"
        }
      ],
      "stateMutability": "view",
      "type": "function"
    },
    {
      "inputs": [],
      "name": "lastPausePartialTime",
      "outputs": [
        {
          "internalType": "uint256",
          "name": "",
          "type": "uint256"
        }
      ],
      "stateMutability": "view",
      "type": "function"
    },
    {
      "inputs": [],
      "name": "lastPauseTime",
      "outputs": [
        {
          "internalType": "uint256",
          "name": "",
          "type": "uint256"
        }
      ],
      "stateMutability": "view",
      "type": "function"
    },
    {
      "inputs": [],
      "name": "partialPaused",
      "outputs": [
        {
          "internalType": "bool",
          "name": "",
          "type": "bool"
        }
      ],
      "stateMutability": "view",
      "type": "function"
    },
    {
      "inputs": [],
      "name": "pauseGuardian",
      "outputs": [
        {
          "internalType": "address",
          "name": "",
          "type": "address"
        }
      ],
      "stateMutability": "view",
      "type": "function"
    },
    {
      "inputs": [],
      "name": "paused",
      "outputs": [
        {
          "internalType": "bool",
          "name": "",
          "type": "bool"
        }
      ],
      "stateMutability": "view",
      "type": "function"
    },
    {
      "inputs": [],
      "name": "pendingGovernor",
      "outputs": [
        {
          "internalType": "address",
          "name": "",
          "type": "address"
        }
      ],
      "stateMutability": "view",
      "type": "function"
    },
    {
      "inputs": [
        {
          "internalType": "bytes32",
          "name": "_id",
          "type": "bytes32"
        },
        {
          "internalType": "address",
          "name": "_contractAddress",
          "type": "address"
        }
      ],
      "name": "setContractProxy",
      "outputs": [],
      "stateMutability": "nonpayable",
      "type": "function"
    },
    {
      "inputs": [
        {
          "internalType": "bool",
          "name": "_toPause",
          "type": "bool"
        }
      ],
      "name": "setPartialPaused",
      "outputs": [],
      "stateMutability": "nonpayable",
      "type": "function"
    },
    {
      "inputs": [
        {
          "internalType": "address",
          "name": "_newPauseGuardian",
          "type": "address"
        }
      ],
      "name": "setPauseGuardian",
      "outputs": [],
      "stateMutability": "nonpayable",
      "type": "function"
    },
    {
      "inputs": [
        {
          "internalType": "bool",
          "name": "_toPause",
          "type": "bool"
        }
      ],
      "name": "setPaused",
      "outputs": [],
      "stateMutability": "nonpayable",
      "type": "function"
    },
    {
      "inputs": [
        {
          "internalType": "address",
          "name": "_newGovernor",
          "type": "address"
        }
      ],
      "name": "transferOwnership",
      "outputs": [],
      "stateMutability": "nonpayable",
      "type": "function"
    },
    {
      "inputs": [
        {
          "internalType": "bytes32",
          "name": "_id",
          "type": "bytes32"
        }
      ],
      "name": "unsetContractProxy",
      "outputs": [],
      "stateMutability": "nonpayable",
      "type": "function"
    },
    {
      "inputs": [
        {
          "internalType": "bytes32",
          "name": "_id",
          "type": "bytes32"
        },
        {
          "internalType": "address",
          "name": "_controller",
          "type": "address"
        }
      ],
      "name": "updateController",
      "outputs": [],
      "stateMutability": "nonpayable",
      "type": "function"
    }
  ],
  "bytecode": "0x608060405234801561001057600080fd5b506100243361003360201b6109b21760201c565b61002e6001610055565b6100e7565b600080546001600160a01b0319166001600160a01b0392909216919091179055565b600160159054906101000a900460ff1615158115151415610075576100e4565b6001805460ff60a81b1916600160a81b8315158102919091179182905560ff910416156100a157426003555b60015460408051600160a81b90920460ff1615158252517f8fb6c181ee25a520cf3dd6565006ef91229fcfe5a989566c2a3b8c115570cec5916020908290030190a15b50565b610ba0806100f66000396000f3fe608060405234801561001057600080fd5b506004361061010b5760003560e01c80636cda3798116100a2578063e0e9929211610071578063e0e9929214610215578063e3056a3414610241578063eb5dd94f14610249578063f2fde38b14610275578063f7641a5e1461029b5761010b565b80636cda3798146101ce57806379ba5097146101e85780639181df9c146101f057806391b4ded91461020d5761010b565b806348bde20c116100de57806348bde20c146101795780634fc07d751461019f57806356371bd8146101a75780635c975abb146101c65761010b565b80630c340a241461011057806316c38b3c1461013457806324a3d622146101555780632e292fc71461015d575b600080fd5b6101186102b8565b604080516001600160a01b039092168252519081900360200190f35b6101536004803603602081101561014a57600080fd5b503515156102c7565b005b610118610331565b610165610340565b604080519115158252519081900360200190f35b6101536004803603602081101561018f57600080fd5b50356001600160a01b0316610350565b61011861040c565b610153600480360360208110156101bd57600080fd5b5035151561041b565b610165610482565b6101d6610492565b60408051918252519081900360200190f35b610153610498565b6101536004803603602081101561020657600080fd5b50356105a6565b6101d6610651565b6101536004803603604081101561022b57600080fd5b50803590602001356001600160a01b0316610657565b61011861076e565b6101536004803603604081101561025f57600080fd5b50803590602001356001600160a01b031661077d565b6101536004803603602081101561028b57600080fd5b50356001600160a01b0316610899565b610118600480360360208110156102b157600080fd5b5035610997565b6000546001600160a01b031681565b6000546001600160a01b03163314806102ea57506004546001600160a01b031633145b6103255760405162461bcd60e51b8152600401808060200182810382526022815260200180610b496022913960400191505060405180910390fd5b61032e816109d4565b50565b6004546001600160a01b031681565b600154600160a01b900460ff1690565b6000546001600160a01b031633146103a8576040805162461bcd60e51b815260206004820152601660248201527513db9b1e4811dbdd995c9b9bdc8818d85b8818d85b1b60521b604482015290519081900360640190fd5b6001600160a01b038116610403576040805162461bcd60e51b815260206004820152601960248201527f5061757365477561726469616e206d7573742062652073657400000000000000604482015290519081900360640190fd5b61032e81610a65565b6000546001600160a01b031690565b6000546001600160a01b031633148061043e57506004546001600160a01b031633145b6104795760405162461bcd60e51b8152600401808060200182810382526022815260200180610b496022913960400191505060405180910390fd5b61032e81610ab7565b600154600160a81b900460ff1690565b60025481565b6001546001600160a01b031680158015906104bb5750336001600160a01b038216145b61050c576040805162461bcd60e51b815260206004820152601f60248201527f43616c6c6572206d7573742062652070656e64696e6720676f7665726e6f7200604482015290519081900360640190fd5b600080546001600160a01b038381166001600160a01b031980841691909117808555600180549092169091556040519282169391169183917f0ac6deed30eef60090c749850e10f2fa469e3e25fec1d1bef2853003f6e6f18f91a36001546040516001600160a01b03918216918416907f76563ad561b7036ae716b9b25cb521b21463240f104c97e12f25877f2235f33d90600090a35050565b6000546001600160a01b031633146105fe576040805162461bcd60e51b815260206004820152601660248201527513db9b1e4811dbdd995c9b9bdc8818d85b8818d85b1b60521b604482015290519081900360640190fd5b600081815260056020908152604080832080546001600160a01b031916905580519283525183927f937cf566d78d4769ff0211a7d87a6bea51e1fc026fd4d3d8cd589f0e99b983bd92908290030190a250565b60035481565b6000546001600160a01b031633146106af576040805162461bcd60e51b815260206004820152601660248201527513db9b1e4811dbdd995c9b9bdc8818d85b8818d85b1b60521b604482015290519081900360640190fd5b6001600160a01b03811661070a576040805162461bcd60e51b815260206004820152601c60248201527f436f6e74726163742061646472657373206d7573742062652073657400000000604482015290519081900360640190fd5b60008281526005602090815260409182902080546001600160a01b0319166001600160a01b0385169081179091558251908152915184927f937cf566d78d4769ff0211a7d87a6bea51e1fc026fd4d3d8cd589f0e99b983bd92908290030190a25050565b6001546001600160a01b031681565b6000546001600160a01b031633146107d5576040805162461bcd60e51b815260206004820152601660248201527513db9b1e4811dbdd995c9b9bdc8818d85b8818d85b1b60521b604482015290519081900360640190fd5b6001600160a01b038116610829576040805162461bcd60e51b815260206004820152601660248201527510dbdb9d1c9bdb1b195c881b5d5cdd081899481cd95d60521b604482015290519081900360640190fd5b6000828152600560205260408082205481516392eefe9b60e01b81526001600160a01b038581166004830152925192909116926392eefe9b9260248084019382900301818387803b15801561087d57600080fd5b505af1158015610891573d6000803e3d6000fd5b505050505050565b6000546001600160a01b031633146108f1576040805162461bcd60e51b815260206004820152601660248201527513db9b1e4811dbdd995c9b9bdc8818d85b8818d85b1b60521b604482015290519081900360640190fd5b6001600160a01b038116610943576040805162461bcd60e51b815260206004820152601460248201527311dbdd995c9b9bdc881b5d5cdd081899481cd95d60621b604482015290519081900360640190fd5b600180546001600160a01b038381166001600160a01b03198316179283905560405191811692169082907f76563ad561b7036ae716b9b25cb521b21463240f104c97e12f25877f2235f33d90600090a35050565b6000908152600560205260409020546001600160a01b031690565b600080546001600160a01b0319166001600160a01b0392909216919091179055565b600160159054906101000a900460ff16151581151514156109f45761032e565b6001805460ff60a81b1916600160a81b8315158102919091179182905560ff91041615610a2057426003555b60015460408051600160a81b90920460ff1615158252517f8fb6c181ee25a520cf3dd6565006ef91229fcfe5a989566c2a3b8c115570cec5916020908290030190a150565b600480546001600160a01b038381166001600160a01b0319831681179093556040519116919082907f0613b6ee6a04f0d09f390e4d9318894b9f6ac7fd83897cd8d18896ba579c401e90600090a35050565b600160149054906101000a900460ff1615158115151415610ad75761032e565b6001805460ff60a01b1916600160a01b8315158102919091179182905560ff91041615610b0357426002555b60015460408051600160a01b90920460ff1615158252517f511b770d1b1dc5cbd412a5017f55cbb2295b826385e5f46c1de2b6ebeb44ae02916020908290030190a15056fe4f6e6c7920476f7665726e6f72206f7220477561726469616e2063616e2063616c6ca2646970667358221220c742dbbf8f38fda928d26053c584788bb7d7b003131594b9e14f1381ebbdbb3064736f6c63430007060033",
  "linkReferences": {},
  "deployedLinkReferences": {}
}