{
  "_format": "hh-sol-artifact-1",
  "contractName": "L2Curation",
  "sourceName": "contracts/l2/curation/L2Curation.sol",
  "abi": [
    {
      "anonymous": false,
      "inputs": [
        {
          "indexed": true,
          "internalType": "address",
          "name": "curator",
          "type": "address"
        },
        {
          "indexed": true,
          "internalType": "bytes32",
          "name": "subgraphDeploymentID",
          "type": "bytes32"
        },
        {
          "indexed": false,
          "internalType": "uint256",
          "name": "tokens",
          "type": "uint256"
        },
        {
          "indexed": false,
          "internalType": "uint256",
          "name": "signal",
          "type": "uint256"
        }
      ],
      "name": "Burned",
      "type": "event"
    },
    {
      "anonymous": false,
      "inputs": [
        {
          "indexed": true,
          "internalType": "bytes32",
          "name": "subgraphDeploymentID",
          "type": "bytes32"
        },
        {
          "indexed": false,
          "internalType": "uint256",
          "name": "tokens",
          "type": "uint256"
        }
      ],
      "name": "Collected",
      "type": "event"
    },
    {
      "anonymous": false,
      "inputs": [
        {
          "indexed": true,
          "internalType": "bytes32",
          "name": "nameHash",
          "type": "bytes32"
        },
        {
          "indexed": false,
          "internalType": "address",
          "name": "contractAddress",
          "type": "address"
        }
      ],
      "name": "ContractSynced",
      "type": "event"
    },
    {
      "anonymous": false,
      "inputs": [
        {
          "indexed": false,
          "internalType": "string",
          "name": "param",
          "type": "string"
        }
      ],
      "name": "ParameterUpdated",
      "type": "event"
    },
    {
      "anonymous": false,
      "inputs": [
        {
          "indexed": false,
          "internalType": "address",
          "name": "controller",
          "type": "address"
        }
      ],
      "name": "SetController",
      "type": "event"
    },
    {
      "anonymous": false,
      "inputs": [
        {
          "indexed": true,
          "internalType": "address",
          "name": "curator",
          "type": "address"
        },
        {
          "indexed": true,
          "internalType": "bytes32",
          "name": "subgraphDeploymentID",
          "type": "bytes32"
        },
        {
          "indexed": false,
          "internalType": "uint256",
          "name": "tokens",
          "type": "uint256"
        },
        {
          "indexed": false,
          "internalType": "uint256",
          "name": "signal",
          "type": "uint256"
        },
        {
          "indexed": false,
          "internalType": "uint256",
          "name": "curationTax",
          "type": "uint256"
        }
      ],
      "name": "Signalled",
      "type": "event"
    },
    {
      "anonymous": false,
      "inputs": [
        {
          "indexed": true,
          "internalType": "address",
          "name": "newSubgraphService",
          "type": "address"
        }
      ],
      "name": "SubgraphServiceSet",
      "type": "event"
    },
    {
      "inputs": [
        {
          "internalType": "contract IGraphProxy",
          "name": "_proxy",
          "type": "address"
        }
      ],
      "name": "acceptProxy",
      "outputs": [],
      "stateMutability": "nonpayable",
      "type": "function"
    },
    {
      "inputs": [
        {
          "internalType": "contract IGraphProxy",
          "name": "_proxy",
          "type": "address"
        },
        {
          "internalType": "bytes",
          "name": "_data",
          "type": "bytes"
        }
      ],
      "name": "acceptProxyAndCall",
      "outputs": [],
      "stateMutability": "nonpayable",
      "type": "function"
    },
    {
      "inputs": [],
      "name": "bondingCurve",
      "outputs": [
        {
          "internalType": "address",
          "name": "",
          "type": "address"
        }
      ],
      "stateMutability": "view",
      "type": "function"
    },
    {
      "inputs": [
        {
          "internalType": "bytes32",
          "name": "_subgraphDeploymentID",
          "type": "bytes32"
        },
        {
          "internalType": "uint256",
          "name": "_signalIn",
          "type": "uint256"
        },
        {
          "internalType": "uint256",
          "name": "_tokensOutMin",
          "type": "uint256"
        }
      ],
      "name": "burn",
      "outputs": [
        {
          "internalType": "uint256",
          "name": "",
          "type": "uint256"
        }
      ],
      "stateMutability": "nonpayable",
      "type": "function"
    },
    {
      "inputs": [
        {
          "internalType": "bytes32",
          "name": "_subgraphDeploymentID",
          "type": "bytes32"
        },
        {
          "internalType": "uint256",
          "name": "_tokens",
          "type": "uint256"
        }
      ],
      "name": "collect",
      "outputs": [],
      "stateMutability": "nonpayable",
      "type": "function"
    },
    {
      "inputs": [],
      "name": "controller",
      "outputs": [
        {
          "internalType": "contract IController",
          "name": "",
          "type": "address"
        }
      ],
      "stateMutability": "view",
      "type": "function"
    },
    {
      "inputs": [],
      "name": "curationTaxPercentage",
      "outputs": [
        {
          "internalType": "uint32",
          "name": "",
          "type": "uint32"
        }
      ],
      "stateMutability": "view",
      "type": "function"
    },
    {
      "inputs": [],
      "name": "curationTokenMaster",
      "outputs": [
        {
          "internalType": "address",
          "name": "",
          "type": "address"
        }
      ],
      "stateMutability": "view",
      "type": "function"
    },
    {
      "inputs": [],
      "name": "defaultReserveRatio",
      "outputs": [
        {
          "internalType": "uint32",
          "name": "",
          "type": "uint32"
        }
      ],
      "stateMutability": "view",
      "type": "function"
    },
    {
      "inputs": [
        {
          "internalType": "bytes32",
          "name": "_subgraphDeploymentID",
          "type": "bytes32"
        }
      ],
      "name": "getCurationPoolSignal",
      "outputs": [
        {
          "internalType": "uint256",
          "name": "",
          "type": "uint256"
        }
      ],
      "stateMutability": "view",
      "type": "function"
    },
    {
      "inputs": [
        {
          "internalType": "bytes32",
          "name": "_subgraphDeploymentID",
          "type": "bytes32"
        }
      ],
      "name": "getCurationPoolTokens",
      "outputs": [
        {
          "internalType": "uint256",
          "name": "",
          "type": "uint256"
        }
      ],
      "stateMutability": "view",
      "type": "function"
    },
    {
      "inputs": [
        {
          "internalType": "address",
          "name": "_curator",
          "type": "address"
        },
        {
          "internalType": "bytes32",
          "name": "_subgraphDeploymentID",
          "type": "bytes32"
        }
      ],
      "name": "getCuratorSignal",
      "outputs": [
        {
          "internalType": "uint256",
          "name": "",
          "type": "uint256"
        }
      ],
      "stateMutability": "view",
      "type": "function"
    },
    {
      "inputs": [
        {
          "internalType": "address",
          "name": "_controller",
          "type": "address"
        },
        {
          "internalType": "address",
          "name": "_curationTokenMaster",
          "type": "address"
        },
        {
          "internalType": "uint32",
          "name": "_curationTaxPercentage",
          "type": "uint32"
        },
        {
          "internalType": "uint256",
          "name": "_minimumCurationDeposit",
          "type": "uint256"
        }
      ],
      "name": "initialize",
      "outputs": [],
      "stateMutability": "nonpayable",
      "type": "function"
    },
    {
      "inputs": [
        {
          "internalType": "bytes32",
          "name": "_subgraphDeploymentID",
          "type": "bytes32"
        }
      ],
      "name": "isCurated",
      "outputs": [
        {
          "internalType": "bool",
          "name": "",
          "type": "bool"
        }
      ],
      "stateMutability": "view",
      "type": "function"
    },
    {
      "inputs": [],
      "name": "minimumCurationDeposit",
      "outputs": [
        {
          "internalType": "uint256",
          "name": "",
          "type": "uint256"
        }
      ],
      "stateMutability": "view",
      "type": "function"
    },
    {
      "inputs": [
        {
          "internalType": "bytes32",
          "name": "_subgraphDeploymentID",
          "type": "bytes32"
        },
        {
          "internalType": "uint256",
          "name": "_tokensIn",
          "type": "uint256"
        },
        {
          "internalType": "uint256",
          "name": "_signalOutMin",
          "type": "uint256"
        }
      ],
      "name": "mint",
      "outputs": [
        {
          "internalType": "uint256",
          "name": "",
          "type": "uint256"
        },
        {
          "internalType": "uint256",
          "name": "",
          "type": "uint256"
        }
      ],
      "stateMutability": "nonpayable",
      "type": "function"
    },
    {
      "inputs": [
        {
          "internalType": "bytes32",
          "name": "_subgraphDeploymentID",
          "type": "bytes32"
        },
        {
          "internalType": "uint256",
          "name": "_tokensIn",
          "type": "uint256"
        }
      ],
      "name": "mintTaxFree",
      "outputs": [
        {
          "internalType": "uint256",
          "name": "",
          "type": "uint256"
        }
      ],
      "stateMutability": "nonpayable",
      "type": "function"
    },
    {
      "inputs": [
        {
          "internalType": "bytes32",
          "name": "",
          "type": "bytes32"
        }
      ],
      "name": "pools",
      "outputs": [
        {
          "internalType": "uint256",
          "name": "tokens",
          "type": "uint256"
        },
        {
          "internalType": "uint32",
          "name": "reserveRatio",
          "type": "uint32"
        },
        {
          "internalType": "contract IGraphCurationToken",
          "name": "gcs",
          "type": "address"
        }
      ],
      "stateMutability": "view",
      "type": "function"
    },
    {
      "inputs": [
        {
          "internalType": "address",
          "name": "_controller",
          "type": "address"
        }
      ],
      "name": "setController",
      "outputs": [],
      "stateMutability": "nonpayable",
      "type": "function"
    },
    {
      "inputs": [
        {
          "internalType": "uint32",
          "name": "_percentage",
          "type": "uint32"
        }
      ],
      "name": "setCurationTaxPercentage",
      "outputs": [],
      "stateMutability": "nonpayable",
      "type": "function"
    },
    {
      "inputs": [
        {
          "internalType": "address",
          "name": "_curationTokenMaster",
          "type": "address"
        }
      ],
      "name": "setCurationTokenMaster",
      "outputs": [],
      "stateMutability": "nonpayable",
      "type": "function"
    },
    {
      "inputs": [
        {
          "internalType": "uint32",
          "name": "",
          "type": "uint32"
        }
      ],
      "name": "setDefaultReserveRatio",
      "outputs": [],
      "stateMutability": "view",
      "type": "function"
    },
    {
      "inputs": [
        {
          "internalType": "uint256",
          "name": "_minimumCurationDeposit",
          "type": "uint256"
        }
      ],
      "name": "setMinimumCurationDeposit",
      "outputs": [],
      "stateMutability": "nonpayable",
      "type": "function"
    },
    {
      "inputs": [
        {
          "internalType": "address",
          "name": "_subgraphService",
          "type": "address"
        }
      ],
      "name": "setSubgraphService",
      "outputs": [],
      "stateMutability": "nonpayable",
      "type": "function"
    },
    {
      "inputs": [
        {
          "internalType": "bytes32",
          "name": "_subgraphDeploymentID",
          "type": "bytes32"
        },
        {
          "internalType": "uint256",
          "name": "_signalIn",
          "type": "uint256"
        }
      ],
      "name": "signalToTokens",
      "outputs": [
        {
          "internalType": "uint256",
          "name": "",
          "type": "uint256"
        }
      ],
      "stateMutability": "view",
      "type": "function"
    },
    {
      "inputs": [],
      "name": "subgraphService",
      "outputs": [
        {
          "internalType": "address",
          "name": "",
          "type": "address"
        }
      ],
      "stateMutability": "view",
      "type": "function"
    },
    {
      "inputs": [],
      "name": "syncAllContracts",
      "outputs": [],
      "stateMutability": "nonpayable",
      "type": "function"
    },
    {
      "inputs": [
        {
          "internalType": "bytes32",
          "name": "_subgraphDeploymentID",
          "type": "bytes32"
        },
        {
          "internalType": "uint256",
          "name": "_tokensIn",
          "type": "uint256"
        }
      ],
      "name": "tokensToSignal",
      "outputs": [
        {
          "internalType": "uint256",
          "name": "",
          "type": "uint256"
        },
        {
          "internalType": "uint256",
          "name": "",
          "type": "uint256"
        }
      ],
      "stateMutability": "view",
      "type": "function"
    },
    {
      "inputs": [
        {
          "internalType": "bytes32",
          "name": "_subgraphDeploymentID",
          "type": "bytes32"
        },
        {
          "internalType": "uint256",
          "name": "_tokensIn",
          "type": "uint256"
        }
      ],
      "name": "tokensToSignalNoTax",
      "outputs": [
        {
          "internalType": "uint256",
          "name": "",
          "type": "uint256"
        }
      ],
      "stateMutability": "view",
      "type": "function"
    },
    {
      "inputs": [
        {
          "internalType": "bytes32",
          "name": "_subgraphDeploymentID",
          "type": "bytes32"
        },
        {
          "internalType": "uint256",
          "name": "_tokensIn",
          "type": "uint256"
        }
      ],
      "name": "tokensToSignalToTokensNoTax",
      "outputs": [
        {
          "internalType": "uint256",
          "name": "",
          "type": "uint256"
        }
      ],
      "stateMutability": "view",
      "type": "function"
    }
  ],
  "bytecode": "0x6101806040527fe6876326c1291dfcbbd3864a6816d698cd591defc7aa2153d7f9c4c04016c89f6080527fc713c3df6d14cdf946460395d09af88993ee2b948b1a808161494e32c5f6706360a0527f966f1e8d8d8014e05f6ec4a57138da9be1f7c5a7f802928a18072f7c5318076160c0527f1df41cd916959d1163dc8f0671a666ea8a3e434c13e40faef527133b5d16703460e0527f45fc200c7e4544e457d3c5709bfe0d520442c30bbcbdaede89e8d4a4bbc19247610100527fd362cac9cb75c10d67bcc0b7eeb0b1ef48bb5420b556c092d4fd7f758816fcf0610120527f39605a6c26a173774ca666c67ef70cf491880e5d3d6d0ca66ec0a31034f15ea361014052613d0960e61b6101605234801561011a57600080fd5b5060805160a05160c05160e0516101005161012051610140516101605160e01c6128cc61018f60003980610c2f52508061141b52806119025250806113f25250806113c9528061180c5250806113a05280611dbf5250806113775280611ff252508061134e52508061132552506128cc6000f3fe608060405234801561001057600080fd5b50600436106101da5760003560e01c806399439fee11610104578063cd0ad4a2116100a2578063eff1d50e11610071578063eff1d50e146103f2578063f049b900146103fa578063f115c4271461040d578063f77c479114610415576101da565b8063cd0ad4a2146103af578063cd18119e146103c2578063d6866ea5146103d5578063eba0c8a1146103dd576101da565b80639f94c667116100de5780639f94c6671461035f578063a2594d8214610372578063a25e62c714610385578063b5217bb41461038d576101da565b806399439fee146103265780639b4d9f33146103395780639ce7abe51461034c576101da565b80634c4ea0ed1161017c5780637a2a45b81161014b5780637a2a45b8146102da57806381573288146102ed57806392eefe9b1461030057806393a90a1e14610313576101da565b80634c4ea0ed1461027f5780634c8c7a441461029f5780636536fe32146102b457806369db11a1146102c7576101da565b806326058249116101b857806326058249146102235780633718896d14610238578063375a54ab1461024b57806346e855da1461026c576101da565b80630faaf87f146101df578063185360f91461020857806324bdeec714610210575b600080fd5b6101f26101ed366004612175565b61041d565b6040516101ff91906122ab565b60405180910390f35b6101f26104da565b6101f261021e366004612196565b6104e0565b61022b610662565b6040516101ff9190612273565b6101f2610246366004612175565b610677565b61025e610259366004612196565b6108b6565b6040516101ff9291906127b8565b6101f261027a36600461215d565b610af7565b61029261028d36600461215d565b610b0c565b6040516101ff91906122a0565b6102b26102ad3660046120e4565b610b20565b005b6102b26102c236600461215d565b610cb0565b6101f26102d5366004612175565b610cc4565b6101f26102e8366004612175565b610d78565b6102b26102fb366004612175565b610d8b565b6102b261030e3660046120c8565b610e5e565b6102b26103213660046120c8565b610e6f565b6101f261033436600461215d565b610ecb565b6102b26103473660046120c8565b610f72565b6102b261035a3660046121c1565b610f83565b6101f261036d366004612132565b6110d9565b6102b26103803660046120c8565b61118d565b61022b6112a8565b6103a061039b36600461215d565b6112be565b6040516101ff939291906127dc565b6102b26103bd366004612259565b6112ef565b6102b26103d0366004612259565b61130f565b6102b2611320565b6103e5611441565b6040516101ff9190612801565b61022b611454565b61025e610408366004612175565b611463565b6103e56114c0565b61022b6114cc565b6000828152600f6020908152604080832081516060810183528154815260019091015463ffffffff811693820193909352600160201b9092046001600160a01b0316908201528161046d85610ecb565b82519091506104975760405162461bcd60e51b815260040161048e906125e8565b60405180910390fd5b838110156104b75760405162461bcd60e51b815260040161048e906124f3565b81516104cf9082906104c990876114db565b90611534565b925050505b92915050565b600d5481565b60006104ea61159b565b33836105085760405162461bcd60e51b815260040161048e906122b4565b8361051382876110d9565b10156105315760405162461bcd60e51b815260040161048e906124af565b600061053d868661041d565b90508381101561055f5760405162461bcd60e51b815260040161048e906123ff565b61056886611709565b6000868152600f60205260409020805461058290836117a8565b8155600181015460405163079cc67960e41b8152600160201b9091046001600160a01b0316906379cc6790906105be9086908a90600401612287565b600060405180830381600087803b1580156105d857600080fd5b505af11580156105ec573d6000803e3d6000fd5b505050506105f987610ecb565b61060257600081555b61061461060d611805565b8484611835565b86836001600160a01b03167fe14cd5e80f6821ded0538e85a537487acf10bb5e97a12176df56a099e90bfb3484896040516106509291906127b8565b60405180910390a35095945050505050565b6010546201000090046001600160a01b031681565b600061068161159b565b6106896118fb565b6001600160a01b0316336001600160a01b0316146106b95760405162461bcd60e51b815260040161048e90612781565b816106d65760405162461bcd60e51b815260040161048e906126c0565b60006106e28484611926565b6000858152600f6020526040902090915033906106fe86610b0c565b6107ca576001810154600160201b90046001600160a01b03166107ca57600c5460009061073a90600160401b90046001600160a01b03166119d9565b60405163189acdbd60e31b81529091506001600160a01b0382169063c4d66de890610769903090600401612273565b600060405180830381600087803b15801561078357600080fd5b505af1158015610797573d6000803e3d6000fd5b5050506001830180546001600160a01b03909316600160201b02640100000000600160c01b031990931692909217909155505b6107d386611709565b60006107dd611805565b90506107ea818488611a76565b81546107f69087611ad5565b825560018201546040516340c10f1960e01b8152600160201b9091046001600160a01b0316906340c10f19906108329086908890600401612287565b600060405180830381600087803b15801561084c57600080fd5b505af1158015610860573d6000803e3d6000fd5b5050505086836001600160a01b03167fb7bf5f4e5b23ef992df9875ecea572620d18dab0c1a5486a9b695d20d9ec50cf888760006040516108a3939291906127c6565b60405180910390a3509195945050505050565b6000806108c161159b565b836108de5760405162461bcd60e51b815260040161048e906126c0565b6000806108eb8787611463565b915091508482101561090f5760405162461bcd60e51b815260040161048e906123ff565b6000878152600f60205260409020339061092889610b0c565b6109f4576001810154600160201b90046001600160a01b03166109f457600c5460009061096490600160401b90046001600160a01b03166119d9565b60405163189acdbd60e31b81529091506001600160a01b0382169063c4d66de890610993903090600401612273565b600060405180830381600087803b1580156109ad57600080fd5b505af11580156109c1573d6000803e3d6000fd5b5050506001830180546001600160a01b03909316600160201b02640100000000600160c01b031990931692909217909155505b6109fd89611709565b6000610a07611805565b9050610a1481848b611a76565b610a1e8185611b2f565b610a33610a2b8a866117a8565b835490611ad5565b825560018201546040516340c10f1960e01b8152600160201b9091046001600160a01b0316906340c10f1990610a6f9086908990600401612287565b600060405180830381600087803b158015610a8957600080fd5b505af1158015610a9d573d6000803e3d6000fd5b5050505089836001600160a01b03167fb7bf5f4e5b23ef992df9875ecea572620d18dab0c1a5486a9b695d20d9ec50cf8b8888604051610adf939291906127c6565b60405180910390a35092989197509095505050505050565b6000818152600f60205260409020545b919050565b6000908152600f6020526040902054151590565b610b28611b7b565b6001600160a01b0316336001600160a01b031614610b83576040805162461bcd60e51b815260206004820152601360248201527227b7363c9034b6b83632b6b2b73a30ba34b7b760691b604482015290519081900360640190fd5b601054610100900460ff1680610b9c5750610b9c611ba0565b80610baa575060105460ff16155b610be55760405162461bcd60e51b815260040180806020018281038252602e815260200180612848602e913960400191505060405180910390fd5b601054610100900460ff16158015610c10576010805460ff1961ff0019909116610100171660011790555b610c1985610e66565b600c805467ffffffff000000001916600160201b7f000000000000000000000000000000000000000000000000000000000000000063ffffffff160217905560405160008051602061282883398151915290610c74906123d2565b60405180910390a1610c8583611bb1565b610c8e82611c16565b610c9784611c54565b8015610ca9576010805461ff00191690555b5050505050565b610cb8611ce4565b610cc181611c16565b50565b600081610ce35760405162461bcd60e51b815260040161048e90612322565b6000610cef8484611926565b6000858152600f6020908152604080832081516060810183528154815260019091015463ffffffff811693820193909352600160201b9092046001600160a01b031690820152919250610d4b83610d4588610ecb565b90611ad5565b8251909150600090610d5d9087611ad5565b9050610d6d826104c983876114db565b979650505050505050565b6000610d848383611926565b9392505050565b6010546201000090046001600160a01b0316331480610dc25750610dad611db8565b6001600160a01b0316336001600160a01b0316145b610dde5760405162461bcd60e51b815260040161048e9061255c565b610de782610b0c565b610e035760405162461bcd60e51b815260040161048e9061245c565b6000828152600f602052604090208054610e1d9083611ad5565b815560405183907ff17fdee613a92b35db6b7598eb43750b24d4072eb304e6eca80121e40402e34b90610e519085906122ab565b60405180910390a2505050565b610e66611de3565b610cc181611e42565b610e77611ce4565b6010805462010000600160b01b031916620100006001600160a01b038416908102919091179091556040517f81dcb738da3dabd5bb2adbc7dd107fbbfca936e9c8aecab25f5b17a710a784c790600090a250565b6000818152600f6020526040812060010154600160201b90046001600160a01b03168015610f6957806001600160a01b03166318160ddd6040518163ffffffff1660e01b815260040160206040518083038186803b158015610f2c57600080fd5b505afa158015610f40573d6000803e3d6000fd5b505050506040513d601f19601f82011682018060405250810190610f649190612241565b610d84565b60009392505050565b610f7a611ce4565b610cc181611c54565b82806001600160a01b031663f851a4406040518163ffffffff1660e01b8152600401602060405180830381600087803b158015610fbf57600080fd5b505af1158015610fd3573d6000803e3d6000fd5b505050506040513d6020811015610fe957600080fd5b50516001600160a01b03163314611047576040805162461bcd60e51b815260206004820152601e60248201527f43616c6c6572206d757374206265207468652070726f78792061646d696e0000604482015290519081900360640190fd5b60405163623faf6160e01b8152602060048201908152602482018490526001600160a01b0386169163623faf619186918691908190604401848480828437600081840152601f19601f8201169050808301925050509350505050600060405180830381600087803b1580156110bb57600080fd5b505af11580156110cf573d6000803e3d6000fd5b5050505050505050565b6000818152600f6020526040812060010154600160201b90046001600160a01b03168015611182576040516370a0823160e01b81526001600160a01b038216906370a082319061112d908790600401612273565b60206040518083038186803b15801561114557600080fd5b505afa158015611159573d6000803e3d6000fd5b505050506040513d601f19601f8201168201806040525081019061117d9190612241565b611185565b60005b949350505050565b80806001600160a01b031663f851a4406040518163ffffffff1660e01b8152600401602060405180830381600087803b1580156111c957600080fd5b505af11580156111dd573d6000803e3d6000fd5b505050506040513d60208110156111f357600080fd5b50516001600160a01b03163314611251576040805162461bcd60e51b815260206004820152601e60248201527f43616c6c6572206d757374206265207468652070726f78792061646d696e0000604482015290519081900360640190fd5b816001600160a01b03166359fc20bb6040518163ffffffff1660e01b8152600401600060405180830381600087803b15801561128c57600080fd5b505af11580156112a0573d6000803e3d6000fd5b505050505050565b600c54600160401b90046001600160a01b031681565b600f602052600090815260409020805460019091015463ffffffff811690600160201b90046001600160a01b031683565b6112f7611ce4565b60405162461bcd60e51b815260040161048e906123a3565b611317611ce4565b610cc181611bb1565b6113497f0000000000000000000000000000000000000000000000000000000000000000611eea565b6113727f0000000000000000000000000000000000000000000000000000000000000000611eea565b61139b7f0000000000000000000000000000000000000000000000000000000000000000611eea565b6113c47f0000000000000000000000000000000000000000000000000000000000000000611eea565b6113ed7f0000000000000000000000000000000000000000000000000000000000000000611eea565b6114167f0000000000000000000000000000000000000000000000000000000000000000611eea565b61143f7f0000000000000000000000000000000000000000000000000000000000000000611eea565b565b600c54600160201b900463ffffffff1681565b600e546001600160a01b031681565b600c546000908190819061149790620f4240906104c990879061149190849063ffffffff908116906117a816565b906114db565b905060006114a585836117a8565b905060006114b38784611926565b9791965090945050505050565b600c5463ffffffff1681565b6000546001600160a01b031681565b6000826114ea575060006104d4565b828202828482816114f757fe5b0414610d845760405162461bcd60e51b81526004018080602001828103825260218152602001806128766021913960400191505060405180910390fd5b600080821161158a576040805162461bcd60e51b815260206004820152601a60248201527f536166654d6174683a206469766973696f6e206279207a65726f000000000000604482015290519081900360640190fd5b81838161159357fe5b049392505050565b60008054906101000a90046001600160a01b03166001600160a01b0316635c975abb6040518163ffffffff1660e01b815260040160206040518083038186803b1580156115e757600080fd5b505afa1580156115fb573d6000803e3d6000fd5b505050506040513d602081101561161157600080fd5b50511561164e576040805162461bcd60e51b815260206004820152600660248201526514185d5cd95960d21b604482015290519081900360640190fd5b60008054906101000a90046001600160a01b03166001600160a01b0316632e292fc76040518163ffffffff1660e01b815260040160206040518083038186803b15801561169a57600080fd5b505afa1580156116ae573d6000803e3d6000fd5b505050506040513d60208110156116c457600080fd5b50511561143f576040805162461bcd60e51b815260206004820152600e60248201526d14185c9d1a585b0b5c185d5cd95960921b604482015290519081900360640190fd5b6000611713611feb565b90506001600160a01b038116156117a4576040516307470bfb60e21b81526001600160a01b03821690631d1c2fec906117509085906004016122ab565b602060405180830381600087803b15801561176a57600080fd5b505af115801561177e573d6000803e3d6000fd5b505050506040513d601f19601f820116820180604052508101906117a29190612241565b505b5050565b6000828211156117ff576040805162461bcd60e51b815260206004820152601e60248201527f536166654d6174683a207375627472616374696f6e206f766572666c6f770000604482015290519081900360640190fd5b50900390565b60006118307f0000000000000000000000000000000000000000000000000000000000000000612012565b905090565b80156117a257826001600160a01b031663a9059cbb83836040518363ffffffff1660e01b815260040180836001600160a01b0316815260200182815260200192505050602060405180830381600087803b15801561189257600080fd5b505af11580156118a6573d6000803e3d6000fd5b505050506040513d60208110156118bc57600080fd5b50516117a2576040805162461bcd60e51b815260206004820152600960248201526810ba3930b739b332b960b91b604482015290519081900360640190fd5b60006118307f0000000000000000000000000000000000000000000000000000000000000000612012565b6000828152600f602090815260408083208151606081018352815480825260019092015463ffffffff811694820194909452600160201b9093046001600160a01b0316918301919091526119c657600d548310156119965760405162461bcd60e51b815260040161048e90612359565b600d546119be906119b6906104c96119ae87836117a8565b6001906114db565b600190611ad5565b9150506104d4565b8051611185906104c98561149188610ecb565b6000604051733d602d80600a3d3981f3363d3d373d3d3d363d7360601b81528260601b60148201526e5af43d82803e903d91602b57fd5bf360881b60288201526037816000f09150506001600160a01b038116610b07576040805162461bcd60e51b8152602060048201526016602482015275115490cc4c4d8dce8818dc99585d194819985a5b195960521b604482015290519081900360640190fd5b80156117a257604080516323b872dd60e01b81526001600160a01b038481166004830152306024830152604482018490529151918516916323b872dd916064808201926020929091908290030181600087803b15801561189257600080fd5b600082820183811015610d84576040805162461bcd60e51b815260206004820152601b60248201527f536166654d6174683a206164646974696f6e206f766572666c6f770000000000604482015290519081900360640190fd5b80156117a457816001600160a01b03166342966c68826040518263ffffffff1660e01b815260040180828152602001915050600060405180830381600087803b15801561128c57600080fd5b7f360894a13ba1a3210667c828492db98dca3e2076cc3735a920a3ca505d382bbc5490565b6000611bab306120ae565b15905090565b620f424063ffffffff82161115611bda5760405162461bcd60e51b815260040161048e906126f7565b600c805463ffffffff191663ffffffff831617905560405160008051602061282883398151915290611c0b906125b9565b60405180910390a150565b80611c335760405162461bcd60e51b815260040161048e90612645565b600d81905560405160008051602061282883398151915290611c0b9061242c565b6001600160a01b038116611c7a5760405162461bcd60e51b815260040161048e906122eb565b611c83816120ae565b611c9f5760405162461bcd60e51b815260040161048e90612689565b600c805468010000000000000000600160e01b031916600160401b6001600160a01b0384160217905560405160008051602061282883398151915290611c0b90612754565b60008054906101000a90046001600160a01b03166001600160a01b0316634fc07d756040518163ffffffff1660e01b815260040160206040518083038186803b158015611d3057600080fd5b505afa158015611d44573d6000803e3d6000fd5b505050506040513d6020811015611d5a57600080fd5b50516001600160a01b0316331461143f576040805162461bcd60e51b815260206004820152601860248201527f4f6e6c7920436f6e74726f6c6c657220676f7665726e6f720000000000000000604482015290519081900360640190fd5b60006118307f0000000000000000000000000000000000000000000000000000000000000000612012565b6000546001600160a01b0316331461143f576040805162461bcd60e51b815260206004820152601960248201527f43616c6c6572206d75737420626520436f6e74726f6c6c657200000000000000604482015290519081900360640190fd5b6001600160a01b038116611e96576040805162461bcd60e51b815260206004820152601660248201527510dbdb9d1c9bdb1b195c881b5d5cdd081899481cd95d60521b604482015290519081900360640190fd5b600080546001600160a01b0383166001600160a01b0319909116811790915560408051918252517f4ff638452bbf33c012645d18ae6f05515ff5f2d1dfb0cece8cbf018c60903f709181900360200190a150565b6000805460408051637bb20d2f60e11b81526004810185905290516001600160a01b039092169163f7641a5e91602480820192602092909190829003018186803b158015611f3757600080fd5b505afa158015611f4b573d6000803e3d6000fd5b505050506040513d6020811015611f6157600080fd5b50516000838152600160205260409020549091506001600160a01b038083169116146117a45760008281526001602090815260409182902080546001600160a01b0319166001600160a01b0385169081179091558251908152915184927fd0e7a942b1fc38c411c4f53d153ba14fd24542a6a35ebacd9b6afca1a154e20692908290030190a25050565b60006118307f00000000000000000000000000000000000000000000000000000000000000005b6000818152600160205260408120546001600160a01b0316806104d45760005460408051637bb20d2f60e11b81526004810186905290516001600160a01b039092169163f7641a5e91602480820192602092909190829003018186803b15801561207b57600080fd5b505afa15801561208f573d6000803e3d6000fd5b505050506040513d60208110156120a557600080fd5b50519392505050565b3b151590565b803563ffffffff81168114610b0757600080fd5b6000602082840312156120d9578081fd5b8135610d8481612812565b600080600080608085870312156120f9578283fd5b843561210481612812565b9350602085013561211481612812565b9250612122604086016120b4565b9396929550929360600135925050565b60008060408385031215612144578182fd5b823561214f81612812565b946020939093013593505050565b60006020828403121561216e578081fd5b5035919050565b60008060408385031215612187578182fd5b50508035926020909101359150565b6000806000606084860312156121aa578283fd5b505081359360208301359350604090920135919050565b6000806000604084860312156121d5578283fd5b83356121e081612812565b9250602084013567ffffffffffffffff808211156121fc578384fd5b818601915086601f83011261220f578384fd5b81358181111561221d578485fd5b87602082850101111561222e578485fd5b6020830194508093505050509250925092565b600060208284031215612252578081fd5b5051919050565b60006020828403121561226a578081fd5b610d84826120b4565b6001600160a01b0391909116815260200190565b6001600160a01b03929092168252602082015260400190565b901515815260200190565b90815260200190565b60208082526017908201527f43616e6e6f74206275726e207a65726f207369676e616c000000000000000000604082015260600190565b6020808252601e908201527f546f6b656e206d6173746572206d757374206265206e6f6e2d656d7074790000604082015260600190565b6020808252601d908201527f43616e27742063616c63756c6174652077697468203020746f6b656e73000000604082015260600190565b6020808252602a908201527f4375726174696f6e206465706f7369742069732062656c6f77206d696e696d756040820152691b481c995c5d5a5c995960b21b606082015260800190565b6020808252601590820152742737ba1034b6b83632b6b2b73a32b21034b710261960591b604082015260600190565b60208082526013908201527264656661756c7452657365727665526174696f60681b604082015260600190565b60208082526013908201527229b634b83830b3b290383937ba32b1ba34b7b760691b604082015260600190565b6020808252601690820152751b5a5b9a5b5d5b50dd5c985d1a5bdb91195c1bdcda5d60521b604082015260600190565b60208082526033908201527f5375626772617068206465706c6f796d656e74206d757374206265206375726160408201527274656420746f20636f6c6c656374206665657360681b606082015260800190565b60208082526024908201527f43616e6e6f74206275726e206d6f7265207369676e616c207468616e20796f756040820152631037bbb760e11b606082015260800190565b60208082526043908201527f5369676e616c206d7573742062652061626f7665206f7220657175616c20746f60408201527f207369676e616c2069737375656420696e20746865206375726174696f6e20706060820152621bdbdb60ea1b608082015260a00190565b60208082526037908201527f43616c6c6572206d75737420626520746865207375626772617068207365727660408201527f696365206f72207374616b696e6720636f6e7472616374000000000000000000606082015260800190565b6020808252601590820152746375726174696f6e54617850657263656e7461676560581b604082015260600190565b6020808252603b908201527f5375626772617068206465706c6f796d656e74206d757374206265206375726160408201527f74656420746f20706572666f726d2063616c63756c6174696f6e730000000000606082015260800190565b60208082526024908201527f4d696e696d756d206375726174696f6e206465706f7369742063616e6e6f74206040820152630626520360e41b606082015260800190565b6020808252601f908201527f546f6b656e206d6173746572206d757374206265206120636f6e747261637400604082015260600190565b6020808252601a908201527f43616e6e6f74206465706f736974207a65726f20746f6b656e73000000000000604082015260600190565b60208082526039908201527f4375726174696f6e207461782070657263656e74616765206d7573742062652060408201527f62656c6f77206f7220657175616c20746f204d41585f50504d00000000000000606082015260800190565b60208082526013908201527231bab930ba34b7b72a37b5b2b726b0b9ba32b960691b604082015260600190565b6020808252601a908201527f4f6e6c792074686520474e532063616e2063616c6c2074686973000000000000604082015260600190565b918252602082015260400190565b9283526020830191909152604082015260600190565b92835263ffffffff9190911660208301526001600160a01b0316604082015260600190565b63ffffffff91909116815260200190565b6001600160a01b0381168114610cc157600080fdfe96d5a4b4edf1cefd0900c166d64447f8da1d01d1861a6a60894b5b82a2c15c3c496e697469616c697a61626c653a20636f6e747261637420697320616c726561647920696e697469616c697a6564536166654d6174683a206d756c7469706c69636174696f6e206f766572666c6f77a2646970667358221220a1d7866b5729d907dd1710f966a8454930b048b6c785a4ad687a5e1b7a901ea164736f6c63430007060033",
  "linkReferences": {},
  "deployedLinkReferences": {}
}