{
  "_format": "hh-sol-artifact-1",
  "contractName": "HorizonStaking",
  "sourceName": "contracts/staking/HorizonStaking.sol",
  "abi": [
    {
      "inputs": [
        {
          "internalType": "address",
          "name": "controller",
          "type": "address"
        },
        {
          "internalType": "address",
          "name": "stakingExtensionAddress",
          "type": "address"
        },
        {
          "internalType": "address",
          "name": "subgraphDataServiceAddress",
          "type": "address"
        }
      ],
      "stateMutability": "nonpayable",
      "type": "constructor"
    },
    {
      "inputs": [
        {
          "internalType": "address",
          "name": "target",
          "type": "address"
        }
      ],
      "name": "AddressEmptyCode",
      "type": "error"
    },
    {
      "inputs": [],
      "name": "FailedInnerCall",
      "type": "error"
    },
    {
      "inputs": [
        {
          "internalType": "bytes",
          "name": "contractName",
          "type": "bytes"
        }
      ],
      "name": "GraphDirectoryInvalidZeroAddress",
      "type": "error"
    },
    {
      "inputs": [],
      "name": "HorizonStakingCallerIsServiceProvider",
      "type": "error"
    },
    {
      "inputs": [
        {
          "internalType": "uint256",
          "name": "tokens",
          "type": "uint256"
        },
        {
          "internalType": "uint256",
          "name": "minTokens",
          "type": "uint256"
        }
      ],
      "name": "HorizonStakingInsufficientIdleStake",
      "type": "error"
    },
    {
      "inputs": [
        {
          "internalType": "uint256",
          "name": "shares",
          "type": "uint256"
        },
        {
          "internalType": "uint256",
          "name": "minShares",
          "type": "uint256"
        }
      ],
      "name": "HorizonStakingInsufficientShares",
      "type": "error"
    },
    {
      "inputs": [
        {
          "internalType": "uint256",
          "name": "tokens",
          "type": "uint256"
        },
        {
          "internalType": "uint256",
          "name": "minTokens",
          "type": "uint256"
        }
      ],
      "name": "HorizonStakingInsufficientStakeForLegacyAllocations",
      "type": "error"
    },
    {
      "inputs": [
        {
          "internalType": "uint256",
          "name": "tokens",
          "type": "uint256"
        },
        {
          "internalType": "uint256",
          "name": "minRequired",
          "type": "uint256"
        }
      ],
      "name": "HorizonStakingInsufficientTokens",
      "type": "error"
    },
    {
      "inputs": [
        {
          "internalType": "uint256",
          "name": "feeCut",
          "type": "uint256"
        }
      ],
      "name": "HorizonStakingInvalidDelegationFeeCut",
      "type": "error"
    },
    {
      "inputs": [
        {
          "internalType": "address",
          "name": "serviceProvider",
          "type": "address"
        },
        {
          "internalType": "address",
          "name": "verifier",
          "type": "address"
        }
      ],
      "name": "HorizonStakingInvalidDelegationPoolState",
      "type": "error"
    },
    {
      "inputs": [
        {
          "internalType": "uint32",
          "name": "maxVerifierCut",
          "type": "uint32"
        },
        {
          "internalType": "uint32",
          "name": "maxMaxVerifierCut",
          "type": "uint32"
        }
      ],
      "name": "HorizonStakingInvalidMaxVerifierCut",
      "type": "error"
    },
    {
      "inputs": [
        {
          "internalType": "address",
          "name": "serviceProvider",
          "type": "address"
        },
        {
          "internalType": "address",
          "name": "verifier",
          "type": "address"
        }
      ],
      "name": "HorizonStakingInvalidProvision",
      "type": "error"
    },
    {
      "inputs": [
        {
          "internalType": "uint64",
          "name": "thawingPeriod",
          "type": "uint64"
        },
        {
          "internalType": "uint64",
          "name": "maxThawingPeriod",
          "type": "uint64"
        }
      ],
      "name": "HorizonStakingInvalidThawingPeriod",
      "type": "error"
    },
    {
      "inputs": [],
      "name": "HorizonStakingInvalidZeroShares",
      "type": "error"
    },
    {
      "inputs": [],
      "name": "HorizonStakingInvalidZeroTokens",
      "type": "error"
    },
    {
      "inputs": [
        {
          "internalType": "address",
          "name": "caller",
          "type": "address"
        },
        {
          "internalType": "address",
          "name": "serviceProvider",
          "type": "address"
        },
        {
          "internalType": "address",
          "name": "verifier",
          "type": "address"
        }
      ],
      "name": "HorizonStakingNotAuthorized",
      "type": "error"
    },
    {
      "inputs": [],
      "name": "HorizonStakingNothingThawing",
      "type": "error"
    },
    {
      "inputs": [],
      "name": "HorizonStakingProvisionAlreadyExists",
      "type": "error"
    },
    {
      "inputs": [
        {
          "internalType": "uint256",
          "name": "shares",
          "type": "uint256"
        },
        {
          "internalType": "uint256",
          "name": "minShares",
          "type": "uint256"
        }
      ],
      "name": "HorizonStakingSlippageProtection",
      "type": "error"
    },
    {
      "inputs": [
        {
          "internalType": "uint256",
          "name": "until",
          "type": "uint256"
        }
      ],
      "name": "HorizonStakingStillThawing",
      "type": "error"
    },
    {
      "inputs": [],
      "name": "HorizonStakingTooManyThawRequests",
      "type": "error"
    },
    {
      "inputs": [
        {
          "internalType": "uint256",
          "name": "tokens",
          "type": "uint256"
        },
        {
          "internalType": "uint256",
          "name": "maxTokens",
          "type": "uint256"
        }
      ],
      "name": "HorizonStakingTooManyTokens",
      "type": "error"
    },
    {
      "inputs": [
        {
          "internalType": "address",
          "name": "verifier",
          "type": "address"
        }
      ],
      "name": "HorizonStakingVerifierNotAllowed",
      "type": "error"
    },
    {
      "inputs": [],
      "name": "LinkedListEmptyList",
      "type": "error"
    },
    {
      "inputs": [],
      "name": "LinkedListInvalidIterations",
      "type": "error"
    },
    {
      "inputs": [],
      "name": "LinkedListInvalidZeroId",
      "type": "error"
    },
    {
      "inputs": [],
      "name": "LinkedListMaxElementsExceeded",
      "type": "error"
    },
    {
      "inputs": [],
      "name": "ManagedIsPaused",
      "type": "error"
    },
    {
      "inputs": [],
      "name": "ManagedOnlyController",
      "type": "error"
    },
    {
      "inputs": [],
      "name": "ManagedOnlyGovernor",
      "type": "error"
    },
    {
      "inputs": [
        {
          "internalType": "uint256",
          "name": "a",
          "type": "uint256"
        },
        {
          "internalType": "uint256",
          "name": "b",
          "type": "uint256"
        }
      ],
      "name": "PPMMathInvalidMulPPM",
      "type": "error"
    },
    {
      "anonymous": false,
      "inputs": [
        {
          "indexed": true,
          "internalType": "address",
          "name": "verifier",
          "type": "address"
        },
        {
          "indexed": false,
          "internalType": "bool",
          "name": "allowed",
          "type": "bool"
        }
      ],
      "name": "AllowedLockedVerifierSet",
      "type": "event"
    },
    {
      "anonymous": false,
      "inputs": [
        {
          "indexed": true,
          "internalType": "address",
          "name": "serviceProvider",
          "type": "address"
        },
        {
          "indexed": true,
          "internalType": "address",
          "name": "verifier",
          "type": "address"
        },
        {
          "indexed": true,
          "internalType": "address",
          "name": "delegator",
          "type": "address"
        },
        {
          "indexed": false,
          "internalType": "uint256",
          "name": "tokens",
          "type": "uint256"
        }
      ],
      "name": "DelegatedTokensWithdrawn",
      "type": "event"
    },
    {
      "anonymous": false,
      "inputs": [
        {
          "indexed": true,
          "internalType": "address",
          "name": "serviceProvider",
          "type": "address"
        },
        {
          "indexed": true,
          "internalType": "address",
          "name": "verifier",
          "type": "address"
        },
        {
          "indexed": true,
          "internalType": "enum IGraphPayments.PaymentTypes",
          "name": "paymentType",
          "type": "uint8"
        },
        {
          "indexed": false,
          "internalType": "uint256",
          "name": "feeCut",
          "type": "uint256"
        }
      ],
      "name": "DelegationFeeCutSet",
      "type": "event"
    },
    {
      "anonymous": false,
      "inputs": [
        {
          "indexed": true,
          "internalType": "address",
          "name": "serviceProvider",
          "type": "address"
        },
        {
          "indexed": true,
          "internalType": "address",
          "name": "verifier",
          "type": "address"
        },
        {
          "indexed": false,
          "internalType": "uint256",
          "name": "tokens",
          "type": "uint256"
        }
      ],
      "name": "DelegationSlashed",
      "type": "event"
    },
    {
      "anonymous": false,
      "inputs": [
        {
          "indexed": false,
          "internalType": "bool",
          "name": "enabled",
          "type": "bool"
        }
      ],
      "name": "DelegationSlashingEnabled",
      "type": "event"
    },
    {
      "anonymous": false,
      "inputs": [
        {
          "indexed": true,
          "internalType": "address",
          "name": "serviceProvider",
          "type": "address"
        },
        {
          "indexed": true,
          "internalType": "address",
          "name": "verifier",
          "type": "address"
        },
        {
          "indexed": false,
          "internalType": "uint256",
          "name": "tokens",
          "type": "uint256"
        }
      ],
      "name": "DelegationSlashingSkipped",
      "type": "event"
    },
    {
      "anonymous": false,
      "inputs": [
        {
          "indexed": true,
          "internalType": "address",
          "name": "graphToken",
          "type": "address"
        },
        {
          "indexed": true,
          "internalType": "address",
          "name": "graphStaking",
          "type": "address"
        },
        {
          "indexed": false,
          "internalType": "address",
          "name": "graphPayments",
          "type": "address"
        },
        {
          "indexed": false,
          "internalType": "address",
          "name": "graphEscrow",
          "type": "address"
        },
        {
          "indexed": true,
          "internalType": "address",
          "name": "graphController",
          "type": "address"
        },
        {
          "indexed": false,
          "internalType": "address",
          "name": "graphEpochManager",
          "type": "address"
        },
        {
          "indexed": false,
          "internalType": "address",
          "name": "graphRewardsManager",
          "type": "address"
        },
        {
          "indexed": false,
          "internalType": "address",
          "name": "graphTokenGateway",
          "type": "address"
        },
        {
          "indexed": false,
          "internalType": "address",
          "name": "graphProxyAdmin",
          "type": "address"
        },
        {
          "indexed": false,
          "internalType": "address",
          "name": "graphCuration",
          "type": "address"
        }
      ],
      "name": "GraphDirectoryInitialized",
      "type": "event"
    },
    {
      "anonymous": false,
      "inputs": [
        {
          "indexed": false,
          "internalType": "uint64",
          "name": "maxThawingPeriod",
          "type": "uint64"
        }
      ],
      "name": "MaxThawingPeriodSet",
      "type": "event"
    },
    {
      "anonymous": false,
      "inputs": [
        {
          "indexed": true,
          "internalType": "address",
          "name": "serviceProvider",
          "type": "address"
        },
        {
          "indexed": true,
          "internalType": "address",
          "name": "operator",
          "type": "address"
        },
        {
          "indexed": true,
          "internalType": "address",
          "name": "verifier",
          "type": "address"
        },
        {
          "indexed": false,
          "internalType": "bool",
          "name": "allowed",
          "type": "bool"
        }
      ],
      "name": "OperatorSet",
      "type": "event"
    },
    {
      "anonymous": false,
      "inputs": [
        {
          "indexed": true,
          "internalType": "address",
          "name": "serviceProvider",
          "type": "address"
        },
        {
          "indexed": true,
          "internalType": "address",
          "name": "verifier",
          "type": "address"
        },
        {
          "indexed": false,
          "internalType": "uint256",
          "name": "tokens",
          "type": "uint256"
        },
        {
          "indexed": false,
          "internalType": "uint32",
          "name": "maxVerifierCut",
          "type": "uint32"
        },
        {
          "indexed": false,
          "internalType": "uint64",
          "name": "thawingPeriod",
          "type": "uint64"
        }
      ],
      "name": "ProvisionCreated",
      "type": "event"
    },
    {
      "anonymous": false,
      "inputs": [
        {
          "indexed": true,
          "internalType": "address",
          "name": "serviceProvider",
          "type": "address"
        },
        {
          "indexed": true,
          "internalType": "address",
          "name": "verifier",
          "type": "address"
        },
        {
          "indexed": false,
          "internalType": "uint256",
          "name": "tokens",
          "type": "uint256"
        }
      ],
      "name": "ProvisionIncreased",
      "type": "event"
    },
    {
      "anonymous": false,
      "inputs": [
        {
          "indexed": true,
          "internalType": "address",
          "name": "serviceProvider",
          "type": "address"
        },
        {
          "indexed": true,
          "internalType": "address",
          "name": "verifier",
          "type": "address"
        },
        {
          "indexed": false,
          "internalType": "uint32",
          "name": "maxVerifierCut",
          "type": "uint32"
        },
        {
          "indexed": false,
          "internalType": "uint64",
          "name": "thawingPeriod",
          "type": "uint64"
        }
      ],
      "name": "ProvisionParametersSet",
      "type": "event"
    },
    {
      "anonymous": false,
      "inputs": [
        {
          "indexed": true,
          "internalType": "address",
          "name": "serviceProvider",
          "type": "address"
        },
        {
          "indexed": true,
          "internalType": "address",
          "name": "verifier",
          "type": "address"
        },
        {
          "indexed": false,
          "internalType": "uint32",
          "name": "maxVerifierCut",
          "type": "uint32"
        },
        {
          "indexed": false,
          "internalType": "uint64",
          "name": "thawingPeriod",
          "type": "uint64"
        }
      ],
      "name": "ProvisionParametersStaged",
      "type": "event"
    },
    {
      "anonymous": false,
      "inputs": [
        {
          "indexed": true,
          "internalType": "address",
          "name": "serviceProvider",
          "type": "address"
        },
        {
          "indexed": true,
          "internalType": "address",
          "name": "verifier",
          "type": "address"
        },
        {
          "indexed": false,
          "internalType": "uint256",
          "name": "tokens",
          "type": "uint256"
        }
      ],
      "name": "ProvisionSlashed",
      "type": "event"
    },
    {
      "anonymous": false,
      "inputs": [
        {
          "indexed": true,
          "internalType": "address",
          "name": "serviceProvider",
          "type": "address"
        },
        {
          "indexed": true,
          "internalType": "address",
          "name": "verifier",
          "type": "address"
        },
        {
          "indexed": false,
          "internalType": "uint256",
          "name": "tokens",
          "type": "uint256"
        }
      ],
      "name": "ProvisionThawed",
      "type": "event"
    },
    {
      "anonymous": false,
      "inputs": [
        {
          "indexed": true,
          "internalType": "address",
          "name": "serviceProvider",
          "type": "address"
        },
        {
          "indexed": false,
          "internalType": "uint256",
          "name": "tokens",
          "type": "uint256"
        }
      ],
      "name": "StakeDeposited",
      "type": "event"
    },
    {
      "anonymous": false,
      "inputs": [
        {
          "indexed": true,
          "internalType": "address",
          "name": "serviceProvider",
          "type": "address"
        },
        {
          "indexed": false,
          "internalType": "uint256",
          "name": "tokens",
          "type": "uint256"
        },
        {
          "indexed": false,
          "internalType": "uint256",
          "name": "until",
          "type": "uint256"
        }
      ],
      "name": "StakeLocked",
      "type": "event"
    },
    {
      "anonymous": false,
      "inputs": [
        {
          "indexed": true,
          "internalType": "address",
          "name": "serviceProvider",
          "type": "address"
        },
        {
          "indexed": false,
          "internalType": "uint256",
          "name": "tokens",
          "type": "uint256"
        }
      ],
      "name": "StakeWithdrawn",
      "type": "event"
    },
    {
      "anonymous": false,
      "inputs": [
        {
          "indexed": true,
          "internalType": "address",
          "name": "serviceProvider",
          "type": "address"
        },
        {
          "indexed": true,
          "internalType": "address",
          "name": "verifier",
          "type": "address"
        },
        {
          "indexed": true,
          "internalType": "address",
          "name": "owner",
          "type": "address"
        },
        {
          "indexed": false,
          "internalType": "uint256",
          "name": "shares",
          "type": "uint256"
        },
        {
          "indexed": false,
          "internalType": "uint64",
          "name": "thawingUntil",
          "type": "uint64"
        },
        {
          "indexed": false,
          "internalType": "bytes32",
          "name": "thawRequestId",
          "type": "bytes32"
        }
      ],
      "name": "ThawRequestCreated",
      "type": "event"
    },
    {
      "anonymous": false,
      "inputs": [
        {
          "indexed": true,
          "internalType": "bytes32",
          "name": "thawRequestId",
          "type": "bytes32"
        },
        {
          "indexed": false,
          "internalType": "uint256",
          "name": "tokens",
          "type": "uint256"
        },
        {
          "indexed": false,
          "internalType": "uint256",
          "name": "shares",
          "type": "uint256"
        },
        {
          "indexed": false,
          "internalType": "uint64",
          "name": "thawingUntil",
          "type": "uint64"
        }
      ],
      "name": "ThawRequestFulfilled",
      "type": "event"
    },
    {
      "anonymous": false,
      "inputs": [
        {
          "indexed": true,
          "internalType": "address",
          "name": "serviceProvider",
          "type": "address"
        },
        {
          "indexed": true,
          "internalType": "address",
          "name": "verifier",
          "type": "address"
        },
        {
          "indexed": true,
          "internalType": "address",
          "name": "owner",
          "type": "address"
        },
        {
          "indexed": false,
          "internalType": "uint256",
          "name": "thawRequestsFulfilled",
          "type": "uint256"
        },
        {
          "indexed": false,
          "internalType": "uint256",
          "name": "tokens",
          "type": "uint256"
        }
      ],
      "name": "ThawRequestsFulfilled",
      "type": "event"
    },
    {
      "anonymous": false,
      "inputs": [],
      "name": "ThawingPeriodCleared",
      "type": "event"
    },
    {
      "anonymous": false,
      "inputs": [
        {
          "indexed": true,
          "internalType": "address",
          "name": "serviceProvider",
          "type": "address"
        },
        {
          "indexed": true,
          "internalType": "address",
          "name": "verifier",
          "type": "address"
        },
        {
          "indexed": true,
          "internalType": "address",
          "name": "delegator",
          "type": "address"
        },
        {
          "indexed": false,
          "internalType": "uint256",
          "name": "tokens",
          "type": "uint256"
        }
      ],
      "name": "TokensDelegated",
      "type": "event"
    },
    {
      "anonymous": false,
      "inputs": [
        {
          "indexed": true,
          "internalType": "address",
          "name": "serviceProvider",
          "type": "address"
        },
        {
          "indexed": true,
          "internalType": "address",
          "name": "verifier",
          "type": "address"
        },
        {
          "indexed": false,
          "internalType": "uint256",
          "name": "tokens",
          "type": "uint256"
        }
      ],
      "name": "TokensDeprovisioned",
      "type": "event"
    },
    {
      "anonymous": false,
      "inputs": [
        {
          "indexed": true,
          "internalType": "address",
          "name": "serviceProvider",
          "type": "address"
        },
        {
          "indexed": true,
          "internalType": "address",
          "name": "verifier",
          "type": "address"
        },
        {
          "indexed": false,
          "internalType": "uint256",
          "name": "tokens",
          "type": "uint256"
        }
      ],
      "name": "TokensToDelegationPoolAdded",
      "type": "event"
    },
    {
      "anonymous": false,
      "inputs": [
        {
          "indexed": true,
          "internalType": "address",
          "name": "serviceProvider",
          "type": "address"
        },
        {
          "indexed": true,
          "internalType": "address",
          "name": "verifier",
          "type": "address"
        },
        {
          "indexed": true,
          "internalType": "address",
          "name": "delegator",
          "type": "address"
        },
        {
          "indexed": false,
          "internalType": "uint256",
          "name": "tokens",
          "type": "uint256"
        }
      ],
      "name": "TokensUndelegated",
      "type": "event"
    },
    {
      "anonymous": false,
      "inputs": [
        {
          "indexed": true,
          "internalType": "address",
          "name": "serviceProvider",
          "type": "address"
        },
        {
          "indexed": true,
          "internalType": "address",
          "name": "verifier",
          "type": "address"
        },
        {
          "indexed": true,
          "internalType": "address",
          "name": "destination",
          "type": "address"
        },
        {
          "indexed": false,
          "internalType": "uint256",
          "name": "tokens",
          "type": "uint256"
        }
      ],
      "name": "VerifierTokensSent",
      "type": "event"
    },
    {
      "stateMutability": "nonpayable",
      "type": "fallback"
    },
    {
      "inputs": [
        {
          "internalType": "address",
          "name": "serviceProvider",
          "type": "address"
        }
      ],
      "name": "acceptProvisionParameters",
      "outputs": [],
      "stateMutability": "nonpayable",
      "type": "function"
    },
    {
      "inputs": [
        {
          "internalType": "contract IGraphProxy",
          "name": "_proxy",
          "type": "address"
        }
      ],
      "name": "acceptProxy",
      "outputs": [],
      "stateMutability": "nonpayable",
      "type": "function"
    },
    {
      "inputs": [
        {
          "internalType": "contract IGraphProxy",
          "name": "_proxy",
          "type": "address"
        },
        {
          "internalType": "bytes",
          "name": "_data",
          "type": "bytes"
        }
      ],
      "name": "acceptProxyAndCall",
      "outputs": [],
      "stateMutability": "nonpayable",
      "type": "function"
    },
    {
      "inputs": [
        {
          "internalType": "address",
          "name": "serviceProvider",
          "type": "address"
        },
        {
          "internalType": "address",
          "name": "verifier",
          "type": "address"
        },
        {
          "internalType": "uint256",
          "name": "tokens",
          "type": "uint256"
        }
      ],
      "name": "addToDelegationPool",
      "outputs": [],
      "stateMutability": "nonpayable",
      "type": "function"
    },
    {
      "inputs": [
        {
          "internalType": "address",
          "name": "serviceProvider",
          "type": "address"
        },
        {
          "internalType": "address",
          "name": "verifier",
          "type": "address"
        },
        {
          "internalType": "uint256",
          "name": "tokens",
          "type": "uint256"
        }
      ],
      "name": "addToProvision",
      "outputs": [],
      "stateMutability": "nonpayable",
      "type": "function"
    },
    {
      "inputs": [],
      "name": "clearThawingPeriod",
      "outputs": [],
      "stateMutability": "nonpayable",
      "type": "function"
    },
    {
      "inputs": [
        {
          "internalType": "address",
          "name": "serviceProvider",
          "type": "address"
        },
        {
          "internalType": "uint256",
          "name": "tokens",
          "type": "uint256"
        }
      ],
      "name": "delegate",
      "outputs": [],
      "stateMutability": "nonpayable",
      "type": "function"
    },
    {
      "inputs": [
        {
          "internalType": "address",
          "name": "serviceProvider",
          "type": "address"
        },
        {
          "internalType": "address",
          "name": "verifier",
          "type": "address"
        },
        {
          "internalType": "uint256",
          "name": "tokens",
          "type": "uint256"
        },
        {
          "internalType": "uint256",
          "name": "minSharesOut",
          "type": "uint256"
        }
      ],
      "name": "delegate",
      "outputs": [],
      "stateMutability": "nonpayable",
      "type": "function"
    },
    {
      "inputs": [
        {
          "internalType": "address",
          "name": "serviceProvider",
          "type": "address"
        },
        {
          "internalType": "address",
          "name": "verifier",
          "type": "address"
        },
        {
          "internalType": "uint256",
          "name": "nThawRequests",
          "type": "uint256"
        }
      ],
      "name": "deprovision",
      "outputs": [],
      "stateMutability": "nonpayable",
      "type": "function"
    },
    {
      "inputs": [
        {
          "internalType": "address",
          "name": "serviceProvider",
          "type": "address"
        },
        {
          "internalType": "address",
          "name": "verifier",
          "type": "address"
        }
      ],
      "name": "getDelegatedTokensAvailable",
      "outputs": [
        {
          "internalType": "uint256",
          "name": "",
          "type": "uint256"
        }
      ],
      "stateMutability": "view",
      "type": "function"
    },
    {
      "inputs": [
        {
          "internalType": "address",
          "name": "serviceProvider",
          "type": "address"
        },
        {
          "internalType": "address",
          "name": "verifier",
          "type": "address"
        },
        {
          "internalType": "address",
          "name": "delegator",
          "type": "address"
        }
      ],
      "name": "getDelegation",
      "outputs": [
        {
          "components": [
            {
              "internalType": "uint256",
              "name": "shares",
              "type": "uint256"
            }
          ],
          "internalType": "struct IHorizonStakingTypes.Delegation",
          "name": "",
          "type": "tuple"
        }
      ],
      "stateMutability": "view",
      "type": "function"
    },
    {
      "inputs": [
        {
          "internalType": "address",
          "name": "serviceProvider",
          "type": "address"
        },
        {
          "internalType": "address",
          "name": "verifier",
          "type": "address"
        },
        {
          "internalType": "enum IGraphPayments.PaymentTypes",
          "name": "paymentType",
          "type": "uint8"
        }
      ],
      "name": "getDelegationFeeCut",
      "outputs": [
        {
          "internalType": "uint256",
          "name": "",
          "type": "uint256"
        }
      ],
      "stateMutability": "view",
      "type": "function"
    },
    {
      "inputs": [
        {
          "internalType": "address",
          "name": "serviceProvider",
          "type": "address"
        },
        {
          "internalType": "address",
          "name": "verifier",
          "type": "address"
        }
      ],
      "name": "getDelegationPool",
      "outputs": [
        {
          "components": [
            {
              "internalType": "uint256",
              "name": "tokens",
              "type": "uint256"
            },
            {
              "internalType": "uint256",
              "name": "shares",
              "type": "uint256"
            },
            {
              "internalType": "uint256",
              "name": "tokensThawing",
              "type": "uint256"
            },
            {
              "internalType": "uint256",
              "name": "sharesThawing",
              "type": "uint256"
            }
          ],
          "internalType": "struct IHorizonStakingTypes.DelegationPool",
          "name": "",
          "type": "tuple"
        }
      ],
      "stateMutability": "view",
      "type": "function"
    },
    {
      "inputs": [
        {
          "internalType": "address",
          "name": "serviceProvider",
          "type": "address"
        }
      ],
      "name": "getIdleStake",
      "outputs": [
        {
          "internalType": "uint256",
          "name": "tokens",
          "type": "uint256"
        }
      ],
      "stateMutability": "view",
      "type": "function"
    },
    {
      "inputs": [],
      "name": "getMaxThawingPeriod",
      "outputs": [
        {
          "internalType": "uint64",
          "name": "",
          "type": "uint64"
        }
      ],
      "stateMutability": "view",
      "type": "function"
    },
    {
      "inputs": [
        {
          "internalType": "address",
          "name": "serviceProvider",
          "type": "address"
        },
        {
          "internalType": "address",
          "name": "verifier",
          "type": "address"
        }
      ],
      "name": "getProviderTokensAvailable",
      "outputs": [
        {
          "internalType": "uint256",
          "name": "",
          "type": "uint256"
        }
      ],
      "stateMutability": "view",
      "type": "function"
    },
    {
      "inputs": [
        {
          "internalType": "address",
          "name": "serviceProvider",
          "type": "address"
        },
        {
          "internalType": "address",
          "name": "verifier",
          "type": "address"
        }
      ],
      "name": "getProvision",
      "outputs": [
        {
          "components": [
            {
              "internalType": "uint256",
              "name": "tokens",
              "type": "uint256"
            },
            {
              "internalType": "uint256",
              "name": "tokensThawing",
              "type": "uint256"
            },
            {
              "internalType": "uint256",
              "name": "sharesThawing",
              "type": "uint256"
            },
            {
              "internalType": "uint32",
              "name": "maxVerifierCut",
              "type": "uint32"
            },
            {
              "internalType": "uint64",
              "name": "thawingPeriod",
              "type": "uint64"
            },
            {
              "internalType": "uint64",
              "name": "createdAt",
              "type": "uint64"
            },
            {
              "internalType": "uint32",
              "name": "maxVerifierCutPending",
              "type": "uint32"
            },
            {
              "internalType": "uint64",
              "name": "thawingPeriodPending",
              "type": "uint64"
            }
          ],
          "internalType": "struct IHorizonStakingTypes.Provision",
          "name": "",
          "type": "tuple"
        }
      ],
      "stateMutability": "view",
      "type": "function"
    },
    {
      "inputs": [
        {
          "internalType": "address",
          "name": "serviceProvider",
          "type": "address"
        }
      ],
      "name": "getServiceProvider",
      "outputs": [
        {
          "components": [
            {
              "internalType": "uint256",
              "name": "tokensStaked",
              "type": "uint256"
            },
            {
              "internalType": "uint256",
              "name": "tokensProvisioned",
              "type": "uint256"
            }
          ],
          "internalType": "struct IHorizonStakingTypes.ServiceProvider",
          "name": "",
          "type": "tuple"
        }
      ],
      "stateMutability": "view",
      "type": "function"
    },
    {
      "inputs": [
        {
          "internalType": "address",
          "name": "serviceProvider",
          "type": "address"
        }
      ],
      "name": "getStake",
      "outputs": [
        {
          "internalType": "uint256",
          "name": "",
          "type": "uint256"
        }
      ],
      "stateMutability": "view",
      "type": "function"
    },
    {
      "inputs": [
        {
          "internalType": "bytes32",
          "name": "thawRequestId",
          "type": "bytes32"
        }
      ],
      "name": "getThawRequest",
      "outputs": [
        {
          "components": [
            {
              "internalType": "uint256",
              "name": "shares",
              "type": "uint256"
            },
            {
              "internalType": "uint64",
              "name": "thawingUntil",
              "type": "uint64"
            },
            {
              "internalType": "bytes32",
              "name": "next",
              "type": "bytes32"
            }
          ],
          "internalType": "struct IHorizonStakingTypes.ThawRequest",
          "name": "",
          "type": "tuple"
        }
      ],
      "stateMutability": "view",
      "type": "function"
    },
    {
      "inputs": [
        {
          "internalType": "address",
          "name": "serviceProvider",
          "type": "address"
        },
        {
          "internalType": "address",
          "name": "verifier",
          "type": "address"
        },
        {
          "internalType": "address",
          "name": "owner",
          "type": "address"
        }
      ],
      "name": "getThawRequestList",
      "outputs": [
        {
          "components": [
            {
              "internalType": "bytes32",
              "name": "head",
              "type": "bytes32"
            },
            {
              "internalType": "bytes32",
              "name": "tail",
              "type": "bytes32"
            },
            {
              "internalType": "uint256",
              "name": "nonce",
              "type": "uint256"
            },
            {
              "internalType": "uint256",
              "name": "count",
              "type": "uint256"
            }
          ],
          "internalType": "struct LinkedList.List",
          "name": "",
          "type": "tuple"
        }
      ],
      "stateMutability": "view",
      "type": "function"
    },
    {
      "inputs": [
        {
          "internalType": "address",
          "name": "serviceProvider",
          "type": "address"
        },
        {
          "internalType": "address",
          "name": "verifier",
          "type": "address"
        },
        {
          "internalType": "address",
          "name": "owner",
          "type": "address"
        }
      ],
      "name": "getThawedTokens",
      "outputs": [
        {
          "internalType": "uint256",
          "name": "",
          "type": "uint256"
        }
      ],
      "stateMutability": "view",
      "type": "function"
    },
    {
      "inputs": [
        {
          "internalType": "address",
          "name": "serviceProvider",
          "type": "address"
        },
        {
          "internalType": "address",
          "name": "verifier",
          "type": "address"
        },
        {
          "internalType": "uint32",
          "name": "delegationRatio",
          "type": "uint32"
        }
      ],
      "name": "getTokensAvailable",
      "outputs": [
        {
          "internalType": "uint256",
          "name": "",
          "type": "uint256"
        }
      ],
      "stateMutability": "view",
      "type": "function"
    },
    {
      "inputs": [
        {
          "internalType": "address",
          "name": "verifier",
          "type": "address"
        }
      ],
      "name": "isAllowedLockedVerifier",
      "outputs": [
        {
          "internalType": "bool",
          "name": "",
          "type": "bool"
        }
      ],
      "stateMutability": "view",
      "type": "function"
    },
    {
      "inputs": [
        {
          "internalType": "address",
          "name": "operator",
          "type": "address"
        },
        {
          "internalType": "address",
          "name": "serviceProvider",
          "type": "address"
        },
        {
          "internalType": "address",
          "name": "verifier",
          "type": "address"
        }
      ],
      "name": "isAuthorized",
      "outputs": [
        {
          "internalType": "bool",
          "name": "",
          "type": "bool"
        }
      ],
      "stateMutability": "view",
      "type": "function"
    },
    {
      "inputs": [],
      "name": "isDelegationSlashingEnabled",
      "outputs": [
        {
          "internalType": "bool",
          "name": "",
          "type": "bool"
        }
      ],
      "stateMutability": "view",
      "type": "function"
    },
    {
      "inputs": [
        {
          "internalType": "bytes[]",
          "name": "data",
          "type": "bytes[]"
        }
      ],
      "name": "multicall",
      "outputs": [
        {
          "internalType": "bytes[]",
          "name": "results",
          "type": "bytes[]"
        }
      ],
      "stateMutability": "nonpayable",
      "type": "function"
    },
    {
      "inputs": [
        {
          "internalType": "address",
          "name": "serviceProvider",
          "type": "address"
        },
        {
          "internalType": "address",
          "name": "verifier",
          "type": "address"
        },
        {
          "internalType": "uint256",
          "name": "tokens",
          "type": "uint256"
        },
        {
          "internalType": "uint32",
          "name": "maxVerifierCut",
          "type": "uint32"
        },
        {
          "internalType": "uint64",
          "name": "thawingPeriod",
          "type": "uint64"
        }
      ],
      "name": "provision",
      "outputs": [],
      "stateMutability": "nonpayable",
      "type": "function"
    },
    {
      "inputs": [
        {
          "internalType": "address",
          "name": "serviceProvider",
          "type": "address"
        },
        {
          "internalType": "address",
          "name": "verifier",
          "type": "address"
        },
        {
          "internalType": "uint256",
          "name": "tokens",
          "type": "uint256"
        },
        {
          "internalType": "uint32",
          "name": "maxVerifierCut",
          "type": "uint32"
        },
        {
          "internalType": "uint64",
          "name": "thawingPeriod",
          "type": "uint64"
        }
      ],
      "name": "provisionLocked",
      "outputs": [],
      "stateMutability": "nonpayable",
      "type": "function"
    },
    {
      "inputs": [
        {
          "internalType": "address",
          "name": "serviceProvider",
          "type": "address"
        },
        {
          "internalType": "address",
          "name": "oldVerifier",
          "type": "address"
        },
        {
          "internalType": "address",
          "name": "newVerifier",
          "type": "address"
        },
        {
          "internalType": "uint256",
          "name": "tokens",
          "type": "uint256"
        },
        {
          "internalType": "uint256",
          "name": "nThawRequests",
          "type": "uint256"
        }
      ],
      "name": "reprovision",
      "outputs": [],
      "stateMutability": "nonpayable",
      "type": "function"
    },
    {
      "inputs": [
        {
          "internalType": "address",
          "name": "verifier",
          "type": "address"
        },
        {
          "internalType": "bool",
          "name": "allowed",
          "type": "bool"
        }
      ],
      "name": "setAllowedLockedVerifier",
      "outputs": [],
      "stateMutability": "nonpayable",
      "type": "function"
    },
    {
      "inputs": [
        {
          "internalType": "address",
          "name": "serviceProvider",
          "type": "address"
        },
        {
          "internalType": "address",
          "name": "verifier",
          "type": "address"
        },
        {
          "internalType": "enum IGraphPayments.PaymentTypes",
          "name": "paymentType",
          "type": "uint8"
        },
        {
          "internalType": "uint256",
          "name": "feeCut",
          "type": "uint256"
        }
      ],
      "name": "setDelegationFeeCut",
      "outputs": [],
      "stateMutability": "nonpayable",
      "type": "function"
    },
    {
      "inputs": [],
      "name": "setDelegationSlashingEnabled",
      "outputs": [],
      "stateMutability": "nonpayable",
      "type": "function"
    },
    {
      "inputs": [
        {
          "internalType": "uint64",
          "name": "maxThawingPeriod",
          "type": "uint64"
        }
      ],
      "name": "setMaxThawingPeriod",
      "outputs": [],
      "stateMutability": "nonpayable",
      "type": "function"
    },
    {
      "inputs": [
        {
          "internalType": "address",
          "name": "operator",
          "type": "address"
        },
        {
          "internalType": "address",
          "name": "verifier",
          "type": "address"
        },
        {
          "internalType": "bool",
          "name": "allowed",
          "type": "bool"
        }
      ],
      "name": "setOperator",
      "outputs": [],
      "stateMutability": "nonpayable",
      "type": "function"
    },
    {
      "inputs": [
        {
          "internalType": "address",
          "name": "operator",
          "type": "address"
        },
        {
          "internalType": "address",
          "name": "verifier",
          "type": "address"
        },
        {
          "internalType": "bool",
          "name": "allowed",
          "type": "bool"
        }
      ],
      "name": "setOperatorLocked",
      "outputs": [],
      "stateMutability": "nonpayable",
      "type": "function"
    },
    {
      "inputs": [
        {
          "internalType": "address",
          "name": "serviceProvider",
          "type": "address"
        },
        {
          "internalType": "address",
          "name": "verifier",
          "type": "address"
        },
        {
          "internalType": "uint32",
          "name": "maxVerifierCut",
          "type": "uint32"
        },
        {
          "internalType": "uint64",
          "name": "thawingPeriod",
          "type": "uint64"
        }
      ],
      "name": "setProvisionParameters",
      "outputs": [],
      "stateMutability": "nonpayable",
      "type": "function"
    },
    {
      "inputs": [
        {
          "internalType": "address",
          "name": "serviceProvider",
          "type": "address"
        },
        {
          "internalType": "uint256",
          "name": "tokens",
          "type": "uint256"
        },
        {
          "internalType": "uint256",
          "name": "tokensVerifier",
          "type": "uint256"
        },
        {
          "internalType": "address",
          "name": "verifierDestination",
          "type": "address"
        }
      ],
      "name": "slash",
      "outputs": [],
      "stateMutability": "nonpayable",
      "type": "function"
    },
    {
      "inputs": [
        {
          "internalType": "uint256",
          "name": "tokens",
          "type": "uint256"
        }
      ],
      "name": "stake",
      "outputs": [],
      "stateMutability": "nonpayable",
      "type": "function"
    },
    {
      "inputs": [
        {
          "internalType": "address",
          "name": "serviceProvider",
          "type": "address"
        },
        {
          "internalType": "uint256",
          "name": "tokens",
          "type": "uint256"
        }
      ],
      "name": "stakeTo",
      "outputs": [],
      "stateMutability": "nonpayable",
      "type": "function"
    },
    {
      "inputs": [
        {
          "internalType": "address",
          "name": "serviceProvider",
          "type": "address"
        },
        {
          "internalType": "address",
          "name": "verifier",
          "type": "address"
        },
        {
          "internalType": "uint256",
          "name": "tokens",
          "type": "uint256"
        }
      ],
      "name": "stakeToProvision",
      "outputs": [],
      "stateMutability": "nonpayable",
      "type": "function"
    },
    {
      "inputs": [
        {
          "internalType": "address",
          "name": "serviceProvider",
          "type": "address"
        },
        {
          "internalType": "address",
          "name": "verifier",
          "type": "address"
        },
        {
          "internalType": "uint256",
          "name": "tokens",
          "type": "uint256"
        }
      ],
      "name": "thaw",
      "outputs": [
        {
          "internalType": "bytes32",
          "name": "",
          "type": "bytes32"
        }
      ],
      "stateMutability": "nonpayable",
      "type": "function"
    },
    {
      "inputs": [
        {
          "internalType": "address",
          "name": "serviceProvider",
          "type": "address"
        },
        {
          "internalType": "uint256",
          "name": "shares",
          "type": "uint256"
        }
      ],
      "name": "undelegate",
      "outputs": [],
      "stateMutability": "nonpayable",
      "type": "function"
    },
    {
      "inputs": [
        {
          "internalType": "address",
          "name": "serviceProvider",
          "type": "address"
        },
        {
          "internalType": "address",
          "name": "verifier",
          "type": "address"
        },
        {
          "internalType": "uint256",
          "name": "shares",
          "type": "uint256"
        }
      ],
      "name": "undelegate",
      "outputs": [
        {
          "internalType": "bytes32",
          "name": "",
          "type": "bytes32"
        }
      ],
      "stateMutability": "nonpayable",
      "type": "function"
    },
    {
      "inputs": [
        {
          "internalType": "uint256",
          "name": "tokens",
          "type": "uint256"
        }
      ],
      "name": "unstake",
      "outputs": [],
      "stateMutability": "nonpayable",
      "type": "function"
    },
    {
      "inputs": [],
      "name": "withdraw",
      "outputs": [],
      "stateMutability": "nonpayable",
      "type": "function"
    },
    {
      "inputs": [
        {
          "internalType": "address",
          "name": "serviceProvider",
          "type": "address"
        },
        {
          "internalType": "address",
          "name": "newServiceProvider",
          "type": "address"
        }
      ],
      "name": "withdrawDelegated",
      "outputs": [],
      "stateMutability": "nonpayable",
      "type": "function"
    },
    {
      "inputs": [
        {
          "internalType": "address",
          "name": "serviceProvider",
          "type": "address"
        },
        {
          "internalType": "address",
          "name": "verifier",
          "type": "address"
        },
        {
          "internalType": "address",
          "name": "newServiceProvider",
          "type": "address"
        },
        {
          "internalType": "uint256",
          "name": "minSharesForNewProvider",
          "type": "uint256"
        },
        {
          "internalType": "uint256",
          "name": "nThawRequests",
          "type": "uint256"
        }
      ],
      "name": "withdrawDelegated",
      "outputs": [],
      "stateMutability": "nonpayable",
      "type": "function"
    },
    {
      "stateMutability": "payable",
      "type": "receive"
    }
  ],
  "bytecode": "0x61020060405234801561001157600080fd5b50604051615b2c380380615b2c8339810160408190526100309161041b565b828181806001600160a01b03811661007d5760405163218f5add60e11b815260206004820152600a60248201526921b7b73a3937b63632b960b11b60448201526064015b60405180910390fd5b6001600160a01b0381166101005260408051808201909152600a81526923b930b8342a37b5b2b760b11b60208201526100b590610351565b6001600160a01b03166080526040805180820190915260078152665374616b696e6760c81b60208201526100e890610351565b6001600160a01b031660a05260408051808201909152600d81526c47726170685061796d656e747360981b602082015261012190610351565b6001600160a01b031660c05260408051808201909152600e81526d5061796d656e7473457363726f7760901b602082015261015b90610351565b6001600160a01b031660e05260408051808201909152600c81526b22b837b1b426b0b730b3b2b960a11b602082015261019390610351565b6001600160a01b03166101205260408051808201909152600e81526d2932bbb0b93239a6b0b730b3b2b960911b60208201526101ce90610351565b6001600160a01b0316610140526040805180820190915260118152704772617068546f6b656e4761746577617960781b602082015261020c90610351565b6001600160a01b03166101605260408051808201909152600f81526e23b930b834283937bc3ca0b236b4b760891b602082015261024890610351565b6001600160a01b03166101805260408051808201909152600881526721bab930ba34b7b760c11b602082015261027d90610351565b6001600160a01b039081166101a08190526101005160a05160805160c05160e05161012051610140516101605161018051604051988b169a9788169996909716977fef5021414834d86e36470f5c1cecf6544fb2bb723f2ca51a4c86fcd8c5919a43976103279790916001600160a01b03978816815295871660208701529386166040860152918516606085015284166080840152831660a083015290911660c082015260e00190565b60405180910390a450506001600160a01b039081166101c052929092166101e052506104ce915050565b600080610100516001600160a01b031663f7641a5e84805190602001206040518263ffffffff1660e01b815260040161038c91815260200190565b602060405180830381865afa1580156103a9573d6000803e3d6000fd5b505050506040513d601f19601f820116820180604052508101906103cd919061045e565b9050826001600160a01b0382166103f85760405163218f5add60e11b81526004016100749190610480565b5092915050565b80516001600160a01b038116811461041657600080fd5b919050565b60008060006060848603121561043057600080fd5b610439846103ff565b9250610447602085016103ff565b9150610455604085016103ff565b90509250925092565b60006020828403121561047057600080fd5b610479826103ff565b9392505050565b602081526000825180602084015260005b818110156104ae5760208186018101516040868401015201610491565b506000604082850101526040601f19601f83011684010191505092915050565b60805160a05160c05160e05161010051610120516101405161016051610180516101a0516101c0516101e0516155836105a960003960006102fb015260008181610dbf015281816115b60152818161166801528181612f5401528181613e120152614172015260005050600050506000505060005050600050506000612f0d015260005050600050506000505060008181610d89015281816117cd015281816125b2015281816128c80152818161295f01528181612ac00152818161380b015281816139cb01528181613d88015261401e01526155836000f3fe6080604052600436106102975760003560e01c80638cc01c861161015a578063b7ca7241116100c1578063ee6a17441161007a578063ee6a174414610b5a578063ef58bd6714610b7a578063f93f1cd014610b8f578063fb744cc014610baf578063fc54fb2714610bcf578063fecc9cc114610be7576102e9565b8063b7ca724114610a1c578063bc735d9014610ab6578063ca94b0e914610ad6578063ccebcabb14610af6578063e473522a14610b25578063e76fede614610b3a576102e9565b8063a2a3172211610113578063a2a3172214610936578063a694fc3a14610956578063a784d49814610976578063ac9650d814610996578063ad4d35b5146109c3578063ae4fe67a146109e3576102e9565b80638cc01c86146107985780639054e343146108195780639ce7abe514610839578063a02b942614610859578063a212daf814610879578063a2594d8214610916576102e9565b80634d99dd16116101fe5780637573ef4f116101b75780637573ef4f146106b25780637a766460146106d25780637c145cc71461070857806381e21b561461073857806382d66cb814610758578063872d048914610778576102e9565b80634d99dd16146105bf57806351a60b02146105df578063561285e4146105ff5780636230001a1461065257806372f2c2b5146106725780637461209214610692576102e9565b80632e17de78116102505780632e17de781461050257806339514ad2146105225780633a78b7321461054a5780633ccfd60b1461056a57806342c516931461057f5780634ca7ac221461059f576102e9565b8063010167e51461033f578063026e402b1461035f57806308ce5f681461037f57806321195373146103b2578063259bc435146103d257806325d9897e146103f2576102e9565b366102e95760405162461bcd60e51b815260206004820152601760248201527f524543454956455f4554485f4e4f545f414c4c4f57454400000000000000000060448201526064015b60405180910390fd5b3480156102f557600080fd5b506040517f00000000000000000000000000000000000000000000000000000000000000009036600082376000803683855af43d806000843e818015610339578184f35b8184fd5b005b34801561034b57600080fd5b5061033d61035a366004614caf565b610c07565b34801561036b57600080fd5b5061033d61037a366004614d11565b610cda565b34801561038b57600080fd5b5061039f61039a366004614d3d565b610dea565b6040519081526020015b60405180910390f35b3480156103be57600080fd5b5061033d6103cd366004614d76565b610dff565b3480156103de57600080fd5b5061033d6103ed366004614db7565b610ece565b3480156103fe57600080fd5b506104f561040d366004614d3d565b6040805161010081018252600080825260208201819052918101829052606081018290526080810182905260a0810182905260c0810182905260e0810191909152506001600160a01b039182166000908152601b602090815260408083209390941682529182528290208251610100810184528154815260018201549281019290925260028101549282019290925260039091015463ffffffff808216606084015264010000000082046001600160401b039081166080850152600160601b8304811660a0850152600160a01b830490911660c0840152600160c01b9091041660e082015290565b6040516103a99190614dd2565b34801561050e57600080fd5b5061033d61051d366004614e62565b610fbd565b34801561052e57600080fd5b50601a546040516001600160401b0390911681526020016103a9565b34801561055657600080fd5b5061033d610565366004614e7b565b611050565b34801561057657600080fd5b5061033d6111ec565b34801561058b57600080fd5b5061033d61059a366004614ea7565b61127e565b3480156105ab57600080fd5b5061033d6105ba366004614f04565b61142f565b3480156105cb57600080fd5b5061033d6105da366004614d11565b611529565b3480156105eb57600080fd5b5061033d6105fa366004614d3d565b6115db565b34801561060b57600080fd5b5061061f61061a366004614d3d565b611690565b6040516103a991908151815260208083015190820152604080830151908201526060918201519181019190915260800190565b34801561065e57600080fd5b5061033d61066d366004614f32565b61171e565b34801561067e57600080fd5b5061033d61068d366004614f78565b611803565b34801561069e57600080fd5b5061033d6106ad366004614d76565b611917565b3480156106be57600080fd5b5061039f6106cd366004614fd3565b6119b3565b3480156106de57600080fd5b5061039f6106ed366004614e7b565b6001600160a01b03166000908152600e602052604090205490565b34801561071457600080fd5b5061072861072336600461501a565b611a17565b60405190151581526020016103a9565b34801561074457600080fd5b5061033d610753366004615065565b611a2c565b34801561076457600080fd5b5061033d610773366004614caf565b611c38565b34801561078457600080fd5b5061039f6107933660046150bd565b611d49565b3480156107a457600080fd5b506107fe6107b3366004614e7b565b60408051808201825260008082526020918201819052825180840184528181528083018281526001600160a01b03959095168252600e90925291909120805482526004015490915290565b604080518251815260209283015192810192909252016103a9565b34801561082557600080fd5b5061039f61083436600461501a565b611d9e565b34801561084557600080fd5b5061033d6108543660046150fb565b611e86565b34801561086557600080fd5b5061039f610874366004614d76565b611fb1565b34801561088557600080fd5b5061061f61089436600461501a565b60408051608080820183526000808352602080840182905283850182905260609384018290526001600160a01b039788168252601e815284822096881682529586528381209490961686529284529381902081519283018252805483526001810154938301939093526002830154908201526003909101549181019190915290565b34801561092257600080fd5b5061033d610931366004614e7b565b612045565b34801561094257600080fd5b5061033d610951366004614d11565b612161565b34801561096257600080fd5b5061033d610971366004614e62565b6121f2565b34801561098257600080fd5b5061039f610991366004614e7b565b612283565b3480156109a257600080fd5b506109b66109b1366004615180565b61228e565b6040516103a99190615219565b3480156109cf57600080fd5b5061033d6109de366004615299565b612375565b3480156109ef57600080fd5b506107286109fe366004614e7b565b6001600160a01b031660009081526022602052604090205460ff1690565b348015610a2857600080fd5b50610a8b610a37366004614e62565b604080516060808201835260008083526020808401829052928401819052938452601d825292829020825193840183528054845260018101546001600160401b031691840191909152600201549082015290565b60408051825181526020808401516001600160401b03169082015291810151908201526060016103a9565b348015610ac257600080fd5b5061033d610ad1366004615299565b61244e565b348015610ae257600080fd5b5061033d610af1366004614d76565b6124e0565b348015610b0257600080fd5b50610b16610b1136600461501a565b612629565b604051905181526020016103a9565b348015610b3157600080fd5b5061033d61267b565b348015610b4657600080fd5b5061033d610b553660046152d9565b61274d565b348015610b6657600080fd5b5061033d610b75366004614f78565b612bf3565b348015610b8657600080fd5b5061033d612c87565b348015610b9b57600080fd5b5061039f610baa366004614d76565b612d63565b348015610bbb57600080fd5b5061039f610bca366004614d3d565b612e37565b348015610bdb57600080fd5b5060205460ff16610728565b348015610bf357600080fd5b5061033d610c02366004614d76565b612e43565b610c0f612f0b565b6001600160a01b0316635c975abb6040518163ffffffff1660e01b8152600401602060405180830381865afa158015610c4c573d6000803e3d6000fd5b505050506040513d601f19601f82011682018060405250810190610c709190615323565b15610c8e57604051632b37d9d160e21b815260040160405180910390fd5b8484610c9b338383612f2f565b338383909192610cc157604051630c76b97b60e41b81526004016102e093929190615340565b505050610cd18786888787612ff3565b50505050505050565b610ce2612f0b565b6001600160a01b0316635c975abb6040518163ffffffff1660e01b8152600401602060405180830381865afa158015610d1f573d6000803e3d6000fd5b505050506040513d601f19601f82011682018060405250810190610d439190615323565b15610d6157604051632b37d9d160e21b815260040160405180910390fd5b80600003610d8257604051630a2a4e5b60e11b815260040160405180910390fd5b610db933827f00000000000000000000000000000000000000000000000000000000000000005b6001600160a01b03169190613369565b610de6827f0000000000000000000000000000000000000000000000000000000000000000836000613421565b5050565b6000610df68383613656565b90505b92915050565b8282610e0c338383612f2f565b338383909192610e3257604051630c76b97b60e41b81526004016102e093929190615340565b505050610e3d612f0b565b6001600160a01b0316635c975abb6040518163ffffffff1660e01b8152600401602060405180830381865afa158015610e7a573d6000803e3d6000fd5b505050506040513d601f19601f82011682018060405250810190610e9e9190615323565b15610ebc57604051632b37d9d160e21b815260040160405180910390fd5b610ec785858561368e565b5050505050565b610ed6612f0b565b6001600160a01b0316634fc07d756040518163ffffffff1660e01b8152600401602060405180830381865afa158015610f13573d6000803e3d6000fd5b505050506040513d601f19601f82011682018060405250810190610f379190615363565b6001600160a01b0316336001600160a01b031614610f6857604051635d9044cd60e01b815260040160405180910390fd5b601a805467ffffffffffffffff19166001600160401b0383169081179091556040519081527fe8526be46fa99b6313d439293c9be3491ffb067741bc8fce9d30c270cbb8459f9060200160405180910390a150565b610fc5612f0b565b6001600160a01b0316635c975abb6040518163ffffffff1660e01b8152600401602060405180830381865afa158015611002573d6000803e3d6000fd5b505050506040513d601f19601f820116820180604052508101906110269190615323565b1561104457604051632b37d9d160e21b815260040160405180910390fd5b61104d8161376b565b50565b611058612f0b565b6001600160a01b0316635c975abb6040518163ffffffff1660e01b8152600401602060405180830381865afa158015611095573d6000803e3d6000fd5b505050506040513d601f19601f820116820180604052508101906110b99190615323565b156110d757604051632b37d9d160e21b815260040160405180910390fd5b6001600160a01b0381166000908152601b602090815260408083203380855292529091206003810154600160a01b810463ffffffff908116911614158061113d57506003810154600160c01b81046001600160401b039081166401000000009092041614155b156111e7576003810180546401000000006001600160401b03600160c01b63ffffffff19841663ffffffff600160a01b8604811691821792909204831684026bffffffffffffffffffffffff199095161793909317938490556040805193851684529190930490921660208201526001600160a01b0384811692908616917fa4c005afae9298a5ca51e7710c334ac406fb3d914588ade970850f917cedb1c6910160405180910390a35b505050565b6111f4612f0b565b6001600160a01b0316635c975abb6040518163ffffffff1660e01b8152600401602060405180830381865afa158015611231573d6000803e3d6000fd5b505050506040513d601f19601f820116820180604052508101906112559190615323565b1561127357604051632b37d9d160e21b815260040160405180910390fd5b61127c3361393e565b565b611286612f0b565b6001600160a01b0316635c975abb6040518163ffffffff1660e01b8152600401602060405180830381865afa1580156112c3573d6000803e3d6000fd5b505050506040513d601f19601f820116820180604052508101906112e79190615323565b1561130557604051632b37d9d160e21b815260040160405180910390fd5b8383611312338383612f2f565b33838390919261133857604051630c76b97b60e41b81526004016102e093929190615340565b50505061134883620f4240101590565b839061136a57604051631504950160e21b81526004016102e091815260200190565b506001600160a01b038087166000908152601c60209081526040808320938916835292905290812084918660028111156113a6576113a6615380565b60028111156113b7576113b7615380565b81526020810191909152604001600020558360028111156113da576113da615380565b856001600160a01b0316876001600160a01b03167f3474eba30406cacbfbc5a596a7e471662bbcccf206f8d244dbb6f4cc578c52208660405161141f91815260200190565b60405180910390a4505050505050565b611437612f0b565b6001600160a01b0316634fc07d756040518163ffffffff1660e01b8152600401602060405180830381865afa158015611474573d6000803e3d6000fd5b505050506040513d601f19601f820116820180604052508101906114989190615363565b6001600160a01b0316336001600160a01b0316146114c957604051635d9044cd60e01b815260040160405180910390fd5b6001600160a01b038216600081815260226020908152604091829020805460ff191685151590811790915591519182527f4542960abc7f2d26dab244fc440acf511e3dd0f5cefad571ca802283b4751bbb91015b60405180910390a25050565b611531612f0b565b6001600160a01b0316635c975abb6040518163ffffffff1660e01b8152600401602060405180830381865afa15801561156e573d6000803e3d6000fd5b505050506040513d601f19601f820116820180604052508101906115929190615323565b156115b057604051632b37d9d160e21b815260040160405180910390fd5b6111e7827f000000000000000000000000000000000000000000000000000000000000000083613a37565b6115e3612f0b565b6001600160a01b0316635c975abb6040518163ffffffff1660e01b8152600401602060405180830381865afa158015611620573d6000803e3d6000fd5b505050506040513d601f19601f820116820180604052508101906116449190615323565b1561166257604051632b37d9d160e21b815260040160405180910390fd5b610de6827f000000000000000000000000000000000000000000000000000000000000000083600080613cc8565b6116bb6040518060800160405280600081526020016000815260200160008152602001600081525090565b6116e66040518060800160405280600081526020016000815260200160008152602001600081525090565b60006116f28585613e0e565b600281015483526003810154602084015260058101546040840152600601546060830152509392505050565b611726612f0b565b6001600160a01b0316635c975abb6040518163ffffffff1660e01b8152600401602060405180830381865afa158015611763573d6000803e3d6000fd5b505050506040513d601f19601f820116820180604052508101906117879190615323565b156117a557604051632b37d9d160e21b815260040160405180910390fd5b816000036117c657604051630a2a4e5b60e11b815260040160405180910390fd5b6117f133837f0000000000000000000000000000000000000000000000000000000000000000610da9565b6117fd84848484613421565b50505050565b61180b612f0b565b6001600160a01b0316635c975abb6040518163ffffffff1660e01b8152600401602060405180830381865afa158015611848573d6000803e3d6000fd5b505050506040513d601f19601f8201168201806040525081019061186c9190615323565b1561188a57604051632b37d9d160e21b815260040160405180910390fd5b8484611897338383612f2f565b3383839091926118bd57604051630c76b97b60e41b81526004016102e093929190615340565b50505086856118cd338383612f2f565b3383839091926118f357604051630c76b97b60e41b81526004016102e093929190615340565b50505061190189898761368e565b61190c898888613e92565b505050505050505050565b61191f612f0b565b6001600160a01b0316635c975abb6040518163ffffffff1660e01b8152600401602060405180830381865afa15801561195c573d6000803e3d6000fd5b505050506040513d601f19601f820116820180604052508101906119809190615323565b1561199e57604051632b37d9d160e21b815260040160405180910390fd5b6119a88382613ff6565b6111e7838383613e92565b6001600160a01b038084166000908152601c602090815260408083209386168352929052908120818360028111156119ed576119ed615380565b60028111156119fe576119fe615380565b81526020019081526020016000205490505b9392505050565b6000611a24848484612f2f565b949350505050565b611a34612f0b565b6001600160a01b0316635c975abb6040518163ffffffff1660e01b8152600401602060405180830381865afa158015611a71573d6000803e3d6000fd5b505050506040513d601f19601f82011682018060405250810190611a959190615323565b15611ab357604051632b37d9d160e21b815260040160405180910390fd5b8383611ac0338383612f2f565b338383909192611ae657604051630c76b97b60e41b81526004016102e093929190615340565b5050506001600160a01b038681166000908152601b60209081526040808320938916835292905220600381015487908790600160601b90046001600160401b0316611b57576040516330acea0d60e11b81526001600160a01b039283166004820152911660248201526044016102e0565b5050600381015463ffffffff868116600160a01b90920416141580611b93575060038101546001600160401b03858116600160c01b9092041614155b15610cd1576003810180546001600160401b038616600160c01b026001600160c01b0363ffffffff8916600160a01b02166001600160a01b039283161717909155604051878216918916907fe89cbb9d63ba60af555547b12dde6817283e88cbdd45feb2059f2ba71ea346ba90611c27908990899063ffffffff9290921682526001600160401b0316602082015260400190565b60405180910390a350505050505050565b611c40612f0b565b6001600160a01b0316635c975abb6040518163ffffffff1660e01b8152600401602060405180830381865afa158015611c7d573d6000803e3d6000fd5b505050506040513d601f19601f82011682018060405250810190611ca19190615323565b15611cbf57604051632b37d9d160e21b815260040160405180910390fd5b8484611ccc338383612f2f565b338383909192611cf257604051630c76b97b60e41b81526004016102e093929190615340565b5050506001600160a01b038616600090815260226020526040902054869060ff16611d3b57604051622920f760e21b81526001600160a01b0390911660048201526024016102e0565b50610cd18786888787612ff3565b600080611d568585613656565b90506000611d64868661404c565b90506000611d7863ffffffff8616846153ac565b90506000611d86838361406f565b9050611d9281856153c3565b98975050505050505050565b6001600160a01b038084166000908152601e6020908152604080832086851684528252808320938516835292905290812060038101548203611de4576000915050611a10565b6001600160a01b038086166000908152601b60209081526040808320938816835292905290812082545b8015611e7a576000818152601d602052604090206001810154426001600160401b0390911611611e6957600283015460018401548254611e4e91906153ac565b611e5891906153d6565b611e6290856153c3565b9350611e6f565b50611e7a565b600201549050611e0e565b50909695505050505050565b82806001600160a01b031663f851a4406040518163ffffffff1660e01b81526004016020604051808303816000875af1158015611ec7573d6000803e3d6000fd5b505050506040513d601f19601f82011682018060405250810190611eeb9190615363565b6001600160a01b0316336001600160a01b031614611f4b5760405162461bcd60e51b815260206004820152601e60248201527f43616c6c6572206d757374206265207468652070726f78792061646d696e000060448201526064016102e0565b60405163623faf6160e01b81526001600160a01b0385169063623faf6190611f7990869086906004016153f8565b600060405180830381600087803b158015611f9357600080fd5b505af1158015611fa7573d6000803e3d6000fd5b5050505050505050565b6000611fbb612f0b565b6001600160a01b0316635c975abb6040518163ffffffff1660e01b8152600401602060405180830381865afa158015611ff8573d6000803e3d6000fd5b505050506040513d601f19601f8201168201806040525081019061201c9190615323565b1561203a57604051632b37d9d160e21b815260040160405180910390fd5b611a24848484613a37565b80806001600160a01b031663f851a4406040518163ffffffff1660e01b81526004016020604051808303816000875af1158015612086573d6000803e3d6000fd5b505050506040513d601f19601f820116820180604052508101906120aa9190615363565b6001600160a01b0316336001600160a01b03161461210a5760405162461bcd60e51b815260206004820152601e60248201527f43616c6c6572206d757374206265207468652070726f78792061646d696e000060448201526064016102e0565b816001600160a01b03166359fc20bb6040518163ffffffff1660e01b8152600401600060405180830381600087803b15801561214557600080fd5b505af1158015612159573d6000803e3d6000fd5b505050505050565b612169612f0b565b6001600160a01b0316635c975abb6040518163ffffffff1660e01b8152600401602060405180830381865afa1580156121a6573d6000803e3d6000fd5b505050506040513d601f19601f820116820180604052508101906121ca9190615323565b156121e857604051632b37d9d160e21b815260040160405180910390fd5b610de68282613ff6565b6121fa612f0b565b6001600160a01b0316635c975abb6040518163ffffffff1660e01b8152600401602060405180830381865afa158015612237573d6000803e3d6000fd5b505050506040513d601f19601f8201168201806040525081019061225b9190615323565b1561227957604051632b37d9d160e21b815260040160405180910390fd5b61104d3382613ff6565b6000610df982614086565b604080516000815260208101909152606090826001600160401b038111156122b8576122b861543a565b6040519080825280602002602001820160405280156122eb57816020015b60608152602001906001900390816122d65790505b50915060005b8381101561236d576123483086868481811061230f5761230f615450565b90506020028101906123219190615466565b85604051602001612334939291906154ac565b6040516020818303038152906040526140d1565b83828151811061235a5761235a615450565b60209081029190910101526001016122f1565b505092915050565b61237d612f0b565b6001600160a01b0316635c975abb6040518163ffffffff1660e01b8152600401602060405180830381865afa1580156123ba573d6000803e3d6000fd5b505050506040513d601f19601f820116820180604052508101906123de9190615323565b156123fc57604051632b37d9d160e21b815260040160405180910390fd5b6001600160a01b038216600090815260226020526040902054829060ff1661244257604051622920f760e21b81526001600160a01b0390911660048201526024016102e0565b506111e7838383614147565b612456612f0b565b6001600160a01b0316635c975abb6040518163ffffffff1660e01b8152600401602060405180830381865afa158015612493573d6000803e3d6000fd5b505050506040513d601f19601f820116820180604052508101906124b79190615323565b156124d557604051632b37d9d160e21b815260040160405180910390fd5b6111e7838383614147565b6124e8612f0b565b6001600160a01b0316635c975abb6040518163ffffffff1660e01b8152600401602060405180830381865afa158015612525573d6000803e3d6000fd5b505050506040513d601f19601f820116820180604052508101906125499190615323565b1561256757604051632b37d9d160e21b815260040160405180910390fd5b8060000361258857604051630a2a4e5b60e11b815260040160405180910390fd5b60006125948484613e0e565b90508181600201546125a691906153c3565b60028201556125d633837f0000000000000000000000000000000000000000000000000000000000000000610da9565b826001600160a01b0316846001600160a01b03167f673007a04e501145e79f59aea5e0413b6e88344fdaf10326254530d6a15115308460405161261b91815260200190565b60405180910390a350505050565b60408051602081019091526000815260408051602081019091526000815260006126538686613e0e565b6001600160a01b03851660009081526004909101602052604090205482525090509392505050565b612683612f0b565b6001600160a01b0316634fc07d756040518163ffffffff1660e01b8152600401602060405180830381865afa1580156126c0573d6000803e3d6000fd5b505050506040513d601f19601f820116820180604052508101906126e49190615363565b6001600160a01b0316336001600160a01b03161461271557604051635d9044cd60e01b815260040160405180910390fd5b600d805463ffffffff191690556040517f93be484d290d119d9cf99cce69d173c732f9403333ad84f69c807b590203d10990600090a1565b612755612f0b565b6001600160a01b0316635c975abb6040518163ffffffff1660e01b8152600401602060405180830381865afa158015612792573d6000803e3d6000fd5b505050506040513d601f19601f820116820180604052508101906127b69190615323565b156127d457604051632b37d9d160e21b815260040160405180910390fd5b6001600160a01b0384166000908152601b60209081526040808320338085529252822090916128038784613e0e565b905060008160020154836000015461281b91906153c3565b90508087816128465760405163587ab9ab60e11b8152600481019290925260248201526044016102e0565b50506000612854888361406f565b9050600061286685600001548361406f565b90508015612a9d57600385015460009061288b90839063ffffffff9081169061427716565b90508881818110156128b957604051632f514d5760e21b8152600481019290925260248201526044016102e0565b50508815612950576128f8888a7f00000000000000000000000000000000000000000000000000000000000000005b6001600160a01b031691906142de565b876001600160a01b0316876001600160a01b03168c6001600160a01b03167f95ff4196cd75fa49180ba673948ea43935f59e7c4ba101fa09b9fe0ec266d5828c60405161294791815260200190565b60405180910390a45b61298e61295d8a84615427565b7f00000000000000000000000000000000000000000000000000000000000000005b6001600160a01b031690614319565b85546000906129a5670de0b6b3a7640000856153ac565b6129af91906153d6565b9050670de0b6b3a76400006129c48282615427565b88600101546129d391906153ac565b6129dd91906153d6565b600188015586546129ef908490615427565b87556001600160a01b038c166000908152600e6020526040902060040154612a18908490615427565b6001600160a01b038d166000908152600e60205260409020600481019190915554612a44908490615427565b6001600160a01b038d81166000818152600e60209081526040918290209490945551868152918b169290917fe7b110f13cde981d5079ab7faa4249c5f331f5c292dbc6031969d2ce694188a3910160405180910390a350505b612aa78183615427565b91508115612be75760205460ff1615612b9957612ae4827f000000000000000000000000000000000000000000000000000000000000000061297f565b6002840154600090612afe670de0b6b3a7640000856153ac565b612b0891906153d6565b9050828560020154612b1a9190615427565b6002860155670de0b6b3a7640000612b328282615427565b8660050154612b4191906153ac565b612b4b91906153d6565b60058601556040518381526001600160a01b0380891691908d16907fc5d16dbb577cf07678b577232717c9a606197a014f61847e623d47fc6bf6b7719060200160405180910390a350612be7565b856001600160a01b03168a6001600160a01b03167fdce44f0aeed2089c75db59f5a517b9a19a734bf0213412fa129f0d0434126b2484604051612bde91815260200190565b60405180910390a35b50505050505050505050565b612bfb612f0b565b6001600160a01b0316635c975abb6040518163ffffffff1660e01b8152600401602060405180830381865afa158015612c38573d6000803e3d6000fd5b505050506040513d601f19601f82011682018060405250810190612c5c9190615323565b15612c7a57604051632b37d9d160e21b815260040160405180910390fd5b610ec78585858585613cc8565b612c8f612f0b565b6001600160a01b0316634fc07d756040518163ffffffff1660e01b8152600401602060405180830381865afa158015612ccc573d6000803e3d6000fd5b505050506040513d601f19601f82011682018060405250810190612cf09190615363565b6001600160a01b0316336001600160a01b031614612d2157604051635d9044cd60e01b815260040160405180910390fd5b6020805460ff1916600190811782556040519081527f78bd9090b1ff40fc9c2d6056a25fb880530a766f5b0595d77f3cf33fe189c194910160405180910390a1565b6000612d6d612f0b565b6001600160a01b0316635c975abb6040518163ffffffff1660e01b8152600401602060405180830381865afa158015612daa573d6000803e3d6000fd5b505050506040513d601f19601f82011682018060405250810190612dce9190615323565b15612dec57604051632b37d9d160e21b815260040160405180910390fd5b8383612df9338383612f2f565b338383909192612e1f57604051630c76b97b60e41b81526004016102e093929190615340565b505050612e2d868686614361565b9695505050505050565b6000610df6838361404c565b612e4b612f0b565b6001600160a01b0316635c975abb6040518163ffffffff1660e01b8152600401602060405180830381865afa158015612e88573d6000803e3d6000fd5b505050506040513d601f19601f82011682018060405250810190612eac9190615323565b15612eca57604051632b37d9d160e21b815260040160405180910390fd5b8282612ed7338383612f2f565b338383909192612efd57604051630c76b97b60e41b81526004016102e093929190615340565b505050610ec7858585613e92565b7f000000000000000000000000000000000000000000000000000000000000000090565b6000826001600160a01b0316846001600160a01b031603612f5257506001611a10565b7f00000000000000000000000000000000000000000000000000000000000000006001600160a01b0316826001600160a01b031603612fba57506001600160a01b0380831660009081526015602090815260408083209387168352929052205460ff16611a10565b506001600160a01b038083166000908152601f60209081526040808320858516845282528083209387168352929052205460ff16611a10565b6000841161301457604051630a2a4e5b60e11b815260040160405180910390fd5b81620f424063ffffffff821681101561305057604051633a50e6ff60e01b815263ffffffff9283166004820152911660248201526044016102e0565b5050601a5481906001600160401b039081169082168110156130985760405163ee5602e160e01b81526001600160401b039283166004820152911660248201526044016102e0565b50506001600160a01b038581166000908152601b6020908152604080832093871683529290522060030154600160601b90046001600160401b0316156130f157604051632b542c0d60e11b815260040160405180910390fd5b60006130fc86614086565b905084818082111561312a5760405163ccaf28a960e01b8152600481019290925260248201526044016102e0565b505060405180610100016040528086815260200160008152602001600081526020018463ffffffff168152602001836001600160401b03168152602001426001600160401b031681526020018463ffffffff168152602001836001600160401b0316815250601b6000886001600160a01b03166001600160a01b031681526020019081526020016000206000866001600160a01b03166001600160a01b0316815260200190815260200160002060008201518160000155602082015181600101556040820151816002015560608201518160030160006101000a81548163ffffffff021916908363ffffffff16021790555060808201518160030160046101000a8154816001600160401b0302191690836001600160401b0316021790555060a082015181600301600c6101000a8154816001600160401b0302191690836001600160401b0316021790555060c08201518160030160146101000a81548163ffffffff021916908363ffffffff16021790555060e08201518160030160186101000a8154816001600160401b0302191690836001600160401b031602179055509050506000600e6000886001600160a01b03166001600160a01b03168152602001908152602001600020905085816004015461330691906153c3565b60048201556040805187815263ffffffff861660208201526001600160401b038516918101919091526001600160a01b0380871691908916907f88b4c2d08cea0f01a24841ff5d14814ddb5b14ac44b05e0835fcc0dcd8c7bc2590606001611c27565b80156111e7576040516323b872dd60e01b81526001600160a01b038381166004830152306024830152604482018390528416906323b872dd906064015b6020604051808303816000875af11580156133c5573d6000803e3d6000fd5b505050506040513d601f19601f820116820180604052508101906133e99190615323565b6111e75760405162461bcd60e51b815260206004820152600960248201526810ba3930b739b332b960b91b60448201526064016102e0565b81670de0b6b3a7640000808210156134555760405163587ab9ab60e11b8152600481019290925260248201526044016102e0565b50506001600160a01b038481166000908152601b602090815260408083209387168352929052206003015484908490600160601b90046001600160401b03166134c4576040516330acea0d60e11b81526001600160a01b039283166004820152911660248201526044016102e0565b505060006134d28585613e0e565b33600090815260048201602052604090206002820154919250901515806135085750600382015415801561350857506006820154155b8686909161353c57604051631984edef60e31b81526001600160a01b039283166004820152911660248201526044016102e0565b5050600082600201546000148061355a575082600501548360020154145b61359057826005015483600201546135729190615427565b600384015461358190876153ac565b61358b91906153d6565b613592565b845b905080158015906135a35750838110155b818590916135cd57604051635d88e8d160e01b8152600481019290925260248201526044016102e0565b50508483600201546135df91906153c3565b600284015560038301546135f49082906153c3565b600384015581546136069082906153c3565b825560405185815233906001600160a01b0388811691908a16907feaefa9a428d7aa0b99b7ac8aec4885d6304a78cc8d6a78a6c99dd29e9693cdf49060200160405180910390a450505050505050565b6001600160a01b038281166000908152601b60209081526040808320938516835292905290812060018101549054610df69190615427565b6001600160a01b038084166000908152601b602090815260408083209386168352929052908120600281015460018201549192916136d087878184868a6144d6565b8654929550935091506136e4908490615427565b845560028401829055600184018190556001600160a01b0387166000908152600e60205260408120600401805485929061371f908490615427565b92505081905550856001600160a01b0316876001600160a01b03167f9008d731ddfbec70bc364780efd63057c6877bee8027c4708a104b365395885d85604051611c2791815260200190565b33600082900361378e57604051630a2a4e5b60e11b815260040160405180910390fd5b600061379982614086565b90508281808211156137c75760405163ccaf28a960e01b8152600481019290925260248201526044016102e0565b50506001600160a01b0382166000908152600e602052604081208054600d549192909163ffffffff1690819003613877576138028683615427565b835561382f85877f00000000000000000000000000000000000000000000000000000000000000006128e8565b846001600160a01b03167f8108595eb6bad3acefa9da467d90cc2217686d5c5ac85460f8b7849c840645fc8760405161386a91815260200190565b60405180910390a2612159565b60028301541580159061388e575082600301544310155b1561389c5761389c8561393e565b6002830154156138c6576138c36138b7846003015443614616565b84600201548389614630565b90505b8583600201546138d691906153c3565b60028401556138e581436153c3565b6003840181905560028401546040805191825260208201929092526001600160a01b038716917fa5ae833d0bb1dcd632d98a8b70973e8516812898e19bf27b70071ebc8dc52c01910160405180910390a2505050505050565b6001600160a01b0381166000908152600e602052604081206002810154909181900361397d57604051630a2a4e5b60e11b815260040160405180910390fd5b6003820154438111156139a657604051631d222f1b60e31b81526004016102e091815260200190565b50600060028301819055600383015581546139c2908290615427565b82556139ef83827f00000000000000000000000000000000000000000000000000000000000000006128e8565b826001600160a01b03167f8108595eb6bad3acefa9da467d90cc2217686d5c5ac85460f8b7849c840645fc82604051613a2a91815260200190565b60405180910390a2505050565b6000808211613a5957604051637318ad9960e01b815260040160405180910390fd5b6000613a658585613e0e565b33600090815260048201602052604090208054919250908480821015613aa75760405163ab99793560e01b8152600481019290925260248201526044016102e0565b5050600282015486908690613ae257604051631984edef60e31b81526001600160a01b039283166004820152911660248201526044016102e0565b50506000826003015483600501548460020154613aff9190615427565b613b0990876153ac565b613b1391906153d6565b905060008360050154600014613b465760058401546006850154613b3790846153ac565b613b4191906153d6565b613b48565b815b6001600160a01b038981166000908152601b60209081526040808320938c1683529290529081206003015491925090613b929064010000000090046001600160401b0316426153c3565b9050868560030154613ba49190615427565b60038601556005850154613bb99084906153c3565b60058601556006850154613bce9083906153c3565b60068601558354613be0908890615427565b80855515613c53576000856003015486600501548760020154613c039190615427565b8654613c0f91906153ac565b613c1991906153d6565b905080670de0b6b3a764000080821015613c4f5760405163587ab9ab60e11b8152600481019290925260248201526044016102e0565b5050505b6000613c628a8a338686614684565b9050336001600160a01b0316896001600160a01b03168b6001600160a01b03167f50d19209821f5d69c0884b007c6ba9ffde612c0cff5dd3234d0c6baf2c4556aa87604051613cb391815260200190565b60405180910390a49998505050505050505050565b6000613cd48686613e0e565b905080600201546000141586869091613d1357604051631984edef60e31b81526001600160a01b039283166004820152911660248201526044016102e0565b50506006810154600582015460009190613d3189893384868a6144d6565b600287015492955093509150613d48908490615427565b600285015560068401829055600584018190558215613dac576001600160a01b03871615613d8157613d7c87898589613421565b613dac565b613dac33847f00000000000000000000000000000000000000000000000000000000000000006128e8565b336001600160a01b0316886001600160a01b03168a6001600160a01b03167f305f519d8909c676ffd870495d4563032eb0b506891a6dd9827490256cc9914e86604051613dfb91815260200190565b60405180910390a4505050505050505050565b60007f00000000000000000000000000000000000000000000000000000000000000006001600160a01b0316826001600160a01b031603613e6757506001600160a01b0382166000908152601460205260409020610df9565b506001600160a01b038083166000908152602160209081526040808320938516835292905220610df9565b6001600160a01b038084166000908152601b60209081526040808320938616835292905290812090829003613eda57604051630a2a4e5b60e11b815260040160405180910390fd5b600381015484908490600160601b90046001600160401b0316613f23576040516330acea0d60e11b81526001600160a01b039283166004820152911660248201526044016102e0565b50506000613f3085614086565b9050828180821115613f5e5760405163ccaf28a960e01b8152600481019290925260248201526044016102e0565b50508154613f6d9084906153c3565b82556001600160a01b0385166000908152600e6020526040902060040154613f969084906153c3565b6001600160a01b038681166000818152600e602090815260409182902060040194909455518681529187169290917feaf6ea3a42ed2fd1b6d575f818cbda593af9524aa94bd30e65302ac4dc234745910160405180910390a35050505050565b8060000361401757604051630a2a4e5b60e11b815260040160405180910390fd5b61404233827f0000000000000000000000000000000000000000000000000000000000000000610da9565b610de68282614824565b6000806140598484613e0e565b905080600501548160020154611a249190615427565b60008183111561407f5781610df6565b5090919050565b6001600160a01b0381166000908152600e602052604081206002810154600182015460048301549254919290916140bd9190615427565b6140c79190615427565b610df99190615427565b6060600080846001600160a01b0316846040516140ee91906154d3565b600060405180830381855af49150503d8060008114614129576040519150601f19603f3d011682016040523d82523d6000602084013e61412e565b606091505b509150915061413e858383614897565b95945050505050565b336001600160a01b0384160361417057604051630123065360e01b815260040160405180910390fd5b7f00000000000000000000000000000000000000000000000000000000000000006001600160a01b0316826001600160a01b0316036141dd573360009081526015602090815260408083206001600160a01b03871684529091529020805460ff1916821515179055614219565b336000908152601f602090815260408083206001600160a01b03868116855290835281842090871684529091529020805460ff19168215151790555b816001600160a01b0316836001600160a01b0316336001600160a01b03167faa5a59b38e8f68292982382bf635c2f263ca37137bbc52956acd808fd7bf976f8460405161426a911515815260200190565b60405180910390a4505050565b600061428683620f4240101590565b80614299575061429982620f4240101590565b838390916142c35760405163768bf0eb60e11b8152600481019290925260248201526044016102e0565b50620f424090506142d483856153ac565b610df691906153d6565b80156111e75760405163a9059cbb60e01b81526001600160a01b0383811660048301526024820183905284169063a9059cbb906044016133a6565b8015610de657604051630852cd8d60e31b8152600481018290526001600160a01b038316906342966c6890602401600060405180830381600087803b15801561214557600080fd5b60008160000361438457604051630a2a4e5b60e11b815260040160405180910390fd5b60006143908585613656565b90508083808210156143be5760405163587ab9ab60e11b8152600481019290925260248201526044016102e0565b50506001600160a01b038086166000908152601b60209081526040808320938816835292905290812060028101549091901561441857816001015485836002015461440991906153ac565b61441391906153d6565b61441a565b845b60038301549091506000906144409064010000000090046001600160401b0316426153c3565b905085836001015461445291906153c3565b600184015560028301546144679083906153c3565b6002840155600061447b8989818686614684565b9050876001600160a01b0316896001600160a01b03167f3b81913739097ced1e7fa748c6058d34e2c00b961fb501094543b397b198fdaa896040516144c291815260200190565b60405180910390a398975050505050505050565b6001600160a01b038087166000908152601e6020908152604080832089851684528252808320938816835292905290812060038101548291829161452d576040516307e332c560e31b815260040160405180910390fd5b6000808061457e6148f3614908614a43868e8e604051602001614563939291909283526020830191909152604082015260600190565b60408051601f1981840301815291905288939291908d614a6d565b915091508080602001905181019061459691906154ef565b809b50819c508295505050508a6001600160a01b03168c6001600160a01b03168e6001600160a01b03167f9de822a9c144d03cad4a18bc322e9a3d91ffa99463d22e5c25da2a41d4c354d585876040516145fa929190918252602082015260400190565b60405180910390a450909b979a50959850959650505050505050565b6000818311614626576000610df6565b610df68284615427565b600061463c82856153c3565b600161464884876153c3565b6146529190615427565b61465c84866153ac565b61466687896153ac565b61467091906153c3565b61467a91906153c3565b61413e91906153d6565b6001600160a01b038086166000908152601e6020908152604080832088851684528252808320938716835292905290812060038101546064116146da5760405163332b852b60e11b815260040160405180910390fd5b60028101546040516bffffffffffffffffffffffff1960608a811b8216602084015289811b8216603484015288901b166048820152605c810191909152600090607c0160408051808303601f1901815282825280516020918201206060840183528884526001600160401b038881168386019081526000868601818152848252601d9095529490942094518555925160018501805467ffffffffffffffff19169190941617909255516002909201919091556003830154909150156147b35760018201546000908152601d602052604090206002018190555b6147bd8282614b27565b604080518681526001600160401b03861660208201529081018290526001600160a01b0380881691898216918b16907f434422e55cc9ab3bcca23cbf515724bbad83af8dd645832a1abd3db5e641dea59060600160405180910390a4979650505050505050565b6001600160a01b0382166000908152600e60205260409020546148489082906153c3565b6001600160a01b0383166000818152600e6020526040908190209290925590517f0a7bb2e28cc4698aac06db79cf9163bfcc20719286cf59fa7d492ceda1b8edc29061151d9084815260200190565b6060826148ac576148a782614bba565b611a10565b81511580156148c357506001600160a01b0384163b155b156148ec57604051639996b31560e01b81526001600160a01b03851660048201526024016102e0565b5080611a10565b6000908152601d602052604090206002015490565b6000828152601d60205260408120600181015460609190426001600160401b03909116111561494b57505060408051602081019091526000815260019150614a3c565b60008060008680602001905181019061496491906154ef565b92509250925060008183866000015461497d91906153ac565b61498791906153d6565b90506149938184615427565b85549093506149a29083615427565b91506149ae81856153c3565b855460018701546040805185815260208101939093526001600160401b0390911682820152519195508a917f65662212afe828a9d3832eda69b6b7b2fb6a756c0f2a7420bf8b290dad84470f9181900360600190a260408051602081018690529081018490526060810183905260800160405160208183030381529060405297506000889650965050505050505b9250929050565b6000908152601d6020526040812081815560018101805467ffffffffffffffff1916905560020155565b600060608760030154831115614a9657604051634a411b9d60e11b815260040160405180910390fd5b60008315614aa45783614aaa565b88600301545b89549094505b8015801590614abf5750600085115b15614b1857600080614ad583898c63ffffffff16565b915091508115614ae6575050614b18565b965086614af48c8c8b614be3565b925086614b008161551d565b9750508380614b0e90615534565b9450505050614ab0565b50989397509295505050505050565b612710826003015410614b4d576040516303a8c56b60e61b815260040160405180910390fd5b80614b6b57604051638f4a893d60e01b815260040160405180910390fd5b6001808301829055600283018054600090614b879084906153c3565b90915550506003820154600003614b9c578082555b6001826003016000828254614bb191906153c3565b90915550505050565b805115614bca5780518082602001fd5b604051630a12f52160e11b815260040160405180910390fd5b600080846003015411614c095760405163ddaf8f2160e01b815260040160405180910390fd5b6000614c1c85600001548563ffffffff16565b9050614c2f85600001548463ffffffff16565b6001856003016000828254614c449190615427565b90915550508085556003850154600003614c6057600060018601555b5050915492915050565b6001600160a01b038116811461104d57600080fd5b803563ffffffff81168114614c9357600080fd5b919050565b80356001600160401b0381168114614c9357600080fd5b600080600080600060a08688031215614cc757600080fd5b8535614cd281614c6a565b94506020860135614ce281614c6a565b935060408601359250614cf760608701614c7f565b9150614d0560808701614c98565b90509295509295909350565b60008060408385031215614d2457600080fd5b8235614d2f81614c6a565b946020939093013593505050565b60008060408385031215614d5057600080fd5b8235614d5b81614c6a565b91506020830135614d6b81614c6a565b809150509250929050565b600080600060608486031215614d8b57600080fd5b8335614d9681614c6a565b92506020840135614da681614c6a565b929592945050506040919091013590565b600060208284031215614dc957600080fd5b610df682614c98565b60006101008201905082518252602083015160208301526040830151604083015263ffffffff60608401511660608301526001600160401b0360808401511660808301526001600160401b0360a08401511660a083015260c0830151614e4060c084018263ffffffff169052565b5060e0830151614e5b60e08401826001600160401b03169052565b5092915050565b600060208284031215614e7457600080fd5b5035919050565b600060208284031215614e8d57600080fd5b8135611a1081614c6a565b803560038110614c9357600080fd5b60008060008060808587031215614ebd57600080fd5b8435614ec881614c6a565b93506020850135614ed881614c6a565b9250614ee660408601614e98565b9396929550929360600135925050565b801515811461104d57600080fd5b60008060408385031215614f1757600080fd5b8235614f2281614c6a565b91506020830135614d6b81614ef6565b60008060008060808587031215614f4857600080fd5b8435614f5381614c6a565b93506020850135614f6381614c6a565b93969395505050506040820135916060013590565b600080600080600060a08688031215614f9057600080fd5b8535614f9b81614c6a565b94506020860135614fab81614c6a565b93506040860135614fbb81614c6a565b94979396509394606081013594506080013592915050565b600080600060608486031215614fe857600080fd5b8335614ff381614c6a565b9250602084013561500381614c6a565b915061501160408501614e98565b90509250925092565b60008060006060848603121561502f57600080fd5b833561503a81614c6a565b9250602084013561504a81614c6a565b9150604084013561505a81614c6a565b809150509250925092565b6000806000806080858703121561507b57600080fd5b843561508681614c6a565b9350602085013561509681614c6a565b92506150a460408601614c7f565b91506150b260608601614c98565b905092959194509250565b6000806000606084860312156150d257600080fd5b83356150dd81614c6a565b925060208401356150ed81614c6a565b915061501160408501614c7f565b60008060006040848603121561511057600080fd5b833561511b81614c6a565b925060208401356001600160401b0381111561513657600080fd5b8401601f8101861361514757600080fd5b80356001600160401b0381111561515d57600080fd5b86602082840101111561516f57600080fd5b939660209190910195509293505050565b6000806020838503121561519357600080fd5b82356001600160401b038111156151a957600080fd5b8301601f810185136151ba57600080fd5b80356001600160401b038111156151d057600080fd5b8560208260051b84010111156151e557600080fd5b6020919091019590945092505050565b60005b838110156152105781810151838201526020016151f8565b50506000910152565b6000602082016020835280845180835260408501915060408160051b86010192506020860160005b8281101561528d57603f198786030184528151805180875261526a8160208901602085016151f5565b601f01601f19169590950160209081019550938401939190910190600101615241565b50929695505050505050565b6000806000606084860312156152ae57600080fd5b83356152b981614c6a565b925060208401356152c981614c6a565b9150604084013561505a81614ef6565b600080600080608085870312156152ef57600080fd5b84356152fa81614c6a565b93506020850135925060408501359150606085013561531881614c6a565b939692955090935050565b60006020828403121561533557600080fd5b8151611a1081614ef6565b6001600160a01b0393841681529183166020830152909116604082015260600190565b60006020828403121561537557600080fd5b8151611a1081614c6a565b634e487b7160e01b600052602160045260246000fd5b634e487b7160e01b600052601160045260246000fd5b8082028115828204841417610df957610df9615396565b80820180821115610df957610df9615396565b6000826153f357634e487b7160e01b600052601260045260246000fd5b500490565b60208152816020820152818360408301376000818301604090810191909152601f909201601f19160101919050565b81810381811115610df957610df9615396565b634e487b7160e01b600052604160045260246000fd5b634e487b7160e01b600052603260045260246000fd5b6000808335601e1984360301811261547d57600080fd5b8301803591506001600160401b0382111561549757600080fd5b602001915036819003821315614a3c57600080fd5b8284823760008382016000815283516154c98183602088016151f5565b0195945050505050565b600082516154e58184602087016151f5565b9190910192915050565b60008060006060848603121561550457600080fd5b5050815160208301516040909301519094929350919050565b60008161552c5761552c615396565b506000190190565b60006001820161554657615546615396565b506001019056fea264697066735822122006c6e4bfdc1de64a080ef26443cebb679f74b45bd0aaa62e574320a49283676164736f6c634300081b0033",
  "linkReferences": {},
  "deployedLinkReferences": {}
}