{
  "_format": "hh-sol-artifact-1",
  "contractName": "ExponentialRebates",
  "sourceName": "contracts/staking/libraries/ExponentialRebates.sol",
  "abi": [
    {
      "inputs": [
        {
          "internalType": "uint256",
          "name": "fees",
          "type": "uint256"
        },
        {
          "internalType": "uint256",
          "name": "stake",
          "type": "uint256"
        },
        {
          "internalType": "uint32",
          "name": "alphaNumerator",
          "type": "uint32"
        },
        {
          "internalType": "uint32",
          "name": "alphaDenominator",
          "type": "uint32"
        },
        {
          "internalType": "uint32",
          "name": "lambdaNumerator",
          "type": "uint32"
        },
        {
          "internalType": "uint32",
          "name": "lambdaDenominator",
          "type": "uint32"
        }
      ],
      "name": "exponentialRebates",
      "outputs": [
        {
          "internalType": "uint256",
          "name": "",
          "type": "uint256"
        }
      ],
      "stateMutability": "pure",
      "type": "function"
    }
  ],
  "bytecode": "0x610c2d610039600b82828239805160001a607314602c57634e487b7160e01b600052600060045260246000fd5b30600052607381538281f3fe73000000000000000000000000000000000000000030146080604052600436106100355760003560e01c806349484d811461003a575b600080fd5b61004d610048366004610a66565b61005f565b60405190815260200160405180910390f35b6000806100728660030b8660030b61011c565b9050806000036100855787915050610112565b87600003610097576000915050610112565b60006100a98560030b8560030b61011c565b905060006100b8828a8c61013c565b9050600f6100c582610153565b13156100d657899350505050610112565b60006100ff6001607f1b6100fa866100f56100f087610ae2565b610169565b610882565b61089d565b905061010b818c6108d4565b9450505050505b9695505050505050565b600061013561012f846001607f1b610920565b83610988565b9392505050565b600061014b61012f8585610920565b949350505050565b60006101636001607f1b83610b14565b92915050565b60006101796101ff607c1b610ae2565b82121561018857506000919050565b8160000361019b57506001607f1b919050565b60008213156101c55760405162461bcd60e51b81526004016101bc90610b42565b60405180910390fd5b6000806101d66001607c1b85610b69565b91508190506001607f1b6101ea8280610b7d565b6101f49190610b14565b9050610208816710e1b3be415a0000610b7d565b6102129084610bad565b92506001607f1b6102238383610b7d565b61022d9190610b14565b9050610241816705a0913f6b1e0000610b7d565b61024b9084610bad565b92506001607f1b61025c8383610b7d565b6102669190610b14565b905061027a81670168244fdac78000610b7d565b6102849084610bad565b92506001607f1b6102958383610b7d565b61029f9190610b14565b90506102b281664807432bc18000610b7d565b6102bc9084610bad565b92506001607f1b6102cd8383610b7d565b6102d79190610b14565b90506102ea81660c0135dca04000610b7d565b6102f49084610bad565b92506001607f1b6103058383610b7d565b61030f9190610b14565b9050610322816601b707b1cdc000610b7d565b61032c9084610bad565b92506001607f1b61033d8383610b7d565b6103479190610b14565b9050610359816536e0f639b800610b7d565b6103639084610bad565b92506001607f1b6103748383610b7d565b61037e9190610b14565b905061039081650618fee9f800610b7d565b61039a9084610bad565b92506001607f1b6103ab8383610b7d565b6103b59190610b14565b90506103c681649c197dcc00610b7d565b6103d09084610bad565b92506001607f1b6103e18383610b7d565b6103eb9190610b14565b90506103fc81640e30dce400610b7d565b6104069084610bad565b92506001607f1b6104178383610b7d565b6104219190610b14565b90506104328164012ebd1300610b7d565b61043c9084610bad565b92506001607f1b61044d8383610b7d565b6104579190610b14565b9050610467816317499f00610b7d565b6104719084610bad565b92506001607f1b6104828383610b7d565b61048c9190610b14565b905061049c816301a9d480610b7d565b6104a69084610bad565b92506001607f1b6104b78383610b7d565b6104c19190610b14565b90506104d081621c6380610b7d565b6104da9084610bad565b92506001607f1b6104eb8383610b7d565b6104f59190610b14565b9050610504816201c638610b7d565b61050e9084610bad565b92506001607f1b61051f8383610b7d565b6105299190610b14565b905061053781611ab8610b7d565b6105419084610bad565b92506001607f1b6105528383610b7d565b61055c9190610b14565b905061056a8161017c610b7d565b6105749084610bad565b92506001607f1b6105858383610b7d565b61058f9190610b14565b905061059c816014610b7d565b6105a69084610bad565b92506001607f1b6105b78383610b7d565b6105c19190610b14565b90506105ce816001610b7d565b6105d89084610bad565b92506001607f1b826105f26721c3677c82b4000086610b14565b6105fc9190610bad565b6106069190610bad565b925061061184610ae2565b9350600160841b841615610657577243cbaf42a000812488fc5c220ad7b97bf6e99e61064a6cf1aaddd7742e56d32fb9f9974485610b7d565b6106549190610b14565b92505b600160831b84161561069c577105d27a9f51c31b7c2f8038212a057477999161068f6e0afe10820813d65dfe6a33c07f738f85610b7d565b6106999190610b14565b92505b600160821b8416156106e157701b4c902e273a58678d6d3bfdb93db96d026106d46f02582ab704279e8efd15e0265855c47a85610b7d565b6106de9190610b14565b92505b600160811b841615610726577003b1cc971a9bb5b9867477440d6d1577506107196f1152aaa3bf81cb9fdb76eae12d02957185610b7d565b6107239190610b14565b92505b600160801b84161561076b5770015bf0a8b1457695355fb8ac404e7a79e361075e6f2f16ac6c59de6f8d5d6f63c1482a7c8685610b7d565b6107689190610b14565b92505b6001607f1b8416156107af576fd3094c70f034de4b96ff7d5b6f99fcd86107a26f4da2cbf1be5827f9eb3ad1aa9866ebb385610b7d565b6107ac9190610b14565b92505b6001607e1b8416156107f3576fa45af1e1f40c333b3de1db4dd55f29a76107e66f63afbe7ab2082ba1a0ae5e4eb1b479dc85610b7d565b6107f09190610b14565b92505b6001607d1b841615610837576f910b022db7ae67ce76b441c27035c6a161082a6f70f5a893b608861e1f58934f97aea57d85610b7d565b6108349190610b14565b92505b6001607c1b84161561087b576f88415abbe9a76bead8d00cf112e4d4a861086e6f783eafef1c0a8f3978c7f81824d62ebf85610b7d565b6108789190610b14565b92505b5050919050565b60006001607f1b6108938484610920565b6101359190610b14565b6000600160ff1b82036108c25760405162461bcd60e51b81526004016101bc90610b42565b610135836108cf84610ae2565b6109f2565b6000808212156108f65760405162461bcd60e51b81526004016101bc90610b42565b60006109028484610920565b905060008113610916576000915050610163565b607f1c9392505050565b600082158061092d575081155b1561093a57506000610163565b508181028183828161094e5761094e610afe565b0514158061096b57508282828161096757610967610afe565b0514155b156101635760405162461bcd60e51b81526004016101bc90610bd5565b6000816000036109aa5760405162461bcd60e51b81526004016101bc90610bd5565b600160ff1b831480156109be575081600019145b156109db5760405162461bcd60e51b81526004016101bc90610bd5565b8183816109ea576109ea610afe565b059392505050565b818101600083128015610a055750600082125b8015610a1057508281135b8061096b5750600083138015610a265750600082135b801561096b5750828112156101635760405162461bcd60e51b81526004016101bc90610bd5565b803563ffffffff81168114610a6157600080fd5b919050565b60008060008060008060c08789031215610a7f57600080fd5b8635955060208701359450610a9660408801610a4d565b9350610aa460608801610a4d565b9250610ab260808801610a4d565b9150610ac060a08801610a4d565b90509295509295509295565b634e487b7160e01b600052601160045260246000fd5b6000600160ff1b8201610af757610af7610acc565b5060000390565b634e487b7160e01b600052601260045260246000fd5b600082610b2357610b23610afe565b600160ff1b821460001984141615610b3d57610b3d610acc565b500590565b6020808252600d908201526c6f75742d6f662d626f756e647360981b604082015260600190565b600082610b7857610b78610afe565b500790565b80820260008212600160ff1b84141615610b9957610b99610acc565b818105831482151761016357610163610acc565b8082018281126000831280158216821582161715610bcd57610bcd610acc565b505092915050565b6020808252600890820152676f766572666c6f7760c01b60408201526060019056fea26469706673582212201cac81319f1bc19d15bc3a02519b03e3559a9cf147525a96caa8cb800f74da2864736f6c634300081b0033",
  "linkReferences": {},
  "deployedLinkReferences": {}
}