{
  "_format": "hh-sol-artifact-1",
  "contractName": "HorizonStakingExtension",
  "sourceName": "contracts/staking/HorizonStakingExtension.sol",
  "abi": [
    {
      "inputs": [
        {
          "internalType": "address",
          "name": "controller",
          "type": "address"
        },
        {
          "internalType": "address",
          "name": "subgraphDataServiceAddress",
          "type": "address"
        }
      ],
      "stateMutability": "nonpayable",
      "type": "constructor"
    },
    {
      "inputs": [
        {
          "internalType": "address",
          "name": "target",
          "type": "address"
        }
      ],
      "name": "AddressEmptyCode",
      "type": "error"
    },
    {
      "inputs": [],
      "name": "FailedInnerCall",
      "type": "error"
    },
    {
      "inputs": [
        {
          "internalType": "bytes",
          "name": "contractName",
          "type": "bytes"
        }
      ],
      "name": "GraphDirectoryInvalidZeroAddress",
      "type": "error"
    },
    {
      "inputs": [],
      "name": "ManagedIsPaused",
      "type": "error"
    },
    {
      "inputs": [],
      "name": "ManagedOnlyController",
      "type": "error"
    },
    {
      "inputs": [],
      "name": "ManagedOnlyGovernor",
      "type": "error"
    },
    {
      "inputs": [
        {
          "internalType": "uint256",
          "name": "a",
          "type": "uint256"
        },
        {
          "internalType": "uint256",
          "name": "b",
          "type": "uint256"
        }
      ],
      "name": "PPMMathInvalidMulPPM",
      "type": "error"
    },
    {
      "inputs": [
        {
          "internalType": "uint256",
          "name": "value",
          "type": "uint256"
        }
      ],
      "name": "PPMMathInvalidPPM",
      "type": "error"
    },
    {
      "anonymous": false,
      "inputs": [
        {
          "indexed": true,
          "internalType": "address",
          "name": "indexer",
          "type": "address"
        },
        {
          "indexed": true,
          "internalType": "bytes32",
          "name": "subgraphDeploymentID",
          "type": "bytes32"
        },
        {
          "indexed": false,
          "internalType": "uint256",
          "name": "epoch",
          "type": "uint256"
        },
        {
          "indexed": false,
          "internalType": "uint256",
          "name": "tokens",
          "type": "uint256"
        },
        {
          "indexed": true,
          "internalType": "address",
          "name": "allocationID",
          "type": "address"
        },
        {
          "indexed": false,
          "internalType": "address",
          "name": "sender",
          "type": "address"
        },
        {
          "indexed": false,
          "internalType": "bytes32",
          "name": "poi",
          "type": "bytes32"
        },
        {
          "indexed": false,
          "internalType": "bool",
          "name": "isPublic",
          "type": "bool"
        }
      ],
      "name": "AllocationClosed",
      "type": "event"
    },
    {
      "anonymous": false,
      "inputs": [
        {
          "indexed": true,
          "internalType": "address",
          "name": "counterpart",
          "type": "address"
        }
      ],
      "name": "CounterpartStakingAddressSet",
      "type": "event"
    },
    {
      "anonymous": false,
      "inputs": [
        {
          "indexed": true,
          "internalType": "address",
          "name": "graphToken",
          "type": "address"
        },
        {
          "indexed": true,
          "internalType": "address",
          "name": "graphStaking",
          "type": "address"
        },
        {
          "indexed": false,
          "internalType": "address",
          "name": "graphPayments",
          "type": "address"
        },
        {
          "indexed": false,
          "internalType": "address",
          "name": "graphEscrow",
          "type": "address"
        },
        {
          "indexed": true,
          "internalType": "address",
          "name": "graphController",
          "type": "address"
        },
        {
          "indexed": false,
          "internalType": "address",
          "name": "graphEpochManager",
          "type": "address"
        },
        {
          "indexed": false,
          "internalType": "address",
          "name": "graphRewardsManager",
          "type": "address"
        },
        {
          "indexed": false,
          "internalType": "address",
          "name": "graphTokenGateway",
          "type": "address"
        },
        {
          "indexed": false,
          "internalType": "address",
          "name": "graphProxyAdmin",
          "type": "address"
        },
        {
          "indexed": false,
          "internalType": "address",
          "name": "graphCuration",
          "type": "address"
        }
      ],
      "name": "GraphDirectoryInitialized",
      "type": "event"
    },
    {
      "anonymous": false,
      "inputs": [
        {
          "indexed": false,
          "internalType": "address",
          "name": "assetHolder",
          "type": "address"
        },
        {
          "indexed": true,
          "internalType": "address",
          "name": "indexer",
          "type": "address"
        },
        {
          "indexed": true,
          "internalType": "bytes32",
          "name": "subgraphDeploymentID",
          "type": "bytes32"
        },
        {
          "indexed": true,
          "internalType": "address",
          "name": "allocationID",
          "type": "address"
        },
        {
          "indexed": false,
          "internalType": "uint256",
          "name": "epoch",
          "type": "uint256"
        },
        {
          "indexed": false,
          "internalType": "uint256",
          "name": "tokens",
          "type": "uint256"
        },
        {
          "indexed": false,
          "internalType": "uint256",
          "name": "protocolTax",
          "type": "uint256"
        },
        {
          "indexed": false,
          "internalType": "uint256",
          "name": "curationFees",
          "type": "uint256"
        },
        {
          "indexed": false,
          "internalType": "uint256",
          "name": "queryFees",
          "type": "uint256"
        },
        {
          "indexed": false,
          "internalType": "uint256",
          "name": "queryRebates",
          "type": "uint256"
        },
        {
          "indexed": false,
          "internalType": "uint256",
          "name": "delegationRewards",
          "type": "uint256"
        }
      ],
      "name": "RebateCollected",
      "type": "event"
    },
    {
      "anonymous": false,
      "inputs": [
        {
          "indexed": true,
          "internalType": "address",
          "name": "serviceProvider",
          "type": "address"
        },
        {
          "indexed": true,
          "internalType": "address",
          "name": "delegator",
          "type": "address"
        },
        {
          "indexed": false,
          "internalType": "uint256",
          "name": "tokens",
          "type": "uint256"
        },
        {
          "indexed": false,
          "internalType": "uint256",
          "name": "shares",
          "type": "uint256"
        }
      ],
      "name": "StakeDelegated",
      "type": "event"
    },
    {
      "anonymous": false,
      "inputs": [
        {
          "indexed": true,
          "internalType": "address",
          "name": "serviceProvider",
          "type": "address"
        },
        {
          "indexed": false,
          "internalType": "uint256",
          "name": "tokens",
          "type": "uint256"
        }
      ],
      "name": "StakeDeposited",
      "type": "event"
    },
    {
      "anonymous": false,
      "inputs": [
        {
          "indexed": true,
          "internalType": "address",
          "name": "indexer",
          "type": "address"
        },
        {
          "indexed": true,
          "internalType": "address",
          "name": "delegator",
          "type": "address"
        },
        {
          "indexed": false,
          "internalType": "uint256",
          "name": "amount",
          "type": "uint256"
        }
      ],
      "name": "TransferredDelegationReturnedToDelegator",
      "type": "event"
    },
    {
      "inputs": [],
      "name": "__DEPRECATED_getThawingPeriod",
      "outputs": [
        {
          "internalType": "uint64",
          "name": "",
          "type": "uint64"
        }
      ],
      "stateMutability": "view",
      "type": "function"
    },
    {
      "inputs": [
        {
          "internalType": "contract IGraphProxy",
          "name": "_proxy",
          "type": "address"
        }
      ],
      "name": "acceptProxy",
      "outputs": [],
      "stateMutability": "nonpayable",
      "type": "function"
    },
    {
      "inputs": [
        {
          "internalType": "contract IGraphProxy",
          "name": "_proxy",
          "type": "address"
        },
        {
          "internalType": "bytes",
          "name": "_data",
          "type": "bytes"
        }
      ],
      "name": "acceptProxyAndCall",
      "outputs": [],
      "stateMutability": "nonpayable",
      "type": "function"
    },
    {
      "inputs": [
        {
          "internalType": "address",
          "name": "allocationID",
          "type": "address"
        },
        {
          "internalType": "bytes32",
          "name": "poi",
          "type": "bytes32"
        }
      ],
      "name": "closeAllocation",
      "outputs": [],
      "stateMutability": "nonpayable",
      "type": "function"
    },
    {
      "inputs": [
        {
          "internalType": "uint256",
          "name": "tokens",
          "type": "uint256"
        },
        {
          "internalType": "address",
          "name": "allocationID",
          "type": "address"
        }
      ],
      "name": "collect",
      "outputs": [],
      "stateMutability": "nonpayable",
      "type": "function"
    },
    {
      "inputs": [
        {
          "internalType": "address",
          "name": "allocationID",
          "type": "address"
        }
      ],
      "name": "getAllocation",
      "outputs": [
        {
          "components": [
            {
              "internalType": "address",
              "name": "indexer",
              "type": "address"
            },
            {
              "internalType": "bytes32",
              "name": "subgraphDeploymentID",
              "type": "bytes32"
            },
            {
              "internalType": "uint256",
              "name": "tokens",
              "type": "uint256"
            },
            {
              "internalType": "uint256",
              "name": "createdAtEpoch",
              "type": "uint256"
            },
            {
              "internalType": "uint256",
              "name": "closedAtEpoch",
              "type": "uint256"
            },
            {
              "internalType": "uint256",
              "name": "collectedFees",
              "type": "uint256"
            },
            {
              "internalType": "uint256",
              "name": "__DEPRECATED_effectiveAllocation",
              "type": "uint256"
            },
            {
              "internalType": "uint256",
              "name": "accRewardsPerAllocatedToken",
              "type": "uint256"
            },
            {
              "internalType": "uint256",
              "name": "distributedRebates",
              "type": "uint256"
            }
          ],
          "internalType": "struct IHorizonStakingExtension.Allocation",
          "name": "",
          "type": "tuple"
        }
      ],
      "stateMutability": "view",
      "type": "function"
    },
    {
      "inputs": [
        {
          "internalType": "address",
          "name": "allocationID",
          "type": "address"
        }
      ],
      "name": "getAllocationData",
      "outputs": [
        {
          "internalType": "address",
          "name": "",
          "type": "address"
        },
        {
          "internalType": "bytes32",
          "name": "",
          "type": "bytes32"
        },
        {
          "internalType": "uint256",
          "name": "",
          "type": "uint256"
        },
        {
          "internalType": "uint256",
          "name": "",
          "type": "uint256"
        },
        {
          "internalType": "uint256",
          "name": "",
          "type": "uint256"
        }
      ],
      "stateMutability": "view",
      "type": "function"
    },
    {
      "inputs": [
        {
          "internalType": "address",
          "name": "allocationID",
          "type": "address"
        }
      ],
      "name": "getAllocationState",
      "outputs": [
        {
          "internalType": "enum IHorizonStakingExtension.AllocationState",
          "name": "",
          "type": "uint8"
        }
      ],
      "stateMutability": "view",
      "type": "function"
    },
    {
      "inputs": [
        {
          "internalType": "address",
          "name": "serviceProvider",
          "type": "address"
        },
        {
          "internalType": "address",
          "name": "verifier",
          "type": "address"
        }
      ],
      "name": "getDelegatedTokensAvailable",
      "outputs": [
        {
          "internalType": "uint256",
          "name": "",
          "type": "uint256"
        }
      ],
      "stateMutability": "view",
      "type": "function"
    },
    {
      "inputs": [
        {
          "internalType": "address",
          "name": "serviceProvider",
          "type": "address"
        },
        {
          "internalType": "address",
          "name": "verifier",
          "type": "address"
        },
        {
          "internalType": "address",
          "name": "delegator",
          "type": "address"
        }
      ],
      "name": "getDelegation",
      "outputs": [
        {
          "components": [
            {
              "internalType": "uint256",
              "name": "shares",
              "type": "uint256"
            }
          ],
          "internalType": "struct IHorizonStakingTypes.Delegation",
          "name": "",
          "type": "tuple"
        }
      ],
      "stateMutability": "view",
      "type": "function"
    },
    {
      "inputs": [
        {
          "internalType": "address",
          "name": "serviceProvider",
          "type": "address"
        },
        {
          "internalType": "address",
          "name": "verifier",
          "type": "address"
        },
        {
          "internalType": "enum IGraphPayments.PaymentTypes",
          "name": "paymentType",
          "type": "uint8"
        }
      ],
      "name": "getDelegationFeeCut",
      "outputs": [
        {
          "internalType": "uint256",
          "name": "",
          "type": "uint256"
        }
      ],
      "stateMutability": "view",
      "type": "function"
    },
    {
      "inputs": [
        {
          "internalType": "address",
          "name": "serviceProvider",
          "type": "address"
        },
        {
          "internalType": "address",
          "name": "verifier",
          "type": "address"
        }
      ],
      "name": "getDelegationPool",
      "outputs": [
        {
          "components": [
            {
              "internalType": "uint256",
              "name": "tokens",
              "type": "uint256"
            },
            {
              "internalType": "uint256",
              "name": "shares",
              "type": "uint256"
            },
            {
              "internalType": "uint256",
              "name": "tokensThawing",
              "type": "uint256"
            },
            {
              "internalType": "uint256",
              "name": "sharesThawing",
              "type": "uint256"
            }
          ],
          "internalType": "struct IHorizonStakingTypes.DelegationPool",
          "name": "",
          "type": "tuple"
        }
      ],
      "stateMutability": "view",
      "type": "function"
    },
    {
      "inputs": [
        {
          "internalType": "address",
          "name": "serviceProvider",
          "type": "address"
        }
      ],
      "name": "getIdleStake",
      "outputs": [
        {
          "internalType": "uint256",
          "name": "tokens",
          "type": "uint256"
        }
      ],
      "stateMutability": "view",
      "type": "function"
    },
    {
      "inputs": [
        {
          "internalType": "address",
          "name": "indexer",
          "type": "address"
        }
      ],
      "name": "getIndexerStakedTokens",
      "outputs": [
        {
          "internalType": "uint256",
          "name": "",
          "type": "uint256"
        }
      ],
      "stateMutability": "view",
      "type": "function"
    },
    {
      "inputs": [],
      "name": "getMaxThawingPeriod",
      "outputs": [
        {
          "internalType": "uint64",
          "name": "",
          "type": "uint64"
        }
      ],
      "stateMutability": "view",
      "type": "function"
    },
    {
      "inputs": [
        {
          "internalType": "address",
          "name": "serviceProvider",
          "type": "address"
        },
        {
          "internalType": "address",
          "name": "verifier",
          "type": "address"
        }
      ],
      "name": "getProviderTokensAvailable",
      "outputs": [
        {
          "internalType": "uint256",
          "name": "",
          "type": "uint256"
        }
      ],
      "stateMutability": "view",
      "type": "function"
    },
    {
      "inputs": [
        {
          "internalType": "address",
          "name": "serviceProvider",
          "type": "address"
        },
        {
          "internalType": "address",
          "name": "verifier",
          "type": "address"
        }
      ],
      "name": "getProvision",
      "outputs": [
        {
          "components": [
            {
              "internalType": "uint256",
              "name": "tokens",
              "type": "uint256"
            },
            {
              "internalType": "uint256",
              "name": "tokensThawing",
              "type": "uint256"
            },
            {
              "internalType": "uint256",
              "name": "sharesThawing",
              "type": "uint256"
            },
            {
              "internalType": "uint32",
              "name": "maxVerifierCut",
              "type": "uint32"
            },
            {
              "internalType": "uint64",
              "name": "thawingPeriod",
              "type": "uint64"
            },
            {
              "internalType": "uint64",
              "name": "createdAt",
              "type": "uint64"
            },
            {
              "internalType": "uint32",
              "name": "maxVerifierCutPending",
              "type": "uint32"
            },
            {
              "internalType": "uint64",
              "name": "thawingPeriodPending",
              "type": "uint64"
            }
          ],
          "internalType": "struct IHorizonStakingTypes.Provision",
          "name": "",
          "type": "tuple"
        }
      ],
      "stateMutability": "view",
      "type": "function"
    },
    {
      "inputs": [
        {
          "internalType": "address",
          "name": "serviceProvider",
          "type": "address"
        }
      ],
      "name": "getServiceProvider",
      "outputs": [
        {
          "components": [
            {
              "internalType": "uint256",
              "name": "tokensStaked",
              "type": "uint256"
            },
            {
              "internalType": "uint256",
              "name": "tokensProvisioned",
              "type": "uint256"
            }
          ],
          "internalType": "struct IHorizonStakingTypes.ServiceProvider",
          "name": "",
          "type": "tuple"
        }
      ],
      "stateMutability": "view",
      "type": "function"
    },
    {
      "inputs": [
        {
          "internalType": "address",
          "name": "serviceProvider",
          "type": "address"
        }
      ],
      "name": "getStake",
      "outputs": [
        {
          "internalType": "uint256",
          "name": "",
          "type": "uint256"
        }
      ],
      "stateMutability": "view",
      "type": "function"
    },
    {
      "inputs": [
        {
          "internalType": "bytes32",
          "name": "subgraphDeploymentID",
          "type": "bytes32"
        }
      ],
      "name": "getSubgraphAllocatedTokens",
      "outputs": [
        {
          "internalType": "uint256",
          "name": "",
          "type": "uint256"
        }
      ],
      "stateMutability": "view",
      "type": "function"
    },
    {
      "inputs": [
        {
          "internalType": "bytes32",
          "name": "thawRequestId",
          "type": "bytes32"
        }
      ],
      "name": "getThawRequest",
      "outputs": [
        {
          "components": [
            {
              "internalType": "uint256",
              "name": "shares",
              "type": "uint256"
            },
            {
              "internalType": "uint64",
              "name": "thawingUntil",
              "type": "uint64"
            },
            {
              "internalType": "bytes32",
              "name": "next",
              "type": "bytes32"
            }
          ],
          "internalType": "struct IHorizonStakingTypes.ThawRequest",
          "name": "",
          "type": "tuple"
        }
      ],
      "stateMutability": "view",
      "type": "function"
    },
    {
      "inputs": [
        {
          "internalType": "address",
          "name": "serviceProvider",
          "type": "address"
        },
        {
          "internalType": "address",
          "name": "verifier",
          "type": "address"
        },
        {
          "internalType": "address",
          "name": "owner",
          "type": "address"
        }
      ],
      "name": "getThawRequestList",
      "outputs": [
        {
          "components": [
            {
              "internalType": "bytes32",
              "name": "head",
              "type": "bytes32"
            },
            {
              "internalType": "bytes32",
              "name": "tail",
              "type": "bytes32"
            },
            {
              "internalType": "uint256",
              "name": "nonce",
              "type": "uint256"
            },
            {
              "internalType": "uint256",
              "name": "count",
              "type": "uint256"
            }
          ],
          "internalType": "struct LinkedList.List",
          "name": "",
          "type": "tuple"
        }
      ],
      "stateMutability": "view",
      "type": "function"
    },
    {
      "inputs": [
        {
          "internalType": "address",
          "name": "serviceProvider",
          "type": "address"
        },
        {
          "internalType": "address",
          "name": "verifier",
          "type": "address"
        },
        {
          "internalType": "address",
          "name": "owner",
          "type": "address"
        }
      ],
      "name": "getThawedTokens",
      "outputs": [
        {
          "internalType": "uint256",
          "name": "",
          "type": "uint256"
        }
      ],
      "stateMutability": "view",
      "type": "function"
    },
    {
      "inputs": [
        {
          "internalType": "address",
          "name": "serviceProvider",
          "type": "address"
        },
        {
          "internalType": "address",
          "name": "verifier",
          "type": "address"
        },
        {
          "internalType": "uint32",
          "name": "delegationRatio",
          "type": "uint32"
        }
      ],
      "name": "getTokensAvailable",
      "outputs": [
        {
          "internalType": "uint256",
          "name": "",
          "type": "uint256"
        }
      ],
      "stateMutability": "view",
      "type": "function"
    },
    {
      "inputs": [
        {
          "internalType": "address",
          "name": "indexer",
          "type": "address"
        }
      ],
      "name": "hasStake",
      "outputs": [
        {
          "internalType": "bool",
          "name": "",
          "type": "bool"
        }
      ],
      "stateMutability": "view",
      "type": "function"
    },
    {
      "inputs": [
        {
          "internalType": "address",
          "name": "allocationID",
          "type": "address"
        }
      ],
      "name": "isActiveAllocation",
      "outputs": [
        {
          "internalType": "bool",
          "name": "",
          "type": "bool"
        }
      ],
      "stateMutability": "view",
      "type": "function"
    },
    {
      "inputs": [
        {
          "internalType": "address",
          "name": "allocationID",
          "type": "address"
        }
      ],
      "name": "isAllocation",
      "outputs": [
        {
          "internalType": "bool",
          "name": "",
          "type": "bool"
        }
      ],
      "stateMutability": "view",
      "type": "function"
    },
    {
      "inputs": [
        {
          "internalType": "address",
          "name": "verifier",
          "type": "address"
        }
      ],
      "name": "isAllowedLockedVerifier",
      "outputs": [
        {
          "internalType": "bool",
          "name": "",
          "type": "bool"
        }
      ],
      "stateMutability": "view",
      "type": "function"
    },
    {
      "inputs": [],
      "name": "isDelegationSlashingEnabled",
      "outputs": [
        {
          "internalType": "bool",
          "name": "",
          "type": "bool"
        }
      ],
      "stateMutability": "view",
      "type": "function"
    },
    {
      "inputs": [
        {
          "internalType": "address",
          "name": "operator",
          "type": "address"
        },
        {
          "internalType": "address",
          "name": "serviceProvider",
          "type": "address"
        }
      ],
      "name": "isOperator",
      "outputs": [
        {
          "internalType": "bool",
          "name": "",
          "type": "bool"
        }
      ],
      "stateMutability": "view",
      "type": "function"
    },
    {
      "inputs": [
        {
          "internalType": "bytes[]",
          "name": "data",
          "type": "bytes[]"
        }
      ],
      "name": "multicall",
      "outputs": [
        {
          "internalType": "bytes[]",
          "name": "results",
          "type": "bytes[]"
        }
      ],
      "stateMutability": "nonpayable",
      "type": "function"
    },
    {
      "inputs": [
        {
          "internalType": "address",
          "name": "from",
          "type": "address"
        },
        {
          "internalType": "uint256",
          "name": "tokens",
          "type": "uint256"
        },
        {
          "internalType": "bytes",
          "name": "data",
          "type": "bytes"
        }
      ],
      "name": "onTokenTransfer",
      "outputs": [],
      "stateMutability": "nonpayable",
      "type": "function"
    },
    {
      "inputs": [
        {
          "internalType": "address",
          "name": "counterpart",
          "type": "address"
        }
      ],
      "name": "setCounterpartStakingAddress",
      "outputs": [],
      "stateMutability": "nonpayable",
      "type": "function"
    },
    {
      "stateMutability": "payable",
      "type": "receive"
    }
  ],
  "bytecode": "0x6101e060405234801561001157600080fd5b5060405161396738038061396783398101604081905261003091610411565b818181806001600160a01b03811661007d5760405163218f5add60e11b815260206004820152600a60248201526921b7b73a3937b63632b960b11b60448201526064015b60405180910390fd5b6001600160a01b0381166101005260408051808201909152600a81526923b930b8342a37b5b2b760b11b60208201526100b590610347565b6001600160a01b03166080526040805180820190915260078152665374616b696e6760c81b60208201526100e890610347565b6001600160a01b031660a05260408051808201909152600d81526c47726170685061796d656e747360981b602082015261012190610347565b6001600160a01b031660c05260408051808201909152600e81526d5061796d656e7473457363726f7760901b602082015261015b90610347565b6001600160a01b031660e05260408051808201909152600c81526b22b837b1b426b0b730b3b2b960a11b602082015261019390610347565b6001600160a01b03166101205260408051808201909152600e81526d2932bbb0b93239a6b0b730b3b2b960911b60208201526101ce90610347565b6001600160a01b0316610140526040805180820190915260118152704772617068546f6b656e4761746577617960781b602082015261020c90610347565b6001600160a01b03166101605260408051808201909152600f81526e23b930b834283937bc3ca0b236b4b760891b602082015261024890610347565b6001600160a01b03166101805260408051808201909152600881526721bab930ba34b7b760c11b602082015261027d90610347565b6001600160a01b039081166101a08190526101005160a05160805160c05160e05161012051610140516101605161018051604051988b169a9788169996909716977fef5021414834d86e36470f5c1cecf6544fb2bb723f2ca51a4c86fcd8c5919a43976103279790916001600160a01b03978816815295871660208701529386166040860152918516606085015284166080840152831660a083015290911660c082015260e00190565b60405180910390a450506001600160a01b03166101c052506104b4915050565b600080610100516001600160a01b031663f7641a5e84805190602001206040518263ffffffff1660e01b815260040161038291815260200190565b602060405180830381865afa15801561039f573d6000803e3d6000fd5b505050506040513d601f19601f820116820180604052508101906103c39190610444565b9050826001600160a01b0382166103ee5760405163218f5add60e11b81526004016100749190610466565b5092915050565b80516001600160a01b038116811461040c57600080fd5b919050565b6000806040838503121561042457600080fd5b61042d836103f5565b915061043b602084016103f5565b90509250929050565b60006020828403121561045657600080fd5b61045f826103f5565b9392505050565b602081526000825180602084015260005b818110156104945760208186018101516040868401015201610477565b506000604082850101526040601f19601f83011684010191505092915050565b60805160a05160c05160e05161010051610120516101405161016051610180516101a0516101c0516133d761059060003960008181611c3601528181611e3601526123f00152600061205b015260005050600061178501526000818161213d0152818161280501526129080152600081816112c70152611b6f015260008181610bbf01528181610cbc01528181610ed601526116dc015260005050600050506000505060008181611044015281816111fa01528181612023015281816121b20152818161239a015281816124c2015261263201526133d76000f3fe6080604052600436106101f25760003560e01c806398c657dc1161010d578063b6363cf2116100a0578063e2e1e8e91161006f578063e2e1e8e914610a0b578063e73e14bf14610a38578063f1d60d6614610a70578063fb744cc014610a90578063fc54fb2714610ab057600080fd5b8063b6363cf2146108dd578063b7ca724114610927578063c0641994146109c1578063ccebcabb146109dc57600080fd5b8063a4c0ed36116100dc578063a4c0ed3614610837578063a784d49814610857578063ac9650d814610877578063ae4fe67a146108a457600080fd5b806398c657dc1461072d5780639ce7abe51461075a578063a212daf81461077a578063a2594d821461081757600080fd5b8063561285e411610185578063872d048911610154578063872d04891461064c5780638cc01c861461066c5780638d3c100a146106ed5780639054e3431461070d57600080fd5b8063561285e4146105a95780636a3ca383146105fc5780637573ef4f1461062c5780637a7664601461031157600080fd5b806325d9897e116101c157806325d9897e1461036957806339514ad21461047957806344c32a61146104ab57806355c85269146104cb57600080fd5b806308ce5f68146102495780630e0229231461027c5780631787e69f146103115780631ae720451461034757600080fd5b366102445760405162461bcd60e51b815260206004820152601760248201527f524543454956455f4554485f4e4f545f414c4c4f57454400000000000000000060448201526064015b60405180910390fd5b600080fd5b34801561025557600080fd5b50610269610264366004612bec565b610ac8565b6040519081526020015b60405180910390f35b34801561028857600080fd5b5061029c610297366004612c25565b610add565b604051610273919060006101208201905060018060a01b0383511682526020830151602083015260408301516040830152606083015160608301526080830151608083015260a083015160a083015260c083015160c083015260e083015160e083015261010083015161010083015292915050565b34801561031d57600080fd5b5061026961032c366004612c25565b6001600160a01b03166000908152600e602052604090205490565b34801561035357600080fd5b50610367610362366004612c25565b610bbd565b005b34801561037557600080fd5b5061046c610384366004612bec565b6040805161010081018252600080825260208201819052918101829052606081018290526080810182905260a0810182905260c0810182905260e0810191909152506001600160a01b039182166000908152601b602090815260408083209390941682529182528290208251610100810184528154815260018201549281019290925260028101549282019290925260039091015463ffffffff808216606084015264010000000082046001600160401b039081166080850152600160601b8304811660a0850152600160a01b830490911660c0840152600160c01b9091041660e082015290565b6040516102739190612c42565b34801561048557600080fd5b50601a546001600160401b03165b6040516001600160401b039091168152602001610273565b3480156104b757600080fd5b506103676104c6366004612cd2565b610cba565b3480156104d757600080fd5b506105776104e6366004612c25565b6001600160a01b039081166000908152600f602090815260408083208151610120810183528154909516808652600182015493860184905260028201549286018390526003820154606087015260048201546080870152600582015460a0870152600682015460c0870152600782015460e08701819052600890920154610100909601959095529394919390929091565b604080516001600160a01b0390961686526020860194909452928401919091526060830152608082015260a001610273565b3480156105b557600080fd5b506105c96105c4366004612bec565b610d68565b60405161027391908151815260208083015190820152604080830151908201526060918201519181019190915260800190565b34801561060857600080fd5b5061061c610617366004612c25565b610df6565b6040519015158152602001610273565b34801561063857600080fd5b50610269610647366004612cfe565b610e1b565b34801561065857600080fd5b50610269610667366004612d4d565b610e7f565b34801561067857600080fd5b506106d2610687366004612c25565b60408051808201825260008082526020918201819052825180840184528181528083018281526001600160a01b03959095168252600e90925291909120805482526004015490915290565b60408051825181526020928301519281019290925201610273565b3480156106f957600080fd5b50610367610708366004612d96565b610ed4565b34801561071957600080fd5b50610269610728366004612dbb565b6113a0565b34801561073957600080fd5b5061074d610748366004612c25565b611488565b6040516102739190612e11565b34801561076657600080fd5b50610367610775366004612e81565b611493565b34801561078657600080fd5b506105c9610795366004612dbb565b60408051608080820183526000808352602080840182905283850182905260609384018290526001600160a01b039788168252601e815284822096881682529586528381209490961686529284529381902081519283018252805483526001810154938301939093526002830154908201526003909101549181019190915290565b34801561082357600080fd5b50610367610832366004612c25565b6115be565b34801561084357600080fd5b50610367610852366004612ed5565b6116da565b34801561086357600080fd5b50610269610872366004612c25565b6118e7565b34801561088357600080fd5b50610897610892366004612f30565b6118f2565b6040516102739190612fc9565b3480156108b057600080fd5b5061061c6108bf366004612c25565b6001600160a01b031660009081526022602052604090205460ff1690565b3480156108e957600080fd5b5061061c6108f8366004612bec565b6001600160a01b0380821660009081526015602090815260408083209386168352929052205460ff1692915050565b34801561093357600080fd5b50610996610942366004613049565b604080516060808201835260008083526020808401829052928401819052938452601d825292829020825193840183528054845260018101546001600160401b031691840191909152600201549082015290565b60408051825181526020808401516001600160401b0316908201529181015190820152606001610273565b3480156109cd57600080fd5b50600d5463ffffffff16610493565b3480156109e857600080fd5b506109fc6109f7366004612dbb565b6119d9565b60405190518152602001610273565b348015610a1757600080fd5b50610269610a26366004613049565b60009081526010602052604090205490565b348015610a4457600080fd5b5061061c610a53366004612c25565b6001600160a01b03166000908152600e6020526040902054151590565b348015610a7c57600080fd5b5061061c610a8b366004612c25565b611a2b565b348015610a9c57600080fd5b50610269610aab366004612bec565b611a50565b348015610abc57600080fd5b5060205460ff1661061c565b6000610ad48383611a5c565b90505b92915050565b610b3860405180610120016040528060006001600160a01b0316815260200160008019168152602001600081526020016000815260200160008152602001600081526020016000815260200160008152602001600081525090565b506001600160a01b039081166000908152600f6020908152604091829020825161012081018452815490941684526001810154918401919091526002810154918301919091526003810154606083015260048101546080830152600581015460a0830152600681015460c0830152600781015460e08301526008015461010082015290565b7f00000000000000000000000000000000000000000000000000000000000000006001600160a01b0316634fc07d756040518163ffffffff1660e01b8152600401602060405180830381865afa158015610c1b573d6000803e3d6000fd5b505050506040513d601f19601f82011682018060405250810190610c3f9190613062565b6001600160a01b0316336001600160a01b031614610c7057604051635d9044cd60e01b815260040160405180910390fd5b601880546001600160a01b0319166001600160a01b0383169081179091556040517f690e9b982dc9aefaa1cfed186a2d2045a638013d658104102c9437235bee4b6090600090a250565b7f00000000000000000000000000000000000000000000000000000000000000006001600160a01b0316635c975abb6040518163ffffffff1660e01b8152600401602060405180830381865afa158015610d18573d6000803e3d6000fd5b505050506040513d601f19601f82011682018060405250810190610d3c919061307f565b15610d5a57604051632b37d9d160e21b815260040160405180910390fd5b610d648282611a94565b5050565b610d936040518060800160405280600081526020016000815260200160008152602001600081525090565b610dbe6040518060800160405280600081526020016000815260200160008152602001600081525090565b6000610dca8585611e32565b600281015483526003810154602084015260058101546040840152600601546060830152509392505050565b60006001610e0383611eb6565b6002811115610e1457610e14612dfb565b1492915050565b6001600160a01b038084166000908152601c60209081526040808320938616835292905290812081836002811115610e5557610e55612dfb565b6002811115610e6657610e66612dfb565b81526020019081526020016000205490505b9392505050565b600080610e8c8585611a5c565b90506000610e9a8686611f0f565b90506000610eae63ffffffff8616846130b7565b90506000610ebc8383611f3a565b9050610ec881856130ce565b98975050505050505050565b7f00000000000000000000000000000000000000000000000000000000000000006001600160a01b0316635c975abb6040518163ffffffff1660e01b8152600401602060405180830381865afa158015610f32573d6000803e3d6000fd5b505050506040513d601f19601f82011682018060405250810190610f56919061307f565b15610f7457604051632b37d9d160e21b815260040160405180910390fd5b6001600160a01b038116610fb35760405162461bcd60e51b815260206004820152600660248201526521616c6c6f6360d01b604482015260640161023b565b6000610fbe82611eb6565b90506000816002811115610fd457610fd4612dfb565b0361100c5760405162461bcd60e51b81526020600482015260086024820152670858dbdb1b1958dd60c21b604482015260640161023b565b8260000361101957505050565b6001600160a01b0382166000908152600f6020526040812060018101549091859080808061107333867f00000000000000000000000000000000000000000000000000000000000000006001600160a01b03169190611f51565b600d5461108e908690600160401b900463ffffffff1661200e565b935061109a84866130e1565b600d549095506110bb9087908790640100000000900463ffffffff16612047565b92506110c783866130e1565b94508487600501546110d991906130ce565b6005880155600287015460009015806110ff5750601954600160a01b900463ffffffff16155b6111ca5760058801546002890154600d546019546040516349484d8160e01b81526004810194909452602484019290925263ffffffff600160a01b80830482166044860152600160c01b928390048216606486015283048116608485015291041660a482015273__$8eb3cac1482a31d7a7f2cbe7dc8bdcd821$__906349484d819060c401602060405180830381865af41580156111a1573d6000803e3d6000fd5b505050506040513d601f19601f820116820180604052508101906111c591906130f4565b6111cd565b60005b90506111dd81896008015461225a565b92506111e98387611f3a565b92506112296111f884886130e1565b7f00000000000000000000000000000000000000000000000000000000000000005b6001600160a01b031690612274565b82156112915782886008015461123f91906130ce565b60088901558754611259906001600160a01b0316846122bc565b915061126582846130e1565b88546001600160a01b03908116600081815260176020526040902054929550611291928692161561234e565b5086546001600160a01b038a8116918891167ff5ded07502b6feba4c13b19a0c6646efd4b4119f439bcbd49076e4f0ed1eec4b337f00000000000000000000000000000000000000000000000000000000000000006001600160a01b031663766718086040518163ffffffff1660e01b8152600401602060405180830381865afa158015611323573d6000803e3d6000fd5b505050506040513d601f19601f8201168201806040525081019061134791906130f4565b604080516001600160a01b039093168352602083019190915281018f9052606081018990526080810188905260a081018a905260c0810187905260e081018690526101000160405180910390a450505050505050505050565b6001600160a01b038084166000908152601e60209081526040808320868516845282528083209385168352929052908120600381015482036113e6576000915050610e78565b6001600160a01b038086166000908152601b60209081526040808320938816835292905290812082545b801561147c576000818152601d602052604090206001810154426001600160401b039091161161146b5760028301546001840154825461145091906130b7565b61145a919061310d565b61146490856130ce565b9350611471565b5061147c565b600201549050611410565b50909695505050505050565b6000610ad782611eb6565b82806001600160a01b031663f851a4406040518163ffffffff1660e01b81526004016020604051808303816000875af11580156114d4573d6000803e3d6000fd5b505050506040513d601f19601f820116820180604052508101906114f89190613062565b6001600160a01b0316336001600160a01b0316146115585760405162461bcd60e51b815260206004820152601e60248201527f43616c6c6572206d757374206265207468652070726f78792061646d696e0000604482015260640161023b565b60405163623faf6160e01b81526001600160a01b0385169063623faf6190611586908690869060040161312f565b600060405180830381600087803b1580156115a057600080fd5b505af11580156115b4573d6000803e3d6000fd5b5050505050505050565b80806001600160a01b031663f851a4406040518163ffffffff1660e01b81526004016020604051808303816000875af11580156115ff573d6000803e3d6000fd5b505050506040513d601f19601f820116820180604052508101906116239190613062565b6001600160a01b0316336001600160a01b0316146116835760405162461bcd60e51b815260206004820152601e60248201527f43616c6c6572206d757374206265207468652070726f78792061646d696e0000604482015260640161023b565b816001600160a01b03166359fc20bb6040518163ffffffff1660e01b8152600401600060405180830381600087803b1580156116be57600080fd5b505af11580156116d2573d6000803e3d6000fd5b505050505050565b7f00000000000000000000000000000000000000000000000000000000000000006001600160a01b0316635c975abb6040518163ffffffff1660e01b8152600401602060405180830381865afa158015611738573d6000803e3d6000fd5b505050506040513d601f19601f8201168201806040525081019061175c919061307f565b1561177a57604051632b37d9d160e21b815260040160405180910390fd5b336001600160a01b037f000000000000000000000000000000000000000000000000000000000000000016146117e15760405162461bcd60e51b815260206004820152600c60248201526b4f4e4c595f4741544557415960a01b604482015260640161023b565b6018546001600160a01b0385811691161461183e5760405162461bcd60e51b815260206004820152601e60248201527f4f4e4c595f4c315f5354414b494e475f5448524f5547485f4252494447450000604482015260640161023b565b60008061184d838501856131a4565b909250905060ff8216611882576000818060200190518101906118709190613255565b905061187c86826123c4565b506116d2565b60001960ff8316016118b0576000818060200190518101906118a491906132a2565b905061187c86826123d0565b60405162461bcd60e51b815260206004820152600c60248201526b494e56414c49445f434f444560a01b604482015260640161023b565b6000610ad782612740565b604080516000815260208101909152606090826001600160401b0381111561191c5761191c61315e565b60405190808252806020026020018201604052801561194f57816020015b606081526020019060019003908161193a5790505b50915060005b838110156119d1576119ac3086868481811061197357611973613302565b90506020028101906119859190613318565b856040516020016119989392919061335e565b60405160208183030381529060405261278b565b8382815181106119be576119be613302565b6020908102919091010152600101611955565b505092915050565b6040805160208101909152600081526040805160208101909152600081526000611a038686611e32565b6001600160a01b03851660009081526004909101602052604090205482525090509392505050565b600080611a3783611eb6565b6002811115611a4857611a48612dfb565b141592915050565b6000610ad48383611f0f565b6001600160a01b038281166000908152601b60209081526040808320938516835292905290812060018101549054610ad491906130e1565b6000611a9f83611eb6565b90506001816002811115611ab557611ab5612dfb565b14611aec5760405162461bcd60e51b81526020600482015260076024820152662161637469766560c81b604482015260640161023b565b6001600160a01b038381166000908152600f6020908152604091829020825161012081018452815490941684526001810154918401919091526002810154918301919091526003810154606083015260048101546080830152600581015460a0830152600681015460c0830152600781015460e0830152600801546101008201527f00000000000000000000000000000000000000000000000000000000000000006001600160a01b031663766718086040518163ffffffff1660e01b8152600401602060405180830381865afa158015611bcb573d6000803e3d6000fd5b505050506040513d601f19601f82011682018060405250810190611bef91906130f4565b608082018190526060820151600091611c079161225a565b9050600082600001516001600160a01b0316336001600160a01b03161480611c78575082516001600160a01b037f00000000000000000000000000000000000000000000000000000000000000008116600090815260156020908152604080832093909416825291909152205460ff165b600d54909150600160801b900463ffffffff1682111580611c9b57506040830151155b15611cd55780611cd55760405162461bcd60e51b8152602060048201526005602482015264042c2eae8d60db1b604482015260640161023b565b60808301516001600160a01b0387166000908152600f6020526040908190206004019190915583015115611db957808015611d0f57508415155b15611d2757611d22868460000151612801565b611d36565b611d3483602001516128e7565b505b60408084015184516001600160a01b03166000908152600e6020529190912060010154611d6391906130e1565b83516001600160a01b03166000908152600e602090815260408083206001019390935582860151818701518352601090915291902054611da391906130e1565b6020808501516000908152601090915260409020555b60208084015184516080808701516040808901518151928352958201959095523394810194909452606084018990528415908401526001600160a01b03808a16939116907ff6725dd105a6fc88bb79a6e4627f128577186c567a17c94818d201c2a4ce14039060a00160405180910390a4505050505050565b60007f00000000000000000000000000000000000000000000000000000000000000006001600160a01b0316826001600160a01b031603611e8b57506001600160a01b0382166000908152601460205260409020610ad7565b506001600160a01b038083166000908152602160209081526040808320938516835292905220610ad7565b6001600160a01b038082166000908152600f6020526040812080549192909116611ee35750600092915050565b600381015415801590611ef857506004810154155b15611f065750600192915050565b50600292915050565b600080611f1c8484611e32565b905080600501548160020154611f3291906130e1565b949350505050565b600081831115611f4a5781610ad4565b5090919050565b8015612009576040516323b872dd60e01b81526001600160a01b038381166004830152306024830152604482018390528416906323b872dd906064015b6020604051808303816000875af1158015611fad573d6000803e3d6000fd5b505050506040513d601f19601f82011682018060405250810190611fd1919061307f565b6120095760405162461bcd60e51b815260206004820152600960248201526810ba3930b739b332b960b91b604482015260640161023b565b505050565b60008061201b8484612975565b9050610ad4817f000000000000000000000000000000000000000000000000000000000000000061121a565b60008260000361205957506000610e78565b7f00000000000000000000000000000000000000000000000000000000000000006000831580159061209357506001600160a01b03821615155b90508080156121065750604051634c4ea0ed60e01b8152600481018790526001600160a01b03831690634c4ea0ed90602401602060405180830381865afa1580156120e2573d6000803e3d6000fd5b505050506040513d601f19601f82011682018060405250810190612106919061307f565b1561224e5760006121178686612975565b90508015612244576040516307470bfb60e21b8152600481018890526001600160a01b037f00000000000000000000000000000000000000000000000000000000000000001690631d1c2fec906024016020604051808303816000875af1158015612186573d6000803e3d6000fd5b505050506040513d601f19601f820116820180604052508101906121aa91906130f4565b506121e283827f00000000000000000000000000000000000000000000000000000000000000005b6001600160a01b031691906129c7565b60405163102ae65160e31b815260048101889052602481018290526001600160a01b03841690638157328890604401600060405180830381600087803b15801561222b57600080fd5b505af115801561223f573d6000803e3d6000fd5b505050505b9250610e78915050565b50600095945050505050565b600081831161226a576000610ad4565b610ad482846130e1565b8015610d6457604051630852cd8d60e31b8152600481018290526001600160a01b038316906342966c6890602401600060405180830381600087803b1580156116be57600080fd5b6001600160a01b03821660009081526014602052604081206002810154829190158015906122fb57508054600160401b900463ffffffff16620f424010155b156123465780546000906123219063ffffffff600160401b9091048116908790612a0216565b905061232d81866130e1565b925082826002015461233f91906130ce565b6002830155505b509392505050565b8260000361235b57505050565b801561236b576120098284612a69565b6001600160a01b03808316600090815260176020526040902054166123be81156123955781612397565b835b857f00000000000000000000000000000000000000000000000000000000000000006121d2565b50505050565b80516120098184612a69565b80516001600160a01b039081166000908152601b602090815260408083207f0000000000000000000000000000000000000000000000000000000000000000909416835292905290812060030154600160601b90046001600160401b031690036124695760405162461bcd60e51b815260206004820152600a60248201526910b83937bb34b9b4b7b760b11b604482015260640161023b565b80516001600160a01b03908116600090815260146020908152604080832082860151909416835260048401909152902060028201541580156124bb575060038201541515806124bb5750600682015415155b156125b5577f0000000000000000000000000000000000000000000000000000000000000000602084015160405163a9059cbb60e01b81526001600160a01b0391821660048201526024810187905291169063a9059cbb906044016020604051808303816000875af1158015612535573d6000803e3d6000fd5b505050506040513d601f19601f82011682018060405250810190612559919061307f565b5082602001516001600160a01b031683600001516001600160a01b03167f0921ebf1ba63d93aed0e18402fa38cb5515048daf6a04549c1bd1c1f560d72de866040516125a791815260200190565b60405180910390a350505050565b60008260020154600014806125d1575082600501548360020154145b61260757826005015483600201546125e991906130e1565b60038401546125f890876130b7565b612602919061310d565b612609565b845b905080158061261f5750670de0b6b3a764000085105b156126ae576126548460200151866121d27f000000000000000000000000000000000000000000000000000000000000000090565b83602001516001600160a01b031684600001516001600160a01b03167f0921ebf1ba63d93aed0e18402fa38cb5515048daf6a04549c1bd1c1f560d72de876040516126a191815260200190565b60405180910390a3612739565b8483600201546126be91906130ce565b600284015560038301546126d39082906130ce565b600384015581546126e59082906130ce565b82556020808501518551604080518981529384018590526001600160a01b039283169391909216917fcd0366dce5247d874ffc60a762aa7abbb82c1695bbb171609c1b8861e279eb73910160405180910390a35b5050505050565b6001600160a01b0381166000908152600e6020526040812060028101546001820154600483015492549192909161277791906130e1565b61278191906130e1565b610ad791906130e1565b6060600080846001600160a01b0316846040516127a89190613385565b600060405180830381855af49150503d80600081146127e3576040519150601f19603f3d011682016040523d82523d6000602084013e6127e8565b606091505b50915091506127f8858383612ae8565b95945050505050565b60007f0000000000000000000000000000000000000000000000000000000000000000604051636dba849360e11b81526001600160a01b038581166004830152919091169063db750926906024016020604051808303816000875af115801561286e573d6000803e3d6000fd5b505050506040513d601f19601f8201168201806040525081019061289291906130f4565b9050806000036128a157505050565b60006128ad8383612b44565b905060006128bb82846130e1565b6001600160a01b038086166000908152601760205260409020549192506127399183918791161561234e565b6040516377561f0760e11b8152600481018290526000906001600160a01b037f0000000000000000000000000000000000000000000000000000000000000000169063eeac3e0e906024016020604051808303816000875af1158015612951573d6000803e3d6000fd5b505050506040513d601f19601f82011682018060405250810190610ad791906130f4565b600061298482620f4240101590565b82906129a657604051633dc311df60e01b815260040161023b91815260200190565b506129bd6129b783620f42406130e1565b84612a02565b610ad490846130e1565b80156120095760405163a9059cbb60e01b81526001600160a01b0383811660048301526024820183905284169063a9059cbb90604401611f8e565b6000612a1183620f4240101590565b80612a245750612a2482620f4240101590565b83839091612a4e5760405163768bf0eb60e11b81526004810192909252602482015260440161023b565b50620f42409050612a5f83856130b7565b610ad4919061310d565b6001600160a01b0382166000908152600e6020526040902054612a8d9082906130ce565b6001600160a01b0383166000818152600e6020526040908190209290925590517f0a7bb2e28cc4698aac06db79cf9163bfcc20719286cf59fa7d492ceda1b8edc290612adc9084815260200190565b60405180910390a25050565b606082612afd57612af882612bab565b610e78565b8151158015612b1457506001600160a01b0384163b155b15612b3d57604051639996b31560e01b81526001600160a01b038516600482015260240161023b565b5080610e78565b6001600160a01b0382166000908152601460205260408120600281015482919015801590612b8457508054640100000000900463ffffffff16620f424010155b156123465780546000906123219063ffffffff6401000000009091048116908790612a0216565b805115612bbb5780518082602001fd5b604051630a12f52160e11b815260040160405180910390fd5b50565b6001600160a01b0381168114612bd457600080fd5b60008060408385031215612bff57600080fd5b8235612c0a81612bd7565b91506020830135612c1a81612bd7565b809150509250929050565b600060208284031215612c3757600080fd5b8135610ad481612bd7565b60006101008201905082518252602083015160208301526040830151604083015263ffffffff60608401511660608301526001600160401b0360808401511660808301526001600160401b0360a08401511660a083015260c0830151612cb060c084018263ffffffff169052565b5060e0830151612ccb60e08401826001600160401b03169052565b5092915050565b60008060408385031215612ce557600080fd5b8235612cf081612bd7565b946020939093013593505050565b600080600060608486031215612d1357600080fd5b8335612d1e81612bd7565b92506020840135612d2e81612bd7565b9150604084013560038110612d4257600080fd5b809150509250925092565b600080600060608486031215612d6257600080fd5b8335612d6d81612bd7565b92506020840135612d7d81612bd7565b9150604084013563ffffffff81168114612d4257600080fd5b60008060408385031215612da957600080fd5b823591506020830135612c1a81612bd7565b600080600060608486031215612dd057600080fd5b8335612ddb81612bd7565b92506020840135612deb81612bd7565b91506040840135612d4281612bd7565b634e487b7160e01b600052602160045260246000fd5b6020810160038310612e3357634e487b7160e01b600052602160045260246000fd5b91905290565b60008083601f840112612e4b57600080fd5b5081356001600160401b03811115612e6257600080fd5b602083019150836020828501011115612e7a57600080fd5b9250929050565b600080600060408486031215612e9657600080fd5b8335612ea181612bd7565b925060208401356001600160401b03811115612ebc57600080fd5b612ec886828701612e39565b9497909650939450505050565b60008060008060608587031215612eeb57600080fd5b8435612ef681612bd7565b93506020850135925060408501356001600160401b03811115612f1857600080fd5b612f2487828801612e39565b95989497509550505050565b60008060208385031215612f4357600080fd5b82356001600160401b03811115612f5957600080fd5b8301601f81018513612f6a57600080fd5b80356001600160401b03811115612f8057600080fd5b8560208260051b8401011115612f9557600080fd5b6020919091019590945092505050565b60005b83811015612fc0578181015183820152602001612fa8565b50506000910152565b6000602082016020835280845180835260408501915060408160051b86010192506020860160005b8281101561303d57603f198786030184528151805180875261301a816020890160208501612fa5565b601f01601f19169590950160209081019550938401939190910190600101612ff1565b50929695505050505050565b60006020828403121561305b57600080fd5b5035919050565b60006020828403121561307457600080fd5b8151610ad481612bd7565b60006020828403121561309157600080fd5b81518015158114610ad457600080fd5b634e487b7160e01b600052601160045260246000fd5b8082028115828204841417610ad757610ad76130a1565b80820180821115610ad757610ad76130a1565b81810381811115610ad757610ad76130a1565b60006020828403121561310657600080fd5b5051919050565b60008261312a57634e487b7160e01b600052601260045260246000fd5b500490565b60208152816020820152818360408301376000818301604090810191909152601f909201601f19160101919050565b634e487b7160e01b600052604160045260246000fd5b604051601f8201601f191681016001600160401b038111828210171561319c5761319c61315e565b604052919050565b600080604083850312156131b757600080fd5b823560ff811681146131c857600080fd5b915060208301356001600160401b038111156131e357600080fd5b8301601f810185136131f457600080fd5b80356001600160401b0381111561320d5761320d61315e565b613220601f8201601f1916602001613174565b81815286602083850101111561323557600080fd5b816020840160208301376000602083830101528093505050509250929050565b6000602082840312801561326857600080fd5b50604051602081016001600160401b038111828210171561328b5761328b61315e565b604052825161329981612bd7565b81529392505050565b600060408284031280156132b557600080fd5b50604080519081016001600160401b03811182821017156132d8576132d861315e565b60405282516132e681612bd7565b815260208301516132f681612bd7565b60208201529392505050565b634e487b7160e01b600052603260045260246000fd5b6000808335601e1984360301811261332f57600080fd5b8301803591506001600160401b0382111561334957600080fd5b602001915036819003821315612e7a57600080fd5b82848237600083820160008152835161337b818360208801612fa5565b0195945050505050565b60008251613397818460208701612fa5565b919091019291505056fea264697066735822122038ad83d20c219353421029f1ad8c4f7667d5f0e86af1579c64603bb56827d86064736f6c634300081b0033",
  "linkReferences": {
    "contracts/staking/libraries/ExponentialRebates.sol": {
      "ExponentialRebates": [
        {
          "length": 20,
          "start": 5879
        }
      ]
    }
  },
  "deployedLinkReferences": {
    "contracts/staking/libraries/ExponentialRebates.sol": {
      "ExponentialRebates": [
        {
          "length": 20,
          "start": 4455
        }
      ]
    }
  }
}