{
  "_format": "hh-sol-artifact-1",
  "contractName": "PaymentsEscrow",
  "sourceName": "contracts/payments/PaymentsEscrow.sol",
  "abi": [
    {
      "inputs": [
        {
          "internalType": "address",
          "name": "controller",
          "type": "address"
        },
        {
          "internalType": "uint256",
          "name": "revokeCollectorThawingPeriod",
          "type": "uint256"
        },
        {
          "internalType": "uint256",
          "name": "withdrawEscrowThawingPeriod",
          "type": "uint256"
        }
      ],
      "stateMutability": "nonpayable",
      "type": "constructor"
    },
    {
      "inputs": [
        {
          "internalType": "address",
          "name": "target",
          "type": "address"
        }
      ],
      "name": "AddressEmptyCode",
      "type": "error"
    },
    {
      "inputs": [],
      "name": "FailedInnerCall",
      "type": "error"
    },
    {
      "inputs": [
        {
          "internalType": "bytes",
          "name": "contractName",
          "type": "bytes"
        }
      ],
      "name": "GraphDirectoryInvalidZeroAddress",
      "type": "error"
    },
    {
      "inputs": [],
      "name": "InvalidInitialization",
      "type": "error"
    },
    {
      "inputs": [],
      "name": "NotInitializing",
      "type": "error"
    },
    {
      "inputs": [
        {
          "internalType": "uint256",
          "name": "balanceBefore",
          "type": "uint256"
        },
        {
          "internalType": "uint256",
          "name": "balanceAfter",
          "type": "uint256"
        },
        {
          "internalType": "uint256",
          "name": "tokens",
          "type": "uint256"
        }
      ],
      "name": "PaymentsEscrowInconsistentCollection",
      "type": "error"
    },
    {
      "inputs": [
        {
          "internalType": "uint256",
          "name": "allowance",
          "type": "uint256"
        },
        {
          "internalType": "uint256",
          "name": "minAllowance",
          "type": "uint256"
        }
      ],
      "name": "PaymentsEscrowInsufficientAllowance",
      "type": "error"
    },
    {
      "inputs": [
        {
          "internalType": "uint256",
          "name": "balance",
          "type": "uint256"
        },
        {
          "internalType": "uint256",
          "name": "minBalance",
          "type": "uint256"
        }
      ],
      "name": "PaymentsEscrowInsufficientBalance",
      "type": "error"
    },
    {
      "inputs": [],
      "name": "PaymentsEscrowInvalidZeroTokens",
      "type": "error"
    },
    {
      "inputs": [],
      "name": "PaymentsEscrowIsPaused",
      "type": "error"
    },
    {
      "inputs": [],
      "name": "PaymentsEscrowNotThawing",
      "type": "error"
    },
    {
      "inputs": [
        {
          "internalType": "uint256",
          "name": "currentTimestamp",
          "type": "uint256"
        },
        {
          "internalType": "uint256",
          "name": "thawEndTimestamp",
          "type": "uint256"
        }
      ],
      "name": "PaymentsEscrowStillThawing",
      "type": "error"
    },
    {
      "inputs": [
        {
          "internalType": "uint256",
          "name": "thawingPeriod",
          "type": "uint256"
        },
        {
          "internalType": "uint256",
          "name": "maxThawingPeriod",
          "type": "uint256"
        }
      ],
      "name": "PaymentsEscrowThawingPeriodTooLong",
      "type": "error"
    },
    {
      "anonymous": false,
      "inputs": [
        {
          "indexed": true,
          "internalType": "address",
          "name": "payer",
          "type": "address"
        },
        {
          "indexed": true,
          "internalType": "address",
          "name": "collector",
          "type": "address"
        }
      ],
      "name": "AuthorizedCollector",
      "type": "event"
    },
    {
      "anonymous": false,
      "inputs": [
        {
          "indexed": true,
          "internalType": "address",
          "name": "payer",
          "type": "address"
        },
        {
          "indexed": true,
          "internalType": "address",
          "name": "receiver",
          "type": "address"
        }
      ],
      "name": "CancelThaw",
      "type": "event"
    },
    {
      "anonymous": false,
      "inputs": [
        {
          "indexed": true,
          "internalType": "address",
          "name": "payer",
          "type": "address"
        },
        {
          "indexed": true,
          "internalType": "address",
          "name": "collector",
          "type": "address"
        }
      ],
      "name": "CancelThawCollector",
      "type": "event"
    },
    {
      "anonymous": false,
      "inputs": [
        {
          "indexed": true,
          "internalType": "address",
          "name": "payer",
          "type": "address"
        },
        {
          "indexed": true,
          "internalType": "address",
          "name": "receiver",
          "type": "address"
        },
        {
          "indexed": false,
          "internalType": "uint256",
          "name": "tokens",
          "type": "uint256"
        }
      ],
      "name": "Deposit",
      "type": "event"
    },
    {
      "anonymous": false,
      "inputs": [
        {
          "indexed": true,
          "internalType": "address",
          "name": "payer",
          "type": "address"
        },
        {
          "indexed": true,
          "internalType": "address",
          "name": "receiver",
          "type": "address"
        },
        {
          "indexed": false,
          "internalType": "uint256",
          "name": "tokens",
          "type": "uint256"
        }
      ],
      "name": "EscrowCollected",
      "type": "event"
    },
    {
      "anonymous": false,
      "inputs": [
        {
          "indexed": true,
          "internalType": "address",
          "name": "graphToken",
          "type": "address"
        },
        {
          "indexed": true,
          "internalType": "address",
          "name": "graphStaking",
          "type": "address"
        },
        {
          "indexed": false,
          "internalType": "address",
          "name": "graphPayments",
          "type": "address"
        },
        {
          "indexed": false,
          "internalType": "address",
          "name": "graphEscrow",
          "type": "address"
        },
        {
          "indexed": true,
          "internalType": "address",
          "name": "graphController",
          "type": "address"
        },
        {
          "indexed": false,
          "internalType": "address",
          "name": "graphEpochManager",
          "type": "address"
        },
        {
          "indexed": false,
          "internalType": "address",
          "name": "graphRewardsManager",
          "type": "address"
        },
        {
          "indexed": false,
          "internalType": "address",
          "name": "graphTokenGateway",
          "type": "address"
        },
        {
          "indexed": false,
          "internalType": "address",
          "name": "graphProxyAdmin",
          "type": "address"
        },
        {
          "indexed": false,
          "internalType": "address",
          "name": "graphCuration",
          "type": "address"
        }
      ],
      "name": "GraphDirectoryInitialized",
      "type": "event"
    },
    {
      "anonymous": false,
      "inputs": [
        {
          "indexed": false,
          "internalType": "uint64",
          "name": "version",
          "type": "uint64"
        }
      ],
      "name": "Initialized",
      "type": "event"
    },
    {
      "anonymous": false,
      "inputs": [
        {
          "indexed": true,
          "internalType": "address",
          "name": "payer",
          "type": "address"
        },
        {
          "indexed": true,
          "internalType": "address",
          "name": "collector",
          "type": "address"
        }
      ],
      "name": "RevokeCollector",
      "type": "event"
    },
    {
      "anonymous": false,
      "inputs": [
        {
          "indexed": true,
          "internalType": "address",
          "name": "payer",
          "type": "address"
        },
        {
          "indexed": true,
          "internalType": "address",
          "name": "receiver",
          "type": "address"
        },
        {
          "indexed": false,
          "internalType": "uint256",
          "name": "tokens",
          "type": "uint256"
        },
        {
          "indexed": false,
          "internalType": "uint256",
          "name": "thawEndTimestamp",
          "type": "uint256"
        }
      ],
      "name": "Thaw",
      "type": "event"
    },
    {
      "anonymous": false,
      "inputs": [
        {
          "indexed": true,
          "internalType": "address",
          "name": "payer",
          "type": "address"
        },
        {
          "indexed": true,
          "internalType": "address",
          "name": "collector",
          "type": "address"
        }
      ],
      "name": "ThawCollector",
      "type": "event"
    },
    {
      "anonymous": false,
      "inputs": [
        {
          "indexed": true,
          "internalType": "address",
          "name": "payer",
          "type": "address"
        },
        {
          "indexed": true,
          "internalType": "address",
          "name": "receiver",
          "type": "address"
        },
        {
          "indexed": false,
          "internalType": "uint256",
          "name": "tokens",
          "type": "uint256"
        }
      ],
      "name": "Withdraw",
      "type": "event"
    },
    {
      "inputs": [],
      "name": "MAX_THAWING_PERIOD",
      "outputs": [
        {
          "internalType": "uint256",
          "name": "",
          "type": "uint256"
        }
      ],
      "stateMutability": "view",
      "type": "function"
    },
    {
      "inputs": [],
      "name": "REVOKE_COLLECTOR_THAWING_PERIOD",
      "outputs": [
        {
          "internalType": "uint256",
          "name": "",
          "type": "uint256"
        }
      ],
      "stateMutability": "view",
      "type": "function"
    },
    {
      "inputs": [],
      "name": "WITHDRAW_ESCROW_THAWING_PERIOD",
      "outputs": [
        {
          "internalType": "uint256",
          "name": "",
          "type": "uint256"
        }
      ],
      "stateMutability": "view",
      "type": "function"
    },
    {
      "inputs": [
        {
          "internalType": "address",
          "name": "collector_",
          "type": "address"
        },
        {
          "internalType": "uint256",
          "name": "allowance",
          "type": "uint256"
        }
      ],
      "name": "approveCollector",
      "outputs": [],
      "stateMutability": "nonpayable",
      "type": "function"
    },
    {
      "inputs": [
        {
          "internalType": "address",
          "name": "payer",
          "type": "address"
        },
        {
          "internalType": "address",
          "name": "collector",
          "type": "address"
        }
      ],
      "name": "authorizedCollectors",
      "outputs": [
        {
          "internalType": "uint256",
          "name": "allowance",
          "type": "uint256"
        },
        {
          "internalType": "uint256",
          "name": "thawEndTimestamp",
          "type": "uint256"
        }
      ],
      "stateMutability": "view",
      "type": "function"
    },
    {
      "inputs": [
        {
          "internalType": "address",
          "name": "collector",
          "type": "address"
        }
      ],
      "name": "cancelThawCollector",
      "outputs": [],
      "stateMutability": "nonpayable",
      "type": "function"
    },
    {
      "inputs": [
        {
          "internalType": "enum IGraphPayments.PaymentTypes",
          "name": "paymentType",
          "type": "uint8"
        },
        {
          "internalType": "address",
          "name": "payer",
          "type": "address"
        },
        {
          "internalType": "address",
          "name": "receiver",
          "type": "address"
        },
        {
          "internalType": "uint256",
          "name": "tokens",
          "type": "uint256"
        },
        {
          "internalType": "address",
          "name": "dataService",
          "type": "address"
        },
        {
          "internalType": "uint256",
          "name": "tokensDataService",
          "type": "uint256"
        }
      ],
      "name": "collect",
      "outputs": [],
      "stateMutability": "nonpayable",
      "type": "function"
    },
    {
      "inputs": [
        {
          "internalType": "address",
          "name": "receiver",
          "type": "address"
        },
        {
          "internalType": "uint256",
          "name": "tokens",
          "type": "uint256"
        }
      ],
      "name": "deposit",
      "outputs": [],
      "stateMutability": "nonpayable",
      "type": "function"
    },
    {
      "inputs": [
        {
          "internalType": "address",
          "name": "payer",
          "type": "address"
        },
        {
          "internalType": "address",
          "name": "receiver",
          "type": "address"
        },
        {
          "internalType": "uint256",
          "name": "tokens",
          "type": "uint256"
        }
      ],
      "name": "depositTo",
      "outputs": [],
      "stateMutability": "nonpayable",
      "type": "function"
    },
    {
      "inputs": [
        {
          "internalType": "address",
          "name": "payer",
          "type": "address"
        },
        {
          "internalType": "address",
          "name": "receiver",
          "type": "address"
        }
      ],
      "name": "escrowAccounts",
      "outputs": [
        {
          "internalType": "uint256",
          "name": "balance",
          "type": "uint256"
        },
        {
          "internalType": "uint256",
          "name": "tokensThawing",
          "type": "uint256"
        },
        {
          "internalType": "uint256",
          "name": "thawEndTimestamp",
          "type": "uint256"
        }
      ],
      "stateMutability": "view",
      "type": "function"
    },
    {
      "inputs": [
        {
          "internalType": "address",
          "name": "payer",
          "type": "address"
        },
        {
          "internalType": "address",
          "name": "receiver",
          "type": "address"
        }
      ],
      "name": "getBalance",
      "outputs": [
        {
          "internalType": "uint256",
          "name": "",
          "type": "uint256"
        }
      ],
      "stateMutability": "view",
      "type": "function"
    },
    {
      "inputs": [],
      "name": "initialize",
      "outputs": [],
      "stateMutability": "nonpayable",
      "type": "function"
    },
    {
      "inputs": [
        {
          "internalType": "bytes[]",
          "name": "data",
          "type": "bytes[]"
        }
      ],
      "name": "multicall",
      "outputs": [
        {
          "internalType": "bytes[]",
          "name": "results",
          "type": "bytes[]"
        }
      ],
      "stateMutability": "nonpayable",
      "type": "function"
    },
    {
      "inputs": [
        {
          "internalType": "address",
          "name": "collector_",
          "type": "address"
        }
      ],
      "name": "revokeCollector",
      "outputs": [],
      "stateMutability": "nonpayable",
      "type": "function"
    },
    {
      "inputs": [
        {
          "internalType": "address",
          "name": "receiver",
          "type": "address"
        },
        {
          "internalType": "uint256",
          "name": "tokens",
          "type": "uint256"
        }
      ],
      "name": "thaw",
      "outputs": [],
      "stateMutability": "nonpayable",
      "type": "function"
    },
    {
      "inputs": [
        {
          "internalType": "address",
          "name": "collector",
          "type": "address"
        }
      ],
      "name": "thawCollector",
      "outputs": [],
      "stateMutability": "nonpayable",
      "type": "function"
    },
    {
      "inputs": [
        {
          "internalType": "address",
          "name": "receiver",
          "type": "address"
        }
      ],
      "name": "withdraw",
      "outputs": [],
      "stateMutability": "nonpayable",
      "type": "function"
    }
  ],
  "bytecode": "0x61020060405234801561001157600080fd5b506040516120c73803806120c78339810160408190526100309161046b565b826001600160a01b03811661007a5760405163218f5add60e11b815260206004820152600a60248201526921b7b73a3937b63632b960b11b60448201526064015b60405180910390fd5b6001600160a01b0381166101005260408051808201909152600a81526923b930b8342a37b5b2b760b11b60208201526100b2906103a1565b6001600160a01b03166080526040805180820190915260078152665374616b696e6760c81b60208201526100e5906103a1565b6001600160a01b031660a05260408051808201909152600d81526c47726170685061796d656e747360981b602082015261011e906103a1565b6001600160a01b031660c05260408051808201909152600e81526d5061796d656e7473457363726f7760901b6020820152610158906103a1565b6001600160a01b031660e05260408051808201909152600c81526b22b837b1b426b0b730b3b2b960a11b6020820152610190906103a1565b6001600160a01b03166101205260408051808201909152600e81526d2932bbb0b93239a6b0b730b3b2b960911b60208201526101cb906103a1565b6001600160a01b0316610140526040805180820190915260118152704772617068546f6b656e4761746577617960781b6020820152610209906103a1565b6001600160a01b03166101605260408051808201909152600f81526e23b930b834283937bc3ca0b236b4b760891b6020820152610245906103a1565b6001600160a01b03166101805260408051808201909152600881526721bab930ba34b7b760c11b602082015261027a906103a1565b6001600160a01b039081166101a08190526101005160a05160805160c05160e05161012051610140516101605161018051604051988b169a9788169996909716977fef5021414834d86e36470f5c1cecf6544fb2bb723f2ca51a4c86fcd8c5919a43976103249790916001600160a01b03978816815295871660208701529386166040860152918516606085015284166080840152831660a083015290911660c082015260e00190565b60405180910390a450816276a7008082111561035c57604051635c0f65a160e01b815260048101929092526024820152604401610071565b508190506276a7008082111561038e57604051635c0f65a160e01b815260048101929092526024820152604401610071565b50506101c0919091526101e05250610510565b600080610100516001600160a01b031663f7641a5e84805190602001206040518263ffffffff1660e01b81526004016103dc91815260200190565b602060405180830381865afa1580156103f9573d6000803e3d6000fd5b505050506040513d601f19601f8201168201806040525081019061041d91906104a0565b9050826001600160a01b0382166104485760405163218f5add60e11b815260040161007191906104c2565b5092915050565b80516001600160a01b038116811461046657600080fd5b919050565b60008060006060848603121561048057600080fd5b6104898461044f565b602085015160409095015190969495509392505050565b6000602082840312156104b257600080fd5b6104bb8261044f565b9392505050565b602081526000825180602084015260005b818110156104f057602081860181015160408684010152016104d3565b506000604082850101526040601f19601f83011684010191505092915050565b60805160a05160c05160e05161010051610120516101405161016051610180516101a0516101c0516101e051611ad26105f5600039600081816101e00152610abb015260008181610193015261039d01526000505060005050600050506000505060005050600081816102fa0152818161041601528181610589015281816106380152818161076e0152818161094901528181610b2d01528181610d71015261131b01526000505060008181610fa6015261104e015260005050600081816108da01528181610eea01528181610f77015281816110c401526114130152611ad26000f3fe608060405234801561001057600080fd5b506004361061010b5760003560e01c806378a24c54116100a257806388e584431161007157806388e584431461021d578063ac9650d81461026e578063beb6eceb1461028e578063d4fac45d146102d2578063f213159c146102e557600080fd5b806378a24c54146101c85780637b8ae6cf146101db5780638129fc1c1461020257806387dbfe821461020a57600080fd5b80634f9d392e116100de5780634f9d392e1461016857806351cff8d91461017b5780636cd476561461018e57806371ece3aa146101b557600080fd5b8063071b214c146101105780630ee36be31461012d57806332825b811461014257806347e7ef2414610155575b600080fd5b61011a6276a70081565b6040519081526020015b60405180910390f35b61014061013b3660046116df565b6102f8565b005b6101406101503660046116df565b610414565b6101406101633660046116fa565b610587565b6101406101763660046116fa565b610636565b6101406101893660046116df565b61076c565b61011a7f000000000000000000000000000000000000000000000000000000000000000081565b6101406101c33660046116fa565b610947565b6101406101d63660046116df565b610b2b565b61011a7f000000000000000000000000000000000000000000000000000000000000000081565b610140610c61565b610140610218366004611724565b610d6f565b61025361022b366004611792565b6001602081815260009384526040808520909152918352912080549181015460029091015483565b60408051938452602084019290925290820152606001610124565b61028161027c3660046117c5565b6111ee565b6040516101249190611860565b6102bd61029c366004611792565b60006020818152928152604080822090935290815220805460019091015482565b60408051928352602083019190915201610124565b61011a6102e0366004611792565b6112d7565b6101406102f33660046118e0565b611319565b7f00000000000000000000000000000000000000000000000000000000000000006001600160a01b0316635c975abb6040518163ffffffff1660e01b8152600401602060405180830381865afa158015610356573d6000803e3d6000fd5b505050506040513d601f19601f8201168201806040525081019061037a919061191d565b1561039857604051639e68cf0b60e01b815260040160405180910390fd5b6103c27f000000000000000000000000000000000000000000000000000000000000000042611955565b336000818152602081815260408083206001600160a01b03871680855292528083206001019490945592517f47c16ea40fc834cf4be3dc9ec160a1ff77ba18b1231e9e6886e3231c708326ff9190a350565b7f00000000000000000000000000000000000000000000000000000000000000006001600160a01b0316635c975abb6040518163ffffffff1660e01b8152600401602060405180830381865afa158015610472573d6000803e3d6000fd5b505050506040513d601f19601f82011682018060405250810190610496919061191d565b156104b457604051639e68cf0b60e01b815260040160405180910390fd5b336000908152602081815260408083206001600160a01b0385168452909152812060018101549091036104fa57604051638cbd172f60e01b815260040160405180910390fd5b6001810154429081811061052f57604051633c50db7960e11b8152600481019290925260248201526044015b60405180910390fd5b5050336000818152602081815260408083206001600160a01b0387168085529252808320838155600101839055519092917f3d7c3b7414bb2ce0675b85ea842ee937d10fe3b291f1cb2dc3361510bd113d9091a35050565b7f00000000000000000000000000000000000000000000000000000000000000006001600160a01b0316635c975abb6040518163ffffffff1660e01b8152600401602060405180830381865afa1580156105e5573d6000803e3d6000fd5b505050506040513d601f19601f82011682018060405250810190610609919061191d565b1561062757604051639e68cf0b60e01b815260040160405180910390fd5b6106323383836113c9565b5050565b7f00000000000000000000000000000000000000000000000000000000000000006001600160a01b0316635c975abb6040518163ffffffff1660e01b8152600401602060405180830381865afa158015610694573d6000803e3d6000fd5b505050506040513d601f19601f820116820180604052508101906106b8919061191d565b156106d657604051639e68cf0b60e01b815260040160405180910390fd5b806000036106f757604051633aff1f3760e21b815260040160405180910390fd5b336000908152602081815260408083206001600160a01b0386168452909152812080549091839183919061072c908490611955565b90915550506040516001600160a01b0384169033907f747c06b7cbf7a0f7fcab1fdf4f7429ac2afcdf5f0af97b9ef717110eef00eb9990600090a3505050565b7f00000000000000000000000000000000000000000000000000000000000000006001600160a01b0316635c975abb6040518163ffffffff1660e01b8152600401602060405180830381865afa1580156107ca573d6000803e3d6000fd5b505050506040513d601f19601f820116820180604052508101906107ee919061191d565b1561080c57604051639e68cf0b60e01b815260040160405180910390fd5b3360009081526001602090815260408083206001600160a01b03851684529091528120600281015490910361085457604051638cbd172f60e01b815260040160405180910390fd5b6002810154429081811061088457604051633c50db7960e11b815260048101929092526024820152604401610526565b5050600081600001548260010154116108a15781600101546108a4565b81545b9050808260000160008282546108ba9190611968565b909155505060006001830181905560028301556109016001600160a01b037f000000000000000000000000000000000000000000000000000000000000000016338361147f565b6040518181526001600160a01b0384169033907f9b1bfa7fa9ee420a16e124f794c35ac9f90472acc99140eb2f6447c714cad8eb906020015b60405180910390a3505050565b7f00000000000000000000000000000000000000000000000000000000000000006001600160a01b0316635c975abb6040518163ffffffff1660e01b8152600401602060405180830381865afa1580156109a5573d6000803e3d6000fd5b505050506040513d601f19601f820116820180604052508101906109c9919061191d565b156109e757604051639e68cf0b60e01b815260040160405180910390fd5b3360009081526001602090815260408083206001600160a01b0386168452909152812090829003610a80578060010154600003610a3757604051638cbd172f60e01b815260040160405180910390fd5b600060018201819055600282018190556040516001600160a01b0385169133917fb2486c13d5da6cdbddffe9f9ec53350f7f15033cec803877fd75ff89d734c9489190a3505050565b80548280821015610aad57604051633db4e69160e01b815260048101929092526024820152604401610526565b505060018101829055610ae07f000000000000000000000000000000000000000000000000000000000000000042611955565b600282018190556040805184815260208101929092526001600160a01b0385169133917fe0158cfeff9c2315fdbefe5851ad77d36eb492293f2b6b3861a73fb4dff82451910161093a565b7f00000000000000000000000000000000000000000000000000000000000000006001600160a01b0316635c975abb6040518163ffffffff1660e01b8152600401602060405180830381865afa158015610b89573d6000803e3d6000fd5b505050506040513d601f19601f82011682018060405250810190610bad919061191d565b15610bcb57604051639e68cf0b60e01b815260040160405180910390fd5b336000908152602081815260408083206001600160a01b03851684529091528120600101549003610c0f57604051638cbd172f60e01b815260040160405180910390fd5b336000818152602081815260408083206001600160a01b0386168085529252808320600101839055519092917f988de7a3afe0d801be198872279c1fd9771d8013712ee4f00652354c8a6ec27d91a350565b7ff0c57e16840df040f15088dc2f81fe391c3923bec73e23a9662efc9c229c6a008054600160401b810460ff16159067ffffffffffffffff16600081158015610ca75750825b905060008267ffffffffffffffff166001148015610cc45750303b155b905081158015610cd2575080155b15610cf05760405163f92ee8a960e01b815260040160405180910390fd5b845467ffffffffffffffff191660011785558315610d1a57845460ff60401b1916600160401b1785555b610d22611531565b8315610d6857845460ff60401b19168555604051600181527fc7f505b2f371ae2175ee4913f4499e1f2633a7b5936321eed1cdaeb6115181d29060200160405180910390a15b5050505050565b7f00000000000000000000000000000000000000000000000000000000000000006001600160a01b0316635c975abb6040518163ffffffff1660e01b8152600401602060405180830381865afa158015610dcd573d6000803e3d6000fd5b505050506040513d601f19601f82011682018060405250810190610df1919061191d565b15610e0f57604051639e68cf0b60e01b815260040160405180910390fd5b6001600160a01b038516600090815260208181526040808320338452909152902080548480821015610e5d5760405163b0b503e760e01b815260048101929092526024820152604401610526565b50506001600160a01b03808716600090815260016020908152604080832093891683529290522080548580821015610eb157604051633db4e69160e01b815260048101929092526024820152604401610526565b505084826000016000828254610ec79190611968565b9091555050805485908290600090610ee0908490611968565b90915550600090507f00000000000000000000000000000000000000000000000000000000000000006040516370a0823160e01b81523060048201526001600160a01b0391909116906370a0823190602401602060405180830381865afa158015610f4f573d6000803e3d6000fd5b505050506040513d601f19601f82011682018060405250810190610f73919061197b565b90507f00000000000000000000000000000000000000000000000000000000000000006001600160a01b031663095ea7b37f00000000000000000000000000000000000000000000000000000000000000006040516001600160e01b031960e084901b1681526001600160a01b039091166004820152602481018990526044016020604051808303816000875af1158015611012573d6000803e3d6000fd5b505050506040513d601f19601f82011682018060405250810190611036919061191d565b50604051633634bc1d60e11b81526001600160a01b037f00000000000000000000000000000000000000000000000000000000000000001690636c69783a9061108b908c908b908b908b908b90600401611994565b600060405180830381600087803b1580156110a557600080fd5b505af11580156110b9573d6000803e3d6000fd5b5050505060006110e67f000000000000000000000000000000000000000000000000000000000000000090565b6040516370a0823160e01b81523060048201526001600160a01b0391909116906370a0823190602401602060405180830381865afa15801561112c573d6000803e3d6000fd5b505050506040513d601f19601f82011682018060405250810190611150919061197b565b905061115c8188611955565b821482828990919261119257604051631f82726b60e21b8152600481019390935260248301919091526044820152606401610526565b505050876001600160a01b0316896001600160a01b03167f8b0d8feeba4c6c21a8b1c772ccc0ec89892541c94a76b356c6a1035ec8f5b40d896040516111da91815260200190565b60405180910390a350505050505050505050565b6040805160008152602081019091526060908267ffffffffffffffff811115611219576112196119df565b60405190808252806020026020018201604052801561124c57816020015b60608152602001906001900390816112375790505b50915060005b838110156112ce576112a930868684818110611270576112706119f5565b90506020028101906112829190611a0b565b8560405160200161129593929190611a59565b60405160208183030381529060405261153b565b8382815181106112bb576112bb6119f5565b6020908102919091010152600101611252565b50505b92915050565b6001600160a01b03808316600090815260016020818152604080842094861684529390529181209182015482549192916113119190611968565b949350505050565b7f00000000000000000000000000000000000000000000000000000000000000006001600160a01b0316635c975abb6040518163ffffffff1660e01b8152600401602060405180830381865afa158015611377573d6000803e3d6000fd5b505050506040513d601f19601f8201168201806040525081019061139b919061191d565b156113b957604051639e68cf0b60e01b815260040160405180910390fd5b6113c48383836113c9565b505050565b6001600160a01b03808416600090815260016020908152604080832093861683529290529081208054839290611400908490611955565b9091555061143a90506001600160a01b037f00000000000000000000000000000000000000000000000000000000000000001633836115b1565b816001600160a01b0316836001600160a01b03167f5548c837ab068cf56a2c2479df0882a4922fd203edb7517321831d95078c5f628360405161093a91815260200190565b80156113c45760405163a9059cbb60e01b81526001600160a01b0383811660048301526024820183905284169063a9059cbb906044015b6020604051808303816000875af11580156114d5573d6000803e3d6000fd5b505050506040513d601f19601f820116820180604052508101906114f9919061191d565b6113c45760405162461bcd60e51b815260206004820152600960248201526810ba3930b739b332b960b91b6044820152606401610526565b6115396115f2565b565b6060600080846001600160a01b0316846040516115589190611a80565b600060405180830381855af49150503d8060008114611593576040519150601f19603f3d011682016040523d82523d6000602084013e611598565b606091505b50915091506115a885838361163b565b95945050505050565b80156113c4576040516323b872dd60e01b81526001600160a01b038381166004830152306024830152604482018390528416906323b872dd906064016114b6565b7ff0c57e16840df040f15088dc2f81fe391c3923bec73e23a9662efc9c229c6a0054600160401b900460ff1661153957604051631afcd79f60e31b815260040160405180910390fd5b6060826116505761164b8261169a565b611693565b815115801561166757506001600160a01b0384163b155b1561169057604051639996b31560e01b81526001600160a01b0385166004820152602401610526565b50805b9392505050565b8051156116aa5780518082602001fd5b604051630a12f52160e11b815260040160405180910390fd5b80356001600160a01b03811681146116da57600080fd5b919050565b6000602082840312156116f157600080fd5b611693826116c3565b6000806040838503121561170d57600080fd5b611716836116c3565b946020939093013593505050565b60008060008060008060c0878903121561173d57600080fd5b86356003811061174c57600080fd5b955061175a602088016116c3565b9450611768604088016116c3565b93506060870135925061177d608088016116c3565b9598949750929591949360a090920135925050565b600080604083850312156117a557600080fd5b6117ae836116c3565b91506117bc602084016116c3565b90509250929050565b600080602083850312156117d857600080fd5b823567ffffffffffffffff8111156117ef57600080fd5b8301601f8101851361180057600080fd5b803567ffffffffffffffff81111561181757600080fd5b8560208260051b840101111561182c57600080fd5b6020919091019590945092505050565b60005b8381101561185757818101518382015260200161183f565b50506000910152565b6000602082016020835280845180835260408501915060408160051b86010192506020860160005b828110156118d457603f19878603018452815180518087526118b181602089016020850161183c565b601f01601f19169590950160209081019550938401939190910190600101611888565b50929695505050505050565b6000806000606084860312156118f557600080fd5b6118fe846116c3565b925061190c602085016116c3565b929592945050506040919091013590565b60006020828403121561192f57600080fd5b8151801515811461169357600080fd5b634e487b7160e01b600052601160045260246000fd5b808201808211156112d1576112d161193f565b818103818111156112d1576112d161193f565b60006020828403121561198d57600080fd5b5051919050565b60a08101600387106119b657634e487b7160e01b600052602160045260246000fd5b9581526001600160a01b0394851660208201526040810193909352921660608201526080015290565b634e487b7160e01b600052604160045260246000fd5b634e487b7160e01b600052603260045260246000fd5b6000808335601e19843603018112611a2257600080fd5b83018035915067ffffffffffffffff821115611a3d57600080fd5b602001915036819003821315611a5257600080fd5b9250929050565b828482376000838201600081528351611a7681836020880161183c565b0195945050505050565b60008251611a9281846020870161183c565b919091019291505056fea2646970667358221220c747a690c4d61350849293110a4c3ac2070e62afe88696f58021adec428f19e564736f6c634300081b0033",
  "linkReferences": {},
  "deployedLinkReferences": {}
}