{
  "_format": "hh-sol-artifact-1",
  "contractName": "BancorFormula",
  "sourceName": "contracts/bancor/BancorFormula.sol",
  "abi": [
    {
      "inputs": [],
      "stateMutability": "nonpayable",
      "type": "constructor"
    },
    {
      "inputs": [
        {
          "internalType": "uint256",
          "name": "_fromConnectorBalance",
          "type": "uint256"
        },
        {
          "internalType": "uint32",
          "name": "_fromConnectorWeight",
          "type": "uint32"
        },
        {
          "internalType": "uint256",
          "name": "_toConnectorBalance",
          "type": "uint256"
        },
        {
          "internalType": "uint32",
          "name": "_toConnectorWeight",
          "type": "uint32"
        },
        {
          "internalType": "uint256",
          "name": "_amount",
          "type": "uint256"
        }
      ],
      "name": "calculateCrossConnectorReturn",
      "outputs": [
        {
          "internalType": "uint256",
          "name": "",
          "type": "uint256"
        }
      ],
      "stateMutability": "view",
      "type": "function"
    },
    {
      "inputs": [
        {
          "internalType": "uint256",
          "name": "_fromReserveBalance",
          "type": "uint256"
        },
        {
          "internalType": "uint32",
          "name": "_fromReserveRatio",
          "type": "uint32"
        },
        {
          "internalType": "uint256",
          "name": "_toReserveBalance",
          "type": "uint256"
        },
        {
          "internalType": "uint32",
          "name": "_toReserveRatio",
          "type": "uint32"
        },
        {
          "internalType": "uint256",
          "name": "_amount",
          "type": "uint256"
        }
      ],
      "name": "calculateCrossReserveReturn",
      "outputs": [
        {
          "internalType": "uint256",
          "name": "",
          "type": "uint256"
        }
      ],
      "stateMutability": "view",
      "type": "function"
    },
    {
      "inputs": [
        {
          "internalType": "uint256",
          "name": "_supply",
          "type": "uint256"
        },
        {
          "internalType": "uint256",
          "name": "_reserveBalance",
          "type": "uint256"
        },
        {
          "internalType": "uint32",
          "name": "_totalRatio",
          "type": "uint32"
        },
        {
          "internalType": "uint256",
          "name": "_amount",
          "type": "uint256"
        }
      ],
      "name": "calculateFundCost",
      "outputs": [
        {
          "internalType": "uint256",
          "name": "",
          "type": "uint256"
        }
      ],
      "stateMutability": "view",
      "type": "function"
    },
    {
      "inputs": [
        {
          "internalType": "uint256",
          "name": "_supply",
          "type": "uint256"
        },
        {
          "internalType": "uint256",
          "name": "_reserveBalance",
          "type": "uint256"
        },
        {
          "internalType": "uint32",
          "name": "_totalRatio",
          "type": "uint32"
        },
        {
          "internalType": "uint256",
          "name": "_amount",
          "type": "uint256"
        }
      ],
      "name": "calculateLiquidateReturn",
      "outputs": [
        {
          "internalType": "uint256",
          "name": "",
          "type": "uint256"
        }
      ],
      "stateMutability": "view",
      "type": "function"
    },
    {
      "inputs": [
        {
          "internalType": "uint256",
          "name": "_supply",
          "type": "uint256"
        },
        {
          "internalType": "uint256",
          "name": "_reserveBalance",
          "type": "uint256"
        },
        {
          "internalType": "uint32",
          "name": "_reserveRatio",
          "type": "uint32"
        },
        {
          "internalType": "uint256",
          "name": "_depositAmount",
          "type": "uint256"
        }
      ],
      "name": "calculatePurchaseReturn",
      "outputs": [
        {
          "internalType": "uint256",
          "name": "",
          "type": "uint256"
        }
      ],
      "stateMutability": "view",
      "type": "function"
    },
    {
      "inputs": [
        {
          "internalType": "uint256",
          "name": "_supply",
          "type": "uint256"
        },
        {
          "internalType": "uint256",
          "name": "_reserveBalance",
          "type": "uint256"
        },
        {
          "internalType": "uint32",
          "name": "_reserveRatio",
          "type": "uint32"
        },
        {
          "internalType": "uint256",
          "name": "_sellAmount",
          "type": "uint256"
        }
      ],
      "name": "calculateSaleReturn",
      "outputs": [
        {
          "internalType": "uint256",
          "name": "",
          "type": "uint256"
        }
      ],
      "stateMutability": "view",
      "type": "function"
    },
    {
      "inputs": [],
      "name": "version",
      "outputs": [
        {
          "internalType": "uint16",
          "name": "",
          "type": "uint16"
        }
      ],
      "stateMutability": "view",
      "type": "function"
    }
  ],
  "bytecode": "0x608060405234801561001057600080fd5b506001641c35fedd1560601b036020556001646c3390ecc9605e1b036021556001640cf801476160611b0360225560016431bdb23e1d605f1b0360235560016502fb1d8fe083605b1b0360245560016505b771955b37605a1b036025556001650af67a93bb5160591b0360265560016515060c256cb360581b036027556001651428a2f98d7360581b036028556001654d515663970960561b03602955600165944620b0e70f60551b03602a55600166011c592761c66760541b03602b5560016602214d10d014eb60531b03602c55600166020ade36b7dbef60531b03602d5560016603eab73b3bbfe360521b03602e556001660782ee3593f6d760511b03602f556001661ccf4b44bb4821604f1b0360305560016606e7f88ad8a77760511b0360315560016669f3d1c921891d604d1b03603255600166cb2ff529eb71e5604c1b03603355600166c2d415c3db974b604c1b0360345560016702eb40f9f620fda7604a1b0360355560016705990681d961a1eb60491b03603655600167055e12902701414760491b0360375560016714962dee9dc9764160471b0360385560016704ef57b9b560fab560491b0360395560016712ed7b32a58f552b60471b03603a556001679131271922eaa60760441b03603b556001678b380f3558668c4760441b03603c556001680215f77c045fbe885760421b03603d556001600160831b03603e556001670f577eded5773a1160471b03603f556001680eb5ec597592befbf5603f1b036040556001681c35fedd14b861eb05603e1b036041556001683619c87664579bc94b603d1b0360425560016867c00a3b07ffc01fd7603c1b03604355600168c6f6c8f8739773a7a5603b1b03604455600168bec763f8209b7a72b1603b1b0360455560016902dbb8caad9b7097b91b60391b03604655600169057b3d49dda84556d6f760381b03604755600169054183095b2c8ececf3160381b036048556001690a14517cc6b9457111ef60371b0360495560016913545598e5c23276ccf160361b03604a556001692511882c39c3adea96ff60351b03604b55600169471649d87199aa99075760341b03604c557004429a21a029d4c1457cfbffffffffffff604d55700415bc6d6fb7dd71af2cb3ffffffffffff604e557003eab73b3bbfe282243ce1ffffffffffff604f557003c1771ac9fb6b4c18e229ffffffffffff605055700399e96897690418f785257fffffffffff605155700373fc456c53bb779bf0ea9fffffffffff60525570034f9e8e490c48e67e6ab8bfffffffffff60535570032cbfd4a7adc790560b3337ffffffffff60545570030b50570f6e5d2acca94613ffffffffff6055557002eb40f9f620fda6b56c2861ffffffffff6056557002cc8340ecb0d0f520a6af58ffffffffff6057557002af09481380a0a35cf1ba02ffffffffff605855700292c5bdd3b92ec810287b1b3fffffffff605955700277abdcdab07d5a77ac6d6b9fffffffff605a5570025daf6654b1eaa55fd64df5efffffffff605b55700244c49c648baa98192dce88b7ffffffff605c5570022ce03cd5619a311b2471268bffffffff605d55700215f77c045fbe885654a44a0fffffffff605e556001600160811b03605f557001eaefdbdaaee7421fc4d3ede5ffffffff6060557001d6bd8b2eb257df7e8ca57b09bfffffff6061557001c35fedd14b861eb0443f7f133fffffff6062557001b0ce43b322bcde4a56e8ada5afffffff60635570019f0028ec1fff007f5a195a39dfffffff60645570018ded91f0e72ee74f49b15ba527ffffff60655570017d8ec7f04136f4e5615fd41a63ffffff60665570016ddc6556cdb84bdc8d12d22e6fffffff60675570015ecf52776a1155b5bd8395814f7fffff60685570015060c256cb23b3b3cc3754cf40ffffff6069557001428a2f98d728ae223ddab715be3fffff606a5570013545598e5c23276ccf0ede68034fffff606b557001288c4161ce1d6f54b7f61081194fffff606c5570011c592761c666aa641d5a01a40f17ffff606d55700110a688680a7530515f3e6e6cfdcdffff606e557001056f1b5bedf75c6bcb2ce8aed428ffff606f556ffaadceceeff8a0890f3875f008277fff6070556ff05dc6b27edad306388a600f6ba0bfff6071556fe67a5a25da41063de1495d5b18cdbfff6072556fdcff115b14eedde6fc3aa5353f2e4fff6073556fd3e7a3924312399f9aae2e0f868f8fff6074556fcb2ff529eb71e41582cccd5a1ee26fff6075556fc2d415c3db974ab32a51840c0b67edff6076556fbad03e7d883f69ad5b0a186184e06bff6077556fb320d03b2c343d4829abd6075f0cc5ff6078556fabc25204e02828d73c6e80bcdb1a95bf6079556fa4b16f74ee4bb2040a1ec6c15fbbf2df607a556f9deaf736ac1f569deb1b5ae3f36c130f607b556f976bd9952c7aa957f5937d790ef65037607c556f9131271922eaa6064b73a22d0bd4f2bf607d556f8b380f3558668c46c91c49a2f8e967b9607e556f857ddf0117efa215952912839f6473e6607f55611508806107496000396000f3fe608060405234801561001057600080fd5b506004361061007d5760003560e01c806354fd4d501161005b57806354fd4d501461013357806365098bb31461015257806379c1b4501461018f578063abfd231d146101cc5761007d565b80631da6bbfb1461008257806329a00e7c146100c957806349f9b0f7146100fe575b600080fd5b6100b76004803603608081101561009857600080fd5b5080359060208101359063ffffffff6040820135169060600135610201565b60408051918252519081900360200190f35b6100b7600480360360808110156100df57600080fd5b5080359060208101359063ffffffff60408201351690606001356102ce565b6100b76004803603608081101561011457600080fd5b5080359060208101359063ffffffff60408201351690606001356103ca565b61013b6104d5565b6040805161ffff9092168252519081900360200190f35b6100b7600480360360a081101561016857600080fd5b5080359063ffffffff602082013581169160408101359160608201351690608001356104da565b6100b7600480360360a08110156101a557600080fd5b5080359063ffffffff602082013581169160408101359160608201351690608001356104f5565b6100b7600480360360808110156101e257600080fd5b5080359060208101359063ffffffff60408201351690606001356105e5565b600080851180156102125750600084115b8015610224575060018363ffffffff16115b80156102395750621e848063ffffffff841611155b61024257600080fd5b8161024f575060006102c6565b63ffffffff8316620f424014156102805784600161026d8487610666565b038161027557fe5b0460010190506102c6565b6000808061028e88866106c8565b905061029f8189620f424089610722565b9093509150600060ff831660016102b68a87610666565b03901c8890036001019450505050505b949350505050565b600080851180156102df5750600084115b80156102f1575060008363ffffffff16115b80156103065750620f424063ffffffff841611155b61034c576040805162461bcd60e51b8152602060048201526012602482015271696e76616c696420706172616d657465727360701b604482015290519081900360640190fd5b81610359575060006102c6565b63ffffffff8316620f4240141561038457836103758684610666565b8161037c57fe5b0490506102c6565b6000808061039285886106c8565b90506103a3818888620f4240610722565b9093509150600060ff83166103b88a86610666565b901c9890980398975050505050505050565b600080851180156103db5750600084115b80156103ed575060008363ffffffff16115b80156104025750620f424063ffffffff841611155b801561040e5750848211155b610454576040805162461bcd60e51b8152602060048201526012602482015271696e76616c696420706172616d657465727360701b604482015290519081900360640190fd5b81610461575060006102c6565b848214156104705750826102c6565b63ffffffff8316620f4240141561048c57846103758584610666565b6000808387036104a18882620f424089610722565b909350915060006104b28885610666565b905060ff831688901b84818303816104c657fe5b049a9950505050505050505050565b600681565b60006104e986868686866104f5565b90505b95945050505050565b6000808611801561050c575060008563ffffffff16115b80156105215750620f424063ffffffff861611155b801561052d5750600084115b801561053f575060008363ffffffff16115b80156105545750620f424063ffffffff841611155b61055d57600080fd5b8263ffffffff168563ffffffff1614156105945761057b86836106c8565b6105858584610666565b8161058c57fe5b0490506104ec565b600080806105a289866106c8565b90506105b0818a8a89610722565b909350915060006105c18885610666565b905060ff831688901b84818303816105d557fe5b049b9a5050505050505050505050565b600080851180156105f65750600084115b8015610608575060018363ffffffff16115b801561061d5750621e848063ffffffff841611155b80156106295750848211155b61063257600080fd5b8161063f575060006102c6565b8482141561064e5750826102c6565b63ffffffff8316620f4240141561048c578461037583865b600082610675575060006106c2565b8282028284828161068257fe5b04146106bf5760405162461bcd60e51b81526004018080602001828103825260218152602001806114b26021913960400191505060405180910390fd5b90505b92915050565b6000828201838110156106bf576040805162461bcd60e51b815260206004820152601b60248201527f536166654d6174683a206164646974696f6e206f766572666c6f770000000000604482015290519081900360640190fd5b600080600160811b861061073557600080fd5b600080866001607f1b89028161074757fe5b04905070015bf0a8b1457695355fb8ac404e7a79e38110156107735761076c816107f4565b915061077f565b61077c81610bd8565b91505b60008563ffffffff168763ffffffff1684028161079857fe5b049050600160831b8110156107be576107b081610c82565b607f945094505050506107eb565b60006107c982611026565b90506107de81607f0360ff1683901c826110b6565b955093506107eb92505050565b94509492505050565b6000808080806fd3094c70f034de4b96ff7d5b6f99fcd8861061083d576001607e1b840193506fd3094c70f034de4b96ff7d5b6f99fcd86001607f1b87028161083957fe5b0495505b6fa45af1e1f40c333b3de1db4dd55f29a78610610880576001607d1b840193506fa45af1e1f40c333b3de1db4dd55f29a76001607f1b87028161087c57fe5b0495505b6f910b022db7ae67ce76b441c27035c6a186106108c3576001607c1b840193506f910b022db7ae67ce76b441c27035c6a16001607f1b8702816108bf57fe5b0495505b6f88415abbe9a76bead8d00cf112e4d4a88610610906576001607b1b840193506f88415abbe9a76bead8d00cf112e4d4a86001607f1b87028161090257fe5b0495505b6f84102b00893f64c705e841d5d4064bd38610610949576001607a1b840193506f84102b00893f64c705e841d5d4064bd36001607f1b87028161094557fe5b0495505b6f8204055aaef1c8bd5c3259f4822735a2861061098c57600160791b840193506f8204055aaef1c8bd5c3259f4822735a26001607f1b87028161098857fe5b0495505b6f810100ab00222d861931c15e39b44e9986106109cf57600160781b840193506f810100ab00222d861931c15e39b44e996001607f1b8702816109cb57fe5b0495505b6f808040155aabbbe9451521693554f7338610610a1257600160771b840193506f808040155aabbbe9451521693554f7336001607f1b870281610a0e57fe5b0495505b6f7fffffffffffffffffffffffffffffff19860192508291506001607f1b828002049050600160801b838103830204840193506001607f1b81830281610a5457fe5b049150600160811b836faaaaaaaaaaaaaaaaaaaaaaaaaaaaaaaa03830281610a7857fe5b04840193506001607f1b81830281610a8c57fe5b049150600360801b836f9999999999999999999999999999999903830281610ab057fe5b04840193506001607f1b81830281610ac457fe5b049150600160821b836f9249249249249249249249249249249203830281610ae857fe5b04840193506001607f1b81830281610afc57fe5b049150600560801b836f8e38e38e38e38e38e38e38e38e38e38e03830281610b2057fe5b04840193506001607f1b81830281610b3457fe5b049150600360811b836f8ba2e8ba2e8ba2e8ba2e8ba2e8ba2e8b03830281610b5857fe5b04840193506001607f1b81830281610b6c57fe5b049150600760801b836f89d89d89d89d89d89d89d89d89d89d8903830281610b9057fe5b04840193506001607f1b81830281610ba457fe5b049150600160831b836f8888888888888888888888888888888803830281610bc857fe5b049390930193505050505b919050565b600080600160801b8310610c08576000610bf76001607f1b8504611450565b60ff1693841c936001607f1b029150505b6001607f1b831115610c5657607f5b60ff811615610c54576001607f1b848002049350600160801b8410610c4b57600193841c9360ff6000198301161b91909101905b60001901610c17565b505b6f05b9de1d10bf4103d647b0955897ba806f03f80fe03f80fe03f80fe03f80fe03f88202049392505050565b6000670168244fdac780006001607f1b6f0fffffffffffffffffffffffffffffff84168080028290048082028390048083028490049485026710e1b3be415a00009092026705a0913f6b1e000091909102010192909181830204905080664807432bc1800002830192506001607f1b82820281610cfb57fe5b04905080660c0135dca0400002830192506001607f1b82820281610d1b57fe5b049050806601b707b1cdc00002830192506001607f1b82820281610d3b57fe5b049050806536e0f639b80002830192506001607f1b82820281610d5a57fe5b04905080650618fee9f80002830192506001607f1b82820281610d7957fe5b04905080649c197dcc0002830192506001607f1b82820281610d9757fe5b04905080640e30dce40002830192506001607f1b82820281610db557fe5b0490508064012ebd130002830192506001607f1b82820281610dd357fe5b049050806317499f0002830192506001607f1b82820281610df057fe5b049050806301a9d48002830192506001607f1b82820281610e0d57fe5b04905080621c638002830192506001607f1b82820281610e2957fe5b049050806201c63802830192506001607f1b82820281610e4557fe5b04905080611ab802830192506001607f1b82820281610e6057fe5b0490508061017c02830192506001607f1b82820281610e7b57fe5b04905080601402830192506001607f1b82820281610e9557fe5b6721c3677c82b400009190049384010482016001607f1b019290506001607c1b851615610ee65770018ebef9eac820ae8682b9793ac6d1e7767001c3d6a24ed82218787d624d3e5eba95f984020492505b6001607d1b851615610f1c577001368b2fc6f9609fe7aceb46aa619baed470018ebef9eac820ae8682b9793ac6d1e77884020492505b6001607e1b851615610f51576fbc5ab1b16779be3575bd8f0520a9f21f7001368b2fc6f9609fe7aceb46aa619baed584020492505b6001607f1b851615610f85576f454aaa8efe072e7f6ddbab84b40a55c96fbc5ab1b16779be3575bd8f0520a9f21e84020492505b600160801b851615610fb9576f0960aadc109e7a3bf4578099615711ea6f454aaa8efe072e7f6ddbab84b40a55c584020492505b600160811b851615610fec576e2bf84208204f5977f9a8cf01fdce3d6f0960aadc109e7a3bf4578099615711d784020492505b600160821b85161561101d576d03c6ab775dd0b95b4cbee7e65d116e2bf84208204f5977f9a8cf01fdc30784020492505b50909392505050565b60006020607f5b8060ff168260010160ff161015611075576000600260ff848401160490508460008260ff166080811061105c57fe5b01541061106b5780925061106f565b8091505b5061102d565b8360008260ff166080811061108657fe5b015410611096579150610bd39050565b8360008360ff16608081106110a757fe5b01541061007d57509050610bd3565b60008083905060008360ff16858302901c9150816f03442c4e6074a82f1797f72ac000000002810190508360ff16858302901c9150816f0116b96f757c380fb287fd0e4000000002810190508360ff16858302901c9150816e45ae5bdd5f0e03eca1ff439000000002810190508360ff16858302901c9150816e0defabf91302cd95b9ffda5000000002810190508360ff16858302901c9150816e02529ca9832b22439efff9b800000002810190508360ff16858302901c9150816d54f1cf12bd04e516b6da8800000002810190508360ff16858302901c9150816d0a9e39e257a09ca2d6db5100000002810190508360ff16858302901c9150816d012e066e7b839fa050c30900000002810190508360ff16858302901c9150816c1e33d7d926c329a1ad1a80000002810190508360ff16858302901c9150816c02bee513bdb4a6b19b5f80000002810190508360ff16858302901c9150816b3a9316fa79b88eccf2a0000002810190508360ff16858302901c9150816b048177ebe1fa81237520000002810190508360ff16858302901c9150816a5263fe90242dcbacf0000002810190508360ff16858302901c9150816a057e22099c030d9410000002810190508360ff16858302901c9150816957e22099c030d941000002810190508360ff16858302901c91508169052b6b5456997631000002810190508360ff16858302901c915081684985f67696bf74800002810190508360ff16858302901c9150816803dea12ea99e49800002810190508360ff16858302901c9150816731880f2214b6e00002810190508360ff16858302901c91508167025bcff56eb3600002810190508360ff16858302901c915081661b722e10ab100002810190508360ff16858302901c9150816601317c7007700002810190508360ff16858302901c915081650cba84aafa0002810190508360ff16858302901c9150816482573a0a0002810190508360ff16858302901c9150816405035ad90002810190508360ff16858302901c915081632f881b0002810190508360ff16858302901c9150816301b2934002810190508360ff16858302901c915081620efc4002810190508360ff16858302901c915081617fe002810190508360ff16858302901c91508161042002810190508360ff16858302901c915081602102810190508360ff16858302901c915081600102810190508360ff166001901b856f0688589cc0e9505e2f2fee5580000000838161144457fe5b04010195945050505050565b600080610100831015611478575b600183111561147357600192831c920161145e565b6106c2565b60805b60ff8116156114aa57600160ff82161b841061149f5760ff81169390931c92908117905b60011c607f1661147b565b509291505056fe536166654d6174683a206d756c7469706c69636174696f6e206f766572666c6f77a2646970667358221220632e9aabb37364b914692a67b37ff9ad4ab1642870ebdfa7a2cb93daded76a2364736f6c63430007040033",
  "linkReferences": {},
  "deployedLinkReferences": {}
}