{
  "contractName": "Governed",
  "abi": [
    {
      "constant": true,
      "inputs": [],
      "name": "governor",
      "outputs": [
        {
          "name": "",
          "type": "address"
        }
      ],
      "payable": false,
      "stateMutability": "view",
      "type": "function"
    },
    {
      "inputs": [
        {
          "name": "_governor",
          "type": "address"
        }
      ],
      "payable": false,
      "stateMutability": "nonpayable",
      "type": "constructor"
    },
    {
      "anonymous": false,
      "inputs": [
        {
          "indexed": true,
          "name": "_from",
          "type": "address"
        },
        {
          "indexed": true,
          "name": "_to",
          "type": "address"
        }
      ],
      "name": "GovernanceTransferred",
      "type": "event"
    },
    {
      "constant": false,
      "inputs": [
        {
          "name": "_newGovernor",
          "type": "address"
        }
      ],
      "name": "transferGovernance",
      "outputs": [
        {
          "name": "",
          "type": "bool"
        }
      ],
      "payable": false,
      "stateMutability": "nonpayable",
      "type": "function"
    }
  ],
  "bytecode": "0x608060405234801561001057600080fd5b5060405160208061023f8339810180604052602081101561003057600080fd5b505160008054600160a060020a03909216600160a060020a03199092169190911790556101dd806100626000396000f3fe608060405234801561001057600080fd5b5060043610610052577c010000000000000000000000000000000000000000000000000000000060003504630c340a248114610057578063d38bfff414610088575b600080fd5b61005f6100cf565b6040805173ffffffffffffffffffffffffffffffffffffffff9092168252519081900360200190f35b6100bb6004803603602081101561009e57600080fd5b503573ffffffffffffffffffffffffffffffffffffffff166100eb565b604080519115158252519081900360200190f35b60005473ffffffffffffffffffffffffffffffffffffffff1681565b6000805473ffffffffffffffffffffffffffffffffffffffff16331461017257604080517f08c379a000000000000000000000000000000000000000000000000000000000815260206004820152601760248201527f4f6e6c7920476f7665726e6f722063616e2063616c6c2e000000000000000000604482015290519081900360640190fd5b506000805473ffffffffffffffffffffffffffffffffffffffff831673ffffffffffffffffffffffffffffffffffffffff19909116179055600191905056fea165627a7a72305820081d201cb72cd2a0aca8e5886b9ccbcb6a44e8cfcaba2fd5b1e775aba0ed95840029",
  "source": "pragma solidity ^0.5.2;\n\ncontract Governed {\n\n    /*\n    * @title Graph Contract Governance contract\n    *\n    * @author Bryant Eisenbach\n    * @author Reuven Etzion\n    *\n    * @notice Contract Specification:\n    *\n    * There are several parameters throughout this mechanism design which are set via a\n    * governance process. In the v1 specification, governance will consist of a small committee\n    * which enacts changes to the protocol via a multi-sig contract.\n    *\n    * Requirements (\"Governed\" contract):\n    * req 01 Multisig contract will own this contract\n    * req 02 Verify the Governed contracts can upgrade themselves to a new `governor`\n    *   (GovA owns contracts 1-5 and can transfer ownership of 1-5 to GovB)\n    * ...\n    * Version 2\n    * req 01 (V2) Change Mutli-sig to use a voting mechanism\n    *   - Majority of votes after N% of votes cast will trigger proposed actions\n    */\n\n    address public governor;\n\n    event GovernanceTransferred(address indexed _from, address indexed _to);\n\n    /**\n     * @dev All `Governed` contracts are constructed using an address for the `governor`\n     * @param _governor <address> Address of initial `governor` of the contract\n     */\n    constructor(address _governor) public {\n        governor = _governor;\n    }\n\n    modifier onlyGovernance {\n        require(msg.sender == governor, \"Only Governor can call.\");\n        _;\n    }\n\n    /**\n     * @dev The current `governor` can assign a new `governor`\n     * @param _newGovernor <address> Address of new `governor`\n     */\n    function transferGovernance(address _newGovernor) public onlyGovernance returns (bool) {\n        governor = _newGovernor;\n        return true;\n    }\n\n}\n",
  "sourcePath": "/Users/davidkajpust/coding-no-icloud-backup/thegraph/dave/contracts/contracts/Governed.sol",
  "compiler": {
    "name": "solc",
    "version": "0.5.2+commit.1df8f40c.Emscripten.clang"
  },
  "schemaVersion": "3.0.10",
  "updatedAt": "2019-07-31T14:21:55.212Z",
  "devdoc": {
    "methods": {
      "constructor": {
        "details": "All `Governed` contracts are constructed using an address for the `governor`",
        "params": {
          "_governor": "<address> Address of initial `governor` of the contract"
        }
      },
      "transferGovernance(address)": {
        "details": "The current `governor` can assign a new `governor`",
        "params": {
          "_newGovernor": "<address> Address of new `governor`"
        }
      }
    }
  },
  "userdoc": {
    "methods": {}
  }
}