{
  "contractName": "GraphToken",
  "abi": [
    {
      "constant": true,
      "inputs": [],
      "name": "name",
      "outputs": [
        {
          "name": "",
          "type": "string"
        }
      ],
      "payable": false,
      "stateMutability": "view",
      "type": "function"
    },
    {
      "constant": false,
      "inputs": [
        {
          "name": "spender",
          "type": "address"
        },
        {
          "name": "value",
          "type": "uint256"
        }
      ],
      "name": "approve",
      "outputs": [
        {
          "name": "",
          "type": "bool"
        }
      ],
      "payable": false,
      "stateMutability": "nonpayable",
      "type": "function"
    },
    {
      "constant": true,
      "inputs": [],
      "name": "governor",
      "outputs": [
        {
          "name": "",
          "type": "address"
        }
      ],
      "payable": false,
      "stateMutability": "view",
      "type": "function"
    },
    {
      "constant": true,
      "inputs": [],
      "name": "totalSupply",
      "outputs": [
        {
          "name": "",
          "type": "uint256"
        }
      ],
      "payable": false,
      "stateMutability": "view",
      "type": "function"
    },
    {
      "constant": false,
      "inputs": [
        {
          "name": "from",
          "type": "address"
        },
        {
          "name": "to",
          "type": "address"
        },
        {
          "name": "value",
          "type": "uint256"
        }
      ],
      "name": "transferFrom",
      "outputs": [
        {
          "name": "",
          "type": "bool"
        }
      ],
      "payable": false,
      "stateMutability": "nonpayable",
      "type": "function"
    },
    {
      "constant": true,
      "inputs": [],
      "name": "decimals",
      "outputs": [
        {
          "name": "",
          "type": "uint8"
        }
      ],
      "payable": false,
      "stateMutability": "view",
      "type": "function"
    },
    {
      "constant": false,
      "inputs": [
        {
          "name": "spender",
          "type": "address"
        },
        {
          "name": "addedValue",
          "type": "uint256"
        }
      ],
      "name": "increaseAllowance",
      "outputs": [
        {
          "name": "",
          "type": "bool"
        }
      ],
      "payable": false,
      "stateMutability": "nonpayable",
      "type": "function"
    },
    {
      "constant": false,
      "inputs": [
        {
          "name": "to",
          "type": "address"
        },
        {
          "name": "value",
          "type": "uint256"
        }
      ],
      "name": "mint",
      "outputs": [
        {
          "name": "",
          "type": "bool"
        }
      ],
      "payable": false,
      "stateMutability": "nonpayable",
      "type": "function"
    },
    {
      "constant": false,
      "inputs": [
        {
          "name": "value",
          "type": "uint256"
        }
      ],
      "name": "burn",
      "outputs": [],
      "payable": false,
      "stateMutability": "nonpayable",
      "type": "function"
    },
    {
      "constant": true,
      "inputs": [
        {
          "name": "owner",
          "type": "address"
        }
      ],
      "name": "balanceOf",
      "outputs": [
        {
          "name": "",
          "type": "uint256"
        }
      ],
      "payable": false,
      "stateMutability": "view",
      "type": "function"
    },
    {
      "constant": false,
      "inputs": [
        {
          "name": "from",
          "type": "address"
        },
        {
          "name": "value",
          "type": "uint256"
        }
      ],
      "name": "burnFrom",
      "outputs": [],
      "payable": false,
      "stateMutability": "nonpayable",
      "type": "function"
    },
    {
      "constant": true,
      "inputs": [],
      "name": "symbol",
      "outputs": [
        {
          "name": "",
          "type": "string"
        }
      ],
      "payable": false,
      "stateMutability": "view",
      "type": "function"
    },
    {
      "constant": false,
      "inputs": [
        {
          "name": "account",
          "type": "address"
        }
      ],
      "name": "addMinter",
      "outputs": [],
      "payable": false,
      "stateMutability": "nonpayable",
      "type": "function"
    },
    {
      "constant": false,
      "inputs": [],
      "name": "renounceMinter",
      "outputs": [],
      "payable": false,
      "stateMutability": "nonpayable",
      "type": "function"
    },
    {
      "constant": false,
      "inputs": [
        {
          "name": "spender",
          "type": "address"
        },
        {
          "name": "subtractedValue",
          "type": "uint256"
        }
      ],
      "name": "decreaseAllowance",
      "outputs": [
        {
          "name": "",
          "type": "bool"
        }
      ],
      "payable": false,
      "stateMutability": "nonpayable",
      "type": "function"
    },
    {
      "constant": false,
      "inputs": [
        {
          "name": "to",
          "type": "address"
        },
        {
          "name": "value",
          "type": "uint256"
        }
      ],
      "name": "transfer",
      "outputs": [
        {
          "name": "",
          "type": "bool"
        }
      ],
      "payable": false,
      "stateMutability": "nonpayable",
      "type": "function"
    },
    {
      "constant": true,
      "inputs": [
        {
          "name": "account",
          "type": "address"
        }
      ],
      "name": "isMinter",
      "outputs": [
        {
          "name": "",
          "type": "bool"
        }
      ],
      "payable": false,
      "stateMutability": "view",
      "type": "function"
    },
    {
      "constant": false,
      "inputs": [
        {
          "name": "_newGovernor",
          "type": "address"
        }
      ],
      "name": "transferGovernance",
      "outputs": [
        {
          "name": "",
          "type": "bool"
        }
      ],
      "payable": false,
      "stateMutability": "nonpayable",
      "type": "function"
    },
    {
      "constant": true,
      "inputs": [
        {
          "name": "owner",
          "type": "address"
        },
        {
          "name": "spender",
          "type": "address"
        }
      ],
      "name": "allowance",
      "outputs": [
        {
          "name": "",
          "type": "uint256"
        }
      ],
      "payable": false,
      "stateMutability": "view",
      "type": "function"
    },
    {
      "inputs": [
        {
          "name": "_governor",
          "type": "address"
        },
        {
          "name": "_initialSupply",
          "type": "uint256"
        }
      ],
      "payable": false,
      "stateMutability": "nonpayable",
      "type": "constructor"
    },
    {
      "anonymous": false,
      "inputs": [
        {
          "indexed": true,
          "name": "account",
          "type": "address"
        }
      ],
      "name": "MinterAdded",
      "type": "event"
    },
    {
      "anonymous": false,
      "inputs": [
        {
          "indexed": true,
          "name": "account",
          "type": "address"
        }
      ],
      "name": "MinterRemoved",
      "type": "event"
    },
    {
      "anonymous": false,
      "inputs": [
        {
          "indexed": true,
          "name": "from",
          "type": "address"
        },
        {
          "indexed": true,
          "name": "to",
          "type": "address"
        },
        {
          "indexed": false,
          "name": "value",
          "type": "uint256"
        }
      ],
      "name": "Transfer",
      "type": "event"
    },
    {
      "anonymous": false,
      "inputs": [
        {
          "indexed": true,
          "name": "owner",
          "type": "address"
        },
        {
          "indexed": true,
          "name": "spender",
          "type": "address"
        },
        {
          "indexed": false,
          "name": "value",
          "type": "uint256"
        }
      ],
      "name": "Approval",
      "type": "event"
    },
    {
      "anonymous": false,
      "inputs": [
        {
          "indexed": true,
          "name": "_from",
          "type": "address"
        },
        {
          "indexed": true,
          "name": "_to",
          "type": "address"
        }
      ],
      "name": "GovernanceTransferred",
      "type": "event"
    },
    {
      "constant": false,
      "inputs": [
        {
          "name": "_account",
          "type": "address"
        }
      ],
      "name": "removeMinter",
      "outputs": [],
      "payable": false,
      "stateMutability": "nonpayable",
      "type": "function"
    },
    {
      "constant": false,
      "inputs": [
        {
          "name": "_to",
          "type": "address"
        },
        {
          "name": "_amount",
          "type": "uint256"
        },
        {
          "name": "_data",
          "type": "bytes"
        }
      ],
      "name": "transferWithData",
      "outputs": [
        {
          "name": "success",
          "type": "bool"
        }
      ],
      "payable": false,
      "stateMutability": "nonpayable",
      "type": "function"
    }
  ],
  "bytecode": "0x60806040523480156200001157600080fd5b506040516040806200160b833981018060405260408110156200003357600080fd5b508051602091820151604080518082018252600b81527f477261706820546f6b656e0000000000000000000000000000000000000000008186019081528251808401909352600383527f47525400000000000000000000000000000000000000000000000000000000009583019590955260008054600160a060020a031916600160a060020a0386161790558051939492939092601291620000d891600191620003ca565b508151620000ee906002906020850190620003ca565b506003805460ff191660ff92909216919091179055506200011a9050336401000000006200015f810204565b6200012e826401000000006200015f810204565b6200014233640100000000620001b1810204565b62000157828264010000000062000203810204565b50506200046f565b6200017a60078264010000000062001112620002c482021704565b604051600160a060020a038216907f6ae172837ea30b801fbfcdd4108aa1d5bf8ff775444fd70256b44e6bf3dfc3f690600090a250565b620001cc600782640100000000620010c66200031f82021704565b604051600160a060020a038216907fe94479a9f7e1952cc78f2d6baab678adc1b772d936c6583def489e524cb6669290600090a250565b600160a060020a03821615156200021957600080fd5b60065462000236908264010000000062000e156200037882021704565b600655600160a060020a0382166000908152600460205260409020546200026c908264010000000062000e156200037882021704565b600160a060020a03831660008181526004602090815260408083209490945583518581529351929391927fddf252ad1be2c89b69c2b068fc378daa952ba7f163c4a11628f55a4df523b3ef9281900390910190a35050565b600160a060020a0381161515620002da57600080fd5b620002ef828264010000000062000392810204565b15620002fa57600080fd5b600160a060020a0316600090815260209190915260409020805460ff19166001179055565b600160a060020a03811615156200033557600080fd5b6200034a828264010000000062000392810204565b15156200035657600080fd5b600160a060020a0316600090815260209190915260409020805460ff19169055565b6000828201838110156200038b57600080fd5b9392505050565b6000600160a060020a0382161515620003aa57600080fd5b50600160a060020a03166000908152602091909152604090205460ff1690565b828054600181600116156101000203166002900490600052602060002090601f016020900481019282601f106200040d57805160ff19168380011785556200043d565b828001600101855582156200043d579182015b828111156200043d57825182559160200191906001019062000420565b506200044b9291506200044f565b5090565b6200046c91905b808211156200044b576000815560010162000456565b90565b61118c806200047f6000396000f3fe608060405234801561001057600080fd5b5060043610610164576000357c01000000000000000000000000000000000000000000000000000000009004806342966c68116100e557806398650275116100a9578063aa271e1a11610083578063aa271e1a146104f0578063d38bfff414610516578063dd62ed3e1461053c57610164565b80639865027514610490578063a457c2d714610498578063a9059cbb146104c457610164565b806342966c68146103f357806370a082311461041057806379cc67901461043657806395d89b4114610462578063983b2d561461046a57610164565b80632535f7621161012c5780632535f7621461029a5780633092afd514610355578063313ce5671461037d578063395093511461039b57806340c10f19146103c757610164565b806306fdde0314610169578063095ea7b3146101e65780630c340a241461022657806318160ddd1461024a57806323b872dd14610264575b600080fd5b61017161056a565b6040805160208082528351818301528351919283929083019185019080838360005b838110156101ab578181015183820152602001610193565b50505050905090810190601f1680156101d85780820380516001836020036101000a031916815260200191505b509250505060405180910390f35b610212600480360360408110156101fc57600080fd5b50600160a060020a0381351690602001356105ff565b604080519115158252519081900360200190f35b61022e61067d565b60408051600160a060020a039092168252519081900360200190f35b61025261068c565b60408051918252519081900360200190f35b6102126004803603606081101561027a57600080fd5b50600160a060020a03813581169160208101359091169060400135610692565b610212600480360360608110156102b057600080fd5b600160a060020a03823516916020810135918101906060810160408201356401000000008111156102e057600080fd5b8201836020820111156102f257600080fd5b8035906020019184600183028401116401000000008311171561031457600080fd5b91908080601f01602080910402602001604051908101604052809392919081815260200183838082843760009201919091525092955061075b945050505050565b61037b6004803603602081101561036b57600080fd5b5035600160a060020a0316610893565b005b610385610918565b6040805160ff9092168252519081900360200190f35b610212600480360360408110156103b157600080fd5b50600160a060020a038135169060200135610921565b610212600480360360408110156103dd57600080fd5b50600160a060020a0381351690602001356109d1565b61037b6004803603602081101561040957600080fd5b5035610a71565b6102526004803603602081101561042657600080fd5b5035600160a060020a0316610a7b565b61037b6004803603604081101561044c57600080fd5b50600160a060020a038135169060200135610a96565b610171610aa4565b61037b6004803603602081101561048057600080fd5b5035600160a060020a0316610b02565b61037b610b96565b610212600480360360408110156104ae57600080fd5b50600160a060020a038135169060200135610ba1565b610212600480360360408110156104da57600080fd5b50600160a060020a038135169060200135610bec565b6102126004803603602081101561050657600080fd5b5035600160a060020a0316610bf9565b6102126004803603602081101561052c57600080fd5b5035600160a060020a0316610c12565b6102526004803603604081101561055257600080fd5b50600160a060020a0381358116916020013516610cbe565b60018054604080516020601f600260001961010087891615020190951694909404938401819004810282018101909252828152606093909290918301828280156105f55780601f106105ca576101008083540402835291602001916105f5565b820191906000526020600020905b8154815290600101906020018083116105d857829003601f168201915b5050505050905090565b6000600160a060020a038316151561061657600080fd5b336000818152600560209081526040808320600160a060020a03881680855290835292819020869055805186815290519293927f8c5be1e5ebec7d5bd14f71427d1e84f3dd0314c0f7b2291e5b200ac8c7c3b925929181900390910190a350600192915050565b600054600160a060020a031681565b60065490565b600160a060020a03831660009081526005602090815260408083203384529091528120546106c6908363ffffffff610ce916565b600160a060020a03851660009081526005602090815260408083203384529091529020556106f5848484610cfe565b600160a060020a0384166000818152600560209081526040808320338085529083529281902054815190815290519293927f8c5be1e5ebec7d5bd14f71427d1e84f3dd0314c0f7b2291e5b200ac8c7c3b925929181900390910190a35060019392505050565b60006107678484610bec565b151561076f57fe5b83600160a060020a031663d03142633385856040518463ffffffff167c01000000000000000000000000000000000000000000000000000000000281526004018084600160a060020a0316600160a060020a0316815260200183815260200180602001828103825283818151815260200191508051906020019080838360005b838110156108075781810151838201526020016107ef565b50505050905090810190601f1680156108345780820380516001836020036101000a031916815260200191505b50945050505050602060405180830381600087803b15801561085557600080fd5b505af1158015610869573d6000803e3d6000fd5b505050506040513d602081101561087f57600080fd5b5051151561088957fe5b5060019392505050565b600054600160a060020a0316331461090c57604080517f08c379a000000000000000000000000000000000000000000000000000000000815260206004820152601760248201527f4f6e6c7920476f7665726e6f722063616e2063616c6c2e000000000000000000604482015290519081900360640190fd5b61091581610dcd565b50565b60035460ff1690565b6000600160a060020a038316151561093857600080fd5b336000908152600560209081526040808320600160a060020a038716845290915290205461096c908363ffffffff610e1516565b336000818152600560209081526040808320600160a060020a0389168085529083529281902085905580519485525191937f8c5be1e5ebec7d5bd14f71427d1e84f3dd0314c0f7b2291e5b200ac8c7c3b925929081900390910190a350600192915050565b60006109dc33610bf9565b806109f15750600054600160a060020a031633145b1515610a5e57604080517f08c379a000000000000000000000000000000000000000000000000000000000815260206004820152601560248201527f4f6e6c79206d696e7465722063616e2063616c6c2e0000000000000000000000604482015290519081900360640190fd5b610a688383610e2e565b50600192915050565b6109153382610eda565b600160a060020a031660009081526004602052604090205490565b610aa08282610f85565b5050565b60028054604080516020601f60001961010060018716150201909416859004938401819004810282018101909252828152606093909290918301828280156105f55780601f106105ca576101008083540402835291602001916105f5565b610b0b33610bf9565b80610b205750600054600160a060020a031633145b1515610b8d57604080517f08c379a000000000000000000000000000000000000000000000000000000000815260206004820152601560248201527f4f6e6c79206d696e7465722063616e2063616c6c2e0000000000000000000000604482015290519081900360640190fd5b61091581611047565b610b9f33610dcd565b565b6000600160a060020a0383161515610bb857600080fd5b336000908152600560209081526040808320600160a060020a038716845290915290205461096c908363ffffffff610ce916565b6000610a68338484610cfe565b6000610c0c60078363ffffffff61108f16565b92915050565b60008054600160a060020a03163314610c8c57604080517f08c379a000000000000000000000000000000000000000000000000000000000815260206004820152601760248201527f4f6e6c7920476f7665726e6f722063616e2063616c6c2e000000000000000000604482015290519081900360640190fd5b5060008054600160a060020a03831673ffffffffffffffffffffffffffffffffffffffff199091161790556001919050565b600160a060020a03918216600090815260056020908152604080832093909416825291909152205490565b600082821115610cf857600080fd5b50900390565b600160a060020a0382161515610d1357600080fd5b600160a060020a038316600090815260046020526040902054610d3c908263ffffffff610ce916565b600160a060020a038085166000908152600460205260408082209390935590841681522054610d71908263ffffffff610e1516565b600160a060020a0380841660008181526004602090815260409182902094909455805185815290519193928716927fddf252ad1be2c89b69c2b068fc378daa952ba7f163c4a11628f55a4df523b3ef92918290030190a3505050565b610dde60078263ffffffff6110c616565b604051600160a060020a038216907fe94479a9f7e1952cc78f2d6baab678adc1b772d936c6583def489e524cb6669290600090a250565b600082820183811015610e2757600080fd5b9392505050565b600160a060020a0382161515610e4357600080fd5b600654610e56908263ffffffff610e1516565b600655600160a060020a038216600090815260046020526040902054610e82908263ffffffff610e1516565b600160a060020a03831660008181526004602090815260408083209490945583518581529351929391927fddf252ad1be2c89b69c2b068fc378daa952ba7f163c4a11628f55a4df523b3ef9281900390910190a35050565b600160a060020a0382161515610eef57600080fd5b600654610f02908263ffffffff610ce916565b600655600160a060020a038216600090815260046020526040902054610f2e908263ffffffff610ce916565b600160a060020a0383166000818152600460209081526040808320949094558351858152935191937fddf252ad1be2c89b69c2b068fc378daa952ba7f163c4a11628f55a4df523b3ef929081900390910190a35050565b600160a060020a0382166000908152600560209081526040808320338452909152902054610fb9908263ffffffff610ce916565b600160a060020a0383166000908152600560209081526040808320338452909152902055610fe78282610eda565b600160a060020a0382166000818152600560209081526040808320338085529083529281902054815190815290519293927f8c5be1e5ebec7d5bd14f71427d1e84f3dd0314c0f7b2291e5b200ac8c7c3b925929181900390910190a35050565b61105860078263ffffffff61111216565b604051600160a060020a038216907f6ae172837ea30b801fbfcdd4108aa1d5bf8ff775444fd70256b44e6bf3dfc3f690600090a250565b6000600160a060020a03821615156110a657600080fd5b50600160a060020a03166000908152602091909152604090205460ff1690565b600160a060020a03811615156110db57600080fd5b6110e5828261108f565b15156110f057600080fd5b600160a060020a0316600090815260209190915260409020805460ff19169055565b600160a060020a038116151561112757600080fd5b611131828261108f565b1561113b57600080fd5b600160a060020a0316600090815260209190915260409020805460ff1916600117905556fea165627a7a72305820cdddaa9682e0268b07ef0b35a475a783b8e404c17dbe065d4547c14ef76dfdd20029",
  "source": "pragma solidity ^0.5.2;\n/*\n * @title GraphToken contract\n *\n * @author Bryant Eisenbach\n * @author Reuven Etzion\n *\n * Requirements\n * @req 01 The Graph Token shall implement the ERC20 Token Standard\n * @req 02 The Graph Token shall allow tokens staked in the protocol to be burned\n * @req 03 The Graph Token shall allow tokens to be minted to reward protocol participants\n * @req 04 The Graph Token shall only allow designated accounts the authority to mint\n *         Note: for example, the Payment Channel Hub and Rewards Manager contracts\n * @req 05 The Graph Token shall allow the protocol Governance to modify the accounts that have\n *         minting authority\n * @req 06 The Graph Token shall allow the protocol Governance to mint new tokens\n * @req 07 The Graph Token shall mint an inital distribution of tokens\n * @req 08 The Graph Token shall allow a token holder to stake in the protocol for indexing or\n *         curation markets for a particular Subgraph\n *\n */\n\nimport \"./Governed.sol\";\nimport \"./openzeppelin/ERC20Burnable.sol\";\nimport \"./openzeppelin/ERC20Mintable.sol\";\nimport \"./openzeppelin/ERC20Detailed.sol\";\n\n// @imp 08 target _to of transfer(_to, _amount, _data) in Token must implement this interface\n// NOTE: This is based off of ERC777TokensRecipient interface, but does not fully implement it\ncontract TokenReceiver\n{\n    function tokensReceived(\n        address _from,\n        uint256 _amount,\n        bytes calldata _data\n    )\n        external\n        returns (bool);\n}\n\ncontract GraphToken is\n    Governed,\n    ERC20Detailed, // @imp 01\n    ERC20Burnable, // @imp 01, 02\n    ERC20Mintable  // @imp 01, 03, 04\n{\n    // @imp 05, 06 Override so Governor can set Minters or mint tokens\n    modifier onlyMinter() {\n        require(isMinter(msg.sender) || msg.sender == governor, \"Only minter can call.\");\n        _;\n    }\n\n    /*\n     * @dev Init Graph Token contract\n     * @param _governor <address> Address of the multisig contract as Governor of this contract\n     * @param _initialSupply <uint256> Initial supply of Graph Tokens\n     */\n    constructor (address _governor, uint256 _initialSupply) public\n        ERC20Detailed(\"Graph Token\", \"GRT\", 18)\n        Governed(_governor)\n    {\n        // @imp 06 Governor is initially the sole treasurer\n        _addMinter(_governor);\n        _removeMinter(msg.sender); // Zep automagically does this, so remove...\n\n        // @imp 07 The Governer has the initial supply of tokens\n        _mint(_governor, _initialSupply); // Deployment address holds all tokens\n\n    }\n\n    /**\n     * @dev Method to expose `removeToken` while using the `onlyGovernor` modifier\n     * @param _account <address> Address of account to remove from `_minters`\n     */\n    function removeMinter(address _account) public onlyGovernance {\n        _removeMinter(_account);\n    }\n\n    /*\n     * @dev Transfer Graph tokens to the Staking interface\n     * @notice Interacts with Staking contract\n     * @notice Overriding `transfer` was not working with web3.js so we renamed to `transferWithData`\n     */\n    function transferWithData(\n        address _to,\n        uint256 _amount,\n        bytes memory _data\n    )\n        public\n        returns (bool success)\n    {\n        assert(super.transfer(_to, _amount)); // Handle basic transfer functionality\n        // @imp 08 Have staking contract receive the token and handle the data\n        assert(TokenReceiver(_to).tokensReceived(msg.sender, _amount, _data));\n        success = true;\n    }\n}\n",
  "sourcePath": "/Users/davidkajpust/coding-no-icloud-backup/thegraph/research/soho-token-contracts/contracts/contracts/GraphToken.sol",
  "compiler": {
    "name": "solc",
    "version": "0.5.2+commit.1df8f40c.Emscripten.clang"
  },
  "schemaVersion": "3.0.10",
  "updatedAt": "2019-07-30T18:40:14.300Z",
  "devdoc": {
    "methods": {
      "allowance(address,address)": {
        "details": "Function to check the amount of tokens that an owner allowed to a spender.",
        "params": {
          "owner": "address The address which owns the funds.",
          "spender": "address The address which will spend the funds."
        },
        "return": "A uint256 specifying the amount of tokens still available for the spender."
      },
      "approve(address,uint256)": {
        "details": "Approve the passed address to spend the specified amount of tokens on behalf of msg.sender. Beware that changing an allowance with this method brings the risk that someone may use both the old and the new allowance by unfortunate transaction ordering. One possible solution to mitigate this race condition is to first reduce the spender's allowance to 0 and set the desired value afterwards: https://github.com/ethereum/EIPs/issues/20#issuecomment-263524729",
        "params": {
          "spender": "The address which will spend the funds.",
          "value": "The amount of tokens to be spent."
        }
      },
      "balanceOf(address)": {
        "details": "Gets the balance of the specified address.",
        "params": {
          "owner": "The address to query the balance of."
        },
        "return": "An uint256 representing the amount owned by the passed address."
      },
      "burn(uint256)": {
        "details": "Burns a specific amount of tokens.",
        "params": {
          "value": "The amount of token to be burned."
        }
      },
      "burnFrom(address,uint256)": {
        "details": "Burns a specific amount of tokens from the target address and decrements allowance",
        "params": {
          "from": "address The address which you want to send tokens from",
          "value": "uint256 The amount of token to be burned"
        }
      },
      "decimals()": {
        "return": "the number of decimals of the token."
      },
      "decreaseAllowance(address,uint256)": {
        "details": "Decrease the amount of tokens that an owner allowed to a spender. approve should be called when allowed_[_spender] == 0. To decrement allowed value is better to use this function to avoid 2 calls (and wait until the first transaction is mined) From MonolithDAO Token.sol Emits an Approval event.",
        "params": {
          "spender": "The address which will spend the funds.",
          "subtractedValue": "The amount of tokens to decrease the allowance by."
        }
      },
      "increaseAllowance(address,uint256)": {
        "details": "Increase the amount of tokens that an owner allowed to a spender. approve should be called when allowed_[_spender] == 0. To increment allowed value is better to use this function to avoid 2 calls (and wait until the first transaction is mined) From MonolithDAO Token.sol Emits an Approval event.",
        "params": {
          "addedValue": "The amount of tokens to increase the allowance by.",
          "spender": "The address which will spend the funds."
        }
      },
      "mint(address,uint256)": {
        "details": "Function to mint tokens",
        "params": {
          "to": "The address that will receive the minted tokens.",
          "value": "The amount of tokens to mint."
        },
        "return": "A boolean that indicates if the operation was successful."
      },
      "name()": {
        "return": "the name of the token."
      },
      "removeMinter(address)": {
        "details": "Method to expose `removeToken` while using the `onlyGovernor` modifier",
        "params": {
          "_account": "<address> Address of account to remove from `_minters`"
        }
      },
      "symbol()": {
        "return": "the symbol of the token."
      },
      "totalSupply()": {
        "details": "Total number of tokens in existence"
      },
      "transfer(address,uint256)": {
        "details": "Transfer token for a specified address",
        "params": {
          "to": "The address to transfer to.",
          "value": "The amount to be transferred."
        }
      },
      "transferFrom(address,address,uint256)": {
        "details": "Transfer tokens from one address to another. Note that while this function emits an Approval event, this is not required as per the specification, and other compliant implementations may not emit the event.",
        "params": {
          "from": "address The address which you want to send tokens from",
          "to": "address The address which you want to transfer to",
          "value": "uint256 the amount of tokens to be transferred"
        }
      },
      "transferGovernance(address)": {
        "details": "The current `governor` can assign a new `governor`",
        "params": {
          "_newGovernor": "<address> Address of new `governor`"
        }
      }
    }
  },
  "userdoc": {
    "methods": {}
  }
}