{
  "contractName": "GraphToken",
  "abi": [
    {
      "constant": true,
      "inputs": [],
      "name": "name",
      "outputs": [
        {
          "name": "",
          "type": "string"
        }
      ],
      "payable": false,
      "stateMutability": "view",
      "type": "function"
    },
    {
      "constant": false,
      "inputs": [
        {
          "name": "spender",
          "type": "address"
        },
        {
          "name": "value",
          "type": "uint256"
        }
      ],
      "name": "approve",
      "outputs": [
        {
          "name": "",
          "type": "bool"
        }
      ],
      "payable": false,
      "stateMutability": "nonpayable",
      "type": "function"
    },
    {
      "constant": true,
      "inputs": [],
      "name": "governor",
      "outputs": [
        {
          "name": "",
          "type": "address"
        }
      ],
      "payable": false,
      "stateMutability": "view",
      "type": "function"
    },
    {
      "constant": true,
      "inputs": [],
      "name": "totalSupply",
      "outputs": [
        {
          "name": "",
          "type": "uint256"
        }
      ],
      "payable": false,
      "stateMutability": "view",
      "type": "function"
    },
    {
      "constant": false,
      "inputs": [
        {
          "name": "sender",
          "type": "address"
        },
        {
          "name": "recipient",
          "type": "address"
        },
        {
          "name": "amount",
          "type": "uint256"
        }
      ],
      "name": "transferFrom",
      "outputs": [
        {
          "name": "",
          "type": "bool"
        }
      ],
      "payable": false,
      "stateMutability": "nonpayable",
      "type": "function"
    },
    {
      "constant": true,
      "inputs": [],
      "name": "decimals",
      "outputs": [
        {
          "name": "",
          "type": "uint8"
        }
      ],
      "payable": false,
      "stateMutability": "view",
      "type": "function"
    },
    {
      "constant": false,
      "inputs": [
        {
          "name": "spender",
          "type": "address"
        },
        {
          "name": "addedValue",
          "type": "uint256"
        }
      ],
      "name": "increaseAllowance",
      "outputs": [
        {
          "name": "",
          "type": "bool"
        }
      ],
      "payable": false,
      "stateMutability": "nonpayable",
      "type": "function"
    },
    {
      "constant": false,
      "inputs": [
        {
          "name": "account",
          "type": "address"
        },
        {
          "name": "amount",
          "type": "uint256"
        }
      ],
      "name": "mint",
      "outputs": [
        {
          "name": "",
          "type": "bool"
        }
      ],
      "payable": false,
      "stateMutability": "nonpayable",
      "type": "function"
    },
    {
      "constant": false,
      "inputs": [
        {
          "name": "amount",
          "type": "uint256"
        }
      ],
      "name": "burn",
      "outputs": [],
      "payable": false,
      "stateMutability": "nonpayable",
      "type": "function"
    },
    {
      "constant": true,
      "inputs": [
        {
          "name": "account",
          "type": "address"
        }
      ],
      "name": "balanceOf",
      "outputs": [
        {
          "name": "",
          "type": "uint256"
        }
      ],
      "payable": false,
      "stateMutability": "view",
      "type": "function"
    },
    {
      "constant": false,
      "inputs": [
        {
          "name": "account",
          "type": "address"
        },
        {
          "name": "amount",
          "type": "uint256"
        }
      ],
      "name": "burnFrom",
      "outputs": [],
      "payable": false,
      "stateMutability": "nonpayable",
      "type": "function"
    },
    {
      "constant": true,
      "inputs": [],
      "name": "symbol",
      "outputs": [
        {
          "name": "",
          "type": "string"
        }
      ],
      "payable": false,
      "stateMutability": "view",
      "type": "function"
    },
    {
      "constant": false,
      "inputs": [
        {
          "name": "account",
          "type": "address"
        }
      ],
      "name": "addMinter",
      "outputs": [],
      "payable": false,
      "stateMutability": "nonpayable",
      "type": "function"
    },
    {
      "constant": false,
      "inputs": [],
      "name": "renounceMinter",
      "outputs": [],
      "payable": false,
      "stateMutability": "nonpayable",
      "type": "function"
    },
    {
      "constant": false,
      "inputs": [
        {
          "name": "spender",
          "type": "address"
        },
        {
          "name": "subtractedValue",
          "type": "uint256"
        }
      ],
      "name": "decreaseAllowance",
      "outputs": [
        {
          "name": "",
          "type": "bool"
        }
      ],
      "payable": false,
      "stateMutability": "nonpayable",
      "type": "function"
    },
    {
      "constant": false,
      "inputs": [
        {
          "name": "recipient",
          "type": "address"
        },
        {
          "name": "amount",
          "type": "uint256"
        }
      ],
      "name": "transfer",
      "outputs": [
        {
          "name": "",
          "type": "bool"
        }
      ],
      "payable": false,
      "stateMutability": "nonpayable",
      "type": "function"
    },
    {
      "constant": true,
      "inputs": [
        {
          "name": "account",
          "type": "address"
        }
      ],
      "name": "isMinter",
      "outputs": [
        {
          "name": "",
          "type": "bool"
        }
      ],
      "payable": false,
      "stateMutability": "view",
      "type": "function"
    },
    {
      "constant": false,
      "inputs": [
        {
          "name": "_newGovernor",
          "type": "address"
        }
      ],
      "name": "transferGovernance",
      "outputs": [
        {
          "name": "",
          "type": "bool"
        }
      ],
      "payable": false,
      "stateMutability": "nonpayable",
      "type": "function"
    },
    {
      "constant": true,
      "inputs": [
        {
          "name": "owner",
          "type": "address"
        },
        {
          "name": "spender",
          "type": "address"
        }
      ],
      "name": "allowance",
      "outputs": [
        {
          "name": "",
          "type": "uint256"
        }
      ],
      "payable": false,
      "stateMutability": "view",
      "type": "function"
    },
    {
      "inputs": [
        {
          "name": "_governor",
          "type": "address"
        },
        {
          "name": "_initialSupply",
          "type": "uint256"
        }
      ],
      "payable": false,
      "stateMutability": "nonpayable",
      "type": "constructor"
    },
    {
      "anonymous": false,
      "inputs": [
        {
          "indexed": true,
          "name": "account",
          "type": "address"
        }
      ],
      "name": "MinterAdded",
      "type": "event"
    },
    {
      "anonymous": false,
      "inputs": [
        {
          "indexed": true,
          "name": "account",
          "type": "address"
        }
      ],
      "name": "MinterRemoved",
      "type": "event"
    },
    {
      "anonymous": false,
      "inputs": [
        {
          "indexed": true,
          "name": "from",
          "type": "address"
        },
        {
          "indexed": true,
          "name": "to",
          "type": "address"
        },
        {
          "indexed": false,
          "name": "value",
          "type": "uint256"
        }
      ],
      "name": "Transfer",
      "type": "event"
    },
    {
      "anonymous": false,
      "inputs": [
        {
          "indexed": true,
          "name": "owner",
          "type": "address"
        },
        {
          "indexed": true,
          "name": "spender",
          "type": "address"
        },
        {
          "indexed": false,
          "name": "value",
          "type": "uint256"
        }
      ],
      "name": "Approval",
      "type": "event"
    },
    {
      "anonymous": false,
      "inputs": [
        {
          "indexed": true,
          "name": "_from",
          "type": "address"
        },
        {
          "indexed": true,
          "name": "_to",
          "type": "address"
        }
      ],
      "name": "GovernanceTransferred",
      "type": "event"
    },
    {
      "constant": false,
      "inputs": [
        {
          "name": "_account",
          "type": "address"
        }
      ],
      "name": "removeMinter",
      "outputs": [],
      "payable": false,
      "stateMutability": "nonpayable",
      "type": "function"
    },
    {
      "constant": false,
      "inputs": [
        {
          "name": "_to",
          "type": "address"
        },
        {
          "name": "_amount",
          "type": "uint256"
        },
        {
          "name": "_data",
          "type": "bytes"
        }
      ],
      "name": "transferWithData",
      "outputs": [
        {
          "name": "success",
          "type": "bool"
        }
      ],
      "payable": false,
      "stateMutability": "nonpayable",
      "type": "function"
    }
  ],
  "bytecode": "0x60806040523480156200001157600080fd5b5060405160408062001a0c833981018060405260408110156200003357600080fd5b508051602091820151604080518082018252600b81527f477261706820546f6b656e0000000000000000000000000000000000000000008186019081528251808401909352600383527f47525400000000000000000000000000000000000000000000000000000000009583019590955260008054600160a060020a031916600160a060020a0386161790558051939492939092601291620000d8916001916200055e565b508151620000ee9060029060208501906200055e565b506003805460ff191660ff92909216919091179055506200011a9050336401000000006200015f810204565b6200012e826401000000006200015f810204565b6200014233640100000000620001b1810204565b62000157828264010000000062000203810204565b505062000603565b6200017a600782640100000000620011ef6200032682021704565b604051600160a060020a038216907f6ae172837ea30b801fbfcdd4108aa1d5bf8ff775444fd70256b44e6bf3dfc3f690600090a250565b620001cc6007826401000000006200117e620003cd82021704565b604051600160a060020a038216907fe94479a9f7e1952cc78f2d6baab678adc1b772d936c6583def489e524cb6669290600090a250565b600160a060020a03821615156200027b57604080517f08c379a000000000000000000000000000000000000000000000000000000000815260206004820152601f60248201527f45524332303a206d696e7420746f20746865207a65726f206164647265737300604482015290519081900360640190fd5b60065462000298908264010000000062000e366200045d82021704565b600655600160a060020a038216600090815260046020526040902054620002ce908264010000000062000e366200045d82021704565b600160a060020a03831660008181526004602090815260408083209490945583518581529351929391927fddf252ad1be2c89b69c2b068fc378daa952ba7f163c4a11628f55a4df523b3ef9281900390910190a35050565b6200033b8282640100000000620004d9810204565b15620003a857604080517f08c379a000000000000000000000000000000000000000000000000000000000815260206004820152601f60248201527f526f6c65733a206163636f756e7420616c72656164792068617320726f6c6500604482015290519081900360640190fd5b600160a060020a0316600090815260209190915260409020805460ff19166001179055565b620003e28282640100000000620004d9810204565b15156200043b576040517f08c379a0000000000000000000000000000000000000000000000000000000008152600401808060200182810382526021815260200180620019c96021913960400191505060405180910390fd5b600160a060020a0316600090815260209190915260409020805460ff19169055565b600082820183811015620004d257604080517f08c379a000000000000000000000000000000000000000000000000000000000815260206004820152601b60248201527f536166654d6174683a206164646974696f6e206f766572666c6f770000000000604482015290519081900360640190fd5b9392505050565b6000600160a060020a03821615156200053e576040517f08c379a0000000000000000000000000000000000000000000000000000000008152600401808060200182810382526022815260200180620019ea6022913960400191505060405180910390fd5b50600160a060020a03166000908152602091909152604090205460ff1690565b828054600181600116156101000203166002900490600052602060002090601f016020900481019282601f10620005a157805160ff1916838001178555620005d1565b82800160010185558215620005d1579182015b82811115620005d1578251825591602001919060010190620005b4565b50620005df929150620005e3565b5090565b6200060091905b80821115620005df5760008155600101620005ea565b90565b6113b680620006136000396000f3fe608060405234801561001057600080fd5b5060043610610164576000357c01000000000000000000000000000000000000000000000000000000009004806342966c68116100e557806398650275116100a9578063aa271e1a11610083578063aa271e1a146104f0578063d38bfff414610516578063dd62ed3e1461053c57610164565b80639865027514610490578063a457c2d714610498578063a9059cbb146104c457610164565b806342966c68146103f357806370a082311461041057806379cc67901461043657806395d89b4114610462578063983b2d561461046a57610164565b80632535f7621161012c5780632535f7621461029a5780633092afd514610355578063313ce5671461037d578063395093511461039b57806340c10f19146103c757610164565b806306fdde0314610169578063095ea7b3146101e65780630c340a241461022657806318160ddd1461024a57806323b872dd14610264575b600080fd5b61017161056a565b6040805160208082528351818301528351919283929083019185019080838360005b838110156101ab578181015183820152602001610193565b50505050905090810190601f1680156101d85780820380516001836020036101000a031916815260200191505b509250505060405180910390f35b610212600480360360408110156101fc57600080fd5b50600160a060020a0381351690602001356105ff565b604080519115158252519081900360200190f35b61022e610615565b60408051600160a060020a039092168252519081900360200190f35b610252610624565b60408051918252519081900360200190f35b6102126004803603606081101561027a57600080fd5b50600160a060020a0381358116916020810135909116906040013561062a565b610212600480360360608110156102b057600080fd5b600160a060020a03823516916020810135918101906060810160408201356401000000008111156102e057600080fd5b8201836020820111156102f257600080fd5b8035906020019184600183028401116401000000008311171561031457600080fd5b91908080601f016020809104026020016040519081016040528093929190818152602001838380828437600092019190915250929550610681945050505050565b61037b6004803603602081101561036b57600080fd5b5035600160a060020a03166107af565b005b610385610822565b6040805160ff9092168252519081900360200190f35b610212600480360360408110156103b157600080fd5b50600160a060020a03813516906020013561082b565b610212600480360360408110156103dd57600080fd5b50600160a060020a038135169060200135610867565b61037b6004803603602081101561040957600080fd5b50356108ec565b6102526004803603602081101561042657600080fd5b5035600160a060020a03166108f6565b61037b6004803603604081101561044c57600080fd5b50600160a060020a038135169060200135610911565b61017161091f565b61037b6004803603602081101561048057600080fd5b5035600160a060020a031661097d565b61037b6109ff565b610212600480360360408110156104ae57600080fd5b50600160a060020a038135169060200135610a0a565b610212600480360360408110156104da57600080fd5b50600160a060020a038135169060200135610a46565b6102126004803603602081101561050657600080fd5b5035600160a060020a0316610a53565b6102126004803603602081101561052c57600080fd5b5035600160a060020a0316610a6c565b6102526004803603604081101561055257600080fd5b50600160a060020a0381358116916020013516610b06565b60018054604080516020601f600260001961010087891615020190951694909404938401819004810282018101909252828152606093909290918301828280156105f55780601f106105ca576101008083540402835291602001916105f5565b820191906000526020600020905b8154815290600101906020018083116105d857829003601f168201915b5050505050905090565b600061060c338484610b31565b50600192915050565b600054600160a060020a031681565b60065490565b6000610637848484610c31565b600160a060020a038416600090815260056020908152604080832033808552925290912054610677918691610672908663ffffffff610d8916565b610b31565b5060019392505050565b600061068d8484610a46565b151561069557fe5b83600160a060020a031663d03142633385856040518463ffffffff167c01000000000000000000000000000000000000000000000000000000000281526004018084600160a060020a0316600160a060020a0316815260200183815260200180602001828103825283818151815260200191508051906020019080838360005b8381101561072d578181015183820152602001610715565b50505050905090810190601f16801561075a5780820380516001836020036101000a031916815260200191505b50945050505050602060405180830381600087803b15801561077b57600080fd5b505af115801561078f573d6000803e3d6000fd5b505050506040513d60208110156107a557600080fd5b5051151561067757fe5b600054600160a060020a0316331461081657604080516000805160206112df833981519152815260206004820152601760248201527f4f6e6c7920476f7665726e6f722063616e2063616c6c2e000000000000000000604482015290519081900360640190fd5b61081f81610dee565b50565b60035460ff1690565b336000818152600560209081526040808320600160a060020a0387168452909152812054909161060c918590610672908663ffffffff610e3616565b600061087233610a53565b806108875750600054600160a060020a031633145b15156108e257604080516000805160206112df833981519152815260206004820152601560248201527f4f6e6c79206d696e7465722063616e2063616c6c2e0000000000000000000000604482015290519081900360640190fd5b61060c8383610e9f565b61081f3382610f9b565b600160a060020a031660009081526004602052604090205490565b61091b8282611080565b5050565b60028054604080516020601f60001961010060018716150201909416859004938401819004810282018101909252828152606093909290918301828280156105f55780601f106105ca576101008083540402835291602001916105f5565b61098633610a53565b8061099b5750600054600160a060020a031633145b15156109f657604080516000805160206112df833981519152815260206004820152601560248201527f4f6e6c79206d696e7465722063616e2063616c6c2e0000000000000000000000604482015290519081900360640190fd5b61081f816110c5565b610a0833610dee565b565b336000818152600560209081526040808320600160a060020a0387168452909152812054909161060c918590610672908663ffffffff610d8916565b600061060c338484610c31565b6000610a6660078363ffffffff61110d16565b92915050565b60008054600160a060020a03163314610ad457604080516000805160206112df833981519152815260206004820152601760248201527f4f6e6c7920476f7665726e6f722063616e2063616c6c2e000000000000000000604482015290519081900360640190fd5b5060008054600160a060020a03831673ffffffffffffffffffffffffffffffffffffffff199091161790556001919050565b600160a060020a03918216600090815260056020908152604080832093909416825291909152205490565b600160a060020a0383161515610b80576040516000805160206112df83398151915281526004018080602001828103825260248152602001806113676024913960400191505060405180910390fd5b600160a060020a0382161515610bcf576040516000805160206112df833981519152815260040180806020018281038252602281526020018061129c6022913960400191505060405180910390fd5b600160a060020a03808416600081815260056020908152604080832094871680845294825291829020859055815185815291517f8c5be1e5ebec7d5bd14f71427d1e84f3dd0314c0f7b2291e5b200ac8c7c3b9259281900390910190a3505050565b600160a060020a0383161515610c80576040516000805160206112df83398151915281526004018080602001828103825260258152602001806113426025913960400191505060405180910390fd5b600160a060020a0382161515610ccf576040516000805160206112df83398151915281526004018080602001828103825260238152602001806112796023913960400191505060405180910390fd5b600160a060020a038316600090815260046020526040902054610cf8908263ffffffff610d8916565b600160a060020a038085166000908152600460205260408082209390935590841681522054610d2d908263ffffffff610e3616565b600160a060020a0380841660008181526004602090815260409182902094909455805185815290519193928716927fddf252ad1be2c89b69c2b068fc378daa952ba7f163c4a11628f55a4df523b3ef92918290030190a3505050565b600082821115610de857604080516000805160206112df833981519152815260206004820152601e60248201527f536166654d6174683a207375627472616374696f6e206f766572666c6f770000604482015290519081900360640190fd5b50900390565b610dff60078263ffffffff61117e16565b604051600160a060020a038216907fe94479a9f7e1952cc78f2d6baab678adc1b772d936c6583def489e524cb6669290600090a250565b600082820183811015610e9857604080516000805160206112df833981519152815260206004820152601b60248201527f536166654d6174683a206164646974696f6e206f766572666c6f770000000000604482015290519081900360640190fd5b9392505050565b600160a060020a0382161515610f0457604080516000805160206112df833981519152815260206004820152601f60248201527f45524332303a206d696e7420746f20746865207a65726f206164647265737300604482015290519081900360640190fd5b600654610f17908263ffffffff610e3616565b600655600160a060020a038216600090815260046020526040902054610f43908263ffffffff610e3616565b600160a060020a03831660008181526004602090815260408083209490945583518581529351929391927fddf252ad1be2c89b69c2b068fc378daa952ba7f163c4a11628f55a4df523b3ef9281900390910190a35050565b600160a060020a0382161515610fea576040516000805160206112df83398151915281526004018080602001828103825260218152602001806113216021913960400191505060405180910390fd5b600654610ffd908263ffffffff610d8916565b600655600160a060020a038216600090815260046020526040902054611029908263ffffffff610d8916565b600160a060020a0383166000818152600460209081526040808320949094558351858152935191937fddf252ad1be2c89b69c2b068fc378daa952ba7f163c4a11628f55a4df523b3ef929081900390910190a35050565b61108a8282610f9b565b600160a060020a03821660009081526005602090815260408083203380855292529091205461091b918491610672908563ffffffff610d8916565b6110d660078263ffffffff6111ef16565b604051600160a060020a038216907f6ae172837ea30b801fbfcdd4108aa1d5bf8ff775444fd70256b44e6bf3dfc3f690600090a250565b6000600160a060020a038216151561115e576040516000805160206112df83398151915281526004018080602001828103825260228152602001806112ff6022913960400191505060405180910390fd5b50600160a060020a03166000908152602091909152604090205460ff1690565b611188828261110d565b15156111cd576040516000805160206112df83398151915281526004018080602001828103825260218152602001806112be6021913960400191505060405180910390fd5b600160a060020a0316600090815260209190915260409020805460ff19169055565b6111f9828261110d565b1561125357604080516000805160206112df833981519152815260206004820152601f60248201527f526f6c65733a206163636f756e7420616c72656164792068617320726f6c6500604482015290519081900360640190fd5b600160a060020a0316600090815260209190915260409020805460ff1916600117905556fe45524332303a207472616e7366657220746f20746865207a65726f206164647265737345524332303a20617070726f766520746f20746865207a65726f2061646472657373526f6c65733a206163636f756e7420646f6573206e6f74206861766520726f6c6508c379a000000000000000000000000000000000000000000000000000000000526f6c65733a206163636f756e7420697320746865207a65726f206164647265737345524332303a206275726e2066726f6d20746865207a65726f206164647265737345524332303a207472616e736665722066726f6d20746865207a65726f206164647265737345524332303a20617070726f76652066726f6d20746865207a65726f2061646472657373a165627a7a72305820e5838df2b53eec90983cde3e00ac23e5baebef9fd2d27537106d4043bb2823a60029526f6c65733a206163636f756e7420646f6573206e6f74206861766520726f6c65526f6c65733a206163636f756e7420697320746865207a65726f2061646472657373",
  "source": "pragma solidity ^0.5.2;\n/*\n * @title GraphToken contract\n *\n * @author Bryant Eisenbach\n * @author Reuven Etzion\n *\n * Requirements\n * @req 01 The Graph Token shall implement the ERC20 Token Standard\n * @req 02 The Graph Token shall allow tokens staked in the protocol to be burned\n * @req 03 The Graph Token shall allow tokens to be minted to reward protocol participants\n * @req 04 The Graph Token shall only allow designated accounts the authority to mint\n *         Note: for example, the Payment Channel Hub and Rewards Manager contracts\n * @req 05 The Graph Token shall allow the protocol Governance to modify the accounts that have\n *         minting authority\n * @req 06 The Graph Token shall allow the protocol Governance to mint new tokens\n * @req 07 The Graph Token shall mint an inital distribution of tokens\n * @req 08 The Graph Token shall allow a token holder to stake in the protocol for indexing or\n *         curation markets for a particular Subgraph\n *\n */\n\nimport \"./Governed.sol\";\nimport \"openzeppelin-solidity/contracts/token/ERC20/ERC20Burnable.sol\";\nimport \"openzeppelin-solidity/contracts/token/ERC20/ERC20Mintable.sol\";\nimport \"openzeppelin-solidity/contracts/token/ERC20/ERC20Detailed.sol\";\n\n// @imp 08 target _to of transfer(_to, _amount, _data) in Token must implement this interface\n// NOTE: This is based off of ERC777TokensRecipient interface, but does not fully implement it\ncontract TokenReceiver\n{\n    function tokensReceived(\n        address _from,\n        uint256 _amount,\n        bytes calldata _data\n    )\n        external\n        returns (bool);\n}\n\ncontract GraphToken is\n    Governed,\n    ERC20Detailed, // @imp 01\n    ERC20Burnable, // @imp 01, 02\n    ERC20Mintable  // @imp 01, 03, 04\n{\n    // @imp 05, 06 Override so Governor can set Minters or mint tokens\n    modifier onlyMinter() {\n        require(isMinter(msg.sender) || msg.sender == governor, \"Only minter can call.\");\n        _;\n    }\n\n    /*\n     * @dev Init Graph Token contract\n     * @param _governor <address> Address of the multisig contract as Governor of this contract\n     * @param _initialSupply <uint256> Initial supply of Graph Tokens\n     */\n    constructor (address _governor, uint256 _initialSupply) public\n        ERC20Detailed(\"Graph Token\", \"GRT\", 18)\n        Governed(_governor)\n    {\n        // @imp 06 Governor is initially the sole treasurer\n        _addMinter(_governor);\n        _removeMinter(msg.sender); // Zep automagically does this, so remove...\n\n        // @imp 07 The Governer has the initial supply of tokens\n        _mint(_governor, _initialSupply); // Deployment address holds all tokens\n\n    }\n\n    /**\n     * @dev Method to expose `removeToken` while using the `onlyGovernor` modifier\n     * @param _account <address> Address of account to remove from `_minters`\n     */\n    function removeMinter(address _account) public onlyGovernance {\n        _removeMinter(_account);\n    }\n\n    /*\n     * @dev Transfer Graph tokens to the Staking interface\n     * @notice Interacts with Staking contract\n     * @notice Overriding `transfer` was not working with web3.js so we renamed to `transferWithData`\n     */\n    function transferWithData(\n        address _to,\n        uint256 _amount,\n        bytes memory _data\n    )\n        public\n        returns (bool success)\n    {\n        assert(super.transfer(_to, _amount)); // Handle basic transfer functionality\n        // @imp 08 Have staking contract receive the token and handle the data\n        assert(TokenReceiver(_to).tokensReceived(msg.sender, _amount, _data));\n        success = true;\n    }\n}\n",
  "sourcePath": "/Users/davidkajpust/coding-no-icloud-backup/thegraph/dave/contracts/contracts/GraphToken.sol",
  "compiler": {
    "name": "solc",
    "version": "0.5.2+commit.1df8f40c.Emscripten.clang"
  },
  "schemaVersion": "3.0.10",
  "updatedAt": "2019-07-31T20:30:17.067Z",
  "devdoc": {
    "methods": {
      "allowance(address,address)": {
        "details": "See `IERC20.allowance`."
      },
      "approve(address,uint256)": {
        "details": "See `IERC20.approve`.     * Requirements:     * - `spender` cannot be the zero address."
      },
      "balanceOf(address)": {
        "details": "See `IERC20.balanceOf`."
      },
      "burn(uint256)": {
        "details": "Destoys `amount` tokens from the caller.     * See `ERC20._burn`."
      },
      "burnFrom(address,uint256)": {
        "details": "See `ERC20._burnFrom`."
      },
      "decimals()": {
        "details": "Returns the number of decimals used to get its user representation. For example, if `decimals` equals `2`, a balance of `505` tokens should be displayed to a user as `5,05` (`505 / 10 ** 2`).     * Tokens usually opt for a value of 18, imitating the relationship between Ether and Wei.     * > Note that this information is only used for _display_ purposes: it in no way affects any of the arithmetic of the contract, including `IERC20.balanceOf` and `IERC20.transfer`."
      },
      "decreaseAllowance(address,uint256)": {
        "details": "Atomically decreases the allowance granted to `spender` by the caller.     * This is an alternative to `approve` that can be used as a mitigation for problems described in `IERC20.approve`.     * Emits an `Approval` event indicating the updated allowance.     * Requirements:     * - `spender` cannot be the zero address. - `spender` must have allowance for the caller of at least `subtractedValue`."
      },
      "increaseAllowance(address,uint256)": {
        "details": "Atomically increases the allowance granted to `spender` by the caller.     * This is an alternative to `approve` that can be used as a mitigation for problems described in `IERC20.approve`.     * Emits an `Approval` event indicating the updated allowance.     * Requirements:     * - `spender` cannot be the zero address."
      },
      "mint(address,uint256)": {
        "details": "See `ERC20._mint`.     * Requirements:     * - the caller must have the `MinterRole`."
      },
      "name()": {
        "details": "Returns the name of the token."
      },
      "removeMinter(address)": {
        "details": "Method to expose `removeToken` while using the `onlyGovernor` modifier",
        "params": {
          "_account": "<address> Address of account to remove from `_minters`"
        }
      },
      "symbol()": {
        "details": "Returns the symbol of the token, usually a shorter version of the name."
      },
      "totalSupply()": {
        "details": "See `IERC20.totalSupply`."
      },
      "transfer(address,uint256)": {
        "details": "See `IERC20.transfer`.     * Requirements:     * - `recipient` cannot be the zero address. - the caller must have a balance of at least `amount`."
      },
      "transferFrom(address,address,uint256)": {
        "details": "See `IERC20.transferFrom`.     * Emits an `Approval` event indicating the updated allowance. This is not required by the EIP. See the note at the beginning of `ERC20`;     * Requirements: - `sender` and `recipient` cannot be the zero address. - `sender` must have a balance of at least `value`. - the caller must have allowance for `sender`'s tokens of at least `amount`."
      },
      "transferGovernance(address)": {
        "details": "The current `governor` can assign a new `governor`",
        "params": {
          "_newGovernor": "<address> Address of new `governor`"
        }
      }
    }
  },
  "userdoc": {
    "methods": {}
  }
}