{
  "contractName": "RewardsManager",
  "abi": [
    {
      "constant": true,
      "inputs": [],
      "name": "curatorRewardRate",
      "outputs": [
        {
          "name": "",
          "type": "uint256"
        }
      ],
      "payable": false,
      "stateMutability": "view",
      "type": "function"
    },
    {
      "constant": true,
      "inputs": [],
      "name": "governor",
      "outputs": [
        {
          "name": "",
          "type": "address"
        }
      ],
      "payable": false,
      "stateMutability": "view",
      "type": "function"
    },
    {
      "constant": true,
      "inputs": [],
      "name": "targetParticipationRate",
      "outputs": [
        {
          "name": "",
          "type": "uint256"
        }
      ],
      "payable": false,
      "stateMutability": "view",
      "type": "function"
    },
    {
      "constant": true,
      "inputs": [],
      "name": "yearlyInflationRate",
      "outputs": [
        {
          "name": "",
          "type": "uint256"
        }
      ],
      "payable": false,
      "stateMutability": "view",
      "type": "function"
    },
    {
      "constant": true,
      "inputs": [
        {
          "name": "",
          "type": "bytes32"
        }
      ],
      "name": "indexChainQueryAmounts",
      "outputs": [
        {
          "name": "",
          "type": "uint256"
        }
      ],
      "payable": false,
      "stateMutability": "view",
      "type": "function"
    },
    {
      "constant": false,
      "inputs": [
        {
          "name": "_newGovernor",
          "type": "address"
        }
      ],
      "name": "transferGovernance",
      "outputs": [
        {
          "name": "",
          "type": "bool"
        }
      ],
      "payable": false,
      "stateMutability": "nonpayable",
      "type": "function"
    },
    {
      "inputs": [
        {
          "name": "_governor",
          "type": "address"
        }
      ],
      "payable": false,
      "stateMutability": "nonpayable",
      "type": "constructor"
    },
    {
      "anonymous": false,
      "inputs": [
        {
          "indexed": true,
          "name": "_from",
          "type": "address"
        },
        {
          "indexed": true,
          "name": "_to",
          "type": "address"
        }
      ],
      "name": "GovernanceTransferred",
      "type": "event"
    },
    {
      "constant": false,
      "inputs": [
        {
          "name": "_newCuratorRewardRate",
          "type": "uint256"
        }
      ],
      "name": "updateCuratorRewardRate",
      "outputs": [
        {
          "name": "success",
          "type": "bool"
        }
      ],
      "payable": false,
      "stateMutability": "nonpayable",
      "type": "function"
    },
    {
      "constant": false,
      "inputs": [
        {
          "name": "_newTargetParticipationRate",
          "type": "uint256"
        }
      ],
      "name": "updateTargetParticipationRate",
      "outputs": [
        {
          "name": "success",
          "type": "bool"
        }
      ],
      "payable": false,
      "stateMutability": "nonpayable",
      "type": "function"
    },
    {
      "constant": false,
      "inputs": [
        {
          "name": "_newYearlyInflationRate",
          "type": "uint256"
        }
      ],
      "name": "updateYearlyInflationRate",
      "outputs": [
        {
          "name": "success",
          "type": "bool"
        }
      ],
      "payable": false,
      "stateMutability": "nonpayable",
      "type": "function"
    },
    {
      "constant": false,
      "inputs": [
        {
          "name": "_account",
          "type": "address"
        },
        {
          "name": "_value",
          "type": "uint256"
        }
      ],
      "name": "mintRewardTokens",
      "outputs": [
        {
          "name": "success",
          "type": "bool"
        }
      ],
      "payable": false,
      "stateMutability": "nonpayable",
      "type": "function"
    },
    {
      "constant": false,
      "inputs": [
        {
          "name": "_validatorId",
          "type": "bytes32"
        },
        {
          "name": "_addToStake",
          "type": "bool"
        }
      ],
      "name": "claimRewards",
      "outputs": [
        {
          "name": "rewaredAmount",
          "type": "uint256"
        }
      ],
      "payable": false,
      "stateMutability": "nonpayable",
      "type": "function"
    }
  ],
  "bytecode": "0x6080604052620186a060035534801561001757600080fd5b5060405160208061043e8339810180604052602081101561003757600080fd5b505160008054600160a060020a03909216600160a060020a03199092169190911790556103d5806100696000396000f3fe608060405234801561001057600080fd5b50600436106100d6576000357c010000000000000000000000000000000000000000000000000000000090048063ab43f0841161009e578063c3b4fbdf11610078578063c3b4fbdf14610126578063d38bfff4146101bd578063fd68b882146101f0576100d6565b8063ab43f08414610126578063acedde1014610198578063c2ae5f4a146101a0576100d6565b80630b2a32ce146100db5780630c340a24146100f55780634a0c5556146101265780636eee2dad146101575780638e2f311c14610190575b600080fd5b6100e3610215565b60408051918252519081900360200190f35b6100fd61021b565b6040805173ffffffffffffffffffffffffffffffffffffffff9092168252519081900360200190f35b6101436004803603602081101561013c57600080fd5b5035610237565b604080519115158252519081900360200190f35b6101436004803603604081101561016d57600080fd5b5073ffffffffffffffffffffffffffffffffffffffff8135169060200135610237565b6100e36102be565b6100e36102c4565b6100e3600480360360208110156101b657600080fd5b50356102ca565b610143600480360360208110156101d357600080fd5b503573ffffffffffffffffffffffffffffffffffffffff166102dc565b6100e36004803603604081101561020657600080fd5b508035906020013515156103a2565b60015481565b60005473ffffffffffffffffffffffffffffffffffffffff1681565b6000805473ffffffffffffffffffffffffffffffffffffffff1633146100d657604080517f08c379a000000000000000000000000000000000000000000000000000000000815260206004820152601760248201527f4f6e6c7920476f7665726e6f722063616e2063616c6c2e000000000000000000604482015290519081900360640190fd5b60025481565b60035481565b60046020526000908152604090205481565b6000805473ffffffffffffffffffffffffffffffffffffffff16331461036357604080517f08c379a000000000000000000000000000000000000000000000000000000000815260206004820152601760248201527f4f6e6c7920476f7665726e6f722063616e2063616c6c2e000000000000000000604482015290519081900360640190fd5b506000805473ffffffffffffffffffffffffffffffffffffffff831673ffffffffffffffffffffffffffffffffffffffff199091161790556001919050565b6000806000fdfea165627a7a72305820171a14815817a0b11b9279161e0dc586f1c3f1b0a6784c2ef62901304bd5b8630029",
  "source": "pragma solidity ^0.5.2;\n\nimport \"./Governed.sol\";\n\ncontract RewardsManager is Governed {\n\n    /*\n    * @title Graph Protocol Reward Manager contract\n    *\n    * @author Bryant Eisenbach\n    * @author Reuven Etzion\n    *\n    * @notice Contract Specification:\n    *\n    * The total monetary inflation rate of Graph Tokens, over a given inflation period\n    * (more on this later), is the sum of its two constituent components:\n    * inflationRate = curatorRewardRate + participationRewardRate\n    *\n    * As indicated in the formula above, inflation is used to reward curation of datasets\n    * and participation in the network.\n    *\n    * Participation Adjusted Inflation - In order to encourage Graph Token holders to\n    * participate in the network, the protocol implements a participation-adjusted inflation reward.\n    *\n    * Curator Inflation Reward - The curationRewardRate is defined as a percentage of the total\n    * Graph Token supply, and is set via governance. As with the participation reward, it is paid\n    * via inflation.\n    *\n    * Requirements (\"Reward Manager\" contract):\n    * req 01 Has the ability to mint tokens according to the reward rules specified in mechanism\n    *   design of technical specification.\n    * req 02 Governance contract can update parameters { curatorRewardRate, targetParticipationRate, yearlyInflationRate }\n    * req 03 claimRewards function\n    * req 04 uint256 for yearly inflation rate\n    * req 05 a mapping that records the usage in queries of each index chain ,\n    * which would look like mapping( indexChainID bytes32 -> queryAmount uint256)\n    */\n\n\n    /* STATE VARIABLES */\n    // Percentage of the total Graph Token supply\n    // @dev Parts per million. (Allows for 4 decimal points, 999,999 = 99.9999%)\n    uint256 public curatorRewardRate;\n\n    // Targeted participitation reward rate\n    // @dev Parts per million. (Allows for 4 decimal points, 999,999 = 99.9999%)\n    uint256 public targetParticipationRate;\n\n    // Yearly Inflation Rate\n    // @dev Parts per million. (Allows for 4 decimal points, 999,999 = 99.9999%)\n    uint256 public yearlyInflationRate = 100000; // 10%\n\n    // Mapping of indexChainID to queryAmount\n    mapping (bytes32 => uint256) public indexChainQueryAmounts;\n\n    /**\n     * @dev Reward Manager Contract Constructor\n     * @param _governor <address> - Address of the multisig contract as Governor of this contract\n     */\n    constructor (address _governor) public Governed (_governor) {}\n\n    /* Graph Protocol Functions */\n    /**\n     * @dev Governance contract owns this contract and can update curatorRewardRate\n     * @param _newCuratorRewardRate <uint256> - New curation reward rate\n     */\n    function updateCuratorRewardRate (\n        uint256 _newCuratorRewardRate\n    ) public onlyGovernance returns (bool success)\n    {\n        revert();\n    }\n\n    /**\n     * @dev Governance contract owns this contract and can update targetParticipationRate\n     * @param _newTargetParticipationRate <uint256> - New curation reward rate\n     */\n    function updateTargetParticipationRate (\n        uint256 _newTargetParticipationRate\n    ) public onlyGovernance returns (bool success)\n    {\n        revert();\n    }\n\n    /**\n     * @dev Governance contract owns this contract and can update targetParticipationRate\n     * @param _newYearlyInflationRate <uint256> - New yearly inflation rate in parts per million. (999999 = 99.9999%)\n     */\n    function updateYearlyInflationRate (\n        uint256 _newYearlyInflationRate\n    ) public onlyGovernance returns (bool success)\n    {\n        revert();\n    }\n\n    /**\n     * @dev Governance contract owns this contract and can mint tokens based on reward calculations\n     * @dev The RewardManger contract must be added as a treasurer in the GraphToken contract\n     * req Calculate rewards based on local variables and call the mint function in GraphToken\n     * @param _account <address> - The account that will receive the created tokens.\n     * @param _value <uint256> - The amount that will be created.\n     */\n    function mintRewardTokens (\n        address _account,\n        uint256 _value\n    ) public onlyGovernance returns (bool success)\n    {\n        revert();\n    }\n\n    /**\n     * @dev Validators can claim rewards or add them to their stake\n     * @param _validatorId <bytes32> - ID of the validator claiming rewards\n     * @param _addToStake <bool> - Send the rewards back to the validator's stake\n     */\n    function claimRewards (\n        bytes32 _validatorId,\n        bool _addToStake\n    ) public returns (uint256 rewaredAmount)\n    {\n        revert();\n    }\n\n}\n",
  "sourcePath": "/Users/davidkajpust/coding-no-icloud-backup/thegraph/research/soho-token-contracts/contracts/contracts/RewardsManager.sol",
  "compiler": {
    "name": "solc",
    "version": "0.5.2+commit.1df8f40c.Emscripten.clang"
  },
  "schemaVersion": "3.0.10",
  "updatedAt": "2019-07-30T18:40:14.326Z",
  "devdoc": {
    "methods": {
      "claimRewards(bytes32,bool)": {
        "details": "Validators can claim rewards or add them to their stake",
        "params": {
          "_addToStake": "<bool> - Send the rewards back to the validator's stake",
          "_validatorId": "<bytes32> - ID of the validator claiming rewards"
        }
      },
      "constructor": {
        "details": "Reward Manager Contract Constructor",
        "params": {
          "_governor": "<address> - Address of the multisig contract as Governor of this contract"
        }
      },
      "mintRewardTokens(address,uint256)": {
        "details": "Governance contract owns this contract and can mint tokens based on reward calculationsThe RewardManger contract must be added as a treasurer in the GraphToken contract req Calculate rewards based on local variables and call the mint function in GraphToken",
        "params": {
          "_account": "<address> - The account that will receive the created tokens.",
          "_value": "<uint256> - The amount that will be created."
        }
      },
      "transferGovernance(address)": {
        "details": "The current `governor` can assign a new `governor`",
        "params": {
          "_newGovernor": "<address> Address of new `governor`"
        }
      },
      "updateCuratorRewardRate(uint256)": {
        "details": "Governance contract owns this contract and can update curatorRewardRate",
        "params": {
          "_newCuratorRewardRate": "<uint256> - New curation reward rate"
        }
      },
      "updateTargetParticipationRate(uint256)": {
        "details": "Governance contract owns this contract and can update targetParticipationRate",
        "params": {
          "_newTargetParticipationRate": "<uint256> - New curation reward rate"
        }
      },
      "updateYearlyInflationRate(uint256)": {
        "details": "Governance contract owns this contract and can update targetParticipationRate",
        "params": {
          "_newYearlyInflationRate": "<uint256> - New yearly inflation rate in parts per million. (999999 = 99.9999%)"
        }
      }
    }
  },
  "userdoc": {
    "methods": {}
  }
}