{
  "contractName": "ServiceRegistry",
  "abi": [
    {
      "constant": true,
      "inputs": [],
      "name": "governor",
      "outputs": [
        {
          "name": "",
          "type": "address"
        }
      ],
      "payable": false,
      "stateMutability": "view",
      "type": "function"
    },
    {
      "constant": false,
      "inputs": [
        {
          "name": "_newGovernor",
          "type": "address"
        }
      ],
      "name": "transferGovernance",
      "outputs": [
        {
          "name": "",
          "type": "bool"
        }
      ],
      "payable": false,
      "stateMutability": "nonpayable",
      "type": "function"
    },
    {
      "constant": true,
      "inputs": [
        {
          "name": "",
          "type": "address"
        }
      ],
      "name": "urls",
      "outputs": [
        {
          "name": "",
          "type": "bytes"
        }
      ],
      "payable": false,
      "stateMutability": "view",
      "type": "function"
    },
    {
      "inputs": [
        {
          "name": "_governor",
          "type": "address"
        }
      ],
      "payable": false,
      "stateMutability": "nonpayable",
      "type": "constructor"
    },
    {
      "anonymous": false,
      "inputs": [
        {
          "indexed": true,
          "name": "serviceProvider",
          "type": "address"
        },
        {
          "indexed": false,
          "name": "url",
          "type": "bytes"
        }
      ],
      "name": "ServiceUrlSet",
      "type": "event"
    },
    {
      "anonymous": false,
      "inputs": [
        {
          "indexed": true,
          "name": "_from",
          "type": "address"
        },
        {
          "indexed": true,
          "name": "_to",
          "type": "address"
        }
      ],
      "name": "GovernanceTransferred",
      "type": "event"
    },
    {
      "constant": false,
      "inputs": [
        {
          "name": "_serviceProvider",
          "type": "address"
        },
        {
          "name": "_url",
          "type": "bytes"
        }
      ],
      "name": "setUrl",
      "outputs": [],
      "payable": false,
      "stateMutability": "nonpayable",
      "type": "function"
    }
  ],
  "bytecode": "0x608060405234801561001057600080fd5b506040516020806105dc8339810180604052602081101561003057600080fd5b505160008054600160a060020a03909216600160a060020a031990921691909117905561057a806100626000396000f3fe608060405234801561001057600080fd5b5060043610610068577c010000000000000000000000000000000000000000000000000000000060003504630c340a24811461006d5780630e9c37351461009e578063d38bfff41461012d578063d888e61414610174575b600080fd5b61007561021c565b6040805173ffffffffffffffffffffffffffffffffffffffff9092168252519081900360200190f35b61012b600480360360408110156100b457600080fd5b73ffffffffffffffffffffffffffffffffffffffff82351691908101906040810160208201356401000000008111156100ec57600080fd5b8201836020820111156100fe57600080fd5b8035906020019184600183028401116401000000008311171561012057600080fd5b509092509050610238565b005b6101606004803603602081101561014357600080fd5b503573ffffffffffffffffffffffffffffffffffffffff16610353565b604080519115158252519081900360200190f35b6101a76004803603602081101561018a57600080fd5b503573ffffffffffffffffffffffffffffffffffffffff16610419565b6040805160208082528351818301528351919283929083019185019080838360005b838110156101e15781810151838201526020016101c9565b50505050905090810190601f16801561020e5780820380516001836020036101000a031916815260200191505b509250505060405180910390f35b60005473ffffffffffffffffffffffffffffffffffffffff1681565b3373ffffffffffffffffffffffffffffffffffffffff8416146102bc57604080517f08c379a000000000000000000000000000000000000000000000000000000000815260206004820152601460248201527f6d73672e73656e646572206d7573742063616c6c000000000000000000000000604482015290519081900360640190fd5b3360009081526001602052604090206102d69083836104b3565b508273ffffffffffffffffffffffffffffffffffffffff167f856b63632884882582cfa69c8334c7897e0f8d9e364feb06cf59e9d4e286f81f838360405180806020018281038252848482818152602001925080828437600083820152604051601f909101601f19169092018290039550909350505050a2505050565b6000805473ffffffffffffffffffffffffffffffffffffffff1633146103da57604080517f08c379a000000000000000000000000000000000000000000000000000000000815260206004820152601760248201527f4f6e6c7920476f7665726e6f722063616e2063616c6c2e000000000000000000604482015290519081900360640190fd5b506000805473ffffffffffffffffffffffffffffffffffffffff831673ffffffffffffffffffffffffffffffffffffffff199091161790556001919050565b60016020818152600092835260409283902080548451600294821615610100026000190190911693909304601f81018390048302840183019094528383529192908301828280156104ab5780601f10610480576101008083540402835291602001916104ab565b820191906000526020600020905b81548152906001019060200180831161048e57829003601f168201915b505050505081565b828054600181600116156101000203166002900490600052602060002090601f016020900481019282601f106104f45782800160ff19823516178555610521565b82800160010185558215610521579182015b82811115610521578235825591602001919060010190610506565b5061052d929150610531565b5090565b61054b91905b8082111561052d5760008155600101610537565b9056fea165627a7a723058205d04bb57c2b21936cd6b88570457036322e0645626677e7b2de232bbabea3d600029",
  "source": "pragma solidity ^0.5.2;\n\nimport \"./Governed.sol\";\n\ncontract ServiceRegistry is Governed {\n\n    /*\n    * @title Graph Protocol Service Registry contract\n    *\n    * @author Bryant Eisenbach\n    * @author Reuven Etzion\n    *\n    * @notice Contract Specification:\n    *\n    * Requirements (\"Service Registry\" contract):\n    * req 01 Maps Ethereum Addresses to URLs\n    * req 02 No other contracts depend on this, rather is consumed by users of The Graph.\n    * ...\n    * @question - Who sets registeredUrls? Staking? (need interface)\n    */\n\n    /* EVENTS */\n    event ServiceUrlSet (address indexed serviceProvider, bytes url);\n\n    /* Contract Constructor */\n    /* @param _governor <address> - Address of the multisig contract as Governor of this contract */\n    constructor (address _governor) public Governed(_governor) {}\n\n    /* STATE VARIABLES */\n    // Storage of a hashed top level domain to owners\n    mapping(address => bytes) public urls;\n\n    /* Graph Protocol Functions */\n\n    /*\n     * @notice Set service provider url from their address\n     * @dev Only msg.sender may do this\n     *\n     * @param _serviceProvider <address> - Address of the service provider\n     * @param _url <bytes> - URL of the service provider\n     */\n    function setUrl(address _serviceProvider, bytes calldata _url) external {\n        require(msg.sender == _serviceProvider, \"msg.sender must call\");\n        urls[msg.sender] = _url;\n        emit ServiceUrlSet(_serviceProvider, _url);\n    }\n}\n",
  "sourcePath": "/Users/davidkajpust/coding-no-icloud-backup/thegraph/dave/contracts/contracts/ServiceRegistry.sol",
  "compiler": {
    "name": "solc",
    "version": "0.5.2+commit.1df8f40c.Emscripten.clang"
  },
  "schemaVersion": "3.0.10",
  "updatedAt": "2019-07-31T14:21:55.236Z",
  "devdoc": {
    "methods": {
      "transferGovernance(address)": {
        "details": "The current `governor` can assign a new `governor`",
        "params": {
          "_newGovernor": "<address> Address of new `governor`"
        }
      }
    }
  },
  "userdoc": {
    "methods": {}
  }
}