{
  "contractName": "Staking",
  "abi": [
    {
      "constant": true,
      "inputs": [],
      "name": "minimumCurationStakingAmount",
      "outputs": [
        {
          "name": "",
          "type": "uint256"
        }
      ],
      "payable": false,
      "stateMutability": "view",
      "type": "function"
    },
    {
      "constant": true,
      "inputs": [],
      "name": "governor",
      "outputs": [
        {
          "name": "",
          "type": "address"
        }
      ],
      "payable": false,
      "stateMutability": "view",
      "type": "function"
    },
    {
      "constant": true,
      "inputs": [],
      "name": "maximumIndexers",
      "outputs": [
        {
          "name": "",
          "type": "uint256"
        }
      ],
      "payable": false,
      "stateMutability": "view",
      "type": "function"
    },
    {
      "constant": true,
      "inputs": [],
      "name": "graphSubgraphID",
      "outputs": [
        {
          "name": "",
          "type": "bytes32"
        }
      ],
      "payable": false,
      "stateMutability": "view",
      "type": "function"
    },
    {
      "constant": true,
      "inputs": [
        {
          "name": "",
          "type": "bytes32"
        }
      ],
      "name": "subgraphs",
      "outputs": [
        {
          "name": "reserveRatio",
          "type": "uint256"
        },
        {
          "name": "totalCurationStake",
          "type": "uint256"
        },
        {
          "name": "totalCurationShares",
          "type": "uint256"
        },
        {
          "name": "totalIndexingStake",
          "type": "uint256"
        },
        {
          "name": "totalIndexers",
          "type": "uint256"
        }
      ],
      "payable": false,
      "stateMutability": "view",
      "type": "function"
    },
    {
      "constant": true,
      "inputs": [],
      "name": "version",
      "outputs": [
        {
          "name": "",
          "type": "string"
        }
      ],
      "payable": false,
      "stateMutability": "view",
      "type": "function"
    },
    {
      "constant": true,
      "inputs": [
        {
          "name": "",
          "type": "bytes32"
        },
        {
          "name": "",
          "type": "address"
        }
      ],
      "name": "indexingNodes",
      "outputs": [
        {
          "name": "indexer",
          "type": "address"
        },
        {
          "name": "amountStaked",
          "type": "uint256"
        },
        {
          "name": "feesAccrued",
          "type": "uint256"
        },
        {
          "name": "logoutStarted",
          "type": "uint256"
        }
      ],
      "payable": false,
      "stateMutability": "view",
      "type": "function"
    },
    {
      "constant": true,
      "inputs": [],
      "name": "arbitrator",
      "outputs": [
        {
          "name": "",
          "type": "address"
        }
      ],
      "payable": false,
      "stateMutability": "view",
      "type": "function"
    },
    {
      "constant": true,
      "inputs": [
        {
          "name": "",
          "type": "uint256"
        }
      ],
      "name": "graphIndexingNodes",
      "outputs": [
        {
          "name": "indexer",
          "type": "address"
        },
        {
          "name": "amountStaked",
          "type": "uint256"
        },
        {
          "name": "feesAccrued",
          "type": "uint256"
        },
        {
          "name": "logoutStarted",
          "type": "uint256"
        }
      ],
      "payable": false,
      "stateMutability": "view",
      "type": "function"
    },
    {
      "constant": true,
      "inputs": [],
      "name": "minimumIndexingStakingAmount",
      "outputs": [
        {
          "name": "",
          "type": "uint256"
        }
      ],
      "payable": false,
      "stateMutability": "view",
      "type": "function"
    },
    {
      "constant": true,
      "inputs": [
        {
          "name": "",
          "type": "bytes32"
        },
        {
          "name": "",
          "type": "address"
        }
      ],
      "name": "curators",
      "outputs": [
        {
          "name": "amountStaked",
          "type": "uint256"
        },
        {
          "name": "subgraphShares",
          "type": "uint256"
        }
      ],
      "payable": false,
      "stateMutability": "view",
      "type": "function"
    },
    {
      "constant": true,
      "inputs": [],
      "name": "thawingPeriod",
      "outputs": [
        {
          "name": "",
          "type": "uint256"
        }
      ],
      "payable": false,
      "stateMutability": "view",
      "type": "function"
    },
    {
      "constant": false,
      "inputs": [
        {
          "name": "_newGovernor",
          "type": "address"
        }
      ],
      "name": "transferGovernance",
      "outputs": [
        {
          "name": "",
          "type": "bool"
        }
      ],
      "payable": false,
      "stateMutability": "nonpayable",
      "type": "function"
    },
    {
      "constant": true,
      "inputs": [],
      "name": "defaultReserveRatio",
      "outputs": [
        {
          "name": "",
          "type": "uint256"
        }
      ],
      "payable": false,
      "stateMutability": "view",
      "type": "function"
    },
    {
      "constant": true,
      "inputs": [],
      "name": "token",
      "outputs": [
        {
          "name": "",
          "type": "address"
        }
      ],
      "payable": false,
      "stateMutability": "view",
      "type": "function"
    },
    {
      "constant": true,
      "inputs": [],
      "name": "slashingPercent",
      "outputs": [
        {
          "name": "",
          "type": "uint256"
        }
      ],
      "payable": false,
      "stateMutability": "view",
      "type": "function"
    },
    {
      "inputs": [
        {
          "name": "_governor",
          "type": "address"
        },
        {
          "name": "_minimumCurationStakingAmount",
          "type": "uint256"
        },
        {
          "name": "_defaultReserveRatio",
          "type": "uint256"
        },
        {
          "name": "_minimumIndexingStakingAmount",
          "type": "uint256"
        },
        {
          "name": "_maximumIndexers",
          "type": "uint256"
        },
        {
          "name": "_slashingPercent",
          "type": "uint256"
        },
        {
          "name": "_thawingPeriod",
          "type": "uint256"
        },
        {
          "name": "_token",
          "type": "address"
        }
      ],
      "payable": false,
      "stateMutability": "nonpayable",
      "type": "constructor"
    },
    {
      "anonymous": false,
      "inputs": [
        {
          "indexed": true,
          "name": "staker",
          "type": "address"
        },
        {
          "indexed": false,
          "name": "amountStaked",
          "type": "uint256"
        },
        {
          "indexed": false,
          "name": "subgraphID",
          "type": "bytes32"
        },
        {
          "indexed": false,
          "name": "curatorShares",
          "type": "uint256"
        },
        {
          "indexed": false,
          "name": "subgraphTotalCurationShares",
          "type": "uint256"
        },
        {
          "indexed": false,
          "name": "subgraphTotalCurationStake",
          "type": "uint256"
        }
      ],
      "name": "CuratorStaked",
      "type": "event"
    },
    {
      "anonymous": false,
      "inputs": [
        {
          "indexed": true,
          "name": "staker",
          "type": "address"
        },
        {
          "indexed": false,
          "name": "subgraphID",
          "type": "bytes32"
        },
        {
          "indexed": false,
          "name": "subgraphTotalCurationShares",
          "type": "uint256"
        },
        {
          "indexed": false,
          "name": "subgraphTotalCurationStake",
          "type": "uint256"
        }
      ],
      "name": "CuratorLogout",
      "type": "event"
    },
    {
      "anonymous": false,
      "inputs": [
        {
          "indexed": true,
          "name": "staker",
          "type": "address"
        },
        {
          "indexed": false,
          "name": "amountStaked",
          "type": "uint256"
        },
        {
          "indexed": false,
          "name": "subgraphID",
          "type": "bytes32"
        },
        {
          "indexed": false,
          "name": "subgraphTotalIndexingStake",
          "type": "uint256"
        }
      ],
      "name": "IndexingNodeStaked",
      "type": "event"
    },
    {
      "anonymous": false,
      "inputs": [
        {
          "indexed": true,
          "name": "staker",
          "type": "address"
        },
        {
          "indexed": false,
          "name": "subgraphID",
          "type": "bytes32"
        }
      ],
      "name": "IndexingNodeBeginLogout",
      "type": "event"
    },
    {
      "anonymous": false,
      "inputs": [
        {
          "indexed": true,
          "name": "staker",
          "type": "address"
        },
        {
          "indexed": false,
          "name": "subgraphID",
          "type": "bytes32"
        },
        {
          "indexed": false,
          "name": "subgraphTotalIndexingStake",
          "type": "uint256"
        }
      ],
      "name": "IndexingNodeFinalizeLogout",
      "type": "event"
    },
    {
      "anonymous": false,
      "inputs": [
        {
          "indexed": true,
          "name": "_subgraphId",
          "type": "bytes32"
        },
        {
          "indexed": true,
          "name": "_indexingNode",
          "type": "address"
        },
        {
          "indexed": true,
          "name": "_fisherman",
          "type": "address"
        },
        {
          "indexed": false,
          "name": "_disputeId",
          "type": "bytes32"
        },
        {
          "indexed": false,
          "name": "_attestation",
          "type": "bytes"
        }
      ],
      "name": "DisputeCreated",
      "type": "event"
    },
    {
      "anonymous": false,
      "inputs": [
        {
          "indexed": true,
          "name": "_disputeId",
          "type": "bytes32"
        },
        {
          "indexed": true,
          "name": "_subgraphId",
          "type": "bytes32"
        },
        {
          "indexed": true,
          "name": "_indexingNode",
          "type": "address"
        },
        {
          "indexed": false,
          "name": "_amount",
          "type": "uint256"
        }
      ],
      "name": "DisputeAccepted",
      "type": "event"
    },
    {
      "anonymous": false,
      "inputs": [
        {
          "indexed": true,
          "name": "_disputeId",
          "type": "bytes32"
        },
        {
          "indexed": true,
          "name": "_subgraphId",
          "type": "bytes32"
        },
        {
          "indexed": true,
          "name": "_fisherman",
          "type": "address"
        },
        {
          "indexed": false,
          "name": "_amount",
          "type": "uint256"
        }
      ],
      "name": "DisputeRejected",
      "type": "event"
    },
    {
      "anonymous": false,
      "inputs": [
        {
          "indexed": true,
          "name": "_from",
          "type": "address"
        },
        {
          "indexed": true,
          "name": "_to",
          "type": "address"
        }
      ],
      "name": "GovernanceTransferred",
      "type": "event"
    },
    {
      "constant": false,
      "inputs": [
        {
          "name": "_minimumCurationStakingAmount",
          "type": "uint256"
        }
      ],
      "name": "setMinimumCurationStakingAmount",
      "outputs": [
        {
          "name": "success",
          "type": "bool"
        }
      ],
      "payable": false,
      "stateMutability": "nonpayable",
      "type": "function"
    },
    {
      "constant": false,
      "inputs": [
        {
          "name": "_defaultReserveRatio",
          "type": "uint256"
        }
      ],
      "name": "updateDefaultReserveRatio",
      "outputs": [
        {
          "name": "success",
          "type": "bool"
        }
      ],
      "payable": false,
      "stateMutability": "nonpayable",
      "type": "function"
    },
    {
      "constant": false,
      "inputs": [
        {
          "name": "_minimumIndexingStakingAmount",
          "type": "uint256"
        }
      ],
      "name": "setMinimumIndexingStakingAmount",
      "outputs": [
        {
          "name": "success",
          "type": "bool"
        }
      ],
      "payable": false,
      "stateMutability": "nonpayable",
      "type": "function"
    },
    {
      "constant": false,
      "inputs": [
        {
          "name": "_maximumIndexers",
          "type": "uint256"
        }
      ],
      "name": "setMaximumIndexers",
      "outputs": [
        {
          "name": "success",
          "type": "bool"
        }
      ],
      "payable": false,
      "stateMutability": "nonpayable",
      "type": "function"
    },
    {
      "constant": false,
      "inputs": [
        {
          "name": "_slashingPercent",
          "type": "uint256"
        }
      ],
      "name": "updateSlashingPercentage",
      "outputs": [
        {
          "name": "success",
          "type": "bool"
        }
      ],
      "payable": false,
      "stateMutability": "nonpayable",
      "type": "function"
    },
    {
      "constant": false,
      "inputs": [
        {
          "name": "_thawingPeriod",
          "type": "uint256"
        }
      ],
      "name": "updateThawingPeriod",
      "outputs": [
        {
          "name": "success",
          "type": "bool"
        }
      ],
      "payable": false,
      "stateMutability": "nonpayable",
      "type": "function"
    },
    {
      "constant": false,
      "inputs": [
        {
          "name": "_arbitrator",
          "type": "address"
        }
      ],
      "name": "setArbitrator",
      "outputs": [
        {
          "name": "success",
          "type": "bool"
        }
      ],
      "payable": false,
      "stateMutability": "nonpayable",
      "type": "function"
    },
    {
      "constant": false,
      "inputs": [
        {
          "name": "_subgraphID",
          "type": "bytes32"
        }
      ],
      "name": "setGraphSubgraphID",
      "outputs": [
        {
          "name": "success",
          "type": "bool"
        }
      ],
      "payable": false,
      "stateMutability": "nonpayable",
      "type": "function"
    },
    {
      "constant": false,
      "inputs": [
        {
          "name": "_from",
          "type": "address"
        },
        {
          "name": "_value",
          "type": "uint256"
        },
        {
          "name": "_data",
          "type": "bytes"
        }
      ],
      "name": "tokensReceived",
      "outputs": [
        {
          "name": "success",
          "type": "bool"
        }
      ],
      "payable": false,
      "stateMutability": "nonpayable",
      "type": "function"
    },
    {
      "constant": true,
      "inputs": [
        {
          "name": "_purchaseTokens",
          "type": "uint256"
        },
        {
          "name": "_currentTokens",
          "type": "uint256"
        },
        {
          "name": "_currentShares",
          "type": "uint256"
        },
        {
          "name": "_reserveRatio",
          "type": "uint256"
        }
      ],
      "name": "stakeToShares",
      "outputs": [
        {
          "name": "issuedShares",
          "type": "uint256"
        }
      ],
      "payable": false,
      "stateMutability": "view",
      "type": "function"
    },
    {
      "constant": true,
      "inputs": [
        {
          "name": "_returnedShares",
          "type": "uint256"
        },
        {
          "name": "_currentTokens",
          "type": "uint256"
        },
        {
          "name": "_currentShares",
          "type": "uint256"
        },
        {
          "name": "_reserveRatio",
          "type": "uint256"
        }
      ],
      "name": "sharesToStake",
      "outputs": [
        {
          "name": "refundTokens",
          "type": "uint256"
        }
      ],
      "payable": false,
      "stateMutability": "view",
      "type": "function"
    },
    {
      "constant": false,
      "inputs": [
        {
          "name": "_subgraphId",
          "type": "bytes32"
        },
        {
          "name": "_numShares",
          "type": "uint256"
        }
      ],
      "name": "curatorLogout",
      "outputs": [],
      "payable": false,
      "stateMutability": "nonpayable",
      "type": "function"
    },
    {
      "constant": false,
      "inputs": [
        {
          "name": "_subgraphId",
          "type": "bytes32"
        }
      ],
      "name": "beginLogout",
      "outputs": [],
      "payable": false,
      "stateMutability": "nonpayable",
      "type": "function"
    },
    {
      "constant": false,
      "inputs": [
        {
          "name": "_subgraphId",
          "type": "bytes32"
        }
      ],
      "name": "finalizeLogout",
      "outputs": [],
      "payable": false,
      "stateMutability": "nonpayable",
      "type": "function"
    },
    {
      "constant": true,
      "inputs": [
        {
          "name": "_value",
          "type": "uint256"
        }
      ],
      "name": "getRewardForValue",
      "outputs": [
        {
          "name": "",
          "type": "uint256"
        }
      ],
      "payable": false,
      "stateMutability": "view",
      "type": "function"
    },
    {
      "constant": false,
      "inputs": [
        {
          "name": "_disputeId",
          "type": "bytes32"
        }
      ],
      "name": "verifyDispute",
      "outputs": [
        {
          "name": "success",
          "type": "bool"
        }
      ],
      "payable": false,
      "stateMutability": "nonpayable",
      "type": "function"
    },
    {
      "constant": false,
      "inputs": [
        {
          "name": "_disputeId",
          "type": "bytes32"
        }
      ],
      "name": "rejectDispute",
      "outputs": [
        {
          "name": "success",
          "type": "bool"
        }
      ],
      "payable": false,
      "stateMutability": "nonpayable",
      "type": "function"
    },
    {
      "constant": false,
      "inputs": [
        {
          "name": "_subgraphId",
          "type": "bytes32"
        }
      ],
      "name": "withdrawFees",
      "outputs": [],
      "payable": false,
      "stateMutability": "nonpayable",
      "type": "function"
    }
  ],
  "bytecode": "0x60c0604052600360808190527f302e33000000000000000000000000000000000000000000000000000000000060a0908152620000409160019190620008a5565b503480156200004e57600080fd5b5060405161010080620046a983398101806040526101008110156200007257600080fd5b508051602082015160408084015160608086015160808088015160a089015160c08a015160e0909a015160008054600160a060020a039b8c16600160a060020a031991821617918290556001606060020a641c35fedd1502036022556001605e60020a646c3390ecc902036023556001606160020a640cf801476102036024556001605f60020a6431bdb23e1d02036025556001605b60020a6502fb1d8fe08302036026556001605a60020a6505b771955b3702036027556001605960020a650af67a93bb5102036028556001605860020a6515060c256cb302036029556001605860020a651428a2f98d730203602a556001605660020a654d51566397090203602b556001605560020a65944620b0e70f0203602c557011c592761c666fffffffffffffffffffff602d5570110a688680a757ffffffffffffffffffff602e55701056f1b5bedf77ffffffffffffffffffff602f55700faadceceeff8bffffffffffffffffffff603055700f05dc6b27edadffffffffffffffffffff603155700e67a5a25da4107fffffffffffffffffff603255700dcff115b14eedffffffffffffffffffff603355700d3e7a392431239fffffffffffffffffff603455700cb2ff529eb71e4fffffffffffffffffff603555700c2d415c3db974afffffffffffffffffff603655700bad03e7d883f69bffffffffffffffffff603755700b320d03b2c343d5ffffffffffffffffff603855700abc25204e02828dffffffffffffffffff603955700a4b16f74ee4bb207fffffffffffffffff603a557009deaf736ac1f569ffffffffffffffffff603b55700976bd9952c7aa957fffffffffffffffff603c557009131271922eaa606fffffffffffffffff603d557008b380f3558668c46fffffffffffffffff603e55700857ddf0117efa215bffffffffffffffff603f556001608360020a039099557007abbf6f6abb9d087fffffffffffffffff60415570075af62cbac95f7dfa7fffffffffffffff60425570070d7fb7452e187ac13fffffffffffffff6043557006c3390ecc8af379295fffffffffffffff60445570067c00a3b07ffc01fd6fffffffffffffff604555700637b647c39cbb9d3d27ffffffffffffff6046557005f63b1fc104dbd39587ffffffffffffff6047557005b771955b36e12f7235ffffffffffffff60485570057b3d49dda84556d6f6ffffffffffffff60495570054183095b2c8ececf30ffffffffffffff604a5570050a28be635ca2b888f77fffffffffffff604b557004d5156639708c9db33c3fffffffffffff604c557004a23105873875bd52dfdfffffffffffff604d55700471649d87199aa990756fffffffffffff604e557004429a21a029d4c1457cfbffffffffffff604f55700415bc6d6fb7dd71af2cb3ffffffffffff6050557003eab73b3bbfe282243ce1ffffffffffff6051557003c1771ac9fb6b4c18e229ffffffffffff605255700399e96897690418f785257fffffffffff605355700373fc456c53bb779bf0ea9fffffffffff60545570034f9e8e490c48e67e6ab8bfffffffffff60555570032cbfd4a7adc790560b3337ffffffffff60565570030b50570f6e5d2acca94613ffffffffff6057557002eb40f9f620fda6b56c2861ffffffffff6058557002cc8340ecb0d0f520a6af58ffffffffff6059557002af09481380a0a35cf1ba02ffffffffff605a55700292c5bdd3b92ec810287b1b3fffffffff605b55700277abdcdab07d5a77ac6d6b9fffffffff605c5570025daf6654b1eaa55fd64df5efffffffff605d55700244c49c648baa98192dce88b7ffffffff605e5570022ce03cd5619a311b2471268bffffffff605f55700215f77c045fbe885654a44a0fffffffff9096556001608160020a036061557001eaefdbdaaee7421fc4d3ede5ffffffff6062557001d6bd8b2eb257df7e8ca57b09bfffffff6063557001c35fedd14b861eb0443f7f133fffffff6064557001b0ce43b322bcde4a56e8ada5afffffff60655570019f0028ec1fff007f5a195a39dfffffff60665570018ded91f0e72ee74f49b15ba527ffffff60675570017d8ec7f04136f4e5615fd41a63ffffff60685570016ddc6556cdb84bdc8d12d22e6fffffff60695570015ecf52776a1155b5bd8395814f7fffff606a5570015060c256cb23b3b3cc3754cf40ffffff606b557001428a2f98d728ae223ddab715be3fffff606c5570013545598e5c23276ccf0ede68034fffff606d557001288c4161ce1d6f54b7f61081194fffff606e5570011c592761c666aa641d5a01a40f17ffff606f55700110a688680a7530515f3e6e6cfdcdffff6070557001056f1b5bedf75c6bcb2ce8aed428ffff6071556ffaadceceeff8a0890f3875f008277fff6072556ff05dc6b27edad306388a600f6ba0bfff6073556fe67a5a25da41063de1495d5b18cdbfff6074556fdcff115b14eedde6fc3aa5353f2e4fff6075556fd3e7a3924312399f9aae2e0f868f8fff6076556fcb2ff529eb71e41582cccd5a1ee26fff6077556fc2d415c3db974ab32a51840c0b67edff6078556fbad03e7d883f69ad5b0a186184e06bff6079556fb320d03b2c343d4829abd6075f0cc5ff607a556fabc25204e02828d73c6e80bcdb1a95bf607b556fa4b16f74ee4bb2040a1ec6c15fbbf2df607c556f9deaf736ac1f569deb1b5ae3f36c130f607d556f976bd9952c7aa957f5937d790ef65037607e556f9131271922eaa6064b73a22d0bd4f2bf607f556f8b380f3558668c46c91c49a2f8e967b99093556f857ddf0117efa215952912839f6473e6608155608297909755608394909455608491909155608592909255608693909355608794909455608e8054821692841692909217909155608f80549290931691161790556200094a565b828054600181600116156101000203166002900490600052602060002090601f016020900481019282601f10620008e857805160ff191683800117855562000918565b8280016001018555821562000918579182015b8281111562000918578251825591602001919060010190620008fb565b50620009269291506200092a565b5090565b6200094791905b8082111562000926576000815560010162000931565b90565b613d4f806200095a6000396000f3fe608060405234801561001057600080fd5b5060043610610223576000357c0100000000000000000000000000000000000000000000000000000000900480639779a87811610137578063d0314263116100ca578063dddab01d11610099578063dddab01d146106b8578063eba0c8a1146106d5578063ebb71194146106dd578063fc0c546a146106fa578063ff2b31361461070257610223565b8063d0314263146105d3578063d38bfff414610658578063db3b3bd61461067e578063dcbbee9d1461069b57610223565b8063b64cfd3111610106578063b64cfd311461054c578063bf6ed02b14610591578063cdc747dd146105ae578063cf428f23146105b657610223565b80639779a878146104d2578063a1374fb5146104da578063a216c5c9146104f7578063b0eefabe1461052657610223565b80634476a5dc116101ba578063574a36fc11610189578063574a36fc1461040f5780635929ec8d146104345780636cc6cde1146104905780638376e9bb14610498578063950b87dc146104b557610223565b80634476a5dc146102fe578063491c928e1461032d5780634986594f1461034a57806354fd4d501461039257610223565b806318c83632116101f657806318c83632146102b457806336167e03146102d15780633a6b238c146102ee5780633cf6b52b146102f657610223565b806306e2bd3214610228578063080b5958146102595780630c340a241461027357806312281ebe14610297575b600080fd5b6102456004803603602081101561023e57600080fd5b503561070a565b604080519115158252519081900360200190f35b610261610769565b60408051918252519081900360200190f35b61027b61076f565b60408051600160a060020a039092168252519081900360200190f35b610261600480360360208110156102ad57600080fd5b503561077e565b610245600480360360208110156102ca57600080fd5b503561078b565b610245600480360360208110156102e757600080fd5b50356107e5565b610261610952565b610261610958565b6102616004803603608081101561031457600080fd5b508035906020810135906040810135906060013561095e565b6102456004803603602081101561034357600080fd5b5035610975565b6103676004803603602081101561036057600080fd5b50356109ec565b6040805195865260208601949094528484019290925260608401526080830152519081900360a00190f35b61039a610a1b565b6040805160208082528351818301528351919283929083019185019080838360005b838110156103d45781810151838201526020016103bc565b50505050905090810190601f1680156104015780820380516001836020036101000a031916815260200191505b509250505060405180910390f35b6104326004803603604081101561042557600080fd5b5080359060200135610aa8565b005b6104606004803603604081101561044a57600080fd5b5080359060200135600160a060020a0316610c87565b60408051600160a060020a0390951685526020850193909352838301919091526060830152519081900360800190f35b61027b610cc3565b610460600480360360208110156104ae57600080fd5b5035610cd2565b610432600480360360208110156104cb57600080fd5b5035610d14565b610261610e92565b610245600480360360208110156104f057600080fd5b5035610e98565b6102616004803603608081101561050d57600080fd5b5080359060208101359060408101359060600135610ef2565b6102456004803603602081101561053c57600080fd5b5035600160a060020a0316610f00565b6105786004803603604081101561056257600080fd5b5080359060200135600160a060020a0316610f83565b6040805192835260208301919091528051918290030190f35b610245600480360360208110156105a757600080fd5b5035610fa7565b610261611001565b610245600480360360208110156105cc57600080fd5b5035611007565b610245600480360360608110156105e957600080fd5b600160a060020a038235169160208101359181019060608101604082013564010000000081111561061957600080fd5b82018360208201111561062b57600080fd5b8035906020019184600183028401116401000000008311171561064d57600080fd5b50909250905061107f565b6102456004803603602081101561066e57600080fd5b5035600160a060020a0316611342565b6102456004803603602081101561069457600080fd5b50356113c5565b610432600480360360208110156106b157600080fd5b503561141f565b610245600480360360208110156106ce57600080fd5b50356116e5565b610261611ae2565b610432600480360360208110156106f357600080fd5b5035611ae8565b61027b611c80565b610261611c8f565b60008054600160a060020a0316331461075b576040805160e560020a62461bcd0281526020600482015260176024820152600080516020613bcf833981519152604482015290519081900360640190fd5b50608781905560015b919050565b60825481565b600054600160a060020a031681565b608654620f424091020490565b60008054600160a060020a031633146107dc576040805160e560020a62461bcd0281526020600482015260176024820152600080516020613bcf833981519152604482015290519081900360640190fd5b50608555600190565b608e54600090600160a060020a031633146107ff57600080fd5b6000828152608d602052604081206003015490811161081d57600080fd5b6000838152608d60209081526040808320600281018054825486845560018401805473ffffffffffffffffffffffffffffffffffffffff1990811690915582169092556003909201859055608f54855484517fa9059cbb000000000000000000000000000000000000000000000000000000008152600160a060020a03918216600482015260248101899052945193811696929591169363a9059cbb9360448083019491928390030190829087803b1580156108d857600080fd5b505af11580156108ec573d6000803e3d6000fd5b505050506040513d602081101561090257600080fd5b5050604080518481529051600160a060020a03841691839188917fe7fff7c32c5a94f1c3a59c21e0b61709520606a997fd483fe7df08873afeeb97919081900360200190a4506001949350505050565b60855481565b608b5481565b600061096c83858488611c95565b95945050505050565b60008054600160a060020a031633146109c6576040805160e560020a62461bcd0281526020600482015260176024820152600080516020613bcf833981519152604482015290519081900360640190fd5b600082116109d357600080fd5b620f42408211156109e357600080fd5b50608355600190565b608c60205260009081526040902080546001820154600283015460038401546004909401549293919290919085565b60018054604080516020600284861615610100026000190190941693909304601f81018490048402820184019092528181529291830182828015610aa05780601f10610a7557610100808354040283529160200191610aa0565b820191906000526020600020905b815481529060010190602001808311610a8357829003601f168201915b505050505081565b6000828152608860209081526040808320338452909152902060010154811115610ad157600080fd5b6000828152608c60205260408120600181015460028201549154610af792859291610ef2565b6000848152608860209081526040808320338452909152902054909150811115610b2057600080fd5b6000838152608860209081526040808320338452825280832080548581038255878552608c90935292206001818101805486900390559092018054859003905560029091018054849003905581148015610bd5576000848152608c6020908152604091829020600281015460019091015483518881529283019190915281830152905133917f3cf8210940110eec0dc0aaf12dc1c21326f12f7cf91c308a50933cfe7c6c404c919081900360600190a2610c81565b60825460008581526088602090815260408083203384529091529020541015610bfd57600080fd5b60008481526088602090815260408083203380855290835281842080546001918201548a8752608c865295849020600281015492015484519182529481018a905280840195909552606085015260808401929092525190917f1d3ecc0217446a77d7910412bab0a68ee0f38e9e5bc5ca06e200948686ac51b9919081900360a00190a25b50505050565b60896020908152600092835260408084209091529082529020805460018201546002830154600390930154600160a060020a0390921692909184565b608e54600160a060020a031681565b608a805482908110610ce057fe5b60009182526020909120600490910201805460018201546002830154600390930154600160a060020a039092169350919084565b608b54811415610dea57600080610d2a33611d74565b9092509050811515610d705760405160e560020a62461bcd02815260040180806020018281038252602d815260200180613bef602d913960400191505060405180910390fd5b6000608a82815481101515610d8157fe5b906000526020600020906004020160010154111515610d9f57600080fd5b608a805482908110610dad57fe5b9060005260206000209060040201600301546000141515610dcd57600080fd5b42608a82815481101515610ddd57fe5b5060005250610e59915050565b600081815260896020908152604080832033845290915281206001015411610e1157600080fd5b600081815260896020908152604080832033845290915290206003015415610e3857600080fd5b60008181526089602090815260408083203384529091529020426003909101555b60408051828152905133917f697882b60ad0c5d7da772978d3e554d55f344053095890027bfce6a76f38e565919081900360200190a250565b60845481565b60008054600160a060020a03163314610ee9576040805160e560020a62461bcd0281526020600482015260176024820152600080516020613bcf833981519152604482015290519081900360640190fd5b50608255600190565b600061096c83858488611dd7565b60008054600160a060020a03163314610f51576040805160e560020a62461bcd0281526020600482015260176024820152600080516020613bcf833981519152604482015290519081900360640190fd5b50608e8054600160a060020a03831673ffffffffffffffffffffffffffffffffffffffff199091161790556001919050565b60886020908152600092835260408084209091529082529020805460019091015482565b60008054600160a060020a03163314610ff8576040805160e560020a62461bcd0281526020600482015260176024820152600080516020613bcf833981519152604482015290519081900360640190fd5b50608455600190565b60875481565b60008054600160a060020a03163314611058576040805160e560020a62461bcd0281526020600482015260176024820152600080516020613bcf833981519152604482015290519081900360640190fd5b600082101561106657600080fd5b620f424082111561107657600080fd5b50608655600190565b608f54600090600160a060020a0316331461109957600080fd5b60218210156110a757600080fd5b600061110760006110fb6000600188888080601f01602080910402602001604051908101604052809392919081815260200183838082843760009201919091525092949392505063ffffffff611eb9169050565b9063ffffffff611f3b16565b60ff16600381111561111557fe5b90506000611177600061116b6001602089898080601f01602080910402602001604051908101604052809392919081815260200183838082843760009201919091525092949392505063ffffffff611eb9169050565b9063ffffffff611f5f16565b9050600082600381111561118757fe5b14156112045760606111e0602180888890500388888080601f01602080910402602001604051908101604052809392919081815260200183838082843760009201919091525092949392505063ffffffff611eb9169050565b8051909150601f16156111f257600080fd5b6111fe82898984611f7d565b50611335565b600182600381111561121257fe5b141561122857611223818888612320565b611335565b600282600381111561123657fe5b14156112a65760e6841461124957600080fd5b6060611298602160c588888080601f01602080910402602001604051908101604052809392919081815260200183838082843760009201919091525092949392505063ffffffff611eb9169050565b90506111fe81838a8a61251d565b60038260038111156112b457fe5b14156102235760358410156112c857600080fd5b6000611328600061131c604160148a8a8080601f01602080910402602001604051908101604052809392919081815260200183838082843760009201919091525092949392505063ffffffff611eb9169050565b9063ffffffff612a1d16565b90506111fe828289612a4b565b5060019695505050505050565b60008054600160a060020a03163314611393576040805160e560020a62461bcd0281526020600482015260176024820152600080516020613bcf833981519152604482015290519081900360640190fd5b5060008054600160a060020a03831673ffffffffffffffffffffffffffffffffffffffff199091161790556001919050565b60008054600160a060020a03163314611416576040805160e560020a62461bcd0281526020600482015260176024820152600080516020613bcf833981519152604482015290519081900360640190fd5b50608b55600190565b600080608b548314156115495760008061143833611d74565b909250905081151561147e5760405160e560020a62461bcd02815260040180806020018281038252602d815260200180613bef602d913960400191505060405180910390fd5b42608754608a8381548110151561149157fe5b90600052602060002090600402016003015401111515156114b157600080fd5b608a8054829081106114bf57fe5b9060005260206000209060040201600101549350608a818154811015156114e257fe5b9060005260206000209060040201600201549250608a8181548110151561150557fe5b600091825260208220600490910201805473ffffffffffffffffffffffffffffffffffffffff19168155600181018290556002810182905560030155506115cb9050565b6087546000848152608960209081526040808320338452909152902060030154429101111561157757600080fd5b505060008181526089602090815260408083203384529091528120600181018054600283018054845473ffffffffffffffffffffffffffffffffffffffff1916855592859055849055600390920192909255905b6000838152608c60209081526040808320600381018054879003905560049081018054600019019055608f5482517fa9059cbb000000000000000000000000000000000000000000000000000000008152339281019290925285870160248301529151600160a060020a039092169363a9059cbb9360448084019491939192918390030190829087803b15801561166157600080fd5b505af1158015611675573d6000803e3d6000fd5b505050506040513d602081101561168b57600080fd5b5051151561169557fe5b6000838152608c602090815260409182902060030154825186815291820152815133927fd386555f62a28d06949d2b9bfb03e7c9c77a745e1589d7072fd40ec74ee29f8a928290030190a2505050565b608e54600090600160a060020a031633146116ff57600080fd5b6000828152608d602052604081206003015490811161171d57600080fd5b6000838152608d60205260408120600281018054600183018054845486865573ffffffffffffffffffffffffffffffffffffffff198083169093559183169093556003909301849055608b54600160a060020a0391821694919092169291819083141561186e5760008061179086611d74565b90925090508115156117d65760405160e560020a62461bcd02815260040180806020018281038252602d815260200180613bef602d913960400191505060405180910390fd5b608a8054829081106117e457fe5b9060005260206000209060040201600101549350608a8181548110151561180757fe5b9060005260206000209060040201600201549250608a8181548110151561182a57fe5b600091825260208220600490910201805473ffffffffffffffffffffffffffffffffffffffff19168155600181018290556002810182905560030155506118cb9050565b50506000818152608960209081526040808320600160a060020a03861684529091528120600181018054600283018054845473ffffffffffffffffffffffffffffffffffffffff1916855592859055849055600390920192909255905b600082116118d557fe5b60006118e08361077e565b9050828111156118ec57fe5b6000848152608c60209081526040918290206003810180548790039055600401805460001901905581518681529151600160a060020a038816927f697882b60ad0c5d7da772978d3e554d55f344053095890027bfce6a76f38e56592908290030190a2608f5460008054604080517fa9059cbb000000000000000000000000000000000000000000000000000000008152600160a060020a039283166004820152858803870160248201529051919093169263a9059cbb9260448083019360209390929083900390910190829087803b1580156119c857600080fd5b505af11580156119dc573d6000803e3d6000fd5b505050506040513d60208110156119f257600080fd5b5050608f54604080517fa9059cbb000000000000000000000000000000000000000000000000000000008152600160a060020a038981166004830152848b0160248301529151919092169163a9059cbb9160448083019260209291908290030181600087803b158015611a6457600080fd5b505af1158015611a78573d6000803e3d6000fd5b505050506040513d6020811015611a8e57600080fd5b5050604080518281529051600160a060020a0387169186918c917f81880dae5e2afe447b6f84038e1c8ca8564e3b5df81b01a0cc395b0e8d1ab29c919081900360200190a450600198975050505050505050565b60835481565b6000608b54821415611ba157600080611b0033611d74565b9092509050811515611b465760405160e560020a62461bcd02815260040180806020018281038252602d815260200180613bef602d913960400191505060405180910390fd5b608a805482908110611b5457fe5b6000918252602082206002600490920201015493508311611b7457600080fd5b6000608a82815481101515611b8557fe5b9060005260206000209060040201600201819055505050611be9565b506000818152608960209081526040808320338452909152812060020154908111611bcb57600080fd5b60008281526089602090815260408083203384529091528120600201555b608f54604080517fa9059cbb000000000000000000000000000000000000000000000000000000008152336004820152602481018490529051600160a060020a039092169163a9059cbb916044808201926020929091908290030181600087803b158015611c5657600080fd5b505af1158015611c6a573d6000803e3d6000fd5b505050506040513d6020811015610c8157600080fd5b608f54600160a060020a031681565b60865481565b60008085118015611ca65750600084115b8015611cb8575060008363ffffffff16115b8015611ccd5750620f424063ffffffff841611155b1515611cd857600080fd5b811515611ce757506000611d6c565b63ffffffff8316620f42401415611d1a5783611d09868463ffffffff612b4916565b811515611d1257fe5b049050611d6c565b60008080611d2e858863ffffffff612bb016565b9050611d3f818888620f4240612c0d565b9093509150600060ff8316611d5a8a8663ffffffff612b4916565b60029190910a90048990039450505050505b949350505050565b60008060005b608a54811015611dd15783600160a060020a0316608a82815481101515611d9d57fe5b6000918252602090912060049091020154600160a060020a03161415611dc95780915060019250611dd1565b600101611d7a565b50915091565b60008085118015611de85750600084115b8015611dfa575060008363ffffffff16115b8015611e0f5750620f424063ffffffff841611155b8015611e1b5750848211155b1515611e2657600080fd5b811515611e3557506000611d6c565b84821415611e44575082611d6c565b63ffffffff8316620f42401415611e665784611d09858463ffffffff612b4916565b600080838703611e7b8882620f424089612c0d565b90935091506000611e92888563ffffffff612b4916565b905060ff831660020a880284818303811515611eaa57fe5b049a9950505050505050505050565b6060818301845110151515611ecd57600080fd5b606082158015611ee857604051915060208201604052611f32565b6040519150601f8416801560200281840101858101878315602002848b0101015b81831015611f21578051835260209283019201611f09565b5050858452601f01601f1916604052505b50949350505050565b600081600101835110151515611f5057600080fd5b50818101600101515b92915050565b600081602001835110151515611f7457600080fd5b50016020015190565b608b548414156121f657600080611f9385611d74565b90925090508115156120c35750608a54600101611fae613b9c565b5060408051608081018252600160a060020a0387811682526000602080840182815284860183815260608601848152608a80546001808201835591875297517f834355d35cbfbd33b2397e201af04b52bdd40b9b51275f279ea47e93547b631e6004998a02908101805473ffffffffffffffffffffffffffffffffffffffff1916929099169190911790975592517f834355d35cbfbd33b2397e201af04b52bdd40b9b51275f279ea47e93547b631f87015590517f834355d35cbfbd33b2397e201af04b52bdd40b9b51275f279ea47e93547b6320860155517f834355d35cbfbd33b2397e201af04b52bdd40b9b51275f279ea47e93547b6321909401939093558a8252608c90529290922001805490910190555b608a8054829081106120d157fe5b90600052602060002090600402016003015460001415156120f157600080fd5b60845484608a8381548110151561210457fe5b906000526020600020906004020160010154011015151561212457600080fd5b83608a8281548110151561213457fe5b600091825260208083206001600490930201919091018054909301909255878152608c90915260409020600301805485019055608a8054600160a060020a038716917fa146e0a8c028b26627488d5687d7e865a62c7a470057c134540302ffd85a259991849081106121a257fe5b90600052602060002090600402016001015488608c60008b81526020019081526020016000206003015460405180848152602001838152602001828152602001935050505060405180910390a25050610c81565b60008481526089602090815260408083203384529091529020600301541561221d57600080fd5b6084546000858152608960209081526040808320600160a060020a03881684529091529020600101548301101561225357600080fd5b6000848152608960209081526040808320600160a060020a03871684529091529020600101541515612298576000848152608c60205260409020600401805460010190555b6000848152608960209081526040808320600160a060020a038716808552908352818420600101805487018155888552608c84529382902060030180548701908190559354825190815292830188905282820193909352517fa146e0a8c028b26627488d5687d7e865a62c7a470057c134540302ffd85a25999181900360600190a250505050565b6000838152608c60205260409020600101548181011161233f57600080fd5b6000838152608c602052604090206001015415156123b95760825481101561236657600080fd5b6083546000848152608c6020818152604080842094855560888252808420600160a060020a0388168552825283206001818101819055600286018190556082549182905593889052919052910181905590035b600081111561248c576000838152608c602052604081206001810154600282015491546123e89285929161095e565b6000858152608860209081526040808320600160a060020a0388168085528184528285208054890181558a8652608c8552928520600101805489019055608254945290915254919250111561243c57600080fd5b6000848152608860209081526040808320600160a060020a03871684528252808320600101805485019055868352608c90915290206002018054820190819055612710101561248a57600080fd5b505b6000838152608860209081526040808320600160a060020a0386168085529083528184208054600191820154898752608c8652958490206002810154920154845191825294810189905280840195909552606085015260808401929092525190917f1d3ecc0217446a77d7910412bab0a68ee0f38e9e5bc5ca06e200948686ac51b9919081900360a00190a2505050565b6000604080518080613c3d605f91396040805191829003605f0182207f47726170682050726f746f636f6c0000000000000000000000000000000000008352815192839003600e0183207f302e31000000000000000000000000000000000000000000000000000000000084528251938490036003018420602080860193909352848401919091526060840152600160808401523060a084015260c08084018a90528251808503909101815260e09093019182905282519201919091209150806088613c9c82396040519081900360880190209050612605886000608463ffffffff611eb916565b6040805160208082018581528284019384528451606084015284519093926080019185019080838360005b83811015612648578181015183820152602001612630565b50505050905090810190601f1680156126755780820380516001836020036101000a031916815260200191505b5093505050506040516020818303038152906040528051906020012060405160200180806020018560ff1681526020018481526020018381526020018281038252601a8152602001807f19457468657265756d205369676e6564204d6573736167653a0a0000000000008152506020019450505050506040516020818303038152906040528051906020012090506000806000612722604160c50360418a611eb99092919063ffffffff16565b806020019051606081101561273657600080fd5b508051602080830151604093840151845160008082528185018088528b905260ff86168288015260608201849052608082018390529551949850919650945060019260a08083019392601f198301929081900390910190855afa1580156127a1573d6000803e3d6000fd5b5050506020604051035190506000608b54891415612834576000806127c584611d74565b909250905081151561280b5760405160e560020a62461bcd02815260040180806020018281038252602d815260200180613bef602d913960400191505060405180910390fd5b608a80548290811061281957fe5b9060005260206000209060040201600101549250505061285c565b506000888152608960209081526040808320600160a060020a03851684529091529020600101545b6000811161286957600080fd5b6128728161077e565b87101561287e57600080fd5b6000868152608d6020526040902060020154600160a060020a0316156128a357600080fd5b6080604051908101604052808a815260200183600160a060020a0316815260200189600160a060020a0316815260200188815250608d60008881526020019081526020016000206000820151816000015560208201518160010160006101000a815481600160a060020a030219169083600160a060020a0316021790555060408201518160020160006101000a815481600160a060020a030219169083600160a060020a031602179055506060820151816003015590505087600160a060020a031682600160a060020a03168a7f0ce4a35106ce44a02ec4cb56d058ed68f324486438c0cbb879d975e635f4f361898e6040518083815260200180602001828103825283818151815260200191508051906020019080838360005b838110156129d65781810151838201526020016129be565b50505050905090810190601f168015612a035780820380516001836020036101000a031916815260200191505b50935050505060405180910390a450505050505050505050565b600081601401835110151515612a3257600080fd5b5001602001516c01000000000000000000000000900490565b6000838152608c6020526040902060020154606402620f42408110612a6c57fe5b608b54620f42408383020490851415612b0557600080612a8b33611d74565b9092509050811515612ad15760405160e560020a62461bcd02815260040180806020018281038252602d815260200180613bef602d913960400191505060405180910390fd5b828503608a82815481101515612ae357fe5b600091825260209091206002600490920201018054909101905550612b2a9050565b6000858152608960209081526040808320338452909152902060020180548285030190555b6000948552608c60205260409094206001018054909401909355505050565b6000821515612b5a57506000611f59565b828202828482811515612b6957fe5b0414612ba95760405160e560020a62461bcd028152600401808060200182810382526021815260200180613c1c6021913960400191505060405180910390fd5b9392505050565b600082820183811015612ba9576040805160e560020a62461bcd02815260206004820152601b60248201527f536166654d6174683a206164646974696f6e206f766572666c6f770000000000604482015290519081900360640190fd5b6000807002000000000000000000000000000000008610612c2d57600080fd5b60008086607f60020a8902811515612c4157fe5b04905070015bf0a8b1457695355fb8ac404e7a79e3811015612c6d57612c6681612d00565b9150612c79565b612c7681613125565b91505b60008563ffffffff168763ffffffff168402811515612c9457fe5b049050700800000000000000000000000000000000811015612cc757612cb9816131f3565b607f94509450505050612cf7565b6000612cd282613600565b9050612cea60ff607f8390031660020a830482613690565b95509350612cf792505050565b94509492505050565b6000808080806fd3094c70f034de4b96ff7d5b6f99fcd88610612d4f576f4000000000000000000000000000000093909301926fd3094c70f034de4b96ff7d5b6f99fcd8607f60020a87020495505b6fa45af1e1f40c333b3de1db4dd55f29a78610612d98576f2000000000000000000000000000000093909301926fa45af1e1f40c333b3de1db4dd55f29a7607f60020a87020495505b6f910b022db7ae67ce76b441c27035c6a18610612de1576f1000000000000000000000000000000093909301926f910b022db7ae67ce76b441c27035c6a1607f60020a87020495505b6f88415abbe9a76bead8d00cf112e4d4a88610612e2a576f0800000000000000000000000000000093909301926f88415abbe9a76bead8d00cf112e4d4a8607f60020a87020495505b6f84102b00893f64c705e841d5d4064bd38610612e73576f0400000000000000000000000000000093909301926f84102b00893f64c705e841d5d4064bd3607f60020a87020495505b6f8204055aaef1c8bd5c3259f4822735a28610612ebc576f0200000000000000000000000000000093909301926f8204055aaef1c8bd5c3259f4822735a2607f60020a87020495505b6f810100ab00222d861931c15e39b44e998610612f05576f0100000000000000000000000000000093909301926f810100ab00222d861931c15e39b44e99607f60020a87020495505b6f808040155aabbbe9451521693554f7338610612f4d576e80000000000000000000000000000093909301926f808040155aabbbe9451521693554f733607f60020a87020495505b6f7fffffffffffffffffffffffffffffff1986019250829150607f60020a8280020490507001000000000000000000000000000000008381038302049390930192607f60020a8282020491507002000000000000000000000000000000006faaaaaaaaaaaaaaaaaaaaaaaaaaaaaaaa8490038302049390930192607f60020a8282020491507003000000000000000000000000000000006f999999999999999999999999999999998490038302049390930192607f60020a8282020491507004000000000000000000000000000000006f924924924924924924924924924924928490038302049390930192607f60020a8282020491507005000000000000000000000000000000006f8e38e38e38e38e38e38e38e38e38e38e8490038302049390930192607f60020a8282020491507006000000000000000000000000000000006f8ba2e8ba2e8ba2e8ba2e8ba2e8ba2e8b8490038302049390930192607f60020a8282020491507007000000000000000000000000000000006f89d89d89d89d89d89d89d89d89d89d898490038302049390930192607f60020a8282020491507008000000000000000000000000000000006f888888888888888888888888888888888490038302049390930195945050505050565b6000807001000000000000000000000000000000008310613167576000613151607f60020a8504613b32565b60ff16600281900a90940493607f60020a029150505b607f60020a8311156131c757607f5b60008160ff1611156131c557607f60020a84800204935070010000000000000000000000000000000084106131bc576002938490049360ff600019830116900a91909101905b60001901613176565b505b6f05b9de1d10bf4103d647b0955897ba806f03f80fe03f80fe03f80fe03f80fe03f88202049392505050565b6000670168244fdac78000607f60020a6f0fffffffffffffffffffffffffffffff84168080028290048082028390048083028490049485026710e1b3be415a00009092026705a0913f6b1e000091909102010192909181830204905080664807432bc180000283019250607f60020a82820281151561326e57fe5b04905080660c0135dca040000283019250607f60020a82820281151561329057fe5b049050806601b707b1cdc0000283019250607f60020a8282028115156132b257fe5b049050806536e0f639b8000283019250607f60020a8282028115156132d357fe5b04905080650618fee9f8000283019250607f60020a8282028115156132f457fe5b04905080649c197dcc000283019250607f60020a82820281151561331457fe5b04905080640e30dce4000283019250607f60020a82820281151561333457fe5b0490508064012ebd13000283019250607f60020a82820281151561335457fe5b049050806317499f000283019250607f60020a82820281151561337357fe5b049050806301a9d4800283019250607f60020a82820281151561339257fe5b04905080621c63800283019250607f60020a8282028115156133b057fe5b049050806201c6380283019250607f60020a8282028115156133ce57fe5b04905080611ab80283019250607f60020a8282028115156133eb57fe5b0490508061017c0283019250607f60020a82820281151561340857fe5b0490508060140283019250607f60020a82820281151561342457fe5b6721c3677c82b40000919004938401048201607f60020a019290506f100000000000000000000000000000008516156134815770018ebef9eac820ae8682b9793ac6d1e7767001c3d6a24ed82218787d624d3e5eba95f984020492505b6f200000000000000000000000000000008516156134c3577001368b2fc6f9609fe7aceb46aa619baed470018ebef9eac820ae8682b9793ac6d1e77884020492505b6f40000000000000000000000000000000851615613504576fbc5ab1b16779be3575bd8f0520a9f21f7001368b2fc6f9609fe7aceb46aa619baed584020492505b607f60020a851615613538576f454aaa8efe072e7f6ddbab84b40a55c96fbc5ab1b16779be3575bd8f0520a9f21e84020492505b700100000000000000000000000000000000851615613579576f0960aadc109e7a3bf4578099615711ea6f454aaa8efe072e7f6ddbab84b40a55c584020492505b7002000000000000000000000000000000008516156135b9576e2bf84208204f5977f9a8cf01fdce3d6f0960aadc109e7a3bf4578099615711d784020492505b7004000000000000000000000000000000008516156135f7576d03c6ab775dd0b95b4cbee7e65d116e2bf84208204f5977f9a8cf01fdc30784020492505b50909392505050565b60006020607f5b8060ff168260010160ff16101561364f576000600260ff8484011604905084600260ff83166080811061363657fe5b01541061364557809250613649565b8091505b50613607565b83600260ff83166080811061366057fe5b0154106136705791506107649050565b83600260ff84166080811061368157fe5b01541061022357509050610764565b60008083905060008090508360ff16858302908060020a82049150509150816f03442c4e6074a82f1797f72ac000000002810190508360ff16858302908060020a82049150509150816f0116b96f757c380fb287fd0e4000000002810190508360ff16858302908060020a82049150509150816e45ae5bdd5f0e03eca1ff439000000002810190508360ff16858302908060020a82049150509150816e0defabf91302cd95b9ffda5000000002810190508360ff16858302908060020a82049150509150816e02529ca9832b22439efff9b800000002810190508360ff16858302908060020a82049150509150816d54f1cf12bd04e516b6da8800000002810190508360ff16858302908060020a82049150509150816d0a9e39e257a09ca2d6db5100000002810190508360ff16858302908060020a82049150509150816d012e066e7b839fa050c30900000002810190508360ff16858302908060020a82049150509150816c1e33d7d926c329a1ad1a80000002810190508360ff16858302908060020a82049150509150816c02bee513bdb4a6b19b5f80000002810190508360ff16858302908060020a82049150509150816b3a9316fa79b88eccf2a0000002810190508360ff16858302908060020a82049150509150816b048177ebe1fa81237520000002810190508360ff16858302908060020a82049150509150816a5263fe90242dcbacf0000002810190508360ff16858302908060020a82049150509150816a057e22099c030d9410000002810190508360ff16858302908060020a82049150509150816957e22099c030d941000002810190508360ff16858302908060020a820491505091508169052b6b5456997631000002810190508360ff16858302908060020a8204915050915081684985f67696bf74800002810190508360ff16858302908060020a82049150509150816803dea12ea99e49800002810190508360ff16858302908060020a82049150509150816731880f2214b6e00002810190508360ff16858302908060020a820491505091508167025bcff56eb3600002810190508360ff16858302908060020a8204915050915081661b722e10ab100002810190508360ff16858302908060020a82049150509150816601317c7007700002810190508360ff16858302908060020a8204915050915081650cba84aafa0002810190508360ff16858302908060020a82049150509150816482573a0a0002810190508360ff16858302908060020a82049150509150816405035ad90002810190508360ff16858302908060020a8204915050915081632f881b0002810190508360ff16858302908060020a82049150509150816301b2934002810190508360ff16858302908060020a8204915050915081620efc4002810190508360ff16858302908060020a8204915050915081617fe002810190508360ff16858302908060020a820491505091508161042002810190508360ff16858302908060020a8204915050915081602102810190508360ff16858302908060020a8204915050915081600102810190508360ff1660019060020a02856f0688589cc0e9505e2f2fee558000000083811515613b2657fe5b04010195945050505050565b600080610100831015613b5c575b6001831115613b5757600290920491600101613b40565b611f59565b60805b60008160ff161115613b955760ff811660020a8410613b885760ff811660020a90930492908117905b600260ff90911604613b5f565b5092915050565b6080604051908101604052806000600160a060020a03168152602001600081526020016000815260200160008152509056fe4f6e6c7920476f7665726e6f722063616e2063616c6c2e000000000000000000546869732061646472657373206973206e6f74206120677261706820737562677261706820696e64657865722e536166654d6174683a206d756c7469706c69636174696f6e206f766572666c6f77454950373132446f6d61696e28737472696e67206e616d652c737472696e672076657273696f6e2c75696e7432353620636861696e49642c6164647265737320766572696679696e67436f6e74726163742c627974657333322073616c74294174746573746174696f6e28497066734861736820726571756573744349442c497066734861736820726573706f6e73654349442c75696e7432353620676173557365642c75696e7432353620726573706f6e73654e756d4279746573294970667348617368286279746573333220686173682c75696e743136206861736846756e6374696f6e29a165627a7a72305820449e9bda98a36d3a14e0f18089fb8e34807f5881036510a909c8560d706c46950029",
  "source": "pragma solidity ^0.5.2;\n\n/*\n * @title Staking contract\n *\n * @author Bryant Eisenbach\n * @author Reuven Etzion\n *\n * Curator Requirements\n * @req c01 Any User can stake Graph Tokens to be included as a Curator for a given subgraphId.\n * @req c02 The amount of tokens to stake required to become a Curator must be greater than or\n *          equal to the minimum curation staking amount.\n * @req c03 Only Governance can change the minimum curation staking amount.\n * @req c04 A Curator is issued shares according to a pre-defined bonding curve depending on\n *          equal to the total amount of Curation stake for a given subgraphId if they\n *          successfully stake on a given subgraphId.\n * @req c05 A Curator can add any amount of stake for a given subgraphId at any time, as long\n *          as their total amount remains more than minimumCurationStakingAmount.\n * @req c06 A Curator can remove any amount of their stake for a given subgraphId at any time,\n *          as long as their total amount remains more than minimumCurationStakingAmount.\n * @req c07 A Curator can remove all of their stake for a given subgraphId at any time.\n * @req c08 Curation shares accrue 1 basis point per share of any fees an Indexing Node would\n *          earn when a channel settlement occurs for a given subgraphId.\n *\n * Indexer Requirements\n * @req i01 Any User can stake Graph Tokens to be included as an Indexer for a given subgraphId.\n * @req i02 The amount of tokens to stake required to become an Indexer must be greater than or\n *          equal to the minimum indexing staking amount.\n * @req i03 Only Governance can change the minimum indexing staking amount.\n * @req i04 An Indexer can start the process of removing their stake for a given subgraphId at\n *          any time.\n * @req i05 An Indexer may withdraw their stake for a given subgraphId after the process has\n *          been started and a thawing period has elapsed.\n * @req i06 An Indexer can add any amount of stake for a given subgraphId at any time, as long\n *          as their total amount remains more than minimumIndexingStakingAmount.\n * @req i07 An Indexer earns a portion of all fees from the settlement a channel they were\n *          involved in.\n *\n * Slashing Requirements\n * @req s01 The Dispute Manager contract can burn the staked Tokens of any Indexer.\n * @req s02 Only Governance can change the Dispute Manager contract address.\n * @reg s03 Only Governance can update slashingPercent.\n *\n * Fisherman Requirements\n * @req f01 A fisherman can provide a bond, a valid read request and an invalid read\n *          response which has been signed by a current indexing node to create a\n *          dispute.\n * @req f02 If the dispute is accepted by arbitration, the fisherman should receive a\n *          reward proportional to the amount staked by the indexing node.\n *\n * Dispute Arbitrator Requirements\n * @req a01 The arbitrator can rule to accept a proposed dispute, which will trigger a\n *          slashing of the indexing node that the dispute concerns.\n * @req a02 The arbitrator can rule to reject a proposed dispute, which will slash the\n *          bond posted by the fisherman who proposed it.\n *\n * @notice Dispute resolution is handled through an on-chain dispute resolution\n *         process. In the v1 specification the outcome of a dispute will be decided\n *         by a centralized arbitrator (the contract owner / multisig contract)\n *         interacting with the on-chain dispute resolution process.\n *\n * ----------------------------------- TODO This may change -------------------------------------\n * @notice Indexing Nodes who have staked for a dataset, are not limited by the protocol in how\n *         many read requests they may process for that dataset. However, it may be assumed that\n *         Indexing Nodes with higher deposits will receive more read requests and thus collect\n *         more fees, all else being equal, as this represents a greater economic security margin\n *         to the end user.\n *\n */\n\n/*\n*/\n\nimport \"./GraphToken.sol\";\nimport \"./Governed.sol\";\nimport \"bytes/BytesLib.sol\";\nimport \"./bancor/BancorFormula.sol\";\n\ncontract Staking is Governed, TokenReceiver, BancorFormula\n{\n    using BytesLib for bytes;\n\n    /* Events */\n    event CuratorStaked (\n        address indexed staker,\n        uint256 amountStaked,\n        bytes32 subgraphID,\n        uint256 curatorShares,\n        uint256 subgraphTotalCurationShares,\n        uint256 subgraphTotalCurationStake\n    );\n\n    event CuratorLogout (\n        address indexed staker,\n        bytes32 subgraphID,\n        uint256 subgraphTotalCurationShares,\n        uint256 subgraphTotalCurationStake\n    );\n\n    event IndexingNodeStaked (\n        address indexed staker,\n        uint256 amountStaked,\n        bytes32 subgraphID,\n        uint256 subgraphTotalIndexingStake\n    );\n\n    event IndexingNodeBeginLogout (\n        address indexed staker,\n        bytes32 subgraphID\n    );\n\n    event IndexingNodeFinalizeLogout (\n        address indexed staker,\n        bytes32 subgraphID,\n        uint256 subgraphTotalIndexingStake\n    );\n\n\n    // @dev Dispute was created by fisherman\n    event DisputeCreated (\n        bytes32 indexed _subgraphId,\n        address indexed _indexingNode,\n        address indexed _fisherman,\n        bytes32 _disputeId,\n        bytes _attestation\n    );\n\n    // @dev Dispute was accepted, indexing node lost their stake\n    event DisputeAccepted (\n        bytes32 indexed _disputeId,\n        bytes32 indexed _subgraphId,\n        address indexed _indexingNode,\n        uint256 _amount\n    );\n\n    // @dev Dispute was rejected, fisherman lost the given bond amount\n    event DisputeRejected (\n        bytes32 indexed _disputeId,\n        bytes32 indexed _subgraphId,\n        address indexed _fisherman,\n        uint256 _amount\n    );\n\n    /* Structs */\n    struct Curator {\n        uint256 amountStaked;\n        uint256 subgraphShares; // In subgraph factory pattern, Subgraph Token Balance\n    }\n\n    struct IndexingNode {\n        address indexer;\n        uint256 amountStaked;\n        uint256 feesAccrued;\n        uint256 logoutStarted;\n    }\n\n    struct Subgraph { // In subgraph factory pattern, these are just globals\n        uint256 reserveRatio;\n        uint256 totalCurationStake; // Reserve token\n        uint256 totalCurationShares; // In subgraph factory pattern, Subgraph Token total supply\n        uint256 totalIndexingStake;\n        uint256 totalIndexers;\n    }\n\n    // @dev Store IPFS hash as 32 byte hash and 2 byte hash function\n    struct IpfsHash {\n        bytes32 hash; // Note: Not future proof against IPFS planned updates to\n                      //       support multihash, which would require a len field\n        uint16 hashFunction; // 0x1220 is 'Qm', or SHA256 with 32 byte length\n    }\n\n    // @dev signed message sent from Indexing Node in response to a request\n    struct Attestation {\n        // Content Identifier for request message sent from user to indexing node\n        IpfsHash requestCID; // Note: Message is located at the given IPFS content addr\n        // Content Identifier for signed response message from indexing node\n        IpfsHash responseCID; // Note: Message is located at the given IPFS content addr\n        // Amount of computational account units (gas) used to process query\n        uint256 gasUsed;\n        // Amount of data sent in the response\n        uint256 responseNumBytes;\n        // ECDSA vrs signature (using secp256k1)\n        uint8 v;\n        bytes32 r;\n        bytes32 s;\n    }\n    uint256 private constant ATTESTATION_SIZE_BYTES = 197;\n\n    // EIP-712 constants\n    bytes32 private constant DOMAIN_TYPE_HASH = keccak256(\n        \"EIP712Domain(string name,string version,uint256 chainId,address verifyingContract,bytes32 salt)\"\n    );\n    bytes32 private constant ATTESTATION_TYPE_HASH = keccak256(\n        \"Attestation(IpfsHash requestCID,IpfsHash responseCID,uint256 gasUsed,uint256 responseNumBytes)IpfsHash(bytes32 hash,uint16 hashFunction)\"\n    );\n    bytes32 private constant DOMAIN_NAME_HASH = keccak256(\"Graph Protocol\");\n    bytes32 private constant DOMAIN_VERSION_HASH = keccak256(\"0.1\");\n\n    // TODO: EIP-1344 adds support for the Chain ID opcode\n    //       Use that instead\n    uint256 private constant CHAIN_ID = 1; // Mainnet\n\n    // @dev Disputes contain info neccessary for the arbitrator to verify and resolve\n    struct Dispute {\n        bytes32 subgraphId;\n        address indexingNode;\n        address fisherman;\n        uint256 depositAmount;\n    }\n\n    /* ENUMS */\n    enum TokenReceiptAction { Staking, Curation, Dispute, Settlement }\n\n    /* STATE VARIABLES */\n    // Minimum amount allowed to be staked by Market Curators\n    uint256 public minimumCurationStakingAmount;\n\n    // Default reserve ratio (for new subgraphs)\n    // Note: A subgraph that hasn't been curated yet sets it's reserve ratio to\n    //       this amount, which prevents changes from breaking the invariant. This\n    //       means that we cannot control active curation markets, only new ones.\n    // Note: In order to reset the reserveRatio of a subgraph to whatever this\n    //       number is updated to, the market must sell and buy-back all of it's\n    //       shares (taking advantage of the more attractive pricing). The trick\n    //       is to set this number conservatively at first, and narrow in on the\n    //       most optimal value, so that Curators are incentivized to perform this\n    //       \"upgrade\" against their shares.\n    // @dev Parts per million. (Allows for 4 decimal points, 999,999 = 99.9999%)\n    uint256 public defaultReserveRatio;\n\n    // Minimum amount allowed to be staked by Indexing Nodes\n    uint256 public minimumIndexingStakingAmount;\n\n    // Maximum number of Indexing Nodes staked higher than stake to consider\n    uint256 public maximumIndexers;\n\n    // Percent of stake to slash in successful dispute\n    // @dev Parts per million. (Allows for 4 decimal points, 999,999 = 99.9999%)\n    uint256 public slashingPercent;\n\n    // Amount of seconds to wait until indexer can finish stake logout\n    // @dev Thawing Period allows disputes to be processed during logout\n    uint256 public thawingPeriod;\n\n    // Mapping subgraphId to list of addresses to Curators\n    mapping (bytes32 => mapping (address => Curator)) public curators;\n\n    // Mapping subgraphId to list of addresses to Indexing Nodes\n    mapping (bytes32 => mapping (address => IndexingNode)) public indexingNodes;\n\n    // A single set of index nodes that bootstrap the graph subgraph\n    // Note: The graph subgraph bootstraps the network. It has no way to retrieve\n    //       the list of all indexers at the start of indexing. The indexingNodes\n    //       mapping can be retrieved for all other subgraphs, since they can\n    //       depend on the existing graph subgraph. Therefore, a single dynamic\n    //       array exists as its own variable graphIndexingNodes, along with the\n    //       graphSubgraphID public variable. This was done because using dynamic\n    //       arrays means we need O(n) to delete and update indexing nodes. So\n    //       so restrict it to only one set. All other subgraphs can use the double\n    //       mapping, and update and delete with O(1).\n    // TODO - potentially implement a upper limit, say 100 indexers, for simplification\n    IndexingNode[] public graphIndexingNodes;\n\n    // The graph subgraph ID\n    bytes32 public graphSubgraphID;\n\n    // Subgraphs mapping\n    mapping (bytes32 => Subgraph) public subgraphs;\n\n    // @dev Disputes created by the Fisherman or other authorized entites\n    // @key <bytes32> _disputeId - Hash of readIndex data + disputer data\n    mapping (bytes32 => Dispute) private disputes;\n\n    // The arbitrator is solely in control of arbitrating disputes\n    address public arbitrator;\n\n    // Graph Token address\n    GraphToken public token;\n\n    /* MODIFIERS */\n    // Disputes management only can be settled by arbitrator\n    modifier onlyArbitrator {\n        require(msg.sender == arbitrator);\n        _;\n    }\n\n    /* CONSTANTS */\n    // @dev 100% in parts per million.\n    uint256 private constant MAX_PPM = 1000000;\n\n    // @dev 1 basis point (0.01%) is 100 parts per million (PPM).\n    uint256 private constant BASIS_PT = 100;\n\n    /**\n     * @dev Staking Contract Constructor\n     * @param _governor <address> - Address of the multisig contract as Governor of this contract\n     * @param _token <address> - Address of the Graph Protocol token\n     */\n    constructor (\n        address _governor,\n        uint256 _minimumCurationStakingAmount,\n        uint256 _defaultReserveRatio,\n        uint256 _minimumIndexingStakingAmount,\n        uint256 _maximumIndexers,\n        uint256 _slashingPercent,\n        uint256 _thawingPeriod,\n        address _token\n    )\n        public\n        Governed(_governor)\n    {\n        // Governance Parameter Defaults\n        minimumCurationStakingAmount = _minimumCurationStakingAmount;  // @imp c03\n        defaultReserveRatio = _defaultReserveRatio;\n        minimumIndexingStakingAmount = _minimumIndexingStakingAmount;  // @imp i03\n        maximumIndexers = _maximumIndexers;\n        slashingPercent = _slashingPercent;\n        thawingPeriod = _thawingPeriod;\n        arbitrator = governor;\n        token = GraphToken(_token);\n    }\n\n    /**\n     * @dev Set the Minimum Staking Amount for Market Curators\n     * @param _minimumCurationStakingAmount <uint256> - Minimum amount allowed to be staked\n     * for Curation\n     */\n    function setMinimumCurationStakingAmount (\n        uint256 _minimumCurationStakingAmount\n    )\n        external\n        onlyGovernance\n        returns (bool success)\n    {\n        minimumCurationStakingAmount = _minimumCurationStakingAmount;  // @imp c03\n        return true;\n    }\n\n    /**\n     * @dev Set the percent that the default reserve ratio is for new subgraphs\n     * @param _defaultReserveRatio <uint256> - Reserve ratio (in percent)\n     */\n    function updateDefaultReserveRatio (\n        uint256 _defaultReserveRatio\n    )\n        external\n        onlyGovernance\n        returns (bool success)\n    {\n        // Reserve Ratio must be within 0% to 100% (exclusive)\n        require(_defaultReserveRatio > 0);\n        require(_defaultReserveRatio <= MAX_PPM);\n        defaultReserveRatio = _defaultReserveRatio;\n        return true;\n    }\n\n    /**\n     * @dev Set the Minimum Staking Amount for Indexing Nodes\n     * @param _minimumIndexingStakingAmount <uint256> - Minimum amount allowed to be staked\n     * for Indexing Nodes\n     */\n    function setMinimumIndexingStakingAmount (\n        uint256 _minimumIndexingStakingAmount\n    )\n        external\n        onlyGovernance\n        returns (bool success)\n    {\n        minimumIndexingStakingAmount = _minimumIndexingStakingAmount;  // @imp i03\n        return true;\n    }\n\n    /**\n     * @dev Set the maximum number of Indexing Nodes\n     * @param _maximumIndexers <uint256> - Maximum number of Indexing Nodes allowed\n     */\n    function setMaximumIndexers (\n        uint256 _maximumIndexers\n    )\n        external\n        onlyGovernance\n        returns (bool success)\n    {\n        maximumIndexers = _maximumIndexers;\n        return true;\n    }\n\n    /**\n     * @dev Set the percent that the fisherman gets when slashing occurs\n     * @param _slashingPercent <uint256> - Slashing percent\n     */\n    function updateSlashingPercentage (\n        uint256 _slashingPercent\n    )\n        external\n        onlyGovernance\n        returns (bool success)\n    {\n        // Slashing Percent must be within 0% to 100% (inclusive)\n        require(_slashingPercent >= 0);\n        require(_slashingPercent <= MAX_PPM);\n        slashingPercent = _slashingPercent;\n        return true;\n    }\n\n    /**\n     * @dev Set the thawing period for indexer logout\n     * @param _thawingPeriod <uint256> - Number of seconds for thawing period\n     */\n    function updateThawingPeriod (\n        uint256 _thawingPeriod\n    )\n        external\n        onlyGovernance\n        returns (bool success)\n    {\n        thawingPeriod = _thawingPeriod;\n        return true;\n    }\n\n    /**\n     * @dev Set the arbitrator address\n     * @param _arbitrator <address> - The address of the arbitration contract or party\n     */\n    function setArbitrator (\n        address _arbitrator\n    )\n        external\n        onlyGovernance\n        returns (bool success)\n    {\n        arbitrator = _arbitrator;\n        return true;\n    }\n\n    /**\n     * @dev Set the graph subgraph ID\n     * @param _subgraphID <bytes32> - The subgraph ID of the bootstrapping subgraph ID\n     */\n    function setGraphSubgraphID (\n        bytes32 _subgraphID\n    )\n        external\n        onlyGovernance\n        returns (bool success)\n    {\n        graphSubgraphID = _subgraphID;\n        return true;\n    }\n\n    /**\n     * @dev Accept tokens and handle staking registration functions\n     * @param _from <address> - Token holder's address\n     * @param _value <uint256> - Amount of Graph Tokens\n     * @param _data <bytes> - Data to parse and handle registration functions\n     */\n    function tokensReceived (\n        address _from,\n        uint256 _value,\n        bytes calldata _data\n    )\n        external\n        returns (bool success)\n    {\n        // Make sure the token is the caller of this function\n        require(msg.sender == address(token));\n\n        // Process _data to figure out the action to take (and which subgraph is involved)\n        require(_data.length >= 1+32); // Must be at least 33 bytes (Header)\n        TokenReceiptAction option = TokenReceiptAction(_data.slice(0, 1).toUint8(0));\n        bytes32 _subgraphId = _data.slice(1, 32).toBytes32(0); // In subgraph factory, not necessary\n\n        if (option == TokenReceiptAction.Staking) {\n            // Slice the rest of the data as indexing records\n            bytes memory _indexingRecords = _data.slice(33, _data.length-33);\n            // Ensure that the remaining data is parse-able for indexing records\n            require(_indexingRecords.length % 32 == 0);\n            // @imp i01 Handle internal call for Index Staking\n            stakeGraphTokensForIndexing(_subgraphId, _from, _value, _indexingRecords);\n        } else\n        if (option == TokenReceiptAction.Curation) {\n            // @imp c01 Handle internal call for Curation Staking\n            stakeGraphTokensForCuration(_subgraphId, _from, _value);\n        } else\n        if (option == TokenReceiptAction.Dispute) {\n            require(_data.length == 33 + ATTESTATION_SIZE_BYTES);\n            bytes memory _attestation = _data.slice(33, ATTESTATION_SIZE_BYTES);\n            // Inner call to createDispute\n            createDispute(_attestation, _subgraphId, _from, _value);\n        } else\n        if (option == TokenReceiptAction.Settlement) {\n            require(_data.length >= 33 + 20); // Header + _indexingNode\n            address _indexingNode = _data.slice(65, 20).toAddress(0);\n            distributeChannelFees(_subgraphId, _indexingNode, _value);\n        } else {\n            revert();\n        }\n        success = true;\n    }\n\n    /**\n     * @dev Calculate number of shares that should be issued in return for\n     *      staking of _purchaseAmount of tokens, along the given bonding curve\n     * @param _purchaseTokens <uint256> - Amount of tokens being staked (purchase amount)\n     * @param _currentTokens <uint256> - Total amount of tokens currently in reserves\n     * @param _currentShares <uint256> - Total amount of current shares issued\n     * @param _reserveRatio <uint256> - Desired reserve ratio to maintain (in PPM)\n     * @return issuedShares <uint256> - Amount of additional shares issued given the above\n     */\n    function stakeToShares (\n        uint256 _purchaseTokens,\n        uint256 _currentTokens,\n        uint256 _currentShares,\n        uint256 _reserveRatio\n    )\n        public\n        view\n        returns (uint256 issuedShares)\n    {\n        issuedShares = calculatePurchaseReturn(\n            _currentShares,\n            _currentTokens,\n            uint32(_reserveRatio),\n            _purchaseTokens\n        );\n    }\n\n    /**\n     * @dev Calculate number of tokens that should be returned for the proportion\n     *      of _returnedShares to _currentShares, along the given bonding curve\n     * @param _returnedShares <uint256> - Amount of shares being returned\n     * @param _currentTokens <uint256> - Total amount of tokens currently in reserves\n     * @param _currentShares <uint256> - Total amount of current shares issued\n     * @param _reserveRatio <uint256> - Desired reserve ratio to maintain (in PPM)\n     * @return refundTokens <uint256> - Amount of tokens to return given the above\n     */\n    function sharesToStake (\n        uint256 _returnedShares,\n        uint256 _currentTokens,\n        uint256 _currentShares,\n        uint256 _reserveRatio\n    )\n        public\n        view\n        returns (uint256 refundTokens)\n    {\n        refundTokens = calculateSaleReturn(\n            _currentShares,\n            _currentTokens,\n            uint32(_reserveRatio),\n            _returnedShares\n        );\n    }\n\n    /**\n     * @dev Stake Graph Tokens for Market Curation by subgraphId\n     * @param _subgraphId <bytes32> - Subgraph ID the Curator is staking Graph Tokens for\n     * @param _curator <address> - Address of Staking party\n     * @param _tokenAmount <uint256> - Amount of Graph Tokens to be staked\n     */\n    function stakeGraphTokensForCuration (\n        bytes32 _subgraphId,\n        address _curator,\n        uint256 _tokenAmount\n    )\n        private\n    {\n        // Overflow protection\n        require(subgraphs[_subgraphId].totalCurationStake + _tokenAmount > subgraphs[_subgraphId].totalCurationStake);\n\n        // If this subgraph hasn't been curated before...\n        // NOTE: We have to do this to initialize the curve or else it has\n        //       a discontinuity and cannot be computed. This method ensures\n        //       that this doesn't occur, and also sets the initial slope for\n        //       the curve (controlled by minimumCurationStake)\n        if (subgraphs[_subgraphId].totalCurationStake == 0) {\n\n            // Additional pre-condition check\n            require(_tokenAmount >= minimumCurationStakingAmount);\n\n            // (Re)set the default reserve ratio to whatever governance has set\n            subgraphs[_subgraphId].reserveRatio = defaultReserveRatio;\n\n            // The first share costs minimumCurationStake amount of tokens\n            curators[_subgraphId][_curator].subgraphShares = 1;\n            subgraphs[_subgraphId].totalCurationShares = 1;\n            curators[_subgraphId][_curator].amountStaked = minimumCurationStakingAmount;\n            subgraphs[_subgraphId].totalCurationStake = minimumCurationStakingAmount;\n            _tokenAmount -= minimumCurationStakingAmount;\n        }\n\n        if (_tokenAmount > 0) { // Corner case if only minimum is staked on first stake\n            // Obtain the amount of shares to buy with the amount of tokens to sell\n            // according to the bonding curve\n            uint256 _newShares = stakeToShares(\n                _tokenAmount,\n                subgraphs[_subgraphId].totalCurationStake,\n                subgraphs[_subgraphId].totalCurationShares,\n                subgraphs[_subgraphId].reserveRatio\n            );\n\n            // Update the amount of tokens _curator has, and overall amount staked\n            curators[_subgraphId][_curator].amountStaked += _tokenAmount;\n            subgraphs[_subgraphId].totalCurationStake += _tokenAmount;\n\n            // @imp c02 Ensure the minimum amount is staked\n            // TODO Validate the need for this requirement\n            require(curators[_subgraphId][_curator].amountStaked >= minimumCurationStakingAmount);\n\n            // Update the amount of shares issued to _curator, and total amount issued\n            curators[_subgraphId][_curator].subgraphShares += _newShares;\n            subgraphs[_subgraphId].totalCurationShares += _newShares;\n\n            // Ensure curators cannot stake more than 100% in basis points\n            // Note: ensures that distributeChannelFees() does not revert\n            require(subgraphs[_subgraphId].totalCurationShares <= (MAX_PPM / BASIS_PT));\n        }\n\n        // Emit the CuratorStaked event (updating the running tally)\n        emit CuratorStaked(\n            _curator,\n            curators[_subgraphId][_curator].amountStaked,\n            _subgraphId,\n            curators[_subgraphId][_curator].subgraphShares,\n            subgraphs[_subgraphId].totalCurationShares,\n            subgraphs[_subgraphId].totalCurationStake)\n        ;\n    }\n\n    /**\n     * @dev Return any amount of shares to get tokens back (above the minimum)\n     * @param _subgraphId <bytes32> - Subgraph ID the Curator is returning shares for\n     * @param _numShares <uint256> - Amount of shares to return\n     */\n    function curatorLogout (\n        bytes32 _subgraphId,\n        uint256 _numShares\n    )\n        external\n    {\n        // Underflow protection\n        require(curators[_subgraphId][msg.sender].subgraphShares >= _numShares);\n\n        // Obtain the amount of tokens to refunded with the amount of shares returned\n        // according to the bonding curve\n        uint256 _tokenRefund = sharesToStake(\n            _numShares,\n            subgraphs[_subgraphId].totalCurationStake,\n            subgraphs[_subgraphId].totalCurationShares,\n            subgraphs[_subgraphId].reserveRatio\n        );\n\n        // Underflow protection\n        require(curators[_subgraphId][msg.sender].amountStaked >= _tokenRefund);\n\n        // Keep track of whether this is a full logout\n        bool fullLogout = (curators[_subgraphId][msg.sender].amountStaked == _tokenRefund);\n\n        // Update the amount of tokens Curator has, and overall amount staked\n        curators[_subgraphId][msg.sender].amountStaked -= _tokenRefund;\n        subgraphs[_subgraphId].totalCurationStake -= _tokenRefund;\n\n        // Update the amount of shares Curator has, and overall amount of shares\n        curators[_subgraphId][msg.sender].subgraphShares -= _numShares;\n        subgraphs[_subgraphId].totalCurationShares -= _numShares;\n\n        if (fullLogout) {\n        // Emit the CuratorLogout event\n            emit CuratorLogout(\n                msg.sender,\n                _subgraphId,\n                subgraphs[_subgraphId].totalCurationShares,\n                subgraphs[_subgraphId].totalCurationStake\n            );\n        } else {\n            // Require that if not fully logging out, at least the minimum is kept staked\n            // TODO Validate the need for this requirement\n            require(curators[_subgraphId][msg.sender].amountStaked >= minimumCurationStakingAmount);\n\n            // Emit the CuratorStaked event (updating the running tally)\n            emit CuratorStaked(\n                msg.sender,\n                curators[_subgraphId][msg.sender].amountStaked,\n                _subgraphId,\n                curators[_subgraphId][msg.sender].subgraphShares,\n                subgraphs[_subgraphId].totalCurationShares,\n                subgraphs[_subgraphId].totalCurationStake\n            );\n        }\n    }\n\n    /**\n     * @dev Stake Graph Tokens for Indexing Node data retrieval by subgraphId\n     * @param _subgraphId <bytes32> - Subgraph ID the Indexing Node is staking Graph Tokens for\n     * @param _indexer <address> - Address of Staking party\n     * @param _value <uint256> - Amount of Graph Tokens to be staked\n     */\n    function stakeGraphTokensForIndexing (\n        bytes32 _subgraphId,\n        address _indexer,\n        uint256 _value,\n        bytes memory _indexingRecords // TODO DK - what is this? Why isn't it used?\n    )\n        private\n    {\n\n        // If we are dealing with the graph subgraph bootstrap index nodes\n        if (_subgraphId == graphSubgraphID) {\n            (bool found, uint256 userIndex) = findGraphIndexerIndex(_indexer);\n\n            // If the user was never found, we must push them into the array\n            if (found == false){\n                userIndex = graphIndexingNodes.length + 1;\n                IndexingNode memory newIndexer = IndexingNode({indexer: _indexer, amountStaked: 0, feesAccrued: 0, logoutStarted: 0});\n                graphIndexingNodes.push(newIndexer);\n                // TODO - ensure there is no way to go around this. i.e. if a user has 0 stake, it must be deleted from the dynamic array\n                subgraphs[_subgraphId].totalIndexers += 1;\n            }\n            require(graphIndexingNodes[userIndex].logoutStarted == 0);\n            require(graphIndexingNodes[userIndex].amountStaked + _value >= minimumIndexingStakingAmount); // @imp i02\n            graphIndexingNodes[userIndex].amountStaked += _value;\n            subgraphs[_subgraphId].totalIndexingStake += _value;\n            emit IndexingNodeStaked(\n                _indexer,\n                graphIndexingNodes[userIndex].amountStaked,\n                _subgraphId,\n                subgraphs[_subgraphId].totalIndexingStake\n            );\n            // When we are dealing with all other indexing arrays that aren't bootstrapping\n        } else {\n            require(indexingNodes[_subgraphId][msg.sender].logoutStarted == 0);\n            require(indexingNodes[_subgraphId][_indexer].amountStaked + _value >= minimumIndexingStakingAmount); // @imp i02\n            if (indexingNodes[_subgraphId][_indexer].amountStaked == 0)\n                subgraphs[_subgraphId].totalIndexers += 1; // has not staked before\n            indexingNodes[_subgraphId][_indexer].amountStaked += _value;\n            subgraphs[_subgraphId].totalIndexingStake += _value;\n            emit IndexingNodeStaked(\n                _indexer,\n                indexingNodes[_subgraphId][_indexer].amountStaked,\n                _subgraphId,\n                subgraphs[_subgraphId].totalIndexingStake\n            );\n        }\n    }\n\n    /**\n     * @dev Indexing node can start logout process\n     * @param _subgraphId <bytes32> - Subgraph ID the Indexing Node has staked Graph Tokens for\n     */\n    function beginLogout(bytes32 _subgraphId)\n        external\n    {\n        // If we are dealing with the graph subgraph bootstrap index nodes\n        if (_subgraphId == graphSubgraphID) {\n            (bool found, uint256 userIndex) = findGraphIndexerIndex(msg.sender);\n            if (found == false) {\n                revert(\"This address is not a graph subgraph indexer.\");\n            }\n            require(graphIndexingNodes[userIndex].amountStaked > 0);\n            require(graphIndexingNodes[userIndex].logoutStarted == 0);\n            graphIndexingNodes[userIndex].logoutStarted == block.timestamp;\n        } else {\n            require(indexingNodes[_subgraphId][msg.sender].amountStaked > 0);\n            require(indexingNodes[_subgraphId][msg.sender].logoutStarted == 0);\n            indexingNodes[_subgraphId][msg.sender].logoutStarted = block.timestamp;\n        }\n        emit IndexingNodeBeginLogout(msg.sender, _subgraphId);\n    }\n\n    /**\n     * @dev Indexing node can finish the logout process after a thawing off period\n     * @param _subgraphId <bytes32> - Subgraph ID the Indexing Node has staked Graph Tokens for\n     */\n    function finalizeLogout(bytes32 _subgraphId)\n        external\n    {\n        uint256 _stake;\n        uint256 _fees;\n        // If we are dealing with the graph subgraph bootstrap index nodes\n        if (_subgraphId == graphSubgraphID) {\n            (bool found, uint256 userIndex) = findGraphIndexerIndex(msg.sender);\n            if (found == false) {\n                revert(\"This address is not a graph subgraph indexer.\");\n            }\n            require(graphIndexingNodes[userIndex].logoutStarted + thawingPeriod <= block.timestamp);\n            // Return the amount the Indexing Node has staked\n            _stake = graphIndexingNodes[userIndex].amountStaked;\n            // Return any outstanding fees accrued the Indexing Node does not have yet\n            _fees = graphIndexingNodes[userIndex].feesAccrued;\n            delete graphIndexingNodes[userIndex];\n        } else {\n            require(indexingNodes[_subgraphId][msg.sender].logoutStarted + thawingPeriod <= block.timestamp);\n            // Return the amount the Indexing Node has staked\n            _stake = indexingNodes[_subgraphId][msg.sender].amountStaked;\n            // Return any outstanding fees accrued the Indexing Node does not have yet\n            _fees = indexingNodes[_subgraphId][msg.sender].feesAccrued;\n            delete indexingNodes[_subgraphId][msg.sender];\n        }\n\n        // Decrement the total amount staked by the amount being returned\n        subgraphs[_subgraphId].totalIndexingStake -= _stake;\n        subgraphs[_subgraphId].totalIndexers -= 1;\n        // Send them all their funds back\n        assert(token.transfer(msg.sender, _stake + _fees));\n        emit IndexingNodeFinalizeLogout(\n            msg.sender,\n            _subgraphId,\n            subgraphs[_subgraphId].totalIndexingStake);\n    }\n\n    /**\n     * @dev Get the amount of fisherman reward for a given amount of stake\n     * @param _value <uint256> - Amount of validator's stake\n     * @return <uint256> - Percentage of validator's stake to be considered a reward\n     */\n    function getRewardForValue(\n        uint256 _value\n    )\n        public\n        view\n        returns (uint256)\n    {\n        return slashingPercent * _value / MAX_PPM; // slashingPercent is in PPM\n    }\n\n    /**\n     * @dev Create a dispute for the arbitrator to resolve\n     * @param _attestation <Attestation> - Signed Attestation message\n     * @param _subgraphId <bytes32> - SubgraphId that Attestation message\n     *                                contains (in request raw object at CID)\n     * @param _fisherman <address> - Creator of dispute\n     * @param _amount <uint256> - Amount of tokens staked\n     * @notice Payable using Graph Tokens for deposit\n     */\n    function createDispute (\n        bytes memory _attestation,\n        bytes32 _subgraphId,\n        address _fisherman,\n        uint256 _amount\n    )\n        private\n    {\n        // Obtain the hash of the fully-encoded message, per EIP-712 encoding\n        bytes32 _disputeId = keccak256(abi.encode(\n            // HACK: Remove this line until eth_signTypedData is in common use\n            //\"\\x19\\x01\", // EIP-191 encoding pad, EIP-712 version 1\n            \"\\x19Ethereum Signed Message:\\n\", 64, // 64 bytes (2 hashes)\n            // END HACK\n            keccak256(abi.encode( // EIP 712 domain separator\n                    DOMAIN_TYPE_HASH,\n                    DOMAIN_NAME_HASH,\n                    DOMAIN_VERSION_HASH,\n                    CHAIN_ID, // (Change to block.chain_id after EIP-1344 support)\n                    this, // contract address\n                    // Application-specific domain separator\n                    // Ensures msgs for different subgraphs cannot be reused\n                    // Note: Not necessary when subgraphs are factory pattern because of contract address\n                    _subgraphId // EIP-712 Salt\n            )),\n            keccak256(abi.encode( // EIP 712-encoded message hash\n                    ATTESTATION_TYPE_HASH,\n                    _attestation.slice(0, ATTESTATION_SIZE_BYTES-65) // Everything except the signature\n            ))\n        ));\n\n        // Decode the signature\n        (uint8 v, bytes32 r, bytes32 s) = abi.decode( // VRS signature components\n                _attestation.slice(ATTESTATION_SIZE_BYTES-65, 65), // just the signature\n                (uint8, bytes32, bytes32) // V, R, and S\n            );\n\n        // Obtain the signer of the fully-encoded EIP-712 message hash\n        // Note: The signer of the attestation is the indexing node that served it\n        address _indexingNode = ecrecover(_disputeId, v, r, s);\n        uint256 _stake;\n        if (_subgraphId == graphSubgraphID) {\n            (bool found, uint256 userIndex) = findGraphIndexerIndex(_indexingNode);\n            require(found != false, \"This address is not a graph subgraph indexer.\");\n            // Get amount _indexingNode has staked (amountStaked is member 0)\n            _stake = graphIndexingNodes[userIndex].amountStaked;\n        } else {\n            _stake = indexingNodes[_subgraphId][_indexingNode].amountStaked;\n        }\n        require(_stake > 0); // This also validates that _indexingNode exists\n\n        // Ensure that fisherman has posted at least that amount\n        require(_amount >= getRewardForValue(_stake));\n        // NOTE: There is a potential for a front-running attack against a fisherman\n        //       by the indexing node if this were strictly equal to the amount of\n        //       reward that the fisherman were to expect. As a partial mitigation for\n        //       this, the fisherman can over-stake their bond. For every X amount that\n        //       the fisherman overstakes by, the staker would have to also up their\n        //       stake by the same proportion, and due to the reward being slasingPercent\n        //       of the total stake already, the amount the indexing node would have to\n        //       up their stake by would be a significant multiple of this increase.\n        //\n        //       As an example, if slashingPercent were 10%, and the indexer had staked\n        //       100 tokens, the minimum the fisherman would be required to stake is 10\n        //       tokens. If the fisherman staked 20 tokens instead on their dispute, the\n        //       indexing node would have to stake more than 100 tokens extra to front-\n        //       run their dispute and cancel it before it is created. This is a safety\n        //       factor of 10x for the fisherman. The smaller slashingPercent is, the\n        //       larger the multiple would be.\n        //\n        //       Due to this mechanic, this partial mitigation may be enough to defend\n        //       against this in practice until a better design is contructed that takes\n        //       this into account.\n\n        // A fisherman can only open one dispute with a given indexing node\n        // per subgraphId at a time\n        require(disputes[_disputeId].fisherman == address(0)); // Must be empty\n\n        // Store dispute\n        disputes[_disputeId] = Dispute(_subgraphId, _indexingNode, _fisherman, _amount);\n\n        // Log event that new dispute was created against _indexingNode\n        emit DisputeCreated(_subgraphId, _indexingNode, _fisherman, _disputeId, _attestation);\n    }\n\n    /**\n     * @dev The arbitrator can verify a dispute as being valid.\n     * @param _disputeId <bytes32> - ID of the dispute to be verified\n     */\n    function verifyDispute (\n        bytes32 _disputeId\n    )\n        external\n        onlyArbitrator\n        returns (bool success)\n    {\n        // Input validation, read storage for later (when deleted)\n        uint256 _bond = disputes[_disputeId].depositAmount;\n        require(_bond > 0); // Ensure this is a valid dispute\n        address _fisherman = disputes[_disputeId].fisherman;\n        address _indexer = disputes[_disputeId].indexingNode;\n        bytes32 _subgraphId = disputes[_disputeId].subgraphId;\n        delete disputes[_disputeId]; // Re-entrancy protection\n\n        // Have staking slash the index node and reward the fisherman\n        // Give the fisherman a reward equal to the slashingPercent of the indexer's stake\n        uint256 _stake;\n        uint256 _fees;\n        if (_subgraphId == graphSubgraphID) {\n            (bool found, uint256 userIndex) = findGraphIndexerIndex(_indexer);\n            require(found != false, \"This address is not a graph subgraph indexer.\");\n            // Get amount _indexingNode has staked (amountStaked is member 0)\n            _stake = graphIndexingNodes[userIndex].amountStaked;\n            // Capture the fees that the indexer would've earned\n            _fees = graphIndexingNodes[userIndex].feesAccrued;\n            delete graphIndexingNodes[userIndex]; // Re-entrancy protection\n        } else {\n            _stake = indexingNodes[_subgraphId][_indexer].amountStaked;\n            _fees = indexingNodes[_subgraphId][_indexer].feesAccrued;\n            delete indexingNodes[_subgraphId][_indexer]; // Re-entrancy protection\n        }\n        assert(_stake > 0); // Ensure this is a valid staker (should always be true)\n        uint256 _reward = getRewardForValue(_stake);\n        assert(_reward <= _stake); // sanity check on fixed-point math\n\n        // Remove Indexing Node from Subgraph's stakers\n        subgraphs[_subgraphId].totalIndexingStake -= _stake;\n        subgraphs[_subgraphId].totalIndexers -= 1;\n        emit IndexingNodeBeginLogout(_indexer, _subgraphId);\n\n        // Give governance the difference between the fisherman's reward and the total stake\n        // plus the Indexing Node's accrued fees\n        token.transfer(governor, (_stake - _reward) + _fees); // TODO Burn or give to governance?\n\n        // Give the fisherman their reward and bond back\n        token.transfer(_fisherman, _reward + _bond);\n\n        // Log event that we awarded _fisherman _reward in resolving _disputeId\n        emit DisputeAccepted(_disputeId, _subgraphId, _indexer, _reward);\n        success = true;\n    }\n\n    /**\n     * @dev The arbitrator can reject a dispute as being invalid.\n     * @param _disputeId <bytes32> - ID of the dispute to be rejected\n     */\n    function rejectDispute (\n        bytes32 _disputeId\n    )\n        external\n        onlyArbitrator\n        returns (bool success)\n    {\n        // Input validation, read storage for later (when deleted)\n        uint256 _bond = disputes[_disputeId].depositAmount;\n        require(_bond > 0); // Ensure this is a valid dispute\n        address _fisherman = disputes[_disputeId].fisherman;\n        bytes32 _subgraphId = disputes[_disputeId].subgraphId;\n        delete disputes[_disputeId]; // Re-entrancy protection\n\n        // Slash the fisherman's bond and send to the governor\n        token.transfer(governor, _bond); // TODO Burn or give to governance?\n\n        // Log event that we slashed _fisherman for _bond in resolving _disputeId\n        emit DisputeRejected(_disputeId, _subgraphId, _fisherman, _bond);\n        success = true;\n    }\n\n    /**\n     * @dev Distribute the channel fees to the given Indexing Node and all the Curators\n     *      for that subgraph. Curator fees are applied through reserve balance increase\n     *      so every Curator logout will earn back more coins back per share, and shares\n     *      cost more to buy.\n     * @param _subgraphId <bytes32> - Subgraph that the fees were accrued for.\n     * @param _indexingNode <address> - Indexing Node that earned the fees.\n     * @param _feesEarned <uint256> - Total amount of fees earned.\n     */\n    function distributeChannelFees (\n        bytes32 _subgraphId,\n        address _indexingNode, // TODO DK - Why is this here? does msg.sender replace this?\n        uint256 _feesEarned\n    )\n        private\n    {\n        // Each share minted gives basis point (0.01%) of the fee collected in that subgraph.\n        uint256 _curatorRewardBasisPts = subgraphs[_subgraphId].totalCurationShares * BASIS_PT;\n        assert(_curatorRewardBasisPts < MAX_PPM); // should be less than 100%\n        uint256 _curatorPortion = (_curatorRewardBasisPts * _feesEarned) / MAX_PPM;\n\n        if (_subgraphId == graphSubgraphID) {\n            (bool found, uint256 userIndex) = findGraphIndexerIndex(msg.sender);\n            require(found != false, \"This address is not a graph subgraph indexer.\");\n            // Give the indexing node their part of the fees\n            graphIndexingNodes[userIndex].feesAccrued += (_feesEarned - _curatorPortion);\n        } else {\n            indexingNodes[_subgraphId][msg.sender].feesAccrued += (_feesEarned - _curatorPortion);\n        }\n\n        // Increase the token balance for the subgraph (each share gets more tokens when sold)\n        subgraphs[_subgraphId].totalCurationStake += _curatorPortion;\n    }\n\n    /**\n     * @dev The Indexing Node can get all of their accrued fees for a subgraph at once.\n     *      Indexing Node would be able to log out all the fees they earned during a dispute.\n     * @param _subgraphId <bytes32> - Subgraph the Indexing Node wishes to withdraw for.\n     */\n    function withdrawFees (\n        bytes32 _subgraphId\n    )\n        external\n    {\n        uint256 _feesAccrued;\n        if (_subgraphId == graphSubgraphID) {\n            (bool found, uint256 userIndex) = findGraphIndexerIndex(msg.sender);\n            require(found != false, \"This address is not a graph subgraph indexer.\");\n            _feesAccrued = graphIndexingNodes[userIndex].feesAccrued;\n            require(_feesAccrued > 0);\n            graphIndexingNodes[userIndex].feesAccrued = 0; // Re-entrancy protection\n        } else {\n            _feesAccrued = indexingNodes[_subgraphId][msg.sender].feesAccrued;\n            require(_feesAccrued > 0);\n            indexingNodes[_subgraphId][msg.sender].feesAccrued = 0; // Re-entrancy protection\n        }\n        token.transfer(msg.sender, _feesAccrued);\n    }\n\n    /**\n     * @dev A function to help find the location of the indexer in the dynamic array. Note that\n            it must return if the value was found, because an index of 0 can be literally the\n            index of 0, or else it refers to an address that was not found.\n     * @param _indexer <address> - The address of the indexer to look up.\n    */\n    function findGraphIndexerIndex (address _indexer)\n        private\n        view\n        returns\n        (bool found, uint256 userIndex)  {\n        // We must find the indexers location in the array first\n        for (uint256 i; i < graphIndexingNodes.length; i++){\n            if (graphIndexingNodes[i].indexer == _indexer){\n                userIndex = i;\n                found = true;\n                break;\n            }\n        }\n    }\n}\n",
  "sourcePath": "/Users/davidkajpust/coding-no-icloud-backup/thegraph/dave/contracts/contracts/Staking.sol",
  "compiler": {
    "name": "solc",
    "version": "0.5.2+commit.1df8f40c.Emscripten.clang"
  },
  "schemaVersion": "3.0.10",
  "updatedAt": "2019-07-31T20:30:17.112Z",
  "devdoc": {
    "methods": {
      "beginLogout(bytes32)": {
        "details": "Indexing node can start logout process",
        "params": {
          "_subgraphId": "<bytes32> - Subgraph ID the Indexing Node has staked Graph Tokens for"
        }
      },
      "constructor": {
        "details": "Staking Contract Constructor",
        "params": {
          "_governor": "<address> - Address of the multisig contract as Governor of this contract",
          "_token": "<address> - Address of the Graph Protocol token"
        }
      },
      "curatorLogout(bytes32,uint256)": {
        "details": "Return any amount of shares to get tokens back (above the minimum)",
        "params": {
          "_numShares": "<uint256> - Amount of shares to return",
          "_subgraphId": "<bytes32> - Subgraph ID the Curator is returning shares for"
        }
      },
      "finalizeLogout(bytes32)": {
        "details": "Indexing node can finish the logout process after a thawing off period",
        "params": {
          "_subgraphId": "<bytes32> - Subgraph ID the Indexing Node has staked Graph Tokens for"
        }
      },
      "getRewardForValue(uint256)": {
        "details": "Get the amount of fisherman reward for a given amount of stake",
        "params": {
          "_value": "<uint256> - Amount of validator's stake"
        },
        "return": "<uint256> - Percentage of validator's stake to be considered a reward"
      },
      "rejectDispute(bytes32)": {
        "details": "The arbitrator can reject a dispute as being invalid.",
        "params": {
          "_disputeId": "<bytes32> - ID of the dispute to be rejected"
        }
      },
      "setArbitrator(address)": {
        "details": "Set the arbitrator address",
        "params": {
          "_arbitrator": "<address> - The address of the arbitration contract or party"
        }
      },
      "setGraphSubgraphID(bytes32)": {
        "details": "Set the graph subgraph ID",
        "params": {
          "_subgraphID": "<bytes32> - The subgraph ID of the bootstrapping subgraph ID"
        }
      },
      "setMaximumIndexers(uint256)": {
        "details": "Set the maximum number of Indexing Nodes",
        "params": {
          "_maximumIndexers": "<uint256> - Maximum number of Indexing Nodes allowed"
        }
      },
      "setMinimumCurationStakingAmount(uint256)": {
        "details": "Set the Minimum Staking Amount for Market Curators",
        "params": {
          "_minimumCurationStakingAmount": "<uint256> - Minimum amount allowed to be staked for Curation"
        }
      },
      "setMinimumIndexingStakingAmount(uint256)": {
        "details": "Set the Minimum Staking Amount for Indexing Nodes",
        "params": {
          "_minimumIndexingStakingAmount": "<uint256> - Minimum amount allowed to be staked for Indexing Nodes"
        }
      },
      "sharesToStake(uint256,uint256,uint256,uint256)": {
        "details": "Calculate number of tokens that should be returned for the proportion     of _returnedShares to _currentShares, along the given bonding curve",
        "params": {
          "_currentShares": "<uint256> - Total amount of current shares issued",
          "_currentTokens": "<uint256> - Total amount of tokens currently in reserves",
          "_reserveRatio": "<uint256> - Desired reserve ratio to maintain (in PPM)",
          "_returnedShares": "<uint256> - Amount of shares being returned"
        },
        "return": "refundTokens <uint256> - Amount of tokens to return given the above"
      },
      "stakeToShares(uint256,uint256,uint256,uint256)": {
        "details": "Calculate number of shares that should be issued in return for     staking of _purchaseAmount of tokens, along the given bonding curve",
        "params": {
          "_currentShares": "<uint256> - Total amount of current shares issued",
          "_currentTokens": "<uint256> - Total amount of tokens currently in reserves",
          "_purchaseTokens": "<uint256> - Amount of tokens being staked (purchase amount)",
          "_reserveRatio": "<uint256> - Desired reserve ratio to maintain (in PPM)"
        },
        "return": "issuedShares <uint256> - Amount of additional shares issued given the above"
      },
      "tokensReceived(address,uint256,bytes)": {
        "details": "Accept tokens and handle staking registration functions",
        "params": {
          "_data": "<bytes> - Data to parse and handle registration functions",
          "_from": "<address> - Token holder's address",
          "_value": "<uint256> - Amount of Graph Tokens"
        }
      },
      "transferGovernance(address)": {
        "details": "The current `governor` can assign a new `governor`",
        "params": {
          "_newGovernor": "<address> Address of new `governor`"
        }
      },
      "updateDefaultReserveRatio(uint256)": {
        "details": "Set the percent that the default reserve ratio is for new subgraphs",
        "params": {
          "_defaultReserveRatio": "<uint256> - Reserve ratio (in percent)"
        }
      },
      "updateSlashingPercentage(uint256)": {
        "details": "Set the percent that the fisherman gets when slashing occurs",
        "params": {
          "_slashingPercent": "<uint256> - Slashing percent"
        }
      },
      "updateThawingPeriod(uint256)": {
        "details": "Set the thawing period for indexer logout",
        "params": {
          "_thawingPeriod": "<uint256> - Number of seconds for thawing period"
        }
      },
      "verifyDispute(bytes32)": {
        "details": "The arbitrator can verify a dispute as being valid.",
        "params": {
          "_disputeId": "<bytes32> - ID of the dispute to be verified"
        }
      },
      "withdrawFees(bytes32)": {
        "details": "The Indexing Node can get all of their accrued fees for a subgraph at once.     Indexing Node would be able to log out all the fees they earned during a dispute.",
        "params": {
          "_subgraphId": "<bytes32> - Subgraph the Indexing Node wishes to withdraw for."
        }
      }
    }
  },
  "userdoc": {
    "methods": {}
  }
}