{
  "_format": "hh-sol-artifact-1",
  "contractName": "BridgeEscrow",
  "sourceName": "contracts/gateway/BridgeEscrow.sol",
  "abi": [
    {
      "anonymous": false,
      "inputs": [
        {
          "indexed": true,
          "internalType": "bytes32",
          "name": "nameHash",
          "type": "bytes32"
        },
        {
          "indexed": false,
          "internalType": "address",
          "name": "contractAddress",
          "type": "address"
        }
      ],
      "name": "ContractSynced",
      "type": "event"
    },
    {
      "anonymous": false,
      "inputs": [
        {
          "indexed": false,
          "internalType": "string",
          "name": "param",
          "type": "string"
        }
      ],
      "name": "ParameterUpdated",
      "type": "event"
    },
    {
      "anonymous": false,
      "inputs": [
        {
          "indexed": false,
          "internalType": "address",
          "name": "controller",
          "type": "address"
        }
      ],
      "name": "SetController",
      "type": "event"
    },
    {
      "inputs": [
        {
          "internalType": "contract IGraphProxy",
          "name": "_proxy",
          "type": "address"
        }
      ],
      "name": "acceptProxy",
      "outputs": [],
      "stateMutability": "nonpayable",
      "type": "function"
    },
    {
      "inputs": [
        {
          "internalType": "contract IGraphProxy",
          "name": "_proxy",
          "type": "address"
        },
        {
          "internalType": "bytes",
          "name": "_data",
          "type": "bytes"
        }
      ],
      "name": "acceptProxyAndCall",
      "outputs": [],
      "stateMutability": "nonpayable",
      "type": "function"
    },
    {
      "inputs": [
        {
          "internalType": "address",
          "name": "_spender",
          "type": "address"
        }
      ],
      "name": "approveAll",
      "outputs": [],
      "stateMutability": "nonpayable",
      "type": "function"
    },
    {
      "inputs": [],
      "name": "controller",
      "outputs": [
        {
          "internalType": "contract IController",
          "name": "",
          "type": "address"
        }
      ],
      "stateMutability": "view",
      "type": "function"
    },
    {
      "inputs": [
        {
          "internalType": "address",
          "name": "_controller",
          "type": "address"
        }
      ],
      "name": "initialize",
      "outputs": [],
      "stateMutability": "nonpayable",
      "type": "function"
    },
    {
      "inputs": [
        {
          "internalType": "address",
          "name": "_spender",
          "type": "address"
        }
      ],
      "name": "revokeAll",
      "outputs": [],
      "stateMutability": "nonpayable",
      "type": "function"
    },
    {
      "inputs": [
        {
          "internalType": "address",
          "name": "_controller",
          "type": "address"
        }
      ],
      "name": "setController",
      "outputs": [],
      "stateMutability": "nonpayable",
      "type": "function"
    },
    {
      "inputs": [],
      "name": "syncAllContracts",
      "outputs": [],
      "stateMutability": "nonpayable",
      "type": "function"
    }
  ],
  "bytecode": "0x6101606040527fe6876326c1291dfcbbd3864a6816d698cd591defc7aa2153d7f9c4c04016c89f6080527fc713c3df6d14cdf946460395d09af88993ee2b948b1a808161494e32c5f6706360a0527f966f1e8d8d8014e05f6ec4a57138da9be1f7c5a7f802928a18072f7c5318076160c0527f1df41cd916959d1163dc8f0671a666ea8a3e434c13e40faef527133b5d16703460e0527f45fc200c7e4544e457d3c5709bfe0d520442c30bbcbdaede89e8d4a4bbc19247610100527fd362cac9cb75c10d67bcc0b7eeb0b1ef48bb5420b556c092d4fd7f758816fcf0610120527f39605a6c26a173774ca666c67ef70cf491880e5d3d6d0ca66ec0a31034f15ea36101405234801561011057600080fd5b5060805160a05160c05160e051610100516101205161014051610c376101696000398061071f5250806106f65250806106cd528061089e5250806106a452508061067b5250806106525250806106295250610c376000f3fe608060405234801561001057600080fd5b50600436106100885760003560e01c8063c4d66de81161005b578063c4d66de814610181578063d6866ea5146101a7578063e7dd4b2c146101af578063f77c4791146101d557610088565b80630621472c1461008d57806392eefe9b146100b55780639ce7abe5146100db578063a2594d821461015b575b600080fd5b6100b3600480360360208110156100a357600080fd5b50356001600160a01b03166101f9565b005b6100b3600480360360208110156100cb57600080fd5b50356001600160a01b0316610290565b6100b3600480360360408110156100f157600080fd5b6001600160a01b03823516919081019060408101602082013564010000000081111561011c57600080fd5b82018360208201111561012e57600080fd5b8035906020019184600183028401116401000000008311171561015057600080fd5b5090925090506102a4565b6100b36004803603602081101561017157600080fd5b50356001600160a01b03166103fa565b6100b36004803603602081101561019757600080fd5b50356001600160a01b0316610515565b6100b3610624565b6100b3600480360360208110156101c557600080fd5b50356001600160a01b0316610745565b6101dd6107ac565b604080516001600160a01b039092168252519081900360200190f35b6102016107c1565b610209610897565b6001600160a01b031663095ea7b3826000196040518363ffffffff1660e01b815260040180836001600160a01b0316815260200182815260200192505050602060405180830381600087803b15801561026157600080fd5b505af1158015610275573d6000803e3d6000fd5b505050506040513d602081101561028b57600080fd5b505050565b6102986108c7565b6102a18161092c565b50565b82806001600160a01b031663f851a4406040518163ffffffff1660e01b8152600401602060405180830381600087803b1580156102e057600080fd5b505af11580156102f4573d6000803e3d6000fd5b505050506040513d602081101561030a57600080fd5b50516001600160a01b03163314610368576040805162461bcd60e51b815260206004820152601e60248201527f43616c6c6572206d757374206265207468652070726f78792061646d696e0000604482015290519081900360640190fd5b60405163623faf6160e01b8152602060048201908152602482018490526001600160a01b0386169163623faf619186918691908190604401848480828437600081840152601f19601f8201169050808301925050509350505050600060405180830381600087803b1580156103dc57600080fd5b505af11580156103f0573d6000803e3d6000fd5b5050505050505050565b80806001600160a01b031663f851a4406040518163ffffffff1660e01b8152600401602060405180830381600087803b15801561043657600080fd5b505af115801561044a573d6000803e3d6000fd5b505050506040513d602081101561046057600080fd5b50516001600160a01b031633146104be576040805162461bcd60e51b815260206004820152601e60248201527f43616c6c6572206d757374206265207468652070726f78792061646d696e0000604482015290519081900360640190fd5b816001600160a01b03166359fc20bb6040518163ffffffff1660e01b8152600401600060405180830381600087803b1580156104f957600080fd5b505af115801561050d573d6000803e3d6000fd5b505050505050565b61051d6109de565b6001600160a01b0316336001600160a01b031614610578576040805162461bcd60e51b815260206004820152601360248201527227b7363c9034b6b83632b6b2b73a30ba34b7b760691b604482015290519081900360640190fd5b600054610100900460ff16806105915750610591610a03565b8061059f575060005460ff16155b6105da5760405162461bcd60e51b815260040180806020018281038252602e815260200180610bd4602e913960400191505060405180910390fd5b600054610100900460ff16158015610605576000805460ff1961ff0019909116610100171660011790555b61060e82610298565b8015610620576000805461ff00191690555b5050565b61064d7f0000000000000000000000000000000000000000000000000000000000000000610a14565b6106767f0000000000000000000000000000000000000000000000000000000000000000610a14565b61069f7f0000000000000000000000000000000000000000000000000000000000000000610a14565b6106c87f0000000000000000000000000000000000000000000000000000000000000000610a14565b6106f17f0000000000000000000000000000000000000000000000000000000000000000610a14565b61071a7f0000000000000000000000000000000000000000000000000000000000000000610a14565b6107437f0000000000000000000000000000000000000000000000000000000000000000610a14565b565b61074d6107c1565b610755610897565b6001600160a01b031663095ea7b38260006040518363ffffffff1660e01b815260040180836001600160a01b0316815260200182815260200192505050602060405180830381600087803b15801561026157600080fd5b6000546201000090046001600160a01b031681565b600060029054906101000a90046001600160a01b03166001600160a01b0316634fc07d756040518163ffffffff1660e01b815260040160206040518083038186803b15801561080f57600080fd5b505afa158015610823573d6000803e3d6000fd5b505050506040513d602081101561083957600080fd5b50516001600160a01b03163314610743576040805162461bcd60e51b815260206004820152601860248201527f4f6e6c7920436f6e74726f6c6c657220676f7665726e6f720000000000000000604482015290519081900360640190fd5b60006108c27f0000000000000000000000000000000000000000000000000000000000000000610b22565b905090565b6000546201000090046001600160a01b03163314610743576040805162461bcd60e51b815260206004820152601960248201527f43616c6c6572206d75737420626520436f6e74726f6c6c657200000000000000604482015290519081900360640190fd5b6001600160a01b038116610980576040805162461bcd60e51b815260206004820152601660248201527510dbdb9d1c9bdb1b195c881b5d5cdd081899481cd95d60521b604482015290519081900360640190fd5b600080546001600160a01b03831662010000810262010000600160b01b03199092169190911790915560408051918252517f4ff638452bbf33c012645d18ae6f05515ff5f2d1dfb0cece8cbf018c60903f709181900360200190a150565b7f360894a13ba1a3210667c828492db98dca3e2076cc3735a920a3ca505d382bbc5490565b6000610a0e30610bcd565b15905090565b60008060029054906101000a90046001600160a01b03166001600160a01b031663f7641a5e836040518263ffffffff1660e01b81526004018082815260200191505060206040518083038186803b158015610a6e57600080fd5b505afa158015610a82573d6000803e3d6000fd5b505050506040513d6020811015610a9857600080fd5b50516000838152600160205260409020549091506001600160a01b038083169116146106205760008281526001602090815260409182902080546001600160a01b0319166001600160a01b0385169081179091558251908152915184927fd0e7a942b1fc38c411c4f53d153ba14fd24542a6a35ebacd9b6afca1a154e20692908290030190a25050565b6000818152600160205260408120546001600160a01b031680610bc757600060029054906101000a90046001600160a01b03166001600160a01b031663f7641a5e846040518263ffffffff1660e01b81526004018082815260200191505060206040518083038186803b158015610b9857600080fd5b505afa158015610bac573d6000803e3d6000fd5b505050506040513d6020811015610bc257600080fd5b505190505b92915050565b3b15159056fe496e697469616c697a61626c653a20636f6e747261637420697320616c726561647920696e697469616c697a6564a2646970667358221220db5bf6ed6a6394146ce0c6f8770a20ad4f778d16c74558284981457141097a0964736f6c63430007060033",
  "linkReferences": {},
  "deployedLinkReferences": {}
}