{
  "_format": "hh-sol-artifact-1",
  "contractName": "GraphCurationToken",
  "sourceName": "contracts/curation/GraphCurationToken.sol",
  "abi": [
    {
      "anonymous": false,
      "inputs": [
        {
          "indexed": true,
          "internalType": "address",
          "name": "owner",
          "type": "address"
        },
        {
          "indexed": true,
          "internalType": "address",
          "name": "spender",
          "type": "address"
        },
        {
          "indexed": false,
          "internalType": "uint256",
          "name": "value",
          "type": "uint256"
        }
      ],
      "name": "Approval",
      "type": "event"
    },
    {
      "anonymous": false,
      "inputs": [
        {
          "indexed": true,
          "internalType": "address",
          "name": "from",
          "type": "address"
        },
        {
          "indexed": true,
          "internalType": "address",
          "name": "to",
          "type": "address"
        }
      ],
      "name": "NewOwnership",
      "type": "event"
    },
    {
      "anonymous": false,
      "inputs": [
        {
          "indexed": true,
          "internalType": "address",
          "name": "from",
          "type": "address"
        },
        {
          "indexed": true,
          "internalType": "address",
          "name": "to",
          "type": "address"
        }
      ],
      "name": "NewPendingOwnership",
      "type": "event"
    },
    {
      "anonymous": false,
      "inputs": [
        {
          "indexed": true,
          "internalType": "address",
          "name": "from",
          "type": "address"
        },
        {
          "indexed": true,
          "internalType": "address",
          "name": "to",
          "type": "address"
        },
        {
          "indexed": false,
          "internalType": "uint256",
          "name": "value",
          "type": "uint256"
        }
      ],
      "name": "Transfer",
      "type": "event"
    },
    {
      "inputs": [],
      "name": "acceptOwnership",
      "outputs": [],
      "stateMutability": "nonpayable",
      "type": "function"
    },
    {
      "inputs": [
        {
          "internalType": "address",
          "name": "owner",
          "type": "address"
        },
        {
          "internalType": "address",
          "name": "spender",
          "type": "address"
        }
      ],
      "name": "allowance",
      "outputs": [
        {
          "internalType": "uint256",
          "name": "",
          "type": "uint256"
        }
      ],
      "stateMutability": "view",
      "type": "function"
    },
    {
      "inputs": [
        {
          "internalType": "address",
          "name": "spender",
          "type": "address"
        },
        {
          "internalType": "uint256",
          "name": "amount",
          "type": "uint256"
        }
      ],
      "name": "approve",
      "outputs": [
        {
          "internalType": "bool",
          "name": "",
          "type": "bool"
        }
      ],
      "stateMutability": "nonpayable",
      "type": "function"
    },
    {
      "inputs": [
        {
          "internalType": "address",
          "name": "account",
          "type": "address"
        }
      ],
      "name": "balanceOf",
      "outputs": [
        {
          "internalType": "uint256",
          "name": "",
          "type": "uint256"
        }
      ],
      "stateMutability": "view",
      "type": "function"
    },
    {
      "inputs": [
        {
          "internalType": "address",
          "name": "_account",
          "type": "address"
        },
        {
          "internalType": "uint256",
          "name": "_amount",
          "type": "uint256"
        }
      ],
      "name": "burnFrom",
      "outputs": [],
      "stateMutability": "nonpayable",
      "type": "function"
    },
    {
      "inputs": [],
      "name": "decimals",
      "outputs": [
        {
          "internalType": "uint8",
          "name": "",
          "type": "uint8"
        }
      ],
      "stateMutability": "view",
      "type": "function"
    },
    {
      "inputs": [
        {
          "internalType": "address",
          "name": "spender",
          "type": "address"
        },
        {
          "internalType": "uint256",
          "name": "subtractedValue",
          "type": "uint256"
        }
      ],
      "name": "decreaseAllowance",
      "outputs": [
        {
          "internalType": "bool",
          "name": "",
          "type": "bool"
        }
      ],
      "stateMutability": "nonpayable",
      "type": "function"
    },
    {
      "inputs": [],
      "name": "governor",
      "outputs": [
        {
          "internalType": "address",
          "name": "",
          "type": "address"
        }
      ],
      "stateMutability": "view",
      "type": "function"
    },
    {
      "inputs": [
        {
          "internalType": "address",
          "name": "spender",
          "type": "address"
        },
        {
          "internalType": "uint256",
          "name": "addedValue",
          "type": "uint256"
        }
      ],
      "name": "increaseAllowance",
      "outputs": [
        {
          "internalType": "bool",
          "name": "",
          "type": "bool"
        }
      ],
      "stateMutability": "nonpayable",
      "type": "function"
    },
    {
      "inputs": [
        {
          "internalType": "address",
          "name": "_owner",
          "type": "address"
        }
      ],
      "name": "initialize",
      "outputs": [],
      "stateMutability": "nonpayable",
      "type": "function"
    },
    {
      "inputs": [
        {
          "internalType": "address",
          "name": "_to",
          "type": "address"
        },
        {
          "internalType": "uint256",
          "name": "_amount",
          "type": "uint256"
        }
      ],
      "name": "mint",
      "outputs": [],
      "stateMutability": "nonpayable",
      "type": "function"
    },
    {
      "inputs": [],
      "name": "name",
      "outputs": [
        {
          "internalType": "string",
          "name": "",
          "type": "string"
        }
      ],
      "stateMutability": "view",
      "type": "function"
    },
    {
      "inputs": [],
      "name": "pendingGovernor",
      "outputs": [
        {
          "internalType": "address",
          "name": "",
          "type": "address"
        }
      ],
      "stateMutability": "view",
      "type": "function"
    },
    {
      "inputs": [],
      "name": "symbol",
      "outputs": [
        {
          "internalType": "string",
          "name": "",
          "type": "string"
        }
      ],
      "stateMutability": "view",
      "type": "function"
    },
    {
      "inputs": [],
      "name": "totalSupply",
      "outputs": [
        {
          "internalType": "uint256",
          "name": "",
          "type": "uint256"
        }
      ],
      "stateMutability": "view",
      "type": "function"
    },
    {
      "inputs": [
        {
          "internalType": "address",
          "name": "recipient",
          "type": "address"
        },
        {
          "internalType": "uint256",
          "name": "amount",
          "type": "uint256"
        }
      ],
      "name": "transfer",
      "outputs": [
        {
          "internalType": "bool",
          "name": "",
          "type": "bool"
        }
      ],
      "stateMutability": "nonpayable",
      "type": "function"
    },
    {
      "inputs": [
        {
          "internalType": "address",
          "name": "sender",
          "type": "address"
        },
        {
          "internalType": "address",
          "name": "recipient",
          "type": "address"
        },
        {
          "internalType": "uint256",
          "name": "amount",
          "type": "uint256"
        }
      ],
      "name": "transferFrom",
      "outputs": [
        {
          "internalType": "bool",
          "name": "",
          "type": "bool"
        }
      ],
      "stateMutability": "nonpayable",
      "type": "function"
    },
    {
      "inputs": [
        {
          "internalType": "address",
          "name": "_newGovernor",
          "type": "address"
        }
      ],
      "name": "transferOwnership",
      "outputs": [],
      "stateMutability": "nonpayable",
      "type": "function"
    }
  ],
  "bytecode": "0x608060405234801561001057600080fd5b506114ec806100206000396000f3fe608060405234801561001057600080fd5b50600436106101165760003560e01c806379ba5097116100a2578063a9059cbb11610071578063a9059cbb14610352578063c4d66de81461037e578063dd62ed3e146103a4578063e3056a34146103d2578063f2fde38b146103da57610116565b806379ba5097146102ea57806379cc6790146102f257806395d89b411461031e578063a457c2d71461032657610116565b806323b872dd116100e957806323b872dd14610216578063313ce5671461024c578063395093511461026a57806340c10f191461029657806370a08231146102c457610116565b806306fdde031461011b578063095ea7b3146101985780630c340a24146101d857806318160ddd146101fc575b600080fd5b610123610400565b6040805160208082528351818301528351919283929083019185019080838360005b8381101561015d578181015183820152602001610145565b50505050905090810190601f16801561018a5780820380516001836020036101000a031916815260200191505b509250505060405180910390f35b6101c4600480360360408110156101ae57600080fd5b506001600160a01b038135169060200135610496565b604080519115158252519081900360200190f35b6101e06104b3565b604080516001600160a01b039092168252519081900360200190f35b6102046104c2565b60408051918252519081900360200190f35b6101c46004803603606081101561022c57600080fd5b506001600160a01b038135811691602081013590911690604001356104c8565b61025461054f565b6040805160ff9092168252519081900360200190f35b6101c46004803603604081101561028057600080fd5b506001600160a01b038135169060200135610558565b6102c2600480360360408110156102ac57600080fd5b506001600160a01b0381351690602001356105a6565b005b610204600480360360208110156102da57600080fd5b50356001600160a01b031661060c565b6102c2610627565b6102c26004803603604081101561030857600080fd5b506001600160a01b038135169060200135610737565b610123610799565b6101c46004803603604081101561033c57600080fd5b506001600160a01b0381351690602001356107fa565b6101c46004803603604081101561036857600080fd5b506001600160a01b038135169060200135610862565b6102c26004803603602081101561039457600080fd5b50356001600160a01b0316610876565b610204600480360360408110156103ba57600080fd5b506001600160a01b0381358116916020013516610972565b6101e061099d565b6102c2600480360360208110156103f057600080fd5b50356001600160a01b03166109ac565b60368054604080516020601f600260001961010060018816150201909516949094049384018190048102820181019092528281526060939092909183018282801561048c5780601f106104615761010080835404028352916020019161048c565b820191906000526020600020905b81548152906001019060200180831161046f57829003601f168201915b5050505050905090565b60006104aa6104a3610aaa565b8484610aae565b50600192915050565b6065546001600160a01b031681565b60355490565b60006104d5848484610b9a565b610545846104e1610aaa565b61054085604051806060016040528060288152602001611400602891396001600160a01b038a1660009081526034602052604081209061051f610aaa565b6001600160a01b031681526020810191909152604001600020549190610cf7565b610aae565b5060019392505050565b60385460ff1690565b60006104aa610565610aaa565b846105408560346000610576610aaa565b6001600160a01b03908116825260208083019390935260409182016000908120918c168152925290205490610d8e565b6065546001600160a01b031633146105fe576040805162461bcd60e51b815260206004820152601660248201527513db9b1e4811dbdd995c9b9bdc8818d85b8818d85b1b60521b604482015290519081900360640190fd5b6106088282610def565b5050565b6001600160a01b031660009081526033602052604090205490565b6066546001600160a01b0316801580159061064a5750336001600160a01b038216145b61069b576040805162461bcd60e51b815260206004820152601f60248201527f43616c6c6572206d7573742062652070656e64696e6720676f7665726e6f7200604482015290519081900360640190fd5b606580546001600160a01b038381166001600160a01b0319808416919091179384905560668054909116905560405191811692169082907f0ac6deed30eef60090c749850e10f2fa469e3e25fec1d1bef2853003f6e6f18f90600090a36066546040516001600160a01b03918216918416907f76563ad561b7036ae716b9b25cb521b21463240f104c97e12f25877f2235f33d90600090a35050565b6065546001600160a01b0316331461078f576040805162461bcd60e51b815260206004820152601660248201527513db9b1e4811dbdd995c9b9bdc8818d85b8818d85b1b60521b604482015290519081900360640190fd5b6106088282610ee1565b60378054604080516020601f600260001961010060018816150201909516949094049384018190048102820181019092528281526060939092909183018282801561048c5780601f106104615761010080835404028352916020019161048c565b60006104aa610807610aaa565b84610540856040518060600160405280602581526020016114926025913960346000610831610aaa565b6001600160a01b03908116825260208083019390935260409182016000908120918d16815292529020549190610cf7565b60006104aa61086f610aaa565b8484610b9a565b600054610100900460ff168061088f575061088f610fdd565b8061089d575060005460ff16155b6108d85760405162461bcd60e51b815260040180806020018281038252602e8152602001806113d2602e913960400191505060405180910390fd5b600054610100900460ff16158015610903576000805460ff1961ff0019909116610100171660011790555b61090c82610fee565b61095d604051806040016040528060148152602001734772617068204375726174696f6e20536861726560601b8152506040518060400160405280600381526020016247435360e81b815250611010565b8015610608576000805461ff00191690555050565b6001600160a01b03918216600090815260346020908152604080832093909416825291909152205490565b6066546001600160a01b031681565b6065546001600160a01b03163314610a04576040805162461bcd60e51b815260206004820152601660248201527513db9b1e4811dbdd995c9b9bdc8818d85b8818d85b1b60521b604482015290519081900360640190fd5b6001600160a01b038116610a56576040805162461bcd60e51b815260206004820152601460248201527311dbdd995c9b9bdc881b5d5cdd081899481cd95d60621b604482015290519081900360640190fd5b606680546001600160a01b038381166001600160a01b03198316179283905560405191811692169082907f76563ad561b7036ae716b9b25cb521b21463240f104c97e12f25877f2235f33d90600090a35050565b3390565b6001600160a01b038316610af35760405162461bcd60e51b815260040180806020018281038252602481526020018061146e6024913960400191505060405180910390fd5b6001600160a01b038216610b385760405162461bcd60e51b815260040180806020018281038252602281526020018061138a6022913960400191505060405180910390fd5b6001600160a01b03808416600081815260346020908152604080832094871680845294825291829020859055815185815291517f8c5be1e5ebec7d5bd14f71427d1e84f3dd0314c0f7b2291e5b200ac8c7c3b9259281900390910190a3505050565b6001600160a01b038316610bdf5760405162461bcd60e51b81526004018080602001828103825260258152602001806114496025913960400191505060405180910390fd5b6001600160a01b038216610c245760405162461bcd60e51b81526004018080602001828103825260238152602001806113456023913960400191505060405180910390fd5b610c2f8383836110c1565b610c6c816040518060600160405280602681526020016113ac602691396001600160a01b0386166000908152603360205260409020549190610cf7565b6001600160a01b038085166000908152603360205260408082209390935590841681522054610c9b9082610d8e565b6001600160a01b0380841660008181526033602090815260409182902094909455805185815290519193928716927fddf252ad1be2c89b69c2b068fc378daa952ba7f163c4a11628f55a4df523b3ef92918290030190a3505050565b60008184841115610d865760405162461bcd60e51b81526004018080602001828103825283818151815260200191508051906020019080838360005b83811015610d4b578181015183820152602001610d33565b50505050905090810190601f168015610d785780820380516001836020036101000a031916815260200191505b509250505060405180910390fd5b505050900390565b600082820183811015610de8576040805162461bcd60e51b815260206004820152601b60248201527f536166654d6174683a206164646974696f6e206f766572666c6f770000000000604482015290519081900360640190fd5b9392505050565b6001600160a01b038216610e4a576040805162461bcd60e51b815260206004820152601f60248201527f45524332303a206d696e7420746f20746865207a65726f206164647265737300604482015290519081900360640190fd5b610e56600083836110c1565b603554610e639082610d8e565b6035556001600160a01b038216600090815260336020526040902054610e899082610d8e565b6001600160a01b03831660008181526033602090815260408083209490945583518581529351929391927fddf252ad1be2c89b69c2b068fc378daa952ba7f163c4a11628f55a4df523b3ef9281900390910190a35050565b6001600160a01b038216610f265760405162461bcd60e51b81526004018080602001828103825260218152602001806114286021913960400191505060405180910390fd5b610f32826000836110c1565b610f6f81604051806060016040528060228152602001611368602291396001600160a01b0385166000908152603360205260409020549190610cf7565b6001600160a01b038316600090815260336020526040902055603554610f9590826110c6565b6035556040805182815290516000916001600160a01b038516917fddf252ad1be2c89b69c2b068fc378daa952ba7f163c4a11628f55a4df523b3ef9181900360200190a35050565b6000610fe830611123565b15905090565b606580546001600160a01b0319166001600160a01b0392909216919091179055565b600054610100900460ff16806110295750611029610fdd565b80611037575060005460ff16155b6110725760405162461bcd60e51b815260040180806020018281038252602e8152602001806113d2602e913960400191505060405180910390fd5b600054610100900460ff1615801561109d576000805460ff1961ff0019909116610100171660011790555b6110a5611129565b6110af83836111cb565b80156110c1576000805461ff00191690555b505050565b60008282111561111d576040805162461bcd60e51b815260206004820152601e60248201527f536166654d6174683a207375627472616374696f6e206f766572666c6f770000604482015290519081900360640190fd5b50900390565b3b151590565b600054610100900460ff16806111425750611142610fdd565b80611150575060005460ff16155b61118b5760405162461bcd60e51b815260040180806020018281038252602e8152602001806113d2602e913960400191505060405180910390fd5b600054610100900460ff161580156111b6576000805460ff1961ff0019909116610100171660011790555b80156111c8576000805461ff00191690555b50565b600054610100900460ff16806111e457506111e4610fdd565b806111f2575060005460ff16155b61122d5760405162461bcd60e51b815260040180806020018281038252602e8152602001806113d2602e913960400191505060405180910390fd5b600054610100900460ff16158015611258576000805460ff1961ff0019909116610100171660011790555b825161126b9060369060208601906112a3565b50815161127f9060379060208501906112a3565b506038805460ff1916601217905580156110c1576000805461ff0019169055505050565b828054600181600116156101000203166002900490600052602060002090601f0160209004810192826112d9576000855561131f565b82601f106112f257805160ff191683800117855561131f565b8280016001018555821561131f579182015b8281111561131f578251825591602001919060010190611304565b5061132b92915061132f565b5090565b5b8082111561132b576000815560010161133056fe45524332303a207472616e7366657220746f20746865207a65726f206164647265737345524332303a206275726e20616d6f756e7420657863656564732062616c616e636545524332303a20617070726f766520746f20746865207a65726f206164647265737345524332303a207472616e7366657220616d6f756e7420657863656564732062616c616e6365496e697469616c697a61626c653a20636f6e747261637420697320616c726561647920696e697469616c697a656445524332303a207472616e7366657220616d6f756e74206578636565647320616c6c6f77616e636545524332303a206275726e2066726f6d20746865207a65726f206164647265737345524332303a207472616e736665722066726f6d20746865207a65726f206164647265737345524332303a20617070726f76652066726f6d20746865207a65726f206164647265737345524332303a2064656372656173656420616c6c6f77616e63652062656c6f77207a65726fa26469706673582212200b687fddcd01dbad6e1d5fbd49cb041f69ed61684a12a4c26c6e37e0f5ad7c2a64736f6c63430007060033",
  "linkReferences": {},
  "deployedLinkReferences": {}
}