{
  "_format": "hh-sol-artifact-1",
  "contractName": "GraphProxyAdmin",
  "sourceName": "contracts/upgrades/GraphProxyAdmin.sol",
  "abi": [
    {
      "inputs": [],
      "stateMutability": "nonpayable",
      "type": "constructor"
    },
    {
      "anonymous": false,
      "inputs": [
        {
          "indexed": true,
          "internalType": "address",
          "name": "from",
          "type": "address"
        },
        {
          "indexed": true,
          "internalType": "address",
          "name": "to",
          "type": "address"
        }
      ],
      "name": "NewOwnership",
      "type": "event"
    },
    {
      "anonymous": false,
      "inputs": [
        {
          "indexed": true,
          "internalType": "address",
          "name": "from",
          "type": "address"
        },
        {
          "indexed": true,
          "internalType": "address",
          "name": "to",
          "type": "address"
        }
      ],
      "name": "NewPendingOwnership",
      "type": "event"
    },
    {
      "inputs": [],
      "name": "acceptOwnership",
      "outputs": [],
      "stateMutability": "nonpayable",
      "type": "function"
    },
    {
      "inputs": [
        {
          "internalType": "contract GraphUpgradeable",
          "name": "_implementation",
          "type": "address"
        },
        {
          "internalType": "contract IGraphProxy",
          "name": "_proxy",
          "type": "address"
        }
      ],
      "name": "acceptProxy",
      "outputs": [],
      "stateMutability": "nonpayable",
      "type": "function"
    },
    {
      "inputs": [
        {
          "internalType": "contract GraphUpgradeable",
          "name": "_implementation",
          "type": "address"
        },
        {
          "internalType": "contract IGraphProxy",
          "name": "_proxy",
          "type": "address"
        },
        {
          "internalType": "bytes",
          "name": "_data",
          "type": "bytes"
        }
      ],
      "name": "acceptProxyAndCall",
      "outputs": [],
      "stateMutability": "nonpayable",
      "type": "function"
    },
    {
      "inputs": [
        {
          "internalType": "contract IGraphProxy",
          "name": "_proxy",
          "type": "address"
        },
        {
          "internalType": "address",
          "name": "_newAdmin",
          "type": "address"
        }
      ],
      "name": "changeProxyAdmin",
      "outputs": [],
      "stateMutability": "nonpayable",
      "type": "function"
    },
    {
      "inputs": [
        {
          "internalType": "contract IGraphProxy",
          "name": "_proxy",
          "type": "address"
        }
      ],
      "name": "getProxyAdmin",
      "outputs": [
        {
          "internalType": "address",
          "name": "",
          "type": "address"
        }
      ],
      "stateMutability": "view",
      "type": "function"
    },
    {
      "inputs": [
        {
          "internalType": "contract IGraphProxy",
          "name": "_proxy",
          "type": "address"
        }
      ],
      "name": "getProxyImplementation",
      "outputs": [
        {
          "internalType": "address",
          "name": "",
          "type": "address"
        }
      ],
      "stateMutability": "view",
      "type": "function"
    },
    {
      "inputs": [
        {
          "internalType": "contract IGraphProxy",
          "name": "_proxy",
          "type": "address"
        }
      ],
      "name": "getProxyPendingImplementation",
      "outputs": [
        {
          "internalType": "address",
          "name": "",
          "type": "address"
        }
      ],
      "stateMutability": "view",
      "type": "function"
    },
    {
      "inputs": [],
      "name": "governor",
      "outputs": [
        {
          "internalType": "address",
          "name": "",
          "type": "address"
        }
      ],
      "stateMutability": "view",
      "type": "function"
    },
    {
      "inputs": [],
      "name": "pendingGovernor",
      "outputs": [
        {
          "internalType": "address",
          "name": "",
          "type": "address"
        }
      ],
      "stateMutability": "view",
      "type": "function"
    },
    {
      "inputs": [
        {
          "internalType": "address",
          "name": "_newGovernor",
          "type": "address"
        }
      ],
      "name": "transferOwnership",
      "outputs": [],
      "stateMutability": "nonpayable",
      "type": "function"
    },
    {
      "inputs": [
        {
          "internalType": "contract IGraphProxy",
          "name": "_proxy",
          "type": "address"
        },
        {
          "internalType": "address",
          "name": "_implementation",
          "type": "address"
        }
      ],
      "name": "upgrade",
      "outputs": [],
      "stateMutability": "nonpayable",
      "type": "function"
    }
  ],
  "bytecode": "0x608060405234801561001057600080fd5b506100243361002960201b610a0c1760201c565b61004b565b600080546001600160a01b0319166001600160a01b0392909216919091179055565b610a648061005a6000396000f3fe608060405234801561001057600080fd5b50600436106100a95760003560e01c80637eff275e116100715780637eff275e146101b157806399a88ec4146101df578063e3056a341461020d578063eb451a0214610215578063f2fde38b14610243578063f3b7dead14610269576100a9565b806307ebde0e146100ae5780630c340a2414610139578063204e1c7a1461015d5780635bf410eb1461018357806379ba5097146101a9575b600080fd5b610137600480360360608110156100c457600080fd5b6001600160a01b0382358116926020810135909116918101906060810160408201356401000000008111156100f857600080fd5b82018360208201111561010a57600080fd5b8035906020019184600183028401116401000000008311171561012c57600080fd5b50909250905061028f565b005b610141610388565b604080516001600160a01b039092168252519081900360200190f35b6101416004803603602081101561017357600080fd5b50356001600160a01b0316610397565b6101416004803603602081101561019957600080fd5b50356001600160a01b031661046a565b610137610525565b610137600480360360408110156101c757600080fd5b506001600160a01b0381358116916020013516610633565b610137600480360360408110156101f557600080fd5b506001600160a01b03813581169160200135166106f6565b61014161079d565b6101376004803603604081101561022b57600080fd5b506001600160a01b03813581169160200135166107ac565b6101376004803603602081101561025957600080fd5b50356001600160a01b0316610853565b6101416004803603602081101561027f57600080fd5b50356001600160a01b0316610951565b6000546001600160a01b031633146102e7576040805162461bcd60e51b815260206004820152601660248201527513db9b1e4811dbdd995c9b9bdc8818d85b8818d85b1b60521b604482015290519081900360640190fd5b836001600160a01b0316639ce7abe58484846040518463ffffffff1660e01b815260040180846001600160a01b03168152602001806020018281038252848482818152602001925080828437600081840152601f19601f820116905080830192505050945050505050600060405180830381600087803b15801561036a57600080fd5b505af115801561037e573d6000803e3d6000fd5b5050505050505050565b6000546001600160a01b031681565b6000806000836001600160a01b03166040518080635c60da1b60e01b8152506004019050600060405180830381855afa9150503d80600081146103f6576040519150601f19603f3d011682016040523d82523d6000602084013e6103fb565b606091505b50915091508161044b576040805162461bcd60e51b8152602060048201526016602482015275141c9bde1e481a5b5c1b0818d85b1b0819985a5b195960521b604482015290519081900360640190fd5b80806020019051602081101561046057600080fd5b5051949350505050565b6000806000836001600160a01b0316604051808063396f7b2360e01b8152506004019050600060405180830381855afa9150503d80600081146104c9576040519150601f19603f3d011682016040523d82523d6000602084013e6104ce565b606091505b50915091508161044b576040805162461bcd60e51b815260206004820152601d60248201527f50726f78792070656e64696e67496d706c2063616c6c206661696c6564000000604482015290519081900360640190fd5b6001546001600160a01b031680158015906105485750336001600160a01b038216145b610599576040805162461bcd60e51b815260206004820152601f60248201527f43616c6c6572206d7573742062652070656e64696e6720676f7665726e6f7200604482015290519081900360640190fd5b600080546001600160a01b038381166001600160a01b031980841691909117808555600180549092169091556040519282169391169183917f0ac6deed30eef60090c749850e10f2fa469e3e25fec1d1bef2853003f6e6f18f91a36001546040516001600160a01b03918216918416907f76563ad561b7036ae716b9b25cb521b21463240f104c97e12f25877f2235f33d90600090a35050565b6000546001600160a01b0316331461068b576040805162461bcd60e51b815260206004820152601660248201527513db9b1e4811dbdd995c9b9bdc8818d85b8818d85b1b60521b604482015290519081900360640190fd5b816001600160a01b031663704b6c02826040518263ffffffff1660e01b815260040180826001600160a01b03168152602001915050600060405180830381600087803b1580156106da57600080fd5b505af11580156106ee573d6000803e3d6000fd5b505050505050565b6000546001600160a01b0316331461074e576040805162461bcd60e51b815260206004820152601660248201527513db9b1e4811dbdd995c9b9bdc8818d85b8818d85b1b60521b604482015290519081900360640190fd5b816001600160a01b0316633659cfe6826040518263ffffffff1660e01b815260040180826001600160a01b03168152602001915050600060405180830381600087803b1580156106da57600080fd5b6001546001600160a01b031681565b6000546001600160a01b03163314610804576040805162461bcd60e51b815260206004820152601660248201527513db9b1e4811dbdd995c9b9bdc8818d85b8818d85b1b60521b604482015290519081900360640190fd5b816001600160a01b031663a2594d82826040518263ffffffff1660e01b815260040180826001600160a01b03168152602001915050600060405180830381600087803b1580156106da57600080fd5b6000546001600160a01b031633146108ab576040805162461bcd60e51b815260206004820152601660248201527513db9b1e4811dbdd995c9b9bdc8818d85b8818d85b1b60521b604482015290519081900360640190fd5b6001600160a01b0381166108fd576040805162461bcd60e51b815260206004820152601460248201527311dbdd995c9b9bdc881b5d5cdd081899481cd95d60621b604482015290519081900360640190fd5b600180546001600160a01b038381166001600160a01b03198316179283905560405191811692169082907f76563ad561b7036ae716b9b25cb521b21463240f104c97e12f25877f2235f33d90600090a35050565b6000806000836001600160a01b031660405180806303e1469160e61b8152506004019050600060405180830381855afa9150503d80600081146109b0576040519150601f19603f3d011682016040523d82523d6000602084013e6109b5565b606091505b50915091508161044b576040805162461bcd60e51b815260206004820152601760248201527f50726f78792061646d696e2063616c6c206661696c6564000000000000000000604482015290519081900360640190fd5b600080546001600160a01b0319166001600160a01b039290921691909117905556fea26469706673582212208b271ee4c7625d89f662c15e90f70e142245bf56f0595043fe9af742b09d958c64736f6c63430007060033",
  "linkReferences": {},
  "deployedLinkReferences": {}
}