{
  "_format": "hh-sol-artifact-1",
  "contractName": "GraphTallyCollector",
  "sourceName": "contracts/payments/collectors/GraphTallyCollector.sol",
  "abi": [
    {
      "inputs": [
        {
          "internalType": "string",
          "name": "eip712Name",
          "type": "string"
        },
        {
          "internalType": "string",
          "name": "eip712Version",
          "type": "string"
        },
        {
          "internalType": "address",
          "name": "controller",
          "type": "address"
        },
        {
          "internalType": "uint256",
          "name": "revokeSignerThawingPeriod",
          "type": "uint256"
        }
      ],
      "stateMutability": "nonpayable",
      "type": "constructor"
    },
    {
      "inputs": [],
      "name": "AuthorizableInvalidSignerProof",
      "type": "error"
    },
    {
      "inputs": [
        {
          "internalType": "uint256",
          "name": "proofDeadline",
          "type": "uint256"
        },
        {
          "internalType": "uint256",
          "name": "currentTimestamp",
          "type": "uint256"
        }
      ],
      "name": "AuthorizableInvalidSignerProofDeadline",
      "type": "error"
    },
    {
      "inputs": [
        {
          "internalType": "address",
          "name": "authorizer",
          "type": "address"
        },
        {
          "internalType": "address",
          "name": "signer",
          "type": "address"
        },
        {
          "internalType": "bool",
          "name": "revoked",
          "type": "bool"
        }
      ],
      "name": "AuthorizableSignerAlreadyAuthorized",
      "type": "error"
    },
    {
      "inputs": [
        {
          "internalType": "address",
          "name": "authorizer",
          "type": "address"
        },
        {
          "internalType": "address",
          "name": "signer",
          "type": "address"
        }
      ],
      "name": "AuthorizableSignerNotAuthorized",
      "type": "error"
    },
    {
      "inputs": [
        {
          "internalType": "address",
          "name": "signer",
          "type": "address"
        }
      ],
      "name": "AuthorizableSignerNotThawing",
      "type": "error"
    },
    {
      "inputs": [
        {
          "internalType": "uint256",
          "name": "currentTimestamp",
          "type": "uint256"
        },
        {
          "internalType": "uint256",
          "name": "thawEndTimestamp",
          "type": "uint256"
        }
      ],
      "name": "AuthorizableSignerStillThawing",
      "type": "error"
    },
    {
      "inputs": [],
      "name": "ECDSAInvalidSignature",
      "type": "error"
    },
    {
      "inputs": [
        {
          "internalType": "uint256",
          "name": "length",
          "type": "uint256"
        }
      ],
      "name": "ECDSAInvalidSignatureLength",
      "type": "error"
    },
    {
      "inputs": [
        {
          "internalType": "bytes32",
          "name": "s",
          "type": "bytes32"
        }
      ],
      "name": "ECDSAInvalidSignatureS",
      "type": "error"
    },
    {
      "inputs": [
        {
          "internalType": "bytes",
          "name": "contractName",
          "type": "bytes"
        }
      ],
      "name": "GraphDirectoryInvalidZeroAddress",
      "type": "error"
    },
    {
      "inputs": [
        {
          "internalType": "address",
          "name": "caller",
          "type": "address"
        },
        {
          "internalType": "address",
          "name": "dataService",
          "type": "address"
        }
      ],
      "name": "GraphTallyCollectorCallerNotDataService",
      "type": "error"
    },
    {
      "inputs": [
        {
          "internalType": "uint256",
          "name": "tokens",
          "type": "uint256"
        },
        {
          "internalType": "uint256",
          "name": "tokensCollected",
          "type": "uint256"
        }
      ],
      "name": "GraphTallyCollectorInconsistentRAVTokens",
      "type": "error"
    },
    {
      "inputs": [],
      "name": "GraphTallyCollectorInvalidRAVSigner",
      "type": "error"
    },
    {
      "inputs": [
        {
          "internalType": "uint256",
          "name": "tokensToCollect",
          "type": "uint256"
        },
        {
          "internalType": "uint256",
          "name": "maxTokensToCollect",
          "type": "uint256"
        }
      ],
      "name": "GraphTallyCollectorInvalidTokensToCollectAmount",
      "type": "error"
    },
    {
      "inputs": [
        {
          "internalType": "address",
          "name": "dataService",
          "type": "address"
        }
      ],
      "name": "GraphTallyCollectorUnauthorizedDataService",
      "type": "error"
    },
    {
      "inputs": [],
      "name": "InvalidShortString",
      "type": "error"
    },
    {
      "inputs": [
        {
          "internalType": "string",
          "name": "str",
          "type": "string"
        }
      ],
      "name": "StringTooLong",
      "type": "error"
    },
    {
      "anonymous": false,
      "inputs": [],
      "name": "EIP712DomainChanged",
      "type": "event"
    },
    {
      "anonymous": false,
      "inputs": [
        {
          "indexed": true,
          "internalType": "address",
          "name": "graphToken",
          "type": "address"
        },
        {
          "indexed": true,
          "internalType": "address",
          "name": "graphStaking",
          "type": "address"
        },
        {
          "indexed": false,
          "internalType": "address",
          "name": "graphPayments",
          "type": "address"
        },
        {
          "indexed": false,
          "internalType": "address",
          "name": "graphEscrow",
          "type": "address"
        },
        {
          "indexed": true,
          "internalType": "address",
          "name": "graphController",
          "type": "address"
        },
        {
          "indexed": false,
          "internalType": "address",
          "name": "graphEpochManager",
          "type": "address"
        },
        {
          "indexed": false,
          "internalType": "address",
          "name": "graphRewardsManager",
          "type": "address"
        },
        {
          "indexed": false,
          "internalType": "address",
          "name": "graphTokenGateway",
          "type": "address"
        },
        {
          "indexed": false,
          "internalType": "address",
          "name": "graphProxyAdmin",
          "type": "address"
        },
        {
          "indexed": false,
          "internalType": "address",
          "name": "graphCuration",
          "type": "address"
        }
      ],
      "name": "GraphDirectoryInitialized",
      "type": "event"
    },
    {
      "anonymous": false,
      "inputs": [
        {
          "indexed": false,
          "internalType": "enum IGraphPayments.PaymentTypes",
          "name": "paymentType",
          "type": "uint8"
        },
        {
          "indexed": true,
          "internalType": "bytes32",
          "name": "collectionId",
          "type": "bytes32"
        },
        {
          "indexed": true,
          "internalType": "address",
          "name": "payer",
          "type": "address"
        },
        {
          "indexed": false,
          "internalType": "address",
          "name": "receiver",
          "type": "address"
        },
        {
          "indexed": true,
          "internalType": "address",
          "name": "dataService",
          "type": "address"
        },
        {
          "indexed": false,
          "internalType": "uint256",
          "name": "tokens",
          "type": "uint256"
        }
      ],
      "name": "PaymentCollected",
      "type": "event"
    },
    {
      "anonymous": false,
      "inputs": [
        {
          "indexed": true,
          "internalType": "bytes32",
          "name": "collectionId",
          "type": "bytes32"
        },
        {
          "indexed": true,
          "internalType": "address",
          "name": "payer",
          "type": "address"
        },
        {
          "indexed": false,
          "internalType": "address",
          "name": "serviceProvider",
          "type": "address"
        },
        {
          "indexed": true,
          "internalType": "address",
          "name": "dataService",
          "type": "address"
        },
        {
          "indexed": false,
          "internalType": "uint64",
          "name": "timestampNs",
          "type": "uint64"
        },
        {
          "indexed": false,
          "internalType": "uint128",
          "name": "valueAggregate",
          "type": "uint128"
        },
        {
          "indexed": false,
          "internalType": "bytes",
          "name": "metadata",
          "type": "bytes"
        },
        {
          "indexed": false,
          "internalType": "bytes",
          "name": "signature",
          "type": "bytes"
        }
      ],
      "name": "RAVCollected",
      "type": "event"
    },
    {
      "anonymous": false,
      "inputs": [
        {
          "indexed": true,
          "internalType": "address",
          "name": "authorizer",
          "type": "address"
        },
        {
          "indexed": true,
          "internalType": "address",
          "name": "signer",
          "type": "address"
        }
      ],
      "name": "SignerAuthorized",
      "type": "event"
    },
    {
      "anonymous": false,
      "inputs": [
        {
          "indexed": true,
          "internalType": "address",
          "name": "authorizer",
          "type": "address"
        },
        {
          "indexed": true,
          "internalType": "address",
          "name": "signer",
          "type": "address"
        }
      ],
      "name": "SignerRevoked",
      "type": "event"
    },
    {
      "anonymous": false,
      "inputs": [
        {
          "indexed": true,
          "internalType": "address",
          "name": "authorizer",
          "type": "address"
        },
        {
          "indexed": true,
          "internalType": "address",
          "name": "signer",
          "type": "address"
        },
        {
          "indexed": false,
          "internalType": "uint256",
          "name": "thawEndTimestamp",
          "type": "uint256"
        }
      ],
      "name": "SignerThawCanceled",
      "type": "event"
    },
    {
      "anonymous": false,
      "inputs": [
        {
          "indexed": true,
          "internalType": "address",
          "name": "authorizer",
          "type": "address"
        },
        {
          "indexed": true,
          "internalType": "address",
          "name": "signer",
          "type": "address"
        },
        {
          "indexed": false,
          "internalType": "uint256",
          "name": "thawEndTimestamp",
          "type": "uint256"
        }
      ],
      "name": "SignerThawing",
      "type": "event"
    },
    {
      "inputs": [],
      "name": "REVOKE_AUTHORIZATION_THAWING_PERIOD",
      "outputs": [
        {
          "internalType": "uint256",
          "name": "",
          "type": "uint256"
        }
      ],
      "stateMutability": "view",
      "type": "function"
    },
    {
      "inputs": [
        {
          "internalType": "address",
          "name": "signer",
          "type": "address"
        }
      ],
      "name": "authorizations",
      "outputs": [
        {
          "internalType": "address",
          "name": "authorizer",
          "type": "address"
        },
        {
          "internalType": "uint256",
          "name": "thawEndTimestamp",
          "type": "uint256"
        },
        {
          "internalType": "bool",
          "name": "revoked",
          "type": "bool"
        }
      ],
      "stateMutability": "view",
      "type": "function"
    },
    {
      "inputs": [
        {
          "internalType": "address",
          "name": "signer",
          "type": "address"
        },
        {
          "internalType": "uint256",
          "name": "proofDeadline",
          "type": "uint256"
        },
        {
          "internalType": "bytes",
          "name": "proof",
          "type": "bytes"
        }
      ],
      "name": "authorizeSigner",
      "outputs": [],
      "stateMutability": "nonpayable",
      "type": "function"
    },
    {
      "inputs": [
        {
          "internalType": "address",
          "name": "signer",
          "type": "address"
        }
      ],
      "name": "cancelThawSigner",
      "outputs": [],
      "stateMutability": "nonpayable",
      "type": "function"
    },
    {
      "inputs": [
        {
          "internalType": "enum IGraphPayments.PaymentTypes",
          "name": "paymentType",
          "type": "uint8"
        },
        {
          "internalType": "bytes",
          "name": "data",
          "type": "bytes"
        },
        {
          "internalType": "uint256",
          "name": "tokensToCollect",
          "type": "uint256"
        }
      ],
      "name": "collect",
      "outputs": [
        {
          "internalType": "uint256",
          "name": "",
          "type": "uint256"
        }
      ],
      "stateMutability": "nonpayable",
      "type": "function"
    },
    {
      "inputs": [
        {
          "internalType": "enum IGraphPayments.PaymentTypes",
          "name": "paymentType",
          "type": "uint8"
        },
        {
          "internalType": "bytes",
          "name": "data",
          "type": "bytes"
        }
      ],
      "name": "collect",
      "outputs": [
        {
          "internalType": "uint256",
          "name": "",
          "type": "uint256"
        }
      ],
      "stateMutability": "nonpayable",
      "type": "function"
    },
    {
      "inputs": [],
      "name": "eip712Domain",
      "outputs": [
        {
          "internalType": "bytes1",
          "name": "fields",
          "type": "bytes1"
        },
        {
          "internalType": "string",
          "name": "name",
          "type": "string"
        },
        {
          "internalType": "string",
          "name": "version",
          "type": "string"
        },
        {
          "internalType": "uint256",
          "name": "chainId",
          "type": "uint256"
        },
        {
          "internalType": "address",
          "name": "verifyingContract",
          "type": "address"
        },
        {
          "internalType": "bytes32",
          "name": "salt",
          "type": "bytes32"
        },
        {
          "internalType": "uint256[]",
          "name": "extensions",
          "type": "uint256[]"
        }
      ],
      "stateMutability": "view",
      "type": "function"
    },
    {
      "inputs": [
        {
          "components": [
            {
              "internalType": "bytes32",
              "name": "collectionId",
              "type": "bytes32"
            },
            {
              "internalType": "address",
              "name": "payer",
              "type": "address"
            },
            {
              "internalType": "address",
              "name": "serviceProvider",
              "type": "address"
            },
            {
              "internalType": "address",
              "name": "dataService",
              "type": "address"
            },
            {
              "internalType": "uint64",
              "name": "timestampNs",
              "type": "uint64"
            },
            {
              "internalType": "uint128",
              "name": "valueAggregate",
              "type": "uint128"
            },
            {
              "internalType": "bytes",
              "name": "metadata",
              "type": "bytes"
            }
          ],
          "internalType": "struct IGraphTallyCollector.ReceiptAggregateVoucher",
          "name": "rav",
          "type": "tuple"
        }
      ],
      "name": "encodeRAV",
      "outputs": [
        {
          "internalType": "bytes32",
          "name": "",
          "type": "bytes32"
        }
      ],
      "stateMutability": "view",
      "type": "function"
    },
    {
      "inputs": [
        {
          "internalType": "address",
          "name": "signer",
          "type": "address"
        }
      ],
      "name": "getThawEnd",
      "outputs": [
        {
          "internalType": "uint256",
          "name": "",
          "type": "uint256"
        }
      ],
      "stateMutability": "view",
      "type": "function"
    },
    {
      "inputs": [
        {
          "internalType": "address",
          "name": "authorizer",
          "type": "address"
        },
        {
          "internalType": "address",
          "name": "signer",
          "type": "address"
        }
      ],
      "name": "isAuthorized",
      "outputs": [
        {
          "internalType": "bool",
          "name": "",
          "type": "bool"
        }
      ],
      "stateMutability": "view",
      "type": "function"
    },
    {
      "inputs": [
        {
          "components": [
            {
              "components": [
                {
                  "internalType": "bytes32",
                  "name": "collectionId",
                  "type": "bytes32"
                },
                {
                  "internalType": "address",
                  "name": "payer",
                  "type": "address"
                },
                {
                  "internalType": "address",
                  "name": "serviceProvider",
                  "type": "address"
                },
                {
                  "internalType": "address",
                  "name": "dataService",
                  "type": "address"
                },
                {
                  "internalType": "uint64",
                  "name": "timestampNs",
                  "type": "uint64"
                },
                {
                  "internalType": "uint128",
                  "name": "valueAggregate",
                  "type": "uint128"
                },
                {
                  "internalType": "bytes",
                  "name": "metadata",
                  "type": "bytes"
                }
              ],
              "internalType": "struct IGraphTallyCollector.ReceiptAggregateVoucher",
              "name": "rav",
              "type": "tuple"
            },
            {
              "internalType": "bytes",
              "name": "signature",
              "type": "bytes"
            }
          ],
          "internalType": "struct IGraphTallyCollector.SignedRAV",
          "name": "signedRAV",
          "type": "tuple"
        }
      ],
      "name": "recoverRAVSigner",
      "outputs": [
        {
          "internalType": "address",
          "name": "",
          "type": "address"
        }
      ],
      "stateMutability": "view",
      "type": "function"
    },
    {
      "inputs": [
        {
          "internalType": "address",
          "name": "signer",
          "type": "address"
        }
      ],
      "name": "revokeAuthorizedSigner",
      "outputs": [],
      "stateMutability": "nonpayable",
      "type": "function"
    },
    {
      "inputs": [
        {
          "internalType": "address",
          "name": "signer",
          "type": "address"
        }
      ],
      "name": "thawSigner",
      "outputs": [],
      "stateMutability": "nonpayable",
      "type": "function"
    },
    {
      "inputs": [
        {
          "internalType": "address",
          "name": "dataService",
          "type": "address"
        },
        {
          "internalType": "bytes32",
          "name": "collectionId",
          "type": "bytes32"
        },
        {
          "internalType": "address",
          "name": "receiver",
          "type": "address"
        },
        {
          "internalType": "address",
          "name": "payer",
          "type": "address"
        }
      ],
      "name": "tokensCollected",
      "outputs": [
        {
          "internalType": "uint256",
          "name": "tokens",
          "type": "uint256"
        }
      ],
      "stateMutability": "view",
      "type": "function"
    }
  ],
  "bytecode": "0x6102c060405234801561001157600080fd5b506040516123e03803806123e0833981016040819052610030916105e0565b8082858561003f8260006103e2565b6101205261004e8160016103e2565b61014052815160208084019190912060e052815190820120610100524660a0526100db60e05161010051604080517f8b73c3c69bb8fe3d512ecc4cf759cc79239f7b179b0ffacaa9a75d522b39400f60208201529081019290925260608201524660808201523060a082015260009060c00160405160208183030381529060405280519060200120905090565b60805250503060c0526001600160a01b03811661012d5760405163218f5add60e11b815260206004820152600a60248201526921b7b73a3937b63632b960b11b60448201526064015b60405180910390fd5b6001600160a01b0381166101e05260408051808201909152600a81526923b930b8342a37b5b2b760b11b602082015261016590610415565b6001600160a01b0316610160526040805180820190915260078152665374616b696e6760c81b602082015261019990610415565b6001600160a01b03166101805260408051808201909152600d81526c47726170685061796d656e747360981b60208201526101d390610415565b6001600160a01b03166101a05260408051808201909152600e81526d5061796d656e7473457363726f7760901b602082015261020e90610415565b6001600160a01b03166101c05260408051808201909152600c81526b22b837b1b426b0b730b3b2b960a11b602082015261024790610415565b6001600160a01b03166102005260408051808201909152600e81526d2932bbb0b93239a6b0b730b3b2b960911b602082015261028290610415565b6001600160a01b0316610220526040805180820190915260118152704772617068546f6b656e4761746577617960781b60208201526102c090610415565b6001600160a01b03166102405260408051808201909152600f81526e23b930b834283937bc3ca0b236b4b760891b60208201526102fc90610415565b6001600160a01b03166102605260408051808201909152600881526721bab930ba34b7b760c11b602082015261033190610415565b6001600160a01b039081166102808190526101e05161018051610160516101a0516101c0516102005161022051610240516102605160408051968c168752948b166020870152928a1685850152908916606085015288166080840152871660a083015260c0820195909552935192851694918216939116917fef5021414834d86e36470f5c1cecf6544fb2bb723f2ca51a4c86fcd8c5919a439181900360e00190a4506102a0525061082d92505050565b60006020835110156103fe576103f7836104c3565b905061040f565b8161040984826106ea565b5060ff90505b92915050565b6000806101e0516001600160a01b031663f7641a5e84805190602001206040518263ffffffff1660e01b815260040161045091815260200190565b602060405180830381865afa15801561046d573d6000803e3d6000fd5b505050506040513d601f19601f8201168201806040525081019061049191906107a8565b9050826001600160a01b0382166104bc5760405163218f5add60e11b815260040161012491906107f6565b5092915050565b600080829050601f815111156104ee578260405163305a27a960e01b815260040161012491906107f6565b80516104f982610809565b179392505050565b634e487b7160e01b600052604160045260246000fd5b60005b8381101561053257818101518382015260200161051a565b50506000910152565b600082601f83011261054c57600080fd5b81516001600160401b0381111561056557610565610501565b604051601f8201601f19908116603f011681016001600160401b038111828210171561059357610593610501565b6040528181528382016020018510156105ab57600080fd5b6105bc826020830160208701610517565b949350505050565b80516001600160a01b03811681146105db57600080fd5b919050565b600080600080608085870312156105f657600080fd5b84516001600160401b0381111561060c57600080fd5b6106188782880161053b565b602087015190955090506001600160401b0381111561063657600080fd5b6106428782880161053b565b935050610651604086016105c4565b6060959095015193969295505050565b600181811c9082168061067557607f821691505b60208210810361069557634e487b7160e01b600052602260045260246000fd5b50919050565b601f8211156106e557806000526020600020601f840160051c810160208510156106c25750805b601f840160051c820191505b818110156106e257600081556001016106ce565b50505b505050565b81516001600160401b0381111561070357610703610501565b610717816107118454610661565b8461069b565b6020601f82116001811461074b57600083156107335750848201515b600019600385901b1c1916600184901b1784556106e2565b600084815260208120601f198516915b8281101561077b578785015182556020948501946001909201910161075b565b50848210156107995786840151600019600387901b60f8161c191681555b50505050600190811b01905550565b6000602082840312156107ba57600080fd5b6107c3826105c4565b9392505050565b600081518084526107e2816020860160208601610517565b601f01601f19169290920160200192915050565b6020815260006107c360208301846107ca565b805160208083015191908110156106955760001960209190910360031b1b16919050565b60805160a05160c05160e05161010051610120516101405161016051610180516101a0516101c0516101e05161020051610220516102405161026051610280516102a051611af16108ef60003960008181610247015261036501526000505060005050600050506000505060005050600050506000610a1d015260005050600061082e0152600050506000610b8a01526000610b5801526000610f0101526000610ed901526000610e3401526000610e5e01526000610e880152611af16000f3fe608060405234801561001057600080fd5b50600436106100ba5760003560e01c8063015cdd80146100bf5780631354f019146100d4578063181250ff146100e757806326969c4c1461013457806339aa7416146101475780633a13e1af1461015a57806363648817146101be57806365e4ad9e146101de578063692209ce146102015780637f07d2831461021457806384b0196e146102275780639b95288114610242578063bea5d2ab14610269578063fee9f01f14610295575b600080fd5b6100d26100cd3660046111ad565b6102a8565b005b6100d26100e23660046111ad565b610355565b6101216100f53660046111ca565b600360209081526000948552604080862082529385528385208152918452828420909152825290205481565b6040519081526020015b60405180910390f35b61012161014236600461121d565b6103ea565b6100d26101553660046111ad565b610403565b6101976101683660046111ad565b60026020819052600091825260409091208054600182015491909201546001600160a01b039092169160ff1683565b604080516001600160a01b039094168452602084019290925215159082015260600161012b565b6101d16101cc366004611257565b6104cd565b60405161012b9190611291565b6101f16101ec3660046112a5565b6104e0565b604051901515815260200161012b565b61012161020f3660046113fa565b6104f3565b610121610222366004611451565b610508565b61022f610516565b60405161012b97969594939291906114ee565b6101217f000000000000000000000000000000000000000000000000000000000000000081565b6101216102773660046111ad565b6001600160a01b031660009081526002602052604090206001015490565b6100d26102a3366004611586565b61055c565b806102b33382610628565b6001600160a01b03821660009081526002602052604090206001015482906102f85760405163cd3cd55d60e01b81526004016102ef9190611291565b60405180910390fd5b506001600160a01b038216600081815260026020908152604080832060010180549390555182815291929133917f3b4432b11b66b46d9a7b190aa989c0ae85a5395b543540220596dd94dd405ceb910160405180910390a3505050565b806103603382610628565b61038a7f000000000000000000000000000000000000000000000000000000000000000042611626565b6001600160a01b0383166000818152600260205260409081902060010183905551909133917fd939049941f6a15381248e4ac0010f15efdf0f3221923711244c200b5ff2cddf916103de9190815260200190565b60405180910390a35050565b60006103fd6103f88361171f565b61065b565b92915050565b8061040e3382610628565b6001600160a01b038216600090815260026020526040902060010154828161044a5760405163cd3cd55d60e01b81526004016102ef9190611291565b504281818111156104775760405163bd76307f60e01b8152600481019290925260248201526044016102ef565b50506001600160a01b0383166000818152600260208190526040808320909101805460ff191660011790555133917f2fc91dbd92d741cae16e0315578d7f6cf77043b771692c4bd993658ecfe8942291a3505050565b60006103fd6104db8361172b565b610723565b60006104ec8383610743565b9392505050565b60006105008484846107a6565b949350505050565b60006104ec838360006107a6565b60006060806000806000606061052a610b51565b610532610b83565b60408051600080825260208201909252600f60f81b9b939a50919850469750309650945092509050565b6001600160a01b0384811660009081526002602081905260409091208054910154911690859060ff1682156105c057604051630c83a00f60e01b81526001600160a01b039384166004820152929091166024830152151560448201526064016102ef565b5050506105cf82828587610bb0565b6001600160a01b03841660008181526002602052604080822080546001600160a01b03191633908117909155905190917f6edcdd4150e63c6c36d965976c1c37375609c8b040c50d39e7156437b80e282891a350505050565b6106328282610743565b8282909161065557604051631e58ab1f60e01b81526004016102ef92919061179b565b50505050565b60006103fd7f5a2cbecf1b099d324526f96e6f4c9f3833fdf289a9528c9c9d3775633b6c147483602001518460400151856060015186608001518760a001518860c001518051906020012060405160200161070897969594939291909687526001600160a01b03958616602088015293851660408701529190931660608501526001600160401b039290921660808401526001600160801b039190911660a083015260c082015260e00190565b60405160208183030381529060405280519060200120610ced565b600080610733836000015161065b565b90506104ec818460200151610d1a565b60006001600160a01b0383161580159061077957506001600160a01b038281166000908152600260205260409020548116908416145b80156104ec5750506001600160a01b03166000908152600260208190526040909120015460ff1615919050565b6000806000848060200190518101906107bf919061181b565b815160600151919350915033906001600160a01b03811682146107f757604051632b65e49760e11b81526004016102ef92919061179b565b505061080282610d44565b8151805160608201516040928301519251630119cbed60e31b8152919290916000906001600160a01b037f000000000000000000000000000000000000000000000000000000000000000016906308ce5f6890610865908590879060040161179b565b602060405180830381865afa158015610882573d6000803e3d6000fd5b505050506040513d601f19601f820116820180604052508101906108a69190611954565b865160600151909150816108ce5760405163037a2d1f60e61b81526004016102ef9190611291565b5050845160208082015160a0909201516001600160a01b0380861660009081526003845260408082208983528552808220878416835285528082209286168252919093528220549192916001600160801b0390911690818180821161094f57604051637007d4a160e01b8152600481019290925260248201526044016102ef565b50508a60000361096a57610963818361196d565b93506109b0565b610974818361196d565b8b11158b610982838561196d565b90916109aa5760405163c5602bb160e01b8152600481019290925260248201526044016102ef565b50508a93505b50508115610a8f576001600160a01b03808516600090815260036020908152604080832089845282528083208785168452825280832093851683529290529081208054849290610a01908490611626565b90915550506040516343edff4160e11b81526001600160a01b037f000000000000000000000000000000000000000000000000000000000000000016906387dbfe8290610a5c908e908590889088908b908e906004016119b8565b600060405180830381600087803b158015610a7657600080fd5b505af1158015610a8a573d6000803e3d6000fd5b505050505b836001600160a01b0316816001600160a01b0316867f481a17595c709e8f745444fb9ffc8f0b5e98458de94463971947f548e12bbdb48e8787604051610ad7939291906119f9565b60405180910390a48651608081015160a082015160c09092015160208a01516040516001600160a01b03808a1695908716948b947f3943fc3b19ec289c87b57de7a8bf1448d81ced03d1806144ecaca4ba9e97605694610b3b948c94929190611a21565b60405180910390a4509998505050505050505050565b6060610b7e7f00000000000000000000000000000000000000000000000000000000000000006000610d7c565b905090565b6060610b7e7f00000000000000000000000000000000000000000000000000000000000000006001610d7c565b8142808211610bdb5760405163d7705a0160e01b8152600481019290925260248201526044016102ef565b505060408051466020808301919091526001600160601b031930606090811b8216848601527330baba3437b934bd32a9b4b3b732b9283937b7b360611b60548501526068840187905233901b1660888301528251808303607c018152609c90920190925280519101207b0ca2ba3432b932bab69029b4b3b732b21026b2b9b9b0b3b29d05199960211b6000908152601c829052603c81209050826001600160a01b0316610cbe8288888080601f016020809104026020016040519081016040528093929190818152602001838380828437600092019190915250610d1a92505050565b6001600160a01b031614610ce557604051631c07ed3360e31b815260040160405180910390fd5b505050505050565b60006103fd610cfa610e27565b8360405161190160f01b8152600281019290925260228201526042902090565b600080600080610d2a8686610f52565b925092509250610d3a8282610f9f565b5090949350505050565b805160200151610d5c90610d5783610723565b610743565b610d795760405163aa415c3360e01b815260040160405180910390fd5b50565b606060ff8314610d9657610d8f8361105c565b90506103fd565b818054610da290611a81565b80601f0160208091040260200160405190810160405280929190818152602001828054610dce90611a81565b8015610e1b5780601f10610df057610100808354040283529160200191610e1b565b820191906000526020600020905b815481529060010190602001808311610dfe57829003601f168201915b505050505090506103fd565b6000306001600160a01b037f000000000000000000000000000000000000000000000000000000000000000016148015610e8057507f000000000000000000000000000000000000000000000000000000000000000046145b15610eaa57507f000000000000000000000000000000000000000000000000000000000000000090565b610b7e604080517f8b73c3c69bb8fe3d512ecc4cf759cc79239f7b179b0ffacaa9a75d522b39400f60208201527f0000000000000000000000000000000000000000000000000000000000000000918101919091527f000000000000000000000000000000000000000000000000000000000000000060608201524660808201523060a082015260009060c00160405160208183030381529060405280519060200120905090565b60008060008351604103610f8c5760208401516040850151606086015160001a610f7e8882858561109b565b955095509550505050610f98565b50508151600091506002905b9250925092565b6000826003811115610fb357610fb3611980565b03610fbc575050565b6001826003811115610fd057610fd0611980565b03610fee5760405163f645eedf60e01b815260040160405180910390fd5b600282600381111561100257611002611980565b036110235760405163fce698f760e01b8152600481018290526024016102ef565b600382600381111561103757611037611980565b03611058576040516335e2f38360e21b8152600481018290526024016102ef565b5050565b6060600061106983611160565b604080516020808252818301909252919250600091906020820181803683375050509182525060208101929092525090565b600080806fa2a8918ca85bafe22016d0b997e4df60600160ff1b038411156110cc5750600091506003905082611156565b604080516000808252602082018084528a905260ff891692820192909252606081018790526080810186905260019060a0016020604051602081039080840390855afa158015611120573d6000803e3d6000fd5b5050604051601f1901519150506001600160a01b03811661114c57506000925060019150829050611156565b9250600091508190505b9450945094915050565b600060ff8216601f8111156103fd57604051632cd44ac360e21b815260040160405180910390fd5b6001600160a01b0381168114610d7957600080fd5b80356111a881611188565b919050565b6000602082840312156111bf57600080fd5b81356104ec81611188565b600080600080608085870312156111e057600080fd5b84356111eb81611188565b935060208501359250604085013561120281611188565b9150606085013561121281611188565b939692955090935050565b60006020828403121561122f57600080fd5b81356001600160401b0381111561124557600080fd5b820160e081850312156104ec57600080fd5b60006020828403121561126957600080fd5b81356001600160401b0381111561127f57600080fd5b8201604081850312156104ec57600080fd5b6001600160a01b0391909116815260200190565b600080604083850312156112b857600080fd5b82356112c381611188565b915060208301356112d381611188565b809150509250929050565b8035600381106111a857600080fd5b634e487b7160e01b600052604160045260246000fd5b60405160e081016001600160401b0381118282101715611325576113256112ed565b60405290565b604080519081016001600160401b0381118282101715611325576113256112ed565b604051601f8201601f191681016001600160401b0381118282101715611375576113756112ed565b604052919050565b60006001600160401b03821115611396576113966112ed565b50601f01601f191660200190565b600082601f8301126113b557600080fd5b81356113c86113c38261137d565b61134d565b8181528460208386010111156113dd57600080fd5b816020850160208301376000918101602001919091529392505050565b60008060006060848603121561140f57600080fd5b611418846112de565b925060208401356001600160401b0381111561143357600080fd5b61143f868287016113a4565b93969395505050506040919091013590565b6000806040838503121561146457600080fd5b61146d836112de565b915060208301356001600160401b0381111561148857600080fd5b611494858286016113a4565b9150509250929050565b60005b838110156114b95781810151838201526020016114a1565b50506000910152565b600081518084526114da81602086016020860161149e565b601f01601f19169290920160200192915050565b60ff60f81b8816815260e06020820152600061150d60e08301896114c2565b828103604084015261151f81896114c2565b606084018890526001600160a01b038716608085015260a0840186905283810360c08501528451808252602080870193509091019060005b81811015611575578351835260209384019390920191600101611557565b50909b9a5050505050505050505050565b6000806000806060858703121561159c57600080fd5b84356115a781611188565b93506020850135925060408501356001600160401b038111156115c957600080fd5b8501601f810187136115da57600080fd5b80356001600160401b038111156115f057600080fd5b87602082840101111561160257600080fd5b949793965060200194505050565b634e487b7160e01b600052601160045260246000fd5b808201808211156103fd576103fd611610565b6001600160401b0381168114610d7957600080fd5b80356111a881611639565b6001600160801b0381168114610d7957600080fd5b80356111a881611659565b600060e0828403121561168b57600080fd5b611693611303565b8235815290506116a56020830161119d565b60208201526116b66040830161119d565b60408201526116c76060830161119d565b60608201526116d86080830161164e565b60808201526116e960a0830161166e565b60a082015260c08201356001600160401b0381111561170757600080fd5b611713848285016113a4565b60c08301525092915050565b60006103fd3683611679565b60006040823603121561173d57600080fd5b61174561132b565b82356001600160401b0381111561175b57600080fd5b61176736828601611679565b82525060208301356001600160401b0381111561178357600080fd5b61178f368286016113a4565b60208301525092915050565b6001600160a01b0392831681529116602082015260400190565b80516111a881611188565b80516111a881611639565b80516111a881611659565b600082601f8301126117e757600080fd5b81516117f56113c38261137d565b81815284602083860101111561180a57600080fd5b61050082602083016020870161149e565b6000806040838503121561182e57600080fd5b82516001600160401b0381111561184457600080fd5b83016040818603121561185657600080fd5b61185e61132b565b81516001600160401b0381111561187457600080fd5b820160e0818803121561188657600080fd5b61188e611303565b8151815261189e602083016117b5565b60208201526118af604083016117b5565b60408201526118c0606083016117b5565b60608201526118d1608083016117c0565b60808201526118e260a083016117cb565b60a082015260c08201516001600160401b0381111561190057600080fd5b61190c898285016117d6565b60c08301525082525060208201516001600160401b0381111561192e57600080fd5b61193a878285016117d6565b602083810191909152959095015190969095509350505050565b60006020828403121561196657600080fd5b5051919050565b818103818111156103fd576103fd611610565b634e487b7160e01b600052602160045260246000fd5b600381106119b457634e487b7160e01b600052602160045260246000fd5b9052565b60c081016119c68289611996565b6001600160a01b039687166020830152948616604082015260608101939093529316608082015260a00191909152919050565b60608101611a078286611996565b6001600160a01b0393909316602082015260400152919050565b6001600160a01b03861681526001600160401b03851660208201526001600160801b038416604082015260a060608201819052600090611a63908301856114c2565b8281036080840152611a7581856114c2565b98975050505050505050565b600181811c90821680611a9557607f821691505b602082108103611ab557634e487b7160e01b600052602260045260246000fd5b5091905056fea2646970667358221220875b798427fa64a18a14eb85f3145014f07d6fcc9d159004f13551c6e27e85db64736f6c634300081b0033",
  "linkReferences": {},
  "deployedLinkReferences": {}
}