{
  "_format": "hh-sol-artifact-1",
  "contractName": "ProxyAdmin",
  "sourceName": "@openzeppelin/contracts/proxy/transparent/ProxyAdmin.sol",
  "abi": [
    {
      "inputs": [
        {
          "internalType": "address",
          "name": "initialOwner",
          "type": "address"
        }
      ],
      "stateMutability": "nonpayable",
      "type": "constructor"
    },
    {
      "inputs": [
        {
          "internalType": "address",
          "name": "owner",
          "type": "address"
        }
      ],
      "name": "OwnableInvalidOwner",
      "type": "error"
    },
    {
      "inputs": [
        {
          "internalType": "address",
          "name": "account",
          "type": "address"
        }
      ],
      "name": "OwnableUnauthorizedAccount",
      "type": "error"
    },
    {
      "anonymous": false,
      "inputs": [
        {
          "indexed": true,
          "internalType": "address",
          "name": "previousOwner",
          "type": "address"
        },
        {
          "indexed": true,
          "internalType": "address",
          "name": "newOwner",
          "type": "address"
        }
      ],
      "name": "OwnershipTransferred",
      "type": "event"
    },
    {
      "inputs": [],
      "name": "UPGRADE_INTERFACE_VERSION",
      "outputs": [
        {
          "internalType": "string",
          "name": "",
          "type": "string"
        }
      ],
      "stateMutability": "view",
      "type": "function"
    },
    {
      "inputs": [],
      "name": "owner",
      "outputs": [
        {
          "internalType": "address",
          "name": "",
          "type": "address"
        }
      ],
      "stateMutability": "view",
      "type": "function"
    },
    {
      "inputs": [],
      "name": "renounceOwnership",
      "outputs": [],
      "stateMutability": "nonpayable",
      "type": "function"
    },
    {
      "inputs": [
        {
          "internalType": "address",
          "name": "newOwner",
          "type": "address"
        }
      ],
      "name": "transferOwnership",
      "outputs": [],
      "stateMutability": "nonpayable",
      "type": "function"
    },
    {
      "inputs": [
        {
          "internalType": "contract ITransparentUpgradeableProxy",
          "name": "proxy",
          "type": "address"
        },
        {
          "internalType": "address",
          "name": "implementation",
          "type": "address"
        },
        {
          "internalType": "bytes",
          "name": "data",
          "type": "bytes"
        }
      ],
      "name": "upgradeAndCall",
      "outputs": [],
      "stateMutability": "payable",
      "type": "function"
    }
  ],
  "bytecode": "0x608060405234801561001057600080fd5b5060405161055338038061055383398101604081905261002f916100be565b806001600160a01b03811661005e57604051631e4fbdf760e01b81526000600482015260240160405180910390fd5b6100678161006e565b50506100ee565b600080546001600160a01b038381166001600160a01b0319831681178455604051919092169283917f8be0079c531659141344cd1fd0a4f28419497f9722a3daafe3b4186f6b6457e09190a35050565b6000602082840312156100d057600080fd5b81516001600160a01b03811681146100e757600080fd5b9392505050565b610456806100fd6000396000f3fe60806040526004361061004a5760003560e01c8063715018a61461004f5780638da5cb5b146100665780639623609d14610091578063ad3cb1cc146100a4578063f2fde38b146100e2575b600080fd5b34801561005b57600080fd5b50610064610102565b005b34801561007257600080fd5b5061007b610116565b604051610088919061025d565b60405180910390f35b61006461009f36600461029c565b610125565b3480156100b057600080fd5b506100d5604051806040016040528060058152602001640352e302e360dc1b81525081565b60405161008891906103bd565b3480156100ee57600080fd5b506100646100fd3660046103d7565b610194565b61010a6101db565b610114600061020d565b565b6000546001600160a01b031690565b61012d6101db565b60405163278f794360e11b81526001600160a01b03841690634f1ef28690349061015d90869086906004016103f4565b6000604051808303818588803b15801561017657600080fd5b505af115801561018a573d6000803e3d6000fd5b5050505050505050565b61019c6101db565b6001600160a01b0381166101cf576000604051631e4fbdf760e01b81526004016101c6919061025d565b60405180910390fd5b6101d88161020d565b50565b336101e4610116565b6001600160a01b031614610114573360405163118cdaa760e01b81526004016101c6919061025d565b600080546001600160a01b038381166001600160a01b0319831681178455604051919092169283917f8be0079c531659141344cd1fd0a4f28419497f9722a3daafe3b4186f6b6457e09190a35050565b6001600160a01b0391909116815260200190565b6001600160a01b03811681146101d857600080fd5b634e487b7160e01b600052604160045260246000fd5b6000806000606084860312156102b157600080fd5b83356102bc81610271565b925060208401356102cc81610271565b915060408401356001600160401b038111156102e757600080fd5b8401601f810186136102f857600080fd5b80356001600160401b0381111561031157610311610286565b604051601f8201601f19908116603f011681016001600160401b038111828210171561033f5761033f610286565b60405281815282820160200188101561035757600080fd5b816020840160208301376000602083830101528093505050509250925092565b6000815180845260005b8181101561039d57602081850181015186830182015201610381565b506000602082860101526020601f19601f83011685010191505092915050565b6020815260006103d06020830184610377565b9392505050565b6000602082840312156103e957600080fd5b81356103d081610271565b6001600160a01b038316815260406020820181905260009061041890830184610377565b94935050505056fea2646970667358221220e16cd7918f972e72aeafb10733cd848d99a1310b2fab2840af8fb19a464102d364736f6c634300081b0033",
  "linkReferences": {},
  "deployedLinkReferences": {}
}