{
  "_format": "hh-sol-artifact-1",
  "contractName": "HorizonStakingExtension",
  "sourceName": "contracts/staking/HorizonStakingExtension.sol",
  "abi": [
    {
      "inputs": [
        {
          "internalType": "address",
          "name": "controller",
          "type": "address"
        },
        {
          "internalType": "address",
          "name": "subgraphDataServiceAddress",
          "type": "address"
        }
      ],
      "stateMutability": "nonpayable",
      "type": "constructor"
    },
    {
      "inputs": [
        {
          "internalType": "address",
          "name": "target",
          "type": "address"
        }
      ],
      "name": "AddressEmptyCode",
      "type": "error"
    },
    {
      "inputs": [],
      "name": "FailedInnerCall",
      "type": "error"
    },
    {
      "inputs": [
        {
          "internalType": "bytes",
          "name": "contractName",
          "type": "bytes"
        }
      ],
      "name": "GraphDirectoryInvalidZeroAddress",
      "type": "error"
    },
    {
      "inputs": [],
      "name": "HorizonStakingInvalidThawRequestType",
      "type": "error"
    },
    {
      "inputs": [],
      "name": "ManagedIsPaused",
      "type": "error"
    },
    {
      "inputs": [],
      "name": "ManagedOnlyController",
      "type": "error"
    },
    {
      "inputs": [],
      "name": "ManagedOnlyGovernor",
      "type": "error"
    },
    {
      "inputs": [
        {
          "internalType": "uint256",
          "name": "a",
          "type": "uint256"
        },
        {
          "internalType": "uint256",
          "name": "b",
          "type": "uint256"
        }
      ],
      "name": "PPMMathInvalidMulPPM",
      "type": "error"
    },
    {
      "inputs": [
        {
          "internalType": "uint256",
          "name": "value",
          "type": "uint256"
        }
      ],
      "name": "PPMMathInvalidPPM",
      "type": "error"
    },
    {
      "anonymous": false,
      "inputs": [
        {
          "indexed": true,
          "internalType": "address",
          "name": "indexer",
          "type": "address"
        },
        {
          "indexed": true,
          "internalType": "bytes32",
          "name": "subgraphDeploymentID",
          "type": "bytes32"
        },
        {
          "indexed": false,
          "internalType": "uint256",
          "name": "epoch",
          "type": "uint256"
        },
        {
          "indexed": false,
          "internalType": "uint256",
          "name": "tokens",
          "type": "uint256"
        },
        {
          "indexed": true,
          "internalType": "address",
          "name": "allocationID",
          "type": "address"
        },
        {
          "indexed": false,
          "internalType": "address",
          "name": "sender",
          "type": "address"
        },
        {
          "indexed": false,
          "internalType": "bytes32",
          "name": "poi",
          "type": "bytes32"
        },
        {
          "indexed": false,
          "internalType": "bool",
          "name": "isPublic",
          "type": "bool"
        }
      ],
      "name": "AllocationClosed",
      "type": "event"
    },
    {
      "anonymous": false,
      "inputs": [
        {
          "indexed": true,
          "internalType": "address",
          "name": "graphToken",
          "type": "address"
        },
        {
          "indexed": true,
          "internalType": "address",
          "name": "graphStaking",
          "type": "address"
        },
        {
          "indexed": false,
          "internalType": "address",
          "name": "graphPayments",
          "type": "address"
        },
        {
          "indexed": false,
          "internalType": "address",
          "name": "graphEscrow",
          "type": "address"
        },
        {
          "indexed": true,
          "internalType": "address",
          "name": "graphController",
          "type": "address"
        },
        {
          "indexed": false,
          "internalType": "address",
          "name": "graphEpochManager",
          "type": "address"
        },
        {
          "indexed": false,
          "internalType": "address",
          "name": "graphRewardsManager",
          "type": "address"
        },
        {
          "indexed": false,
          "internalType": "address",
          "name": "graphTokenGateway",
          "type": "address"
        },
        {
          "indexed": false,
          "internalType": "address",
          "name": "graphProxyAdmin",
          "type": "address"
        },
        {
          "indexed": false,
          "internalType": "address",
          "name": "graphCuration",
          "type": "address"
        }
      ],
      "name": "GraphDirectoryInitialized",
      "type": "event"
    },
    {
      "anonymous": false,
      "inputs": [
        {
          "indexed": true,
          "internalType": "address",
          "name": "serviceProvider",
          "type": "address"
        },
        {
          "indexed": false,
          "internalType": "uint256",
          "name": "tokens",
          "type": "uint256"
        }
      ],
      "name": "HorizonStakeDeposited",
      "type": "event"
    },
    {
      "anonymous": false,
      "inputs": [
        {
          "indexed": false,
          "internalType": "address",
          "name": "assetHolder",
          "type": "address"
        },
        {
          "indexed": true,
          "internalType": "address",
          "name": "indexer",
          "type": "address"
        },
        {
          "indexed": true,
          "internalType": "bytes32",
          "name": "subgraphDeploymentID",
          "type": "bytes32"
        },
        {
          "indexed": true,
          "internalType": "address",
          "name": "allocationID",
          "type": "address"
        },
        {
          "indexed": false,
          "internalType": "uint256",
          "name": "epoch",
          "type": "uint256"
        },
        {
          "indexed": false,
          "internalType": "uint256",
          "name": "tokens",
          "type": "uint256"
        },
        {
          "indexed": false,
          "internalType": "uint256",
          "name": "protocolTax",
          "type": "uint256"
        },
        {
          "indexed": false,
          "internalType": "uint256",
          "name": "curationFees",
          "type": "uint256"
        },
        {
          "indexed": false,
          "internalType": "uint256",
          "name": "queryFees",
          "type": "uint256"
        },
        {
          "indexed": false,
          "internalType": "uint256",
          "name": "queryRebates",
          "type": "uint256"
        },
        {
          "indexed": false,
          "internalType": "uint256",
          "name": "delegationRewards",
          "type": "uint256"
        }
      ],
      "name": "RebateCollected",
      "type": "event"
    },
    {
      "anonymous": false,
      "inputs": [
        {
          "indexed": true,
          "internalType": "address",
          "name": "indexer",
          "type": "address"
        },
        {
          "indexed": false,
          "internalType": "uint256",
          "name": "tokens",
          "type": "uint256"
        },
        {
          "indexed": false,
          "internalType": "uint256",
          "name": "reward",
          "type": "uint256"
        },
        {
          "indexed": false,
          "internalType": "address",
          "name": "beneficiary",
          "type": "address"
        }
      ],
      "name": "StakeSlashed",
      "type": "event"
    },
    {
      "inputs": [],
      "name": "__DEPRECATED_getThawingPeriod",
      "outputs": [
        {
          "internalType": "uint64",
          "name": "",
          "type": "uint64"
        }
      ],
      "stateMutability": "view",
      "type": "function"
    },
    {
      "inputs": [
        {
          "internalType": "contract IGraphProxy",
          "name": "_proxy",
          "type": "address"
        }
      ],
      "name": "acceptProxy",
      "outputs": [],
      "stateMutability": "nonpayable",
      "type": "function"
    },
    {
      "inputs": [
        {
          "internalType": "contract IGraphProxy",
          "name": "_proxy",
          "type": "address"
        },
        {
          "internalType": "bytes",
          "name": "_data",
          "type": "bytes"
        }
      ],
      "name": "acceptProxyAndCall",
      "outputs": [],
      "stateMutability": "nonpayable",
      "type": "function"
    },
    {
      "inputs": [
        {
          "internalType": "address",
          "name": "allocationID",
          "type": "address"
        },
        {
          "internalType": "bytes32",
          "name": "poi",
          "type": "bytes32"
        }
      ],
      "name": "closeAllocation",
      "outputs": [],
      "stateMutability": "nonpayable",
      "type": "function"
    },
    {
      "inputs": [
        {
          "internalType": "uint256",
          "name": "tokens",
          "type": "uint256"
        },
        {
          "internalType": "address",
          "name": "allocationID",
          "type": "address"
        }
      ],
      "name": "collect",
      "outputs": [],
      "stateMutability": "nonpayable",
      "type": "function"
    },
    {
      "inputs": [
        {
          "internalType": "address",
          "name": "allocationID",
          "type": "address"
        }
      ],
      "name": "getAllocation",
      "outputs": [
        {
          "components": [
            {
              "internalType": "address",
              "name": "indexer",
              "type": "address"
            },
            {
              "internalType": "bytes32",
              "name": "subgraphDeploymentID",
              "type": "bytes32"
            },
            {
              "internalType": "uint256",
              "name": "tokens",
              "type": "uint256"
            },
            {
              "internalType": "uint256",
              "name": "createdAtEpoch",
              "type": "uint256"
            },
            {
              "internalType": "uint256",
              "name": "closedAtEpoch",
              "type": "uint256"
            },
            {
              "internalType": "uint256",
              "name": "collectedFees",
              "type": "uint256"
            },
            {
              "internalType": "uint256",
              "name": "__DEPRECATED_effectiveAllocation",
              "type": "uint256"
            },
            {
              "internalType": "uint256",
              "name": "accRewardsPerAllocatedToken",
              "type": "uint256"
            },
            {
              "internalType": "uint256",
              "name": "distributedRebates",
              "type": "uint256"
            }
          ],
          "internalType": "struct IHorizonStakingExtension.Allocation",
          "name": "",
          "type": "tuple"
        }
      ],
      "stateMutability": "view",
      "type": "function"
    },
    {
      "inputs": [
        {
          "internalType": "address",
          "name": "allocationID",
          "type": "address"
        }
      ],
      "name": "getAllocationData",
      "outputs": [
        {
          "internalType": "address",
          "name": "",
          "type": "address"
        },
        {
          "internalType": "bytes32",
          "name": "",
          "type": "bytes32"
        },
        {
          "internalType": "uint256",
          "name": "",
          "type": "uint256"
        },
        {
          "internalType": "uint256",
          "name": "",
          "type": "uint256"
        },
        {
          "internalType": "uint256",
          "name": "",
          "type": "uint256"
        }
      ],
      "stateMutability": "view",
      "type": "function"
    },
    {
      "inputs": [
        {
          "internalType": "address",
          "name": "allocationID",
          "type": "address"
        }
      ],
      "name": "getAllocationState",
      "outputs": [
        {
          "internalType": "enum IHorizonStakingExtension.AllocationState",
          "name": "",
          "type": "uint8"
        }
      ],
      "stateMutability": "view",
      "type": "function"
    },
    {
      "inputs": [
        {
          "internalType": "address",
          "name": "serviceProvider",
          "type": "address"
        },
        {
          "internalType": "address",
          "name": "verifier",
          "type": "address"
        }
      ],
      "name": "getDelegatedTokensAvailable",
      "outputs": [
        {
          "internalType": "uint256",
          "name": "",
          "type": "uint256"
        }
      ],
      "stateMutability": "view",
      "type": "function"
    },
    {
      "inputs": [
        {
          "internalType": "address",
          "name": "serviceProvider",
          "type": "address"
        },
        {
          "internalType": "address",
          "name": "verifier",
          "type": "address"
        },
        {
          "internalType": "address",
          "name": "delegator",
          "type": "address"
        }
      ],
      "name": "getDelegation",
      "outputs": [
        {
          "components": [
            {
              "internalType": "uint256",
              "name": "shares",
              "type": "uint256"
            }
          ],
          "internalType": "struct IHorizonStakingTypes.Delegation",
          "name": "",
          "type": "tuple"
        }
      ],
      "stateMutability": "view",
      "type": "function"
    },
    {
      "inputs": [
        {
          "internalType": "address",
          "name": "serviceProvider",
          "type": "address"
        },
        {
          "internalType": "address",
          "name": "verifier",
          "type": "address"
        },
        {
          "internalType": "enum IGraphPayments.PaymentTypes",
          "name": "paymentType",
          "type": "uint8"
        }
      ],
      "name": "getDelegationFeeCut",
      "outputs": [
        {
          "internalType": "uint256",
          "name": "",
          "type": "uint256"
        }
      ],
      "stateMutability": "view",
      "type": "function"
    },
    {
      "inputs": [
        {
          "internalType": "address",
          "name": "serviceProvider",
          "type": "address"
        },
        {
          "internalType": "address",
          "name": "verifier",
          "type": "address"
        }
      ],
      "name": "getDelegationPool",
      "outputs": [
        {
          "components": [
            {
              "internalType": "uint256",
              "name": "tokens",
              "type": "uint256"
            },
            {
              "internalType": "uint256",
              "name": "shares",
              "type": "uint256"
            },
            {
              "internalType": "uint256",
              "name": "tokensThawing",
              "type": "uint256"
            },
            {
              "internalType": "uint256",
              "name": "sharesThawing",
              "type": "uint256"
            },
            {
              "internalType": "uint256",
              "name": "thawingNonce",
              "type": "uint256"
            }
          ],
          "internalType": "struct IHorizonStakingTypes.DelegationPool",
          "name": "",
          "type": "tuple"
        }
      ],
      "stateMutability": "view",
      "type": "function"
    },
    {
      "inputs": [
        {
          "internalType": "address",
          "name": "serviceProvider",
          "type": "address"
        }
      ],
      "name": "getIdleStake",
      "outputs": [
        {
          "internalType": "uint256",
          "name": "tokens",
          "type": "uint256"
        }
      ],
      "stateMutability": "view",
      "type": "function"
    },
    {
      "inputs": [
        {
          "internalType": "address",
          "name": "indexer",
          "type": "address"
        }
      ],
      "name": "getIndexerStakedTokens",
      "outputs": [
        {
          "internalType": "uint256",
          "name": "",
          "type": "uint256"
        }
      ],
      "stateMutability": "view",
      "type": "function"
    },
    {
      "inputs": [],
      "name": "getMaxThawingPeriod",
      "outputs": [
        {
          "internalType": "uint64",
          "name": "",
          "type": "uint64"
        }
      ],
      "stateMutability": "view",
      "type": "function"
    },
    {
      "inputs": [
        {
          "internalType": "address",
          "name": "serviceProvider",
          "type": "address"
        },
        {
          "internalType": "address",
          "name": "verifier",
          "type": "address"
        }
      ],
      "name": "getProviderTokensAvailable",
      "outputs": [
        {
          "internalType": "uint256",
          "name": "",
          "type": "uint256"
        }
      ],
      "stateMutability": "view",
      "type": "function"
    },
    {
      "inputs": [
        {
          "internalType": "address",
          "name": "serviceProvider",
          "type": "address"
        },
        {
          "internalType": "address",
          "name": "verifier",
          "type": "address"
        }
      ],
      "name": "getProvision",
      "outputs": [
        {
          "components": [
            {
              "internalType": "uint256",
              "name": "tokens",
              "type": "uint256"
            },
            {
              "internalType": "uint256",
              "name": "tokensThawing",
              "type": "uint256"
            },
            {
              "internalType": "uint256",
              "name": "sharesThawing",
              "type": "uint256"
            },
            {
              "internalType": "uint32",
              "name": "maxVerifierCut",
              "type": "uint32"
            },
            {
              "internalType": "uint64",
              "name": "thawingPeriod",
              "type": "uint64"
            },
            {
              "internalType": "uint64",
              "name": "createdAt",
              "type": "uint64"
            },
            {
              "internalType": "uint32",
              "name": "maxVerifierCutPending",
              "type": "uint32"
            },
            {
              "internalType": "uint64",
              "name": "thawingPeriodPending",
              "type": "uint64"
            },
            {
              "internalType": "uint256",
              "name": "thawingNonce",
              "type": "uint256"
            }
          ],
          "internalType": "struct IHorizonStakingTypes.Provision",
          "name": "",
          "type": "tuple"
        }
      ],
      "stateMutability": "view",
      "type": "function"
    },
    {
      "inputs": [
        {
          "internalType": "address",
          "name": "serviceProvider",
          "type": "address"
        }
      ],
      "name": "getServiceProvider",
      "outputs": [
        {
          "components": [
            {
              "internalType": "uint256",
              "name": "tokensStaked",
              "type": "uint256"
            },
            {
              "internalType": "uint256",
              "name": "tokensProvisioned",
              "type": "uint256"
            }
          ],
          "internalType": "struct IHorizonStakingTypes.ServiceProvider",
          "name": "",
          "type": "tuple"
        }
      ],
      "stateMutability": "view",
      "type": "function"
    },
    {
      "inputs": [
        {
          "internalType": "address",
          "name": "serviceProvider",
          "type": "address"
        }
      ],
      "name": "getStake",
      "outputs": [
        {
          "internalType": "uint256",
          "name": "",
          "type": "uint256"
        }
      ],
      "stateMutability": "view",
      "type": "function"
    },
    {
      "inputs": [
        {
          "internalType": "bytes32",
          "name": "subgraphDeploymentID",
          "type": "bytes32"
        }
      ],
      "name": "getSubgraphAllocatedTokens",
      "outputs": [
        {
          "internalType": "uint256",
          "name": "",
          "type": "uint256"
        }
      ],
      "stateMutability": "view",
      "type": "function"
    },
    {
      "inputs": [
        {
          "internalType": "enum IHorizonStakingTypes.ThawRequestType",
          "name": "requestType",
          "type": "uint8"
        },
        {
          "internalType": "bytes32",
          "name": "thawRequestId",
          "type": "bytes32"
        }
      ],
      "name": "getThawRequest",
      "outputs": [
        {
          "components": [
            {
              "internalType": "uint256",
              "name": "shares",
              "type": "uint256"
            },
            {
              "internalType": "uint64",
              "name": "thawingUntil",
              "type": "uint64"
            },
            {
              "internalType": "bytes32",
              "name": "next",
              "type": "bytes32"
            },
            {
              "internalType": "uint256",
              "name": "thawingNonce",
              "type": "uint256"
            }
          ],
          "internalType": "struct IHorizonStakingTypes.ThawRequest",
          "name": "",
          "type": "tuple"
        }
      ],
      "stateMutability": "view",
      "type": "function"
    },
    {
      "inputs": [
        {
          "internalType": "enum IHorizonStakingTypes.ThawRequestType",
          "name": "requestType",
          "type": "uint8"
        },
        {
          "internalType": "address",
          "name": "serviceProvider",
          "type": "address"
        },
        {
          "internalType": "address",
          "name": "verifier",
          "type": "address"
        },
        {
          "internalType": "address",
          "name": "owner",
          "type": "address"
        }
      ],
      "name": "getThawRequestList",
      "outputs": [
        {
          "components": [
            {
              "internalType": "bytes32",
              "name": "head",
              "type": "bytes32"
            },
            {
              "internalType": "bytes32",
              "name": "tail",
              "type": "bytes32"
            },
            {
              "internalType": "uint256",
              "name": "nonce",
              "type": "uint256"
            },
            {
              "internalType": "uint256",
              "name": "count",
              "type": "uint256"
            }
          ],
          "internalType": "struct LinkedList.List",
          "name": "",
          "type": "tuple"
        }
      ],
      "stateMutability": "view",
      "type": "function"
    },
    {
      "inputs": [
        {
          "internalType": "enum IHorizonStakingTypes.ThawRequestType",
          "name": "requestType",
          "type": "uint8"
        },
        {
          "internalType": "address",
          "name": "serviceProvider",
          "type": "address"
        },
        {
          "internalType": "address",
          "name": "verifier",
          "type": "address"
        },
        {
          "internalType": "address",
          "name": "owner",
          "type": "address"
        }
      ],
      "name": "getThawedTokens",
      "outputs": [
        {
          "internalType": "uint256",
          "name": "",
          "type": "uint256"
        }
      ],
      "stateMutability": "view",
      "type": "function"
    },
    {
      "inputs": [
        {
          "internalType": "address",
          "name": "serviceProvider",
          "type": "address"
        },
        {
          "internalType": "address",
          "name": "verifier",
          "type": "address"
        },
        {
          "internalType": "uint32",
          "name": "delegationRatio",
          "type": "uint32"
        }
      ],
      "name": "getTokensAvailable",
      "outputs": [
        {
          "internalType": "uint256",
          "name": "",
          "type": "uint256"
        }
      ],
      "stateMutability": "view",
      "type": "function"
    },
    {
      "inputs": [
        {
          "internalType": "address",
          "name": "indexer",
          "type": "address"
        }
      ],
      "name": "hasStake",
      "outputs": [
        {
          "internalType": "bool",
          "name": "",
          "type": "bool"
        }
      ],
      "stateMutability": "view",
      "type": "function"
    },
    {
      "inputs": [
        {
          "internalType": "address",
          "name": "allocationID",
          "type": "address"
        }
      ],
      "name": "isAllocation",
      "outputs": [
        {
          "internalType": "bool",
          "name": "",
          "type": "bool"
        }
      ],
      "stateMutability": "view",
      "type": "function"
    },
    {
      "inputs": [
        {
          "internalType": "address",
          "name": "verifier",
          "type": "address"
        }
      ],
      "name": "isAllowedLockedVerifier",
      "outputs": [
        {
          "internalType": "bool",
          "name": "",
          "type": "bool"
        }
      ],
      "stateMutability": "view",
      "type": "function"
    },
    {
      "inputs": [],
      "name": "isDelegationSlashingEnabled",
      "outputs": [
        {
          "internalType": "bool",
          "name": "",
          "type": "bool"
        }
      ],
      "stateMutability": "view",
      "type": "function"
    },
    {
      "inputs": [
        {
          "internalType": "address",
          "name": "operator",
          "type": "address"
        },
        {
          "internalType": "address",
          "name": "serviceProvider",
          "type": "address"
        }
      ],
      "name": "isOperator",
      "outputs": [
        {
          "internalType": "bool",
          "name": "",
          "type": "bool"
        }
      ],
      "stateMutability": "view",
      "type": "function"
    },
    {
      "inputs": [
        {
          "internalType": "address",
          "name": "indexer",
          "type": "address"
        },
        {
          "internalType": "uint256",
          "name": "tokens",
          "type": "uint256"
        },
        {
          "internalType": "uint256",
          "name": "reward",
          "type": "uint256"
        },
        {
          "internalType": "address",
          "name": "beneficiary",
          "type": "address"
        }
      ],
      "name": "legacySlash",
      "outputs": [],
      "stateMutability": "nonpayable",
      "type": "function"
    },
    {
      "inputs": [
        {
          "internalType": "bytes[]",
          "name": "data",
          "type": "bytes[]"
        }
      ],
      "name": "multicall",
      "outputs": [
        {
          "internalType": "bytes[]",
          "name": "results",
          "type": "bytes[]"
        }
      ],
      "stateMutability": "nonpayable",
      "type": "function"
    },
    {
      "stateMutability": "payable",
      "type": "receive"
    }
  ],
  "bytecode": "0x6101e060405234801561001157600080fd5b5060405161340d38038061340d83398101604081905261003091610411565b818181806001600160a01b03811661007d5760405163218f5add60e11b815260206004820152600a60248201526921b7b73a3937b63632b960b11b60448201526064015b60405180910390fd5b6001600160a01b0381166101005260408051808201909152600a81526923b930b8342a37b5b2b760b11b60208201526100b590610347565b6001600160a01b03166080526040805180820190915260078152665374616b696e6760c81b60208201526100e890610347565b6001600160a01b031660a05260408051808201909152600d81526c47726170685061796d656e747360981b602082015261012190610347565b6001600160a01b031660c05260408051808201909152600e81526d5061796d656e7473457363726f7760901b602082015261015b90610347565b6001600160a01b031660e05260408051808201909152600c81526b22b837b1b426b0b730b3b2b960a11b602082015261019390610347565b6001600160a01b03166101205260408051808201909152600e81526d2932bbb0b93239a6b0b730b3b2b960911b60208201526101ce90610347565b6001600160a01b0316610140526040805180820190915260118152704772617068546f6b656e4761746577617960781b602082015261020c90610347565b6001600160a01b03166101605260408051808201909152600f81526e23b930b834283937bc3ca0b236b4b760891b602082015261024890610347565b6001600160a01b03166101805260408051808201909152600881526721bab930ba34b7b760c11b602082015261027d90610347565b6001600160a01b039081166101a08190526101005160a05160805160c05160e05161012051610140516101605161018051604051988b169a9788169996909716977fef5021414834d86e36470f5c1cecf6544fb2bb723f2ca51a4c86fcd8c5919a43976103279790916001600160a01b03978816815295871660208701529386166040860152918516606085015284166080840152831660a083015290911660c082015260e00190565b60405180910390a450506001600160a01b03166101c052506104b4915050565b600080610100516001600160a01b031663f7641a5e84805190602001206040518263ffffffff1660e01b815260040161038291815260200190565b602060405180830381865afa15801561039f573d6000803e3d6000fd5b505050506040513d601f19601f820116820180604052508101906103c39190610444565b9050826001600160a01b0382166103ee5760405163218f5add60e11b81526004016100749190610466565b5092915050565b80516001600160a01b038116811461040c57600080fd5b919050565b6000806040838503121561042457600080fd5b61042d836103f5565b915061043b602084016103f5565b90509250929050565b60006020828403121561045657600080fd5b61045f826103f5565b9392505050565b602081526000825180602084015260005b818110156104945760208186018101516040868401015201610477565b506000604082850101526040601f19601f83011684010191505092915050565b60805160a05160c05160e05161010051610120516101405161016051610180516101a0516101c051612ee261052b6000396000611ea20152600061200e015260005050600050506000612581015260006122d6015260006119fd01526000505060005050600050506000611a380152612ee26000f3fe60806040526004361061016c5760003560e01c806308ce5f68146101bd5780630e022923146101f05780631787e69f1461028557806325d9897e146102bb5780632f7cc501146103dd57806339514ad2146103fd5780634488a3821461042f57806344c32a611461045157806355c8526914610471578063561285e41461054f5780637573ef4f146105b15780637a76646014610285578063872d0489146105d15780638cc01c86146105f15780638d3c100a1461062c57806398c657dc1461064c5780639ce7abe514610679578063a2594d8214610699578063a784d498146106b9578063ac9650d8146106d9578063ae4fe67a14610706578063b6363cf21461074f578063c06419941461076f578063ccebcabb1461078a578063d48de845146107b9578063e2e1e8e914610815578063e56f8a1d14610842578063e73e14bf14610895578063f1d60d66146108cd578063fb744cc0146108ed578063fc54fb271461090d57600080fd5b366101b85760405162461bcd60e51b8152602060048201526017602482015276149150d152559157d1551217d393d517d0531313d5d151604a1b60448201526064015b60405180910390fd5b600080fd5b3480156101c957600080fd5b506101dd6101d83660046127cb565b610925565b6040519081526020015b60405180910390f35b3480156101fc57600080fd5b5061021061020b366004612804565b61093a565b6040516101e7919060006101208201905060018060a01b0383511682526020830151602083015260408301516040830152606083015160608301526080830151608083015260a083015160a083015260c083015160c083015260e083015160e083015261010083015161010083015292915050565b34801561029157600080fd5b506101dd6102a0366004612804565b6001600160a01b03166000908152600e602052604090205490565b3480156102c757600080fd5b506103d06102d63660046127cb565b6040805161012081018252600080825260208201819052918101829052606081018290526080810182905260a0810182905260c0810182905260e08101829052610100810191909152506001600160a01b039182166000908152601b6020908152604080832093909416825291825282902082516101208101845281548152600182015492810192909252600281015492820192909252600382015463ffffffff8082166060840152600160201b82046001600160401b039081166080850152600160601b8304811660a0850152600160a01b830490911660c0840152600160c01b9091041660e082015260049091015461010082015290565b6040516101e79190612821565b3480156103e957600080fd5b506101dd6103f83660046128d6565b610a1a565b34801561040957600080fd5b50601a546001600160401b03165b6040516001600160401b0390911681526020016101e7565b34801561043b57600080fd5b5061044f61044a366004612930565b610b0e565b005b34801561045d57600080fd5b5061044f61046c36600461296f565b610e71565b34801561047d57600080fd5b5061051d61048c366004612804565b6001600160a01b039081166000908152600f602090815260408083208151610120810183528154909516808652600182015493860184905260028201549286018390526003820154606087015260048201546080870152600582015460a0870152600682015460c0870152600782015460e08701819052600890920154610100909601959095529394919390929091565b604080516001600160a01b0390961686526020860194909452928401919091526060830152608082015260a0016101e7565b34801561055b57600080fd5b5061056f61056a3660046127cb565b610f06565b6040516101e79190600060a082019050825182526020830151602083015260408301516040830152606083015160608301526080830151608083015292915050565b3480156105bd57600080fd5b506101dd6105cc36600461299b565b610f58565b3480156105dd57600080fd5b506101dd6105ec3660046129ea565b610fbc565b3480156105fd57600080fd5b5061061161060c366004612804565b611011565b604080518251815260209283015192810192909252016101e7565b34801561063857600080fd5b5061044f610647366004612a33565b61104d565b34801561065857600080fd5b5061066c610667366004612804565b61149c565b6040516101e79190612a6e565b34801561068557600080fd5b5061044f610694366004612a96565b6114a7565b3480156106a557600080fd5b5061044f6106b4366004612804565b6115a2565b3480156106c557600080fd5b506101dd6106d4366004612804565b61168e565b3480156106e557600080fd5b506106f96106f4366004612b1b565b611699565b6040516101e79190612bb4565b34801561071257600080fd5b5061073f610721366004612804565b6001600160a01b031660009081526022602052604090205460ff1690565b60405190151581526020016101e7565b34801561075b57600080fd5b5061073f61076a3660046127cb565b611780565b34801561077b57600080fd5b50600d5463ffffffff16610417565b34801561079657600080fd5b506107aa6107a5366004612c34565b6117af565b604051905181526020016101e7565b3480156107c557600080fd5b506107d96107d4366004612c74565b611801565b6040516101e79190815181526020808301516001600160401b031690820152604080830151908201526060918201519181019190915260800190565b34801561082157600080fd5b506101dd610830366004612c90565b60009081526010602052604090205490565b34801561084e57600080fd5b5061086261085d3660046128d6565b61186e565b6040516101e791908151815260208083015190820152604080830151908201526060918201519181019190915260800190565b3480156108a157600080fd5b5061073f6108b0366004612804565b6001600160a01b03166000908152600e6020526040902054151590565b3480156108d957600080fd5b5061073f6108e8366004612804565b6118d6565b3480156108f957600080fd5b506101dd6109083660046127cb565b6118fb565b34801561091957600080fd5b5060205460ff1661073f565b60006109318383611907565b90505b92915050565b61099560405180610120016040528060006001600160a01b0316815260200160008019168152602001600081526020016000815260200160008152602001600081526020016000815260200160008152602001600081525090565b506001600160a01b039081166000908152600f6020908152604091829020825161012081018452815490941684526001810154918401919091526002810154918301919091526003810154606083015260048101546080830152600581015460a0830152600681015460c0830152600781015460e08301526008015461010082015290565b600080610a298686868661193f565b90508060030154600003610a41576000915050610b06565b6001600160a01b038086166000908152601b6020908152604080832093881683529290529081206001810154600282015484545b8015610afd576000610a878c836119ab565b6001810154909150426001600160401b0390911611610aec57600083858360000154610ab39190612cbf565b610abd9190612cd6565b9050610ac98186612cf8565b8254909550610ad89085612cf8565b9350610ae48188612d0b565b965050610af2565b50610afd565b600201549050610a75565b50929450505050505b949350505050565b3360009081526012602052604090205460ff161515600114610b5d5760405162461bcd60e51b815260206004820152600860248201526710b9b630b9b432b960c11b60448201526064016101af565b610b656119fb565b6001600160a01b0316635c975abb6040518163ffffffff1660e01b8152600401602060405180830381865afa158015610ba2573d6000803e3d6000fd5b505050506040513d601f19601f82011682018060405250810190610bc69190612d1e565b15610be457604051632b37d9d160e21b815260040160405180910390fd5b6001600160a01b0384166000908152600e6020526040902083610c335760405162461bcd60e51b815260206004820152600760248201526621746f6b656e7360c81b60448201526064016101af565b82841015610c735760405162461bcd60e51b815260206004820152600d60248201526c0e4caeec2e4c8e67ce6d8c2e6d609b1b60448201526064016101af565b8054610caa5760405162461bcd60e51b8152602060048201526006602482015265217374616b6560d01b60448201526064016101af565b8054841115610ce95760405162461bcd60e51b815260206004820152600b60248201526a736c6173683e7374616b6560a81b60448201526064016101af565b6001600160a01b038216610d2e5760405162461bcd60e51b815260206004820152600c60248201526b2162656e656669636961727960a01b60448201526064016101af565b600081600201548260010154610d449190612d0b565b9050600082600001548211610d65578254610d60908390612cf8565b610d68565b60005b90508086118015610d7d575060008360020154115b15610dcb576000610d8e8288612cf8565b90506000610da0828660020154611a1f565b9050808560020154610db29190612cf8565b60028601819055600003610dc857600060038601555b50505b8254610dd8908790612cf8565b8355610dfe610de78688612cf8565b610def611a36565b6001600160a01b031690611a5a565b610e1b8486610e0b611a36565b6001600160a01b03169190611aa2565b60408051878152602081018790526001600160a01b03868116828401529151918916917ff2717be2f27d9d2d7d265e42dc556e40d2d9aeaba02f49c5286030f30c0571f39181900360600190a250505050505050565b610e796119fb565b6001600160a01b0316635c975abb6040518163ffffffff1660e01b8152600401602060405180830381865afa158015610eb6573d6000803e3d6000fd5b505050506040513d601f19601f82011682018060405250810190610eda9190612d1e565b15610ef857604051632b37d9d160e21b815260040160405180910390fd5b610f028282611b59565b5050565b610f0e61276d565b610f1661276d565b6000610f228585611e9e565b60028101548352600381015460208401526005810154604084015260068101546060840152600701546080830152509392505050565b6001600160a01b038084166000908152601c60209081526040808320938616835292905290812081836002811115610f9257610f92612a58565b6002811115610fa357610fa3612a58565b81526020019081526020016000205490505b9392505050565b600080610fc98585611907565b90506000610fd78686611f22565b90506000610feb63ffffffff861684612cbf565b90506000610ff98383611a1f565b90506110058185612d0b565b98975050505050505050565b61101961279c565b61102161279c565b6001600160a01b039092166000908152600e602090815260409091208054845260040154908301525090565b6110556119fb565b6001600160a01b0316635c975abb6040518163ffffffff1660e01b8152600401602060405180830381865afa158015611092573d6000803e3d6000fd5b505050506040513d601f19601f820116820180604052508101906110b69190612d1e565b156110d457604051632b37d9d160e21b815260040160405180910390fd5b6001600160a01b0381166111135760405162461bcd60e51b815260206004820152600660248201526521616c6c6f6360d01b60448201526064016101af565b600061111e82611f45565b9050600081600281111561113457611134612a58565b0361116c5760405162461bcd60e51b81526020600482015260086024820152670858dbdb1b1958dd60c21b60448201526064016101af565b8260000361117957505050565b6001600160a01b0382166000908152600f602052604081206001810154909185908080806111ba33866111aa611a36565b6001600160a01b03169190611f9e565b600d546111d5908690600160401b900463ffffffff16611fdf565b93506111e18486612cf8565b600d549095506112019087908790600160201b900463ffffffff16611ffa565b925061120d8386612cf8565b945084876005015461121f9190612d0b565b6005880155600287015460009015806112455750601954600160a01b900463ffffffff16155b6113105760058801546002890154600d546019546040516349484d8160e01b81526004810194909452602484019290925263ffffffff600160a01b80830482166044860152600160c01b928390048216606486015283048116608485015291041660a482015273__$8eb3cac1482a31d7a7f2cbe7dc8bdcd821$__906349484d819060c401602060405180830381865af41580156112e7573d6000803e3d6000fd5b505050506040513d601f19601f8201168201806040525081019061130b9190612d40565b611313565b60005b90506113238189600801546121d0565b925061132f8387611a1f565b925061133e610de78488612cf8565b82156113a6578288600801546113549190612d0b565b6008890155875461136e906001600160a01b0316846121ea565b915061137a8284612cf8565b88546001600160a01b039081166000818152601760205260409020549295506113a6928692161561227c565b5086546001600160a01b03808b16918891167ff5ded07502b6feba4c13b19a0c6646efd4b4119f439bcbd49076e4f0ed1eec4b336113e26122d4565b6001600160a01b031663766718086040518163ffffffff1660e01b8152600401602060405180830381865afa15801561141f573d6000803e3d6000fd5b505050506040513d601f19601f820116820180604052508101906114439190612d40565b604080516001600160a01b039093168352602083019190915281018f9052606081018990526080810188905260a081018a905260c0810187905260e081018690526101000160405180910390a450505050505050505050565b600061093482611f45565b82806001600160a01b031663f851a4406040518163ffffffff1660e01b81526004016020604051808303816000875af11580156114e8573d6000803e3d6000fd5b505050506040513d601f19601f8201168201806040525081019061150c9190612d59565b6001600160a01b0316336001600160a01b03161461153c5760405162461bcd60e51b81526004016101af90612d76565b60405163623faf6160e01b81526001600160a01b0385169063623faf619061156a9086908690600401612dad565b600060405180830381600087803b15801561158457600080fd5b505af1158015611598573d6000803e3d6000fd5b5050505050505050565b80806001600160a01b031663f851a4406040518163ffffffff1660e01b81526004016020604051808303816000875af11580156115e3573d6000803e3d6000fd5b505050506040513d601f19601f820116820180604052508101906116079190612d59565b6001600160a01b0316336001600160a01b0316146116375760405162461bcd60e51b81526004016101af90612d76565b816001600160a01b03166359fc20bb6040518163ffffffff1660e01b8152600401600060405180830381600087803b15801561167257600080fd5b505af1158015611686573d6000803e3d6000fd5b505050505050565b6000610934826122f8565b604080516000815260208101909152606090826001600160401b038111156116c3576116c3612ddc565b6040519080825280602002602001820160405280156116f657816020015b60608152602001906001900390816116e15790505b50915060005b83811015611778576117533086868481811061171a5761171a612df2565b905060200281019061172c9190612e08565b8560405160200161173f93929190612e55565b604051602081830303815290604052612369565b83828151811061176557611765612df2565b60209081029190910101526001016116fc565b505092915050565b6001600160a01b0380821660009081526015602090815260408083209386168352929052205460ff1692915050565b60408051602081019091526000815260408051602081019091526000815260006117d98686611e9e565b6001600160a01b03851660009081526004909101602052604090205482525090509392505050565b60408051608081018252600080825260208201819052918101829052606081019190915261182f83836119ab565b604080516080810182528254815260018301546001600160401b0316602082015260028301549181019190915260039091015460608201529392505050565b60408051608081018252600080825260208201819052918101829052606081019190915261189e8585858561193f565b604080516080810182528254815260018301546020820152600283015491810191909152600390910154606082015295945050505050565b6000806118e283611f45565b60028111156118f3576118f3612a58565b141592915050565b60006109318383611f22565b6001600160a01b038281166000908152601b602090815260408083209385168352929052908120600181015490546109319190612cf8565b6000601e600086600181111561195757611957612a58565b600181111561196857611968612a58565b8152602080820192909252604090810160009081206001600160a01b03978816825283528181209587168152948252808520939095168452919091525020919050565b6000601d60008460018111156119c3576119c3612a58565b60018111156119d4576119d4612a58565b81526020019081526020016000206000838152602001908152602001600020905092915050565b7f000000000000000000000000000000000000000000000000000000000000000090565b600081831115611a2f5781610931565b5090919050565b7f000000000000000000000000000000000000000000000000000000000000000090565b8015610f0257604051630852cd8d60e31b8152600481018290526001600160a01b038316906342966c6890602401600060405180830381600087803b15801561167257600080fd5b8015611b545760405163a9059cbb60e01b81526001600160a01b0383811660048301526024820183905284169063a9059cbb906044015b6020604051808303816000875af1158015611af8573d6000803e3d6000fd5b505050506040513d601f19601f82011682018060405250810190611b1c9190612d1e565b611b545760405162461bcd60e51b815260206004820152600960248201526810ba3930b739b332b960b91b60448201526064016101af565b505050565b6000611b6483611f45565b90506001816002811115611b7a57611b7a612a58565b14611bb15760405162461bcd60e51b81526020600482015260076024820152662161637469766560c81b60448201526064016101af565b6001600160a01b038084166000908152600f6020908152604091829020825161012081018452815490941684526001810154918401919091526002810154918301919091526003810154606083015260048101546080830152600581015460a0830152600681015460c0830152600781015460e083015260080154610100820152611c3a6122d4565b6001600160a01b031663766718086040518163ffffffff1660e01b8152600401602060405180830381865afa158015611c77573d6000803e3d6000fd5b505050506040513d601f19601f82011682018060405250810190611c9b9190612d40565b608082018190526060820151600091611cb3916121d0565b9050600082600001516001600160a01b0316336001600160a01b03161480611ce45750611ce4338460000151611780565b600d54909150600160801b900463ffffffff1682111580611d0757506040830151155b15611d415780611d415760405162461bcd60e51b8152602060048201526005602482015264042c2eae8d60db1b60448201526064016101af565b60808301516001600160a01b0387166000908152600f6020526040908190206004019190915583015115611e2557808015611d7b57508415155b15611d9357611d8e8684600001516123df565b611da2565b611da083602001516124b3565b505b60408084015184516001600160a01b03166000908152600e6020529190912060010154611dcf9190612cf8565b83516001600160a01b03166000908152600e602090815260408083206001019390935582860151818701518352601090915291902054611e0f9190612cf8565b6020808501516000908152601090915260409020555b60208084015184516080808701516040808901518151928352958201959095523394810194909452606084018990528415908401526001600160a01b03808a16939116907ff6725dd105a6fc88bb79a6e4627f128577186c567a17c94818d201c2a4ce14039060a00160405180910390a4505050505050565b60007f00000000000000000000000000000000000000000000000000000000000000006001600160a01b0316826001600160a01b031603611ef757506001600160a01b0382166000908152601460205260409020610934565b506001600160a01b038083166000908152602160209081526040808320938516835292905220610934565b600080611f2f8484611e9e565b905080600501548160020154610b069190612cf8565b6001600160a01b038082166000908152600f6020526040812080549192909116611f725750600092915050565b600381015415801590611f8757506004810154155b15611f955750600192915050565b50600292915050565b8015611b54576040516323b872dd60e01b81526001600160a01b038381166004830152306024830152604482018390528416906323b872dd90606401611ad9565b600080611fec848461252d565b905061093181610def611a36565b60008260000361200c57506000610fb5565b7f00000000000000000000000000000000000000000000000000000000000000006000831580159061204657506001600160a01b03821615155b90508080156120b95750604051634c4ea0ed60e01b8152600481018790526001600160a01b03831690634c4ea0ed90602401602060405180830381865afa158015612095573d6000803e3d6000fd5b505050506040513d601f19601f820116820180604052508101906120b99190612d1e565b156121c45760006120ca868661252d565b905080156121ba576120da61257f565b6001600160a01b0316631d1c2fec886040518263ffffffff1660e01b815260040161210791815260200190565b6020604051808303816000875af1158015612126573d6000803e3d6000fd5b505050506040513d601f19601f8201168201806040525081019061214a9190612d40565b506121588382610e0b611a36565b60405163102ae65160e31b815260048101889052602481018290526001600160a01b03841690638157328890604401600060405180830381600087803b1580156121a157600080fd5b505af11580156121b5573d6000803e3d6000fd5b505050505b9250610fb5915050565b50600095945050505050565b60008183116121e0576000610931565b6109318284612cf8565b6001600160a01b038216600090815260146020526040812060028101548291901580159061222957508054600160401b900463ffffffff16620f424010155b1561227457805460009061224f9063ffffffff600160401b90910481169087906125a316565b905061225b8186612cf8565b925082826002015461226d9190612d0b565b6002830155505b509392505050565b8260000361228957505050565b801561229957611b54828461260a565b6001600160a01b03808316600090815260176020526040902054166122ce81156122c357816122c5565b835b85610e0b611a36565b50505050565b7f000000000000000000000000000000000000000000000000000000000000000090565b6001600160a01b0381166000908152600e6020526040812060028101546001820154600490920154839261232b91612d0b565b6123359190612d0b565b6001600160a01b0384166000908152600e602052604090205490915081811161235f576000610b06565b610b068282612cf8565b6060600080846001600160a01b0316846040516123869190612e7c565b600060405180830381855af49150503d80600081146123c1576040519150601f19603f3d011682016040523d82523d6000602084013e6123c6565b606091505b50915091506123d6858383612689565b95945050505050565b60006123e961257f565b6001600160a01b031663db750926846040518263ffffffff1660e01b81526004016124149190612e98565b6020604051808303816000875af1158015612433573d6000803e3d6000fd5b505050506040513d601f19601f820116820180604052508101906124579190612d40565b90508060000361246657505050565b600061247283836126dc565b905060006124808284612cf8565b6001600160a01b038086166000908152601760205260409020549192506124ac9183918791161561227c565b5050505050565b60006124bd61257f565b6001600160a01b031663eeac3e0e836040518263ffffffff1660e01b81526004016124ea91815260200190565b6020604051808303816000875af1158015612509573d6000803e3d6000fd5b505050506040513d601f19601f820116820180604052508101906109349190612d40565b600061253c82620f4240101590565b829061255e57604051633dc311df60e01b81526004016101af91815260200190565b506125758361257084620f4240612cf8565b6125a3565b6109319084612cf8565b7f000000000000000000000000000000000000000000000000000000000000000090565b60006125b283620f4240101590565b806125c557506125c582620f4240101590565b838390916125ef5760405163768bf0eb60e11b8152600481019290925260248201526044016101af565b50620f424090506126008385612cbf565b6109319190612cd6565b6001600160a01b0382166000908152600e602052604090205461262e908290612d0b565b6001600160a01b0383166000818152600e6020526040908190209290925590517f48c384dd8bdf1e06d8afecd810c4acfc3d553ac5d879dec5a69875dbbd90e14b9061267d9084815260200190565b60405180910390a25050565b60608261269e5761269982612741565b610fb5565b81511580156126b557506001600160a01b0384163b155b156126d55783604051639996b31560e01b81526004016101af9190612e98565b5080610fb5565b6001600160a01b038216600090815260146020526040812060028101548291901580159061271b57508054600160201b900463ffffffff16620f424010155b1561227457805460009061224f9063ffffffff600160201b90910481169087906125a316565b8051156127515780518082602001fd5b604051630a12f52160e11b815260040160405180910390fd5b50565b6040518060a0016040528060008152602001600081526020016000815260200160008152602001600081525090565b604051806040016040528060008152602001600081525090565b6001600160a01b038116811461276a57600080fd5b600080604083850312156127de57600080fd5b82356127e9816127b6565b915060208301356127f9816127b6565b809150509250929050565b60006020828403121561281657600080fd5b8135610931816127b6565b60006101208201905082518252602083015160208301526040830151604083015263ffffffff60608401511660608301526001600160401b03608084015116608083015260a083015161287f60a08401826001600160401b03169052565b5060c083015161289760c084018263ffffffff169052565b5060e08301516128b260e08401826001600160401b03169052565b5061010092830151919092015290565b8035600281106128d157600080fd5b919050565b600080600080608085870312156128ec57600080fd5b6128f5856128c2565b93506020850135612905816127b6565b92506040850135612915816127b6565b91506060850135612925816127b6565b939692955090935050565b6000806000806080858703121561294657600080fd5b8435612951816127b6565b935060208501359250604085013591506060850135612925816127b6565b6000806040838503121561298257600080fd5b823561298d816127b6565b946020939093013593505050565b6000806000606084860312156129b057600080fd5b83356129bb816127b6565b925060208401356129cb816127b6565b91506040840135600381106129df57600080fd5b809150509250925092565b6000806000606084860312156129ff57600080fd5b8335612a0a816127b6565b92506020840135612a1a816127b6565b9150604084013563ffffffff811681146129df57600080fd5b60008060408385031215612a4657600080fd5b8235915060208301356127f9816127b6565b634e487b7160e01b600052602160045260246000fd5b6020810160038310612a9057634e487b7160e01b600052602160045260246000fd5b91905290565b600080600060408486031215612aab57600080fd5b8335612ab6816127b6565b925060208401356001600160401b03811115612ad157600080fd5b8401601f81018613612ae257600080fd5b80356001600160401b03811115612af857600080fd5b866020828401011115612b0a57600080fd5b939660209190910195509293505050565b60008060208385031215612b2e57600080fd5b82356001600160401b03811115612b4457600080fd5b8301601f81018513612b5557600080fd5b80356001600160401b03811115612b6b57600080fd5b8560208260051b8401011115612b8057600080fd5b6020919091019590945092505050565b60005b83811015612bab578181015183820152602001612b93565b50506000910152565b6000602082016020835280845180835260408501915060408160051b86010192506020860160005b82811015612c2857603f1987860301845281518051808752612c05816020890160208501612b90565b601f01601f19169590950160209081019550938401939190910190600101612bdc565b50929695505050505050565b600080600060608486031215612c4957600080fd5b8335612c54816127b6565b92506020840135612c64816127b6565b915060408401356129df816127b6565b60008060408385031215612c8757600080fd5b61298d836128c2565b600060208284031215612ca257600080fd5b5035919050565b634e487b7160e01b600052601160045260246000fd5b808202811582820484141761093457610934612ca9565b600082612cf357634e487b7160e01b600052601260045260246000fd5b500490565b8181038181111561093457610934612ca9565b8082018082111561093457610934612ca9565b600060208284031215612d3057600080fd5b8151801515811461093157600080fd5b600060208284031215612d5257600080fd5b5051919050565b600060208284031215612d6b57600080fd5b8151610931816127b6565b6020808252601e908201527f43616c6c6572206d757374206265207468652070726f78792061646d696e0000604082015260600190565b60208152816020820152818360408301376000818301604090810191909152601f909201601f19160101919050565b634e487b7160e01b600052604160045260246000fd5b634e487b7160e01b600052603260045260246000fd5b6000808335601e19843603018112612e1f57600080fd5b8301803591506001600160401b03821115612e3957600080fd5b602001915036819003821315612e4e57600080fd5b9250929050565b828482376000838201600081528351612e72818360208801612b90565b0195945050505050565b60008251612e8e818460208701612b90565b9190910192915050565b6001600160a01b039190911681526020019056fea2646970667358221220897a3206288b13167799bfe037e1e94dfa1f1cbdab3a3cde5027cf681d024da164736f6c634300081b0033",
  "linkReferences": {
    "contracts/staking/libraries/ExponentialRebates.sol": {
      "ExponentialRebates": [
        {
          "length": 20,
          "start": 6104
        }
      ]
    }
  },
  "deployedLinkReferences": {
    "contracts/staking/libraries/ExponentialRebates.sol": {
      "ExponentialRebates": [
        {
          "length": 20,
          "start": 4781
        }
      ]
    }
  }
}