{
  "_format": "hh-sol-artifact-1",
  "contractName": "HorizonStaking",
  "sourceName": "contracts/staking/HorizonStaking.sol",
  "abi": [
    {
      "inputs": [
        {
          "internalType": "address",
          "name": "controller",
          "type": "address"
        },
        {
          "internalType": "address",
          "name": "stakingExtensionAddress",
          "type": "address"
        },
        {
          "internalType": "address",
          "name": "subgraphDataServiceAddress",
          "type": "address"
        }
      ],
      "stateMutability": "nonpayable",
      "type": "constructor"
    },
    {
      "inputs": [
        {
          "internalType": "address",
          "name": "target",
          "type": "address"
        }
      ],
      "name": "AddressEmptyCode",
      "type": "error"
    },
    {
      "inputs": [],
      "name": "FailedInnerCall",
      "type": "error"
    },
    {
      "inputs": [
        {
          "internalType": "bytes",
          "name": "contractName",
          "type": "bytes"
        }
      ],
      "name": "GraphDirectoryInvalidZeroAddress",
      "type": "error"
    },
    {
      "inputs": [],
      "name": "HorizonStakingCallerIsServiceProvider",
      "type": "error"
    },
    {
      "inputs": [
        {
          "internalType": "uint256",
          "name": "tokens",
          "type": "uint256"
        },
        {
          "internalType": "uint256",
          "name": "minTokens",
          "type": "uint256"
        }
      ],
      "name": "HorizonStakingInsufficientDelegationTokens",
      "type": "error"
    },
    {
      "inputs": [
        {
          "internalType": "uint256",
          "name": "tokens",
          "type": "uint256"
        },
        {
          "internalType": "uint256",
          "name": "minTokens",
          "type": "uint256"
        }
      ],
      "name": "HorizonStakingInsufficientIdleStake",
      "type": "error"
    },
    {
      "inputs": [
        {
          "internalType": "uint256",
          "name": "shares",
          "type": "uint256"
        },
        {
          "internalType": "uint256",
          "name": "minShares",
          "type": "uint256"
        }
      ],
      "name": "HorizonStakingInsufficientShares",
      "type": "error"
    },
    {
      "inputs": [
        {
          "internalType": "uint256",
          "name": "tokens",
          "type": "uint256"
        },
        {
          "internalType": "uint256",
          "name": "minTokens",
          "type": "uint256"
        }
      ],
      "name": "HorizonStakingInsufficientStakeForLegacyAllocations",
      "type": "error"
    },
    {
      "inputs": [
        {
          "internalType": "uint256",
          "name": "tokens",
          "type": "uint256"
        },
        {
          "internalType": "uint256",
          "name": "minRequired",
          "type": "uint256"
        }
      ],
      "name": "HorizonStakingInsufficientTokens",
      "type": "error"
    },
    {
      "inputs": [
        {
          "internalType": "uint256",
          "name": "feeCut",
          "type": "uint256"
        }
      ],
      "name": "HorizonStakingInvalidDelegationFeeCut",
      "type": "error"
    },
    {
      "inputs": [
        {
          "internalType": "address",
          "name": "serviceProvider",
          "type": "address"
        },
        {
          "internalType": "address",
          "name": "verifier",
          "type": "address"
        }
      ],
      "name": "HorizonStakingInvalidDelegationPool",
      "type": "error"
    },
    {
      "inputs": [
        {
          "internalType": "address",
          "name": "serviceProvider",
          "type": "address"
        },
        {
          "internalType": "address",
          "name": "verifier",
          "type": "address"
        }
      ],
      "name": "HorizonStakingInvalidDelegationPoolState",
      "type": "error"
    },
    {
      "inputs": [
        {
          "internalType": "uint32",
          "name": "maxVerifierCut",
          "type": "uint32"
        }
      ],
      "name": "HorizonStakingInvalidMaxVerifierCut",
      "type": "error"
    },
    {
      "inputs": [
        {
          "internalType": "address",
          "name": "serviceProvider",
          "type": "address"
        },
        {
          "internalType": "address",
          "name": "verifier",
          "type": "address"
        }
      ],
      "name": "HorizonStakingInvalidProvision",
      "type": "error"
    },
    {
      "inputs": [],
      "name": "HorizonStakingInvalidServiceProviderZeroAddress",
      "type": "error"
    },
    {
      "inputs": [],
      "name": "HorizonStakingInvalidThawRequestType",
      "type": "error"
    },
    {
      "inputs": [
        {
          "internalType": "uint64",
          "name": "thawingPeriod",
          "type": "uint64"
        },
        {
          "internalType": "uint64",
          "name": "maxThawingPeriod",
          "type": "uint64"
        }
      ],
      "name": "HorizonStakingInvalidThawingPeriod",
      "type": "error"
    },
    {
      "inputs": [
        {
          "internalType": "address",
          "name": "verifier",
          "type": "address"
        }
      ],
      "name": "HorizonStakingInvalidVerifier",
      "type": "error"
    },
    {
      "inputs": [],
      "name": "HorizonStakingInvalidVerifierZeroAddress",
      "type": "error"
    },
    {
      "inputs": [],
      "name": "HorizonStakingInvalidZeroShares",
      "type": "error"
    },
    {
      "inputs": [],
      "name": "HorizonStakingInvalidZeroTokens",
      "type": "error"
    },
    {
      "inputs": [
        {
          "internalType": "address",
          "name": "serviceProvider",
          "type": "address"
        },
        {
          "internalType": "address",
          "name": "verifier",
          "type": "address"
        },
        {
          "internalType": "address",
          "name": "caller",
          "type": "address"
        }
      ],
      "name": "HorizonStakingNotAuthorized",
      "type": "error"
    },
    {
      "inputs": [],
      "name": "HorizonStakingNothingThawing",
      "type": "error"
    },
    {
      "inputs": [],
      "name": "HorizonStakingProvisionAlreadyExists",
      "type": "error"
    },
    {
      "inputs": [
        {
          "internalType": "uint256",
          "name": "shares",
          "type": "uint256"
        },
        {
          "internalType": "uint256",
          "name": "minShares",
          "type": "uint256"
        }
      ],
      "name": "HorizonStakingSlippageProtection",
      "type": "error"
    },
    {
      "inputs": [
        {
          "internalType": "uint256",
          "name": "until",
          "type": "uint256"
        }
      ],
      "name": "HorizonStakingStillThawing",
      "type": "error"
    },
    {
      "inputs": [],
      "name": "HorizonStakingTooManyThawRequests",
      "type": "error"
    },
    {
      "inputs": [
        {
          "internalType": "uint256",
          "name": "tokens",
          "type": "uint256"
        },
        {
          "internalType": "uint256",
          "name": "maxTokens",
          "type": "uint256"
        }
      ],
      "name": "HorizonStakingTooManyTokens",
      "type": "error"
    },
    {
      "inputs": [
        {
          "internalType": "address",
          "name": "verifier",
          "type": "address"
        }
      ],
      "name": "HorizonStakingVerifierNotAllowed",
      "type": "error"
    },
    {
      "inputs": [],
      "name": "LinkedListEmptyList",
      "type": "error"
    },
    {
      "inputs": [],
      "name": "LinkedListInvalidIterations",
      "type": "error"
    },
    {
      "inputs": [],
      "name": "LinkedListInvalidZeroId",
      "type": "error"
    },
    {
      "inputs": [],
      "name": "LinkedListMaxElementsExceeded",
      "type": "error"
    },
    {
      "inputs": [],
      "name": "ManagedIsPaused",
      "type": "error"
    },
    {
      "inputs": [],
      "name": "ManagedOnlyController",
      "type": "error"
    },
    {
      "inputs": [],
      "name": "ManagedOnlyGovernor",
      "type": "error"
    },
    {
      "inputs": [
        {
          "internalType": "uint256",
          "name": "a",
          "type": "uint256"
        },
        {
          "internalType": "uint256",
          "name": "b",
          "type": "uint256"
        }
      ],
      "name": "PPMMathInvalidMulPPM",
      "type": "error"
    },
    {
      "anonymous": false,
      "inputs": [
        {
          "indexed": true,
          "internalType": "address",
          "name": "verifier",
          "type": "address"
        },
        {
          "indexed": false,
          "internalType": "bool",
          "name": "allowed",
          "type": "bool"
        }
      ],
      "name": "AllowedLockedVerifierSet",
      "type": "event"
    },
    {
      "anonymous": false,
      "inputs": [
        {
          "indexed": true,
          "internalType": "address",
          "name": "serviceProvider",
          "type": "address"
        },
        {
          "indexed": true,
          "internalType": "address",
          "name": "verifier",
          "type": "address"
        },
        {
          "indexed": true,
          "internalType": "address",
          "name": "delegator",
          "type": "address"
        },
        {
          "indexed": false,
          "internalType": "uint256",
          "name": "tokens",
          "type": "uint256"
        }
      ],
      "name": "DelegatedTokensWithdrawn",
      "type": "event"
    },
    {
      "anonymous": false,
      "inputs": [
        {
          "indexed": true,
          "internalType": "address",
          "name": "serviceProvider",
          "type": "address"
        },
        {
          "indexed": true,
          "internalType": "address",
          "name": "verifier",
          "type": "address"
        },
        {
          "indexed": true,
          "internalType": "enum IGraphPayments.PaymentTypes",
          "name": "paymentType",
          "type": "uint8"
        },
        {
          "indexed": false,
          "internalType": "uint256",
          "name": "feeCut",
          "type": "uint256"
        }
      ],
      "name": "DelegationFeeCutSet",
      "type": "event"
    },
    {
      "anonymous": false,
      "inputs": [
        {
          "indexed": true,
          "internalType": "address",
          "name": "serviceProvider",
          "type": "address"
        },
        {
          "indexed": true,
          "internalType": "address",
          "name": "verifier",
          "type": "address"
        },
        {
          "indexed": false,
          "internalType": "uint256",
          "name": "tokens",
          "type": "uint256"
        }
      ],
      "name": "DelegationSlashed",
      "type": "event"
    },
    {
      "anonymous": false,
      "inputs": [],
      "name": "DelegationSlashingEnabled",
      "type": "event"
    },
    {
      "anonymous": false,
      "inputs": [
        {
          "indexed": true,
          "internalType": "address",
          "name": "serviceProvider",
          "type": "address"
        },
        {
          "indexed": true,
          "internalType": "address",
          "name": "verifier",
          "type": "address"
        },
        {
          "indexed": false,
          "internalType": "uint256",
          "name": "tokens",
          "type": "uint256"
        }
      ],
      "name": "DelegationSlashingSkipped",
      "type": "event"
    },
    {
      "anonymous": false,
      "inputs": [
        {
          "indexed": true,
          "internalType": "address",
          "name": "graphToken",
          "type": "address"
        },
        {
          "indexed": true,
          "internalType": "address",
          "name": "graphStaking",
          "type": "address"
        },
        {
          "indexed": false,
          "internalType": "address",
          "name": "graphPayments",
          "type": "address"
        },
        {
          "indexed": false,
          "internalType": "address",
          "name": "graphEscrow",
          "type": "address"
        },
        {
          "indexed": true,
          "internalType": "address",
          "name": "graphController",
          "type": "address"
        },
        {
          "indexed": false,
          "internalType": "address",
          "name": "graphEpochManager",
          "type": "address"
        },
        {
          "indexed": false,
          "internalType": "address",
          "name": "graphRewardsManager",
          "type": "address"
        },
        {
          "indexed": false,
          "internalType": "address",
          "name": "graphTokenGateway",
          "type": "address"
        },
        {
          "indexed": false,
          "internalType": "address",
          "name": "graphProxyAdmin",
          "type": "address"
        },
        {
          "indexed": false,
          "internalType": "address",
          "name": "graphCuration",
          "type": "address"
        }
      ],
      "name": "GraphDirectoryInitialized",
      "type": "event"
    },
    {
      "anonymous": false,
      "inputs": [
        {
          "indexed": true,
          "internalType": "address",
          "name": "serviceProvider",
          "type": "address"
        },
        {
          "indexed": false,
          "internalType": "uint256",
          "name": "tokens",
          "type": "uint256"
        }
      ],
      "name": "HorizonStakeDeposited",
      "type": "event"
    },
    {
      "anonymous": false,
      "inputs": [
        {
          "indexed": true,
          "internalType": "address",
          "name": "serviceProvider",
          "type": "address"
        },
        {
          "indexed": false,
          "internalType": "uint256",
          "name": "tokens",
          "type": "uint256"
        },
        {
          "indexed": false,
          "internalType": "uint256",
          "name": "until",
          "type": "uint256"
        }
      ],
      "name": "HorizonStakeLocked",
      "type": "event"
    },
    {
      "anonymous": false,
      "inputs": [
        {
          "indexed": true,
          "internalType": "address",
          "name": "serviceProvider",
          "type": "address"
        },
        {
          "indexed": false,
          "internalType": "uint256",
          "name": "tokens",
          "type": "uint256"
        }
      ],
      "name": "HorizonStakeWithdrawn",
      "type": "event"
    },
    {
      "anonymous": false,
      "inputs": [
        {
          "indexed": false,
          "internalType": "uint64",
          "name": "maxThawingPeriod",
          "type": "uint64"
        }
      ],
      "name": "MaxThawingPeriodSet",
      "type": "event"
    },
    {
      "anonymous": false,
      "inputs": [
        {
          "indexed": true,
          "internalType": "address",
          "name": "serviceProvider",
          "type": "address"
        },
        {
          "indexed": true,
          "internalType": "address",
          "name": "verifier",
          "type": "address"
        },
        {
          "indexed": true,
          "internalType": "address",
          "name": "operator",
          "type": "address"
        },
        {
          "indexed": false,
          "internalType": "bool",
          "name": "allowed",
          "type": "bool"
        }
      ],
      "name": "OperatorSet",
      "type": "event"
    },
    {
      "anonymous": false,
      "inputs": [
        {
          "indexed": true,
          "internalType": "address",
          "name": "serviceProvider",
          "type": "address"
        },
        {
          "indexed": true,
          "internalType": "address",
          "name": "verifier",
          "type": "address"
        },
        {
          "indexed": false,
          "internalType": "uint256",
          "name": "tokens",
          "type": "uint256"
        },
        {
          "indexed": false,
          "internalType": "uint32",
          "name": "maxVerifierCut",
          "type": "uint32"
        },
        {
          "indexed": false,
          "internalType": "uint64",
          "name": "thawingPeriod",
          "type": "uint64"
        }
      ],
      "name": "ProvisionCreated",
      "type": "event"
    },
    {
      "anonymous": false,
      "inputs": [
        {
          "indexed": true,
          "internalType": "address",
          "name": "serviceProvider",
          "type": "address"
        },
        {
          "indexed": true,
          "internalType": "address",
          "name": "verifier",
          "type": "address"
        },
        {
          "indexed": false,
          "internalType": "uint256",
          "name": "tokens",
          "type": "uint256"
        }
      ],
      "name": "ProvisionIncreased",
      "type": "event"
    },
    {
      "anonymous": false,
      "inputs": [
        {
          "indexed": true,
          "internalType": "address",
          "name": "serviceProvider",
          "type": "address"
        },
        {
          "indexed": true,
          "internalType": "address",
          "name": "verifier",
          "type": "address"
        },
        {
          "indexed": false,
          "internalType": "uint32",
          "name": "maxVerifierCut",
          "type": "uint32"
        },
        {
          "indexed": false,
          "internalType": "uint64",
          "name": "thawingPeriod",
          "type": "uint64"
        }
      ],
      "name": "ProvisionParametersSet",
      "type": "event"
    },
    {
      "anonymous": false,
      "inputs": [
        {
          "indexed": true,
          "internalType": "address",
          "name": "serviceProvider",
          "type": "address"
        },
        {
          "indexed": true,
          "internalType": "address",
          "name": "verifier",
          "type": "address"
        },
        {
          "indexed": false,
          "internalType": "uint32",
          "name": "maxVerifierCut",
          "type": "uint32"
        },
        {
          "indexed": false,
          "internalType": "uint64",
          "name": "thawingPeriod",
          "type": "uint64"
        }
      ],
      "name": "ProvisionParametersStaged",
      "type": "event"
    },
    {
      "anonymous": false,
      "inputs": [
        {
          "indexed": true,
          "internalType": "address",
          "name": "serviceProvider",
          "type": "address"
        },
        {
          "indexed": true,
          "internalType": "address",
          "name": "verifier",
          "type": "address"
        },
        {
          "indexed": false,
          "internalType": "uint256",
          "name": "tokens",
          "type": "uint256"
        }
      ],
      "name": "ProvisionSlashed",
      "type": "event"
    },
    {
      "anonymous": false,
      "inputs": [
        {
          "indexed": true,
          "internalType": "address",
          "name": "serviceProvider",
          "type": "address"
        },
        {
          "indexed": true,
          "internalType": "address",
          "name": "verifier",
          "type": "address"
        },
        {
          "indexed": false,
          "internalType": "uint256",
          "name": "tokens",
          "type": "uint256"
        }
      ],
      "name": "ProvisionThawed",
      "type": "event"
    },
    {
      "anonymous": false,
      "inputs": [
        {
          "indexed": true,
          "internalType": "address",
          "name": "indexer",
          "type": "address"
        },
        {
          "indexed": true,
          "internalType": "address",
          "name": "delegator",
          "type": "address"
        },
        {
          "indexed": false,
          "internalType": "uint256",
          "name": "tokens",
          "type": "uint256"
        }
      ],
      "name": "StakeDelegatedWithdrawn",
      "type": "event"
    },
    {
      "anonymous": false,
      "inputs": [
        {
          "indexed": true,
          "internalType": "enum IHorizonStakingTypes.ThawRequestType",
          "name": "requestType",
          "type": "uint8"
        },
        {
          "indexed": true,
          "internalType": "address",
          "name": "serviceProvider",
          "type": "address"
        },
        {
          "indexed": true,
          "internalType": "address",
          "name": "verifier",
          "type": "address"
        },
        {
          "indexed": false,
          "internalType": "address",
          "name": "owner",
          "type": "address"
        },
        {
          "indexed": false,
          "internalType": "uint256",
          "name": "shares",
          "type": "uint256"
        },
        {
          "indexed": false,
          "internalType": "uint64",
          "name": "thawingUntil",
          "type": "uint64"
        },
        {
          "indexed": false,
          "internalType": "bytes32",
          "name": "thawRequestId",
          "type": "bytes32"
        }
      ],
      "name": "ThawRequestCreated",
      "type": "event"
    },
    {
      "anonymous": false,
      "inputs": [
        {
          "indexed": true,
          "internalType": "enum IHorizonStakingTypes.ThawRequestType",
          "name": "requestType",
          "type": "uint8"
        },
        {
          "indexed": true,
          "internalType": "bytes32",
          "name": "thawRequestId",
          "type": "bytes32"
        },
        {
          "indexed": false,
          "internalType": "uint256",
          "name": "tokens",
          "type": "uint256"
        },
        {
          "indexed": false,
          "internalType": "uint256",
          "name": "shares",
          "type": "uint256"
        },
        {
          "indexed": false,
          "internalType": "uint64",
          "name": "thawingUntil",
          "type": "uint64"
        },
        {
          "indexed": false,
          "internalType": "bool",
          "name": "valid",
          "type": "bool"
        }
      ],
      "name": "ThawRequestFulfilled",
      "type": "event"
    },
    {
      "anonymous": false,
      "inputs": [
        {
          "indexed": true,
          "internalType": "enum IHorizonStakingTypes.ThawRequestType",
          "name": "requestType",
          "type": "uint8"
        },
        {
          "indexed": true,
          "internalType": "address",
          "name": "serviceProvider",
          "type": "address"
        },
        {
          "indexed": true,
          "internalType": "address",
          "name": "verifier",
          "type": "address"
        },
        {
          "indexed": false,
          "internalType": "address",
          "name": "owner",
          "type": "address"
        },
        {
          "indexed": false,
          "internalType": "uint256",
          "name": "thawRequestsFulfilled",
          "type": "uint256"
        },
        {
          "indexed": false,
          "internalType": "uint256",
          "name": "tokens",
          "type": "uint256"
        }
      ],
      "name": "ThawRequestsFulfilled",
      "type": "event"
    },
    {
      "anonymous": false,
      "inputs": [],
      "name": "ThawingPeriodCleared",
      "type": "event"
    },
    {
      "anonymous": false,
      "inputs": [
        {
          "indexed": true,
          "internalType": "address",
          "name": "serviceProvider",
          "type": "address"
        },
        {
          "indexed": true,
          "internalType": "address",
          "name": "verifier",
          "type": "address"
        },
        {
          "indexed": true,
          "internalType": "address",
          "name": "delegator",
          "type": "address"
        },
        {
          "indexed": false,
          "internalType": "uint256",
          "name": "tokens",
          "type": "uint256"
        },
        {
          "indexed": false,
          "internalType": "uint256",
          "name": "shares",
          "type": "uint256"
        }
      ],
      "name": "TokensDelegated",
      "type": "event"
    },
    {
      "anonymous": false,
      "inputs": [
        {
          "indexed": true,
          "internalType": "address",
          "name": "serviceProvider",
          "type": "address"
        },
        {
          "indexed": true,
          "internalType": "address",
          "name": "verifier",
          "type": "address"
        },
        {
          "indexed": false,
          "internalType": "uint256",
          "name": "tokens",
          "type": "uint256"
        }
      ],
      "name": "TokensDeprovisioned",
      "type": "event"
    },
    {
      "anonymous": false,
      "inputs": [
        {
          "indexed": true,
          "internalType": "address",
          "name": "serviceProvider",
          "type": "address"
        },
        {
          "indexed": true,
          "internalType": "address",
          "name": "verifier",
          "type": "address"
        },
        {
          "indexed": false,
          "internalType": "uint256",
          "name": "tokens",
          "type": "uint256"
        }
      ],
      "name": "TokensToDelegationPoolAdded",
      "type": "event"
    },
    {
      "anonymous": false,
      "inputs": [
        {
          "indexed": true,
          "internalType": "address",
          "name": "serviceProvider",
          "type": "address"
        },
        {
          "indexed": true,
          "internalType": "address",
          "name": "verifier",
          "type": "address"
        },
        {
          "indexed": true,
          "internalType": "address",
          "name": "delegator",
          "type": "address"
        },
        {
          "indexed": false,
          "internalType": "uint256",
          "name": "tokens",
          "type": "uint256"
        }
      ],
      "name": "TokensUndelegated",
      "type": "event"
    },
    {
      "anonymous": false,
      "inputs": [
        {
          "indexed": true,
          "internalType": "address",
          "name": "serviceProvider",
          "type": "address"
        },
        {
          "indexed": true,
          "internalType": "address",
          "name": "verifier",
          "type": "address"
        },
        {
          "indexed": true,
          "internalType": "address",
          "name": "destination",
          "type": "address"
        },
        {
          "indexed": false,
          "internalType": "uint256",
          "name": "tokens",
          "type": "uint256"
        }
      ],
      "name": "VerifierTokensSent",
      "type": "event"
    },
    {
      "stateMutability": "nonpayable",
      "type": "fallback"
    },
    {
      "inputs": [
        {
          "internalType": "address",
          "name": "serviceProvider",
          "type": "address"
        }
      ],
      "name": "acceptProvisionParameters",
      "outputs": [],
      "stateMutability": "nonpayable",
      "type": "function"
    },
    {
      "inputs": [
        {
          "internalType": "contract IGraphProxy",
          "name": "_proxy",
          "type": "address"
        }
      ],
      "name": "acceptProxy",
      "outputs": [],
      "stateMutability": "nonpayable",
      "type": "function"
    },
    {
      "inputs": [
        {
          "internalType": "contract IGraphProxy",
          "name": "_proxy",
          "type": "address"
        },
        {
          "internalType": "bytes",
          "name": "_data",
          "type": "bytes"
        }
      ],
      "name": "acceptProxyAndCall",
      "outputs": [],
      "stateMutability": "nonpayable",
      "type": "function"
    },
    {
      "inputs": [
        {
          "internalType": "address",
          "name": "serviceProvider",
          "type": "address"
        },
        {
          "internalType": "address",
          "name": "verifier",
          "type": "address"
        },
        {
          "internalType": "uint256",
          "name": "tokens",
          "type": "uint256"
        }
      ],
      "name": "addToDelegationPool",
      "outputs": [],
      "stateMutability": "nonpayable",
      "type": "function"
    },
    {
      "inputs": [
        {
          "internalType": "address",
          "name": "serviceProvider",
          "type": "address"
        },
        {
          "internalType": "address",
          "name": "verifier",
          "type": "address"
        },
        {
          "internalType": "uint256",
          "name": "tokens",
          "type": "uint256"
        }
      ],
      "name": "addToProvision",
      "outputs": [],
      "stateMutability": "nonpayable",
      "type": "function"
    },
    {
      "inputs": [],
      "name": "clearThawingPeriod",
      "outputs": [],
      "stateMutability": "nonpayable",
      "type": "function"
    },
    {
      "inputs": [
        {
          "internalType": "address",
          "name": "serviceProvider",
          "type": "address"
        },
        {
          "internalType": "uint256",
          "name": "tokens",
          "type": "uint256"
        }
      ],
      "name": "delegate",
      "outputs": [],
      "stateMutability": "nonpayable",
      "type": "function"
    },
    {
      "inputs": [
        {
          "internalType": "address",
          "name": "serviceProvider",
          "type": "address"
        },
        {
          "internalType": "address",
          "name": "verifier",
          "type": "address"
        },
        {
          "internalType": "uint256",
          "name": "tokens",
          "type": "uint256"
        },
        {
          "internalType": "uint256",
          "name": "minSharesOut",
          "type": "uint256"
        }
      ],
      "name": "delegate",
      "outputs": [],
      "stateMutability": "nonpayable",
      "type": "function"
    },
    {
      "inputs": [
        {
          "internalType": "address",
          "name": "serviceProvider",
          "type": "address"
        },
        {
          "internalType": "address",
          "name": "verifier",
          "type": "address"
        },
        {
          "internalType": "uint256",
          "name": "nThawRequests",
          "type": "uint256"
        }
      ],
      "name": "deprovision",
      "outputs": [],
      "stateMutability": "nonpayable",
      "type": "function"
    },
    {
      "inputs": [
        {
          "internalType": "address",
          "name": "serviceProvider",
          "type": "address"
        },
        {
          "internalType": "address",
          "name": "verifier",
          "type": "address"
        }
      ],
      "name": "getDelegatedTokensAvailable",
      "outputs": [
        {
          "internalType": "uint256",
          "name": "",
          "type": "uint256"
        }
      ],
      "stateMutability": "view",
      "type": "function"
    },
    {
      "inputs": [
        {
          "internalType": "address",
          "name": "serviceProvider",
          "type": "address"
        },
        {
          "internalType": "address",
          "name": "verifier",
          "type": "address"
        },
        {
          "internalType": "address",
          "name": "delegator",
          "type": "address"
        }
      ],
      "name": "getDelegation",
      "outputs": [
        {
          "components": [
            {
              "internalType": "uint256",
              "name": "shares",
              "type": "uint256"
            }
          ],
          "internalType": "struct IHorizonStakingTypes.Delegation",
          "name": "",
          "type": "tuple"
        }
      ],
      "stateMutability": "view",
      "type": "function"
    },
    {
      "inputs": [
        {
          "internalType": "address",
          "name": "serviceProvider",
          "type": "address"
        },
        {
          "internalType": "address",
          "name": "verifier",
          "type": "address"
        },
        {
          "internalType": "enum IGraphPayments.PaymentTypes",
          "name": "paymentType",
          "type": "uint8"
        }
      ],
      "name": "getDelegationFeeCut",
      "outputs": [
        {
          "internalType": "uint256",
          "name": "",
          "type": "uint256"
        }
      ],
      "stateMutability": "view",
      "type": "function"
    },
    {
      "inputs": [
        {
          "internalType": "address",
          "name": "serviceProvider",
          "type": "address"
        },
        {
          "internalType": "address",
          "name": "verifier",
          "type": "address"
        }
      ],
      "name": "getDelegationPool",
      "outputs": [
        {
          "components": [
            {
              "internalType": "uint256",
              "name": "tokens",
              "type": "uint256"
            },
            {
              "internalType": "uint256",
              "name": "shares",
              "type": "uint256"
            },
            {
              "internalType": "uint256",
              "name": "tokensThawing",
              "type": "uint256"
            },
            {
              "internalType": "uint256",
              "name": "sharesThawing",
              "type": "uint256"
            },
            {
              "internalType": "uint256",
              "name": "thawingNonce",
              "type": "uint256"
            }
          ],
          "internalType": "struct IHorizonStakingTypes.DelegationPool",
          "name": "",
          "type": "tuple"
        }
      ],
      "stateMutability": "view",
      "type": "function"
    },
    {
      "inputs": [
        {
          "internalType": "address",
          "name": "serviceProvider",
          "type": "address"
        }
      ],
      "name": "getIdleStake",
      "outputs": [
        {
          "internalType": "uint256",
          "name": "tokens",
          "type": "uint256"
        }
      ],
      "stateMutability": "view",
      "type": "function"
    },
    {
      "inputs": [],
      "name": "getMaxThawingPeriod",
      "outputs": [
        {
          "internalType": "uint64",
          "name": "",
          "type": "uint64"
        }
      ],
      "stateMutability": "view",
      "type": "function"
    },
    {
      "inputs": [
        {
          "internalType": "address",
          "name": "serviceProvider",
          "type": "address"
        },
        {
          "internalType": "address",
          "name": "verifier",
          "type": "address"
        }
      ],
      "name": "getProviderTokensAvailable",
      "outputs": [
        {
          "internalType": "uint256",
          "name": "",
          "type": "uint256"
        }
      ],
      "stateMutability": "view",
      "type": "function"
    },
    {
      "inputs": [
        {
          "internalType": "address",
          "name": "serviceProvider",
          "type": "address"
        },
        {
          "internalType": "address",
          "name": "verifier",
          "type": "address"
        }
      ],
      "name": "getProvision",
      "outputs": [
        {
          "components": [
            {
              "internalType": "uint256",
              "name": "tokens",
              "type": "uint256"
            },
            {
              "internalType": "uint256",
              "name": "tokensThawing",
              "type": "uint256"
            },
            {
              "internalType": "uint256",
              "name": "sharesThawing",
              "type": "uint256"
            },
            {
              "internalType": "uint32",
              "name": "maxVerifierCut",
              "type": "uint32"
            },
            {
              "internalType": "uint64",
              "name": "thawingPeriod",
              "type": "uint64"
            },
            {
              "internalType": "uint64",
              "name": "createdAt",
              "type": "uint64"
            },
            {
              "internalType": "uint32",
              "name": "maxVerifierCutPending",
              "type": "uint32"
            },
            {
              "internalType": "uint64",
              "name": "thawingPeriodPending",
              "type": "uint64"
            },
            {
              "internalType": "uint256",
              "name": "thawingNonce",
              "type": "uint256"
            }
          ],
          "internalType": "struct IHorizonStakingTypes.Provision",
          "name": "",
          "type": "tuple"
        }
      ],
      "stateMutability": "view",
      "type": "function"
    },
    {
      "inputs": [
        {
          "internalType": "address",
          "name": "serviceProvider",
          "type": "address"
        }
      ],
      "name": "getServiceProvider",
      "outputs": [
        {
          "components": [
            {
              "internalType": "uint256",
              "name": "tokensStaked",
              "type": "uint256"
            },
            {
              "internalType": "uint256",
              "name": "tokensProvisioned",
              "type": "uint256"
            }
          ],
          "internalType": "struct IHorizonStakingTypes.ServiceProvider",
          "name": "",
          "type": "tuple"
        }
      ],
      "stateMutability": "view",
      "type": "function"
    },
    {
      "inputs": [
        {
          "internalType": "address",
          "name": "serviceProvider",
          "type": "address"
        }
      ],
      "name": "getStake",
      "outputs": [
        {
          "internalType": "uint256",
          "name": "",
          "type": "uint256"
        }
      ],
      "stateMutability": "view",
      "type": "function"
    },
    {
      "inputs": [
        {
          "internalType": "enum IHorizonStakingTypes.ThawRequestType",
          "name": "requestType",
          "type": "uint8"
        },
        {
          "internalType": "bytes32",
          "name": "thawRequestId",
          "type": "bytes32"
        }
      ],
      "name": "getThawRequest",
      "outputs": [
        {
          "components": [
            {
              "internalType": "uint256",
              "name": "shares",
              "type": "uint256"
            },
            {
              "internalType": "uint64",
              "name": "thawingUntil",
              "type": "uint64"
            },
            {
              "internalType": "bytes32",
              "name": "next",
              "type": "bytes32"
            },
            {
              "internalType": "uint256",
              "name": "thawingNonce",
              "type": "uint256"
            }
          ],
          "internalType": "struct IHorizonStakingTypes.ThawRequest",
          "name": "",
          "type": "tuple"
        }
      ],
      "stateMutability": "view",
      "type": "function"
    },
    {
      "inputs": [
        {
          "internalType": "enum IHorizonStakingTypes.ThawRequestType",
          "name": "requestType",
          "type": "uint8"
        },
        {
          "internalType": "address",
          "name": "serviceProvider",
          "type": "address"
        },
        {
          "internalType": "address",
          "name": "verifier",
          "type": "address"
        },
        {
          "internalType": "address",
          "name": "owner",
          "type": "address"
        }
      ],
      "name": "getThawRequestList",
      "outputs": [
        {
          "components": [
            {
              "internalType": "bytes32",
              "name": "head",
              "type": "bytes32"
            },
            {
              "internalType": "bytes32",
              "name": "tail",
              "type": "bytes32"
            },
            {
              "internalType": "uint256",
              "name": "nonce",
              "type": "uint256"
            },
            {
              "internalType": "uint256",
              "name": "count",
              "type": "uint256"
            }
          ],
          "internalType": "struct LinkedList.List",
          "name": "",
          "type": "tuple"
        }
      ],
      "stateMutability": "view",
      "type": "function"
    },
    {
      "inputs": [
        {
          "internalType": "enum IHorizonStakingTypes.ThawRequestType",
          "name": "requestType",
          "type": "uint8"
        },
        {
          "internalType": "address",
          "name": "serviceProvider",
          "type": "address"
        },
        {
          "internalType": "address",
          "name": "verifier",
          "type": "address"
        },
        {
          "internalType": "address",
          "name": "owner",
          "type": "address"
        }
      ],
      "name": "getThawedTokens",
      "outputs": [
        {
          "internalType": "uint256",
          "name": "",
          "type": "uint256"
        }
      ],
      "stateMutability": "view",
      "type": "function"
    },
    {
      "inputs": [
        {
          "internalType": "address",
          "name": "serviceProvider",
          "type": "address"
        },
        {
          "internalType": "address",
          "name": "verifier",
          "type": "address"
        },
        {
          "internalType": "uint32",
          "name": "delegationRatio",
          "type": "uint32"
        }
      ],
      "name": "getTokensAvailable",
      "outputs": [
        {
          "internalType": "uint256",
          "name": "",
          "type": "uint256"
        }
      ],
      "stateMutability": "view",
      "type": "function"
    },
    {
      "inputs": [
        {
          "internalType": "address",
          "name": "verifier",
          "type": "address"
        }
      ],
      "name": "isAllowedLockedVerifier",
      "outputs": [
        {
          "internalType": "bool",
          "name": "",
          "type": "bool"
        }
      ],
      "stateMutability": "view",
      "type": "function"
    },
    {
      "inputs": [
        {
          "internalType": "address",
          "name": "serviceProvider",
          "type": "address"
        },
        {
          "internalType": "address",
          "name": "verifier",
          "type": "address"
        },
        {
          "internalType": "address",
          "name": "operator",
          "type": "address"
        }
      ],
      "name": "isAuthorized",
      "outputs": [
        {
          "internalType": "bool",
          "name": "",
          "type": "bool"
        }
      ],
      "stateMutability": "view",
      "type": "function"
    },
    {
      "inputs": [],
      "name": "isDelegationSlashingEnabled",
      "outputs": [
        {
          "internalType": "bool",
          "name": "",
          "type": "bool"
        }
      ],
      "stateMutability": "view",
      "type": "function"
    },
    {
      "inputs": [
        {
          "internalType": "bytes[]",
          "name": "data",
          "type": "bytes[]"
        }
      ],
      "name": "multicall",
      "outputs": [
        {
          "internalType": "bytes[]",
          "name": "results",
          "type": "bytes[]"
        }
      ],
      "stateMutability": "nonpayable",
      "type": "function"
    },
    {
      "inputs": [
        {
          "internalType": "address",
          "name": "serviceProvider",
          "type": "address"
        },
        {
          "internalType": "address",
          "name": "verifier",
          "type": "address"
        },
        {
          "internalType": "uint256",
          "name": "tokens",
          "type": "uint256"
        },
        {
          "internalType": "uint32",
          "name": "maxVerifierCut",
          "type": "uint32"
        },
        {
          "internalType": "uint64",
          "name": "thawingPeriod",
          "type": "uint64"
        }
      ],
      "name": "provision",
      "outputs": [],
      "stateMutability": "nonpayable",
      "type": "function"
    },
    {
      "inputs": [
        {
          "internalType": "address",
          "name": "serviceProvider",
          "type": "address"
        },
        {
          "internalType": "address",
          "name": "verifier",
          "type": "address"
        },
        {
          "internalType": "uint256",
          "name": "tokens",
          "type": "uint256"
        },
        {
          "internalType": "uint32",
          "name": "maxVerifierCut",
          "type": "uint32"
        },
        {
          "internalType": "uint64",
          "name": "thawingPeriod",
          "type": "uint64"
        }
      ],
      "name": "provisionLocked",
      "outputs": [],
      "stateMutability": "nonpayable",
      "type": "function"
    },
    {
      "inputs": [
        {
          "internalType": "address",
          "name": "oldServiceProvider",
          "type": "address"
        },
        {
          "internalType": "address",
          "name": "oldVerifier",
          "type": "address"
        },
        {
          "internalType": "address",
          "name": "newServiceProvider",
          "type": "address"
        },
        {
          "internalType": "address",
          "name": "newVerifier",
          "type": "address"
        },
        {
          "internalType": "uint256",
          "name": "minSharesForNewProvider",
          "type": "uint256"
        },
        {
          "internalType": "uint256",
          "name": "nThawRequests",
          "type": "uint256"
        }
      ],
      "name": "redelegate",
      "outputs": [],
      "stateMutability": "nonpayable",
      "type": "function"
    },
    {
      "inputs": [
        {
          "internalType": "address",
          "name": "serviceProvider",
          "type": "address"
        },
        {
          "internalType": "address",
          "name": "oldVerifier",
          "type": "address"
        },
        {
          "internalType": "address",
          "name": "newVerifier",
          "type": "address"
        },
        {
          "internalType": "uint256",
          "name": "nThawRequests",
          "type": "uint256"
        }
      ],
      "name": "reprovision",
      "outputs": [],
      "stateMutability": "nonpayable",
      "type": "function"
    },
    {
      "inputs": [
        {
          "internalType": "address",
          "name": "verifier",
          "type": "address"
        },
        {
          "internalType": "bool",
          "name": "allowed",
          "type": "bool"
        }
      ],
      "name": "setAllowedLockedVerifier",
      "outputs": [],
      "stateMutability": "nonpayable",
      "type": "function"
    },
    {
      "inputs": [
        {
          "internalType": "address",
          "name": "serviceProvider",
          "type": "address"
        },
        {
          "internalType": "address",
          "name": "verifier",
          "type": "address"
        },
        {
          "internalType": "enum IGraphPayments.PaymentTypes",
          "name": "paymentType",
          "type": "uint8"
        },
        {
          "internalType": "uint256",
          "name": "feeCut",
          "type": "uint256"
        }
      ],
      "name": "setDelegationFeeCut",
      "outputs": [],
      "stateMutability": "nonpayable",
      "type": "function"
    },
    {
      "inputs": [],
      "name": "setDelegationSlashingEnabled",
      "outputs": [],
      "stateMutability": "nonpayable",
      "type": "function"
    },
    {
      "inputs": [
        {
          "internalType": "uint64",
          "name": "maxThawingPeriod",
          "type": "uint64"
        }
      ],
      "name": "setMaxThawingPeriod",
      "outputs": [],
      "stateMutability": "nonpayable",
      "type": "function"
    },
    {
      "inputs": [
        {
          "internalType": "address",
          "name": "verifier",
          "type": "address"
        },
        {
          "internalType": "address",
          "name": "operator",
          "type": "address"
        },
        {
          "internalType": "bool",
          "name": "allowed",
          "type": "bool"
        }
      ],
      "name": "setOperator",
      "outputs": [],
      "stateMutability": "nonpayable",
      "type": "function"
    },
    {
      "inputs": [
        {
          "internalType": "address",
          "name": "verifier",
          "type": "address"
        },
        {
          "internalType": "address",
          "name": "operator",
          "type": "address"
        },
        {
          "internalType": "bool",
          "name": "allowed",
          "type": "bool"
        }
      ],
      "name": "setOperatorLocked",
      "outputs": [],
      "stateMutability": "nonpayable",
      "type": "function"
    },
    {
      "inputs": [
        {
          "internalType": "address",
          "name": "serviceProvider",
          "type": "address"
        },
        {
          "internalType": "address",
          "name": "verifier",
          "type": "address"
        },
        {
          "internalType": "uint32",
          "name": "newMaxVerifierCut",
          "type": "uint32"
        },
        {
          "internalType": "uint64",
          "name": "newThawingPeriod",
          "type": "uint64"
        }
      ],
      "name": "setProvisionParameters",
      "outputs": [],
      "stateMutability": "nonpayable",
      "type": "function"
    },
    {
      "inputs": [
        {
          "internalType": "address",
          "name": "serviceProvider",
          "type": "address"
        },
        {
          "internalType": "uint256",
          "name": "tokens",
          "type": "uint256"
        },
        {
          "internalType": "uint256",
          "name": "tokensVerifier",
          "type": "uint256"
        },
        {
          "internalType": "address",
          "name": "verifierDestination",
          "type": "address"
        }
      ],
      "name": "slash",
      "outputs": [],
      "stateMutability": "nonpayable",
      "type": "function"
    },
    {
      "inputs": [
        {
          "internalType": "uint256",
          "name": "tokens",
          "type": "uint256"
        }
      ],
      "name": "stake",
      "outputs": [],
      "stateMutability": "nonpayable",
      "type": "function"
    },
    {
      "inputs": [
        {
          "internalType": "address",
          "name": "serviceProvider",
          "type": "address"
        },
        {
          "internalType": "uint256",
          "name": "tokens",
          "type": "uint256"
        }
      ],
      "name": "stakeTo",
      "outputs": [],
      "stateMutability": "nonpayable",
      "type": "function"
    },
    {
      "inputs": [
        {
          "internalType": "address",
          "name": "serviceProvider",
          "type": "address"
        },
        {
          "internalType": "address",
          "name": "verifier",
          "type": "address"
        },
        {
          "internalType": "uint256",
          "name": "tokens",
          "type": "uint256"
        }
      ],
      "name": "stakeToProvision",
      "outputs": [],
      "stateMutability": "nonpayable",
      "type": "function"
    },
    {
      "inputs": [
        {
          "internalType": "address",
          "name": "serviceProvider",
          "type": "address"
        },
        {
          "internalType": "address",
          "name": "verifier",
          "type": "address"
        },
        {
          "internalType": "uint256",
          "name": "tokens",
          "type": "uint256"
        }
      ],
      "name": "thaw",
      "outputs": [
        {
          "internalType": "bytes32",
          "name": "",
          "type": "bytes32"
        }
      ],
      "stateMutability": "nonpayable",
      "type": "function"
    },
    {
      "inputs": [
        {
          "internalType": "address",
          "name": "serviceProvider",
          "type": "address"
        },
        {
          "internalType": "uint256",
          "name": "shares",
          "type": "uint256"
        }
      ],
      "name": "undelegate",
      "outputs": [],
      "stateMutability": "nonpayable",
      "type": "function"
    },
    {
      "inputs": [
        {
          "internalType": "address",
          "name": "serviceProvider",
          "type": "address"
        },
        {
          "internalType": "address",
          "name": "verifier",
          "type": "address"
        },
        {
          "internalType": "uint256",
          "name": "shares",
          "type": "uint256"
        }
      ],
      "name": "undelegate",
      "outputs": [
        {
          "internalType": "bytes32",
          "name": "",
          "type": "bytes32"
        }
      ],
      "stateMutability": "nonpayable",
      "type": "function"
    },
    {
      "inputs": [
        {
          "internalType": "uint256",
          "name": "tokens",
          "type": "uint256"
        }
      ],
      "name": "unstake",
      "outputs": [],
      "stateMutability": "nonpayable",
      "type": "function"
    },
    {
      "inputs": [],
      "name": "withdraw",
      "outputs": [],
      "stateMutability": "nonpayable",
      "type": "function"
    },
    {
      "inputs": [
        {
          "internalType": "address",
          "name": "serviceProvider",
          "type": "address"
        },
        {
          "internalType": "address",
          "name": "verifier",
          "type": "address"
        },
        {
          "internalType": "uint256",
          "name": "nThawRequests",
          "type": "uint256"
        }
      ],
      "name": "withdrawDelegated",
      "outputs": [],
      "stateMutability": "nonpayable",
      "type": "function"
    },
    {
      "inputs": [
        {
          "internalType": "address",
          "name": "serviceProvider",
          "type": "address"
        },
        {
          "internalType": "address",
          "name": "",
          "type": "address"
        }
      ],
      "name": "withdrawDelegated",
      "outputs": [
        {
          "internalType": "uint256",
          "name": "",
          "type": "uint256"
        }
      ],
      "stateMutability": "nonpayable",
      "type": "function"
    },
    {
      "stateMutability": "payable",
      "type": "receive"
    }
  ],
  "bytecode": "0x61020060405234801561001157600080fd5b506040516165563803806165568339810160408190526100309161041b565b828181806001600160a01b03811661007d5760405163218f5add60e11b815260206004820152600a60248201526921b7b73a3937b63632b960b11b60448201526064015b60405180910390fd5b6001600160a01b0381166101005260408051808201909152600a81526923b930b8342a37b5b2b760b11b60208201526100b590610351565b6001600160a01b03166080526040805180820190915260078152665374616b696e6760c81b60208201526100e890610351565b6001600160a01b031660a05260408051808201909152600d81526c47726170685061796d656e747360981b602082015261012190610351565b6001600160a01b031660c05260408051808201909152600e81526d5061796d656e7473457363726f7760901b602082015261015b90610351565b6001600160a01b031660e05260408051808201909152600c81526b22b837b1b426b0b730b3b2b960a11b602082015261019390610351565b6001600160a01b03166101205260408051808201909152600e81526d2932bbb0b93239a6b0b730b3b2b960911b60208201526101ce90610351565b6001600160a01b0316610140526040805180820190915260118152704772617068546f6b656e4761746577617960781b602082015261020c90610351565b6001600160a01b03166101605260408051808201909152600f81526e23b930b834283937bc3ca0b236b4b760891b602082015261024890610351565b6001600160a01b03166101805260408051808201909152600881526721bab930ba34b7b760c11b602082015261027d90610351565b6001600160a01b039081166101a08190526101005160a05160805160c05160e05161012051610140516101605161018051604051988b169a9788169996909716977fef5021414834d86e36470f5c1cecf6544fb2bb723f2ca51a4c86fcd8c5919a43976103279790916001600160a01b03978816815295871660208701529386166040860152918516606085015284166080840152831660a083015290911660c082015260e00190565b60405180910390a450506001600160a01b039081166101c052929092166101e052506104ce915050565b600080610100516001600160a01b031663f7641a5e84805190602001206040518263ffffffff1660e01b815260040161038c91815260200190565b602060405180830381865afa1580156103a9573d6000803e3d6000fd5b505050506040513d601f19601f820116820180604052508101906103cd919061045e565b9050826001600160a01b0382166103f85760405163218f5add60e11b81526004016100749190610480565b5092915050565b80516001600160a01b038116811461041657600080fd5b919050565b60008060006060848603121561043057600080fd5b610439846103ff565b9250610447602085016103ff565b9150610455604085016103ff565b90509250925092565b60006020828403121561047057600080fd5b610479826103ff565b9392505050565b602081526000825180602084015260005b818110156104ae5760208186018101516040868401015201610491565b506000604082850101526040601f19601f83011684010191505092915050565b60805160a05160c05160e05161010051610120516101405161016051610180516101a0516101c0516101e051615fe2610574600039600081816102a00152612ae6015260008181610cbd01528181611678015281816133af015281816134710152818161440e01526147540152600050506000505060005050600050506000611758015260006133680152600050506000505060005050600061381e0152615fe26000f3fe6080604052600436106102425760003560e01c8063872d048911610135578063872d04891461075e5780638cc01c861461077e5780639ce7abe5146107b9578063a02b9426146107d9578063a2594d82146107f9578063a2a3172214610819578063a694fc3a14610839578063a784d49814610859578063ac9650d814610879578063ad4d35b5146108a6578063ae4fe67a146108c6578063ba7fb0b4146108ff578063bc735d901461091f578063ca94b0e91461093f578063ccebcabb1461095f578063d48de8451461098e578063e473522a146109ea578063e56f8a1d146109ff578063e76fede614610a52578063ef58bd6714610a72578063f64b359814610a87578063f93f1cd014610aa7578063fb744cc014610ac7578063fc54fb2714610ae7578063fecc9cc114610aff5761028e565b8063010167e5146102e4578063026e402b1461030457806308ce5f68146103245780632119537314610357578063259bc4351461037757806325d9897e146103975780632e17de78146104b95780632f7cc501146104d957806339514ad2146104f95780633993d849146105215780633a78b732146105415780633ccfd60b1461056157806342c51693146105765780634ca7ac22146105965780634d99dd16146105b657806351a60b02146105d6578063561285e4146105f65780636230001a1461065857806374612092146106785780637573ef4f146106985780637a766460146106b85780637c145cc7146106ee57806381e21b561461071e57806382d66cb81461073e5761028e565b3661028e5760405162461bcd60e51b8152602060048201526017602482015276149150d152559157d1551217d393d517d0531313d5d151604a1b60448201526064015b60405180910390fd5b34801561029a57600080fd5b506040517f00000000000000000000000000000000000000000000000000000000000000009036600082376000803683855af43d806000843e8180156102de578184f35b8184fd5b005b3480156102f057600080fd5b506102e26102ff3660046154b5565b610b1f565b34801561031057600080fd5b506102e261031f366004615517565b610bf2565b34801561033057600080fd5b5061034461033f366004615543565b610ce8565b6040519081526020015b60405180910390f35b34801561036357600080fd5b506102e261037236600461557c565b610cfd565b34801561038357600080fd5b506102e26103923660046155bd565b610dcd565b3480156103a357600080fd5b506104ac6103b2366004615543565b6040805161012081018252600080825260208201819052918101829052606081018290526080810182905260a0810182905260c0810182905260e08101829052610100810191909152506001600160a01b039182166000908152601b6020908152604080832093909416825291825282902082516101208101845281548152600182015492810192909252600281015492820192909252600382015463ffffffff8082166060840152600160201b82046001600160401b039081166080850152600160601b8304811660a0850152600160a01b830490911660c0840152600160c01b9091041660e082015260049091015461010082015290565b60405161034e91906155d8565b3480156104c557600080fd5b506102e26104d4366004615679565b610ebb565b3480156104e557600080fd5b506103446104f436600461569f565b610f4e565b34801561050557600080fd5b50601a546040516001600160401b03909116815260200161034e565b34801561052d57600080fd5b506102e261053c36600461557c565b611042565b34801561054d57600080fd5b506102e261055c3660046156fb565b6110e0565b34801561056d57600080fd5b506102e26112ac565b34801561058257600080fd5b506102e2610591366004615727565b61133e565b3480156105a257600080fd5b506102e26105b1366004615784565b6114ef565b3480156105c257600080fd5b506102e26105d1366004615517565b6115e9565b3480156105e257600080fd5b506103446105f1366004615543565b61169e565b34801561060257600080fd5b50610616610611366004615543565b6118b2565b60405161034e9190600060a082019050825182526020830151602083015260408301516040830152606083015160608301526080830151608083015292915050565b34801561066457600080fd5b506102e26106733660046157b2565b611904565b34801561068457600080fd5b506102e261069336600461557c565b6119cb565b3480156106a457600080fd5b506103446106b33660046157f8565b611a67565b3480156106c457600080fd5b506103446106d33660046156fb565b6001600160a01b03166000908152600e602052604090205490565b3480156106fa57600080fd5b5061070e61070936600461583f565b611acb565b604051901515815260200161034e565b34801561072a57600080fd5b506102e261073936600461588a565b611ad8565b34801561074a57600080fd5b506102e26107593660046154b5565b611d26565b34801561076a57600080fd5b506103446107793660046158e2565b611e2c565b34801561078a57600080fd5b5061079e6107993660046156fb565b611e81565b6040805182518152602092830151928101929092520161034e565b3480156107c557600080fd5b506102e26107d4366004615920565b611ebd565b3480156107e557600080fd5b506103446107f436600461557c565b611fb8565b34801561080557600080fd5b506102e26108143660046156fb565b61204f565b34801561082557600080fd5b506102e2610834366004615517565b612133565b34801561084557600080fd5b506102e2610854366004615679565b6121c4565b34801561086557600080fd5b506103446108743660046156fb565b612255565b34801561088557600080fd5b506108996108943660046159a5565b612260565b60405161034e9190615a3e565b3480156108b257600080fd5b506102e26108c1366004615abe565b612347565b3480156108d257600080fd5b5061070e6108e13660046156fb565b6001600160a01b031660009081526022602052604090205460ff1690565b34801561090b57600080fd5b506102e261091a366004615afe565b612415565b34801561092b57600080fd5b506102e261093a366004615abe565b61252d565b34801561094b57600080fd5b506102e261095a36600461557c565b6125bf565b34801561096b57600080fd5b5061097f61097a36600461583f565b6127ee565b6040519051815260200161034e565b34801561099a57600080fd5b506109ae6109a9366004615b3f565b612840565b60405161034e9190815181526020808301516001600160401b031690820152604080830151908201526060918201519181019190915260800190565b3480156109f657600080fd5b506102e26128ad565b348015610a0b57600080fd5b50610a1f610a1a36600461569f565b61297f565b60405161034e91908151815260208083015190820152604080830151908201526060918201519181019190915260800190565b348015610a5e57600080fd5b506102e2610a6d366004615b5d565b6129e7565b348015610a7e57600080fd5b506102e2613000565b348015610a9357600080fd5b506102e2610aa2366004615b9c565b6130d2565b348015610ab357600080fd5b50610344610ac236600461557c565b6131b7565b348015610ad357600080fd5b50610344610ae2366004615543565b61328b565b348015610af357600080fd5b5060205460ff1661070e565b348015610b0b57600080fd5b506102e2610b1a36600461557c565b613297565b610b27613366565b6001600160a01b0316635c975abb6040518163ffffffff1660e01b8152600401602060405180830381865afa158015610b64573d6000803e3d6000fd5b505050506040513d601f19601f82011682018060405250810190610b889190615c0a565b15610ba657604051632b37d9d160e21b815260040160405180910390fd5b8484610bb382823361338a565b828233909192610bd957604051630c76b97b60e41b815260040161028593929190615c27565b505050610be9878688878761344e565b50505050505050565b610bfa613366565b6001600160a01b0316635c975abb6040518163ffffffff1660e01b8152600401602060405180830381865afa158015610c37573d6000803e3d6000fd5b505050506040513d601f19601f82011682018060405250810190610c5b9190615c0a565b15610c7957604051632b37d9d160e21b815260040160405180910390fd5b80600003610c9a57604051630a2a4e5b60e11b815260040160405180910390fd5b610cb73382610ca761381c565b6001600160a01b03169190613840565b610ce4827f00000000000000000000000000000000000000000000000000000000000000008360006138f8565b5050565b6000610cf48383613afd565b90505b92915050565b8282610d0a82823361338a565b828233909192610d3057604051630c76b97b60e41b815260040161028593929190615c27565b505050610d3b613366565b6001600160a01b0316635c975abb6040518163ffffffff1660e01b8152600401602060405180830381865afa158015610d78573d6000803e3d6000fd5b505050506040513d601f19601f82011682018060405250810190610d9c9190615c0a565b15610dba57604051632b37d9d160e21b815260040160405180910390fd5b610dc5858585613b35565b505050505050565b610dd5613366565b6001600160a01b0316634fc07d756040518163ffffffff1660e01b8152600401602060405180830381865afa158015610e12573d6000803e3d6000fd5b505050506040513d601f19601f82011682018060405250810190610e369190615c4a565b6001600160a01b0316336001600160a01b031614610e6757604051635d9044cd60e01b815260040160405180910390fd5b601a80546001600160401b0319166001600160401b0383169081179091556040519081527fe8526be46fa99b6313d439293c9be3491ffb067741bc8fce9d30c270cbb8459f9060200160405180910390a150565b610ec3613366565b6001600160a01b0316635c975abb6040518163ffffffff1660e01b8152600401602060405180830381865afa158015610f00573d6000803e3d6000fd5b505050506040513d601f19601f82011682018060405250810190610f249190615c0a565b15610f4257604051632b37d9d160e21b815260040160405180910390fd5b610f4b81613c66565b50565b600080610f5d86868686613e13565b90508060030154600003610f7557600091505061103a565b6001600160a01b038086166000908152601b6020908152604080832093881683529290529081206001810154600282015484545b8015611031576000610fbb8c83613e7f565b6001810154909150426001600160401b039091161161102057600083858360000154610fe79190615c7d565b610ff19190615c94565b9050610ffd8186615cb6565b825490955061100c9085615cb6565b93506110188188615cc9565b965050611026565b50611031565b600201549050610fa9565b50929450505050505b949350505050565b61104a613366565b6001600160a01b0316635c975abb6040518163ffffffff1660e01b8152600401602060405180830381865afa158015611087573d6000803e3d6000fd5b505050506040513d601f19601f820116820180604052508101906110ab9190615c0a565b156110c957604051632b37d9d160e21b815260040160405180910390fd5b6110db60018484600080600087613ecf565b505050565b6110e8613366565b6001600160a01b0316635c975abb6040518163ffffffff1660e01b8152600401602060405180830381865afa158015611125573d6000803e3d6000fd5b505050506040513d601f19601f820116820180604052508101906111499190615c0a565b1561116757604051632b37d9d160e21b815260040160405180910390fd5b6001600160a01b0381166000908152601b60209081526040808320338085529252909120600381015483908390600160601b90046001600160401b03166111c3576040516330acea0d60e11b8152600401610285929190615cdc565b50506003810154600160a01b810463ffffffff908116911614158061120657506003810154600160c01b81046001600160401b03908116600160201b9092041614155b156110db57600381018054600160201b6001600160401b03600160c01b63ffffffff19841663ffffffff600160a01b8604811691821792909204831684026001600160601b03199095161793909317938490556040516001600160a01b0380881695908916947fa4c005afae9298a5ca51e7710c334ac406fb3d914588ade970850f917cedb1c69461129f949183169392041690615cf6565b60405180910390a3505050565b6112b4613366565b6001600160a01b0316635c975abb6040518163ffffffff1660e01b8152600401602060405180830381865afa1580156112f1573d6000803e3d6000fd5b505050506040513d601f19601f820116820180604052508101906113159190615c0a565b1561133357604051632b37d9d160e21b815260040160405180910390fd5b61133c3361407b565b565b611346613366565b6001600160a01b0316635c975abb6040518163ffffffff1660e01b8152600401602060405180830381865afa158015611383573d6000803e3d6000fd5b505050506040513d601f19601f820116820180604052508101906113a79190615c0a565b156113c557604051632b37d9d160e21b815260040160405180910390fd5b83836113d282823361338a565b8282339091926113f857604051630c76b97b60e41b815260040161028593929190615c27565b50505061140883620f4240101590565b839061142a57604051631504950160e21b815260040161028591815260200190565b506001600160a01b038087166000908152601c602090815260408083209389168352929052908120849186600281111561146657611466615d15565b600281111561147757611477615d15565b815260208101919091526040016000205583600281111561149a5761149a615d15565b856001600160a01b0316876001600160a01b03167f3474eba30406cacbfbc5a596a7e471662bbcccf206f8d244dbb6f4cc578c5220866040516114df91815260200190565b60405180910390a4505050505050565b6114f7613366565b6001600160a01b0316634fc07d756040518163ffffffff1660e01b8152600401602060405180830381865afa158015611534573d6000803e3d6000fd5b505050506040513d601f19601f820116820180604052508101906115589190615c4a565b6001600160a01b0316336001600160a01b03161461158957604051635d9044cd60e01b815260040160405180910390fd5b6001600160a01b038216600081815260226020908152604091829020805460ff191685151590811790915591519182527f4542960abc7f2d26dab244fc440acf511e3dd0f5cefad571ca802283b4751bbb91015b60405180910390a25050565b6115f1613366565b6001600160a01b0316635c975abb6040518163ffffffff1660e01b8152600401602060405180830381865afa15801561162e573d6000803e3d6000fd5b505050506040513d601f19601f820116820180604052508101906116529190615c0a565b1561167057604051632b37d9d160e21b815260040160405180910390fd5b6110db6001837f00000000000000000000000000000000000000000000000000000000000000008433614156565b60006116a8613366565b6001600160a01b0316635c975abb6040518163ffffffff1660e01b8152600401602060405180830381865afa1580156116e5573d6000803e3d6000fd5b505050506040513d601f19601f820116820180604052508101906117099190615c0a565b1561172757604051632b37d9d160e21b815260040160405180910390fd5b6001600160a01b038316600090815260146020908152604080832033808552600482019093529083209192909190807f00000000000000000000000000000000000000000000000000000000000000006001600160a01b031663766718086040518163ffffffff1660e01b8152600401602060405180830381865afa1580156117b4573d6000803e3d6000fd5b505050506040513d601f19601f820116820180604052508101906117d89190615d2b565b9050600083600201541180156117f2575082600201548110155b156117ff57826001015491505b600082116118395760405162461bcd60e51b815260206004820152600760248201526621746f6b656e7360c81b6044820152606401610285565b60006001840181905560028401556040518281526001600160a01b0386811691908a16907f1b2e7737e043c5cf1b587ceb4daeb7ae00148b9bda8f79f1093eead08f1419529060200160405180910390a36118a7858361189761381c565b6001600160a01b031691906143cf565b509695505050505050565b6118ba615424565b6118c2615424565b60006118ce858561440a565b60028101548352600381015460208401526005810154604084015260068101546060840152600701546080830152509392505050565b61190c613366565b6001600160a01b0316635c975abb6040518163ffffffff1660e01b8152600401602060405180830381865afa158015611949573d6000803e3d6000fd5b505050506040513d601f19601f8201168201806040525081019061196d9190615c0a565b1561198b57604051632b37d9d160e21b815260040160405180910390fd5b816000036119ac57604051630a2a4e5b60e11b815260040160405180910390fd5b6119b93383610ca761381c565b6119c5848484846138f8565b50505050565b6119d3613366565b6001600160a01b0316635c975abb6040518163ffffffff1660e01b8152600401602060405180830381865afa158015611a10573d6000803e3d6000fd5b505050506040513d601f19601f82011682018060405250810190611a349190615c0a565b15611a5257604051632b37d9d160e21b815260040160405180910390fd5b611a5c838261448e565b6110db8383836144c6565b6001600160a01b038084166000908152601c60209081526040808320938616835292905290812081836002811115611aa157611aa1615d15565b6002811115611ab257611ab2615d15565b81526020019081526020016000205490505b9392505050565b600061103a84848461338a565b611ae0613366565b6001600160a01b0316635c975abb6040518163ffffffff1660e01b8152600401602060405180830381865afa158015611b1d573d6000803e3d6000fd5b505050506040513d601f19601f82011682018060405250810190611b419190615c0a565b15611b5f57604051632b37d9d160e21b815260040160405180910390fd5b8383611b6c82823361338a565b828233909192611b9257604051630c76b97b60e41b815260040161028593929190615c27565b50505063ffffffff8416620f424010158490611bca576040516329bff5f560e01b815263ffffffff9091166004820152602401610285565b50601a5483906001600160401b03908116908216811015611c005760405163ee5602e160e01b8152600401610285929190615d44565b50506001600160a01b038681166000908152601b60209081526040808320938916835292905220600381015487908790600160601b90046001600160401b0316611c5f576040516330acea0d60e11b8152600401610285929190615cdc565b5050600381015463ffffffff868116600160a01b90920416141580611c9b575060038101546001600160401b03858116600160c01b9092041614155b15610be9576003810180546001600160401b038616600160c01b026001600160c01b0363ffffffff8916600160a01b02166001600160a01b039283161717909155604051878216918916907fe89cbb9d63ba60af555547b12dde6817283e88cbdd45feb2059f2ba71ea346ba90611d159089908990615cf6565b60405180910390a350505050505050565b611d2e613366565b6001600160a01b0316635c975abb6040518163ffffffff1660e01b8152600401602060405180830381865afa158015611d6b573d6000803e3d6000fd5b505050506040513d601f19601f82011682018060405250810190611d8f9190615c0a565b15611dad57604051632b37d9d160e21b815260040160405180910390fd5b8484611dba82823361338a565b828233909192611de057604051630c76b97b60e41b815260040161028593929190615c27565b5050506001600160a01b038616600090815260226020526040902054869060ff16611e1e57604051622920f760e21b81526004016102859190615d5e565b50610be9878688878761344e565b600080611e398585613afd565b90506000611e478686614608565b90506000611e5b63ffffffff861684615c7d565b90506000611e69838361462b565b9050611e758185615cc9565b98975050505050505050565b611e89615453565b611e91615453565b6001600160a01b039092166000908152600e602090815260409091208054845260040154908301525090565b82806001600160a01b031663f851a4406040518163ffffffff1660e01b81526004016020604051808303816000875af1158015611efe573d6000803e3d6000fd5b505050506040513d601f19601f82011682018060405250810190611f229190615c4a565b6001600160a01b0316336001600160a01b031614611f525760405162461bcd60e51b815260040161028590615d72565b60405163623faf6160e01b81526001600160a01b0385169063623faf6190611f809086908690600401615da9565b600060405180830381600087803b158015611f9a57600080fd5b505af1158015611fae573d6000803e3d6000fd5b5050505050505050565b6000611fc2613366565b6001600160a01b0316635c975abb6040518163ffffffff1660e01b8152600401602060405180830381865afa158015611fff573d6000803e3d6000fd5b505050506040513d601f19601f820116820180604052508101906120239190615c0a565b1561204157604051632b37d9d160e21b815260040160405180910390fd5b61103a600185858533614156565b80806001600160a01b031663f851a4406040518163ffffffff1660e01b81526004016020604051808303816000875af1158015612090573d6000803e3d6000fd5b505050506040513d601f19601f820116820180604052508101906120b49190615c4a565b6001600160a01b0316336001600160a01b0316146120e45760405162461bcd60e51b815260040161028590615d72565b816001600160a01b03166359fc20bb6040518163ffffffff1660e01b8152600401600060405180830381600087803b15801561211f57600080fd5b505af1158015610dc5573d6000803e3d6000fd5b61213b613366565b6001600160a01b0316635c975abb6040518163ffffffff1660e01b8152600401602060405180830381865afa158015612178573d6000803e3d6000fd5b505050506040513d601f19601f8201168201806040525081019061219c9190615c0a565b156121ba57604051632b37d9d160e21b815260040160405180910390fd5b610ce4828261448e565b6121cc613366565b6001600160a01b0316635c975abb6040518163ffffffff1660e01b8152600401602060405180830381865afa158015612209573d6000803e3d6000fd5b505050506040513d601f19601f8201168201806040525081019061222d9190615c0a565b1561224b57604051632b37d9d160e21b815260040160405180910390fd5b610f4b338261448e565b6000610cf782614642565b604080516000815260208101909152606090826001600160401b0381111561228a5761228a615dd8565b6040519080825280602002602001820160405280156122bd57816020015b60608152602001906001900390816122a85790505b50915060005b8381101561233f5761231a308686848181106122e1576122e1615dee565b90506020028101906122f39190615e04565b8560405160200161230693929190615e4a565b6040516020818303038152906040526146b3565b83828151811061232c5761232c615dee565b60209081029190910101526001016122c3565b505092915050565b61234f613366565b6001600160a01b0316635c975abb6040518163ffffffff1660e01b8152600401602060405180830381865afa15801561238c573d6000803e3d6000fd5b505050506040513d601f19601f820116820180604052508101906123b09190615c0a565b156123ce57604051632b37d9d160e21b815260040160405180910390fd5b6001600160a01b038316600090815260226020526040902054839060ff1661240957604051622920f760e21b81526004016102859190615d5e565b506110db838383614729565b61241d613366565b6001600160a01b0316635c975abb6040518163ffffffff1660e01b8152600401602060405180830381865afa15801561245a573d6000803e3d6000fd5b505050506040513d601f19601f8201168201806040525081019061247e9190615c0a565b1561249c57604051632b37d9d160e21b815260040160405180910390fd5b83836124a982823361338a565b8282339091926124cf57604051630c76b97b60e41b815260040161028593929190615c27565b50505085846124df82823361338a565b82823390919261250557604051630c76b97b60e41b815260040161028593929190615c27565b5050506000612515898988613b35565b90506125228988836144c6565b505050505050505050565b612535613366565b6001600160a01b0316635c975abb6040518163ffffffff1660e01b8152600401602060405180830381865afa158015612572573d6000803e3d6000fd5b505050506040513d601f19601f820116820180604052508101906125969190615c0a565b156125b457604051632b37d9d160e21b815260040160405180910390fd5b6110db838383614729565b6125c7613366565b6001600160a01b0316635c975abb6040518163ffffffff1660e01b8152600401602060405180830381865afa158015612604573d6000803e3d6000fd5b505050506040513d601f19601f820116820180604052508101906126289190615c0a565b1561264657604051632b37d9d160e21b815260040160405180910390fd5b8060000361266757604051630a2a4e5b60e11b815260040160405180910390fd5b6001600160a01b038084166000908152601b6020908152604080832093861683529281529082902082516101208101845281548152600182015492810192909252600281015492820192909252600382015463ffffffff80821660608401526001600160401b03600160201b830481166080850152600160601b8304811660a08501819052600160a01b840490921660c0850152600160c01b90920490911660e0830152600490920154610100820152908490849061273b576040516330acea0d60e11b8152600401610285929190615cdc565b50506000612749858561440a565b90506000816003015411858590916127765760405163b6a70b3b60e01b8152600401610285929190615cdc565b50508281600201546127889190615cc9565b600282015561279a3384610ca761381c565b836001600160a01b0316856001600160a01b03167f673007a04e501145e79f59aea5e0413b6e88344fdaf10326254530d6a1511530856040516127df91815260200190565b60405180910390a35050505050565b6040805160208101909152600081526040805160208101909152600081526000612818868661440a565b6001600160a01b03851660009081526004909101602052604090205482525090509392505050565b60408051608081018252600080825260208201819052918101829052606081019190915261286e8383613e7f565b604080516080810182528254815260018301546001600160401b0316602082015260028301549181019190915260039091015460608201529392505050565b6128b5613366565b6001600160a01b0316634fc07d756040518163ffffffff1660e01b8152600401602060405180830381865afa1580156128f2573d6000803e3d6000fd5b505050506040513d601f19601f820116820180604052508101906129169190615c4a565b6001600160a01b0316336001600160a01b03161461294757604051635d9044cd60e01b815260040160405180910390fd5b600d805463ffffffff191690556040517f93be484d290d119d9cf99cce69d173c732f9403333ad84f69c807b590203d10990600090a1565b6040805160808101825260008082526020820181905291810182905260608101919091526129af85858585613e13565b604080516080810182528254815260018301546020820152600283015491810191909152600390910154606082015295945050505050565b6129ef613366565b6001600160a01b0316635c975abb6040518163ffffffff1660e01b8152600401602060405180830381865afa158015612a2c573d6000803e3d6000fd5b505050506040513d601f19601f82011682018060405250810190612a509190615c0a565b15612a6e57604051632b37d9d160e21b815260040160405180910390fd5b3360009081526012602052604090205460ff1615612ba757604080516001600160a01b03868116602483015260448201869052606482018590528381166084808401919091528351808403909101815260a490920183526020820180516001600160e01b031663224451c160e11b17905291516000927f00000000000000000000000000000000000000000000000000000000000000001691612b1091615e71565b600060405180830381855af49150503d8060008114612b4b576040519150601f19603f3d011682016040523d82523d6000602084013e612b50565b606091505b5050905080612ba15760405162461bcd60e51b815260206004820181905260248201527f44656c656761746563616c6c3a206c6567616379536c617368206661696c65646044820152606401610285565b506119c5565b6001600160a01b0384166000908152601b6020908152604080832033808552925282209091612bd6878461440a565b9050600081600201548360000154612bee9190615cc9565b9050808781612c125760405163587ab9ab60e11b8152600401610285929190615e8d565b50506000612c20888361462b565b90506000612c3285600001548361462b565b90508015612e6e576003850154600090612c5790839063ffffffff9081169061485916565b9050888181811015612c7e57604051632f514d5760e21b8152600401610285929190615e8d565b50508815612ceb57612c93888a61189761381c565b876001600160a01b0316876001600160a01b03168c6001600160a01b03167f95ff4196cd75fa49180ba673948ea43935f59e7c4ba101fa09b9fe0ec266d5828c604051612ce291815260200190565b60405180910390a45b612d0f612cf88a84615cb6565b612d0061381c565b6001600160a01b0316906148b9565b8554600090600181612d29670de0b6b3a764000087615c7d565b612d339190615cc9565b612d3d9190615cb6565b612d479190615c94565b9050670de0b6b3a7640000612d5c8282615cb6565b8860010154612d6b9190615c7d565b612d759190615c94565b60018801558654612d87908490615cb6565b8755600287015415801590612d9e57506001870154155b15612dc25760006002880181905560048801805491612dbc83615e9b565b91905055505b6001600160a01b038c166000908152600e6020526040902060040154612de9908490615cb6565b6001600160a01b038d166000908152600e60205260409020600481019190915554612e15908490615cb6565b6001600160a01b038d81166000818152600e60209081526040918290209490945551868152918b169290917fe7b110f13cde981d5079ab7faa4249c5f331f5c292dbc6031969d2ce694188a3910160405180910390a350505b612e788183615cb6565b91508115612ff45760205460ff1615612fa657612e9782612d0061381c565b6002840154600090600181612eb4670de0b6b3a764000087615c7d565b612ebe9190615cc9565b612ec89190615cb6565b612ed29190615c94565b9050828560020154612ee49190615cb6565b6002860155670de0b6b3a7640000612efc8282615cb6565b8660050154612f0b9190615c7d565b612f159190615c94565b6005860155600685015415801590612f2f57506005850154155b15612f535760006006860181905560078601805491612f4d83615e9b565b91905055505b866001600160a01b03168b6001600160a01b03167fc5d16dbb577cf07678b577232717c9a606197a014f61847e623d47fc6bf6b77185604051612f9891815260200190565b60405180910390a350612ff4565b856001600160a01b03168a6001600160a01b03167fdce44f0aeed2089c75db59f5a517b9a19a734bf0213412fa129f0d0434126b2484604051612feb91815260200190565b60405180910390a35b50505050505050505050565b613008613366565b6001600160a01b0316634fc07d756040518163ffffffff1660e01b8152600401602060405180830381865afa158015613045573d6000803e3d6000fd5b505050506040513d601f19601f820116820180604052508101906130699190615c4a565b6001600160a01b0316336001600160a01b03161461309a57604051635d9044cd60e01b815260040160405180910390fd5b6020805460ff191660011790556040517f2192802a8934dbf383338406b279ec7f3eccee31e58d6c0444d6dd6bfff24b3590600090a1565b6130da613366565b6001600160a01b0316635c975abb6040518163ffffffff1660e01b8152600401602060405180830381865afa158015613117573d6000803e3d6000fd5b505050506040513d601f19601f8201168201806040525081019061313b9190615c0a565b1561315957604051632b37d9d160e21b815260040160405180910390fd5b6001600160a01b038416613180576040516322347d6760e21b815260040160405180910390fd5b6001600160a01b0383166131a75760405163a962605960e01b815260040160405180910390fd5b610dc56001878787878787613ecf565b60006131c1613366565b6001600160a01b0316635c975abb6040518163ffffffff1660e01b8152600401602060405180830381865afa1580156131fe573d6000803e3d6000fd5b505050506040513d601f19601f820116820180604052508101906132229190615c0a565b1561324057604051632b37d9d160e21b815260040160405180910390fd5b838361324d82823361338a565b82823390919261327357604051630c76b97b60e41b815260040161028593929190615c27565b505050613281868686614901565b9695505050505050565b6000610cf48383614608565b61329f613366565b6001600160a01b0316635c975abb6040518163ffffffff1660e01b8152600401602060405180830381865afa1580156132dc573d6000803e3d6000fd5b505050506040513d601f19601f820116820180604052508101906133009190615c0a565b1561331e57604051632b37d9d160e21b815260040160405180910390fd5b828261332b82823361338a565b82823390919261335157604051630c76b97b60e41b815260040161028593929190615c27565b50505061335f8585856144c6565b5050505050565b7f000000000000000000000000000000000000000000000000000000000000000090565b6000836001600160a01b0316826001600160a01b0316036133ad57506001611ac4565b7f00000000000000000000000000000000000000000000000000000000000000006001600160a01b0316836001600160a01b03160361341557506001600160a01b0380841660009081526015602090815260408083209385168352929052205460ff16611ac4565b506001600160a01b038084166000908152601f60209081526040808320868516845282528083209385168352929052205460ff16611ac4565b6000841161346f57604051630a2a4e5b60e11b815260040160405180910390fd5b7f00000000000000000000000000000000000000000000000000000000000000006001600160a01b0316836001600160a01b031614806134b55750600d5463ffffffff16155b83906134d55760405163353666ff60e01b81526004016102859190615d5e565b508163ffffffff8116620f4240101561350a576040516329bff5f560e01b815263ffffffff9091166004820152602401610285565b50601a5481906001600160401b039081169082168110156135405760405163ee5602e160e01b8152600401610285929190615d44565b50506001600160a01b038581166000908152601b6020908152604080832093871683529290522060030154600160601b90046001600160401b03161561359957604051632b542c0d60e11b815260040160405180910390fd5b60006135a486614642565b90508481808211156135cb5760405163ccaf28a960e01b8152600401610285929190615e8d565b505060405180610120016040528086815260200160008152602001600081526020018463ffffffff168152602001836001600160401b03168152602001426001600160401b031681526020018463ffffffff168152602001836001600160401b031681526020016000815250601b6000886001600160a01b03166001600160a01b031681526020019081526020016000206000866001600160a01b03166001600160a01b0316815260200190815260200160002060008201518160000155602082015181600101556040820151816002015560608201518160030160006101000a81548163ffffffff021916908363ffffffff16021790555060808201518160030160046101000a8154816001600160401b0302191690836001600160401b0316021790555060a082015181600301600c6101000a8154816001600160401b0302191690836001600160401b0316021790555060c08201518160030160146101000a81548163ffffffff021916908363ffffffff16021790555060e08201518160030160186101000a8154816001600160401b0302191690836001600160401b0316021790555061010082015181600401559050506000600e6000886001600160a01b03166001600160a01b0316815260200190815260200160002090508581600401546137b99190615cc9565b60048201556040805187815263ffffffff861660208201526001600160401b038516918101919091526001600160a01b0380871691908916907f88b4c2d08cea0f01a24841ff5d14814ddb5b14ac44b05e0835fcc0dcd8c7bc2590606001611d15565b7f000000000000000000000000000000000000000000000000000000000000000090565b80156110db576040516323b872dd60e01b81526001600160a01b038381166004830152306024830152604482018390528416906323b872dd906064015b6020604051808303816000875af115801561389c573d6000803e3d6000fd5b505050506040513d601f19601f820116820180604052508101906138c09190615c0a565b6110db5760405162461bcd60e51b815260206004820152600960248201526810ba3930b739b332b960b91b6044820152606401610285565b81670de0b6b3a7640000808210156139255760405163b86d885760e01b8152600401610285929190615e8d565b50506001600160a01b038481166000908152601b602090815260408083209387168352929052206003015484908490600160601b90046001600160401b0316613983576040516330acea0d60e11b8152600401610285929190615cdc565b50506000613991858561440a565b33600090815260048201602052604090206002820154919250901515806139ba57506003820154155b868690916139dd57604051631984edef60e31b8152600401610285929190615cdc565b505060008260020154600014806139fb575082600501548360020154145b9050600081613a365783600501548460020154613a189190615cb6565b6003850154613a279088615c7d565b613a319190615c94565b613a38565b855b90508015801590613a495750848110155b81869091613a6c57604051635d88e8d160e01b8152600401610285929190615e8d565b5050858460020154613a7e9190615cc9565b60028501556003840154613a93908290615cc9565b60038501558254613aa5908290615cc9565b835560405133906001600160a01b0389811691908b16907f237818af8bb47710142edd8fc301fbc507064fb357cf122fb161ca447e3cb13e90613aeb908b908790615e8d565b60405180910390a45050505050505050565b6001600160a01b038281166000908152601b60209081526040808320938516835292905290812060018101549054610cf49190615cb6565b6001600160a01b038381166000818152601b60209081526040808320948716808452948252808320600281015460018201548351610100810185528681529485018790529284019690965260608301949094526080820181905260a0820185905260c08201869052600484015460e0830152919384929091613bb681614a93565b875492965094509250613bca908590615cb6565b855560028501839055600185018290556001600160a01b0389166000908152600e602052604081206004018054869290613c05908490615cb6565b92505081905550876001600160a01b0316896001600160a01b03167f9008d731ddfbec70bc364780efd63057c6877bee8027c4708a104b365395885d86604051613c5191815260200190565b60405180910390a35091979650505050505050565b336000829003613c8957604051630a2a4e5b60e11b815260040160405180910390fd5b6000613c9482614642565b9050828180821115613cbb5760405163ccaf28a960e01b8152600401610285929190615e8d565b50506001600160a01b0382166000908152600e602052604081208054600d549192909163ffffffff1690819003613d4d57613cf68683615cb6565b8355613d05858761189761381c565b846001600160a01b03167f32eed9ebc5696170068a371fdbea4c076da1bc21b305e78ca0a5e65ee913be8387604051613d4091815260200190565b60405180910390a2610dc5565b600283015415801590613d64575082600301544310155b15613d7257613d728561407b565b600283015415613d9c57613d99613d8d846003015443614b8d565b84600201548389614ba7565b90505b858360020154613dac9190615cc9565b6002840155613dbb8143615cc9565b6003840181905560028401546040516001600160a01b038816927f91642f23a1196e1424949fafa2a428c3b5d1f699763942ff08a6fbe9d4d7e98092613e0392909190615e8d565b60405180910390a2505050505050565b6000601e6000866001811115613e2b57613e2b615d15565b6001811115613e3c57613e3c615d15565b8152602080820192909252604090810160009081206001600160a01b03978816825283528181209587168152948252808520939095168452919091525020919050565b6000601d6000846001811115613e9757613e97615d15565b6001811115613ea857613ea8615d15565b81526020019081526020016000206000838152602001908152602001600020905092915050565b6000613edb878761440a565b905080600201546000141580613ef357506003810154155b87879091613f1657604051631984edef60e31b8152600401610285929190615cdc565b50506000808260060154905060008360050154905060006040518061010001604052808d6001811115613f4b57613f4b615d15565b81526020018c6001600160a01b031681526020018b6001600160a01b03168152602001336001600160a01b0316815260200183815260200184815260200187815260200186600701548152509050613fa281614a93565b600288015492965094509250613fb9908590615cb6565b60028601556006850183905560058501829055831561406d576001600160a01b03891615801590613ff257506001600160a01b03881615155b15614008576140038989868a6138f8565b61406d565b614015338561189761381c565b336001600160a01b03168a6001600160a01b03168c6001600160a01b03167f305f519d8909c676ffd870495d4563032eb0b506891a6dd9827490256cc9914e8760405161406491815260200190565b60405180910390a45b505050505050505050505050565b6001600160a01b0381166000908152600e60205260408120600281015490918190036140ba57604051630a2a4e5b60e11b815260040160405180910390fd5b6003820154438111156140e357604051631d222f1b60e31b815260040161028591815260200190565b50600060028301819055600383015581546140ff908290615cb6565b825561410e838261189761381c565b826001600160a01b03167f32eed9ebc5696170068a371fdbea4c076da1bc21b305e78ca0a5e65ee913be838260405161414991815260200190565b60405180910390a2505050565b600080831161417857604051637318ad9960e01b815260040160405180910390fd5b6000614184868661440a565b336000908152600482016020526040902080549192509085808210156141bf5760405163ab99793560e01b8152600401610285929190615e8d565b50506002820154879087906141e957604051631984edef60e31b8152600401610285929190615cdc565b505060008260030154836005015484600201546142069190615cb6565b6142109088615c7d565b61421a9190615c94565b90506000836005015460001461424d576005840154600685015461423e9084615c7d565b6142489190615c94565b61424f565b815b6001600160a01b038a81166000908152601b60209081526040808320938d168352929052908120600301549192509061429890600160201b90046001600160401b031642615cc9565b90508285600501546142aa9190615cc9565b600586015560068501546142bf908390615cc9565b600686015560038501546142d4908990615cb6565b600386015583546142e6908990615cb6565b808555156143525760008560030154866005015487600201546143099190615cb6565b86546143159190615c7d565b61431f9190615c94565b905080670de0b6b3a76400008082101561434e5760405163587ab9ab60e11b8152600401610285929190615e8d565b5050505b60006143678c8c8c8b87878c60070154614bfb565b9050336001600160a01b03168a6001600160a01b03168c6001600160a01b03167f50d19209821f5d69c0884b007c6ba9ffde612c0cff5dd3234d0c6baf2c4556aa876040516143b891815260200190565b60405180910390a49b9a5050505050505050505050565b80156110db5760405163a9059cbb60e01b81526001600160a01b0383811660048301526024820183905284169063a9059cbb9060440161387d565b60007f00000000000000000000000000000000000000000000000000000000000000006001600160a01b0316826001600160a01b03160361446357506001600160a01b0382166000908152601460205260409020610cf7565b506001600160a01b038083166000908152602160209081526040808320938516835292905220610cf7565b806000036144af57604051630a2a4e5b60e11b815260040160405180910390fd5b6144bc3382610ca761381c565b610ce48282614d9a565b6001600160a01b038084166000908152601b6020908152604080832093861683529290529081209082900361450e57604051630a2a4e5b60e11b815260040160405180910390fd5b600381015484908490600160601b90046001600160401b0316614546576040516330acea0d60e11b8152600401610285929190615cdc565b5050600061455385614642565b905082818082111561457a5760405163ccaf28a960e01b8152600401610285929190615e8d565b50508154614589908490615cc9565b82556001600160a01b0385166000908152600e60205260409020600401546145b2908490615cc9565b6001600160a01b038681166000818152600e602090815260409182902060040194909455518681529187169290917feaf6ea3a42ed2fd1b6d575f818cbda593af9524aa94bd30e65302ac4dc23474591016127df565b600080614615848461440a565b90508060050154816002015461103a9190615cb6565b60008183111561463b5781610cf4565b5090919050565b6001600160a01b0381166000908152600e6020526040812060028101546001820154600490920154839261467591615cc9565b61467f9190615cc9565b6001600160a01b0384166000908152600e60205260409020549091508181116146a957600061103a565b61103a8282615cb6565b6060600080846001600160a01b0316846040516146d09190615e71565b600060405180830381855af49150503d806000811461470b576040519150601f19603f3d011682016040523d82523d6000602084013e614710565b606091505b5091509150614720858383614e0d565b95945050505050565b336001600160a01b0383160361475257604051630123065360e01b815260040160405180910390fd5b7f00000000000000000000000000000000000000000000000000000000000000006001600160a01b0316836001600160a01b0316036147bf573360009081526015602090815260408083206001600160a01b03861684529091529020805460ff19168215151790556147fb565b336000908152601f602090815260408083206001600160a01b03878116855290835281842090861684529091529020805460ff19168215151790555b816001600160a01b0316836001600160a01b0316336001600160a01b03167faa5a59b38e8f68292982382bf635c2f263ca37137bbc52956acd808fd7bf976f8460405161484c911515815260200190565b60405180910390a4505050565b600061486883620f4240101590565b8061487b575061487b82620f4240101590565b8383909161489e5760405163768bf0eb60e11b8152600401610285929190615e8d565b50620f424090506148af8385615c7d565b610cf49190615c94565b8015610ce457604051630852cd8d60e31b8152600481018290526001600160a01b038316906342966c6890602401600060405180830381600087803b15801561211f57600080fd5b60008160000361492457604051630a2a4e5b60e11b815260040160405180910390fd5b60006149308585613afd565b90508083808210156149575760405163587ab9ab60e11b8152600401610285929190615e8d565b50506001600160a01b038086166000908152601b6020908152604080832093881683529290529081206001810154909190156149cc578160010154600183600101548785600201546149a99190615c7d565b6149b39190615cc9565b6149bd9190615cb6565b6149c79190615c94565b6149ce565b845b60038301549091506000906149f390600160201b90046001600160401b031642615cc9565b9050818360020154614a059190615cc9565b60028401556001830154614a1a908790615cc9565b83600101819055506000614a3860008a8a8c87878a60040154614bfb565b9050876001600160a01b0316896001600160a01b03167f3b81913739097ced1e7fa748c6058d34e2c00b961fb501094543b397b198fdaa89604051614a7f91815260200190565b60405180910390a398975050505050505050565b600080600080614ab58560000151866020015187604001518860600151613e13565b90506000816003015411614adc576040516307e332c560e31b815260040160405180910390fd5b6000614ae88683614e60565b905085604001516001600160a01b031686602001516001600160a01b031687600001516001811115614b1c57614b1c615d15565b6060808a01518551602080880151604080516001600160a01b039095168552918401929092528201527f86c2f162872d7c46d7ee0caad366da6dc430889b9d8f27e4bed3785548f9954b910160405180910390a4602081015160408201516060909201519097919650945092505050565b6000818311614b9d576000610cf4565b610cf48284615cb6565b6000614bb38285615cc9565b6001614bbf8487615cc9565b614bc99190615cb6565b614bd38486615c7d565b614bdd8789615c7d565b614be79190615cc9565b614bf19190615cc9565b6147209190615c94565b600083600003614c1e57604051637318ad9960e01b815260040160405180910390fd5b6000614c2c89898989613e13565b90506103e8816003015410614c545760405163332b852b60e11b815260040160405180910390fd5b60028101546040516001600160601b031960608b811b821660208401528a811b8216603484015289901b166048820152605c810191909152600090607c016040516020818303038152906040528051906020012090506000614cb68b83613e7f565b8781556001810180546001600160401b0319166001600160401b03891617905560006002820155600380820187905584015490915015614d045781614cff8c8560010154613e7f565b600201555b614d0e8383614f5b565b886001600160a01b03168a6001600160a01b03168c6001811115614d3457614d34615d15565b604080516001600160a01b038d168152602081018c90526001600160401b038b16818301526060810187905290517f054a6359e42268ddc96cd841d6a619242a0e34bee641f6ef205dc1d8822007fc9181900360800190a4509998505050505050505050565b6001600160a01b0382166000908152600e6020526040902054614dbe908290615cc9565b6001600160a01b0383166000818152600e6020526040908190209290925590517f48c384dd8bdf1e06d8afecd810c4acfc3d553ac5d879dec5a69875dbbd90e14b906115dd9084815260200190565b606082614e2257614e1d82614fee565b611ac4565b8151158015614e3957506001600160a01b0384163b155b15614e595783604051639996b31560e01b81526004016102859190615d5e565b5080611ac4565b614e8b6040518060800160405280600081526020016000815260200160008152602001600081525090565b61546d614e9b8460000151615017565b905061546d614ead856000015161507c565b905060008560000151600087608001518860a001518960e00151604051602001614edb959493929190615eb4565b6040516020818303038152906040529050600080614f10856150c386868c60c001518c6152339095949392919063ffffffff16565b91509150600080600083806020019051810190614f2d9190615ef7565b60408051608081018252998a5260208a019390935291880152606087015250939a9950505050505050505050565b612710826003015410614f81576040516303a8c56b60e61b815260040160405180910390fd5b80614f9f57604051638f4a893d60e01b815260040160405180910390fd5b6001808301829055600283018054600090614fbb908490615cc9565b90915550506003820154600003614fd0578082555b6001826003016000828254614fe59190615cc9565b90915550505050565b805115614ffe5780518082602001fd5b604051630a12f52160e11b815260040160405180910390fd5b61546d600082600181111561502e5761502e615d15565b0361503c57506152ed919050565b600182600181111561505057615050615d15565b0361505e575061532f919050565b604051636bd1fba760e11b815260040160405180910390fd5b919050565b61546d600082600181111561509357615093615d15565b036150a1575061533b919050565b60018260018111156150b5576150b5615d15565b0361505e5750615392919050565b600060606000806000806000878060200190518101906150e39190615f36565b9450945094509450945060006150f9868b613e7f565b6001810154909150426001600160401b039091161115615134576001604051806020016040528060008152509750975050505050505061522c565b6003810154600090831480156151875782548590615153908890615c7d565b61515d9190615c94565b91506151698287615cb6565b83549096506151789086615cb6565b94506151848288615cc9565b96505b8b88600181111561519a5761519a615d15565b845460018601546040805187815260208101939093526001600160401b03909116828201528415156060830152517f469e89d0a4e0e5deb2eb1ade5b3fa67fdfbeb4787c3a7c1e8e89aaf28562cab29181900360800190a3878787878760405160200161520b959493929190615eb4565b6040516020818303038152906040529a5060008b9950995050505050505050505b9250929050565b60006060876003015483111561525c57604051634a411b9d60e11b815260040160405180910390fd5b6000831561526a5783615270565b88600301545b89549094505b80158015906152855750600085115b156152de5760008061529b83898c63ffffffff16565b9150915081156152ac5750506152de565b9650866152ba8c8c8b61539d565b9250866152c681615f7f565b97505083806152d490615e9b565b9450505050615276565b50989397509295505050505050565b6000601d81805b600181111561530557615305615d15565b81526020019081526020016000206000838152602001908152602001600020600201549050919050565b6000601d8160016152f4565b601d6000805b600181111561535257615352615d15565b8152602080820192909252604090810160009081209381529290915281208181556001810180546001600160401b03191690556002810182905560030155565b601d60006001615341565b6000808460030154116153c35760405163ddaf8f2160e01b815260040160405180910390fd5b60006153d685600001548563ffffffff16565b90506153e985600001548463ffffffff16565b60018560030160008282546153fe9190615cb6565b9091555050808555600385015460000361541a57600060018601555b5050915492915050565b6040518060a0016040528060008152602001600081526020016000815260200160008152602001600081525090565b604051806040016040528060008152602001600081525090565b61133c615f96565b6001600160a01b0381168114610f4b57600080fd5b803563ffffffff8116811461507757600080fd5b80356001600160401b038116811461507757600080fd5b600080600080600060a086880312156154cd57600080fd5b85356154d881615475565b945060208601356154e881615475565b9350604086013592506154fd6060870161548a565b915061550b6080870161549e565b90509295509295909350565b6000806040838503121561552a57600080fd5b823561553581615475565b946020939093013593505050565b6000806040838503121561555657600080fd5b823561556181615475565b9150602083013561557181615475565b809150509250929050565b60008060006060848603121561559157600080fd5b833561559c81615475565b925060208401356155ac81615475565b929592945050506040919091013590565b6000602082840312156155cf57600080fd5b610cf48261549e565b60006101208201905082518252602083015160208301526040830151604083015263ffffffff60608401511660608301526001600160401b03608084015116608083015260a083015161563660a08401826001600160401b03169052565b5060c083015161564e60c084018263ffffffff169052565b5060e083015161566960e08401826001600160401b03169052565b5061010092830151919092015290565b60006020828403121561568b57600080fd5b5035919050565b60028110610f4b57600080fd5b600080600080608085870312156156b557600080fd5b84356156c081615692565b935060208501356156d081615475565b925060408501356156e081615475565b915060608501356156f081615475565b939692955090935050565b60006020828403121561570d57600080fd5b8135611ac481615475565b80356003811061507757600080fd5b6000806000806080858703121561573d57600080fd5b843561574881615475565b9350602085013561575881615475565b925061576660408601615718565b9396929550929360600135925050565b8015158114610f4b57600080fd5b6000806040838503121561579757600080fd5b82356157a281615475565b9150602083013561557181615776565b600080600080608085870312156157c857600080fd5b84356157d381615475565b935060208501356157e381615475565b93969395505050506040820135916060013590565b60008060006060848603121561580d57600080fd5b833561581881615475565b9250602084013561582881615475565b915061583660408501615718565b90509250925092565b60008060006060848603121561585457600080fd5b833561585f81615475565b9250602084013561586f81615475565b9150604084013561587f81615475565b809150509250925092565b600080600080608085870312156158a057600080fd5b84356158ab81615475565b935060208501356158bb81615475565b92506158c96040860161548a565b91506158d76060860161549e565b905092959194509250565b6000806000606084860312156158f757600080fd5b833561590281615475565b9250602084013561591281615475565b91506158366040850161548a565b60008060006040848603121561593557600080fd5b833561594081615475565b925060208401356001600160401b0381111561595b57600080fd5b8401601f8101861361596c57600080fd5b80356001600160401b0381111561598257600080fd5b86602082840101111561599457600080fd5b939660209190910195509293505050565b600080602083850312156159b857600080fd5b82356001600160401b038111156159ce57600080fd5b8301601f810185136159df57600080fd5b80356001600160401b038111156159f557600080fd5b8560208260051b8401011115615a0a57600080fd5b6020919091019590945092505050565b60005b83811015615a35578181015183820152602001615a1d565b50506000910152565b6000602082016020835280845180835260408501915060408160051b86010192506020860160005b82811015615ab257603f1987860301845281518051808752615a8f816020890160208501615a1a565b601f01601f19169590950160209081019550938401939190910190600101615a66565b50929695505050505050565b600080600060608486031215615ad357600080fd5b8335615ade81615475565b92506020840135615aee81615475565b9150604084013561587f81615776565b60008060008060808587031215615b1457600080fd5b8435615b1f81615475565b93506020850135615b2f81615475565b9250604085013561576681615475565b60008060408385031215615b5257600080fd5b823561553581615692565b60008060008060808587031215615b7357600080fd5b8435615b7e81615475565b9350602085013592506040850135915060608501356156f081615475565b60008060008060008060c08789031215615bb557600080fd5b8635615bc081615475565b95506020870135615bd081615475565b94506040870135615be081615475565b93506060870135615bf081615475565b9598949750929560808101359460a0909101359350915050565b600060208284031215615c1c57600080fd5b8151611ac481615776565b6001600160a01b0393841681529183166020830152909116604082015260600190565b600060208284031215615c5c57600080fd5b8151611ac481615475565b634e487b7160e01b600052601160045260246000fd5b8082028115828204841417610cf757610cf7615c67565b600082615cb157634e487b7160e01b600052601260045260246000fd5b500490565b81810381811115610cf757610cf7615c67565b80820180821115610cf757610cf7615c67565b6001600160a01b0392831681529116602082015260400190565b63ffffffff9290921682526001600160401b0316602082015260400190565b634e487b7160e01b600052602160045260246000fd5b600060208284031215615d3d57600080fd5b5051919050565b6001600160401b0392831681529116602082015260400190565b6001600160a01b0391909116815260200190565b6020808252601e908201527f43616c6c6572206d757374206265207468652070726f78792061646d696e0000604082015260600190565b60208152816020820152818360408301376000818301604090810191909152601f909201601f19160101919050565b634e487b7160e01b600052604160045260246000fd5b634e487b7160e01b600052603260045260246000fd5b6000808335601e19843603018112615e1b57600080fd5b8301803591506001600160401b03821115615e3557600080fd5b60200191503681900382131561522c57600080fd5b828482376000838201600081528351615e67818360208801615a1a565b0195945050505050565b60008251615e83818460208701615a1a565b9190910192915050565b918252602082015260400190565b600060018201615ead57615ead615c67565b5060010190565b60a0810160028710615ed657634e487b7160e01b600052602160045260246000fd5b95815260208101949094526040840192909252606083015260809091015290565b60008060008060808587031215615f0d57600080fd5b8451615f1881615692565b60208601516040870151606090970151919890975090945092505050565b600080600080600060a08688031215615f4e57600080fd5b8551615f5981615692565b602087015160408801516060890151608090990151929a91995097965090945092505050565b600081615f8e57615f8e615c67565b506000190190565b634e487b7160e01b600052605160045260246000fdfea264697066735822122051cd7dff6b7cbcd40e52dac9c968031c92e4b94edff49c7387a1fc57907205c364736f6c634300081b0033",
  "linkReferences": {},
  "deployedLinkReferences": {}
}