{
  "_format": "hh-sol-artifact-1",
  "contractName": "L2GraphTokenGateway",
  "sourceName": "contracts/l2/gateway/L2GraphTokenGateway.sol",
  "abi": [
    {
      "anonymous": false,
      "inputs": [
        {
          "indexed": true,
          "internalType": "bytes32",
          "name": "nameHash",
          "type": "bytes32"
        },
        {
          "indexed": false,
          "internalType": "address",
          "name": "contractAddress",
          "type": "address"
        }
      ],
      "name": "ContractSynced",
      "type": "event"
    },
    {
      "anonymous": false,
      "inputs": [
        {
          "indexed": true,
          "internalType": "address",
          "name": "l1Token",
          "type": "address"
        },
        {
          "indexed": true,
          "internalType": "address",
          "name": "from",
          "type": "address"
        },
        {
          "indexed": true,
          "internalType": "address",
          "name": "to",
          "type": "address"
        },
        {
          "indexed": false,
          "internalType": "uint256",
          "name": "amount",
          "type": "uint256"
        }
      ],
      "name": "DepositFinalized",
      "type": "event"
    },
    {
      "anonymous": false,
      "inputs": [
        {
          "indexed": false,
          "internalType": "address",
          "name": "l1Counterpart",
          "type": "address"
        }
      ],
      "name": "L1CounterpartAddressSet",
      "type": "event"
    },
    {
      "anonymous": false,
      "inputs": [
        {
          "indexed": false,
          "internalType": "address",
          "name": "l1GRT",
          "type": "address"
        }
      ],
      "name": "L1TokenAddressSet",
      "type": "event"
    },
    {
      "anonymous": false,
      "inputs": [
        {
          "indexed": false,
          "internalType": "address",
          "name": "l2Router",
          "type": "address"
        }
      ],
      "name": "L2RouterSet",
      "type": "event"
    },
    {
      "anonymous": false,
      "inputs": [
        {
          "indexed": true,
          "internalType": "address",
          "name": "oldPauseGuardian",
          "type": "address"
        },
        {
          "indexed": true,
          "internalType": "address",
          "name": "pauseGuardian",
          "type": "address"
        }
      ],
      "name": "NewPauseGuardian",
      "type": "event"
    },
    {
      "anonymous": false,
      "inputs": [
        {
          "indexed": false,
          "internalType": "string",
          "name": "param",
          "type": "string"
        }
      ],
      "name": "ParameterUpdated",
      "type": "event"
    },
    {
      "anonymous": false,
      "inputs": [
        {
          "indexed": false,
          "internalType": "bool",
          "name": "isPaused",
          "type": "bool"
        }
      ],
      "name": "PartialPauseChanged",
      "type": "event"
    },
    {
      "anonymous": false,
      "inputs": [
        {
          "indexed": false,
          "internalType": "bool",
          "name": "isPaused",
          "type": "bool"
        }
      ],
      "name": "PauseChanged",
      "type": "event"
    },
    {
      "anonymous": false,
      "inputs": [
        {
          "indexed": false,
          "internalType": "address",
          "name": "controller",
          "type": "address"
        }
      ],
      "name": "SetController",
      "type": "event"
    },
    {
      "anonymous": false,
      "inputs": [
        {
          "indexed": true,
          "internalType": "address",
          "name": "_from",
          "type": "address"
        },
        {
          "indexed": true,
          "internalType": "address",
          "name": "_to",
          "type": "address"
        },
        {
          "indexed": true,
          "internalType": "uint256",
          "name": "_id",
          "type": "uint256"
        },
        {
          "indexed": false,
          "internalType": "bytes",
          "name": "_data",
          "type": "bytes"
        }
      ],
      "name": "TxToL1",
      "type": "event"
    },
    {
      "anonymous": false,
      "inputs": [
        {
          "indexed": false,
          "internalType": "address",
          "name": "l1Token",
          "type": "address"
        },
        {
          "indexed": true,
          "internalType": "address",
          "name": "from",
          "type": "address"
        },
        {
          "indexed": true,
          "internalType": "address",
          "name": "to",
          "type": "address"
        },
        {
          "indexed": true,
          "internalType": "uint256",
          "name": "l2ToL1Id",
          "type": "uint256"
        },
        {
          "indexed": false,
          "internalType": "uint256",
          "name": "exitNum",
          "type": "uint256"
        },
        {
          "indexed": false,
          "internalType": "uint256",
          "name": "amount",
          "type": "uint256"
        }
      ],
      "name": "WithdrawalInitiated",
      "type": "event"
    },
    {
      "inputs": [
        {
          "internalType": "contract IGraphProxy",
          "name": "_proxy",
          "type": "address"
        }
      ],
      "name": "acceptProxy",
      "outputs": [],
      "stateMutability": "nonpayable",
      "type": "function"
    },
    {
      "inputs": [
        {
          "internalType": "contract IGraphProxy",
          "name": "_proxy",
          "type": "address"
        },
        {
          "internalType": "bytes",
          "name": "_data",
          "type": "bytes"
        }
      ],
      "name": "acceptProxyAndCall",
      "outputs": [],
      "stateMutability": "nonpayable",
      "type": "function"
    },
    {
      "inputs": [
        {
          "internalType": "address",
          "name": "l1ERC20",
          "type": "address"
        }
      ],
      "name": "calculateL2TokenAddress",
      "outputs": [
        {
          "internalType": "address",
          "name": "",
          "type": "address"
        }
      ],
      "stateMutability": "view",
      "type": "function"
    },
    {
      "inputs": [],
      "name": "controller",
      "outputs": [
        {
          "internalType": "contract IController",
          "name": "",
          "type": "address"
        }
      ],
      "stateMutability": "view",
      "type": "function"
    },
    {
      "inputs": [
        {
          "internalType": "address",
          "name": "_l1Token",
          "type": "address"
        },
        {
          "internalType": "address",
          "name": "_from",
          "type": "address"
        },
        {
          "internalType": "address",
          "name": "_to",
          "type": "address"
        },
        {
          "internalType": "uint256",
          "name": "_amount",
          "type": "uint256"
        },
        {
          "internalType": "bytes",
          "name": "_data",
          "type": "bytes"
        }
      ],
      "name": "finalizeInboundTransfer",
      "outputs": [],
      "stateMutability": "payable",
      "type": "function"
    },
    {
      "inputs": [
        {
          "internalType": "address",
          "name": "_token",
          "type": "address"
        },
        {
          "internalType": "address",
          "name": "_from",
          "type": "address"
        },
        {
          "internalType": "address",
          "name": "_to",
          "type": "address"
        },
        {
          "internalType": "uint256",
          "name": "_amount",
          "type": "uint256"
        },
        {
          "internalType": "bytes",
          "name": "_data",
          "type": "bytes"
        }
      ],
      "name": "getOutboundCalldata",
      "outputs": [
        {
          "internalType": "bytes",
          "name": "",
          "type": "bytes"
        }
      ],
      "stateMutability": "pure",
      "type": "function"
    },
    {
      "inputs": [
        {
          "internalType": "address",
          "name": "_controller",
          "type": "address"
        }
      ],
      "name": "initialize",
      "outputs": [],
      "stateMutability": "nonpayable",
      "type": "function"
    },
    {
      "inputs": [],
      "name": "l1Counterpart",
      "outputs": [
        {
          "internalType": "address",
          "name": "",
          "type": "address"
        }
      ],
      "stateMutability": "view",
      "type": "function"
    },
    {
      "inputs": [],
      "name": "l1GRT",
      "outputs": [
        {
          "internalType": "address",
          "name": "",
          "type": "address"
        }
      ],
      "stateMutability": "view",
      "type": "function"
    },
    {
      "inputs": [],
      "name": "l2Router",
      "outputs": [
        {
          "internalType": "address",
          "name": "",
          "type": "address"
        }
      ],
      "stateMutability": "view",
      "type": "function"
    },
    {
      "inputs": [],
      "name": "lastPartialPauseTime",
      "outputs": [
        {
          "internalType": "uint256",
          "name": "",
          "type": "uint256"
        }
      ],
      "stateMutability": "view",
      "type": "function"
    },
    {
      "inputs": [],
      "name": "lastPauseTime",
      "outputs": [
        {
          "internalType": "uint256",
          "name": "",
          "type": "uint256"
        }
      ],
      "stateMutability": "view",
      "type": "function"
    },
    {
      "inputs": [
        {
          "internalType": "address",
          "name": "_l1Token",
          "type": "address"
        },
        {
          "internalType": "address",
          "name": "_to",
          "type": "address"
        },
        {
          "internalType": "uint256",
          "name": "_amount",
          "type": "uint256"
        },
        {
          "internalType": "bytes",
          "name": "_data",
          "type": "bytes"
        }
      ],
      "name": "outboundTransfer",
      "outputs": [
        {
          "internalType": "bytes",
          "name": "",
          "type": "bytes"
        }
      ],
      "stateMutability": "nonpayable",
      "type": "function"
    },
    {
      "inputs": [
        {
          "internalType": "address",
          "name": "_l1Token",
          "type": "address"
        },
        {
          "internalType": "address",
          "name": "_to",
          "type": "address"
        },
        {
          "internalType": "uint256",
          "name": "_amount",
          "type": "uint256"
        },
        {
          "internalType": "uint256",
          "name": "",
          "type": "uint256"
        },
        {
          "internalType": "uint256",
          "name": "",
          "type": "uint256"
        },
        {
          "internalType": "bytes",
          "name": "_data",
          "type": "bytes"
        }
      ],
      "name": "outboundTransfer",
      "outputs": [
        {
          "internalType": "bytes",
          "name": "",
          "type": "bytes"
        }
      ],
      "stateMutability": "payable",
      "type": "function"
    },
    {
      "inputs": [],
      "name": "pauseGuardian",
      "outputs": [
        {
          "internalType": "address",
          "name": "",
          "type": "address"
        }
      ],
      "stateMutability": "view",
      "type": "function"
    },
    {
      "inputs": [],
      "name": "paused",
      "outputs": [
        {
          "internalType": "bool",
          "name": "",
          "type": "bool"
        }
      ],
      "stateMutability": "view",
      "type": "function"
    },
    {
      "inputs": [
        {
          "internalType": "address",
          "name": "_controller",
          "type": "address"
        }
      ],
      "name": "setController",
      "outputs": [],
      "stateMutability": "nonpayable",
      "type": "function"
    },
    {
      "inputs": [
        {
          "internalType": "address",
          "name": "_l1Counterpart",
          "type": "address"
        }
      ],
      "name": "setL1CounterpartAddress",
      "outputs": [],
      "stateMutability": "nonpayable",
      "type": "function"
    },
    {
      "inputs": [
        {
          "internalType": "address",
          "name": "_l1GRT",
          "type": "address"
        }
      ],
      "name": "setL1TokenAddress",
      "outputs": [],
      "stateMutability": "nonpayable",
      "type": "function"
    },
    {
      "inputs": [
        {
          "internalType": "address",
          "name": "_l2Router",
          "type": "address"
        }
      ],
      "name": "setL2Router",
      "outputs": [],
      "stateMutability": "nonpayable",
      "type": "function"
    },
    {
      "inputs": [
        {
          "internalType": "address",
          "name": "_newPauseGuardian",
          "type": "address"
        }
      ],
      "name": "setPauseGuardian",
      "outputs": [],
      "stateMutability": "nonpayable",
      "type": "function"
    },
    {
      "inputs": [
        {
          "internalType": "bool",
          "name": "_newPaused",
          "type": "bool"
        }
      ],
      "name": "setPaused",
      "outputs": [],
      "stateMutability": "nonpayable",
      "type": "function"
    },
    {
      "inputs": [],
      "name": "syncAllContracts",
      "outputs": [],
      "stateMutability": "nonpayable",
      "type": "function"
    }
  ],
  "bytecode": "0x6101606040527fe6876326c1291dfcbbd3864a6816d698cd591defc7aa2153d7f9c4c04016c89f6080527fc713c3df6d14cdf946460395d09af88993ee2b948b1a808161494e32c5f6706360a0527f966f1e8d8d8014e05f6ec4a57138da9be1f7c5a7f802928a18072f7c5318076160c0527f1df41cd916959d1163dc8f0671a666ea8a3e434c13e40faef527133b5d16703460e0527f45fc200c7e4544e457d3c5709bfe0d520442c30bbcbdaede89e8d4a4bbc19247610100527fd362cac9cb75c10d67bcc0b7eeb0b1ef48bb5420b556c092d4fd7f758816fcf0610120527f39605a6c26a173774ca666c67ef70cf491880e5d3d6d0ca66ec0a31034f15ea36101405234801561011057600080fd5b5060805160a05160c05160e05161010051610120516101405161222b6101696000398061112f5250806111065250806110dd528061150a5250806110b452508061108b525080611062525080611039525061222b6000f3fe6080604052600436106101405760003560e01c806392eefe9b116100b6578063c4d66de81161006f578063c4d66de814610355578063d2ce7d6514610375578063d685c0b214610388578063d6866ea5146103a8578063f14a4bd5146103bd578063f77c4791146103d257610140565b806392eefe9b146102a05780639ce7abe5146102c0578063a0c76a96146102e0578063a2594d8214610300578063a7e28d4814610320578063c4c0087c1461034057610140565b806348bde20c1161010857806348bde20c146101e75780634adc698a146102075780635c975abb1461021c57806369bc8cd41461023e5780637b3a3c8b1461025e57806391b4ded91461028b57610140565b80630252fec114610145578063147ddef51461016757806316c38b3c1461019257806324a3d622146101b25780632e567b36146101d4575b600080fd5b34801561015157600080fd5b50610165610160366004611b43565b6103e7565b005b34801561017357600080fd5b5061017c610474565b60405161018991906121a9565b60405180910390f35b34801561019e57600080fd5b506101656101ad366004611da9565b61047a565b3480156101be57600080fd5b506101c7610572565b6040516101899190611e67565b6101656101e2366004611bb4565b610581565b3480156101f357600080fd5b50610165610202366004611b43565b6107b9565b34801561021357600080fd5b506101c7610825565b34801561022857600080fd5b50610231610834565b6040516101899190611f43565b34801561024a57600080fd5b50610165610259366004611b43565b610842565b34801561026a57600080fd5b5061027e610279366004611cb4565b6108bb565b6040516101899190611f4e565b34801561029757600080fd5b5061017c6108d7565b3480156102ac57600080fd5b506101656102bb366004611b43565b6108dd565b3480156102cc57600080fd5b506101656102db366004611dc9565b6108ee565b3480156102ec57600080fd5b5061027e6102fb366004611c37565b610a44565b34801561030c57600080fd5b5061016561031b366004611b43565b610ac4565b34801561032c57600080fd5b506101c761033b366004611b43565b610bdf565b34801561034c57600080fd5b506101c7610c0f565b34801561036157600080fd5b50610165610370366004611b43565b610c1e565b61027e610383366004611d25565b610d44565b34801561039457600080fd5b506101656103a3366004611b43565b610fbb565b3480156103b457600080fd5b50610165611034565b3480156103c957600080fd5b506101c7611155565b3480156103de57600080fd5b506101c7611164565b6103ef611173565b6001600160a01b03811661041e5760405162461bcd60e51b815260040161041590612034565b60405180910390fd5b607780546001600160a01b0319166001600160a01b0383161790556040517f43a303848c82a28f94def3043839eaebd654c19fdada874a74fb94d8bf7d343890610469908390611e67565b60405180910390a150565b60015481565b6004805460408051634fc07d7560e01b815290516001600160a01b0390921692634fc07d75928282019260209290829003018186803b1580156104bc57600080fd5b505afa1580156104d0573d6000803e3d6000fd5b505050506040513d60208110156104e657600080fd5b50516001600160a01b031633148061050857506003546001600160a01b031633145b610559576040805162461bcd60e51b815260206004820152601960248201527f4f6e6c7920476f7665726e6f72206f7220477561726469616e00000000000000604482015290519081900360640190fd5b806105665761056661123d565b61056f816112b5565b50565b6003546001600160a01b031681565b600260435414156105d9576040805162461bcd60e51b815260206004820152601f60248201527f5265656e7472616e637947756172643a207265656e7472616e742063616c6c00604482015290519081900360640190fd5b60026043556105e6611340565b6076546105fb906001600160a01b0316611391565b6001600160a01b0316336001600160a01b03161461062b5760405162461bcd60e51b815260040161041590612172565b6075546001600160a01b038781169116146106585760405162461bcd60e51b81526004016104159061214b565b34156106765760405162461bcd60e51b815260040161041590611fdd565b60755461068b906001600160a01b0316610bdf565b6001600160a01b0316638c2a993e85856040518363ffffffff1660e01b81526004016106b8929190611ee2565b600060405180830381600087803b1580156106d257600080fd5b505af11580156106e6573d6000803e3d6000fd5b505082159150610757905057604051635260769b60e11b81526001600160a01b0385169063a4c0ed3690610724908890879087908790600401611efb565b600060405180830381600087803b15801561073e57600080fd5b505af1158015610752573d6000803e3d6000fd5b505050505b836001600160a01b0316856001600160a01b0316876001600160a01b03167fc7f2e9c55c40a50fbc217dfc70cd39a222940dfa62145aa0ca49eb9535d4fcb2866040516107a491906121a9565b60405180910390a45050600160435550505050565b6107c1611173565b6001600160a01b03811661081c576040805162461bcd60e51b815260206004820152601960248201527f5061757365477561726469616e206d7573742062652073657400000000000000604482015290519081900360640190fd5b61056f816113aa565b6077546001600160a01b031681565b600054610100900460ff1690565b61084a611173565b6001600160a01b0381166108705760405162461bcd60e51b81526004016104159061200c565b607580546001600160a01b0319166001600160a01b0383161790556040517f0b7cf729ac6c387cab57a28d257c6ecac863c24b086353121057083c7bfc79f990610469908390611e67565b60606108cd8686866000808888610d44565b9695505050505050565b60025481565b6108e56113fc565b61056f8161145b565b82806001600160a01b031663f851a4406040518163ffffffff1660e01b8152600401602060405180830381600087803b15801561092a57600080fd5b505af115801561093e573d6000803e3d6000fd5b505050506040513d602081101561095457600080fd5b50516001600160a01b031633146109b2576040805162461bcd60e51b815260206004820152601e60248201527f43616c6c6572206d757374206265207468652070726f78792061646d696e0000604482015290519081900360640190fd5b60405163623faf6160e01b8152602060048201908152602482018490526001600160a01b0386169163623faf619186918691908190604401848480828437600081840152601f19601f8201169050808301925050509350505050600060405180830381600087803b158015610a2657600080fd5b505af1158015610a3a573d6000803e3d6000fd5b5050505050505050565b6060632e567b3660e01b86868686600087604051602001610a66929190611f61565b60408051601f1981840301815290829052610a879594939291602401611e7b565b60408051601f198184030181529190526020810180516001600160e01b03166001600160e01b031990931692909217909152905095945050505050565b80806001600160a01b031663f851a4406040518163ffffffff1660e01b8152600401602060405180830381600087803b158015610b0057600080fd5b505af1158015610b14573d6000803e3d6000fd5b505050506040513d6020811015610b2a57600080fd5b50516001600160a01b03163314610b88576040805162461bcd60e51b815260206004820152601e60248201527f43616c6c6572206d757374206265207468652070726f78792061646d696e0000604482015290519081900360640190fd5b816001600160a01b03166359fc20bb6040518163ffffffff1660e01b8152600401600060405180830381600087803b158015610bc357600080fd5b505af1158015610bd7573d6000803e3d6000fd5b505050505050565b6075546000906001600160a01b03838116911614610bff57506000610c0a565b610c07611503565b90505b919050565b6076546001600160a01b031681565b610c26611533565b6001600160a01b0316336001600160a01b031614610c81576040805162461bcd60e51b815260206004820152601360248201527227b7363c9034b6b83632b6b2b73a30ba34b7b760691b604482015290519081900360640190fd5b604254610100900460ff1680610c9a5750610c9a611558565b80610ca8575060425460ff16155b610ce35760405162461bcd60e51b815260040180806020018281038252602e8152602001806121c8602e913960400191505060405180910390fd5b604254610100900460ff16158015610d0e576042805460ff1961ff0019909116610100171660011790555b610d17826108e5565b6000805461ff001916610100179055610d2e611569565b8015610d40576042805461ff00191690555b5050565b606060026043541415610d9e576040805162461bcd60e51b815260206004820152601f60248201527f5265656e7472616e637947756172643a207265656e7472616e742063616c6c00604482015290519081900360640190fd5b6002604355610dab611340565b6075546001600160a01b03898116911614610dd85760405162461bcd60e51b81526004016104159061214b565b85610df55760405162461bcd60e51b815260040161041590611fb0565b3415610e135760405162461bcd60e51b815260040161041590611fdd565b6001600160a01b038716610e395760405162461bcd60e51b81526004016104159061205f565b610e41611a76565b610e4b8484611612565b602083018190526001600160a01b0390911682525115610e7d5760405162461bcd60e51b8152600401610415906120bc565b607554610e92906001600160a01b0316610bdf565b81516040516374f4f54760e01b81526001600160a01b0392909216916374f4f54791610ec2918b90600401611ee2565b600060405180830381600087803b158015610edc57600080fd5b505af1158015610ef0573d6000803e3d6000fd5b505050506000610f3060008360000151607660009054906101000a90046001600160a01b0316610f2b8e87600001518f8f8a60200151610a44565b61168f565b905080896001600160a01b031683600001516001600160a01b03167f3073a74ecb728d10be779fe19a74a1428e20468f5b4d167bf9c73d9067847d738d60008d604051610f7f93929190611ec1565b60405180910390a480604051602001610f9891906121a9565b604051602081830303815290604052925050506001604355979650505050505050565b610fc3611173565b6001600160a01b038116610fe95760405162461bcd60e51b81526004016104159061208c565b607680546001600160a01b0319166001600160a01b0383161790556040517f60d5265d09ed32300af9a69188333d24b405b6f4196f623f3e2b78321181a61590610469908390611e67565b61105d7f000000000000000000000000000000000000000000000000000000000000000061182f565b6110867f000000000000000000000000000000000000000000000000000000000000000061182f565b6110af7f000000000000000000000000000000000000000000000000000000000000000061182f565b6110d87f000000000000000000000000000000000000000000000000000000000000000061182f565b6111017f000000000000000000000000000000000000000000000000000000000000000061182f565b61112a7f000000000000000000000000000000000000000000000000000000000000000061182f565b6111537f000000000000000000000000000000000000000000000000000000000000000061182f565b565b6075546001600160a01b031681565b6004546001600160a01b031681565b6004805460408051634fc07d7560e01b815290516001600160a01b0390921692634fc07d75928282019260209290829003018186803b1580156111b557600080fd5b505afa1580156111c9573d6000803e3d6000fd5b505050506040513d60208110156111df57600080fd5b50516001600160a01b03163314611153576040805162461bcd60e51b815260206004820152601860248201527f4f6e6c7920436f6e74726f6c6c657220676f7665726e6f720000000000000000604482015290519081900360640190fd5b6077546001600160a01b03166112655760405162461bcd60e51b815260040161041590611f85565b6076546001600160a01b031661128d5760405162461bcd60e51b8152600401610415906120f3565b6075546001600160a01b03166111535760405162461bcd60e51b815260040161041590612123565b600060019054906101000a900460ff16151581151514156112d55761056f565b6000805461ff0019166101008315158102919091179182905560ff910416156112fd57426002555b6000546040805161010090920460ff1615158252517f8fb6c181ee25a520cf3dd6565006ef91229fcfe5a989566c2a3b8c115570cec5916020908290030190a150565b600054610100900460ff1615611153576040805162461bcd60e51b81526020600482015260116024820152705061757365642028636f6e74726163742960781b604482015290519081900360640190fd5b7311110000000000000000000000000000000011110190565b600380546001600160a01b038381166001600160a01b0319831681179093556040519116919082907f0613b6ee6a04f0d09f390e4d9318894b9f6ac7fd83897cd8d18896ba579c401e90600090a35050565b6004546001600160a01b03163314611153576040805162461bcd60e51b815260206004820152601960248201527f43616c6c6572206d75737420626520436f6e74726f6c6c657200000000000000604482015290519081900360640190fd5b6001600160a01b0381166114af576040805162461bcd60e51b815260206004820152601660248201527510dbdb9d1c9bdb1b195c881b5d5cdd081899481cd95d60521b604482015290519081900360640190fd5b600480546001600160a01b0383166001600160a01b0319909116811790915560408051918252517f4ff638452bbf33c012645d18ae6f05515ff5f2d1dfb0cece8cbf018c60903f709181900360200190a150565b600061152e7f0000000000000000000000000000000000000000000000000000000000000000611930565b905090565b7f360894a13ba1a3210667c828492db98dca3e2076cc3735a920a3ca505d382bbc5490565b6000611563306119ca565b15905090565b604254610100900460ff16806115825750611582611558565b80611590575060425460ff16155b6115cb5760405162461bcd60e51b815260040180806020018281038252602e8152602001806121c8602e913960400191505060405180910390fd5b604254610100900460ff161580156115f6576042805460ff1961ff0019909116610100171660011790555b6115fe6119d0565b801561056f576042805461ff001916905550565b607754600090606090829082906001600160a01b03163314156116455761163b85870187611b66565b9092509050611682565b33915085858080601f0160208091040260200160405190810160405280939291908181526020018383808284376000920191909152509293505050505b90925090505b9250929050565b60008060646001600160a01b031663928c169a8786866040518463ffffffff1660e01b815260040180836001600160a01b0316815260200180602001828103825283818151815260200191508051906020019080838360005b838110156117005781810151838201526020016116e8565b50505050905090810190601f16801561172d5780820380516001836020036101000a031916815260200191505b5093505050506020604051808303818588803b15801561174c57600080fd5b505af1158015611760573d6000803e3d6000fd5b50505050506040513d602081101561177757600080fd5b5051604080516020808252865182820152865193945084936001600160a01b03808a1694908b16937f2b986d32a0536b7e19baa48ab949fec7b903b7fad7730820b20632d100cc3a68938a93919283929083019185019080838360005b838110156117ec5781810151838201526020016117d4565b50505050905090810190601f1680156118195780820380516001836020036101000a031916815260200191505b509250505060405180910390a495945050505050565b6004805460408051637bb20d2f60e11b8152928301849052516000926001600160a01b039092169163f7641a5e916024808301926020929190829003018186803b15801561187c57600080fd5b505afa158015611890573d6000803e3d6000fd5b505050506040513d60208110156118a657600080fd5b50516000838152600560205260409020549091506001600160a01b03808316911614610d405760008281526005602090815260409182902080546001600160a01b0319166001600160a01b0385169081179091558251908152915184927fd0e7a942b1fc38c411c4f53d153ba14fd24542a6a35ebacd9b6afca1a154e20692908290030190a25050565b6000818152600560205260408120546001600160a01b031680610c07576004805460408051637bb20d2f60e11b8152928301869052516001600160a01b039091169163f7641a5e916024808301926020929190829003018186803b15801561199757600080fd5b505afa1580156119ab573d6000803e3d6000fd5b505050506040513d60208110156119c157600080fd5b50519392505050565b3b151590565b604254610100900460ff16806119e957506119e9611558565b806119f7575060425460ff16155b611a325760405162461bcd60e51b815260040180806020018281038252602e8152602001806121c8602e913960400191505060405180910390fd5b604254610100900460ff16158015611a5d576042805460ff1961ff0019909116610100171660011790555b6001604355801561056f576042805461ff001916905550565b60408051808201909152600081526060602082015290565b60008083601f840112611a9f578182fd5b50813567ffffffffffffffff811115611ab6578182fd5b60208301915083602082850101111561168857600080fd5b600082601f830112611ade578081fd5b813567ffffffffffffffff80821115611af357fe5b604051601f8301601f191681016020018281118282101715611b1157fe5b604052828152848301602001861015611b28578384fd5b82602086016020830137918201602001929092529392505050565b600060208284031215611b54578081fd5b8135611b5f816121b2565b9392505050565b60008060408385031215611b78578081fd5b8235611b83816121b2565b9150602083013567ffffffffffffffff811115611b9e578182fd5b611baa85828601611ace565b9150509250929050565b60008060008060008060a08789031215611bcc578182fd5b8635611bd7816121b2565b95506020870135611be7816121b2565b94506040870135611bf7816121b2565b935060608701359250608087013567ffffffffffffffff811115611c19578283fd5b611c2589828a01611a8e565b979a9699509497509295939492505050565b600080600080600060a08688031215611c4e578081fd5b8535611c59816121b2565b94506020860135611c69816121b2565b93506040860135611c79816121b2565b925060608601359150608086013567ffffffffffffffff811115611c9b578182fd5b611ca788828901611ace565b9150509295509295909350565b600080600080600060808688031215611ccb578081fd5b8535611cd6816121b2565b94506020860135611ce6816121b2565b935060408601359250606086013567ffffffffffffffff811115611d08578182fd5b611d1488828901611a8e565b969995985093965092949392505050565b600080600080600080600060c0888a031215611d3f578081fd5b8735611d4a816121b2565b96506020880135611d5a816121b2565b955060408801359450606088013593506080880135925060a088013567ffffffffffffffff811115611d8a578182fd5b611d968a828b01611a8e565b989b979a50959850939692959293505050565b600060208284031215611dba578081fd5b81358015158114611b5f578182fd5b600080600060408486031215611ddd578283fd5b8335611de8816121b2565b9250602084013567ffffffffffffffff811115611e03578283fd5b611e0f86828701611a8e565b9497909650939450505050565b60008151808452815b81811015611e4157602081850181015186830182015201611e25565b81811115611e525782602083870101525b50601f01601f19169290920160200192915050565b6001600160a01b0391909116815260200190565b6001600160a01b0386811682528581166020830152841660408201526060810183905260a060808201819052600090611eb690830184611e1c565b979650505050505050565b6001600160a01b039390931683526020830191909152604082015260600190565b6001600160a01b03929092168252602082015260400190565b6001600160a01b0385168152602081018490526060604082018190528101829052600082846080840137818301608090810191909152601f909201601f191601019392505050565b901515815260200190565b600060208252611b5f6020830184611e1c565b600060ff8416825260406020830152611f7d6040830184611e1c565b949350505050565b602080825260119082015270130c97d493d555115497d393d517d4d155607a1b604082015260600190565b6020808252601390820152721253959053125117d6915493d7d05353d55395606a1b604082015260600190565b602080825260159082015274494e56414c49445f4e4f4e5a45524f5f56414c554560581b604082015260600190565b6020808252600e908201526d1253959053125117d30c57d1d49560921b604082015260600190565b60208082526011908201527024a72b20a624a22fa6192fa927aaaa22a960791b604082015260600190565b60208082526013908201527224a72b20a624a22fa222a9aa24a720aa24a7a760691b604082015260600190565b6020808252601690820152751253959053125117d30c57d0d3d5539511549410549560521b604082015260600190565b6020808252601a908201527f43414c4c5f484f4f4b5f444154415f4e4f545f414c4c4f574544000000000000604082015260600190565b602080825260169082015275130c57d0d3d5539511549410549517d393d517d4d15560521b604082015260600190565b6020808252600e908201526d130c57d1d49517d393d517d4d15560921b604082015260600190565b6020808252600d908201526c1513d2d15397d393d517d1d495609a1b604082015260600190565b60208082526018908201527f4f4e4c595f434f554e544552504152545f474154455741590000000000000000604082015260600190565b90815260200190565b6001600160a01b038116811461056f57600080fdfe496e697469616c697a61626c653a20636f6e747261637420697320616c726561647920696e697469616c697a6564a2646970667358221220f0c5971e2deaa6a4ccab7a49fa378b47f8efb864d928911a37d4a7add405da3264736f6c63430007060033",
  "linkReferences": {},
  "deployedLinkReferences": {}
}