{
  "_format": "hh-sol-artifact-1",
  "contractName": "PaymentsEscrow",
  "sourceName": "contracts/payments/PaymentsEscrow.sol",
  "abi": [
    {
      "inputs": [
        {
          "internalType": "address",
          "name": "controller",
          "type": "address"
        },
        {
          "internalType": "uint256",
          "name": "withdrawEscrowThawingPeriod",
          "type": "uint256"
        }
      ],
      "stateMutability": "nonpayable",
      "type": "constructor"
    },
    {
      "inputs": [
        {
          "internalType": "address",
          "name": "target",
          "type": "address"
        }
      ],
      "name": "AddressEmptyCode",
      "type": "error"
    },
    {
      "inputs": [],
      "name": "FailedInnerCall",
      "type": "error"
    },
    {
      "inputs": [
        {
          "internalType": "bytes",
          "name": "contractName",
          "type": "bytes"
        }
      ],
      "name": "GraphDirectoryInvalidZeroAddress",
      "type": "error"
    },
    {
      "inputs": [],
      "name": "InvalidInitialization",
      "type": "error"
    },
    {
      "inputs": [],
      "name": "NotInitializing",
      "type": "error"
    },
    {
      "inputs": [
        {
          "internalType": "uint256",
          "name": "balanceBefore",
          "type": "uint256"
        },
        {
          "internalType": "uint256",
          "name": "balanceAfter",
          "type": "uint256"
        },
        {
          "internalType": "uint256",
          "name": "tokens",
          "type": "uint256"
        }
      ],
      "name": "PaymentsEscrowInconsistentCollection",
      "type": "error"
    },
    {
      "inputs": [
        {
          "internalType": "uint256",
          "name": "balance",
          "type": "uint256"
        },
        {
          "internalType": "uint256",
          "name": "minBalance",
          "type": "uint256"
        }
      ],
      "name": "PaymentsEscrowInsufficientBalance",
      "type": "error"
    },
    {
      "inputs": [],
      "name": "PaymentsEscrowInvalidZeroTokens",
      "type": "error"
    },
    {
      "inputs": [],
      "name": "PaymentsEscrowIsPaused",
      "type": "error"
    },
    {
      "inputs": [],
      "name": "PaymentsEscrowNotThawing",
      "type": "error"
    },
    {
      "inputs": [
        {
          "internalType": "uint256",
          "name": "currentTimestamp",
          "type": "uint256"
        },
        {
          "internalType": "uint256",
          "name": "thawEndTimestamp",
          "type": "uint256"
        }
      ],
      "name": "PaymentsEscrowStillThawing",
      "type": "error"
    },
    {
      "inputs": [
        {
          "internalType": "uint256",
          "name": "thawingPeriod",
          "type": "uint256"
        },
        {
          "internalType": "uint256",
          "name": "maxWaitPeriod",
          "type": "uint256"
        }
      ],
      "name": "PaymentsEscrowThawingPeriodTooLong",
      "type": "error"
    },
    {
      "anonymous": false,
      "inputs": [
        {
          "indexed": true,
          "internalType": "address",
          "name": "payer",
          "type": "address"
        },
        {
          "indexed": true,
          "internalType": "address",
          "name": "collector",
          "type": "address"
        },
        {
          "indexed": true,
          "internalType": "address",
          "name": "receiver",
          "type": "address"
        },
        {
          "indexed": false,
          "internalType": "uint256",
          "name": "tokensThawing",
          "type": "uint256"
        },
        {
          "indexed": false,
          "internalType": "uint256",
          "name": "thawEndTimestamp",
          "type": "uint256"
        }
      ],
      "name": "CancelThaw",
      "type": "event"
    },
    {
      "anonymous": false,
      "inputs": [
        {
          "indexed": true,
          "internalType": "address",
          "name": "payer",
          "type": "address"
        },
        {
          "indexed": true,
          "internalType": "address",
          "name": "collector",
          "type": "address"
        },
        {
          "indexed": true,
          "internalType": "address",
          "name": "receiver",
          "type": "address"
        },
        {
          "indexed": false,
          "internalType": "uint256",
          "name": "tokens",
          "type": "uint256"
        }
      ],
      "name": "Deposit",
      "type": "event"
    },
    {
      "anonymous": false,
      "inputs": [
        {
          "indexed": true,
          "internalType": "enum IGraphPayments.PaymentTypes",
          "name": "paymentType",
          "type": "uint8"
        },
        {
          "indexed": true,
          "internalType": "address",
          "name": "payer",
          "type": "address"
        },
        {
          "indexed": true,
          "internalType": "address",
          "name": "collector",
          "type": "address"
        },
        {
          "indexed": false,
          "internalType": "address",
          "name": "receiver",
          "type": "address"
        },
        {
          "indexed": false,
          "internalType": "uint256",
          "name": "tokens",
          "type": "uint256"
        }
      ],
      "name": "EscrowCollected",
      "type": "event"
    },
    {
      "anonymous": false,
      "inputs": [
        {
          "indexed": true,
          "internalType": "address",
          "name": "graphToken",
          "type": "address"
        },
        {
          "indexed": true,
          "internalType": "address",
          "name": "graphStaking",
          "type": "address"
        },
        {
          "indexed": false,
          "internalType": "address",
          "name": "graphPayments",
          "type": "address"
        },
        {
          "indexed": false,
          "internalType": "address",
          "name": "graphEscrow",
          "type": "address"
        },
        {
          "indexed": true,
          "internalType": "address",
          "name": "graphController",
          "type": "address"
        },
        {
          "indexed": false,
          "internalType": "address",
          "name": "graphEpochManager",
          "type": "address"
        },
        {
          "indexed": false,
          "internalType": "address",
          "name": "graphRewardsManager",
          "type": "address"
        },
        {
          "indexed": false,
          "internalType": "address",
          "name": "graphTokenGateway",
          "type": "address"
        },
        {
          "indexed": false,
          "internalType": "address",
          "name": "graphProxyAdmin",
          "type": "address"
        },
        {
          "indexed": false,
          "internalType": "address",
          "name": "graphCuration",
          "type": "address"
        }
      ],
      "name": "GraphDirectoryInitialized",
      "type": "event"
    },
    {
      "anonymous": false,
      "inputs": [
        {
          "indexed": false,
          "internalType": "uint64",
          "name": "version",
          "type": "uint64"
        }
      ],
      "name": "Initialized",
      "type": "event"
    },
    {
      "anonymous": false,
      "inputs": [
        {
          "indexed": true,
          "internalType": "address",
          "name": "payer",
          "type": "address"
        },
        {
          "indexed": true,
          "internalType": "address",
          "name": "collector",
          "type": "address"
        },
        {
          "indexed": true,
          "internalType": "address",
          "name": "receiver",
          "type": "address"
        },
        {
          "indexed": false,
          "internalType": "uint256",
          "name": "tokens",
          "type": "uint256"
        },
        {
          "indexed": false,
          "internalType": "uint256",
          "name": "thawEndTimestamp",
          "type": "uint256"
        }
      ],
      "name": "Thaw",
      "type": "event"
    },
    {
      "anonymous": false,
      "inputs": [
        {
          "indexed": true,
          "internalType": "address",
          "name": "payer",
          "type": "address"
        },
        {
          "indexed": true,
          "internalType": "address",
          "name": "collector",
          "type": "address"
        },
        {
          "indexed": true,
          "internalType": "address",
          "name": "receiver",
          "type": "address"
        },
        {
          "indexed": false,
          "internalType": "uint256",
          "name": "tokens",
          "type": "uint256"
        }
      ],
      "name": "Withdraw",
      "type": "event"
    },
    {
      "inputs": [],
      "name": "MAX_WAIT_PERIOD",
      "outputs": [
        {
          "internalType": "uint256",
          "name": "",
          "type": "uint256"
        }
      ],
      "stateMutability": "view",
      "type": "function"
    },
    {
      "inputs": [],
      "name": "WITHDRAW_ESCROW_THAWING_PERIOD",
      "outputs": [
        {
          "internalType": "uint256",
          "name": "",
          "type": "uint256"
        }
      ],
      "stateMutability": "view",
      "type": "function"
    },
    {
      "inputs": [
        {
          "internalType": "address",
          "name": "collector",
          "type": "address"
        },
        {
          "internalType": "address",
          "name": "receiver",
          "type": "address"
        }
      ],
      "name": "cancelThaw",
      "outputs": [],
      "stateMutability": "nonpayable",
      "type": "function"
    },
    {
      "inputs": [
        {
          "internalType": "enum IGraphPayments.PaymentTypes",
          "name": "paymentType",
          "type": "uint8"
        },
        {
          "internalType": "address",
          "name": "payer",
          "type": "address"
        },
        {
          "internalType": "address",
          "name": "receiver",
          "type": "address"
        },
        {
          "internalType": "uint256",
          "name": "tokens",
          "type": "uint256"
        },
        {
          "internalType": "address",
          "name": "dataService",
          "type": "address"
        },
        {
          "internalType": "uint256",
          "name": "dataServiceCut",
          "type": "uint256"
        }
      ],
      "name": "collect",
      "outputs": [],
      "stateMutability": "nonpayable",
      "type": "function"
    },
    {
      "inputs": [
        {
          "internalType": "address",
          "name": "collector",
          "type": "address"
        },
        {
          "internalType": "address",
          "name": "receiver",
          "type": "address"
        },
        {
          "internalType": "uint256",
          "name": "tokens",
          "type": "uint256"
        }
      ],
      "name": "deposit",
      "outputs": [],
      "stateMutability": "nonpayable",
      "type": "function"
    },
    {
      "inputs": [
        {
          "internalType": "address",
          "name": "payer",
          "type": "address"
        },
        {
          "internalType": "address",
          "name": "collector",
          "type": "address"
        },
        {
          "internalType": "address",
          "name": "receiver",
          "type": "address"
        },
        {
          "internalType": "uint256",
          "name": "tokens",
          "type": "uint256"
        }
      ],
      "name": "depositTo",
      "outputs": [],
      "stateMutability": "nonpayable",
      "type": "function"
    },
    {
      "inputs": [
        {
          "internalType": "address",
          "name": "payer",
          "type": "address"
        },
        {
          "internalType": "address",
          "name": "collector",
          "type": "address"
        },
        {
          "internalType": "address",
          "name": "receiver",
          "type": "address"
        }
      ],
      "name": "escrowAccounts",
      "outputs": [
        {
          "internalType": "uint256",
          "name": "balance",
          "type": "uint256"
        },
        {
          "internalType": "uint256",
          "name": "tokensThawing",
          "type": "uint256"
        },
        {
          "internalType": "uint256",
          "name": "thawEndTimestamp",
          "type": "uint256"
        }
      ],
      "stateMutability": "view",
      "type": "function"
    },
    {
      "inputs": [
        {
          "internalType": "address",
          "name": "payer",
          "type": "address"
        },
        {
          "internalType": "address",
          "name": "collector",
          "type": "address"
        },
        {
          "internalType": "address",
          "name": "receiver",
          "type": "address"
        }
      ],
      "name": "getBalance",
      "outputs": [
        {
          "internalType": "uint256",
          "name": "",
          "type": "uint256"
        }
      ],
      "stateMutability": "view",
      "type": "function"
    },
    {
      "inputs": [],
      "name": "initialize",
      "outputs": [],
      "stateMutability": "nonpayable",
      "type": "function"
    },
    {
      "inputs": [
        {
          "internalType": "bytes[]",
          "name": "data",
          "type": "bytes[]"
        }
      ],
      "name": "multicall",
      "outputs": [
        {
          "internalType": "bytes[]",
          "name": "results",
          "type": "bytes[]"
        }
      ],
      "stateMutability": "nonpayable",
      "type": "function"
    },
    {
      "inputs": [
        {
          "internalType": "address",
          "name": "collector",
          "type": "address"
        },
        {
          "internalType": "address",
          "name": "receiver",
          "type": "address"
        },
        {
          "internalType": "uint256",
          "name": "tokens",
          "type": "uint256"
        }
      ],
      "name": "thaw",
      "outputs": [],
      "stateMutability": "nonpayable",
      "type": "function"
    },
    {
      "inputs": [
        {
          "internalType": "address",
          "name": "collector",
          "type": "address"
        },
        {
          "internalType": "address",
          "name": "receiver",
          "type": "address"
        }
      ],
      "name": "withdraw",
      "outputs": [],
      "stateMutability": "nonpayable",
      "type": "function"
    }
  ],
  "bytecode": "0x6101e060405234801561001157600080fd5b50604051611ac5380380611ac583398101604081905261003091610432565b816001600160a01b03811661007a5760405163218f5add60e11b815260206004820152600a60248201526921b7b73a3937b63632b960b11b60448201526064015b60405180910390fd5b6001600160a01b0381166101005260408051808201909152600a81526923b930b8342a37b5b2b760b11b60208201526100b290610368565b6001600160a01b03166080526040805180820190915260078152665374616b696e6760c81b60208201526100e590610368565b6001600160a01b031660a05260408051808201909152600d81526c47726170685061796d656e747360981b602082015261011e90610368565b6001600160a01b031660c05260408051808201909152600e81526d5061796d656e7473457363726f7760901b602082015261015890610368565b6001600160a01b031660e05260408051808201909152600c81526b22b837b1b426b0b730b3b2b960a11b602082015261019090610368565b6001600160a01b03166101205260408051808201909152600e81526d2932bbb0b93239a6b0b730b3b2b960911b60208201526101cb90610368565b6001600160a01b0316610140526040805180820190915260118152704772617068546f6b656e4761746577617960781b602082015261020990610368565b6001600160a01b03166101605260408051808201909152600f81526e23b930b834283937bc3ca0b236b4b760891b602082015261024590610368565b6001600160a01b03166101805260408051808201909152600881526721bab930ba34b7b760c11b602082015261027a90610368565b6001600160a01b039081166101a08190526101005160a05160805160c05160e05161012051610140516101605161018051604051988b169a9788169996909716977fef5021414834d86e36470f5c1cecf6544fb2bb723f2ca51a4c86fcd8c5919a43976103249790916001600160a01b03978816815295871660208701529386166040860152918516606085015284166080840152831660a083015290911660c082015260e00190565b60405180910390a450806276a7008082111561035c57604051635c0f65a160e01b815260048101929092526024820152604401610071565b50506101c052506104ce565b600080610100516001600160a01b031663f7641a5e84805190602001206040518263ffffffff1660e01b81526004016103a391815260200190565b602060405180830381865afa1580156103c0573d6000803e3d6000fd5b505050506040513d601f19601f820116820180604052508101906103e4919061045e565b9050826001600160a01b03821661040f5760405163218f5add60e11b81526004016100719190610480565b5092915050565b80516001600160a01b038116811461042d57600080fd5b919050565b6000806040838503121561044557600080fd5b61044e83610416565b9150602083015190509250929050565b60006020828403121561047057600080fd5b61047982610416565b9392505050565b602081526000825180602084015260005b818110156104ae5760208186018101516040868401015201610491565b506000604082850101526040601f19601f83011684010191505092915050565b60805160a05160c05160e05161010051610120516101405161016051610180516101a0516101c05161157f610546600039600081816101220152610b3a015260005050600050506000505060005050600050506000610d7d0152600050506000610ea40152600050506000610e80015261157f6000f3fe608060405234801561001057600080fd5b50600436106100a45760003560e01c806372eb521e146100a95780637a8df28b146100be5780637b8ae6cf1461011d5780638129fc1c146101525780638340f5491461015a57806387dbfe821461016d578063ac9650d814610180578063b1d07de4146101a0578063b2168b6b146101b3578063d6bd603c146101bd578063f93f1cd0146101d0578063f940e385146101e3575b600080fd5b6100bc6100b7366004611103565b6101f6565b005b6100fd6100cc36600461114e565b6000602081815293815260408082208552928152828120909352825290208054600182015460029092015490919083565b604080519384526020840192909252908201526060015b60405180910390f35b6101447f000000000000000000000000000000000000000000000000000000000000000081565b604051908152602001610114565b6100bc61028f565b6100bc610168366004611191565b610387565b6100bc61017b3660046111ce565b61041f565b61019361018e36600461123c565b6107a1565b60405161011491906112d5565b6100bc6101ae366004611355565b610889565b6101446276a70081565b6101446101cb36600461114e565b6109cc565b6100bc6101de366004611191565b610a2a565b6100bc6101f1366004611355565b610bbd565b6101fe610d7b565b6001600160a01b0316635c975abb6040518163ffffffff1660e01b8152600401602060405180830381865afa15801561023b573d6000803e3d6000fd5b505050506040513d601f19601f8201168201806040525081019061025f9190611388565b1561027d57604051639e68cf0b60e01b815260040160405180910390fd5b61028984848484610d9f565b50505050565b6000610299610e50565b805490915060ff600160401b82041615906001600160401b03166000811580156102c05750825b90506000826001600160401b031660011480156102dc5750303b155b9050811580156102ea575080155b156103085760405163f92ee8a960e01b815260040160405180910390fd5b845467ffffffffffffffff19166001178555831561033257845460ff60401b1916600160401b1785555b61033a610e74565b831561038057845460ff60401b19168555604051600181527fc7f505b2f371ae2175ee4913f4499e1f2633a7b5936321eed1cdaeb6115181d29060200160405180910390a15b5050505050565b61038f610d7b565b6001600160a01b0316635c975abb6040518163ffffffff1660e01b8152600401602060405180830381865afa1580156103cc573d6000803e3d6000fd5b505050506040513d601f19601f820116820180604052508101906103f09190611388565b1561040e57604051639e68cf0b60e01b815260040160405180910390fd5b61041a33848484610d9f565b505050565b610427610d7b565b6001600160a01b0316635c975abb6040518163ffffffff1660e01b8152600401602060405180830381865afa158015610464573d6000803e3d6000fd5b505050506040513d601f19601f820116820180604052508101906104889190611388565b156104a657604051639e68cf0b60e01b815260040160405180910390fd5b6001600160a01b0380861660009081526020818152604080832033845282528083209388168352929052208054848082101561050357604051633db4e69160e01b8152600481019290925260248201526044015b60405180910390fd5b50508381600001600082825461051991906113c0565b9091555060009050610529610e7e565b6001600160a01b03166370a08231306040518263ffffffff1660e01b815260040161055491906113d3565b602060405180830381865afa158015610571573d6000803e3d6000fd5b505050506040513d601f19601f8201168201806040525081019061059591906113e7565b905061059f610e7e565b6001600160a01b031663095ea7b36105b5610ea2565b876040518363ffffffff1660e01b81526004016105d3929190611400565b6020604051808303816000875af11580156105f2573d6000803e3d6000fd5b505050506040513d601f19601f820116820180604052508101906106169190611388565b5061061f610ea2565b6001600160a01b0316636c69783a89888888886040518663ffffffff1660e01b815260040161065295949392919061142f565b600060405180830381600087803b15801561066c57600080fd5b505af1158015610680573d6000803e3d6000fd5b50505050600061068e610e7e565b6001600160a01b03166370a08231306040518263ffffffff1660e01b81526004016106b991906113d3565b602060405180830381865afa1580156106d6573d6000803e3d6000fd5b505050506040513d601f19601f820116820180604052508101906106fa91906113e7565b9050610706818761147a565b821482828890919261073c57604051631f82726b60e21b81526004810193909352602483019190915260448201526064016104fa565b50339150506001600160a01b0389168a600281111561075d5761075d611419565b7fb49e940c9ccc53d15a1bc2bcc4f42988b8097428ee4c912adaa728f24ccae3a08a8a60405161078e929190611400565b60405180910390a4505050505050505050565b604080516000815260208101909152606090826001600160401b038111156107cb576107cb61148d565b6040519080825280602002602001820160405280156107fe57816020015b60608152602001906001900390816107e95790505b50915060005b838110156108805761085b30868684818110610822576108226114a3565b905060200281019061083491906114b9565b8560405160200161084793929190611506565b604051602081830303815290604052610ec6565b83828151811061086d5761086d6114a3565b6020908102919091010152600101610804565b50505b92915050565b610891610d7b565b6001600160a01b0316635c975abb6040518163ffffffff1660e01b8152600401602060405180830381865afa1580156108ce573d6000803e3d6000fd5b505050506040513d601f19601f820116820180604052508101906108f29190611388565b1561091057604051639e68cf0b60e01b815260040160405180910390fd5b336000908152602081815260408083206001600160a01b03868116855290835281842090851684529091528120600181015490910361096257604051638cbd172f60e01b815260040160405180910390fd5b60018101805460028301805460009384905592905560408051828152602081018490529192916001600160a01b03868116929088169133917f6c4ed34e7347a8682024ee40d393e45f4075c46c593aaaed3cc3e49dd6933535910160405180910390a45050505050565b6001600160a01b038084166000908152602081815260408083208685168452825280832093851683529290529081206001810154815411610a0e576000610a1f565b60018101548154610a1f91906113c0565b9150505b9392505050565b610a32610d7b565b6001600160a01b0316635c975abb6040518163ffffffff1660e01b8152600401602060405180830381865afa158015610a6f573d6000803e3d6000fd5b505050506040513d601f19601f82011682018060405250810190610a939190611388565b15610ab157604051639e68cf0b60e01b815260040160405180910390fd5b60008111610ad257604051633aff1f3760e21b815260040160405180910390fd5b336000908152602081815260408083206001600160a01b0387811685529083528184209086168452909152902080548280821015610b2c57604051633db4e69160e01b8152600481019290925260248201526044016104fa565b505060018101829055610b5f7f00000000000000000000000000000000000000000000000000000000000000004261147a565b600282018190556040516001600160a01b03808616929087169133917fba109e8a47e57c895aa1802554cd51025499c2b07c3c9b467c70413a4434ffbc91610baf91888252602082015260400190565b60405180910390a450505050565b610bc5610d7b565b6001600160a01b0316635c975abb6040518163ffffffff1660e01b8152600401602060405180830381865afa158015610c02573d6000803e3d6000fd5b505050506040513d601f19601f82011682018060405250810190610c269190611388565b15610c4457604051639e68cf0b60e01b815260040160405180910390fd5b336000908152602081815260408083206001600160a01b038681168552908352818420908516845290915281206002810154909103610c9657604051638cbd172f60e01b815260040160405180910390fd5b60028101544290818110610cc657604051633c50db7960e11b8152600481019290925260248201526044016104fa565b505060008160000154826001015411610ce3578160010154610ce6565b81545b905080826000016000828254610cfc91906113c0565b90915550506000600183018190556002830155610d2c3382610d1c610e7e565b6001600160a01b03169190610f3c565b826001600160a01b0316846001600160a01b0316336001600160a01b03167f3115d1449a7b732c986cba18244e897a450f61e1bb8d589cd2e69e6c8924f9f784604051610baf91815260200190565b7f000000000000000000000000000000000000000000000000000000000000000090565b6001600160a01b038085166000908152602081815260408083208785168452825280832093861683529290529081208054839290610dde90849061147a565b90915550610e0190503382610df1610e7e565b6001600160a01b03169190610feb565b816001600160a01b0316836001600160a01b0316856001600160a01b03167f7cfff908a4b583f36430b25d75964c458d8ede8a99bd61be750e97ee1b2f3a9684604051610baf91815260200190565b7ff0c57e16840df040f15088dc2f81fe391c3923bec73e23a9662efc9c229c6a0090565b610e7c61102c565b565b7f000000000000000000000000000000000000000000000000000000000000000090565b7f000000000000000000000000000000000000000000000000000000000000000090565b6060600080846001600160a01b031684604051610ee3919061152d565b600060405180830381855af49150503d8060008114610f1e576040519150601f19603f3d011682016040523d82523d6000602084013e610f23565b606091505b5091509150610f33858383611051565b95945050505050565b801561041a5760405163a9059cbb60e01b81526001600160a01b0384169063a9059cbb90610f709085908590600401611400565b6020604051808303816000875af1158015610f8f573d6000803e3d6000fd5b505050506040513d601f19601f82011682018060405250810190610fb39190611388565b61041a5760405162461bcd60e51b815260206004820152600960248201526810ba3930b739b332b960b91b60448201526064016104fa565b801561041a576040516323b872dd60e01b81526001600160a01b038381166004830152306024830152604482018390528416906323b872dd90606401610f70565b6110346110a4565b610e7c57604051631afcd79f60e31b815260040160405180910390fd5b60608261106657611061826110be565b610a23565b815115801561107d57506001600160a01b0384163b155b1561109d5783604051639996b31560e01b81526004016104fa91906113d3565b5080610a23565b60006110ae610e50565b54600160401b900460ff16919050565b8051156110ce5780518082602001fd5b604051630a12f52160e11b815260040160405180910390fd5b80356001600160a01b03811681146110fe57600080fd5b919050565b6000806000806080858703121561111957600080fd5b611122856110e7565b9350611130602086016110e7565b925061113e604086016110e7565b9396929550929360600135925050565b60008060006060848603121561116357600080fd5b61116c846110e7565b925061117a602085016110e7565b9150611188604085016110e7565b90509250925092565b6000806000606084860312156111a657600080fd5b6111af846110e7565b92506111bd602085016110e7565b929592945050506040919091013590565b60008060008060008060c087890312156111e757600080fd5b8635600381106111f657600080fd5b9550611204602088016110e7565b9450611212604088016110e7565b935060608701359250611227608088016110e7565b9598949750929591949360a090920135925050565b6000806020838503121561124f57600080fd5b82356001600160401b0381111561126557600080fd5b8301601f8101851361127657600080fd5b80356001600160401b0381111561128c57600080fd5b8560208260051b84010111156112a157600080fd5b6020919091019590945092505050565b60005b838110156112cc5781810151838201526020016112b4565b50506000910152565b6000602082016020835280845180835260408501915060408160051b86010192506020860160005b8281101561134957603f19878603018452815180518087526113268160208901602085016112b1565b601f01601f191695909501602090810195509384019391909101906001016112fd565b50929695505050505050565b6000806040838503121561136857600080fd5b611371836110e7565b915061137f602084016110e7565b90509250929050565b60006020828403121561139a57600080fd5b81518015158114610a2357600080fd5b634e487b7160e01b600052601160045260246000fd5b81810381811115610883576108836113aa565b6001600160a01b0391909116815260200190565b6000602082840312156113f957600080fd5b5051919050565b6001600160a01b03929092168252602082015260400190565b634e487b7160e01b600052602160045260246000fd5b60a081016003871061145157634e487b7160e01b600052602160045260246000fd5b9581526001600160a01b0394851660208201526040810193909352921660608201526080015290565b80820180821115610883576108836113aa565b634e487b7160e01b600052604160045260246000fd5b634e487b7160e01b600052603260045260246000fd5b6000808335601e198436030181126114d057600080fd5b8301803591506001600160401b038211156114ea57600080fd5b6020019150368190038213156114ff57600080fd5b9250929050565b8284823760008382016000815283516115238183602088016112b1565b0195945050505050565b6000825161153f8184602087016112b1565b919091019291505056fea26469706673582212201f56a3b34dcd2d13e75bc99e594d1ef213c5a178859e0bfca6036ee392ad3d6764736f6c634300081b0033",
  "linkReferences": {},
  "deployedLinkReferences": {}
}