{
  "_format": "hh-sol-artifact-1",
  "contractName": "TAPCollector",
  "sourceName": "contracts/payments/collectors/TAPCollector.sol",
  "abi": [
    {
      "inputs": [
        {
          "internalType": "string",
          "name": "eip712Name",
          "type": "string"
        },
        {
          "internalType": "string",
          "name": "eip712Version",
          "type": "string"
        },
        {
          "internalType": "address",
          "name": "controller",
          "type": "address"
        }
      ],
      "stateMutability": "nonpayable",
      "type": "constructor"
    },
    {
      "inputs": [],
      "name": "ECDSAInvalidSignature",
      "type": "error"
    },
    {
      "inputs": [
        {
          "internalType": "uint256",
          "name": "length",
          "type": "uint256"
        }
      ],
      "name": "ECDSAInvalidSignatureLength",
      "type": "error"
    },
    {
      "inputs": [
        {
          "internalType": "bytes32",
          "name": "s",
          "type": "bytes32"
        }
      ],
      "name": "ECDSAInvalidSignatureS",
      "type": "error"
    },
    {
      "inputs": [
        {
          "internalType": "bytes",
          "name": "contractName",
          "type": "bytes"
        }
      ],
      "name": "GraphDirectoryInvalidZeroAddress",
      "type": "error"
    },
    {
      "inputs": [],
      "name": "InvalidShortString",
      "type": "error"
    },
    {
      "inputs": [
        {
          "internalType": "uint256",
          "name": "a",
          "type": "uint256"
        },
        {
          "internalType": "uint256",
          "name": "b",
          "type": "uint256"
        }
      ],
      "name": "PPMMathInvalidMulPPM",
      "type": "error"
    },
    {
      "inputs": [
        {
          "internalType": "string",
          "name": "str",
          "type": "string"
        }
      ],
      "name": "StringTooLong",
      "type": "error"
    },
    {
      "inputs": [
        {
          "internalType": "address",
          "name": "caller",
          "type": "address"
        },
        {
          "internalType": "address",
          "name": "dataService",
          "type": "address"
        }
      ],
      "name": "TAPCollectorCallerNotDataService",
      "type": "error"
    },
    {
      "inputs": [
        {
          "internalType": "uint256",
          "name": "tokens",
          "type": "uint256"
        },
        {
          "internalType": "uint256",
          "name": "tokensCollected",
          "type": "uint256"
        }
      ],
      "name": "TAPCollectorInconsistentRAVTokens",
      "type": "error"
    },
    {
      "anonymous": false,
      "inputs": [],
      "name": "EIP712DomainChanged",
      "type": "event"
    },
    {
      "anonymous": false,
      "inputs": [
        {
          "indexed": true,
          "internalType": "address",
          "name": "graphToken",
          "type": "address"
        },
        {
          "indexed": true,
          "internalType": "address",
          "name": "graphStaking",
          "type": "address"
        },
        {
          "indexed": false,
          "internalType": "address",
          "name": "graphPayments",
          "type": "address"
        },
        {
          "indexed": false,
          "internalType": "address",
          "name": "graphEscrow",
          "type": "address"
        },
        {
          "indexed": true,
          "internalType": "address",
          "name": "graphController",
          "type": "address"
        },
        {
          "indexed": false,
          "internalType": "address",
          "name": "graphEpochManager",
          "type": "address"
        },
        {
          "indexed": false,
          "internalType": "address",
          "name": "graphRewardsManager",
          "type": "address"
        },
        {
          "indexed": false,
          "internalType": "address",
          "name": "graphTokenGateway",
          "type": "address"
        },
        {
          "indexed": false,
          "internalType": "address",
          "name": "graphProxyAdmin",
          "type": "address"
        },
        {
          "indexed": false,
          "internalType": "address",
          "name": "graphCuration",
          "type": "address"
        }
      ],
      "name": "GraphDirectoryInitialized",
      "type": "event"
    },
    {
      "anonymous": false,
      "inputs": [
        {
          "indexed": true,
          "internalType": "enum IGraphPayments.PaymentTypes",
          "name": "paymentType",
          "type": "uint8"
        },
        {
          "indexed": true,
          "internalType": "address",
          "name": "payer",
          "type": "address"
        },
        {
          "indexed": false,
          "internalType": "address",
          "name": "receiver",
          "type": "address"
        },
        {
          "indexed": false,
          "internalType": "uint256",
          "name": "tokensReceiver",
          "type": "uint256"
        },
        {
          "indexed": true,
          "internalType": "address",
          "name": "dataService",
          "type": "address"
        },
        {
          "indexed": false,
          "internalType": "uint256",
          "name": "tokensDataService",
          "type": "uint256"
        }
      ],
      "name": "PaymentCollected",
      "type": "event"
    },
    {
      "inputs": [
        {
          "internalType": "enum IGraphPayments.PaymentTypes",
          "name": "paymentType",
          "type": "uint8"
        },
        {
          "internalType": "bytes",
          "name": "data",
          "type": "bytes"
        }
      ],
      "name": "collect",
      "outputs": [
        {
          "internalType": "uint256",
          "name": "",
          "type": "uint256"
        }
      ],
      "stateMutability": "nonpayable",
      "type": "function"
    },
    {
      "inputs": [],
      "name": "eip712Domain",
      "outputs": [
        {
          "internalType": "bytes1",
          "name": "fields",
          "type": "bytes1"
        },
        {
          "internalType": "string",
          "name": "name",
          "type": "string"
        },
        {
          "internalType": "string",
          "name": "version",
          "type": "string"
        },
        {
          "internalType": "uint256",
          "name": "chainId",
          "type": "uint256"
        },
        {
          "internalType": "address",
          "name": "verifyingContract",
          "type": "address"
        },
        {
          "internalType": "bytes32",
          "name": "salt",
          "type": "bytes32"
        },
        {
          "internalType": "uint256[]",
          "name": "extensions",
          "type": "uint256[]"
        }
      ],
      "stateMutability": "view",
      "type": "function"
    },
    {
      "inputs": [
        {
          "components": [
            {
              "internalType": "address",
              "name": "dataService",
              "type": "address"
            },
            {
              "internalType": "address",
              "name": "serviceProvider",
              "type": "address"
            },
            {
              "internalType": "uint64",
              "name": "timestampNs",
              "type": "uint64"
            },
            {
              "internalType": "uint128",
              "name": "valueAggregate",
              "type": "uint128"
            },
            {
              "internalType": "bytes",
              "name": "metadata",
              "type": "bytes"
            }
          ],
          "internalType": "struct ITAPCollector.ReceiptAggregateVoucher",
          "name": "rav",
          "type": "tuple"
        }
      ],
      "name": "encodeRAV",
      "outputs": [
        {
          "internalType": "bytes32",
          "name": "",
          "type": "bytes32"
        }
      ],
      "stateMutability": "view",
      "type": "function"
    },
    {
      "inputs": [
        {
          "components": [
            {
              "components": [
                {
                  "internalType": "address",
                  "name": "dataService",
                  "type": "address"
                },
                {
                  "internalType": "address",
                  "name": "serviceProvider",
                  "type": "address"
                },
                {
                  "internalType": "uint64",
                  "name": "timestampNs",
                  "type": "uint64"
                },
                {
                  "internalType": "uint128",
                  "name": "valueAggregate",
                  "type": "uint128"
                },
                {
                  "internalType": "bytes",
                  "name": "metadata",
                  "type": "bytes"
                }
              ],
              "internalType": "struct ITAPCollector.ReceiptAggregateVoucher",
              "name": "rav",
              "type": "tuple"
            },
            {
              "internalType": "bytes",
              "name": "signature",
              "type": "bytes"
            }
          ],
          "internalType": "struct ITAPCollector.SignedRAV",
          "name": "signedRAV",
          "type": "tuple"
        }
      ],
      "name": "recoverRAVSigner",
      "outputs": [
        {
          "internalType": "address",
          "name": "",
          "type": "address"
        }
      ],
      "stateMutability": "view",
      "type": "function"
    },
    {
      "inputs": [
        {
          "internalType": "address",
          "name": "dataService",
          "type": "address"
        },
        {
          "internalType": "address",
          "name": "receiver",
          "type": "address"
        },
        {
          "internalType": "address",
          "name": "payer",
          "type": "address"
        }
      ],
      "name": "tokensCollected",
      "outputs": [
        {
          "internalType": "uint256",
          "name": "tokens",
          "type": "uint256"
        }
      ],
      "stateMutability": "view",
      "type": "function"
    }
  ],
  "bytecode": "0x6102a060405234801561001157600080fd5b506040516119ae3803806119ae833981016040819052610030916105d9565b80838361003e8260006103db565b6101205261004d8160016103db565b61014052815160208084019190912060e052815190820120610100524660a0526100da60e05161010051604080517f8b73c3c69bb8fe3d512ecc4cf759cc79239f7b179b0ffacaa9a75d522b39400f60208201529081019290925260608201524660808201523060a082015260009060c00160405160208183030381529060405280519060200120905090565b60805250503060c0526001600160a01b03811661012c5760405163218f5add60e11b815260206004820152600a60248201526921b7b73a3937b63632b960b11b60448201526064015b60405180910390fd5b6001600160a01b0381166101e05260408051808201909152600a81526923b930b8342a37b5b2b760b11b60208201526101649061040e565b6001600160a01b0316610160526040805180820190915260078152665374616b696e6760c81b60208201526101989061040e565b6001600160a01b03166101805260408051808201909152600d81526c47726170685061796d656e747360981b60208201526101d29061040e565b6001600160a01b03166101a05260408051808201909152600e81526d5061796d656e7473457363726f7760901b602082015261020d9061040e565b6001600160a01b03166101c05260408051808201909152600c81526b22b837b1b426b0b730b3b2b960a11b60208201526102469061040e565b6001600160a01b03166102005260408051808201909152600e81526d2932bbb0b93239a6b0b730b3b2b960911b60208201526102819061040e565b6001600160a01b0316610220526040805180820190915260118152704772617068546f6b656e4761746577617960781b60208201526102bf9061040e565b6001600160a01b03166102405260408051808201909152600f81526e23b930b834283937bc3ca0b236b4b760891b60208201526102fb9061040e565b6001600160a01b03166102605260408051808201909152600881526721bab930ba34b7b760c11b60208201526103309061040e565b6001600160a01b039081166102808190526101e05161018051610160516101a0516101c0516102005161022051610240516102605160408051968c168752948b166020870152928a1685850152908916606085015288166080840152871660a083015260c0820195909552935192851694918216939116917fef5021414834d86e36470f5c1cecf6544fb2bb723f2ca51a4c86fcd8c5919a439181900360e00190a45050505061081e565b60006020835110156103f7576103f0836104bc565b9050610408565b8161040284826106db565b5060ff90505b92915050565b6000806101e0516001600160a01b031663f7641a5e84805190602001206040518263ffffffff1660e01b815260040161044991815260200190565b602060405180830381865afa158015610466573d6000803e3d6000fd5b505050506040513d601f19601f8201168201806040525081019061048a9190610799565b9050826001600160a01b0382166104b55760405163218f5add60e11b815260040161012391906107e7565b5092915050565b600080829050601f815111156104e7578260405163305a27a960e01b815260040161012391906107e7565b80516104f2826107fa565b179392505050565b634e487b7160e01b600052604160045260246000fd5b60005b8381101561052b578181015183820152602001610513565b50506000910152565b600082601f83011261054557600080fd5b81516001600160401b0381111561055e5761055e6104fa565b604051601f8201601f19908116603f011681016001600160401b038111828210171561058c5761058c6104fa565b6040528181528382016020018510156105a457600080fd5b6105b5826020830160208701610510565b949350505050565b80516001600160a01b03811681146105d457600080fd5b919050565b6000806000606084860312156105ee57600080fd5b83516001600160401b0381111561060457600080fd5b61061086828701610534565b602086015190945090506001600160401b0381111561062e57600080fd5b61063a86828701610534565b925050610649604085016105bd565b90509250925092565b600181811c9082168061066657607f821691505b60208210810361068657634e487b7160e01b600052602260045260246000fd5b50919050565b601f8211156106d657806000526020600020601f840160051c810160208510156106b35750805b601f840160051c820191505b818110156106d357600081556001016106bf565b50505b505050565b81516001600160401b038111156106f4576106f46104fa565b610708816107028454610652565b8461068c565b6020601f82116001811461073c57600083156107245750848201515b600019600385901b1c1916600184901b1784556106d3565b600084815260208120601f198516915b8281101561076c578785015182556020948501946001909201910161074c565b508482101561078a5786840151600019600387901b60f8161c191681555b50505050600190811b01905550565b6000602082840312156107ab57600080fd5b6107b4826105bd565b9392505050565b600081518084526107d3816020860160208601610510565b601f01601f19169290920160200192915050565b6020815260006107b460208301846107bb565b805160208083015191908110156106865760001960209190910360031b1b16919050565b60805160a05160c05160e05161010051610120516101405161016051610180516101a0516101c0516101e05161020051610220516102405161026051610280516110e36108cb600039600050506000505060005050600050506000505060005050600061024f0152600050506000505060005050600061049201526000610460015260006108940152600061086c015260006107c7015260006107f10152600061081b01526110e36000f3fe608060405234801561001057600080fd5b50600436106100575760003560e01c80631ef518f21461005c5780637f07d2831461008c57806384b0196e146100ad5780638821603c146100c8578063cfdb35bd146100db575b600080fd5b61006f61006a3660046109dc565b61010c565b6040516001600160a01b0390911681526020015b60405180910390f35b61009f61009a366004610b23565b610125565b604051908152602001610083565b6100b5610372565b6040516100839796959493929190610bc6565b61009f6100d6366004610c5e565b6103b8565b61009f6100e9366004610cb0565b600260209081526000938452604080852082529284528284209052825290205481565b600061011f61011a83610db8565b6103cb565b92915050565b60008060008380602001905181019061013e9190610e75565b815151919350915033906001600160a01b0381168214610189576040516347666ba360e11b81526001600160a01b039283166004820152911660248201526044015b60405180910390fd5b50508151516000610199846103cb565b84516020808201516060909201516001600160a01b038087166000908152600284526040808220838716835285528082209287168252919093529091205492935090916001600160801b03909116908181808211610213576040516308e467d960e31b815260048101929092526024820152604401610180565b50600090506102228284610fb1565b9050600061023082896103f2565b905081156102f3576040516343edff4160e11b81526001600160a01b037f000000000000000000000000000000000000000000000000000000000000000016906387dbfe829061028e908f908a908a9088908e908990600401610fda565b600060405180830381600087803b1580156102a857600080fd5b505af11580156102bc573d6000803e3d6000fd5b5050506001600160a01b0380891660009081526002602090815260408083208a851684528252808320938b16835292905220859055505b866001600160a01b0316866001600160a01b03168d600281111561031957610319610fc4565b604080516001600160a01b038a168152602081018790529081018590527ffadd34108e3c00b000a046b272ee080bb1755b91078c0ef5200c0b7da6132bd19060600160405180910390a4509a9950505050505050505050565b600060608060008060006060610386610459565b61038e61048b565b60408051600080825260208201909252600f60f81b9b939a50919850469750309650945092509050565b600061011f6103c68361102e565b6104b8565b6000806103db83600001516104b8565b90506103eb81846020015161056f565b9392505050565b600061040183620f4240101590565b80610414575061041482620f4240101590565b8383909161043e5760405163768bf0eb60e11b815260048101929092526024820152604401610180565b50620f4240905061044f838561103a565b6103eb9190611051565b60606104867f00000000000000000000000000000000000000000000000000000000000000006000610599565b905090565b60606104867f00000000000000000000000000000000000000000000000000000000000000006001610599565b600061011f7fe502a96d6aaed328ceacc76a5f627b9823162f5a205dab5a702b40073a6778428360000151846020015185604001518660600151876080015180519060200120604051602001610554969594939291909586526001600160a01b0394851660208701529290931660408501526001600160401b031660608401526001600160801b0391909116608083015260a082015260c00190565b60405160208183030381529060405280519060200120610644565b60008060008061057f8686610671565b92509250925061058f82826106be565b5090949350505050565b606060ff83146105b3576105ac8361077b565b905061011f565b8180546105bf90611073565b80601f01602080910402602001604051908101604052809291908181526020018280546105eb90611073565b80156106385780601f1061060d57610100808354040283529160200191610638565b820191906000526020600020905b81548152906001019060200180831161061b57829003601f168201915b5050505050905061011f565b600061011f6106516107ba565b8360405161190160f01b8152600281019290925260228201526042902090565b600080600083516041036106ab5760208401516040850151606086015160001a61069d888285856108e5565b9550955095505050506106b7565b50508151600091506002905b9250925092565b60008260038111156106d2576106d2610fc4565b036106db575050565b60018260038111156106ef576106ef610fc4565b0361070d5760405163f645eedf60e01b815260040160405180910390fd5b600282600381111561072157610721610fc4565b036107425760405163fce698f760e01b815260048101829052602401610180565b600382600381111561075657610756610fc4565b03610777576040516335e2f38360e21b815260048101829052602401610180565b5050565b60606000610788836109b4565b604080516020808252818301909252919250600091906020820181803683375050509182525060208101929092525090565b6000306001600160a01b037f00000000000000000000000000000000000000000000000000000000000000001614801561081357507f000000000000000000000000000000000000000000000000000000000000000046145b1561083d57507f000000000000000000000000000000000000000000000000000000000000000090565b610486604080517f8b73c3c69bb8fe3d512ecc4cf759cc79239f7b179b0ffacaa9a75d522b39400f60208201527f0000000000000000000000000000000000000000000000000000000000000000918101919091527f000000000000000000000000000000000000000000000000000000000000000060608201524660808201523060a082015260009060c00160405160208183030381529060405280519060200120905090565b600080807f7fffffffffffffffffffffffffffffff5d576e7357a4501ddfe92f46681b20a084111561092057506000915060039050826109aa565b604080516000808252602082018084528a905260ff891692820192909252606081018790526080810186905260019060a0016020604051602081039080840390855afa158015610974573d6000803e3d6000fd5b5050604051601f1901519150506001600160a01b0381166109a0575060009250600191508290506109aa565b9250600091508190505b9450945094915050565b600060ff8216601f81111561011f57604051632cd44ac360e21b815260040160405180910390fd5b6000602082840312156109ee57600080fd5b81356001600160401b03811115610a0457600080fd5b8201604081850312156103eb57600080fd5b634e487b7160e01b600052604160045260246000fd5b60405160a081016001600160401b0381118282101715610a4e57610a4e610a16565b60405290565b604080519081016001600160401b0381118282101715610a4e57610a4e610a16565b604051601f8201601f191681016001600160401b0381118282101715610a9e57610a9e610a16565b604052919050565b60006001600160401b03821115610abf57610abf610a16565b50601f01601f191660200190565b600082601f830112610ade57600080fd5b8135610af1610aec82610aa6565b610a76565b818152846020838601011115610b0657600080fd5b816020850160208301376000918101602001919091529392505050565b60008060408385031215610b3657600080fd5b823560038110610b4557600080fd5b915060208301356001600160401b03811115610b6057600080fd5b610b6c85828601610acd565b9150509250929050565b60005b83811015610b91578181015183820152602001610b79565b50506000910152565b60008151808452610bb2816020860160208601610b76565b601f01601f19169290920160200192915050565b60ff60f81b8816815260e060208201526000610be560e0830189610b9a565b8281036040840152610bf78189610b9a565b606084018890526001600160a01b038716608085015260a0840186905283810360c08501528451808252602080870193509091019060005b81811015610c4d578351835260209384019390920191600101610c2f565b50909b9a5050505050505050505050565b600060208284031215610c7057600080fd5b81356001600160401b03811115610c8657600080fd5b820160a081850312156103eb57600080fd5b6001600160a01b0381168114610cad57600080fd5b50565b600080600060608486031215610cc557600080fd5b8335610cd081610c98565b92506020840135610ce081610c98565b91506040840135610cf081610c98565b809150509250925092565b6001600160401b0381168114610cad57600080fd5b6001600160801b0381168114610cad57600080fd5b600060a08284031215610d3757600080fd5b610d3f610a2c565b90508135610d4c81610c98565b81526020820135610d5c81610c98565b60208201526040820135610d6f81610cfb565b60408201526060820135610d8281610d10565b606082015260808201356001600160401b03811115610da057600080fd5b610dac84828501610acd565b60808301525092915050565b600060408236031215610dca57600080fd5b610dd2610a54565b82356001600160401b03811115610de857600080fd5b610df436828601610d25565b82525060208301356001600160401b03811115610e1057600080fd5b610e1c36828601610acd565b60208301525092915050565b600082601f830112610e3957600080fd5b8151610e47610aec82610aa6565b818152846020838601011115610e5c57600080fd5b610e6d826020830160208701610b76565b949350505050565b60008060408385031215610e8857600080fd5b82516001600160401b03811115610e9e57600080fd5b830160408186031215610eb057600080fd5b610eb8610a54565b81516001600160401b03811115610ece57600080fd5b820160a08188031215610ee057600080fd5b610ee8610a2c565b8151610ef381610c98565b81526020820151610f0381610c98565b60208201526040820151610f1681610cfb565b60408201526060820151610f2981610d10565b606082015260808201516001600160401b03811115610f4757600080fd5b610f5389828501610e28565b60808301525082525060208201516001600160401b03811115610f7557600080fd5b610f8187828501610e28565b602083810191909152959095015190969095509350505050565b634e487b7160e01b600052601160045260246000fd5b8181038181111561011f5761011f610f9b565b634e487b7160e01b600052602160045260246000fd5b60c0810160038810610ffc57634e487b7160e01b600052602160045260246000fd5b9681526001600160a01b03958616602082015293851660408501526060840192909252909216608082015260a0015290565b600061011f3683610d25565b808202811582820484141761011f5761011f610f9b565b60008261106e57634e487b7160e01b600052601260045260246000fd5b500490565b600181811c9082168061108757607f821691505b6020821081036110a757634e487b7160e01b600052602260045260246000fd5b5091905056fea26469706673582212204ea11b7f590e7303a0b1850b4cd59148c357bb48498bdb2606c6e97c057012e264736f6c634300081b0033",
  "linkReferences": {},
  "deployedLinkReferences": {}
}